{
  "_format": "hh-sol-artifact-1",
  "contractName": "NofGammaPacksV3",
  "sourceName": "contracts/gamma/GammaPacks.v3.sol",
  "abi": [
    {
      "inputs": [],
      "name": "InsufficientAllowance",
      "type": "error"
    },
    {
      "inputs": [],
      "name": "InsufficientBalance",
      "type": "error"
    },
    {
      "inputs": [],
      "name": "InsufficientPacksAvailable",
      "type": "error"
    },
    {
      "inputs": [],
      "name": "InvalidAddress",
      "type": "error"
    },
    {
      "inputs": [],
      "name": "InvalidNumberOfPacks",
      "type": "error"
    },
    {
      "inputs": [],
      "name": "NotGammaCardsContract",
      "type": "error"
    },
    {
      "inputs": [],
      "name": "NotYourPack",
      "type": "error"
    },
    {
      "inputs": [],
      "name": "OwnlyOwners",
      "type": "error"
    },
    {
      "inputs": [
        {
          "internalType": "address",
          "name": "_to",
          "type": "address"
        }
      ],
      "name": "TransferPrizeError",
      "type": "error"
    },
    {
      "anonymous": false,
      "inputs": [
        {
          "indexed": true,
          "internalType": "address",
          "name": "balanceReceiver",
          "type": "address"
        }
      ],
      "name": "NewBalanceReceiver",
      "type": "event"
    },
    {
      "anonymous": false,
      "inputs": [
        {
          "indexed": true,
          "internalType": "address",
          "name": "newCardsContract",
          "type": "address"
        }
      ],
      "name": "NewGammaCardsContract",
      "type": "event"
    },
    {
      "anonymous": false,
      "inputs": [
        {
          "indexed": true,
          "internalType": "address",
          "name": "newGammaTicketContract",
          "type": "address"
        }
      ],
      "name": "NewGammaTicketsContract",
      "type": "event"
    },
    {
      "anonymous": false,
      "inputs": [
        {
          "indexed": true,
          "internalType": "uint256",
          "name": "newPrice",
          "type": "uint256"
        }
      ],
      "name": "NewPrice",
      "type": "event"
    },
    {
      "anonymous": false,
      "inputs": [
        {
          "indexed": true,
          "internalType": "address",
          "name": "previousOwner",
          "type": "address"
        },
        {
          "indexed": true,
          "internalType": "address",
          "name": "newOwner",
          "type": "address"
        }
      ],
      "name": "OwnershipTransferred",
      "type": "event"
    },
    {
      "anonymous": false,
      "inputs": [
        {
          "indexed": true,
          "internalType": "address",
          "name": "user",
          "type": "address"
        },
        {
          "indexed": true,
          "internalType": "uint256",
          "name": "tokenId",
          "type": "uint256"
        }
      ],
      "name": "PackOpened",
      "type": "event"
    },
    {
      "anonymous": false,
      "inputs": [
        {
          "indexed": true,
          "internalType": "address",
          "name": "buyer",
          "type": "address"
        },
        {
          "indexed": true,
          "internalType": "uint256",
          "name": "tokenId",
          "type": "uint256"
        }
      ],
      "name": "PackPurchased",
      "type": "event"
    },
    {
      "anonymous": false,
      "inputs": [
        {
          "indexed": true,
          "internalType": "address",
          "name": "from",
          "type": "address"
        },
        {
          "indexed": true,
          "internalType": "address",
          "name": "to",
          "type": "address"
        },
        {
          "indexed": true,
          "internalType": "uint256",
          "name": "tokenId",
          "type": "uint256"
        }
      ],
      "name": "PackTransfered",
      "type": "event"
    },
    {
      "anonymous": false,
      "inputs": [
        {
          "indexed": true,
          "internalType": "address",
          "name": "buyer",
          "type": "address"
        },
        {
          "indexed": true,
          "internalType": "uint256[]",
          "name": "tokenIds",
          "type": "uint256[]"
        }
      ],
      "name": "PacksPurchased",
      "type": "event"
    },
    {
      "anonymous": false,
      "inputs": [
        {
          "indexed": true,
          "internalType": "address",
          "name": "from",
          "type": "address"
        },
        {
          "indexed": true,
          "internalType": "address",
          "name": "to",
          "type": "address"
        },
        {
          "indexed": true,
          "internalType": "uint256[]",
          "name": "tokenId",
          "type": "uint256[]"
        }
      ],
      "name": "PacksTransfered",
      "type": "event"
    },
    {
      "inputs": [],
      "name": "DAI_TOKEN",
      "outputs": [
        {
          "internalType": "address",
          "name": "",
          "type": "address"
        }
      ],
      "stateMutability": "view",
      "type": "function"
    },
    {
      "inputs": [],
      "name": "TOTALSUPPLY",
      "outputs": [
        {
          "internalType": "uint256",
          "name": "",
          "type": "uint256"
        }
      ],
      "stateMutability": "view",
      "type": "function"
    },
    {
      "inputs": [
        {
          "internalType": "address",
          "name": "_newOwner",
          "type": "address"
        }
      ],
      "name": "addOwner",
      "outputs": [],
      "stateMutability": "nonpayable",
      "type": "function"
    },
    {
      "inputs": [],
      "name": "buyPack",
      "outputs": [
        {
          "internalType": "uint256",
          "name": "",
          "type": "uint256"
        }
      ],
      "stateMutability": "nonpayable",
      "type": "function"
    },
    {
      "inputs": [
        {
          "internalType": "address",
          "name": "user",
          "type": "address"
        }
      ],
      "name": "buyPackByUser",
      "outputs": [
        {
          "internalType": "uint256",
          "name": "",
          "type": "uint256"
        }
      ],
      "stateMutability": "nonpayable",
      "type": "function"
    },
    {
      "inputs": [
        {
          "internalType": "uint256",
          "name": "numberOfPacks",
          "type": "uint256"
        }
      ],
      "name": "buyPacks",
      "outputs": [
        {
          "internalType": "uint256[]",
          "name": "",
          "type": "uint256[]"
        }
      ],
      "stateMutability": "nonpayable",
      "type": "function"
    },
    {
      "inputs": [
        {
          "internalType": "address",
          "name": "user",
          "type": "address"
        },
        {
          "internalType": "uint256",
          "name": "numberOfPacks",
          "type": "uint256"
        }
      ],
      "name": "buyPacksByUser",
      "outputs": [
        {
          "internalType": "uint256[]",
          "name": "",
          "type": "uint256[]"
        }
      ],
      "stateMutability": "nonpayable",
      "type": "function"
    },
    {
      "inputs": [
        {
          "internalType": "address",
          "name": "_newBalanceReceiver",
          "type": "address"
        }
      ],
      "name": "changeBalanceReceiver",
      "outputs": [],
      "stateMutability": "nonpayable",
      "type": "function"
    },
    {
      "inputs": [
        {
          "internalType": "uint256",
          "name": "_newPrice",
          "type": "uint256"
        }
      ],
      "name": "changePrice",
      "outputs": [],
      "stateMutability": "nonpayable",
      "type": "function"
    },
    {
      "inputs": [
        {
          "internalType": "bool",
          "name": "_transferDai",
          "type": "bool"
        }
      ],
      "name": "changeTransferDaiFlag",
      "outputs": [],
      "stateMutability": "nonpayable",
      "type": "function"
    },
    {
      "inputs": [],
      "name": "gammaCardsContract",
      "outputs": [
        {
          "internalType": "contract IGammaCardsContract",
          "name": "",
          "type": "address"
        }
      ],
      "stateMutability": "view",
      "type": "function"
    },
    {
      "inputs": [],
      "name": "gammaTicketsContract",
      "outputs": [
        {
          "internalType": "contract IgammaTicketsContract",
          "name": "",
          "type": "address"
        }
      ],
      "stateMutability": "view",
      "type": "function"
    },
    {
      "inputs": [
        {
          "internalType": "uint256",
          "name": "numberOfPacks",
          "type": "uint256"
        }
      ],
      "name": "getAmountRequiredToBuyPacks",
      "outputs": [
        {
          "internalType": "uint256",
          "name": "",
          "type": "uint256"
        }
      ],
      "stateMutability": "view",
      "type": "function"
    },
    {
      "inputs": [
        {
          "internalType": "uint256",
          "name": "tokenId",
          "type": "uint256"
        }
      ],
      "name": "getPackOwner",
      "outputs": [
        {
          "internalType": "address",
          "name": "",
          "type": "address"
        }
      ],
      "stateMutability": "view",
      "type": "function"
    },
    {
      "inputs": [
        {
          "internalType": "address",
          "name": "owner",
          "type": "address"
        }
      ],
      "name": "getPacksByUser",
      "outputs": [
        {
          "internalType": "uint256[]",
          "name": "",
          "type": "uint256[]"
        }
      ],
      "stateMutability": "view",
      "type": "function"
    },
    {
      "inputs": [
        {
          "internalType": "uint256",
          "name": "numberOfPacks",
          "type": "uint256"
        }
      ],
      "name": "getPrizeAmountToBuyPacks",
      "outputs": [
        {
          "internalType": "uint256",
          "name": "",
          "type": "uint256"
        }
      ],
      "stateMutability": "view",
      "type": "function"
    },
    {
      "inputs": [
        {
          "internalType": "uint256",
          "name": "numberOfPacks",
          "type": "uint256"
        }
      ],
      "name": "getPrizeNoFAccountAmountToBuyPacks",
      "outputs": [
        {
          "internalType": "uint256",
          "name": "",
          "type": "uint256"
        }
      ],
      "stateMutability": "view",
      "type": "function"
    },
    {
      "inputs": [
        {
          "internalType": "address",
          "name": "_daiTokenAddress",
          "type": "address"
        },
        {
          "internalType": "address",
          "name": "_balanceReceiver",
          "type": "address"
        },
        {
          "internalType": "address",
          "name": "_gammaCardsContract",
          "type": "address"
        },
        {
          "internalType": "address",
          "name": "_gammaTicketsContract",
          "type": "address"
        }
      ],
      "name": "init",
      "outputs": [],
      "stateMutability": "nonpayable",
      "type": "function"
    },
    {
      "inputs": [
        {
          "internalType": "address",
          "name": "user",
          "type": "address"
        }
      ],
      "name": "isOwner",
      "outputs": [
        {
          "internalType": "bool",
          "name": "",
          "type": "bool"
        }
      ],
      "stateMutability": "view",
      "type": "function"
    },
    {
      "inputs": [
        {
          "internalType": "uint256",
          "name": "numberOfPacks",
          "type": "uint256"
        }
      ],
      "name": "meetQuantityConditionsToBuy",
      "outputs": [
        {
          "internalType": "bool",
          "name": "",
          "type": "bool"
        }
      ],
      "stateMutability": "view",
      "type": "function"
    },
    {
      "inputs": [
        {
          "internalType": "uint256",
          "name": "tokenId",
          "type": "uint256"
        },
        {
          "internalType": "address",
          "name": "owner",
          "type": "address"
        }
      ],
      "name": "openPack",
      "outputs": [],
      "stateMutability": "nonpayable",
      "type": "function"
    },
    {
      "inputs": [
        {
          "internalType": "uint256[]",
          "name": "tokenIds",
          "type": "uint256[]"
        },
        {
          "internalType": "address",
          "name": "owner",
          "type": "address"
        }
      ],
      "name": "openPacks",
      "outputs": [],
      "stateMutability": "nonpayable",
      "type": "function"
    },
    {
      "inputs": [],
      "name": "owner",
      "outputs": [
        {
          "internalType": "address",
          "name": "",
          "type": "address"
        }
      ],
      "stateMutability": "view",
      "type": "function"
    },
    {
      "inputs": [
        {
          "internalType": "address",
          "name": "_ownerToRemove",
          "type": "address"
        }
      ],
      "name": "removeOwner",
      "outputs": [],
      "stateMutability": "nonpayable",
      "type": "function"
    },
    {
      "inputs": [],
      "name": "renounceOwnership",
      "outputs": [],
      "stateMutability": "nonpayable",
      "type": "function"
    },
    {
      "inputs": [],
      "name": "s_balanceReceiver",
      "outputs": [
        {
          "internalType": "address",
          "name": "",
          "type": "address"
        }
      ],
      "stateMutability": "view",
      "type": "function"
    },
    {
      "inputs": [],
      "name": "s_packPrice",
      "outputs": [
        {
          "internalType": "uint256",
          "name": "",
          "type": "uint256"
        }
      ],
      "stateMutability": "view",
      "type": "function"
    },
    {
      "inputs": [
        {
          "internalType": "uint256",
          "name": "tokenId",
          "type": "uint256"
        }
      ],
      "name": "s_packs",
      "outputs": [
        {
          "internalType": "address",
          "name": "owner",
          "type": "address"
        }
      ],
      "stateMutability": "view",
      "type": "function"
    },
    {
      "inputs": [
        {
          "internalType": "address",
          "name": "owner",
          "type": "address"
        },
        {
          "internalType": "uint256",
          "name": "",
          "type": "uint256"
        }
      ],
      "name": "s_packsByUser",
      "outputs": [
        {
          "internalType": "uint256",
          "name": "tokenIds",
          "type": "uint256"
        }
      ],
      "stateMutability": "view",
      "type": "function"
    },
    {
      "inputs": [
        {
          "internalType": "address",
          "name": "_gammaCardsContract",
          "type": "address"
        }
      ],
      "name": "setGammaCardsContract",
      "outputs": [],
      "stateMutability": "nonpayable",
      "type": "function"
    },
    {
      "inputs": [
        {
          "internalType": "address",
          "name": "_gammaTicketsContract",
          "type": "address"
        }
      ],
      "name": "setGammaTicketsContract",
      "outputs": [],
      "stateMutability": "nonpayable",
      "type": "function"
    },
    {
      "inputs": [
        {
          "internalType": "uint256",
          "name": "tokenId",
          "type": "uint256"
        },
        {
          "internalType": "address",
          "name": "owner",
          "type": "address"
        }
      ],
      "name": "testOpenPack",
      "outputs": [],
      "stateMutability": "nonpayable",
      "type": "function"
    },
    {
      "inputs": [
        {
          "internalType": "uint256[]",
          "name": "tokenIds",
          "type": "uint256[]"
        },
        {
          "internalType": "address",
          "name": "owner",
          "type": "address"
        }
      ],
      "name": "testOpenPacks",
      "outputs": [],
      "stateMutability": "nonpayable",
      "type": "function"
    },
    {
      "inputs": [
        {
          "internalType": "address",
          "name": "newOwner",
          "type": "address"
        }
      ],
      "name": "transferOwnership",
      "outputs": [],
      "stateMutability": "nonpayable",
      "type": "function"
    },
    {
      "inputs": [
        {
          "internalType": "address",
          "name": "to",
          "type": "address"
        },
        {
          "internalType": "uint256",
          "name": "tokenId",
          "type": "uint256"
        }
      ],
      "name": "transferPack",
      "outputs": [],
      "stateMutability": "nonpayable",
      "type": "function"
    },
    {
      "inputs": [
        {
          "internalType": "address",
          "name": "to",
          "type": "address"
        },
        {
          "internalType": "uint256[]",
          "name": "tokenIds",
          "type": "uint256[]"
        }
      ],
      "name": "transferPacks",
      "outputs": [],
      "stateMutability": "nonpayable",
      "type": "function"
    }
  ],
  "bytecode": "0x60806040526710a741a46278000060075560006008556009805460ff1916600117905534801561002e57600080fd5b506100383361003d565b61008d565b600080546001600160a01b038381166001600160a01b0319831681178455604051919092169283917f8be0079c531659141344cd1fd0a4f28419497f9722a3daafe3b4186f6b6457e09190a35050565b611bde8061009c6000396000f3fe608060405234801561001057600080fd5b506004361061021c5760003560e01c806394a08c6911610125578063d250f03a116100ad578063d9e8221e1161007c578063d9e8221e146104d1578063ddb975e8146104e4578063e0f78307146104f7578063e606df871461050a578063f2fde38b1461051d57600080fd5b8063d250f03a1461046f578063d3e6a7ad14610482578063d611713e146104ab578063d6a4c3e4146104be57600080fd5b8063a2b40d19116100f4578063a2b40d191461041b578063ab4bdbc81461042e578063b48ce65314610441578063c34e8af414610454578063c37b9bcd1461046757600080fd5b806394a08c69146103d9578063967ed63d146103e257806397f8b3d3146103f557806399e5f8961461040857600080fd5b80634c7a7ad3116101a85780637065cb48116101775780637065cb4814610387578063715018a61461039a57806380f2540b146103a25780638da5cb5b146103b55780638fd5baf7146103c657600080fd5b80634c7a7ad31461033857806362e218781461034b578063656bd0ad1461036b5780636adbaf751461037457600080fd5b8063173825d9116101ef578063173825d91461029a5780632f54bf6e146102ad57806339e8d3ec146102e95780633cd626fd146102fc5780633f6ecd481461032557600080fd5b806301321c4d1461022157806306552ff3146102475780630c3e5c001461025c57806314cca36a1461026f575b600080fd5b61023461022f3660046117da565b610530565b6040519081526020015b60405180910390f35b61025a61025536600461180a565b61055e565b005b61025a61026a36600461190f565b61061c565b600254610282906001600160a01b031681565b6040516001600160a01b03909116815260200161023e565b61025a6102a836600461195d565b610698565b6102d96102bb36600461195d565b6001600160a01b031660009081526003602052604090205460ff1690565b604051901515815260200161023e565b61025a6102f7366004611978565b61073e565b61028261030a3660046117da565b600a602052600090815260409020546001600160a01b031681565b6102346103333660046117da565b61077c565b61025a61034636600461195d565b6107ab565b61035e61035936600461199b565b61084c565b60405161023e91906119c5565b61023460075481565b61035e6103823660046117da565b610889565b61025a61039536600461195d565b610895565b61025a61090c565b61025a6103b0366004611978565b610920565b6000546001600160a01b0316610282565b61035e6103d436600461195d565b61094b565b61023461c35081565b6102346103f036600461195d565b6109b7565b61025a61040336600461190f565b6109f5565b61025a610416366004611a17565b610a67565b61025a6104293660046117da565b610aaa565b61025a61043c366004611a34565b610b6b565b61023461044f3660046117da565b610c02565b600654610282906001600160a01b031681565b610234610c2f565b600154610282906001600160a01b031681565b6102826104903660046117da565b6000908152600a60205260409020546001600160a01b031690565b61025a6104b936600461199b565b610c3f565b6102d96104cc3660046117da565b610c49565b6102346104df36600461199b565b610c84565b61025a6104f236600461195d565b610cb5565b61025a61050536600461195d565b610d56565b600554610282906001600160a01b031681565b61025a61052b36600461195d565b610df7565b60008061053c8361077c565b9050808360075461054d9190611a98565b6105579190611aaf565b9392505050565b610566610e75565b6001600160a01b038316158061058357506001600160a01b038216155b8061059557506001600160a01b038116155b156105b35760405163e6c4247b60e01b815260040160405180910390fd5b600580546001600160a01b03199081166001600160a01b039687161790915560068054821694861694909417909355600180548416928516929092178255600280549093169316929092179055336000908152600360205260409020805460ff19169091179055565b3360009081526003602052604090205460ff1661064c57604051631833a1e960e31b815260040160405180910390fd5b60005b825181101561069357600083828151811061066c5761066c611ac2565b602002602001015190506106808184610ecf565b508061068b81611ad8565b91505061064f565b505050565b3360009081526003602052604090205460ff166106c857604051631833a1e960e31b815260040160405180910390fd5b604051632dd92c6960e21b8152600360048201526001600160a01b038216602482015273__$2004922c2908b386ae4415e9a8cdeda8c7$__9063b764b1a4906044015b60006040518083038186803b15801561072357600080fd5b505af4158015610737573d6000803e3d6000fd5b5050505050565b3360009081526003602052604090205460ff1661076e57604051631833a1e960e31b815260040160405180910390fd5b6107788282610ecf565b5050565b600081600660075461078e9190611af1565b60075461079b9190611aaf565b6107a59190611a98565b92915050565b3360009081526003602052604090205460ff166107db57604051631833a1e960e31b815260040160405180910390fd5b6001600160a01b0381166108025760405163e6c4247b60e01b815260040160405180910390fd5b600180546001600160a01b0319166001600160a01b0383169081179091556040517f45c9eba39b5ae3e7a6650b0a57bcb8e5d135936d56d111983dbc5860ae6760fa90600090a250565b3360009081526003602052604090205460609060ff1661087f57604051631833a1e960e31b815260040160405180910390fd5b6105578383610f2c565b60606107a53383610f2c565b3360009081526003602052604090205460ff166108c557604051631833a1e960e31b815260040160405180910390fd5b604051632d35e2b960e21b8152600360048201526001600160a01b038216602482015273__$2004922c2908b386ae4415e9a8cdeda8c7$__9063b4d78ae49060440161070b565b610914610e75565b61091e6000611192565b565b6001546001600160a01b0316331461076e57604051630f8d39bd60e41b815260040160405180910390fd5b6001600160a01b0381166000908152600b60209081526040918290208054835181840281018401909452808452606093928301828280156109ab57602002820191906000526020600020905b815481526020019060010190808311610997575b50505050509050919050565b3360009081526003602052604081205460ff166109e757604051631833a1e960e31b815260040160405180910390fd5b6107a5826111e2565b919050565b6001546001600160a01b03163314610a2057604051630f8d39bd60e41b815260040160405180910390fd5b60005b8251811015610693576000838281518110610a4057610a40611ac2565b60200260200101519050610a548184610ecf565b5080610a5f81611ad8565b915050610a23565b3360009081526003602052604090205460ff16610a9757604051631833a1e960e31b815260040160405180910390fd5b6009805460ff1916911515919091179055565b3360009081526003602052604090205460ff16610ada57604051631833a1e960e31b815260040160405180910390fd5b60078190556001546040516370c41e3760e11b8152600481018390526001600160a01b039091169063e1883c6e90602401600060405180830381600087803b158015610b2557600080fd5b505af1158015610b39573d6000803e3d6000fd5b50506040518392507f270b316b51ab2cf3a3bb8ca4d22e76a327d05e762fcaa8bd6afaf8cfde9270b79150600090a250565b60005b8151811015610bb2576000828281518110610b8b57610b8b611ac2565b60200260200101519050610b9f8482611215565b5080610baa81611ad8565b915050610b6e565b5080604051610bc19190611b13565b604051908190038120906001600160a01b0384169033907f1affae2fd35738ec8f6a4212f337c673b41aa2231f1bd5cfeb94463a93ace1f190600090a45050565b600080610c0e8361077c565b90506000610c1b84610530565b9050610c278183611b49565b949350505050565b6000610c3a336111e2565b905090565b6107788282611215565b600081600003610c6c57604051632ec760a560e01b815260040160405180910390fd5b61c35082600854610c7d9190611b49565b1092915050565b600b6020528160005260406000208181548110610ca057600080fd5b90600052602060002001600091509150505481565b3360009081526003602052604090205460ff16610ce557604051631833a1e960e31b815260040160405180910390fd5b6001600160a01b038116610d0c5760405163e6c4247b60e01b815260040160405180910390fd5b600280546001600160a01b0319166001600160a01b0383169081179091556040517f563f24d71e856f79bec30e1aa96082a296cd13f0a71cec730a72b719fa0fa20290600090a250565b3360009081526003602052604090205460ff16610d8657604051631833a1e960e31b815260040160405180910390fd5b6001600160a01b038116610dad5760405163e6c4247b60e01b815260040160405180910390fd5b600680546001600160a01b0319166001600160a01b0383169081179091556040517f7161c7a7090d78e8031fca87e845a86b39e0eb9c15436933d2d4ce7f4520c4a590600090a250565b610dff610e75565b6001600160a01b038116610e695760405162461bcd60e51b815260206004820152602660248201527f4f776e61626c653a206e6577206f776e657220697320746865207a65726f206160448201526564647265737360d01b60648201526084015b60405180910390fd5b610e7281611192565b50565b6000546001600160a01b0316331461091e5760405162461bcd60e51b815260206004820181905260248201527f4f776e61626c653a2063616c6c6572206973206e6f7420746865206f776e65726044820152606401610e60565b610ed98282611301565b6000828152600a602052604080822080546001600160a01b03191690555183916001600160a01b038416917f459bdaa71b6c253b49d34a7622dc4c6c1c416c0567571c068b392ba7172ddd4c9190a35050565b60606001600160a01b038316610f555760405163e6c4247b60e01b815260040160405180910390fd5b811580610f625750606482115b15610f8057604051632ec760a560e01b815260040160405180910390fd5b61c35082600854610f919190611b49565b10610faf57604051637c5a3c3960e01b815260040160405180910390fd5b60008267ffffffffffffffff811115610fca57610fca61185e565b604051908082528060200260200182016040528015610ff3578160200160208202803683370190505b5060085490915060005b848110156110a35761c350821061102757604051637c5a3c3960e01b815260040160405180910390fd5b6000828152600a6020908152604080832080546001600160a01b0319166001600160a01b038b169081179091558352600b8252822080546001810182559083529120018290558251829084908390811061108357611083611ac2565b60209081029190910101528161109881611ad8565b925050600101610ffd565b50600881905560006110b58686611440565b9050806110e057604051630bd7e48f60e21b81526001600160a01b0387166004820152602401610e60565b8460010361113e57826000815181106110fb576110fb611ac2565b6020026020010151866001600160a01b03167fc79cad949a408373456da7a9e88e8114102aa00e03a69733c70e3a0d95944ca760405160405180910390a3611188565b8260405161114c9190611b13565b604051908190038120906001600160a01b038816907f8ae8b18ed6d499ec84f68235bf3512b3db155f7911789805d36093467e5971c990600090a35b5090949350505050565b600080546001600160a01b038381166001600160a01b0319831681178455604051919092169283917f8be0079c531659141344cd1fd0a4f28419497f9722a3daafe3b4186f6b6457e09190a35050565b6000806111f0836001610f2c565b90508060008151811061120557611205611ac2565b6020026020010151915050919050565b6001600160a01b03821661123c5760405163e6c4247b60e01b815260040160405180910390fd5b6000818152600a60205260409020546001600160a01b0316331461127357604051637f6ecdf560e01b815260040160405180910390fd5b6000818152600a6020526040902080546001600160a01b0319166001600160a01b0384161790556112a48133611301565b6001600160a01b0382166000818152600b6020908152604080832080546001810182559084529183209091018490555183929133917f16e5698e3d85c69c8d8cdb9a21893b33518e24d8cb69d9944d4bfd233464c3a29190a45050565b6001600160a01b0381166000908152600b6020526040812054905b8181101561143a576001600160a01b0383166000908152600b6020526040902080548591908390811061135157611351611ac2565b906000526020600020015403611428576001600160a01b0383166000908152600b60205260409020805461138790600190611aaf565b8154811061139757611397611ac2565b9060005260206000200154600b6000856001600160a01b03166001600160a01b0316815260200190815260200160002082815481106113d8576113d8611ac2565b60009182526020808320909101929092556001600160a01b0385168152600b9091526040902080548061140d5761140d611b5c565b6001900381819060005260206000200160009055905561143a565b8061143281611ad8565b91505061131c565b50505050565b60008061144c8361077c565b9050600061145984610530565b600154604051630bc639c960e31b8152600481018590529192506001600160a01b031690635e31ce4890602401600060405180830381600087803b1580156114a057600080fd5b505af11580156114b4573d6000803e3d6000fd5b505060095460ff161591506117cf9050576005546001600160a01b03166114db8284611b49565b604051636eb1769f60e11b81526001600160a01b03888116600483015230602483015283169063dd62ed3e90604401602060405180830381865afa158015611527573d6000803e3d6000fd5b505050506040513d601f19601f8201168201806040525081019061154b9190611b72565b101561156a576040516313be252b60e01b815260040160405180910390fd5b6040516370a0823160e01b81526001600160a01b0387811660048301528491908316906370a0823190602401602060405180830381865afa1580156115b3573d6000803e3d6000fd5b505050506040513d601f19601f820116820180604052508101906115d79190611b72565b108061164d57506040516370a0823160e01b81526001600160a01b0387811660048301528391908316906370a0823190602401602060405180830381865afa158015611627573d6000803e3d6000fd5b505050506040513d601f19601f8201168201806040525081019061164b9190611b72565b105b1561166b57604051631e9acf1760e31b815260040160405180910390fd5b6001546040516323b872dd60e01b81526001600160a01b0388811660048301529182166024820152604481018590526000918316906323b872dd906064016020604051808303816000875af11580156116c8573d6000803e3d6000fd5b505050506040513d601f19601f820116820180604052508101906116ec9190611b8b565b90508061171b57600154604051630bd7e48f60e21b81526001600160a01b039091166004820152602401610e60565b6006546040516323b872dd60e01b81526001600160a01b0389811660048301529182166024820152604481018590526000918416906323b872dd906064016020604051808303816000875af1158015611778573d6000803e3d6000fd5b505050506040513d601f19601f8201168201806040525081019061179c9190611b8b565b9050806117cb57600654604051630bd7e48f60e21b81526001600160a01b039091166004820152602401610e60565b5050505b506001949350505050565b6000602082840312156117ec57600080fd5b5035919050565b80356001600160a01b03811681146109f057600080fd5b6000806000806080858703121561182057600080fd5b611829856117f3565b9350611837602086016117f3565b9250611845604086016117f3565b9150611853606086016117f3565b905092959194509250565b634e487b7160e01b600052604160045260246000fd5b600082601f83011261188557600080fd5b8135602067ffffffffffffffff808311156118a2576118a261185e565b8260051b604051601f19603f830116810181811084821117156118c7576118c761185e565b6040529384528581018301938381019250878511156118e557600080fd5b83870191505b84821015611904578135835291830191908301906118eb565b979650505050505050565b6000806040838503121561192257600080fd5b823567ffffffffffffffff81111561193957600080fd5b61194585828601611874565b925050611954602084016117f3565b90509250929050565b60006020828403121561196f57600080fd5b610557826117f3565b6000806040838503121561198b57600080fd5b82359150611954602084016117f3565b600080604083850312156119ae57600080fd5b6119b7836117f3565b946020939093013593505050565b6020808252825182820181905260009190848201906040850190845b818110156119fd578351835292840192918401916001016119e1565b50909695505050505050565b8015158114610e7257600080fd5b600060208284031215611a2957600080fd5b813561055781611a09565b60008060408385031215611a4757600080fd5b611a50836117f3565b9150602083013567ffffffffffffffff811115611a6c57600080fd5b611a7885828601611874565b9150509250929050565b634e487b7160e01b600052601160045260246000fd5b80820281158282048414176107a5576107a5611a82565b818103818111156107a5576107a5611a82565b634e487b7160e01b600052603260045260246000fd5b600060018201611aea57611aea611a82565b5060010190565b600082611b0e57634e487b7160e01b600052601260045260246000fd5b500490565b815160009082906020808601845b83811015611b3d57815185529382019390820190600101611b21565b50929695505050505050565b808201808211156107a5576107a5611a82565b634e487b7160e01b600052603160045260246000fd5b600060208284031215611b8457600080fd5b5051919050565b600060208284031215611b9d57600080fd5b815161055781611a0956fea2646970667358221220fd54fd5d99679dd24123986c2b3fe3d53c16d5b0be561d77ba62c9b5e4a6b5b064736f6c63430008140033",
  "linkReferences": {
    "contracts/gamma/libs/LibControlMgmt.sol": {
      "LibControlMgmt": [
        {
          "length": 20,
          "start": 1929
        },
        {
          "length": 20,
          "start": 2438
        }
      ]
    }
  },
  "deployedLinkReferences": {
    "contracts/gamma/libs/LibControlMgmt.sol": {
      "LibControlMgmt": [
        {
          "length": 20,
          "start": 1773
        },
        {
          "length": 20,
          "start": 2282
        }
      ]
    }
  }
}