{
  "_format": "hh-sol-artifact-1",
  "contractName": "NofGammaCardsV5",
  "sourceName": "contracts/gamma/GammaCards.v5.sol",
  "abi": [
    {
      "inputs": [
        {
          "internalType": "address",
          "name": "_daiTokenAddress",
          "type": "address"
        },
        {
          "internalType": "address",
          "name": "_gammaPacksContract",
          "type": "address"
        },
        {
          "internalType": "string",
          "name": "_baseUri",
          "type": "string"
        },
        {
          "internalType": "address",
          "name": "_signer",
          "type": "address"
        }
      ],
      "stateMutability": "nonpayable",
      "type": "constructor"
    },
    {
      "anonymous": false,
      "inputs": [
        {
          "indexed": false,
          "internalType": "address",
          "name": "player",
          "type": "address"
        },
        {
          "indexed": false,
          "internalType": "uint8",
          "name": "albumClass",
          "type": "uint8"
        }
      ],
      "name": "AlbumCompleted",
      "type": "event"
    },
    {
      "anonymous": false,
      "inputs": [
        {
          "indexed": true,
          "internalType": "address",
          "name": "owner",
          "type": "address"
        },
        {
          "indexed": true,
          "internalType": "address",
          "name": "approved",
          "type": "address"
        },
        {
          "indexed": true,
          "internalType": "uint256",
          "name": "tokenId",
          "type": "uint256"
        }
      ],
      "name": "Approval",
      "type": "event"
    },
    {
      "anonymous": false,
      "inputs": [
        {
          "indexed": true,
          "internalType": "address",
          "name": "owner",
          "type": "address"
        },
        {
          "indexed": true,
          "internalType": "address",
          "name": "operator",
          "type": "address"
        },
        {
          "indexed": false,
          "internalType": "bool",
          "name": "approved",
          "type": "bool"
        }
      ],
      "name": "ApprovalForAll",
      "type": "event"
    },
    {
      "anonymous": false,
      "inputs": [
        {
          "indexed": false,
          "internalType": "uint256",
          "name": "_fromTokenId",
          "type": "uint256"
        },
        {
          "indexed": false,
          "internalType": "uint256",
          "name": "_toTokenId",
          "type": "uint256"
        }
      ],
      "name": "BatchMetadataUpdate",
      "type": "event"
    },
    {
      "anonymous": false,
      "inputs": [
        {
          "indexed": false,
          "internalType": "address",
          "name": "player",
          "type": "address"
        },
        {
          "indexed": false,
          "internalType": "uint256",
          "name": "cardTokenId",
          "type": "uint256"
        },
        {
          "indexed": false,
          "internalType": "uint256",
          "name": "albumTokenId",
          "type": "uint256"
        }
      ],
      "name": "CardPasted",
      "type": "event"
    },
    {
      "anonymous": false,
      "inputs": [
        {
          "indexed": false,
          "internalType": "address",
          "name": "receiver",
          "type": "address"
        },
        {
          "indexed": false,
          "internalType": "uint256",
          "name": "amount",
          "type": "uint256"
        }
      ],
      "name": "EmergencyWithdrawal",
      "type": "event"
    },
    {
      "anonymous": false,
      "inputs": [
        {
          "indexed": false,
          "internalType": "address",
          "name": "from",
          "type": "address"
        },
        {
          "indexed": false,
          "internalType": "address",
          "name": "to",
          "type": "address"
        },
        {
          "indexed": false,
          "internalType": "uint8",
          "name": "cardNumberFrom",
          "type": "uint8"
        },
        {
          "indexed": false,
          "internalType": "uint8",
          "name": "cardNumberTo",
          "type": "uint8"
        }
      ],
      "name": "ExchangeCardOffer",
      "type": "event"
    },
    {
      "anonymous": false,
      "inputs": [
        {
          "indexed": false,
          "internalType": "uint256",
          "name": "_tokenId",
          "type": "uint256"
        }
      ],
      "name": "MetadataUpdate",
      "type": "event"
    },
    {
      "anonymous": false,
      "inputs": [
        {
          "indexed": false,
          "internalType": "address",
          "name": "newGammaOffersContract",
          "type": "address"
        }
      ],
      "name": "NewGammaOffersContract",
      "type": "event"
    },
    {
      "anonymous": false,
      "inputs": [
        {
          "indexed": false,
          "internalType": "address",
          "name": "newGammaPacksContract",
          "type": "address"
        }
      ],
      "name": "NewGammaPacksContract",
      "type": "event"
    },
    {
      "anonymous": false,
      "inputs": [
        {
          "indexed": false,
          "internalType": "address",
          "name": "owner",
          "type": "address"
        }
      ],
      "name": "NewOwnerAdded",
      "type": "event"
    },
    {
      "anonymous": false,
      "inputs": [
        {
          "indexed": false,
          "internalType": "address",
          "name": "newSigner",
          "type": "address"
        }
      ],
      "name": "NewSigner",
      "type": "event"
    },
    {
      "anonymous": false,
      "inputs": [
        {
          "indexed": false,
          "internalType": "address",
          "name": "signer",
          "type": "address"
        }
      ],
      "name": "NewSignerAdded",
      "type": "event"
    },
    {
      "anonymous": false,
      "inputs": [
        {
          "indexed": false,
          "internalType": "string",
          "name": "newMainUri",
          "type": "string"
        },
        {
          "indexed": false,
          "internalType": "string",
          "name": "newSecondaryUri",
          "type": "string"
        }
      ],
      "name": "NewUris",
      "type": "event"
    },
    {
      "anonymous": false,
      "inputs": [
        {
          "indexed": false,
          "internalType": "address",
          "name": "owner",
          "type": "address"
        }
      ],
      "name": "OwnerRemoved",
      "type": "event"
    },
    {
      "anonymous": false,
      "inputs": [
        {
          "indexed": true,
          "internalType": "address",
          "name": "previousOwner",
          "type": "address"
        },
        {
          "indexed": true,
          "internalType": "address",
          "name": "newOwner",
          "type": "address"
        }
      ],
      "name": "OwnershipTransferred",
      "type": "event"
    },
    {
      "anonymous": false,
      "inputs": [
        {
          "indexed": false,
          "internalType": "address",
          "name": "player",
          "type": "address"
        },
        {
          "indexed": false,
          "internalType": "uint8[]",
          "name": "packData",
          "type": "uint8[]"
        },
        {
          "indexed": false,
          "internalType": "uint256",
          "name": "packNumber",
          "type": "uint256"
        }
      ],
      "name": "PackOpened",
      "type": "event"
    },
    {
      "anonymous": false,
      "inputs": [
        {
          "indexed": false,
          "internalType": "address",
          "name": "signer",
          "type": "address"
        }
      ],
      "name": "SignerRemoved",
      "type": "event"
    },
    {
      "anonymous": false,
      "inputs": [
        {
          "indexed": true,
          "internalType": "address",
          "name": "from",
          "type": "address"
        },
        {
          "indexed": true,
          "internalType": "address",
          "name": "to",
          "type": "address"
        },
        {
          "indexed": true,
          "internalType": "uint256",
          "name": "tokenId",
          "type": "uint256"
        }
      ],
      "name": "Transfer",
      "type": "event"
    },
    {
      "inputs": [],
      "name": "DAI_TOKEN",
      "outputs": [
        {
          "internalType": "address",
          "name": "",
          "type": "address"
        }
      ],
      "stateMutability": "view",
      "type": "function"
    },
    {
      "inputs": [],
      "name": "_tokenIdCounter",
      "outputs": [
        {
          "internalType": "uint256",
          "name": "",
          "type": "uint256"
        }
      ],
      "stateMutability": "view",
      "type": "function"
    },
    {
      "inputs": [
        {
          "internalType": "address",
          "name": "_newOwner",
          "type": "address"
        }
      ],
      "name": "addOwner",
      "outputs": [],
      "stateMutability": "nonpayable",
      "type": "function"
    },
    {
      "inputs": [
        {
          "internalType": "address",
          "name": "_newSigner",
          "type": "address"
        }
      ],
      "name": "addSigner",
      "outputs": [],
      "stateMutability": "nonpayable",
      "type": "function"
    },
    {
      "inputs": [
        {
          "internalType": "address",
          "name": "to",
          "type": "address"
        },
        {
          "internalType": "uint256",
          "name": "tokenId",
          "type": "uint256"
        }
      ],
      "name": "approve",
      "outputs": [],
      "stateMutability": "nonpayable",
      "type": "function"
    },
    {
      "inputs": [
        {
          "internalType": "address",
          "name": "owner",
          "type": "address"
        }
      ],
      "name": "balanceOf",
      "outputs": [
        {
          "internalType": "uint256",
          "name": "",
          "type": "uint256"
        }
      ],
      "stateMutability": "view",
      "type": "function"
    },
    {
      "inputs": [],
      "name": "baseUri",
      "outputs": [
        {
          "internalType": "string",
          "name": "",
          "type": "string"
        }
      ],
      "stateMutability": "view",
      "type": "function"
    },
    {
      "inputs": [
        {
          "internalType": "uint256",
          "name": "tokenId",
          "type": "uint256"
        }
      ],
      "name": "burn",
      "outputs": [],
      "stateMutability": "nonpayable",
      "type": "function"
    },
    {
      "inputs": [
        {
          "internalType": "uint8[]",
          "name": "cardNumbers",
          "type": "uint8[]"
        }
      ],
      "name": "burnCards",
      "outputs": [],
      "stateMutability": "nonpayable",
      "type": "function"
    },
    {
      "inputs": [
        {
          "internalType": "address",
          "name": "user",
          "type": "address"
        }
      ],
      "name": "burnedCards",
      "outputs": [
        {
          "internalType": "uint256",
          "name": "amount",
          "type": "uint256"
        }
      ],
      "stateMutability": "view",
      "type": "function"
    },
    {
      "inputs": [
        {
          "internalType": "uint256",
          "name": "tokenId",
          "type": "uint256"
        }
      ],
      "name": "cards",
      "outputs": [
        {
          "internalType": "uint256",
          "name": "tokenId",
          "type": "uint256"
        },
        {
          "internalType": "uint256",
          "name": "number",
          "type": "uint256"
        },
        {
          "internalType": "bool",
          "name": "pasted",
          "type": "bool"
        },
        {
          "internalType": "uint8",
          "name": "class",
          "type": "uint8"
        },
        {
          "internalType": "uint256",
          "name": "completion",
          "type": "uint256"
        }
      ],
      "stateMutability": "view",
      "type": "function"
    },
    {
      "inputs": [
        {
          "internalType": "address",
          "name": "user",
          "type": "address"
        },
        {
          "internalType": "uint8",
          "name": "cardNumber",
          "type": "uint8"
        }
      ],
      "name": "cardsByUser",
      "outputs": [
        {
          "internalType": "uint8",
          "name": "amount",
          "type": "uint8"
        }
      ],
      "stateMutability": "view",
      "type": "function"
    },
    {
      "inputs": [
        {
          "internalType": "uint256",
          "name": "cardNumber",
          "type": "uint256"
        }
      ],
      "name": "cardsInventory",
      "outputs": [
        {
          "internalType": "uint256",
          "name": "amount",
          "type": "uint256"
        }
      ],
      "stateMutability": "view",
      "type": "function"
    },
    {
      "inputs": [
        {
          "internalType": "uint256",
          "name": "newPackPrice",
          "type": "uint256"
        }
      ],
      "name": "changePackPrice",
      "outputs": [],
      "stateMutability": "nonpayable",
      "type": "function"
    },
    {
      "inputs": [
        {
          "internalType": "bool",
          "name": "required",
          "type": "bool"
        }
      ],
      "name": "changeRequireOfferValidationInMint",
      "outputs": [],
      "stateMutability": "nonpayable",
      "type": "function"
    },
    {
      "inputs": [
        {
          "internalType": "bool",
          "name": "required",
          "type": "bool"
        }
      ],
      "name": "changeRequireOfferValidationInTransfer",
      "outputs": [],
      "stateMutability": "nonpayable",
      "type": "function"
    },
    {
      "inputs": [
        {
          "internalType": "bool",
          "name": "required",
          "type": "bool"
        }
      ],
      "name": "changeRequireOpenPackSignerValidation",
      "outputs": [],
      "stateMutability": "nonpayable",
      "type": "function"
    },
    {
      "inputs": [
        {
          "internalType": "uint256",
          "name": "amount",
          "type": "uint256"
        }
      ],
      "name": "emergencyWithdraw",
      "outputs": [],
      "stateMutability": "nonpayable",
      "type": "function"
    },
    {
      "inputs": [
        {
          "internalType": "address",
          "name": "from",
          "type": "address"
        },
        {
          "internalType": "uint8",
          "name": "cardNumberFrom",
          "type": "uint8"
        },
        {
          "internalType": "address",
          "name": "to",
          "type": "address"
        },
        {
          "internalType": "uint8",
          "name": "cardNumberTo",
          "type": "uint8"
        }
      ],
      "name": "exchangeCardsOffer",
      "outputs": [],
      "stateMutability": "nonpayable",
      "type": "function"
    },
    {
      "inputs": [],
      "name": "finishAlbum",
      "outputs": [
        {
          "internalType": "bool",
          "name": "",
          "type": "bool"
        }
      ],
      "stateMutability": "nonpayable",
      "type": "function"
    },
    {
      "inputs": [],
      "name": "gammaOffersContract",
      "outputs": [
        {
          "internalType": "contract IgammaOffersContract",
          "name": "",
          "type": "address"
        }
      ],
      "stateMutability": "view",
      "type": "function"
    },
    {
      "inputs": [],
      "name": "gammaPacksContract",
      "outputs": [
        {
          "internalType": "contract IgammaPacksContract",
          "name": "",
          "type": "address"
        }
      ],
      "stateMutability": "view",
      "type": "function"
    },
    {
      "inputs": [
        {
          "internalType": "uint256",
          "name": "tokenId",
          "type": "uint256"
        }
      ],
      "name": "getApproved",
      "outputs": [
        {
          "internalType": "address",
          "name": "",
          "type": "address"
        }
      ],
      "stateMutability": "view",
      "type": "function"
    },
    {
      "inputs": [
        {
          "internalType": "address",
          "name": "user",
          "type": "address"
        },
        {
          "internalType": "uint8",
          "name": "cardNum",
          "type": "uint8"
        }
      ],
      "name": "getCardQuantityByUser",
      "outputs": [
        {
          "internalType": "uint8",
          "name": "",
          "type": "uint8"
        }
      ],
      "stateMutability": "view",
      "type": "function"
    },
    {
      "inputs": [
        {
          "internalType": "address",
          "name": "user",
          "type": "address"
        }
      ],
      "name": "getCardsByUser",
      "outputs": [
        {
          "internalType": "uint8[]",
          "name": "",
          "type": "uint8[]"
        },
        {
          "internalType": "uint8[]",
          "name": "",
          "type": "uint8[]"
        },
        {
          "internalType": "bool[]",
          "name": "",
          "type": "bool[]"
        }
      ],
      "stateMutability": "view",
      "type": "function"
    },
    {
      "inputs": [
        {
          "internalType": "address",
          "name": "user",
          "type": "address"
        },
        {
          "internalType": "uint8",
          "name": "cardNum",
          "type": "uint8"
        }
      ],
      "name": "hasCard",
      "outputs": [
        {
          "internalType": "bool",
          "name": "has",
          "type": "bool"
        }
      ],
      "stateMutability": "view",
      "type": "function"
    },
    {
      "inputs": [
        {
          "internalType": "address",
          "name": "user",
          "type": "address"
        },
        {
          "internalType": "uint8",
          "name": "cardNumber",
          "type": "uint8"
        }
      ],
      "name": "hasCardByOffer",
      "outputs": [
        {
          "internalType": "bool",
          "name": "has",
          "type": "bool"
        }
      ],
      "stateMutability": "view",
      "type": "function"
    },
    {
      "inputs": [
        {
          "internalType": "address",
          "name": "owner",
          "type": "address"
        },
        {
          "internalType": "address",
          "name": "operator",
          "type": "address"
        }
      ],
      "name": "isApprovedForAll",
      "outputs": [
        {
          "internalType": "bool",
          "name": "",
          "type": "bool"
        }
      ],
      "stateMutability": "view",
      "type": "function"
    },
    {
      "inputs": [],
      "name": "mainAlbumPrize",
      "outputs": [
        {
          "internalType": "uint256",
          "name": "",
          "type": "uint256"
        }
      ],
      "stateMutability": "view",
      "type": "function"
    },
    {
      "inputs": [],
      "name": "mainUri",
      "outputs": [
        {
          "internalType": "string",
          "name": "",
          "type": "string"
        }
      ],
      "stateMutability": "view",
      "type": "function"
    },
    {
      "inputs": [
        {
          "internalType": "uint8",
          "name": "cardNum",
          "type": "uint8"
        }
      ],
      "name": "mintCard",
      "outputs": [],
      "stateMutability": "nonpayable",
      "type": "function"
    },
    {
      "inputs": [],
      "name": "name",
      "outputs": [
        {
          "internalType": "string",
          "name": "",
          "type": "string"
        }
      ],
      "stateMutability": "view",
      "type": "function"
    },
    {
      "inputs": [
        {
          "internalType": "uint256",
          "name": "packNumber",
          "type": "uint256"
        },
        {
          "internalType": "uint8[]",
          "name": "packData",
          "type": "uint8[]"
        },
        {
          "internalType": "bytes",
          "name": "signature",
          "type": "bytes"
        }
      ],
      "name": "openPack",
      "outputs": [],
      "stateMutability": "nonpayable",
      "type": "function"
    },
    {
      "inputs": [
        {
          "internalType": "address",
          "name": "user",
          "type": "address"
        },
        {
          "internalType": "uint256",
          "name": "packNumber",
          "type": "uint256"
        },
        {
          "internalType": "uint8[]",
          "name": "packData",
          "type": "uint8[]"
        },
        {
          "internalType": "bytes",
          "name": "signature",
          "type": "bytes"
        }
      ],
      "name": "openPackByUser",
      "outputs": [],
      "stateMutability": "nonpayable",
      "type": "function"
    },
    {
      "inputs": [],
      "name": "owner",
      "outputs": [
        {
          "internalType": "address",
          "name": "",
          "type": "address"
        }
      ],
      "stateMutability": "view",
      "type": "function"
    },
    {
      "inputs": [
        {
          "internalType": "uint256",
          "name": "tokenId",
          "type": "uint256"
        }
      ],
      "name": "ownerOf",
      "outputs": [
        {
          "internalType": "address",
          "name": "",
          "type": "address"
        }
      ],
      "stateMutability": "view",
      "type": "function"
    },
    {
      "inputs": [
        {
          "internalType": "address",
          "name": "",
          "type": "address"
        }
      ],
      "name": "owners",
      "outputs": [
        {
          "internalType": "bool",
          "name": "",
          "type": "bool"
        }
      ],
      "stateMutability": "view",
      "type": "function"
    },
    {
      "inputs": [],
      "name": "packPrice",
      "outputs": [
        {
          "internalType": "uint256",
          "name": "",
          "type": "uint256"
        }
      ],
      "stateMutability": "view",
      "type": "function"
    },
    {
      "inputs": [],
      "name": "prizesBalance",
      "outputs": [
        {
          "internalType": "uint256",
          "name": "",
          "type": "uint256"
        }
      ],
      "stateMutability": "view",
      "type": "function"
    },
    {
      "inputs": [
        {
          "internalType": "address",
          "name": "user",
          "type": "address"
        },
        {
          "internalType": "uint8",
          "name": "cardNumber",
          "type": "uint8"
        }
      ],
      "name": "removeCardByOffer",
      "outputs": [],
      "stateMutability": "nonpayable",
      "type": "function"
    },
    {
      "inputs": [
        {
          "internalType": "address",
          "name": "_ownerToRemove",
          "type": "address"
        }
      ],
      "name": "removeOwner",
      "outputs": [],
      "stateMutability": "nonpayable",
      "type": "function"
    },
    {
      "inputs": [
        {
          "internalType": "address",
          "name": "_signerToRemove",
          "type": "address"
        }
      ],
      "name": "removeSigner",
      "outputs": [],
      "stateMutability": "nonpayable",
      "type": "function"
    },
    {
      "inputs": [],
      "name": "renounceOwnership",
      "outputs": [],
      "stateMutability": "nonpayable",
      "type": "function"
    },
    {
      "inputs": [],
      "name": "requireOfferValidationInMint",
      "outputs": [
        {
          "internalType": "bool",
          "name": "",
          "type": "bool"
        }
      ],
      "stateMutability": "view",
      "type": "function"
    },
    {
      "inputs": [],
      "name": "requireOfferValidationInTransfer",
      "outputs": [
        {
          "internalType": "bool",
          "name": "",
          "type": "bool"
        }
      ],
      "stateMutability": "view",
      "type": "function"
    },
    {
      "inputs": [],
      "name": "requireOpenPackSignerValidation",
      "outputs": [
        {
          "internalType": "bool",
          "name": "",
          "type": "bool"
        }
      ],
      "stateMutability": "view",
      "type": "function"
    },
    {
      "inputs": [
        {
          "internalType": "address",
          "name": "user",
          "type": "address"
        },
        {
          "internalType": "uint8",
          "name": "cardNumber",
          "type": "uint8"
        }
      ],
      "name": "restoreCardByOffer",
      "outputs": [],
      "stateMutability": "nonpayable",
      "type": "function"
    },
    {
      "inputs": [
        {
          "internalType": "address",
          "name": "from",
          "type": "address"
        },
        {
          "internalType": "address",
          "name": "to",
          "type": "address"
        },
        {
          "internalType": "uint256",
          "name": "tokenId",
          "type": "uint256"
        }
      ],
      "name": "safeTransferFrom",
      "outputs": [],
      "stateMutability": "nonpayable",
      "type": "function"
    },
    {
      "inputs": [
        {
          "internalType": "address",
          "name": "from",
          "type": "address"
        },
        {
          "internalType": "address",
          "name": "to",
          "type": "address"
        },
        {
          "internalType": "uint256",
          "name": "tokenId",
          "type": "uint256"
        },
        {
          "internalType": "bytes",
          "name": "data",
          "type": "bytes"
        }
      ],
      "name": "safeTransferFrom",
      "outputs": [],
      "stateMutability": "nonpayable",
      "type": "function"
    },
    {
      "inputs": [],
      "name": "secondaryAlbumPrize",
      "outputs": [
        {
          "internalType": "uint256",
          "name": "",
          "type": "uint256"
        }
      ],
      "stateMutability": "view",
      "type": "function"
    },
    {
      "inputs": [],
      "name": "secondaryUri",
      "outputs": [
        {
          "internalType": "string",
          "name": "",
          "type": "string"
        }
      ],
      "stateMutability": "view",
      "type": "function"
    },
    {
      "inputs": [
        {
          "internalType": "address",
          "name": "operator",
          "type": "address"
        },
        {
          "internalType": "bool",
          "name": "approved",
          "type": "bool"
        }
      ],
      "name": "setApprovalForAll",
      "outputs": [],
      "stateMutability": "nonpayable",
      "type": "function"
    },
    {
      "inputs": [
        {
          "internalType": "address",
          "name": "_gammaOffersContract",
          "type": "address"
        }
      ],
      "name": "setGammaOffersContract",
      "outputs": [],
      "stateMutability": "nonpayable",
      "type": "function"
    },
    {
      "inputs": [
        {
          "internalType": "address",
          "name": "_gammaPacksContract",
          "type": "address"
        }
      ],
      "name": "setGammaPacksContract",
      "outputs": [],
      "stateMutability": "nonpayable",
      "type": "function"
    },
    {
      "inputs": [
        {
          "internalType": "uint256",
          "name": "amount",
          "type": "uint256"
        }
      ],
      "name": "setPrizesBalance",
      "outputs": [],
      "stateMutability": "nonpayable",
      "type": "function"
    },
    {
      "inputs": [
        {
          "internalType": "string",
          "name": "newMainUri",
          "type": "string"
        },
        {
          "internalType": "string",
          "name": "newSecondaryUri",
          "type": "string"
        }
      ],
      "name": "setUris",
      "outputs": [],
      "stateMutability": "nonpayable",
      "type": "function"
    },
    {
      "inputs": [
        {
          "internalType": "address",
          "name": "",
          "type": "address"
        }
      ],
      "name": "signers",
      "outputs": [
        {
          "internalType": "bool",
          "name": "",
          "type": "bool"
        }
      ],
      "stateMutability": "view",
      "type": "function"
    },
    {
      "inputs": [
        {
          "internalType": "bytes4",
          "name": "interfaceId",
          "type": "bytes4"
        }
      ],
      "name": "supportsInterface",
      "outputs": [
        {
          "internalType": "bool",
          "name": "",
          "type": "bool"
        }
      ],
      "stateMutability": "view",
      "type": "function"
    },
    {
      "inputs": [],
      "name": "symbol",
      "outputs": [
        {
          "internalType": "string",
          "name": "",
          "type": "string"
        }
      ],
      "stateMutability": "view",
      "type": "function"
    },
    {
      "inputs": [
        {
          "internalType": "address",
          "name": "user",
          "type": "address"
        }
      ],
      "name": "testAddCards",
      "outputs": [],
      "stateMutability": "nonpayable",
      "type": "function"
    },
    {
      "inputs": [
        {
          "internalType": "address",
          "name": "user",
          "type": "address"
        },
        {
          "internalType": "uint256",
          "name": "packNumber",
          "type": "uint256"
        },
        {
          "internalType": "uint8[]",
          "name": "packData",
          "type": "uint8[]"
        }
      ],
      "name": "testOpenPack",
      "outputs": [],
      "stateMutability": "nonpayable",
      "type": "function"
    },
    {
      "inputs": [
        {
          "internalType": "uint256",
          "name": "tokenId",
          "type": "uint256"
        }
      ],
      "name": "tokenURI",
      "outputs": [
        {
          "internalType": "string",
          "name": "",
          "type": "string"
        }
      ],
      "stateMutability": "view",
      "type": "function"
    },
    {
      "inputs": [
        {
          "internalType": "address",
          "name": "to",
          "type": "address"
        },
        {
          "internalType": "uint8",
          "name": "cardNumber",
          "type": "uint8"
        }
      ],
      "name": "transferCard",
      "outputs": [],
      "stateMutability": "nonpayable",
      "type": "function"
    },
    {
      "inputs": [
        {
          "internalType": "address",
          "name": "to",
          "type": "address"
        },
        {
          "internalType": "uint8[]",
          "name": "cardNumbers",
          "type": "uint8[]"
        }
      ],
      "name": "transferCards",
      "outputs": [],
      "stateMutability": "nonpayable",
      "type": "function"
    },
    {
      "inputs": [
        {
          "internalType": "address",
          "name": "from",
          "type": "address"
        },
        {
          "internalType": "address",
          "name": "to",
          "type": "address"
        },
        {
          "internalType": "uint256",
          "name": "tokenId",
          "type": "uint256"
        }
      ],
      "name": "transferFrom",
      "outputs": [],
      "stateMutability": "nonpayable",
      "type": "function"
    },
    {
      "inputs": [
        {
          "internalType": "address",
          "name": "newOwner",
          "type": "address"
        }
      ],
      "name": "transferOwnership",
      "outputs": [],
      "stateMutability": "nonpayable",
      "type": "function"
    },
    {
      "inputs": [
        {
          "internalType": "uint256",
          "name": "packNumber",
          "type": "uint256"
        },
        {
          "internalType": "uint8[]",
          "name": "packData",
          "type": "uint8[]"
        },
        {
          "internalType": "bytes",
          "name": "signature",
          "type": "bytes"
        }
      ],
      "name": "verifyPackSigner",
      "outputs": [
        {
          "internalType": "address",
          "name": "signer",
          "type": "address"
        }
      ],
      "stateMutability": "view",
      "type": "function"
    }
  ],
  "bytecode": "0x60806040526710a741a462780000600c5567d02ab486cedc0000600f55670de0b6b3a76400006010553480156200003557600080fd5b5060405162005f4138038062005f4183398101604081905262000058916200034f565b6040518060400160405280600a81526020016947616d6d61436172647360b01b815250604051806040016040528060068152602001654e4f465f474360d01b8152508160009081620000ab9190620004d1565b506001620000ba8282620004d1565b505050620000d7620000d1620002a060201b60201c565b620002a4565b600880546001600160a01b038086166001600160a01b031992831617909255600b805492871692909116919091179055600e620001158382620004d1565b5060408051808201825260018152602f60f81b60208083019190915282518084018452600381526203132360ec1b8183015283518085018552600681526523173539b7b760d11b8184015293516200017494600e94939091016200059d565b60405160208183030381529060405260119081620001939190620004d1565b5060408051808201825260018152602f60f81b60208083019190915282518084018452600381526231323160e81b8183015283518085018552600681526523173539b7b760d11b818401529351620001f294600e94939091016200059d565b60405160208183030381529060405260129081620002119190620004d1565b506001600160a01b0381166000908152601560205260408120805460ff19166001179055601380546201010062ffffff199091161790555b607a8110156200027a576000818152601760205260409020600190558062000271816200065a565b91505062000249565b5050336000908152601460205260409020805460ff191660011790555062000682915050565b3390565b600780546001600160a01b038381166001600160a01b0319831681179093556040519116919082907f8be0079c531659141344cd1fd0a4f28419497f9722a3daafe3b4186f6b6457e090600090a35050565b80516001600160a01b03811681146200030e57600080fd5b919050565b634e487b7160e01b600052604160045260246000fd5b60005b83811015620003465781810151838201526020016200032c565b50506000910152565b600080600080608085870312156200036657600080fd5b6200037185620002f6565b93506200038160208601620002f6565b60408601519093506001600160401b03808211156200039f57600080fd5b818701915087601f830112620003b457600080fd5b815181811115620003c957620003c962000313565b604051601f8201601f19908116603f01168101908382118183101715620003f457620003f462000313565b816040528281528a60208487010111156200040e57600080fd5b6200042183602083016020880162000329565b80965050505050506200043760608601620002f6565b905092959194509250565b600181811c908216806200045757607f821691505b6020821081036200047857634e487b7160e01b600052602260045260246000fd5b50919050565b601f821115620004cc57600081815260208120601f850160051c81016020861015620004a75750805b601f850160051c820191505b81811015620004c857828155600101620004b3565b5050505b505050565b81516001600160401b03811115620004ed57620004ed62000313565b6200050581620004fe845462000442565b846200047e565b602080601f8311600181146200053d5760008415620005245750858301515b600019600386901b1c1916600185901b178555620004c8565b600085815260208120601f198616915b828110156200056e578886015182559484019460019091019084016200054d565b50858210156200058d5787850151600019600388901b60f8161c191681555b5050505050600190811b01905550565b6000808654620005ad8162000442565b60018281168015620005c85760018114620005de576200060f565b60ff19841687528215158302870194506200060f565b8a60005260208060002060005b85811015620006065781548a820152908401908201620005eb565b50505082870194505b50505050855162000625818360208a0162000329565b85519101906200063a81836020890162000329565b84519101906200064f81836020880162000329565b019695505050505050565b6000600182016200067b57634e487b7160e01b600052601160045260246000fd5b5060010190565b6158af80620006926000396000f3fe608060405234801561001057600080fd5b50600436106103f15760003560e01c80637e50fa8f11610215578063ad1684fa11610125578063dec3f6d9116100b8578063e606df8711610087578063e606df8714610950578063e985e9c514610963578063eb12d61e1461099f578063f2fde38b146109b2578063f98fd283146109c557600080fd5b8063dec3f6d914610919578063e1883c6e14610921578063e51aebb314610934578063e5db587a1461094757600080fd5b8063c87b56dd116100f4578063c87b56dd146108cd578063cafaa473146108e0578063d322b563146108f3578063dbfc05cf1461090657600080fd5b8063ad1684fa1461088c578063b88d4fde1461089f578063bf400a6a146108b2578063c3461c07146108c557600080fd5b806391565664116101a85780639c7f707f116101775780639c7f707f146108375780639f4415d81461084a578063a1af8ad414610853578063a22cb46514610866578063a419811d1461087957600080fd5b8063915656641461080857806395d89b411461081a57806396884135146108225780639abc83201461082f57600080fd5b80638bf670c8116101e45780638bf670c81461076a5780638da5cb5b1461077d5780638dc107681461078e5780639038f4141461080057600080fd5b80637e50fa8f14610700578063809eb3551461072057806384c4bd4b1461074e578063886eb60f1461075757600080fd5b80632f9e026a116103105780635dde20d8116102a35780637065cb48116102725780637065cb481461069c57806370a08231146106af578063715018a6146106c25780637155a3ac146106ca578063736c0d5b146106dd57600080fd5b80635dde20d8146106435780635e31ce48146106635780636352211e1461067657806368cc5bc11461068957600080fd5b806342966c68116102df57806342966c6814610601578063483823e814610614578063511b93071461061d5780635312ea8e1461063057600080fd5b80632f9e026a146105b157806330f5cc58146105c4578063335c8b63146105d757806342842e0e146105ee57600080fd5b80631306952c1161038857806320965a5f1161035757806320965a5f1461056557806323b872dd14610578578063267b841d1461058b5780632ca699e71461059e57600080fd5b80631306952c146104de578063155e2f92146104f15780631585cc4e14610504578063173825d91461055257600080fd5b8063081812fc116103c4578063081812fc14610478578063095ea7b3146104a35780630e316ab7146104b8578063128916dc146104cb57600080fd5b806301ffc9a7146103f6578063022914a71461041e5780630435dcaf1461044157806306fdde0314610463575b600080fd5b61040961040436600461493e565b6109d8565b60405190151581526020015b60405180910390f35b61040961042c366004614970565b60146020526000908152604090205460ff1681565b61045461044f366004614970565b6109e9565b604051610415939291906149cb565b61046b610da6565b6040516104159190614a86565b61048b610486366004614a99565b610e38565b6040516001600160a01b039091168152602001610415565b6104b66104b1366004614ab2565b610e5f565b005b6104b66104c6366004614970565b610f79565b6104b66104d9366004614970565b6110f6565b61048b6104ec366004614c01565b611199565b6104b66104ff366004614c70565b611290565b610540610512366004614c70565b6001600160a01b0391909116600090815260196020908152604080832060ff94851684529091529020541690565b60405160ff9091168152602001610415565b6104b6610560366004614970565b61130c565b6104b6610573366004614ce9565b611482565b6104b6610586366004614d2a565b611782565b6104b6610599366004614c01565b6117b4565b6104b66105ac366004614c70565b6117c7565b60085461048b906001600160a01b031681565b6104b66105d2366004614d6b565b6119d1565b6105e0600c5481565b604051908152602001610415565b6104b66105fc366004614d2a565b611c6e565b6104b661060f366004614a99565b611c89565b6105e060105481565b6013546104099062010000900460ff1681565b6104b661063e366004614a99565b611cba565b6105e0610651366004614a99565b60176020526000908152604090205481565b6104b6610671366004614a99565b611dc1565b61048b610684366004614a99565b611e05565b6104b6610697366004614dd1565b611e65565b6104b66106aa366004614970565b611eb0565b6105e06106bd366004614970565b611fc2565b6104b6612048565b6104b66106d8366004614c70565b61205c565b6104096106eb366004614970565b60156020526000908152604090205460ff1681565b6105e061070e366004614970565b60186020526000908152604090205481565b61054061072e366004614c70565b601960209081526000928352604080842090915290825290205460ff1681565b6105e0600a5481565b610409610765366004614c70565b6120bb565b610409610778366004614c70565b612114565b6007546001600160a01b031661048b565b6107d061079c366004614a99565b60166020526000908152604090208054600182015460028301546003909301549192909160ff808316926101009004169085565b6040805195865260208601949094529115159284019290925260ff9091166060830152608082015260a001610415565b610409612141565b60135461040990610100900460ff1681565b61046b6125e4565b6013546104099060ff1681565b61046b6125f3565b6104b6610845366004614e65565b612681565b6105e0600f5481565b6104b6610861366004614ec8565b6126fb565b6104b6610874366004614f1c565b612a53565b6104b6610887366004614970565b612a5e565b6104b661089a366004614f55565b612afd565b6104b66108ad366004614fad565b612e11565b6104b66108c036600461502c565b612e43565b61046b613059565b61046b6108db366004614a99565b613066565b6104b66108ee366004614970565b613071565b60095461048b906001600160a01b031681565b6104b6610914366004614dd1565b613114565b61046b613156565b6104b661092f366004614a99565b613163565b6104b6610942366004615047565b613192565b6105e0600d5481565b600b5461048b906001600160a01b031681565b6104096109713660046150cd565b6001600160a01b03918216600090815260056020908152604080832093909416825291909152205460ff1690565b6104b66109ad366004614970565b6131ce565b6104b66109c0366004614970565b6132e0565b6104b66109d3366004614dd1565b613356565b60006109e38261339f565b92915050565b604080516079808252610f408201909252606091829182916000919060208201610f20803683375050604080516079808252610f408201909252929350600092915060208201610f20803683375050604080516079808252610f408201909252929350600092915060208201610f20803683370190505090506000805b60778160ff1611610bcf576001600160a01b038916600090815260196020908152604080832060ff80861685529252909120541615610bbd5780858360ff1681518110610ab557610ab56150fb565b60ff9283166020918202929092018101919091526001600160a01b038b166000908152601982526040808220858516835290925220548551908216918691908516908110610b0557610b056150fb565b60ff90921660209283029190910190910152600954604051632edb5fcf60e01b81526001600160a01b0390911690632edb5fcf90610b49908c908590600401615111565b602060405180830381865afa158015610b66573d6000803e3d6000fd5b505050506040513d601f19601f82011682018060405250810190610b8a919061512d565b838360ff1681518110610b9f57610b9f6150fb565b9115156020928302919091019091015281610bb981615160565b9250505b80610bc781615160565b915050610a66565b5060008160ff166001600160401b03811115610bed57610bed614ade565b604051908082528060200260200182016040528015610c16578160200160208202803683370190505b50905060008260ff166001600160401b03811115610c3657610c36614ade565b604051908082528060200260200182016040528015610c5f578160200160208202803683370190505b50905060008360ff166001600160401b03811115610c7f57610c7f614ade565b604051908082528060200260200182016040528015610ca8578160200160208202803683370190505b50905060005b8460ff168160ff161015610d9457878160ff1681518110610cd157610cd16150fb565b6020026020010151848260ff1681518110610cee57610cee6150fb565b60ff9283166020918202929092010152875188918316908110610d1357610d136150fb565b6020026020010151838260ff1681518110610d3057610d306150fb565b60ff9283166020918202929092010152865187918316908110610d5557610d556150fb565b6020026020010151828260ff1681518110610d7257610d726150fb565b9115156020928302919091019091015280610d8c81615160565b915050610cae565b50919a90995090975095505050505050565b606060008054610db59061517f565b80601f0160208091040260200160405190810160405280929190818152602001828054610de19061517f565b8015610e2e5780601f10610e0357610100808354040283529160200191610e2e565b820191906000526020600020905b815481529060010190602001808311610e1157829003601f168201915b5050505050905090565b6000610e43826133c4565b506000908152600460205260409020546001600160a01b031690565b6000610e6a82611e05565b9050806001600160a01b0316836001600160a01b031603610edc5760405162461bcd60e51b815260206004820152602160248201527f4552433732313a20617070726f76616c20746f2063757272656e74206f776e656044820152603960f91b60648201526084015b60405180910390fd5b336001600160a01b0382161480610ef85750610ef88133610971565b610f6a5760405162461bcd60e51b815260206004820152603d60248201527f4552433732313a20617070726f76652063616c6c6572206973206e6f7420746f60448201527f6b656e206f776e6572206f7220617070726f76656420666f7220616c6c0000006064820152608401610ed3565b610f748383613423565b505050565b3360009081526014602052604090205460ff16610fa85760405162461bcd60e51b8152600401610ed3906151b9565b6001600160a01b038116610fce5760405162461bcd60e51b8152600401610ed3906151fc565b336001600160a01b038216036110365760405162461bcd60e51b815260206004820152602760248201527f596f752063616e6e6f742072656d6f766520796f757273656c6620617320612060448201526639b4b3b732b91760c91b6064820152608401610ed3565b6001600160a01b03811660009081526015602052604090205460ff1661109e5760405162461bcd60e51b815260206004820152601960248201527f41646472657373206973206e6f7420616e207369676e65722e000000000000006044820152606401610ed3565b6001600160a01b038116600081815260156020908152604091829020805460ff1916905590519182527f3525e22824a8a7df2c9a6029941c824cf95b6447f1e13d5128fd3826d35afe8b91015b60405180910390a150565b3360009081526014602052604090205460ff166111255760405162461bcd60e51b8152600401610ed3906151b9565b6001600160a01b03811661114b5760405162461bcd60e51b8152600401610ed3906151fc565b600980546001600160a01b0319166001600160a01b0383169081179091556040519081527f538b3425a321783393ad250db10356b8b3523ef29a40de015c5218213de0ead0906020016110eb565b6000806111fd3387876040516020016111b493929190615226565b604051602081830303815290604052805190602001207f19457468657265756d205369676e6564204d6573736167653a0a3332000000006000908152601c91909152603c902090565b9050600061124385858080601f01602080910402602001604051908101604052809392919081815260200183838082843760009201919091525086939250506134919050565b90506112846040518060400160405280601a81526020017f6f70656e207061636b207369676e6572207265636f7665726564000000000000815250826134b5565b9150505b949350505050565b6009546001600160a01b031633146112ba5760405162461bcd60e51b8152600401610ed3906152b4565b6001600160a01b038216600090815260196020908152604080832060ff8086168552925282208054909116916112ef83615160565b91906101000a81548160ff021916908360ff160217905550505050565b3360009081526014602052604090205460ff1661133b5760405162461bcd60e51b8152600401610ed3906151b9565b6001600160a01b0381166113615760405162461bcd60e51b8152600401610ed3906151fc565b336001600160a01b038216036113c95760405162461bcd60e51b815260206004820152602760248201527f596f752063616e6e6f742072656d6f766520796f757273656c6620617320616e6044820152661037bbb732b91760c91b6064820152608401610ed3565b6001600160a01b03811660009081526014602052604090205460ff166114315760405162461bcd60e51b815260206004820152601860248201527f41646472657373206973206e6f7420616e206f776e65722e00000000000000006044820152606401610ed3565b6001600160a01b038116600081815260146020908152604091829020805460ff1916905590519182527f58619076adf5bb0943d100ef88d52d7c3fd691b19d3a9071b555b651fbf418da91016110eb565b3360009081526019602090815260408083206079845290915290205460ff166114ed5760405162461bcd60e51b815260206004820152601860248201527f4e6f207469656e657320616c62756d206465207175656d6100000000000000006044820152606401610ed3565b336000908152601960209081526040808320607984529091528120805460ff169161151783615306565b825460ff9182166101009390930a9283029190920219909116179055503360009081526018602052604081208054839290611553908490615323565b90915550600090505b60ff81168211156115f45733600090815260196020526040812090848460ff851681811061158c5761158c6150fb565b90506020020160208101906115a1919061502c565b60ff908116825260208201929092526040016000908120805490921691906115c883615306565b91906101000a81548160ff021916908360ff1602179055505080806115ec90615160565b91505061155c565b503360009081526018602052604090205461161190603c9061534c565b60000361177e576116b033601280546116299061517f565b80601f01602080910402602001604051908101604052809291908181526020018280546116559061517f565b80156116a25780601f10611677576101008083540402835291602001916116a2565b820191906000526020600020905b81548152906001019060200180831161168557829003601f168201915b5050505050607960026134fa565b600f54600d60008282546116c49190615360565b9091555050600b5460105460405163a9059cbb60e01b815233600482015260248101919091526001600160a01b039091169063a9059cbb906044016020604051808303816000875af115801561171e573d6000803e3d6000fd5b505050506040513d601f19601f82011682018060405250810190611742919061512d565b507f6d0344e2059f835240cb954cce07d4b26f0d0844eecc234f7ee0e292ba80a1aa336002604051611775929190615111565b60405180910390a15b5050565b61178d335b8261355d565b6117a95760405162461bcd60e51b8152600401610ed390615373565b610f748383836135db565b6117c1338585858561373f565b50505050565b33600090815260196020908152604080832060ff8086168552925290912054166118035760405162461bcd60e51b8152600401610ed3906153c0565b336001600160a01b0383160361185b5760405162461bcd60e51b815260206004820152601960248201527f4f776e207472616e73666572206e6f7420616c6c6f7765642e000000000000006044820152606401610ed3565b6001600160a01b0382166118815760405162461bcd60e51b8152600401610ed3906151fc565b60135462010000900460ff161561195657600954604051632edb5fcf60e01b81526000916001600160a01b031690632edb5fcf906118c59033908690600401615111565b602060405180830381865afa1580156118e2573d6000803e3d6000fd5b505050506040513d601f19601f82011682018060405250810190611906919061512d565b33600090815260196020908152604080832060ff808816855292529091205491925060019116118115806119375750805b6119535760405162461bcd60e51b8152600401610ed3906153f7565b50505b33600090815260196020908152604080832060ff80861685529252822080549091169161198283615306565b82546101009290920a60ff8181021990931691831602179091556001600160a01b038416600090815260196020908152604080832086851684529091528120805490921692506112ef83615160565b3360009081526014602052604090205460ff16611a005760405162461bcd60e51b8152600401610ed3906151b9565b6008546040516380f2540b60e01b8152600481018490526001600160a01b038581166024830152909116906380f2540b90604401600060405180830381600087803b158015611a4e57600080fd5b505af1158015611a62573d6000803e3d6000fd5b505050506006600c54611a759190615447565b600c54611a829190615360565b600d6000828254611a939190615323565b9091555050805160005b818160ff161015611c6757828160ff1681518110611abd57611abd6150fb565b602002602001015160ff16607814611b0b5761138960176000858460ff1681518110611aeb57611aeb6150fb565b602002602001015160ff1681526020019081526020016000205410611b3c565b607860005260176020527f1e0e657bdfc7d3d523657bb82aa6f2c628a4caf6e2f7839556e82479d4362f0654610bb9115b611b885760405162461bcd60e51b815260206004820152601e60248201527f696e76616c69642063617264496e76656e746f727920706f736974696f6e00006044820152606401610ed3565b60176000848360ff1681518110611ba157611ba16150fb565b602002602001015160ff1681526020019081526020016000206000815480929190611bcb9061545b565b90915550506001600160a01b03851660009081526019602052604081208451909190859060ff8516908110611c0257611c026150fb565b602002602001015160ff1660ff168152602001908152602001600020600081819054906101000a900460ff1680929190611c3b90615160565b91906101000a81548160ff021916908360ff160217905550508080611c5f90615160565b915050611a9d565b5050505050565b610f7483838360405180602001604052806000815250612e11565b611c9233611787565b611cae5760405162461bcd60e51b8152600401610ed390615373565b611cb781613c02565b50565b3360009081526014602052604090205460ff16611ce95760405162461bcd60e51b8152600401610ed3906151b9565b80611cf330611fc2565b1015611cfe57600080fd5b80600d6000828254611d109190615360565b9091555050600b5460405163a9059cbb60e01b8152336004820152602481018390526001600160a01b039091169063a9059cbb906044016020604051808303816000875af1158015611d66573d6000803e3d6000fd5b505050506040513d601f19601f82011682018060405250810190611d8a919061512d565b5060408051338152602081018390527f23d6711a1d031134a36921253c75aa59e967d38e369ac625992824315e204f2091016110eb565b6008546001600160a01b03163314611deb5760405162461bcd60e51b8152600401610ed390615474565b80600d6000828254611dfd9190615323565b909155505050565b6000818152600260205260408120546001600160a01b0316806109e35760405162461bcd60e51b8152602060048201526018602482015277115490cdcc8c4e881a5b9d985b1a59081d1bdad95b88125160421b6044820152606401610ed3565b3360009081526014602052604090205460ff16611e945760405162461bcd60e51b8152600401610ed3906151b9565b60138054911515620100000262ff000019909216919091179055565b3360009081526014602052604090205460ff16611edf5760405162461bcd60e51b8152600401610ed3906151b9565b6001600160a01b038116611f055760405162461bcd60e51b8152600401610ed3906151fc565b6001600160a01b03811660009081526014602052604090205460ff1615611f6e5760405162461bcd60e51b815260206004820152601c60248201527f4164647265737320697320616c726561647920616e206f776e65722e000000006044820152606401610ed3565b6001600160a01b038116600081815260146020908152604091829020805460ff1916600117905590519182527f6e4e2a7c0e1576d48aeabd633d094f622d4f046286fec8b9045dd7f5c9fb087d91016110eb565b60006001600160a01b03821661202c5760405162461bcd60e51b815260206004820152602960248201527f4552433732313a2061646472657373207a65726f206973206e6f7420612076616044820152683634b21037bbb732b960b91b6064820152608401610ed3565b506001600160a01b031660009081526003602052604090205490565b612050613c0b565b61205a6000613c65565b565b6009546001600160a01b031633146120865760405162461bcd60e51b8152600401610ed3906152b4565b6001600160a01b038216600090815260196020908152604080832060ff8086168552925282208054909116916112ef83615306565b60006001600160a01b0383166120e35760405162461bcd60e51b8152600401610ed3906151fc565b506001600160a01b0391909116600090815260196020908152604080832060ff948516845290915290205416151590565b6009546000906001600160a01b031633146120e35760405162461bcd60e51b8152600401610ed3906152b4565b3360009081526019602090815260408083206078845290915281205460ff166121ac5760405162461bcd60e51b815260206004820152601c60248201527f596f7520646f6573206e6f74206861766520616e7920616c62756d2e000000006044820152606401610ed3565b600f54600d5410156122115760405162461bcd60e51b815260206004820152602860248201527f496e73756666696369656e742066756e647320286f70656e2d7061636b73206260448201526730b630b731b2949760c11b6064820152608401610ed3565b600b546040516370a0823160e01b81523060048201526000916001600160a01b0316906370a0823190602401602060405180830381865afa15801561225a573d6000803e3d6000fd5b505050506040513d601f19601f8201168201806040525081019061227e91906154c5565b9050600f548110156122d25760405162461bcd60e51b815260206004820152601e60248201527f496e73756666696369656e742066756e64732028636f6e7472616374292e00006044820152606401610ed3565b6000805b60798160ff1610156123685733600090815260196020908152604080832060ff808616855292528220541690036123105760019150612368565b33600090815260196020908152604080832060ff80861685529252822080549091169161233c83615306565b91906101000a81548160ff021916908360ff16021790555050808061236090615160565b9150506122d6565b5080156123b75760405162461bcd60e51b815260206004820152601860248201527f4d75737420636f6d706c6574652074686520616c62756d2e00000000000000006044820152606401610ed3565b61244f33601180546123c89061517f565b80601f01602080910402602001604051908101604052809291908181526020018280546123f49061517f565b80156124415780601f1061241657610100808354040283529160200191612441565b820191906000526020600020905b81548152906001019060200180831161242457829003601f168201915b5050505050607860026134fa565b600b54600f5460405163a9059cbb60e01b815233600482015260248101919091526001600160a01b039091169063a9059cbb906044016020604051808303816000875af11580156124a4573d6000803e3d6000fd5b505050506040513d601f19601f820116820180604052508101906124c8919061512d565b50600f54600d60008282546124dd9190615360565b9091555050600954604051633f27a03f60e21b81523360048201526000916001600160a01b03169063fc9e80fc906024016020604051808303816000875af115801561252d573d6000803e3d6000fd5b505050506040513d601f19601f82011682018060405250810190612551919061512d565b9050806125a05760405162461bcd60e51b815260206004820152601960248201527f43616e6e6f742072656d6f76652075736572206f6666657273000000000000006044820152606401610ed3565b7f6d0344e2059f835240cb954cce07d4b26f0d0844eecc234f7ee0e292ba80a1aa3360016040516125d2929190615111565b60405180910390a16001935050505090565b606060018054610db59061517f565b600e80546126009061517f565b80601f016020809104026020016040519081016040528092919081815260200182805461262c9061517f565b80156126795780601f1061264e57610100808354040283529160200191612679565b820191906000526020600020905b81548152906001019060200180831161265c57829003601f168201915b505050505081565b3360009081526014602052604090205460ff166126b05760405162461bcd60e51b8152600401610ed3906151b9565b60116126bc838261552c565b5060126126c9828261552c565b507fabfd337ac5625b7dc2ddd3d3bd465fb1dec15322eeeed81032268b337880bec682826040516117759291906155eb565b336001600160a01b0384160361275e5760405162461bcd60e51b815260206004820152602260248201527f596f752063616e6e6f742073656e6420636172647320746f20796f757273656c604482015261331760f11b6064820152608401610ed3565b6001600160a01b0383166127845760405162461bcd60e51b8152600401610ed3906151fc565b60005b60ff81168211156117c15733600090815260196020526040812081858560ff86168181106127b7576127b76150fb565b90506020020160208101906127cc919061502c565b60ff908116825260208201929092526040016000205416116128005760405162461bcd60e51b8152600401610ed3906153c0565b33600090815260196020526040812090848460ff8516818110612825576128256150fb565b905060200201602081019061283a919061502c565b60ff9081168252602082019290925260400160009081208054909216919061286183615306565b91906101000a81548160ff021916908360ff1602179055505060196000856001600160a01b03166001600160a01b03168152602001908152602001600020600084848460ff168181106128b6576128b66150fb565b90506020020160208101906128cb919061502c565b60ff908116825260208201929092526040016000908120805490921691906128f283615160565b91906101000a81548160ff021916908360ff16021790555050601360029054906101000a900460ff1615612a41576009546000906001600160a01b0316632edb5fcf33868660ff871681811061294a5761294a6150fb565b905060200201602081019061295f919061502c565b6040518363ffffffff1660e01b815260040161297c929190615111565b602060405180830381865afa158015612999573d6000803e3d6000fd5b505050506040513d601f19601f820116820180604052508101906129bd919061512d565b3360009081526019602052604081209192509060019082878760ff88168181106129e9576129e96150fb565b90506020020160208101906129fe919061502c565b60ff908116825260208201929092526040016000205416119050811580612a225750805b612a3e5760405162461bcd60e51b8152600401610ed3906153f7565b50505b80612a4b81615160565b915050612787565b61177e338383613cb7565b3360009081526014602052604090205460ff16612a8d5760405162461bcd60e51b8152600401610ed3906151b9565b60005b60798160ff16101561177e576001600160a01b038216600090815260196020908152604080832060ff808616855292528220805490911691612ad183615160565b91906101000a81548160ff021916908360ff160217905550508080612af590615160565b915050612a90565b6009546001600160a01b03163314612b275760405162461bcd60e51b8152600401610ed3906152b4565b6001600160a01b038416612b4d5760405162461bcd60e51b8152600401610ed3906151fc565b6001600160a01b038216612b735760405162461bcd60e51b8152600401610ed3906151fc565b6001600160a01b038416600090815260196020908152604080832060ff808816855292529091205416612bf75760405162461bcd60e51b815260206004820152602660248201527f55736572202866726f6d2920646f6573206e6f74206861766520636172642028604482015265333937b6949760d11b6064820152608401610ed3565b6001600160a01b038216600090815260196020908152604080832060ff808616855292529091205416612c775760405162461bcd60e51b815260206004820152602260248201527f557365722028746f2920646f6573206e6f74206861766520636172642028746f604482015261149760f11b6064820152608401610ed3565b6001600160a01b038416600090815260196020908152604080832060ff808816855292528220805490911691612cac83615306565b82546101009290920a60ff8181021990931691831602179091556001600160a01b03841660009081526019602090815260408083208885168452909152812080549092169250612cfb83615160565b82546101009290920a60ff8181021990931691831602179091556001600160a01b03841660009081526019602090815260408083208685168452909152812080549092169250612d4a83615306565b82546101009290920a60ff8181021990931691831602179091556001600160a01b03861660009081526019602090815260408083208685168452909152812080549092169250612d9983615160565b82546101009290920a60ff818102199093169183160217909155604080516001600160a01b038881168252861660208201528683169181019190915290831660608201527fb92b0572336aeb4786be6945bfd95be902fdee1fa1148d500d5b3a2c4f80c48c915060800160405180910390a150505050565b612e1b338361355d565b612e375760405162461bcd60e51b8152600401610ed390615373565b6117c184848484613d85565b33600090815260196020908152604080832060ff808616855292529091205416612e7f5760405162461bcd60e51b8152600401610ed3906153c0565b601354610100900460ff1615612f9857600954604051632edb5fcf60e01b81526000916001600160a01b031690632edb5fcf90612ec29033908690600401615111565b602060405180830381865afa158015612edf573d6000803e3d6000fd5b505050506040513d601f19601f82011682018060405250810190612f03919061512d565b33600090815260196020908152604080832060ff80881685529252909120549192506001911611811580612f345750805b612f955760405162461bcd60e51b815260206004820152602c60248201527f5468697320636172642068617320616e206f666665722c2069742063616e6e6f60448201526b3a1031329036b4b73a32b21760a11b6064820152608401610ed3565b50505b33600090815260196020908152604080832060ff808616855292528220805490911691612fc483615306565b91906101000a81548160ff021916908360ff160217905550506000600e604051806040016040528060018152602001602f60f81b8152506130078460ff16613db8565b60405180604001604052806005815260200164173539b7b760d91b8152506040516020016130389493929190615619565b604051602081830303815290604052905061177e33828460ff1660016134fa565b601180546126009061517f565b60606109e382613eb8565b3360009081526014602052604090205460ff166130a05760405162461bcd60e51b8152600401610ed3906151b9565b6001600160a01b0381166130c65760405162461bcd60e51b8152600401610ed3906151fc565b600880546001600160a01b0319166001600160a01b0383169081179091556040519081527f5a78287a942b8ea0da8734a4eb919df11e564cc48301ffcb582dc8612d98208f906020016110eb565b3360009081526014602052604090205460ff166131435760405162461bcd60e51b8152600401610ed3906151b9565b6013805460ff1916911515919091179055565b601280546126009061517f565b6008546001600160a01b0316331461318d5760405162461bcd60e51b8152600401610ed390615474565b600c55565b3360009081526014602052604090205460ff166131c15760405162461bcd60e51b8152600401610ed3906151b9565b611c67858585858561373f565b3360009081526014602052604090205460ff166131fd5760405162461bcd60e51b8152600401610ed3906151b9565b6001600160a01b0381166132235760405162461bcd60e51b8152600401610ed3906151fc565b6001600160a01b03811660009081526015602052604090205460ff161561328c5760405162461bcd60e51b815260206004820152601c60248201527f4164647265737320697320616c726561647920616e206f776e65722e000000006044820152606401610ed3565b6001600160a01b038116600081815260156020908152604091829020805460ff1916600117905590519182527f72d4003e8f1ad99f4f488c703a1d183dee364a6337cb77f8fba50088cb0fbfa391016110eb565b6132e8613c0b565b6001600160a01b03811661334d5760405162461bcd60e51b815260206004820152602660248201527f4f776e61626c653a206e6577206f776e657220697320746865207a65726f206160448201526564647265737360d01b6064820152608401610ed3565b611cb781613c65565b3360009081526014602052604090205460ff166133855760405162461bcd60e51b8152600401610ed3906151b9565b601380549115156101000261ff0019909216919091179055565b60006001600160e01b03198216632483248360e11b14806109e357506109e382613fc0565b6000818152600260205260409020546001600160a01b0316611cb75760405162461bcd60e51b8152602060048201526018602482015277115490cdcc8c4e881a5b9d985b1a59081d1bdad95b88125160421b6044820152606401610ed3565b600081815260046020526040902080546001600160a01b0319166001600160a01b038416908117909155819061345882611e05565b6001600160a01b03167f8c5be1e5ebec7d5bd14f71427d1e84f3dd0314c0f7b2291e5b200ac8c7c3b92560405160405180910390a45050565b60008060006134a08585614010565b915091506134ad81614055565b509392505050565b61177e82826040516024016134cb9291906156c8565b60408051601f198184030181529190526020810180516001600160e01b031663319af33360e01b17905261419f565b600a54600081815260166020526040902081815560018101849055600201805461ff00191661010060ff85160217905561353485826141a8565b61353e81856141c2565b6001600a60008282546135519190615323565b90915550505050505050565b60008061356983611e05565b9050806001600160a01b0316846001600160a01b031614806135b057506001600160a01b0380821660009081526005602090815260408083209388168352929052205460ff165b806112885750836001600160a01b03166135c984610e38565b6001600160a01b031614949350505050565b826001600160a01b03166135ee82611e05565b6001600160a01b0316146136145760405162461bcd60e51b8152600401610ed3906156f2565b6001600160a01b0382166136765760405162461bcd60e51b8152602060048201526024808201527f4552433732313a207472616e7366657220746f20746865207a65726f206164646044820152637265737360e01b6064820152608401610ed3565b826001600160a01b031661368982611e05565b6001600160a01b0316146136af5760405162461bcd60e51b8152600401610ed3906156f2565b600081815260046020908152604080832080546001600160a01b03199081169091556001600160a01b0387811680865260038552838620805460001901905590871680865283862080546001019055868652600290945282852080549092168417909155905184937fddf252ad1be2c89b69c2b068fc378daa952ba7f163c4a11628f55a4df523b3ef91a4505050565b60085460405163d3e6a7ad60e01b8152600481018690526001600160a01b0387811692169063d3e6a7ad90602401602060405180830381865afa15801561378a573d6000803e3d6000fd5b505050506040513d601f19601f820116820180604052508101906137ae9190615737565b6001600160a01b0316146138045760405162461bcd60e51b815260206004820152601760248201527f54686973207061636b206973206e6f7420796f7572732e0000000000000000006044820152606401610ed3565b600f83511061384b5760405162461bcd60e51b815260206004820152601360248201527210d85c99081b1a5b5a5d08195e18d959591959606a1b6044820152606401610ed3565b60135460ff16156139575760006138708686866040516020016111b493929190615226565b905060006138b684848080601f01602080910402602001604051908101604052809392919081815260200183838082843760009201919091525086939250506134919050565b90506138f76040518060400160405280601a81526020017f6f70656e207061636b207369676e6572207265636f7665726564000000000000815250826134b5565b6001600160a01b03811660009081526015602052604090205460ff166139545760405162461bcd60e51b815260206004820152601260248201527124b73b30b634b21039b4b3b730ba3ab9329760711b6044820152606401610ed3565b50505b6008546040516380f2540b60e01b8152600481018690526001600160a01b038781166024830152909116906380f2540b90604401600060405180830381600087803b1580156139a557600080fd5b505af11580156139b9573d6000803e3d6000fd5b505050506006600c546139cc9190615447565b600c546139d99190615360565b600d60008282546139ea9190615323565b9091555050825160005b818160ff161015613bbe57848160ff1681518110613a1457613a146150fb565b602002602001015160ff16607814613a625761138960176000878460ff1681518110613a4257613a426150fb565b602002602001015160ff1681526020019081526020016000205410613a93565b607860005260176020527f1e0e657bdfc7d3d523657bb82aa6f2c628a4caf6e2f7839556e82479d4362f0654610bb9115b613adf5760405162461bcd60e51b815260206004820152601e60248201527f696e76616c69642063617264496e76656e746f727920706f736974696f6e00006044820152606401610ed3565b60176000868360ff1681518110613af857613af86150fb565b602002602001015160ff1681526020019081526020016000206000815480929190613b229061545b565b90915550506001600160a01b03871660009081526019602052604081208651909190879060ff8516908110613b5957613b596150fb565b602002602001015160ff1660ff168152602001908152602001600020600081819054906101000a900460ff1680929190613b9290615160565b91906101000a81548160ff021916908360ff160217905550508080613bb690615160565b9150506139f4565b507fbabe8f5e83e93ab103ddf917b4292a19335a5128b3530bedd896a681cdd945e3868587604051613bf293929190615754565b60405180910390a1505050505050565b611cb781614286565b6007546001600160a01b0316331461205a5760405162461bcd60e51b815260206004820181905260248201527f4f776e61626c653a2063616c6c6572206973206e6f7420746865206f776e65726044820152606401610ed3565b600780546001600160a01b038381166001600160a01b0319831681179093556040519116919082907f8be0079c531659141344cd1fd0a4f28419497f9722a3daafe3b4186f6b6457e090600090a35050565b816001600160a01b0316836001600160a01b031603613d185760405162461bcd60e51b815260206004820152601960248201527f4552433732313a20617070726f766520746f2063616c6c6572000000000000006044820152606401610ed3565b6001600160a01b03838116600081815260056020908152604080832094871680845294825291829020805460ff191686151590811790915591519182527f17307eab39ab6107e8899845ad3d59bd9653f200f220920489ca2b5937696c31910160405180910390a3505050565b613d908484846135db565b613d9c848484846142c6565b6117c15760405162461bcd60e51b8152600401610ed390615788565b606081600003613ddf5750506040805180820190915260018152600360fc1b602082015290565b8160005b8115613e095780613df38161545b565b9150613e029050600a83615447565b9150613de3565b6000816001600160401b03811115613e2357613e23614ade565b6040519080825280601f01601f191660200182016040528015613e4d576020820181803683370190505b5090505b841561128857613e62600183615360565b9150613e6f600a8661534c565b613e7a906030615323565b60f81b818381518110613e8f57613e8f6150fb565b60200101906001600160f81b031916908160001a905350613eb1600a86615447565b9450613e51565b6060613ec3826133c4565b60008281526006602052604081208054613edc9061517f565b80601f0160208091040260200160405190810160405280929190818152602001828054613f089061517f565b8015613f555780601f10613f2a57610100808354040283529160200191613f55565b820191906000526020600020905b815481529060010190602001808311613f3857829003601f168201915b505050505090506000613f7360408051602081019091526000815290565b90508051600003613f85575092915050565b815115613fb7578082604051602001613f9f9291906157da565b60405160208183030381529060405292505050919050565b611288846143c4565b60006001600160e01b031982166380ac58cd60e01b1480613ff157506001600160e01b03198216635b5e139f60e01b145b806109e357506301ffc9a760e01b6001600160e01b03198316146109e3565b60008082516041036140465760208301516040840151606085015160001a61403a87828585614438565b9450945050505061404e565b506000905060025b9250929050565b600081600481111561406957614069615809565b036140715750565b600181600481111561408557614085615809565b036140d25760405162461bcd60e51b815260206004820152601860248201527f45434453413a20696e76616c6964207369676e617475726500000000000000006044820152606401610ed3565b60028160048111156140e6576140e6615809565b036141335760405162461bcd60e51b815260206004820152601f60248201527f45434453413a20696e76616c6964207369676e6174757265206c656e677468006044820152606401610ed3565b600381600481111561414757614147615809565b03611cb75760405162461bcd60e51b815260206004820152602260248201527f45434453413a20696e76616c6964207369676e6174757265202773272076616c604482015261756560f01b6064820152608401610ed3565b611cb7816144fc565b61177e82826040518060200160405280600081525061451d565b6000828152600260205260409020546001600160a01b031661423d5760405162461bcd60e51b815260206004820152602e60248201527f45524337323155524953746f726167653a2055524920736574206f66206e6f6e60448201526d32bc34b9ba32b73a103a37b5b2b760911b6064820152608401610ed3565b6000828152600660205260409020614255828261552c565b506040518281527ff8e1a15aba9398e019f0b49df1a4fde98ee17ae345cb5f6b5e2c27f5033e8ce790602001611775565b61428f81614550565b600081815260066020526040902080546142a89061517f565b159050611cb7576000818152600660205260408120611cb7916148da565b60006001600160a01b0384163b156143bc57604051630a85bd0160e11b81526001600160a01b0385169063150b7a029061430a90339089908890889060040161581f565b6020604051808303816000875af1925050508015614345575060408051601f3d908101601f191682019092526143429181019061585c565b60015b6143a2573d808015614373576040519150601f19603f3d011682016040523d82523d6000602084013e614378565b606091505b50805160000361439a5760405162461bcd60e51b8152600401610ed390615788565b805181602001fd5b6001600160e01b031916630a85bd0160e11b149050611288565b506001611288565b60606143cf826133c4565b60006143e660408051602081019091526000815290565b905060008151116144065760405180602001604052806000815250614431565b80614410846145e5565b6040516020016144219291906157da565b6040516020818303038152906040525b9392505050565b6000807f7fffffffffffffffffffffffffffffff5d576e7357a4501ddfe92f46681b20a083111561446f57506000905060036144f3565b6040805160008082526020820180845289905260ff881692820192909252606081018690526080810185905260019060a0016020604051602081039080840390855afa1580156144c3573d6000803e3d6000fd5b5050604051601f1901519150506001600160a01b0381166144ec576000600192509250506144f3565b9150600090505b94509492505050565b60006a636f6e736f6c652e6c6f679050600080835160208501845afa505050565b6145278383614677565b61453460008484846142c6565b610f745760405162461bcd60e51b8152600401610ed390615788565b600061455b82611e05565b905061456682611e05565b600083815260046020908152604080832080546001600160a01b03199081169091556001600160a01b0385168085526003845282852080546000190190558785526002909352818420805490911690555192935084927fddf252ad1be2c89b69c2b068fc378daa952ba7f163c4a11628f55a4df523b3ef908390a45050565b606060006145f283614802565b60010190506000816001600160401b0381111561461157614611614ade565b6040519080825280601f01601f19166020018201604052801561463b576020820181803683370190505b5090508181016020015b600019016f181899199a1a9b1b9c1cb0b131b232b360811b600a86061a8153600a850494508461464557509392505050565b6001600160a01b0382166146cd5760405162461bcd60e51b815260206004820181905260248201527f4552433732313a206d696e7420746f20746865207a65726f20616464726573736044820152606401610ed3565b6000818152600260205260409020546001600160a01b0316156147325760405162461bcd60e51b815260206004820152601c60248201527f4552433732313a20746f6b656e20616c7265616479206d696e746564000000006044820152606401610ed3565b6000818152600260205260409020546001600160a01b0316156147975760405162461bcd60e51b815260206004820152601c60248201527f4552433732313a20746f6b656e20616c7265616479206d696e746564000000006044820152606401610ed3565b6001600160a01b038216600081815260036020908152604080832080546001019055848352600290915280822080546001600160a01b0319168417905551839291907fddf252ad1be2c89b69c2b068fc378daa952ba7f163c4a11628f55a4df523b3ef908290a45050565b60008072184f03e93ff9f4daa797ed6e38ed64bf6a1f0160401b83106148415772184f03e93ff9f4daa797ed6e38ed64bf6a1f0160401b830492506040015b6d04ee2d6d415b85acef8100000000831061486d576d04ee2d6d415b85acef8100000000830492506020015b662386f26fc10000831061488b57662386f26fc10000830492506010015b6305f5e10083106148a3576305f5e100830492506008015b61271083106148b757612710830492506004015b606483106148c9576064830492506002015b600a83106109e35760010192915050565b5080546148e69061517f565b6000825580601f106148f6575050565b601f016020900490600052602060002090810190611cb791905b808211156149245760008155600101614910565b5090565b6001600160e01b031981168114611cb757600080fd5b60006020828403121561495057600080fd5b813561443181614928565b6001600160a01b0381168114611cb757600080fd5b60006020828403121561498257600080fd5b81356144318161495b565b600081518084526020808501945080840160005b838110156149c057815160ff16875295820195908201906001016149a1565b509495945050505050565b6060815260006149de606083018661498d565b6020838203818501526149f1828761498d565b8481036040860152855180825282870193509082019060005b81811015614a28578451151583529383019391830191600101614a0a565b509098975050505050505050565b60005b83811015614a51578181015183820152602001614a39565b50506000910152565b60008151808452614a72816020860160208601614a36565b601f01601f19169290920160200192915050565b6020815260006144316020830184614a5a565b600060208284031215614aab57600080fd5b5035919050565b60008060408385031215614ac557600080fd5b8235614ad08161495b565b946020939093013593505050565b634e487b7160e01b600052604160045260246000fd5b604051601f8201601f191681016001600160401b0381118282101715614b1c57614b1c614ade565b604052919050565b803560ff81168114614b3557600080fd5b919050565b600082601f830112614b4b57600080fd5b813560206001600160401b03821115614b6657614b66614ade565b8160051b614b75828201614af4565b9283528481018201928281019087851115614b8f57600080fd5b83870192505b84831015614bb557614ba683614b24565b82529183019190830190614b95565b979650505050505050565b60008083601f840112614bd257600080fd5b5081356001600160401b03811115614be957600080fd5b60208301915083602082850101111561404e57600080fd5b60008060008060608587031215614c1757600080fd5b8435935060208501356001600160401b0380821115614c3557600080fd5b614c4188838901614b3a565b94506040870135915080821115614c5757600080fd5b50614c6487828801614bc0565b95989497509550505050565b60008060408385031215614c8357600080fd5b8235614c8e8161495b565b9150614c9c60208401614b24565b90509250929050565b60008083601f840112614cb757600080fd5b5081356001600160401b03811115614cce57600080fd5b6020830191508360208260051b850101111561404e57600080fd5b60008060208385031215614cfc57600080fd5b82356001600160401b03811115614d1257600080fd5b614d1e85828601614ca5565b90969095509350505050565b600080600060608486031215614d3f57600080fd5b8335614d4a8161495b565b92506020840135614d5a8161495b565b929592945050506040919091013590565b600080600060608486031215614d8057600080fd5b8335614d8b8161495b565b92506020840135915060408401356001600160401b03811115614dad57600080fd5b614db986828701614b3a565b9150509250925092565b8015158114611cb757600080fd5b600060208284031215614de357600080fd5b813561443181614dc3565b60006001600160401b03831115614e0757614e07614ade565b614e1a601f8401601f1916602001614af4565b9050828152838383011115614e2e57600080fd5b828260208301376000602084830101529392505050565b600082601f830112614e5657600080fd5b61443183833560208501614dee565b60008060408385031215614e7857600080fd5b82356001600160401b0380821115614e8f57600080fd5b614e9b86838701614e45565b93506020850135915080821115614eb157600080fd5b50614ebe85828601614e45565b9150509250929050565b600080600060408486031215614edd57600080fd5b8335614ee88161495b565b925060208401356001600160401b03811115614f0357600080fd5b614f0f86828701614ca5565b9497909650939450505050565b60008060408385031215614f2f57600080fd5b8235614f3a8161495b565b91506020830135614f4a81614dc3565b809150509250929050565b60008060008060808587031215614f6b57600080fd5b8435614f768161495b565b9350614f8460208601614b24565b92506040850135614f948161495b565b9150614fa260608601614b24565b905092959194509250565b60008060008060808587031215614fc357600080fd5b8435614fce8161495b565b93506020850135614fde8161495b565b92506040850135915060608501356001600160401b0381111561500057600080fd5b8501601f8101871361501157600080fd5b61502087823560208401614dee565b91505092959194509250565b60006020828403121561503e57600080fd5b61443182614b24565b60008060008060006080868803121561505f57600080fd5b853561506a8161495b565b94506020860135935060408601356001600160401b038082111561508d57600080fd5b61509989838a01614b3a565b945060608801359150808211156150af57600080fd5b506150bc88828901614bc0565b969995985093965092949392505050565b600080604083850312156150e057600080fd5b82356150eb8161495b565b91506020830135614f4a8161495b565b634e487b7160e01b600052603260045260246000fd5b6001600160a01b0392909216825260ff16602082015260400190565b60006020828403121561513f57600080fd5b815161443181614dc3565b634e487b7160e01b600052601160045260246000fd5b600060ff821660ff81036151765761517661514a565b60010192915050565b600181811c9082168061519357607f821691505b6020821081036151b357634e487b7160e01b600052602260045260246000fd5b50919050565b60208082526023908201527f4f6e6c79206f776e6572732063616e2063616c6c20746869732066756e63746960408201526237b71760e91b606082015260800190565b60208082526010908201526f24b73b30b634b21030b2323932b9b99760811b604082015260600190565b6bffffffffffffffffffffffff198460601b1681528260148201526000603482018351602080860160005b8381101561527057815160ff1685529382019390820190600101615251565b50507f30786631644437313839356534396231353633363933393639646535303839388352693139376344463334383160b01b9083015250602a0195945050505050565b60208082526032908201527f4f6e6c792067616d6d61206f666665727320636f6e74726163742063616e206360408201527130b636103a3434b990333ab731ba34b7b71760711b606082015260800190565b600060ff8216806153195761531961514a565b6000190192915050565b808201808211156109e3576109e361514a565b634e487b7160e01b600052601260045260246000fd5b60008261535b5761535b615336565b500690565b818103818111156109e3576109e361514a565b6020808252602d908201527f4552433732313a2063616c6c6572206973206e6f7420746f6b656e206f776e6560408201526c1c881bdc88185c1c1c9bdd9959609a1b606082015260800190565b6020808252601c908201527f596f7520646f6573206e6f742068617665207468697320636172642e00000000604082015260600190565b60208082526030908201527f5468697320636172642068617320616e206f666665722c2069742063616e6e6f60408201526f3a103132903a3930b739b332b932b21760811b606082015260800190565b60008261545657615456615336565b500490565b60006001820161546d5761546d61514a565b5060010190565b60208082526031908201527f4f6e6c792067616d6d61207061636b7320636f6e74726163742063616e2063616040820152703636103a3434b990333ab731ba34b7b71760791b606082015260800190565b6000602082840312156154d757600080fd5b5051919050565b601f821115610f7457600081815260208120601f850160051c810160208610156155055750805b601f850160051c820191505b8181101561552457828155600101615511565b505050505050565b81516001600160401b0381111561554557615545614ade565b61555981615553845461517f565b846154de565b602080601f83116001811461558e57600084156155765750858301515b600019600386901b1c1916600185901b178555615524565b600085815260208120601f198616915b828110156155bd5788860151825594840194600190910190840161559e565b50858210156155db5787850151600019600388901b60f8161c191681555b5050505050600190811b01905550565b6040815260006155fe6040830185614a5a565b82810360208401526156108185614a5a565b95945050505050565b60008086546156278161517f565b6001828116801561563f576001811461565457615683565b60ff1984168752821515830287019450615683565b8a60005260208060002060005b8581101561567a5781548a820152908401908201615661565b50505082870194505b505050508551615697818360208a01614a36565b85519101906156aa818360208901614a36565b84519101906156bd818360208801614a36565b019695505050505050565b6040815260006156db6040830185614a5a565b905060018060a01b03831660208301529392505050565b60208082526025908201527f4552433732313a207472616e736665722066726f6d20696e636f72726563742060408201526437bbb732b960d91b606082015260800190565b60006020828403121561574957600080fd5b81516144318161495b565b6001600160a01b03841681526060602082018190526000906157789083018561498d565b9050826040830152949350505050565b60208082526032908201527f4552433732313a207472616e7366657220746f206e6f6e20455243373231526560408201527131b2b4bb32b91034b6b83632b6b2b73a32b960711b606082015260800190565b600083516157ec818460208801614a36565b835190830190615800818360208801614a36565b01949350505050565b634e487b7160e01b600052602160045260246000fd5b6001600160a01b038581168252841660208201526040810183905260806060820181905260009061585290830184614a5a565b9695505050505050565b60006020828403121561586e57600080fd5b81516144318161492856fea2646970667358221220a94667f632ff5ef1f61db231d561fe26e7e773d0cfdba0f0d99ce5c724fe58b264736f6c63430008140033",
  "linkReferences": {},
  "deployedLinkReferences": {}
}