{
  "_format": "hh-sol-artifact-1",
  "contractName": "NofGammaCardsV5",
  "sourceName": "contracts/gamma/GammaCards.v5.sol",
  "abi": [
    {
      "inputs": [
        {
          "internalType": "address",
          "name": "_daiTokenAddress",
          "type": "address"
        },
        {
          "internalType": "address",
          "name": "_gammaPacksContract",
          "type": "address"
        },
        {
          "internalType": "string",
          "name": "_baseUri",
          "type": "string"
        },
        {
          "internalType": "address",
          "name": "_signer",
          "type": "address"
        }
      ],
      "stateMutability": "nonpayable",
      "type": "constructor"
    },
    {
      "anonymous": false,
      "inputs": [
        {
          "indexed": false,
          "internalType": "address",
          "name": "player",
          "type": "address"
        },
        {
          "indexed": false,
          "internalType": "uint8",
          "name": "albumClass",
          "type": "uint8"
        }
      ],
      "name": "AlbumCompleted",
      "type": "event"
    },
    {
      "anonymous": false,
      "inputs": [
        {
          "indexed": true,
          "internalType": "address",
          "name": "owner",
          "type": "address"
        },
        {
          "indexed": true,
          "internalType": "address",
          "name": "approved",
          "type": "address"
        },
        {
          "indexed": true,
          "internalType": "uint256",
          "name": "tokenId",
          "type": "uint256"
        }
      ],
      "name": "Approval",
      "type": "event"
    },
    {
      "anonymous": false,
      "inputs": [
        {
          "indexed": true,
          "internalType": "address",
          "name": "owner",
          "type": "address"
        },
        {
          "indexed": true,
          "internalType": "address",
          "name": "operator",
          "type": "address"
        },
        {
          "indexed": false,
          "internalType": "bool",
          "name": "approved",
          "type": "bool"
        }
      ],
      "name": "ApprovalForAll",
      "type": "event"
    },
    {
      "anonymous": false,
      "inputs": [
        {
          "indexed": false,
          "internalType": "uint256",
          "name": "_fromTokenId",
          "type": "uint256"
        },
        {
          "indexed": false,
          "internalType": "uint256",
          "name": "_toTokenId",
          "type": "uint256"
        }
      ],
      "name": "BatchMetadataUpdate",
      "type": "event"
    },
    {
      "anonymous": false,
      "inputs": [
        {
          "indexed": false,
          "internalType": "address",
          "name": "player",
          "type": "address"
        },
        {
          "indexed": false,
          "internalType": "uint256",
          "name": "cardTokenId",
          "type": "uint256"
        },
        {
          "indexed": false,
          "internalType": "uint256",
          "name": "albumTokenId",
          "type": "uint256"
        }
      ],
      "name": "CardPasted",
      "type": "event"
    },
    {
      "anonymous": false,
      "inputs": [
        {
          "indexed": false,
          "internalType": "address",
          "name": "receiver",
          "type": "address"
        },
        {
          "indexed": false,
          "internalType": "uint256",
          "name": "amount",
          "type": "uint256"
        }
      ],
      "name": "EmergencyWithdrawal",
      "type": "event"
    },
    {
      "anonymous": false,
      "inputs": [
        {
          "indexed": false,
          "internalType": "uint256",
          "name": "_tokenId",
          "type": "uint256"
        }
      ],
      "name": "MetadataUpdate",
      "type": "event"
    },
    {
      "anonymous": false,
      "inputs": [
        {
          "indexed": false,
          "internalType": "address",
          "name": "newGammaOffersContract",
          "type": "address"
        }
      ],
      "name": "NewGammaOffersContract",
      "type": "event"
    },
    {
      "anonymous": false,
      "inputs": [
        {
          "indexed": false,
          "internalType": "address",
          "name": "newGammaPacksContract",
          "type": "address"
        }
      ],
      "name": "NewGammaPacksContract",
      "type": "event"
    },
    {
      "anonymous": false,
      "inputs": [
        {
          "indexed": false,
          "internalType": "address",
          "name": "newSigner",
          "type": "address"
        }
      ],
      "name": "NewSigner",
      "type": "event"
    },
    {
      "anonymous": false,
      "inputs": [
        {
          "indexed": false,
          "internalType": "string",
          "name": "newMainUri",
          "type": "string"
        },
        {
          "indexed": false,
          "internalType": "string",
          "name": "newSecondaryUri",
          "type": "string"
        }
      ],
      "name": "NewUris",
      "type": "event"
    },
    {
      "anonymous": false,
      "inputs": [
        {
          "indexed": true,
          "internalType": "address",
          "name": "previousOwner",
          "type": "address"
        },
        {
          "indexed": true,
          "internalType": "address",
          "name": "newOwner",
          "type": "address"
        }
      ],
      "name": "OwnershipTransferred",
      "type": "event"
    },
    {
      "anonymous": false,
      "inputs": [
        {
          "indexed": false,
          "internalType": "address",
          "name": "player",
          "type": "address"
        },
        {
          "indexed": false,
          "internalType": "uint8[]",
          "name": "packData",
          "type": "uint8[]"
        },
        {
          "indexed": false,
          "internalType": "uint256",
          "name": "packNumber",
          "type": "uint256"
        }
      ],
      "name": "PackOpened",
      "type": "event"
    },
    {
      "anonymous": false,
      "inputs": [
        {
          "indexed": true,
          "internalType": "address",
          "name": "from",
          "type": "address"
        },
        {
          "indexed": true,
          "internalType": "address",
          "name": "to",
          "type": "address"
        },
        {
          "indexed": true,
          "internalType": "uint256",
          "name": "tokenId",
          "type": "uint256"
        }
      ],
      "name": "Transfer",
      "type": "event"
    },
    {
      "inputs": [],
      "name": "DAI_TOKEN",
      "outputs": [
        {
          "internalType": "address",
          "name": "",
          "type": "address"
        }
      ],
      "stateMutability": "view",
      "type": "function"
    },
    {
      "inputs": [],
      "name": "_tokenIdCounter",
      "outputs": [
        {
          "internalType": "uint256",
          "name": "",
          "type": "uint256"
        }
      ],
      "stateMutability": "view",
      "type": "function"
    },
    {
      "inputs": [
        {
          "internalType": "address",
          "name": "_newOwner",
          "type": "address"
        }
      ],
      "name": "addOwner",
      "outputs": [],
      "stateMutability": "nonpayable",
      "type": "function"
    },
    {
      "inputs": [
        {
          "internalType": "address",
          "name": "_newSigner",
          "type": "address"
        }
      ],
      "name": "addSigner",
      "outputs": [],
      "stateMutability": "nonpayable",
      "type": "function"
    },
    {
      "inputs": [
        {
          "internalType": "address",
          "name": "to",
          "type": "address"
        },
        {
          "internalType": "uint256",
          "name": "tokenId",
          "type": "uint256"
        }
      ],
      "name": "approve",
      "outputs": [],
      "stateMutability": "nonpayable",
      "type": "function"
    },
    {
      "inputs": [
        {
          "internalType": "address",
          "name": "owner",
          "type": "address"
        }
      ],
      "name": "balanceOf",
      "outputs": [
        {
          "internalType": "uint256",
          "name": "",
          "type": "uint256"
        }
      ],
      "stateMutability": "view",
      "type": "function"
    },
    {
      "inputs": [],
      "name": "baseUri",
      "outputs": [
        {
          "internalType": "string",
          "name": "",
          "type": "string"
        }
      ],
      "stateMutability": "view",
      "type": "function"
    },
    {
      "inputs": [
        {
          "internalType": "uint256",
          "name": "tokenId",
          "type": "uint256"
        }
      ],
      "name": "burn",
      "outputs": [],
      "stateMutability": "nonpayable",
      "type": "function"
    },
    {
      "inputs": [
        {
          "internalType": "uint8[]",
          "name": "cardNumbers",
          "type": "uint8[]"
        }
      ],
      "name": "burnCards",
      "outputs": [],
      "stateMutability": "nonpayable",
      "type": "function"
    },
    {
      "inputs": [
        {
          "internalType": "address",
          "name": "user",
          "type": "address"
        }
      ],
      "name": "burnedCards",
      "outputs": [
        {
          "internalType": "uint256",
          "name": "amount",
          "type": "uint256"
        }
      ],
      "stateMutability": "view",
      "type": "function"
    },
    {
      "inputs": [
        {
          "internalType": "uint256",
          "name": "tokenId",
          "type": "uint256"
        }
      ],
      "name": "cards",
      "outputs": [
        {
          "internalType": "uint256",
          "name": "tokenId",
          "type": "uint256"
        },
        {
          "internalType": "uint256",
          "name": "number",
          "type": "uint256"
        },
        {
          "internalType": "bool",
          "name": "pasted",
          "type": "bool"
        },
        {
          "internalType": "uint8",
          "name": "class",
          "type": "uint8"
        },
        {
          "internalType": "uint256",
          "name": "completion",
          "type": "uint256"
        }
      ],
      "stateMutability": "view",
      "type": "function"
    },
    {
      "inputs": [
        {
          "internalType": "address",
          "name": "user",
          "type": "address"
        },
        {
          "internalType": "uint8",
          "name": "cardNumber",
          "type": "uint8"
        }
      ],
      "name": "cardsByUser",
      "outputs": [
        {
          "internalType": "uint8",
          "name": "amount",
          "type": "uint8"
        }
      ],
      "stateMutability": "view",
      "type": "function"
    },
    {
      "inputs": [
        {
          "internalType": "uint256",
          "name": "cardNumber",
          "type": "uint256"
        }
      ],
      "name": "cardsInventory",
      "outputs": [
        {
          "internalType": "uint256",
          "name": "amount",
          "type": "uint256"
        }
      ],
      "stateMutability": "view",
      "type": "function"
    },
    {
      "inputs": [
        {
          "internalType": "uint256",
          "name": "newPackPrice",
          "type": "uint256"
        }
      ],
      "name": "changePackPrice",
      "outputs": [],
      "stateMutability": "nonpayable",
      "type": "function"
    },
    {
      "inputs": [
        {
          "internalType": "bool",
          "name": "required",
          "type": "bool"
        }
      ],
      "name": "changeRequireOfferValidationInMint",
      "outputs": [],
      "stateMutability": "nonpayable",
      "type": "function"
    },
    {
      "inputs": [
        {
          "internalType": "bool",
          "name": "required",
          "type": "bool"
        }
      ],
      "name": "changeRequireOfferValidationInTransfer",
      "outputs": [],
      "stateMutability": "nonpayable",
      "type": "function"
    },
    {
      "inputs": [
        {
          "internalType": "bool",
          "name": "required",
          "type": "bool"
        }
      ],
      "name": "changeRequireOpenPackSignerValidation",
      "outputs": [],
      "stateMutability": "nonpayable",
      "type": "function"
    },
    {
      "inputs": [
        {
          "internalType": "uint256",
          "name": "amount",
          "type": "uint256"
        }
      ],
      "name": "emergencyWithdraw",
      "outputs": [],
      "stateMutability": "nonpayable",
      "type": "function"
    },
    {
      "inputs": [
        {
          "internalType": "address",
          "name": "from",
          "type": "address"
        },
        {
          "internalType": "uint8",
          "name": "cardNumberFrom",
          "type": "uint8"
        },
        {
          "internalType": "address",
          "name": "to",
          "type": "address"
        },
        {
          "internalType": "uint8",
          "name": "cardNumberTo",
          "type": "uint8"
        }
      ],
      "name": "exchangeCardsOffer",
      "outputs": [],
      "stateMutability": "nonpayable",
      "type": "function"
    },
    {
      "inputs": [],
      "name": "finishAlbum",
      "outputs": [
        {
          "internalType": "bool",
          "name": "",
          "type": "bool"
        }
      ],
      "stateMutability": "nonpayable",
      "type": "function"
    },
    {
      "inputs": [],
      "name": "gammaOffersContract",
      "outputs": [
        {
          "internalType": "contract IgammaOffersContract",
          "name": "",
          "type": "address"
        }
      ],
      "stateMutability": "view",
      "type": "function"
    },
    {
      "inputs": [],
      "name": "gammaPacksContract",
      "outputs": [
        {
          "internalType": "contract IgammaPacksContract",
          "name": "",
          "type": "address"
        }
      ],
      "stateMutability": "view",
      "type": "function"
    },
    {
      "inputs": [
        {
          "internalType": "uint256",
          "name": "tokenId",
          "type": "uint256"
        }
      ],
      "name": "getApproved",
      "outputs": [
        {
          "internalType": "address",
          "name": "",
          "type": "address"
        }
      ],
      "stateMutability": "view",
      "type": "function"
    },
    {
      "inputs": [
        {
          "internalType": "address",
          "name": "user",
          "type": "address"
        },
        {
          "internalType": "uint8",
          "name": "cardNum",
          "type": "uint8"
        }
      ],
      "name": "getCardQuantityByUser",
      "outputs": [
        {
          "internalType": "uint8",
          "name": "",
          "type": "uint8"
        }
      ],
      "stateMutability": "view",
      "type": "function"
    },
    {
      "inputs": [
        {
          "internalType": "address",
          "name": "user",
          "type": "address"
        }
      ],
      "name": "getCardsByUser",
      "outputs": [
        {
          "internalType": "uint8[]",
          "name": "",
          "type": "uint8[]"
        },
        {
          "internalType": "uint8[]",
          "name": "",
          "type": "uint8[]"
        },
        {
          "internalType": "bool[]",
          "name": "",
          "type": "bool[]"
        }
      ],
      "stateMutability": "view",
      "type": "function"
    },
    {
      "inputs": [
        {
          "internalType": "address",
          "name": "user",
          "type": "address"
        },
        {
          "internalType": "uint8",
          "name": "cardNum",
          "type": "uint8"
        }
      ],
      "name": "hasCard",
      "outputs": [
        {
          "internalType": "bool",
          "name": "has",
          "type": "bool"
        }
      ],
      "stateMutability": "view",
      "type": "function"
    },
    {
      "inputs": [
        {
          "internalType": "address",
          "name": "user",
          "type": "address"
        },
        {
          "internalType": "uint8",
          "name": "cardNumber",
          "type": "uint8"
        }
      ],
      "name": "hasCardByOffer",
      "outputs": [
        {
          "internalType": "bool",
          "name": "has",
          "type": "bool"
        }
      ],
      "stateMutability": "view",
      "type": "function"
    },
    {
      "inputs": [
        {
          "internalType": "address",
          "name": "owner",
          "type": "address"
        },
        {
          "internalType": "address",
          "name": "operator",
          "type": "address"
        }
      ],
      "name": "isApprovedForAll",
      "outputs": [
        {
          "internalType": "bool",
          "name": "",
          "type": "bool"
        }
      ],
      "stateMutability": "view",
      "type": "function"
    },
    {
      "inputs": [],
      "name": "mainAlbumPrize",
      "outputs": [
        {
          "internalType": "uint256",
          "name": "",
          "type": "uint256"
        }
      ],
      "stateMutability": "view",
      "type": "function"
    },
    {
      "inputs": [],
      "name": "mainUri",
      "outputs": [
        {
          "internalType": "string",
          "name": "",
          "type": "string"
        }
      ],
      "stateMutability": "view",
      "type": "function"
    },
    {
      "inputs": [
        {
          "internalType": "uint8",
          "name": "cardNum",
          "type": "uint8"
        }
      ],
      "name": "mintCard",
      "outputs": [],
      "stateMutability": "nonpayable",
      "type": "function"
    },
    {
      "inputs": [],
      "name": "name",
      "outputs": [
        {
          "internalType": "string",
          "name": "",
          "type": "string"
        }
      ],
      "stateMutability": "view",
      "type": "function"
    },
    {
      "inputs": [
        {
          "internalType": "uint256",
          "name": "packNumber",
          "type": "uint256"
        },
        {
          "internalType": "uint8[]",
          "name": "packData",
          "type": "uint8[]"
        },
        {
          "internalType": "bytes",
          "name": "signature",
          "type": "bytes"
        }
      ],
      "name": "openPack",
      "outputs": [],
      "stateMutability": "nonpayable",
      "type": "function"
    },
    {
      "inputs": [
        {
          "internalType": "address",
          "name": "user",
          "type": "address"
        },
        {
          "internalType": "uint256",
          "name": "packNumber",
          "type": "uint256"
        },
        {
          "internalType": "uint8[]",
          "name": "packData",
          "type": "uint8[]"
        },
        {
          "internalType": "bytes",
          "name": "signature",
          "type": "bytes"
        }
      ],
      "name": "openPackByUser",
      "outputs": [],
      "stateMutability": "nonpayable",
      "type": "function"
    },
    {
      "inputs": [],
      "name": "owner",
      "outputs": [
        {
          "internalType": "address",
          "name": "",
          "type": "address"
        }
      ],
      "stateMutability": "view",
      "type": "function"
    },
    {
      "inputs": [
        {
          "internalType": "uint256",
          "name": "tokenId",
          "type": "uint256"
        }
      ],
      "name": "ownerOf",
      "outputs": [
        {
          "internalType": "address",
          "name": "",
          "type": "address"
        }
      ],
      "stateMutability": "view",
      "type": "function"
    },
    {
      "inputs": [
        {
          "internalType": "address",
          "name": "",
          "type": "address"
        }
      ],
      "name": "owners",
      "outputs": [
        {
          "internalType": "bool",
          "name": "",
          "type": "bool"
        }
      ],
      "stateMutability": "view",
      "type": "function"
    },
    {
      "inputs": [],
      "name": "packPrice",
      "outputs": [
        {
          "internalType": "uint256",
          "name": "",
          "type": "uint256"
        }
      ],
      "stateMutability": "view",
      "type": "function"
    },
    {
      "inputs": [],
      "name": "prizesBalance",
      "outputs": [
        {
          "internalType": "uint256",
          "name": "",
          "type": "uint256"
        }
      ],
      "stateMutability": "view",
      "type": "function"
    },
    {
      "inputs": [
        {
          "internalType": "address",
          "name": "user",
          "type": "address"
        },
        {
          "internalType": "uint8",
          "name": "cardNumber",
          "type": "uint8"
        }
      ],
      "name": "removeCardByOffer",
      "outputs": [],
      "stateMutability": "nonpayable",
      "type": "function"
    },
    {
      "inputs": [
        {
          "internalType": "address",
          "name": "_ownerToRemove",
          "type": "address"
        }
      ],
      "name": "removeOwner",
      "outputs": [],
      "stateMutability": "nonpayable",
      "type": "function"
    },
    {
      "inputs": [
        {
          "internalType": "address",
          "name": "_signerToRemove",
          "type": "address"
        }
      ],
      "name": "removeSigner",
      "outputs": [],
      "stateMutability": "nonpayable",
      "type": "function"
    },
    {
      "inputs": [],
      "name": "renounceOwnership",
      "outputs": [],
      "stateMutability": "nonpayable",
      "type": "function"
    },
    {
      "inputs": [],
      "name": "requireOfferValidationInMint",
      "outputs": [
        {
          "internalType": "bool",
          "name": "",
          "type": "bool"
        }
      ],
      "stateMutability": "view",
      "type": "function"
    },
    {
      "inputs": [],
      "name": "requireOfferValidationInTransfer",
      "outputs": [
        {
          "internalType": "bool",
          "name": "",
          "type": "bool"
        }
      ],
      "stateMutability": "view",
      "type": "function"
    },
    {
      "inputs": [],
      "name": "requireOpenPackSignerValidation",
      "outputs": [
        {
          "internalType": "bool",
          "name": "",
          "type": "bool"
        }
      ],
      "stateMutability": "view",
      "type": "function"
    },
    {
      "inputs": [
        {
          "internalType": "address",
          "name": "user",
          "type": "address"
        },
        {
          "internalType": "uint8",
          "name": "cardNumber",
          "type": "uint8"
        }
      ],
      "name": "restoreCardByOffer",
      "outputs": [],
      "stateMutability": "nonpayable",
      "type": "function"
    },
    {
      "inputs": [
        {
          "internalType": "address",
          "name": "from",
          "type": "address"
        },
        {
          "internalType": "address",
          "name": "to",
          "type": "address"
        },
        {
          "internalType": "uint256",
          "name": "tokenId",
          "type": "uint256"
        }
      ],
      "name": "safeTransferFrom",
      "outputs": [],
      "stateMutability": "nonpayable",
      "type": "function"
    },
    {
      "inputs": [
        {
          "internalType": "address",
          "name": "from",
          "type": "address"
        },
        {
          "internalType": "address",
          "name": "to",
          "type": "address"
        },
        {
          "internalType": "uint256",
          "name": "tokenId",
          "type": "uint256"
        },
        {
          "internalType": "bytes",
          "name": "data",
          "type": "bytes"
        }
      ],
      "name": "safeTransferFrom",
      "outputs": [],
      "stateMutability": "nonpayable",
      "type": "function"
    },
    {
      "inputs": [],
      "name": "secondaryAlbumPrize",
      "outputs": [
        {
          "internalType": "uint256",
          "name": "",
          "type": "uint256"
        }
      ],
      "stateMutability": "view",
      "type": "function"
    },
    {
      "inputs": [],
      "name": "secondaryUri",
      "outputs": [
        {
          "internalType": "string",
          "name": "",
          "type": "string"
        }
      ],
      "stateMutability": "view",
      "type": "function"
    },
    {
      "inputs": [
        {
          "internalType": "address",
          "name": "operator",
          "type": "address"
        },
        {
          "internalType": "bool",
          "name": "approved",
          "type": "bool"
        }
      ],
      "name": "setApprovalForAll",
      "outputs": [],
      "stateMutability": "nonpayable",
      "type": "function"
    },
    {
      "inputs": [
        {
          "internalType": "address",
          "name": "_gammaOffersContract",
          "type": "address"
        }
      ],
      "name": "setGammaOffersContract",
      "outputs": [],
      "stateMutability": "nonpayable",
      "type": "function"
    },
    {
      "inputs": [
        {
          "internalType": "address",
          "name": "_gammaPacksContract",
          "type": "address"
        }
      ],
      "name": "setGammaPacksContract",
      "outputs": [],
      "stateMutability": "nonpayable",
      "type": "function"
    },
    {
      "inputs": [
        {
          "internalType": "uint256",
          "name": "amount",
          "type": "uint256"
        }
      ],
      "name": "setPrizesBalance",
      "outputs": [],
      "stateMutability": "nonpayable",
      "type": "function"
    },
    {
      "inputs": [
        {
          "internalType": "string",
          "name": "newMainUri",
          "type": "string"
        },
        {
          "internalType": "string",
          "name": "newSecondaryUri",
          "type": "string"
        }
      ],
      "name": "setUris",
      "outputs": [],
      "stateMutability": "nonpayable",
      "type": "function"
    },
    {
      "inputs": [
        {
          "internalType": "address",
          "name": "",
          "type": "address"
        }
      ],
      "name": "signers",
      "outputs": [
        {
          "internalType": "bool",
          "name": "",
          "type": "bool"
        }
      ],
      "stateMutability": "view",
      "type": "function"
    },
    {
      "inputs": [
        {
          "internalType": "bytes4",
          "name": "interfaceId",
          "type": "bytes4"
        }
      ],
      "name": "supportsInterface",
      "outputs": [
        {
          "internalType": "bool",
          "name": "",
          "type": "bool"
        }
      ],
      "stateMutability": "view",
      "type": "function"
    },
    {
      "inputs": [],
      "name": "symbol",
      "outputs": [
        {
          "internalType": "string",
          "name": "",
          "type": "string"
        }
      ],
      "stateMutability": "view",
      "type": "function"
    },
    {
      "inputs": [
        {
          "internalType": "address",
          "name": "user",
          "type": "address"
        }
      ],
      "name": "testAddCards",
      "outputs": [],
      "stateMutability": "nonpayable",
      "type": "function"
    },
    {
      "inputs": [
        {
          "internalType": "address",
          "name": "user",
          "type": "address"
        },
        {
          "internalType": "uint256",
          "name": "packNumber",
          "type": "uint256"
        },
        {
          "internalType": "uint8[]",
          "name": "packData",
          "type": "uint8[]"
        }
      ],
      "name": "testOpenPack",
      "outputs": [],
      "stateMutability": "nonpayable",
      "type": "function"
    },
    {
      "inputs": [
        {
          "internalType": "uint256",
          "name": "tokenId",
          "type": "uint256"
        }
      ],
      "name": "tokenURI",
      "outputs": [
        {
          "internalType": "string",
          "name": "",
          "type": "string"
        }
      ],
      "stateMutability": "view",
      "type": "function"
    },
    {
      "inputs": [
        {
          "internalType": "address",
          "name": "to",
          "type": "address"
        },
        {
          "internalType": "uint8",
          "name": "cardNumber",
          "type": "uint8"
        }
      ],
      "name": "transferCard",
      "outputs": [],
      "stateMutability": "nonpayable",
      "type": "function"
    },
    {
      "inputs": [
        {
          "internalType": "address",
          "name": "to",
          "type": "address"
        },
        {
          "internalType": "uint8[]",
          "name": "cardNumbers",
          "type": "uint8[]"
        }
      ],
      "name": "transferCards",
      "outputs": [],
      "stateMutability": "nonpayable",
      "type": "function"
    },
    {
      "inputs": [
        {
          "internalType": "address",
          "name": "from",
          "type": "address"
        },
        {
          "internalType": "address",
          "name": "to",
          "type": "address"
        },
        {
          "internalType": "uint256",
          "name": "tokenId",
          "type": "uint256"
        }
      ],
      "name": "transferFrom",
      "outputs": [],
      "stateMutability": "nonpayable",
      "type": "function"
    },
    {
      "inputs": [
        {
          "internalType": "address",
          "name": "newOwner",
          "type": "address"
        }
      ],
      "name": "transferOwnership",
      "outputs": [],
      "stateMutability": "nonpayable",
      "type": "function"
    },
    {
      "inputs": [
        {
          "internalType": "uint256",
          "name": "packNumber",
          "type": "uint256"
        },
        {
          "internalType": "uint8[]",
          "name": "packData",
          "type": "uint8[]"
        },
        {
          "internalType": "bytes",
          "name": "signature",
          "type": "bytes"
        }
      ],
      "name": "verifyPackSigner",
      "outputs": [
        {
          "internalType": "address",
          "name": "signer",
          "type": "address"
        }
      ],
      "stateMutability": "view",
      "type": "function"
    }
  ],
  "bytecode": "0x60806040526710a741a462780000600c5567d02ab486cedc0000600f55670de0b6b3a76400006010553480156200003557600080fd5b5060405162005e2838038062005e2883398101604081905262000058916200034f565b6040518060400160405280600a81526020016947616d6d61436172647360b01b815250604051806040016040528060068152602001654e4f465f474360d01b8152508160009081620000ab9190620004d1565b506001620000ba8282620004d1565b505050620000d7620000d1620002a060201b60201c565b620002a4565b600880546001600160a01b038086166001600160a01b031992831617909255600b805492871692909116919091179055600e620001158382620004d1565b5060408051808201825260018152602f60f81b60208083019190915282518084018452600381526203132360ec1b8183015283518085018552600681526523173539b7b760d11b8184015293516200017494600e94939091016200059d565b60405160208183030381529060405260119081620001939190620004d1565b5060408051808201825260018152602f60f81b60208083019190915282518084018452600381526231323160e81b8183015283518085018552600681526523173539b7b760d11b818401529351620001f294600e94939091016200059d565b60405160208183030381529060405260129081620002119190620004d1565b506001600160a01b0381166000908152601560205260408120805460ff19166001179055601380546201010062ffffff199091161790555b607a8110156200027a576000818152601760205260409020600190558062000271816200065a565b91505062000249565b5050336000908152601460205260409020805460ff191660011790555062000682915050565b3390565b600780546001600160a01b038381166001600160a01b0319831681179093556040519116919082907f8be0079c531659141344cd1fd0a4f28419497f9722a3daafe3b4186f6b6457e090600090a35050565b80516001600160a01b03811681146200030e57600080fd5b919050565b634e487b7160e01b600052604160045260246000fd5b60005b83811015620003465781810151838201526020016200032c565b50506000910152565b600080600080608085870312156200036657600080fd5b6200037185620002f6565b93506200038160208601620002f6565b60408601519093506001600160401b03808211156200039f57600080fd5b818701915087601f830112620003b457600080fd5b815181811115620003c957620003c962000313565b604051601f8201601f19908116603f01168101908382118183101715620003f457620003f462000313565b816040528281528a60208487010111156200040e57600080fd5b6200042183602083016020880162000329565b80965050505050506200043760608601620002f6565b905092959194509250565b600181811c908216806200045757607f821691505b6020821081036200047857634e487b7160e01b600052602260045260246000fd5b50919050565b601f821115620004cc57600081815260208120601f850160051c81016020861015620004a75750805b601f850160051c820191505b81811015620004c857828155600101620004b3565b5050505b505050565b81516001600160401b03811115620004ed57620004ed62000313565b6200050581620004fe845462000442565b846200047e565b602080601f8311600181146200053d5760008415620005245750858301515b600019600386901b1c1916600185901b178555620004c8565b600085815260208120601f198616915b828110156200056e578886015182559484019460019091019084016200054d565b50858210156200058d5787850151600019600388901b60f8161c191681555b5050505050600190811b01905550565b6000808654620005ad8162000442565b60018281168015620005c85760018114620005de576200060f565b60ff19841687528215158302870194506200060f565b8a60005260208060002060005b85811015620006065781548a820152908401908201620005eb565b50505082870194505b50505050855162000625818360208a0162000329565b85519101906200063a81836020890162000329565b84519101906200064f81836020880162000329565b019695505050505050565b6000600182016200067b57634e487b7160e01b600052601160045260246000fd5b5060010190565b61579680620006926000396000f3fe608060405234801561001057600080fd5b50600436106103f15760003560e01c80637e50fa8f11610215578063ad1684fa11610125578063dec3f6d9116100b8578063e606df8711610087578063e606df8714610950578063e985e9c514610963578063eb12d61e1461099f578063f2fde38b146109b2578063f98fd283146109c557600080fd5b8063dec3f6d914610919578063e1883c6e14610921578063e51aebb314610934578063e5db587a1461094757600080fd5b8063c87b56dd116100f4578063c87b56dd146108cd578063cafaa473146108e0578063d322b563146108f3578063dbfc05cf1461090657600080fd5b8063ad1684fa1461088c578063b88d4fde1461089f578063bf400a6a146108b2578063c3461c07146108c557600080fd5b806391565664116101a85780639c7f707f116101775780639c7f707f146108375780639f4415d81461084a578063a1af8ad414610853578063a22cb46514610866578063a419811d1461087957600080fd5b8063915656641461080857806395d89b411461081a57806396884135146108225780639abc83201461082f57600080fd5b80638bf670c8116101e45780638bf670c81461076a5780638da5cb5b1461077d5780638dc107681461078e5780639038f4141461080057600080fd5b80637e50fa8f14610700578063809eb3551461072057806384c4bd4b1461074e578063886eb60f1461075757600080fd5b80632f9e026a116103105780635dde20d8116102a35780637065cb48116102725780637065cb481461069c57806370a08231146106af578063715018a6146106c25780637155a3ac146106ca578063736c0d5b146106dd57600080fd5b80635dde20d8146106435780635e31ce48146106635780636352211e1461067657806368cc5bc11461068957600080fd5b806342966c68116102df57806342966c6814610601578063483823e814610614578063511b93071461061d5780635312ea8e1461063057600080fd5b80632f9e026a146105b157806330f5cc58146105c4578063335c8b63146105d757806342842e0e146105ee57600080fd5b80631306952c1161038857806320965a5f1161035757806320965a5f1461056557806323b872dd14610578578063267b841d1461058b5780632ca699e71461059e57600080fd5b80631306952c146104de578063155e2f92146104f15780631585cc4e14610504578063173825d91461055257600080fd5b8063081812fc116103c4578063081812fc14610478578063095ea7b3146104a35780630e316ab7146104b8578063128916dc146104cb57600080fd5b806301ffc9a7146103f6578063022914a71461041e5780630435dcaf1461044157806306fdde0314610463575b600080fd5b610409610404366004614825565b6109d8565b60405190151581526020015b60405180910390f35b61040961042c366004614857565b60146020526000908152604090205460ff1681565b61045461044f366004614857565b6109e9565b604051610415939291906148b2565b61046b610da6565b604051610415919061496d565b61048b610486366004614980565b610e38565b6040516001600160a01b039091168152602001610415565b6104b66104b1366004614999565b610e5f565b005b6104b66104c6366004614857565b610f79565b6104b66104d9366004614857565b6110bf565b61048b6104ec366004614ae8565b611169565b6104b66104ff366004614b57565b611260565b610540610512366004614b57565b6001600160a01b0391909116600090815260196020908152604080832060ff94851684529091529020541690565b60405160ff9091168152602001610415565b6104b6610560366004614857565b6112dc565b6104b6610573366004614bd0565b611422565b6104b6610586366004614c11565b611722565b6104b6610599366004614ae8565b611754565b6104b66105ac366004614b57565b611767565b60085461048b906001600160a01b031681565b6104b66105d2366004614c52565b611971565b6105e0600c5481565b604051908152602001610415565b6104b66105fc366004614c11565b611c0e565b6104b661060f366004614980565b611c29565b6105e060105481565b6013546104099062010000900460ff1681565b6104b661063e366004614980565b611c5a565b6105e0610651366004614980565b60176020526000908152604090205481565b6104b6610671366004614980565b611d61565b61048b610684366004614980565b611da5565b6104b6610697366004614cb8565b611e05565b6104b66106aa366004614857565b611e50565b6105e06106bd366004614857565b611f32565b6104b6611fb8565b6104b66106d8366004614b57565b611fcc565b6104096106eb366004614857565b60156020526000908152604090205460ff1681565b6105e061070e366004614857565b60186020526000908152604090205481565b61054061072e366004614b57565b601960209081526000928352604080842090915290825290205460ff1681565b6105e0600a5481565b610409610765366004614b57565b61202b565b610409610778366004614b57565b612084565b6007546001600160a01b031661048b565b6107d061079c366004614980565b60166020526000908152604090208054600182015460028301546003909301549192909160ff808316926101009004169085565b6040805195865260208601949094529115159284019290925260ff9091166060830152608082015260a001610415565b6104096120b1565b60135461040990610100900460ff1681565b61046b612554565b6013546104099060ff1681565b61046b612563565b6104b6610845366004614d4c565b6125f1565b6105e0600f5481565b6104b6610861366004614daf565b61266b565b6104b6610874366004614e03565b6129c3565b6104b6610887366004614857565b6129ce565b6104b661089a366004614e3c565b612a6d565b6104b66108ad366004614e94565b612d28565b6104b66108c0366004614f13565b612d5a565b61046b612f70565b61046b6108db366004614980565b612f7d565b6104b66108ee366004614857565b612f88565b60095461048b906001600160a01b031681565b6104b6610914366004614cb8565b61302b565b61046b61306d565b6104b661092f366004614980565b61307a565b6104b6610942366004614f2e565b6130a9565b6105e0600d5481565b600b5461048b906001600160a01b031681565b610409610971366004614fb4565b6001600160a01b03918216600090815260056020908152604080832093909416825291909152205460ff1690565b6104b66109ad366004614857565b6130e5565b6104b66109c0366004614857565b6131c7565b6104b66109d3366004614cb8565b61323d565b60006109e382613286565b92915050565b604080516079808252610f408201909252606091829182916000919060208201610f20803683375050604080516079808252610f408201909252929350600092915060208201610f20803683375050604080516079808252610f408201909252929350600092915060208201610f20803683370190505090506000805b60778160ff1611610bcf576001600160a01b038916600090815260196020908152604080832060ff80861685529252909120541615610bbd5780858360ff1681518110610ab557610ab5614fe2565b60ff9283166020918202929092018101919091526001600160a01b038b166000908152601982526040808220858516835290925220548551908216918691908516908110610b0557610b05614fe2565b60ff90921660209283029190910190910152600954604051632edb5fcf60e01b81526001600160a01b0390911690632edb5fcf90610b49908c908590600401614ff8565b602060405180830381865afa158015610b66573d6000803e3d6000fd5b505050506040513d601f19601f82011682018060405250810190610b8a9190615014565b838360ff1681518110610b9f57610b9f614fe2565b9115156020928302919091019091015281610bb981615047565b9250505b80610bc781615047565b915050610a66565b5060008160ff166001600160401b03811115610bed57610bed6149c5565b604051908082528060200260200182016040528015610c16578160200160208202803683370190505b50905060008260ff166001600160401b03811115610c3657610c366149c5565b604051908082528060200260200182016040528015610c5f578160200160208202803683370190505b50905060008360ff166001600160401b03811115610c7f57610c7f6149c5565b604051908082528060200260200182016040528015610ca8578160200160208202803683370190505b50905060005b8460ff168160ff161015610d9457878160ff1681518110610cd157610cd1614fe2565b6020026020010151848260ff1681518110610cee57610cee614fe2565b60ff9283166020918202929092010152875188918316908110610d1357610d13614fe2565b6020026020010151838260ff1681518110610d3057610d30614fe2565b60ff9283166020918202929092010152865187918316908110610d5557610d55614fe2565b6020026020010151828260ff1681518110610d7257610d72614fe2565b9115156020928302919091019091015280610d8c81615047565b915050610cae565b50919a90995090975095505050505050565b606060008054610db590615066565b80601f0160208091040260200160405190810160405280929190818152602001828054610de190615066565b8015610e2e5780601f10610e0357610100808354040283529160200191610e2e565b820191906000526020600020905b815481529060010190602001808311610e1157829003601f168201915b5050505050905090565b6000610e43826132ab565b506000908152600460205260409020546001600160a01b031690565b6000610e6a82611da5565b9050806001600160a01b0316836001600160a01b031603610edc5760405162461bcd60e51b815260206004820152602160248201527f4552433732313a20617070726f76616c20746f2063757272656e74206f776e656044820152603960f91b60648201526084015b60405180910390fd5b336001600160a01b0382161480610ef85750610ef88133610971565b610f6a5760405162461bcd60e51b815260206004820152603d60248201527f4552433732313a20617070726f76652063616c6c6572206973206e6f7420746f60448201527f6b656e206f776e6572206f7220617070726f76656420666f7220616c6c0000006064820152608401610ed3565b610f74838361330a565b505050565b3360009081526014602052604090205460ff16610fa85760405162461bcd60e51b8152600401610ed3906150a0565b6001600160a01b038116610fce5760405162461bcd60e51b8152600401610ed3906150e3565b336001600160a01b038216036110365760405162461bcd60e51b815260206004820152602760248201527f596f752063616e6e6f742072656d6f766520796f757273656c6620617320612060448201526639b4b3b732b91760c91b6064820152608401610ed3565b6001600160a01b03811660009081526015602052604090205460ff1661109e5760405162461bcd60e51b815260206004820152601960248201527f41646472657373206973206e6f7420616e207369676e65722e000000000000006044820152606401610ed3565b6001600160a01b03166000908152601560205260409020805460ff19169055565b3360009081526014602052604090205460ff166110ee5760405162461bcd60e51b8152600401610ed3906150a0565b6001600160a01b0381166111145760405162461bcd60e51b8152600401610ed3906150e3565b600980546001600160a01b0319166001600160a01b0383169081179091556040519081527f538b3425a321783393ad250db10356b8b3523ef29a40de015c5218213de0ead0906020015b60405180910390a150565b6000806111cd3387876040516020016111849392919061510d565b604051602081830303815290604052805190602001207f19457468657265756d205369676e6564204d6573736167653a0a3332000000006000908152601c91909152603c902090565b9050600061121385858080601f01602080910402602001604051908101604052809392919081815260200183838082843760009201919091525086939250506133789050565b90506112546040518060400160405280601a81526020017f6f70656e207061636b207369676e6572207265636f76657265640000000000008152508261339c565b9150505b949350505050565b6009546001600160a01b0316331461128a5760405162461bcd60e51b8152600401610ed39061519b565b6001600160a01b038216600090815260196020908152604080832060ff8086168552925282208054909116916112bf83615047565b91906101000a81548160ff021916908360ff160217905550505050565b3360009081526014602052604090205460ff1661130b5760405162461bcd60e51b8152600401610ed3906150a0565b6001600160a01b0381166113315760405162461bcd60e51b8152600401610ed3906150e3565b336001600160a01b038216036113995760405162461bcd60e51b815260206004820152602760248201527f596f752063616e6e6f742072656d6f766520796f757273656c6620617320616e6044820152661037bbb732b91760c91b6064820152608401610ed3565b6001600160a01b03811660009081526014602052604090205460ff166114015760405162461bcd60e51b815260206004820152601860248201527f41646472657373206973206e6f7420616e206f776e65722e00000000000000006044820152606401610ed3565b6001600160a01b03166000908152601460205260409020805460ff19169055565b3360009081526019602090815260408083206079845290915290205460ff1661148d5760405162461bcd60e51b815260206004820152601860248201527f4e6f207469656e657320616c62756d206465207175656d6100000000000000006044820152606401610ed3565b336000908152601960209081526040808320607984529091528120805460ff16916114b7836151ed565b825460ff9182166101009390930a92830291909202199091161790555033600090815260186020526040812080548392906114f390849061520a565b90915550600090505b60ff81168211156115945733600090815260196020526040812090848460ff851681811061152c5761152c614fe2565b90506020020160208101906115419190614f13565b60ff90811682526020820192909252604001600090812080549092169190611568836151ed565b91906101000a81548160ff021916908360ff16021790555050808061158c90615047565b9150506114fc565b50336000908152601860205260409020546115b190603c90615233565b60000361171e5761165033601280546115c990615066565b80601f01602080910402602001604051908101604052809291908181526020018280546115f590615066565b80156116425780601f1061161757610100808354040283529160200191611642565b820191906000526020600020905b81548152906001019060200180831161162557829003601f168201915b5050505050607960026133e1565b600f54600d60008282546116649190615247565b9091555050600b5460105460405163a9059cbb60e01b815233600482015260248101919091526001600160a01b039091169063a9059cbb906044016020604051808303816000875af11580156116be573d6000803e3d6000fd5b505050506040513d601f19601f820116820180604052508101906116e29190615014565b507f6d0344e2059f835240cb954cce07d4b26f0d0844eecc234f7ee0e292ba80a1aa336002604051611715929190614ff8565b60405180910390a15b5050565b61172d335b82613444565b6117495760405162461bcd60e51b8152600401610ed39061525a565b610f748383836134c2565b6117613385858585613626565b50505050565b33600090815260196020908152604080832060ff8086168552925290912054166117a35760405162461bcd60e51b8152600401610ed3906152a7565b336001600160a01b038316036117fb5760405162461bcd60e51b815260206004820152601960248201527f4f776e207472616e73666572206e6f7420616c6c6f7765642e000000000000006044820152606401610ed3565b6001600160a01b0382166118215760405162461bcd60e51b8152600401610ed3906150e3565b60135462010000900460ff16156118f657600954604051632edb5fcf60e01b81526000916001600160a01b031690632edb5fcf906118659033908690600401614ff8565b602060405180830381865afa158015611882573d6000803e3d6000fd5b505050506040513d601f19601f820116820180604052508101906118a69190615014565b33600090815260196020908152604080832060ff808816855292529091205491925060019116118115806118d75750805b6118f35760405162461bcd60e51b8152600401610ed3906152de565b50505b33600090815260196020908152604080832060ff808616855292528220805490911691611922836151ed565b82546101009290920a60ff8181021990931691831602179091556001600160a01b038416600090815260196020908152604080832086851684529091528120805490921692506112bf83615047565b3360009081526014602052604090205460ff166119a05760405162461bcd60e51b8152600401610ed3906150a0565b6008546040516380f2540b60e01b8152600481018490526001600160a01b038581166024830152909116906380f2540b90604401600060405180830381600087803b1580156119ee57600080fd5b505af1158015611a02573d6000803e3d6000fd5b505050506006600c54611a15919061532e565b600c54611a229190615247565b600d6000828254611a33919061520a565b9091555050805160005b818160ff161015611c0757828160ff1681518110611a5d57611a5d614fe2565b602002602001015160ff16607814611aab5761138960176000858460ff1681518110611a8b57611a8b614fe2565b602002602001015160ff1681526020019081526020016000205410611adc565b607860005260176020527f1e0e657bdfc7d3d523657bb82aa6f2c628a4caf6e2f7839556e82479d4362f0654610bb9115b611b285760405162461bcd60e51b815260206004820152601e60248201527f696e76616c69642063617264496e76656e746f727920706f736974696f6e00006044820152606401610ed3565b60176000848360ff1681518110611b4157611b41614fe2565b602002602001015160ff1681526020019081526020016000206000815480929190611b6b90615342565b90915550506001600160a01b03851660009081526019602052604081208451909190859060ff8516908110611ba257611ba2614fe2565b602002602001015160ff1660ff168152602001908152602001600020600081819054906101000a900460ff1680929190611bdb90615047565b91906101000a81548160ff021916908360ff160217905550508080611bff90615047565b915050611a3d565b5050505050565b610f7483838360405180602001604052806000815250612d28565b611c3233611727565b611c4e5760405162461bcd60e51b8152600401610ed39061525a565b611c5781613ae9565b50565b3360009081526014602052604090205460ff16611c895760405162461bcd60e51b8152600401610ed3906150a0565b80611c9330611f32565b1015611c9e57600080fd5b80600d6000828254611cb09190615247565b9091555050600b5460405163a9059cbb60e01b8152336004820152602481018390526001600160a01b039091169063a9059cbb906044016020604051808303816000875af1158015611d06573d6000803e3d6000fd5b505050506040513d601f19601f82011682018060405250810190611d2a9190615014565b5060408051338152602081018390527f23d6711a1d031134a36921253c75aa59e967d38e369ac625992824315e204f20910161115e565b6008546001600160a01b03163314611d8b5760405162461bcd60e51b8152600401610ed39061535b565b80600d6000828254611d9d919061520a565b909155505050565b6000818152600260205260408120546001600160a01b0316806109e35760405162461bcd60e51b8152602060048201526018602482015277115490cdcc8c4e881a5b9d985b1a59081d1bdad95b88125160421b6044820152606401610ed3565b3360009081526014602052604090205460ff16611e345760405162461bcd60e51b8152600401610ed3906150a0565b60138054911515620100000262ff000019909216919091179055565b3360009081526014602052604090205460ff16611e7f5760405162461bcd60e51b8152600401610ed3906150a0565b6001600160a01b038116611ea55760405162461bcd60e51b8152600401610ed3906150e3565b6001600160a01b03811660009081526014602052604090205460ff1615611f0e5760405162461bcd60e51b815260206004820152601c60248201527f4164647265737320697320616c726561647920616e206f776e65722e000000006044820152606401610ed3565b6001600160a01b03166000908152601460205260409020805460ff19166001179055565b60006001600160a01b038216611f9c5760405162461bcd60e51b815260206004820152602960248201527f4552433732313a2061646472657373207a65726f206973206e6f7420612076616044820152683634b21037bbb732b960b91b6064820152608401610ed3565b506001600160a01b031660009081526003602052604090205490565b611fc0613af2565b611fca6000613b4c565b565b6009546001600160a01b03163314611ff65760405162461bcd60e51b8152600401610ed39061519b565b6001600160a01b038216600090815260196020908152604080832060ff8086168552925282208054909116916112bf836151ed565b60006001600160a01b0383166120535760405162461bcd60e51b8152600401610ed3906150e3565b506001600160a01b0391909116600090815260196020908152604080832060ff948516845290915290205416151590565b6009546000906001600160a01b031633146120535760405162461bcd60e51b8152600401610ed39061519b565b3360009081526019602090815260408083206078845290915281205460ff1661211c5760405162461bcd60e51b815260206004820152601c60248201527f596f7520646f6573206e6f74206861766520616e7920616c62756d2e000000006044820152606401610ed3565b600f54600d5410156121815760405162461bcd60e51b815260206004820152602860248201527f496e73756666696369656e742066756e647320286f70656e2d7061636b73206260448201526730b630b731b2949760c11b6064820152608401610ed3565b600b546040516370a0823160e01b81523060048201526000916001600160a01b0316906370a0823190602401602060405180830381865afa1580156121ca573d6000803e3d6000fd5b505050506040513d601f19601f820116820180604052508101906121ee91906153ac565b9050600f548110156122425760405162461bcd60e51b815260206004820152601e60248201527f496e73756666696369656e742066756e64732028636f6e7472616374292e00006044820152606401610ed3565b6000805b60798160ff1610156122d85733600090815260196020908152604080832060ff8086168552925282205416900361228057600191506122d8565b33600090815260196020908152604080832060ff8086168552925282208054909116916122ac836151ed565b91906101000a81548160ff021916908360ff1602179055505080806122d090615047565b915050612246565b5080156123275760405162461bcd60e51b815260206004820152601860248201527f4d75737420636f6d706c6574652074686520616c62756d2e00000000000000006044820152606401610ed3565b6123bf336011805461233890615066565b80601f016020809104026020016040519081016040528092919081815260200182805461236490615066565b80156123b15780601f10612386576101008083540402835291602001916123b1565b820191906000526020600020905b81548152906001019060200180831161239457829003601f168201915b5050505050607860026133e1565b600b54600f5460405163a9059cbb60e01b815233600482015260248101919091526001600160a01b039091169063a9059cbb906044016020604051808303816000875af1158015612414573d6000803e3d6000fd5b505050506040513d601f19601f820116820180604052508101906124389190615014565b50600f54600d600082825461244d9190615247565b9091555050600954604051633f27a03f60e21b81523360048201526000916001600160a01b03169063fc9e80fc906024016020604051808303816000875af115801561249d573d6000803e3d6000fd5b505050506040513d601f19601f820116820180604052508101906124c19190615014565b9050806125105760405162461bcd60e51b815260206004820152601960248201527f43616e6e6f742072656d6f76652075736572206f6666657273000000000000006044820152606401610ed3565b7f6d0344e2059f835240cb954cce07d4b26f0d0844eecc234f7ee0e292ba80a1aa336001604051612542929190614ff8565b60405180910390a16001935050505090565b606060018054610db590615066565b600e805461257090615066565b80601f016020809104026020016040519081016040528092919081815260200182805461259c90615066565b80156125e95780601f106125be576101008083540402835291602001916125e9565b820191906000526020600020905b8154815290600101906020018083116125cc57829003601f168201915b505050505081565b3360009081526014602052604090205460ff166126205760405162461bcd60e51b8152600401610ed3906150a0565b601161262c8382615413565b5060126126398282615413565b507fabfd337ac5625b7dc2ddd3d3bd465fb1dec15322eeeed81032268b337880bec682826040516117159291906154d2565b336001600160a01b038416036126ce5760405162461bcd60e51b815260206004820152602260248201527f596f752063616e6e6f742073656e6420636172647320746f20796f757273656c604482015261331760f11b6064820152608401610ed3565b6001600160a01b0383166126f45760405162461bcd60e51b8152600401610ed3906150e3565b60005b60ff81168211156117615733600090815260196020526040812081858560ff861681811061272757612727614fe2565b905060200201602081019061273c9190614f13565b60ff908116825260208201929092526040016000205416116127705760405162461bcd60e51b8152600401610ed3906152a7565b33600090815260196020526040812090848460ff851681811061279557612795614fe2565b90506020020160208101906127aa9190614f13565b60ff908116825260208201929092526040016000908120805490921691906127d1836151ed565b91906101000a81548160ff021916908360ff1602179055505060196000856001600160a01b03166001600160a01b03168152602001908152602001600020600084848460ff1681811061282657612826614fe2565b905060200201602081019061283b9190614f13565b60ff9081168252602082019290925260400160009081208054909216919061286283615047565b91906101000a81548160ff021916908360ff16021790555050601360029054906101000a900460ff16156129b1576009546000906001600160a01b0316632edb5fcf33868660ff87168181106128ba576128ba614fe2565b90506020020160208101906128cf9190614f13565b6040518363ffffffff1660e01b81526004016128ec929190614ff8565b602060405180830381865afa158015612909573d6000803e3d6000fd5b505050506040513d601f19601f8201168201806040525081019061292d9190615014565b3360009081526019602052604081209192509060019082878760ff881681811061295957612959614fe2565b905060200201602081019061296e9190614f13565b60ff9081168252602082019290925260400160002054161190508115806129925750805b6129ae5760405162461bcd60e51b8152600401610ed3906152de565b50505b806129bb81615047565b9150506126f7565b61171e338383613b9e565b3360009081526014602052604090205460ff166129fd5760405162461bcd60e51b8152600401610ed3906150a0565b60005b60798160ff16101561171e576001600160a01b038216600090815260196020908152604080832060ff808616855292528220805490911691612a4183615047565b91906101000a81548160ff021916908360ff160217905550508080612a6590615047565b915050612a00565b6009546001600160a01b03163314612a975760405162461bcd60e51b8152600401610ed39061519b565b6001600160a01b038416612abd5760405162461bcd60e51b8152600401610ed3906150e3565b6001600160a01b038216612ae35760405162461bcd60e51b8152600401610ed3906150e3565b6001600160a01b038416600090815260196020908152604080832060ff808816855292529091205416612b675760405162461bcd60e51b815260206004820152602660248201527f55736572202866726f6d2920646f6573206e6f74206861766520636172642028604482015265333937b6949760d11b6064820152608401610ed3565b6001600160a01b038216600090815260196020908152604080832060ff808616855292529091205416612be75760405162461bcd60e51b815260206004820152602260248201527f557365722028746f2920646f6573206e6f74206861766520636172642028746f604482015261149760f11b6064820152608401610ed3565b6001600160a01b038416600090815260196020908152604080832060ff808816855292528220805490911691612c1c836151ed565b82546101009290920a60ff8181021990931691831602179091556001600160a01b03841660009081526019602090815260408083208885168452909152812080549092169250612c6b83615047565b82546101009290920a60ff8181021990931691831602179091556001600160a01b03841660009081526019602090815260408083208685168452909152812080549092169250612cba836151ed565b82546101009290920a60ff8181021990931691831602179091556001600160a01b03861660009081526019602090815260408083208685168452909152812080549092169250612d0983615047565b91906101000a81548160ff021916908360ff1602179055505050505050565b612d323383613444565b612d4e5760405162461bcd60e51b8152600401610ed39061525a565b61176184848484613c6c565b33600090815260196020908152604080832060ff808616855292529091205416612d965760405162461bcd60e51b8152600401610ed3906152a7565b601354610100900460ff1615612eaf57600954604051632edb5fcf60e01b81526000916001600160a01b031690632edb5fcf90612dd99033908690600401614ff8565b602060405180830381865afa158015612df6573d6000803e3d6000fd5b505050506040513d601f19601f82011682018060405250810190612e1a9190615014565b33600090815260196020908152604080832060ff80881685529252909120549192506001911611811580612e4b5750805b612eac5760405162461bcd60e51b815260206004820152602c60248201527f5468697320636172642068617320616e206f666665722c2069742063616e6e6f60448201526b3a1031329036b4b73a32b21760a11b6064820152608401610ed3565b50505b33600090815260196020908152604080832060ff808616855292528220805490911691612edb836151ed565b91906101000a81548160ff021916908360ff160217905550506000600e604051806040016040528060018152602001602f60f81b815250612f1e8460ff16613c9f565b60405180604001604052806005815260200164173539b7b760d91b815250604051602001612f4f9493929190615500565b604051602081830303815290604052905061171e33828460ff1660016133e1565b6011805461257090615066565b60606109e382613d9f565b3360009081526014602052604090205460ff16612fb75760405162461bcd60e51b8152600401610ed3906150a0565b6001600160a01b038116612fdd5760405162461bcd60e51b8152600401610ed3906150e3565b600880546001600160a01b0319166001600160a01b0383169081179091556040519081527f5a78287a942b8ea0da8734a4eb919df11e564cc48301ffcb582dc8612d98208f9060200161115e565b3360009081526014602052604090205460ff1661305a5760405162461bcd60e51b8152600401610ed3906150a0565b6013805460ff1916911515919091179055565b6012805461257090615066565b6008546001600160a01b031633146130a45760405162461bcd60e51b8152600401610ed39061535b565b600c55565b3360009081526014602052604090205460ff166130d85760405162461bcd60e51b8152600401610ed3906150a0565b611c078585858585613626565b3360009081526014602052604090205460ff166131145760405162461bcd60e51b8152600401610ed3906150a0565b6001600160a01b03811661313a5760405162461bcd60e51b8152600401610ed3906150e3565b6001600160a01b03811660009081526015602052604090205460ff16156131a35760405162461bcd60e51b815260206004820152601c60248201527f4164647265737320697320616c726561647920616e206f776e65722e000000006044820152606401610ed3565b6001600160a01b03166000908152601560205260409020805460ff19166001179055565b6131cf613af2565b6001600160a01b0381166132345760405162461bcd60e51b815260206004820152602660248201527f4f776e61626c653a206e6577206f776e657220697320746865207a65726f206160448201526564647265737360d01b6064820152608401610ed3565b611c5781613b4c565b3360009081526014602052604090205460ff1661326c5760405162461bcd60e51b8152600401610ed3906150a0565b601380549115156101000261ff0019909216919091179055565b60006001600160e01b03198216632483248360e11b14806109e357506109e382613ea7565b6000818152600260205260409020546001600160a01b0316611c575760405162461bcd60e51b8152602060048201526018602482015277115490cdcc8c4e881a5b9d985b1a59081d1bdad95b88125160421b6044820152606401610ed3565b600081815260046020526040902080546001600160a01b0319166001600160a01b038416908117909155819061333f82611da5565b6001600160a01b03167f8c5be1e5ebec7d5bd14f71427d1e84f3dd0314c0f7b2291e5b200ac8c7c3b92560405160405180910390a45050565b60008060006133878585613ef7565b9150915061339481613f3c565b509392505050565b61171e82826040516024016133b29291906155af565b60408051601f198184030181529190526020810180516001600160e01b031663319af33360e01b179052614086565b600a54600081815260166020526040902081815560018101849055600201805461ff00191661010060ff85160217905561341b858261408f565b61342581856140a9565b6001600a6000828254613438919061520a565b90915550505050505050565b60008061345083611da5565b9050806001600160a01b0316846001600160a01b0316148061349757506001600160a01b0380821660009081526005602090815260408083209388168352929052205460ff165b806112585750836001600160a01b03166134b084610e38565b6001600160a01b031614949350505050565b826001600160a01b03166134d582611da5565b6001600160a01b0316146134fb5760405162461bcd60e51b8152600401610ed3906155d9565b6001600160a01b03821661355d5760405162461bcd60e51b8152602060048201526024808201527f4552433732313a207472616e7366657220746f20746865207a65726f206164646044820152637265737360e01b6064820152608401610ed3565b826001600160a01b031661357082611da5565b6001600160a01b0316146135965760405162461bcd60e51b8152600401610ed3906155d9565b600081815260046020908152604080832080546001600160a01b03199081169091556001600160a01b0387811680865260038552838620805460001901905590871680865283862080546001019055868652600290945282852080549092168417909155905184937fddf252ad1be2c89b69c2b068fc378daa952ba7f163c4a11628f55a4df523b3ef91a4505050565b60085460405163d3e6a7ad60e01b8152600481018690526001600160a01b0387811692169063d3e6a7ad90602401602060405180830381865afa158015613671573d6000803e3d6000fd5b505050506040513d601f19601f82011682018060405250810190613695919061561e565b6001600160a01b0316146136eb5760405162461bcd60e51b815260206004820152601760248201527f54686973207061636b206973206e6f7420796f7572732e0000000000000000006044820152606401610ed3565b600f8351106137325760405162461bcd60e51b815260206004820152601360248201527210d85c99081b1a5b5a5d08195e18d959591959606a1b6044820152606401610ed3565b60135460ff161561383e5760006137578686866040516020016111849392919061510d565b9050600061379d84848080601f01602080910402602001604051908101604052809392919081815260200183838082843760009201919091525086939250506133789050565b90506137de6040518060400160405280601a81526020017f6f70656e207061636b207369676e6572207265636f76657265640000000000008152508261339c565b6001600160a01b03811660009081526015602052604090205460ff1661383b5760405162461bcd60e51b815260206004820152601260248201527124b73b30b634b21039b4b3b730ba3ab9329760711b6044820152606401610ed3565b50505b6008546040516380f2540b60e01b8152600481018690526001600160a01b038781166024830152909116906380f2540b90604401600060405180830381600087803b15801561388c57600080fd5b505af11580156138a0573d6000803e3d6000fd5b505050506006600c546138b3919061532e565b600c546138c09190615247565b600d60008282546138d1919061520a565b9091555050825160005b818160ff161015613aa557848160ff16815181106138fb576138fb614fe2565b602002602001015160ff166078146139495761138960176000878460ff168151811061392957613929614fe2565b602002602001015160ff168152602001908152602001600020541061397a565b607860005260176020527f1e0e657bdfc7d3d523657bb82aa6f2c628a4caf6e2f7839556e82479d4362f0654610bb9115b6139c65760405162461bcd60e51b815260206004820152601e60248201527f696e76616c69642063617264496e76656e746f727920706f736974696f6e00006044820152606401610ed3565b60176000868360ff16815181106139df576139df614fe2565b602002602001015160ff1681526020019081526020016000206000815480929190613a0990615342565b90915550506001600160a01b03871660009081526019602052604081208651909190879060ff8516908110613a4057613a40614fe2565b602002602001015160ff1660ff168152602001908152602001600020600081819054906101000a900460ff1680929190613a7990615047565b91906101000a81548160ff021916908360ff160217905550508080613a9d90615047565b9150506138db565b507fbabe8f5e83e93ab103ddf917b4292a19335a5128b3530bedd896a681cdd945e3868587604051613ad99392919061563b565b60405180910390a1505050505050565b611c578161416d565b6007546001600160a01b03163314611fca5760405162461bcd60e51b815260206004820181905260248201527f4f776e61626c653a2063616c6c6572206973206e6f7420746865206f776e65726044820152606401610ed3565b600780546001600160a01b038381166001600160a01b0319831681179093556040519116919082907f8be0079c531659141344cd1fd0a4f28419497f9722a3daafe3b4186f6b6457e090600090a35050565b816001600160a01b0316836001600160a01b031603613bff5760405162461bcd60e51b815260206004820152601960248201527f4552433732313a20617070726f766520746f2063616c6c6572000000000000006044820152606401610ed3565b6001600160a01b03838116600081815260056020908152604080832094871680845294825291829020805460ff191686151590811790915591519182527f17307eab39ab6107e8899845ad3d59bd9653f200f220920489ca2b5937696c31910160405180910390a3505050565b613c778484846134c2565b613c83848484846141ad565b6117615760405162461bcd60e51b8152600401610ed39061566f565b606081600003613cc65750506040805180820190915260018152600360fc1b602082015290565b8160005b8115613cf05780613cda81615342565b9150613ce99050600a8361532e565b9150613cca565b6000816001600160401b03811115613d0a57613d0a6149c5565b6040519080825280601f01601f191660200182016040528015613d34576020820181803683370190505b5090505b841561125857613d49600183615247565b9150613d56600a86615233565b613d6190603061520a565b60f81b818381518110613d7657613d76614fe2565b60200101906001600160f81b031916908160001a905350613d98600a8661532e565b9450613d38565b6060613daa826132ab565b60008281526006602052604081208054613dc390615066565b80601f0160208091040260200160405190810160405280929190818152602001828054613def90615066565b8015613e3c5780601f10613e1157610100808354040283529160200191613e3c565b820191906000526020600020905b815481529060010190602001808311613e1f57829003601f168201915b505050505090506000613e5a60408051602081019091526000815290565b90508051600003613e6c575092915050565b815115613e9e578082604051602001613e869291906156c1565b60405160208183030381529060405292505050919050565b611258846142ab565b60006001600160e01b031982166380ac58cd60e01b1480613ed857506001600160e01b03198216635b5e139f60e01b145b806109e357506301ffc9a760e01b6001600160e01b03198316146109e3565b6000808251604103613f2d5760208301516040840151606085015160001a613f218782858561431f565b94509450505050613f35565b506000905060025b9250929050565b6000816004811115613f5057613f506156f0565b03613f585750565b6001816004811115613f6c57613f6c6156f0565b03613fb95760405162461bcd60e51b815260206004820152601860248201527f45434453413a20696e76616c6964207369676e617475726500000000000000006044820152606401610ed3565b6002816004811115613fcd57613fcd6156f0565b0361401a5760405162461bcd60e51b815260206004820152601f60248201527f45434453413a20696e76616c6964207369676e6174757265206c656e677468006044820152606401610ed3565b600381600481111561402e5761402e6156f0565b03611c575760405162461bcd60e51b815260206004820152602260248201527f45434453413a20696e76616c6964207369676e6174757265202773272076616c604482015261756560f01b6064820152608401610ed3565b611c57816143e3565b61171e828260405180602001604052806000815250614404565b6000828152600260205260409020546001600160a01b03166141245760405162461bcd60e51b815260206004820152602e60248201527f45524337323155524953746f726167653a2055524920736574206f66206e6f6e60448201526d32bc34b9ba32b73a103a37b5b2b760911b6064820152608401610ed3565b600082815260066020526040902061413c8282615413565b506040518281527ff8e1a15aba9398e019f0b49df1a4fde98ee17ae345cb5f6b5e2c27f5033e8ce790602001611715565b61417681614437565b6000818152600660205260409020805461418f90615066565b159050611c57576000818152600660205260408120611c57916147c1565b60006001600160a01b0384163b156142a357604051630a85bd0160e11b81526001600160a01b0385169063150b7a02906141f1903390899088908890600401615706565b6020604051808303816000875af192505050801561422c575060408051601f3d908101601f1916820190925261422991810190615743565b60015b614289573d80801561425a576040519150601f19603f3d011682016040523d82523d6000602084013e61425f565b606091505b5080516000036142815760405162461bcd60e51b8152600401610ed39061566f565b805181602001fd5b6001600160e01b031916630a85bd0160e11b149050611258565b506001611258565b60606142b6826132ab565b60006142cd60408051602081019091526000815290565b905060008151116142ed5760405180602001604052806000815250614318565b806142f7846144cc565b6040516020016143089291906156c1565b6040516020818303038152906040525b9392505050565b6000807f7fffffffffffffffffffffffffffffff5d576e7357a4501ddfe92f46681b20a083111561435657506000905060036143da565b6040805160008082526020820180845289905260ff881692820192909252606081018690526080810185905260019060a0016020604051602081039080840390855afa1580156143aa573d6000803e3d6000fd5b5050604051601f1901519150506001600160a01b0381166143d3576000600192509250506143da565b9150600090505b94509492505050565b60006a636f6e736f6c652e6c6f679050600080835160208501845afa505050565b61440e838361455e565b61441b60008484846141ad565b610f745760405162461bcd60e51b8152600401610ed39061566f565b600061444282611da5565b905061444d82611da5565b600083815260046020908152604080832080546001600160a01b03199081169091556001600160a01b0385168085526003845282852080546000190190558785526002909352818420805490911690555192935084927fddf252ad1be2c89b69c2b068fc378daa952ba7f163c4a11628f55a4df523b3ef908390a45050565b606060006144d9836146e9565b60010190506000816001600160401b038111156144f8576144f86149c5565b6040519080825280601f01601f191660200182016040528015614522576020820181803683370190505b5090508181016020015b600019016f181899199a1a9b1b9c1cb0b131b232b360811b600a86061a8153600a850494508461452c57509392505050565b6001600160a01b0382166145b45760405162461bcd60e51b815260206004820181905260248201527f4552433732313a206d696e7420746f20746865207a65726f20616464726573736044820152606401610ed3565b6000818152600260205260409020546001600160a01b0316156146195760405162461bcd60e51b815260206004820152601c60248201527f4552433732313a20746f6b656e20616c7265616479206d696e746564000000006044820152606401610ed3565b6000818152600260205260409020546001600160a01b03161561467e5760405162461bcd60e51b815260206004820152601c60248201527f4552433732313a20746f6b656e20616c7265616479206d696e746564000000006044820152606401610ed3565b6001600160a01b038216600081815260036020908152604080832080546001019055848352600290915280822080546001600160a01b0319168417905551839291907fddf252ad1be2c89b69c2b068fc378daa952ba7f163c4a11628f55a4df523b3ef908290a45050565b60008072184f03e93ff9f4daa797ed6e38ed64bf6a1f0160401b83106147285772184f03e93ff9f4daa797ed6e38ed64bf6a1f0160401b830492506040015b6d04ee2d6d415b85acef81000000008310614754576d04ee2d6d415b85acef8100000000830492506020015b662386f26fc10000831061477257662386f26fc10000830492506010015b6305f5e100831061478a576305f5e100830492506008015b612710831061479e57612710830492506004015b606483106147b0576064830492506002015b600a83106109e35760010192915050565b5080546147cd90615066565b6000825580601f106147dd575050565b601f016020900490600052602060002090810190611c5791905b8082111561480b57600081556001016147f7565b5090565b6001600160e01b031981168114611c5757600080fd5b60006020828403121561483757600080fd5b81356143188161480f565b6001600160a01b0381168114611c5757600080fd5b60006020828403121561486957600080fd5b813561431881614842565b600081518084526020808501945080840160005b838110156148a757815160ff1687529582019590820190600101614888565b509495945050505050565b6060815260006148c56060830186614874565b6020838203818501526148d88287614874565b8481036040860152855180825282870193509082019060005b8181101561490f5784511515835293830193918301916001016148f1565b509098975050505050505050565b60005b83811015614938578181015183820152602001614920565b50506000910152565b6000815180845261495981602086016020860161491d565b601f01601f19169290920160200192915050565b6020815260006143186020830184614941565b60006020828403121561499257600080fd5b5035919050565b600080604083850312156149ac57600080fd5b82356149b781614842565b946020939093013593505050565b634e487b7160e01b600052604160045260246000fd5b604051601f8201601f191681016001600160401b0381118282101715614a0357614a036149c5565b604052919050565b803560ff81168114614a1c57600080fd5b919050565b600082601f830112614a3257600080fd5b813560206001600160401b03821115614a4d57614a4d6149c5565b8160051b614a5c8282016149db565b9283528481018201928281019087851115614a7657600080fd5b83870192505b84831015614a9c57614a8d83614a0b565b82529183019190830190614a7c565b979650505050505050565b60008083601f840112614ab957600080fd5b5081356001600160401b03811115614ad057600080fd5b602083019150836020828501011115613f3557600080fd5b60008060008060608587031215614afe57600080fd5b8435935060208501356001600160401b0380821115614b1c57600080fd5b614b2888838901614a21565b94506040870135915080821115614b3e57600080fd5b50614b4b87828801614aa7565b95989497509550505050565b60008060408385031215614b6a57600080fd5b8235614b7581614842565b9150614b8360208401614a0b565b90509250929050565b60008083601f840112614b9e57600080fd5b5081356001600160401b03811115614bb557600080fd5b6020830191508360208260051b8501011115613f3557600080fd5b60008060208385031215614be357600080fd5b82356001600160401b03811115614bf957600080fd5b614c0585828601614b8c565b90969095509350505050565b600080600060608486031215614c2657600080fd5b8335614c3181614842565b92506020840135614c4181614842565b929592945050506040919091013590565b600080600060608486031215614c6757600080fd5b8335614c7281614842565b92506020840135915060408401356001600160401b03811115614c9457600080fd5b614ca086828701614a21565b9150509250925092565b8015158114611c5757600080fd5b600060208284031215614cca57600080fd5b813561431881614caa565b60006001600160401b03831115614cee57614cee6149c5565b614d01601f8401601f19166020016149db565b9050828152838383011115614d1557600080fd5b828260208301376000602084830101529392505050565b600082601f830112614d3d57600080fd5b61431883833560208501614cd5565b60008060408385031215614d5f57600080fd5b82356001600160401b0380821115614d7657600080fd5b614d8286838701614d2c565b93506020850135915080821115614d9857600080fd5b50614da585828601614d2c565b9150509250929050565b600080600060408486031215614dc457600080fd5b8335614dcf81614842565b925060208401356001600160401b03811115614dea57600080fd5b614df686828701614b8c565b9497909650939450505050565b60008060408385031215614e1657600080fd5b8235614e2181614842565b91506020830135614e3181614caa565b809150509250929050565b60008060008060808587031215614e5257600080fd5b8435614e5d81614842565b9350614e6b60208601614a0b565b92506040850135614e7b81614842565b9150614e8960608601614a0b565b905092959194509250565b60008060008060808587031215614eaa57600080fd5b8435614eb581614842565b93506020850135614ec581614842565b92506040850135915060608501356001600160401b03811115614ee757600080fd5b8501601f81018713614ef857600080fd5b614f0787823560208401614cd5565b91505092959194509250565b600060208284031215614f2557600080fd5b61431882614a0b565b600080600080600060808688031215614f4657600080fd5b8535614f5181614842565b94506020860135935060408601356001600160401b0380821115614f7457600080fd5b614f8089838a01614a21565b94506060880135915080821115614f9657600080fd5b50614fa388828901614aa7565b969995985093965092949392505050565b60008060408385031215614fc757600080fd5b8235614fd281614842565b91506020830135614e3181614842565b634e487b7160e01b600052603260045260246000fd5b6001600160a01b0392909216825260ff16602082015260400190565b60006020828403121561502657600080fd5b815161431881614caa565b634e487b7160e01b600052601160045260246000fd5b600060ff821660ff810361505d5761505d615031565b60010192915050565b600181811c9082168061507a57607f821691505b60208210810361509a57634e487b7160e01b600052602260045260246000fd5b50919050565b60208082526023908201527f4f6e6c79206f776e6572732063616e2063616c6c20746869732066756e63746960408201526237b71760e91b606082015260800190565b60208082526010908201526f24b73b30b634b21030b2323932b9b99760811b604082015260600190565b6bffffffffffffffffffffffff198460601b1681528260148201526000603482018351602080860160005b8381101561515757815160ff1685529382019390820190600101615138565b50507f30786631644437313839356534396231353633363933393639646535303839388352693139376344463334383160b01b9083015250602a0195945050505050565b60208082526032908201527f4f6e6c792067616d6d61206f666665727320636f6e74726163742063616e206360408201527130b636103a3434b990333ab731ba34b7b71760711b606082015260800190565b600060ff82168061520057615200615031565b6000190192915050565b808201808211156109e3576109e3615031565b634e487b7160e01b600052601260045260246000fd5b6000826152425761524261521d565b500690565b818103818111156109e3576109e3615031565b6020808252602d908201527f4552433732313a2063616c6c6572206973206e6f7420746f6b656e206f776e6560408201526c1c881bdc88185c1c1c9bdd9959609a1b606082015260800190565b6020808252601c908201527f596f7520646f6573206e6f742068617665207468697320636172642e00000000604082015260600190565b60208082526030908201527f5468697320636172642068617320616e206f666665722c2069742063616e6e6f60408201526f3a103132903a3930b739b332b932b21760811b606082015260800190565b60008261533d5761533d61521d565b500490565b60006001820161535457615354615031565b5060010190565b60208082526031908201527f4f6e6c792067616d6d61207061636b7320636f6e74726163742063616e2063616040820152703636103a3434b990333ab731ba34b7b71760791b606082015260800190565b6000602082840312156153be57600080fd5b5051919050565b601f821115610f7457600081815260208120601f850160051c810160208610156153ec5750805b601f850160051c820191505b8181101561540b578281556001016153f8565b505050505050565b81516001600160401b0381111561542c5761542c6149c5565b6154408161543a8454615066565b846153c5565b602080601f831160018114615475576000841561545d5750858301515b600019600386901b1c1916600185901b17855561540b565b600085815260208120601f198616915b828110156154a457888601518255948401946001909101908401615485565b50858210156154c25787850151600019600388901b60f8161c191681555b5050505050600190811b01905550565b6040815260006154e56040830185614941565b82810360208401526154f78185614941565b95945050505050565b600080865461550e81615066565b60018281168015615526576001811461553b5761556a565b60ff198416875282151583028701945061556a565b8a60005260208060002060005b858110156155615781548a820152908401908201615548565b50505082870194505b50505050855161557e818360208a0161491d565b855191019061559181836020890161491d565b84519101906155a481836020880161491d565b019695505050505050565b6040815260006155c26040830185614941565b905060018060a01b03831660208301529392505050565b60208082526025908201527f4552433732313a207472616e736665722066726f6d20696e636f72726563742060408201526437bbb732b960d91b606082015260800190565b60006020828403121561563057600080fd5b815161431881614842565b6001600160a01b038416815260606020820181905260009061565f90830185614874565b9050826040830152949350505050565b60208082526032908201527f4552433732313a207472616e7366657220746f206e6f6e20455243373231526560408201527131b2b4bb32b91034b6b83632b6b2b73a32b960711b606082015260800190565b600083516156d381846020880161491d565b8351908301906156e781836020880161491d565b01949350505050565b634e487b7160e01b600052602160045260246000fd5b6001600160a01b038581168252841660208201526040810183905260806060820181905260009061573990830184614941565b9695505050505050565b60006020828403121561575557600080fd5b81516143188161480f56fea2646970667358221220f7a6750055a0ec5457090cf7c9c5ade59ebf2fbde742e9b1e34b0d6175f7c4cd64736f6c63430008140033",
  "linkReferences": {},
  "deployedLinkReferences": {}
}