{
  "_format": "hh-sol-artifact-1",
  "contractName": "NofGammaCardsV5",
  "sourceName": "contracts/gamma/GammaCards.v5.sol",
  "abi": [
    {
      "inputs": [],
      "stateMutability": "nonpayable",
      "type": "constructor"
    },
    {
      "anonymous": false,
      "inputs": [
        {
          "indexed": false,
          "internalType": "address",
          "name": "player",
          "type": "address"
        },
        {
          "indexed": false,
          "internalType": "uint8",
          "name": "albumClass",
          "type": "uint8"
        }
      ],
      "name": "AlbumCompleted",
      "type": "event"
    },
    {
      "anonymous": false,
      "inputs": [
        {
          "indexed": true,
          "internalType": "address",
          "name": "owner",
          "type": "address"
        },
        {
          "indexed": true,
          "internalType": "address",
          "name": "approved",
          "type": "address"
        },
        {
          "indexed": true,
          "internalType": "uint256",
          "name": "tokenId",
          "type": "uint256"
        }
      ],
      "name": "Approval",
      "type": "event"
    },
    {
      "anonymous": false,
      "inputs": [
        {
          "indexed": true,
          "internalType": "address",
          "name": "owner",
          "type": "address"
        },
        {
          "indexed": true,
          "internalType": "address",
          "name": "operator",
          "type": "address"
        },
        {
          "indexed": false,
          "internalType": "bool",
          "name": "approved",
          "type": "bool"
        }
      ],
      "name": "ApprovalForAll",
      "type": "event"
    },
    {
      "anonymous": false,
      "inputs": [
        {
          "indexed": false,
          "internalType": "uint256",
          "name": "_fromTokenId",
          "type": "uint256"
        },
        {
          "indexed": false,
          "internalType": "uint256",
          "name": "_toTokenId",
          "type": "uint256"
        }
      ],
      "name": "BatchMetadataUpdate",
      "type": "event"
    },
    {
      "anonymous": false,
      "inputs": [
        {
          "indexed": false,
          "internalType": "address",
          "name": "player",
          "type": "address"
        },
        {
          "indexed": false,
          "internalType": "uint256",
          "name": "cardTokenId",
          "type": "uint256"
        },
        {
          "indexed": false,
          "internalType": "uint256",
          "name": "albumTokenId",
          "type": "uint256"
        }
      ],
      "name": "CardPasted",
      "type": "event"
    },
    {
      "anonymous": false,
      "inputs": [
        {
          "indexed": false,
          "internalType": "address",
          "name": "from",
          "type": "address"
        },
        {
          "indexed": false,
          "internalType": "address",
          "name": "to",
          "type": "address"
        },
        {
          "indexed": false,
          "internalType": "uint8",
          "name": "cardNumber",
          "type": "uint8"
        }
      ],
      "name": "CardTransfered",
      "type": "event"
    },
    {
      "anonymous": false,
      "inputs": [
        {
          "indexed": false,
          "internalType": "address",
          "name": "user",
          "type": "address"
        },
        {
          "indexed": false,
          "internalType": "uint8[]",
          "name": "cardsNumber",
          "type": "uint8[]"
        }
      ],
      "name": "CardsBurned",
      "type": "event"
    },
    {
      "anonymous": false,
      "inputs": [
        {
          "indexed": false,
          "internalType": "address",
          "name": "from",
          "type": "address"
        },
        {
          "indexed": false,
          "internalType": "address",
          "name": "to",
          "type": "address"
        },
        {
          "indexed": false,
          "internalType": "uint8[]",
          "name": "cardNumber",
          "type": "uint8[]"
        }
      ],
      "name": "CardsTransfered",
      "type": "event"
    },
    {
      "anonymous": false,
      "inputs": [
        {
          "indexed": false,
          "internalType": "address",
          "name": "receiver",
          "type": "address"
        },
        {
          "indexed": false,
          "internalType": "uint256",
          "name": "amount",
          "type": "uint256"
        }
      ],
      "name": "EmergencyWithdrawal",
      "type": "event"
    },
    {
      "anonymous": false,
      "inputs": [
        {
          "indexed": false,
          "internalType": "uint256",
          "name": "_tokenId",
          "type": "uint256"
        }
      ],
      "name": "MetadataUpdate",
      "type": "event"
    },
    {
      "anonymous": false,
      "inputs": [
        {
          "indexed": false,
          "internalType": "address",
          "name": "newGammaOffersContract",
          "type": "address"
        }
      ],
      "name": "NewGammaOffersContract",
      "type": "event"
    },
    {
      "anonymous": false,
      "inputs": [
        {
          "indexed": false,
          "internalType": "address",
          "name": "newGammaPacksContract",
          "type": "address"
        }
      ],
      "name": "NewGammaPacksContract",
      "type": "event"
    },
    {
      "anonymous": false,
      "inputs": [
        {
          "indexed": false,
          "internalType": "address",
          "name": "newGammaTicketContract",
          "type": "address"
        }
      ],
      "name": "NewGammaTicketsContract",
      "type": "event"
    },
    {
      "anonymous": false,
      "inputs": [
        {
          "indexed": false,
          "internalType": "address",
          "name": "newSigner",
          "type": "address"
        }
      ],
      "name": "NewSigner",
      "type": "event"
    },
    {
      "anonymous": false,
      "inputs": [
        {
          "indexed": false,
          "internalType": "string",
          "name": "newMainUri",
          "type": "string"
        },
        {
          "indexed": false,
          "internalType": "string",
          "name": "newSecondaryUri",
          "type": "string"
        }
      ],
      "name": "NewUris",
      "type": "event"
    },
    {
      "anonymous": false,
      "inputs": [
        {
          "indexed": false,
          "internalType": "address",
          "name": "from",
          "type": "address"
        },
        {
          "indexed": false,
          "internalType": "address",
          "name": "to",
          "type": "address"
        },
        {
          "indexed": false,
          "internalType": "uint8",
          "name": "cardNumberFrom",
          "type": "uint8"
        },
        {
          "indexed": false,
          "internalType": "uint8",
          "name": "cardNumberTo",
          "type": "uint8"
        }
      ],
      "name": "OfferCardsExchanged",
      "type": "event"
    },
    {
      "anonymous": false,
      "inputs": [
        {
          "indexed": true,
          "internalType": "address",
          "name": "previousOwner",
          "type": "address"
        },
        {
          "indexed": true,
          "internalType": "address",
          "name": "newOwner",
          "type": "address"
        }
      ],
      "name": "OwnershipTransferred",
      "type": "event"
    },
    {
      "anonymous": false,
      "inputs": [
        {
          "indexed": false,
          "internalType": "address",
          "name": "player",
          "type": "address"
        },
        {
          "indexed": false,
          "internalType": "uint8[]",
          "name": "packData",
          "type": "uint8[]"
        },
        {
          "indexed": false,
          "internalType": "uint256",
          "name": "packNumber",
          "type": "uint256"
        }
      ],
      "name": "PackOpened",
      "type": "event"
    },
    {
      "anonymous": false,
      "inputs": [
        {
          "indexed": true,
          "internalType": "address",
          "name": "from",
          "type": "address"
        },
        {
          "indexed": true,
          "internalType": "address",
          "name": "to",
          "type": "address"
        },
        {
          "indexed": true,
          "internalType": "uint256",
          "name": "tokenId",
          "type": "uint256"
        }
      ],
      "name": "Transfer",
      "type": "event"
    },
    {
      "inputs": [],
      "name": "DAI_TOKEN",
      "outputs": [
        {
          "internalType": "address",
          "name": "",
          "type": "address"
        }
      ],
      "stateMutability": "view",
      "type": "function"
    },
    {
      "inputs": [],
      "name": "_tokenIdCounter",
      "outputs": [
        {
          "internalType": "uint256",
          "name": "",
          "type": "uint256"
        }
      ],
      "stateMutability": "view",
      "type": "function"
    },
    {
      "inputs": [
        {
          "internalType": "address",
          "name": "_newOwner",
          "type": "address"
        }
      ],
      "name": "addOwner",
      "outputs": [],
      "stateMutability": "nonpayable",
      "type": "function"
    },
    {
      "inputs": [
        {
          "internalType": "address",
          "name": "_newSigner",
          "type": "address"
        }
      ],
      "name": "addSigner",
      "outputs": [],
      "stateMutability": "nonpayable",
      "type": "function"
    },
    {
      "inputs": [
        {
          "internalType": "address",
          "name": "to",
          "type": "address"
        },
        {
          "internalType": "uint256",
          "name": "tokenId",
          "type": "uint256"
        }
      ],
      "name": "approve",
      "outputs": [],
      "stateMutability": "nonpayable",
      "type": "function"
    },
    {
      "inputs": [
        {
          "internalType": "address",
          "name": "owner",
          "type": "address"
        }
      ],
      "name": "balanceOf",
      "outputs": [
        {
          "internalType": "uint256",
          "name": "",
          "type": "uint256"
        }
      ],
      "stateMutability": "view",
      "type": "function"
    },
    {
      "inputs": [],
      "name": "baseUri",
      "outputs": [
        {
          "internalType": "string",
          "name": "",
          "type": "string"
        }
      ],
      "stateMutability": "view",
      "type": "function"
    },
    {
      "inputs": [
        {
          "internalType": "uint256",
          "name": "tokenId",
          "type": "uint256"
        }
      ],
      "name": "burn",
      "outputs": [],
      "stateMutability": "nonpayable",
      "type": "function"
    },
    {
      "inputs": [
        {
          "internalType": "uint8[]",
          "name": "cardNumbers",
          "type": "uint8[]"
        }
      ],
      "name": "burnCards",
      "outputs": [],
      "stateMutability": "nonpayable",
      "type": "function"
    },
    {
      "inputs": [
        {
          "internalType": "address",
          "name": "user",
          "type": "address"
        }
      ],
      "name": "burnedCards",
      "outputs": [
        {
          "internalType": "uint256",
          "name": "amount",
          "type": "uint256"
        }
      ],
      "stateMutability": "view",
      "type": "function"
    },
    {
      "inputs": [
        {
          "internalType": "uint256",
          "name": "tokenId",
          "type": "uint256"
        }
      ],
      "name": "cards",
      "outputs": [
        {
          "internalType": "uint256",
          "name": "tokenId",
          "type": "uint256"
        },
        {
          "internalType": "uint256",
          "name": "number",
          "type": "uint256"
        },
        {
          "internalType": "bool",
          "name": "pasted",
          "type": "bool"
        },
        {
          "internalType": "uint8",
          "name": "class",
          "type": "uint8"
        },
        {
          "internalType": "uint256",
          "name": "completion",
          "type": "uint256"
        }
      ],
      "stateMutability": "view",
      "type": "function"
    },
    {
      "inputs": [
        {
          "internalType": "address",
          "name": "user",
          "type": "address"
        },
        {
          "internalType": "uint8",
          "name": "cardNumber",
          "type": "uint8"
        }
      ],
      "name": "cardsByUser",
      "outputs": [
        {
          "internalType": "uint8",
          "name": "amount",
          "type": "uint8"
        }
      ],
      "stateMutability": "view",
      "type": "function"
    },
    {
      "inputs": [
        {
          "internalType": "uint256",
          "name": "cardNumber",
          "type": "uint256"
        }
      ],
      "name": "cardsInventory",
      "outputs": [
        {
          "internalType": "uint256",
          "name": "amount",
          "type": "uint256"
        }
      ],
      "stateMutability": "view",
      "type": "function"
    },
    {
      "inputs": [
        {
          "internalType": "uint8",
          "name": "_maxPacksToOpenAtOnce",
          "type": "uint8"
        }
      ],
      "name": "changeMaxPacksToOpenAtOnce",
      "outputs": [],
      "stateMutability": "nonpayable",
      "type": "function"
    },
    {
      "inputs": [
        {
          "internalType": "uint256",
          "name": "newPackPrice",
          "type": "uint256"
        }
      ],
      "name": "changePackPrice",
      "outputs": [],
      "stateMutability": "nonpayable",
      "type": "function"
    },
    {
      "inputs": [
        {
          "internalType": "bool",
          "name": "required",
          "type": "bool"
        }
      ],
      "name": "changeRequireOfferValidationInMint",
      "outputs": [],
      "stateMutability": "nonpayable",
      "type": "function"
    },
    {
      "inputs": [
        {
          "internalType": "bool",
          "name": "required",
          "type": "bool"
        }
      ],
      "name": "changeRequireOfferValidationInTransfer",
      "outputs": [],
      "stateMutability": "nonpayable",
      "type": "function"
    },
    {
      "inputs": [
        {
          "internalType": "bool",
          "name": "required",
          "type": "bool"
        }
      ],
      "name": "changeRequireOpenPackSignerValidation",
      "outputs": [],
      "stateMutability": "nonpayable",
      "type": "function"
    },
    {
      "inputs": [
        {
          "internalType": "uint256",
          "name": "amount",
          "type": "uint256"
        }
      ],
      "name": "emergencyWithdraw",
      "outputs": [],
      "stateMutability": "nonpayable",
      "type": "function"
    },
    {
      "inputs": [
        {
          "internalType": "address",
          "name": "from",
          "type": "address"
        },
        {
          "internalType": "uint8",
          "name": "cardNumberFrom",
          "type": "uint8"
        },
        {
          "internalType": "address",
          "name": "to",
          "type": "address"
        },
        {
          "internalType": "uint8",
          "name": "cardNumberTo",
          "type": "uint8"
        }
      ],
      "name": "exchangeCardsOffer",
      "outputs": [],
      "stateMutability": "nonpayable",
      "type": "function"
    },
    {
      "inputs": [],
      "name": "finishAlbum",
      "outputs": [
        {
          "internalType": "bool",
          "name": "",
          "type": "bool"
        }
      ],
      "stateMutability": "nonpayable",
      "type": "function"
    },
    {
      "inputs": [],
      "name": "gammaOffersContract",
      "outputs": [
        {
          "internalType": "contract IgammaOffersContract",
          "name": "",
          "type": "address"
        }
      ],
      "stateMutability": "view",
      "type": "function"
    },
    {
      "inputs": [],
      "name": "gammaPacksContract",
      "outputs": [
        {
          "internalType": "contract IgammaPacksContract",
          "name": "",
          "type": "address"
        }
      ],
      "stateMutability": "view",
      "type": "function"
    },
    {
      "inputs": [],
      "name": "gammaTicketsContract",
      "outputs": [
        {
          "internalType": "contract IgammaTicketsContract",
          "name": "",
          "type": "address"
        }
      ],
      "stateMutability": "view",
      "type": "function"
    },
    {
      "inputs": [
        {
          "internalType": "uint256",
          "name": "tokenId",
          "type": "uint256"
        }
      ],
      "name": "getApproved",
      "outputs": [
        {
          "internalType": "address",
          "name": "",
          "type": "address"
        }
      ],
      "stateMutability": "view",
      "type": "function"
    },
    {
      "inputs": [
        {
          "internalType": "address",
          "name": "user",
          "type": "address"
        }
      ],
      "name": "getBurnedCardQttyByUser",
      "outputs": [
        {
          "internalType": "uint256",
          "name": "",
          "type": "uint256"
        }
      ],
      "stateMutability": "view",
      "type": "function"
    },
    {
      "inputs": [
        {
          "internalType": "address",
          "name": "user",
          "type": "address"
        },
        {
          "internalType": "uint8",
          "name": "cardNum",
          "type": "uint8"
        }
      ],
      "name": "getCardQuantityByUser",
      "outputs": [
        {
          "internalType": "uint8",
          "name": "",
          "type": "uint8"
        }
      ],
      "stateMutability": "view",
      "type": "function"
    },
    {
      "inputs": [
        {
          "internalType": "address",
          "name": "user",
          "type": "address"
        }
      ],
      "name": "getCardsByUser",
      "outputs": [
        {
          "internalType": "uint8[]",
          "name": "",
          "type": "uint8[]"
        },
        {
          "internalType": "uint8[]",
          "name": "",
          "type": "uint8[]"
        },
        {
          "internalType": "bool[]",
          "name": "",
          "type": "bool[]"
        }
      ],
      "stateMutability": "view",
      "type": "function"
    },
    {
      "inputs": [],
      "name": "getLotteryPrize",
      "outputs": [
        {
          "internalType": "uint256",
          "name": "",
          "type": "uint256"
        }
      ],
      "stateMutability": "view",
      "type": "function"
    },
    {
      "inputs": [
        {
          "internalType": "address",
          "name": "user",
          "type": "address"
        },
        {
          "internalType": "uint8",
          "name": "cardNum",
          "type": "uint8"
        }
      ],
      "name": "hasCard",
      "outputs": [
        {
          "internalType": "bool",
          "name": "has",
          "type": "bool"
        }
      ],
      "stateMutability": "view",
      "type": "function"
    },
    {
      "inputs": [
        {
          "internalType": "address",
          "name": "user",
          "type": "address"
        },
        {
          "internalType": "uint8",
          "name": "cardNumber",
          "type": "uint8"
        }
      ],
      "name": "hasCardByOffer",
      "outputs": [
        {
          "internalType": "bool",
          "name": "has",
          "type": "bool"
        }
      ],
      "stateMutability": "view",
      "type": "function"
    },
    {
      "inputs": [
        {
          "internalType": "address",
          "name": "_daiTokenAddress",
          "type": "address"
        },
        {
          "internalType": "address",
          "name": "_gammaPacksContract",
          "type": "address"
        },
        {
          "internalType": "address",
          "name": "_gammaOffersContract",
          "type": "address"
        },
        {
          "internalType": "address",
          "name": "_gammaTicketsContract",
          "type": "address"
        },
        {
          "internalType": "string",
          "name": "_baseUri",
          "type": "string"
        },
        {
          "internalType": "address",
          "name": "_signer",
          "type": "address"
        }
      ],
      "name": "init",
      "outputs": [],
      "stateMutability": "nonpayable",
      "type": "function"
    },
    {
      "inputs": [
        {
          "internalType": "address",
          "name": "owner",
          "type": "address"
        },
        {
          "internalType": "address",
          "name": "operator",
          "type": "address"
        }
      ],
      "name": "isApprovedForAll",
      "outputs": [
        {
          "internalType": "bool",
          "name": "",
          "type": "bool"
        }
      ],
      "stateMutability": "view",
      "type": "function"
    },
    {
      "inputs": [
        {
          "internalType": "address",
          "name": "user",
          "type": "address"
        }
      ],
      "name": "isOwner",
      "outputs": [
        {
          "internalType": "bool",
          "name": "",
          "type": "bool"
        }
      ],
      "stateMutability": "view",
      "type": "function"
    },
    {
      "inputs": [
        {
          "internalType": "address",
          "name": "user",
          "type": "address"
        }
      ],
      "name": "isSigner",
      "outputs": [
        {
          "internalType": "bool",
          "name": "",
          "type": "bool"
        }
      ],
      "stateMutability": "view",
      "type": "function"
    },
    {
      "inputs": [],
      "name": "lotteryPrizePercentage",
      "outputs": [
        {
          "internalType": "uint8",
          "name": "",
          "type": "uint8"
        }
      ],
      "stateMutability": "view",
      "type": "function"
    },
    {
      "inputs": [],
      "name": "mainAlbumPrize",
      "outputs": [
        {
          "internalType": "uint256",
          "name": "",
          "type": "uint256"
        }
      ],
      "stateMutability": "view",
      "type": "function"
    },
    {
      "inputs": [],
      "name": "mainUri",
      "outputs": [
        {
          "internalType": "string",
          "name": "",
          "type": "string"
        }
      ],
      "stateMutability": "view",
      "type": "function"
    },
    {
      "inputs": [],
      "name": "maxPacksToOpenAtOnce",
      "outputs": [
        {
          "internalType": "uint8",
          "name": "",
          "type": "uint8"
        }
      ],
      "stateMutability": "view",
      "type": "function"
    },
    {
      "inputs": [
        {
          "internalType": "uint8",
          "name": "cardNum",
          "type": "uint8"
        }
      ],
      "name": "mintCard",
      "outputs": [],
      "stateMutability": "nonpayable",
      "type": "function"
    },
    {
      "inputs": [],
      "name": "name",
      "outputs": [
        {
          "internalType": "string",
          "name": "",
          "type": "string"
        }
      ],
      "stateMutability": "view",
      "type": "function"
    },
    {
      "inputs": [
        {
          "internalType": "uint256",
          "name": "packNumber",
          "type": "uint256"
        },
        {
          "internalType": "uint8[]",
          "name": "packData",
          "type": "uint8[]"
        },
        {
          "internalType": "bytes",
          "name": "signature",
          "type": "bytes"
        }
      ],
      "name": "openPack",
      "outputs": [],
      "stateMutability": "nonpayable",
      "type": "function"
    },
    {
      "inputs": [
        {
          "internalType": "uint8",
          "name": "packsQuantity",
          "type": "uint8"
        },
        {
          "internalType": "uint256[]",
          "name": "packsNumber",
          "type": "uint256[]"
        },
        {
          "internalType": "uint8[][]",
          "name": "packsData",
          "type": "uint8[][]"
        },
        {
          "internalType": "bytes[]",
          "name": "signatures",
          "type": "bytes[]"
        }
      ],
      "name": "openPacks",
      "outputs": [],
      "stateMutability": "nonpayable",
      "type": "function"
    },
    {
      "inputs": [],
      "name": "owner",
      "outputs": [
        {
          "internalType": "address",
          "name": "",
          "type": "address"
        }
      ],
      "stateMutability": "view",
      "type": "function"
    },
    {
      "inputs": [
        {
          "internalType": "uint256",
          "name": "tokenId",
          "type": "uint256"
        }
      ],
      "name": "ownerOf",
      "outputs": [
        {
          "internalType": "address",
          "name": "",
          "type": "address"
        }
      ],
      "stateMutability": "view",
      "type": "function"
    },
    {
      "inputs": [],
      "name": "packPrice",
      "outputs": [
        {
          "internalType": "uint256",
          "name": "",
          "type": "uint256"
        }
      ],
      "stateMutability": "view",
      "type": "function"
    },
    {
      "inputs": [],
      "name": "prizesBalance",
      "outputs": [
        {
          "internalType": "uint256",
          "name": "",
          "type": "uint256"
        }
      ],
      "stateMutability": "view",
      "type": "function"
    },
    {
      "inputs": [
        {
          "internalType": "address",
          "name": "user",
          "type": "address"
        },
        {
          "internalType": "uint8",
          "name": "cardNumber",
          "type": "uint8"
        }
      ],
      "name": "removeCardByOffer",
      "outputs": [],
      "stateMutability": "nonpayable",
      "type": "function"
    },
    {
      "inputs": [
        {
          "internalType": "address",
          "name": "_ownerToRemove",
          "type": "address"
        }
      ],
      "name": "removeOwner",
      "outputs": [],
      "stateMutability": "nonpayable",
      "type": "function"
    },
    {
      "inputs": [
        {
          "internalType": "address",
          "name": "_signerToRemove",
          "type": "address"
        }
      ],
      "name": "removeSigner",
      "outputs": [],
      "stateMutability": "nonpayable",
      "type": "function"
    },
    {
      "inputs": [],
      "name": "renounceOwnership",
      "outputs": [],
      "stateMutability": "nonpayable",
      "type": "function"
    },
    {
      "inputs": [],
      "name": "requireOfferValidationInMint",
      "outputs": [
        {
          "internalType": "bool",
          "name": "",
          "type": "bool"
        }
      ],
      "stateMutability": "view",
      "type": "function"
    },
    {
      "inputs": [],
      "name": "requireOfferValidationInTransfer",
      "outputs": [
        {
          "internalType": "bool",
          "name": "",
          "type": "bool"
        }
      ],
      "stateMutability": "view",
      "type": "function"
    },
    {
      "inputs": [],
      "name": "requireOpenPackSignerValidation",
      "outputs": [
        {
          "internalType": "bool",
          "name": "",
          "type": "bool"
        }
      ],
      "stateMutability": "view",
      "type": "function"
    },
    {
      "inputs": [
        {
          "internalType": "address",
          "name": "user",
          "type": "address"
        },
        {
          "internalType": "uint8",
          "name": "cardNumber",
          "type": "uint8"
        }
      ],
      "name": "restoreCardByOffer",
      "outputs": [],
      "stateMutability": "nonpayable",
      "type": "function"
    },
    {
      "inputs": [
        {
          "internalType": "address",
          "name": "from",
          "type": "address"
        },
        {
          "internalType": "address",
          "name": "to",
          "type": "address"
        },
        {
          "internalType": "uint256",
          "name": "tokenId",
          "type": "uint256"
        }
      ],
      "name": "safeTransferFrom",
      "outputs": [],
      "stateMutability": "nonpayable",
      "type": "function"
    },
    {
      "inputs": [
        {
          "internalType": "address",
          "name": "from",
          "type": "address"
        },
        {
          "internalType": "address",
          "name": "to",
          "type": "address"
        },
        {
          "internalType": "uint256",
          "name": "tokenId",
          "type": "uint256"
        },
        {
          "internalType": "bytes",
          "name": "data",
          "type": "bytes"
        }
      ],
      "name": "safeTransferFrom",
      "outputs": [],
      "stateMutability": "nonpayable",
      "type": "function"
    },
    {
      "inputs": [],
      "name": "secondaryAlbumPrize",
      "outputs": [
        {
          "internalType": "uint256",
          "name": "",
          "type": "uint256"
        }
      ],
      "stateMutability": "view",
      "type": "function"
    },
    {
      "inputs": [],
      "name": "secondaryUri",
      "outputs": [
        {
          "internalType": "string",
          "name": "",
          "type": "string"
        }
      ],
      "stateMutability": "view",
      "type": "function"
    },
    {
      "inputs": [
        {
          "internalType": "address",
          "name": "operator",
          "type": "address"
        },
        {
          "internalType": "bool",
          "name": "approved",
          "type": "bool"
        }
      ],
      "name": "setApprovalForAll",
      "outputs": [],
      "stateMutability": "nonpayable",
      "type": "function"
    },
    {
      "inputs": [
        {
          "internalType": "address",
          "name": "_gammaOffersContract",
          "type": "address"
        }
      ],
      "name": "setGammaOffersContract",
      "outputs": [],
      "stateMutability": "nonpayable",
      "type": "function"
    },
    {
      "inputs": [
        {
          "internalType": "address",
          "name": "_gammaPacksContract",
          "type": "address"
        }
      ],
      "name": "setGammaPacksContract",
      "outputs": [],
      "stateMutability": "nonpayable",
      "type": "function"
    },
    {
      "inputs": [
        {
          "internalType": "address",
          "name": "_gammaTicketsContract",
          "type": "address"
        }
      ],
      "name": "setGammaTicketsContract",
      "outputs": [],
      "stateMutability": "nonpayable",
      "type": "function"
    },
    {
      "inputs": [
        {
          "internalType": "uint8",
          "name": "amount",
          "type": "uint8"
        }
      ],
      "name": "setLotteryPrizePercentage",
      "outputs": [],
      "stateMutability": "nonpayable",
      "type": "function"
    },
    {
      "inputs": [
        {
          "internalType": "uint256",
          "name": "amount",
          "type": "uint256"
        }
      ],
      "name": "setMainAlbumPrize",
      "outputs": [],
      "stateMutability": "nonpayable",
      "type": "function"
    },
    {
      "inputs": [
        {
          "internalType": "uint256",
          "name": "amount",
          "type": "uint256"
        }
      ],
      "name": "setPrizesBalance",
      "outputs": [],
      "stateMutability": "nonpayable",
      "type": "function"
    },
    {
      "inputs": [
        {
          "internalType": "uint256",
          "name": "amount",
          "type": "uint256"
        }
      ],
      "name": "setSecondaryAlbumPrize",
      "outputs": [],
      "stateMutability": "nonpayable",
      "type": "function"
    },
    {
      "inputs": [
        {
          "internalType": "string",
          "name": "newMainUri",
          "type": "string"
        },
        {
          "internalType": "string",
          "name": "newSecondaryUri",
          "type": "string"
        }
      ],
      "name": "setUris",
      "outputs": [],
      "stateMutability": "nonpayable",
      "type": "function"
    },
    {
      "inputs": [
        {
          "internalType": "bytes4",
          "name": "interfaceId",
          "type": "bytes4"
        }
      ],
      "name": "supportsInterface",
      "outputs": [
        {
          "internalType": "bool",
          "name": "",
          "type": "bool"
        }
      ],
      "stateMutability": "view",
      "type": "function"
    },
    {
      "inputs": [],
      "name": "symbol",
      "outputs": [
        {
          "internalType": "string",
          "name": "",
          "type": "string"
        }
      ],
      "stateMutability": "view",
      "type": "function"
    },
    {
      "inputs": [
        {
          "internalType": "address",
          "name": "user",
          "type": "address"
        }
      ],
      "name": "testAddCards",
      "outputs": [],
      "stateMutability": "nonpayable",
      "type": "function"
    },
    {
      "inputs": [
        {
          "internalType": "address",
          "name": "user",
          "type": "address"
        },
        {
          "internalType": "uint256",
          "name": "packNumber",
          "type": "uint256"
        },
        {
          "internalType": "uint8[]",
          "name": "packData",
          "type": "uint8[]"
        }
      ],
      "name": "testOpenPack",
      "outputs": [],
      "stateMutability": "nonpayable",
      "type": "function"
    },
    {
      "inputs": [
        {
          "internalType": "uint256",
          "name": "tokenId",
          "type": "uint256"
        }
      ],
      "name": "tokenURI",
      "outputs": [
        {
          "internalType": "string",
          "name": "",
          "type": "string"
        }
      ],
      "stateMutability": "view",
      "type": "function"
    },
    {
      "inputs": [
        {
          "internalType": "address",
          "name": "to",
          "type": "address"
        },
        {
          "internalType": "uint8",
          "name": "cardNumber",
          "type": "uint8"
        }
      ],
      "name": "transferCard",
      "outputs": [],
      "stateMutability": "nonpayable",
      "type": "function"
    },
    {
      "inputs": [
        {
          "internalType": "address",
          "name": "to",
          "type": "address"
        },
        {
          "internalType": "uint8[]",
          "name": "cardNumbers",
          "type": "uint8[]"
        }
      ],
      "name": "transferCards",
      "outputs": [],
      "stateMutability": "nonpayable",
      "type": "function"
    },
    {
      "inputs": [
        {
          "internalType": "address",
          "name": "from",
          "type": "address"
        },
        {
          "internalType": "address",
          "name": "to",
          "type": "address"
        },
        {
          "internalType": "uint256",
          "name": "tokenId",
          "type": "uint256"
        }
      ],
      "name": "transferFrom",
      "outputs": [],
      "stateMutability": "nonpayable",
      "type": "function"
    },
    {
      "inputs": [
        {
          "internalType": "address",
          "name": "newOwner",
          "type": "address"
        }
      ],
      "name": "transferOwnership",
      "outputs": [],
      "stateMutability": "nonpayable",
      "type": "function"
    },
    {
      "inputs": [
        {
          "internalType": "uint256",
          "name": "packNumber",
          "type": "uint256"
        },
        {
          "internalType": "uint8[]",
          "name": "packData",
          "type": "uint8[]"
        },
        {
          "internalType": "bytes",
          "name": "signature",
          "type": "bytes"
        }
      ],
      "name": "verifyPackSigner",
      "outputs": [
        {
          "internalType": "address",
          "name": "signer",
          "type": "address"
        }
      ],
      "stateMutability": "view",
      "type": "function"
    }
  ],
  "bytecode": "0x6080604052600f805460ff19908116600a179091556710a741a462780000601255600060135567d02ab486cedc0000601555670de0b6b3a7640000601655601780549091166032179055601a80546201010062ffffff199091161790553480156200006957600080fd5b506040518060400160405280600a81526020016947616d6d61436172647360b01b815250604051806040016040528060068152602001654e4f465f474360d01b8152508160009081620000bd9190620001ea565b506001620000cc8282620001ea565b505050620000e9620000e3620000ef60201b60201c565b620000f3565b620002b6565b3390565b600780546001600160a01b038381166001600160a01b0319831681179093556040519116919082907f8be0079c531659141344cd1fd0a4f28419497f9722a3daafe3b4186f6b6457e090600090a35050565b634e487b7160e01b600052604160045260246000fd5b600181811c908216806200017057607f821691505b6020821081036200019157634e487b7160e01b600052602260045260246000fd5b50919050565b601f821115620001e557600081815260208120601f850160051c81016020861015620001c05750805b601f850160051c820191505b81811015620001e157828155600101620001cc565b5050505b505050565b81516001600160401b0381111562000206576200020662000145565b6200021e816200021784546200015b565b8462000197565b602080601f8311600181146200025657600084156200023d5750858301515b600019600386901b1c1916600185901b178555620001e1565b600085815260208120601f198616915b82811015620002875788860151825594840194600190910190840162000266565b5085821015620002a65787850151600019600388901b60f8161c191681555b5050505050600190811b01905550565b615f7e80620002c66000396000f3fe608060405234801561001057600080fd5b506004361061046a5760003560e01c80637cf86b721161024c578063a419811d11610146578063dbfc05cf116100c3578063e606df8711610087578063e606df8714610a6c578063e985e9c514610a7f578063eb12d61e14610abb578063f2fde38b14610ace578063f98fd28314610ae157600080fd5b8063dbfc05cf14610a22578063ddb975e814610a35578063dec3f6d914610a48578063e1883c6e14610a50578063e5db587a14610a6357600080fd5b8063c3461c071161010a578063c3461c07146109d9578063c87b56dd146109e1578063cafaa473146109f4578063d322b56314610a07578063d780c47714610a1a57600080fd5b8063a419811d1461097a578063ad1684fa1461098d578063b88d4fde146109a0578063ba6c0fbc146109b3578063bf400a6a146109c657600080fd5b80638dc10768116101d45780639abc8320116101985780639abc8320146109305780639c7f707f146109385780639f4415d81461094b578063a1af8ad414610954578063a22cb4651461096757600080fd5b80638dc107681461088f5780639038f41414610901578063915656641461090957806395d89b411461091b578063968841351461092357600080fd5b8063809eb3551161021b578063809eb3551461082157806384c4bd4b1461084f578063886eb60f146108585780638bf670c81461086b5780638da5cb5b1461087e57600080fd5b80637cf86b72146107af5780637de99bd9146107c25780637df73e27146107d55780637e50fa8f1461080157600080fd5b80632ca699e7116103685780635dde20d8116102e557806370a08231116102a957806370a082311461075b578063715018a61461076e5780637155a3ac146107765780637232d7d4146107895780637ce65f7b1461079c57600080fd5b80635dde20d8146106ef5780635e31ce481461070f5780636352211e1461072257806368cc5bc1146107355780637065cb481461074857600080fd5b806342842e0e1161032c57806342842e0e1461069a57806342966c68146106ad578063483823e8146106c0578063511b9307146106c95780635312ea8e146106dc57600080fd5b80632ca699e71461061e5780632f54bf6e146106315780632f9e026a1461065d57806330f5cc5814610670578063335c8b631461068357600080fd5b806314cca36a116103f657806320965a5f116103ba57806320965a5f146105c5578063225a993b146105d857806323b872dd146105e5578063241a08fe146105f8578063267b841d1461060b57600080fd5b806314cca36a14610566578063155e2f92146105795780631585cc4e1461058c578063173825d91461059f578063203335f6146105b257600080fd5b8063081812fc1161043d578063081812fc146104ed578063095ea7b3146105185780630e316ab71461052d578063128916dc146105405780631306952c1461055357600080fd5b806301ffc9a71461046f57806303900270146104975780630435dcaf146104b657806306fdde03146104d8575b600080fd5b61048261047d366004614e25565b610af4565b60405190151581526020015b60405180910390f35b600f546104a49060ff1681565b60405160ff909116815260200161048e565b6104c96104c4366004614e57565b610b05565b60405161048e93929190614eb2565b6104e0610ec2565b60405161048e9190614f6d565b6105006104fb366004614f80565b610f54565b6040516001600160a01b03909116815260200161048e565b61052b610526366004614f99565b610f7b565b005b61052b61053b366004614e57565b611095565b61052b61054e366004614e57565b61113a565b6105006105613660046150b6565b6111e4565b600a54610500906001600160a01b031681565b61052b610587366004615150565b611272565b6104a461059a366004615150565b6112ee565b61052b6105ad366004614e57565b611345565b61052b6105c036600461524f565b6113bb565b61052b6105d3366004615345565b61152a565b6017546104a49060ff1681565b61052b6105f3366004615386565b611b5d565b61052b6106063660046153c7565b611b8f565b61052b6106193660046150b6565b611bd4565b61052b61062c366004615150565b611be1565b61048261063f366004614e57565b6001600160a01b03166000908152600b602052604090205460ff1690565b600854610500906001600160a01b031681565b61052b61067e3660046153e2565b611e55565b61068c60125481565b60405190815260200161048e565b61052b6106a8366004615386565b6120eb565b61052b6106bb366004614f80565b612106565b61068c60165481565b601a546104829062010000900460ff1681565b61052b6106ea366004614f80565b612137565b61068c6106fd366004614f80565b601c6020526000908152604090205481565b61052b61071d366004614f80565b61223e565b610500610730366004614f80565b6122a9565b61052b610743366004615448565b612309565b61052b610756366004614e57565b612354565b61068c610769366004614e57565b6123ca565b61052b612450565b61052b610784366004615150565b612464565b61052b610797366004614f80565b6124c3565b61052b6107aa3660046153c7565b61256d565b61068c6107bd366004614e57565b612618565b61052b6107d03660046154e5565b61265c565b6104826107e3366004614e57565b6001600160a01b03166000908152600e602052604090205460ff1690565b61068c61080f366004614e57565b601d6020526000908152604090205481565b6104a461082f366004615150565b601e60209081526000928352604080842090915290825290205460ff1681565b61068c60105481565b610482610866366004615150565b612823565b610482610879366004615150565b61287c565b6007546001600160a01b0316610500565b6108d161089d366004614f80565b601b6020526000908152604090208054600182015460028301546003909301549192909160ff808316926101009004169085565b6040805195865260208601949094529115159284019290925260ff9091166060830152608082015260a00161048e565b6104826128a9565b601a5461048290610100900460ff1681565b6104e0612d4b565b601a546104829060ff1681565b6104e0612d5a565b61052b61094636600461557f565b612de8565b61068c60155481565b61052b6109623660046155e2565b612e62565b61052b610975366004615636565b6131fd565b61052b610988366004614e57565b61320c565b61052b61099b36600461566f565b6132aa565b61052b6109ae3660046156c7565b6135b5565b61052b6109c1366004614f80565b6135e7565b61052b6109d43660046153c7565b61369c565b6104e0613929565b6104e06109ef366004614f80565b613936565b61052b610a02366004614e57565b613941565b600954610500906001600160a01b031681565b61068c6139e4565b61052b610a30366004615448565b613a0c565b61052b610a43366004614e57565b613a4e565b6104e0613af1565b61052b610a5e366004614f80565b613afe565b61068c60135481565b601154610500906001600160a01b031681565b610482610a8d366004615746565b6001600160a01b03918216600090815260056020908152604080832093909416825291909152205460ff1690565b61052b610ac9366004614e57565b613b54565b61052b610adc366004614e57565b613bca565b61052b610aef366004615448565b613c40565b6000610aff82613c89565b92915050565b60408051607a808252610f608201909252606091829182916000919060208201610f4080368337505060408051607a808252610f608201909252929350600092915060208201610f4080368337505060408051607a808252610f608201909252929350600092915060208201610f40803683370190505090506000805b60798160ff1611610ceb576001600160a01b0389166000908152601e6020908152604080832060ff80861685529252909120541615610cd95780858360ff1681518110610bd157610bd1615774565b60ff9283166020918202929092018101919091526001600160a01b038b166000908152601e82526040808220858516835290925220548551908216918691908516908110610c2157610c21615774565b60ff90921660209283029190910190910152600954604051632edb5fcf60e01b81526001600160a01b0390911690632edb5fcf90610c65908c90859060040161578a565b602060405180830381865afa158015610c82573d6000803e3d6000fd5b505050506040513d601f19601f82011682018060405250810190610ca691906157a6565b838360ff1681518110610cbb57610cbb615774565b9115156020928302919091019091015281610cd5816157d9565b9250505b80610ce3816157d9565b915050610b82565b5060008160ff166001600160401b03811115610d0957610d09614fc5565b604051908082528060200260200182016040528015610d32578160200160208202803683370190505b50905060008260ff166001600160401b03811115610d5257610d52614fc5565b604051908082528060200260200182016040528015610d7b578160200160208202803683370190505b50905060008360ff166001600160401b03811115610d9b57610d9b614fc5565b604051908082528060200260200182016040528015610dc4578160200160208202803683370190505b50905060005b8460ff168160ff161015610eb057878160ff1681518110610ded57610ded615774565b6020026020010151848260ff1681518110610e0a57610e0a615774565b60ff9283166020918202929092010152875188918316908110610e2f57610e2f615774565b6020026020010151838260ff1681518110610e4c57610e4c615774565b60ff9283166020918202929092010152865187918316908110610e7157610e71615774565b6020026020010151828260ff1681518110610e8e57610e8e615774565b9115156020928302919091019091015280610ea8816157d9565b915050610dca565b50919a90995090975095505050505050565b606060008054610ed1906157f8565b80601f0160208091040260200160405190810160405280929190818152602001828054610efd906157f8565b8015610f4a5780601f10610f1f57610100808354040283529160200191610f4a565b820191906000526020600020905b815481529060010190602001808311610f2d57829003601f168201915b5050505050905090565b6000610f5f82613cae565b506000908152600460205260409020546001600160a01b031690565b6000610f86826122a9565b9050806001600160a01b0316836001600160a01b031603610ff85760405162461bcd60e51b815260206004820152602160248201527f4552433732313a20617070726f76616c20746f2063757272656e74206f776e656044820152603960f91b60648201526084015b60405180910390fd5b336001600160a01b038216148061101457506110148133610a8d565b6110865760405162461bcd60e51b815260206004820152603d60248201527f4552433732313a20617070726f76652063616c6c6572206973206e6f7420746f60448201527f6b656e206f776e6572206f7220617070726f76656420666f7220616c6c0000006064820152608401610fef565b6110908383613d0d565b505050565b336000908152600b602052604090205460ff166110c45760405162461bcd60e51b8152600401610fef90615832565b604051630982088f60e41b8152600d60048201526001600160a01b038216602482015273__$2004922c2908b386ae4415e9a8cdeda8c7$__9063982088f0906044015b60006040518083038186803b15801561111f57600080fd5b505af4158015611133573d6000803e3d6000fd5b5050505050565b336000908152600b602052604090205460ff166111695760405162461bcd60e51b8152600401610fef90615832565b6001600160a01b03811661118f5760405162461bcd60e51b8152600401610fef90615858565b600980546001600160a01b0319166001600160a01b0383169081179091556040519081527f538b3425a321783393ad250db10356b8b3523ef29a40de015c5218213de0ead0906020015b60405180910390a150565b6040516338fb7d8b60e01b815260009073__$11abd53fa8ca7bb7b53675cf998674c516$__906338fb7d8b906112269033908990899089908990600401615882565b602060405180830381865af4158015611243573d6000803e3d6000fd5b505050506040513d601f19601f820116820180604052508101906112679190615909565b90505b949350505050565b6009546001600160a01b0316331461129c5760405162461bcd60e51b8152600401610fef90615926565b6001600160a01b0382166000908152601e6020908152604080832060ff8086168552925282208054909116916112d1836157d9565b91906101000a81548160ff021916908360ff160217905550505050565b60006001600160a01b0383166113165760405162461bcd60e51b8152600401610fef90615858565b506001600160a01b03919091166000908152601e6020908152604080832060ff94851684529091529020541690565b336000908152600b602052604090205460ff166113745760405162461bcd60e51b8152600401610fef90615832565b604051632dd92c6960e21b8152600b60048201526001600160a01b038216602482015273__$2004922c2908b386ae4415e9a8cdeda8c7$__9063b764b1a490604401611107565b60008560ff161161141d5760405162461bcd60e51b815260206004820152602660248201527f7061636b73207175616e74697479206d757374206265206772656174657220746044820152653430b710181760d11b6064820152608401610fef565b600f5460ff90811690861611156114955760405162461bcd60e51b815260206004820152603660248201527f7061636b73207175616e74697479206d757374206265206c657373207468616e6044820152751036b0bc1038bab0b73a34ba3c9030b63637bbb2b21760511b6064820152608401610fef565b60005b8560ff168160ff1610156115225761151033868360ff16815181106114bf576114bf615774565b6020026020010151868460ff16815181106114dc576114dc615774565b602002602001015186868660ff168181106114f9576114f9615774565b905060200281019061150b9190615955565b613d7b565b8061151a816157d9565b915050611498565b505050505050565b336000908152601e602090815260408083206079845290915290205460ff166115a15760405162461bcd60e51b8152602060048201526024808201527f596f7520646f6573206e6f74206861766520616e79206275726e696e6720616c604482015263313ab69760e11b6064820152608401610fef565b336000908152601d60205260408120546115bc90839061599b565b90506000603c82106117e157601654601354101561162c5760405162461bcd60e51b815260206004820152602760248201527f496e73756666696369656e742066756e647320286275726e43617264732062616044820152663630b731b2949760c91b6064820152608401610fef565b6011546040516370a0823160e01b81523060048201526000916001600160a01b0316906370a0823190602401602060405180830381865afa158015611675573d6000803e3d6000fd5b505050506040513d601f19601f8201168201806040525081019061169991906159ae565b90506016548110156116ed5760405162461bcd60e51b815260206004820152601e60248201527f496e73756666696369656e742066756e64732028636f6e7472616374292e00006044820152606401610fef565b601154604051636eb1769f60e11b81523360048201523060248201526000916001600160a01b03169063dd62ed3e90604401602060405180830381865afa15801561173c573d6000803e3d6000fd5b505050506040513d601f19601f8201168201806040525081019061176091906159ae565b90506016548110156117da5760405162461bcd60e51b815260206004820152603b60248201527f496e73756666696369656e7420616c6c6f77616e636520746f207472616e736660448201527f6572207072697a6520666f72206275726e696e672063617264732e00000000006064820152608401610fef565b6001925050505b60005b60ff81168411156118ea57336000908152601e6020526040812081878760ff861681811061181457611814615774565b905060200201602081019061182991906153c7565b60ff9081168252602082019290925260400160002054161161185d5760405162461bcd60e51b8152600401610fef906159c7565b336000908152601e6020526040812090868660ff851681811061188257611882615774565b905060200201602081019061189791906153c7565b60ff908116825260208201929092526040016000908120805490921691906118be836159fe565b91906101000a81548160ff021916908360ff1602179055505080806118e2906157d9565b9150506117e4565b50336000908152601d60205260408120805485929061190a90849061599b565b90915550506040517fdbcda3b6d52a6f69c85189ca3f35e5be8a2e3d052fea47f656ff00384b0c47b19061194390339087908790615a51565b60405180910390a18015611b5757336000908152601e60209081526040808320607984529091528120805460ff169161197b836159fe565b91906101000a81548160ff021916908360ff16021790555050611a2c33601980546119a5906157f8565b80601f01602080910402602001604051908101604052809291908181526020018280546119d1906157f8565b8015611a1e5780601f106119f357610100808354040283529160200191611a1e565b820191906000526020600020905b815481529060010190602001808311611a0157829003601f168201915b505050505060796002614221565b60165460136000828254611a409190615a76565b909155505060115460165460405163a9059cbb60e01b815233600482015260248101919091526001600160a01b039091169063a9059cbb906044016020604051808303816000875af1158015611a9a573d6000803e3d6000fd5b505050506040513d601f19601f82011682018060405250810190611abe91906157a6565b50600a5460405163fa8213d360e01b81523360048201526001600160a01b039091169063fa8213d390602401600060405180830381600087803b158015611b0457600080fd5b505af1158015611b18573d6000803e3d6000fd5b505050507f6d0344e2059f835240cb954cce07d4b26f0d0844eecc234f7ee0e292ba80a1aa336002604051611b4e92919061578a565b60405180910390a15b50505050565b611b68335b82614284565b611b845760405162461bcd60e51b8152600401610fef90615a89565b611090838383614302565b336000908152600b602052604090205460ff16611bbe5760405162461bcd60e51b8152600401610fef90615832565b600f805460ff191660ff92909216919091179055565b611b573385858585613d7b565b336000908152601e6020908152604080832060ff808616855292529091205416611c1d5760405162461bcd60e51b8152600401610fef906159c7565b336001600160a01b03831603611c755760405162461bcd60e51b815260206004820152601960248201527f4f776e207472616e73666572206e6f7420616c6c6f7765642e000000000000006044820152606401610fef565b6001600160a01b038216611c9b5760405162461bcd60e51b8152600401610fef90615858565b601a5462010000900460ff1615611d7057600954604051632edb5fcf60e01b81526000916001600160a01b031690632edb5fcf90611cdf903390869060040161578a565b602060405180830381865afa158015611cfc573d6000803e3d6000fd5b505050506040513d601f19601f82011682018060405250810190611d2091906157a6565b336000908152601e6020908152604080832060ff80881685529252909120549192506001911611811580611d515750805b611d6d5760405162461bcd60e51b8152600401610fef90615ad6565b50505b336000908152601e6020908152604080832060ff808616855292528220805490911691611d9c836159fe565b82546101009290920a60ff8181021990931691831602179091556001600160a01b0384166000908152601e602090815260408083208685168452909152812080549092169250611deb836157d9565b82546101009290920a60ff818102199093169183160217909155604080513381526001600160a01b0386166020820152918416908201527f1b6e5f928a38f442936bbdf4696f128a543b8e43730594344a66c028d0b9c3da91506060015b60405180910390a15050565b336000908152600b602052604090205460ff16611e845760405162461bcd60e51b8152600401610fef90615832565b6008546040516380f2540b60e01b8152600481018490526001600160a01b038581166024830152909116906380f2540b90604401600060405180830381600087803b158015611ed257600080fd5b505af1158015611ee6573d6000803e3d6000fd5b505050506006601254611ef99190615b26565b601254611f069190615a76565b60136000828254611f17919061599b565b90915550600090505b81518160ff161015611b5757818160ff1681518110611f4157611f41615774565b602002602001015160ff16607814611f8f57611389601c6000848460ff1681518110611f6f57611f6f615774565b602002602001015160ff1681526020019081526020016000205410611fc0565b6078600052601c6020527f6ec98d8d39cd9309189aa82063f91dfcf737ce38f7d69eacedb0acfc0872981c54610bb9115b61200c5760405162461bcd60e51b815260206004820152601e60248201527f696e76616c69642063617264496e76656e746f727920706f736974696f6e00006044820152606401610fef565b601c6000838360ff168151811061202557612025615774565b602002602001015160ff168152602001908152602001600020600081548092919061204f90615b48565b90915550506001600160a01b0384166000908152601e602052604081208351909190849060ff851690811061208657612086615774565b602002602001015160ff1660ff168152602001908152602001600020600081819054906101000a900460ff16809291906120bf906157d9565b91906101000a81548160ff021916908360ff1602179055505080806120e3906157d9565b915050611f20565b611090838383604051806020016040528060008152506135b5565b61210f33611b62565b61212b5760405162461bcd60e51b8152600401610fef90615a89565b61213481614466565b50565b336000908152600b602052604090205460ff166121665760405162461bcd60e51b8152600401610fef90615832565b80612170306123ca565b101561217b57600080fd5b806013600082825461218d9190615a76565b909155505060115460405163a9059cbb60e01b8152336004820152602481018390526001600160a01b039091169063a9059cbb906044016020604051808303816000875af11580156121e3573d6000803e3d6000fd5b505050506040513d601f19601f8201168201806040525081019061220791906157a6565b5060408051338152602081018390527f23d6711a1d031134a36921253c75aa59e967d38e369ac625992824315e204f2091016111d9565b6008546001600160a01b0316331461228f5760405162461bcd60e51b815260206004820152601460248201527327b7363c903830b1b5b99031b7b73a3930b1ba1760611b6044820152606401610fef565b80601360008282546122a1919061599b565b909155505050565b6000818152600260205260408120546001600160a01b031680610aff5760405162461bcd60e51b8152602060048201526018602482015277115490cdcc8c4e881a5b9d985b1a59081d1bdad95b88125160421b6044820152606401610fef565b336000908152600b602052604090205460ff166123385760405162461bcd60e51b8152600401610fef90615832565b601a8054911515620100000262ff000019909216919091179055565b336000908152600b602052604090205460ff166123835760405162461bcd60e51b8152600401610fef90615832565b604051632d35e2b960e21b8152600b60048201526001600160a01b038216602482015273__$2004922c2908b386ae4415e9a8cdeda8c7$__9063b4d78ae490604401611107565b60006001600160a01b0382166124345760405162461bcd60e51b815260206004820152602960248201527f4552433732313a2061646472657373207a65726f206973206e6f7420612076616044820152683634b21037bbb732b960b91b6064820152608401610fef565b506001600160a01b031660009081526003602052604090205490565b61245861446f565b61246260006144c9565b565b6009546001600160a01b0316331461248e5760405162461bcd60e51b8152600401610fef90615926565b6001600160a01b0382166000908152601e6020908152604080832060ff8086168552925282208054909116916112d1836159fe565b336000908152600b602052604090205460ff166124f25760405162461bcd60e51b8152600401610fef90615832565b600081116125685760405162461bcd60e51b815260206004820152603a60248201527f546865207072697a6520666f7220636f6d706c6574696e672074686520616c6260448201527f756d206d7573742062652067726561746572207468616e20302e0000000000006064820152608401610fef565b601555565b336000908152600b602052604090205460ff1661259c5760405162461bcd60e51b8152600401610fef90615832565b60648160ff1611156126025760405162461bcd60e51b815260206004820152602960248201527f5468652070657263656e74616765206d757374206265206265747765656e20306044820152681030b732101898181760b91b6064820152608401610fef565b6017805460ff191660ff92909216919091179055565b60006001600160a01b0382166126405760405162461bcd60e51b8152600401610fef90615858565b506001600160a01b03166000908152601d602052604090205490565b61266461446f565b336000908152600b60205260409020805460ff19166001179055601180546001600160a01b038881166001600160a01b03199283161790925560088054888416908316179055600a8054868416908316179055600980549287169290911691909117905560146126d48382615ba7565b5060408051808201825260018152602f60f81b60208083019190915282518084018452600381526203132360ec1b8183015283518085018552600681526523173539b7b760d11b8184015293516127319460149493909101615c66565b6040516020818303038152906040526018908161274e9190615ba7565b5060408051808201825260018152602f60f81b60208083019190915282518084018452600381526231323160e81b8183015283518085018552600681526523173539b7b760d11b8184015293516127ab9460149493909101615c66565b604051602081830303815290604052601990816127c89190615ba7565b506001600160a01b0381166000908152600e60205260408120805460ff191660011790555b607a81101561281a576000818152601c60205260409020600190558061281281615b48565b9150506127ed565b50505050505050565b60006001600160a01b03831661284b5760405162461bcd60e51b8152600401610fef90615858565b506001600160a01b03919091166000908152601e6020908152604080832060ff948516845290915290205416151590565b6009546000906001600160a01b0316331461284b5760405162461bcd60e51b8152600401610fef90615926565b336000908152601e602090815260408083206078845290915281205460ff166129145760405162461bcd60e51b815260206004820152601c60248201527f596f7520646f6573206e6f74206861766520616e7920616c62756d2e000000006044820152606401610fef565b60155460135410156129795760405162461bcd60e51b815260206004820152602860248201527f496e73756666696369656e742066756e647320286f70656e2d7061636b73206260448201526730b630b731b2949760c11b6064820152608401610fef565b6011546040516370a0823160e01b81523060048201526000916001600160a01b0316906370a0823190602401602060405180830381865afa1580156129c2573d6000803e3d6000fd5b505050506040513d601f19601f820116820180604052508101906129e691906159ae565b9050601554811015612a3a5760405162461bcd60e51b815260206004820152601e60248201527f496e73756666696369656e742066756e64732028636f6e7472616374292e00006044820152606401610fef565b6000805b60788160ff1611612acf57336000908152601e6020908152604080832060ff80861685529252822054169003612a775760019150612acf565b336000908152601e6020908152604080832060ff808616855292528220805490911691612aa3836159fe565b91906101000a81548160ff021916908360ff160217905550508080612ac7906157d9565b915050612a3e565b508015612b1e5760405162461bcd60e51b815260206004820152601860248201527f4d75737420636f6d706c6574652074686520616c62756d2e00000000000000006044820152606401610fef565b612bb63360188054612b2f906157f8565b80601f0160208091040260200160405190810160405280929190818152602001828054612b5b906157f8565b8015612ba85780601f10612b7d57610100808354040283529160200191612ba8565b820191906000526020600020905b815481529060010190602001808311612b8b57829003601f168201915b505050505060786002614221565b60115460155460405163a9059cbb60e01b815233600482015260248101919091526001600160a01b039091169063a9059cbb906044016020604051808303816000875af1158015612c0b573d6000803e3d6000fd5b505050506040513d601f19601f82011682018060405250810190612c2f91906157a6565b5060155460136000828254612c449190615a76565b9091555050600954604051633f27a03f60e21b81523360048201526000916001600160a01b03169063fc9e80fc906024016020604051808303816000875af1158015612c94573d6000803e3d6000fd5b505050506040513d601f19601f82011682018060405250810190612cb891906157a6565b905080612d075760405162461bcd60e51b815260206004820152601960248201527f43616e6e6f742072656d6f76652075736572206f6666657273000000000000006044820152606401610fef565b7f6d0344e2059f835240cb954cce07d4b26f0d0844eecc234f7ee0e292ba80a1aa336001604051612d3992919061578a565b60405180910390a16001935050505090565b606060018054610ed1906157f8565b60148054612d67906157f8565b80601f0160208091040260200160405190810160405280929190818152602001828054612d93906157f8565b8015612de05780601f10612db557610100808354040283529160200191612de0565b820191906000526020600020905b815481529060010190602001808311612dc357829003601f168201915b505050505081565b336000908152600b602052604090205460ff16612e175760405162461bcd60e51b8152600401610fef90615832565b6018612e238382615ba7565b506019612e308282615ba7565b507fabfd337ac5625b7dc2ddd3d3bd465fb1dec15322eeeed81032268b337880bec68282604051611e49929190615d15565b336001600160a01b03841603612ec55760405162461bcd60e51b815260206004820152602260248201527f596f752063616e6e6f742073656e6420636172647320746f20796f757273656c604482015261331760f11b6064820152608401610fef565b6001600160a01b038316612eeb5760405162461bcd60e51b8152600401610fef90615858565b60005b60ff81168211156131ba57336000908152601e6020526040812081858560ff8616818110612f1e57612f1e615774565b9050602002016020810190612f3391906153c7565b60ff90811682526020820192909252604001600020541611612f675760405162461bcd60e51b8152600401610fef906159c7565b336000908152601e6020526040812090848460ff8516818110612f8c57612f8c615774565b9050602002016020810190612fa191906153c7565b60ff90811682526020820192909252604001600090812080549092169190612fc8836159fe565b91906101000a81548160ff021916908360ff16021790555050601e6000856001600160a01b03166001600160a01b03168152602001908152602001600020600084848460ff1681811061301d5761301d615774565b905060200201602081019061303291906153c7565b60ff90811682526020820192909252604001600090812080549092169190613059836157d9565b91906101000a81548160ff021916908360ff16021790555050601a60029054906101000a900460ff16156131a8576009546000906001600160a01b0316632edb5fcf33868660ff87168181106130b1576130b1615774565b90506020020160208101906130c691906153c7565b6040518363ffffffff1660e01b81526004016130e392919061578a565b602060405180830381865afa158015613100573d6000803e3d6000fd5b505050506040513d601f19601f8201168201806040525081019061312491906157a6565b336000908152601e602052604081209192509060019082878760ff881681811061315057613150615774565b905060200201602081019061316591906153c7565b60ff9081168252602082019290925260400160002054161190508115806131895750805b6131a55760405162461bcd60e51b8152600401610fef90615ad6565b50505b806131b2816157d9565b915050612eee565b507f368eb521419fe880268b0d75c05eaa2da7ae9ccf468be86a848f7054366d2b9b338484846040516131f09493929190615d43565b60405180910390a1505050565b61320833838361451b565b5050565b336000908152600b602052604090205460ff1661323b5760405162461bcd60e51b8152600401610fef90615832565b60005b60798160ff1611613208576001600160a01b0382166000908152601e6020908152604080832060ff80861685529252822080549091169161327e836157d9565b91906101000a81548160ff021916908360ff1602179055505080806132a2906157d9565b91505061323e565b6009546001600160a01b031633146132d45760405162461bcd60e51b8152600401610fef90615926565b6001600160a01b0384166132fa5760405162461bcd60e51b8152600401610fef90615858565b6001600160a01b0382166133205760405162461bcd60e51b8152600401610fef90615858565b6001600160a01b0384166000908152601e6020908152604080832060ff8088168552925290912054166133a45760405162461bcd60e51b815260206004820152602660248201527f55736572202866726f6d2920646f6573206e6f74206861766520636172642028604482015265333937b6949760d11b6064820152608401610fef565b6001600160a01b0382166000908152601e6020908152604080832060ff8086168552925290912054166134245760405162461bcd60e51b815260206004820152602260248201527f557365722028746f2920646f6573206e6f74206861766520636172642028746f604482015261149760f11b6064820152608401610fef565b6001600160a01b0384166000908152601e6020908152604080832060ff808816855292528220805490911691613459836159fe565b82546101009290920a60ff8181021990931691831602179091556001600160a01b0384166000908152601e6020908152604080832088851684529091528120805490921692506134a8836157d9565b82546101009290920a60ff8181021990931691831602179091556001600160a01b0384166000908152601e6020908152604080832086851684529091528120805490921692506134f7836159fe565b82546101009290920a60ff8181021990931691831602179091556001600160a01b0386166000908152601e602090815260408083208685168452909152812080549092169250613546836157d9565b82546101009290920a60ff818102199093169183160217909155604080516001600160a01b038881168252861660208201528683169181019190915290831660608201527f52819375a02768cb5083d7b729260c6db2309fcb5c9161201ada89d30d00d5249150608001611b4e565b6135bf3383614284565b6135db5760405162461bcd60e51b8152600401610fef90615a89565b611b57848484846145e9565b336000908152600b602052604090205460ff166136165760405162461bcd60e51b8152600401610fef90615832565b600081116136975760405162461bcd60e51b815260206004820152604260248201527f546865207072697a6520666f7220636f6d706c6574696e67207468652062757260448201527f6e696e6720616c62756d206d7573742062652067726561746572207468616e20606482015261181760f11b608482015260a401610fef565b601655565b336000908152601e6020908152604080832060ff8086168552925290912054166136d85760405162461bcd60e51b8152600401610fef906159c7565b601a54610100900460ff16156137f157600954604051632edb5fcf60e01b81526000916001600160a01b031690632edb5fcf9061371b903390869060040161578a565b602060405180830381865afa158015613738573d6000803e3d6000fd5b505050506040513d601f19601f8201168201806040525081019061375c91906157a6565b336000908152601e6020908152604080832060ff8088168552925290912054919250600191161181158061378d5750805b6137ee5760405162461bcd60e51b815260206004820152602c60248201527f5468697320636172642068617320616e206f666665722c2069742063616e6e6f60448201526b3a1031329036b4b73a32b21760a11b6064820152608401610fef565b50505b336000908152601e6020908152604080832060ff80861685529252822080549091169161381d836159fe565b91906101000a81548160ff021916908360ff1602179055505060006014604051806040016040528060018152602001602f60f81b8152508360ff1673__$7e24fea74dbc7efffb723a34f6ecd87681$__636900a3ae90916040518263ffffffff1660e01b815260040161389291815260200190565b600060405180830381865af41580156138af573d6000803e3d6000fd5b505050506040513d6000823e601f3d908101601f191682016040526138d79190810190615d7a565b60405180604001604052806005815260200164173539b7b760d91b8152506040516020016139089493929190615c66565b604051602081830303815290604052905061320833828460ff166001614221565b60188054612d67906157f8565b6060610aff8261461c565b336000908152600b602052604090205460ff166139705760405162461bcd60e51b8152600401610fef90615832565b6001600160a01b0381166139965760405162461bcd60e51b8152600401610fef90615858565b600880546001600160a01b0319166001600160a01b0383169081179091556040519081527f5a78287a942b8ea0da8734a4eb919df11e564cc48301ffcb582dc8612d98208f906020016111d9565b6013546017546000916064916139fd919060ff16615de7565b613a079190615b26565b905090565b336000908152600b602052604090205460ff16613a3b5760405162461bcd60e51b8152600401610fef90615832565b601a805460ff1916911515919091179055565b336000908152600b602052604090205460ff16613a7d5760405162461bcd60e51b8152600401610fef90615832565b6001600160a01b038116613aa35760405162461bcd60e51b8152600401610fef90615858565b600a80546001600160a01b0319166001600160a01b0383169081179091556040519081527f563f24d71e856f79bec30e1aa96082a296cd13f0a71cec730a72b719fa0fa202906020016111d9565b60198054612d67906157f8565b6008546001600160a01b03163314613b4f5760405162461bcd60e51b815260206004820152601460248201527327b7363c903830b1b5b99031b7b73a3930b1ba1760611b6044820152606401610fef565b601255565b336000908152600b602052604090205460ff16613b835760405162461bcd60e51b8152600401610fef90615832565b604051633b9db68960e11b8152600d60048201526001600160a01b038216602482015273__$2004922c2908b386ae4415e9a8cdeda8c7$__9063773b6d1290604401611107565b613bd261446f565b6001600160a01b038116613c375760405162461bcd60e51b815260206004820152602660248201527f4f776e61626c653a206e6577206f776e657220697320746865207a65726f206160448201526564647265737360d01b6064820152608401610fef565b612134816144c9565b336000908152600b602052604090205460ff16613c6f5760405162461bcd60e51b8152600401610fef90615832565b601a80549115156101000261ff0019909216919091179055565b60006001600160e01b03198216632483248360e11b1480610aff5750610aff82614724565b6000818152600260205260409020546001600160a01b03166121345760405162461bcd60e51b8152602060048201526018602482015277115490cdcc8c4e881a5b9d985b1a59081d1bdad95b88125160421b6044820152606401610fef565b600081815260046020526040902080546001600160a01b0319166001600160a01b0384169081179091558190613d42826122a9565b6001600160a01b03167f8c5be1e5ebec7d5bd14f71427d1e84f3dd0314c0f7b2291e5b200ac8c7c3b92560405160405180910390a45050565b60085460405163d3e6a7ad60e01b8152600481018690526001600160a01b0387811692169063d3e6a7ad90602401602060405180830381865afa158015613dc6573d6000803e3d6000fd5b505050506040513d601f19601f82011682018060405250810190613dea9190615909565b6001600160a01b031614613e405760405162461bcd60e51b815260206004820152601760248201527f54686973207061636b206973206e6f7420796f7572732e0000000000000000006044820152606401610fef565b600f835110613e875760405162461bcd60e51b815260206004820152601360248201527210d85c99081b1a5b5a5d08195e18d959591959606a1b6044820152606401610fef565b601a5460ff1615613f77576040516338fb7d8b60e01b815260009073__$11abd53fa8ca7bb7b53675cf998674c516$__906338fb7d8b90613ed49033908990899089908990600401615882565b602060405180830381865af4158015613ef1573d6000803e3d6000fd5b505050506040513d601f19601f82011682018060405250810190613f159190615909565b6001600160a01b0381166000908152600e602052604090205490915060ff16613f755760405162461bcd60e51b815260206004820152601260248201527124b73b30b634b21039b4b3b730ba3ab9329760711b6044820152606401610fef565b505b6008546040516380f2540b60e01b8152600481018690526001600160a01b038781166024830152909116906380f2540b90604401600060405180830381600087803b158015613fc557600080fd5b505af1158015613fd9573d6000803e3d6000fd5b505050506006601254613fec9190615b26565b601254613ff99190615a76565b6013600082825461400a919061599b565b90915550600090505b83518160ff1610156141de57838160ff168151811061403457614034615774565b602002602001015160ff1660781461408257611389601c6000868460ff168151811061406257614062615774565b602002602001015160ff16815260200190815260200160002054106140b3565b6078600052601c6020527f6ec98d8d39cd9309189aa82063f91dfcf737ce38f7d69eacedb0acfc0872981c54610bb9115b6140ff5760405162461bcd60e51b815260206004820152601e60248201527f696e76616c69642063617264496e76656e746f727920706f736974696f6e00006044820152606401610fef565b601c6000858360ff168151811061411857614118615774565b602002602001015160ff168152602001908152602001600020600081548092919061414290615b48565b90915550506001600160a01b0386166000908152601e602052604081208551909190869060ff851690811061417957614179615774565b602002602001015160ff1660ff168152602001908152602001600020600081819054906101000a900460ff16809291906141b2906157d9565b91906101000a81548160ff021916908360ff1602179055505080806141d6906157d9565b915050614013565b507fbabe8f5e83e93ab103ddf917b4292a19335a5128b3530bedd896a681cdd945e385848660405161421293929190615dfe565b60405180910390a15050505050565b6010546000818152601b6020526040902081815560018101849055600201805461ff00191661010060ff85160217905561425b8582614774565b614265818561478e565b600160106000828254614278919061599b565b90915550505050505050565b600080614290836122a9565b9050806001600160a01b0316846001600160a01b031614806142d757506001600160a01b0380821660009081526005602090815260408083209388168352929052205460ff165b8061126a5750836001600160a01b03166142f084610f54565b6001600160a01b031614949350505050565b826001600160a01b0316614315826122a9565b6001600160a01b03161461433b5760405162461bcd60e51b8152600401610fef90615e32565b6001600160a01b03821661439d5760405162461bcd60e51b8152602060048201526024808201527f4552433732313a207472616e7366657220746f20746865207a65726f206164646044820152637265737360e01b6064820152608401610fef565b826001600160a01b03166143b0826122a9565b6001600160a01b0316146143d65760405162461bcd60e51b8152600401610fef90615e32565b600081815260046020908152604080832080546001600160a01b03199081169091556001600160a01b0387811680865260038552838620805460001901905590871680865283862080546001019055868652600290945282852080549092168417909155905184937fddf252ad1be2c89b69c2b068fc378daa952ba7f163c4a11628f55a4df523b3ef91a4505050565b61213481614852565b6007546001600160a01b031633146124625760405162461bcd60e51b815260206004820181905260248201527f4f776e61626c653a2063616c6c6572206973206e6f7420746865206f776e65726044820152606401610fef565b600780546001600160a01b038381166001600160a01b0319831681179093556040519116919082907f8be0079c531659141344cd1fd0a4f28419497f9722a3daafe3b4186f6b6457e090600090a35050565b816001600160a01b0316836001600160a01b03160361457c5760405162461bcd60e51b815260206004820152601960248201527f4552433732313a20617070726f766520746f2063616c6c6572000000000000006044820152606401610fef565b6001600160a01b03838116600081815260056020908152604080832094871680845294825291829020805460ff191686151590811790915591519182527f17307eab39ab6107e8899845ad3d59bd9653f200f220920489ca2b5937696c31910160405180910390a3505050565b6145f4848484614302565b61460084848484614892565b611b575760405162461bcd60e51b8152600401610fef90615e77565b606061462782613cae565b60008281526006602052604081208054614640906157f8565b80601f016020809104026020016040519081016040528092919081815260200182805461466c906157f8565b80156146b95780601f1061468e576101008083540402835291602001916146b9565b820191906000526020600020905b81548152906001019060200180831161469c57829003601f168201915b5050505050905060006146d760408051602081019091526000815290565b905080516000036146e9575092915050565b81511561471b578082604051602001614703929190615ec9565b60405160208183030381529060405292505050919050565b61126a84614990565b60006001600160e01b031982166380ac58cd60e01b148061475557506001600160e01b03198216635b5e139f60e01b145b80610aff57506301ffc9a760e01b6001600160e01b0319831614610aff565b613208828260405180602001604052806000815250614a04565b6000828152600260205260409020546001600160a01b03166148095760405162461bcd60e51b815260206004820152602e60248201527f45524337323155524953746f726167653a2055524920736574206f66206e6f6e60448201526d32bc34b9ba32b73a103a37b5b2b760911b6064820152608401610fef565b60008281526006602052604090206148218282615ba7565b506040518281527ff8e1a15aba9398e019f0b49df1a4fde98ee17ae345cb5f6b5e2c27f5033e8ce790602001611e49565b61485b81614a37565b60008181526006602052604090208054614874906157f8565b15905061213457600081815260066020526040812061213491614dc1565b60006001600160a01b0384163b1561498857604051630a85bd0160e11b81526001600160a01b0385169063150b7a02906148d6903390899088908890600401615ef8565b6020604051808303816000875af1925050508015614911575060408051601f3d908101601f1916820190925261490e91810190615f2b565b60015b61496e573d80801561493f576040519150601f19603f3d011682016040523d82523d6000602084013e614944565b606091505b5080516000036149665760405162461bcd60e51b8152600401610fef90615e77565b805181602001fd5b6001600160e01b031916630a85bd0160e11b14905061126a565b50600161126a565b606061499b82613cae565b60006149b260408051602081019091526000815290565b905060008151116149d257604051806020016040528060008152506149fd565b806149dc84614acc565b6040516020016149ed929190615ec9565b6040516020818303038152906040525b9392505050565b614a0e8383614b5e565b614a1b6000848484614892565b6110905760405162461bcd60e51b8152600401610fef90615e77565b6000614a42826122a9565b9050614a4d826122a9565b600083815260046020908152604080832080546001600160a01b03199081169091556001600160a01b0385168085526003845282852080546000190190558785526002909352818420805490911690555192935084927fddf252ad1be2c89b69c2b068fc378daa952ba7f163c4a11628f55a4df523b3ef908390a45050565b60606000614ad983614ce9565b60010190506000816001600160401b03811115614af857614af8614fc5565b6040519080825280601f01601f191660200182016040528015614b22576020820181803683370190505b5090508181016020015b600019016f181899199a1a9b1b9c1cb0b131b232b360811b600a86061a8153600a8504945084614b2c57509392505050565b6001600160a01b038216614bb45760405162461bcd60e51b815260206004820181905260248201527f4552433732313a206d696e7420746f20746865207a65726f20616464726573736044820152606401610fef565b6000818152600260205260409020546001600160a01b031615614c195760405162461bcd60e51b815260206004820152601c60248201527f4552433732313a20746f6b656e20616c7265616479206d696e746564000000006044820152606401610fef565b6000818152600260205260409020546001600160a01b031615614c7e5760405162461bcd60e51b815260206004820152601c60248201527f4552433732313a20746f6b656e20616c7265616479206d696e746564000000006044820152606401610fef565b6001600160a01b038216600081815260036020908152604080832080546001019055848352600290915280822080546001600160a01b0319168417905551839291907fddf252ad1be2c89b69c2b068fc378daa952ba7f163c4a11628f55a4df523b3ef908290a45050565b60008072184f03e93ff9f4daa797ed6e38ed64bf6a1f0160401b8310614d285772184f03e93ff9f4daa797ed6e38ed64bf6a1f0160401b830492506040015b6d04ee2d6d415b85acef81000000008310614d54576d04ee2d6d415b85acef8100000000830492506020015b662386f26fc100008310614d7257662386f26fc10000830492506010015b6305f5e1008310614d8a576305f5e100830492506008015b6127108310614d9e57612710830492506004015b60648310614db0576064830492506002015b600a8310610aff5760010192915050565b508054614dcd906157f8565b6000825580601f10614ddd575050565b601f01602090049060005260206000209081019061213491905b80821115614e0b5760008155600101614df7565b5090565b6001600160e01b03198116811461213457600080fd5b600060208284031215614e3757600080fd5b81356149fd81614e0f565b6001600160a01b038116811461213457600080fd5b600060208284031215614e6957600080fd5b81356149fd81614e42565b600081518084526020808501945080840160005b83811015614ea757815160ff1687529582019590820190600101614e88565b509495945050505050565b606081526000614ec56060830186614e74565b602083820381850152614ed88287614e74565b8481036040860152855180825282870193509082019060005b81811015614f0f578451151583529383019391830191600101614ef1565b509098975050505050505050565b60005b83811015614f38578181015183820152602001614f20565b50506000910152565b60008151808452614f59816020860160208601614f1d565b601f01601f19169290920160200192915050565b6020815260006149fd6020830184614f41565b600060208284031215614f9257600080fd5b5035919050565b60008060408385031215614fac57600080fd5b8235614fb781614e42565b946020939093013593505050565b634e487b7160e01b600052604160045260246000fd5b604051601f8201601f191681016001600160401b038111828210171561500357615003614fc5565b604052919050565b60006001600160401b0382111561502457615024614fc5565b5060051b60200190565b803560ff8116811461503f57600080fd5b919050565b600082601f83011261505557600080fd5b8135602061506a6150658361500b565b614fdb565b82815260059290921b8401810191818101908684111561508957600080fd5b8286015b848110156150ab5761509e8161502e565b835291830191830161508d565b509695505050505050565b600080600080606085870312156150cc57600080fd5b8435935060208501356001600160401b03808211156150ea57600080fd5b6150f688838901615044565b9450604087013591508082111561510c57600080fd5b818701915087601f83011261512057600080fd5b81358181111561512f57600080fd5b88602082850101111561514157600080fd5b95989497505060200194505050565b6000806040838503121561516357600080fd5b823561516e81614e42565b915061517c6020840161502e565b90509250929050565b600082601f83011261519657600080fd5b813560206151a66150658361500b565b82815260059290921b840181019181810190868411156151c557600080fd5b8286015b848110156150ab5780356001600160401b038111156151e85760008081fd5b6151f68986838b0101615044565b8452509183019183016151c9565b60008083601f84011261521657600080fd5b5081356001600160401b0381111561522d57600080fd5b6020830191508360208260051b850101111561524857600080fd5b9250929050565b60008060008060006080868803121561526757600080fd5b6152708661502e565b94506020808701356001600160401b038082111561528d57600080fd5b818901915089601f8301126152a157600080fd5b81356152af6150658261500b565b81815260059190911b8301840190848101908c8311156152ce57600080fd5b938501935b828510156152ec578435825293850193908501906152d3565b98505050604089013592508083111561530457600080fd5b6153108a848b01615185565b9550606089013592508083111561532657600080fd5b505061533488828901615204565b969995985093965092949392505050565b6000806020838503121561535857600080fd5b82356001600160401b0381111561536e57600080fd5b61537a85828601615204565b90969095509350505050565b60008060006060848603121561539b57600080fd5b83356153a681614e42565b925060208401356153b681614e42565b929592945050506040919091013590565b6000602082840312156153d957600080fd5b6149fd8261502e565b6000806000606084860312156153f757600080fd5b833561540281614e42565b92506020840135915060408401356001600160401b0381111561542457600080fd5b61543086828701615044565b9150509250925092565b801515811461213457600080fd5b60006020828403121561545a57600080fd5b81356149fd8161543a565b60006001600160401b0382111561547e5761547e614fc5565b50601f01601f191660200190565b600061549a61506584615465565b90508281528383830111156154ae57600080fd5b828260208301376000602084830101529392505050565b600082601f8301126154d657600080fd5b6149fd8383356020850161548c565b60008060008060008060c087890312156154fe57600080fd5b863561550981614e42565b9550602087013561551981614e42565b9450604087013561552981614e42565b9350606087013561553981614e42565b925060808701356001600160401b0381111561555457600080fd5b61556089828a016154c5565b92505060a087013561557181614e42565b809150509295509295509295565b6000806040838503121561559257600080fd5b82356001600160401b03808211156155a957600080fd5b6155b5868387016154c5565b935060208501359150808211156155cb57600080fd5b506155d8858286016154c5565b9150509250929050565b6000806000604084860312156155f757600080fd5b833561560281614e42565b925060208401356001600160401b0381111561561d57600080fd5b61562986828701615204565b9497909650939450505050565b6000806040838503121561564957600080fd5b823561565481614e42565b915060208301356156648161543a565b809150509250929050565b6000806000806080858703121561568557600080fd5b843561569081614e42565b935061569e6020860161502e565b925060408501356156ae81614e42565b91506156bc6060860161502e565b905092959194509250565b600080600080608085870312156156dd57600080fd5b84356156e881614e42565b935060208501356156f881614e42565b92506040850135915060608501356001600160401b0381111561571a57600080fd5b8501601f8101871361572b57600080fd5b61573a8782356020840161548c565b91505092959194509250565b6000806040838503121561575957600080fd5b823561576481614e42565b9150602083013561566481614e42565b634e487b7160e01b600052603260045260246000fd5b6001600160a01b0392909216825260ff16602082015260400190565b6000602082840312156157b857600080fd5b81516149fd8161543a565b634e487b7160e01b600052601160045260246000fd5b600060ff821660ff81036157ef576157ef6157c3565b60010192915050565b600181811c9082168061580c57607f821691505b60208210810361582c57634e487b7160e01b600052602260045260246000fd5b50919050565b6020808252600c908201526b27b7363c9037bbb732b9399760a11b604082015260600190565b60208082526010908201526f24b73b30b634b21030b2323932b9b99760811b604082015260600190565b6001600160a01b0386168152602080820186905260806040830181905285519083018190526000918681019160a0850190845b818110156158d457845160ff16835293830193918301916001016158b5565b505084810360608601528581528587838301376000818701830152601f909501601f1916909401909301979650505050505050565b60006020828403121561591b57600080fd5b81516149fd81614e42565b60208082526015908201527427b7363c9037b33332b9399031b7b73a3930b1ba1760591b604082015260600190565b6000808335601e1984360301811261596c57600080fd5b8301803591506001600160401b0382111561598657600080fd5b60200191503681900382131561524857600080fd5b80820180821115610aff57610aff6157c3565b6000602082840312156159c057600080fd5b5051919050565b6020808252601c908201527f596f7520646f6573206e6f742068617665207468697320636172642e00000000604082015260600190565b600060ff821680615a1157615a116157c3565b6000190192915050565b8183526000602080850194508260005b85811015614ea75760ff615a3e8361502e565b1687529582019590820190600101615a2b565b6001600160a01b03841681526040602082018190526000906112679083018486615a1b565b81810381811115610aff57610aff6157c3565b6020808252602d908201527f4552433732313a2063616c6c6572206973206e6f7420746f6b656e206f776e6560408201526c1c881bdc88185c1c1c9bdd9959609a1b606082015260800190565b60208082526030908201527f5468697320636172642068617320616e206f666665722c2069742063616e6e6f60408201526f3a103132903a3930b739b332b932b21760811b606082015260800190565b600082615b4357634e487b7160e01b600052601260045260246000fd5b500490565b600060018201615b5a57615b5a6157c3565b5060010190565b601f82111561109057600081815260208120601f850160051c81016020861015615b885750805b601f850160051c820191505b8181101561152257828155600101615b94565b81516001600160401b03811115615bc057615bc0614fc5565b615bd481615bce84546157f8565b84615b61565b602080601f831160018114615c095760008415615bf15750858301515b600019600386901b1c1916600185901b178555611522565b600085815260208120601f198616915b82811015615c3857888601518255948401946001909101908401615c19565b5085821015615c565787850151600019600388901b60f8161c191681555b5050505050600190811b01905550565b6000808654615c74816157f8565b60018281168015615c8c5760018114615ca157615cd0565b60ff1984168752821515830287019450615cd0565b8a60005260208060002060005b85811015615cc75781548a820152908401908201615cae565b50505082870194505b505050508551615ce4818360208a01614f1d565b8551910190615cf7818360208901614f1d565b8451910190615d0a818360208801614f1d565b019695505050505050565b604081526000615d286040830185614f41565b8281036020840152615d3a8185614f41565b95945050505050565b6001600160a01b03858116825284166020820152606060408201819052600090615d709083018486615a1b565b9695505050505050565b600060208284031215615d8c57600080fd5b81516001600160401b03811115615da257600080fd5b8201601f81018413615db357600080fd5b8051615dc161506582615465565b818152856020838501011115615dd657600080fd5b615d3a826020830160208601614f1d565b8082028115828204841417610aff57610aff6157c3565b6001600160a01b0384168152606060208201819052600090615e2290830185614e74565b9050826040830152949350505050565b60208082526025908201527f4552433732313a207472616e736665722066726f6d20696e636f72726563742060408201526437bbb732b960d91b606082015260800190565b60208082526032908201527f4552433732313a207472616e7366657220746f206e6f6e20455243373231526560408201527131b2b4bb32b91034b6b83632b6b2b73a32b960711b606082015260800190565b60008351615edb818460208801614f1d565b835190830190615eef818360208801614f1d565b01949350505050565b6001600160a01b0385811682528416602082015260408101839052608060608201819052600090615d7090830184614f41565b600060208284031215615f3d57600080fd5b81516149fd81614e0f56fea2646970667358221220421aa0240acbe69d4bdfdd2de129acee807b6241dd23780cd13715dc8d57017d64736f6c63430008140033",
  "linkReferences": {
    "contracts/gamma/libs/LibControlMgmt.sol": {
      "LibControlMgmt": [
        {
          "length": 20,
          "start": 5039
        },
        {
          "length": 20,
          "start": 5727
        },
        {
          "length": 20,
          "start": 9838
        },
        {
          "length": 20,
          "start": 15982
        }
      ]
    },
    "contracts/gamma/libs/LibPackVerifier.sol": {
      "LibPackVerifier": [
        {
          "length": 20,
          "start": 5308
        },
        {
          "length": 20,
          "start": 16746
        }
      ]
    },
    "contracts/gamma/libs/LibStringUtils.sol": {
      "LibStringUtils": [
        {
          "length": 20,
          "start": 15136
        }
      ]
    }
  },
  "deployedLinkReferences": {
    "contracts/gamma/libs/LibControlMgmt.sol": {
      "LibControlMgmt": [
        {
          "length": 20,
          "start": 4329
        },
        {
          "length": 20,
          "start": 5017
        },
        {
          "length": 20,
          "start": 9128
        },
        {
          "length": 20,
          "start": 15272
        }
      ]
    },
    "contracts/gamma/libs/LibPackVerifier.sol": {
      "LibPackVerifier": [
        {
          "length": 20,
          "start": 4598
        },
        {
          "length": 20,
          "start": 16036
        }
      ]
    },
    "contracts/gamma/libs/LibStringUtils.sol": {
      "LibStringUtils": [
        {
          "length": 20,
          "start": 14426
        }
      ]
    }
  }
}