{
  "_format": "hh-sol-artifact-1",
  "contractName": "NofGammaCardsV5",
  "sourceName": "contracts/gamma/GammaCards.v5.sol",
  "abi": [
    {
      "inputs": [
        {
          "internalType": "address",
          "name": "_daiTokenAddress",
          "type": "address"
        },
        {
          "internalType": "address",
          "name": "_gammaPacksContract",
          "type": "address"
        },
        {
          "internalType": "string",
          "name": "_baseUri",
          "type": "string"
        },
        {
          "internalType": "address",
          "name": "_signer",
          "type": "address"
        }
      ],
      "stateMutability": "nonpayable",
      "type": "constructor"
    },
    {
      "anonymous": false,
      "inputs": [
        {
          "indexed": false,
          "internalType": "address",
          "name": "player",
          "type": "address"
        },
        {
          "indexed": false,
          "internalType": "uint8",
          "name": "albumClass",
          "type": "uint8"
        }
      ],
      "name": "AlbumCompleted",
      "type": "event"
    },
    {
      "anonymous": false,
      "inputs": [
        {
          "indexed": true,
          "internalType": "address",
          "name": "owner",
          "type": "address"
        },
        {
          "indexed": true,
          "internalType": "address",
          "name": "approved",
          "type": "address"
        },
        {
          "indexed": true,
          "internalType": "uint256",
          "name": "tokenId",
          "type": "uint256"
        }
      ],
      "name": "Approval",
      "type": "event"
    },
    {
      "anonymous": false,
      "inputs": [
        {
          "indexed": true,
          "internalType": "address",
          "name": "owner",
          "type": "address"
        },
        {
          "indexed": true,
          "internalType": "address",
          "name": "operator",
          "type": "address"
        },
        {
          "indexed": false,
          "internalType": "bool",
          "name": "approved",
          "type": "bool"
        }
      ],
      "name": "ApprovalForAll",
      "type": "event"
    },
    {
      "anonymous": false,
      "inputs": [
        {
          "indexed": false,
          "internalType": "uint256",
          "name": "_fromTokenId",
          "type": "uint256"
        },
        {
          "indexed": false,
          "internalType": "uint256",
          "name": "_toTokenId",
          "type": "uint256"
        }
      ],
      "name": "BatchMetadataUpdate",
      "type": "event"
    },
    {
      "anonymous": false,
      "inputs": [
        {
          "indexed": false,
          "internalType": "address",
          "name": "player",
          "type": "address"
        },
        {
          "indexed": false,
          "internalType": "uint256",
          "name": "cardTokenId",
          "type": "uint256"
        },
        {
          "indexed": false,
          "internalType": "uint256",
          "name": "albumTokenId",
          "type": "uint256"
        }
      ],
      "name": "CardPasted",
      "type": "event"
    },
    {
      "anonymous": false,
      "inputs": [
        {
          "indexed": false,
          "internalType": "address",
          "name": "receiver",
          "type": "address"
        },
        {
          "indexed": false,
          "internalType": "uint256",
          "name": "amount",
          "type": "uint256"
        }
      ],
      "name": "EmergencyWithdrawal",
      "type": "event"
    },
    {
      "anonymous": false,
      "inputs": [
        {
          "indexed": false,
          "internalType": "uint256",
          "name": "_tokenId",
          "type": "uint256"
        }
      ],
      "name": "MetadataUpdate",
      "type": "event"
    },
    {
      "anonymous": false,
      "inputs": [
        {
          "indexed": false,
          "internalType": "address",
          "name": "newGammaOffersContract",
          "type": "address"
        }
      ],
      "name": "NewGammaOffersContract",
      "type": "event"
    },
    {
      "anonymous": false,
      "inputs": [
        {
          "indexed": false,
          "internalType": "address",
          "name": "newGammaPacksContract",
          "type": "address"
        }
      ],
      "name": "NewGammaPacksContract",
      "type": "event"
    },
    {
      "anonymous": false,
      "inputs": [
        {
          "indexed": false,
          "internalType": "address",
          "name": "newSigner",
          "type": "address"
        }
      ],
      "name": "NewSigner",
      "type": "event"
    },
    {
      "anonymous": false,
      "inputs": [
        {
          "indexed": false,
          "internalType": "string",
          "name": "newMainUri",
          "type": "string"
        },
        {
          "indexed": false,
          "internalType": "string",
          "name": "newSecondaryUri",
          "type": "string"
        }
      ],
      "name": "NewUris",
      "type": "event"
    },
    {
      "anonymous": false,
      "inputs": [
        {
          "indexed": true,
          "internalType": "address",
          "name": "previousOwner",
          "type": "address"
        },
        {
          "indexed": true,
          "internalType": "address",
          "name": "newOwner",
          "type": "address"
        }
      ],
      "name": "OwnershipTransferred",
      "type": "event"
    },
    {
      "anonymous": false,
      "inputs": [
        {
          "indexed": false,
          "internalType": "address",
          "name": "player",
          "type": "address"
        },
        {
          "indexed": false,
          "internalType": "uint8[]",
          "name": "packData",
          "type": "uint8[]"
        },
        {
          "indexed": false,
          "internalType": "uint256",
          "name": "packNumber",
          "type": "uint256"
        }
      ],
      "name": "PackOpened",
      "type": "event"
    },
    {
      "anonymous": false,
      "inputs": [
        {
          "indexed": true,
          "internalType": "address",
          "name": "from",
          "type": "address"
        },
        {
          "indexed": true,
          "internalType": "address",
          "name": "to",
          "type": "address"
        },
        {
          "indexed": true,
          "internalType": "uint256",
          "name": "tokenId",
          "type": "uint256"
        }
      ],
      "name": "Transfer",
      "type": "event"
    },
    {
      "inputs": [],
      "name": "DAI_TOKEN",
      "outputs": [
        {
          "internalType": "address",
          "name": "",
          "type": "address"
        }
      ],
      "stateMutability": "view",
      "type": "function"
    },
    {
      "inputs": [],
      "name": "_tokenIdCounter",
      "outputs": [
        {
          "internalType": "uint256",
          "name": "",
          "type": "uint256"
        }
      ],
      "stateMutability": "view",
      "type": "function"
    },
    {
      "inputs": [
        {
          "internalType": "address",
          "name": "_newOwner",
          "type": "address"
        }
      ],
      "name": "addOwner",
      "outputs": [],
      "stateMutability": "nonpayable",
      "type": "function"
    },
    {
      "inputs": [
        {
          "internalType": "address",
          "name": "_newSigner",
          "type": "address"
        }
      ],
      "name": "addSigner",
      "outputs": [],
      "stateMutability": "nonpayable",
      "type": "function"
    },
    {
      "inputs": [
        {
          "internalType": "address",
          "name": "to",
          "type": "address"
        },
        {
          "internalType": "uint256",
          "name": "tokenId",
          "type": "uint256"
        }
      ],
      "name": "approve",
      "outputs": [],
      "stateMutability": "nonpayable",
      "type": "function"
    },
    {
      "inputs": [
        {
          "internalType": "address",
          "name": "owner",
          "type": "address"
        }
      ],
      "name": "balanceOf",
      "outputs": [
        {
          "internalType": "uint256",
          "name": "",
          "type": "uint256"
        }
      ],
      "stateMutability": "view",
      "type": "function"
    },
    {
      "inputs": [],
      "name": "baseUri",
      "outputs": [
        {
          "internalType": "string",
          "name": "",
          "type": "string"
        }
      ],
      "stateMutability": "view",
      "type": "function"
    },
    {
      "inputs": [
        {
          "internalType": "uint256",
          "name": "tokenId",
          "type": "uint256"
        }
      ],
      "name": "burn",
      "outputs": [],
      "stateMutability": "nonpayable",
      "type": "function"
    },
    {
      "inputs": [
        {
          "internalType": "uint8[]",
          "name": "cardNumbers",
          "type": "uint8[]"
        }
      ],
      "name": "burnCards",
      "outputs": [],
      "stateMutability": "nonpayable",
      "type": "function"
    },
    {
      "inputs": [
        {
          "internalType": "address",
          "name": "user",
          "type": "address"
        }
      ],
      "name": "burnedCards",
      "outputs": [
        {
          "internalType": "uint256",
          "name": "amount",
          "type": "uint256"
        }
      ],
      "stateMutability": "view",
      "type": "function"
    },
    {
      "inputs": [
        {
          "internalType": "uint256",
          "name": "tokenId",
          "type": "uint256"
        }
      ],
      "name": "cards",
      "outputs": [
        {
          "internalType": "uint256",
          "name": "tokenId",
          "type": "uint256"
        },
        {
          "internalType": "uint256",
          "name": "number",
          "type": "uint256"
        },
        {
          "internalType": "bool",
          "name": "pasted",
          "type": "bool"
        },
        {
          "internalType": "uint8",
          "name": "class",
          "type": "uint8"
        },
        {
          "internalType": "uint256",
          "name": "completion",
          "type": "uint256"
        }
      ],
      "stateMutability": "view",
      "type": "function"
    },
    {
      "inputs": [
        {
          "internalType": "address",
          "name": "user",
          "type": "address"
        },
        {
          "internalType": "uint8",
          "name": "cardNumber",
          "type": "uint8"
        }
      ],
      "name": "cardsByUser",
      "outputs": [
        {
          "internalType": "uint8",
          "name": "amount",
          "type": "uint8"
        }
      ],
      "stateMutability": "view",
      "type": "function"
    },
    {
      "inputs": [
        {
          "internalType": "uint256",
          "name": "cardNumber",
          "type": "uint256"
        }
      ],
      "name": "cardsInventory",
      "outputs": [
        {
          "internalType": "uint256",
          "name": "amount",
          "type": "uint256"
        }
      ],
      "stateMutability": "view",
      "type": "function"
    },
    {
      "inputs": [
        {
          "internalType": "uint256",
          "name": "newPackPrice",
          "type": "uint256"
        }
      ],
      "name": "changePackPrice",
      "outputs": [],
      "stateMutability": "nonpayable",
      "type": "function"
    },
    {
      "inputs": [
        {
          "internalType": "bool",
          "name": "required",
          "type": "bool"
        }
      ],
      "name": "changeRequireOfferValidationInMint",
      "outputs": [],
      "stateMutability": "nonpayable",
      "type": "function"
    },
    {
      "inputs": [
        {
          "internalType": "bool",
          "name": "required",
          "type": "bool"
        }
      ],
      "name": "changeRequireOfferValidationInTransfer",
      "outputs": [],
      "stateMutability": "nonpayable",
      "type": "function"
    },
    {
      "inputs": [
        {
          "internalType": "bool",
          "name": "required",
          "type": "bool"
        }
      ],
      "name": "changeRequireOpenPackSignerValidation",
      "outputs": [],
      "stateMutability": "nonpayable",
      "type": "function"
    },
    {
      "inputs": [
        {
          "internalType": "uint256",
          "name": "amount",
          "type": "uint256"
        }
      ],
      "name": "emergencyWithdraw",
      "outputs": [],
      "stateMutability": "nonpayable",
      "type": "function"
    },
    {
      "inputs": [
        {
          "internalType": "address",
          "name": "from",
          "type": "address"
        },
        {
          "internalType": "uint8",
          "name": "cardNumberFrom",
          "type": "uint8"
        },
        {
          "internalType": "address",
          "name": "to",
          "type": "address"
        },
        {
          "internalType": "uint8",
          "name": "cardNumberTo",
          "type": "uint8"
        }
      ],
      "name": "exchangeCardsOffer",
      "outputs": [],
      "stateMutability": "nonpayable",
      "type": "function"
    },
    {
      "inputs": [],
      "name": "finishAlbum",
      "outputs": [],
      "stateMutability": "nonpayable",
      "type": "function"
    },
    {
      "inputs": [],
      "name": "gammaOffersContract",
      "outputs": [
        {
          "internalType": "contract IgammaOffersContract",
          "name": "",
          "type": "address"
        }
      ],
      "stateMutability": "view",
      "type": "function"
    },
    {
      "inputs": [],
      "name": "gammaPacksContract",
      "outputs": [
        {
          "internalType": "contract IgammaPacksContract",
          "name": "",
          "type": "address"
        }
      ],
      "stateMutability": "view",
      "type": "function"
    },
    {
      "inputs": [
        {
          "internalType": "uint256",
          "name": "tokenId",
          "type": "uint256"
        }
      ],
      "name": "getApproved",
      "outputs": [
        {
          "internalType": "address",
          "name": "",
          "type": "address"
        }
      ],
      "stateMutability": "view",
      "type": "function"
    },
    {
      "inputs": [
        {
          "internalType": "address",
          "name": "user",
          "type": "address"
        },
        {
          "internalType": "uint8",
          "name": "cardNum",
          "type": "uint8"
        }
      ],
      "name": "getCardQuantityByUser",
      "outputs": [
        {
          "internalType": "uint8",
          "name": "",
          "type": "uint8"
        }
      ],
      "stateMutability": "view",
      "type": "function"
    },
    {
      "inputs": [
        {
          "internalType": "address",
          "name": "user",
          "type": "address"
        }
      ],
      "name": "getCardsByUser",
      "outputs": [
        {
          "internalType": "uint8[]",
          "name": "",
          "type": "uint8[]"
        },
        {
          "internalType": "uint8[]",
          "name": "",
          "type": "uint8[]"
        },
        {
          "internalType": "bool[]",
          "name": "",
          "type": "bool[]"
        }
      ],
      "stateMutability": "view",
      "type": "function"
    },
    {
      "inputs": [
        {
          "internalType": "address",
          "name": "user",
          "type": "address"
        },
        {
          "internalType": "uint8",
          "name": "cardNum",
          "type": "uint8"
        }
      ],
      "name": "hasCard",
      "outputs": [
        {
          "internalType": "bool",
          "name": "has",
          "type": "bool"
        }
      ],
      "stateMutability": "view",
      "type": "function"
    },
    {
      "inputs": [
        {
          "internalType": "address",
          "name": "user",
          "type": "address"
        },
        {
          "internalType": "uint8",
          "name": "cardNumber",
          "type": "uint8"
        }
      ],
      "name": "hasCardByOffer",
      "outputs": [
        {
          "internalType": "bool",
          "name": "has",
          "type": "bool"
        }
      ],
      "stateMutability": "view",
      "type": "function"
    },
    {
      "inputs": [
        {
          "internalType": "address",
          "name": "owner",
          "type": "address"
        },
        {
          "internalType": "address",
          "name": "operator",
          "type": "address"
        }
      ],
      "name": "isApprovedForAll",
      "outputs": [
        {
          "internalType": "bool",
          "name": "",
          "type": "bool"
        }
      ],
      "stateMutability": "view",
      "type": "function"
    },
    {
      "inputs": [],
      "name": "mainAlbumPrize",
      "outputs": [
        {
          "internalType": "uint256",
          "name": "",
          "type": "uint256"
        }
      ],
      "stateMutability": "view",
      "type": "function"
    },
    {
      "inputs": [],
      "name": "mainUri",
      "outputs": [
        {
          "internalType": "string",
          "name": "",
          "type": "string"
        }
      ],
      "stateMutability": "view",
      "type": "function"
    },
    {
      "inputs": [
        {
          "internalType": "uint8",
          "name": "cardNum",
          "type": "uint8"
        }
      ],
      "name": "mintCard",
      "outputs": [],
      "stateMutability": "nonpayable",
      "type": "function"
    },
    {
      "inputs": [],
      "name": "name",
      "outputs": [
        {
          "internalType": "string",
          "name": "",
          "type": "string"
        }
      ],
      "stateMutability": "view",
      "type": "function"
    },
    {
      "inputs": [
        {
          "internalType": "uint256",
          "name": "packNumber",
          "type": "uint256"
        },
        {
          "internalType": "uint8[]",
          "name": "packData",
          "type": "uint8[]"
        },
        {
          "internalType": "bytes",
          "name": "signature",
          "type": "bytes"
        }
      ],
      "name": "openPack",
      "outputs": [],
      "stateMutability": "nonpayable",
      "type": "function"
    },
    {
      "inputs": [
        {
          "internalType": "address",
          "name": "user",
          "type": "address"
        },
        {
          "internalType": "uint256",
          "name": "packNumber",
          "type": "uint256"
        },
        {
          "internalType": "uint8[]",
          "name": "packData",
          "type": "uint8[]"
        },
        {
          "internalType": "bytes",
          "name": "signature",
          "type": "bytes"
        }
      ],
      "name": "openPackByUser",
      "outputs": [],
      "stateMutability": "nonpayable",
      "type": "function"
    },
    {
      "inputs": [],
      "name": "owner",
      "outputs": [
        {
          "internalType": "address",
          "name": "",
          "type": "address"
        }
      ],
      "stateMutability": "view",
      "type": "function"
    },
    {
      "inputs": [
        {
          "internalType": "uint256",
          "name": "tokenId",
          "type": "uint256"
        }
      ],
      "name": "ownerOf",
      "outputs": [
        {
          "internalType": "address",
          "name": "",
          "type": "address"
        }
      ],
      "stateMutability": "view",
      "type": "function"
    },
    {
      "inputs": [
        {
          "internalType": "address",
          "name": "",
          "type": "address"
        }
      ],
      "name": "owners",
      "outputs": [
        {
          "internalType": "bool",
          "name": "",
          "type": "bool"
        }
      ],
      "stateMutability": "view",
      "type": "function"
    },
    {
      "inputs": [],
      "name": "packPrice",
      "outputs": [
        {
          "internalType": "uint256",
          "name": "",
          "type": "uint256"
        }
      ],
      "stateMutability": "view",
      "type": "function"
    },
    {
      "inputs": [],
      "name": "prizesBalance",
      "outputs": [
        {
          "internalType": "uint256",
          "name": "",
          "type": "uint256"
        }
      ],
      "stateMutability": "view",
      "type": "function"
    },
    {
      "inputs": [
        {
          "internalType": "uint256",
          "name": "amount",
          "type": "uint256"
        }
      ],
      "name": "receivePrizesBalance",
      "outputs": [],
      "stateMutability": "nonpayable",
      "type": "function"
    },
    {
      "inputs": [
        {
          "internalType": "address",
          "name": "user",
          "type": "address"
        },
        {
          "internalType": "uint8",
          "name": "cardNumber",
          "type": "uint8"
        }
      ],
      "name": "removeCardByOffer",
      "outputs": [],
      "stateMutability": "nonpayable",
      "type": "function"
    },
    {
      "inputs": [
        {
          "internalType": "address",
          "name": "_ownerToRemove",
          "type": "address"
        }
      ],
      "name": "removeOwner",
      "outputs": [],
      "stateMutability": "nonpayable",
      "type": "function"
    },
    {
      "inputs": [
        {
          "internalType": "address",
          "name": "_signerToRemove",
          "type": "address"
        }
      ],
      "name": "removeSigner",
      "outputs": [],
      "stateMutability": "nonpayable",
      "type": "function"
    },
    {
      "inputs": [],
      "name": "renounceOwnership",
      "outputs": [],
      "stateMutability": "nonpayable",
      "type": "function"
    },
    {
      "inputs": [],
      "name": "requireOfferValidationInMint",
      "outputs": [
        {
          "internalType": "bool",
          "name": "",
          "type": "bool"
        }
      ],
      "stateMutability": "view",
      "type": "function"
    },
    {
      "inputs": [],
      "name": "requireOfferValidationInTransfer",
      "outputs": [
        {
          "internalType": "bool",
          "name": "",
          "type": "bool"
        }
      ],
      "stateMutability": "view",
      "type": "function"
    },
    {
      "inputs": [],
      "name": "requireOpenPackSignerValidation",
      "outputs": [
        {
          "internalType": "bool",
          "name": "",
          "type": "bool"
        }
      ],
      "stateMutability": "view",
      "type": "function"
    },
    {
      "inputs": [
        {
          "internalType": "address",
          "name": "user",
          "type": "address"
        },
        {
          "internalType": "uint8",
          "name": "cardNumber",
          "type": "uint8"
        }
      ],
      "name": "restoreCardByOffer",
      "outputs": [],
      "stateMutability": "nonpayable",
      "type": "function"
    },
    {
      "inputs": [
        {
          "internalType": "address",
          "name": "from",
          "type": "address"
        },
        {
          "internalType": "address",
          "name": "to",
          "type": "address"
        },
        {
          "internalType": "uint256",
          "name": "tokenId",
          "type": "uint256"
        }
      ],
      "name": "safeTransferFrom",
      "outputs": [],
      "stateMutability": "nonpayable",
      "type": "function"
    },
    {
      "inputs": [
        {
          "internalType": "address",
          "name": "from",
          "type": "address"
        },
        {
          "internalType": "address",
          "name": "to",
          "type": "address"
        },
        {
          "internalType": "uint256",
          "name": "tokenId",
          "type": "uint256"
        },
        {
          "internalType": "bytes",
          "name": "data",
          "type": "bytes"
        }
      ],
      "name": "safeTransferFrom",
      "outputs": [],
      "stateMutability": "nonpayable",
      "type": "function"
    },
    {
      "inputs": [],
      "name": "secondaryAlbumPrize",
      "outputs": [
        {
          "internalType": "uint256",
          "name": "",
          "type": "uint256"
        }
      ],
      "stateMutability": "view",
      "type": "function"
    },
    {
      "inputs": [],
      "name": "secondaryUri",
      "outputs": [
        {
          "internalType": "string",
          "name": "",
          "type": "string"
        }
      ],
      "stateMutability": "view",
      "type": "function"
    },
    {
      "inputs": [
        {
          "internalType": "address",
          "name": "operator",
          "type": "address"
        },
        {
          "internalType": "bool",
          "name": "approved",
          "type": "bool"
        }
      ],
      "name": "setApprovalForAll",
      "outputs": [],
      "stateMutability": "nonpayable",
      "type": "function"
    },
    {
      "inputs": [
        {
          "internalType": "address",
          "name": "_gammaOffersContract",
          "type": "address"
        }
      ],
      "name": "setGammaOffersContract",
      "outputs": [],
      "stateMutability": "nonpayable",
      "type": "function"
    },
    {
      "inputs": [
        {
          "internalType": "address",
          "name": "_gammaPacksContract",
          "type": "address"
        }
      ],
      "name": "setGammaPacksContract",
      "outputs": [],
      "stateMutability": "nonpayable",
      "type": "function"
    },
    {
      "inputs": [
        {
          "internalType": "string",
          "name": "newMainUri",
          "type": "string"
        },
        {
          "internalType": "string",
          "name": "newSecondaryUri",
          "type": "string"
        }
      ],
      "name": "setUris",
      "outputs": [],
      "stateMutability": "nonpayable",
      "type": "function"
    },
    {
      "inputs": [
        {
          "internalType": "address",
          "name": "",
          "type": "address"
        }
      ],
      "name": "signers",
      "outputs": [
        {
          "internalType": "bool",
          "name": "",
          "type": "bool"
        }
      ],
      "stateMutability": "view",
      "type": "function"
    },
    {
      "inputs": [
        {
          "internalType": "bytes4",
          "name": "interfaceId",
          "type": "bytes4"
        }
      ],
      "name": "supportsInterface",
      "outputs": [
        {
          "internalType": "bool",
          "name": "",
          "type": "bool"
        }
      ],
      "stateMutability": "view",
      "type": "function"
    },
    {
      "inputs": [],
      "name": "symbol",
      "outputs": [
        {
          "internalType": "string",
          "name": "",
          "type": "string"
        }
      ],
      "stateMutability": "view",
      "type": "function"
    },
    {
      "inputs": [
        {
          "internalType": "address",
          "name": "user",
          "type": "address"
        }
      ],
      "name": "testAddCards",
      "outputs": [],
      "stateMutability": "nonpayable",
      "type": "function"
    },
    {
      "inputs": [
        {
          "internalType": "address",
          "name": "user",
          "type": "address"
        },
        {
          "internalType": "uint256",
          "name": "packNumber",
          "type": "uint256"
        },
        {
          "internalType": "uint8[]",
          "name": "packData",
          "type": "uint8[]"
        }
      ],
      "name": "testOpenPack",
      "outputs": [],
      "stateMutability": "nonpayable",
      "type": "function"
    },
    {
      "inputs": [
        {
          "internalType": "uint256",
          "name": "tokenId",
          "type": "uint256"
        }
      ],
      "name": "tokenURI",
      "outputs": [
        {
          "internalType": "string",
          "name": "",
          "type": "string"
        }
      ],
      "stateMutability": "view",
      "type": "function"
    },
    {
      "inputs": [
        {
          "internalType": "address",
          "name": "to",
          "type": "address"
        },
        {
          "internalType": "uint8",
          "name": "cardNumber",
          "type": "uint8"
        }
      ],
      "name": "transferCard",
      "outputs": [],
      "stateMutability": "nonpayable",
      "type": "function"
    },
    {
      "inputs": [
        {
          "internalType": "address",
          "name": "to",
          "type": "address"
        },
        {
          "internalType": "uint8[]",
          "name": "cardNumbers",
          "type": "uint8[]"
        }
      ],
      "name": "transferCards",
      "outputs": [],
      "stateMutability": "nonpayable",
      "type": "function"
    },
    {
      "inputs": [
        {
          "internalType": "address",
          "name": "from",
          "type": "address"
        },
        {
          "internalType": "address",
          "name": "to",
          "type": "address"
        },
        {
          "internalType": "uint256",
          "name": "tokenId",
          "type": "uint256"
        }
      ],
      "name": "transferFrom",
      "outputs": [],
      "stateMutability": "nonpayable",
      "type": "function"
    },
    {
      "inputs": [
        {
          "internalType": "address",
          "name": "newOwner",
          "type": "address"
        }
      ],
      "name": "transferOwnership",
      "outputs": [],
      "stateMutability": "nonpayable",
      "type": "function"
    },
    {
      "inputs": [
        {
          "internalType": "uint256",
          "name": "packNumber",
          "type": "uint256"
        },
        {
          "internalType": "uint8[]",
          "name": "packData",
          "type": "uint8[]"
        },
        {
          "internalType": "bytes",
          "name": "signature",
          "type": "bytes"
        }
      ],
      "name": "verifyPackSigner",
      "outputs": [
        {
          "internalType": "address",
          "name": "signer",
          "type": "address"
        }
      ],
      "stateMutability": "view",
      "type": "function"
    }
  ],
  "bytecode": "0x60806040526710a741a462780000600c5567d02ab486cedc0000600f55670de0b6b3a76400006010553480156200003557600080fd5b5060405162005c3438038062005c3483398101604081905262000058916200034f565b6040518060400160405280600a81526020016947616d6d61436172647360b01b815250604051806040016040528060068152602001654e4f465f474360d01b8152508160009081620000ab9190620004d1565b506001620000ba8282620004d1565b505050620000d7620000d1620002a060201b60201c565b620002a4565b600880546001600160a01b038086166001600160a01b031992831617909255600b805492871692909116919091179055600e620001158382620004d1565b5060408051808201825260018152602f60f81b60208083019190915282518084018452600381526203132360ec1b8183015283518085018552600681526523173539b7b760d11b8184015293516200017494600e94939091016200059d565b60405160208183030381529060405260119081620001939190620004d1565b5060408051808201825260018152602f60f81b60208083019190915282518084018452600381526231323160e81b8183015283518085018552600681526523173539b7b760d11b818401529351620001f294600e94939091016200059d565b60405160208183030381529060405260129081620002119190620004d1565b506001600160a01b0381166000908152601560205260408120805460ff19166001179055601380546201010062ffffff199091161790555b607a8110156200027a576000818152601760205260409020600190558062000271816200065a565b91505062000249565b5050336000908152601460205260409020805460ff191660011790555062000682915050565b3390565b600780546001600160a01b038381166001600160a01b0319831681179093556040519116919082907f8be0079c531659141344cd1fd0a4f28419497f9722a3daafe3b4186f6b6457e090600090a35050565b80516001600160a01b03811681146200030e57600080fd5b919050565b634e487b7160e01b600052604160045260246000fd5b60005b83811015620003465781810151838201526020016200032c565b50506000910152565b600080600080608085870312156200036657600080fd5b6200037185620002f6565b93506200038160208601620002f6565b60408601519093506001600160401b03808211156200039f57600080fd5b818701915087601f830112620003b457600080fd5b815181811115620003c957620003c962000313565b604051601f8201601f19908116603f01168101908382118183101715620003f457620003f462000313565b816040528281528a60208487010111156200040e57600080fd5b6200042183602083016020880162000329565b80965050505050506200043760608601620002f6565b905092959194509250565b600181811c908216806200045757607f821691505b6020821081036200047857634e487b7160e01b600052602260045260246000fd5b50919050565b601f821115620004cc57600081815260208120601f850160051c81016020861015620004a75750805b601f850160051c820191505b81811015620004c857828155600101620004b3565b5050505b505050565b81516001600160401b03811115620004ed57620004ed62000313565b6200050581620004fe845462000442565b846200047e565b602080601f8311600181146200053d5760008415620005245750858301515b600019600386901b1c1916600185901b178555620004c8565b600085815260208120601f198616915b828110156200056e578886015182559484019460019091019084016200054d565b50858210156200058d5787850151600019600388901b60f8161c191681555b5050505050600190811b01905550565b6000808654620005ad8162000442565b60018281168015620005c85760018114620005de576200060f565b60ff19841687528215158302870194506200060f565b8a60005260208060002060005b85811015620006065781548a820152908401908201620005eb565b50505082870194505b50505050855162000625818360208a0162000329565b85519101906200063a81836020890162000329565b84519101906200064f81836020880162000329565b019695505050505050565b6000600182016200067b57634e487b7160e01b600052601160045260246000fd5b5060010190565b6155a280620006926000396000f3fe608060405234801561001057600080fd5b50600436106103f15760003560e01c8063809eb35511610215578063ad1684fa11610125578063dec3f6d9116100b8578063e606df8711610087578063e606df8714610950578063e985e9c514610963578063eb12d61e1461099f578063f2fde38b146109b2578063f98fd283146109c557600080fd5b8063dec3f6d914610919578063e1883c6e14610921578063e51aebb314610934578063e5db587a1461094757600080fd5b8063c87b56dd116100f4578063c87b56dd146108cd578063cafaa473146108e0578063d322b563146108f3578063dbfc05cf1461090657600080fd5b8063ad1684fa1461088c578063b88d4fde1461089f578063bf400a6a146108b2578063c3461c07146108c557600080fd5b806391565664116101a85780639c7f707f116101775780639c7f707f146108375780639f4415d81461084a578063a1af8ad414610853578063a22cb46514610866578063a419811d1461087957600080fd5b8063915656641461080857806395d89b411461081a57806396884135146108225780639abc83201461082f57600080fd5b80638bf670c8116101e45780638bf670c81461076a5780638da5cb5b1461077d5780638dc107681461078e5780639038f4141461080057600080fd5b8063809eb3551461070d57806384c4bd4b1461073b578063886eb60f146107445780638ba526fc1461075757600080fd5b80632f9e026a116103105780635dde20d8116102a357806370a082311161027257806370a082311461069c578063715018a6146106af5780637155a3ac146106b7578063736c0d5b146106ca5780637e50fa8f146106ed57600080fd5b80635dde20d8146106435780636352211e1461066357806368cc5bc1146106765780637065cb481461068957600080fd5b806342966c68116102df57806342966c6814610601578063483823e814610614578063511b93071461061d5780635312ea8e1461063057600080fd5b80632f9e026a146105b157806330f5cc58146105c4578063335c8b63146105d757806342842e0e146105ee57600080fd5b80631306952c1161038857806320965a5f1161035757806320965a5f1461056557806323b872dd14610578578063267b841d1461058b5780632ca699e71461059e57600080fd5b80631306952c146104de578063155e2f92146104f15780631585cc4e14610504578063173825d91461055257600080fd5b8063081812fc116103c4578063081812fc14610478578063095ea7b3146104a35780630e316ab7146104b8578063128916dc146104cb57600080fd5b806301ffc9a7146103f6578063022914a71461041e5780630435dcaf1461044157806306fdde0314610463575b600080fd5b61040961040436600461464a565b6109d8565b60405190151581526020015b60405180910390f35b61040961042c36600461467c565b60146020526000908152604090205460ff1681565b61045461044f36600461467c565b6109e9565b604051610415939291906146d7565b61046b610da6565b6040516104159190614792565b61048b6104863660046147a5565b610e38565b6040516001600160a01b039091168152602001610415565b6104b66104b13660046147be565b610e5f565b005b6104b66104c636600461467c565b610f79565b6104b66104d936600461467c565b6110bf565b61048b6104ec36600461490d565b611169565b6104b66104ff36600461497c565b611260565b61054061051236600461497c565b6001600160a01b0391909116600090815260196020908152604080832060ff94851684529091529020541690565b60405160ff9091168152602001610415565b6104b661056036600461467c565b6112dc565b6104b66105733660046149f5565b611422565b6104b6610586366004614a36565b611722565b6104b661059936600461490d565b611754565b6104b66105ac36600461497c565b611767565b60085461048b906001600160a01b031681565b6104b66105d2366004614a77565b611971565b6105e0600c5481565b604051908152602001610415565b6104b66105fc366004614a36565b611c0e565b6104b661060f3660046147a5565b611c29565b6105e060105481565b6013546104099062010000900460ff1681565b6104b661063e3660046147a5565b611c5a565b6105e06106513660046147a5565b60176020526000908152604090205481565b61048b6106713660046147a5565b611d61565b6104b6610684366004614add565b611dc1565b6104b661069736600461467c565b611e0c565b6105e06106aa36600461467c565b611eee565b6104b6611f74565b6104b66106c536600461497c565b611f88565b6104096106d836600461467c565b60156020526000908152604090205460ff1681565b6105e06106fb36600461467c565b60186020526000908152604090205481565b61054061071b36600461497c565b601960209081526000928352604080842090915290825290205460ff1681565b6105e0600a5481565b61040961075236600461497c565b611fe7565b6104b66107653660046147a5565b612040565b61040961077836600461497c565b612084565b6007546001600160a01b031661048b565b6107d061079c3660046147a5565b60166020526000908152604090208054600182015460028301546003909301549192909160ff808316926101009004169085565b6040805195865260208601949094529115159284019290925260ff9091166060830152608082015260a001610415565b6104b66120b1565b60135461040990610100900460ff1681565b61046b6123a8565b6013546104099060ff1681565b61046b6123b7565b6104b6610845366004614b71565b612445565b6105e0600f5481565b6104b6610861366004614bd4565b6124bf565b6104b6610874366004614c28565b612817565b6104b661088736600461467c565b612822565b6104b661089a366004614c61565b6128c1565b6104b66108ad366004614cb9565b612b7c565b6104b66108c0366004614d38565b612bae565b61046b612dc4565b61046b6108db3660046147a5565b612dd1565b6104b66108ee36600461467c565b612ddc565b60095461048b906001600160a01b031681565b6104b6610914366004614add565b612e7f565b61046b612ec1565b6104b661092f3660046147a5565b612ece565b6104b6610942366004614d53565b612efd565b6105e0600d5481565b600b5461048b906001600160a01b031681565b610409610971366004614dd9565b6001600160a01b03918216600090815260056020908152604080832093909416825291909152205460ff1690565b6104b66109ad36600461467c565b612f0a565b6104b66109c036600461467c565b612fec565b6104b66109d3366004614add565b613062565b60006109e3826130ab565b92915050565b604080516079808252610f408201909252606091829182916000919060208201610f20803683375050604080516079808252610f408201909252929350600092915060208201610f20803683375050604080516079808252610f408201909252929350600092915060208201610f20803683370190505090506000805b60778160ff1611610bcf576001600160a01b038916600090815260196020908152604080832060ff80861685529252909120541615610bbd5780858360ff1681518110610ab557610ab5614e07565b60ff9283166020918202929092018101919091526001600160a01b038b166000908152601982526040808220858516835290925220548551908216918691908516908110610b0557610b05614e07565b60ff90921660209283029190910190910152600954604051632edb5fcf60e01b81526001600160a01b0390911690632edb5fcf90610b49908c908590600401614e1d565b602060405180830381865afa158015610b66573d6000803e3d6000fd5b505050506040513d601f19601f82011682018060405250810190610b8a9190614e39565b838360ff1681518110610b9f57610b9f614e07565b9115156020928302919091019091015281610bb981614e6c565b9250505b80610bc781614e6c565b915050610a66565b5060008160ff166001600160401b03811115610bed57610bed6147ea565b604051908082528060200260200182016040528015610c16578160200160208202803683370190505b50905060008260ff166001600160401b03811115610c3657610c366147ea565b604051908082528060200260200182016040528015610c5f578160200160208202803683370190505b50905060008360ff166001600160401b03811115610c7f57610c7f6147ea565b604051908082528060200260200182016040528015610ca8578160200160208202803683370190505b50905060005b8460ff168160ff161015610d9457878160ff1681518110610cd157610cd1614e07565b6020026020010151848260ff1681518110610cee57610cee614e07565b60ff9283166020918202929092010152875188918316908110610d1357610d13614e07565b6020026020010151838260ff1681518110610d3057610d30614e07565b60ff9283166020918202929092010152865187918316908110610d5557610d55614e07565b6020026020010151828260ff1681518110610d7257610d72614e07565b9115156020928302919091019091015280610d8c81614e6c565b915050610cae565b50919a90995090975095505050505050565b606060008054610db590614e8b565b80601f0160208091040260200160405190810160405280929190818152602001828054610de190614e8b565b8015610e2e5780601f10610e0357610100808354040283529160200191610e2e565b820191906000526020600020905b815481529060010190602001808311610e1157829003601f168201915b5050505050905090565b6000610e43826130d0565b506000908152600460205260409020546001600160a01b031690565b6000610e6a82611d61565b9050806001600160a01b0316836001600160a01b031603610edc5760405162461bcd60e51b815260206004820152602160248201527f4552433732313a20617070726f76616c20746f2063757272656e74206f776e656044820152603960f91b60648201526084015b60405180910390fd5b336001600160a01b0382161480610ef85750610ef88133610971565b610f6a5760405162461bcd60e51b815260206004820152603d60248201527f4552433732313a20617070726f76652063616c6c6572206973206e6f7420746f60448201527f6b656e206f776e6572206f7220617070726f76656420666f7220616c6c0000006064820152608401610ed3565b610f74838361312f565b505050565b3360009081526014602052604090205460ff16610fa85760405162461bcd60e51b8152600401610ed390614ec5565b6001600160a01b038116610fce5760405162461bcd60e51b8152600401610ed390614f08565b336001600160a01b038216036110365760405162461bcd60e51b815260206004820152602760248201527f596f752063616e6e6f742072656d6f766520796f757273656c6620617320612060448201526639b4b3b732b91760c91b6064820152608401610ed3565b6001600160a01b03811660009081526015602052604090205460ff1661109e5760405162461bcd60e51b815260206004820152601960248201527f41646472657373206973206e6f7420616e207369676e65722e000000000000006044820152606401610ed3565b6001600160a01b03166000908152601560205260409020805460ff19169055565b3360009081526014602052604090205460ff166110ee5760405162461bcd60e51b8152600401610ed390614ec5565b6001600160a01b0381166111145760405162461bcd60e51b8152600401610ed390614f08565b600980546001600160a01b0319166001600160a01b0383169081179091556040519081527f538b3425a321783393ad250db10356b8b3523ef29a40de015c5218213de0ead0906020015b60405180910390a150565b6000806111cd33878760405160200161118493929190614f32565b604051602081830303815290604052805190602001207f19457468657265756d205369676e6564204d6573736167653a0a3332000000006000908152601c91909152603c902090565b9050600061121385858080601f016020809104026020016040519081016040528093929190818152602001838380828437600092019190915250869392505061319d9050565b90506112546040518060400160405280601a81526020017f6f70656e207061636b207369676e6572207265636f7665726564000000000000815250826131c1565b9150505b949350505050565b6009546001600160a01b0316331461128a5760405162461bcd60e51b8152600401610ed390614fc0565b6001600160a01b038216600090815260196020908152604080832060ff8086168552925282208054909116916112bf83614e6c565b91906101000a81548160ff021916908360ff160217905550505050565b3360009081526014602052604090205460ff1661130b5760405162461bcd60e51b8152600401610ed390614ec5565b6001600160a01b0381166113315760405162461bcd60e51b8152600401610ed390614f08565b336001600160a01b038216036113995760405162461bcd60e51b815260206004820152602760248201527f596f752063616e6e6f742072656d6f766520796f757273656c6620617320616e6044820152661037bbb732b91760c91b6064820152608401610ed3565b6001600160a01b03811660009081526014602052604090205460ff166114015760405162461bcd60e51b815260206004820152601860248201527f41646472657373206973206e6f7420616e206f776e65722e00000000000000006044820152606401610ed3565b6001600160a01b03166000908152601460205260409020805460ff19169055565b3360009081526019602090815260408083206079845290915290205460ff1661148d5760405162461bcd60e51b815260206004820152601860248201527f4e6f207469656e657320616c62756d206465207175656d6100000000000000006044820152606401610ed3565b336000908152601960209081526040808320607984529091528120805460ff16916114b783615012565b825460ff9182166101009390930a92830291909202199091161790555033600090815260186020526040812080548392906114f390849061502f565b90915550600090505b60ff81168211156115945733600090815260196020526040812090848460ff851681811061152c5761152c614e07565b90506020020160208101906115419190614d38565b60ff9081168252602082019290925260400160009081208054909216919061156883615012565b91906101000a81548160ff021916908360ff16021790555050808061158c90614e6c565b9150506114fc565b50336000908152601860205260409020546115b190603c90615058565b60000361171e5761165033601280546115c990614e8b565b80601f01602080910402602001604051908101604052809291908181526020018280546115f590614e8b565b80156116425780601f1061161757610100808354040283529160200191611642565b820191906000526020600020905b81548152906001019060200180831161162557829003601f168201915b505050505060796002613206565b600f54600d6000828254611664919061506c565b9091555050600b5460105460405163a9059cbb60e01b815233600482015260248101919091526001600160a01b039091169063a9059cbb906044016020604051808303816000875af11580156116be573d6000803e3d6000fd5b505050506040513d601f19601f820116820180604052508101906116e29190614e39565b507f6d0344e2059f835240cb954cce07d4b26f0d0844eecc234f7ee0e292ba80a1aa336002604051611715929190614e1d565b60405180910390a15b5050565b61172d335b82613269565b6117495760405162461bcd60e51b8152600401610ed39061507f565b610f748383836132e7565b611761338585858561344b565b50505050565b33600090815260196020908152604080832060ff8086168552925290912054166117a35760405162461bcd60e51b8152600401610ed3906150cc565b336001600160a01b038316036117fb5760405162461bcd60e51b815260206004820152601960248201527f4f776e207472616e73666572206e6f7420616c6c6f7765642e000000000000006044820152606401610ed3565b6001600160a01b0382166118215760405162461bcd60e51b8152600401610ed390614f08565b60135462010000900460ff16156118f657600954604051632edb5fcf60e01b81526000916001600160a01b031690632edb5fcf906118659033908690600401614e1d565b602060405180830381865afa158015611882573d6000803e3d6000fd5b505050506040513d601f19601f820116820180604052508101906118a69190614e39565b33600090815260196020908152604080832060ff808816855292529091205491925060019116118115806118d75750805b6118f35760405162461bcd60e51b8152600401610ed390615103565b50505b33600090815260196020908152604080832060ff80861685529252822080549091169161192283615012565b82546101009290920a60ff8181021990931691831602179091556001600160a01b038416600090815260196020908152604080832086851684529091528120805490921692506112bf83614e6c565b3360009081526014602052604090205460ff166119a05760405162461bcd60e51b8152600401610ed390614ec5565b6008546040516380f2540b60e01b8152600481018490526001600160a01b038581166024830152909116906380f2540b90604401600060405180830381600087803b1580156119ee57600080fd5b505af1158015611a02573d6000803e3d6000fd5b505050506006600c54611a159190615153565b600c54611a22919061506c565b600d6000828254611a33919061502f565b9091555050805160005b818160ff161015611c0757828160ff1681518110611a5d57611a5d614e07565b602002602001015160ff16607814611aab5761138960176000858460ff1681518110611a8b57611a8b614e07565b602002602001015160ff1681526020019081526020016000205410611adc565b607860005260176020527f1e0e657bdfc7d3d523657bb82aa6f2c628a4caf6e2f7839556e82479d4362f0654610bb9115b611b285760405162461bcd60e51b815260206004820152601e60248201527f696e76616c69642063617264496e76656e746f727920706f736974696f6e00006044820152606401610ed3565b60176000848360ff1681518110611b4157611b41614e07565b602002602001015160ff1681526020019081526020016000206000815480929190611b6b90615167565b90915550506001600160a01b03851660009081526019602052604081208451909190859060ff8516908110611ba257611ba2614e07565b602002602001015160ff1660ff168152602001908152602001600020600081819054906101000a900460ff1680929190611bdb90614e6c565b91906101000a81548160ff021916908360ff160217905550508080611bff90614e6c565b915050611a3d565b5050505050565b610f7483838360405180602001604052806000815250612b7c565b611c3233611727565b611c4e5760405162461bcd60e51b8152600401610ed39061507f565b611c578161390e565b50565b3360009081526014602052604090205460ff16611c895760405162461bcd60e51b8152600401610ed390614ec5565b80611c9330611eee565b1015611c9e57600080fd5b80600d6000828254611cb0919061506c565b9091555050600b5460405163a9059cbb60e01b8152336004820152602481018390526001600160a01b039091169063a9059cbb906044016020604051808303816000875af1158015611d06573d6000803e3d6000fd5b505050506040513d601f19601f82011682018060405250810190611d2a9190614e39565b5060408051338152602081018390527f23d6711a1d031134a36921253c75aa59e967d38e369ac625992824315e204f20910161115e565b6000818152600260205260408120546001600160a01b0316806109e35760405162461bcd60e51b8152602060048201526018602482015277115490cdcc8c4e881a5b9d985b1a59081d1bdad95b88125160421b6044820152606401610ed3565b3360009081526014602052604090205460ff16611df05760405162461bcd60e51b8152600401610ed390614ec5565b60138054911515620100000262ff000019909216919091179055565b3360009081526014602052604090205460ff16611e3b5760405162461bcd60e51b8152600401610ed390614ec5565b6001600160a01b038116611e615760405162461bcd60e51b8152600401610ed390614f08565b6001600160a01b03811660009081526014602052604090205460ff1615611eca5760405162461bcd60e51b815260206004820152601c60248201527f4164647265737320697320616c726561647920616e206f776e65722e000000006044820152606401610ed3565b6001600160a01b03166000908152601460205260409020805460ff19166001179055565b60006001600160a01b038216611f585760405162461bcd60e51b815260206004820152602960248201527f4552433732313a2061646472657373207a65726f206973206e6f7420612076616044820152683634b21037bbb732b960b91b6064820152608401610ed3565b506001600160a01b031660009081526003602052604090205490565b611f7c613917565b611f866000613971565b565b6009546001600160a01b03163314611fb25760405162461bcd60e51b8152600401610ed390614fc0565b6001600160a01b038216600090815260196020908152604080832060ff8086168552925282208054909116916112bf83615012565b60006001600160a01b03831661200f5760405162461bcd60e51b8152600401610ed390614f08565b506001600160a01b0391909116600090815260196020908152604080832060ff948516845290915290205416151590565b6008546001600160a01b0316331461206a5760405162461bcd60e51b8152600401610ed390615180565b80600d600082825461207c919061502f565b909155505050565b6009546000906001600160a01b0316331461200f5760405162461bcd60e51b8152600401610ed390614fc0565b3360009081526019602090815260408083206078845290915290205460ff1661211c5760405162461bcd60e51b815260206004820152601c60248201527f596f7520646f6573206e6f74206861766520616e7920616c62756d2e000000006044820152606401610ed3565b600f54600d5410156121665760405162461bcd60e51b815260206004820152601360248201527224b739bab33334b1b4b2b73a10333ab732399760691b6044820152606401610ed3565b6000805b60798160ff1610156121fc5733600090815260196020908152604080832060ff808616855292528220541690036121a457600191506121fc565b33600090815260196020908152604080832060ff8086168552925282208054909116916121d083615012565b91906101000a81548160ff021916908360ff1602179055505080806121f490614e6c565b91505061216a565b50801561224b5760405162461bcd60e51b815260206004820152601860248201527f4d75737420636f6d706c6574652074686520616c62756d2e00000000000000006044820152606401610ed3565b6122e3336011805461225c90614e8b565b80601f016020809104026020016040519081016040528092919081815260200182805461228890614e8b565b80156122d55780601f106122aa576101008083540402835291602001916122d5565b820191906000526020600020905b8154815290600101906020018083116122b857829003601f168201915b505050505060786002613206565b600f54600d60008282546122f7919061506c565b9091555050600b54600f5460405163a9059cbb60e01b815233600482015260248101919091526001600160a01b039091169063a9059cbb906044016020604051808303816000875af1158015612351573d6000803e3d6000fd5b505050506040513d601f19601f820116820180604052508101906123759190614e39565b507f6d0344e2059f835240cb954cce07d4b26f0d0844eecc234f7ee0e292ba80a1aa33600160405161115e929190614e1d565b606060018054610db590614e8b565b600e80546123c490614e8b565b80601f01602080910402602001604051908101604052809291908181526020018280546123f090614e8b565b801561243d5780601f106124125761010080835404028352916020019161243d565b820191906000526020600020905b81548152906001019060200180831161242057829003601f168201915b505050505081565b3360009081526014602052604090205460ff166124745760405162461bcd60e51b8152600401610ed390614ec5565b6011612480838261521f565b50601261248d828261521f565b507fabfd337ac5625b7dc2ddd3d3bd465fb1dec15322eeeed81032268b337880bec682826040516117159291906152de565b336001600160a01b038416036125225760405162461bcd60e51b815260206004820152602260248201527f596f752063616e6e6f742073656e6420636172647320746f20796f757273656c604482015261331760f11b6064820152608401610ed3565b6001600160a01b0383166125485760405162461bcd60e51b8152600401610ed390614f08565b60005b60ff81168211156117615733600090815260196020526040812081858560ff861681811061257b5761257b614e07565b90506020020160208101906125909190614d38565b60ff908116825260208201929092526040016000205416116125c45760405162461bcd60e51b8152600401610ed3906150cc565b33600090815260196020526040812090848460ff85168181106125e9576125e9614e07565b90506020020160208101906125fe9190614d38565b60ff9081168252602082019290925260400160009081208054909216919061262583615012565b91906101000a81548160ff021916908360ff1602179055505060196000856001600160a01b03166001600160a01b03168152602001908152602001600020600084848460ff1681811061267a5761267a614e07565b905060200201602081019061268f9190614d38565b60ff908116825260208201929092526040016000908120805490921691906126b683614e6c565b91906101000a81548160ff021916908360ff16021790555050601360029054906101000a900460ff1615612805576009546000906001600160a01b0316632edb5fcf33868660ff871681811061270e5761270e614e07565b90506020020160208101906127239190614d38565b6040518363ffffffff1660e01b8152600401612740929190614e1d565b602060405180830381865afa15801561275d573d6000803e3d6000fd5b505050506040513d601f19601f820116820180604052508101906127819190614e39565b3360009081526019602052604081209192509060019082878760ff88168181106127ad576127ad614e07565b90506020020160208101906127c29190614d38565b60ff9081168252602082019290925260400160002054161190508115806127e65750805b6128025760405162461bcd60e51b8152600401610ed390615103565b50505b8061280f81614e6c565b91505061254b565b61171e3383836139c3565b3360009081526014602052604090205460ff166128515760405162461bcd60e51b8152600401610ed390614ec5565b60005b60798160ff16101561171e576001600160a01b038216600090815260196020908152604080832060ff80861685529252822080549091169161289583614e6c565b91906101000a81548160ff021916908360ff1602179055505080806128b990614e6c565b915050612854565b6009546001600160a01b031633146128eb5760405162461bcd60e51b8152600401610ed390614fc0565b6001600160a01b0384166129115760405162461bcd60e51b8152600401610ed390614f08565b6001600160a01b0382166129375760405162461bcd60e51b8152600401610ed390614f08565b6001600160a01b038416600090815260196020908152604080832060ff8088168552925290912054166129bb5760405162461bcd60e51b815260206004820152602660248201527f55736572202866726f6d2920646f6573206e6f74206861766520636172642028604482015265333937b6949760d11b6064820152608401610ed3565b6001600160a01b038216600090815260196020908152604080832060ff808616855292529091205416612a3b5760405162461bcd60e51b815260206004820152602260248201527f557365722028746f2920646f6573206e6f74206861766520636172642028746f604482015261149760f11b6064820152608401610ed3565b6001600160a01b038416600090815260196020908152604080832060ff808816855292528220805490911691612a7083615012565b82546101009290920a60ff8181021990931691831602179091556001600160a01b03841660009081526019602090815260408083208885168452909152812080549092169250612abf83614e6c565b82546101009290920a60ff8181021990931691831602179091556001600160a01b03841660009081526019602090815260408083208685168452909152812080549092169250612b0e83615012565b82546101009290920a60ff8181021990931691831602179091556001600160a01b03861660009081526019602090815260408083208685168452909152812080549092169250612b5d83614e6c565b91906101000a81548160ff021916908360ff1602179055505050505050565b612b863383613269565b612ba25760405162461bcd60e51b8152600401610ed39061507f565b61176184848484613a91565b33600090815260196020908152604080832060ff808616855292529091205416612bea5760405162461bcd60e51b8152600401610ed3906150cc565b601354610100900460ff1615612d0357600954604051632edb5fcf60e01b81526000916001600160a01b031690632edb5fcf90612c2d9033908690600401614e1d565b602060405180830381865afa158015612c4a573d6000803e3d6000fd5b505050506040513d601f19601f82011682018060405250810190612c6e9190614e39565b33600090815260196020908152604080832060ff80881685529252909120549192506001911611811580612c9f5750805b612d005760405162461bcd60e51b815260206004820152602c60248201527f5468697320636172642068617320616e206f666665722c2069742063616e6e6f60448201526b3a1031329036b4b73a32b21760a11b6064820152608401610ed3565b50505b33600090815260196020908152604080832060ff808616855292528220805490911691612d2f83615012565b91906101000a81548160ff021916908360ff160217905550506000600e604051806040016040528060018152602001602f60f81b815250612d728460ff16613ac4565b60405180604001604052806005815260200164173539b7b760d91b815250604051602001612da3949392919061530c565b604051602081830303815290604052905061171e33828460ff166001613206565b601180546123c490614e8b565b60606109e382613bc4565b3360009081526014602052604090205460ff16612e0b5760405162461bcd60e51b8152600401610ed390614ec5565b6001600160a01b038116612e315760405162461bcd60e51b8152600401610ed390614f08565b600880546001600160a01b0319166001600160a01b0383169081179091556040519081527f5a78287a942b8ea0da8734a4eb919df11e564cc48301ffcb582dc8612d98208f9060200161115e565b3360009081526014602052604090205460ff16612eae5760405162461bcd60e51b8152600401610ed390614ec5565b6013805460ff1916911515919091179055565b601280546123c490614e8b565b6008546001600160a01b03163314612ef85760405162461bcd60e51b8152600401610ed390615180565b600c55565b611c07858585858561344b565b3360009081526014602052604090205460ff16612f395760405162461bcd60e51b8152600401610ed390614ec5565b6001600160a01b038116612f5f5760405162461bcd60e51b8152600401610ed390614f08565b6001600160a01b03811660009081526015602052604090205460ff1615612fc85760405162461bcd60e51b815260206004820152601c60248201527f4164647265737320697320616c726561647920616e206f776e65722e000000006044820152606401610ed3565b6001600160a01b03166000908152601560205260409020805460ff19166001179055565b612ff4613917565b6001600160a01b0381166130595760405162461bcd60e51b815260206004820152602660248201527f4f776e61626c653a206e6577206f776e657220697320746865207a65726f206160448201526564647265737360d01b6064820152608401610ed3565b611c5781613971565b3360009081526014602052604090205460ff166130915760405162461bcd60e51b8152600401610ed390614ec5565b601380549115156101000261ff0019909216919091179055565b60006001600160e01b03198216632483248360e11b14806109e357506109e382613ccc565b6000818152600260205260409020546001600160a01b0316611c575760405162461bcd60e51b8152602060048201526018602482015277115490cdcc8c4e881a5b9d985b1a59081d1bdad95b88125160421b6044820152606401610ed3565b600081815260046020526040902080546001600160a01b0319166001600160a01b038416908117909155819061316482611d61565b6001600160a01b03167f8c5be1e5ebec7d5bd14f71427d1e84f3dd0314c0f7b2291e5b200ac8c7c3b92560405160405180910390a45050565b60008060006131ac8585613d1c565b915091506131b981613d61565b509392505050565b61171e82826040516024016131d79291906153bb565b60408051601f198184030181529190526020810180516001600160e01b031663319af33360e01b179052613eab565b600a54600081815260166020526040902081815560018101849055600201805461ff00191661010060ff8516021790556132408582613eb4565b61324a8185613ece565b6001600a600082825461325d919061502f565b90915550505050505050565b60008061327583611d61565b9050806001600160a01b0316846001600160a01b031614806132bc57506001600160a01b0380821660009081526005602090815260408083209388168352929052205460ff165b806112585750836001600160a01b03166132d584610e38565b6001600160a01b031614949350505050565b826001600160a01b03166132fa82611d61565b6001600160a01b0316146133205760405162461bcd60e51b8152600401610ed3906153e5565b6001600160a01b0382166133825760405162461bcd60e51b8152602060048201526024808201527f4552433732313a207472616e7366657220746f20746865207a65726f206164646044820152637265737360e01b6064820152608401610ed3565b826001600160a01b031661339582611d61565b6001600160a01b0316146133bb5760405162461bcd60e51b8152600401610ed3906153e5565b600081815260046020908152604080832080546001600160a01b03199081169091556001600160a01b0387811680865260038552838620805460001901905590871680865283862080546001019055868652600290945282852080549092168417909155905184937fddf252ad1be2c89b69c2b068fc378daa952ba7f163c4a11628f55a4df523b3ef91a4505050565b60085460405163d3e6a7ad60e01b8152600481018690526001600160a01b0387811692169063d3e6a7ad90602401602060405180830381865afa158015613496573d6000803e3d6000fd5b505050506040513d601f19601f820116820180604052508101906134ba919061542a565b6001600160a01b0316146135105760405162461bcd60e51b815260206004820152601760248201527f54686973207061636b206973206e6f7420796f7572732e0000000000000000006044820152606401610ed3565b600f8351106135575760405162461bcd60e51b815260206004820152601360248201527210d85c99081b1a5b5a5d08195e18d959591959606a1b6044820152606401610ed3565b60135460ff161561366357600061357c86868660405160200161118493929190614f32565b905060006135c284848080601f016020809104026020016040519081016040528093929190818152602001838380828437600092019190915250869392505061319d9050565b90506136036040518060400160405280601a81526020017f6f70656e207061636b207369676e6572207265636f7665726564000000000000815250826131c1565b6001600160a01b03811660009081526015602052604090205460ff166136605760405162461bcd60e51b815260206004820152601260248201527124b73b30b634b21039b4b3b730ba3ab9329760711b6044820152606401610ed3565b50505b6008546040516380f2540b60e01b8152600481018690526001600160a01b038781166024830152909116906380f2540b90604401600060405180830381600087803b1580156136b157600080fd5b505af11580156136c5573d6000803e3d6000fd5b505050506006600c546136d89190615153565b600c546136e5919061506c565b600d60008282546136f6919061502f565b9091555050825160005b818160ff1610156138ca57848160ff168151811061372057613720614e07565b602002602001015160ff1660781461376e5761138960176000878460ff168151811061374e5761374e614e07565b602002602001015160ff168152602001908152602001600020541061379f565b607860005260176020527f1e0e657bdfc7d3d523657bb82aa6f2c628a4caf6e2f7839556e82479d4362f0654610bb9115b6137eb5760405162461bcd60e51b815260206004820152601e60248201527f696e76616c69642063617264496e76656e746f727920706f736974696f6e00006044820152606401610ed3565b60176000868360ff168151811061380457613804614e07565b602002602001015160ff168152602001908152602001600020600081548092919061382e90615167565b90915550506001600160a01b03871660009081526019602052604081208651909190879060ff851690811061386557613865614e07565b602002602001015160ff1660ff168152602001908152602001600020600081819054906101000a900460ff168092919061389e90614e6c565b91906101000a81548160ff021916908360ff1602179055505080806138c290614e6c565b915050613700565b507fbabe8f5e83e93ab103ddf917b4292a19335a5128b3530bedd896a681cdd945e38685876040516138fe93929190615447565b60405180910390a1505050505050565b611c5781613f92565b6007546001600160a01b03163314611f865760405162461bcd60e51b815260206004820181905260248201527f4f776e61626c653a2063616c6c6572206973206e6f7420746865206f776e65726044820152606401610ed3565b600780546001600160a01b038381166001600160a01b0319831681179093556040519116919082907f8be0079c531659141344cd1fd0a4f28419497f9722a3daafe3b4186f6b6457e090600090a35050565b816001600160a01b0316836001600160a01b031603613a245760405162461bcd60e51b815260206004820152601960248201527f4552433732313a20617070726f766520746f2063616c6c6572000000000000006044820152606401610ed3565b6001600160a01b03838116600081815260056020908152604080832094871680845294825291829020805460ff191686151590811790915591519182527f17307eab39ab6107e8899845ad3d59bd9653f200f220920489ca2b5937696c31910160405180910390a3505050565b613a9c8484846132e7565b613aa884848484613fd2565b6117615760405162461bcd60e51b8152600401610ed39061547b565b606081600003613aeb5750506040805180820190915260018152600360fc1b602082015290565b8160005b8115613b155780613aff81615167565b9150613b0e9050600a83615153565b9150613aef565b6000816001600160401b03811115613b2f57613b2f6147ea565b6040519080825280601f01601f191660200182016040528015613b59576020820181803683370190505b5090505b841561125857613b6e60018361506c565b9150613b7b600a86615058565b613b8690603061502f565b60f81b818381518110613b9b57613b9b614e07565b60200101906001600160f81b031916908160001a905350613bbd600a86615153565b9450613b5d565b6060613bcf826130d0565b60008281526006602052604081208054613be890614e8b565b80601f0160208091040260200160405190810160405280929190818152602001828054613c1490614e8b565b8015613c615780601f10613c3657610100808354040283529160200191613c61565b820191906000526020600020905b815481529060010190602001808311613c4457829003601f168201915b505050505090506000613c7f60408051602081019091526000815290565b90508051600003613c91575092915050565b815115613cc3578082604051602001613cab9291906154cd565b60405160208183030381529060405292505050919050565b611258846140d0565b60006001600160e01b031982166380ac58cd60e01b1480613cfd57506001600160e01b03198216635b5e139f60e01b145b806109e357506301ffc9a760e01b6001600160e01b03198316146109e3565b6000808251604103613d525760208301516040840151606085015160001a613d4687828585614144565b94509450505050613d5a565b506000905060025b9250929050565b6000816004811115613d7557613d756154fc565b03613d7d5750565b6001816004811115613d9157613d916154fc565b03613dde5760405162461bcd60e51b815260206004820152601860248201527f45434453413a20696e76616c6964207369676e617475726500000000000000006044820152606401610ed3565b6002816004811115613df257613df26154fc565b03613e3f5760405162461bcd60e51b815260206004820152601f60248201527f45434453413a20696e76616c6964207369676e6174757265206c656e677468006044820152606401610ed3565b6003816004811115613e5357613e536154fc565b03611c575760405162461bcd60e51b815260206004820152602260248201527f45434453413a20696e76616c6964207369676e6174757265202773272076616c604482015261756560f01b6064820152608401610ed3565b611c5781614208565b61171e828260405180602001604052806000815250614229565b6000828152600260205260409020546001600160a01b0316613f495760405162461bcd60e51b815260206004820152602e60248201527f45524337323155524953746f726167653a2055524920736574206f66206e6f6e60448201526d32bc34b9ba32b73a103a37b5b2b760911b6064820152608401610ed3565b6000828152600660205260409020613f61828261521f565b506040518281527ff8e1a15aba9398e019f0b49df1a4fde98ee17ae345cb5f6b5e2c27f5033e8ce790602001611715565b613f9b8161425c565b60008181526006602052604090208054613fb490614e8b565b159050611c57576000818152600660205260408120611c57916145e6565b60006001600160a01b0384163b156140c857604051630a85bd0160e11b81526001600160a01b0385169063150b7a0290614016903390899088908890600401615512565b6020604051808303816000875af1925050508015614051575060408051601f3d908101601f1916820190925261404e9181019061554f565b60015b6140ae573d80801561407f576040519150601f19603f3d011682016040523d82523d6000602084013e614084565b606091505b5080516000036140a65760405162461bcd60e51b8152600401610ed39061547b565b805181602001fd5b6001600160e01b031916630a85bd0160e11b149050611258565b506001611258565b60606140db826130d0565b60006140f260408051602081019091526000815290565b90506000815111614112576040518060200160405280600081525061413d565b8061411c846142f1565b60405160200161412d9291906154cd565b6040516020818303038152906040525b9392505050565b6000807f7fffffffffffffffffffffffffffffff5d576e7357a4501ddfe92f46681b20a083111561417b57506000905060036141ff565b6040805160008082526020820180845289905260ff881692820192909252606081018690526080810185905260019060a0016020604051602081039080840390855afa1580156141cf573d6000803e3d6000fd5b5050604051601f1901519150506001600160a01b0381166141f8576000600192509250506141ff565b9150600090505b94509492505050565b60006a636f6e736f6c652e6c6f679050600080835160208501845afa505050565b6142338383614383565b6142406000848484613fd2565b610f745760405162461bcd60e51b8152600401610ed39061547b565b600061426782611d61565b905061427282611d61565b600083815260046020908152604080832080546001600160a01b03199081169091556001600160a01b0385168085526003845282852080546000190190558785526002909352818420805490911690555192935084927fddf252ad1be2c89b69c2b068fc378daa952ba7f163c4a11628f55a4df523b3ef908390a45050565b606060006142fe8361450e565b60010190506000816001600160401b0381111561431d5761431d6147ea565b6040519080825280601f01601f191660200182016040528015614347576020820181803683370190505b5090508181016020015b600019016f181899199a1a9b1b9c1cb0b131b232b360811b600a86061a8153600a850494508461435157509392505050565b6001600160a01b0382166143d95760405162461bcd60e51b815260206004820181905260248201527f4552433732313a206d696e7420746f20746865207a65726f20616464726573736044820152606401610ed3565b6000818152600260205260409020546001600160a01b03161561443e5760405162461bcd60e51b815260206004820152601c60248201527f4552433732313a20746f6b656e20616c7265616479206d696e746564000000006044820152606401610ed3565b6000818152600260205260409020546001600160a01b0316156144a35760405162461bcd60e51b815260206004820152601c60248201527f4552433732313a20746f6b656e20616c7265616479206d696e746564000000006044820152606401610ed3565b6001600160a01b038216600081815260036020908152604080832080546001019055848352600290915280822080546001600160a01b0319168417905551839291907fddf252ad1be2c89b69c2b068fc378daa952ba7f163c4a11628f55a4df523b3ef908290a45050565b60008072184f03e93ff9f4daa797ed6e38ed64bf6a1f0160401b831061454d5772184f03e93ff9f4daa797ed6e38ed64bf6a1f0160401b830492506040015b6d04ee2d6d415b85acef81000000008310614579576d04ee2d6d415b85acef8100000000830492506020015b662386f26fc10000831061459757662386f26fc10000830492506010015b6305f5e10083106145af576305f5e100830492506008015b61271083106145c357612710830492506004015b606483106145d5576064830492506002015b600a83106109e35760010192915050565b5080546145f290614e8b565b6000825580601f10614602575050565b601f016020900490600052602060002090810190611c5791905b80821115614630576000815560010161461c565b5090565b6001600160e01b031981168114611c5757600080fd5b60006020828403121561465c57600080fd5b813561413d81614634565b6001600160a01b0381168114611c5757600080fd5b60006020828403121561468e57600080fd5b813561413d81614667565b600081518084526020808501945080840160005b838110156146cc57815160ff16875295820195908201906001016146ad565b509495945050505050565b6060815260006146ea6060830186614699565b6020838203818501526146fd8287614699565b8481036040860152855180825282870193509082019060005b81811015614734578451151583529383019391830191600101614716565b509098975050505050505050565b60005b8381101561475d578181015183820152602001614745565b50506000910152565b6000815180845261477e816020860160208601614742565b601f01601f19169290920160200192915050565b60208152600061413d6020830184614766565b6000602082840312156147b757600080fd5b5035919050565b600080604083850312156147d157600080fd5b82356147dc81614667565b946020939093013593505050565b634e487b7160e01b600052604160045260246000fd5b604051601f8201601f191681016001600160401b0381118282101715614828576148286147ea565b604052919050565b803560ff8116811461484157600080fd5b919050565b600082601f83011261485757600080fd5b813560206001600160401b03821115614872576148726147ea565b8160051b614881828201614800565b928352848101820192828101908785111561489b57600080fd5b83870192505b848310156148c1576148b283614830565b825291830191908301906148a1565b979650505050505050565b60008083601f8401126148de57600080fd5b5081356001600160401b038111156148f557600080fd5b602083019150836020828501011115613d5a57600080fd5b6000806000806060858703121561492357600080fd5b8435935060208501356001600160401b038082111561494157600080fd5b61494d88838901614846565b9450604087013591508082111561496357600080fd5b50614970878288016148cc565b95989497509550505050565b6000806040838503121561498f57600080fd5b823561499a81614667565b91506149a860208401614830565b90509250929050565b60008083601f8401126149c357600080fd5b5081356001600160401b038111156149da57600080fd5b6020830191508360208260051b8501011115613d5a57600080fd5b60008060208385031215614a0857600080fd5b82356001600160401b03811115614a1e57600080fd5b614a2a858286016149b1565b90969095509350505050565b600080600060608486031215614a4b57600080fd5b8335614a5681614667565b92506020840135614a6681614667565b929592945050506040919091013590565b600080600060608486031215614a8c57600080fd5b8335614a9781614667565b92506020840135915060408401356001600160401b03811115614ab957600080fd5b614ac586828701614846565b9150509250925092565b8015158114611c5757600080fd5b600060208284031215614aef57600080fd5b813561413d81614acf565b60006001600160401b03831115614b1357614b136147ea565b614b26601f8401601f1916602001614800565b9050828152838383011115614b3a57600080fd5b828260208301376000602084830101529392505050565b600082601f830112614b6257600080fd5b61413d83833560208501614afa565b60008060408385031215614b8457600080fd5b82356001600160401b0380821115614b9b57600080fd5b614ba786838701614b51565b93506020850135915080821115614bbd57600080fd5b50614bca85828601614b51565b9150509250929050565b600080600060408486031215614be957600080fd5b8335614bf481614667565b925060208401356001600160401b03811115614c0f57600080fd5b614c1b868287016149b1565b9497909650939450505050565b60008060408385031215614c3b57600080fd5b8235614c4681614667565b91506020830135614c5681614acf565b809150509250929050565b60008060008060808587031215614c7757600080fd5b8435614c8281614667565b9350614c9060208601614830565b92506040850135614ca081614667565b9150614cae60608601614830565b905092959194509250565b60008060008060808587031215614ccf57600080fd5b8435614cda81614667565b93506020850135614cea81614667565b92506040850135915060608501356001600160401b03811115614d0c57600080fd5b8501601f81018713614d1d57600080fd5b614d2c87823560208401614afa565b91505092959194509250565b600060208284031215614d4a57600080fd5b61413d82614830565b600080600080600060808688031215614d6b57600080fd5b8535614d7681614667565b94506020860135935060408601356001600160401b0380821115614d9957600080fd5b614da589838a01614846565b94506060880135915080821115614dbb57600080fd5b50614dc8888289016148cc565b969995985093965092949392505050565b60008060408385031215614dec57600080fd5b8235614df781614667565b91506020830135614c5681614667565b634e487b7160e01b600052603260045260246000fd5b6001600160a01b0392909216825260ff16602082015260400190565b600060208284031215614e4b57600080fd5b815161413d81614acf565b634e487b7160e01b600052601160045260246000fd5b600060ff821660ff8103614e8257614e82614e56565b60010192915050565b600181811c90821680614e9f57607f821691505b602082108103614ebf57634e487b7160e01b600052602260045260246000fd5b50919050565b60208082526023908201527f4f6e6c79206f776e6572732063616e2063616c6c20746869732066756e63746960408201526237b71760e91b606082015260800190565b60208082526010908201526f24b73b30b634b21030b2323932b9b99760811b604082015260600190565b6bffffffffffffffffffffffff198460601b1681528260148201526000603482018351602080860160005b83811015614f7c57815160ff1685529382019390820190600101614f5d565b50507f30786631644437313839356534396231353633363933393639646535303839388352693139376344463334383160b01b9083015250602a0195945050505050565b60208082526032908201527f4f6e6c792067616d6d61206f666665727320636f6e74726163742063616e206360408201527130b636103a3434b990333ab731ba34b7b71760711b606082015260800190565b600060ff82168061502557615025614e56565b6000190192915050565b808201808211156109e3576109e3614e56565b634e487b7160e01b600052601260045260246000fd5b60008261506757615067615042565b500690565b818103818111156109e3576109e3614e56565b6020808252602d908201527f4552433732313a2063616c6c6572206973206e6f7420746f6b656e206f776e6560408201526c1c881bdc88185c1c1c9bdd9959609a1b606082015260800190565b6020808252601c908201527f596f7520646f6573206e6f742068617665207468697320636172642e00000000604082015260600190565b60208082526030908201527f5468697320636172642068617320616e206f666665722c2069742063616e6e6f60408201526f3a103132903a3930b739b332b932b21760811b606082015260800190565b60008261516257615162615042565b500490565b60006001820161517957615179614e56565b5060010190565b60208082526031908201527f4f6e6c792067616d6d61207061636b7320636f6e74726163742063616e2063616040820152703636103a3434b990333ab731ba34b7b71760791b606082015260800190565b601f821115610f7457600081815260208120601f850160051c810160208610156151f85750805b601f850160051c820191505b8181101561521757828155600101615204565b505050505050565b81516001600160401b03811115615238576152386147ea565b61524c816152468454614e8b565b846151d1565b602080601f83116001811461528157600084156152695750858301515b600019600386901b1c1916600185901b178555615217565b600085815260208120601f198616915b828110156152b057888601518255948401946001909101908401615291565b50858210156152ce5787850151600019600388901b60f8161c191681555b5050505050600190811b01905550565b6040815260006152f16040830185614766565b82810360208401526153038185614766565b95945050505050565b600080865461531a81614e8b565b60018281168015615332576001811461534757615376565b60ff1984168752821515830287019450615376565b8a60005260208060002060005b8581101561536d5781548a820152908401908201615354565b50505082870194505b50505050855161538a818360208a01614742565b855191019061539d818360208901614742565b84519101906153b0818360208801614742565b019695505050505050565b6040815260006153ce6040830185614766565b905060018060a01b03831660208301529392505050565b60208082526025908201527f4552433732313a207472616e736665722066726f6d20696e636f72726563742060408201526437bbb732b960d91b606082015260800190565b60006020828403121561543c57600080fd5b815161413d81614667565b6001600160a01b038416815260606020820181905260009061546b90830185614699565b9050826040830152949350505050565b60208082526032908201527f4552433732313a207472616e7366657220746f206e6f6e20455243373231526560408201527131b2b4bb32b91034b6b83632b6b2b73a32b960711b606082015260800190565b600083516154df818460208801614742565b8351908301906154f3818360208801614742565b01949350505050565b634e487b7160e01b600052602160045260246000fd5b6001600160a01b038581168252841660208201526040810183905260806060820181905260009061554590830184614766565b9695505050505050565b60006020828403121561556157600080fd5b815161413d8161463456fea2646970667358221220a30e5c8ae783f0c75c7232c4ab4e649facbe93737fb5a9fcbd643a00d4206c6964736f6c63430008140033",
  "linkReferences": {},
  "deployedLinkReferences": {}
}