{
  "_format": "hh-sol-artifact-1",
  "contractName": "NofGammaCardsV5",
  "sourceName": "contracts/gamma/GammaCards.v5.sol",
  "abi": [
    {
      "inputs": [],
      "stateMutability": "nonpayable",
      "type": "constructor"
    },
    {
      "anonymous": false,
      "inputs": [
        {
          "indexed": false,
          "internalType": "address",
          "name": "player",
          "type": "address"
        },
        {
          "indexed": false,
          "internalType": "uint8",
          "name": "albumClass",
          "type": "uint8"
        }
      ],
      "name": "AlbumCompleted",
      "type": "event"
    },
    {
      "anonymous": false,
      "inputs": [
        {
          "indexed": true,
          "internalType": "address",
          "name": "owner",
          "type": "address"
        },
        {
          "indexed": true,
          "internalType": "address",
          "name": "approved",
          "type": "address"
        },
        {
          "indexed": true,
          "internalType": "uint256",
          "name": "tokenId",
          "type": "uint256"
        }
      ],
      "name": "Approval",
      "type": "event"
    },
    {
      "anonymous": false,
      "inputs": [
        {
          "indexed": true,
          "internalType": "address",
          "name": "owner",
          "type": "address"
        },
        {
          "indexed": true,
          "internalType": "address",
          "name": "operator",
          "type": "address"
        },
        {
          "indexed": false,
          "internalType": "bool",
          "name": "approved",
          "type": "bool"
        }
      ],
      "name": "ApprovalForAll",
      "type": "event"
    },
    {
      "anonymous": false,
      "inputs": [
        {
          "indexed": false,
          "internalType": "uint256",
          "name": "_fromTokenId",
          "type": "uint256"
        },
        {
          "indexed": false,
          "internalType": "uint256",
          "name": "_toTokenId",
          "type": "uint256"
        }
      ],
      "name": "BatchMetadataUpdate",
      "type": "event"
    },
    {
      "anonymous": false,
      "inputs": [
        {
          "indexed": false,
          "internalType": "address",
          "name": "player",
          "type": "address"
        },
        {
          "indexed": false,
          "internalType": "uint256",
          "name": "cardTokenId",
          "type": "uint256"
        },
        {
          "indexed": false,
          "internalType": "uint256",
          "name": "albumTokenId",
          "type": "uint256"
        }
      ],
      "name": "CardPasted",
      "type": "event"
    },
    {
      "anonymous": false,
      "inputs": [
        {
          "indexed": false,
          "internalType": "address",
          "name": "from",
          "type": "address"
        },
        {
          "indexed": false,
          "internalType": "address",
          "name": "to",
          "type": "address"
        },
        {
          "indexed": false,
          "internalType": "uint8",
          "name": "cardNumber",
          "type": "uint8"
        }
      ],
      "name": "CardTransfered",
      "type": "event"
    },
    {
      "anonymous": false,
      "inputs": [
        {
          "indexed": false,
          "internalType": "address",
          "name": "user",
          "type": "address"
        },
        {
          "indexed": false,
          "internalType": "uint8[]",
          "name": "cardsNumber",
          "type": "uint8[]"
        }
      ],
      "name": "CardsBurned",
      "type": "event"
    },
    {
      "anonymous": false,
      "inputs": [
        {
          "indexed": false,
          "internalType": "address",
          "name": "from",
          "type": "address"
        },
        {
          "indexed": false,
          "internalType": "address",
          "name": "to",
          "type": "address"
        },
        {
          "indexed": false,
          "internalType": "uint8[]",
          "name": "cardNumber",
          "type": "uint8[]"
        }
      ],
      "name": "CardsTransfered",
      "type": "event"
    },
    {
      "anonymous": false,
      "inputs": [
        {
          "indexed": false,
          "internalType": "address",
          "name": "receiver",
          "type": "address"
        },
        {
          "indexed": false,
          "internalType": "uint256",
          "name": "amount",
          "type": "uint256"
        }
      ],
      "name": "EmergencyWithdrawal",
      "type": "event"
    },
    {
      "anonymous": false,
      "inputs": [
        {
          "indexed": false,
          "internalType": "uint256",
          "name": "_tokenId",
          "type": "uint256"
        }
      ],
      "name": "MetadataUpdate",
      "type": "event"
    },
    {
      "anonymous": false,
      "inputs": [
        {
          "indexed": false,
          "internalType": "address",
          "name": "newGammaOffersContract",
          "type": "address"
        }
      ],
      "name": "NewGammaOffersContract",
      "type": "event"
    },
    {
      "anonymous": false,
      "inputs": [
        {
          "indexed": false,
          "internalType": "address",
          "name": "newGammaPacksContract",
          "type": "address"
        }
      ],
      "name": "NewGammaPacksContract",
      "type": "event"
    },
    {
      "anonymous": false,
      "inputs": [
        {
          "indexed": false,
          "internalType": "address",
          "name": "newGammaTicketContract",
          "type": "address"
        }
      ],
      "name": "NewGammaTicketsContract",
      "type": "event"
    },
    {
      "anonymous": false,
      "inputs": [
        {
          "indexed": false,
          "internalType": "address",
          "name": "newSigner",
          "type": "address"
        }
      ],
      "name": "NewSigner",
      "type": "event"
    },
    {
      "anonymous": false,
      "inputs": [
        {
          "indexed": false,
          "internalType": "string",
          "name": "newMainUri",
          "type": "string"
        },
        {
          "indexed": false,
          "internalType": "string",
          "name": "newSecondaryUri",
          "type": "string"
        }
      ],
      "name": "NewUris",
      "type": "event"
    },
    {
      "anonymous": false,
      "inputs": [
        {
          "indexed": false,
          "internalType": "address",
          "name": "from",
          "type": "address"
        },
        {
          "indexed": false,
          "internalType": "address",
          "name": "to",
          "type": "address"
        },
        {
          "indexed": false,
          "internalType": "uint8",
          "name": "cardNumberFrom",
          "type": "uint8"
        },
        {
          "indexed": false,
          "internalType": "uint8",
          "name": "cardNumberTo",
          "type": "uint8"
        }
      ],
      "name": "OfferCardsExchanged",
      "type": "event"
    },
    {
      "anonymous": false,
      "inputs": [
        {
          "indexed": true,
          "internalType": "address",
          "name": "previousOwner",
          "type": "address"
        },
        {
          "indexed": true,
          "internalType": "address",
          "name": "newOwner",
          "type": "address"
        }
      ],
      "name": "OwnershipTransferred",
      "type": "event"
    },
    {
      "anonymous": false,
      "inputs": [
        {
          "indexed": false,
          "internalType": "address",
          "name": "player",
          "type": "address"
        },
        {
          "indexed": false,
          "internalType": "uint8[]",
          "name": "packData",
          "type": "uint8[]"
        },
        {
          "indexed": false,
          "internalType": "uint256",
          "name": "packNumber",
          "type": "uint256"
        }
      ],
      "name": "PackOpened",
      "type": "event"
    },
    {
      "anonymous": false,
      "inputs": [
        {
          "indexed": true,
          "internalType": "address",
          "name": "from",
          "type": "address"
        },
        {
          "indexed": true,
          "internalType": "address",
          "name": "to",
          "type": "address"
        },
        {
          "indexed": true,
          "internalType": "uint256",
          "name": "tokenId",
          "type": "uint256"
        }
      ],
      "name": "Transfer",
      "type": "event"
    },
    {
      "inputs": [],
      "name": "DAI_TOKEN",
      "outputs": [
        {
          "internalType": "address",
          "name": "",
          "type": "address"
        }
      ],
      "stateMutability": "view",
      "type": "function"
    },
    {
      "inputs": [],
      "name": "_tokenIdCounter",
      "outputs": [
        {
          "internalType": "uint256",
          "name": "",
          "type": "uint256"
        }
      ],
      "stateMutability": "view",
      "type": "function"
    },
    {
      "inputs": [
        {
          "internalType": "address",
          "name": "_newOwner",
          "type": "address"
        }
      ],
      "name": "addOwner",
      "outputs": [],
      "stateMutability": "nonpayable",
      "type": "function"
    },
    {
      "inputs": [
        {
          "internalType": "address",
          "name": "_newSigner",
          "type": "address"
        }
      ],
      "name": "addSigner",
      "outputs": [],
      "stateMutability": "nonpayable",
      "type": "function"
    },
    {
      "inputs": [
        {
          "internalType": "address",
          "name": "to",
          "type": "address"
        },
        {
          "internalType": "uint256",
          "name": "tokenId",
          "type": "uint256"
        }
      ],
      "name": "approve",
      "outputs": [],
      "stateMutability": "nonpayable",
      "type": "function"
    },
    {
      "inputs": [
        {
          "internalType": "address",
          "name": "owner",
          "type": "address"
        }
      ],
      "name": "balanceOf",
      "outputs": [
        {
          "internalType": "uint256",
          "name": "",
          "type": "uint256"
        }
      ],
      "stateMutability": "view",
      "type": "function"
    },
    {
      "inputs": [],
      "name": "baseUri",
      "outputs": [
        {
          "internalType": "string",
          "name": "",
          "type": "string"
        }
      ],
      "stateMutability": "view",
      "type": "function"
    },
    {
      "inputs": [
        {
          "internalType": "uint256",
          "name": "tokenId",
          "type": "uint256"
        }
      ],
      "name": "burn",
      "outputs": [],
      "stateMutability": "nonpayable",
      "type": "function"
    },
    {
      "inputs": [
        {
          "internalType": "uint8[]",
          "name": "cardNumbers",
          "type": "uint8[]"
        }
      ],
      "name": "burnCards",
      "outputs": [],
      "stateMutability": "nonpayable",
      "type": "function"
    },
    {
      "inputs": [
        {
          "internalType": "address",
          "name": "user",
          "type": "address"
        }
      ],
      "name": "burnedCards",
      "outputs": [
        {
          "internalType": "uint256",
          "name": "amount",
          "type": "uint256"
        }
      ],
      "stateMutability": "view",
      "type": "function"
    },
    {
      "inputs": [
        {
          "internalType": "uint256",
          "name": "tokenId",
          "type": "uint256"
        }
      ],
      "name": "cards",
      "outputs": [
        {
          "internalType": "uint256",
          "name": "tokenId",
          "type": "uint256"
        },
        {
          "internalType": "uint256",
          "name": "number",
          "type": "uint256"
        },
        {
          "internalType": "bool",
          "name": "pasted",
          "type": "bool"
        },
        {
          "internalType": "uint8",
          "name": "class",
          "type": "uint8"
        },
        {
          "internalType": "uint256",
          "name": "completion",
          "type": "uint256"
        }
      ],
      "stateMutability": "view",
      "type": "function"
    },
    {
      "inputs": [
        {
          "internalType": "address",
          "name": "user",
          "type": "address"
        },
        {
          "internalType": "uint8",
          "name": "cardNumber",
          "type": "uint8"
        }
      ],
      "name": "cardsByUser",
      "outputs": [
        {
          "internalType": "uint8",
          "name": "amount",
          "type": "uint8"
        }
      ],
      "stateMutability": "view",
      "type": "function"
    },
    {
      "inputs": [
        {
          "internalType": "uint256",
          "name": "cardNumber",
          "type": "uint256"
        }
      ],
      "name": "cardsInventory",
      "outputs": [
        {
          "internalType": "uint256",
          "name": "amount",
          "type": "uint256"
        }
      ],
      "stateMutability": "view",
      "type": "function"
    },
    {
      "inputs": [
        {
          "internalType": "uint8",
          "name": "_maxPacksToOpenAtOnce",
          "type": "uint8"
        }
      ],
      "name": "changeMaxPacksToOpenAtOnce",
      "outputs": [],
      "stateMutability": "nonpayable",
      "type": "function"
    },
    {
      "inputs": [
        {
          "internalType": "uint256",
          "name": "newPackPrice",
          "type": "uint256"
        }
      ],
      "name": "changePackPrice",
      "outputs": [],
      "stateMutability": "nonpayable",
      "type": "function"
    },
    {
      "inputs": [
        {
          "internalType": "bool",
          "name": "required",
          "type": "bool"
        }
      ],
      "name": "changeRequireOfferValidationInMint",
      "outputs": [],
      "stateMutability": "nonpayable",
      "type": "function"
    },
    {
      "inputs": [
        {
          "internalType": "bool",
          "name": "required",
          "type": "bool"
        }
      ],
      "name": "changeRequireOfferValidationInTransfer",
      "outputs": [],
      "stateMutability": "nonpayable",
      "type": "function"
    },
    {
      "inputs": [
        {
          "internalType": "bool",
          "name": "required",
          "type": "bool"
        }
      ],
      "name": "changeRequireOpenPackSignerValidation",
      "outputs": [],
      "stateMutability": "nonpayable",
      "type": "function"
    },
    {
      "inputs": [
        {
          "internalType": "uint256",
          "name": "amount",
          "type": "uint256"
        }
      ],
      "name": "emergencyWithdraw",
      "outputs": [],
      "stateMutability": "nonpayable",
      "type": "function"
    },
    {
      "inputs": [
        {
          "internalType": "address",
          "name": "from",
          "type": "address"
        },
        {
          "internalType": "uint8",
          "name": "cardNumberFrom",
          "type": "uint8"
        },
        {
          "internalType": "address",
          "name": "to",
          "type": "address"
        },
        {
          "internalType": "uint8",
          "name": "cardNumberTo",
          "type": "uint8"
        }
      ],
      "name": "exchangeCardsOffer",
      "outputs": [],
      "stateMutability": "nonpayable",
      "type": "function"
    },
    {
      "inputs": [],
      "name": "finishAlbum",
      "outputs": [
        {
          "internalType": "bool",
          "name": "",
          "type": "bool"
        }
      ],
      "stateMutability": "nonpayable",
      "type": "function"
    },
    {
      "inputs": [],
      "name": "gammaOffersContract",
      "outputs": [
        {
          "internalType": "contract IgammaOffersContract",
          "name": "",
          "type": "address"
        }
      ],
      "stateMutability": "view",
      "type": "function"
    },
    {
      "inputs": [],
      "name": "gammaPacksContract",
      "outputs": [
        {
          "internalType": "contract IgammaPacksContract",
          "name": "",
          "type": "address"
        }
      ],
      "stateMutability": "view",
      "type": "function"
    },
    {
      "inputs": [],
      "name": "gammaTicketsContract",
      "outputs": [
        {
          "internalType": "contract IgammaTicketsContract",
          "name": "",
          "type": "address"
        }
      ],
      "stateMutability": "view",
      "type": "function"
    },
    {
      "inputs": [
        {
          "internalType": "uint256",
          "name": "tokenId",
          "type": "uint256"
        }
      ],
      "name": "getApproved",
      "outputs": [
        {
          "internalType": "address",
          "name": "",
          "type": "address"
        }
      ],
      "stateMutability": "view",
      "type": "function"
    },
    {
      "inputs": [
        {
          "internalType": "address",
          "name": "user",
          "type": "address"
        }
      ],
      "name": "getBurnedCardQttyByUser",
      "outputs": [
        {
          "internalType": "uint256",
          "name": "",
          "type": "uint256"
        }
      ],
      "stateMutability": "view",
      "type": "function"
    },
    {
      "inputs": [
        {
          "internalType": "address",
          "name": "user",
          "type": "address"
        },
        {
          "internalType": "uint8",
          "name": "cardNum",
          "type": "uint8"
        }
      ],
      "name": "getCardQuantityByUser",
      "outputs": [
        {
          "internalType": "uint8",
          "name": "",
          "type": "uint8"
        }
      ],
      "stateMutability": "view",
      "type": "function"
    },
    {
      "inputs": [
        {
          "internalType": "address",
          "name": "user",
          "type": "address"
        }
      ],
      "name": "getCardsByUser",
      "outputs": [
        {
          "internalType": "uint8[]",
          "name": "",
          "type": "uint8[]"
        },
        {
          "internalType": "uint8[]",
          "name": "",
          "type": "uint8[]"
        },
        {
          "internalType": "bool[]",
          "name": "",
          "type": "bool[]"
        }
      ],
      "stateMutability": "view",
      "type": "function"
    },
    {
      "inputs": [],
      "name": "getLotteryPrize",
      "outputs": [
        {
          "internalType": "uint256",
          "name": "",
          "type": "uint256"
        }
      ],
      "stateMutability": "view",
      "type": "function"
    },
    {
      "inputs": [
        {
          "internalType": "address",
          "name": "user",
          "type": "address"
        },
        {
          "internalType": "uint8",
          "name": "cardNum",
          "type": "uint8"
        }
      ],
      "name": "hasCard",
      "outputs": [
        {
          "internalType": "bool",
          "name": "has",
          "type": "bool"
        }
      ],
      "stateMutability": "view",
      "type": "function"
    },
    {
      "inputs": [
        {
          "internalType": "address",
          "name": "user",
          "type": "address"
        },
        {
          "internalType": "uint8",
          "name": "cardNumber",
          "type": "uint8"
        }
      ],
      "name": "hasCardByOffer",
      "outputs": [
        {
          "internalType": "bool",
          "name": "has",
          "type": "bool"
        }
      ],
      "stateMutability": "view",
      "type": "function"
    },
    {
      "inputs": [
        {
          "internalType": "address",
          "name": "_daiTokenAddress",
          "type": "address"
        },
        {
          "internalType": "address",
          "name": "_gammaPacksContract",
          "type": "address"
        },
        {
          "internalType": "address",
          "name": "_gammaOffersContract",
          "type": "address"
        },
        {
          "internalType": "address",
          "name": "_gammaTicketsContract",
          "type": "address"
        },
        {
          "internalType": "string",
          "name": "_baseUri",
          "type": "string"
        },
        {
          "internalType": "address",
          "name": "_signer",
          "type": "address"
        }
      ],
      "name": "init",
      "outputs": [],
      "stateMutability": "nonpayable",
      "type": "function"
    },
    {
      "inputs": [
        {
          "internalType": "address",
          "name": "owner",
          "type": "address"
        },
        {
          "internalType": "address",
          "name": "operator",
          "type": "address"
        }
      ],
      "name": "isApprovedForAll",
      "outputs": [
        {
          "internalType": "bool",
          "name": "",
          "type": "bool"
        }
      ],
      "stateMutability": "view",
      "type": "function"
    },
    {
      "inputs": [
        {
          "internalType": "address",
          "name": "user",
          "type": "address"
        }
      ],
      "name": "isOwner",
      "outputs": [
        {
          "internalType": "bool",
          "name": "",
          "type": "bool"
        }
      ],
      "stateMutability": "view",
      "type": "function"
    },
    {
      "inputs": [
        {
          "internalType": "address",
          "name": "user",
          "type": "address"
        }
      ],
      "name": "isSigner",
      "outputs": [
        {
          "internalType": "bool",
          "name": "",
          "type": "bool"
        }
      ],
      "stateMutability": "view",
      "type": "function"
    },
    {
      "inputs": [],
      "name": "lotteryPrizePercentage",
      "outputs": [
        {
          "internalType": "uint8",
          "name": "",
          "type": "uint8"
        }
      ],
      "stateMutability": "view",
      "type": "function"
    },
    {
      "inputs": [],
      "name": "mainAlbumPrize",
      "outputs": [
        {
          "internalType": "uint256",
          "name": "",
          "type": "uint256"
        }
      ],
      "stateMutability": "view",
      "type": "function"
    },
    {
      "inputs": [],
      "name": "mainUri",
      "outputs": [
        {
          "internalType": "string",
          "name": "",
          "type": "string"
        }
      ],
      "stateMutability": "view",
      "type": "function"
    },
    {
      "inputs": [],
      "name": "maxPacksToOpenAtOnce",
      "outputs": [
        {
          "internalType": "uint8",
          "name": "",
          "type": "uint8"
        }
      ],
      "stateMutability": "view",
      "type": "function"
    },
    {
      "inputs": [
        {
          "internalType": "uint8",
          "name": "cardNum",
          "type": "uint8"
        }
      ],
      "name": "mintCard",
      "outputs": [],
      "stateMutability": "nonpayable",
      "type": "function"
    },
    {
      "inputs": [],
      "name": "name",
      "outputs": [
        {
          "internalType": "string",
          "name": "",
          "type": "string"
        }
      ],
      "stateMutability": "view",
      "type": "function"
    },
    {
      "inputs": [
        {
          "internalType": "uint256",
          "name": "packNumber",
          "type": "uint256"
        },
        {
          "internalType": "uint8[]",
          "name": "packData",
          "type": "uint8[]"
        },
        {
          "internalType": "bytes",
          "name": "signature",
          "type": "bytes"
        }
      ],
      "name": "openPack",
      "outputs": [],
      "stateMutability": "nonpayable",
      "type": "function"
    },
    {
      "inputs": [
        {
          "internalType": "uint8",
          "name": "packsQuantity",
          "type": "uint8"
        },
        {
          "internalType": "uint256[]",
          "name": "packsNumber",
          "type": "uint256[]"
        },
        {
          "internalType": "uint8[][]",
          "name": "packsData",
          "type": "uint8[][]"
        },
        {
          "internalType": "bytes[]",
          "name": "signatures",
          "type": "bytes[]"
        }
      ],
      "name": "openPacks",
      "outputs": [],
      "stateMutability": "nonpayable",
      "type": "function"
    },
    {
      "inputs": [],
      "name": "owner",
      "outputs": [
        {
          "internalType": "address",
          "name": "",
          "type": "address"
        }
      ],
      "stateMutability": "view",
      "type": "function"
    },
    {
      "inputs": [
        {
          "internalType": "uint256",
          "name": "tokenId",
          "type": "uint256"
        }
      ],
      "name": "ownerOf",
      "outputs": [
        {
          "internalType": "address",
          "name": "",
          "type": "address"
        }
      ],
      "stateMutability": "view",
      "type": "function"
    },
    {
      "inputs": [],
      "name": "packPrice",
      "outputs": [
        {
          "internalType": "uint256",
          "name": "",
          "type": "uint256"
        }
      ],
      "stateMutability": "view",
      "type": "function"
    },
    {
      "inputs": [],
      "name": "prizesBalance",
      "outputs": [
        {
          "internalType": "uint256",
          "name": "",
          "type": "uint256"
        }
      ],
      "stateMutability": "view",
      "type": "function"
    },
    {
      "inputs": [
        {
          "internalType": "address",
          "name": "user",
          "type": "address"
        },
        {
          "internalType": "uint8",
          "name": "cardNumber",
          "type": "uint8"
        }
      ],
      "name": "removeCardByOffer",
      "outputs": [],
      "stateMutability": "nonpayable",
      "type": "function"
    },
    {
      "inputs": [
        {
          "internalType": "address",
          "name": "_ownerToRemove",
          "type": "address"
        }
      ],
      "name": "removeOwner",
      "outputs": [],
      "stateMutability": "nonpayable",
      "type": "function"
    },
    {
      "inputs": [
        {
          "internalType": "address",
          "name": "_signerToRemove",
          "type": "address"
        }
      ],
      "name": "removeSigner",
      "outputs": [],
      "stateMutability": "nonpayable",
      "type": "function"
    },
    {
      "inputs": [],
      "name": "renounceOwnership",
      "outputs": [],
      "stateMutability": "nonpayable",
      "type": "function"
    },
    {
      "inputs": [],
      "name": "requireOfferValidationInMint",
      "outputs": [
        {
          "internalType": "bool",
          "name": "",
          "type": "bool"
        }
      ],
      "stateMutability": "view",
      "type": "function"
    },
    {
      "inputs": [],
      "name": "requireOfferValidationInTransfer",
      "outputs": [
        {
          "internalType": "bool",
          "name": "",
          "type": "bool"
        }
      ],
      "stateMutability": "view",
      "type": "function"
    },
    {
      "inputs": [],
      "name": "requireOpenPackSignerValidation",
      "outputs": [
        {
          "internalType": "bool",
          "name": "",
          "type": "bool"
        }
      ],
      "stateMutability": "view",
      "type": "function"
    },
    {
      "inputs": [
        {
          "internalType": "address",
          "name": "user",
          "type": "address"
        },
        {
          "internalType": "uint8",
          "name": "cardNumber",
          "type": "uint8"
        }
      ],
      "name": "restoreCardByOffer",
      "outputs": [],
      "stateMutability": "nonpayable",
      "type": "function"
    },
    {
      "inputs": [
        {
          "internalType": "address",
          "name": "from",
          "type": "address"
        },
        {
          "internalType": "address",
          "name": "to",
          "type": "address"
        },
        {
          "internalType": "uint256",
          "name": "tokenId",
          "type": "uint256"
        }
      ],
      "name": "safeTransferFrom",
      "outputs": [],
      "stateMutability": "nonpayable",
      "type": "function"
    },
    {
      "inputs": [
        {
          "internalType": "address",
          "name": "from",
          "type": "address"
        },
        {
          "internalType": "address",
          "name": "to",
          "type": "address"
        },
        {
          "internalType": "uint256",
          "name": "tokenId",
          "type": "uint256"
        },
        {
          "internalType": "bytes",
          "name": "data",
          "type": "bytes"
        }
      ],
      "name": "safeTransferFrom",
      "outputs": [],
      "stateMutability": "nonpayable",
      "type": "function"
    },
    {
      "inputs": [],
      "name": "secondaryAlbumPrize",
      "outputs": [
        {
          "internalType": "uint256",
          "name": "",
          "type": "uint256"
        }
      ],
      "stateMutability": "view",
      "type": "function"
    },
    {
      "inputs": [],
      "name": "secondaryUri",
      "outputs": [
        {
          "internalType": "string",
          "name": "",
          "type": "string"
        }
      ],
      "stateMutability": "view",
      "type": "function"
    },
    {
      "inputs": [
        {
          "internalType": "address",
          "name": "operator",
          "type": "address"
        },
        {
          "internalType": "bool",
          "name": "approved",
          "type": "bool"
        }
      ],
      "name": "setApprovalForAll",
      "outputs": [],
      "stateMutability": "nonpayable",
      "type": "function"
    },
    {
      "inputs": [
        {
          "internalType": "address",
          "name": "_gammaOffersContract",
          "type": "address"
        }
      ],
      "name": "setGammaOffersContract",
      "outputs": [],
      "stateMutability": "nonpayable",
      "type": "function"
    },
    {
      "inputs": [
        {
          "internalType": "address",
          "name": "_gammaPacksContract",
          "type": "address"
        }
      ],
      "name": "setGammaPacksContract",
      "outputs": [],
      "stateMutability": "nonpayable",
      "type": "function"
    },
    {
      "inputs": [
        {
          "internalType": "address",
          "name": "_gammaTicketsContract",
          "type": "address"
        }
      ],
      "name": "setGammaTicketsContract",
      "outputs": [],
      "stateMutability": "nonpayable",
      "type": "function"
    },
    {
      "inputs": [
        {
          "internalType": "uint8",
          "name": "amount",
          "type": "uint8"
        }
      ],
      "name": "setLotteryPrizePercentage",
      "outputs": [],
      "stateMutability": "nonpayable",
      "type": "function"
    },
    {
      "inputs": [
        {
          "internalType": "uint256",
          "name": "amount",
          "type": "uint256"
        }
      ],
      "name": "setMainAlbumPrize",
      "outputs": [],
      "stateMutability": "nonpayable",
      "type": "function"
    },
    {
      "inputs": [
        {
          "internalType": "uint256",
          "name": "amount",
          "type": "uint256"
        }
      ],
      "name": "setPrizesBalance",
      "outputs": [],
      "stateMutability": "nonpayable",
      "type": "function"
    },
    {
      "inputs": [
        {
          "internalType": "uint256",
          "name": "amount",
          "type": "uint256"
        }
      ],
      "name": "setSecondaryAlbumPrize",
      "outputs": [],
      "stateMutability": "nonpayable",
      "type": "function"
    },
    {
      "inputs": [
        {
          "internalType": "string",
          "name": "newMainUri",
          "type": "string"
        },
        {
          "internalType": "string",
          "name": "newSecondaryUri",
          "type": "string"
        }
      ],
      "name": "setUris",
      "outputs": [],
      "stateMutability": "nonpayable",
      "type": "function"
    },
    {
      "inputs": [
        {
          "internalType": "bytes4",
          "name": "interfaceId",
          "type": "bytes4"
        }
      ],
      "name": "supportsInterface",
      "outputs": [
        {
          "internalType": "bool",
          "name": "",
          "type": "bool"
        }
      ],
      "stateMutability": "view",
      "type": "function"
    },
    {
      "inputs": [],
      "name": "symbol",
      "outputs": [
        {
          "internalType": "string",
          "name": "",
          "type": "string"
        }
      ],
      "stateMutability": "view",
      "type": "function"
    },
    {
      "inputs": [
        {
          "internalType": "address",
          "name": "user",
          "type": "address"
        }
      ],
      "name": "testAddCards",
      "outputs": [],
      "stateMutability": "nonpayable",
      "type": "function"
    },
    {
      "inputs": [
        {
          "internalType": "address",
          "name": "user",
          "type": "address"
        },
        {
          "internalType": "uint256",
          "name": "packNumber",
          "type": "uint256"
        },
        {
          "internalType": "uint8[]",
          "name": "packData",
          "type": "uint8[]"
        }
      ],
      "name": "testOpenPack",
      "outputs": [],
      "stateMutability": "nonpayable",
      "type": "function"
    },
    {
      "inputs": [
        {
          "internalType": "uint256",
          "name": "tokenId",
          "type": "uint256"
        }
      ],
      "name": "tokenURI",
      "outputs": [
        {
          "internalType": "string",
          "name": "",
          "type": "string"
        }
      ],
      "stateMutability": "view",
      "type": "function"
    },
    {
      "inputs": [
        {
          "internalType": "address",
          "name": "to",
          "type": "address"
        },
        {
          "internalType": "uint8",
          "name": "cardNumber",
          "type": "uint8"
        }
      ],
      "name": "transferCard",
      "outputs": [],
      "stateMutability": "nonpayable",
      "type": "function"
    },
    {
      "inputs": [
        {
          "internalType": "address",
          "name": "to",
          "type": "address"
        },
        {
          "internalType": "uint8[]",
          "name": "cardNumbers",
          "type": "uint8[]"
        }
      ],
      "name": "transferCards",
      "outputs": [],
      "stateMutability": "nonpayable",
      "type": "function"
    },
    {
      "inputs": [
        {
          "internalType": "address",
          "name": "from",
          "type": "address"
        },
        {
          "internalType": "address",
          "name": "to",
          "type": "address"
        },
        {
          "internalType": "uint256",
          "name": "tokenId",
          "type": "uint256"
        }
      ],
      "name": "transferFrom",
      "outputs": [],
      "stateMutability": "nonpayable",
      "type": "function"
    },
    {
      "inputs": [
        {
          "internalType": "address",
          "name": "newOwner",
          "type": "address"
        }
      ],
      "name": "transferOwnership",
      "outputs": [],
      "stateMutability": "nonpayable",
      "type": "function"
    },
    {
      "inputs": [
        {
          "internalType": "uint256",
          "name": "packNumber",
          "type": "uint256"
        },
        {
          "internalType": "uint8[]",
          "name": "packData",
          "type": "uint8[]"
        },
        {
          "internalType": "bytes",
          "name": "signature",
          "type": "bytes"
        }
      ],
      "name": "verifyPackSigner",
      "outputs": [
        {
          "internalType": "address",
          "name": "signer",
          "type": "address"
        }
      ],
      "stateMutability": "view",
      "type": "function"
    }
  ],
  "bytecode": "0x6080604052600f805460ff19908116600a179091556710a741a462780000601255600060135567d02ab486cedc0000601555670de0b6b3a7640000601655601780549091166032179055601a80546201010062ffffff199091161790553480156200006957600080fd5b506040518060400160405280600a81526020016947616d6d61436172647360b01b815250604051806040016040528060068152602001654e4f465f474360d01b8152508160009081620000bd9190620001ea565b506001620000cc8282620001ea565b505050620000e9620000e3620000ef60201b60201c565b620000f3565b620002b6565b3390565b600780546001600160a01b038381166001600160a01b0319831681179093556040519116919082907f8be0079c531659141344cd1fd0a4f28419497f9722a3daafe3b4186f6b6457e090600090a35050565b634e487b7160e01b600052604160045260246000fd5b600181811c908216806200017057607f821691505b6020821081036200019157634e487b7160e01b600052602260045260246000fd5b50919050565b601f821115620001e557600081815260208120601f850160051c81016020861015620001c05750805b601f850160051c820191505b81811015620001e157828155600101620001cc565b5050505b505050565b81516001600160401b0381111562000206576200020662000145565b6200021e816200021784546200015b565b8462000197565b602080601f8311600181146200025657600084156200023d5750858301515b600019600386901b1c1916600185901b178555620001e1565b600085815260208120601f198616915b82811015620002875788860151825594840194600190910190840162000266565b5085821015620002a65787850151600019600388901b60f8161c191681555b5050505050600190811b01905550565b615fa480620002c66000396000f3fe608060405234801561001057600080fd5b506004361061046a5760003560e01c80637cf86b721161024c578063a419811d11610146578063dbfc05cf116100c3578063e606df8711610087578063e606df8714610a6c578063e985e9c514610a7f578063eb12d61e14610abb578063f2fde38b14610ace578063f98fd28314610ae157600080fd5b8063dbfc05cf14610a22578063ddb975e814610a35578063dec3f6d914610a48578063e1883c6e14610a50578063e5db587a14610a6357600080fd5b8063c3461c071161010a578063c3461c07146109d9578063c87b56dd146109e1578063cafaa473146109f4578063d322b56314610a07578063d780c47714610a1a57600080fd5b8063a419811d1461097a578063ad1684fa1461098d578063b88d4fde146109a0578063ba6c0fbc146109b3578063bf400a6a146109c657600080fd5b80638dc10768116101d45780639abc8320116101985780639abc8320146109305780639c7f707f146109385780639f4415d81461094b578063a1af8ad414610954578063a22cb4651461096757600080fd5b80638dc107681461088f5780639038f41414610901578063915656641461090957806395d89b411461091b578063968841351461092357600080fd5b8063809eb3551161021b578063809eb3551461082157806384c4bd4b1461084f578063886eb60f146108585780638bf670c81461086b5780638da5cb5b1461087e57600080fd5b80637cf86b72146107af5780637de99bd9146107c25780637df73e27146107d55780637e50fa8f1461080157600080fd5b80632ca699e7116103685780635dde20d8116102e557806370a08231116102a957806370a082311461075b578063715018a61461076e5780637155a3ac146107765780637232d7d4146107895780637ce65f7b1461079c57600080fd5b80635dde20d8146106ef5780635e31ce481461070f5780636352211e1461072257806368cc5bc1146107355780637065cb481461074857600080fd5b806342842e0e1161032c57806342842e0e1461069a57806342966c68146106ad578063483823e8146106c0578063511b9307146106c95780635312ea8e146106dc57600080fd5b80632ca699e71461061e5780632f54bf6e146106315780632f9e026a1461065d57806330f5cc5814610670578063335c8b631461068357600080fd5b806314cca36a116103f657806320965a5f116103ba57806320965a5f146105c5578063225a993b146105d857806323b872dd146105e5578063241a08fe146105f8578063267b841d1461060b57600080fd5b806314cca36a14610566578063155e2f92146105795780631585cc4e1461058c578063173825d91461059f578063203335f6146105b257600080fd5b8063081812fc1161043d578063081812fc146104ed578063095ea7b3146105185780630e316ab71461052d578063128916dc146105405780631306952c1461055357600080fd5b806301ffc9a71461046f57806303900270146104975780630435dcaf146104b657806306fdde03146104d8575b600080fd5b61048261047d366004614e2f565b610af4565b60405190151581526020015b60405180910390f35b600f546104a49060ff1681565b60405160ff909116815260200161048e565b6104c96104c4366004614e61565b610b05565b60405161048e93929190614ebc565b6104e0610ec2565b60405161048e9190614f77565b6105006104fb366004614f8a565b610f54565b6040516001600160a01b03909116815260200161048e565b61052b610526366004614fa3565b610f7b565b005b61052b61053b366004614e61565b611095565b61052b61054e366004614e61565b61113a565b6105006105613660046150c0565b6111e4565b600a54610500906001600160a01b031681565b61052b61058736600461515a565b611272565b6104a461059a36600461515a565b6112ee565b61052b6105ad366004614e61565b611345565b61052b6105c0366004615259565b6113bb565b61052b6105d336600461534f565b61152a565b6017546104a49060ff1681565b61052b6105f3366004615390565b611b67565b61052b6106063660046153d1565b611b99565b61052b6106193660046150c0565b611bde565b61052b61062c36600461515a565b611beb565b61048261063f366004614e61565b6001600160a01b03166000908152600b602052604090205460ff1690565b600854610500906001600160a01b031681565b61052b61067e3660046153ec565b611e5f565b61068c60125481565b60405190815260200161048e565b61052b6106a8366004615390565b6120f5565b61052b6106bb366004614f8a565b612110565b61068c60165481565b601a546104829062010000900460ff1681565b61052b6106ea366004614f8a565b612141565b61068c6106fd366004614f8a565b601c6020526000908152604090205481565b61052b61071d366004614f8a565b612248565b610500610730366004614f8a565b6122b3565b61052b610743366004615452565b612313565b61052b610756366004614e61565b61235e565b61068c610769366004614e61565b6123d4565b61052b61245a565b61052b61078436600461515a565b61246e565b61052b610797366004614f8a565b6124cd565b61052b6107aa3660046153d1565b612577565b61068c6107bd366004614e61565b612622565b61052b6107d03660046154ef565b612666565b6104826107e3366004614e61565b6001600160a01b03166000908152600e602052604090205460ff1690565b61068c61080f366004614e61565b601d6020526000908152604090205481565b6104a461082f36600461515a565b601e60209081526000928352604080842090915290825290205460ff1681565b61068c60105481565b61048261086636600461515a565b61282d565b61048261087936600461515a565b612886565b6007546001600160a01b0316610500565b6108d161089d366004614f8a565b601b6020526000908152604090208054600182015460028301546003909301549192909160ff808316926101009004169085565b6040805195865260208601949094529115159284019290925260ff9091166060830152608082015260a00161048e565b6104826128b3565b601a5461048290610100900460ff1681565b6104e0612d55565b601a546104829060ff1681565b6104e0612d64565b61052b610946366004615589565b612df2565b61068c60155481565b61052b6109623660046155ec565b612e6c565b61052b610975366004615640565b613207565b61052b610988366004614e61565b613216565b61052b61099b366004615679565b6132b4565b61052b6109ae3660046156d1565b6135bf565b61052b6109c1366004614f8a565b6135f1565b61052b6109d43660046153d1565b6136a6565b6104e0613933565b6104e06109ef366004614f8a565b613940565b61052b610a02366004614e61565b61394b565b600954610500906001600160a01b031681565b61068c6139ee565b61052b610a30366004615452565b613a16565b61052b610a43366004614e61565b613a58565b6104e0613afb565b61052b610a5e366004614f8a565b613b08565b61068c60135481565b601154610500906001600160a01b031681565b610482610a8d366004615750565b6001600160a01b03918216600090815260056020908152604080832093909416825291909152205460ff1690565b61052b610ac9366004614e61565b613b5e565b61052b610adc366004614e61565b613bd4565b61052b610aef366004615452565b613c4a565b6000610aff82613c93565b92915050565b60408051607a808252610f608201909252606091829182916000919060208201610f4080368337505060408051607a808252610f608201909252929350600092915060208201610f4080368337505060408051607a808252610f608201909252929350600092915060208201610f40803683370190505090506000805b60798160ff1611610ceb576001600160a01b0389166000908152601e6020908152604080832060ff80861685529252909120541615610cd95780858360ff1681518110610bd157610bd161577e565b60ff9283166020918202929092018101919091526001600160a01b038b166000908152601e82526040808220858516835290925220548551908216918691908516908110610c2157610c2161577e565b60ff90921660209283029190910190910152600954604051632edb5fcf60e01b81526001600160a01b0390911690632edb5fcf90610c65908c908590600401615794565b602060405180830381865afa158015610c82573d6000803e3d6000fd5b505050506040513d601f19601f82011682018060405250810190610ca691906157b0565b838360ff1681518110610cbb57610cbb61577e565b9115156020928302919091019091015281610cd5816157e3565b9250505b80610ce3816157e3565b915050610b82565b5060008160ff166001600160401b03811115610d0957610d09614fcf565b604051908082528060200260200182016040528015610d32578160200160208202803683370190505b50905060008260ff166001600160401b03811115610d5257610d52614fcf565b604051908082528060200260200182016040528015610d7b578160200160208202803683370190505b50905060008360ff166001600160401b03811115610d9b57610d9b614fcf565b604051908082528060200260200182016040528015610dc4578160200160208202803683370190505b50905060005b8460ff168160ff161015610eb057878160ff1681518110610ded57610ded61577e565b6020026020010151848260ff1681518110610e0a57610e0a61577e565b60ff9283166020918202929092010152875188918316908110610e2f57610e2f61577e565b6020026020010151838260ff1681518110610e4c57610e4c61577e565b60ff9283166020918202929092010152865187918316908110610e7157610e7161577e565b6020026020010151828260ff1681518110610e8e57610e8e61577e565b9115156020928302919091019091015280610ea8816157e3565b915050610dca565b50919a90995090975095505050505050565b606060008054610ed190615802565b80601f0160208091040260200160405190810160405280929190818152602001828054610efd90615802565b8015610f4a5780601f10610f1f57610100808354040283529160200191610f4a565b820191906000526020600020905b815481529060010190602001808311610f2d57829003601f168201915b5050505050905090565b6000610f5f82613cb8565b506000908152600460205260409020546001600160a01b031690565b6000610f86826122b3565b9050806001600160a01b0316836001600160a01b031603610ff85760405162461bcd60e51b815260206004820152602160248201527f4552433732313a20617070726f76616c20746f2063757272656e74206f776e656044820152603960f91b60648201526084015b60405180910390fd5b336001600160a01b038216148061101457506110148133610a8d565b6110865760405162461bcd60e51b815260206004820152603d60248201527f4552433732313a20617070726f76652063616c6c6572206973206e6f7420746f60448201527f6b656e206f776e6572206f7220617070726f76656420666f7220616c6c0000006064820152608401610fef565b6110908383613d17565b505050565b336000908152600b602052604090205460ff166110c45760405162461bcd60e51b8152600401610fef9061583c565b604051630982088f60e41b8152600d60048201526001600160a01b038216602482015273__$2004922c2908b386ae4415e9a8cdeda8c7$__9063982088f0906044015b60006040518083038186803b15801561111f57600080fd5b505af4158015611133573d6000803e3d6000fd5b5050505050565b336000908152600b602052604090205460ff166111695760405162461bcd60e51b8152600401610fef9061583c565b6001600160a01b03811661118f5760405162461bcd60e51b8152600401610fef90615862565b600980546001600160a01b0319166001600160a01b0383169081179091556040519081527f538b3425a321783393ad250db10356b8b3523ef29a40de015c5218213de0ead0906020015b60405180910390a150565b6040516338fb7d8b60e01b815260009073__$11abd53fa8ca7bb7b53675cf998674c516$__906338fb7d8b90611226903390899089908990899060040161588c565b602060405180830381865af4158015611243573d6000803e3d6000fd5b505050506040513d601f19601f820116820180604052508101906112679190615913565b90505b949350505050565b6009546001600160a01b0316331461129c5760405162461bcd60e51b8152600401610fef90615930565b6001600160a01b0382166000908152601e6020908152604080832060ff8086168552925282208054909116916112d1836157e3565b91906101000a81548160ff021916908360ff160217905550505050565b60006001600160a01b0383166113165760405162461bcd60e51b8152600401610fef90615862565b506001600160a01b03919091166000908152601e6020908152604080832060ff94851684529091529020541690565b336000908152600b602052604090205460ff166113745760405162461bcd60e51b8152600401610fef9061583c565b604051632dd92c6960e21b8152600b60048201526001600160a01b038216602482015273__$2004922c2908b386ae4415e9a8cdeda8c7$__9063b764b1a490604401611107565b60008560ff161161141d5760405162461bcd60e51b815260206004820152602660248201527f7061636b73207175616e74697479206d757374206265206772656174657220746044820152653430b710181760d11b6064820152608401610fef565b600f5460ff90811690861611156114955760405162461bcd60e51b815260206004820152603660248201527f7061636b73207175616e74697479206d757374206265206c657373207468616e6044820152751036b0bc1038bab0b73a34ba3c9030b63637bbb2b21760511b6064820152608401610fef565b60005b8560ff168160ff1610156115225761151033868360ff16815181106114bf576114bf61577e565b6020026020010151868460ff16815181106114dc576114dc61577e565b602002602001015186868660ff168181106114f9576114f961577e565b905060200281019061150b919061595f565b613d85565b8061151a816157e3565b915050611498565b505050505050565b336000908152601e602090815260408083206079845290915290205460ff166115a15760405162461bcd60e51b8152602060048201526024808201527f596f7520646f6573206e6f74206861766520616e79206275726e696e6720616c604482015263313ab69760e11b6064820152608401610fef565b336000908152601d60205260408120546115bc9083906159a5565b905060006115cb603c836159ce565b6000036117eb5760165460135410156116365760405162461bcd60e51b815260206004820152602760248201527f496e73756666696369656e742066756e647320286275726e43617264732062616044820152663630b731b2949760c91b6064820152608401610fef565b6011546040516370a0823160e01b81523060048201526000916001600160a01b0316906370a0823190602401602060405180830381865afa15801561167f573d6000803e3d6000fd5b505050506040513d601f19601f820116820180604052508101906116a391906159e2565b90506016548110156116f75760405162461bcd60e51b815260206004820152601e60248201527f496e73756666696369656e742066756e64732028636f6e7472616374292e00006044820152606401610fef565b601154604051636eb1769f60e11b81523360048201523060248201526000916001600160a01b03169063dd62ed3e90604401602060405180830381865afa158015611746573d6000803e3d6000fd5b505050506040513d601f19601f8201168201806040525081019061176a91906159e2565b90506016548110156117e45760405162461bcd60e51b815260206004820152603b60248201527f496e73756666696369656e7420616c6c6f77616e636520746f207472616e736660448201527f6572207072697a6520666f72206275726e696e672063617264732e00000000006064820152608401610fef565b6001925050505b60005b60ff81168411156118f457336000908152601e6020526040812081878760ff861681811061181e5761181e61577e565b905060200201602081019061183391906153d1565b60ff908116825260208201929092526040016000205416116118675760405162461bcd60e51b8152600401610fef906159fb565b336000908152601e6020526040812090868660ff851681811061188c5761188c61577e565b90506020020160208101906118a191906153d1565b60ff908116825260208201929092526040016000908120805490921691906118c883615a32565b91906101000a81548160ff021916908360ff1602179055505080806118ec906157e3565b9150506117ee565b50336000908152601d6020526040812080548592906119149084906159a5565b90915550506040517fdbcda3b6d52a6f69c85189ca3f35e5be8a2e3d052fea47f656ff00384b0c47b19061194d90339087908790615a85565b60405180910390a18015611b6157336000908152601e60209081526040808320607984529091528120805460ff169161198583615a32565b91906101000a81548160ff021916908360ff16021790555050611a3633601980546119af90615802565b80601f01602080910402602001604051908101604052809291908181526020018280546119db90615802565b8015611a285780601f106119fd57610100808354040283529160200191611a28565b820191906000526020600020905b815481529060010190602001808311611a0b57829003601f168201915b50505050506079600261422b565b60165460136000828254611a4a9190615aaa565b909155505060115460165460405163a9059cbb60e01b815233600482015260248101919091526001600160a01b039091169063a9059cbb906044016020604051808303816000875af1158015611aa4573d6000803e3d6000fd5b505050506040513d601f19601f82011682018060405250810190611ac891906157b0565b50600a5460405163fa8213d360e01b81523360048201526001600160a01b039091169063fa8213d390602401600060405180830381600087803b158015611b0e57600080fd5b505af1158015611b22573d6000803e3d6000fd5b505050507f6d0344e2059f835240cb954cce07d4b26f0d0844eecc234f7ee0e292ba80a1aa336002604051611b58929190615794565b60405180910390a15b50505050565b611b72335b8261428e565b611b8e5760405162461bcd60e51b8152600401610fef90615abd565b61109083838361430c565b336000908152600b602052604090205460ff16611bc85760405162461bcd60e51b8152600401610fef9061583c565b600f805460ff191660ff92909216919091179055565b611b613385858585613d85565b336000908152601e6020908152604080832060ff808616855292529091205416611c275760405162461bcd60e51b8152600401610fef906159fb565b336001600160a01b03831603611c7f5760405162461bcd60e51b815260206004820152601960248201527f4f776e207472616e73666572206e6f7420616c6c6f7765642e000000000000006044820152606401610fef565b6001600160a01b038216611ca55760405162461bcd60e51b8152600401610fef90615862565b601a5462010000900460ff1615611d7a57600954604051632edb5fcf60e01b81526000916001600160a01b031690632edb5fcf90611ce99033908690600401615794565b602060405180830381865afa158015611d06573d6000803e3d6000fd5b505050506040513d601f19601f82011682018060405250810190611d2a91906157b0565b336000908152601e6020908152604080832060ff80881685529252909120549192506001911611811580611d5b5750805b611d775760405162461bcd60e51b8152600401610fef90615b0a565b50505b336000908152601e6020908152604080832060ff808616855292528220805490911691611da683615a32565b82546101009290920a60ff8181021990931691831602179091556001600160a01b0384166000908152601e602090815260408083208685168452909152812080549092169250611df5836157e3565b82546101009290920a60ff818102199093169183160217909155604080513381526001600160a01b0386166020820152918416908201527f1b6e5f928a38f442936bbdf4696f128a543b8e43730594344a66c028d0b9c3da91506060015b60405180910390a15050565b336000908152600b602052604090205460ff16611e8e5760405162461bcd60e51b8152600401610fef9061583c565b6008546040516380f2540b60e01b8152600481018490526001600160a01b038581166024830152909116906380f2540b90604401600060405180830381600087803b158015611edc57600080fd5b505af1158015611ef0573d6000803e3d6000fd5b505050506006601254611f039190615b5a565b601254611f109190615aaa565b60136000828254611f2191906159a5565b90915550600090505b81518160ff161015611b6157818160ff1681518110611f4b57611f4b61577e565b602002602001015160ff16607814611f9957611389601c6000848460ff1681518110611f7957611f7961577e565b602002602001015160ff1681526020019081526020016000205410611fca565b6078600052601c6020527f6ec98d8d39cd9309189aa82063f91dfcf737ce38f7d69eacedb0acfc0872981c54610bb9115b6120165760405162461bcd60e51b815260206004820152601e60248201527f696e76616c69642063617264496e76656e746f727920706f736974696f6e00006044820152606401610fef565b601c6000838360ff168151811061202f5761202f61577e565b602002602001015160ff168152602001908152602001600020600081548092919061205990615b6e565b90915550506001600160a01b0384166000908152601e602052604081208351909190849060ff85169081106120905761209061577e565b602002602001015160ff1660ff168152602001908152602001600020600081819054906101000a900460ff16809291906120c9906157e3565b91906101000a81548160ff021916908360ff1602179055505080806120ed906157e3565b915050611f2a565b611090838383604051806020016040528060008152506135bf565b61211933611b6c565b6121355760405162461bcd60e51b8152600401610fef90615abd565b61213e81614470565b50565b336000908152600b602052604090205460ff166121705760405162461bcd60e51b8152600401610fef9061583c565b8061217a306123d4565b101561218557600080fd5b80601360008282546121979190615aaa565b909155505060115460405163a9059cbb60e01b8152336004820152602481018390526001600160a01b039091169063a9059cbb906044016020604051808303816000875af11580156121ed573d6000803e3d6000fd5b505050506040513d601f19601f8201168201806040525081019061221191906157b0565b5060408051338152602081018390527f23d6711a1d031134a36921253c75aa59e967d38e369ac625992824315e204f2091016111d9565b6008546001600160a01b031633146122995760405162461bcd60e51b815260206004820152601460248201527327b7363c903830b1b5b99031b7b73a3930b1ba1760611b6044820152606401610fef565b80601360008282546122ab91906159a5565b909155505050565b6000818152600260205260408120546001600160a01b031680610aff5760405162461bcd60e51b8152602060048201526018602482015277115490cdcc8c4e881a5b9d985b1a59081d1bdad95b88125160421b6044820152606401610fef565b336000908152600b602052604090205460ff166123425760405162461bcd60e51b8152600401610fef9061583c565b601a8054911515620100000262ff000019909216919091179055565b336000908152600b602052604090205460ff1661238d5760405162461bcd60e51b8152600401610fef9061583c565b604051632d35e2b960e21b8152600b60048201526001600160a01b038216602482015273__$2004922c2908b386ae4415e9a8cdeda8c7$__9063b4d78ae490604401611107565b60006001600160a01b03821661243e5760405162461bcd60e51b815260206004820152602960248201527f4552433732313a2061646472657373207a65726f206973206e6f7420612076616044820152683634b21037bbb732b960b91b6064820152608401610fef565b506001600160a01b031660009081526003602052604090205490565b612462614479565b61246c60006144d3565b565b6009546001600160a01b031633146124985760405162461bcd60e51b8152600401610fef90615930565b6001600160a01b0382166000908152601e6020908152604080832060ff8086168552925282208054909116916112d183615a32565b336000908152600b602052604090205460ff166124fc5760405162461bcd60e51b8152600401610fef9061583c565b600081116125725760405162461bcd60e51b815260206004820152603a60248201527f546865207072697a6520666f7220636f6d706c6574696e672074686520616c6260448201527f756d206d7573742062652067726561746572207468616e20302e0000000000006064820152608401610fef565b601555565b336000908152600b602052604090205460ff166125a65760405162461bcd60e51b8152600401610fef9061583c565b60648160ff16111561260c5760405162461bcd60e51b815260206004820152602960248201527f5468652070657263656e74616765206d757374206265206265747765656e20306044820152681030b732101898181760b91b6064820152608401610fef565b6017805460ff191660ff92909216919091179055565b60006001600160a01b03821661264a5760405162461bcd60e51b8152600401610fef90615862565b506001600160a01b03166000908152601d602052604090205490565b61266e614479565b336000908152600b60205260409020805460ff19166001179055601180546001600160a01b038881166001600160a01b03199283161790925560088054888416908316179055600a8054868416908316179055600980549287169290911691909117905560146126de8382615bcd565b5060408051808201825260018152602f60f81b60208083019190915282518084018452600381526203132360ec1b8183015283518085018552600681526523173539b7b760d11b81840152935161273b9460149493909101615c8c565b604051602081830303815290604052601890816127589190615bcd565b5060408051808201825260018152602f60f81b60208083019190915282518084018452600381526231323160e81b8183015283518085018552600681526523173539b7b760d11b8184015293516127b59460149493909101615c8c565b604051602081830303815290604052601990816127d29190615bcd565b506001600160a01b0381166000908152600e60205260408120805460ff191660011790555b607a811015612824576000818152601c60205260409020600190558061281c81615b6e565b9150506127f7565b50505050505050565b60006001600160a01b0383166128555760405162461bcd60e51b8152600401610fef90615862565b506001600160a01b03919091166000908152601e6020908152604080832060ff948516845290915290205416151590565b6009546000906001600160a01b031633146128555760405162461bcd60e51b8152600401610fef90615930565b336000908152601e602090815260408083206078845290915281205460ff1661291e5760405162461bcd60e51b815260206004820152601c60248201527f596f7520646f6573206e6f74206861766520616e7920616c62756d2e000000006044820152606401610fef565b60155460135410156129835760405162461bcd60e51b815260206004820152602860248201527f496e73756666696369656e742066756e647320286f70656e2d7061636b73206260448201526730b630b731b2949760c11b6064820152608401610fef565b6011546040516370a0823160e01b81523060048201526000916001600160a01b0316906370a0823190602401602060405180830381865afa1580156129cc573d6000803e3d6000fd5b505050506040513d601f19601f820116820180604052508101906129f091906159e2565b9050601554811015612a445760405162461bcd60e51b815260206004820152601e60248201527f496e73756666696369656e742066756e64732028636f6e7472616374292e00006044820152606401610fef565b6000805b60788160ff1611612ad957336000908152601e6020908152604080832060ff80861685529252822054169003612a815760019150612ad9565b336000908152601e6020908152604080832060ff808616855292528220805490911691612aad83615a32565b91906101000a81548160ff021916908360ff160217905550508080612ad1906157e3565b915050612a48565b508015612b285760405162461bcd60e51b815260206004820152601860248201527f4d75737420636f6d706c6574652074686520616c62756d2e00000000000000006044820152606401610fef565b612bc03360188054612b3990615802565b80601f0160208091040260200160405190810160405280929190818152602001828054612b6590615802565b8015612bb25780601f10612b8757610100808354040283529160200191612bb2565b820191906000526020600020905b815481529060010190602001808311612b9557829003601f168201915b50505050506078600261422b565b60115460155460405163a9059cbb60e01b815233600482015260248101919091526001600160a01b039091169063a9059cbb906044016020604051808303816000875af1158015612c15573d6000803e3d6000fd5b505050506040513d601f19601f82011682018060405250810190612c3991906157b0565b5060155460136000828254612c4e9190615aaa565b9091555050600954604051633f27a03f60e21b81523360048201526000916001600160a01b03169063fc9e80fc906024016020604051808303816000875af1158015612c9e573d6000803e3d6000fd5b505050506040513d601f19601f82011682018060405250810190612cc291906157b0565b905080612d115760405162461bcd60e51b815260206004820152601960248201527f43616e6e6f742072656d6f76652075736572206f6666657273000000000000006044820152606401610fef565b7f6d0344e2059f835240cb954cce07d4b26f0d0844eecc234f7ee0e292ba80a1aa336001604051612d43929190615794565b60405180910390a16001935050505090565b606060018054610ed190615802565b60148054612d7190615802565b80601f0160208091040260200160405190810160405280929190818152602001828054612d9d90615802565b8015612dea5780601f10612dbf57610100808354040283529160200191612dea565b820191906000526020600020905b815481529060010190602001808311612dcd57829003601f168201915b505050505081565b336000908152600b602052604090205460ff16612e215760405162461bcd60e51b8152600401610fef9061583c565b6018612e2d8382615bcd565b506019612e3a8282615bcd565b507fabfd337ac5625b7dc2ddd3d3bd465fb1dec15322eeeed81032268b337880bec68282604051611e53929190615d3b565b336001600160a01b03841603612ecf5760405162461bcd60e51b815260206004820152602260248201527f596f752063616e6e6f742073656e6420636172647320746f20796f757273656c604482015261331760f11b6064820152608401610fef565b6001600160a01b038316612ef55760405162461bcd60e51b8152600401610fef90615862565b60005b60ff81168211156131c457336000908152601e6020526040812081858560ff8616818110612f2857612f2861577e565b9050602002016020810190612f3d91906153d1565b60ff90811682526020820192909252604001600020541611612f715760405162461bcd60e51b8152600401610fef906159fb565b336000908152601e6020526040812090848460ff8516818110612f9657612f9661577e565b9050602002016020810190612fab91906153d1565b60ff90811682526020820192909252604001600090812080549092169190612fd283615a32565b91906101000a81548160ff021916908360ff16021790555050601e6000856001600160a01b03166001600160a01b03168152602001908152602001600020600084848460ff168181106130275761302761577e565b905060200201602081019061303c91906153d1565b60ff90811682526020820192909252604001600090812080549092169190613063836157e3565b91906101000a81548160ff021916908360ff16021790555050601a60029054906101000a900460ff16156131b2576009546000906001600160a01b0316632edb5fcf33868660ff87168181106130bb576130bb61577e565b90506020020160208101906130d091906153d1565b6040518363ffffffff1660e01b81526004016130ed929190615794565b602060405180830381865afa15801561310a573d6000803e3d6000fd5b505050506040513d601f19601f8201168201806040525081019061312e91906157b0565b336000908152601e602052604081209192509060019082878760ff881681811061315a5761315a61577e565b905060200201602081019061316f91906153d1565b60ff9081168252602082019290925260400160002054161190508115806131935750805b6131af5760405162461bcd60e51b8152600401610fef90615b0a565b50505b806131bc816157e3565b915050612ef8565b507f368eb521419fe880268b0d75c05eaa2da7ae9ccf468be86a848f7054366d2b9b338484846040516131fa9493929190615d69565b60405180910390a1505050565b613212338383614525565b5050565b336000908152600b602052604090205460ff166132455760405162461bcd60e51b8152600401610fef9061583c565b60005b60798160ff1611613212576001600160a01b0382166000908152601e6020908152604080832060ff808616855292528220805490911691613288836157e3565b91906101000a81548160ff021916908360ff1602179055505080806132ac906157e3565b915050613248565b6009546001600160a01b031633146132de5760405162461bcd60e51b8152600401610fef90615930565b6001600160a01b0384166133045760405162461bcd60e51b8152600401610fef90615862565b6001600160a01b03821661332a5760405162461bcd60e51b8152600401610fef90615862565b6001600160a01b0384166000908152601e6020908152604080832060ff8088168552925290912054166133ae5760405162461bcd60e51b815260206004820152602660248201527f55736572202866726f6d2920646f6573206e6f74206861766520636172642028604482015265333937b6949760d11b6064820152608401610fef565b6001600160a01b0382166000908152601e6020908152604080832060ff80861685529252909120541661342e5760405162461bcd60e51b815260206004820152602260248201527f557365722028746f2920646f6573206e6f74206861766520636172642028746f604482015261149760f11b6064820152608401610fef565b6001600160a01b0384166000908152601e6020908152604080832060ff80881685529252822080549091169161346383615a32565b82546101009290920a60ff8181021990931691831602179091556001600160a01b0384166000908152601e6020908152604080832088851684529091528120805490921692506134b2836157e3565b82546101009290920a60ff8181021990931691831602179091556001600160a01b0384166000908152601e60209081526040808320868516845290915281208054909216925061350183615a32565b82546101009290920a60ff8181021990931691831602179091556001600160a01b0386166000908152601e602090815260408083208685168452909152812080549092169250613550836157e3565b82546101009290920a60ff818102199093169183160217909155604080516001600160a01b038881168252861660208201528683169181019190915290831660608201527f52819375a02768cb5083d7b729260c6db2309fcb5c9161201ada89d30d00d5249150608001611b58565b6135c9338361428e565b6135e55760405162461bcd60e51b8152600401610fef90615abd565b611b61848484846145f3565b336000908152600b602052604090205460ff166136205760405162461bcd60e51b8152600401610fef9061583c565b600081116136a15760405162461bcd60e51b815260206004820152604260248201527f546865207072697a6520666f7220636f6d706c6574696e67207468652062757260448201527f6e696e6720616c62756d206d7573742062652067726561746572207468616e20606482015261181760f11b608482015260a401610fef565b601655565b336000908152601e6020908152604080832060ff8086168552925290912054166136e25760405162461bcd60e51b8152600401610fef906159fb565b601a54610100900460ff16156137fb57600954604051632edb5fcf60e01b81526000916001600160a01b031690632edb5fcf906137259033908690600401615794565b602060405180830381865afa158015613742573d6000803e3d6000fd5b505050506040513d601f19601f8201168201806040525081019061376691906157b0565b336000908152601e6020908152604080832060ff808816855292529091205491925060019116118115806137975750805b6137f85760405162461bcd60e51b815260206004820152602c60248201527f5468697320636172642068617320616e206f666665722c2069742063616e6e6f60448201526b3a1031329036b4b73a32b21760a11b6064820152608401610fef565b50505b336000908152601e6020908152604080832060ff80861685529252822080549091169161382783615a32565b91906101000a81548160ff021916908360ff1602179055505060006014604051806040016040528060018152602001602f60f81b8152508360ff1673__$7e24fea74dbc7efffb723a34f6ecd87681$__636900a3ae90916040518263ffffffff1660e01b815260040161389c91815260200190565b600060405180830381865af41580156138b9573d6000803e3d6000fd5b505050506040513d6000823e601f3d908101601f191682016040526138e19190810190615da0565b60405180604001604052806005815260200164173539b7b760d91b8152506040516020016139129493929190615c8c565b604051602081830303815290604052905061321233828460ff16600161422b565b60188054612d7190615802565b6060610aff82614626565b336000908152600b602052604090205460ff1661397a5760405162461bcd60e51b8152600401610fef9061583c565b6001600160a01b0381166139a05760405162461bcd60e51b8152600401610fef90615862565b600880546001600160a01b0319166001600160a01b0383169081179091556040519081527f5a78287a942b8ea0da8734a4eb919df11e564cc48301ffcb582dc8612d98208f906020016111d9565b601354601754600091606491613a07919060ff16615e0d565b613a119190615b5a565b905090565b336000908152600b602052604090205460ff16613a455760405162461bcd60e51b8152600401610fef9061583c565b601a805460ff1916911515919091179055565b336000908152600b602052604090205460ff16613a875760405162461bcd60e51b8152600401610fef9061583c565b6001600160a01b038116613aad5760405162461bcd60e51b8152600401610fef90615862565b600a80546001600160a01b0319166001600160a01b0383169081179091556040519081527f563f24d71e856f79bec30e1aa96082a296cd13f0a71cec730a72b719fa0fa202906020016111d9565b60198054612d7190615802565b6008546001600160a01b03163314613b595760405162461bcd60e51b815260206004820152601460248201527327b7363c903830b1b5b99031b7b73a3930b1ba1760611b6044820152606401610fef565b601255565b336000908152600b602052604090205460ff16613b8d5760405162461bcd60e51b8152600401610fef9061583c565b604051633b9db68960e11b8152600d60048201526001600160a01b038216602482015273__$2004922c2908b386ae4415e9a8cdeda8c7$__9063773b6d1290604401611107565b613bdc614479565b6001600160a01b038116613c415760405162461bcd60e51b815260206004820152602660248201527f4f776e61626c653a206e6577206f776e657220697320746865207a65726f206160448201526564647265737360d01b6064820152608401610fef565b61213e816144d3565b336000908152600b602052604090205460ff16613c795760405162461bcd60e51b8152600401610fef9061583c565b601a80549115156101000261ff0019909216919091179055565b60006001600160e01b03198216632483248360e11b1480610aff5750610aff8261472e565b6000818152600260205260409020546001600160a01b031661213e5760405162461bcd60e51b8152602060048201526018602482015277115490cdcc8c4e881a5b9d985b1a59081d1bdad95b88125160421b6044820152606401610fef565b600081815260046020526040902080546001600160a01b0319166001600160a01b0384169081179091558190613d4c826122b3565b6001600160a01b03167f8c5be1e5ebec7d5bd14f71427d1e84f3dd0314c0f7b2291e5b200ac8c7c3b92560405160405180910390a45050565b60085460405163d3e6a7ad60e01b8152600481018690526001600160a01b0387811692169063d3e6a7ad90602401602060405180830381865afa158015613dd0573d6000803e3d6000fd5b505050506040513d601f19601f82011682018060405250810190613df49190615913565b6001600160a01b031614613e4a5760405162461bcd60e51b815260206004820152601760248201527f54686973207061636b206973206e6f7420796f7572732e0000000000000000006044820152606401610fef565b600f835110613e915760405162461bcd60e51b815260206004820152601360248201527210d85c99081b1a5b5a5d08195e18d959591959606a1b6044820152606401610fef565b601a5460ff1615613f81576040516338fb7d8b60e01b815260009073__$11abd53fa8ca7bb7b53675cf998674c516$__906338fb7d8b90613ede903390899089908990899060040161588c565b602060405180830381865af4158015613efb573d6000803e3d6000fd5b505050506040513d601f19601f82011682018060405250810190613f1f9190615913565b6001600160a01b0381166000908152600e602052604090205490915060ff16613f7f5760405162461bcd60e51b815260206004820152601260248201527124b73b30b634b21039b4b3b730ba3ab9329760711b6044820152606401610fef565b505b6008546040516380f2540b60e01b8152600481018690526001600160a01b038781166024830152909116906380f2540b90604401600060405180830381600087803b158015613fcf57600080fd5b505af1158015613fe3573d6000803e3d6000fd5b505050506006601254613ff69190615b5a565b6012546140039190615aaa565b6013600082825461401491906159a5565b90915550600090505b83518160ff1610156141e857838160ff168151811061403e5761403e61577e565b602002602001015160ff1660781461408c57611389601c6000868460ff168151811061406c5761406c61577e565b602002602001015160ff16815260200190815260200160002054106140bd565b6078600052601c6020527f6ec98d8d39cd9309189aa82063f91dfcf737ce38f7d69eacedb0acfc0872981c54610bb9115b6141095760405162461bcd60e51b815260206004820152601e60248201527f696e76616c69642063617264496e76656e746f727920706f736974696f6e00006044820152606401610fef565b601c6000858360ff16815181106141225761412261577e565b602002602001015160ff168152602001908152602001600020600081548092919061414c90615b6e565b90915550506001600160a01b0386166000908152601e602052604081208551909190869060ff85169081106141835761418361577e565b602002602001015160ff1660ff168152602001908152602001600020600081819054906101000a900460ff16809291906141bc906157e3565b91906101000a81548160ff021916908360ff1602179055505080806141e0906157e3565b91505061401d565b507fbabe8f5e83e93ab103ddf917b4292a19335a5128b3530bedd896a681cdd945e385848660405161421c93929190615e24565b60405180910390a15050505050565b6010546000818152601b6020526040902081815560018101849055600201805461ff00191661010060ff851602179055614265858261477e565b61426f8185614798565b60016010600082825461428291906159a5565b90915550505050505050565b60008061429a836122b3565b9050806001600160a01b0316846001600160a01b031614806142e157506001600160a01b0380821660009081526005602090815260408083209388168352929052205460ff165b8061126a5750836001600160a01b03166142fa84610f54565b6001600160a01b031614949350505050565b826001600160a01b031661431f826122b3565b6001600160a01b0316146143455760405162461bcd60e51b8152600401610fef90615e58565b6001600160a01b0382166143a75760405162461bcd60e51b8152602060048201526024808201527f4552433732313a207472616e7366657220746f20746865207a65726f206164646044820152637265737360e01b6064820152608401610fef565b826001600160a01b03166143ba826122b3565b6001600160a01b0316146143e05760405162461bcd60e51b8152600401610fef90615e58565b600081815260046020908152604080832080546001600160a01b03199081169091556001600160a01b0387811680865260038552838620805460001901905590871680865283862080546001019055868652600290945282852080549092168417909155905184937fddf252ad1be2c89b69c2b068fc378daa952ba7f163c4a11628f55a4df523b3ef91a4505050565b61213e8161485c565b6007546001600160a01b0316331461246c5760405162461bcd60e51b815260206004820181905260248201527f4f776e61626c653a2063616c6c6572206973206e6f7420746865206f776e65726044820152606401610fef565b600780546001600160a01b038381166001600160a01b0319831681179093556040519116919082907f8be0079c531659141344cd1fd0a4f28419497f9722a3daafe3b4186f6b6457e090600090a35050565b816001600160a01b0316836001600160a01b0316036145865760405162461bcd60e51b815260206004820152601960248201527f4552433732313a20617070726f766520746f2063616c6c6572000000000000006044820152606401610fef565b6001600160a01b03838116600081815260056020908152604080832094871680845294825291829020805460ff191686151590811790915591519182527f17307eab39ab6107e8899845ad3d59bd9653f200f220920489ca2b5937696c31910160405180910390a3505050565b6145fe84848461430c565b61460a8484848461489c565b611b615760405162461bcd60e51b8152600401610fef90615e9d565b606061463182613cb8565b6000828152600660205260408120805461464a90615802565b80601f016020809104026020016040519081016040528092919081815260200182805461467690615802565b80156146c35780601f10614698576101008083540402835291602001916146c3565b820191906000526020600020905b8154815290600101906020018083116146a657829003601f168201915b5050505050905060006146e160408051602081019091526000815290565b905080516000036146f3575092915050565b81511561472557808260405160200161470d929190615eef565b60405160208183030381529060405292505050919050565b61126a8461499a565b60006001600160e01b031982166380ac58cd60e01b148061475f57506001600160e01b03198216635b5e139f60e01b145b80610aff57506301ffc9a760e01b6001600160e01b0319831614610aff565b613212828260405180602001604052806000815250614a0e565b6000828152600260205260409020546001600160a01b03166148135760405162461bcd60e51b815260206004820152602e60248201527f45524337323155524953746f726167653a2055524920736574206f66206e6f6e60448201526d32bc34b9ba32b73a103a37b5b2b760911b6064820152608401610fef565b600082815260066020526040902061482b8282615bcd565b506040518281527ff8e1a15aba9398e019f0b49df1a4fde98ee17ae345cb5f6b5e2c27f5033e8ce790602001611e53565b61486581614a41565b6000818152600660205260409020805461487e90615802565b15905061213e57600081815260066020526040812061213e91614dcb565b60006001600160a01b0384163b1561499257604051630a85bd0160e11b81526001600160a01b0385169063150b7a02906148e0903390899088908890600401615f1e565b6020604051808303816000875af192505050801561491b575060408051601f3d908101601f1916820190925261491891810190615f51565b60015b614978573d808015614949576040519150601f19603f3d011682016040523d82523d6000602084013e61494e565b606091505b5080516000036149705760405162461bcd60e51b8152600401610fef90615e9d565b805181602001fd5b6001600160e01b031916630a85bd0160e11b14905061126a565b50600161126a565b60606149a582613cb8565b60006149bc60408051602081019091526000815290565b905060008151116149dc5760405180602001604052806000815250614a07565b806149e684614ad6565b6040516020016149f7929190615eef565b6040516020818303038152906040525b9392505050565b614a188383614b68565b614a25600084848461489c565b6110905760405162461bcd60e51b8152600401610fef90615e9d565b6000614a4c826122b3565b9050614a57826122b3565b600083815260046020908152604080832080546001600160a01b03199081169091556001600160a01b0385168085526003845282852080546000190190558785526002909352818420805490911690555192935084927fddf252ad1be2c89b69c2b068fc378daa952ba7f163c4a11628f55a4df523b3ef908390a45050565b60606000614ae383614cf3565b60010190506000816001600160401b03811115614b0257614b02614fcf565b6040519080825280601f01601f191660200182016040528015614b2c576020820181803683370190505b5090508181016020015b600019016f181899199a1a9b1b9c1cb0b131b232b360811b600a86061a8153600a8504945084614b3657509392505050565b6001600160a01b038216614bbe5760405162461bcd60e51b815260206004820181905260248201527f4552433732313a206d696e7420746f20746865207a65726f20616464726573736044820152606401610fef565b6000818152600260205260409020546001600160a01b031615614c235760405162461bcd60e51b815260206004820152601c60248201527f4552433732313a20746f6b656e20616c7265616479206d696e746564000000006044820152606401610fef565b6000818152600260205260409020546001600160a01b031615614c885760405162461bcd60e51b815260206004820152601c60248201527f4552433732313a20746f6b656e20616c7265616479206d696e746564000000006044820152606401610fef565b6001600160a01b038216600081815260036020908152604080832080546001019055848352600290915280822080546001600160a01b0319168417905551839291907fddf252ad1be2c89b69c2b068fc378daa952ba7f163c4a11628f55a4df523b3ef908290a45050565b60008072184f03e93ff9f4daa797ed6e38ed64bf6a1f0160401b8310614d325772184f03e93ff9f4daa797ed6e38ed64bf6a1f0160401b830492506040015b6d04ee2d6d415b85acef81000000008310614d5e576d04ee2d6d415b85acef8100000000830492506020015b662386f26fc100008310614d7c57662386f26fc10000830492506010015b6305f5e1008310614d94576305f5e100830492506008015b6127108310614da857612710830492506004015b60648310614dba576064830492506002015b600a8310610aff5760010192915050565b508054614dd790615802565b6000825580601f10614de7575050565b601f01602090049060005260206000209081019061213e91905b80821115614e155760008155600101614e01565b5090565b6001600160e01b03198116811461213e57600080fd5b600060208284031215614e4157600080fd5b8135614a0781614e19565b6001600160a01b038116811461213e57600080fd5b600060208284031215614e7357600080fd5b8135614a0781614e4c565b600081518084526020808501945080840160005b83811015614eb157815160ff1687529582019590820190600101614e92565b509495945050505050565b606081526000614ecf6060830186614e7e565b602083820381850152614ee28287614e7e565b8481036040860152855180825282870193509082019060005b81811015614f19578451151583529383019391830191600101614efb565b509098975050505050505050565b60005b83811015614f42578181015183820152602001614f2a565b50506000910152565b60008151808452614f63816020860160208601614f27565b601f01601f19169290920160200192915050565b602081526000614a076020830184614f4b565b600060208284031215614f9c57600080fd5b5035919050565b60008060408385031215614fb657600080fd5b8235614fc181614e4c565b946020939093013593505050565b634e487b7160e01b600052604160045260246000fd5b604051601f8201601f191681016001600160401b038111828210171561500d5761500d614fcf565b604052919050565b60006001600160401b0382111561502e5761502e614fcf565b5060051b60200190565b803560ff8116811461504957600080fd5b919050565b600082601f83011261505f57600080fd5b8135602061507461506f83615015565b614fe5565b82815260059290921b8401810191818101908684111561509357600080fd5b8286015b848110156150b5576150a881615038565b8352918301918301615097565b509695505050505050565b600080600080606085870312156150d657600080fd5b8435935060208501356001600160401b03808211156150f457600080fd5b6151008883890161504e565b9450604087013591508082111561511657600080fd5b818701915087601f83011261512a57600080fd5b81358181111561513957600080fd5b88602082850101111561514b57600080fd5b95989497505060200194505050565b6000806040838503121561516d57600080fd5b823561517881614e4c565b915061518660208401615038565b90509250929050565b600082601f8301126151a057600080fd5b813560206151b061506f83615015565b82815260059290921b840181019181810190868411156151cf57600080fd5b8286015b848110156150b55780356001600160401b038111156151f25760008081fd5b6152008986838b010161504e565b8452509183019183016151d3565b60008083601f84011261522057600080fd5b5081356001600160401b0381111561523757600080fd5b6020830191508360208260051b850101111561525257600080fd5b9250929050565b60008060008060006080868803121561527157600080fd5b61527a86615038565b94506020808701356001600160401b038082111561529757600080fd5b818901915089601f8301126152ab57600080fd5b81356152b961506f82615015565b81815260059190911b8301840190848101908c8311156152d857600080fd5b938501935b828510156152f6578435825293850193908501906152dd565b98505050604089013592508083111561530e57600080fd5b61531a8a848b0161518f565b9550606089013592508083111561533057600080fd5b505061533e8882890161520e565b969995985093965092949392505050565b6000806020838503121561536257600080fd5b82356001600160401b0381111561537857600080fd5b6153848582860161520e565b90969095509350505050565b6000806000606084860312156153a557600080fd5b83356153b081614e4c565b925060208401356153c081614e4c565b929592945050506040919091013590565b6000602082840312156153e357600080fd5b614a0782615038565b60008060006060848603121561540157600080fd5b833561540c81614e4c565b92506020840135915060408401356001600160401b0381111561542e57600080fd5b61543a8682870161504e565b9150509250925092565b801515811461213e57600080fd5b60006020828403121561546457600080fd5b8135614a0781615444565b60006001600160401b0382111561548857615488614fcf565b50601f01601f191660200190565b60006154a461506f8461546f565b90508281528383830111156154b857600080fd5b828260208301376000602084830101529392505050565b600082601f8301126154e057600080fd5b614a0783833560208501615496565b60008060008060008060c0878903121561550857600080fd5b863561551381614e4c565b9550602087013561552381614e4c565b9450604087013561553381614e4c565b9350606087013561554381614e4c565b925060808701356001600160401b0381111561555e57600080fd5b61556a89828a016154cf565b92505060a087013561557b81614e4c565b809150509295509295509295565b6000806040838503121561559c57600080fd5b82356001600160401b03808211156155b357600080fd5b6155bf868387016154cf565b935060208501359150808211156155d557600080fd5b506155e2858286016154cf565b9150509250929050565b60008060006040848603121561560157600080fd5b833561560c81614e4c565b925060208401356001600160401b0381111561562757600080fd5b6156338682870161520e565b9497909650939450505050565b6000806040838503121561565357600080fd5b823561565e81614e4c565b9150602083013561566e81615444565b809150509250929050565b6000806000806080858703121561568f57600080fd5b843561569a81614e4c565b93506156a860208601615038565b925060408501356156b881614e4c565b91506156c660608601615038565b905092959194509250565b600080600080608085870312156156e757600080fd5b84356156f281614e4c565b9350602085013561570281614e4c565b92506040850135915060608501356001600160401b0381111561572457600080fd5b8501601f8101871361573557600080fd5b61574487823560208401615496565b91505092959194509250565b6000806040838503121561576357600080fd5b823561576e81614e4c565b9150602083013561566e81614e4c565b634e487b7160e01b600052603260045260246000fd5b6001600160a01b0392909216825260ff16602082015260400190565b6000602082840312156157c257600080fd5b8151614a0781615444565b634e487b7160e01b600052601160045260246000fd5b600060ff821660ff81036157f9576157f96157cd565b60010192915050565b600181811c9082168061581657607f821691505b60208210810361583657634e487b7160e01b600052602260045260246000fd5b50919050565b6020808252600c908201526b27b7363c9037bbb732b9399760a11b604082015260600190565b60208082526010908201526f24b73b30b634b21030b2323932b9b99760811b604082015260600190565b6001600160a01b0386168152602080820186905260806040830181905285519083018190526000918681019160a0850190845b818110156158de57845160ff16835293830193918301916001016158bf565b505084810360608601528581528587838301376000818701830152601f909501601f1916909401909301979650505050505050565b60006020828403121561592557600080fd5b8151614a0781614e4c565b60208082526015908201527427b7363c9037b33332b9399031b7b73a3930b1ba1760591b604082015260600190565b6000808335601e1984360301811261597657600080fd5b8301803591506001600160401b0382111561599057600080fd5b60200191503681900382131561525257600080fd5b80820180821115610aff57610aff6157cd565b634e487b7160e01b600052601260045260246000fd5b6000826159dd576159dd6159b8565b500690565b6000602082840312156159f457600080fd5b5051919050565b6020808252601c908201527f596f7520646f6573206e6f742068617665207468697320636172642e00000000604082015260600190565b600060ff821680615a4557615a456157cd565b6000190192915050565b8183526000602080850194508260005b85811015614eb15760ff615a7283615038565b1687529582019590820190600101615a5f565b6001600160a01b03841681526040602082018190526000906112679083018486615a4f565b81810381811115610aff57610aff6157cd565b6020808252602d908201527f4552433732313a2063616c6c6572206973206e6f7420746f6b656e206f776e6560408201526c1c881bdc88185c1c1c9bdd9959609a1b606082015260800190565b60208082526030908201527f5468697320636172642068617320616e206f666665722c2069742063616e6e6f60408201526f3a103132903a3930b739b332b932b21760811b606082015260800190565b600082615b6957615b696159b8565b500490565b600060018201615b8057615b806157cd565b5060010190565b601f82111561109057600081815260208120601f850160051c81016020861015615bae5750805b601f850160051c820191505b8181101561152257828155600101615bba565b81516001600160401b03811115615be657615be6614fcf565b615bfa81615bf48454615802565b84615b87565b602080601f831160018114615c2f5760008415615c175750858301515b600019600386901b1c1916600185901b178555611522565b600085815260208120601f198616915b82811015615c5e57888601518255948401946001909101908401615c3f565b5085821015615c7c5787850151600019600388901b60f8161c191681555b5050505050600190811b01905550565b6000808654615c9a81615802565b60018281168015615cb25760018114615cc757615cf6565b60ff1984168752821515830287019450615cf6565b8a60005260208060002060005b85811015615ced5781548a820152908401908201615cd4565b50505082870194505b505050508551615d0a818360208a01614f27565b8551910190615d1d818360208901614f27565b8451910190615d30818360208801614f27565b019695505050505050565b604081526000615d4e6040830185614f4b565b8281036020840152615d608185614f4b565b95945050505050565b6001600160a01b03858116825284166020820152606060408201819052600090615d969083018486615a4f565b9695505050505050565b600060208284031215615db257600080fd5b81516001600160401b03811115615dc857600080fd5b8201601f81018413615dd957600080fd5b8051615de761506f8261546f565b818152856020838501011115615dfc57600080fd5b615d60826020830160208601614f27565b8082028115828204841417610aff57610aff6157cd565b6001600160a01b0384168152606060208201819052600090615e4890830185614e7e565b9050826040830152949350505050565b60208082526025908201527f4552433732313a207472616e736665722066726f6d20696e636f72726563742060408201526437bbb732b960d91b606082015260800190565b60208082526032908201527f4552433732313a207472616e7366657220746f206e6f6e20455243373231526560408201527131b2b4bb32b91034b6b83632b6b2b73a32b960711b606082015260800190565b60008351615f01818460208801614f27565b835190830190615f15818360208801614f27565b01949350505050565b6001600160a01b0385811682528416602082015260408101839052608060608201819052600090615d9690830184614f4b565b600060208284031215615f6357600080fd5b8151614a0781614e1956fea264697066735822122036e5315821ca7c0a3df233ed9c07fd6524615cb70a8d5a98708399a5e94fbba964736f6c63430008140033",
  "linkReferences": {
    "contracts/gamma/libs/LibControlMgmt.sol": {
      "LibControlMgmt": [
        {
          "length": 20,
          "start": 5039
        },
        {
          "length": 20,
          "start": 5727
        },
        {
          "length": 20,
          "start": 9848
        },
        {
          "length": 20,
          "start": 15992
        }
      ]
    },
    "contracts/gamma/libs/LibPackVerifier.sol": {
      "LibPackVerifier": [
        {
          "length": 20,
          "start": 5308
        },
        {
          "length": 20,
          "start": 16756
        }
      ]
    },
    "contracts/gamma/libs/LibStringUtils.sol": {
      "LibStringUtils": [
        {
          "length": 20,
          "start": 15146
        }
      ]
    }
  },
  "deployedLinkReferences": {
    "contracts/gamma/libs/LibControlMgmt.sol": {
      "LibControlMgmt": [
        {
          "length": 20,
          "start": 4329
        },
        {
          "length": 20,
          "start": 5017
        },
        {
          "length": 20,
          "start": 9138
        },
        {
          "length": 20,
          "start": 15282
        }
      ]
    },
    "contracts/gamma/libs/LibPackVerifier.sol": {
      "LibPackVerifier": [
        {
          "length": 20,
          "start": 4598
        },
        {
          "length": 20,
          "start": 16046
        }
      ]
    },
    "contracts/gamma/libs/LibStringUtils.sol": {
      "LibStringUtils": [
        {
          "length": 20,
          "start": 14436
        }
      ]
    }
  }
}