{
  "_format": "hh-sol-artifact-1",
  "contractName": "NofGammaCardsV5",
  "sourceName": "contracts/gamma/GammaCards.v5.sol",
  "abi": [
    {
      "inputs": [
        {
          "internalType": "address",
          "name": "_daiTokenAddress",
          "type": "address"
        },
        {
          "internalType": "address",
          "name": "_gammaPacksContract",
          "type": "address"
        },
        {
          "internalType": "string",
          "name": "_baseUri",
          "type": "string"
        },
        {
          "internalType": "address",
          "name": "_signer",
          "type": "address"
        }
      ],
      "stateMutability": "nonpayable",
      "type": "constructor"
    },
    {
      "anonymous": false,
      "inputs": [
        {
          "indexed": false,
          "internalType": "address",
          "name": "player",
          "type": "address"
        },
        {
          "indexed": false,
          "internalType": "uint8",
          "name": "albumClass",
          "type": "uint8"
        }
      ],
      "name": "AlbumCompleted",
      "type": "event"
    },
    {
      "anonymous": false,
      "inputs": [
        {
          "indexed": true,
          "internalType": "address",
          "name": "owner",
          "type": "address"
        },
        {
          "indexed": true,
          "internalType": "address",
          "name": "approved",
          "type": "address"
        },
        {
          "indexed": true,
          "internalType": "uint256",
          "name": "tokenId",
          "type": "uint256"
        }
      ],
      "name": "Approval",
      "type": "event"
    },
    {
      "anonymous": false,
      "inputs": [
        {
          "indexed": true,
          "internalType": "address",
          "name": "owner",
          "type": "address"
        },
        {
          "indexed": true,
          "internalType": "address",
          "name": "operator",
          "type": "address"
        },
        {
          "indexed": false,
          "internalType": "bool",
          "name": "approved",
          "type": "bool"
        }
      ],
      "name": "ApprovalForAll",
      "type": "event"
    },
    {
      "anonymous": false,
      "inputs": [
        {
          "indexed": false,
          "internalType": "uint256",
          "name": "_fromTokenId",
          "type": "uint256"
        },
        {
          "indexed": false,
          "internalType": "uint256",
          "name": "_toTokenId",
          "type": "uint256"
        }
      ],
      "name": "BatchMetadataUpdate",
      "type": "event"
    },
    {
      "anonymous": false,
      "inputs": [
        {
          "indexed": false,
          "internalType": "address",
          "name": "player",
          "type": "address"
        },
        {
          "indexed": false,
          "internalType": "uint256",
          "name": "cardTokenId",
          "type": "uint256"
        },
        {
          "indexed": false,
          "internalType": "uint256",
          "name": "albumTokenId",
          "type": "uint256"
        }
      ],
      "name": "CardPasted",
      "type": "event"
    },
    {
      "anonymous": false,
      "inputs": [
        {
          "indexed": false,
          "internalType": "address",
          "name": "from",
          "type": "address"
        },
        {
          "indexed": false,
          "internalType": "address",
          "name": "to",
          "type": "address"
        },
        {
          "indexed": false,
          "internalType": "uint8",
          "name": "caradNumber",
          "type": "uint8"
        }
      ],
      "name": "CardTransfered",
      "type": "event"
    },
    {
      "anonymous": false,
      "inputs": [
        {
          "indexed": false,
          "internalType": "address",
          "name": "from",
          "type": "address"
        },
        {
          "indexed": false,
          "internalType": "address",
          "name": "to",
          "type": "address"
        },
        {
          "indexed": false,
          "internalType": "uint8[]",
          "name": "caradNumber",
          "type": "uint8[]"
        }
      ],
      "name": "CardsTransfered",
      "type": "event"
    },
    {
      "anonymous": false,
      "inputs": [
        {
          "indexed": false,
          "internalType": "address",
          "name": "receiver",
          "type": "address"
        },
        {
          "indexed": false,
          "internalType": "uint256",
          "name": "amount",
          "type": "uint256"
        }
      ],
      "name": "EmergencyWithdrawal",
      "type": "event"
    },
    {
      "anonymous": false,
      "inputs": [
        {
          "indexed": false,
          "internalType": "address",
          "name": "from",
          "type": "address"
        },
        {
          "indexed": false,
          "internalType": "address",
          "name": "to",
          "type": "address"
        },
        {
          "indexed": false,
          "internalType": "uint8",
          "name": "cardNumberFrom",
          "type": "uint8"
        },
        {
          "indexed": false,
          "internalType": "uint8",
          "name": "cardNumberTo",
          "type": "uint8"
        }
      ],
      "name": "ExchangeCardOffer",
      "type": "event"
    },
    {
      "anonymous": false,
      "inputs": [
        {
          "indexed": false,
          "internalType": "uint256",
          "name": "_tokenId",
          "type": "uint256"
        }
      ],
      "name": "MetadataUpdate",
      "type": "event"
    },
    {
      "anonymous": false,
      "inputs": [
        {
          "indexed": false,
          "internalType": "address",
          "name": "newGammaOffersContract",
          "type": "address"
        }
      ],
      "name": "NewGammaOffersContract",
      "type": "event"
    },
    {
      "anonymous": false,
      "inputs": [
        {
          "indexed": false,
          "internalType": "address",
          "name": "newGammaPacksContract",
          "type": "address"
        }
      ],
      "name": "NewGammaPacksContract",
      "type": "event"
    },
    {
      "anonymous": false,
      "inputs": [
        {
          "indexed": false,
          "internalType": "address",
          "name": "owner",
          "type": "address"
        }
      ],
      "name": "NewOwnerAdded",
      "type": "event"
    },
    {
      "anonymous": false,
      "inputs": [
        {
          "indexed": false,
          "internalType": "address",
          "name": "newSigner",
          "type": "address"
        }
      ],
      "name": "NewSigner",
      "type": "event"
    },
    {
      "anonymous": false,
      "inputs": [
        {
          "indexed": false,
          "internalType": "address",
          "name": "signer",
          "type": "address"
        }
      ],
      "name": "NewSignerAdded",
      "type": "event"
    },
    {
      "anonymous": false,
      "inputs": [
        {
          "indexed": false,
          "internalType": "string",
          "name": "newMainUri",
          "type": "string"
        },
        {
          "indexed": false,
          "internalType": "string",
          "name": "newSecondaryUri",
          "type": "string"
        }
      ],
      "name": "NewUris",
      "type": "event"
    },
    {
      "anonymous": false,
      "inputs": [
        {
          "indexed": false,
          "internalType": "address",
          "name": "owner",
          "type": "address"
        }
      ],
      "name": "OwnerRemoved",
      "type": "event"
    },
    {
      "anonymous": false,
      "inputs": [
        {
          "indexed": true,
          "internalType": "address",
          "name": "previousOwner",
          "type": "address"
        },
        {
          "indexed": true,
          "internalType": "address",
          "name": "newOwner",
          "type": "address"
        }
      ],
      "name": "OwnershipTransferred",
      "type": "event"
    },
    {
      "anonymous": false,
      "inputs": [
        {
          "indexed": false,
          "internalType": "address",
          "name": "player",
          "type": "address"
        },
        {
          "indexed": false,
          "internalType": "uint8[]",
          "name": "packData",
          "type": "uint8[]"
        },
        {
          "indexed": false,
          "internalType": "uint256",
          "name": "packNumber",
          "type": "uint256"
        }
      ],
      "name": "PackOpened",
      "type": "event"
    },
    {
      "anonymous": false,
      "inputs": [
        {
          "indexed": false,
          "internalType": "address",
          "name": "signer",
          "type": "address"
        }
      ],
      "name": "SignerRemoved",
      "type": "event"
    },
    {
      "anonymous": false,
      "inputs": [
        {
          "indexed": true,
          "internalType": "address",
          "name": "from",
          "type": "address"
        },
        {
          "indexed": true,
          "internalType": "address",
          "name": "to",
          "type": "address"
        },
        {
          "indexed": true,
          "internalType": "uint256",
          "name": "tokenId",
          "type": "uint256"
        }
      ],
      "name": "Transfer",
      "type": "event"
    },
    {
      "inputs": [],
      "name": "DAI_TOKEN",
      "outputs": [
        {
          "internalType": "address",
          "name": "",
          "type": "address"
        }
      ],
      "stateMutability": "view",
      "type": "function"
    },
    {
      "inputs": [],
      "name": "_tokenIdCounter",
      "outputs": [
        {
          "internalType": "uint256",
          "name": "",
          "type": "uint256"
        }
      ],
      "stateMutability": "view",
      "type": "function"
    },
    {
      "inputs": [
        {
          "internalType": "address",
          "name": "_newOwner",
          "type": "address"
        }
      ],
      "name": "addOwner",
      "outputs": [],
      "stateMutability": "nonpayable",
      "type": "function"
    },
    {
      "inputs": [
        {
          "internalType": "address",
          "name": "_newSigner",
          "type": "address"
        }
      ],
      "name": "addSigner",
      "outputs": [],
      "stateMutability": "nonpayable",
      "type": "function"
    },
    {
      "inputs": [
        {
          "internalType": "address",
          "name": "to",
          "type": "address"
        },
        {
          "internalType": "uint256",
          "name": "tokenId",
          "type": "uint256"
        }
      ],
      "name": "approve",
      "outputs": [],
      "stateMutability": "nonpayable",
      "type": "function"
    },
    {
      "inputs": [
        {
          "internalType": "address",
          "name": "owner",
          "type": "address"
        }
      ],
      "name": "balanceOf",
      "outputs": [
        {
          "internalType": "uint256",
          "name": "",
          "type": "uint256"
        }
      ],
      "stateMutability": "view",
      "type": "function"
    },
    {
      "inputs": [],
      "name": "baseUri",
      "outputs": [
        {
          "internalType": "string",
          "name": "",
          "type": "string"
        }
      ],
      "stateMutability": "view",
      "type": "function"
    },
    {
      "inputs": [
        {
          "internalType": "uint256",
          "name": "tokenId",
          "type": "uint256"
        }
      ],
      "name": "burn",
      "outputs": [],
      "stateMutability": "nonpayable",
      "type": "function"
    },
    {
      "inputs": [
        {
          "internalType": "uint8[]",
          "name": "cardNumbers",
          "type": "uint8[]"
        }
      ],
      "name": "burnCards",
      "outputs": [],
      "stateMutability": "nonpayable",
      "type": "function"
    },
    {
      "inputs": [
        {
          "internalType": "address",
          "name": "user",
          "type": "address"
        }
      ],
      "name": "burnedCards",
      "outputs": [
        {
          "internalType": "uint256",
          "name": "amount",
          "type": "uint256"
        }
      ],
      "stateMutability": "view",
      "type": "function"
    },
    {
      "inputs": [
        {
          "internalType": "uint256",
          "name": "tokenId",
          "type": "uint256"
        }
      ],
      "name": "cards",
      "outputs": [
        {
          "internalType": "uint256",
          "name": "tokenId",
          "type": "uint256"
        },
        {
          "internalType": "uint256",
          "name": "number",
          "type": "uint256"
        },
        {
          "internalType": "bool",
          "name": "pasted",
          "type": "bool"
        },
        {
          "internalType": "uint8",
          "name": "class",
          "type": "uint8"
        },
        {
          "internalType": "uint256",
          "name": "completion",
          "type": "uint256"
        }
      ],
      "stateMutability": "view",
      "type": "function"
    },
    {
      "inputs": [
        {
          "internalType": "address",
          "name": "user",
          "type": "address"
        },
        {
          "internalType": "uint8",
          "name": "cardNumber",
          "type": "uint8"
        }
      ],
      "name": "cardsByUser",
      "outputs": [
        {
          "internalType": "uint8",
          "name": "amount",
          "type": "uint8"
        }
      ],
      "stateMutability": "view",
      "type": "function"
    },
    {
      "inputs": [
        {
          "internalType": "uint256",
          "name": "cardNumber",
          "type": "uint256"
        }
      ],
      "name": "cardsInventory",
      "outputs": [
        {
          "internalType": "uint256",
          "name": "amount",
          "type": "uint256"
        }
      ],
      "stateMutability": "view",
      "type": "function"
    },
    {
      "inputs": [
        {
          "internalType": "uint8",
          "name": "_maxPacksToOpenAtOnce",
          "type": "uint8"
        }
      ],
      "name": "changeMaxPacksToOpenAtOnce",
      "outputs": [],
      "stateMutability": "nonpayable",
      "type": "function"
    },
    {
      "inputs": [
        {
          "internalType": "uint256",
          "name": "newPackPrice",
          "type": "uint256"
        }
      ],
      "name": "changePackPrice",
      "outputs": [],
      "stateMutability": "nonpayable",
      "type": "function"
    },
    {
      "inputs": [
        {
          "internalType": "bool",
          "name": "required",
          "type": "bool"
        }
      ],
      "name": "changeRequireOfferValidationInMint",
      "outputs": [],
      "stateMutability": "nonpayable",
      "type": "function"
    },
    {
      "inputs": [
        {
          "internalType": "bool",
          "name": "required",
          "type": "bool"
        }
      ],
      "name": "changeRequireOfferValidationInTransfer",
      "outputs": [],
      "stateMutability": "nonpayable",
      "type": "function"
    },
    {
      "inputs": [
        {
          "internalType": "bool",
          "name": "required",
          "type": "bool"
        }
      ],
      "name": "changeRequireOpenPackSignerValidation",
      "outputs": [],
      "stateMutability": "nonpayable",
      "type": "function"
    },
    {
      "inputs": [
        {
          "internalType": "uint256",
          "name": "amount",
          "type": "uint256"
        }
      ],
      "name": "emergencyWithdraw",
      "outputs": [],
      "stateMutability": "nonpayable",
      "type": "function"
    },
    {
      "inputs": [
        {
          "internalType": "address",
          "name": "from",
          "type": "address"
        },
        {
          "internalType": "uint8",
          "name": "cardNumberFrom",
          "type": "uint8"
        },
        {
          "internalType": "address",
          "name": "to",
          "type": "address"
        },
        {
          "internalType": "uint8",
          "name": "cardNumberTo",
          "type": "uint8"
        }
      ],
      "name": "exchangeCardsOffer",
      "outputs": [],
      "stateMutability": "nonpayable",
      "type": "function"
    },
    {
      "inputs": [],
      "name": "finishAlbum",
      "outputs": [
        {
          "internalType": "bool",
          "name": "",
          "type": "bool"
        }
      ],
      "stateMutability": "nonpayable",
      "type": "function"
    },
    {
      "inputs": [],
      "name": "gammaOffersContract",
      "outputs": [
        {
          "internalType": "contract IgammaOffersContract",
          "name": "",
          "type": "address"
        }
      ],
      "stateMutability": "view",
      "type": "function"
    },
    {
      "inputs": [],
      "name": "gammaPacksContract",
      "outputs": [
        {
          "internalType": "contract IgammaPacksContract",
          "name": "",
          "type": "address"
        }
      ],
      "stateMutability": "view",
      "type": "function"
    },
    {
      "inputs": [
        {
          "internalType": "uint256",
          "name": "tokenId",
          "type": "uint256"
        }
      ],
      "name": "getApproved",
      "outputs": [
        {
          "internalType": "address",
          "name": "",
          "type": "address"
        }
      ],
      "stateMutability": "view",
      "type": "function"
    },
    {
      "inputs": [
        {
          "internalType": "address",
          "name": "user",
          "type": "address"
        },
        {
          "internalType": "uint8",
          "name": "cardNum",
          "type": "uint8"
        }
      ],
      "name": "getCardQuantityByUser",
      "outputs": [
        {
          "internalType": "uint8",
          "name": "",
          "type": "uint8"
        }
      ],
      "stateMutability": "view",
      "type": "function"
    },
    {
      "inputs": [
        {
          "internalType": "address",
          "name": "user",
          "type": "address"
        }
      ],
      "name": "getCardsByUser",
      "outputs": [
        {
          "internalType": "uint8[]",
          "name": "",
          "type": "uint8[]"
        },
        {
          "internalType": "uint8[]",
          "name": "",
          "type": "uint8[]"
        },
        {
          "internalType": "bool[]",
          "name": "",
          "type": "bool[]"
        }
      ],
      "stateMutability": "view",
      "type": "function"
    },
    {
      "inputs": [
        {
          "internalType": "address",
          "name": "user",
          "type": "address"
        },
        {
          "internalType": "uint8",
          "name": "cardNum",
          "type": "uint8"
        }
      ],
      "name": "hasCard",
      "outputs": [
        {
          "internalType": "bool",
          "name": "has",
          "type": "bool"
        }
      ],
      "stateMutability": "view",
      "type": "function"
    },
    {
      "inputs": [
        {
          "internalType": "address",
          "name": "user",
          "type": "address"
        },
        {
          "internalType": "uint8",
          "name": "cardNumber",
          "type": "uint8"
        }
      ],
      "name": "hasCardByOffer",
      "outputs": [
        {
          "internalType": "bool",
          "name": "has",
          "type": "bool"
        }
      ],
      "stateMutability": "view",
      "type": "function"
    },
    {
      "inputs": [
        {
          "internalType": "address",
          "name": "owner",
          "type": "address"
        },
        {
          "internalType": "address",
          "name": "operator",
          "type": "address"
        }
      ],
      "name": "isApprovedForAll",
      "outputs": [
        {
          "internalType": "bool",
          "name": "",
          "type": "bool"
        }
      ],
      "stateMutability": "view",
      "type": "function"
    },
    {
      "inputs": [],
      "name": "mainAlbumPrize",
      "outputs": [
        {
          "internalType": "uint256",
          "name": "",
          "type": "uint256"
        }
      ],
      "stateMutability": "view",
      "type": "function"
    },
    {
      "inputs": [],
      "name": "mainUri",
      "outputs": [
        {
          "internalType": "string",
          "name": "",
          "type": "string"
        }
      ],
      "stateMutability": "view",
      "type": "function"
    },
    {
      "inputs": [],
      "name": "maxPacksToOpenAtOnce",
      "outputs": [
        {
          "internalType": "uint8",
          "name": "",
          "type": "uint8"
        }
      ],
      "stateMutability": "view",
      "type": "function"
    },
    {
      "inputs": [
        {
          "internalType": "uint8",
          "name": "cardNum",
          "type": "uint8"
        }
      ],
      "name": "mintCard",
      "outputs": [],
      "stateMutability": "nonpayable",
      "type": "function"
    },
    {
      "inputs": [],
      "name": "name",
      "outputs": [
        {
          "internalType": "string",
          "name": "",
          "type": "string"
        }
      ],
      "stateMutability": "view",
      "type": "function"
    },
    {
      "inputs": [
        {
          "internalType": "uint256",
          "name": "packNumber",
          "type": "uint256"
        },
        {
          "internalType": "uint8[]",
          "name": "packData",
          "type": "uint8[]"
        },
        {
          "internalType": "bytes",
          "name": "signature",
          "type": "bytes"
        }
      ],
      "name": "openPack",
      "outputs": [],
      "stateMutability": "nonpayable",
      "type": "function"
    },
    {
      "inputs": [
        {
          "internalType": "uint8",
          "name": "packsQuantity",
          "type": "uint8"
        },
        {
          "internalType": "uint256[]",
          "name": "packsNumber",
          "type": "uint256[]"
        },
        {
          "internalType": "uint8[][]",
          "name": "packsData",
          "type": "uint8[][]"
        },
        {
          "internalType": "bytes[]",
          "name": "signatures",
          "type": "bytes[]"
        }
      ],
      "name": "openPacks",
      "outputs": [],
      "stateMutability": "nonpayable",
      "type": "function"
    },
    {
      "inputs": [],
      "name": "owner",
      "outputs": [
        {
          "internalType": "address",
          "name": "",
          "type": "address"
        }
      ],
      "stateMutability": "view",
      "type": "function"
    },
    {
      "inputs": [
        {
          "internalType": "uint256",
          "name": "tokenId",
          "type": "uint256"
        }
      ],
      "name": "ownerOf",
      "outputs": [
        {
          "internalType": "address",
          "name": "",
          "type": "address"
        }
      ],
      "stateMutability": "view",
      "type": "function"
    },
    {
      "inputs": [
        {
          "internalType": "address",
          "name": "",
          "type": "address"
        }
      ],
      "name": "owners",
      "outputs": [
        {
          "internalType": "bool",
          "name": "",
          "type": "bool"
        }
      ],
      "stateMutability": "view",
      "type": "function"
    },
    {
      "inputs": [],
      "name": "packPrice",
      "outputs": [
        {
          "internalType": "uint256",
          "name": "",
          "type": "uint256"
        }
      ],
      "stateMutability": "view",
      "type": "function"
    },
    {
      "inputs": [],
      "name": "prizesBalance",
      "outputs": [
        {
          "internalType": "uint256",
          "name": "",
          "type": "uint256"
        }
      ],
      "stateMutability": "view",
      "type": "function"
    },
    {
      "inputs": [
        {
          "internalType": "address",
          "name": "user",
          "type": "address"
        },
        {
          "internalType": "uint8",
          "name": "cardNumber",
          "type": "uint8"
        }
      ],
      "name": "removeCardByOffer",
      "outputs": [],
      "stateMutability": "nonpayable",
      "type": "function"
    },
    {
      "inputs": [
        {
          "internalType": "address",
          "name": "_ownerToRemove",
          "type": "address"
        }
      ],
      "name": "removeOwner",
      "outputs": [],
      "stateMutability": "nonpayable",
      "type": "function"
    },
    {
      "inputs": [
        {
          "internalType": "address",
          "name": "_signerToRemove",
          "type": "address"
        }
      ],
      "name": "removeSigner",
      "outputs": [],
      "stateMutability": "nonpayable",
      "type": "function"
    },
    {
      "inputs": [],
      "name": "renounceOwnership",
      "outputs": [],
      "stateMutability": "nonpayable",
      "type": "function"
    },
    {
      "inputs": [],
      "name": "requireOfferValidationInMint",
      "outputs": [
        {
          "internalType": "bool",
          "name": "",
          "type": "bool"
        }
      ],
      "stateMutability": "view",
      "type": "function"
    },
    {
      "inputs": [],
      "name": "requireOfferValidationInTransfer",
      "outputs": [
        {
          "internalType": "bool",
          "name": "",
          "type": "bool"
        }
      ],
      "stateMutability": "view",
      "type": "function"
    },
    {
      "inputs": [],
      "name": "requireOpenPackSignerValidation",
      "outputs": [
        {
          "internalType": "bool",
          "name": "",
          "type": "bool"
        }
      ],
      "stateMutability": "view",
      "type": "function"
    },
    {
      "inputs": [
        {
          "internalType": "address",
          "name": "user",
          "type": "address"
        },
        {
          "internalType": "uint8",
          "name": "cardNumber",
          "type": "uint8"
        }
      ],
      "name": "restoreCardByOffer",
      "outputs": [],
      "stateMutability": "nonpayable",
      "type": "function"
    },
    {
      "inputs": [
        {
          "internalType": "address",
          "name": "from",
          "type": "address"
        },
        {
          "internalType": "address",
          "name": "to",
          "type": "address"
        },
        {
          "internalType": "uint256",
          "name": "tokenId",
          "type": "uint256"
        }
      ],
      "name": "safeTransferFrom",
      "outputs": [],
      "stateMutability": "nonpayable",
      "type": "function"
    },
    {
      "inputs": [
        {
          "internalType": "address",
          "name": "from",
          "type": "address"
        },
        {
          "internalType": "address",
          "name": "to",
          "type": "address"
        },
        {
          "internalType": "uint256",
          "name": "tokenId",
          "type": "uint256"
        },
        {
          "internalType": "bytes",
          "name": "data",
          "type": "bytes"
        }
      ],
      "name": "safeTransferFrom",
      "outputs": [],
      "stateMutability": "nonpayable",
      "type": "function"
    },
    {
      "inputs": [],
      "name": "secondaryAlbumPrize",
      "outputs": [
        {
          "internalType": "uint256",
          "name": "",
          "type": "uint256"
        }
      ],
      "stateMutability": "view",
      "type": "function"
    },
    {
      "inputs": [],
      "name": "secondaryUri",
      "outputs": [
        {
          "internalType": "string",
          "name": "",
          "type": "string"
        }
      ],
      "stateMutability": "view",
      "type": "function"
    },
    {
      "inputs": [
        {
          "internalType": "address",
          "name": "operator",
          "type": "address"
        },
        {
          "internalType": "bool",
          "name": "approved",
          "type": "bool"
        }
      ],
      "name": "setApprovalForAll",
      "outputs": [],
      "stateMutability": "nonpayable",
      "type": "function"
    },
    {
      "inputs": [
        {
          "internalType": "address",
          "name": "_gammaOffersContract",
          "type": "address"
        }
      ],
      "name": "setGammaOffersContract",
      "outputs": [],
      "stateMutability": "nonpayable",
      "type": "function"
    },
    {
      "inputs": [
        {
          "internalType": "address",
          "name": "_gammaPacksContract",
          "type": "address"
        }
      ],
      "name": "setGammaPacksContract",
      "outputs": [],
      "stateMutability": "nonpayable",
      "type": "function"
    },
    {
      "inputs": [
        {
          "internalType": "uint256",
          "name": "amount",
          "type": "uint256"
        }
      ],
      "name": "setPrizesBalance",
      "outputs": [],
      "stateMutability": "nonpayable",
      "type": "function"
    },
    {
      "inputs": [
        {
          "internalType": "string",
          "name": "newMainUri",
          "type": "string"
        },
        {
          "internalType": "string",
          "name": "newSecondaryUri",
          "type": "string"
        }
      ],
      "name": "setUris",
      "outputs": [],
      "stateMutability": "nonpayable",
      "type": "function"
    },
    {
      "inputs": [
        {
          "internalType": "address",
          "name": "",
          "type": "address"
        }
      ],
      "name": "signers",
      "outputs": [
        {
          "internalType": "bool",
          "name": "",
          "type": "bool"
        }
      ],
      "stateMutability": "view",
      "type": "function"
    },
    {
      "inputs": [
        {
          "internalType": "bytes4",
          "name": "interfaceId",
          "type": "bytes4"
        }
      ],
      "name": "supportsInterface",
      "outputs": [
        {
          "internalType": "bool",
          "name": "",
          "type": "bool"
        }
      ],
      "stateMutability": "view",
      "type": "function"
    },
    {
      "inputs": [],
      "name": "symbol",
      "outputs": [
        {
          "internalType": "string",
          "name": "",
          "type": "string"
        }
      ],
      "stateMutability": "view",
      "type": "function"
    },
    {
      "inputs": [
        {
          "internalType": "address",
          "name": "user",
          "type": "address"
        }
      ],
      "name": "testAddCards",
      "outputs": [],
      "stateMutability": "nonpayable",
      "type": "function"
    },
    {
      "inputs": [
        {
          "internalType": "address",
          "name": "user",
          "type": "address"
        },
        {
          "internalType": "uint256",
          "name": "packNumber",
          "type": "uint256"
        },
        {
          "internalType": "uint8[]",
          "name": "packData",
          "type": "uint8[]"
        }
      ],
      "name": "testOpenPack",
      "outputs": [],
      "stateMutability": "nonpayable",
      "type": "function"
    },
    {
      "inputs": [
        {
          "internalType": "uint256",
          "name": "tokenId",
          "type": "uint256"
        }
      ],
      "name": "tokenURI",
      "outputs": [
        {
          "internalType": "string",
          "name": "",
          "type": "string"
        }
      ],
      "stateMutability": "view",
      "type": "function"
    },
    {
      "inputs": [
        {
          "internalType": "address",
          "name": "to",
          "type": "address"
        },
        {
          "internalType": "uint8",
          "name": "cardNumber",
          "type": "uint8"
        }
      ],
      "name": "transferCard",
      "outputs": [],
      "stateMutability": "nonpayable",
      "type": "function"
    },
    {
      "inputs": [
        {
          "internalType": "address",
          "name": "to",
          "type": "address"
        },
        {
          "internalType": "uint8[]",
          "name": "cardNumbers",
          "type": "uint8[]"
        }
      ],
      "name": "transferCards",
      "outputs": [],
      "stateMutability": "nonpayable",
      "type": "function"
    },
    {
      "inputs": [
        {
          "internalType": "address",
          "name": "from",
          "type": "address"
        },
        {
          "internalType": "address",
          "name": "to",
          "type": "address"
        },
        {
          "internalType": "uint256",
          "name": "tokenId",
          "type": "uint256"
        }
      ],
      "name": "transferFrom",
      "outputs": [],
      "stateMutability": "nonpayable",
      "type": "function"
    },
    {
      "inputs": [
        {
          "internalType": "address",
          "name": "newOwner",
          "type": "address"
        }
      ],
      "name": "transferOwnership",
      "outputs": [],
      "stateMutability": "nonpayable",
      "type": "function"
    },
    {
      "inputs": [
        {
          "internalType": "uint256",
          "name": "packNumber",
          "type": "uint256"
        },
        {
          "internalType": "uint8[]",
          "name": "packData",
          "type": "uint8[]"
        },
        {
          "internalType": "bytes",
          "name": "signature",
          "type": "bytes"
        }
      ],
      "name": "verifyPackSigner",
      "outputs": [
        {
          "internalType": "address",
          "name": "signer",
          "type": "address"
        }
      ],
      "stateMutability": "view",
      "type": "function"
    }
  ],
  "bytecode": "0x60806040526009805460ff60a01b1916600560a11b1790556710a741a462780000600c5567d02ab486cedc0000600f55670de0b6b3a76400006010553480156200004857600080fd5b506040516200641a3803806200641a8339810160408190526200006b9162000375565b6040518060400160405280600a81526020016947616d6d61436172647360b01b815250604051806040016040528060068152602001654e4f465f474360d01b8152508160009081620000be9190620004f7565b506001620000cd8282620004f7565b505050620000ea620000e4620002c660201b60201c565b620002ca565b600880546001600160a01b038086166001600160a01b031992831617909255600b805492871692909116919091179055600e620001288382620004f7565b5060408051808201825260018152602f60f81b60208083019190915282518084018452600381526203132360ec1b8183015283518085018552600681526523173539b7b760d11b8184015293516200018794600e9493909101620005c3565b60405160208183030381529060405260119081620001a69190620004f7565b5060408051808201825260018152602f60f81b60208083019190915282518084018452600381526231323160e81b8183015283518085018552600681526523173539b7b760d11b8184015293516200020594600e9493909101620005c3565b60405160208183030381529060405260129081620002249190620004f7565b506001600160a01b03811660009081526015602052604081208054600160ff199091161790556013805462ffffff1916620101001790556009805460ff60a01b1916600560a11b1790555b607a811015620002a05760008181526017602052604090206001905580620002978162000680565b9150506200026f565b5050336000908152601460205260409020805460ff1916600117905550620006a8915050565b3390565b600780546001600160a01b038381166001600160a01b0319831681179093556040519116919082907f8be0079c531659141344cd1fd0a4f28419497f9722a3daafe3b4186f6b6457e090600090a35050565b80516001600160a01b03811681146200033457600080fd5b919050565b634e487b7160e01b600052604160045260246000fd5b60005b838110156200036c57818101518382015260200162000352565b50506000910152565b600080600080608085870312156200038c57600080fd5b62000397856200031c565b9350620003a7602086016200031c565b60408601519093506001600160401b0380821115620003c557600080fd5b818701915087601f830112620003da57600080fd5b815181811115620003ef57620003ef62000339565b604051601f8201601f19908116603f011681019083821181831017156200041a576200041a62000339565b816040528281528a60208487010111156200043457600080fd5b620004478360208301602088016200034f565b80965050505050506200045d606086016200031c565b905092959194509250565b600181811c908216806200047d57607f821691505b6020821081036200049e57634e487b7160e01b600052602260045260246000fd5b50919050565b601f821115620004f257600081815260208120601f850160051c81016020861015620004cd5750805b601f850160051c820191505b81811015620004ee57828155600101620004d9565b5050505b505050565b81516001600160401b0381111562000513576200051362000339565b6200052b8162000524845462000468565b84620004a4565b602080601f8311600181146200056357600084156200054a5750858301515b600019600386901b1c1916600185901b178555620004ee565b600085815260208120601f198616915b82811015620005945788860151825594840194600190910190840162000573565b5085821015620005b35787850151600019600388901b60f8161c191681555b5050505050600190811b01905550565b6000808654620005d38162000468565b60018281168015620005ee5760018114620006045762000635565b60ff198416875282151583028701945062000635565b8a60005260208060002060005b858110156200062c5781548a82015290840190820162000611565b50505082870194505b5050505085516200064b818360208a016200034f565b8551910190620006608183602089016200034f565b8451910190620006758183602088016200034f565b019695505050505050565b600060018201620006a157634e487b7160e01b600052601160045260246000fd5b5060010190565b615d6280620006b86000396000f3fe608060405234801561001057600080fd5b50600436106104075760003560e01c80637155a3ac11610220578063a22cb46511610130578063dbfc05cf116100b8578063e606df8711610087578063e606df871461098d578063e985e9c5146109a0578063eb12d61e146109dc578063f2fde38b146109ef578063f98fd28314610a0257600080fd5b8063dbfc05cf14610956578063dec3f6d914610969578063e1883c6e14610971578063e5db587a1461098457600080fd5b8063bf400a6a116100ff578063bf400a6a14610902578063c3461c0714610915578063c87b56dd1461091d578063cafaa47314610930578063d322b5631461094357600080fd5b8063a22cb465146108b6578063a419811d146108c9578063ad1684fa146108dc578063b88d4fde146108ef57600080fd5b80638dc10768116101b3578063968841351161018257806396884135146108725780639abc83201461087f5780639c7f707f146108875780639f4415d81461089a578063a1af8ad4146108a357600080fd5b80638dc10768146107de5780639038f41414610850578063915656641461085857806395d89b411461086a57600080fd5b806384c4bd4b116101ef57806384c4bd4b1461079e578063886eb60f146107a75780638bf670c8146107ba5780638da5cb5b146107cd57600080fd5b80637155a3ac1461071a578063736c0d5b1461072d5780637e50fa8f14610750578063809eb3551461077057600080fd5b8063267b841d1161031b578063511b9307116102ae5780636352211e1161027d5780636352211e146106c657806368cc5bc1146106d95780637065cb48146106ec57806370a08231146106ff578063715018a61461071257600080fd5b8063511b93071461066d5780635312ea8e146106805780635dde20d8146106935780635e31ce48146106b357600080fd5b8063335c8b63116102ea578063335c8b631461062757806342842e0e1461063e57806342966c6814610651578063483823e81461066457600080fd5b8063267b841d146105db5780632ca699e7146105ee5780632f9e026a1461060157806330f5cc581461061457600080fd5b8063128916dc1161039e578063173825d91161036d578063173825d91461057c578063203335f61461058f57806320965a5f146105a257806323b872dd146105b5578063241a08fe146105c857600080fd5b8063128916dc146105075780631306952c1461051a578063155e2f921461052d5780631585cc4e1461054057600080fd5b806306fdde03116103da57806306fdde031461049f578063081812fc146104b4578063095ea7b3146104df5780630e316ab7146104f457600080fd5b806301ffc9a71461040c578063022914a71461043457806303900270146104575780630435dcaf1461047d575b600080fd5b61041f61041a366004614c73565b610a15565b60405190151581526020015b60405180910390f35b61041f610442366004614ca5565b60146020526000908152604090205460ff1681565b60095461046b90600160a01b900460ff1681565b60405160ff909116815260200161042b565b61049061048b366004614ca5565b610a26565b60405161042b93929190614d00565b6104a7610de3565b60405161042b9190614dbb565b6104c76104c2366004614dce565b610e75565b6040516001600160a01b03909116815260200161042b565b6104f26104ed366004614de7565b610e9c565b005b6104f2610502366004614ca5565b610fb6565b6104f2610515366004614ca5565b611133565b6104c7610528366004614f04565b6111d6565b6104f261053b366004614f9e565b6112cd565b61046b61054e366004614f9e565b6001600160a01b0391909116600090815260196020908152604080832060ff94851684529091529020541690565b6104f261058a366004614ca5565b611349565b6104f261059d366004615096565b6114bf565b6104f26105b036600461518c565b611635565b6104f26105c33660046151cd565b611a02565b6104f26105d636600461520e565b611a34565b6104f26105e9366004614f04565b611a83565b6104f26105fc366004614f9e565b611a96565b6008546104c7906001600160a01b031681565b6104f2610622366004615229565b611d0a565b610630600c5481565b60405190815260200161042b565b6104f261064c3660046151cd565b611fa7565b6104f261065f366004614dce565b611fc2565b61063060105481565b60135461041f9062010000900460ff1681565b6104f261068e366004614dce565b611ff3565b6106306106a1366004614dce565b60176020526000908152604090205481565b6104f26106c1366004614dce565b6120fa565b6104c76106d4366004614dce565b61213e565b6104f26106e736600461528f565b61219e565b6104f26106fa366004614ca5565b6121e9565b61063061070d366004614ca5565b6122fb565b6104f2612381565b6104f2610728366004614f9e565b612395565b61041f61073b366004614ca5565b60156020526000908152604090205460ff1681565b61063061075e366004614ca5565b60186020526000908152604090205481565b61046b61077e366004614f9e565b601960209081526000928352604080842090915290825290205460ff1681565b610630600a5481565b61041f6107b5366004614f9e565b6123f4565b61041f6107c8366004614f9e565b61244d565b6007546001600160a01b03166104c7565b6108206107ec366004614dce565b60166020526000908152604090208054600182015460028301546003909301549192909160ff808316926101009004169085565b6040805195865260208601949094529115159284019290925260ff9091166060830152608082015260a00161042b565b61041f61247a565b60135461041f90610100900460ff1681565b6104a761291c565b60135461041f9060ff1681565b6104a761292b565b6104f2610895366004615323565b6129b9565b610630600f5481565b6104f26108b1366004615386565b612a33565b6104f26108c43660046153da565b612dc1565b6104f26108d7366004614ca5565b612dd0565b6104f26108ea366004615413565b612e6e565b6104f26108fd36600461546b565b613182565b6104f261091036600461520e565b6131b4565b6104a76133ca565b6104a761092b366004614dce565b6133d7565b6104f261093e366004614ca5565b6133e2565b6009546104c7906001600160a01b031681565b6104f261096436600461528f565b613485565b6104a76134c7565b6104f261097f366004614dce565b6134d4565b610630600d5481565b600b546104c7906001600160a01b031681565b61041f6109ae3660046154ea565b6001600160a01b03918216600090815260056020908152604080832093909416825291909152205460ff1690565b6104f26109ea366004614ca5565b613503565b6104f26109fd366004614ca5565b613615565b6104f2610a1036600461528f565b61368b565b6000610a20826136d4565b92915050565b60408051607a808252610f608201909252606091829182916000919060208201610f4080368337505060408051607a808252610f608201909252929350600092915060208201610f4080368337505060408051607a808252610f608201909252929350600092915060208201610f40803683370190505090506000805b60798160ff1611610c0c576001600160a01b038916600090815260196020908152604080832060ff80861685529252909120541615610bfa5780858360ff1681518110610af257610af2615518565b60ff9283166020918202929092018101919091526001600160a01b038b166000908152601982526040808220858516835290925220548551908216918691908516908110610b4257610b42615518565b60ff90921660209283029190910190910152600954604051632edb5fcf60e01b81526001600160a01b0390911690632edb5fcf90610b86908c90859060040161552e565b602060405180830381865afa158015610ba3573d6000803e3d6000fd5b505050506040513d601f19601f82011682018060405250810190610bc7919061554a565b838360ff1681518110610bdc57610bdc615518565b9115156020928302919091019091015281610bf68161557d565b9250505b80610c048161557d565b915050610aa3565b5060008160ff166001600160401b03811115610c2a57610c2a614e13565b604051908082528060200260200182016040528015610c53578160200160208202803683370190505b50905060008260ff166001600160401b03811115610c7357610c73614e13565b604051908082528060200260200182016040528015610c9c578160200160208202803683370190505b50905060008360ff166001600160401b03811115610cbc57610cbc614e13565b604051908082528060200260200182016040528015610ce5578160200160208202803683370190505b50905060005b8460ff168160ff161015610dd157878160ff1681518110610d0e57610d0e615518565b6020026020010151848260ff1681518110610d2b57610d2b615518565b60ff9283166020918202929092010152875188918316908110610d5057610d50615518565b6020026020010151838260ff1681518110610d6d57610d6d615518565b60ff9283166020918202929092010152865187918316908110610d9257610d92615518565b6020026020010151828260ff1681518110610daf57610daf615518565b9115156020928302919091019091015280610dc98161557d565b915050610ceb565b50919a90995090975095505050505050565b606060008054610df29061559c565b80601f0160208091040260200160405190810160405280929190818152602001828054610e1e9061559c565b8015610e6b5780601f10610e4057610100808354040283529160200191610e6b565b820191906000526020600020905b815481529060010190602001808311610e4e57829003601f168201915b5050505050905090565b6000610e80826136f9565b506000908152600460205260409020546001600160a01b031690565b6000610ea78261213e565b9050806001600160a01b0316836001600160a01b031603610f195760405162461bcd60e51b815260206004820152602160248201527f4552433732313a20617070726f76616c20746f2063757272656e74206f776e656044820152603960f91b60648201526084015b60405180910390fd5b336001600160a01b0382161480610f355750610f3581336109ae565b610fa75760405162461bcd60e51b815260206004820152603d60248201527f4552433732313a20617070726f76652063616c6c6572206973206e6f7420746f60448201527f6b656e206f776e6572206f7220617070726f76656420666f7220616c6c0000006064820152608401610f10565b610fb18383613758565b505050565b3360009081526014602052604090205460ff16610fe55760405162461bcd60e51b8152600401610f10906155d6565b6001600160a01b03811661100b5760405162461bcd60e51b8152600401610f1090615619565b336001600160a01b038216036110735760405162461bcd60e51b815260206004820152602760248201527f596f752063616e6e6f742072656d6f766520796f757273656c6620617320612060448201526639b4b3b732b91760c91b6064820152608401610f10565b6001600160a01b03811660009081526015602052604090205460ff166110db5760405162461bcd60e51b815260206004820152601960248201527f41646472657373206973206e6f7420616e207369676e65722e000000000000006044820152606401610f10565b6001600160a01b038116600081815260156020908152604091829020805460ff1916905590519182527f3525e22824a8a7df2c9a6029941c824cf95b6447f1e13d5128fd3826d35afe8b91015b60405180910390a150565b3360009081526014602052604090205460ff166111625760405162461bcd60e51b8152600401610f10906155d6565b6001600160a01b0381166111885760405162461bcd60e51b8152600401610f1090615619565b600980546001600160a01b0319166001600160a01b0383169081179091556040519081527f538b3425a321783393ad250db10356b8b3523ef29a40de015c5218213de0ead090602001611128565b60008061123a3387876040516020016111f193929190615643565b604051602081830303815290604052805190602001207f19457468657265756d205369676e6564204d6573736167653a0a3332000000006000908152601c91909152603c902090565b9050600061128085858080601f01602080910402602001604051908101604052809392919081815260200183838082843760009201919091525086939250506137c69050565b90506112c16040518060400160405280601a81526020017f6f70656e207061636b207369676e6572207265636f7665726564000000000000815250826137ea565b9150505b949350505050565b6009546001600160a01b031633146112f75760405162461bcd60e51b8152600401610f10906156d1565b6001600160a01b038216600090815260196020908152604080832060ff80861685529252822080549091169161132c8361557d565b91906101000a81548160ff021916908360ff160217905550505050565b3360009081526014602052604090205460ff166113785760405162461bcd60e51b8152600401610f10906155d6565b6001600160a01b03811661139e5760405162461bcd60e51b8152600401610f1090615619565b336001600160a01b038216036114065760405162461bcd60e51b815260206004820152602760248201527f596f752063616e6e6f742072656d6f766520796f757273656c6620617320616e6044820152661037bbb732b91760c91b6064820152608401610f10565b6001600160a01b03811660009081526014602052604090205460ff1661146e5760405162461bcd60e51b815260206004820152601860248201527f41646472657373206973206e6f7420616e206f776e65722e00000000000000006044820152606401610f10565b6001600160a01b038116600081815260146020908152604091829020805460ff1916905590519182527f58619076adf5bb0943d100ef88d52d7c3fd691b19d3a9071b555b651fbf418da9101611128565b60008560ff16116115215760405162461bcd60e51b815260206004820152602660248201527f7061636b73207175616e74697479206d757374206265206772656174657220746044820152653430b710181760d11b6064820152608401610f10565b60095460ff600160a01b909104811690861611156115a05760405162461bcd60e51b815260206004820152603660248201527f7061636b73207175616e74697479206d757374206265206c657373207468616e6044820152751036b0bc1038bab0b73a34ba3c9030b63637bbb2b21760511b6064820152608401610f10565b60005b8560ff168160ff16101561162d5761161b33868360ff16815181106115ca576115ca615518565b6020026020010151868460ff16815181106115e7576115e7615518565b602002602001015186868660ff1681811061160457611604615518565b90506020028101906116169190615723565b61382f565b806116258161557d565b9150506115a3565b505050505050565b3360009081526019602090815260408083206079845290915290205460ff166116ac5760405162461bcd60e51b8152602060048201526024808201527f596f7520646f6573206e6f74206861766520616e79206275726e696e6720616c604482015263313ab69760e11b6064820152608401610f10565b600b546040516370a0823160e01b81523060048201526000916001600160a01b0316906370a0823190602401602060405180830381865afa1580156116f5573d6000803e3d6000fd5b505050506040513d601f19601f820116820180604052508101906117199190615769565b905060105481101561176d5760405162461bcd60e51b815260206004820152601e60248201527f496e73756666696369656e742066756e64732028636f6e7472616374292e00006044820152606401610f10565b336000908152601960209081526040808320607984529091528120805460ff169161179783615782565b825460ff9182166101009390930a92830291909202199091161790555033600090815260186020526040812080548492906117d390849061579f565b90915550600090505b60ff81168311156118745733600090815260196020526040812090858560ff851681811061180c5761180c615518565b9050602002016020810190611821919061520e565b60ff9081168252602082019290925260400160009081208054909216919061184883615782565b91906101000a81548160ff021916908360ff16021790555050808061186c9061557d565b9150506117dc565b503360009081526018602052604090205461189190603c906157c8565b600003610fb15761193033601280546118a99061559c565b80601f01602080910402602001604051908101604052809291908181526020018280546118d59061559c565b80156119225780601f106118f757610100808354040283529160200191611922565b820191906000526020600020905b81548152906001019060200180831161190557829003601f168201915b505050505060796002613cf2565b600f54600d600082825461194491906157dc565b9091555050600b5460105460405163a9059cbb60e01b815233600482015260248101919091526001600160a01b039091169063a9059cbb906044016020604051808303816000875af115801561199e573d6000803e3d6000fd5b505050506040513d601f19601f820116820180604052508101906119c2919061554a565b507f6d0344e2059f835240cb954cce07d4b26f0d0844eecc234f7ee0e292ba80a1aa3360026040516119f592919061552e565b60405180910390a1505050565b611a0d335b82613d55565b611a295760405162461bcd60e51b8152600401610f10906157ef565b610fb1838383613dd3565b3360009081526014602052604090205460ff16611a635760405162461bcd60e51b8152600401610f10906155d6565b6009805460ff909216600160a01b0260ff60a01b19909216919091179055565b611a90338585858561382f565b50505050565b33600090815260196020908152604080832060ff808616855292529091205416611ad25760405162461bcd60e51b8152600401610f109061583c565b336001600160a01b03831603611b2a5760405162461bcd60e51b815260206004820152601960248201527f4f776e207472616e73666572206e6f7420616c6c6f7765642e000000000000006044820152606401610f10565b6001600160a01b038216611b505760405162461bcd60e51b8152600401610f1090615619565b60135462010000900460ff1615611c2557600954604051632edb5fcf60e01b81526000916001600160a01b031690632edb5fcf90611b94903390869060040161552e565b602060405180830381865afa158015611bb1573d6000803e3d6000fd5b505050506040513d601f19601f82011682018060405250810190611bd5919061554a565b33600090815260196020908152604080832060ff80881685529252909120549192506001911611811580611c065750805b611c225760405162461bcd60e51b8152600401610f1090615873565b50505b33600090815260196020908152604080832060ff808616855292528220805490911691611c5183615782565b82546101009290920a60ff8181021990931691831602179091556001600160a01b03841660009081526019602090815260408083208685168452909152812080549092169250611ca08361557d565b82546101009290920a60ff818102199093169183160217909155604080513381526001600160a01b0386166020820152918416908201527f1b6e5f928a38f442936bbdf4696f128a543b8e43730594344a66c028d0b9c3da91506060015b60405180910390a15050565b3360009081526014602052604090205460ff16611d395760405162461bcd60e51b8152600401610f10906155d6565b6008546040516380f2540b60e01b8152600481018490526001600160a01b038581166024830152909116906380f2540b90604401600060405180830381600087803b158015611d8757600080fd5b505af1158015611d9b573d6000803e3d6000fd5b505050506006600c54611dae91906158c3565b600c54611dbb91906157dc565b600d6000828254611dcc919061579f565b9091555050805160005b818160ff161015611fa057828160ff1681518110611df657611df6615518565b602002602001015160ff16607814611e445761138960176000858460ff1681518110611e2457611e24615518565b602002602001015160ff1681526020019081526020016000205410611e75565b607860005260176020527f1e0e657bdfc7d3d523657bb82aa6f2c628a4caf6e2f7839556e82479d4362f0654610bb9115b611ec15760405162461bcd60e51b815260206004820152601e60248201527f696e76616c69642063617264496e76656e746f727920706f736974696f6e00006044820152606401610f10565b60176000848360ff1681518110611eda57611eda615518565b602002602001015160ff1681526020019081526020016000206000815480929190611f04906158d7565b90915550506001600160a01b03851660009081526019602052604081208451909190859060ff8516908110611f3b57611f3b615518565b602002602001015160ff1660ff168152602001908152602001600020600081819054906101000a900460ff1680929190611f749061557d565b91906101000a81548160ff021916908360ff160217905550508080611f989061557d565b915050611dd6565b5050505050565b610fb183838360405180602001604052806000815250613182565b611fcb33611a07565b611fe75760405162461bcd60e51b8152600401610f10906157ef565b611ff081613f37565b50565b3360009081526014602052604090205460ff166120225760405162461bcd60e51b8152600401610f10906155d6565b8061202c306122fb565b101561203757600080fd5b80600d600082825461204991906157dc565b9091555050600b5460405163a9059cbb60e01b8152336004820152602481018390526001600160a01b039091169063a9059cbb906044016020604051808303816000875af115801561209f573d6000803e3d6000fd5b505050506040513d601f19601f820116820180604052508101906120c3919061554a565b5060408051338152602081018390527f23d6711a1d031134a36921253c75aa59e967d38e369ac625992824315e204f209101611128565b6008546001600160a01b031633146121245760405162461bcd60e51b8152600401610f10906158f0565b80600d6000828254612136919061579f565b909155505050565b6000818152600260205260408120546001600160a01b031680610a205760405162461bcd60e51b8152602060048201526018602482015277115490cdcc8c4e881a5b9d985b1a59081d1bdad95b88125160421b6044820152606401610f10565b3360009081526014602052604090205460ff166121cd5760405162461bcd60e51b8152600401610f10906155d6565b60138054911515620100000262ff000019909216919091179055565b3360009081526014602052604090205460ff166122185760405162461bcd60e51b8152600401610f10906155d6565b6001600160a01b03811661223e5760405162461bcd60e51b8152600401610f1090615619565b6001600160a01b03811660009081526014602052604090205460ff16156122a75760405162461bcd60e51b815260206004820152601c60248201527f4164647265737320697320616c726561647920616e206f776e65722e000000006044820152606401610f10565b6001600160a01b038116600081815260146020908152604091829020805460ff1916600117905590519182527f6e4e2a7c0e1576d48aeabd633d094f622d4f046286fec8b9045dd7f5c9fb087d9101611128565b60006001600160a01b0382166123655760405162461bcd60e51b815260206004820152602960248201527f4552433732313a2061646472657373207a65726f206973206e6f7420612076616044820152683634b21037bbb732b960b91b6064820152608401610f10565b506001600160a01b031660009081526003602052604090205490565b612389613f40565b6123936000613f9a565b565b6009546001600160a01b031633146123bf5760405162461bcd60e51b8152600401610f10906156d1565b6001600160a01b038216600090815260196020908152604080832060ff80861685529252822080549091169161132c83615782565b60006001600160a01b03831661241c5760405162461bcd60e51b8152600401610f1090615619565b506001600160a01b0391909116600090815260196020908152604080832060ff948516845290915290205416151590565b6009546000906001600160a01b0316331461241c5760405162461bcd60e51b8152600401610f10906156d1565b3360009081526019602090815260408083206078845290915281205460ff166124e55760405162461bcd60e51b815260206004820152601c60248201527f596f7520646f6573206e6f74206861766520616e7920616c62756d2e000000006044820152606401610f10565b600f54600d54101561254a5760405162461bcd60e51b815260206004820152602860248201527f496e73756666696369656e742066756e647320286f70656e2d7061636b73206260448201526730b630b731b2949760c11b6064820152608401610f10565b600b546040516370a0823160e01b81523060048201526000916001600160a01b0316906370a0823190602401602060405180830381865afa158015612593573d6000803e3d6000fd5b505050506040513d601f19601f820116820180604052508101906125b79190615769565b9050600f5481101561260b5760405162461bcd60e51b815260206004820152601e60248201527f496e73756666696369656e742066756e64732028636f6e7472616374292e00006044820152606401610f10565b6000805b60788160ff16116126a05733600090815260196020908152604080832060ff8086168552925282205416900361264857600191506126a0565b33600090815260196020908152604080832060ff80861685529252822080549091169161267483615782565b91906101000a81548160ff021916908360ff1602179055505080806126989061557d565b91505061260f565b5080156126ef5760405162461bcd60e51b815260206004820152601860248201527f4d75737420636f6d706c6574652074686520616c62756d2e00000000000000006044820152606401610f10565b61278733601180546127009061559c565b80601f016020809104026020016040519081016040528092919081815260200182805461272c9061559c565b80156127795780601f1061274e57610100808354040283529160200191612779565b820191906000526020600020905b81548152906001019060200180831161275c57829003601f168201915b505050505060786002613cf2565b600b54600f5460405163a9059cbb60e01b815233600482015260248101919091526001600160a01b039091169063a9059cbb906044016020604051808303816000875af11580156127dc573d6000803e3d6000fd5b505050506040513d601f19601f82011682018060405250810190612800919061554a565b50600f54600d600082825461281591906157dc565b9091555050600954604051633f27a03f60e21b81523360048201526000916001600160a01b03169063fc9e80fc906024016020604051808303816000875af1158015612865573d6000803e3d6000fd5b505050506040513d601f19601f82011682018060405250810190612889919061554a565b9050806128d85760405162461bcd60e51b815260206004820152601960248201527f43616e6e6f742072656d6f76652075736572206f6666657273000000000000006044820152606401610f10565b7f6d0344e2059f835240cb954cce07d4b26f0d0844eecc234f7ee0e292ba80a1aa33600160405161290a92919061552e565b60405180910390a16001935050505090565b606060018054610df29061559c565b600e80546129389061559c565b80601f01602080910402602001604051908101604052809291908181526020018280546129649061559c565b80156129b15780601f10612986576101008083540402835291602001916129b1565b820191906000526020600020905b81548152906001019060200180831161299457829003601f168201915b505050505081565b3360009081526014602052604090205460ff166129e85760405162461bcd60e51b8152600401610f10906155d6565b60116129f48382615987565b506012612a018282615987565b507fabfd337ac5625b7dc2ddd3d3bd465fb1dec15322eeeed81032268b337880bec68282604051611cfe929190615a46565b336001600160a01b03841603612a965760405162461bcd60e51b815260206004820152602260248201527f596f752063616e6e6f742073656e6420636172647320746f20796f757273656c604482015261331760f11b6064820152608401610f10565b6001600160a01b038316612abc5760405162461bcd60e51b8152600401610f1090615619565b60005b60ff8116821115612d8b5733600090815260196020526040812081858560ff8616818110612aef57612aef615518565b9050602002016020810190612b04919061520e565b60ff90811682526020820192909252604001600020541611612b385760405162461bcd60e51b8152600401610f109061583c565b33600090815260196020526040812090848460ff8516818110612b5d57612b5d615518565b9050602002016020810190612b72919061520e565b60ff90811682526020820192909252604001600090812080549092169190612b9983615782565b91906101000a81548160ff021916908360ff1602179055505060196000856001600160a01b03166001600160a01b03168152602001908152602001600020600084848460ff16818110612bee57612bee615518565b9050602002016020810190612c03919061520e565b60ff90811682526020820192909252604001600090812080549092169190612c2a8361557d565b91906101000a81548160ff021916908360ff16021790555050601360029054906101000a900460ff1615612d79576009546000906001600160a01b0316632edb5fcf33868660ff8716818110612c8257612c82615518565b9050602002016020810190612c97919061520e565b6040518363ffffffff1660e01b8152600401612cb492919061552e565b602060405180830381865afa158015612cd1573d6000803e3d6000fd5b505050506040513d601f19601f82011682018060405250810190612cf5919061554a565b3360009081526019602052604081209192509060019082878760ff8816818110612d2157612d21615518565b9050602002016020810190612d36919061520e565b60ff908116825260208201929092526040016000205416119050811580612d5a5750805b612d765760405162461bcd60e51b8152600401610f1090615873565b50505b80612d838161557d565b915050612abf565b507f368eb521419fe880268b0d75c05eaa2da7ae9ccf468be86a848f7054366d2b9b338484846040516119f59493929190615a74565b612dcc338383613fec565b5050565b3360009081526014602052604090205460ff16612dff5760405162461bcd60e51b8152600401610f10906155d6565b60005b60798160ff1611612dcc576001600160a01b038216600090815260196020908152604080832060ff808616855292528220805490911691612e428361557d565b91906101000a81548160ff021916908360ff160217905550508080612e669061557d565b915050612e02565b6009546001600160a01b03163314612e985760405162461bcd60e51b8152600401610f10906156d1565b6001600160a01b038416612ebe5760405162461bcd60e51b8152600401610f1090615619565b6001600160a01b038216612ee45760405162461bcd60e51b8152600401610f1090615619565b6001600160a01b038416600090815260196020908152604080832060ff808816855292529091205416612f685760405162461bcd60e51b815260206004820152602660248201527f55736572202866726f6d2920646f6573206e6f74206861766520636172642028604482015265333937b6949760d11b6064820152608401610f10565b6001600160a01b038216600090815260196020908152604080832060ff808616855292529091205416612fe85760405162461bcd60e51b815260206004820152602260248201527f557365722028746f2920646f6573206e6f74206861766520636172642028746f604482015261149760f11b6064820152608401610f10565b6001600160a01b038416600090815260196020908152604080832060ff80881685529252822080549091169161301d83615782565b82546101009290920a60ff8181021990931691831602179091556001600160a01b0384166000908152601960209081526040808320888516845290915281208054909216925061306c8361557d565b82546101009290920a60ff8181021990931691831602179091556001600160a01b038416600090815260196020908152604080832086851684529091528120805490921692506130bb83615782565b82546101009290920a60ff8181021990931691831602179091556001600160a01b0386166000908152601960209081526040808320868516845290915281208054909216925061310a8361557d565b82546101009290920a60ff818102199093169183160217909155604080516001600160a01b038881168252861660208201528683169181019190915290831660608201527fb92b0572336aeb4786be6945bfd95be902fdee1fa1148d500d5b3a2c4f80c48c915060800160405180910390a150505050565b61318c3383613d55565b6131a85760405162461bcd60e51b8152600401610f10906157ef565b611a90848484846140ba565b33600090815260196020908152604080832060ff8086168552925290912054166131f05760405162461bcd60e51b8152600401610f109061583c565b601354610100900460ff161561330957600954604051632edb5fcf60e01b81526000916001600160a01b031690632edb5fcf90613233903390869060040161552e565b602060405180830381865afa158015613250573d6000803e3d6000fd5b505050506040513d601f19601f82011682018060405250810190613274919061554a565b33600090815260196020908152604080832060ff808816855292529091205491925060019116118115806132a55750805b6133065760405162461bcd60e51b815260206004820152602c60248201527f5468697320636172642068617320616e206f666665722c2069742063616e6e6f60448201526b3a1031329036b4b73a32b21760a11b6064820152608401610f10565b50505b33600090815260196020908152604080832060ff80861685529252822080549091169161333583615782565b91906101000a81548160ff021916908360ff160217905550506000600e604051806040016040528060018152602001602f60f81b8152506133788460ff166140ed565b60405180604001604052806005815260200164173539b7b760d91b8152506040516020016133a99493929190615acc565b6040516020818303038152906040529050612dcc33828460ff166001613cf2565b601180546129389061559c565b6060610a20826141ed565b3360009081526014602052604090205460ff166134115760405162461bcd60e51b8152600401610f10906155d6565b6001600160a01b0381166134375760405162461bcd60e51b8152600401610f1090615619565b600880546001600160a01b0319166001600160a01b0383169081179091556040519081527f5a78287a942b8ea0da8734a4eb919df11e564cc48301ffcb582dc8612d98208f90602001611128565b3360009081526014602052604090205460ff166134b45760405162461bcd60e51b8152600401610f10906155d6565b6013805460ff1916911515919091179055565b601280546129389061559c565b6008546001600160a01b031633146134fe5760405162461bcd60e51b8152600401610f10906158f0565b600c55565b3360009081526014602052604090205460ff166135325760405162461bcd60e51b8152600401610f10906155d6565b6001600160a01b0381166135585760405162461bcd60e51b8152600401610f1090615619565b6001600160a01b03811660009081526015602052604090205460ff16156135c15760405162461bcd60e51b815260206004820152601c60248201527f4164647265737320697320616c726561647920616e206f776e65722e000000006044820152606401610f10565b6001600160a01b038116600081815260156020908152604091829020805460ff1916600117905590519182527f72d4003e8f1ad99f4f488c703a1d183dee364a6337cb77f8fba50088cb0fbfa39101611128565b61361d613f40565b6001600160a01b0381166136825760405162461bcd60e51b815260206004820152602660248201527f4f776e61626c653a206e6577206f776e657220697320746865207a65726f206160448201526564647265737360d01b6064820152608401610f10565b611ff081613f9a565b3360009081526014602052604090205460ff166136ba5760405162461bcd60e51b8152600401610f10906155d6565b601380549115156101000261ff0019909216919091179055565b60006001600160e01b03198216632483248360e11b1480610a205750610a20826142f5565b6000818152600260205260409020546001600160a01b0316611ff05760405162461bcd60e51b8152602060048201526018602482015277115490cdcc8c4e881a5b9d985b1a59081d1bdad95b88125160421b6044820152606401610f10565b600081815260046020526040902080546001600160a01b0319166001600160a01b038416908117909155819061378d8261213e565b6001600160a01b03167f8c5be1e5ebec7d5bd14f71427d1e84f3dd0314c0f7b2291e5b200ac8c7c3b92560405160405180910390a45050565b60008060006137d58585614345565b915091506137e28161438a565b509392505050565b612dcc8282604051602401613800929190615b7b565b60408051601f198184030181529190526020810180516001600160e01b031663319af33360e01b1790526144d4565b60085460405163d3e6a7ad60e01b8152600481018690526001600160a01b0387811692169063d3e6a7ad90602401602060405180830381865afa15801561387a573d6000803e3d6000fd5b505050506040513d601f19601f8201168201806040525081019061389e9190615ba5565b6001600160a01b0316146138f45760405162461bcd60e51b815260206004820152601760248201527f54686973207061636b206973206e6f7420796f7572732e0000000000000000006044820152606401610f10565b600f83511061393b5760405162461bcd60e51b815260206004820152601360248201527210d85c99081b1a5b5a5d08195e18d959591959606a1b6044820152606401610f10565b60135460ff1615613a475760006139608686866040516020016111f193929190615643565b905060006139a684848080601f01602080910402602001604051908101604052809392919081815260200183838082843760009201919091525086939250506137c69050565b90506139e76040518060400160405280601a81526020017f6f70656e207061636b207369676e6572207265636f7665726564000000000000815250826137ea565b6001600160a01b03811660009081526015602052604090205460ff16613a445760405162461bcd60e51b815260206004820152601260248201527124b73b30b634b21039b4b3b730ba3ab9329760711b6044820152606401610f10565b50505b6008546040516380f2540b60e01b8152600481018690526001600160a01b038781166024830152909116906380f2540b90604401600060405180830381600087803b158015613a9557600080fd5b505af1158015613aa9573d6000803e3d6000fd5b505050506006600c54613abc91906158c3565b600c54613ac991906157dc565b600d6000828254613ada919061579f565b9091555050825160005b818160ff161015613cae57848160ff1681518110613b0457613b04615518565b602002602001015160ff16607814613b525761138960176000878460ff1681518110613b3257613b32615518565b602002602001015160ff1681526020019081526020016000205410613b83565b607860005260176020527f1e0e657bdfc7d3d523657bb82aa6f2c628a4caf6e2f7839556e82479d4362f0654610bb9115b613bcf5760405162461bcd60e51b815260206004820152601e60248201527f696e76616c69642063617264496e76656e746f727920706f736974696f6e00006044820152606401610f10565b60176000868360ff1681518110613be857613be8615518565b602002602001015160ff1681526020019081526020016000206000815480929190613c12906158d7565b90915550506001600160a01b03871660009081526019602052604081208651909190879060ff8516908110613c4957613c49615518565b602002602001015160ff1660ff168152602001908152602001600020600081819054906101000a900460ff1680929190613c829061557d565b91906101000a81548160ff021916908360ff160217905550508080613ca69061557d565b915050613ae4565b507fbabe8f5e83e93ab103ddf917b4292a19335a5128b3530bedd896a681cdd945e3868587604051613ce293929190615bc2565b60405180910390a1505050505050565b600a54600081815260166020526040902081815560018101849055600201805461ff00191661010060ff851602179055613d2c85826144dd565b613d3681856144f7565b6001600a6000828254613d49919061579f565b90915550505050505050565b600080613d618361213e565b9050806001600160a01b0316846001600160a01b03161480613da857506001600160a01b0380821660009081526005602090815260408083209388168352929052205460ff165b806112c55750836001600160a01b0316613dc184610e75565b6001600160a01b031614949350505050565b826001600160a01b0316613de68261213e565b6001600160a01b031614613e0c5760405162461bcd60e51b8152600401610f1090615bf6565b6001600160a01b038216613e6e5760405162461bcd60e51b8152602060048201526024808201527f4552433732313a207472616e7366657220746f20746865207a65726f206164646044820152637265737360e01b6064820152608401610f10565b826001600160a01b0316613e818261213e565b6001600160a01b031614613ea75760405162461bcd60e51b8152600401610f1090615bf6565b600081815260046020908152604080832080546001600160a01b03199081169091556001600160a01b0387811680865260038552838620805460001901905590871680865283862080546001019055868652600290945282852080549092168417909155905184937fddf252ad1be2c89b69c2b068fc378daa952ba7f163c4a11628f55a4df523b3ef91a4505050565b611ff0816145bb565b6007546001600160a01b031633146123935760405162461bcd60e51b815260206004820181905260248201527f4f776e61626c653a2063616c6c6572206973206e6f7420746865206f776e65726044820152606401610f10565b600780546001600160a01b038381166001600160a01b0319831681179093556040519116919082907f8be0079c531659141344cd1fd0a4f28419497f9722a3daafe3b4186f6b6457e090600090a35050565b816001600160a01b0316836001600160a01b03160361404d5760405162461bcd60e51b815260206004820152601960248201527f4552433732313a20617070726f766520746f2063616c6c6572000000000000006044820152606401610f10565b6001600160a01b03838116600081815260056020908152604080832094871680845294825291829020805460ff191686151590811790915591519182527f17307eab39ab6107e8899845ad3d59bd9653f200f220920489ca2b5937696c31910160405180910390a3505050565b6140c5848484613dd3565b6140d1848484846145fb565b611a905760405162461bcd60e51b8152600401610f1090615c3b565b6060816000036141145750506040805180820190915260018152600360fc1b602082015290565b8160005b811561413e5780614128816158d7565b91506141379050600a836158c3565b9150614118565b6000816001600160401b0381111561415857614158614e13565b6040519080825280601f01601f191660200182016040528015614182576020820181803683370190505b5090505b84156112c5576141976001836157dc565b91506141a4600a866157c8565b6141af90603061579f565b60f81b8183815181106141c4576141c4615518565b60200101906001600160f81b031916908160001a9053506141e6600a866158c3565b9450614186565b60606141f8826136f9565b600082815260066020526040812080546142119061559c565b80601f016020809104026020016040519081016040528092919081815260200182805461423d9061559c565b801561428a5780601f1061425f5761010080835404028352916020019161428a565b820191906000526020600020905b81548152906001019060200180831161426d57829003601f168201915b5050505050905060006142a860408051602081019091526000815290565b905080516000036142ba575092915050565b8151156142ec5780826040516020016142d4929190615c8d565b60405160208183030381529060405292505050919050565b6112c5846146f9565b60006001600160e01b031982166380ac58cd60e01b148061432657506001600160e01b03198216635b5e139f60e01b145b80610a2057506301ffc9a760e01b6001600160e01b0319831614610a20565b600080825160410361437b5760208301516040840151606085015160001a61436f8782858561476d565b94509450505050614383565b506000905060025b9250929050565b600081600481111561439e5761439e615cbc565b036143a65750565b60018160048111156143ba576143ba615cbc565b036144075760405162461bcd60e51b815260206004820152601860248201527f45434453413a20696e76616c6964207369676e617475726500000000000000006044820152606401610f10565b600281600481111561441b5761441b615cbc565b036144685760405162461bcd60e51b815260206004820152601f60248201527f45434453413a20696e76616c6964207369676e6174757265206c656e677468006044820152606401610f10565b600381600481111561447c5761447c615cbc565b03611ff05760405162461bcd60e51b815260206004820152602260248201527f45434453413a20696e76616c6964207369676e6174757265202773272076616c604482015261756560f01b6064820152608401610f10565b611ff081614831565b612dcc828260405180602001604052806000815250614852565b6000828152600260205260409020546001600160a01b03166145725760405162461bcd60e51b815260206004820152602e60248201527f45524337323155524953746f726167653a2055524920736574206f66206e6f6e60448201526d32bc34b9ba32b73a103a37b5b2b760911b6064820152608401610f10565b600082815260066020526040902061458a8282615987565b506040518281527ff8e1a15aba9398e019f0b49df1a4fde98ee17ae345cb5f6b5e2c27f5033e8ce790602001611cfe565b6145c481614885565b600081815260066020526040902080546145dd9061559c565b159050611ff0576000818152600660205260408120611ff091614c0f565b60006001600160a01b0384163b156146f157604051630a85bd0160e11b81526001600160a01b0385169063150b7a029061463f903390899088908890600401615cd2565b6020604051808303816000875af192505050801561467a575060408051601f3d908101601f1916820190925261467791810190615d0f565b60015b6146d7573d8080156146a8576040519150601f19603f3d011682016040523d82523d6000602084013e6146ad565b606091505b5080516000036146cf5760405162461bcd60e51b8152600401610f1090615c3b565b805181602001fd5b6001600160e01b031916630a85bd0160e11b1490506112c5565b5060016112c5565b6060614704826136f9565b600061471b60408051602081019091526000815290565b9050600081511161473b5760405180602001604052806000815250614766565b806147458461491a565b604051602001614756929190615c8d565b6040516020818303038152906040525b9392505050565b6000807f7fffffffffffffffffffffffffffffff5d576e7357a4501ddfe92f46681b20a08311156147a45750600090506003614828565b6040805160008082526020820180845289905260ff881692820192909252606081018690526080810185905260019060a0016020604051602081039080840390855afa1580156147f8573d6000803e3d6000fd5b5050604051601f1901519150506001600160a01b03811661482157600060019250925050614828565b9150600090505b94509492505050565b60006a636f6e736f6c652e6c6f679050600080835160208501845afa505050565b61485c83836149ac565b61486960008484846145fb565b610fb15760405162461bcd60e51b8152600401610f1090615c3b565b60006148908261213e565b905061489b8261213e565b600083815260046020908152604080832080546001600160a01b03199081169091556001600160a01b0385168085526003845282852080546000190190558785526002909352818420805490911690555192935084927fddf252ad1be2c89b69c2b068fc378daa952ba7f163c4a11628f55a4df523b3ef908390a45050565b6060600061492783614b37565b60010190506000816001600160401b0381111561494657614946614e13565b6040519080825280601f01601f191660200182016040528015614970576020820181803683370190505b5090508181016020015b600019016f181899199a1a9b1b9c1cb0b131b232b360811b600a86061a8153600a850494508461497a57509392505050565b6001600160a01b038216614a025760405162461bcd60e51b815260206004820181905260248201527f4552433732313a206d696e7420746f20746865207a65726f20616464726573736044820152606401610f10565b6000818152600260205260409020546001600160a01b031615614a675760405162461bcd60e51b815260206004820152601c60248201527f4552433732313a20746f6b656e20616c7265616479206d696e746564000000006044820152606401610f10565b6000818152600260205260409020546001600160a01b031615614acc5760405162461bcd60e51b815260206004820152601c60248201527f4552433732313a20746f6b656e20616c7265616479206d696e746564000000006044820152606401610f10565b6001600160a01b038216600081815260036020908152604080832080546001019055848352600290915280822080546001600160a01b0319168417905551839291907fddf252ad1be2c89b69c2b068fc378daa952ba7f163c4a11628f55a4df523b3ef908290a45050565b60008072184f03e93ff9f4daa797ed6e38ed64bf6a1f0160401b8310614b765772184f03e93ff9f4daa797ed6e38ed64bf6a1f0160401b830492506040015b6d04ee2d6d415b85acef81000000008310614ba2576d04ee2d6d415b85acef8100000000830492506020015b662386f26fc100008310614bc057662386f26fc10000830492506010015b6305f5e1008310614bd8576305f5e100830492506008015b6127108310614bec57612710830492506004015b60648310614bfe576064830492506002015b600a8310610a205760010192915050565b508054614c1b9061559c565b6000825580601f10614c2b575050565b601f016020900490600052602060002090810190611ff091905b80821115614c595760008155600101614c45565b5090565b6001600160e01b031981168114611ff057600080fd5b600060208284031215614c8557600080fd5b813561476681614c5d565b6001600160a01b0381168114611ff057600080fd5b600060208284031215614cb757600080fd5b813561476681614c90565b600081518084526020808501945080840160005b83811015614cf557815160ff1687529582019590820190600101614cd6565b509495945050505050565b606081526000614d136060830186614cc2565b602083820381850152614d268287614cc2565b8481036040860152855180825282870193509082019060005b81811015614d5d578451151583529383019391830191600101614d3f565b509098975050505050505050565b60005b83811015614d86578181015183820152602001614d6e565b50506000910152565b60008151808452614da7816020860160208601614d6b565b601f01601f19169290920160200192915050565b6020815260006147666020830184614d8f565b600060208284031215614de057600080fd5b5035919050565b60008060408385031215614dfa57600080fd5b8235614e0581614c90565b946020939093013593505050565b634e487b7160e01b600052604160045260246000fd5b604051601f8201601f191681016001600160401b0381118282101715614e5157614e51614e13565b604052919050565b60006001600160401b03821115614e7257614e72614e13565b5060051b60200190565b803560ff81168114614e8d57600080fd5b919050565b600082601f830112614ea357600080fd5b81356020614eb8614eb383614e59565b614e29565b82815260059290921b84018101918181019086841115614ed757600080fd5b8286015b84811015614ef957614eec81614e7c565b8352918301918301614edb565b509695505050505050565b60008060008060608587031215614f1a57600080fd5b8435935060208501356001600160401b0380821115614f3857600080fd5b614f4488838901614e92565b94506040870135915080821115614f5a57600080fd5b818701915087601f830112614f6e57600080fd5b813581811115614f7d57600080fd5b886020828501011115614f8f57600080fd5b95989497505060200194505050565b60008060408385031215614fb157600080fd5b8235614fbc81614c90565b9150614fca60208401614e7c565b90509250929050565b600082601f830112614fe457600080fd5b81356020614ff4614eb383614e59565b82815260059290921b8401810191818101908684111561501357600080fd5b8286015b84811015614ef95780356001600160401b038111156150365760008081fd5b6150448986838b0101614e92565b845250918301918301615017565b60008083601f84011261506457600080fd5b5081356001600160401b0381111561507b57600080fd5b6020830191508360208260051b850101111561438357600080fd5b6000806000806000608086880312156150ae57600080fd5b6150b786614e7c565b94506020808701356001600160401b03808211156150d457600080fd5b818901915089601f8301126150e857600080fd5b81356150f6614eb382614e59565b81815260059190911b8301840190848101908c83111561511557600080fd5b938501935b828510156151335784358252938501939085019061511a565b98505050604089013592508083111561514b57600080fd5b6151578a848b01614fd3565b9550606089013592508083111561516d57600080fd5b505061517b88828901615052565b969995985093965092949392505050565b6000806020838503121561519f57600080fd5b82356001600160401b038111156151b557600080fd5b6151c185828601615052565b90969095509350505050565b6000806000606084860312156151e257600080fd5b83356151ed81614c90565b925060208401356151fd81614c90565b929592945050506040919091013590565b60006020828403121561522057600080fd5b61476682614e7c565b60008060006060848603121561523e57600080fd5b833561524981614c90565b92506020840135915060408401356001600160401b0381111561526b57600080fd5b61527786828701614e92565b9150509250925092565b8015158114611ff057600080fd5b6000602082840312156152a157600080fd5b813561476681615281565b60006001600160401b038311156152c5576152c5614e13565b6152d8601f8401601f1916602001614e29565b90508281528383830111156152ec57600080fd5b828260208301376000602084830101529392505050565b600082601f83011261531457600080fd5b614766838335602085016152ac565b6000806040838503121561533657600080fd5b82356001600160401b038082111561534d57600080fd5b61535986838701615303565b9350602085013591508082111561536f57600080fd5b5061537c85828601615303565b9150509250929050565b60008060006040848603121561539b57600080fd5b83356153a681614c90565b925060208401356001600160401b038111156153c157600080fd5b6153cd86828701615052565b9497909650939450505050565b600080604083850312156153ed57600080fd5b82356153f881614c90565b9150602083013561540881615281565b809150509250929050565b6000806000806080858703121561542957600080fd5b843561543481614c90565b935061544260208601614e7c565b9250604085013561545281614c90565b915061546060608601614e7c565b905092959194509250565b6000806000806080858703121561548157600080fd5b843561548c81614c90565b9350602085013561549c81614c90565b92506040850135915060608501356001600160401b038111156154be57600080fd5b8501601f810187136154cf57600080fd5b6154de878235602084016152ac565b91505092959194509250565b600080604083850312156154fd57600080fd5b823561550881614c90565b9150602083013561540881614c90565b634e487b7160e01b600052603260045260246000fd5b6001600160a01b0392909216825260ff16602082015260400190565b60006020828403121561555c57600080fd5b815161476681615281565b634e487b7160e01b600052601160045260246000fd5b600060ff821660ff810361559357615593615567565b60010192915050565b600181811c908216806155b057607f821691505b6020821081036155d057634e487b7160e01b600052602260045260246000fd5b50919050565b60208082526023908201527f4f6e6c79206f776e6572732063616e2063616c6c20746869732066756e63746960408201526237b71760e91b606082015260800190565b60208082526010908201526f24b73b30b634b21030b2323932b9b99760811b604082015260600190565b6bffffffffffffffffffffffff198460601b1681528260148201526000603482018351602080860160005b8381101561568d57815160ff168552938201939082019060010161566e565b50507f30786631644437313839356534396231353633363933393639646535303839388352693139376344463334383160b01b9083015250602a0195945050505050565b60208082526032908201527f4f6e6c792067616d6d61206f666665727320636f6e74726163742063616e206360408201527130b636103a3434b990333ab731ba34b7b71760711b606082015260800190565b6000808335601e1984360301811261573a57600080fd5b8301803591506001600160401b0382111561575457600080fd5b60200191503681900382131561438357600080fd5b60006020828403121561577b57600080fd5b5051919050565b600060ff82168061579557615795615567565b6000190192915050565b80820180821115610a2057610a20615567565b634e487b7160e01b600052601260045260246000fd5b6000826157d7576157d76157b2565b500690565b81810381811115610a2057610a20615567565b6020808252602d908201527f4552433732313a2063616c6c6572206973206e6f7420746f6b656e206f776e6560408201526c1c881bdc88185c1c1c9bdd9959609a1b606082015260800190565b6020808252601c908201527f596f7520646f6573206e6f742068617665207468697320636172642e00000000604082015260600190565b60208082526030908201527f5468697320636172642068617320616e206f666665722c2069742063616e6e6f60408201526f3a103132903a3930b739b332b932b21760811b606082015260800190565b6000826158d2576158d26157b2565b500490565b6000600182016158e9576158e9615567565b5060010190565b60208082526031908201527f4f6e6c792067616d6d61207061636b7320636f6e74726163742063616e2063616040820152703636103a3434b990333ab731ba34b7b71760791b606082015260800190565b601f821115610fb157600081815260208120601f850160051c810160208610156159685750805b601f850160051c820191505b8181101561162d57828155600101615974565b81516001600160401b038111156159a0576159a0614e13565b6159b4816159ae845461559c565b84615941565b602080601f8311600181146159e957600084156159d15750858301515b600019600386901b1c1916600185901b17855561162d565b600085815260208120601f198616915b82811015615a18578886015182559484019460019091019084016159f9565b5085821015615a365787850151600019600388901b60f8161c191681555b5050505050600190811b01905550565b604081526000615a596040830185614d8f565b8281036020840152615a6b8185614d8f565b95945050505050565b6001600160a01b0385811682528416602080830191909152606060408301819052820183905260009084906080840190835b86811015614d5d5760ff615ab985614e7c565b1683529281019291810191600101615aa6565b6000808654615ada8161559c565b60018281168015615af25760018114615b0757615b36565b60ff1984168752821515830287019450615b36565b8a60005260208060002060005b85811015615b2d5781548a820152908401908201615b14565b50505082870194505b505050508551615b4a818360208a01614d6b565b8551910190615b5d818360208901614d6b565b8451910190615b70818360208801614d6b565b019695505050505050565b604081526000615b8e6040830185614d8f565b905060018060a01b03831660208301529392505050565b600060208284031215615bb757600080fd5b815161476681614c90565b6001600160a01b0384168152606060208201819052600090615be690830185614cc2565b9050826040830152949350505050565b60208082526025908201527f4552433732313a207472616e736665722066726f6d20696e636f72726563742060408201526437bbb732b960d91b606082015260800190565b60208082526032908201527f4552433732313a207472616e7366657220746f206e6f6e20455243373231526560408201527131b2b4bb32b91034b6b83632b6b2b73a32b960711b606082015260800190565b60008351615c9f818460208801614d6b565b835190830190615cb3818360208801614d6b565b01949350505050565b634e487b7160e01b600052602160045260246000fd5b6001600160a01b0385811682528416602082015260408101839052608060608201819052600090615d0590830184614d8f565b9695505050505050565b600060208284031215615d2157600080fd5b815161476681614c5d56fea26469706673582212202a21ffc5b2f8040287db67136490a5ba8e2f7570f1ac85656231d97ab050fcfd64736f6c63430008140033",
  "linkReferences": {},
  "deployedLinkReferences": {}
}