{
  "_format": "hh-sol-artifact-1",
  "contractName": "NofGammaOffersV1",
  "sourceName": "contracts/gamma/GammaOffers.v1.sol",
  "abi": [
    {
      "inputs": [
        {
          "internalType": "address",
          "name": "_cardsContract",
          "type": "address"
        }
      ],
      "stateMutability": "nonpayable",
      "type": "constructor"
    },
    {
      "anonymous": false,
      "inputs": [
        {
          "indexed": false,
          "internalType": "address",
          "name": "newGammaCardsContract",
          "type": "address"
        }
      ],
      "name": "NewGammaCardsContract",
      "type": "event"
    },
    {
      "anonymous": false,
      "inputs": [
        {
          "indexed": false,
          "internalType": "address",
          "name": "user",
          "type": "address"
        },
        {
          "indexed": false,
          "internalType": "uint8",
          "name": "cardNumber",
          "type": "uint8"
        },
        {
          "indexed": false,
          "internalType": "uint8[]",
          "name": "wantedCardNumbers",
          "type": "uint8[]"
        }
      ],
      "name": "NewOfferCreated",
      "type": "event"
    },
    {
      "anonymous": false,
      "inputs": [
        {
          "indexed": false,
          "internalType": "address",
          "name": "owner",
          "type": "address"
        }
      ],
      "name": "NewOwnerAdded",
      "type": "event"
    },
    {
      "anonymous": false,
      "inputs": [
        {
          "indexed": false,
          "internalType": "address",
          "name": "user",
          "type": "address"
        },
        {
          "indexed": false,
          "internalType": "uint8",
          "name": "cardNumber",
          "type": "uint8"
        }
      ],
      "name": "OfferRemoved",
      "type": "event"
    },
    {
      "anonymous": false,
      "inputs": [
        {
          "indexed": false,
          "internalType": "address",
          "name": "owner",
          "type": "address"
        }
      ],
      "name": "OwnerRemoved",
      "type": "event"
    },
    {
      "anonymous": false,
      "inputs": [
        {
          "indexed": true,
          "internalType": "address",
          "name": "previousOwner",
          "type": "address"
        },
        {
          "indexed": true,
          "internalType": "address",
          "name": "newOwner",
          "type": "address"
        }
      ],
      "name": "OwnershipTransferred",
      "type": "event"
    },
    {
      "anonymous": false,
      "inputs": [],
      "name": "RemovedAllOffers",
      "type": "event"
    },
    {
      "inputs": [
        {
          "internalType": "address",
          "name": "_newOwner",
          "type": "address"
        }
      ],
      "name": "addOwner",
      "outputs": [],
      "stateMutability": "nonpayable",
      "type": "function"
    },
    {
      "inputs": [
        {
          "internalType": "bool",
          "name": "_value",
          "type": "bool"
        }
      ],
      "name": "changeRemoveCardinInventoryWhenOffer",
      "outputs": [],
      "stateMutability": "nonpayable",
      "type": "function"
    },
    {
      "inputs": [
        {
          "internalType": "uint8",
          "name": "cardNumber",
          "type": "uint8"
        },
        {
          "internalType": "uint8[]",
          "name": "wantedCardNumbers",
          "type": "uint8[]"
        }
      ],
      "name": "createOffer",
      "outputs": [],
      "stateMutability": "nonpayable",
      "type": "function"
    },
    {
      "inputs": [],
      "name": "deleteAllOffers",
      "outputs": [],
      "stateMutability": "nonpayable",
      "type": "function"
    },
    {
      "inputs": [],
      "name": "gammaCardsContract",
      "outputs": [
        {
          "internalType": "contract IGammaCardsContract",
          "name": "",
          "type": "address"
        }
      ],
      "stateMutability": "view",
      "type": "function"
    },
    {
      "inputs": [
        {
          "internalType": "uint256",
          "name": "index",
          "type": "uint256"
        }
      ],
      "name": "getOfferByIndex",
      "outputs": [
        {
          "components": [
            {
              "internalType": "uint256",
              "name": "offerId",
              "type": "uint256"
            },
            {
              "internalType": "uint8",
              "name": "cardNumber",
              "type": "uint8"
            },
            {
              "internalType": "uint8[]",
              "name": "wantedCardNumbers",
              "type": "uint8[]"
            },
            {
              "internalType": "address",
              "name": "owner",
              "type": "address"
            }
          ],
          "internalType": "struct NofGammaOffersV1.Offer",
          "name": "",
          "type": "tuple"
        }
      ],
      "stateMutability": "view",
      "type": "function"
    },
    {
      "inputs": [
        {
          "internalType": "uint256",
          "name": "offerId",
          "type": "uint256"
        }
      ],
      "name": "getOfferByOfferId",
      "outputs": [
        {
          "components": [
            {
              "internalType": "uint256",
              "name": "offerId",
              "type": "uint256"
            },
            {
              "internalType": "uint8",
              "name": "cardNumber",
              "type": "uint8"
            },
            {
              "internalType": "uint8[]",
              "name": "wantedCardNumbers",
              "type": "uint8[]"
            },
            {
              "internalType": "address",
              "name": "owner",
              "type": "address"
            }
          ],
          "internalType": "struct NofGammaOffersV1.Offer",
          "name": "",
          "type": "tuple"
        }
      ],
      "stateMutability": "view",
      "type": "function"
    },
    {
      "inputs": [
        {
          "internalType": "address",
          "name": "user",
          "type": "address"
        },
        {
          "internalType": "uint8",
          "name": "cardNumber",
          "type": "uint8"
        }
      ],
      "name": "getOfferByUserAndCardNumber",
      "outputs": [
        {
          "components": [
            {
              "internalType": "uint256",
              "name": "offerId",
              "type": "uint256"
            },
            {
              "internalType": "uint8",
              "name": "cardNumber",
              "type": "uint8"
            },
            {
              "internalType": "uint8[]",
              "name": "wantedCardNumbers",
              "type": "uint8[]"
            },
            {
              "internalType": "address",
              "name": "owner",
              "type": "address"
            }
          ],
          "internalType": "struct NofGammaOffersV1.Offer",
          "name": "",
          "type": "tuple"
        }
      ],
      "stateMutability": "view",
      "type": "function"
    },
    {
      "inputs": [],
      "name": "getOffers",
      "outputs": [
        {
          "components": [
            {
              "internalType": "uint256",
              "name": "offerId",
              "type": "uint256"
            },
            {
              "internalType": "uint8",
              "name": "cardNumber",
              "type": "uint8"
            },
            {
              "internalType": "uint8[]",
              "name": "wantedCardNumbers",
              "type": "uint8[]"
            },
            {
              "internalType": "address",
              "name": "owner",
              "type": "address"
            }
          ],
          "internalType": "struct NofGammaOffersV1.Offer[]",
          "name": "",
          "type": "tuple[]"
        }
      ],
      "stateMutability": "view",
      "type": "function"
    },
    {
      "inputs": [
        {
          "internalType": "uint8",
          "name": "cardNumber",
          "type": "uint8"
        }
      ],
      "name": "getOffersByCardNumber",
      "outputs": [
        {
          "components": [
            {
              "internalType": "uint256",
              "name": "offerId",
              "type": "uint256"
            },
            {
              "internalType": "uint8",
              "name": "cardNumber",
              "type": "uint8"
            },
            {
              "internalType": "uint8[]",
              "name": "wantedCardNumbers",
              "type": "uint8[]"
            },
            {
              "internalType": "address",
              "name": "owner",
              "type": "address"
            }
          ],
          "internalType": "struct NofGammaOffersV1.Offer[]",
          "name": "",
          "type": "tuple[]"
        }
      ],
      "stateMutability": "view",
      "type": "function"
    },
    {
      "inputs": [
        {
          "internalType": "uint8",
          "name": "cardNumber",
          "type": "uint8"
        }
      ],
      "name": "getOffersByCardNumberCounter",
      "outputs": [
        {
          "internalType": "uint256",
          "name": "",
          "type": "uint256"
        }
      ],
      "stateMutability": "view",
      "type": "function"
    },
    {
      "inputs": [
        {
          "internalType": "address",
          "name": "user",
          "type": "address"
        }
      ],
      "name": "getOffersByUser",
      "outputs": [
        {
          "components": [
            {
              "internalType": "uint256",
              "name": "offerId",
              "type": "uint256"
            },
            {
              "internalType": "uint8",
              "name": "cardNumber",
              "type": "uint8"
            },
            {
              "internalType": "uint8[]",
              "name": "wantedCardNumbers",
              "type": "uint8[]"
            },
            {
              "internalType": "address",
              "name": "owner",
              "type": "address"
            }
          ],
          "internalType": "struct NofGammaOffersV1.Offer[]",
          "name": "",
          "type": "tuple[]"
        }
      ],
      "stateMutability": "view",
      "type": "function"
    },
    {
      "inputs": [
        {
          "internalType": "address",
          "name": "user",
          "type": "address"
        }
      ],
      "name": "getOffersByUserCounter",
      "outputs": [
        {
          "internalType": "uint256",
          "name": "",
          "type": "uint256"
        }
      ],
      "stateMutability": "view",
      "type": "function"
    },
    {
      "inputs": [],
      "name": "getOffersCounter",
      "outputs": [
        {
          "internalType": "uint256",
          "name": "",
          "type": "uint256"
        }
      ],
      "stateMutability": "view",
      "type": "function"
    },
    {
      "inputs": [
        {
          "internalType": "address",
          "name": "user",
          "type": "address"
        },
        {
          "internalType": "uint8",
          "name": "cardNumber",
          "type": "uint8"
        }
      ],
      "name": "hasOffer",
      "outputs": [
        {
          "internalType": "bool",
          "name": "",
          "type": "bool"
        }
      ],
      "stateMutability": "view",
      "type": "function"
    },
    {
      "inputs": [
        {
          "internalType": "uint256",
          "name": "",
          "type": "uint256"
        }
      ],
      "name": "offers",
      "outputs": [
        {
          "internalType": "uint256",
          "name": "offerId",
          "type": "uint256"
        },
        {
          "internalType": "uint8",
          "name": "cardNumber",
          "type": "uint8"
        },
        {
          "internalType": "address",
          "name": "owner",
          "type": "address"
        }
      ],
      "stateMutability": "view",
      "type": "function"
    },
    {
      "inputs": [
        {
          "internalType": "uint8",
          "name": "",
          "type": "uint8"
        }
      ],
      "name": "offersByCardNumberCounter",
      "outputs": [
        {
          "internalType": "uint256",
          "name": "_value",
          "type": "uint256"
        }
      ],
      "stateMutability": "view",
      "type": "function"
    },
    {
      "inputs": [
        {
          "internalType": "address",
          "name": "",
          "type": "address"
        }
      ],
      "name": "offersByUserCounter",
      "outputs": [
        {
          "internalType": "uint256",
          "name": "_value",
          "type": "uint256"
        }
      ],
      "stateMutability": "view",
      "type": "function"
    },
    {
      "inputs": [],
      "name": "owner",
      "outputs": [
        {
          "internalType": "address",
          "name": "",
          "type": "address"
        }
      ],
      "stateMutability": "view",
      "type": "function"
    },
    {
      "inputs": [
        {
          "internalType": "address",
          "name": "",
          "type": "address"
        }
      ],
      "name": "owners",
      "outputs": [
        {
          "internalType": "bool",
          "name": "",
          "type": "bool"
        }
      ],
      "stateMutability": "view",
      "type": "function"
    },
    {
      "inputs": [
        {
          "internalType": "uint8",
          "name": "cardNumber",
          "type": "uint8"
        }
      ],
      "name": "removeOfferByCardNumber",
      "outputs": [
        {
          "internalType": "bool",
          "name": "",
          "type": "bool"
        }
      ],
      "stateMutability": "nonpayable",
      "type": "function"
    },
    {
      "inputs": [
        {
          "internalType": "address",
          "name": "user",
          "type": "address"
        },
        {
          "internalType": "uint8",
          "name": "cardNumber",
          "type": "uint8"
        }
      ],
      "name": "removeOfferByUserAndCardNumber",
      "outputs": [
        {
          "internalType": "bool",
          "name": "",
          "type": "bool"
        }
      ],
      "stateMutability": "nonpayable",
      "type": "function"
    },
    {
      "inputs": [
        {
          "internalType": "address",
          "name": "_ownerToRemove",
          "type": "address"
        }
      ],
      "name": "removeOwner",
      "outputs": [],
      "stateMutability": "nonpayable",
      "type": "function"
    },
    {
      "inputs": [],
      "name": "renounceOwnership",
      "outputs": [],
      "stateMutability": "nonpayable",
      "type": "function"
    },
    {
      "inputs": [
        {
          "internalType": "address",
          "name": "_gammaCardsContract",
          "type": "address"
        }
      ],
      "name": "setGammaCardsContract",
      "outputs": [],
      "stateMutability": "nonpayable",
      "type": "function"
    },
    {
      "inputs": [
        {
          "internalType": "uint256",
          "name": "_maxCardNumbersAllowed",
          "type": "uint256"
        }
      ],
      "name": "setMaxCardNumbersAllowed",
      "outputs": [],
      "stateMutability": "nonpayable",
      "type": "function"
    },
    {
      "inputs": [
        {
          "internalType": "uint256",
          "name": "_maxOffersAllowed",
          "type": "uint256"
        }
      ],
      "name": "setMaxOffersAllowed",
      "outputs": [],
      "stateMutability": "nonpayable",
      "type": "function"
    },
    {
      "inputs": [
        {
          "internalType": "uint256",
          "name": "_maxOffersByUserAllowed",
          "type": "uint256"
        }
      ],
      "name": "setMaxOffersByUserAllowed",
      "outputs": [],
      "stateMutability": "nonpayable",
      "type": "function"
    },
    {
      "inputs": [
        {
          "internalType": "address",
          "name": "newOwner",
          "type": "address"
        }
      ],
      "name": "transferOwnership",
      "outputs": [],
      "stateMutability": "nonpayable",
      "type": "function"
    }
  ],
  "bytecode": "0x608060405261138860035560056004819055607890556006805460ff191690553480156200002c57600080fd5b506040516200281d3803806200281d8339810160408190526200004f91620000f5565b6200005a33620000a5565b600180546001600160a01b0319166001600160a01b0392909216919091178155336000908152600260205260409020805460ff19908116909217905560068054909116905562000127565b600080546001600160a01b038381166001600160a01b0319831681178455604051919092169283917f8be0079c531659141344cd1fd0a4f28419497f9722a3daafe3b4186f6b6457e09190a35050565b6000602082840312156200010857600080fd5b81516001600160a01b03811681146200012057600080fd5b9392505050565b6126e680620001376000396000f3fe608060405234801561001057600080fd5b50600436106101cf5760003560e01c80637594a6ed11610104578063ce7483d5116100a2578063e02f972311610071578063e02f972314610424578063e359a0a114610437578063e5e5f7321461044a578063f2fde38b1461045d57600080fd5b8063ce7483d5146103d6578063cf86f8e5146103e9578063d250f03a146103f1578063d827a8f41461040457600080fd5b80638da5cb5b116100de5780638da5cb5b146103785780639618b3331461039d5780639f915069146103b0578063a2e9f13a146103c357600080fd5b80637594a6ed1461030c5780638400a1891461032c5780638a72ea6a1461033f57600080fd5b80633ee992ee116101715780635bbfbfd61161014b5780635bbfbfd6146102be5780635f3a6298146102d15780637065cb48146102f1578063715018a61461030457600080fd5b80633ee992ee146102835780634c7a7ad31461029857806358e57ebb146102ab57600080fd5b80632edb5fcf116101ad5780632edb5fcf14610242578063322fba27146102555780633808dfe71461025d5780633a0270731461027057600080fd5b8063022914a7146101d45780630cdb31171461020c578063173825d91461022d575b600080fd5b6101f76101e236600461228c565b60026020526000908152604090205460ff1681565b60405190151581526020015b60405180910390f35b61021f61021a36600461228c565b610470565b604051908152602001610203565b61024061023b36600461228c565b6104c1565b005b6101f76102503660046122bf565b61063e565b6102406106fb565b61024061026b3660046122f2565b6108a8565b6101f761027e36600461230b565b6108dc565b61028b6108e8565b60405161020391906123a7565b6102406102a636600461228c565b6109e1565b6102406102b9366004612417565b610a84565b6101f76102cc3660046122bf565b610ac6565b6102e46102df3660046122f2565b611033565b6040516102039190612434565b6102406102ff36600461228c565b61118b565b61024061129d565b61021f61031a36600461228c565b600a6020526000908152604090205481565b61028b61033a36600461230b565b6112b1565b61035261034d3660046122f2565b6113ba565b6040805193845260ff90921660208401526001600160a01b031690820152606001610203565b6000546001600160a01b03165b6040516001600160a01b039091168152602001610203565b61028b6103ab36600461228c565b6113fc565b6102e46103be3660046122bf565b611523565b6102406103d136600461245d565b6116f2565b61021f6103e436600461230b565b611d70565b61021f611d88565b600154610385906001600160a01b031681565b61021f61041236600461230b565b600b6020526000908152604090205481565b6102406104323660046122f2565b611d98565b6102e46104453660046122f2565b611dcc565b6102406104583660046122f2565b611ef3565b61024061046b36600461228c565b611f27565b60006001600160a01b0382166104a15760405162461bcd60e51b815260040161049890612535565b60405180910390fd5b6001600160a01b0382166000908152600a60205260409020545b92915050565b3360009081526002602052604090205460ff166104f05760405162461bcd60e51b81526004016104989061255f565b6001600160a01b0381166105165760405162461bcd60e51b815260040161049890612535565b336001600160a01b0382160361057e5760405162461bcd60e51b815260206004820152602760248201527f596f752063616e6e6f742072656d6f766520796f757273656c6620617320616e6044820152661037bbb732b91760c91b6064820152608401610498565b6001600160a01b03811660009081526002602052604090205460ff166105e65760405162461bcd60e51b815260206004820152601860248201527f41646472657373206973206e6f7420616e206f776e65722e00000000000000006044820152606401610498565b6001600160a01b038116600081815260026020908152604091829020805460ff1916905590519182527f58619076adf5bb0943d100ef88d52d7c3fd691b19d3a9071b555b651fbf418da91015b60405180910390a150565b60006001600160a01b0383166106665760405162461bcd60e51b815260040161049890612535565b60005b6001600160a01b0384166000908152600a60205260409020548110156106f1576001600160a01b0384166000908152600860205260409020805460ff85169190839081106106b9576106b96125a2565b600091825260209091206001600490920201015460ff16036106df5760019150506104bb565b806106e9816125ce565b915050610669565b5060009392505050565b3360009081526002602052604090205460ff1661072a5760405162461bcd60e51b81526004016104989061255f565b60005b60075481101561086b57600860006007838154811061074e5761074e6125a2565b60009182526020808320600360049093020191909101546001600160a01b031683528201929092526040018120610784916120a1565b6107ce600a60006007848154811061079e5761079e6125a2565b60009182526020808320600492909202909101600301546001600160a01b03168352820192909252604001812055565b60096000600783815481106107e5576107e56125a2565b600091825260208083206001600490930201919091015460ff1683528201929092526040018120610815916120a1565b610859600b60006007848154811061082f5761082f6125a2565b600091825260208083206004929092029091016001015460ff168352820192909252604001812055565b80610863816125ce565b91505061072d565b506000600c5561087d600760006120a1565b6040517f550d27073d0d6d364815a66fed9ba2bcde6c0406944f87d0cb3e538118faef4a90600090a1565b3360009081526002602052604090205460ff166108d75760405162461bcd60e51b81526004016104989061255f565b600455565b60006104bb3383610ac6565b60606007805480602002602001604051908101604052809291908181526020016000905b828210156109d8576000848152602090819020604080516080810182526004860290920180548352600181015460ff168385015260028101805483518187028101870185528181529495929493860193928301828280156109aa57602002820191906000526020600020906000905b825461010083900a900460ff1681526020600192830181810494850194909303909202910180841161097b5790505b5050509183525050600391909101546001600160a01b0316602091820152908252600192909201910161090c565b50505050905090565b3360009081526002602052604090205460ff16610a105760405162461bcd60e51b81526004016104989061255f565b6001600160a01b038116610a365760405162461bcd60e51b815260040161049890612535565b600180546001600160a01b0319166001600160a01b0383169081179091556040519081527f45c9eba39b5ae3e7a6650b0a57bcb8e5d135936d56d111983dbc5860ae6760fa90602001610633565b3360009081526002602052604090205460ff16610ab35760405162461bcd60e51b81526004016104989061255f565b6006805460ff1916911515919091179055565b3360009081526002602052604081205460ff16610af55760405162461bcd60e51b81526004016104989061255f565b6001600160a01b038316610b1b5760405162461bcd60e51b815260040161049890612535565b6001600160a01b038316600090815260086020908152604080832080548251818502810185019093528083529192909190849084015b82821015610c1d576000848152602090819020604080516080810182526004860290920180548352600181015460ff16838501526002810180548351818702810187018552818152949592949386019392830182828015610bef57602002820191906000526020600020906000905b825461010083900a900460ff16815260206001928301818104948501949093039092029101808411610bc05790505b5050509183525050600391909101546001600160a01b03166020918201529082526001929092019101610b51565b505050506001600160a01b0385166000908152600a6020526040812054600c549293509190805b83811015611028578660ff16858281518110610c6257610c626125a2565b60200260200101516020015160ff1603611016576000858281518110610c8a57610c8a6125a2565b6020026020010151600001519050600860008a6001600160a01b03166001600160a01b031681526020019081526020016000208281548110610cce57610cce6125a2565b60009182526020822060049091020181815560018101805460ff1916905590610cfa60028301826120c2565b5060030180546001600160a01b031916905560ff88166000908152600960205260409020805483908110610d3057610d306125a2565b60009182526020822060049091020181815560018101805460ff1916905590610d5c60028301826120c2565b5060030180546001600160a01b031916905560005b84811015610f0d578160078281548110610d8d57610d8d6125a2565b90600052602060002090600402016000015403610efb5760078181548110610db757610db76125a2565b60009182526020822060049091020181815560018101805460ff1916905590610de360028301826120c2565b5060030180546001600160a01b031916905560078054610e05906001906125e7565b81548110610e1557610e156125a2565b906000526020600020906004020160078281548110610e3657610e366125a2565b600091825260209091208254600490920201908155600180830154908201805460ff191660ff90921691909117905560028083018054610e7992840191906120e7565b50600391820154910180546001600160a01b0319166001600160a01b039092169190911790556007805480610eb057610eb06125fa565b60008281526020812060046000199093019283020181815560018101805460ff1916905590610ee260028301826120c2565b5060030180546001600160a01b03191690559055610f0d565b80610f05816125ce565b915050610d71565b506001600160a01b0389166000908152600a60205260409020610f2f90611fa0565b60ff88166000908152600b60205260409020610f4a90611fa0565b610f54600c611fa0565b6006546001935060ff1615610fcc57600154604051630aaf17c960e11b81526001600160a01b038b8116600483015260ff8b1660248301529091169063155e2f9290604401600060405180830381600087803b158015610fb357600080fd5b505af1158015610fc7573d6000803e3d6000fd5b505050505b604080516001600160a01b038b16815260ff8a1660208201527f7911e34642eae38762395a3dd0fa3308d0f8908b92fe36c41543d635ab7cb8f5910160405180910390a150611028565b80611020816125ce565b915050610c44565b509695505050505050565b61103b612145565b60005b600c5481101561115457826007828154811061105c5761105c6125a2565b906000526020600020906004020160000154036111425760078181548110611086576110866125a2565b600091825260209182902060408051608081018252600490930290910180548352600181015460ff1683850152600281018054835181870281018701855281815294959294938601939283018282801561111d57602002820191906000526020600020906000905b825461010083900a900460ff168152602060019283018181049485019490930390920291018084116110ee5790505b5050509183525050600391909101546001600160a01b03166020909101529392505050565b8061114c816125ce565b91505061103e565b5050604080516080810182526000808252602080830182905283518281529081018452928201929092526060810191909152919050565b3360009081526002602052604090205460ff166111ba5760405162461bcd60e51b81526004016104989061255f565b6001600160a01b0381166111e05760405162461bcd60e51b815260040161049890612535565b6001600160a01b03811660009081526002602052604090205460ff16156112495760405162461bcd60e51b815260206004820152601c60248201527f4164647265737320697320616c726561647920616e206f776e65722e000000006044820152606401610498565b6001600160a01b038116600081815260026020908152604091829020805460ff1916600117905590519182527f6e4e2a7c0e1576d48aeabd633d094f622d4f046286fec8b9045dd7f5c9fb087d9101610633565b6112a5611ff7565b6112af6000612051565b565b60ff81166000908152600960209081526040808320805482518185028101850190935280835260609492939192909184015b828210156113af576000848152602090819020604080516080810182526004860290920180548352600181015460ff1683850152600281018054835181870281018701855281815294959294938601939283018282801561138157602002820191906000526020600020906000905b825461010083900a900460ff168152602060019283018181049485019490930390920291018084116113525790505b5050509183525050600391909101546001600160a01b031660209182015290825260019290920191016112e3565b505050509050919050565b600781815481106113ca57600080fd5b600091825260209091206004909102018054600182015460039092015490925060ff909116906001600160a01b031683565b60606001600160a01b0382166114245760405162461bcd60e51b815260040161049890612535565b6001600160a01b038216600090815260086020908152604080832080548251818502810185019093528083529193909284015b828210156113af576000848152602090819020604080516080810182526004860290920180548352600181015460ff168385015260028101805483518187028101870185528181529495929493860193928301828280156114f557602002820191906000526020600020906000905b825461010083900a900460ff168152602060019283018181049485019490930390920291018084116114c65790505b5050509183525050600391909101546001600160a01b03166020918201529082526001929092019101611457565b61152b612145565b6001600160a01b0383166115515760405162461bcd60e51b815260040161049890612535565b60005b6001600160a01b0384166000908152600a60205260409020548110156116ba576001600160a01b0384166000908152600860205260409020805460ff85169190839081106115a4576115a46125a2565b600091825260209091206001600490920201015460ff16036116a8576001600160a01b03841660009081526008602052604090208054829081106115ea576115ea6125a2565b600091825260209182902060408051608081018252600490930290910180548352600181015460ff1683850152600281018054835181870281018701855281815294959294938601939283018282801561168157602002820191906000526020600020906000905b825461010083900a900460ff168152602060019283018181049485019490930390920291018084116116525790505b5050509183525050600391909101546001600160a01b031660209091015291506104bb9050565b806116b2816125ce565b915050611554565b505060408051608081018252600080825260208083018290528351828152908101845292820192909252606081019190915292915050565b6001546001600160a01b031661174a5760405162461bcd60e51b815260206004820152601b60248201527f47616d6d614361726473436f6e7472616374206e6f74207365742e00000000006044820152606401610498565b600454336000908152600a6020526040902054106117bf5760405162461bcd60e51b815260206004820152602c60248201527f5573657220686173207265616368656420746865206d6178696d756d20616c6c60448201526b37bbb2b21037b33332b9399760a11b6064820152608401610498565b600354600c54106118295760405162461bcd60e51b815260206004820152602e60248201527f546f74616c206f66666572732068617665207265616368656420746865206d6160448201526d3c34b6bab69030b63637bbb2b21760911b6064820152608401610498565b60015460405163117ece1960e31b815233600482015260ff841660248201526000916001600160a01b031690638bf670c8906044016020604051808303816000875af115801561187d573d6000803e3d6000fd5b505050506040513d601f19601f820116820180604052508101906118a19190612610565b9050806118f05760405162461bcd60e51b815260206004820152601c60248201527f596f7520646f6573206e6f742068617665207468617420636172642e000000006044820152606401610498565b60005b82518160ff161015611999578360ff16838260ff1681518110611918576119186125a2565b602002602001015160ff16036119875760405162461bcd60e51b815260206004820152602e60248201527f54686520636172644e756d6265722063616e6e6f7420626520696e2077616e7460448201526d32b221b0b932273ab6b132b9399760911b6064820152608401610498565b806119918161262d565b9150506118f3565b5060006119a63385611523565b805190915015611a165760405162461bcd60e51b815260206004820152603560248201527f416e206f6666657220666f722074686973207573657220616e6420636172644e6044820152743ab6b132b91030b63932b0b23c9032bc34b9ba399760591b6064820152608401610498565b336000908152600a602052604090208054600101905560ff84166000908152600b6020526040902080546001019055611a53600c80546001019055565b6000611a5e600c5490565b6040805160808101825282815260ff88811660208084019182529383018981523360608501526007805460018101825560009190915284517fa66cc928b5edb82af9bd49922954155ab7b0942694bea4ce44661d9a8736c688600490920291820190815592517fa66cc928b5edb82af9bd49922954155ab7b0942694bea4ce44661d9a8736c6898201805460ff1916919095161790935551805195965092949093611b2f937fa66cc928b5edb82af9bd49922954155ab7b0942694bea4ce44661d9a8736c68a909301920190612179565b5060609190910151600390910180546001600160a01b0319166001600160a01b0390921691909117905533600090815260086020526040902060078054611b78906001906125e7565b81548110611b8857611b886125a2565b6000918252602080832084546001818101875595855291909320600492830290930180549190920290920191825582810154928201805460ff191660ff9094169390931790925560028083018054611be392840191906120e7565b50600391820154910180546001600160a01b0319166001600160a01b0390921691909117905560ff8516600090815260096020526040902060078054611c2b906001906125e7565b81548110611c3b57611c3b6125a2565b6000918252602080832084546001818101875595855291909320600492830290930180549190920290920191825582810154928201805460ff191660ff9094169390931790925560028083018054611c9692840191906120e7565b50600391820154910180546001600160a01b0319166001600160a01b0390921691909117905560065460ff1615611d2e57600154604051631c5568eb60e21b815233600482015260ff871660248201526001600160a01b0390911690637155a3ac90604401600060405180830381600087803b158015611d1557600080fd5b505af1158015611d29573d6000803e3d6000fd5b505050505b7f31a893ae21b5459c9a34e0be8a4fdf6803ec101bc80e2903766025d86cbe9159338686604051611d619392919061264c565b60405180910390a15050505050565b60ff81166000908152600b60205260408120546104bb565b6000611d93600c5490565b905090565b3360009081526002602052604090205460ff16611dc75760405162461bcd60e51b81526004016104989061255f565b600555565b611dd4612145565b6007548210611e255760405162461bcd60e51b815260206004820152601760248201527f4f6666657220496420646f6573206e6f742065786973740000000000000000006044820152606401610498565b60078281548110611e3857611e386125a2565b600091825260209182902060408051608081018252600490930290910180548352600181015460ff16838501526002810180548351818702810187018552818152949592949386019392830182828015611ecf57602002820191906000526020600020906000905b825461010083900a900460ff16815260206001928301818104948501949093039092029101808411611ea05790505b5050509183525050600391909101546001600160a01b031660209091015292915050565b3360009081526002602052604090205460ff16611f225760405162461bcd60e51b81526004016104989061255f565b600355565b611f2f611ff7565b6001600160a01b038116611f945760405162461bcd60e51b815260206004820152602660248201527f4f776e61626c653a206e6577206f776e657220697320746865207a65726f206160448201526564647265737360d01b6064820152608401610498565b611f9d81612051565b50565b805480611fef5760405162461bcd60e51b815260206004820152601b60248201527f436f756e7465723a2064656372656d656e74206f766572666c6f7700000000006044820152606401610498565b600019019055565b6000546001600160a01b031633146112af5760405162461bcd60e51b815260206004820181905260248201527f4f776e61626c653a2063616c6c6572206973206e6f7420746865206f776e65726044820152606401610498565b600080546001600160a01b038381166001600160a01b0319831681178455604051919092169283917f8be0079c531659141344cd1fd0a4f28419497f9722a3daafe3b4186f6b6457e09190a35050565b5080546000825560040290600052602060002090810190611f9d919061221a565b50805460008255601f016020900490600052602060002090810190611f9d919061225b565b82805482825590600052602060002090601f0160209004810192821561213557600052602060002091601f016020900482015b8281111561213557825482559160010191906001019061211a565b5061214192915061225b565b5090565b604051806080016040528060008152602001600060ff1681526020016060815260200160006001600160a01b031681525090565b82805482825590600052602060002090601f016020900481019282156121355791602002820160005b838211156121e057835183826101000a81548160ff021916908360ff16021790555092602001926001016020816000010492830192600103026121a2565b801561220d5782816101000a81549060ff02191690556001016020816000010492830192600103026121e0565b505061214192915061225b565b8082111561214157600080825560018201805460ff1916905561224060028301826120c2565b506003810180546001600160a01b031916905560040161221a565b5b80821115612141576000815560010161225c565b80356001600160a01b038116811461228757600080fd5b919050565b60006020828403121561229e57600080fd5b6122a782612270565b9392505050565b803560ff8116811461228757600080fd5b600080604083850312156122d257600080fd5b6122db83612270565b91506122e9602084016122ae565b90509250929050565b60006020828403121561230457600080fd5b5035919050565b60006020828403121561231d57600080fd5b6122a7826122ae565b6000608083018251845260208084015160ff80821683880152604086015191506080604088015283825180865260a0890191508484019550600093505b8084101561238557855183168252948401946001939093019290840190612363565b506060968701516001600160a01b031697909601969096525092949350505050565b6000602080830181845280855180835260408601915060408160051b870101925083870160005b828110156123fc57603f198886030184526123ea858351612326565b945092850192908501906001016123ce565b5092979650505050505050565b8015158114611f9d57600080fd5b60006020828403121561242957600080fd5b81356122a781612409565b6020815260006122a76020830184612326565b634e487b7160e01b600052604160045260246000fd5b6000806040838503121561247057600080fd5b612479836122ae565b915060208084013567ffffffffffffffff8082111561249757600080fd5b818601915086601f8301126124ab57600080fd5b8135818111156124bd576124bd612447565b8060051b604051601f19603f830116810181811085821117156124e2576124e2612447565b60405291825284820192508381018501918983111561250057600080fd5b938501935b8285101561252557612516856122ae565b84529385019392850192612505565b8096505050505050509250929050565b60208082526010908201526f24b73b30b634b21030b2323932b9b99760811b604082015260600190565b60208082526023908201527f4f6e6c79206f776e6572732063616e2063616c6c20746869732066756e63746960408201526237b71760e91b606082015260800190565b634e487b7160e01b600052603260045260246000fd5b634e487b7160e01b600052601160045260246000fd5b6000600182016125e0576125e06125b8565b5060010190565b818103818111156104bb576104bb6125b8565b634e487b7160e01b600052603160045260246000fd5b60006020828403121561262257600080fd5b81516122a781612409565b600060ff821660ff8103612643576126436125b8565b60010192915050565b60006060820160018060a01b0386168352602060ff8087168286015260606040860152828651808552608087019150838801945060005b818110156126a1578551841683529484019491840191600101612683565b5090999850505050505050505056fea2646970667358221220cacbfc390d1f8918e07ea4f5971bb2ba41b66a913f33f8ee368909aec8c638a864736f6c63430008120033",
  "linkReferences": {},
  "deployedLinkReferences": {}
}