{
  "_format": "hh-sol-artifact-1",
  "contractName": "NofGammaOffersV3",
  "sourceName": "contracts/gamma/GammaOffers.v1.sol",
  "abi": [
    {
      "inputs": [
        {
          "internalType": "address",
          "name": "_cardsContract",
          "type": "address"
        }
      ],
      "stateMutability": "nonpayable",
      "type": "constructor"
    },
    {
      "anonymous": false,
      "inputs": [
        {
          "indexed": false,
          "internalType": "address",
          "name": "newGammaCardsContract",
          "type": "address"
        }
      ],
      "name": "NewGammaCardsContract",
      "type": "event"
    },
    {
      "anonymous": false,
      "inputs": [
        {
          "indexed": false,
          "internalType": "address",
          "name": "user",
          "type": "address"
        },
        {
          "indexed": false,
          "internalType": "uint8",
          "name": "cardNumber",
          "type": "uint8"
        },
        {
          "indexed": false,
          "internalType": "uint8[]",
          "name": "wantedCardNumbers",
          "type": "uint8[]"
        }
      ],
      "name": "NewOfferCreated",
      "type": "event"
    },
    {
      "anonymous": false,
      "inputs": [
        {
          "indexed": false,
          "internalType": "address",
          "name": "owner",
          "type": "address"
        }
      ],
      "name": "NewOwnerAdded",
      "type": "event"
    },
    {
      "anonymous": false,
      "inputs": [
        {
          "indexed": false,
          "internalType": "address",
          "name": "user",
          "type": "address"
        },
        {
          "indexed": false,
          "internalType": "uint8",
          "name": "cardNumber",
          "type": "uint8"
        }
      ],
      "name": "OfferRemoved",
      "type": "event"
    },
    {
      "anonymous": false,
      "inputs": [
        {
          "indexed": false,
          "internalType": "address",
          "name": "owner",
          "type": "address"
        }
      ],
      "name": "OwnerRemoved",
      "type": "event"
    },
    {
      "anonymous": false,
      "inputs": [
        {
          "indexed": true,
          "internalType": "address",
          "name": "previousOwner",
          "type": "address"
        },
        {
          "indexed": true,
          "internalType": "address",
          "name": "newOwner",
          "type": "address"
        }
      ],
      "name": "OwnershipTransferred",
      "type": "event"
    },
    {
      "anonymous": false,
      "inputs": [],
      "name": "RemovedAllOffers",
      "type": "event"
    },
    {
      "inputs": [
        {
          "internalType": "address",
          "name": "_newOwner",
          "type": "address"
        }
      ],
      "name": "addOwner",
      "outputs": [],
      "stateMutability": "nonpayable",
      "type": "function"
    },
    {
      "inputs": [
        {
          "internalType": "uint8",
          "name": "cardNumber",
          "type": "uint8"
        },
        {
          "internalType": "uint8[]",
          "name": "wantedCardNumbers",
          "type": "uint8[]"
        }
      ],
      "name": "createOffer",
      "outputs": [],
      "stateMutability": "nonpayable",
      "type": "function"
    },
    {
      "inputs": [],
      "name": "deleteAllOffers",
      "outputs": [],
      "stateMutability": "nonpayable",
      "type": "function"
    },
    {
      "inputs": [],
      "name": "gammaCardsContract",
      "outputs": [
        {
          "internalType": "contract IGammaCardsContract",
          "name": "",
          "type": "address"
        }
      ],
      "stateMutability": "view",
      "type": "function"
    },
    {
      "inputs": [
        {
          "internalType": "uint256",
          "name": "index",
          "type": "uint256"
        }
      ],
      "name": "getOfferByIndex",
      "outputs": [
        {
          "components": [
            {
              "internalType": "uint256",
              "name": "offerId",
              "type": "uint256"
            },
            {
              "internalType": "uint8",
              "name": "cardNumber",
              "type": "uint8"
            },
            {
              "internalType": "uint8[]",
              "name": "wantedCardNumbers",
              "type": "uint8[]"
            },
            {
              "internalType": "address",
              "name": "owner",
              "type": "address"
            }
          ],
          "internalType": "struct NofGammaOffersV3.Offer",
          "name": "",
          "type": "tuple"
        }
      ],
      "stateMutability": "view",
      "type": "function"
    },
    {
      "inputs": [
        {
          "internalType": "uint256",
          "name": "offerId",
          "type": "uint256"
        }
      ],
      "name": "getOfferByOfferId",
      "outputs": [
        {
          "components": [
            {
              "internalType": "uint256",
              "name": "offerId",
              "type": "uint256"
            },
            {
              "internalType": "uint8",
              "name": "cardNumber",
              "type": "uint8"
            },
            {
              "internalType": "uint8[]",
              "name": "wantedCardNumbers",
              "type": "uint8[]"
            },
            {
              "internalType": "address",
              "name": "owner",
              "type": "address"
            }
          ],
          "internalType": "struct NofGammaOffersV3.Offer",
          "name": "",
          "type": "tuple"
        }
      ],
      "stateMutability": "view",
      "type": "function"
    },
    {
      "inputs": [
        {
          "internalType": "address",
          "name": "user",
          "type": "address"
        },
        {
          "internalType": "uint8",
          "name": "cardNumber",
          "type": "uint8"
        }
      ],
      "name": "getOfferByUserAndCardNumber",
      "outputs": [
        {
          "components": [
            {
              "internalType": "uint256",
              "name": "offerId",
              "type": "uint256"
            },
            {
              "internalType": "uint8",
              "name": "cardNumber",
              "type": "uint8"
            },
            {
              "internalType": "uint8[]",
              "name": "wantedCardNumbers",
              "type": "uint8[]"
            },
            {
              "internalType": "address",
              "name": "owner",
              "type": "address"
            }
          ],
          "internalType": "struct NofGammaOffersV3.Offer",
          "name": "",
          "type": "tuple"
        }
      ],
      "stateMutability": "view",
      "type": "function"
    },
    {
      "inputs": [],
      "name": "getOffers",
      "outputs": [
        {
          "components": [
            {
              "internalType": "uint256",
              "name": "offerId",
              "type": "uint256"
            },
            {
              "internalType": "uint8",
              "name": "cardNumber",
              "type": "uint8"
            },
            {
              "internalType": "uint8[]",
              "name": "wantedCardNumbers",
              "type": "uint8[]"
            },
            {
              "internalType": "address",
              "name": "owner",
              "type": "address"
            }
          ],
          "internalType": "struct NofGammaOffersV3.Offer[]",
          "name": "",
          "type": "tuple[]"
        }
      ],
      "stateMutability": "view",
      "type": "function"
    },
    {
      "inputs": [
        {
          "internalType": "uint8",
          "name": "cardNumber",
          "type": "uint8"
        }
      ],
      "name": "getOffersByCardNumber",
      "outputs": [
        {
          "components": [
            {
              "internalType": "uint256",
              "name": "offerId",
              "type": "uint256"
            },
            {
              "internalType": "uint8",
              "name": "cardNumber",
              "type": "uint8"
            },
            {
              "internalType": "uint8[]",
              "name": "wantedCardNumbers",
              "type": "uint8[]"
            },
            {
              "internalType": "address",
              "name": "owner",
              "type": "address"
            }
          ],
          "internalType": "struct NofGammaOffersV3.Offer[]",
          "name": "",
          "type": "tuple[]"
        }
      ],
      "stateMutability": "view",
      "type": "function"
    },
    {
      "inputs": [
        {
          "internalType": "uint8",
          "name": "cardNumber",
          "type": "uint8"
        }
      ],
      "name": "getOffersByCardNumberCounter",
      "outputs": [
        {
          "internalType": "uint256",
          "name": "",
          "type": "uint256"
        }
      ],
      "stateMutability": "view",
      "type": "function"
    },
    {
      "inputs": [
        {
          "internalType": "address",
          "name": "user",
          "type": "address"
        }
      ],
      "name": "getOffersByUser",
      "outputs": [
        {
          "components": [
            {
              "internalType": "uint256",
              "name": "offerId",
              "type": "uint256"
            },
            {
              "internalType": "uint8",
              "name": "cardNumber",
              "type": "uint8"
            },
            {
              "internalType": "uint8[]",
              "name": "wantedCardNumbers",
              "type": "uint8[]"
            },
            {
              "internalType": "address",
              "name": "owner",
              "type": "address"
            }
          ],
          "internalType": "struct NofGammaOffersV3.Offer[]",
          "name": "",
          "type": "tuple[]"
        }
      ],
      "stateMutability": "view",
      "type": "function"
    },
    {
      "inputs": [
        {
          "internalType": "address",
          "name": "user",
          "type": "address"
        }
      ],
      "name": "getOffersByUserCounter",
      "outputs": [
        {
          "internalType": "uint256",
          "name": "",
          "type": "uint256"
        }
      ],
      "stateMutability": "view",
      "type": "function"
    },
    {
      "inputs": [],
      "name": "getOffersCounter",
      "outputs": [
        {
          "internalType": "uint256",
          "name": "",
          "type": "uint256"
        }
      ],
      "stateMutability": "view",
      "type": "function"
    },
    {
      "inputs": [
        {
          "internalType": "uint256",
          "name": "",
          "type": "uint256"
        }
      ],
      "name": "offers",
      "outputs": [
        {
          "internalType": "uint256",
          "name": "offerId",
          "type": "uint256"
        },
        {
          "internalType": "uint8",
          "name": "cardNumber",
          "type": "uint8"
        },
        {
          "internalType": "address",
          "name": "owner",
          "type": "address"
        }
      ],
      "stateMutability": "view",
      "type": "function"
    },
    {
      "inputs": [
        {
          "internalType": "uint8",
          "name": "",
          "type": "uint8"
        }
      ],
      "name": "offersByCardNumberCounter",
      "outputs": [
        {
          "internalType": "uint256",
          "name": "_value",
          "type": "uint256"
        }
      ],
      "stateMutability": "view",
      "type": "function"
    },
    {
      "inputs": [
        {
          "internalType": "address",
          "name": "",
          "type": "address"
        }
      ],
      "name": "offersByUserCounter",
      "outputs": [
        {
          "internalType": "uint256",
          "name": "_value",
          "type": "uint256"
        }
      ],
      "stateMutability": "view",
      "type": "function"
    },
    {
      "inputs": [],
      "name": "owner",
      "outputs": [
        {
          "internalType": "address",
          "name": "",
          "type": "address"
        }
      ],
      "stateMutability": "view",
      "type": "function"
    },
    {
      "inputs": [
        {
          "internalType": "address",
          "name": "",
          "type": "address"
        }
      ],
      "name": "owners",
      "outputs": [
        {
          "internalType": "bool",
          "name": "",
          "type": "bool"
        }
      ],
      "stateMutability": "view",
      "type": "function"
    },
    {
      "inputs": [
        {
          "internalType": "uint8",
          "name": "cardNumber",
          "type": "uint8"
        }
      ],
      "name": "removeOfferByCardNumber",
      "outputs": [
        {
          "internalType": "bool",
          "name": "",
          "type": "bool"
        }
      ],
      "stateMutability": "nonpayable",
      "type": "function"
    },
    {
      "inputs": [
        {
          "internalType": "address",
          "name": "user",
          "type": "address"
        },
        {
          "internalType": "uint8",
          "name": "cardNumber",
          "type": "uint8"
        }
      ],
      "name": "removeOfferByUserAndCardNumber",
      "outputs": [
        {
          "internalType": "bool",
          "name": "",
          "type": "bool"
        }
      ],
      "stateMutability": "nonpayable",
      "type": "function"
    },
    {
      "inputs": [
        {
          "internalType": "address",
          "name": "_ownerToRemove",
          "type": "address"
        }
      ],
      "name": "removeOwner",
      "outputs": [],
      "stateMutability": "nonpayable",
      "type": "function"
    },
    {
      "inputs": [],
      "name": "renounceOwnership",
      "outputs": [],
      "stateMutability": "nonpayable",
      "type": "function"
    },
    {
      "inputs": [
        {
          "internalType": "address",
          "name": "_gammaCardsContract",
          "type": "address"
        }
      ],
      "name": "setGammaCardsContract",
      "outputs": [],
      "stateMutability": "nonpayable",
      "type": "function"
    },
    {
      "inputs": [
        {
          "internalType": "uint256",
          "name": "_maxCardNumbersAllowed",
          "type": "uint256"
        }
      ],
      "name": "setMaxCardNumbersAllowed",
      "outputs": [],
      "stateMutability": "nonpayable",
      "type": "function"
    },
    {
      "inputs": [
        {
          "internalType": "uint256",
          "name": "_maxOffersAllowed",
          "type": "uint256"
        }
      ],
      "name": "setMaxOffersAllowed",
      "outputs": [],
      "stateMutability": "nonpayable",
      "type": "function"
    },
    {
      "inputs": [
        {
          "internalType": "uint256",
          "name": "_maxOffersByUserAllowed",
          "type": "uint256"
        }
      ],
      "name": "setMaxOffersByUserAllowed",
      "outputs": [],
      "stateMutability": "nonpayable",
      "type": "function"
    },
    {
      "inputs": [
        {
          "internalType": "address",
          "name": "newOwner",
          "type": "address"
        }
      ],
      "name": "transferOwnership",
      "outputs": [],
      "stateMutability": "nonpayable",
      "type": "function"
    }
  ],
  "bytecode": "0x6080604052611388600355600560045560786005553480156200002157600080fd5b5060405162002672380380620026728339810160408190526200004491620000df565b6200004f336200008f565b600180546001600160a01b0319166001600160a01b0392909216919091178155336000908152600260205260409020805460ff1916909117905562000111565b600080546001600160a01b038381166001600160a01b0319831681178455604051919092169283917f8be0079c531659141344cd1fd0a4f28419497f9722a3daafe3b4186f6b6457e09190a35050565b600060208284031215620000f257600080fd5b81516001600160a01b03811681146200010a57600080fd5b9392505050565b61255180620001216000396000f3fe608060405234801561001057600080fd5b50600436106101a95760003560e01c80638400a189116100f9578063cf86f8e511610097578063e02f972311610071578063e02f9723146103d8578063e359a0a1146103eb578063e5e5f732146103fe578063f2fde38b1461041157600080fd5b8063cf86f8e51461039d578063d250f03a146103a5578063d827a8f4146103b857600080fd5b80639618b333116100d35780639618b333146103515780639f91506914610364578063a2e9f13a14610377578063ce7483d51461038a57600080fd5b80638400a189146102e05780638a72ea6a146102f35780638da5cb5b1461032c57600080fd5b80633ee992ee116101665780635f3a6298116101405780635f3a6298146102855780637065cb48146102a5578063715018a6146102b85780637594a6ed146102c057600080fd5b80633ee992ee1461024a5780634c7a7ad31461025f5780635bbfbfd61461027257600080fd5b8063022914a7146101ae5780630cdb3117146101e6578063173825d914610207578063322fba271461021c5780633808dfe7146102245780633a02707314610237575b600080fd5b6101d16101bc36600461211d565b60026020526000908152604090205460ff1681565b60405190151581526020015b60405180910390f35b6101f96101f436600461211d565b610424565b6040519081526020016101dd565b61021a61021536600461211d565b610475565b005b61021a6105f2565b61021a61023236600461213f565b61079f565b6101d1610245366004612169565b6107d3565b6102526107df565b6040516101dd9190612205565b61021a61026d36600461211d565b6108d8565b6101d1610280366004612267565b61097b565b61029861029336600461213f565b610edc565b6040516101dd919061229a565b61021a6102b336600461211d565b611034565b61021a611146565b6101f96102ce36600461211d565b60096020526000908152604090205481565b6102526102ee366004612169565b61115a565b61030661030136600461213f565b611263565b6040805193845260ff90921660208401526001600160a01b0316908201526060016101dd565b6000546001600160a01b03165b6040516001600160a01b0390911681526020016101dd565b61025261035f36600461211d565b6112a5565b610298610372366004612267565b6113cc565b61021a6103853660046122c3565b61159b565b6101f9610398366004612169565b611c01565b6101f9611c19565b600154610339906001600160a01b031681565b6101f96103c6366004612169565b600a6020526000908152604090205481565b61021a6103e636600461213f565b611c29565b6102986103f936600461213f565b611c5d565b61021a61040c36600461213f565b611d84565b61021a61041f36600461211d565b611db8565b60006001600160a01b0382166104555760405162461bcd60e51b815260040161044c9061239b565b60405180910390fd5b6001600160a01b0382166000908152600960205260409020545b92915050565b3360009081526002602052604090205460ff166104a45760405162461bcd60e51b815260040161044c906123c5565b6001600160a01b0381166104ca5760405162461bcd60e51b815260040161044c9061239b565b336001600160a01b038216036105325760405162461bcd60e51b815260206004820152602760248201527f596f752063616e6e6f742072656d6f766520796f757273656c6620617320616e6044820152661037bbb732b91760c91b606482015260840161044c565b6001600160a01b03811660009081526002602052604090205460ff1661059a5760405162461bcd60e51b815260206004820152601860248201527f41646472657373206973206e6f7420616e206f776e65722e0000000000000000604482015260640161044c565b6001600160a01b038116600081815260026020908152604091829020805460ff1916905590519182527f58619076adf5bb0943d100ef88d52d7c3fd691b19d3a9071b555b651fbf418da91015b60405180910390a150565b3360009081526002602052604090205460ff166106215760405162461bcd60e51b815260040161044c906123c5565b60005b60065481101561076257600760006006838154811061064557610645612408565b60009182526020808320600360049093020191909101546001600160a01b03168352820192909252604001812061067b91611f32565b6106c5600960006006848154811061069557610695612408565b60009182526020808320600492909202909101600301546001600160a01b03168352820192909252604001812055565b60086000600683815481106106dc576106dc612408565b600091825260208083206001600490930201919091015460ff168352820192909252604001812061070c91611f32565b610750600a60006006848154811061072657610726612408565b600091825260208083206004929092029091016001015460ff168352820192909252604001812055565b8061075a81612434565b915050610624565b506000600b5561077460066000611f32565b6040517f550d27073d0d6d364815a66fed9ba2bcde6c0406944f87d0cb3e538118faef4a90600090a1565b3360009081526002602052604090205460ff166107ce5760405162461bcd60e51b815260040161044c906123c5565b600455565b600061046f338361097b565b60606006805480602002602001604051908101604052809291908181526020016000905b828210156108cf576000848152602090819020604080516080810182526004860290920180548352600181015460ff168385015260028101805483518187028101870185528181529495929493860193928301828280156108a157602002820191906000526020600020906000905b825461010083900a900460ff168152602060019283018181049485019490930390920291018084116108725790505b5050509183525050600391909101546001600160a01b03166020918201529082526001929092019101610803565b50505050905090565b3360009081526002602052604090205460ff166109075760405162461bcd60e51b815260040161044c906123c5565b6001600160a01b03811661092d5760405162461bcd60e51b815260040161044c9061239b565b600180546001600160a01b0319166001600160a01b0383169081179091556040519081527f45c9eba39b5ae3e7a6650b0a57bcb8e5d135936d56d111983dbc5860ae6760fa906020016105e7565b3360009081526002602052604081205460ff166109aa5760405162461bcd60e51b815260040161044c906123c5565b6001600160a01b0383166109d05760405162461bcd60e51b815260040161044c9061239b565b6001600160a01b038316600090815260076020908152604080832080548251818502810185019093528083529192909190849084015b82821015610ad2576000848152602090819020604080516080810182526004860290920180548352600181015460ff16838501526002810180548351818702810187018552818152949592949386019392830182828015610aa457602002820191906000526020600020906000905b825461010083900a900460ff16815260206001928301818104948501949093039092029101808411610a755790505b5050509183525050600391909101546001600160a01b03166020918201529082526001929092019101610a06565b505050506001600160a01b038516600090815260096020526040812054600b549293509190805b83811015610ed1578660ff16858281518110610b1757610b17612408565b60200260200101516020015160ff1603610ebf576000858281518110610b3f57610b3f612408565b6020026020010151600001519050600760008a6001600160a01b03166001600160a01b031681526020019081526020016000208281548110610b8357610b83612408565b60009182526020822060049091020181815560018101805460ff1916905590610baf6002830182611f53565b5060030180546001600160a01b031916905560ff88166000908152600860205260409020805483908110610be557610be5612408565b60009182526020822060049091020181815560018101805460ff1916905590610c116002830182611f53565b5060030180546001600160a01b031916905560005b84811015610dc2578160068281548110610c4257610c42612408565b90600052602060002090600402016000015403610db05760068181548110610c6c57610c6c612408565b60009182526020822060049091020181815560018101805460ff1916905590610c986002830182611f53565b5060030180546001600160a01b031916905560068054610cba9060019061244d565b81548110610cca57610cca612408565b906000526020600020906004020160068281548110610ceb57610ceb612408565b600091825260209091208254600490920201908155600180830154908201805460ff191660ff90921691909117905560028083018054610d2e9284019190611f78565b50600391820154910180546001600160a01b0319166001600160a01b039092169190911790556006805480610d6557610d65612460565b60008281526020812060046000199093019283020181815560018101805460ff1916905590610d976002830182611f53565b5060030180546001600160a01b03191690559055610dc2565b80610dba81612434565b915050610c26565b506001600160a01b0389166000908152600960205260409020610de490611e31565b60ff88166000908152600a60205260409020610dff90611e31565b610e09600b611e31565b60018054604051630aaf17c960e11b81526001600160a01b038c8116600483015260ff8c16602483015292955091169063155e2f9290604401600060405180830381600087803b158015610e5c57600080fd5b505af1158015610e70573d6000803e3d6000fd5b5050604080516001600160a01b038d16815260ff8c1660208201527f7911e34642eae38762395a3dd0fa3308d0f8908b92fe36c41543d635ab7cb8f5935001905060405180910390a150610ed1565b80610ec981612434565b915050610af9565b509695505050505050565b610ee4611fd6565b60005b600b54811015610ffd578260068281548110610f0557610f05612408565b90600052602060002090600402016000015403610feb5760068181548110610f2f57610f2f612408565b600091825260209182902060408051608081018252600490930290910180548352600181015460ff16838501526002810180548351818702810187018552818152949592949386019392830182828015610fc657602002820191906000526020600020906000905b825461010083900a900460ff16815260206001928301818104948501949093039092029101808411610f975790505b5050509183525050600391909101546001600160a01b03166020909101529392505050565b80610ff581612434565b915050610ee7565b5050604080516080810182526000808252602080830182905283518281529081018452928201929092526060810191909152919050565b3360009081526002602052604090205460ff166110635760405162461bcd60e51b815260040161044c906123c5565b6001600160a01b0381166110895760405162461bcd60e51b815260040161044c9061239b565b6001600160a01b03811660009081526002602052604090205460ff16156110f25760405162461bcd60e51b815260206004820152601c60248201527f4164647265737320697320616c726561647920616e206f776e65722e00000000604482015260640161044c565b6001600160a01b038116600081815260026020908152604091829020805460ff1916600117905590519182527f6e4e2a7c0e1576d48aeabd633d094f622d4f046286fec8b9045dd7f5c9fb087d91016105e7565b61114e611e88565b6111586000611ee2565b565b60ff81166000908152600860209081526040808320805482518185028101850190935280835260609492939192909184015b82821015611258576000848152602090819020604080516080810182526004860290920180548352600181015460ff1683850152600281018054835181870281018701855281815294959294938601939283018282801561122a57602002820191906000526020600020906000905b825461010083900a900460ff168152602060019283018181049485019490930390920291018084116111fb5790505b5050509183525050600391909101546001600160a01b0316602091820152908252600192909201910161118c565b505050509050919050565b6006818154811061127357600080fd5b600091825260209091206004909102018054600182015460039092015490925060ff909116906001600160a01b031683565b60606001600160a01b0382166112cd5760405162461bcd60e51b815260040161044c9061239b565b6001600160a01b038216600090815260076020908152604080832080548251818502810185019093528083529193909284015b82821015611258576000848152602090819020604080516080810182526004860290920180548352600181015460ff1683850152600281018054835181870281018701855281815294959294938601939283018282801561139e57602002820191906000526020600020906000905b825461010083900a900460ff1681526020600192830181810494850194909303909202910180841161136f5790505b5050509183525050600391909101546001600160a01b03166020918201529082526001929092019101611300565b6113d4611fd6565b6001600160a01b0383166113fa5760405162461bcd60e51b815260040161044c9061239b565b60005b6001600160a01b038416600090815260096020526040902054811015611563576001600160a01b0384166000908152600760205260409020805460ff851691908390811061144d5761144d612408565b600091825260209091206001600490920201015460ff1603611551576001600160a01b038416600090815260076020526040902080548290811061149357611493612408565b600091825260209182902060408051608081018252600490930290910180548352600181015460ff1683850152600281018054835181870281018701855281815294959294938601939283018282801561152a57602002820191906000526020600020906000905b825461010083900a900460ff168152602060019283018181049485019490930390920291018084116114fb5790505b5050509183525050600391909101546001600160a01b0316602090910152915061046f9050565b8061155b81612434565b9150506113fd565b505060408051608081018252600080825260208083018290528351828152908101845292820192909252606081019190915292915050565b6001546001600160a01b03166115f35760405162461bcd60e51b815260206004820152601b60248201527f47616d6d614361726473436f6e7472616374206e6f74207365742e0000000000604482015260640161044c565b60045433600090815260096020526040902054106116685760405162461bcd60e51b815260206004820152602c60248201527f5573657220686173207265616368656420746865206d6178696d756d20616c6c60448201526b37bbb2b21037b33332b9399760a11b606482015260840161044c565b600354600b54106116d25760405162461bcd60e51b815260206004820152602e60248201527f546f74616c206f66666572732068617665207265616368656420746865206d6160448201526d3c34b6bab69030b63637bbb2b21760911b606482015260840161044c565b60015460405163117ece1960e31b815233600482015260ff841660248201526000916001600160a01b031690638bf670c8906044016020604051808303816000875af1158015611726573d6000803e3d6000fd5b505050506040513d601f19601f8201168201806040525081019061174a9190612476565b9050806117995760405162461bcd60e51b815260206004820152601c60248201527f596f7520646f6573206e6f742068617665207468617420636172642e00000000604482015260640161044c565b60005b82518160ff161015611842578360ff16838260ff16815181106117c1576117c1612408565b602002602001015160ff16036118305760405162461bcd60e51b815260206004820152602e60248201527f54686520636172644e756d6265722063616e6e6f7420626520696e2077616e7460448201526d32b221b0b932273ab6b132b9399760911b606482015260840161044c565b8061183a81612498565b91505061179c565b50600061184f33856113cc565b8051909150156118bf5760405162461bcd60e51b815260206004820152603560248201527f416e206f6666657220666f722074686973207573657220616e6420636172644e6044820152743ab6b132b91030b63932b0b23c9032bc34b9ba399760591b606482015260840161044c565b3360009081526009602052604090208054600101905560ff84166000908152600a60205260409020805460010190556118fc600b80546001019055565b6000611907600b5490565b6040805160808101825282815260ff88811660208084019182529383018981523360608501526006805460018101825560009190915284517ff652222313e28459528d920b65115c16c04f3efc82aaedc97be59f3f377c0d3f600490920291820190815592517ff652222313e28459528d920b65115c16c04f3efc82aaedc97be59f3f377c0d408201805460ff19169190951617909355518051959650929490936119d8937ff652222313e28459528d920b65115c16c04f3efc82aaedc97be59f3f377c0d4190930192019061200a565b5060609190910151600390910180546001600160a01b0319166001600160a01b0390921691909117905533600090815260076020526040902060068054611a219060019061244d565b81548110611a3157611a31612408565b6000918252602080832084546001818101875595855291909320600492830290930180549190920290920191825582810154928201805460ff191660ff9094169390931790925560028083018054611a8c9284019190611f78565b50600391820154910180546001600160a01b0319166001600160a01b0390921691909117905560ff8516600090815260086020526040902060068054611ad49060019061244d565b81548110611ae457611ae4612408565b6000918252602080832084546001818101875595855291909320600492830290930180549190920290920191825582810154928201805460ff191660ff9094169390931790925560028083018054611b3f9284019190611f78565b50600391820154910180546001600160a01b0319166001600160a01b03928316179055600154604051631c5568eb60e21b815233600482015260ff88166024820152911690637155a3ac90604401600060405180830381600087803b158015611ba757600080fd5b505af1158015611bbb573d6000803e3d6000fd5b505050507f31a893ae21b5459c9a34e0be8a4fdf6803ec101bc80e2903766025d86cbe9159338686604051611bf2939291906124b7565b60405180910390a15050505050565b60ff81166000908152600a602052604081205461046f565b6000611c24600b5490565b905090565b3360009081526002602052604090205460ff16611c585760405162461bcd60e51b815260040161044c906123c5565b600555565b611c65611fd6565b6006548210611cb65760405162461bcd60e51b815260206004820152601760248201527f4f6666657220496420646f6573206e6f74206578697374000000000000000000604482015260640161044c565b60068281548110611cc957611cc9612408565b600091825260209182902060408051608081018252600490930290910180548352600181015460ff16838501526002810180548351818702810187018552818152949592949386019392830182828015611d6057602002820191906000526020600020906000905b825461010083900a900460ff16815260206001928301818104948501949093039092029101808411611d315790505b5050509183525050600391909101546001600160a01b031660209091015292915050565b3360009081526002602052604090205460ff16611db35760405162461bcd60e51b815260040161044c906123c5565b600355565b611dc0611e88565b6001600160a01b038116611e255760405162461bcd60e51b815260206004820152602660248201527f4f776e61626c653a206e6577206f776e657220697320746865207a65726f206160448201526564647265737360d01b606482015260840161044c565b611e2e81611ee2565b50565b805480611e805760405162461bcd60e51b815260206004820152601b60248201527f436f756e7465723a2064656372656d656e74206f766572666c6f770000000000604482015260640161044c565b600019019055565b6000546001600160a01b031633146111585760405162461bcd60e51b815260206004820181905260248201527f4f776e61626c653a2063616c6c6572206973206e6f7420746865206f776e6572604482015260640161044c565b600080546001600160a01b038381166001600160a01b0319831681178455604051919092169283917f8be0079c531659141344cd1fd0a4f28419497f9722a3daafe3b4186f6b6457e09190a35050565b5080546000825560040290600052602060002090810190611e2e91906120ab565b50805460008255601f016020900490600052602060002090810190611e2e91906120ec565b82805482825590600052602060002090601f01602090048101928215611fc657600052602060002091601f016020900482015b82811115611fc6578254825591600101919060010190611fab565b50611fd29291506120ec565b5090565b604051806080016040528060008152602001600060ff1681526020016060815260200160006001600160a01b031681525090565b82805482825590600052602060002090601f01602090048101928215611fc65791602002820160005b8382111561207157835183826101000a81548160ff021916908360ff1602179055509260200192600101602081600001049283019260010302612033565b801561209e5782816101000a81549060ff0219169055600101602081600001049283019260010302612071565b5050611fd29291506120ec565b80821115611fd257600080825560018201805460ff191690556120d16002830182611f53565b506003810180546001600160a01b03191690556004016120ab565b5b80821115611fd257600081556001016120ed565b80356001600160a01b038116811461211857600080fd5b919050565b60006020828403121561212f57600080fd5b61213882612101565b9392505050565b60006020828403121561215157600080fd5b5035919050565b803560ff8116811461211857600080fd5b60006020828403121561217b57600080fd5b61213882612158565b6000608083018251845260208084015160ff80821683880152604086015191506080604088015283825180865260a0890191508484019550600093505b808410156121e3578551831682529484019460019390930192908401906121c1565b506060968701516001600160a01b031697909601969096525092949350505050565b6000602080830181845280855180835260408601915060408160051b870101925083870160005b8281101561225a57603f19888603018452612248858351612184565b9450928501929085019060010161222c565b5092979650505050505050565b6000806040838503121561227a57600080fd5b61228383612101565b915061229160208401612158565b90509250929050565b6020815260006121386020830184612184565b634e487b7160e01b600052604160045260246000fd5b600080604083850312156122d657600080fd5b6122df83612158565b915060208084013567ffffffffffffffff808211156122fd57600080fd5b818601915086601f83011261231157600080fd5b813581811115612323576123236122ad565b8060051b604051601f19603f83011681018181108582111715612348576123486122ad565b60405291825284820192508381018501918983111561236657600080fd5b938501935b8285101561238b5761237c85612158565b8452938501939285019261236b565b8096505050505050509250929050565b60208082526010908201526f24b73b30b634b21030b2323932b9b99760811b604082015260600190565b60208082526023908201527f4f6e6c79206f776e6572732063616e2063616c6c20746869732066756e63746960408201526237b71760e91b606082015260800190565b634e487b7160e01b600052603260045260246000fd5b634e487b7160e01b600052601160045260246000fd5b6000600182016124465761244661241e565b5060010190565b8181038181111561046f5761046f61241e565b634e487b7160e01b600052603160045260246000fd5b60006020828403121561248857600080fd5b8151801515811461213857600080fd5b600060ff821660ff81036124ae576124ae61241e565b60010192915050565b60006060820160018060a01b0386168352602060ff8087168286015260606040860152828651808552608087019150838801945060005b8181101561250c5785518416835294840194918401916001016124ee565b5090999850505050505050505056fea2646970667358221220d75f99924a5dd359dca53859b50c73c1b9c7f572c415c4d834b48687138eb38764736f6c63430008120033",
  "linkReferences": {},
  "deployedLinkReferences": {}
}