{
  "_format": "hh-sol-artifact-1",
  "contractName": "NofGammaOffersV1",
  "sourceName": "contracts/gamma/GammaOffers.v1.sol",
  "abi": [
    {
      "inputs": [
        {
          "internalType": "address",
          "name": "_cardsContract",
          "type": "address"
        }
      ],
      "stateMutability": "nonpayable",
      "type": "constructor"
    },
    {
      "anonymous": false,
      "inputs": [
        {
          "indexed": false,
          "internalType": "address",
          "name": "newGammaCardsContract",
          "type": "address"
        }
      ],
      "name": "NewGammaCardsContract",
      "type": "event"
    },
    {
      "anonymous": false,
      "inputs": [
        {
          "indexed": false,
          "internalType": "address",
          "name": "user",
          "type": "address"
        },
        {
          "indexed": false,
          "internalType": "uint8",
          "name": "cardNumber",
          "type": "uint8"
        },
        {
          "indexed": false,
          "internalType": "uint8[]",
          "name": "wantedCardNumbers",
          "type": "uint8[]"
        }
      ],
      "name": "NewOfferCreated",
      "type": "event"
    },
    {
      "anonymous": false,
      "inputs": [
        {
          "indexed": false,
          "internalType": "address",
          "name": "owner",
          "type": "address"
        }
      ],
      "name": "NewOwnerAdded",
      "type": "event"
    },
    {
      "anonymous": false,
      "inputs": [
        {
          "indexed": false,
          "internalType": "address",
          "name": "user",
          "type": "address"
        },
        {
          "indexed": false,
          "internalType": "uint8",
          "name": "cardNumber",
          "type": "uint8"
        }
      ],
      "name": "OfferRemoved",
      "type": "event"
    },
    {
      "anonymous": false,
      "inputs": [
        {
          "indexed": false,
          "internalType": "address",
          "name": "owner",
          "type": "address"
        }
      ],
      "name": "OwnerRemoved",
      "type": "event"
    },
    {
      "anonymous": false,
      "inputs": [
        {
          "indexed": true,
          "internalType": "address",
          "name": "previousOwner",
          "type": "address"
        },
        {
          "indexed": true,
          "internalType": "address",
          "name": "newOwner",
          "type": "address"
        }
      ],
      "name": "OwnershipTransferred",
      "type": "event"
    },
    {
      "anonymous": false,
      "inputs": [],
      "name": "RemovedAllOffers",
      "type": "event"
    },
    {
      "inputs": [
        {
          "internalType": "address",
          "name": "_newOwner",
          "type": "address"
        }
      ],
      "name": "addOwner",
      "outputs": [],
      "stateMutability": "nonpayable",
      "type": "function"
    },
    {
      "inputs": [
        {
          "internalType": "bool",
          "name": "_value",
          "type": "bool"
        }
      ],
      "name": "changeRemoveCardinInventoryWhenOffer",
      "outputs": [],
      "stateMutability": "nonpayable",
      "type": "function"
    },
    {
      "inputs": [
        {
          "internalType": "address",
          "name": "from",
          "type": "address"
        },
        {
          "internalType": "uint8",
          "name": "cardNumberFrom",
          "type": "uint8"
        },
        {
          "internalType": "address",
          "name": "offerWallet",
          "type": "address"
        },
        {
          "internalType": "uint8",
          "name": "offerCardNumber",
          "type": "uint8"
        }
      ],
      "name": "confirmOfferExchange",
      "outputs": [],
      "stateMutability": "nonpayable",
      "type": "function"
    },
    {
      "inputs": [
        {
          "internalType": "uint8",
          "name": "cardNumber",
          "type": "uint8"
        },
        {
          "internalType": "uint8[]",
          "name": "wantedCardNumbers",
          "type": "uint8[]"
        }
      ],
      "name": "createOffer",
      "outputs": [],
      "stateMutability": "nonpayable",
      "type": "function"
    },
    {
      "inputs": [
        {
          "internalType": "address",
          "name": "user",
          "type": "address"
        },
        {
          "internalType": "uint8",
          "name": "cardNumber",
          "type": "uint8"
        },
        {
          "internalType": "uint8[]",
          "name": "wantedCardNumbers",
          "type": "uint8[]"
        }
      ],
      "name": "createOfferWithoUser",
      "outputs": [],
      "stateMutability": "nonpayable",
      "type": "function"
    },
    {
      "inputs": [],
      "name": "deleteAllOffers",
      "outputs": [],
      "stateMutability": "nonpayable",
      "type": "function"
    },
    {
      "inputs": [],
      "name": "gammaCardsContract",
      "outputs": [
        {
          "internalType": "contract IGammaCardsContract",
          "name": "",
          "type": "address"
        }
      ],
      "stateMutability": "view",
      "type": "function"
    },
    {
      "inputs": [
        {
          "internalType": "uint256",
          "name": "index",
          "type": "uint256"
        }
      ],
      "name": "getOfferByIndex",
      "outputs": [
        {
          "components": [
            {
              "internalType": "uint256",
              "name": "offerId",
              "type": "uint256"
            },
            {
              "internalType": "uint8",
              "name": "cardNumber",
              "type": "uint8"
            },
            {
              "internalType": "uint8[]",
              "name": "wantedCardNumbers",
              "type": "uint8[]"
            },
            {
              "internalType": "address",
              "name": "owner",
              "type": "address"
            }
          ],
          "internalType": "struct NofGammaOffersV1.Offer",
          "name": "",
          "type": "tuple"
        }
      ],
      "stateMutability": "view",
      "type": "function"
    },
    {
      "inputs": [
        {
          "internalType": "uint256",
          "name": "offerId",
          "type": "uint256"
        }
      ],
      "name": "getOfferByOfferId",
      "outputs": [
        {
          "components": [
            {
              "internalType": "uint256",
              "name": "offerId",
              "type": "uint256"
            },
            {
              "internalType": "uint8",
              "name": "cardNumber",
              "type": "uint8"
            },
            {
              "internalType": "uint8[]",
              "name": "wantedCardNumbers",
              "type": "uint8[]"
            },
            {
              "internalType": "address",
              "name": "owner",
              "type": "address"
            }
          ],
          "internalType": "struct NofGammaOffersV1.Offer",
          "name": "",
          "type": "tuple"
        }
      ],
      "stateMutability": "view",
      "type": "function"
    },
    {
      "inputs": [
        {
          "internalType": "address",
          "name": "user",
          "type": "address"
        },
        {
          "internalType": "uint8",
          "name": "cardNumber",
          "type": "uint8"
        }
      ],
      "name": "getOfferByUserAndCardNumber",
      "outputs": [
        {
          "components": [
            {
              "internalType": "uint256",
              "name": "offerId",
              "type": "uint256"
            },
            {
              "internalType": "uint8",
              "name": "cardNumber",
              "type": "uint8"
            },
            {
              "internalType": "uint8[]",
              "name": "wantedCardNumbers",
              "type": "uint8[]"
            },
            {
              "internalType": "address",
              "name": "owner",
              "type": "address"
            }
          ],
          "internalType": "struct NofGammaOffersV1.Offer",
          "name": "",
          "type": "tuple"
        }
      ],
      "stateMutability": "view",
      "type": "function"
    },
    {
      "inputs": [],
      "name": "getOffers",
      "outputs": [
        {
          "components": [
            {
              "internalType": "uint256",
              "name": "offerId",
              "type": "uint256"
            },
            {
              "internalType": "uint8",
              "name": "cardNumber",
              "type": "uint8"
            },
            {
              "internalType": "uint8[]",
              "name": "wantedCardNumbers",
              "type": "uint8[]"
            },
            {
              "internalType": "address",
              "name": "owner",
              "type": "address"
            }
          ],
          "internalType": "struct NofGammaOffersV1.Offer[]",
          "name": "",
          "type": "tuple[]"
        }
      ],
      "stateMutability": "view",
      "type": "function"
    },
    {
      "inputs": [
        {
          "internalType": "uint8",
          "name": "cardNumber",
          "type": "uint8"
        }
      ],
      "name": "getOffersByCardNumber",
      "outputs": [
        {
          "components": [
            {
              "internalType": "uint256",
              "name": "offerId",
              "type": "uint256"
            },
            {
              "internalType": "uint8",
              "name": "cardNumber",
              "type": "uint8"
            },
            {
              "internalType": "uint8[]",
              "name": "wantedCardNumbers",
              "type": "uint8[]"
            },
            {
              "internalType": "address",
              "name": "owner",
              "type": "address"
            }
          ],
          "internalType": "struct NofGammaOffersV1.Offer[]",
          "name": "",
          "type": "tuple[]"
        }
      ],
      "stateMutability": "view",
      "type": "function"
    },
    {
      "inputs": [
        {
          "internalType": "uint8",
          "name": "cardNumber",
          "type": "uint8"
        }
      ],
      "name": "getOffersByCardNumberCounter",
      "outputs": [
        {
          "internalType": "uint256",
          "name": "",
          "type": "uint256"
        }
      ],
      "stateMutability": "view",
      "type": "function"
    },
    {
      "inputs": [
        {
          "internalType": "address",
          "name": "user",
          "type": "address"
        }
      ],
      "name": "getOffersByUser",
      "outputs": [
        {
          "components": [
            {
              "internalType": "uint256",
              "name": "offerId",
              "type": "uint256"
            },
            {
              "internalType": "uint8",
              "name": "cardNumber",
              "type": "uint8"
            },
            {
              "internalType": "uint8[]",
              "name": "wantedCardNumbers",
              "type": "uint8[]"
            },
            {
              "internalType": "address",
              "name": "owner",
              "type": "address"
            }
          ],
          "internalType": "struct NofGammaOffersV1.Offer[]",
          "name": "",
          "type": "tuple[]"
        }
      ],
      "stateMutability": "view",
      "type": "function"
    },
    {
      "inputs": [
        {
          "internalType": "address",
          "name": "user",
          "type": "address"
        }
      ],
      "name": "getOffersByUserCounter",
      "outputs": [
        {
          "internalType": "uint256",
          "name": "",
          "type": "uint256"
        }
      ],
      "stateMutability": "view",
      "type": "function"
    },
    {
      "inputs": [],
      "name": "getOffersCounter",
      "outputs": [
        {
          "internalType": "uint256",
          "name": "",
          "type": "uint256"
        }
      ],
      "stateMutability": "view",
      "type": "function"
    },
    {
      "inputs": [
        {
          "internalType": "address",
          "name": "user",
          "type": "address"
        },
        {
          "internalType": "uint8",
          "name": "cardNumber",
          "type": "uint8"
        }
      ],
      "name": "hasOffer",
      "outputs": [
        {
          "internalType": "bool",
          "name": "",
          "type": "bool"
        }
      ],
      "stateMutability": "view",
      "type": "function"
    },
    {
      "inputs": [
        {
          "internalType": "uint256",
          "name": "",
          "type": "uint256"
        }
      ],
      "name": "offers",
      "outputs": [
        {
          "internalType": "uint256",
          "name": "offerId",
          "type": "uint256"
        },
        {
          "internalType": "uint8",
          "name": "cardNumber",
          "type": "uint8"
        },
        {
          "internalType": "address",
          "name": "owner",
          "type": "address"
        }
      ],
      "stateMutability": "view",
      "type": "function"
    },
    {
      "inputs": [
        {
          "internalType": "uint8",
          "name": "",
          "type": "uint8"
        }
      ],
      "name": "offersByCardNumberCounter",
      "outputs": [
        {
          "internalType": "uint256",
          "name": "_value",
          "type": "uint256"
        }
      ],
      "stateMutability": "view",
      "type": "function"
    },
    {
      "inputs": [
        {
          "internalType": "address",
          "name": "",
          "type": "address"
        }
      ],
      "name": "offersByUserCounter",
      "outputs": [
        {
          "internalType": "uint256",
          "name": "_value",
          "type": "uint256"
        }
      ],
      "stateMutability": "view",
      "type": "function"
    },
    {
      "inputs": [],
      "name": "owner",
      "outputs": [
        {
          "internalType": "address",
          "name": "",
          "type": "address"
        }
      ],
      "stateMutability": "view",
      "type": "function"
    },
    {
      "inputs": [
        {
          "internalType": "address",
          "name": "",
          "type": "address"
        }
      ],
      "name": "owners",
      "outputs": [
        {
          "internalType": "bool",
          "name": "",
          "type": "bool"
        }
      ],
      "stateMutability": "view",
      "type": "function"
    },
    {
      "inputs": [
        {
          "internalType": "uint8",
          "name": "cardNumber",
          "type": "uint8"
        }
      ],
      "name": "removeOfferByCardNumber",
      "outputs": [
        {
          "internalType": "bool",
          "name": "",
          "type": "bool"
        }
      ],
      "stateMutability": "nonpayable",
      "type": "function"
    },
    {
      "inputs": [
        {
          "internalType": "address",
          "name": "user",
          "type": "address"
        },
        {
          "internalType": "uint8",
          "name": "cardNumber",
          "type": "uint8"
        }
      ],
      "name": "removeOfferByUserAndCardNumber",
      "outputs": [
        {
          "internalType": "bool",
          "name": "",
          "type": "bool"
        }
      ],
      "stateMutability": "nonpayable",
      "type": "function"
    },
    {
      "inputs": [
        {
          "internalType": "address",
          "name": "_ownerToRemove",
          "type": "address"
        }
      ],
      "name": "removeOwner",
      "outputs": [],
      "stateMutability": "nonpayable",
      "type": "function"
    },
    {
      "inputs": [],
      "name": "renounceOwnership",
      "outputs": [],
      "stateMutability": "nonpayable",
      "type": "function"
    },
    {
      "inputs": [
        {
          "internalType": "address",
          "name": "_gammaCardsContract",
          "type": "address"
        }
      ],
      "name": "setGammaCardsContract",
      "outputs": [],
      "stateMutability": "nonpayable",
      "type": "function"
    },
    {
      "inputs": [
        {
          "internalType": "uint256",
          "name": "_maxCardNumbersAllowed",
          "type": "uint256"
        }
      ],
      "name": "setMaxCardNumbersAllowed",
      "outputs": [],
      "stateMutability": "nonpayable",
      "type": "function"
    },
    {
      "inputs": [
        {
          "internalType": "uint256",
          "name": "_maxOffersAllowed",
          "type": "uint256"
        }
      ],
      "name": "setMaxOffersAllowed",
      "outputs": [],
      "stateMutability": "nonpayable",
      "type": "function"
    },
    {
      "inputs": [
        {
          "internalType": "uint256",
          "name": "_maxOffersByUserAllowed",
          "type": "uint256"
        }
      ],
      "name": "setMaxOffersByUserAllowed",
      "outputs": [],
      "stateMutability": "nonpayable",
      "type": "function"
    },
    {
      "inputs": [
        {
          "internalType": "address",
          "name": "newOwner",
          "type": "address"
        }
      ],
      "name": "transferOwnership",
      "outputs": [],
      "stateMutability": "nonpayable",
      "type": "function"
    }
  ],
  "bytecode": "0x608060405261138860035560056004819055607890556006805460ff191690553480156200002c57600080fd5b5060405162002a3538038062002a358339810160408190526200004f91620000f5565b6200005a33620000a5565b600180546001600160a01b0319166001600160a01b0392909216919091178155336000908152600260205260409020805460ff19908116909217905560068054909116905562000127565b600080546001600160a01b038381166001600160a01b0319831681178455604051919092169283917f8be0079c531659141344cd1fd0a4f28419497f9722a3daafe3b4186f6b6457e09190a35050565b6000602082840312156200010857600080fd5b81516001600160a01b03811681146200012057600080fd5b9392505050565b6128fe80620001376000396000f3fe608060405234801561001057600080fd5b50600436106101e55760003560e01c80638400a1891161010f578063cf86f8e5116100a2578063e359a0a111610071578063e359a0a114610460578063e5e5f73214610473578063f2fde38b14610486578063ff4d62a31461049957600080fd5b8063cf86f8e514610412578063d250f03a1461041a578063d827a8f41461042d578063e02f97231461044d57600080fd5b80639f915069116100de5780639f915069146103c6578063a2e9f13a146103d9578063c08029e7146103ec578063ce7483d5146103ff57600080fd5b80638400a189146103425780638a72ea6a146103555780638da5cb5b1461038e5780639618b333146103b357600080fd5b80633ee992ee116101875780635f3a6298116101565780635f3a6298146102e75780637065cb4814610307578063715018a61461031a5780637594a6ed1461032257600080fd5b80633ee992ee146102995780634c7a7ad3146102ae57806358e57ebb146102c15780635bbfbfd6146102d457600080fd5b80632edb5fcf116101c35780632edb5fcf14610258578063322fba271461026b5780633808dfe7146102735780633a0270731461028657600080fd5b8063022914a7146101ea5780630cdb311714610222578063173825d914610243575b600080fd5b61020d6101f83660046123e1565b60026020526000908152604090205460ff1681565b60405190151581526020015b60405180910390f35b6102356102303660046123e1565b6104ac565b604051908152602001610219565b6102566102513660046123e1565b6104fd565b005b61020d61026636600461240d565b61067a565b610256610737565b610256610281366004612440565b6108e4565b61020d610294366004612459565b610918565b6102a1610926565b60405161021991906124f5565b6102566102bc3660046123e1565b610a1f565b6102566102cf366004612565565b610ac2565b61020d6102e236600461240d565b610b04565b6102fa6102f5366004612440565b610b46565b6040516102199190612582565b6102566103153660046123e1565b610c9e565b610256610db0565b6102356103303660046123e1565b600a6020526000908152604090205481565b6102a1610350366004612459565b610dc4565b610368610363366004612440565b610ecd565b6040805193845260ff90921660208401526001600160a01b031690820152606001610219565b6000546001600160a01b03165b6040516001600160a01b039091168152602001610219565b6102a16103c13660046123e1565b610f0f565b6102fa6103d436600461240d565b611036565b6102566103e736600461264d565b611205565b6102566103fa36600461269b565b611214565b61023561040d366004612459565b61129f565b6102356112b7565b60015461039b906001600160a01b031681565b61023561043b366004612459565b600b6020526000908152604090205481565b61025661045b366004612440565b6112c7565b6102fa61046e366004612440565b6112fb565b610256610481366004612440565b611422565b6102566104943660046123e1565b611456565b6102566104a73660046126ef565b6114cf565b60006001600160a01b0382166104dd5760405162461bcd60e51b81526004016104d49061274d565b60405180910390fd5b6001600160a01b0382166000908152600a60205260409020545b92915050565b3360009081526002602052604090205460ff1661052c5760405162461bcd60e51b81526004016104d490612777565b6001600160a01b0381166105525760405162461bcd60e51b81526004016104d49061274d565b336001600160a01b038216036105ba5760405162461bcd60e51b815260206004820152602760248201527f596f752063616e6e6f742072656d6f766520796f757273656c6620617320616e6044820152661037bbb732b91760c91b60648201526084016104d4565b6001600160a01b03811660009081526002602052604090205460ff166106225760405162461bcd60e51b815260206004820152601860248201527f41646472657373206973206e6f7420616e206f776e65722e000000000000000060448201526064016104d4565b6001600160a01b038116600081815260026020908152604091829020805460ff1916905590519182527f58619076adf5bb0943d100ef88d52d7c3fd691b19d3a9071b555b651fbf418da91015b60405180910390a150565b60006001600160a01b0383166106a25760405162461bcd60e51b81526004016104d49061274d565b60005b6001600160a01b0384166000908152600a602052604090205481101561072d576001600160a01b0384166000908152600860205260409020805460ff85169190839081106106f5576106f56127ba565b600091825260209091206001600490920201015460ff160361071b5760019150506104f7565b80610725816127e6565b9150506106a5565b5060009392505050565b3360009081526002602052604090205460ff166107665760405162461bcd60e51b81526004016104d490612777565b60005b6007548110156108a757600860006007838154811061078a5761078a6127ba565b60009182526020808320600360049093020191909101546001600160a01b0316835282019290925260400181206107c0916121f6565b61080a600a6000600784815481106107da576107da6127ba565b60009182526020808320600492909202909101600301546001600160a01b03168352820192909252604001812055565b6009600060078381548110610821576108216127ba565b600091825260208083206001600490930201919091015460ff1683528201929092526040018120610851916121f6565b610895600b60006007848154811061086b5761086b6127ba565b600091825260208083206004929092029091016001015460ff168352820192909252604001812055565b8061089f816127e6565b915050610769565b506000600c556108b9600760006121f6565b6040517f550d27073d0d6d364815a66fed9ba2bcde6c0406944f87d0cb3e538118faef4a90600090a1565b3360009081526002602052604090205460ff166109135760405162461bcd60e51b81526004016104d490612777565b600455565b60006104f73383600061150e565b60606007805480602002602001604051908101604052809291908181526020016000905b82821015610a16576000848152602090819020604080516080810182526004860290920180548352600181015460ff168385015260028101805483518187028101870185528181529495929493860193928301828280156109e857602002820191906000526020600020906000905b825461010083900a900460ff168152602060019283018181049485019490930390920291018084116109b95790505b5050509183525050600391909101546001600160a01b0316602091820152908252600192909201910161094a565b50505050905090565b3360009081526002602052604090205460ff16610a4e5760405162461bcd60e51b81526004016104d490612777565b6001600160a01b038116610a745760405162461bcd60e51b81526004016104d49061274d565b600180546001600160a01b0319166001600160a01b0383169081179091556040519081527f45c9eba39b5ae3e7a6650b0a57bcb8e5d135936d56d111983dbc5860ae6760fa9060200161066f565b3360009081526002602052604090205460ff16610af15760405162461bcd60e51b81526004016104d490612777565b6006805460ff1916911515919091179055565b3360009081526002602052604081205460ff16610b335760405162461bcd60e51b81526004016104d490612777565b610b3f8383600061150e565b9392505050565b610b4e612217565b60005b600c54811015610c67578260078281548110610b6f57610b6f6127ba565b90600052602060002090600402016000015403610c555760078181548110610b9957610b996127ba565b600091825260209182902060408051608081018252600490930290910180548352600181015460ff16838501526002810180548351818702810187018552818152949592949386019392830182828015610c3057602002820191906000526020600020906000905b825461010083900a900460ff16815260206001928301818104948501949093039092029101808411610c015790505b5050509183525050600391909101546001600160a01b03166020909101529392505050565b80610c5f816127e6565b915050610b51565b5050604080516080810182526000808252602080830182905283518281529081018452928201929092526060810191909152919050565b3360009081526002602052604090205460ff16610ccd5760405162461bcd60e51b81526004016104d490612777565b6001600160a01b038116610cf35760405162461bcd60e51b81526004016104d49061274d565b6001600160a01b03811660009081526002602052604090205460ff1615610d5c5760405162461bcd60e51b815260206004820152601c60248201527f4164647265737320697320616c726561647920616e206f776e65722e0000000060448201526064016104d4565b6001600160a01b038116600081815260026020908152604091829020805460ff1916600117905590519182527f6e4e2a7c0e1576d48aeabd633d094f622d4f046286fec8b9045dd7f5c9fb087d910161066f565b610db8611a59565b610dc26000611ab3565b565b60ff81166000908152600960209081526040808320805482518185028101850190935280835260609492939192909184015b82821015610ec2576000848152602090819020604080516080810182526004860290920180548352600181015460ff16838501526002810180548351818702810187018552818152949592949386019392830182828015610e9457602002820191906000526020600020906000905b825461010083900a900460ff16815260206001928301818104948501949093039092029101808411610e655790505b5050509183525050600391909101546001600160a01b03166020918201529082526001929092019101610df6565b505050509050919050565b60078181548110610edd57600080fd5b600091825260209091206004909102018054600182015460039092015490925060ff909116906001600160a01b031683565b60606001600160a01b038216610f375760405162461bcd60e51b81526004016104d49061274d565b6001600160a01b038216600090815260086020908152604080832080548251818502810185019093528083529193909284015b82821015610ec2576000848152602090819020604080516080810182526004860290920180548352600181015460ff1683850152600281018054835181870281018701855281815294959294938601939283018282801561100857602002820191906000526020600020906000905b825461010083900a900460ff16815260206001928301818104948501949093039092029101808411610fd95790505b5050509183525050600391909101546001600160a01b03166020918201529082526001929092019101610f6a565b61103e612217565b6001600160a01b0383166110645760405162461bcd60e51b81526004016104d49061274d565b60005b6001600160a01b0384166000908152600a60205260409020548110156111cd576001600160a01b0384166000908152600860205260409020805460ff85169190839081106110b7576110b76127ba565b600091825260209091206001600490920201015460ff16036111bb576001600160a01b03841660009081526008602052604090208054829081106110fd576110fd6127ba565b600091825260209182902060408051608081018252600490930290910180548352600181015460ff1683850152600281018054835181870281018701855281815294959294938601939283018282801561119457602002820191906000526020600020906000905b825461010083900a900460ff168152602060019283018181049485019490930390920291018084116111655790505b5050509183525050600391909101546001600160a01b031660209091015291506104f79050565b806111c5816127e6565b915050611067565b505060408051608081018252600080825260208083018290528351828152908101845292820192909252606081019190915292915050565b611210338383611b03565b5050565b60015460405163568b427d60e11b81526001600160a01b03868116600483015260ff80871660248401528582166044840152841660648301529091169063ad1684fa90608401600060405180830381600087803b15801561127457600080fd5b505af1158015611288573d6000803e3d6000fd5b505050506112988282600161150e565b5050505050565b60ff81166000908152600b60205260408120546104f7565b60006112c2600c5490565b905090565b3360009081526002602052604090205460ff166112f65760405162461bcd60e51b81526004016104d490612777565b600555565b611303612217565b60075482106113545760405162461bcd60e51b815260206004820152601760248201527f4f6666657220496420646f6573206e6f7420657869737400000000000000000060448201526064016104d4565b60078281548110611367576113676127ba565b600091825260209182902060408051608081018252600490930290910180548352600181015460ff168385015260028101805483518187028101870185528181529495929493860193928301828280156113fe57602002820191906000526020600020906000905b825461010083900a900460ff168152602060019283018181049485019490930390920291018084116113cf5790505b5050509183525050600391909101546001600160a01b031660209091015292915050565b3360009081526002602052604090205460ff166114515760405162461bcd60e51b81526004016104d490612777565b600355565b61145e611a59565b6001600160a01b0381166114c35760405162461bcd60e51b815260206004820152602660248201527f4f776e61626c653a206e6577206f776e657220697320746865207a65726f206160448201526564647265737360d01b60648201526084016104d4565b6114cc81611ab3565b50565b3360009081526002602052604090205460ff166114fe5760405162461bcd60e51b81526004016104d490612777565b611509838383611b03565b505050565b60006001600160a01b0384166115365760405162461bcd60e51b81526004016104d49061274d565b6001600160a01b038416600090815260086020908152604080832080548251818502810185019093528083529192909190849084015b82821015611638576000848152602090819020604080516080810182526004860290920180548352600181015460ff1683850152600281018054835181870281018701855281815294959294938601939283018282801561160a57602002820191906000526020600020906000905b825461010083900a900460ff168152602060019283018181049485019490930390920291018084116115db5790505b5050509183525050600391909101546001600160a01b0316602091820152908252600192909201910161156c565b505050506001600160a01b0386166000908152600a6020526040812054600c549293509190805b83811015611a4d578760ff1685828151811061167d5761167d6127ba565b60200260200101516020015160ff1603611a3b5760008582815181106116a5576116a56127ba565b6020026020010151600001519050600860008b6001600160a01b03166001600160a01b0316815260200190815260200160002082815481106116e9576116e96127ba565b60009182526020822060049091020181815560018101805460ff1916905590611715600283018261224b565b5060030180546001600160a01b031916905560ff8916600090815260096020526040902080548390811061174b5761174b6127ba565b60009182526020822060049091020181815560018101805460ff1916905590611777600283018261224b565b5060030180546001600160a01b031916905560005b848110156119285781600782815481106117a8576117a86127ba565b9060005260206000209060040201600001540361191657600781815481106117d2576117d26127ba565b60009182526020822060049091020181815560018101805460ff19169055906117fe600283018261224b565b5060030180546001600160a01b031916905560078054611820906001906127ff565b81548110611830576118306127ba565b906000526020600020906004020160078281548110611851576118516127ba565b600091825260209091208254600490920201908155600180830154908201805460ff191660ff909216919091179055600280830180546118949284019190612270565b50600391820154910180546001600160a01b0319166001600160a01b0390921691909117905560078054806118cb576118cb612812565b60008281526020812060046000199093019283020181815560018101805460ff19169055906118fd600283018261224b565b5060030180546001600160a01b03191690559055611928565b80611920816127e6565b91505061178c565b506001600160a01b038a166000908152600a6020526040902061194a9061219f565b60ff89166000908152600b602052604090206119659061219f565b61196f600c61219f565b6006546001935060ff168015611983575087155b156119f157600154604051630aaf17c960e11b81526001600160a01b038c8116600483015260ff8c1660248301529091169063155e2f9290604401600060405180830381600087803b1580156119d857600080fd5b505af11580156119ec573d6000803e3d6000fd5b505050505b604080516001600160a01b038c16815260ff8b1660208201527f7911e34642eae38762395a3dd0fa3308d0f8908b92fe36c41543d635ab7cb8f5910160405180910390a150611a4d565b80611a45816127e6565b91505061165f565b50979650505050505050565b6000546001600160a01b03163314610dc25760405162461bcd60e51b815260206004820181905260248201527f4f776e61626c653a2063616c6c6572206973206e6f7420746865206f776e657260448201526064016104d4565b600080546001600160a01b038381166001600160a01b0319831681178455604051919092169283917f8be0079c531659141344cd1fd0a4f28419497f9722a3daafe3b4186f6b6457e09190a35050565b6001546001600160a01b0316611b5b5760405162461bcd60e51b815260206004820152601b60248201527f47616d6d614361726473436f6e7472616374206e6f74207365742e000000000060448201526064016104d4565b6004546001600160a01b0384166000908152600a602052604090205410611bd95760405162461bcd60e51b815260206004820152602c60248201527f5573657220686173207265616368656420746865206d6178696d756d20616c6c60448201526b37bbb2b21037b33332b9399760a11b60648201526084016104d4565b600354600c5410611c435760405162461bcd60e51b815260206004820152602e60248201527f546f74616c206f66666572732068617665207265616368656420746865206d6160448201526d3c34b6bab69030b63637bbb2b21760911b60648201526084016104d4565b60015460405163117ece1960e31b81526001600160a01b03858116600483015260ff851660248301526000921690638bf670c8906044016020604051808303816000875af1158015611c99573d6000803e3d6000fd5b505050506040513d601f19601f82011682018060405250810190611cbd9190612828565b905080611d0c5760405162461bcd60e51b815260206004820152601c60248201527f596f7520646f6573206e6f742068617665207468617420636172642e0000000060448201526064016104d4565b60005b82518160ff161015611db5578360ff16838260ff1681518110611d3457611d346127ba565b602002602001015160ff1603611da35760405162461bcd60e51b815260206004820152602e60248201527f54686520636172644e756d6265722063616e6e6f7420626520696e2077616e7460448201526d32b221b0b932273ab6b132b9399760911b60648201526084016104d4565b80611dad81612845565b915050611d0f565b506000611dc28585611036565b805190915015611e325760405162461bcd60e51b815260206004820152603560248201527f416e206f6666657220666f722074686973207573657220616e6420636172644e6044820152743ab6b132b91030b63932b0b23c9032bc34b9ba399760591b60648201526084016104d4565b6001600160a01b0385166000908152600a602052604090208054600101905560ff84166000908152600b6020526040902080546001019055611e78600c80546001019055565b6000611e83600c5490565b6040805160808101825282815260ff88811660208084019182529383018981526001600160a01b038c1660608501526007805460018101825560009190915284517fa66cc928b5edb82af9bd49922954155ab7b0942694bea4ce44661d9a8736c688600490920291820190815592517fa66cc928b5edb82af9bd49922954155ab7b0942694bea4ce44661d9a8736c6898201805460ff1916919095161790935551805195965092949093611f5d937fa66cc928b5edb82af9bd49922954155ab7b0942694bea4ce44661d9a8736c68a9093019201906122ce565b5060609190910151600390910180546001600160a01b0319166001600160a01b039283161790558616600090815260086020526040902060078054611fa4906001906127ff565b81548110611fb457611fb46127ba565b6000918252602080832084546001818101875595855291909320600492830290930180549190920290920191825582810154928201805460ff191660ff909416939093179092556002808301805461200f9284019190612270565b50600391820154910180546001600160a01b0319166001600160a01b0390921691909117905560ff8516600090815260096020526040902060078054612057906001906127ff565b81548110612067576120676127ba565b6000918252602080832084546001818101875595855291909320600492830290930180549190920290920191825582810154928201805460ff191660ff90941693909317909255600280830180546120c29284019190612270565b50600391820154910180546001600160a01b0319166001600160a01b0390921691909117905560065460ff161561215c57600154604051631c5568eb60e21b81526001600160a01b03888116600483015260ff8816602483015290911690637155a3ac90604401600060405180830381600087803b15801561214357600080fd5b505af1158015612157573d6000803e3d6000fd5b505050505b7f31a893ae21b5459c9a34e0be8a4fdf6803ec101bc80e2903766025d86cbe915986868660405161218f93929190612864565b60405180910390a1505050505050565b8054806121ee5760405162461bcd60e51b815260206004820152601b60248201527f436f756e7465723a2064656372656d656e74206f766572666c6f77000000000060448201526064016104d4565b600019019055565b50805460008255600402906000526020600020908101906114cc919061236f565b604051806080016040528060008152602001600060ff1681526020016060815260200160006001600160a01b031681525090565b50805460008255601f0160209004906000526020600020908101906114cc91906123b0565b82805482825590600052602060002090601f016020900481019282156122be57600052602060002091601f016020900482015b828111156122be5782548255916001019190600101906122a3565b506122ca9291506123b0565b5090565b82805482825590600052602060002090601f016020900481019282156122be5791602002820160005b8382111561233557835183826101000a81548160ff021916908360ff16021790555092602001926001016020816000010492830192600103026122f7565b80156123625782816101000a81549060ff0219169055600101602081600001049283019260010302612335565b50506122ca9291506123b0565b808211156122ca57600080825560018201805460ff19169055612395600283018261224b565b506003810180546001600160a01b031916905560040161236f565b5b808211156122ca57600081556001016123b1565b80356001600160a01b03811681146123dc57600080fd5b919050565b6000602082840312156123f357600080fd5b610b3f826123c5565b803560ff811681146123dc57600080fd5b6000806040838503121561242057600080fd5b612429836123c5565b9150612437602084016123fc565b90509250929050565b60006020828403121561245257600080fd5b5035919050565b60006020828403121561246b57600080fd5b610b3f826123fc565b6000608083018251845260208084015160ff80821683880152604086015191506080604088015283825180865260a0890191508484019550600093505b808410156124d3578551831682529484019460019390930192908401906124b1565b506060968701516001600160a01b031697909601969096525092949350505050565b6000602080830181845280855180835260408601915060408160051b870101925083870160005b8281101561254a57603f19888603018452612538858351612474565b9450928501929085019060010161251c565b5092979650505050505050565b80151581146114cc57600080fd5b60006020828403121561257757600080fd5b8135610b3f81612557565b602081526000610b3f6020830184612474565b634e487b7160e01b600052604160045260246000fd5b600082601f8301126125bc57600080fd5b8135602067ffffffffffffffff808311156125d9576125d9612595565b8260051b604051601f19603f830116810181811084821117156125fe576125fe612595565b60405293845285810183019383810192508785111561261c57600080fd5b83870191505b8482101561264257612633826123fc565b83529183019190830190612622565b979650505050505050565b6000806040838503121561266057600080fd5b612669836123fc565b9150602083013567ffffffffffffffff81111561268557600080fd5b612691858286016125ab565b9150509250929050565b600080600080608085870312156126b157600080fd5b6126ba856123c5565b93506126c8602086016123fc565b92506126d6604086016123c5565b91506126e4606086016123fc565b905092959194509250565b60008060006060848603121561270457600080fd5b61270d846123c5565b925061271b602085016123fc565b9150604084013567ffffffffffffffff81111561273757600080fd5b612743868287016125ab565b9150509250925092565b60208082526010908201526f24b73b30b634b21030b2323932b9b99760811b604082015260600190565b60208082526023908201527f4f6e6c79206f776e6572732063616e2063616c6c20746869732066756e63746960408201526237b71760e91b606082015260800190565b634e487b7160e01b600052603260045260246000fd5b634e487b7160e01b600052601160045260246000fd5b6000600182016127f8576127f86127d0565b5060010190565b818103818111156104f7576104f76127d0565b634e487b7160e01b600052603160045260246000fd5b60006020828403121561283a57600080fd5b8151610b3f81612557565b600060ff821660ff810361285b5761285b6127d0565b60010192915050565b60006060820160018060a01b0386168352602060ff8087168286015260606040860152828651808552608087019150838801945060005b818110156128b957855184168352948401949184019160010161289b565b5090999850505050505050505056fea26469706673582212202099a1246432c0623672b7173e1b52f7f3c1ccfee3436271c61bafa4183abbdc64736f6c63430008120033",
  "linkReferences": {},
  "deployedLinkReferences": {}
}