{"contracts/GammaPacks.sol":{"GammaPacks":{"abi":[{"inputs":[{"internalType":"address","name":"_daiTokenAddress","type":"address"},{"internalType":"address","name":"_balanceReceiver","type":"address"}],"stateMutability":"nonpayable","type":"constructor"},{"anonymous":false,"inputs":[{"indexed":false,"internalType":"address","name":"newCardsContract","type":"address"}],"name":"NewCardsContract","type":"event"},{"anonymous":false,"inputs":[{"indexed":false,"internalType":"uint256","name":"newPrice","type":"uint256"}],"name":"NewPrice","type":"event"},{"anonymous":false,"inputs":[{"indexed":true,"internalType":"address","name":"previousOwner","type":"address"},{"indexed":true,"internalType":"address","name":"newOwner","type":"address"}],"name":"OwnershipTransferred","type":"event"},{"anonymous":false,"inputs":[{"indexed":false,"internalType":"address","name":"buyer","type":"address"},{"indexed":false,"internalType":"uint256","name":"tokenId","type":"uint256"}],"name":"PackPurchase","type":"event"},{"anonymous":false,"inputs":[{"indexed":false,"internalType":"address","name":"from","type":"address"},{"indexed":false,"internalType":"address","name":"to","type":"address"},{"indexed":false,"internalType":"uint256","name":"tokenId","type":"uint256"}],"name":"PackTransfer","type":"event"},{"anonymous":false,"inputs":[{"indexed":false,"internalType":"address","name":"buyer","type":"address"},{"indexed":false,"internalType":"uint256[]","name":"tokenIds","type":"uint256[]"}],"name":"PacksPurchase","type":"event"},{"inputs":[],"name":"DAI_TOKEN","outputs":[{"internalType":"address","name":"","type":"address"}],"stateMutability":"view","type":"function"},{"inputs":[],"name":"balanceReceiver","outputs":[{"internalType":"address","name":"","type":"address"}],"stateMutability":"view","type":"function"},{"inputs":[],"name":"buyPack","outputs":[{"internalType":"uint256","name":"","type":"uint256"}],"stateMutability":"nonpayable","type":"function"},{"inputs":[{"internalType":"uint256","name":"numberOfPacks","type":"uint256"}],"name":"buyPacks","outputs":[{"internalType":"uint256[]","name":"","type":"uint256[]"}],"stateMutability":"nonpayable","type":"function"},{"inputs":[],"name":"cardsContract","outputs":[{"internalType":"contract ICardsContract","name":"","type":"address"}],"stateMutability":"view","type":"function"},{"inputs":[{"internalType":"uint256","name":"_newPrice","type":"uint256"}],"name":"changePrice","outputs":[],"stateMutability":"nonpayable","type":"function"},{"inputs":[{"internalType":"uint256","name":"tokenId","type":"uint256"}],"name":"getPackOwner","outputs":[{"internalType":"address","name":"","type":"address"}],"stateMutability":"view","type":"function"},{"inputs":[{"internalType":"address","name":"owner","type":"address"}],"name":"getPacksByUser","outputs":[{"internalType":"uint256[]","name":"","type":"uint256[]"}],"stateMutability":"view","type":"function"},{"inputs":[{"internalType":"uint256","name":"tokenId","type":"uint256"}],"name":"openPack","outputs":[],"stateMutability":"nonpayable","type":"function"},{"inputs":[],"name":"owner","outputs":[{"internalType":"address","name":"","type":"address"}],"stateMutability":"view","type":"function"},{"inputs":[],"name":"packPrice","outputs":[{"internalType":"uint256","name":"","type":"uint256"}],"stateMutability":"view","type":"function"},{"inputs":[{"internalType":"uint256","name":"tokenId","type":"uint256"}],"name":"packs","outputs":[{"internalType":"address","name":"owner","type":"address"}],"stateMutability":"view","type":"function"},{"inputs":[{"internalType":"address","name":"owner","type":"address"},{"internalType":"uint256","name":"","type":"uint256"}],"name":"packsByUser","outputs":[{"internalType":"uint256","name":"tokenIds","type":"uint256"}],"stateMutability":"view","type":"function"},{"inputs":[],"name":"renounceOwnership","outputs":[],"stateMutability":"nonpayable","type":"function"},{"inputs":[{"internalType":"address","name":"_cardsContract","type":"address"}],"name":"setCardsContract","outputs":[],"stateMutability":"nonpayable","type":"function"},{"inputs":[],"name":"totalSupply","outputs":[{"internalType":"uint256","name":"","type":"uint256"}],"stateMutability":"view","type":"function"},{"inputs":[{"internalType":"address","name":"newOwner","type":"address"}],"name":"transferOwnership","outputs":[],"stateMutability":"nonpayable","type":"function"},{"inputs":[{"internalType":"address","name":"to","type":"address"},{"internalType":"uint256","name":"tokenId","type":"uint256"}],"name":"transferPack","outputs":[],"stateMutability":"nonpayable","type":"function"}],"evm":{"bytecode":{"linkReferences":{},"object":"60a06040526000196080908152506710a741a4627800006004553480156200002657600080fd5b50604051620022523803806200225283398181016040528101906200004c91906200022c565b6200006c62000060620000f660201b60201c565b620000fe60201b60201c565b81600260006101000a81548173ffffffffffffffffffffffffffffffffffffffff021916908373ffffffffffffffffffffffffffffffffffffffff16021790555080600560006101000a81548173ffffffffffffffffffffffffffffffffffffffff021916908373ffffffffffffffffffffffffffffffffffffffff160217905550505062000273565b600033905090565b60008060009054906101000a900473ffffffffffffffffffffffffffffffffffffffff169050816000806101000a81548173ffffffffffffffffffffffffffffffffffffffff021916908373ffffffffffffffffffffffffffffffffffffffff1602179055508173ffffffffffffffffffffffffffffffffffffffff168173ffffffffffffffffffffffffffffffffffffffff167f8be0079c531659141344cd1fd0a4f28419497f9722a3daafe3b4186f6b6457e060405160405180910390a35050565b600080fd5b600073ffffffffffffffffffffffffffffffffffffffff82169050919050565b6000620001f482620001c7565b9050919050565b6200020681620001e7565b81146200021257600080fd5b50565b6000815190506200022681620001fb565b92915050565b60008060408385031215620002465762000245620001c2565b5b6000620002568582860162000215565b9250506020620002698582860162000215565b9150509250929050565b608051611fc66200028c60003960005050611fc66000f3fe608060405234801561001057600080fd5b50600436106101155760003560e01c80638fd5baf7116100a2578063c37b9bcd11610071578063c37b9bcd146102ce578063d3e6a7ad146102ec578063d611713e1461031c578063e606df8714610338578063f2fde38b1461035657610115565b80638fd5baf714610222578063a2b40d1914610252578063b84c13921461026e578063bd7133801461029e57610115565b8063627b253f116100e9578063627b253f146101905780636374cb8b146101ae5780636adbaf75146101ca578063715018a6146101fa5780638da5cb5b1461020457610115565b806279ee211461011a57806318160ddd14610138578063335c8b631461015657806350a88c7e14610174575b600080fd5b610122610372565b60405161012f9190611734565b60405180910390f35b610140610398565b60405161014d9190611768565b60405180910390f35b61015e61039e565b60405161016b9190611768565b60405180910390f35b61018e600480360381019061018991906117b4565b6103a4565b005b610198610476565b6040516101a59190611802565b60405180910390f35b6101c860048036038101906101c39190611849565b61049c565b005b6101e460048036038101906101df91906117b4565b61051f565b6040516101f19190611934565b60405180910390f35b6102026109f0565b005b61020c610a04565b6040516102199190611802565b60405180910390f35b61023c60048036038101906102379190611849565b610a2d565b6040516102499190611934565b60405180910390f35b61026c600480360381019061026791906117b4565b610ac4565b005b610288600480360381019061028391906117b4565b610b9a565b6040516102959190611802565b60405180910390f35b6102b860048036038101906102b39190611956565b610bcd565b6040516102c59190611768565b60405180910390f35b6102d6610bfe565b6040516102e39190611768565b60405180910390f35b610306600480360381019061030191906117b4565b611029565b6040516103139190611802565b60405180910390f35b61033660048036038101906103319190611956565b611066565b005b610340611276565b60405161034d9190611802565b60405180910390f35b610370600480360381019061036b9190611849565b61129c565b005b600360009054906101000a900473ffffffffffffffffffffffffffffffffffffffff1681565b61c35081565b60045481565b600360009054906101000a900473ffffffffffffffffffffffffffffffffffffffff1673ffffffffffffffffffffffffffffffffffffffff163373ffffffffffffffffffffffffffffffffffffffff1614610434576040517f08c379a000000000000000000000000000000000000000000000000000000000815260040161042b906119f3565b60405180910390fd5b61043d8161131f565b6006600082815260200190815260200160002060006101000a81549073ffffffffffffffffffffffffffffffffffffffff021916905550565b600560009054906101000a900473ffffffffffffffffffffffffffffffffffffffff1681565b6104a4611547565b80600360006101000a81548173ffffffffffffffffffffffffffffffffffffffff021916908373ffffffffffffffffffffffffffffffffffffffff1602179055507f03fb71c656441080e12a35ef543bf2141601e59906bf22cf1952f28da56f45e1816040516105149190611802565b60405180910390a150565b6060600073ffffffffffffffffffffffffffffffffffffffff16600360009054906101000a900473ffffffffffffffffffffffffffffffffffffffff1673ffffffffffffffffffffffffffffffffffffffff16036105b2576040517f08c379a00000000000000000000000000000000000000000000000000000000081526004016105a990611a5f565b60405180910390fd5b60008260066004546105c49190611add565b6004546105d19190611b0e565b6105db9190611b42565b905060008367ffffffffffffffff8111156105f9576105f8611b84565b5b6040519080825280602002602001820160405280156106275781602001602082028036833780820191505090505b50905060005b8481101561077d57600061064160016115c5565b905061c3508110610687576040517f08c379a000000000000000000000000000000000000000000000000000000000815260040161067e90611bff565b60405180910390fd5b61069160016115d3565b336006600083815260200190815260200160002060006101000a81548173ffffffffffffffffffffffffffffffffffffffff021916908373ffffffffffffffffffffffffffffffffffffffff160217905550600760003373ffffffffffffffffffffffffffffffffffffffff1673ffffffffffffffffffffffffffffffffffffffff1681526020019081526020016000208190806001815401808255809150506001900390600052602060002001600090919091909150558083838151811061075d5761075c611c1f565b5b60200260200101818152505050808061077590611c4e565b91505061062d565b50600360009054906101000a900473ffffffffffffffffffffffffffffffffffffffff1673ffffffffffffffffffffffffffffffffffffffff16638ba526fc836040518263ffffffff1660e01b81526004016107d99190611768565b600060405180830381600087803b1580156107f357600080fd5b505af1158015610807573d6000803e3d6000fd5b50505050600260009054906101000a900473ffffffffffffffffffffffffffffffffffffffff1673ffffffffffffffffffffffffffffffffffffffff166323b872dd33600360009054906101000a900473ffffffffffffffffffffffffffffffffffffffff16856040518463ffffffff1660e01b815260040161088c93929190611c96565b6020604051808303816000875af11580156108ab573d6000803e3d6000fd5b505050506040513d601f19601f820116820180604052508101906108cf9190611d05565b50600260009054906101000a900473ffffffffffffffffffffffffffffffffffffffff1673ffffffffffffffffffffffffffffffffffffffff166323b872dd33600560009054906101000a900473ffffffffffffffffffffffffffffffffffffffff1685886004546109419190611b42565b61094b9190611b0e565b6040518463ffffffff1660e01b815260040161096993929190611c96565b6020604051808303816000875af1158015610988573d6000803e3d6000fd5b505050506040513d601f19601f820116820180604052508101906109ac9190611d05565b507fccced7f637f56c0164dc795f58e00b6eab6aed650e35721023dc6dd2b8f6746d33826040516109de929190611d32565b60405180910390a18092505050919050565b6109f8611547565b610a0260006115e9565b565b60008060009054906101000a900473ffffffffffffffffffffffffffffffffffffffff16905090565b6060600760008373ffffffffffffffffffffffffffffffffffffffff1673ffffffffffffffffffffffffffffffffffffffff168152602001908152602001600020805480602002602001604051908101604052809291908181526020018280548015610ab857602002820191906000526020600020905b815481526020019060010190808311610aa4575b50505050509050919050565b610acc611547565b80600481905550600360009054906101000a900473ffffffffffffffffffffffffffffffffffffffff1673ffffffffffffffffffffffffffffffffffffffff1663e1883c6e826040518263ffffffff1660e01b8152600401610b2e9190611768565b600060405180830381600087803b158015610b4857600080fd5b505af1158015610b5c573d6000803e3d6000fd5b505050507f270b316b51ab2cf3a3bb8ca4d22e76a327d05e762fcaa8bd6afaf8cfde9270b781604051610b8f9190611768565b60405180910390a150565b60066020528060005260406000206000915054906101000a900473ffffffffffffffffffffffffffffffffffffffff1681565b60076020528160005260406000208181548110610be957600080fd5b90600052602060002001600091509150505481565b60008073ffffffffffffffffffffffffffffffffffffffff16600360009054906101000a900473ffffffffffffffffffffffffffffffffffffffff1673ffffffffffffffffffffffffffffffffffffffff1603610c90576040517f08c379a0000000000000000000000000000000000000000000000000000000008152600401610c8790611a5f565b60405180910390fd5b6000610c9c60016115c5565b905061c3508110610ce2576040517f08c379a0000000000000000000000000000000000000000000000000000000008152600401610cd990611bff565b60405180910390fd5b610cec60016115d3565b336006600083815260200190815260200160002060006101000a81548173ffffffffffffffffffffffffffffffffffffffff021916908373ffffffffffffffffffffffffffffffffffffffff160217905550600760003373ffffffffffffffffffffffffffffffffffffffff1673ffffffffffffffffffffffffffffffffffffffff16815260200190815260200160002081908060018154018082558091505060019003906000526020600020016000909190919091505560006006600454610db59190611add565b600454610dc29190611b0e565b9050600360009054906101000a900473ffffffffffffffffffffffffffffffffffffffff1673ffffffffffffffffffffffffffffffffffffffff16638ba526fc826040518263ffffffff1660e01b8152600401610e1f9190611768565b600060405180830381600087803b158015610e3957600080fd5b505af1158015610e4d573d6000803e3d6000fd5b50505050600260009054906101000a900473ffffffffffffffffffffffffffffffffffffffff1673ffffffffffffffffffffffffffffffffffffffff166323b872dd33600360009054906101000a900473ffffffffffffffffffffffffffffffffffffffff16846040518463ffffffff1660e01b8152600401610ed293929190611c96565b6020604051808303816000875af1158015610ef1573d6000803e3d6000fd5b505050506040513d601f19601f82011682018060405250810190610f159190611d05565b50600260009054906101000a900473ffffffffffffffffffffffffffffffffffffffff1673ffffffffffffffffffffffffffffffffffffffff166323b872dd33600560009054906101000a900473ffffffffffffffffffffffffffffffffffffffff1684600454610f869190611b0e565b6040518463ffffffff1660e01b8152600401610fa493929190611c96565b6020604051808303816000875af1158015610fc3573d6000803e3d6000fd5b505050506040513d601f19601f82011682018060405250810190610fe79190611d05565b507f4bec02a302b11f990fe586d595753fd0163e88c0f3fff0cdcc10e831ac620e9a3383604051611019929190611d62565b60405180910390a1819250505090565b60006006600083815260200190815260200160002060009054906101000a900473ffffffffffffffffffffffffffffffffffffffff169050919050565b3373ffffffffffffffffffffffffffffffffffffffff166006600083815260200190815260200160002060009054906101000a900473ffffffffffffffffffffffffffffffffffffffff1673ffffffffffffffffffffffffffffffffffffffff1614611107576040517f08c379a00000000000000000000000000000000000000000000000000000000081526004016110fe90611dd7565b60405180910390fd5b600073ffffffffffffffffffffffffffffffffffffffff168273ffffffffffffffffffffffffffffffffffffffff1603611176576040517f08c379a000000000000000000000000000000000000000000000000000000000815260040161116d90611e43565b60405180910390fd5b816006600083815260200190815260200160002060006101000a81548173ffffffffffffffffffffffffffffffffffffffff021916908373ffffffffffffffffffffffffffffffffffffffff1602179055506111d18161131f565b600760008373ffffffffffffffffffffffffffffffffffffffff1673ffffffffffffffffffffffffffffffffffffffff1681526020019081526020016000208190806001815401808255809150506001900390600052602060002001600090919091909150557fddb6f61cc68e099150dacab8be873f19cc91f6ceb7d8237794124ede38722aaf33838360405161126a93929190611c96565b60405180910390a15050565b600260009054906101000a900473ffffffffffffffffffffffffffffffffffffffff1681565b6112a4611547565b600073ffffffffffffffffffffffffffffffffffffffff168173ffffffffffffffffffffffffffffffffffffffff1603611313576040517f08c379a000000000000000000000000000000000000000000000000000000000815260040161130a90611ed5565b60405180910390fd5b61131c816115e9565b50565b6000600760003373ffffffffffffffffffffffffffffffffffffffff1673ffffffffffffffffffffffffffffffffffffffff1681526020019081526020016000208054905090506000818110156115425782600760003373ffffffffffffffffffffffffffffffffffffffff1673ffffffffffffffffffffffffffffffffffffffff16815260200190815260200160002082815481106113c2576113c1611c1f565b5b90600052602060002001540361154157600760003373ffffffffffffffffffffffffffffffffffffffff1673ffffffffffffffffffffffffffffffffffffffff1681526020019081526020016000206001600760003373ffffffffffffffffffffffffffffffffffffffff1673ffffffffffffffffffffffffffffffffffffffff168152602001908152602001600020805490506114609190611b0e565b8154811061147157611470611c1f565b5b9060005260206000200154600760003373ffffffffffffffffffffffffffffffffffffffff1673ffffffffffffffffffffffffffffffffffffffff16815260200190815260200160002082815481106114cd576114cc611c1f565b5b9060005260206000200181905550600760003373ffffffffffffffffffffffffffffffffffffffff1673ffffffffffffffffffffffffffffffffffffffff16815260200190815260200160002080548061152a57611529611ef5565b5b600190038181906000526020600020016000905590555b5b505050565b61154f6116ad565b73ffffffffffffffffffffffffffffffffffffffff1661156d610a04565b73ffffffffffffffffffffffffffffffffffffffff16146115c3576040517f08c379a00000000000000000000000000000000000000000000000000000000081526004016115ba90611f70565b60405180910390fd5b565b600081600001549050919050565b6001816000016000828254019250508190555050565b60008060009054906101000a900473ffffffffffffffffffffffffffffffffffffffff169050816000806101000a81548173ffffffffffffffffffffffffffffffffffffffff021916908373ffffffffffffffffffffffffffffffffffffffff1602179055508173ffffffffffffffffffffffffffffffffffffffff168173ffffffffffffffffffffffffffffffffffffffff167f8be0079c531659141344cd1fd0a4f28419497f9722a3daafe3b4186f6b6457e060405160405180910390a35050565b600033905090565b600073ffffffffffffffffffffffffffffffffffffffff82169050919050565b6000819050919050565b60006116fa6116f56116f0846116b5565b6116d5565b6116b5565b9050919050565b600061170c826116df565b9050919050565b600061171e82611701565b9050919050565b61172e81611713565b82525050565b60006020820190506117496000830184611725565b92915050565b6000819050919050565b6117628161174f565b82525050565b600060208201905061177d6000830184611759565b92915050565b600080fd5b6117918161174f565b811461179c57600080fd5b50565b6000813590506117ae81611788565b92915050565b6000602082840312156117ca576117c9611783565b5b60006117d88482850161179f565b91505092915050565b60006117ec826116b5565b9050919050565b6117fc816117e1565b82525050565b600060208201905061181760008301846117f3565b92915050565b611826816117e1565b811461183157600080fd5b50565b6000813590506118438161181d565b92915050565b60006020828403121561185f5761185e611783565b5b600061186d84828501611834565b91505092915050565b600081519050919050565b600082825260208201905092915050565b6000819050602082019050919050565b6118ab8161174f565b82525050565b60006118bd83836118a2565b60208301905092915050565b6000602082019050919050565b60006118e182611876565b6118eb8185611881565b93506118f683611892565b8060005b8381101561192757815161190e88826118b1565b9750611919836118c9565b9250506001810190506118fa565b5085935050505092915050565b6000602082019050818103600083015261194e81846118d6565b905092915050565b6000806040838503121561196d5761196c611783565b5b600061197b85828601611834565b925050602061198c8582860161179f565b9150509250929050565b600082825260208201905092915050565b7f4e6f20657320636f6e747261746f206465206361727461730000000000000000600082015250565b60006119dd601883611996565b91506119e8826119a7565b602082019050919050565b60006020820190508181036000830152611a0c816119d0565b9050919050565b7f436f6e747261746f20646520636172746173206e6f207365746561646f000000600082015250565b6000611a49601d83611996565b9150611a5482611a13565b602082019050919050565b60006020820190508181036000830152611a7881611a3c565b9050919050565b7f4e487b7100000000000000000000000000000000000000000000000000000000600052601260045260246000fd5b7f4e487b7100000000000000000000000000000000000000000000000000000000600052601160045260246000fd5b6000611ae88261174f565b9150611af38361174f565b925082611b0357611b02611a7f565b5b828204905092915050565b6000611b198261174f565b9150611b248361174f565b9250828203905081811115611b3c57611b3b611aae565b5b92915050565b6000611b4d8261174f565b9150611b588361174f565b9250828202611b668161174f565b91508282048414831517611b7d57611b7c611aae565b5b5092915050565b7f4e487b7100000000000000000000000000000000000000000000000000000000600052604160045260246000fd5b7f5365206163616261726f6e206c6f7320736f6272657300000000000000000000600082015250565b6000611be9601683611996565b9150611bf482611bb3565b602082019050919050565b60006020820190508181036000830152611c1881611bdc565b9050919050565b7f4e487b7100000000000000000000000000000000000000000000000000000000600052603260045260246000fd5b6000611c598261174f565b91507fffffffffffffffffffffffffffffffffffffffffffffffffffffffffffffffff8203611c8b57611c8a611aae565b5b600182019050919050565b6000606082019050611cab60008301866117f3565b611cb860208301856117f3565b611cc56040830184611759565b949350505050565b60008115159050919050565b611ce281611ccd565b8114611ced57600080fd5b50565b600081519050611cff81611cd9565b92915050565b600060208284031215611d1b57611d1a611783565b5b6000611d2984828501611cf0565b91505092915050565b6000604082019050611d4760008301856117f3565b8181036020830152611d5981846118d6565b90509392505050565b6000604082019050611d7760008301856117f3565b611d846020830184611759565b9392505050565b7f457374652070617175657465206e6f206573207475796f000000000000000000600082015250565b6000611dc1601783611996565b9150611dcc82611d8b565b602082019050919050565b60006020820190508181036000830152611df081611db4565b9050919050565b7f5175656d6172206e6f207065726d697469646f00000000000000000000000000600082015250565b6000611e2d601383611996565b9150611e3882611df7565b602082019050919050565b60006020820190508181036000830152611e5c81611e20565b9050919050565b7f4f776e61626c653a206e6577206f776e657220697320746865207a65726f206160008201527f6464726573730000000000000000000000000000000000000000000000000000602082015250565b6000611ebf602683611996565b9150611eca82611e63565b604082019050919050565b60006020820190508181036000830152611eee81611eb2565b9050919050565b7f4e487b7100000000000000000000000000000000000000000000000000000000600052603160045260246000fd5b7f4f776e61626c653a2063616c6c6572206973206e6f7420746865206f776e6572600082015250565b6000611f5a602083611996565b9150611f6582611f24565b602082019050919050565b60006020820190508181036000830152611f8981611f4d565b905091905056fea26469706673582212202debacca29a251ced0e5cd3bd63e103dff251909124cba07eb084a47aac0190964736f6c63430008120033","opcodes":"PUSH1 0xA0 PUSH1 0x40 MSTORE PUSH1 0x0 NOT PUSH1 0x80 SWAP1 DUP2 MSTORE POP PUSH8 0x10A741A462780000 PUSH1 0x4 SSTORE CALLVALUE DUP1 ISZERO PUSH3 0x26 JUMPI PUSH1 0x0 DUP1 REVERT JUMPDEST POP PUSH1 0x40 MLOAD PUSH3 0x2252 CODESIZE SUB DUP1 PUSH3 0x2252 DUP4 CODECOPY DUP2 DUP2 ADD PUSH1 0x40 MSTORE DUP2 ADD SWAP1 PUSH3 0x4C SWAP2 SWAP1 PUSH3 0x22C JUMP JUMPDEST PUSH3 0x6C PUSH3 0x60 PUSH3 0xF6 PUSH1 0x20 SHL PUSH1 0x20 SHR JUMP JUMPDEST PUSH3 0xFE PUSH1 0x20 SHL PUSH1 0x20 SHR JUMP JUMPDEST DUP2 PUSH1 0x2 PUSH1 0x0 PUSH2 0x100 EXP DUP2 SLOAD DUP2 PUSH20 0xFFFFFFFFFFFFFFFFFFFFFFFFFFFFFFFFFFFFFFFF MUL NOT AND SWAP1 DUP4 PUSH20 0xFFFFFFFFFFFFFFFFFFFFFFFFFFFFFFFFFFFFFFFF AND MUL OR SWAP1 SSTORE POP DUP1 PUSH1 0x5 PUSH1 0x0 PUSH2 0x100 EXP DUP2 SLOAD DUP2 PUSH20 0xFFFFFFFFFFFFFFFFFFFFFFFFFFFFFFFFFFFFFFFF MUL NOT AND SWAP1 DUP4 PUSH20 0xFFFFFFFFFFFFFFFFFFFFFFFFFFFFFFFFFFFFFFFF AND MUL OR SWAP1 SSTORE POP POP POP PUSH3 0x273 JUMP JUMPDEST PUSH1 0x0 CALLER SWAP1 POP SWAP1 JUMP JUMPDEST PUSH1 0x0 DUP1 PUSH1 0x0 SWAP1 SLOAD SWAP1 PUSH2 0x100 EXP SWAP1 DIV PUSH20 0xFFFFFFFFFFFFFFFFFFFFFFFFFFFFFFFFFFFFFFFF AND SWAP1 POP DUP2 PUSH1 0x0 DUP1 PUSH2 0x100 EXP DUP2 SLOAD DUP2 PUSH20 0xFFFFFFFFFFFFFFFFFFFFFFFFFFFFFFFFFFFFFFFF MUL NOT AND SWAP1 DUP4 PUSH20 0xFFFFFFFFFFFFFFFFFFFFFFFFFFFFFFFFFFFFFFFF AND MUL OR SWAP1 SSTORE POP DUP2 PUSH20 0xFFFFFFFFFFFFFFFFFFFFFFFFFFFFFFFFFFFFFFFF AND DUP2 PUSH20 0xFFFFFFFFFFFFFFFFFFFFFFFFFFFFFFFFFFFFFFFF AND PUSH32 0x8BE0079C531659141344CD1FD0A4F28419497F9722A3DAAFE3B4186F6B6457E0 PUSH1 0x40 MLOAD PUSH1 0x40 MLOAD DUP1 SWAP2 SUB SWAP1 LOG3 POP POP JUMP JUMPDEST PUSH1 0x0 DUP1 REVERT JUMPDEST PUSH1 0x0 PUSH20 0xFFFFFFFFFFFFFFFFFFFFFFFFFFFFFFFFFFFFFFFF DUP3 AND SWAP1 POP SWAP2 SWAP1 POP JUMP JUMPDEST PUSH1 0x0 PUSH3 0x1F4 DUP3 PUSH3 0x1C7 JUMP JUMPDEST SWAP1 POP SWAP2 SWAP1 POP JUMP JUMPDEST PUSH3 0x206 DUP2 PUSH3 0x1E7 JUMP JUMPDEST DUP2 EQ PUSH3 0x212 JUMPI PUSH1 0x0 DUP1 REVERT JUMPDEST POP JUMP JUMPDEST PUSH1 0x0 DUP2 MLOAD SWAP1 POP PUSH3 0x226 DUP2 PUSH3 0x1FB JUMP JUMPDEST SWAP3 SWAP2 POP POP JUMP JUMPDEST PUSH1 0x0 DUP1 PUSH1 0x40 DUP4 DUP6 SUB SLT ISZERO PUSH3 0x246 JUMPI PUSH3 0x245 PUSH3 0x1C2 JUMP JUMPDEST JUMPDEST PUSH1 0x0 PUSH3 0x256 DUP6 DUP3 DUP7 ADD PUSH3 0x215 JUMP JUMPDEST SWAP3 POP POP PUSH1 0x20 PUSH3 0x269 DUP6 DUP3 DUP7 ADD PUSH3 0x215 JUMP JUMPDEST SWAP2 POP POP SWAP3 POP SWAP3 SWAP1 POP JUMP JUMPDEST PUSH1 0x80 MLOAD PUSH2 0x1FC6 PUSH3 0x28C PUSH1 0x0 CODECOPY PUSH1 0x0 POP POP PUSH2 0x1FC6 PUSH1 0x0 RETURN INVALID PUSH1 0x80 PUSH1 0x40 MSTORE CALLVALUE DUP1 ISZERO PUSH2 0x10 JUMPI PUSH1 0x0 DUP1 REVERT JUMPDEST POP PUSH1 0x4 CALLDATASIZE LT PUSH2 0x115 JUMPI PUSH1 0x0 CALLDATALOAD PUSH1 0xE0 SHR DUP1 PUSH4 0x8FD5BAF7 GT PUSH2 0xA2 JUMPI DUP1 PUSH4 0xC37B9BCD GT PUSH2 0x71 JUMPI DUP1 PUSH4 0xC37B9BCD EQ PUSH2 0x2CE JUMPI DUP1 PUSH4 0xD3E6A7AD EQ PUSH2 0x2EC JUMPI DUP1 PUSH4 0xD611713E EQ PUSH2 0x31C JUMPI DUP1 PUSH4 0xE606DF87 EQ PUSH2 0x338 JUMPI DUP1 PUSH4 0xF2FDE38B EQ PUSH2 0x356 JUMPI PUSH2 0x115 JUMP JUMPDEST DUP1 PUSH4 0x8FD5BAF7 EQ PUSH2 0x222 JUMPI DUP1 PUSH4 0xA2B40D19 EQ PUSH2 0x252 JUMPI DUP1 PUSH4 0xB84C1392 EQ PUSH2 0x26E JUMPI DUP1 PUSH4 0xBD713380 EQ PUSH2 0x29E JUMPI PUSH2 0x115 JUMP JUMPDEST DUP1 PUSH4 0x627B253F GT PUSH2 0xE9 JUMPI DUP1 PUSH4 0x627B253F EQ PUSH2 0x190 JUMPI DUP1 PUSH4 0x6374CB8B EQ PUSH2 0x1AE JUMPI DUP1 PUSH4 0x6ADBAF75 EQ PUSH2 0x1CA JUMPI DUP1 PUSH4 0x715018A6 EQ PUSH2 0x1FA JUMPI DUP1 PUSH4 0x8DA5CB5B EQ PUSH2 0x204 JUMPI PUSH2 0x115 JUMP JUMPDEST DUP1 PUSH3 0x79EE21 EQ PUSH2 0x11A JUMPI DUP1 PUSH4 0x18160DDD EQ PUSH2 0x138 JUMPI DUP1 PUSH4 0x335C8B63 EQ PUSH2 0x156 JUMPI DUP1 PUSH4 0x50A88C7E EQ PUSH2 0x174 JUMPI JUMPDEST PUSH1 0x0 DUP1 REVERT JUMPDEST PUSH2 0x122 PUSH2 0x372 JUMP JUMPDEST PUSH1 0x40 MLOAD PUSH2 0x12F SWAP2 SWAP1 PUSH2 0x1734 JUMP JUMPDEST PUSH1 0x40 MLOAD DUP1 SWAP2 SUB SWAP1 RETURN JUMPDEST PUSH2 0x140 PUSH2 0x398 JUMP JUMPDEST PUSH1 0x40 MLOAD PUSH2 0x14D SWAP2 SWAP1 PUSH2 0x1768 JUMP JUMPDEST PUSH1 0x40 MLOAD DUP1 SWAP2 SUB SWAP1 RETURN JUMPDEST PUSH2 0x15E PUSH2 0x39E JUMP JUMPDEST PUSH1 0x40 MLOAD PUSH2 0x16B SWAP2 SWAP1 PUSH2 0x1768 JUMP JUMPDEST PUSH1 0x40 MLOAD DUP1 SWAP2 SUB SWAP1 RETURN JUMPDEST PUSH2 0x18E PUSH1 0x4 DUP1 CALLDATASIZE SUB DUP2 ADD SWAP1 PUSH2 0x189 SWAP2 SWAP1 PUSH2 0x17B4 JUMP JUMPDEST PUSH2 0x3A4 JUMP JUMPDEST STOP JUMPDEST PUSH2 0x198 PUSH2 0x476 JUMP JUMPDEST PUSH1 0x40 MLOAD PUSH2 0x1A5 SWAP2 SWAP1 PUSH2 0x1802 JUMP JUMPDEST PUSH1 0x40 MLOAD DUP1 SWAP2 SUB SWAP1 RETURN JUMPDEST PUSH2 0x1C8 PUSH1 0x4 DUP1 CALLDATASIZE SUB DUP2 ADD SWAP1 PUSH2 0x1C3 SWAP2 SWAP1 PUSH2 0x1849 JUMP JUMPDEST PUSH2 0x49C JUMP JUMPDEST STOP JUMPDEST PUSH2 0x1E4 PUSH1 0x4 DUP1 CALLDATASIZE SUB DUP2 ADD SWAP1 PUSH2 0x1DF SWAP2 SWAP1 PUSH2 0x17B4 JUMP JUMPDEST PUSH2 0x51F JUMP JUMPDEST PUSH1 0x40 MLOAD PUSH2 0x1F1 SWAP2 SWAP1 PUSH2 0x1934 JUMP JUMPDEST PUSH1 0x40 MLOAD DUP1 SWAP2 SUB SWAP1 RETURN JUMPDEST PUSH2 0x202 PUSH2 0x9F0 JUMP JUMPDEST STOP JUMPDEST PUSH2 0x20C PUSH2 0xA04 JUMP JUMPDEST PUSH1 0x40 MLOAD PUSH2 0x219 SWAP2 SWAP1 PUSH2 0x1802 JUMP JUMPDEST PUSH1 0x40 MLOAD DUP1 SWAP2 SUB SWAP1 RETURN JUMPDEST PUSH2 0x23C PUSH1 0x4 DUP1 CALLDATASIZE SUB DUP2 ADD SWAP1 PUSH2 0x237 SWAP2 SWAP1 PUSH2 0x1849 JUMP JUMPDEST PUSH2 0xA2D JUMP JUMPDEST PUSH1 0x40 MLOAD PUSH2 0x249 SWAP2 SWAP1 PUSH2 0x1934 JUMP JUMPDEST PUSH1 0x40 MLOAD DUP1 SWAP2 SUB SWAP1 RETURN JUMPDEST PUSH2 0x26C PUSH1 0x4 DUP1 CALLDATASIZE SUB DUP2 ADD SWAP1 PUSH2 0x267 SWAP2 SWAP1 PUSH2 0x17B4 JUMP JUMPDEST PUSH2 0xAC4 JUMP JUMPDEST STOP JUMPDEST PUSH2 0x288 PUSH1 0x4 DUP1 CALLDATASIZE SUB DUP2 ADD SWAP1 PUSH2 0x283 SWAP2 SWAP1 PUSH2 0x17B4 JUMP JUMPDEST PUSH2 0xB9A JUMP JUMPDEST PUSH1 0x40 MLOAD PUSH2 0x295 SWAP2 SWAP1 PUSH2 0x1802 JUMP JUMPDEST PUSH1 0x40 MLOAD DUP1 SWAP2 SUB SWAP1 RETURN JUMPDEST PUSH2 0x2B8 PUSH1 0x4 DUP1 CALLDATASIZE SUB DUP2 ADD SWAP1 PUSH2 0x2B3 SWAP2 SWAP1 PUSH2 0x1956 JUMP JUMPDEST PUSH2 0xBCD JUMP JUMPDEST PUSH1 0x40 MLOAD PUSH2 0x2C5 SWAP2 SWAP1 PUSH2 0x1768 JUMP JUMPDEST PUSH1 0x40 MLOAD DUP1 SWAP2 SUB SWAP1 RETURN JUMPDEST PUSH2 0x2D6 PUSH2 0xBFE JUMP JUMPDEST PUSH1 0x40 MLOAD PUSH2 0x2E3 SWAP2 SWAP1 PUSH2 0x1768 JUMP JUMPDEST PUSH1 0x40 MLOAD DUP1 SWAP2 SUB SWAP1 RETURN JUMPDEST PUSH2 0x306 PUSH1 0x4 DUP1 CALLDATASIZE SUB DUP2 ADD SWAP1 PUSH2 0x301 SWAP2 SWAP1 PUSH2 0x17B4 JUMP JUMPDEST PUSH2 0x1029 JUMP JUMPDEST PUSH1 0x40 MLOAD PUSH2 0x313 SWAP2 SWAP1 PUSH2 0x1802 JUMP JUMPDEST PUSH1 0x40 MLOAD DUP1 SWAP2 SUB SWAP1 RETURN JUMPDEST PUSH2 0x336 PUSH1 0x4 DUP1 CALLDATASIZE SUB DUP2 ADD SWAP1 PUSH2 0x331 SWAP2 SWAP1 PUSH2 0x1956 JUMP JUMPDEST PUSH2 0x1066 JUMP JUMPDEST STOP JUMPDEST PUSH2 0x340 PUSH2 0x1276 JUMP JUMPDEST PUSH1 0x40 MLOAD PUSH2 0x34D SWAP2 SWAP1 PUSH2 0x1802 JUMP JUMPDEST PUSH1 0x40 MLOAD DUP1 SWAP2 SUB SWAP1 RETURN JUMPDEST PUSH2 0x370 PUSH1 0x4 DUP1 CALLDATASIZE SUB DUP2 ADD SWAP1 PUSH2 0x36B SWAP2 SWAP1 PUSH2 0x1849 JUMP JUMPDEST PUSH2 0x129C JUMP JUMPDEST STOP JUMPDEST PUSH1 0x3 PUSH1 0x0 SWAP1 SLOAD SWAP1 PUSH2 0x100 EXP SWAP1 DIV PUSH20 0xFFFFFFFFFFFFFFFFFFFFFFFFFFFFFFFFFFFFFFFF AND DUP2 JUMP JUMPDEST PUSH2 0xC350 DUP2 JUMP JUMPDEST PUSH1 0x4 SLOAD DUP2 JUMP JUMPDEST PUSH1 0x3 PUSH1 0x0 SWAP1 SLOAD SWAP1 PUSH2 0x100 EXP SWAP1 DIV PUSH20 0xFFFFFFFFFFFFFFFFFFFFFFFFFFFFFFFFFFFFFFFF AND PUSH20 0xFFFFFFFFFFFFFFFFFFFFFFFFFFFFFFFFFFFFFFFF AND CALLER PUSH20 0xFFFFFFFFFFFFFFFFFFFFFFFFFFFFFFFFFFFFFFFF AND EQ PUSH2 0x434 JUMPI PUSH1 0x40 MLOAD PUSH32 0x8C379A000000000000000000000000000000000000000000000000000000000 DUP2 MSTORE PUSH1 0x4 ADD PUSH2 0x42B SWAP1 PUSH2 0x19F3 JUMP JUMPDEST PUSH1 0x40 MLOAD DUP1 SWAP2 SUB SWAP1 REVERT JUMPDEST PUSH2 0x43D DUP2 PUSH2 0x131F JUMP JUMPDEST PUSH1 0x6 PUSH1 0x0 DUP3 DUP2 MSTORE PUSH1 0x20 ADD SWAP1 DUP2 MSTORE PUSH1 0x20 ADD PUSH1 0x0 KECCAK256 PUSH1 0x0 PUSH2 0x100 EXP DUP2 SLOAD SWAP1 PUSH20 0xFFFFFFFFFFFFFFFFFFFFFFFFFFFFFFFFFFFFFFFF MUL NOT AND SWAP1 SSTORE POP JUMP JUMPDEST PUSH1 0x5 PUSH1 0x0 SWAP1 SLOAD SWAP1 PUSH2 0x100 EXP SWAP1 DIV PUSH20 0xFFFFFFFFFFFFFFFFFFFFFFFFFFFFFFFFFFFFFFFF AND DUP2 JUMP JUMPDEST PUSH2 0x4A4 PUSH2 0x1547 JUMP JUMPDEST DUP1 PUSH1 0x3 PUSH1 0x0 PUSH2 0x100 EXP DUP2 SLOAD DUP2 PUSH20 0xFFFFFFFFFFFFFFFFFFFFFFFFFFFFFFFFFFFFFFFF MUL NOT AND SWAP1 DUP4 PUSH20 0xFFFFFFFFFFFFFFFFFFFFFFFFFFFFFFFFFFFFFFFF AND MUL OR SWAP1 SSTORE POP PUSH32 0x3FB71C656441080E12A35EF543BF2141601E59906BF22CF1952F28DA56F45E1 DUP2 PUSH1 0x40 MLOAD PUSH2 0x514 SWAP2 SWAP1 PUSH2 0x1802 JUMP JUMPDEST PUSH1 0x40 MLOAD DUP1 SWAP2 SUB SWAP1 LOG1 POP JUMP JUMPDEST PUSH1 0x60 PUSH1 0x0 PUSH20 0xFFFFFFFFFFFFFFFFFFFFFFFFFFFFFFFFFFFFFFFF AND PUSH1 0x3 PUSH1 0x0 SWAP1 SLOAD SWAP1 PUSH2 0x100 EXP SWAP1 DIV PUSH20 0xFFFFFFFFFFFFFFFFFFFFFFFFFFFFFFFFFFFFFFFF AND PUSH20 0xFFFFFFFFFFFFFFFFFFFFFFFFFFFFFFFFFFFFFFFF AND SUB PUSH2 0x5B2 JUMPI PUSH1 0x40 MLOAD PUSH32 0x8C379A000000000000000000000000000000000000000000000000000000000 DUP2 MSTORE PUSH1 0x4 ADD PUSH2 0x5A9 SWAP1 PUSH2 0x1A5F JUMP JUMPDEST PUSH1 0x40 MLOAD DUP1 SWAP2 SUB SWAP1 REVERT JUMPDEST PUSH1 0x0 DUP3 PUSH1 0x6 PUSH1 0x4 SLOAD PUSH2 0x5C4 SWAP2 SWAP1 PUSH2 0x1ADD JUMP JUMPDEST PUSH1 0x4 SLOAD PUSH2 0x5D1 SWAP2 SWAP1 PUSH2 0x1B0E JUMP JUMPDEST PUSH2 0x5DB SWAP2 SWAP1 PUSH2 0x1B42 JUMP JUMPDEST SWAP1 POP PUSH1 0x0 DUP4 PUSH8 0xFFFFFFFFFFFFFFFF DUP2 GT ISZERO PUSH2 0x5F9 JUMPI PUSH2 0x5F8 PUSH2 0x1B84 JUMP JUMPDEST JUMPDEST PUSH1 0x40 MLOAD SWAP1 DUP1 DUP3 MSTORE DUP1 PUSH1 0x20 MUL PUSH1 0x20 ADD DUP3 ADD PUSH1 0x40 MSTORE DUP1 ISZERO PUSH2 0x627 JUMPI DUP2 PUSH1 0x20 ADD PUSH1 0x20 DUP3 MUL DUP1 CALLDATASIZE DUP4 CALLDATACOPY DUP1 DUP3 ADD SWAP2 POP POP SWAP1 POP JUMPDEST POP SWAP1 POP PUSH1 0x0 JUMPDEST DUP5 DUP2 LT ISZERO PUSH2 0x77D JUMPI PUSH1 0x0 PUSH2 0x641 PUSH1 0x1 PUSH2 0x15C5 JUMP JUMPDEST SWAP1 POP PUSH2 0xC350 DUP2 LT PUSH2 0x687 JUMPI PUSH1 0x40 MLOAD PUSH32 0x8C379A000000000000000000000000000000000000000000000000000000000 DUP2 MSTORE PUSH1 0x4 ADD PUSH2 0x67E SWAP1 PUSH2 0x1BFF JUMP JUMPDEST PUSH1 0x40 MLOAD DUP1 SWAP2 SUB SWAP1 REVERT JUMPDEST PUSH2 0x691 PUSH1 0x1 PUSH2 0x15D3 JUMP JUMPDEST CALLER PUSH1 0x6 PUSH1 0x0 DUP4 DUP2 MSTORE PUSH1 0x20 ADD SWAP1 DUP2 MSTORE PUSH1 0x20 ADD PUSH1 0x0 KECCAK256 PUSH1 0x0 PUSH2 0x100 EXP DUP2 SLOAD DUP2 PUSH20 0xFFFFFFFFFFFFFFFFFFFFFFFFFFFFFFFFFFFFFFFF MUL NOT AND SWAP1 DUP4 PUSH20 0xFFFFFFFFFFFFFFFFFFFFFFFFFFFFFFFFFFFFFFFF AND MUL OR SWAP1 SSTORE POP PUSH1 0x7 PUSH1 0x0 CALLER PUSH20 0xFFFFFFFFFFFFFFFFFFFFFFFFFFFFFFFFFFFFFFFF AND PUSH20 0xFFFFFFFFFFFFFFFFFFFFFFFFFFFFFFFFFFFFFFFF AND DUP2 MSTORE PUSH1 0x20 ADD SWAP1 DUP2 MSTORE PUSH1 0x20 ADD PUSH1 0x0 KECCAK256 DUP2 SWAP1 DUP1 PUSH1 0x1 DUP2 SLOAD ADD DUP1 DUP3 SSTORE DUP1 SWAP2 POP POP PUSH1 0x1 SWAP1 SUB SWAP1 PUSH1 0x0 MSTORE PUSH1 0x20 PUSH1 0x0 KECCAK256 ADD PUSH1 0x0 SWAP1 SWAP2 SWAP1 SWAP2 SWAP1 SWAP2 POP SSTORE DUP1 DUP4 DUP4 DUP2 MLOAD DUP2 LT PUSH2 0x75D JUMPI PUSH2 0x75C PUSH2 0x1C1F JUMP JUMPDEST JUMPDEST PUSH1 0x20 MUL PUSH1 0x20 ADD ADD DUP2 DUP2 MSTORE POP POP POP DUP1 DUP1 PUSH2 0x775 SWAP1 PUSH2 0x1C4E JUMP JUMPDEST SWAP2 POP POP PUSH2 0x62D JUMP JUMPDEST POP PUSH1 0x3 PUSH1 0x0 SWAP1 SLOAD SWAP1 PUSH2 0x100 EXP SWAP1 DIV PUSH20 0xFFFFFFFFFFFFFFFFFFFFFFFFFFFFFFFFFFFFFFFF AND PUSH20 0xFFFFFFFFFFFFFFFFFFFFFFFFFFFFFFFFFFFFFFFF AND PUSH4 0x8BA526FC DUP4 PUSH1 0x40 MLOAD DUP3 PUSH4 0xFFFFFFFF AND PUSH1 0xE0 SHL DUP2 MSTORE PUSH1 0x4 ADD PUSH2 0x7D9 SWAP2 SWAP1 PUSH2 0x1768 JUMP JUMPDEST PUSH1 0x0 PUSH1 0x40 MLOAD DUP1 DUP4 SUB DUP2 PUSH1 0x0 DUP8 DUP1 EXTCODESIZE ISZERO DUP1 ISZERO PUSH2 0x7F3 JUMPI PUSH1 0x0 DUP1 REVERT JUMPDEST POP GAS CALL ISZERO DUP1 ISZERO PUSH2 0x807 JUMPI RETURNDATASIZE PUSH1 0x0 DUP1 RETURNDATACOPY RETURNDATASIZE PUSH1 0x0 REVERT JUMPDEST POP POP POP POP PUSH1 0x2 PUSH1 0x0 SWAP1 SLOAD SWAP1 PUSH2 0x100 EXP SWAP1 DIV PUSH20 0xFFFFFFFFFFFFFFFFFFFFFFFFFFFFFFFFFFFFFFFF AND PUSH20 0xFFFFFFFFFFFFFFFFFFFFFFFFFFFFFFFFFFFFFFFF AND PUSH4 0x23B872DD CALLER PUSH1 0x3 PUSH1 0x0 SWAP1 SLOAD SWAP1 PUSH2 0x100 EXP SWAP1 DIV PUSH20 0xFFFFFFFFFFFFFFFFFFFFFFFFFFFFFFFFFFFFFFFF AND DUP6 PUSH1 0x40 MLOAD DUP5 PUSH4 0xFFFFFFFF AND PUSH1 0xE0 SHL DUP2 MSTORE PUSH1 0x4 ADD PUSH2 0x88C SWAP4 SWAP3 SWAP2 SWAP1 PUSH2 0x1C96 JUMP JUMPDEST PUSH1 0x20 PUSH1 0x40 MLOAD DUP1 DUP4 SUB DUP2 PUSH1 0x0 DUP8 GAS CALL ISZERO DUP1 ISZERO PUSH2 0x8AB JUMPI RETURNDATASIZE PUSH1 0x0 DUP1 RETURNDATACOPY RETURNDATASIZE PUSH1 0x0 REVERT JUMPDEST POP POP POP POP PUSH1 0x40 MLOAD RETURNDATASIZE PUSH1 0x1F NOT PUSH1 0x1F DUP3 ADD AND DUP3 ADD DUP1 PUSH1 0x40 MSTORE POP DUP2 ADD SWAP1 PUSH2 0x8CF SWAP2 SWAP1 PUSH2 0x1D05 JUMP JUMPDEST POP PUSH1 0x2 PUSH1 0x0 SWAP1 SLOAD SWAP1 PUSH2 0x100 EXP SWAP1 DIV PUSH20 0xFFFFFFFFFFFFFFFFFFFFFFFFFFFFFFFFFFFFFFFF AND PUSH20 0xFFFFFFFFFFFFFFFFFFFFFFFFFFFFFFFFFFFFFFFF AND PUSH4 0x23B872DD CALLER PUSH1 0x5 PUSH1 0x0 SWAP1 SLOAD SWAP1 PUSH2 0x100 EXP SWAP1 DIV PUSH20 0xFFFFFFFFFFFFFFFFFFFFFFFFFFFFFFFFFFFFFFFF AND DUP6 DUP9 PUSH1 0x4 SLOAD PUSH2 0x941 SWAP2 SWAP1 PUSH2 0x1B42 JUMP JUMPDEST PUSH2 0x94B SWAP2 SWAP1 PUSH2 0x1B0E JUMP JUMPDEST PUSH1 0x40 MLOAD DUP5 PUSH4 0xFFFFFFFF AND PUSH1 0xE0 SHL DUP2 MSTORE PUSH1 0x4 ADD PUSH2 0x969 SWAP4 SWAP3 SWAP2 SWAP1 PUSH2 0x1C96 JUMP JUMPDEST PUSH1 0x20 PUSH1 0x40 MLOAD DUP1 DUP4 SUB DUP2 PUSH1 0x0 DUP8 GAS CALL ISZERO DUP1 ISZERO PUSH2 0x988 JUMPI RETURNDATASIZE PUSH1 0x0 DUP1 RETURNDATACOPY RETURNDATASIZE PUSH1 0x0 REVERT JUMPDEST POP POP POP POP PUSH1 0x40 MLOAD RETURNDATASIZE PUSH1 0x1F NOT PUSH1 0x1F DUP3 ADD AND DUP3 ADD DUP1 PUSH1 0x40 MSTORE POP DUP2 ADD SWAP1 PUSH2 0x9AC SWAP2 SWAP1 PUSH2 0x1D05 JUMP JUMPDEST POP PUSH32 0xCCCED7F637F56C0164DC795F58E00B6EAB6AED650E35721023DC6DD2B8F6746D CALLER DUP3 PUSH1 0x40 MLOAD PUSH2 0x9DE SWAP3 SWAP2 SWAP1 PUSH2 0x1D32 JUMP JUMPDEST PUSH1 0x40 MLOAD DUP1 SWAP2 SUB SWAP1 LOG1 DUP1 SWAP3 POP POP POP SWAP2 SWAP1 POP JUMP JUMPDEST PUSH2 0x9F8 PUSH2 0x1547 JUMP JUMPDEST PUSH2 0xA02 PUSH1 0x0 PUSH2 0x15E9 JUMP JUMPDEST JUMP JUMPDEST PUSH1 0x0 DUP1 PUSH1 0x0 SWAP1 SLOAD SWAP1 PUSH2 0x100 EXP SWAP1 DIV PUSH20 0xFFFFFFFFFFFFFFFFFFFFFFFFFFFFFFFFFFFFFFFF AND SWAP1 POP SWAP1 JUMP JUMPDEST PUSH1 0x60 PUSH1 0x7 PUSH1 0x0 DUP4 PUSH20 0xFFFFFFFFFFFFFFFFFFFFFFFFFFFFFFFFFFFFFFFF AND PUSH20 0xFFFFFFFFFFFFFFFFFFFFFFFFFFFFFFFFFFFFFFFF AND DUP2 MSTORE PUSH1 0x20 ADD SWAP1 DUP2 MSTORE PUSH1 0x20 ADD PUSH1 0x0 KECCAK256 DUP1 SLOAD DUP1 PUSH1 0x20 MUL PUSH1 0x20 ADD PUSH1 0x40 MLOAD SWAP1 DUP2 ADD PUSH1 0x40 MSTORE DUP1 SWAP3 SWAP2 SWAP1 DUP2 DUP2 MSTORE PUSH1 0x20 ADD DUP3 DUP1 SLOAD DUP1 ISZERO PUSH2 0xAB8 JUMPI PUSH1 0x20 MUL DUP3 ADD SWAP2 SWAP1 PUSH1 0x0 MSTORE PUSH1 0x20 PUSH1 0x0 KECCAK256 SWAP1 JUMPDEST DUP2 SLOAD DUP2 MSTORE PUSH1 0x20 ADD SWAP1 PUSH1 0x1 ADD SWAP1 DUP1 DUP4 GT PUSH2 0xAA4 JUMPI JUMPDEST POP POP POP POP POP SWAP1 POP SWAP2 SWAP1 POP JUMP JUMPDEST PUSH2 0xACC PUSH2 0x1547 JUMP JUMPDEST DUP1 PUSH1 0x4 DUP2 SWAP1 SSTORE POP PUSH1 0x3 PUSH1 0x0 SWAP1 SLOAD SWAP1 PUSH2 0x100 EXP SWAP1 DIV PUSH20 0xFFFFFFFFFFFFFFFFFFFFFFFFFFFFFFFFFFFFFFFF AND PUSH20 0xFFFFFFFFFFFFFFFFFFFFFFFFFFFFFFFFFFFFFFFF AND PUSH4 0xE1883C6E DUP3 PUSH1 0x40 MLOAD DUP3 PUSH4 0xFFFFFFFF AND PUSH1 0xE0 SHL DUP2 MSTORE PUSH1 0x4 ADD PUSH2 0xB2E SWAP2 SWAP1 PUSH2 0x1768 JUMP JUMPDEST PUSH1 0x0 PUSH1 0x40 MLOAD DUP1 DUP4 SUB DUP2 PUSH1 0x0 DUP8 DUP1 EXTCODESIZE ISZERO DUP1 ISZERO PUSH2 0xB48 JUMPI PUSH1 0x0 DUP1 REVERT JUMPDEST POP GAS CALL ISZERO DUP1 ISZERO PUSH2 0xB5C JUMPI RETURNDATASIZE PUSH1 0x0 DUP1 RETURNDATACOPY RETURNDATASIZE PUSH1 0x0 REVERT JUMPDEST POP POP POP POP PUSH32 0x270B316B51AB2CF3A3BB8CA4D22E76A327D05E762FCAA8BD6AFAF8CFDE9270B7 DUP2 PUSH1 0x40 MLOAD PUSH2 0xB8F SWAP2 SWAP1 PUSH2 0x1768 JUMP JUMPDEST PUSH1 0x40 MLOAD DUP1 SWAP2 SUB SWAP1 LOG1 POP JUMP JUMPDEST PUSH1 0x6 PUSH1 0x20 MSTORE DUP1 PUSH1 0x0 MSTORE PUSH1 0x40 PUSH1 0x0 KECCAK256 PUSH1 0x0 SWAP2 POP SLOAD SWAP1 PUSH2 0x100 EXP SWAP1 DIV PUSH20 0xFFFFFFFFFFFFFFFFFFFFFFFFFFFFFFFFFFFFFFFF AND DUP2 JUMP JUMPDEST PUSH1 0x7 PUSH1 0x20 MSTORE DUP2 PUSH1 0x0 MSTORE PUSH1 0x40 PUSH1 0x0 KECCAK256 DUP2 DUP2 SLOAD DUP2 LT PUSH2 0xBE9 JUMPI PUSH1 0x0 DUP1 REVERT JUMPDEST SWAP1 PUSH1 0x0 MSTORE PUSH1 0x20 PUSH1 0x0 KECCAK256 ADD PUSH1 0x0 SWAP2 POP SWAP2 POP POP SLOAD DUP2 JUMP JUMPDEST PUSH1 0x0 DUP1 PUSH20 0xFFFFFFFFFFFFFFFFFFFFFFFFFFFFFFFFFFFFFFFF AND PUSH1 0x3 PUSH1 0x0 SWAP1 SLOAD SWAP1 PUSH2 0x100 EXP SWAP1 DIV PUSH20 0xFFFFFFFFFFFFFFFFFFFFFFFFFFFFFFFFFFFFFFFF AND PUSH20 0xFFFFFFFFFFFFFFFFFFFFFFFFFFFFFFFFFFFFFFFF AND SUB PUSH2 0xC90 JUMPI PUSH1 0x40 MLOAD PUSH32 0x8C379A000000000000000000000000000000000000000000000000000000000 DUP2 MSTORE PUSH1 0x4 ADD PUSH2 0xC87 SWAP1 PUSH2 0x1A5F JUMP JUMPDEST PUSH1 0x40 MLOAD DUP1 SWAP2 SUB SWAP1 REVERT JUMPDEST PUSH1 0x0 PUSH2 0xC9C PUSH1 0x1 PUSH2 0x15C5 JUMP JUMPDEST SWAP1 POP PUSH2 0xC350 DUP2 LT PUSH2 0xCE2 JUMPI PUSH1 0x40 MLOAD PUSH32 0x8C379A000000000000000000000000000000000000000000000000000000000 DUP2 MSTORE PUSH1 0x4 ADD PUSH2 0xCD9 SWAP1 PUSH2 0x1BFF JUMP JUMPDEST PUSH1 0x40 MLOAD DUP1 SWAP2 SUB SWAP1 REVERT JUMPDEST PUSH2 0xCEC PUSH1 0x1 PUSH2 0x15D3 JUMP JUMPDEST CALLER PUSH1 0x6 PUSH1 0x0 DUP4 DUP2 MSTORE PUSH1 0x20 ADD SWAP1 DUP2 MSTORE PUSH1 0x20 ADD PUSH1 0x0 KECCAK256 PUSH1 0x0 PUSH2 0x100 EXP DUP2 SLOAD DUP2 PUSH20 0xFFFFFFFFFFFFFFFFFFFFFFFFFFFFFFFFFFFFFFFF MUL NOT AND SWAP1 DUP4 PUSH20 0xFFFFFFFFFFFFFFFFFFFFFFFFFFFFFFFFFFFFFFFF AND MUL OR SWAP1 SSTORE POP PUSH1 0x7 PUSH1 0x0 CALLER PUSH20 0xFFFFFFFFFFFFFFFFFFFFFFFFFFFFFFFFFFFFFFFF AND PUSH20 0xFFFFFFFFFFFFFFFFFFFFFFFFFFFFFFFFFFFFFFFF AND DUP2 MSTORE PUSH1 0x20 ADD SWAP1 DUP2 MSTORE PUSH1 0x20 ADD PUSH1 0x0 KECCAK256 DUP2 SWAP1 DUP1 PUSH1 0x1 DUP2 SLOAD ADD DUP1 DUP3 SSTORE DUP1 SWAP2 POP POP PUSH1 0x1 SWAP1 SUB SWAP1 PUSH1 0x0 MSTORE PUSH1 0x20 PUSH1 0x0 KECCAK256 ADD PUSH1 0x0 SWAP1 SWAP2 SWAP1 SWAP2 SWAP1 SWAP2 POP SSTORE PUSH1 0x0 PUSH1 0x6 PUSH1 0x4 SLOAD PUSH2 0xDB5 SWAP2 SWAP1 PUSH2 0x1ADD JUMP JUMPDEST PUSH1 0x4 SLOAD PUSH2 0xDC2 SWAP2 SWAP1 PUSH2 0x1B0E JUMP JUMPDEST SWAP1 POP PUSH1 0x3 PUSH1 0x0 SWAP1 SLOAD SWAP1 PUSH2 0x100 EXP SWAP1 DIV PUSH20 0xFFFFFFFFFFFFFFFFFFFFFFFFFFFFFFFFFFFFFFFF AND PUSH20 0xFFFFFFFFFFFFFFFFFFFFFFFFFFFFFFFFFFFFFFFF AND PUSH4 0x8BA526FC DUP3 PUSH1 0x40 MLOAD DUP3 PUSH4 0xFFFFFFFF AND PUSH1 0xE0 SHL DUP2 MSTORE PUSH1 0x4 ADD PUSH2 0xE1F SWAP2 SWAP1 PUSH2 0x1768 JUMP JUMPDEST PUSH1 0x0 PUSH1 0x40 MLOAD DUP1 DUP4 SUB DUP2 PUSH1 0x0 DUP8 DUP1 EXTCODESIZE ISZERO DUP1 ISZERO PUSH2 0xE39 JUMPI PUSH1 0x0 DUP1 REVERT JUMPDEST POP GAS CALL ISZERO DUP1 ISZERO PUSH2 0xE4D JUMPI RETURNDATASIZE PUSH1 0x0 DUP1 RETURNDATACOPY RETURNDATASIZE PUSH1 0x0 REVERT JUMPDEST POP POP POP POP PUSH1 0x2 PUSH1 0x0 SWAP1 SLOAD SWAP1 PUSH2 0x100 EXP SWAP1 DIV PUSH20 0xFFFFFFFFFFFFFFFFFFFFFFFFFFFFFFFFFFFFFFFF AND PUSH20 0xFFFFFFFFFFFFFFFFFFFFFFFFFFFFFFFFFFFFFFFF AND PUSH4 0x23B872DD CALLER PUSH1 0x3 PUSH1 0x0 SWAP1 SLOAD SWAP1 PUSH2 0x100 EXP SWAP1 DIV PUSH20 0xFFFFFFFFFFFFFFFFFFFFFFFFFFFFFFFFFFFFFFFF AND DUP5 PUSH1 0x40 MLOAD DUP5 PUSH4 0xFFFFFFFF AND PUSH1 0xE0 SHL DUP2 MSTORE PUSH1 0x4 ADD PUSH2 0xED2 SWAP4 SWAP3 SWAP2 SWAP1 PUSH2 0x1C96 JUMP JUMPDEST PUSH1 0x20 PUSH1 0x40 MLOAD DUP1 DUP4 SUB DUP2 PUSH1 0x0 DUP8 GAS CALL ISZERO DUP1 ISZERO PUSH2 0xEF1 JUMPI RETURNDATASIZE PUSH1 0x0 DUP1 RETURNDATACOPY RETURNDATASIZE PUSH1 0x0 REVERT JUMPDEST POP POP POP POP PUSH1 0x40 MLOAD RETURNDATASIZE PUSH1 0x1F NOT PUSH1 0x1F DUP3 ADD AND DUP3 ADD DUP1 PUSH1 0x40 MSTORE POP DUP2 ADD SWAP1 PUSH2 0xF15 SWAP2 SWAP1 PUSH2 0x1D05 JUMP JUMPDEST POP PUSH1 0x2 PUSH1 0x0 SWAP1 SLOAD SWAP1 PUSH2 0x100 EXP SWAP1 DIV PUSH20 0xFFFFFFFFFFFFFFFFFFFFFFFFFFFFFFFFFFFFFFFF AND PUSH20 0xFFFFFFFFFFFFFFFFFFFFFFFFFFFFFFFFFFFFFFFF AND PUSH4 0x23B872DD CALLER PUSH1 0x5 PUSH1 0x0 SWAP1 SLOAD SWAP1 PUSH2 0x100 EXP SWAP1 DIV PUSH20 0xFFFFFFFFFFFFFFFFFFFFFFFFFFFFFFFFFFFFFFFF AND DUP5 PUSH1 0x4 SLOAD PUSH2 0xF86 SWAP2 SWAP1 PUSH2 0x1B0E JUMP JUMPDEST PUSH1 0x40 MLOAD DUP5 PUSH4 0xFFFFFFFF AND PUSH1 0xE0 SHL DUP2 MSTORE PUSH1 0x4 ADD PUSH2 0xFA4 SWAP4 SWAP3 SWAP2 SWAP1 PUSH2 0x1C96 JUMP JUMPDEST PUSH1 0x20 PUSH1 0x40 MLOAD DUP1 DUP4 SUB DUP2 PUSH1 0x0 DUP8 GAS CALL ISZERO DUP1 ISZERO PUSH2 0xFC3 JUMPI RETURNDATASIZE PUSH1 0x0 DUP1 RETURNDATACOPY RETURNDATASIZE PUSH1 0x0 REVERT JUMPDEST POP POP POP POP PUSH1 0x40 MLOAD RETURNDATASIZE PUSH1 0x1F NOT PUSH1 0x1F DUP3 ADD AND DUP3 ADD DUP1 PUSH1 0x40 MSTORE POP DUP2 ADD SWAP1 PUSH2 0xFE7 SWAP2 SWAP1 PUSH2 0x1D05 JUMP JUMPDEST POP PUSH32 0x4BEC02A302B11F990FE586D595753FD0163E88C0F3FFF0CDCC10E831AC620E9A CALLER DUP4 PUSH1 0x40 MLOAD PUSH2 0x1019 SWAP3 SWAP2 SWAP1 PUSH2 0x1D62 JUMP JUMPDEST PUSH1 0x40 MLOAD DUP1 SWAP2 SUB SWAP1 LOG1 DUP2 SWAP3 POP POP POP SWAP1 JUMP JUMPDEST PUSH1 0x0 PUSH1 0x6 PUSH1 0x0 DUP4 DUP2 MSTORE PUSH1 0x20 ADD SWAP1 DUP2 MSTORE PUSH1 0x20 ADD PUSH1 0x0 KECCAK256 PUSH1 0x0 SWAP1 SLOAD SWAP1 PUSH2 0x100 EXP SWAP1 DIV PUSH20 0xFFFFFFFFFFFFFFFFFFFFFFFFFFFFFFFFFFFFFFFF AND SWAP1 POP SWAP2 SWAP1 POP JUMP JUMPDEST CALLER PUSH20 0xFFFFFFFFFFFFFFFFFFFFFFFFFFFFFFFFFFFFFFFF AND PUSH1 0x6 PUSH1 0x0 DUP4 DUP2 MSTORE PUSH1 0x20 ADD SWAP1 DUP2 MSTORE PUSH1 0x20 ADD PUSH1 0x0 KECCAK256 PUSH1 0x0 SWAP1 SLOAD SWAP1 PUSH2 0x100 EXP SWAP1 DIV PUSH20 0xFFFFFFFFFFFFFFFFFFFFFFFFFFFFFFFFFFFFFFFF AND PUSH20 0xFFFFFFFFFFFFFFFFFFFFFFFFFFFFFFFFFFFFFFFF AND EQ PUSH2 0x1107 JUMPI PUSH1 0x40 MLOAD PUSH32 0x8C379A000000000000000000000000000000000000000000000000000000000 DUP2 MSTORE PUSH1 0x4 ADD PUSH2 0x10FE SWAP1 PUSH2 0x1DD7 JUMP JUMPDEST PUSH1 0x40 MLOAD DUP1 SWAP2 SUB SWAP1 REVERT JUMPDEST PUSH1 0x0 PUSH20 0xFFFFFFFFFFFFFFFFFFFFFFFFFFFFFFFFFFFFFFFF AND DUP3 PUSH20 0xFFFFFFFFFFFFFFFFFFFFFFFFFFFFFFFFFFFFFFFF AND SUB PUSH2 0x1176 JUMPI PUSH1 0x40 MLOAD PUSH32 0x8C379A000000000000000000000000000000000000000000000000000000000 DUP2 MSTORE PUSH1 0x4 ADD PUSH2 0x116D SWAP1 PUSH2 0x1E43 JUMP JUMPDEST PUSH1 0x40 MLOAD DUP1 SWAP2 SUB SWAP1 REVERT JUMPDEST DUP2 PUSH1 0x6 PUSH1 0x0 DUP4 DUP2 MSTORE PUSH1 0x20 ADD SWAP1 DUP2 MSTORE PUSH1 0x20 ADD PUSH1 0x0 KECCAK256 PUSH1 0x0 PUSH2 0x100 EXP DUP2 SLOAD DUP2 PUSH20 0xFFFFFFFFFFFFFFFFFFFFFFFFFFFFFFFFFFFFFFFF MUL NOT AND SWAP1 DUP4 PUSH20 0xFFFFFFFFFFFFFFFFFFFFFFFFFFFFFFFFFFFFFFFF AND MUL OR SWAP1 SSTORE POP PUSH2 0x11D1 DUP2 PUSH2 0x131F JUMP JUMPDEST PUSH1 0x7 PUSH1 0x0 DUP4 PUSH20 0xFFFFFFFFFFFFFFFFFFFFFFFFFFFFFFFFFFFFFFFF AND PUSH20 0xFFFFFFFFFFFFFFFFFFFFFFFFFFFFFFFFFFFFFFFF AND DUP2 MSTORE PUSH1 0x20 ADD SWAP1 DUP2 MSTORE PUSH1 0x20 ADD PUSH1 0x0 KECCAK256 DUP2 SWAP1 DUP1 PUSH1 0x1 DUP2 SLOAD ADD DUP1 DUP3 SSTORE DUP1 SWAP2 POP POP PUSH1 0x1 SWAP1 SUB SWAP1 PUSH1 0x0 MSTORE PUSH1 0x20 PUSH1 0x0 KECCAK256 ADD PUSH1 0x0 SWAP1 SWAP2 SWAP1 SWAP2 SWAP1 SWAP2 POP SSTORE PUSH32 0xDDB6F61CC68E099150DACAB8BE873F19CC91F6CEB7D8237794124EDE38722AAF CALLER DUP4 DUP4 PUSH1 0x40 MLOAD PUSH2 0x126A SWAP4 SWAP3 SWAP2 SWAP1 PUSH2 0x1C96 JUMP JUMPDEST PUSH1 0x40 MLOAD DUP1 SWAP2 SUB SWAP1 LOG1 POP POP JUMP JUMPDEST PUSH1 0x2 PUSH1 0x0 SWAP1 SLOAD SWAP1 PUSH2 0x100 EXP SWAP1 DIV PUSH20 0xFFFFFFFFFFFFFFFFFFFFFFFFFFFFFFFFFFFFFFFF AND DUP2 JUMP JUMPDEST PUSH2 0x12A4 PUSH2 0x1547 JUMP JUMPDEST PUSH1 0x0 PUSH20 0xFFFFFFFFFFFFFFFFFFFFFFFFFFFFFFFFFFFFFFFF AND DUP2 PUSH20 0xFFFFFFFFFFFFFFFFFFFFFFFFFFFFFFFFFFFFFFFF AND SUB PUSH2 0x1313 JUMPI PUSH1 0x40 MLOAD PUSH32 0x8C379A000000000000000000000000000000000000000000000000000000000 DUP2 MSTORE PUSH1 0x4 ADD PUSH2 0x130A SWAP1 PUSH2 0x1ED5 JUMP JUMPDEST PUSH1 0x40 MLOAD DUP1 SWAP2 SUB SWAP1 REVERT JUMPDEST PUSH2 0x131C DUP2 PUSH2 0x15E9 JUMP JUMPDEST POP JUMP JUMPDEST PUSH1 0x0 PUSH1 0x7 PUSH1 0x0 CALLER PUSH20 0xFFFFFFFFFFFFFFFFFFFFFFFFFFFFFFFFFFFFFFFF AND PUSH20 0xFFFFFFFFFFFFFFFFFFFFFFFFFFFFFFFFFFFFFFFF AND DUP2 MSTORE PUSH1 0x20 ADD SWAP1 DUP2 MSTORE PUSH1 0x20 ADD PUSH1 0x0 KECCAK256 DUP1 SLOAD SWAP1 POP SWAP1 POP PUSH1 0x0 DUP2 DUP2 LT ISZERO PUSH2 0x1542 JUMPI DUP3 PUSH1 0x7 PUSH1 0x0 CALLER PUSH20 0xFFFFFFFFFFFFFFFFFFFFFFFFFFFFFFFFFFFFFFFF AND PUSH20 0xFFFFFFFFFFFFFFFFFFFFFFFFFFFFFFFFFFFFFFFF AND DUP2 MSTORE PUSH1 0x20 ADD SWAP1 DUP2 MSTORE PUSH1 0x20 ADD PUSH1 0x0 KECCAK256 DUP3 DUP2 SLOAD DUP2 LT PUSH2 0x13C2 JUMPI PUSH2 0x13C1 PUSH2 0x1C1F JUMP JUMPDEST JUMPDEST SWAP1 PUSH1 0x0 MSTORE PUSH1 0x20 PUSH1 0x0 KECCAK256 ADD SLOAD SUB PUSH2 0x1541 JUMPI PUSH1 0x7 PUSH1 0x0 CALLER PUSH20 0xFFFFFFFFFFFFFFFFFFFFFFFFFFFFFFFFFFFFFFFF AND PUSH20 0xFFFFFFFFFFFFFFFFFFFFFFFFFFFFFFFFFFFFFFFF AND DUP2 MSTORE PUSH1 0x20 ADD SWAP1 DUP2 MSTORE PUSH1 0x20 ADD PUSH1 0x0 KECCAK256 PUSH1 0x1 PUSH1 0x7 PUSH1 0x0 CALLER PUSH20 0xFFFFFFFFFFFFFFFFFFFFFFFFFFFFFFFFFFFFFFFF AND PUSH20 0xFFFFFFFFFFFFFFFFFFFFFFFFFFFFFFFFFFFFFFFF AND DUP2 MSTORE PUSH1 0x20 ADD SWAP1 DUP2 MSTORE PUSH1 0x20 ADD PUSH1 0x0 KECCAK256 DUP1 SLOAD SWAP1 POP PUSH2 0x1460 SWAP2 SWAP1 PUSH2 0x1B0E JUMP JUMPDEST DUP2 SLOAD DUP2 LT PUSH2 0x1471 JUMPI PUSH2 0x1470 PUSH2 0x1C1F JUMP JUMPDEST JUMPDEST SWAP1 PUSH1 0x0 MSTORE PUSH1 0x20 PUSH1 0x0 KECCAK256 ADD SLOAD PUSH1 0x7 PUSH1 0x0 CALLER PUSH20 0xFFFFFFFFFFFFFFFFFFFFFFFFFFFFFFFFFFFFFFFF AND PUSH20 0xFFFFFFFFFFFFFFFFFFFFFFFFFFFFFFFFFFFFFFFF AND DUP2 MSTORE PUSH1 0x20 ADD SWAP1 DUP2 MSTORE PUSH1 0x20 ADD PUSH1 0x0 KECCAK256 DUP3 DUP2 SLOAD DUP2 LT PUSH2 0x14CD JUMPI PUSH2 0x14CC PUSH2 0x1C1F JUMP JUMPDEST JUMPDEST SWAP1 PUSH1 0x0 MSTORE PUSH1 0x20 PUSH1 0x0 KECCAK256 ADD DUP2 SWAP1 SSTORE POP PUSH1 0x7 PUSH1 0x0 CALLER PUSH20 0xFFFFFFFFFFFFFFFFFFFFFFFFFFFFFFFFFFFFFFFF AND PUSH20 0xFFFFFFFFFFFFFFFFFFFFFFFFFFFFFFFFFFFFFFFF AND DUP2 MSTORE PUSH1 0x20 ADD SWAP1 DUP2 MSTORE PUSH1 0x20 ADD PUSH1 0x0 KECCAK256 DUP1 SLOAD DUP1 PUSH2 0x152A JUMPI PUSH2 0x1529 PUSH2 0x1EF5 JUMP JUMPDEST JUMPDEST PUSH1 0x1 SWAP1 SUB DUP2 DUP2 SWAP1 PUSH1 0x0 MSTORE PUSH1 0x20 PUSH1 0x0 KECCAK256 ADD PUSH1 0x0 SWAP1 SSTORE SWAP1 SSTORE JUMPDEST JUMPDEST POP POP POP JUMP JUMPDEST PUSH2 0x154F PUSH2 0x16AD JUMP JUMPDEST PUSH20 0xFFFFFFFFFFFFFFFFFFFFFFFFFFFFFFFFFFFFFFFF AND PUSH2 0x156D PUSH2 0xA04 JUMP JUMPDEST PUSH20 0xFFFFFFFFFFFFFFFFFFFFFFFFFFFFFFFFFFFFFFFF AND EQ PUSH2 0x15C3 JUMPI PUSH1 0x40 MLOAD PUSH32 0x8C379A000000000000000000000000000000000000000000000000000000000 DUP2 MSTORE PUSH1 0x4 ADD PUSH2 0x15BA SWAP1 PUSH2 0x1F70 JUMP JUMPDEST PUSH1 0x40 MLOAD DUP1 SWAP2 SUB SWAP1 REVERT JUMPDEST JUMP JUMPDEST PUSH1 0x0 DUP2 PUSH1 0x0 ADD SLOAD SWAP1 POP SWAP2 SWAP1 POP JUMP JUMPDEST PUSH1 0x1 DUP2 PUSH1 0x0 ADD PUSH1 0x0 DUP3 DUP3 SLOAD ADD SWAP3 POP POP DUP2 SWAP1 SSTORE POP POP JUMP JUMPDEST PUSH1 0x0 DUP1 PUSH1 0x0 SWAP1 SLOAD SWAP1 PUSH2 0x100 EXP SWAP1 DIV PUSH20 0xFFFFFFFFFFFFFFFFFFFFFFFFFFFFFFFFFFFFFFFF AND SWAP1 POP DUP2 PUSH1 0x0 DUP1 PUSH2 0x100 EXP DUP2 SLOAD DUP2 PUSH20 0xFFFFFFFFFFFFFFFFFFFFFFFFFFFFFFFFFFFFFFFF MUL NOT AND SWAP1 DUP4 PUSH20 0xFFFFFFFFFFFFFFFFFFFFFFFFFFFFFFFFFFFFFFFF AND MUL OR SWAP1 SSTORE POP DUP2 PUSH20 0xFFFFFFFFFFFFFFFFFFFFFFFFFFFFFFFFFFFFFFFF AND DUP2 PUSH20 0xFFFFFFFFFFFFFFFFFFFFFFFFFFFFFFFFFFFFFFFF AND PUSH32 0x8BE0079C531659141344CD1FD0A4F28419497F9722A3DAAFE3B4186F6B6457E0 PUSH1 0x40 MLOAD PUSH1 0x40 MLOAD DUP1 SWAP2 SUB SWAP1 LOG3 POP POP JUMP JUMPDEST PUSH1 0x0 CALLER SWAP1 POP SWAP1 JUMP JUMPDEST PUSH1 0x0 PUSH20 0xFFFFFFFFFFFFFFFFFFFFFFFFFFFFFFFFFFFFFFFF DUP3 AND SWAP1 POP SWAP2 SWAP1 POP JUMP JUMPDEST PUSH1 0x0 DUP2 SWAP1 POP SWAP2 SWAP1 POP JUMP JUMPDEST PUSH1 0x0 PUSH2 0x16FA PUSH2 0x16F5 PUSH2 0x16F0 DUP5 PUSH2 0x16B5 JUMP JUMPDEST PUSH2 0x16D5 JUMP JUMPDEST PUSH2 0x16B5 JUMP JUMPDEST SWAP1 POP SWAP2 SWAP1 POP JUMP JUMPDEST PUSH1 0x0 PUSH2 0x170C DUP3 PUSH2 0x16DF JUMP JUMPDEST SWAP1 POP SWAP2 SWAP1 POP JUMP JUMPDEST PUSH1 0x0 PUSH2 0x171E DUP3 PUSH2 0x1701 JUMP JUMPDEST SWAP1 POP SWAP2 SWAP1 POP JUMP JUMPDEST PUSH2 0x172E DUP2 PUSH2 0x1713 JUMP JUMPDEST DUP3 MSTORE POP POP JUMP JUMPDEST PUSH1 0x0 PUSH1 0x20 DUP3 ADD SWAP1 POP PUSH2 0x1749 PUSH1 0x0 DUP4 ADD DUP5 PUSH2 0x1725 JUMP JUMPDEST SWAP3 SWAP2 POP POP JUMP JUMPDEST PUSH1 0x0 DUP2 SWAP1 POP SWAP2 SWAP1 POP JUMP JUMPDEST PUSH2 0x1762 DUP2 PUSH2 0x174F JUMP JUMPDEST DUP3 MSTORE POP POP JUMP JUMPDEST PUSH1 0x0 PUSH1 0x20 DUP3 ADD SWAP1 POP PUSH2 0x177D PUSH1 0x0 DUP4 ADD DUP5 PUSH2 0x1759 JUMP JUMPDEST SWAP3 SWAP2 POP POP JUMP JUMPDEST PUSH1 0x0 DUP1 REVERT JUMPDEST PUSH2 0x1791 DUP2 PUSH2 0x174F JUMP JUMPDEST DUP2 EQ PUSH2 0x179C JUMPI PUSH1 0x0 DUP1 REVERT JUMPDEST POP JUMP JUMPDEST PUSH1 0x0 DUP2 CALLDATALOAD SWAP1 POP PUSH2 0x17AE DUP2 PUSH2 0x1788 JUMP JUMPDEST SWAP3 SWAP2 POP POP JUMP JUMPDEST PUSH1 0x0 PUSH1 0x20 DUP3 DUP5 SUB SLT ISZERO PUSH2 0x17CA JUMPI PUSH2 0x17C9 PUSH2 0x1783 JUMP JUMPDEST JUMPDEST PUSH1 0x0 PUSH2 0x17D8 DUP5 DUP3 DUP6 ADD PUSH2 0x179F JUMP JUMPDEST SWAP2 POP POP SWAP3 SWAP2 POP POP JUMP JUMPDEST PUSH1 0x0 PUSH2 0x17EC DUP3 PUSH2 0x16B5 JUMP JUMPDEST SWAP1 POP SWAP2 SWAP1 POP JUMP JUMPDEST PUSH2 0x17FC DUP2 PUSH2 0x17E1 JUMP JUMPDEST DUP3 MSTORE POP POP JUMP JUMPDEST PUSH1 0x0 PUSH1 0x20 DUP3 ADD SWAP1 POP PUSH2 0x1817 PUSH1 0x0 DUP4 ADD DUP5 PUSH2 0x17F3 JUMP JUMPDEST SWAP3 SWAP2 POP POP JUMP JUMPDEST PUSH2 0x1826 DUP2 PUSH2 0x17E1 JUMP JUMPDEST DUP2 EQ PUSH2 0x1831 JUMPI PUSH1 0x0 DUP1 REVERT JUMPDEST POP JUMP JUMPDEST PUSH1 0x0 DUP2 CALLDATALOAD SWAP1 POP PUSH2 0x1843 DUP2 PUSH2 0x181D JUMP JUMPDEST SWAP3 SWAP2 POP POP JUMP JUMPDEST PUSH1 0x0 PUSH1 0x20 DUP3 DUP5 SUB SLT ISZERO PUSH2 0x185F JUMPI PUSH2 0x185E PUSH2 0x1783 JUMP JUMPDEST JUMPDEST PUSH1 0x0 PUSH2 0x186D DUP5 DUP3 DUP6 ADD PUSH2 0x1834 JUMP JUMPDEST SWAP2 POP POP SWAP3 SWAP2 POP POP JUMP JUMPDEST PUSH1 0x0 DUP2 MLOAD SWAP1 POP SWAP2 SWAP1 POP JUMP JUMPDEST PUSH1 0x0 DUP3 DUP3 MSTORE PUSH1 0x20 DUP3 ADD SWAP1 POP SWAP3 SWAP2 POP POP JUMP JUMPDEST PUSH1 0x0 DUP2 SWAP1 POP PUSH1 0x20 DUP3 ADD SWAP1 POP SWAP2 SWAP1 POP JUMP JUMPDEST PUSH2 0x18AB DUP2 PUSH2 0x174F JUMP JUMPDEST DUP3 MSTORE POP POP JUMP JUMPDEST PUSH1 0x0 PUSH2 0x18BD DUP4 DUP4 PUSH2 0x18A2 JUMP JUMPDEST PUSH1 0x20 DUP4 ADD SWAP1 POP SWAP3 SWAP2 POP POP JUMP JUMPDEST PUSH1 0x0 PUSH1 0x20 DUP3 ADD SWAP1 POP SWAP2 SWAP1 POP JUMP JUMPDEST PUSH1 0x0 PUSH2 0x18E1 DUP3 PUSH2 0x1876 JUMP JUMPDEST PUSH2 0x18EB DUP2 DUP6 PUSH2 0x1881 JUMP JUMPDEST SWAP4 POP PUSH2 0x18F6 DUP4 PUSH2 0x1892 JUMP JUMPDEST DUP1 PUSH1 0x0 JUMPDEST DUP4 DUP2 LT ISZERO PUSH2 0x1927 JUMPI DUP2 MLOAD PUSH2 0x190E DUP9 DUP3 PUSH2 0x18B1 JUMP JUMPDEST SWAP8 POP PUSH2 0x1919 DUP4 PUSH2 0x18C9 JUMP JUMPDEST SWAP3 POP POP PUSH1 0x1 DUP2 ADD SWAP1 POP PUSH2 0x18FA JUMP JUMPDEST POP DUP6 SWAP4 POP POP POP POP SWAP3 SWAP2 POP POP JUMP JUMPDEST PUSH1 0x0 PUSH1 0x20 DUP3 ADD SWAP1 POP DUP2 DUP2 SUB PUSH1 0x0 DUP4 ADD MSTORE PUSH2 0x194E DUP2 DUP5 PUSH2 0x18D6 JUMP JUMPDEST SWAP1 POP SWAP3 SWAP2 POP POP JUMP JUMPDEST PUSH1 0x0 DUP1 PUSH1 0x40 DUP4 DUP6 SUB SLT ISZERO PUSH2 0x196D JUMPI PUSH2 0x196C PUSH2 0x1783 JUMP JUMPDEST JUMPDEST PUSH1 0x0 PUSH2 0x197B DUP6 DUP3 DUP7 ADD PUSH2 0x1834 JUMP JUMPDEST SWAP3 POP POP PUSH1 0x20 PUSH2 0x198C DUP6 DUP3 DUP7 ADD PUSH2 0x179F JUMP JUMPDEST SWAP2 POP POP SWAP3 POP SWAP3 SWAP1 POP JUMP JUMPDEST PUSH1 0x0 DUP3 DUP3 MSTORE PUSH1 0x20 DUP3 ADD SWAP1 POP SWAP3 SWAP2 POP POP JUMP JUMPDEST PUSH32 0x4E6F20657320636F6E747261746F206465206361727461730000000000000000 PUSH1 0x0 DUP3 ADD MSTORE POP JUMP JUMPDEST PUSH1 0x0 PUSH2 0x19DD PUSH1 0x18 DUP4 PUSH2 0x1996 JUMP JUMPDEST SWAP2 POP PUSH2 0x19E8 DUP3 PUSH2 0x19A7 JUMP JUMPDEST PUSH1 0x20 DUP3 ADD SWAP1 POP SWAP2 SWAP1 POP JUMP JUMPDEST PUSH1 0x0 PUSH1 0x20 DUP3 ADD SWAP1 POP DUP2 DUP2 SUB PUSH1 0x0 DUP4 ADD MSTORE PUSH2 0x1A0C DUP2 PUSH2 0x19D0 JUMP JUMPDEST SWAP1 POP SWAP2 SWAP1 POP JUMP JUMPDEST PUSH32 0x436F6E747261746F20646520636172746173206E6F207365746561646F000000 PUSH1 0x0 DUP3 ADD MSTORE POP JUMP JUMPDEST PUSH1 0x0 PUSH2 0x1A49 PUSH1 0x1D DUP4 PUSH2 0x1996 JUMP JUMPDEST SWAP2 POP PUSH2 0x1A54 DUP3 PUSH2 0x1A13 JUMP JUMPDEST PUSH1 0x20 DUP3 ADD SWAP1 POP SWAP2 SWAP1 POP JUMP JUMPDEST PUSH1 0x0 PUSH1 0x20 DUP3 ADD SWAP1 POP DUP2 DUP2 SUB PUSH1 0x0 DUP4 ADD MSTORE PUSH2 0x1A78 DUP2 PUSH2 0x1A3C JUMP JUMPDEST SWAP1 POP SWAP2 SWAP1 POP JUMP JUMPDEST PUSH32 0x4E487B7100000000000000000000000000000000000000000000000000000000 PUSH1 0x0 MSTORE PUSH1 0x12 PUSH1 0x4 MSTORE PUSH1 0x24 PUSH1 0x0 REVERT JUMPDEST PUSH32 0x4E487B7100000000000000000000000000000000000000000000000000000000 PUSH1 0x0 MSTORE PUSH1 0x11 PUSH1 0x4 MSTORE PUSH1 0x24 PUSH1 0x0 REVERT JUMPDEST PUSH1 0x0 PUSH2 0x1AE8 DUP3 PUSH2 0x174F JUMP JUMPDEST SWAP2 POP PUSH2 0x1AF3 DUP4 PUSH2 0x174F JUMP JUMPDEST SWAP3 POP DUP3 PUSH2 0x1B03 JUMPI PUSH2 0x1B02 PUSH2 0x1A7F JUMP JUMPDEST JUMPDEST DUP3 DUP3 DIV SWAP1 POP SWAP3 SWAP2 POP POP JUMP JUMPDEST PUSH1 0x0 PUSH2 0x1B19 DUP3 PUSH2 0x174F JUMP JUMPDEST SWAP2 POP PUSH2 0x1B24 DUP4 PUSH2 0x174F JUMP JUMPDEST SWAP3 POP DUP3 DUP3 SUB SWAP1 POP DUP2 DUP2 GT ISZERO PUSH2 0x1B3C JUMPI PUSH2 0x1B3B PUSH2 0x1AAE JUMP JUMPDEST JUMPDEST SWAP3 SWAP2 POP POP JUMP JUMPDEST PUSH1 0x0 PUSH2 0x1B4D DUP3 PUSH2 0x174F JUMP JUMPDEST SWAP2 POP PUSH2 0x1B58 DUP4 PUSH2 0x174F JUMP JUMPDEST SWAP3 POP DUP3 DUP3 MUL PUSH2 0x1B66 DUP2 PUSH2 0x174F JUMP JUMPDEST SWAP2 POP DUP3 DUP3 DIV DUP5 EQ DUP4 ISZERO OR PUSH2 0x1B7D JUMPI PUSH2 0x1B7C PUSH2 0x1AAE JUMP JUMPDEST JUMPDEST POP SWAP3 SWAP2 POP POP JUMP JUMPDEST PUSH32 0x4E487B7100000000000000000000000000000000000000000000000000000000 PUSH1 0x0 MSTORE PUSH1 0x41 PUSH1 0x4 MSTORE PUSH1 0x24 PUSH1 0x0 REVERT JUMPDEST PUSH32 0x5365206163616261726F6E206C6F7320736F6272657300000000000000000000 PUSH1 0x0 DUP3 ADD MSTORE POP JUMP JUMPDEST PUSH1 0x0 PUSH2 0x1BE9 PUSH1 0x16 DUP4 PUSH2 0x1996 JUMP JUMPDEST SWAP2 POP PUSH2 0x1BF4 DUP3 PUSH2 0x1BB3 JUMP JUMPDEST PUSH1 0x20 DUP3 ADD SWAP1 POP SWAP2 SWAP1 POP JUMP JUMPDEST PUSH1 0x0 PUSH1 0x20 DUP3 ADD SWAP1 POP DUP2 DUP2 SUB PUSH1 0x0 DUP4 ADD MSTORE PUSH2 0x1C18 DUP2 PUSH2 0x1BDC JUMP JUMPDEST SWAP1 POP SWAP2 SWAP1 POP JUMP JUMPDEST PUSH32 0x4E487B7100000000000000000000000000000000000000000000000000000000 PUSH1 0x0 MSTORE PUSH1 0x32 PUSH1 0x4 MSTORE PUSH1 0x24 PUSH1 0x0 REVERT JUMPDEST PUSH1 0x0 PUSH2 0x1C59 DUP3 PUSH2 0x174F JUMP JUMPDEST SWAP2 POP PUSH32 0xFFFFFFFFFFFFFFFFFFFFFFFFFFFFFFFFFFFFFFFFFFFFFFFFFFFFFFFFFFFFFFFF DUP3 SUB PUSH2 0x1C8B JUMPI PUSH2 0x1C8A PUSH2 0x1AAE JUMP JUMPDEST JUMPDEST PUSH1 0x1 DUP3 ADD SWAP1 POP SWAP2 SWAP1 POP JUMP JUMPDEST PUSH1 0x0 PUSH1 0x60 DUP3 ADD SWAP1 POP PUSH2 0x1CAB PUSH1 0x0 DUP4 ADD DUP7 PUSH2 0x17F3 JUMP JUMPDEST PUSH2 0x1CB8 PUSH1 0x20 DUP4 ADD DUP6 PUSH2 0x17F3 JUMP JUMPDEST PUSH2 0x1CC5 PUSH1 0x40 DUP4 ADD DUP5 PUSH2 0x1759 JUMP JUMPDEST SWAP5 SWAP4 POP POP POP POP JUMP JUMPDEST PUSH1 0x0 DUP2 ISZERO ISZERO SWAP1 POP SWAP2 SWAP1 POP JUMP JUMPDEST PUSH2 0x1CE2 DUP2 PUSH2 0x1CCD JUMP JUMPDEST DUP2 EQ PUSH2 0x1CED JUMPI PUSH1 0x0 DUP1 REVERT JUMPDEST POP JUMP JUMPDEST PUSH1 0x0 DUP2 MLOAD SWAP1 POP PUSH2 0x1CFF DUP2 PUSH2 0x1CD9 JUMP JUMPDEST SWAP3 SWAP2 POP POP JUMP JUMPDEST PUSH1 0x0 PUSH1 0x20 DUP3 DUP5 SUB SLT ISZERO PUSH2 0x1D1B JUMPI PUSH2 0x1D1A PUSH2 0x1783 JUMP JUMPDEST JUMPDEST PUSH1 0x0 PUSH2 0x1D29 DUP5 DUP3 DUP6 ADD PUSH2 0x1CF0 JUMP JUMPDEST SWAP2 POP POP SWAP3 SWAP2 POP POP JUMP JUMPDEST PUSH1 0x0 PUSH1 0x40 DUP3 ADD SWAP1 POP PUSH2 0x1D47 PUSH1 0x0 DUP4 ADD DUP6 PUSH2 0x17F3 JUMP JUMPDEST DUP2 DUP2 SUB PUSH1 0x20 DUP4 ADD MSTORE PUSH2 0x1D59 DUP2 DUP5 PUSH2 0x18D6 JUMP JUMPDEST SWAP1 POP SWAP4 SWAP3 POP POP POP JUMP JUMPDEST PUSH1 0x0 PUSH1 0x40 DUP3 ADD SWAP1 POP PUSH2 0x1D77 PUSH1 0x0 DUP4 ADD DUP6 PUSH2 0x17F3 JUMP JUMPDEST PUSH2 0x1D84 PUSH1 0x20 DUP4 ADD DUP5 PUSH2 0x1759 JUMP JUMPDEST SWAP4 SWAP3 POP POP POP JUMP JUMPDEST PUSH32 0x457374652070617175657465206E6F206573207475796F000000000000000000 PUSH1 0x0 DUP3 ADD MSTORE POP JUMP JUMPDEST PUSH1 0x0 PUSH2 0x1DC1 PUSH1 0x17 DUP4 PUSH2 0x1996 JUMP JUMPDEST SWAP2 POP PUSH2 0x1DCC DUP3 PUSH2 0x1D8B JUMP JUMPDEST PUSH1 0x20 DUP3 ADD SWAP1 POP SWAP2 SWAP1 POP JUMP JUMPDEST PUSH1 0x0 PUSH1 0x20 DUP3 ADD SWAP1 POP DUP2 DUP2 SUB PUSH1 0x0 DUP4 ADD MSTORE PUSH2 0x1DF0 DUP2 PUSH2 0x1DB4 JUMP JUMPDEST SWAP1 POP SWAP2 SWAP1 POP JUMP JUMPDEST PUSH32 0x5175656D6172206E6F207065726D697469646F00000000000000000000000000 PUSH1 0x0 DUP3 ADD MSTORE POP JUMP JUMPDEST PUSH1 0x0 PUSH2 0x1E2D PUSH1 0x13 DUP4 PUSH2 0x1996 JUMP JUMPDEST SWAP2 POP PUSH2 0x1E38 DUP3 PUSH2 0x1DF7 JUMP JUMPDEST PUSH1 0x20 DUP3 ADD SWAP1 POP SWAP2 SWAP1 POP JUMP JUMPDEST PUSH1 0x0 PUSH1 0x20 DUP3 ADD SWAP1 POP DUP2 DUP2 SUB PUSH1 0x0 DUP4 ADD MSTORE PUSH2 0x1E5C DUP2 PUSH2 0x1E20 JUMP JUMPDEST SWAP1 POP SWAP2 SWAP1 POP JUMP JUMPDEST PUSH32 0x4F776E61626C653A206E6577206F776E657220697320746865207A65726F2061 PUSH1 0x0 DUP3 ADD MSTORE PUSH32 0x6464726573730000000000000000000000000000000000000000000000000000 PUSH1 0x20 DUP3 ADD MSTORE POP JUMP JUMPDEST PUSH1 0x0 PUSH2 0x1EBF PUSH1 0x26 DUP4 PUSH2 0x1996 JUMP JUMPDEST SWAP2 POP PUSH2 0x1ECA DUP3 PUSH2 0x1E63 JUMP JUMPDEST PUSH1 0x40 DUP3 ADD SWAP1 POP SWAP2 SWAP1 POP JUMP JUMPDEST PUSH1 0x0 PUSH1 0x20 DUP3 ADD SWAP1 POP DUP2 DUP2 SUB PUSH1 0x0 DUP4 ADD MSTORE PUSH2 0x1EEE DUP2 PUSH2 0x1EB2 JUMP JUMPDEST SWAP1 POP SWAP2 SWAP1 POP JUMP JUMPDEST PUSH32 0x4E487B7100000000000000000000000000000000000000000000000000000000 PUSH1 0x0 MSTORE PUSH1 0x31 PUSH1 0x4 MSTORE PUSH1 0x24 PUSH1 0x0 REVERT JUMPDEST PUSH32 0x4F776E61626C653A2063616C6C6572206973206E6F7420746865206F776E6572 PUSH1 0x0 DUP3 ADD MSTORE POP JUMP JUMPDEST PUSH1 0x0 PUSH2 0x1F5A PUSH1 0x20 DUP4 PUSH2 0x1996 JUMP JUMPDEST SWAP2 POP PUSH2 0x1F65 DUP3 PUSH2 0x1F24 JUMP JUMPDEST PUSH1 0x20 DUP3 ADD SWAP1 POP SWAP2 SWAP1 POP JUMP JUMPDEST PUSH1 0x0 PUSH1 0x20 DUP3 ADD SWAP1 POP DUP2 DUP2 SUB PUSH1 0x0 DUP4 ADD MSTORE PUSH2 0x1F89 DUP2 PUSH2 0x1F4D JUMP JUMPDEST SWAP1 POP SWAP2 SWAP1 POP JUMP INVALID LOG2 PUSH5 0x6970667358 0x22 SLT KECCAK256 0x2D 0xEB 0xAC 0xCA 0x29 LOG2 MLOAD 0xCE 0xD0 0xE5 0xCD EXTCODESIZE 0xD6 RETURNDATACOPY LT RETURNDATASIZE SELFDESTRUCT 0x25 NOT MULMOD SLT 0x4C 0xBA SMOD 0xEB ADDMOD 0x4A SELFBALANCE 0xAA 0xC0 NOT MULMOD PUSH5 0x736F6C6343 STOP ADDMOD SLT STOP CALLER "},"methodIdentifiers":{"DAI_TOKEN()":"e606df87","balanceReceiver()":"627b253f","buyPack()":"c37b9bcd","buyPacks(uint256)":"6adbaf75","cardsContract()":"0079ee21","changePrice(uint256)":"a2b40d19","getPackOwner(uint256)":"d3e6a7ad","getPacksByUser(address)":"8fd5baf7","openPack(uint256)":"50a88c7e","owner()":"8da5cb5b","packPrice()":"335c8b63","packs(uint256)":"b84c1392","packsByUser(address,uint256)":"bd713380","renounceOwnership()":"715018a6","setCardsContract(address)":"6374cb8b","totalSupply()":"18160ddd","transferOwnership(address)":"f2fde38b","transferPack(address,uint256)":"d611713e"}}}}}