{
  "_format": "hh-sol-artifact-1",
  "contractName": "NofGammaCardsNFTV1",
  "sourceName": "contracts/gamma/GammaCardsNFT.v1.sol",
  "abi": [
    {
      "inputs": [],
      "stateMutability": "nonpayable",
      "type": "constructor"
    },
    {
      "anonymous": false,
      "inputs": [
        {
          "indexed": true,
          "internalType": "address",
          "name": "owner",
          "type": "address"
        },
        {
          "indexed": true,
          "internalType": "address",
          "name": "approved",
          "type": "address"
        },
        {
          "indexed": true,
          "internalType": "uint256",
          "name": "tokenId",
          "type": "uint256"
        }
      ],
      "name": "Approval",
      "type": "event"
    },
    {
      "anonymous": false,
      "inputs": [
        {
          "indexed": true,
          "internalType": "address",
          "name": "owner",
          "type": "address"
        },
        {
          "indexed": true,
          "internalType": "address",
          "name": "operator",
          "type": "address"
        },
        {
          "indexed": false,
          "internalType": "bool",
          "name": "approved",
          "type": "bool"
        }
      ],
      "name": "ApprovalForAll",
      "type": "event"
    },
    {
      "anonymous": false,
      "inputs": [
        {
          "indexed": false,
          "internalType": "uint256",
          "name": "_fromTokenId",
          "type": "uint256"
        },
        {
          "indexed": false,
          "internalType": "uint256",
          "name": "_toTokenId",
          "type": "uint256"
        }
      ],
      "name": "BatchMetadataUpdate",
      "type": "event"
    },
    {
      "anonymous": false,
      "inputs": [
        {
          "indexed": false,
          "internalType": "uint256",
          "name": "_tokenId",
          "type": "uint256"
        }
      ],
      "name": "MetadataUpdate",
      "type": "event"
    },
    {
      "anonymous": false,
      "inputs": [
        {
          "indexed": true,
          "internalType": "address",
          "name": "from",
          "type": "address"
        },
        {
          "indexed": true,
          "internalType": "address",
          "name": "to",
          "type": "address"
        },
        {
          "indexed": true,
          "internalType": "uint256",
          "name": "tokenId",
          "type": "uint256"
        }
      ],
      "name": "Transfer",
      "type": "event"
    },
    {
      "inputs": [
        {
          "internalType": "address",
          "name": "to",
          "type": "address"
        },
        {
          "internalType": "uint256",
          "name": "tokenId",
          "type": "uint256"
        }
      ],
      "name": "approve",
      "outputs": [],
      "stateMutability": "nonpayable",
      "type": "function"
    },
    {
      "inputs": [
        {
          "internalType": "address",
          "name": "owner",
          "type": "address"
        }
      ],
      "name": "balanceOf",
      "outputs": [
        {
          "internalType": "uint256",
          "name": "",
          "type": "uint256"
        }
      ],
      "stateMutability": "view",
      "type": "function"
    },
    {
      "inputs": [
        {
          "internalType": "uint256",
          "name": "tokenId",
          "type": "uint256"
        }
      ],
      "name": "burn",
      "outputs": [],
      "stateMutability": "nonpayable",
      "type": "function"
    },
    {
      "inputs": [
        {
          "internalType": "uint256",
          "name": "tokenId",
          "type": "uint256"
        }
      ],
      "name": "getApproved",
      "outputs": [
        {
          "internalType": "address",
          "name": "",
          "type": "address"
        }
      ],
      "stateMutability": "view",
      "type": "function"
    },
    {
      "inputs": [
        {
          "internalType": "address",
          "name": "owner",
          "type": "address"
        },
        {
          "internalType": "address",
          "name": "operator",
          "type": "address"
        }
      ],
      "name": "isApprovedForAll",
      "outputs": [
        {
          "internalType": "bool",
          "name": "",
          "type": "bool"
        }
      ],
      "stateMutability": "view",
      "type": "function"
    },
    {
      "inputs": [],
      "name": "name",
      "outputs": [
        {
          "internalType": "string",
          "name": "",
          "type": "string"
        }
      ],
      "stateMutability": "view",
      "type": "function"
    },
    {
      "inputs": [
        {
          "internalType": "uint256",
          "name": "tokenId",
          "type": "uint256"
        }
      ],
      "name": "ownerOf",
      "outputs": [
        {
          "internalType": "address",
          "name": "",
          "type": "address"
        }
      ],
      "stateMutability": "view",
      "type": "function"
    },
    {
      "inputs": [
        {
          "internalType": "address",
          "name": "from",
          "type": "address"
        },
        {
          "internalType": "address",
          "name": "to",
          "type": "address"
        },
        {
          "internalType": "uint256",
          "name": "tokenId",
          "type": "uint256"
        }
      ],
      "name": "safeTransferFrom",
      "outputs": [],
      "stateMutability": "nonpayable",
      "type": "function"
    },
    {
      "inputs": [
        {
          "internalType": "address",
          "name": "from",
          "type": "address"
        },
        {
          "internalType": "address",
          "name": "to",
          "type": "address"
        },
        {
          "internalType": "uint256",
          "name": "tokenId",
          "type": "uint256"
        },
        {
          "internalType": "bytes",
          "name": "data",
          "type": "bytes"
        }
      ],
      "name": "safeTransferFrom",
      "outputs": [],
      "stateMutability": "nonpayable",
      "type": "function"
    },
    {
      "inputs": [
        {
          "internalType": "address",
          "name": "operator",
          "type": "address"
        },
        {
          "internalType": "bool",
          "name": "approved",
          "type": "bool"
        }
      ],
      "name": "setApprovalForAll",
      "outputs": [],
      "stateMutability": "nonpayable",
      "type": "function"
    },
    {
      "inputs": [
        {
          "internalType": "bytes4",
          "name": "interfaceId",
          "type": "bytes4"
        }
      ],
      "name": "supportsInterface",
      "outputs": [
        {
          "internalType": "bool",
          "name": "",
          "type": "bool"
        }
      ],
      "stateMutability": "view",
      "type": "function"
    },
    {
      "inputs": [],
      "name": "symbol",
      "outputs": [
        {
          "internalType": "string",
          "name": "",
          "type": "string"
        }
      ],
      "stateMutability": "view",
      "type": "function"
    },
    {
      "inputs": [
        {
          "internalType": "uint256",
          "name": "tokenId",
          "type": "uint256"
        }
      ],
      "name": "tokenURI",
      "outputs": [
        {
          "internalType": "string",
          "name": "",
          "type": "string"
        }
      ],
      "stateMutability": "view",
      "type": "function"
    },
    {
      "inputs": [
        {
          "internalType": "address",
          "name": "from",
          "type": "address"
        },
        {
          "internalType": "address",
          "name": "to",
          "type": "address"
        },
        {
          "internalType": "uint256",
          "name": "tokenId",
          "type": "uint256"
        }
      ],
      "name": "transferFrom",
      "outputs": [],
      "stateMutability": "nonpayable",
      "type": "function"
    }
  ],
  "bytecode": "0x60806040523480156200001157600080fd5b506040518060400160405280600a81526020016947616d6d61436172647360b01b815250604051806040016040528060068152602001654e4f465f474360d01b815250816000908162000065919062000122565b50600162000074828262000122565b505050620001ee565b634e487b7160e01b600052604160045260246000fd5b600181811c90821680620000a857607f821691505b602082108103620000c957634e487b7160e01b600052602260045260246000fd5b50919050565b601f8211156200011d57600081815260208120601f850160051c81016020861015620000f85750805b601f850160051c820191505b81811015620001195782815560010162000104565b5050505b505050565b81516001600160401b038111156200013e576200013e6200007d565b62000156816200014f845462000093565b84620000cf565b602080601f8311600181146200018e5760008415620001755750858301515b600019600386901b1c1916600185901b17855562000119565b600085815260208120601f198616915b82811015620001bf578886015182559484019460019091019084016200019e565b5085821015620001de5787850151600019600388901b60f8161c191681555b5050505050600190811b01905550565b6113c380620001fe6000396000f3fe608060405234801561001057600080fd5b50600436106100ea5760003560e01c80636352211e1161008c578063a22cb46511610066578063a22cb465146101e1578063b88d4fde146101f4578063c87b56dd14610207578063e985e9c51461021a57600080fd5b80636352211e146101a557806370a08231146101b857806395d89b41146101d957600080fd5b8063095ea7b3116100c8578063095ea7b31461015757806323b872dd1461016c57806342842e0e1461017f57806342966c681461019257600080fd5b806301ffc9a7146100ef57806306fdde0314610117578063081812fc1461012c575b600080fd5b6101026100fd366004610f4f565b610256565b60405190151581526020015b60405180910390f35b61011f610267565b60405161010e9190610fbc565b61013f61013a366004610fcf565b6102f9565b6040516001600160a01b03909116815260200161010e565b61016a610165366004611004565b610320565b005b61016a61017a36600461102e565b61043a565b61016a61018d36600461102e565b61046c565b61016a6101a0366004610fcf565b610487565b61013f6101b3366004610fcf565b6104b8565b6101cb6101c636600461106a565b610518565b60405190815260200161010e565b61011f61059e565b61016a6101ef366004611085565b6105ad565b61016a6102023660046110d7565b6105bc565b61011f610215366004610fcf565b6105f4565b6101026102283660046111b3565b6001600160a01b03918216600090815260056020908152604080832093909416825291909152205460ff1690565b6000610261826105ff565b92915050565b606060008054610276906111e6565b80601f01602080910402602001604051908101604052809291908181526020018280546102a2906111e6565b80156102ef5780601f106102c4576101008083540402835291602001916102ef565b820191906000526020600020905b8154815290600101906020018083116102d257829003601f168201915b5050505050905090565b600061030482610624565b506000908152600460205260409020546001600160a01b031690565b600061032b826104b8565b9050806001600160a01b0316836001600160a01b03160361039d5760405162461bcd60e51b815260206004820152602160248201527f4552433732313a20617070726f76616c20746f2063757272656e74206f776e656044820152603960f91b60648201526084015b60405180910390fd5b336001600160a01b03821614806103b957506103b98133610228565b61042b5760405162461bcd60e51b815260206004820152603d60248201527f4552433732313a20617070726f76652063616c6c6572206973206e6f7420746f60448201527f6b656e206f776e6572206f7220617070726f76656420666f7220616c6c0000006064820152608401610394565b6104358383610683565b505050565b610445335b826106f1565b6104615760405162461bcd60e51b815260040161039490611220565b610435838383610770565b610435838383604051806020016040528060008152506105bc565b6104903361043f565b6104ac5760405162461bcd60e51b815260040161039490611220565b6104b5816108d4565b50565b6000818152600260205260408120546001600160a01b0316806102615760405162461bcd60e51b8152602060048201526018602482015277115490cdcc8c4e881a5b9d985b1a59081d1bdad95b88125160421b6044820152606401610394565b60006001600160a01b0382166105825760405162461bcd60e51b815260206004820152602960248201527f4552433732313a2061646472657373207a65726f206973206e6f7420612076616044820152683634b21037bbb732b960b91b6064820152608401610394565b506001600160a01b031660009081526003602052604090205490565b606060018054610276906111e6565b6105b83383836108dd565b5050565b6105c633836106f1565b6105e25760405162461bcd60e51b815260040161039490611220565b6105ee848484846109ab565b50505050565b6060610261826109de565b60006001600160e01b03198216632483248360e11b1480610261575061026182610ae6565b6000818152600260205260409020546001600160a01b03166104b55760405162461bcd60e51b8152602060048201526018602482015277115490cdcc8c4e881a5b9d985b1a59081d1bdad95b88125160421b6044820152606401610394565b600081815260046020526040902080546001600160a01b0319166001600160a01b03841690811790915581906106b8826104b8565b6001600160a01b03167f8c5be1e5ebec7d5bd14f71427d1e84f3dd0314c0f7b2291e5b200ac8c7c3b92560405160405180910390a45050565b6000806106fd836104b8565b9050806001600160a01b0316846001600160a01b0316148061074457506001600160a01b0380821660009081526005602090815260408083209388168352929052205460ff165b806107685750836001600160a01b031661075d846102f9565b6001600160a01b0316145b949350505050565b826001600160a01b0316610783826104b8565b6001600160a01b0316146107a95760405162461bcd60e51b81526004016103949061126d565b6001600160a01b03821661080b5760405162461bcd60e51b8152602060048201526024808201527f4552433732313a207472616e7366657220746f20746865207a65726f206164646044820152637265737360e01b6064820152608401610394565b826001600160a01b031661081e826104b8565b6001600160a01b0316146108445760405162461bcd60e51b81526004016103949061126d565b600081815260046020908152604080832080546001600160a01b03199081169091556001600160a01b0387811680865260038552838620805460001901905590871680865283862080546001019055868652600290945282852080549092168417909155905184937fddf252ad1be2c89b69c2b068fc378daa952ba7f163c4a11628f55a4df523b3ef91a4505050565b6104b581610b36565b816001600160a01b0316836001600160a01b03160361093e5760405162461bcd60e51b815260206004820152601960248201527f4552433732313a20617070726f766520746f2063616c6c6572000000000000006044820152606401610394565b6001600160a01b03838116600081815260056020908152604080832094871680845294825291829020805460ff191686151590811790915591519182527f17307eab39ab6107e8899845ad3d59bd9653f200f220920489ca2b5937696c31910160405180910390a3505050565b6109b6848484610770565b6109c284848484610b76565b6105ee5760405162461bcd60e51b8152600401610394906112b2565b60606109e982610624565b60008281526006602052604081208054610a02906111e6565b80601f0160208091040260200160405190810160405280929190818152602001828054610a2e906111e6565b8015610a7b5780601f10610a5057610100808354040283529160200191610a7b565b820191906000526020600020905b815481529060010190602001808311610a5e57829003601f168201915b505050505090506000610a9960408051602081019091526000815290565b90508051600003610aab575092915050565b815115610add578082604051602001610ac5929190611304565b60405160208183030381529060405292505050919050565b61076884610c77565b60006001600160e01b031982166380ac58cd60e01b1480610b1757506001600160e01b03198216635b5e139f60e01b145b8061026157506301ffc9a760e01b6001600160e01b0319831614610261565b610b3f81610ceb565b60008181526006602052604090208054610b58906111e6565b1590506104b55760008181526006602052604081206104b591610eeb565b60006001600160a01b0384163b15610c6c57604051630a85bd0160e11b81526001600160a01b0385169063150b7a0290610bba903390899088908890600401611333565b6020604051808303816000875af1925050508015610bf5575060408051601f3d908101601f19168201909252610bf291810190611370565b60015b610c52573d808015610c23576040519150601f19603f3d011682016040523d82523d6000602084013e610c28565b606091505b508051600003610c4a5760405162461bcd60e51b8152600401610394906112b2565b805181602001fd5b6001600160e01b031916630a85bd0160e11b149050610768565b506001949350505050565b6060610c8282610624565b6000610c9960408051602081019091526000815290565b90506000815111610cb95760405180602001604052806000815250610ce4565b80610cc384610d80565b604051602001610cd4929190611304565b6040516020818303038152906040525b9392505050565b6000610cf6826104b8565b9050610d01826104b8565b600083815260046020908152604080832080546001600160a01b03199081169091556001600160a01b0385168085526003845282852080546000190190558785526002909352818420805490911690555192935084927fddf252ad1be2c89b69c2b068fc378daa952ba7f163c4a11628f55a4df523b3ef908390a45050565b60606000610d8d83610e13565b600101905060008167ffffffffffffffff811115610dad57610dad6110c1565b6040519080825280601f01601f191660200182016040528015610dd7576020820181803683370190505b5090508181016020015b600019016f181899199a1a9b1b9c1cb0b131b232b360811b600a86061a8153600a8504945084610de157509392505050565b60008072184f03e93ff9f4daa797ed6e38ed64bf6a1f0160401b8310610e525772184f03e93ff9f4daa797ed6e38ed64bf6a1f0160401b830492506040015b6d04ee2d6d415b85acef81000000008310610e7e576d04ee2d6d415b85acef8100000000830492506020015b662386f26fc100008310610e9c57662386f26fc10000830492506010015b6305f5e1008310610eb4576305f5e100830492506008015b6127108310610ec857612710830492506004015b60648310610eda576064830492506002015b600a83106102615760010192915050565b508054610ef7906111e6565b6000825580601f10610f07575050565b601f0160209004906000526020600020908101906104b591905b80821115610f355760008155600101610f21565b5090565b6001600160e01b0319811681146104b557600080fd5b600060208284031215610f6157600080fd5b8135610ce481610f39565b60005b83811015610f87578181015183820152602001610f6f565b50506000910152565b60008151808452610fa8816020860160208601610f6c565b601f01601f19169290920160200192915050565b602081526000610ce46020830184610f90565b600060208284031215610fe157600080fd5b5035919050565b80356001600160a01b0381168114610fff57600080fd5b919050565b6000806040838503121561101757600080fd5b61102083610fe8565b946020939093013593505050565b60008060006060848603121561104357600080fd5b61104c84610fe8565b925061105a60208501610fe8565b9150604084013590509250925092565b60006020828403121561107c57600080fd5b610ce482610fe8565b6000806040838503121561109857600080fd5b6110a183610fe8565b9150602083013580151581146110b657600080fd5b809150509250929050565b634e487b7160e01b600052604160045260246000fd5b600080600080608085870312156110ed57600080fd5b6110f685610fe8565b935061110460208601610fe8565b925060408501359150606085013567ffffffffffffffff8082111561112857600080fd5b818701915087601f83011261113c57600080fd5b81358181111561114e5761114e6110c1565b604051601f8201601f19908116603f01168101908382118183101715611176576111766110c1565b816040528281528a602084870101111561118f57600080fd5b82602086016020830137600060208483010152809550505050505092959194509250565b600080604083850312156111c657600080fd5b6111cf83610fe8565b91506111dd60208401610fe8565b90509250929050565b600181811c908216806111fa57607f821691505b60208210810361121a57634e487b7160e01b600052602260045260246000fd5b50919050565b6020808252602d908201527f4552433732313a2063616c6c6572206973206e6f7420746f6b656e206f776e6560408201526c1c881bdc88185c1c1c9bdd9959609a1b606082015260800190565b60208082526025908201527f4552433732313a207472616e736665722066726f6d20696e636f72726563742060408201526437bbb732b960d91b606082015260800190565b60208082526032908201527f4552433732313a207472616e7366657220746f206e6f6e20455243373231526560408201527131b2b4bb32b91034b6b83632b6b2b73a32b960711b606082015260800190565b60008351611316818460208801610f6c565b83519083019061132a818360208801610f6c565b01949350505050565b6001600160a01b038581168252841660208201526040810183905260806060820181905260009061136690830184610f90565b9695505050505050565b60006020828403121561138257600080fd5b8151610ce481610f3956fea2646970667358221220e08a3b2b261b9ae224ea2bfae48f715a5b58c0f2d8e5e6ea25c65957bbb0dce564736f6c63430008140033",
  "linkReferences": {},
  "deployedLinkReferences": {}
}