{
  "_format": "hh-sol-artifact-1",
  "contractName": "NofAlphaV3",
  "sourceName": "contracts/alpha/Alpha.v3.sol",
  "abi": [
    {
      "inputs": [],
      "stateMutability": "nonpayable",
      "type": "constructor"
    },
    {
      "anonymous": false,
      "inputs": [
        {
          "indexed": true,
          "internalType": "address",
          "name": "owner",
          "type": "address"
        },
        {
          "indexed": true,
          "internalType": "address",
          "name": "approved",
          "type": "address"
        },
        {
          "indexed": true,
          "internalType": "uint256",
          "name": "tokenId",
          "type": "uint256"
        }
      ],
      "name": "Approval",
      "type": "event"
    },
    {
      "anonymous": false,
      "inputs": [
        {
          "indexed": true,
          "internalType": "address",
          "name": "owner",
          "type": "address"
        },
        {
          "indexed": true,
          "internalType": "address",
          "name": "operator",
          "type": "address"
        },
        {
          "indexed": false,
          "internalType": "bool",
          "name": "approved",
          "type": "bool"
        }
      ],
      "name": "ApprovalForAll",
      "type": "event"
    },
    {
      "anonymous": false,
      "inputs": [
        {
          "indexed": false,
          "internalType": "uint256",
          "name": "_fromTokenId",
          "type": "uint256"
        },
        {
          "indexed": false,
          "internalType": "uint256",
          "name": "_toTokenId",
          "type": "uint256"
        }
      ],
      "name": "BatchMetadataUpdate",
      "type": "event"
    },
    {
      "anonymous": false,
      "inputs": [
        {
          "indexed": false,
          "internalType": "address",
          "name": "buyer",
          "type": "address"
        },
        {
          "indexed": false,
          "internalType": "string",
          "name": "seasonName",
          "type": "string"
        }
      ],
      "name": "BuyPack",
      "type": "event"
    },
    {
      "anonymous": false,
      "inputs": [
        {
          "indexed": false,
          "internalType": "uint256",
          "name": "_tokenId",
          "type": "uint256"
        }
      ],
      "name": "MetadataUpdate",
      "type": "event"
    },
    {
      "anonymous": false,
      "inputs": [
        {
          "indexed": true,
          "internalType": "address",
          "name": "previousOwner",
          "type": "address"
        },
        {
          "indexed": true,
          "internalType": "address",
          "name": "newOwner",
          "type": "address"
        }
      ],
      "name": "OwnershipTransferred",
      "type": "event"
    },
    {
      "anonymous": false,
      "inputs": [
        {
          "indexed": true,
          "internalType": "address",
          "name": "from",
          "type": "address"
        },
        {
          "indexed": true,
          "internalType": "address",
          "name": "to",
          "type": "address"
        },
        {
          "indexed": true,
          "internalType": "uint256",
          "name": "tokenId",
          "type": "uint256"
        }
      ],
      "name": "Transfer",
      "type": "event"
    },
    {
      "anonymous": false,
      "inputs": [
        {
          "indexed": false,
          "internalType": "address",
          "name": "winner",
          "type": "address"
        },
        {
          "indexed": false,
          "internalType": "string",
          "name": "season",
          "type": "string"
        },
        {
          "indexed": false,
          "internalType": "uint256",
          "name": "position",
          "type": "uint256"
        }
      ],
      "name": "Winner",
      "type": "event"
    },
    {
      "inputs": [],
      "name": "DAI_TOKEN",
      "outputs": [
        {
          "internalType": "address",
          "name": "",
          "type": "address"
        }
      ],
      "stateMutability": "view",
      "type": "function"
    },
    {
      "inputs": [
        {
          "internalType": "address",
          "name": "to",
          "type": "address"
        },
        {
          "internalType": "uint256",
          "name": "tokenId",
          "type": "uint256"
        }
      ],
      "name": "approve",
      "outputs": [],
      "stateMutability": "nonpayable",
      "type": "function"
    },
    {
      "inputs": [
        {
          "internalType": "address",
          "name": "owner",
          "type": "address"
        }
      ],
      "name": "balanceOf",
      "outputs": [
        {
          "internalType": "uint256",
          "name": "",
          "type": "uint256"
        }
      ],
      "stateMutability": "view",
      "type": "function"
    },
    {
      "inputs": [],
      "name": "balanceReceiver",
      "outputs": [
        {
          "internalType": "address",
          "name": "",
          "type": "address"
        }
      ],
      "stateMutability": "view",
      "type": "function"
    },
    {
      "inputs": [],
      "name": "baseUri",
      "outputs": [
        {
          "internalType": "string",
          "name": "",
          "type": "string"
        }
      ],
      "stateMutability": "view",
      "type": "function"
    },
    {
      "inputs": [
        {
          "internalType": "uint256",
          "name": "amount",
          "type": "uint256"
        },
        {
          "internalType": "string",
          "name": "name",
          "type": "string"
        }
      ],
      "name": "buyPack",
      "outputs": [],
      "stateMutability": "nonpayable",
      "type": "function"
    },
    {
      "inputs": [
        {
          "internalType": "uint256",
          "name": "",
          "type": "uint256"
        }
      ],
      "name": "cards",
      "outputs": [
        {
          "internalType": "uint256",
          "name": "tokenId",
          "type": "uint256"
        },
        {
          "internalType": "uint256",
          "name": "class",
          "type": "uint256"
        },
        {
          "internalType": "uint256",
          "name": "collection",
          "type": "uint256"
        },
        {
          "internalType": "string",
          "name": "season",
          "type": "string"
        },
        {
          "internalType": "uint256",
          "name": "completion",
          "type": "uint256"
        },
        {
          "internalType": "uint256",
          "name": "number",
          "type": "uint256"
        }
      ],
      "stateMutability": "view",
      "type": "function"
    },
    {
      "inputs": [
        {
          "internalType": "address",
          "name": "",
          "type": "address"
        },
        {
          "internalType": "string",
          "name": "",
          "type": "string"
        },
        {
          "internalType": "uint256",
          "name": "",
          "type": "uint256"
        }
      ],
      "name": "cardsByUserBySeason",
      "outputs": [
        {
          "internalType": "uint256",
          "name": "tokenId",
          "type": "uint256"
        },
        {
          "internalType": "uint256",
          "name": "class",
          "type": "uint256"
        },
        {
          "internalType": "uint256",
          "name": "collection",
          "type": "uint256"
        },
        {
          "internalType": "string",
          "name": "season",
          "type": "string"
        },
        {
          "internalType": "uint256",
          "name": "completion",
          "type": "uint256"
        },
        {
          "internalType": "uint256",
          "name": "number",
          "type": "uint256"
        }
      ],
      "stateMutability": "view",
      "type": "function"
    },
    {
      "inputs": [
        {
          "internalType": "uint256",
          "name": "tokenId",
          "type": "uint256"
        }
      ],
      "name": "getApproved",
      "outputs": [
        {
          "internalType": "address",
          "name": "",
          "type": "address"
        }
      ],
      "stateMutability": "view",
      "type": "function"
    },
    {
      "inputs": [
        {
          "internalType": "address",
          "name": "_user",
          "type": "address"
        },
        {
          "internalType": "string",
          "name": "_seasonName",
          "type": "string"
        }
      ],
      "name": "getCardsByUserBySeason",
      "outputs": [
        {
          "components": [
            {
              "internalType": "uint256",
              "name": "tokenId",
              "type": "uint256"
            },
            {
              "internalType": "uint256",
              "name": "class",
              "type": "uint256"
            },
            {
              "internalType": "uint256",
              "name": "collection",
              "type": "uint256"
            },
            {
              "internalType": "string",
              "name": "season",
              "type": "string"
            },
            {
              "internalType": "uint256",
              "name": "completion",
              "type": "uint256"
            },
            {
              "internalType": "uint256",
              "name": "number",
              "type": "uint256"
            }
          ],
          "internalType": "struct NofAlphaV3.Card[]",
          "name": "",
          "type": "tuple[]"
        }
      ],
      "stateMutability": "view",
      "type": "function"
    },
    {
      "inputs": [
        {
          "internalType": "string",
          "name": "name",
          "type": "string"
        }
      ],
      "name": "getSeasonAlbums",
      "outputs": [
        {
          "internalType": "uint256[]",
          "name": "",
          "type": "uint256[]"
        }
      ],
      "stateMutability": "view",
      "type": "function"
    },
    {
      "inputs": [
        {
          "internalType": "string",
          "name": "name",
          "type": "string"
        }
      ],
      "name": "getSeasonCards",
      "outputs": [
        {
          "internalType": "uint256[]",
          "name": "",
          "type": "uint256[]"
        }
      ],
      "stateMutability": "view",
      "type": "function"
    },
    {
      "inputs": [],
      "name": "getSeasonData",
      "outputs": [
        {
          "internalType": "string[]",
          "name": "",
          "type": "string[]"
        },
        {
          "internalType": "uint256[]",
          "name": "",
          "type": "uint256[]"
        }
      ],
      "stateMutability": "view",
      "type": "function"
    },
    {
      "inputs": [
        {
          "internalType": "string",
          "name": "_seasonName",
          "type": "string"
        }
      ],
      "name": "getWinners",
      "outputs": [
        {
          "internalType": "address[]",
          "name": "",
          "type": "address[]"
        }
      ],
      "stateMutability": "view",
      "type": "function"
    },
    {
      "inputs": [
        {
          "internalType": "string",
          "name": "__baseUri",
          "type": "string"
        },
        {
          "internalType": "address",
          "name": "_daiTokenAddress",
          "type": "address"
        },
        {
          "internalType": "address",
          "name": "_balanceReceiver",
          "type": "address"
        }
      ],
      "name": "init",
      "outputs": [],
      "stateMutability": "nonpayable",
      "type": "function"
    },
    {
      "inputs": [
        {
          "internalType": "address",
          "name": "_owner",
          "type": "address"
        },
        {
          "internalType": "address",
          "name": "_operator",
          "type": "address"
        }
      ],
      "name": "isApprovedForAll",
      "outputs": [
        {
          "internalType": "bool",
          "name": "isOperator",
          "type": "bool"
        }
      ],
      "stateMutability": "view",
      "type": "function"
    },
    {
      "inputs": [],
      "name": "name",
      "outputs": [
        {
          "internalType": "string",
          "name": "",
          "type": "string"
        }
      ],
      "stateMutability": "view",
      "type": "function"
    },
    {
      "inputs": [
        {
          "internalType": "string",
          "name": "name",
          "type": "string"
        },
        {
          "internalType": "uint256",
          "name": "price",
          "type": "uint256"
        },
        {
          "internalType": "uint256",
          "name": "amount",
          "type": "uint256"
        },
        {
          "internalType": "string",
          "name": "folder",
          "type": "string"
        }
      ],
      "name": "newSeason",
      "outputs": [],
      "stateMutability": "nonpayable",
      "type": "function"
    },
    {
      "inputs": [],
      "name": "owner",
      "outputs": [
        {
          "internalType": "address",
          "name": "",
          "type": "address"
        }
      ],
      "stateMutability": "view",
      "type": "function"
    },
    {
      "inputs": [
        {
          "internalType": "uint256",
          "name": "tokenId",
          "type": "uint256"
        }
      ],
      "name": "ownerOf",
      "outputs": [
        {
          "internalType": "address",
          "name": "",
          "type": "address"
        }
      ],
      "stateMutability": "view",
      "type": "function"
    },
    {
      "inputs": [
        {
          "internalType": "uint256",
          "name": "card",
          "type": "uint256"
        },
        {
          "internalType": "uint256",
          "name": "album",
          "type": "uint256"
        }
      ],
      "name": "pasteCards",
      "outputs": [],
      "stateMutability": "nonpayable",
      "type": "function"
    },
    {
      "inputs": [],
      "name": "prizesBalance",
      "outputs": [
        {
          "internalType": "uint256",
          "name": "",
          "type": "uint256"
        }
      ],
      "stateMutability": "view",
      "type": "function"
    },
    {
      "inputs": [],
      "name": "renounceOwnership",
      "outputs": [],
      "stateMutability": "nonpayable",
      "type": "function"
    },
    {
      "inputs": [
        {
          "internalType": "address",
          "name": "from",
          "type": "address"
        },
        {
          "internalType": "address",
          "name": "to",
          "type": "address"
        },
        {
          "internalType": "uint256",
          "name": "tokenId",
          "type": "uint256"
        }
      ],
      "name": "safeTransferFrom",
      "outputs": [],
      "stateMutability": "nonpayable",
      "type": "function"
    },
    {
      "inputs": [
        {
          "internalType": "address",
          "name": "from",
          "type": "address"
        },
        {
          "internalType": "address",
          "name": "to",
          "type": "address"
        },
        {
          "internalType": "uint256",
          "name": "tokenId",
          "type": "uint256"
        },
        {
          "internalType": "bytes",
          "name": "data",
          "type": "bytes"
        }
      ],
      "name": "safeTransferFrom",
      "outputs": [],
      "stateMutability": "nonpayable",
      "type": "function"
    },
    {
      "inputs": [
        {
          "internalType": "uint256",
          "name": "",
          "type": "uint256"
        }
      ],
      "name": "seasonNames",
      "outputs": [
        {
          "internalType": "string",
          "name": "",
          "type": "string"
        }
      ],
      "stateMutability": "view",
      "type": "function"
    },
    {
      "inputs": [
        {
          "internalType": "uint256",
          "name": "",
          "type": "uint256"
        }
      ],
      "name": "seasonPrices",
      "outputs": [
        {
          "internalType": "uint256",
          "name": "",
          "type": "uint256"
        }
      ],
      "stateMutability": "view",
      "type": "function"
    },
    {
      "inputs": [
        {
          "internalType": "string",
          "name": "",
          "type": "string"
        }
      ],
      "name": "seasons",
      "outputs": [
        {
          "internalType": "uint256",
          "name": "price",
          "type": "uint256"
        },
        {
          "internalType": "string",
          "name": "folder",
          "type": "string"
        }
      ],
      "stateMutability": "view",
      "type": "function"
    },
    {
      "inputs": [
        {
          "internalType": "address",
          "name": "operator",
          "type": "address"
        },
        {
          "internalType": "bool",
          "name": "approved",
          "type": "bool"
        }
      ],
      "name": "setApprovalForAll",
      "outputs": [],
      "stateMutability": "nonpayable",
      "type": "function"
    },
    {
      "inputs": [
        {
          "internalType": "address",
          "name": "_newBalanceReceiver",
          "type": "address"
        }
      ],
      "name": "setBalanceReceiver",
      "outputs": [],
      "stateMutability": "nonpayable",
      "type": "function"
    },
    {
      "inputs": [
        {
          "internalType": "string",
          "name": "__baseURI",
          "type": "string"
        }
      ],
      "name": "setBaseURI",
      "outputs": [],
      "stateMutability": "nonpayable",
      "type": "function"
    },
    {
      "inputs": [
        {
          "internalType": "bytes4",
          "name": "interfaceId",
          "type": "bytes4"
        }
      ],
      "name": "supportsInterface",
      "outputs": [
        {
          "internalType": "bool",
          "name": "",
          "type": "bool"
        }
      ],
      "stateMutability": "view",
      "type": "function"
    },
    {
      "inputs": [],
      "name": "symbol",
      "outputs": [
        {
          "internalType": "string",
          "name": "",
          "type": "string"
        }
      ],
      "stateMutability": "view",
      "type": "function"
    },
    {
      "inputs": [
        {
          "internalType": "uint256",
          "name": "tokenId",
          "type": "uint256"
        }
      ],
      "name": "tokenURI",
      "outputs": [
        {
          "internalType": "string",
          "name": "",
          "type": "string"
        }
      ],
      "stateMutability": "view",
      "type": "function"
    },
    {
      "inputs": [
        {
          "internalType": "address",
          "name": "from",
          "type": "address"
        },
        {
          "internalType": "address",
          "name": "to",
          "type": "address"
        },
        {
          "internalType": "uint256",
          "name": "tokenId",
          "type": "uint256"
        }
      ],
      "name": "transferFrom",
      "outputs": [],
      "stateMutability": "nonpayable",
      "type": "function"
    },
    {
      "inputs": [
        {
          "internalType": "address",
          "name": "newOwner",
          "type": "address"
        }
      ],
      "name": "transferOwnership",
      "outputs": [],
      "stateMutability": "nonpayable",
      "type": "function"
    }
  ],
  "bytecode": "0x61016060405260146080908152600e60a052600c60c052600a60e0526008610100526006610120526005610140526200003d90600f9060076200018f565b503480156200004b57600080fd5b50604051806040016040528060098152602001684e4f4620416c70686160b81b815250604051806040016040528060048152602001634e4f464160e01b81525081600090816200009c9190620002e5565b506001620000ab8282620002e5565b505050620000c8620000c2620000ce60201b60201c565b620000df565b620003b1565b6000620000da62000131565b905090565b600780546001600160a01b038381166001600160a01b0319831681179093556040519116919082907f8be0079c531659141344cd1fd0a4f28419497f9722a3daafe3b4186f6b6457e090600090a35050565b60003033036200018957600080368080601f0160208091040260200160405190810160405280939291908181526020018383808284376000920191909152505050503601516001600160a01b031691506200018c9050565b50335b90565b600183019183908215620002175791602002820160005b83821115620001e657835183826101000a81548160ff021916908360ff1602179055509260200192600101602081600001049283019260010302620001a6565b8015620002155782816101000a81549060ff0219169055600101602081600001049283019260010302620001e6565b505b506200022592915062000229565b5090565b5b808211156200022557600081556001016200022a565b634e487b7160e01b600052604160045260246000fd5b600181811c908216806200026b57607f821691505b6020821081036200028c57634e487b7160e01b600052602260045260246000fd5b50919050565b601f821115620002e057600081815260208120601f850160051c81016020861015620002bb5750805b601f850160051c820191505b81811015620002dc57828155600101620002c7565b5050505b505050565b81516001600160401b0381111562000301576200030162000240565b620003198162000312845462000256565b8462000292565b602080601f831160018114620003515760008415620003385750858301515b600019600386901b1c1916600185901b178555620002dc565b600085815260208120601f198616915b82811015620003825788860151825594840194600190910190840162000361565b5085821015620003a15787850151600019600388901b60f8161c191681555b5050505050600190811b01905550565b61450680620003c16000396000f3fe608060405234801561001057600080fd5b506004361061021c5760003560e01c80638477919b11610125578063be20e5a9116100ad578063e5db587a1161007c578063e5db587a146104c7578063e606df87146104d0578063e985e9c5146104e3578063e9d43f7d146104f6578063f2fde38b1461051657600080fd5b8063be20e5a91461047b578063c1f3a3bb1461048e578063c87b56dd146104a1578063d1811d02146104b457600080fd5b806395d89b41116100f457806395d89b411461042f5780639abc832014610437578063a22cb4651461043f578063b773d5c114610452578063b88d4fde1461046857600080fd5b80638477919b146103d85780638da5cb5b146103eb5780638dc10768146103fc57806395a4c5251461040f57600080fd5b806355f804b3116101a857806370a082311161017757806370a082311461035b578063715018a61461037c57806371f72fa014610384578063787f0b051461039757806383c73d81146103b857600080fd5b806355f804b31461030f57806361c66c1614610322578063627b253f146103355780636352211e1461034857600080fd5b8063095ea7b3116101ef578063095ea7b31461029e57806323b872dd146102b1578063308f5987146102c457806341c2c10f146102e957806342842e0e146102fc57600080fd5b8063015db3961461022157806301ffc9a71461023657806306fdde031461025e578063081812fc14610273575b600080fd5b61023461022f36600461385c565b610529565b005b6102496102443660046138b8565b610c62565b60405190151581526020015b60405180910390f35b610266610c73565b6040516102559190613925565b610286610281366004613938565b610d05565b6040516001600160a01b039091168152602001610255565b6102346102ac36600461396d565b610d2c565b6102346102bf366004613997565b610e53565b6102d76102d23660046139d3565b610e5e565b60405161025596959493929190613a29565b6102346102f7366004613a63565b610f5b565b61023461030a366004613997565b6117ad565b61023461031d366004613a85565b6117c8565b610266610330366004613938565b6117e0565b600a54610286906001600160a01b031681565b610286610356366004613938565b61188c565b61036e610369366004613ab9565b6118ec565b604051908152602001610255565b610234611972565b610234610392366004613ad4565b611986565b6103aa6103a5366004613a85565b6119ca565b604051610255929190613b31565b6103cb6103c6366004613a85565b611a7a565b6040516102559190613b85565b6102346103e6366004613b98565b611aed565b6007546001600160a01b0316610286565b6102d761040a366004613938565b611d20565b61042261041d366004613c56565b611d50565b6040516102559190613c97565b610266611dcd565b610266611ddc565b61023461044d366004613cf2565b611de9565b61045a611dfb565b604051610255929190613d29565b610234610476366004613d9f565b611f2f565b6103cb610489366004613a85565b612172565b61023461049c366004613ab9565b6121e3565b6102666104af366004613938565b61220d565b61036e6104c2366004613938565b612218565b61036e60125481565b601354610286906001600160a01b031681565b6102496104f1366004613e0e565b612239565b610509610504366004613e41565b612299565b6040516102559190613e93565b610234610524366004613ab9565b6123f7565b600b816040516105399190613f33565b9081526040805160209281900383019020336000908152600390910190925290205460ff16156105b05760405162461bcd60e51b815260206004820152601760248201527f59612074656e657320756e207061636b2077616368696e00000000000000000060448201526064015b60405180910390fd5b6001600b826040516105c29190613f33565b908152604080516020928190038301812033600090815260039091019093529120805460ff1916921515929092179091558290600b90610603908490613f33565b90815260405190819003602001902054146106605760405162461bcd60e51b815260206004820152601960248201527f53656e6420657861637420707269636520666f72205061636b0000000000000060448201526064016105a7565b6000606461066f84604b613f65565b6106799190613f92565b9050806012600082825461068d9190613fa6565b90915550506013546040516323b872dd60e01b8152336004820152306024820152604481018390526001600160a01b03909116906323b872dd906064016020604051808303816000875af11580156106e9573d6000803e3d6000fd5b505050506040513d601f19601f8201168201806040525081019061070d9190613fb9565b50601354600a546001600160a01b03918216916323b872dd913391166107338588613fd6565b6040516001600160e01b031960e086901b1681526001600160a01b03938416600482015292909116602483015260448201526064016020604051808303816000875af1158015610787573d6000803e3d6000fd5b505050506040513d601f19601f820116820180604052508101906107ab9190613fb9565b506000600b836040516107be9190613f33565b9081526040805160209281900383018120600201544293820193909352016040516020818303038152906040528051906020012060001c6107ff9190613fe9565b90506000600b846040516108139190613f33565b9081526020016040518091039020600201828154811061083557610835613ffd565b90600052602060002001549050600b846040516108529190613f33565b90815260200160405180910390206002016001600b866040516108759190613f33565b908152604051908190036020019020600201546108929190613fd6565b815481106108a2576108a2613ffd565b9060005260206000200154600b856040516108bd9190613f33565b908152602001604051809103902060020183815481106108df576108df613ffd565b9060005260206000200181905550600b846040516108fd9190613f33565b908152602001604051809103902060020180548061091d5761091d614013565b600190038181906000526020600020016000905590556109dc33600b866040516109479190613f33565b9081526020016040518091039020600401604051806040016040528060018152602001602f60f81b81525061097b85612470565b60405180604001604052806005815260200164173539b7b760d91b8152506040516020016109ac94939291906140d6565b60408051601f19818403018152919052600060016109cb600687613f92565b6109d59190613fd6565b8886612578565b505060005b6005811015610c23576000600b846040516109fc9190613f33565b9081526040805160209281900383018120600101544293820193909352016040516020818303038152906040528051906020012060001c610a3d9190613fe9565b90506000600b85604051610a519190613f33565b90815260200160405180910390206001018281548110610a7357610a73613ffd565b90600052602060002001549050600b85604051610a909190613f33565b90815260200160405180910390206001016001600b87604051610ab39190613f33565b90815260405190819003602001902060010154610ad09190613fd6565b81548110610ae057610ae0613ffd565b9060005260206000200154600b86604051610afb9190613f33565b90815260200160405180910390206001018381548110610b1d57610b1d613ffd565b9060005260206000200181905550600b85604051610b3b9190613f33565b9081526020016040518091039020600101805480610b5b57610b5b614013565b60019003818190600052602060002001600090559055610c0e33600b87604051610b859190613f33565b9081526020016040518091039020600401604051806040016040528060018152602001602f60f81b815250610bb985612470565b60405180604001604052806005815260200164173539b7b760d91b815250604051602001610bea94939291906140d6565b60408051601f198184030181529190526001610c07600686613f92565b8986612578565b50508080610c1b90614123565b9150506109e1565b507f55d44f7f091f0389b4dcb1b6ae002ed20fe8229c546e6aaf1ccac2646cdf514c3383604051610c5592919061413c565b60405180910390a1505050565b6000610c6d82612685565b92915050565b606060008054610c8290614029565b80601f0160208091040260200160405190810160405280929190818152602001828054610cae90614029565b8015610cfb5780601f10610cd057610100808354040283529160200191610cfb565b820191906000526020600020905b815481529060010190602001808311610cde57829003601f168201915b5050505050905090565b6000610d10826126aa565b506000908152600460205260409020546001600160a01b031690565b6000610d378261188c565b9050806001600160a01b0316836001600160a01b031603610da45760405162461bcd60e51b815260206004820152602160248201527f4552433732313a20617070726f76616c20746f2063757272656e74206f776e656044820152603960f91b60648201526084016105a7565b806001600160a01b0316610db6612709565b6001600160a01b03161480610dd25750610dd2816104f1612709565b610e445760405162461bcd60e51b815260206004820152603d60248201527f4552433732313a20617070726f76652063616c6c6572206973206e6f7420746f60448201527f6b656e206f776e6572206f7220617070726f76656420666f7220616c6c00000060648201526084016105a7565b610e4e8383612718565b505050565b610e4e8383836117ad565b600e6020908152600084815260409020835180850183018051928152908301928501929092209152805482908110610e9557600080fd5b90600052602060002090600602016000925092505050806000015490806001015490806002015490806003018054610ecc90614029565b80601f0160208091040260200160405190810160405280929190818152602001828054610ef890614029565b8015610f455780601f10610f1a57610100808354040283529160200191610f45565b820191906000526020600020905b815481529060010190602001808311610f2857829003601f168201915b5050505050908060040154908060050154905086565b33610f658361188c565b6001600160a01b031614610fb35760405162461bcd60e51b8152602060048201526015602482015274151a1a5cc81a5cc81b9bdd081e5bdd5c8818d85c99605a1b60448201526064016105a7565b33610fbd8261188c565b6001600160a01b03161461100c5760405162461bcd60e51b815260206004820152601660248201527554686973206973206e6f7420796f757220616c62756d60501b60448201526064016105a7565b6000818152600c6020526040902060010154156110625760405162461bcd60e51b815260206004820152601460248201527363617264206973206e6f7420616e20616c62756d60601b60448201526064016105a7565b6000828152600c60205260408120600301805461107e90614029565b80601f01602080910402602001604051908101604052809291908181526020018280546110aa90614029565b80156110f75780601f106110cc576101008083540402835291602001916110f7565b820191906000526020600020905b8154815290600101906020018083116110da57829003601f168201915b5050505050905060005b336000908152600e602052604090819020905161111f908490613f33565b9081526040519081900360200190205460ff82161015611365576000848152600c6020908152604080832060050154338452600e90925291829020915190919061116a908590613f33565b90815260200160405180910390208260ff168154811061118c5761118c613ffd565b9060005260206000209060060201600501540361135357336000908152600e60205260409081902090516111c1908490613f33565b90815260200160405180910390206001600e6000336001600160a01b03166001600160a01b03168152602001908152602001600020846040516112049190613f33565b9081526040519081900360200190205461121e9190613fd6565b8154811061122e5761122e613ffd565b60009182526020808320338452600e9091526040928390209251600690920201919061125b908590613f33565b90815260200160405180910390208260ff168154811061127d5761127d613ffd565b9060005260206000209060060201600082015481600001556001820154816001015560028201548160020155600382018160030190816112bd91906141ae565b5060048281015490820155600591820154910155336000908152600e60205260409081902090516112ef908490613f33565b908152602001604051809103902080548061130c5761130c614013565b6000828152602081206006600019909301928302018181556001810182905560028101829055906113406003830182613763565b5060006004820181905560059091015590555b8061135d8161428a565b915050611101565b5061136f83612786565b6000828152600c6020526040812060040180549161138c83614123565b9091555050336000908152600e60209081526040808320868452600c90925291829020915190916113c2916003909101906142a9565b90815260200160405180910390206000815481106113e2576113e2613ffd565b60009182526020822060046006909202010180549161140083614123565b90915550506000828152600c6020526040902060040154600503610e4e576000828152600c60205260408120600301805461143a90614029565b80601f016020809104026020016040519081016040528092919081815260200182805461146690614029565b80156114b35780601f10611488576101008083540402835291602001916114b3565b820191906000526020600020905b81548152906001019060200180831161149657829003601f168201915b505050505090506007600d826040516114cc9190613f33565b9081526040519081900360200190205410156116ad57600d816040516114f29190613f33565b908152604051908190036020908101822080546001818101835560009283529282200180546001600160a01b0319163317905591600a91600f91600d9061153a908790613f33565b908152604051908190036020019020546115549190613fd6565b6007811061156457611564613ffd565b602091828204019190069054906101000a900460ff1660ff16600b8460405161158d9190613f33565b908152604051908190036020019020546115a79190613f65565b6115b19190613f92565b905060125481111561161e5760405162461bcd60e51b815260206004820152603060248201527f5072697a65206d757374206265206c6f776572206f7220657175616c2074686160448201526f6e207072697a65732062616c616e636560801b60648201526084016105a7565b80601260008282546116309190613fd6565b909155505060135460405163a9059cbb60e01b8152336004820152602481018390526001600160a01b039091169063a9059cbb906044016020604051808303816000875af1158015611686573d6000803e3d6000fd5b505050506040513d601f19601f820116820180604052508101906116aa9190613fb9565b50505b61175183600b836040516116c19190613f33565b9081526020016040518091039020600401604051806040016040528060018152602001602f60f81b81525061170b600c600089815260200190815260200160002060050154612470565b6040518060400160405280600681526020016523173539b7b760d11b81525060405160200161173d94939291906140d6565b60405160208183030381529060405261278f565b7f953ec8b8176b9eb94e1561816a70bc231210aee5f1aaa59fdbad7915f9ad3c963382600d846040516117849190613f33565b9081526040519081900360200181205461179f9392916142b5565b60405180910390a150505050565b610e4e83838360405180602001604052806000815250611f2f565b6117d061285a565b60096117dc82826142e9565b5050565b601081815481106117f057600080fd5b90600052602060002001600091509050805461180b90614029565b80601f016020809104026020016040519081016040528092919081815260200182805461183790614029565b80156118845780601f1061185957610100808354040283529160200191611884565b820191906000526020600020905b81548152906001019060200180831161186757829003601f168201915b505050505081565b6000818152600260205260408120546001600160a01b031680610c6d5760405162461bcd60e51b8152602060048201526018602482015277115490cdcc8c4e881a5b9d985b1a59081d1bdad95b88125160421b60448201526064016105a7565b60006001600160a01b0382166119565760405162461bcd60e51b815260206004820152602960248201527f4552433732313a2061646472657373207a65726f206973206e6f7420612076616044820152683634b21037bbb732b960b91b60648201526084016105a7565b506001600160a01b031660009081526003602052604090205490565b61197a61285a565b61198460006128d3565b565b61198e61285a565b600961199a84826142e9565b50601380546001600160a01b039384166001600160a01b031991821617909155600a805492909316911617905550565b8051602081830181018051600b82529282019190930120915280546004820180549192916119f790614029565b80601f0160208091040260200160405190810160405280929190818152602001828054611a2390614029565b8015611a705780601f10611a4557610100808354040283529160200191611a70565b820191906000526020600020905b815481529060010190602001808311611a5357829003601f168201915b5050505050905082565b6060600b82604051611a8c9190613f33565b9081526040805191829003602090810183206001018054808302850183019093528284529190830182828015611ae157602002820191906000526020600020905b815481526020019060010190808311611acd575b50505050509050919050565b611af561285a565b655af3107a4000831015611b5a5760405162461bcd60e51b815260206004820152602660248201527f7061636b2076616c7565206d757374206265206174206c6561737420302e303060448201526530312044414960d01b60648201526084016105a7565b611b65600683613fe9565b15611bb25760405162461bcd60e51b815260206004820152601c60248201527f416d6f756e74206d757374206265206d756c7469706c65206f6620360000000060448201526064016105a7565b82600b85604051611bc39190613f33565b908152604051908190036020018120919091558190600b90611be6908790613f33565b90815260200160405180910390206004019081611c0391906142e9565b50601080546001810182556000919091527f1b6847dc741a1b0cd08d278845f9d819d87b734759afb55fe2de5cb82a9ae67201611c4085826142e9565b5060118054600181810183556000929092527f31ecc21a745e3968a04e9570e4425bc18fa8019c68028196b546d1669c200c68018490555b828111611d1957611c8a600682613fe9565b600003611ccd57600b85604051611ca19190613f33565b908152604051602091819003820190206002018054600181018255600091825291902001819055611d07565b600b85604051611cdd9190613f33565b90815260405160209181900382019020600190810180549182018155600090815291909120018190555b80611d1181614123565b915050611c78565b5050505050565b600c60205260009081526040902080546001820154600283015460038401805493949293919291610ecc90614029565b6060600d8383604051611d649291906143a0565b9081526040805191829003602090810183208054808302850183019093528284529190830182828015611dc057602002820191906000526020600020905b81546001600160a01b03168152600190910190602001808311611da2575b5050505050905092915050565b606060018054610c8290614029565b6009805461180b90614029565b6117dc611df4612709565b8383612925565b6060806010601181805480602002602001604051908101604052809291908181526020016000905b82821015611ecf578382906000526020600020018054611e4290614029565b80601f0160208091040260200160405190810160405280929190818152602001828054611e6e90614029565b8015611ebb5780601f10611e9057610100808354040283529160200191611ebb565b820191906000526020600020905b815481529060010190602001808311611e9e57829003601f168201915b505050505081526020019060010190611e23565b50505050915080805480602002602001604051908101604052809291908181526020018280548015611f2057602002820191906000526020600020905b815481526020019060010190808311611f0c575b50505050509050915091509091565b6000828152600c602052604081206003018054611f4b90614029565b80601f0160208091040260200160405190810160405280929190818152602001828054611f7790614029565b8015611fc45780601f10611f9957610100808354040283529160200191611fc4565b820191906000526020600020905b815481529060010190602001808311611fa757829003601f168201915b50505050509050611fd481612172565b51156120345760405162461bcd60e51b815260206004820152602960248201527f54686572652061726520616c62756d7320617661696c61626c6520696e20746860448201526834b99039b2b0b9b7b760b91b60648201526084016105a7565b612040858585856129f3565b6000838152600c6020526040902060019081015490036120f557600b8160405161206a9190613f33565b90815260408051602092819003830190206001600160a01b0387166000908152600390910190925290205460ff166120f05760405162461bcd60e51b815260206004820152602360248201527f5265636569766572206973206e6f7420706c6179696e6720746869732073656160448201526239b7b760e91b60648201526084016105a7565b612167565b6000838152600c60205260409020600401546005146121675760405162461bcd60e51b815260206004820152602860248201527f4f6e6c7920636f6d706c6574656420616c62756d732063616e206265207472616044820152671b9cd9995c9c995960c21b60648201526084016105a7565b611d19858585612a78565b6060600b826040516121849190613f33565b9081526040805191829003602090810183206002018054808302850183019093528284529190830182828015611ae15760200282019190600052602060002090815481526020019060010190808311611acd5750505050509050919050565b6121eb61285a565b600a80546001600160a01b0319166001600160a01b0392909216919091179055565b6060610c6d82612e52565b6011818154811061222857600080fd5b600091825260209091200154905081565b60007358807bad0b376efc12f5ad86aac70e78ed67dead196001600160a01b0383160161226857506001610c6d565b6001600160a01b0380841660009081526005602090815260408083209386168352929052205460ff165b9392505050565b6001600160a01b0383166000908152600e6020526040908190209051606091906122c690859085906143a0565b9081526020016040518091039020805480602002602001604051908101604052809291908181526020016000905b828210156123ea57838290600052602060002090600602016040518060c001604052908160008201548152602001600182015481526020016002820154815260200160038201805461234590614029565b80601f016020809104026020016040519081016040528092919081815260200182805461237190614029565b80156123be5780601f10612393576101008083540402835291602001916123be565b820191906000526020600020905b8154815290600101906020018083116123a157829003601f168201915b5050505050815260200160048201548152602001600582015481525050815260200190600101906122f4565b5050505090509392505050565b6123ff61285a565b6001600160a01b0381166124645760405162461bcd60e51b815260206004820152602660248201527f4f776e61626c653a206e6577206f776e657220697320746865207a65726f206160448201526564647265737360d01b60648201526084016105a7565b61246d816128d3565b50565b6060816000036124975750506040805180820190915260018152600360fc1b602082015290565b8160005b81156124c157806124ab81614123565b91506124ba9050600a83613f92565b915061249b565b6000816001600160401b038111156124db576124db6137b1565b6040519080825280601f01601f191660200182016040528015612505576020820181803683370190505b5090505b84156125705761251a600183613fd6565b9150612527600a86613fe9565b612532906030613fa6565b60f81b81838151811061254757612547613ffd565b60200101906001600160f81b031916908160001a905350612569600a86613f92565b9450612509565b949350505050565b6008805490600190600061258c8385613fa6565b90915550506000818152600c6020526040902081815560018101869055600281018590556003016125bd84826142e9565b506000818152600c602090815260408083206005018590556001600160a01b038a168352600e9091529081902090516125f7908590613f33565b90815260408051602092819003830190206000848152600c845291822081546001808201845592845293909220825460069094020192835580820154908301556002808201549083015590600380820190612654908401826141ae565b50600482810154908201556005918201549101556126728782612f4d565b61267c818761278f565b50505050505050565b60006001600160e01b03198216632483248360e11b1480610c6d5750610c6d826130e6565b6000818152600260205260409020546001600160a01b031661246d5760405162461bcd60e51b8152602060048201526018602482015277115490cdcc8c4e881a5b9d985b1a59081d1bdad95b88125160421b60448201526064016105a7565b6000612713613136565b905090565b600081815260046020526040902080546001600160a01b0319166001600160a01b038416908117909155819061274d8261188c565b6001600160a01b03167f8c5be1e5ebec7d5bd14f71427d1e84f3dd0314c0f7b2291e5b200ac8c7c3b92560405160405180910390a45050565b61246d81613192565b6000828152600260205260409020546001600160a01b031661280a5760405162461bcd60e51b815260206004820152602e60248201527f45524337323155524953746f726167653a2055524920736574206f66206e6f6e60448201526d32bc34b9ba32b73a103a37b5b2b760911b60648201526084016105a7565b600082815260066020526040902061282282826142e9565b506040518281527ff8e1a15aba9398e019f0b49df1a4fde98ee17ae345cb5f6b5e2c27f5033e8ce79060200160405180910390a15050565b612862612709565b6001600160a01b031661287d6007546001600160a01b031690565b6001600160a01b0316146119845760405162461bcd60e51b815260206004820181905260248201527f4f776e61626c653a2063616c6c6572206973206e6f7420746865206f776e657260448201526064016105a7565b600780546001600160a01b038381166001600160a01b0319831681179093556040519116919082907f8be0079c531659141344cd1fd0a4f28419497f9722a3daafe3b4186f6b6457e090600090a35050565b816001600160a01b0316836001600160a01b0316036129865760405162461bcd60e51b815260206004820152601960248201527f4552433732313a20617070726f766520746f2063616c6c65720000000000000060448201526064016105a7565b6001600160a01b03838116600081815260056020908152604080832094871680845294825291829020805460ff191686151590811790915591519182527f17307eab39ab6107e8899845ad3d59bd9653f200f220920489ca2b5937696c31910160405180910390a3505050565b612a046129fe612709565b836131d2565b612a665760405162461bcd60e51b815260206004820152602d60248201527f4552433732313a2063616c6c6572206973206e6f7420746f6b656e206f776e6560448201526c1c881bdc88185c1c1c9bdd9959609a1b60648201526084016105a7565b612a7284848484613230565b50505050565b6000818152600c602052604081206003018054612a9490614029565b80601f0160208091040260200160405190810160405280929190818152602001828054612ac090614029565b8015612b0d5780601f10612ae257610100808354040283529160200191612b0d565b820191906000526020600020905b815481529060010190602001808311612af057829003601f168201915b5050505050905060005b6001600160a01b0385166000908152600e6020526040908190209051612b3e908490613f33565b9081526040519081900360200190205460ff82161015612db3576000838152600c60209081526040808320600501546001600160a01b0389168452600e909252918290209151909190612b92908590613f33565b90815260200160405180910390208260ff1681548110612bb457612bb4613ffd565b90600052602060002090600602016005015403612da1576001600160a01b0385166000908152600e6020526040908190209051612bf2908490613f33565b90815260200160405180910390206001600e6000886001600160a01b03166001600160a01b0316815260200190815260200160002084604051612c359190613f33565b90815260405190819003602001902054612c4f9190613fd6565b81548110612c5f57612c5f613ffd565b9060005260206000209060060201600e6000876001600160a01b03166001600160a01b0316815260200190815260200160002083604051612ca09190613f33565b90815260200160405180910390208260ff1681548110612cc257612cc2613ffd565b906000526020600020906006020160008201548160000155600182015481600101556002820154816002015560038201816003019081612d0291906141ae565b50600482810154908201556005918201549101556001600160a01b0385166000908152600e6020526040908190209051612d3d908490613f33565b9081526020016040518091039020805480612d5a57612d5a614013565b600082815260208120600660001990930192830201818155600181018290556002810182905590612d8e6003830182613763565b5060006004820181905560059091015590555b80612dab8161428a565b915050612b17565b506001600160a01b0383166000908152600e6020526040908190209051612ddb908390613f33565b90815260408051602092819003830190206000858152600c845291822081546001808201845592845293909220825460069094020192835580820154908301556002808201549083015590600380820190612e38908401826141ae565b506004828101549082015560059182015491015550505050565b6060612e5d826126aa565b60008281526006602052604081208054612e7690614029565b80601f0160208091040260200160405190810160405280929190818152602001828054612ea290614029565b8015612eef5780601f10612ec457610100808354040283529160200191612eef565b820191906000526020600020905b815481529060010190602001808311612ed257829003601f168201915b505050505090506000612f00613263565b90508051600003612f12575092915050565b815115612f44578082604051602001612f2c9291906143b0565b60405160208183030381529060405292505050919050565b61257084613272565b6001600160a01b038216612fa35760405162461bcd60e51b815260206004820181905260248201527f4552433732313a206d696e7420746f20746865207a65726f206164647265737360448201526064016105a7565b6000818152600260205260409020546001600160a01b0316156130085760405162461bcd60e51b815260206004820152601c60248201527f4552433732313a20746f6b656e20616c7265616479206d696e7465640000000060448201526064016105a7565b6130166000838360016132d8565b6000818152600260205260409020546001600160a01b03161561307b5760405162461bcd60e51b815260206004820152601c60248201527f4552433732313a20746f6b656e20616c7265616479206d696e7465640000000060448201526064016105a7565b6001600160a01b038216600081815260036020908152604080832080546001019055848352600290915280822080546001600160a01b0319168417905551839291907fddf252ad1be2c89b69c2b068fc378daa952ba7f163c4a11628f55a4df523b3ef908290a45050565b60006001600160e01b031982166380ac58cd60e01b148061311757506001600160e01b03198216635b5e139f60e01b145b80610c6d57506301ffc9a760e01b6001600160e01b0319831614610c6d565b600030330361318c57600080368080601f0160208091040260200160405190810160405280939291908181526020018383808284376000920191909152505050503601516001600160a01b0316915061318f9050565b50335b90565b61319b816132dd565b600081815260066020526040902080546131b490614029565b15905061246d57600081815260066020526040812061246d91613763565b6000806131de8361188c565b9050806001600160a01b0316846001600160a01b0316148061320557506132058185612239565b806125705750836001600160a01b031661321e84610d05565b6001600160a01b031614949350505050565b61323b848484613380565b613247848484846134f1565b612a725760405162461bcd60e51b81526004016105a7906143df565b606060098054610c8290614029565b606061327d826126aa565b6000613287613263565b905060008151116132a75760405180602001604052806000815250612292565b806132b1846135f9565b6040516020016132c29291906143b0565b6040516020818303038152906040529392505050565b612a72565b60006132e88261188c565b90506132f88160008460016132d8565b6133018261188c565b600083815260046020908152604080832080546001600160a01b03199081169091556001600160a01b0385168085526003845282852080546000190190558785526002909352818420805490911690555192935084927fddf252ad1be2c89b69c2b068fc378daa952ba7f163c4a11628f55a4df523b3ef908390a45050565b826001600160a01b03166133938261188c565b6001600160a01b0316146133b95760405162461bcd60e51b81526004016105a790614431565b6001600160a01b03821661341b5760405162461bcd60e51b8152602060048201526024808201527f4552433732313a207472616e7366657220746f20746865207a65726f206164646044820152637265737360e01b60648201526084016105a7565b61342883838360016132d8565b826001600160a01b031661343b8261188c565b6001600160a01b0316146134615760405162461bcd60e51b81526004016105a790614431565b600081815260046020908152604080832080546001600160a01b03199081169091556001600160a01b0387811680865260038552838620805460001901905590871680865283862080546001019055868652600290945282852080549092168417909155905184937fddf252ad1be2c89b69c2b068fc378daa952ba7f163c4a11628f55a4df523b3ef91a4505050565b60006001600160a01b0384163b156135ee57836001600160a01b031663150b7a0261351a612709565b8786866040518563ffffffff1660e01b815260040161353c9493929190614476565b6020604051808303816000875af1925050508015613577575060408051601f3d908101601f19168201909252613574918101906144b3565b60015b6135d4573d8080156135a5576040519150601f19603f3d011682016040523d82523d6000602084013e6135aa565b606091505b5080516000036135cc5760405162461bcd60e51b81526004016105a7906143df565b805181602001fd5b6001600160e01b031916630a85bd0160e11b149050612570565b506001949350505050565b606060006136068361368b565b60010190506000816001600160401b03811115613625576136256137b1565b6040519080825280601f01601f19166020018201604052801561364f576020820181803683370190505b5090508181016020015b600019016f181899199a1a9b1b9c1cb0b131b232b360811b600a86061a8153600a850494508461365957509392505050565b60008072184f03e93ff9f4daa797ed6e38ed64bf6a1f0160401b83106136ca5772184f03e93ff9f4daa797ed6e38ed64bf6a1f0160401b830492506040015b6d04ee2d6d415b85acef810000000083106136f6576d04ee2d6d415b85acef8100000000830492506020015b662386f26fc10000831061371457662386f26fc10000830492506010015b6305f5e100831061372c576305f5e100830492506008015b612710831061374057612710830492506004015b60648310613752576064830492506002015b600a8310610c6d5760010192915050565b50805461376f90614029565b6000825580601f1061377f575050565b601f01602090049060005260206000209081019061246d91905b808211156137ad5760008155600101613799565b5090565b634e487b7160e01b600052604160045260246000fd5b60006001600160401b03808411156137e1576137e16137b1565b604051601f8501601f19908116603f01168101908282118183101715613809576138096137b1565b8160405280935085815286868601111561382257600080fd5b858560208301376000602087830101525050509392505050565b600082601f83011261384d57600080fd5b612292838335602085016137c7565b6000806040838503121561386f57600080fd5b8235915060208301356001600160401b0381111561388c57600080fd5b6138988582860161383c565b9150509250929050565b6001600160e01b03198116811461246d57600080fd5b6000602082840312156138ca57600080fd5b8135612292816138a2565b60005b838110156138f05781810151838201526020016138d8565b50506000910152565b600081518084526139118160208601602086016138d5565b601f01601f19169290920160200192915050565b60208152600061229260208301846138f9565b60006020828403121561394a57600080fd5b5035919050565b80356001600160a01b038116811461396857600080fd5b919050565b6000806040838503121561398057600080fd5b61398983613951565b946020939093013593505050565b6000806000606084860312156139ac57600080fd5b6139b584613951565b92506139c360208501613951565b9150604084013590509250925092565b6000806000606084860312156139e857600080fd5b6139f184613951565b925060208401356001600160401b03811115613a0c57600080fd5b613a188682870161383c565b925050604084013590509250925092565b86815285602082015284604082015260c060608201526000613a4e60c08301866138f9565b60808301949094525060a00152949350505050565b60008060408385031215613a7657600080fd5b50508035926020909101359150565b600060208284031215613a9757600080fd5b81356001600160401b03811115613aad57600080fd5b6125708482850161383c565b600060208284031215613acb57600080fd5b61229282613951565b600080600060608486031215613ae957600080fd5b83356001600160401b03811115613aff57600080fd5b613b0b8682870161383c565b935050613b1a60208501613951565b9150613b2860408501613951565b90509250925092565b82815260406020820152600061257060408301846138f9565b600081518084526020808501945080840160005b83811015613b7a57815187529582019590820190600101613b5e565b509495945050505050565b6020815260006122926020830184613b4a565b60008060008060808587031215613bae57600080fd5b84356001600160401b0380821115613bc557600080fd5b613bd18883890161383c565b955060208701359450604087013593506060870135915080821115613bf557600080fd5b50613c028782880161383c565b91505092959194509250565b60008083601f840112613c2057600080fd5b5081356001600160401b03811115613c3757600080fd5b602083019150836020828501011115613c4f57600080fd5b9250929050565b60008060208385031215613c6957600080fd5b82356001600160401b03811115613c7f57600080fd5b613c8b85828601613c0e565b90969095509350505050565b6020808252825182820181905260009190848201906040850190845b81811015613cd85783516001600160a01b031683529284019291840191600101613cb3565b50909695505050505050565b801515811461246d57600080fd5b60008060408385031215613d0557600080fd5b613d0e83613951565b91506020830135613d1e81613ce4565b809150509250929050565b6000604082016040835280855180835260608501915060608160051b8601019250602080880160005b83811015613d8057605f19888703018552613d6e8683516138f9565b95509382019390820190600101613d52565b505085840381870152505050613d968185613b4a565b95945050505050565b60008060008060808587031215613db557600080fd5b613dbe85613951565b9350613dcc60208601613951565b92506040850135915060608501356001600160401b03811115613dee57600080fd5b8501601f81018713613dff57600080fd5b613c02878235602084016137c7565b60008060408385031215613e2157600080fd5b613e2a83613951565b9150613e3860208401613951565b90509250929050565b600080600060408486031215613e5657600080fd5b613e5f84613951565b925060208401356001600160401b03811115613e7a57600080fd5b613e8686828701613c0e565b9497909650939450505050565b60006020808301818452808551808352604092508286019150828160051b87010184880160005b83811015613f2557603f19898403018552815160c081518552888201518986015287820151888601526060808301518282880152613efa838801826138f9565b6080858101519089015260a09485015194909701939093525050509386019390860190600101613eba565b509098975050505050505050565b60008251613f458184602087016138d5565b9190910192915050565b634e487b7160e01b600052601160045260246000fd5b8082028115828204841417610c6d57610c6d613f4f565b634e487b7160e01b600052601260045260246000fd5b600082613fa157613fa1613f7c565b500490565b80820180821115610c6d57610c6d613f4f565b600060208284031215613fcb57600080fd5b815161229281613ce4565b81810381811115610c6d57610c6d613f4f565b600082613ff857613ff8613f7c565b500690565b634e487b7160e01b600052603260045260246000fd5b634e487b7160e01b600052603160045260246000fd5b600181811c9082168061403d57607f821691505b60208210810361405d57634e487b7160e01b600052602260045260246000fd5b50919050565b6000815461407081614029565b60018281168015614088576001811461409d576140cc565b60ff19841687528215158302870194506140cc565b8560005260208060002060005b858110156140c35781548a8201529084019082016140aa565b50505082870194505b5050505092915050565b60006140e28287614063565b85516140f2818360208a016138d5565b85519101906141058183602089016138d5565b84519101906141188183602088016138d5565b019695505050505050565b60006001820161413557614135613f4f565b5060010190565b6001600160a01b0383168152604060208201819052600090612570908301846138f9565b601f821115610e4e57600081815260208120601f850160051c810160208610156141875750805b601f850160051c820191505b818110156141a657828155600101614193565b505050505050565b8181036141b9575050565b6141c38254614029565b6001600160401b038111156141da576141da6137b1565b6141ee816141e88454614029565b84614160565b6000601f821160018114614222576000831561420a5750848201545b600019600385901b1c1916600184901b178455611d19565b600085815260209020601f19841690600086815260209020845b8381101561425c578286015482556001958601959091019060200161423c565b508583101561427a5781850154600019600388901b60f8161c191681555b5050505050600190811b01905550565b600060ff821660ff81036142a0576142a0613f4f565b60010192915050565b60006122928284614063565b6001600160a01b03841681526060602082018190526000906142d9908301856138f9565b9050826040830152949350505050565b81516001600160401b03811115614302576143026137b1565b614310816141e88454614029565b602080601f831160018114614345576000841561432d5750858301515b600019600386901b1c1916600185901b1785556141a6565b600085815260208120601f198616915b8281101561437457888601518255948401946001909101908401614355565b508582101561427a57939096015160001960f8600387901b161c19169092555050600190811b01905550565b8183823760009101908152919050565b600083516143c28184602088016138d5565b8351908301906143d68183602088016138d5565b01949350505050565b60208082526032908201527f4552433732313a207472616e7366657220746f206e6f6e20455243373231526560408201527131b2b4bb32b91034b6b83632b6b2b73a32b960711b606082015260800190565b60208082526025908201527f4552433732313a207472616e736665722066726f6d20696e636f72726563742060408201526437bbb732b960d91b606082015260800190565b6001600160a01b03858116825284166020820152604081018390526080606082018190526000906144a9908301846138f9565b9695505050505050565b6000602082840312156144c557600080fd5b8151612292816138a256fea26469706673582212207cae2c97a645048b47d0b2429ea7b106fe9044d36f976c9ca117019dab73d24e64736f6c63430008140033",
  "linkReferences": {},
  "deployedLinkReferences": {}
}