{
  "_format": "hh-sol-artifact-1",
  "contractName": "NofGammaPacksV3",
  "sourceName": "contracts/gamma/GammaPacks.v3.sol",
  "abi": [
    {
      "inputs": [
        {
          "internalType": "address",
          "name": "_daiTokenAddress",
          "type": "address"
        },
        {
          "internalType": "address",
          "name": "_balanceReceiver",
          "type": "address"
        }
      ],
      "stateMutability": "nonpayable",
      "type": "constructor"
    },
    {
      "anonymous": false,
      "inputs": [
        {
          "indexed": false,
          "internalType": "address",
          "name": "newCardsContract",
          "type": "address"
        }
      ],
      "name": "NewGammaCardsContract",
      "type": "event"
    },
    {
      "anonymous": false,
      "inputs": [
        {
          "indexed": false,
          "internalType": "uint256",
          "name": "newPrice",
          "type": "uint256"
        }
      ],
      "name": "NewPrice",
      "type": "event"
    },
    {
      "anonymous": false,
      "inputs": [
        {
          "indexed": true,
          "internalType": "address",
          "name": "previousOwner",
          "type": "address"
        },
        {
          "indexed": true,
          "internalType": "address",
          "name": "newOwner",
          "type": "address"
        }
      ],
      "name": "OwnershipTransferred",
      "type": "event"
    },
    {
      "anonymous": false,
      "inputs": [
        {
          "indexed": false,
          "internalType": "address",
          "name": "user",
          "type": "address"
        },
        {
          "indexed": false,
          "internalType": "uint256",
          "name": "tokenId",
          "type": "uint256"
        }
      ],
      "name": "PackOpen",
      "type": "event"
    },
    {
      "anonymous": false,
      "inputs": [
        {
          "indexed": false,
          "internalType": "address",
          "name": "buyer",
          "type": "address"
        },
        {
          "indexed": false,
          "internalType": "uint256",
          "name": "tokenId",
          "type": "uint256"
        }
      ],
      "name": "PackPurchase",
      "type": "event"
    },
    {
      "anonymous": false,
      "inputs": [
        {
          "indexed": false,
          "internalType": "address",
          "name": "from",
          "type": "address"
        },
        {
          "indexed": false,
          "internalType": "address",
          "name": "to",
          "type": "address"
        },
        {
          "indexed": false,
          "internalType": "uint256",
          "name": "tokenId",
          "type": "uint256"
        }
      ],
      "name": "PackTransfer",
      "type": "event"
    },
    {
      "anonymous": false,
      "inputs": [
        {
          "indexed": false,
          "internalType": "address",
          "name": "buyer",
          "type": "address"
        },
        {
          "indexed": false,
          "internalType": "uint256[]",
          "name": "tokenIds",
          "type": "uint256[]"
        }
      ],
      "name": "PacksPurchase",
      "type": "event"
    },
    {
      "inputs": [],
      "name": "DAI_TOKEN",
      "outputs": [
        {
          "internalType": "address",
          "name": "",
          "type": "address"
        }
      ],
      "stateMutability": "view",
      "type": "function"
    },
    {
      "inputs": [
        {
          "internalType": "address",
          "name": "_newOwner",
          "type": "address"
        }
      ],
      "name": "addOwner",
      "outputs": [],
      "stateMutability": "nonpayable",
      "type": "function"
    },
    {
      "inputs": [],
      "name": "balanceReceiver",
      "outputs": [
        {
          "internalType": "address",
          "name": "",
          "type": "address"
        }
      ],
      "stateMutability": "view",
      "type": "function"
    },
    {
      "inputs": [],
      "name": "buyPack",
      "outputs": [
        {
          "internalType": "uint256",
          "name": "",
          "type": "uint256"
        }
      ],
      "stateMutability": "nonpayable",
      "type": "function"
    },
    {
      "inputs": [
        {
          "internalType": "address",
          "name": "user",
          "type": "address"
        }
      ],
      "name": "buyPackByUser",
      "outputs": [
        {
          "internalType": "uint256",
          "name": "",
          "type": "uint256"
        }
      ],
      "stateMutability": "nonpayable",
      "type": "function"
    },
    {
      "inputs": [
        {
          "internalType": "uint256",
          "name": "numberOfPacks",
          "type": "uint256"
        }
      ],
      "name": "buyPacks",
      "outputs": [
        {
          "internalType": "uint256[]",
          "name": "",
          "type": "uint256[]"
        }
      ],
      "stateMutability": "nonpayable",
      "type": "function"
    },
    {
      "inputs": [
        {
          "internalType": "address",
          "name": "user",
          "type": "address"
        },
        {
          "internalType": "uint256",
          "name": "numberOfPacks",
          "type": "uint256"
        }
      ],
      "name": "buyPacksByUser",
      "outputs": [
        {
          "internalType": "uint256[]",
          "name": "",
          "type": "uint256[]"
        }
      ],
      "stateMutability": "nonpayable",
      "type": "function"
    },
    {
      "inputs": [
        {
          "internalType": "address",
          "name": "_newBalanceReceiver",
          "type": "address"
        }
      ],
      "name": "changeBalanceReceiver",
      "outputs": [],
      "stateMutability": "nonpayable",
      "type": "function"
    },
    {
      "inputs": [
        {
          "internalType": "uint256",
          "name": "_newPrice",
          "type": "uint256"
        }
      ],
      "name": "changePrice",
      "outputs": [],
      "stateMutability": "nonpayable",
      "type": "function"
    },
    {
      "inputs": [
        {
          "internalType": "bool",
          "name": "_transferDai",
          "type": "bool"
        }
      ],
      "name": "changeTransferDaiFlag",
      "outputs": [],
      "stateMutability": "nonpayable",
      "type": "function"
    },
    {
      "inputs": [],
      "name": "gammaCardsContract",
      "outputs": [
        {
          "internalType": "contract IGammaCardsContract",
          "name": "",
          "type": "address"
        }
      ],
      "stateMutability": "view",
      "type": "function"
    },
    {
      "inputs": [
        {
          "internalType": "uint256",
          "name": "numberOfPacks",
          "type": "uint256"
        }
      ],
      "name": "getAmountRequiredToBuyPacks",
      "outputs": [
        {
          "internalType": "uint256",
          "name": "",
          "type": "uint256"
        }
      ],
      "stateMutability": "view",
      "type": "function"
    },
    {
      "inputs": [
        {
          "internalType": "uint256",
          "name": "tokenId",
          "type": "uint256"
        }
      ],
      "name": "getPackOwner",
      "outputs": [
        {
          "internalType": "address",
          "name": "",
          "type": "address"
        }
      ],
      "stateMutability": "view",
      "type": "function"
    },
    {
      "inputs": [
        {
          "internalType": "address",
          "name": "owner",
          "type": "address"
        }
      ],
      "name": "getPacksByUser",
      "outputs": [
        {
          "internalType": "uint256[]",
          "name": "",
          "type": "uint256[]"
        }
      ],
      "stateMutability": "view",
      "type": "function"
    },
    {
      "inputs": [
        {
          "internalType": "uint256",
          "name": "numberOfPacks",
          "type": "uint256"
        }
      ],
      "name": "getPrizeAmountToBuyPacks",
      "outputs": [
        {
          "internalType": "uint256",
          "name": "",
          "type": "uint256"
        }
      ],
      "stateMutability": "view",
      "type": "function"
    },
    {
      "inputs": [
        {
          "internalType": "uint256",
          "name": "numberOfPacks",
          "type": "uint256"
        }
      ],
      "name": "getPrizeNoFAccountAmountToBuyPacks",
      "outputs": [
        {
          "internalType": "uint256",
          "name": "",
          "type": "uint256"
        }
      ],
      "stateMutability": "view",
      "type": "function"
    },
    {
      "inputs": [
        {
          "internalType": "uint256",
          "name": "tokenId",
          "type": "uint256"
        },
        {
          "internalType": "address",
          "name": "owner",
          "type": "address"
        }
      ],
      "name": "openPack",
      "outputs": [],
      "stateMutability": "nonpayable",
      "type": "function"
    },
    {
      "inputs": [],
      "name": "owner",
      "outputs": [
        {
          "internalType": "address",
          "name": "",
          "type": "address"
        }
      ],
      "stateMutability": "view",
      "type": "function"
    },
    {
      "inputs": [
        {
          "internalType": "address",
          "name": "",
          "type": "address"
        }
      ],
      "name": "owners",
      "outputs": [
        {
          "internalType": "bool",
          "name": "",
          "type": "bool"
        }
      ],
      "stateMutability": "view",
      "type": "function"
    },
    {
      "inputs": [],
      "name": "packPrice",
      "outputs": [
        {
          "internalType": "uint256",
          "name": "",
          "type": "uint256"
        }
      ],
      "stateMutability": "view",
      "type": "function"
    },
    {
      "inputs": [
        {
          "internalType": "uint256",
          "name": "tokenId",
          "type": "uint256"
        }
      ],
      "name": "packs",
      "outputs": [
        {
          "internalType": "address",
          "name": "owner",
          "type": "address"
        }
      ],
      "stateMutability": "view",
      "type": "function"
    },
    {
      "inputs": [
        {
          "internalType": "address",
          "name": "owner",
          "type": "address"
        },
        {
          "internalType": "uint256",
          "name": "",
          "type": "uint256"
        }
      ],
      "name": "packsByUser",
      "outputs": [
        {
          "internalType": "uint256",
          "name": "tokenIds",
          "type": "uint256"
        }
      ],
      "stateMutability": "view",
      "type": "function"
    },
    {
      "inputs": [
        {
          "internalType": "address",
          "name": "_ownerToRemove",
          "type": "address"
        }
      ],
      "name": "removeOwner",
      "outputs": [],
      "stateMutability": "nonpayable",
      "type": "function"
    },
    {
      "inputs": [],
      "name": "renounceOwnership",
      "outputs": [],
      "stateMutability": "nonpayable",
      "type": "function"
    },
    {
      "inputs": [
        {
          "internalType": "address",
          "name": "_gammaCardsContract",
          "type": "address"
        }
      ],
      "name": "setGammaCardsContract",
      "outputs": [],
      "stateMutability": "nonpayable",
      "type": "function"
    },
    {
      "inputs": [
        {
          "internalType": "uint256",
          "name": "tokenId",
          "type": "uint256"
        },
        {
          "internalType": "address",
          "name": "owner",
          "type": "address"
        }
      ],
      "name": "testOpenPack",
      "outputs": [],
      "stateMutability": "nonpayable",
      "type": "function"
    },
    {
      "inputs": [],
      "name": "totalSupply",
      "outputs": [
        {
          "internalType": "uint256",
          "name": "",
          "type": "uint256"
        }
      ],
      "stateMutability": "view",
      "type": "function"
    },
    {
      "inputs": [
        {
          "internalType": "address",
          "name": "newOwner",
          "type": "address"
        }
      ],
      "name": "transferOwnership",
      "outputs": [],
      "stateMutability": "nonpayable",
      "type": "function"
    },
    {
      "inputs": [
        {
          "internalType": "address",
          "name": "to",
          "type": "address"
        },
        {
          "internalType": "uint256",
          "name": "tokenId",
          "type": "uint256"
        }
      ],
      "name": "transferPack",
      "outputs": [],
      "stateMutability": "nonpayable",
      "type": "function"
    }
  ],
  "bytecode": "0x60806040526710a741a4627800006003556006805460ff191660011790553480156200002a57600080fd5b5060405162001c6538038062001c658339810160408190526200004d9162000122565b6200005833620000b5565b600280546001600160a01b039384166001600160a01b03199182161790915560048054929093169116179055336000908152600960205260409020805460ff1990811660019081179092556006805490911690911790556200015a565b600080546001600160a01b038381166001600160a01b0319831681178455604051919092169283917f8be0079c531659141344cd1fd0a4f28419497f9722a3daafe3b4186f6b6457e09190a35050565b80516001600160a01b03811681146200011d57600080fd5b919050565b600080604083850312156200013657600080fd5b620001418362000105565b9150620001516020840162000105565b90509250929050565b611afb806200016a6000396000f3fe608060405234801561001057600080fd5b50600436106101cf5760003560e01c80638da5cb5b11610104578063bd713380116100a2578063d611713e11610071578063d611713e14610409578063e0f783071461041c578063e606df871461042f578063f2fde38b1461044257600080fd5b8063bd713380146103b2578063c37b9bcd146103c5578063d250f03a146103cd578063d3e6a7ad146103e057600080fd5b806399e5f896116100de57806399e5f89614610350578063a2b40d1914610363578063b48ce65314610376578063b84c13921461038957600080fd5b80638da5cb5b146103195780638fd5baf71461032a578063967ed63d1461033d57600080fd5b80634c7a7ad3116101715780636adbaf751161014b5780636adbaf75146102d85780637065cb48146102eb578063715018a6146102fe57806380f2540b1461030657600080fd5b80634c7a7ad31461027a578063627b253f1461028d57806362e21878146102b857600080fd5b806318160ddd116101ad57806318160ddd14610242578063335c8b631461024b57806339e8d3ec146102545780633f6ecd481461026757600080fd5b806301321c4d146101d4578063022914a7146101fa578063173825d91461022d575b600080fd5b6101e76101e23660046117a8565b610455565b6040519081526020015b60405180910390f35b61021d6102083660046117d8565b60096020526000908152604090205460ff1681565b60405190151581526020016101f1565b61024061023b3660046117d8565b610483565b005b6101e761c35081565b6101e760035481565b6102406102623660046117f3565b6105d2565b6101e76102753660046117a8565b61066f565b6102406102883660046117d8565b61069e565b6004546102a0906001600160a01b031681565b6040516001600160a01b0390911681526020016101f1565b6102cb6102c636600461181f565b610748565b6040516101f19190611884565b6102cb6102e63660046117a8565b610784565b6102406102f93660046117d8565b610790565b610240610872565b6102406103143660046117f3565b610886565b6000546001600160a01b03166102a0565b6102cb6103383660046117d8565b6108fa565b6101e761034b3660046117d8565b610966565b61024061035e3660046118a5565b6109a3565b6102406103713660046117a8565b6109e5565b6101e76103843660046117a8565b610aa8565b6102a06103973660046117a8565b6007602052600090815260409020546001600160a01b031681565b6101e76103c036600461181f565b610ad5565b6101e7610b06565b6001546102a0906001600160a01b031681565b6102a06103ee3660046117a8565b6000908152600760205260409020546001600160a01b031690565b61024061041736600461181f565b610b16565b61024061042a3660046117d8565b610c3e565b6002546102a0906001600160a01b031681565b6102406104503660046117d8565b610cb5565b6000806104618361066f565b9050808360035461047291906118d8565b61047c91906118ef565b9392505050565b3360009081526009602052604090205460ff166104bb5760405162461bcd60e51b81526004016104b290611902565b60405180910390fd5b6001600160a01b0381166104e15760405162461bcd60e51b81526004016104b290611945565b336001600160a01b038216036105495760405162461bcd60e51b815260206004820152602760248201527f596f752063616e6e6f742072656d6f766520796f757273656c6620617320616e6044820152661037bbb732b91760c91b60648201526084016104b2565b6001600160a01b03811660009081526009602052604090205460ff166105b15760405162461bcd60e51b815260206004820152601860248201527f41646472657373206973206e6f7420616e206f776e65722e000000000000000060448201526064016104b2565b6001600160a01b03166000908152600960205260409020805460ff19169055565b3360009081526009602052604090205460ff166106015760405162461bcd60e51b81526004016104b290611902565b61060b8282610d2e565b60008281526007602090815260409182902080546001600160a01b031916905581516001600160a01b03841681529081018490527fdda72cf20dc64f01f8d74c9683b47b096800d5f243fbbc3c4c9297c09091d8d591015b60405180910390a15050565b6000816006600354610681919061196f565b60035461068e91906118ef565b61069891906118d8565b92915050565b3360009081526009602052604090205460ff166106cd5760405162461bcd60e51b81526004016104b290611902565b6001600160a01b0381166106f35760405162461bcd60e51b81526004016104b290611945565b600180546001600160a01b0319166001600160a01b0383169081179091556040519081527f45c9eba39b5ae3e7a6650b0a57bcb8e5d135936d56d111983dbc5860ae6760fa906020015b60405180910390a150565b3360009081526009602052604090205460609060ff1661077a5760405162461bcd60e51b81526004016104b290611902565b61047c8383610e6d565b60606106983383610e6d565b3360009081526009602052604090205460ff166107bf5760405162461bcd60e51b81526004016104b290611902565b6001600160a01b0381166107e55760405162461bcd60e51b81526004016104b290611945565b6001600160a01b03811660009081526009602052604090205460ff161561084e5760405162461bcd60e51b815260206004820152601c60248201527f4164647265737320697320616c726561647920616e206f776e65722e0000000060448201526064016104b2565b6001600160a01b03166000908152600960205260409020805460ff19166001179055565b61087a611068565b61088460006110c2565b565b6001546001600160a01b031633146106015760405162461bcd60e51b815260206004820152603160248201527f4f6e6c792067616d6d6120636172647320636f6e74726163742063616e2063616044820152703636103a3434b990333ab731ba34b7b71760791b60648201526084016104b2565b6001600160a01b03811660009081526008602090815260409182902080548351818402810184019094528084526060939283018282801561095a57602002820191906000526020600020905b815481526020019060010190808311610946575b50505050509050919050565b3360009081526009602052604081205460ff166109955760405162461bcd60e51b81526004016104b290611902565b61069882611112565b919050565b3360009081526009602052604090205460ff166109d25760405162461bcd60e51b81526004016104b290611902565b6006805460ff1916911515919091179055565b3360009081526009602052604090205460ff16610a145760405162461bcd60e51b81526004016104b290611902565b60038190556001546040516370c41e3760e11b8152600481018390526001600160a01b039091169063e1883c6e90602401600060405180830381600087803b158015610a5f57600080fd5b505af1158015610a73573d6000803e3d6000fd5b505050507f270b316b51ab2cf3a3bb8ca4d22e76a327d05e762fcaa8bd6afaf8cfde9270b78160405161073d91815260200190565b600080610ab48361066f565b90506000610ac184610455565b9050610acd8183611991565b949350505050565b60086020528160005260406000208181548110610af157600080fd5b90600052602060002001600091509150505481565b6000610b1133611112565b905090565b6001600160a01b038216610b3c5760405162461bcd60e51b81526004016104b290611945565b6000818152600760205260409020546001600160a01b03163314610ba25760405162461bcd60e51b815260206004820152601760248201527f54486973207061636b206973206e6f7420796f7572732e00000000000000000060448201526064016104b2565b600081815260076020526040902080546001600160a01b0319166001600160a01b038416179055610bd38133610d2e565b6001600160a01b038216600081815260086020908152604080832080546001810182559084529282902090920184905581513381529081019290925281018290527fddb6f61cc68e099150dacab8be873f19cc91f6ceb7d8237794124ede38722aaf90606001610663565b3360009081526009602052604090205460ff16610c6d5760405162461bcd60e51b81526004016104b290611902565b6001600160a01b038116610c935760405162461bcd60e51b81526004016104b290611945565b600480546001600160a01b0319166001600160a01b0392909216919091179055565b610cbd611068565b6001600160a01b038116610d225760405162461bcd60e51b815260206004820152602660248201527f4f776e61626c653a206e6577206f776e657220697320746865207a65726f206160448201526564647265737360d01b60648201526084016104b2565b610d2b816110c2565b50565b6001600160a01b038116600090815260086020526040812054905b81811015610e67576001600160a01b0383166000908152600860205260409020805485919083908110610d7e57610d7e6119a4565b906000526020600020015403610e55576001600160a01b03831660009081526008602052604090208054610db4906001906118ef565b81548110610dc457610dc46119a4565b906000526020600020015460086000856001600160a01b03166001600160a01b031681526020019081526020016000208281548110610e0557610e056119a4565b60009182526020808320909101929092556001600160a01b0385168152600890915260409020805480610e3a57610e3a6119ba565b60019003818190600052602060002001600090559055610e67565b80610e5f816119d0565b915050610d49565b50505050565b6001546060906001600160a01b0316610ec85760405162461bcd60e51b815260206004820152601b60248201527f47616d6d614361726473436f6e7472616374206e6f74207365742e000000000060448201526064016104b2565b60008267ffffffffffffffff811115610ee357610ee36119e9565b604051908082528060200260200182016040528015610f0c578160200160208202803683370190505b50905060005b83811015610ffb5760055461c3508110610f695760405162461bcd60e51b81526020600482015260186024820152772a3432b9329030b9329037379036b7b932903830b1b5b99760411b60448201526064016104b2565b600160056000828254610f7c9190611991565b9091555050600081815260076020908152604080832080546001600160a01b0319166001600160a01b038b169081179091558352600882528220805460018101825590835291200181905582518190849084908110610fdd57610fdd6119a4565b60209081029190910101525080610ff3816119d0565b915050610f12565b5060006110088585611291565b9050806110275760405162461bcd60e51b81526004016104b2906119ff565b7fccced7f637f56c0164dc795f58e00b6eab6aed650e35721023dc6dd2b8f6746d8583604051611058929190611a6b565b60405180910390a1509392505050565b6000546001600160a01b031633146108845760405162461bcd60e51b815260206004820181905260248201527f4f776e61626c653a2063616c6c6572206973206e6f7420746865206f776e657260448201526064016104b2565b600080546001600160a01b038381166001600160a01b0319831681178455604051919092169283917f8be0079c531659141344cd1fd0a4f28419497f9722a3daafe3b4186f6b6457e09190a35050565b6001546000906001600160a01b031661116d5760405162461bcd60e51b815260206004820152601b60248201527f47616d6d614361726473436f6e7472616374206e6f74207365742e000000000060448201526064016104b2565b60055461c35081106111bc5760405162461bcd60e51b81526020600482015260186024820152772a3432b9329030b9329037379036b7b932903830b1b5b99760411b60448201526064016104b2565b6001600560008282546111cf9190611991565b9091555050600081815260076020908152604080832080546001600160a01b0319166001600160a01b0388169081179091558352600882528220805460018181018355918452918320909101839055611229908590611291565b9050806112485760405162461bcd60e51b81526004016104b2906119ff565b604080516001600160a01b0386168152602081018490527f4bec02a302b11f990fe586d595753fd0163e88c0f3fff0cdcc10e831ac620e9a910160405180910390a15092915050565b60008061129d8361066f565b905060006112aa84610455565b600154604051630bc639c960e31b8152600481018590529192506001600160a01b031690635e31ce4890602401600060405180830381600087803b1580156112f157600080fd5b505af1158015611305573d6000803e3d6000fd5b505060065460ff1615915061179d905057600254604051636eb1769f60e11b81526001600160a01b03878116600483015230602483015290911690600090829063dd62ed3e90604401602060405180830381865afa15801561136b573d6000803e3d6000fd5b505050506040513d601f19601f8201168201806040525081019061138f9190611a8f565b905061139b8385611991565b8110156114215760405162461bcd60e51b815260206004820152604860248201527f496e73756666696369656e7420616c6c6f77616e636520746f207472616e736660448201527f6572207072697a657320616d6f756e7420616e64204e4f46204163636f756e746064820152671030b6b7bab73a1760c11b608482015260a4016104b2565b6040516370a0823160e01b81526001600160a01b0388811660048301528591908416906370a0823190602401602060405180830381865afa15801561146a573d6000803e3d6000fd5b505050506040513d601f19601f8201168201806040525081019061148e9190611a8f565b10156114f45760405162461bcd60e51b815260206004820152602f60248201527f496e73756666696369656e742062616c616e636520746f207472616e7366657260448201526e10383934bd32b99030b6b7bab73a1760891b60648201526084016104b2565b6040516370a0823160e01b81526001600160a01b0388811660048301528491908416906370a0823190602401602060405180830381865afa15801561153d573d6000803e3d6000fd5b505050506040513d601f19601f820116820180604052508101906115619190611a8f565b10156115c75760405162461bcd60e51b815260206004820152602f60248201527f496e73756666696369656e742062616c616e636520746f207472616e7366657260448201526e10383937b334ba1030b6b7bab73a1760891b60648201526084016104b2565b6001546040516323b872dd60e01b81526001600160a01b0389811660048301529182166024820152604481018690526000918416906323b872dd906064016020604051808303816000875af1158015611624573d6000803e3d6000fd5b505050506040513d601f19601f820116820180604052508101906116489190611aa8565b9050806116b15760405162461bcd60e51b815260206004820152603160248201527f4572726f722073656e64696e67207072697a6520616d6f756e7420746f20676160448201527036b6b0a1b0b93239a1b7b73a3930b1ba1760791b60648201526084016104b2565b600480546040516323b872dd60e01b81526001600160a01b038b8116938201939093529082166024820152604481018690526000918516906323b872dd906064016020604051808303816000875af1158015611711573d6000803e3d6000fd5b505050506040513d601f19601f820116820180604052508101906117359190611aa8565b9050806117985760405162461bcd60e51b815260206004820152602b60248201527f4572726f722073656e64696e672070726f66697420616d6f756e7420746f204e60448201526a37a31030b1b1b7bab73a1760a91b60648201526084016104b2565b505050505b506001949350505050565b6000602082840312156117ba57600080fd5b5035919050565b80356001600160a01b038116811461099e57600080fd5b6000602082840312156117ea57600080fd5b61047c826117c1565b6000806040838503121561180657600080fd5b82359150611816602084016117c1565b90509250929050565b6000806040838503121561183257600080fd5b61183b836117c1565b946020939093013593505050565b600081518084526020808501945080840160005b838110156118795781518752958201959082019060010161185d565b509495945050505050565b60208152600061047c6020830184611849565b8015158114610d2b57600080fd5b6000602082840312156118b757600080fd5b813561047c81611897565b634e487b7160e01b600052601160045260246000fd5b8082028115828204841417610698576106986118c2565b81810381811115610698576106986118c2565b60208082526023908201527f4f6e6c79206f776e6572732063616e2063616c6c20746869732066756e63746960408201526237b71760e91b606082015260800190565b60208082526010908201526f24b73b30b634b21030b2323932b9b99760811b604082015260600190565b60008261198c57634e487b7160e01b600052601260045260246000fd5b500490565b80820180821115610698576106986118c2565b634e487b7160e01b600052603260045260246000fd5b634e487b7160e01b600052603160045260246000fd5b6000600182016119e2576119e26118c2565b5060010190565b634e487b7160e01b600052604160045260246000fd5b60208082526046908201527f546865207472616e73666572732072656c6174656420746f207468652070757260408201527f6368617365206f66207061636b7320636f756c64206e6f7420626520636f6d706060820152653632ba32b21760d11b608082015260a00190565b6001600160a01b0383168152604060208201819052600090610acd90830184611849565b600060208284031215611aa157600080fd5b5051919050565b600060208284031215611aba57600080fd5b815161047c8161189756fea2646970667358221220bd94afba1a4a9cd5934854ba32d665bf5772569410550f8cc6e4e905db9058d164736f6c63430008140033",
  "linkReferences": {},
  "deployedLinkReferences": {}
}