{
  "_format": "hh-sol-artifact-1",
  "contractName": "NofGammaPacksV3",
  "sourceName": "contracts/gamma/GammaPacks.v3.sol",
  "abi": [
    {
      "inputs": [
        {
          "internalType": "address",
          "name": "_daiTokenAddress",
          "type": "address"
        },
        {
          "internalType": "address",
          "name": "_balanceReceiver",
          "type": "address"
        }
      ],
      "stateMutability": "nonpayable",
      "type": "constructor"
    },
    {
      "anonymous": false,
      "inputs": [
        {
          "indexed": false,
          "internalType": "address",
          "name": "balanceReceiver",
          "type": "address"
        }
      ],
      "name": "NewBalanceReceiver",
      "type": "event"
    },
    {
      "anonymous": false,
      "inputs": [
        {
          "indexed": false,
          "internalType": "address",
          "name": "newCardsContract",
          "type": "address"
        }
      ],
      "name": "NewGammaCardsContract",
      "type": "event"
    },
    {
      "anonymous": false,
      "inputs": [
        {
          "indexed": false,
          "internalType": "address",
          "name": "owner",
          "type": "address"
        }
      ],
      "name": "NewOwnerAdded",
      "type": "event"
    },
    {
      "anonymous": false,
      "inputs": [
        {
          "indexed": false,
          "internalType": "uint256",
          "name": "newPrice",
          "type": "uint256"
        }
      ],
      "name": "NewPrice",
      "type": "event"
    },
    {
      "anonymous": false,
      "inputs": [
        {
          "indexed": false,
          "internalType": "address",
          "name": "owner",
          "type": "address"
        }
      ],
      "name": "OwnerRemoved",
      "type": "event"
    },
    {
      "anonymous": false,
      "inputs": [
        {
          "indexed": true,
          "internalType": "address",
          "name": "previousOwner",
          "type": "address"
        },
        {
          "indexed": true,
          "internalType": "address",
          "name": "newOwner",
          "type": "address"
        }
      ],
      "name": "OwnershipTransferred",
      "type": "event"
    },
    {
      "anonymous": false,
      "inputs": [
        {
          "indexed": false,
          "internalType": "address",
          "name": "user",
          "type": "address"
        },
        {
          "indexed": false,
          "internalType": "uint256",
          "name": "tokenId",
          "type": "uint256"
        }
      ],
      "name": "PackOpen",
      "type": "event"
    },
    {
      "anonymous": false,
      "inputs": [
        {
          "indexed": false,
          "internalType": "address",
          "name": "buyer",
          "type": "address"
        },
        {
          "indexed": false,
          "internalType": "uint256",
          "name": "tokenId",
          "type": "uint256"
        }
      ],
      "name": "PackPurchase",
      "type": "event"
    },
    {
      "anonymous": false,
      "inputs": [
        {
          "indexed": false,
          "internalType": "address",
          "name": "from",
          "type": "address"
        },
        {
          "indexed": false,
          "internalType": "address",
          "name": "to",
          "type": "address"
        },
        {
          "indexed": false,
          "internalType": "uint256",
          "name": "tokenId",
          "type": "uint256"
        }
      ],
      "name": "PackTransfer",
      "type": "event"
    },
    {
      "anonymous": false,
      "inputs": [
        {
          "indexed": false,
          "internalType": "address",
          "name": "buyer",
          "type": "address"
        },
        {
          "indexed": false,
          "internalType": "uint256[]",
          "name": "tokenIds",
          "type": "uint256[]"
        }
      ],
      "name": "PacksPurchase",
      "type": "event"
    },
    {
      "anonymous": false,
      "inputs": [
        {
          "indexed": false,
          "internalType": "address",
          "name": "from",
          "type": "address"
        },
        {
          "indexed": false,
          "internalType": "address",
          "name": "to",
          "type": "address"
        },
        {
          "indexed": false,
          "internalType": "uint256[]",
          "name": "tokenId",
          "type": "uint256[]"
        }
      ],
      "name": "PacksTransfer",
      "type": "event"
    },
    {
      "inputs": [],
      "name": "DAI_TOKEN",
      "outputs": [
        {
          "internalType": "address",
          "name": "",
          "type": "address"
        }
      ],
      "stateMutability": "view",
      "type": "function"
    },
    {
      "inputs": [
        {
          "internalType": "address",
          "name": "_newOwner",
          "type": "address"
        }
      ],
      "name": "addOwner",
      "outputs": [],
      "stateMutability": "nonpayable",
      "type": "function"
    },
    {
      "inputs": [],
      "name": "balanceReceiver",
      "outputs": [
        {
          "internalType": "address",
          "name": "",
          "type": "address"
        }
      ],
      "stateMutability": "view",
      "type": "function"
    },
    {
      "inputs": [],
      "name": "buyPack",
      "outputs": [
        {
          "internalType": "uint256",
          "name": "",
          "type": "uint256"
        }
      ],
      "stateMutability": "nonpayable",
      "type": "function"
    },
    {
      "inputs": [
        {
          "internalType": "address",
          "name": "user",
          "type": "address"
        }
      ],
      "name": "buyPackByUser",
      "outputs": [
        {
          "internalType": "uint256",
          "name": "",
          "type": "uint256"
        }
      ],
      "stateMutability": "nonpayable",
      "type": "function"
    },
    {
      "inputs": [
        {
          "internalType": "uint256",
          "name": "numberOfPacks",
          "type": "uint256"
        }
      ],
      "name": "buyPacks",
      "outputs": [
        {
          "internalType": "uint256[]",
          "name": "",
          "type": "uint256[]"
        }
      ],
      "stateMutability": "nonpayable",
      "type": "function"
    },
    {
      "inputs": [
        {
          "internalType": "address",
          "name": "user",
          "type": "address"
        },
        {
          "internalType": "uint256",
          "name": "numberOfPacks",
          "type": "uint256"
        }
      ],
      "name": "buyPacksByUser",
      "outputs": [
        {
          "internalType": "uint256[]",
          "name": "",
          "type": "uint256[]"
        }
      ],
      "stateMutability": "nonpayable",
      "type": "function"
    },
    {
      "inputs": [
        {
          "internalType": "address",
          "name": "_newBalanceReceiver",
          "type": "address"
        }
      ],
      "name": "changeBalanceReceiver",
      "outputs": [],
      "stateMutability": "nonpayable",
      "type": "function"
    },
    {
      "inputs": [
        {
          "internalType": "uint256",
          "name": "_newPrice",
          "type": "uint256"
        }
      ],
      "name": "changePrice",
      "outputs": [],
      "stateMutability": "nonpayable",
      "type": "function"
    },
    {
      "inputs": [
        {
          "internalType": "bool",
          "name": "_transferDai",
          "type": "bool"
        }
      ],
      "name": "changeTransferDaiFlag",
      "outputs": [],
      "stateMutability": "nonpayable",
      "type": "function"
    },
    {
      "inputs": [],
      "name": "gammaCardsContract",
      "outputs": [
        {
          "internalType": "contract IGammaCardsContract",
          "name": "",
          "type": "address"
        }
      ],
      "stateMutability": "view",
      "type": "function"
    },
    {
      "inputs": [
        {
          "internalType": "uint256",
          "name": "numberOfPacks",
          "type": "uint256"
        }
      ],
      "name": "getAmountRequiredToBuyPacks",
      "outputs": [
        {
          "internalType": "uint256",
          "name": "",
          "type": "uint256"
        }
      ],
      "stateMutability": "view",
      "type": "function"
    },
    {
      "inputs": [
        {
          "internalType": "uint256",
          "name": "tokenId",
          "type": "uint256"
        }
      ],
      "name": "getPackOwner",
      "outputs": [
        {
          "internalType": "address",
          "name": "",
          "type": "address"
        }
      ],
      "stateMutability": "view",
      "type": "function"
    },
    {
      "inputs": [
        {
          "internalType": "address",
          "name": "owner",
          "type": "address"
        }
      ],
      "name": "getPacksByUser",
      "outputs": [
        {
          "internalType": "uint256[]",
          "name": "",
          "type": "uint256[]"
        }
      ],
      "stateMutability": "view",
      "type": "function"
    },
    {
      "inputs": [
        {
          "internalType": "uint256",
          "name": "numberOfPacks",
          "type": "uint256"
        }
      ],
      "name": "getPrizeAmountToBuyPacks",
      "outputs": [
        {
          "internalType": "uint256",
          "name": "",
          "type": "uint256"
        }
      ],
      "stateMutability": "view",
      "type": "function"
    },
    {
      "inputs": [
        {
          "internalType": "uint256",
          "name": "numberOfPacks",
          "type": "uint256"
        }
      ],
      "name": "getPrizeNoFAccountAmountToBuyPacks",
      "outputs": [
        {
          "internalType": "uint256",
          "name": "",
          "type": "uint256"
        }
      ],
      "stateMutability": "view",
      "type": "function"
    },
    {
      "inputs": [
        {
          "internalType": "uint256",
          "name": "tokenId",
          "type": "uint256"
        },
        {
          "internalType": "address",
          "name": "owner",
          "type": "address"
        }
      ],
      "name": "openPack",
      "outputs": [],
      "stateMutability": "nonpayable",
      "type": "function"
    },
    {
      "inputs": [
        {
          "internalType": "uint256[]",
          "name": "tokenIds",
          "type": "uint256[]"
        },
        {
          "internalType": "address",
          "name": "owner",
          "type": "address"
        }
      ],
      "name": "openPacks",
      "outputs": [],
      "stateMutability": "nonpayable",
      "type": "function"
    },
    {
      "inputs": [],
      "name": "owner",
      "outputs": [
        {
          "internalType": "address",
          "name": "",
          "type": "address"
        }
      ],
      "stateMutability": "view",
      "type": "function"
    },
    {
      "inputs": [
        {
          "internalType": "address",
          "name": "",
          "type": "address"
        }
      ],
      "name": "owners",
      "outputs": [
        {
          "internalType": "bool",
          "name": "",
          "type": "bool"
        }
      ],
      "stateMutability": "view",
      "type": "function"
    },
    {
      "inputs": [],
      "name": "packPrice",
      "outputs": [
        {
          "internalType": "uint256",
          "name": "",
          "type": "uint256"
        }
      ],
      "stateMutability": "view",
      "type": "function"
    },
    {
      "inputs": [
        {
          "internalType": "uint256",
          "name": "tokenId",
          "type": "uint256"
        }
      ],
      "name": "packs",
      "outputs": [
        {
          "internalType": "address",
          "name": "owner",
          "type": "address"
        }
      ],
      "stateMutability": "view",
      "type": "function"
    },
    {
      "inputs": [
        {
          "internalType": "address",
          "name": "owner",
          "type": "address"
        },
        {
          "internalType": "uint256",
          "name": "",
          "type": "uint256"
        }
      ],
      "name": "packsByUser",
      "outputs": [
        {
          "internalType": "uint256",
          "name": "tokenIds",
          "type": "uint256"
        }
      ],
      "stateMutability": "view",
      "type": "function"
    },
    {
      "inputs": [
        {
          "internalType": "address",
          "name": "_ownerToRemove",
          "type": "address"
        }
      ],
      "name": "removeOwner",
      "outputs": [],
      "stateMutability": "nonpayable",
      "type": "function"
    },
    {
      "inputs": [],
      "name": "renounceOwnership",
      "outputs": [],
      "stateMutability": "nonpayable",
      "type": "function"
    },
    {
      "inputs": [
        {
          "internalType": "address",
          "name": "_gammaCardsContract",
          "type": "address"
        }
      ],
      "name": "setGammaCardsContract",
      "outputs": [],
      "stateMutability": "nonpayable",
      "type": "function"
    },
    {
      "inputs": [
        {
          "internalType": "uint256",
          "name": "tokenId",
          "type": "uint256"
        },
        {
          "internalType": "address",
          "name": "owner",
          "type": "address"
        }
      ],
      "name": "testOpenPack",
      "outputs": [],
      "stateMutability": "nonpayable",
      "type": "function"
    },
    {
      "inputs": [
        {
          "internalType": "uint256[]",
          "name": "tokenIds",
          "type": "uint256[]"
        },
        {
          "internalType": "address",
          "name": "owner",
          "type": "address"
        }
      ],
      "name": "testOpenPacks",
      "outputs": [],
      "stateMutability": "nonpayable",
      "type": "function"
    },
    {
      "inputs": [],
      "name": "totalSupply",
      "outputs": [
        {
          "internalType": "uint256",
          "name": "",
          "type": "uint256"
        }
      ],
      "stateMutability": "view",
      "type": "function"
    },
    {
      "inputs": [
        {
          "internalType": "address",
          "name": "newOwner",
          "type": "address"
        }
      ],
      "name": "transferOwnership",
      "outputs": [],
      "stateMutability": "nonpayable",
      "type": "function"
    },
    {
      "inputs": [
        {
          "internalType": "address",
          "name": "to",
          "type": "address"
        },
        {
          "internalType": "uint256",
          "name": "tokenId",
          "type": "uint256"
        }
      ],
      "name": "transferPack",
      "outputs": [],
      "stateMutability": "nonpayable",
      "type": "function"
    },
    {
      "inputs": [
        {
          "internalType": "address",
          "name": "to",
          "type": "address"
        },
        {
          "internalType": "uint256[]",
          "name": "tokenIds",
          "type": "uint256[]"
        }
      ],
      "name": "transferPacks",
      "outputs": [],
      "stateMutability": "nonpayable",
      "type": "function"
    }
  ],
  "bytecode": "0x60806040526710a741a4627800006003556006805460ff191660011790553480156200002a57600080fd5b5060405162002038380380620020388339810160408190526200004d9162000122565b6200005833620000b5565b600280546001600160a01b039384166001600160a01b03199182161790915560048054929093169116179055336000908152600960205260409020805460ff1990811660019081179092556006805490911690911790556200015a565b600080546001600160a01b038381166001600160a01b0319831681178455604051919092169283917f8be0079c531659141344cd1fd0a4f28419497f9722a3daafe3b4186f6b6457e09190a35050565b80516001600160a01b03811681146200011d57600080fd5b919050565b600080604083850312156200013657600080fd5b620001418362000105565b9150620001516020840162000105565b90509250929050565b611ece806200016a6000396000f3fe608060405234801561001057600080fd5b50600436106101f05760003560e01c80638fd5baf71161010f578063bd713380116100a2578063d611713e11610071578063d611713e14610463578063e0f7830714610476578063e606df8714610489578063f2fde38b1461049c57600080fd5b8063bd7133801461040c578063c37b9bcd1461041f578063d250f03a14610427578063d3e6a7ad1461043a57600080fd5b8063a2b40d19116100de578063a2b40d19146103aa578063ab4bdbc8146103bd578063b48ce653146103d0578063b84c1392146103e357600080fd5b80638fd5baf71461035e578063967ed63d1461037157806397f8b3d31461038457806399e5f8961461039757600080fd5b80634c7a7ad3116101875780637065cb48116101565780637065cb481461031f578063715018a61461033257806380f2540b1461033a5780638da5cb5b1461034d57600080fd5b80634c7a7ad3146102ae578063627b253f146102c157806362e21878146102ec5780636adbaf751461030c57600080fd5b806318160ddd116101c357806318160ddd14610276578063335c8b631461027f57806339e8d3ec146102885780633f6ecd481461029b57600080fd5b806301321c4d146101f5578063022914a71461021b5780630c3e5c001461024e578063173825d914610263575b600080fd5b6102086102033660046119c7565b6104af565b6040519081526020015b60405180910390f35b61023e6102293660046119f7565b60096020526000908152604090205460ff1681565b6040519015158152602001610212565b61026161025c366004611ac3565b6104dd565b005b6102616102713660046119f7565b610561565b61020861c35081565b61020860035481565b610261610296366004611b11565b6106de565b6102086102a93660046119c7565b61071b565b6102616102bc3660046119f7565b61074a565b6004546102d4906001600160a01b031681565b6040516001600160a01b039091168152602001610212565b6102ff6102fa366004611b34565b6107ed565b6040516102129190611b99565b6102ff61031a3660046119c7565b610829565b61026161032d3660046119f7565b610835565b610261610947565b610261610348366004611b11565b61095b565b6000546001600160a01b03166102d4565b6102ff61036c3660046119f7565b610985565b61020861037f3660046119f7565b6109f1565b610261610392366004611ac3565b610a2e565b6102616103a5366004611bba565b610a9f565b6102616103b83660046119c7565b610ae1565b6102616103cb366004611bd7565b610ba4565b6102086103de3660046119c7565b610c2b565b6102d46103f13660046119c7565b6007602052600090815260409020546001600160a01b031681565b61020861041a366004611b34565b610c58565b610208610c89565b6001546102d4906001600160a01b031681565b6102d46104483660046119c7565b6000908152600760205260409020546001600160a01b031690565b610261610471366004611b34565b610c99565b6102616104843660046119f7565b610ca3565b6002546102d4906001600160a01b031681565b6102616104aa3660046119f7565b610d46565b6000806104bb8361071b565b905080836003546104cc9190611c3b565b6104d69190611c52565b9392505050565b3360009081526009602052604090205460ff166105155760405162461bcd60e51b815260040161050c90611c65565b60405180910390fd5b60005b825181101561055c57600083828151811061053557610535611ca8565b602002602001015190506105498184610dbf565b508061055481611cbe565b915050610518565b505050565b3360009081526009602052604090205460ff166105905760405162461bcd60e51b815260040161050c90611c65565b6001600160a01b0381166105b65760405162461bcd60e51b815260040161050c90611cd7565b336001600160a01b0382160361061e5760405162461bcd60e51b815260206004820152602760248201527f596f752063616e6e6f742072656d6f766520796f757273656c6620617320616e6044820152661037bbb732b91760c91b606482015260840161050c565b6001600160a01b03811660009081526009602052604090205460ff166106865760405162461bcd60e51b815260206004820152601860248201527f41646472657373206973206e6f7420616e206f776e65722e0000000000000000604482015260640161050c565b6001600160a01b038116600081815260096020908152604091829020805460ff1916905590519182527f58619076adf5bb0943d100ef88d52d7c3fd691b19d3a9071b555b651fbf418da91015b60405180910390a150565b3360009081526009602052604090205460ff1661070d5760405162461bcd60e51b815260040161050c90611c65565b6107178282610dbf565b5050565b600081600660035461072d9190611d01565b60035461073a9190611c52565b6107449190611c3b565b92915050565b3360009081526009602052604090205460ff166107795760405162461bcd60e51b815260040161050c90611c65565b6001600160a01b03811661079f5760405162461bcd60e51b815260040161050c90611cd7565b600180546001600160a01b0319166001600160a01b0383169081179091556040519081527f45c9eba39b5ae3e7a6650b0a57bcb8e5d135936d56d111983dbc5860ae6760fa906020016106d3565b3360009081526009602052604090205460609060ff1661081f5760405162461bcd60e51b815260040161050c90611c65565b6104d68383610e25565b60606107443383610e25565b3360009081526009602052604090205460ff166108645760405162461bcd60e51b815260040161050c90611c65565b6001600160a01b03811661088a5760405162461bcd60e51b815260040161050c90611cd7565b6001600160a01b03811660009081526009602052604090205460ff16156108f35760405162461bcd60e51b815260206004820152601c60248201527f4164647265737320697320616c726561647920616e206f776e65722e00000000604482015260640161050c565b6001600160a01b038116600081815260096020908152604091829020805460ff1916600117905590519182527f6e4e2a7c0e1576d48aeabd633d094f622d4f046286fec8b9045dd7f5c9fb087d91016106d3565b61094f611020565b610959600061107a565b565b6001546001600160a01b0316331461070d5760405162461bcd60e51b815260040161050c90611d23565b6001600160a01b0381166000908152600860209081526040918290208054835181840281018401909452808452606093928301828280156109e557602002820191906000526020600020905b8154815260200190600101908083116109d1575b50505050509050919050565b3360009081526009602052604081205460ff16610a205760405162461bcd60e51b815260040161050c90611c65565b610744826110ca565b919050565b6001546001600160a01b03163314610a585760405162461bcd60e51b815260040161050c90611d23565b60005b825181101561055c576000838281518110610a7857610a78611ca8565b60200260200101519050610a8c8184610dbf565b5080610a9781611cbe565b915050610a5b565b3360009081526009602052604090205460ff16610ace5760405162461bcd60e51b815260040161050c90611c65565b6006805460ff1916911515919091179055565b3360009081526009602052604090205460ff16610b105760405162461bcd60e51b815260040161050c90611c65565b60038190556001546040516370c41e3760e11b8152600481018390526001600160a01b039091169063e1883c6e90602401600060405180830381600087803b158015610b5b57600080fd5b505af1158015610b6f573d6000803e3d6000fd5b505050507f270b316b51ab2cf3a3bb8ca4d22e76a327d05e762fcaa8bd6afaf8cfde9270b7816040516106d391815260200190565b60005b8151811015610beb576000828281518110610bc457610bc4611ca8565b60200260200101519050610bd88482611249565b5080610be381611cbe565b915050610ba7565b507fa4c046742b14605c27d7fa9b3ae55b6176654c57b5888a4154f89929fde4bb9e338383604051610c1f93929190611d74565b60405180910390a15050565b600080610c378361071b565b90506000610c44846104af565b9050610c508183611da9565b949350505050565b60086020528160005260406000208181548110610c7457600080fd5b90600052602060002001600091509150505481565b6000610c94336110ca565b905090565b6107178282611249565b3360009081526009602052604090205460ff16610cd25760405162461bcd60e51b815260040161050c90611c65565b6001600160a01b038116610cf85760405162461bcd60e51b815260040161050c90611cd7565b600480546001600160a01b0319166001600160a01b0383169081179091556040519081527f7161c7a7090d78e8031fca87e845a86b39e0eb9c15436933d2d4ce7f4520c4a5906020016106d3565b610d4e611020565b6001600160a01b038116610db35760405162461bcd60e51b815260206004820152602660248201527f4f776e61626c653a206e6577206f776e657220697320746865207a65726f206160448201526564647265737360d01b606482015260840161050c565b610dbc8161107a565b50565b610dc98282611371565b60008281526007602090815260409182902080546001600160a01b031916905581516001600160a01b03841681529081018490527fdda72cf20dc64f01f8d74c9683b47b096800d5f243fbbc3c4c9297c09091d8d59101610c1f565b6001546060906001600160a01b0316610e805760405162461bcd60e51b815260206004820152601b60248201527f47616d6d614361726473436f6e7472616374206e6f74207365742e0000000000604482015260640161050c565b60008267ffffffffffffffff811115610e9b57610e9b611a12565b604051908082528060200260200182016040528015610ec4578160200160208202803683370190505b50905060005b83811015610fb35760055461c3508110610f215760405162461bcd60e51b81526020600482015260186024820152772a3432b9329030b9329037379036b7b932903830b1b5b99760411b604482015260640161050c565b600160056000828254610f349190611da9565b9091555050600081815260076020908152604080832080546001600160a01b0319166001600160a01b038b169081179091558352600882528220805460018101825590835291200181905582518190849084908110610f9557610f95611ca8565b60209081029190910101525080610fab81611cbe565b915050610eca565b506000610fc085856114b0565b905080610fdf5760405162461bcd60e51b815260040161050c90611dbc565b7fccced7f637f56c0164dc795f58e00b6eab6aed650e35721023dc6dd2b8f6746d8583604051611010929190611e28565b60405180910390a1509392505050565b6000546001600160a01b031633146109595760405162461bcd60e51b815260206004820181905260248201527f4f776e61626c653a2063616c6c6572206973206e6f7420746865206f776e6572604482015260640161050c565b600080546001600160a01b038381166001600160a01b0319831681178455604051919092169283917f8be0079c531659141344cd1fd0a4f28419497f9722a3daafe3b4186f6b6457e09190a35050565b6001546000906001600160a01b03166111255760405162461bcd60e51b815260206004820152601b60248201527f47616d6d614361726473436f6e7472616374206e6f74207365742e0000000000604482015260640161050c565b60055461c35081106111745760405162461bcd60e51b81526020600482015260186024820152772a3432b9329030b9329037379036b7b932903830b1b5b99760411b604482015260640161050c565b6001600560008282546111879190611da9565b9091555050600081815260076020908152604080832080546001600160a01b0319166001600160a01b03881690811790915583526008825282208054600181810183559184529183209091018390556111e19085906114b0565b9050806112005760405162461bcd60e51b815260040161050c90611dbc565b604080516001600160a01b0386168152602081018490527f4bec02a302b11f990fe586d595753fd0163e88c0f3fff0cdcc10e831ac620e9a910160405180910390a15092915050565b6001600160a01b03821661126f5760405162461bcd60e51b815260040161050c90611cd7565b6000818152600760205260409020546001600160a01b031633146112d55760405162461bcd60e51b815260206004820152601760248201527f54486973207061636b206973206e6f7420796f7572732e000000000000000000604482015260640161050c565b600081815260076020526040902080546001600160a01b0319166001600160a01b0384161790556113068133611371565b6001600160a01b038216600081815260086020908152604080832080546001810182559084529282902090920184905581513381529081019290925281018290527fddb6f61cc68e099150dacab8be873f19cc91f6ceb7d8237794124ede38722aaf90606001610c1f565b6001600160a01b038116600090815260086020526040812054905b818110156114aa576001600160a01b03831660009081526008602052604090208054859190839081106113c1576113c1611ca8565b906000526020600020015403611498576001600160a01b038316600090815260086020526040902080546113f790600190611c52565b8154811061140757611407611ca8565b906000526020600020015460086000856001600160a01b03166001600160a01b03168152602001908152602001600020828154811061144857611448611ca8565b60009182526020808320909101929092556001600160a01b038516815260089091526040902080548061147d5761147d611e4c565b600190038181906000526020600020016000905590556114aa565b806114a281611cbe565b91505061138c565b50505050565b6000806114bc8361071b565b905060006114c9846104af565b600154604051630bc639c960e31b8152600481018590529192506001600160a01b031690635e31ce4890602401600060405180830381600087803b15801561151057600080fd5b505af1158015611524573d6000803e3d6000fd5b505060065460ff161591506119bc905057600254604051636eb1769f60e11b81526001600160a01b03878116600483015230602483015290911690600090829063dd62ed3e90604401602060405180830381865afa15801561158a573d6000803e3d6000fd5b505050506040513d601f19601f820116820180604052508101906115ae9190611e62565b90506115ba8385611da9565b8110156116405760405162461bcd60e51b815260206004820152604860248201527f496e73756666696369656e7420616c6c6f77616e636520746f207472616e736660448201527f6572207072697a657320616d6f756e7420616e64204e4f46204163636f756e746064820152671030b6b7bab73a1760c11b608482015260a40161050c565b6040516370a0823160e01b81526001600160a01b0388811660048301528591908416906370a0823190602401602060405180830381865afa158015611689573d6000803e3d6000fd5b505050506040513d601f19601f820116820180604052508101906116ad9190611e62565b10156117135760405162461bcd60e51b815260206004820152602f60248201527f496e73756666696369656e742062616c616e636520746f207472616e7366657260448201526e10383934bd32b99030b6b7bab73a1760891b606482015260840161050c565b6040516370a0823160e01b81526001600160a01b0388811660048301528491908416906370a0823190602401602060405180830381865afa15801561175c573d6000803e3d6000fd5b505050506040513d601f19601f820116820180604052508101906117809190611e62565b10156117e65760405162461bcd60e51b815260206004820152602f60248201527f496e73756666696369656e742062616c616e636520746f207472616e7366657260448201526e10383937b334ba1030b6b7bab73a1760891b606482015260840161050c565b6001546040516323b872dd60e01b81526001600160a01b0389811660048301529182166024820152604481018690526000918416906323b872dd906064016020604051808303816000875af1158015611843573d6000803e3d6000fd5b505050506040513d601f19601f820116820180604052508101906118679190611e7b565b9050806118d05760405162461bcd60e51b815260206004820152603160248201527f4572726f722073656e64696e67207072697a6520616d6f756e7420746f20676160448201527036b6b0a1b0b93239a1b7b73a3930b1ba1760791b606482015260840161050c565b600480546040516323b872dd60e01b81526001600160a01b038b8116938201939093529082166024820152604481018690526000918516906323b872dd906064016020604051808303816000875af1158015611930573d6000803e3d6000fd5b505050506040513d601f19601f820116820180604052508101906119549190611e7b565b9050806119b75760405162461bcd60e51b815260206004820152602b60248201527f4572726f722073656e64696e672070726f66697420616d6f756e7420746f204e60448201526a37a31030b1b1b7bab73a1760a91b606482015260840161050c565b505050505b506001949350505050565b6000602082840312156119d957600080fd5b5035919050565b80356001600160a01b0381168114610a2957600080fd5b600060208284031215611a0957600080fd5b6104d6826119e0565b634e487b7160e01b600052604160045260246000fd5b600082601f830112611a3957600080fd5b8135602067ffffffffffffffff80831115611a5657611a56611a12565b8260051b604051601f19603f83011681018181108482111715611a7b57611a7b611a12565b604052938452858101830193838101925087851115611a9957600080fd5b83870191505b84821015611ab857813583529183019190830190611a9f565b979650505050505050565b60008060408385031215611ad657600080fd5b823567ffffffffffffffff811115611aed57600080fd5b611af985828601611a28565b925050611b08602084016119e0565b90509250929050565b60008060408385031215611b2457600080fd5b82359150611b08602084016119e0565b60008060408385031215611b4757600080fd5b611b50836119e0565b946020939093013593505050565b600081518084526020808501945080840160005b83811015611b8e57815187529582019590820190600101611b72565b509495945050505050565b6020815260006104d66020830184611b5e565b8015158114610dbc57600080fd5b600060208284031215611bcc57600080fd5b81356104d681611bac565b60008060408385031215611bea57600080fd5b611bf3836119e0565b9150602083013567ffffffffffffffff811115611c0f57600080fd5b611c1b85828601611a28565b9150509250929050565b634e487b7160e01b600052601160045260246000fd5b808202811582820484141761074457610744611c25565b8181038181111561074457610744611c25565b60208082526023908201527f4f6e6c79206f776e6572732063616e2063616c6c20746869732066756e63746960408201526237b71760e91b606082015260800190565b634e487b7160e01b600052603260045260246000fd5b600060018201611cd057611cd0611c25565b5060010190565b60208082526010908201526f24b73b30b634b21030b2323932b9b99760811b604082015260600190565b600082611d1e57634e487b7160e01b600052601260045260246000fd5b500490565b60208082526031908201527f4f6e6c792067616d6d6120636172647320636f6e74726163742063616e2063616040820152703636103a3434b990333ab731ba34b7b71760791b606082015260800190565b6001600160a01b03848116825283166020820152606060408201819052600090611da090830184611b5e565b95945050505050565b8082018082111561074457610744611c25565b60208082526046908201527f546865207472616e73666572732072656c6174656420746f207468652070757260408201527f6368617365206f66207061636b7320636f756c64206e6f7420626520636f6d706060820152653632ba32b21760d11b608082015260a00190565b6001600160a01b0383168152604060208201819052600090610c5090830184611b5e565b634e487b7160e01b600052603160045260246000fd5b600060208284031215611e7457600080fd5b5051919050565b600060208284031215611e8d57600080fd5b81516104d681611bac56fea2646970667358221220e5b80c7cc680f88ff74f5e9c31d7488f9f077f7ed420583e9013ad0240f644e564736f6c63430008140033",
  "linkReferences": {},
  "deployedLinkReferences": {}
}