{
  "_format": "hh-sol-artifact-1",
  "contractName": "NofGammaPacksV3",
  "sourceName": "contracts/gamma/GammaPacks.v3.sol",
  "abi": [
    {
      "anonymous": false,
      "inputs": [
        {
          "indexed": false,
          "internalType": "address",
          "name": "balanceReceiver",
          "type": "address"
        }
      ],
      "name": "NewBalanceReceiver",
      "type": "event"
    },
    {
      "anonymous": false,
      "inputs": [
        {
          "indexed": false,
          "internalType": "address",
          "name": "newCardsContract",
          "type": "address"
        }
      ],
      "name": "NewGammaCardsContract",
      "type": "event"
    },
    {
      "anonymous": false,
      "inputs": [
        {
          "indexed": false,
          "internalType": "address",
          "name": "newGammaTicketContract",
          "type": "address"
        }
      ],
      "name": "NewGammaTicketsContract",
      "type": "event"
    },
    {
      "anonymous": false,
      "inputs": [
        {
          "indexed": false,
          "internalType": "uint256",
          "name": "newPrice",
          "type": "uint256"
        }
      ],
      "name": "NewPrice",
      "type": "event"
    },
    {
      "anonymous": false,
      "inputs": [
        {
          "indexed": true,
          "internalType": "address",
          "name": "previousOwner",
          "type": "address"
        },
        {
          "indexed": true,
          "internalType": "address",
          "name": "newOwner",
          "type": "address"
        }
      ],
      "name": "OwnershipTransferred",
      "type": "event"
    },
    {
      "anonymous": false,
      "inputs": [
        {
          "indexed": false,
          "internalType": "address",
          "name": "user",
          "type": "address"
        },
        {
          "indexed": false,
          "internalType": "uint256",
          "name": "tokenId",
          "type": "uint256"
        }
      ],
      "name": "PackOpened",
      "type": "event"
    },
    {
      "anonymous": false,
      "inputs": [
        {
          "indexed": false,
          "internalType": "address",
          "name": "buyer",
          "type": "address"
        },
        {
          "indexed": false,
          "internalType": "uint256",
          "name": "tokenId",
          "type": "uint256"
        }
      ],
      "name": "PackPurchased",
      "type": "event"
    },
    {
      "anonymous": false,
      "inputs": [
        {
          "indexed": false,
          "internalType": "address",
          "name": "from",
          "type": "address"
        },
        {
          "indexed": false,
          "internalType": "address",
          "name": "to",
          "type": "address"
        },
        {
          "indexed": false,
          "internalType": "uint256",
          "name": "tokenId",
          "type": "uint256"
        }
      ],
      "name": "PackTransfered",
      "type": "event"
    },
    {
      "anonymous": false,
      "inputs": [
        {
          "indexed": false,
          "internalType": "address",
          "name": "buyer",
          "type": "address"
        },
        {
          "indexed": false,
          "internalType": "uint256[]",
          "name": "tokenIds",
          "type": "uint256[]"
        }
      ],
      "name": "PacksPurchased",
      "type": "event"
    },
    {
      "anonymous": false,
      "inputs": [
        {
          "indexed": false,
          "internalType": "address",
          "name": "from",
          "type": "address"
        },
        {
          "indexed": false,
          "internalType": "address",
          "name": "to",
          "type": "address"
        },
        {
          "indexed": false,
          "internalType": "uint256[]",
          "name": "tokenId",
          "type": "uint256[]"
        }
      ],
      "name": "PacksTransfered",
      "type": "event"
    },
    {
      "inputs": [],
      "name": "DAI_TOKEN",
      "outputs": [
        {
          "internalType": "address",
          "name": "",
          "type": "address"
        }
      ],
      "stateMutability": "view",
      "type": "function"
    },
    {
      "inputs": [
        {
          "internalType": "address",
          "name": "_newOwner",
          "type": "address"
        }
      ],
      "name": "addOwner",
      "outputs": [],
      "stateMutability": "nonpayable",
      "type": "function"
    },
    {
      "inputs": [],
      "name": "balanceReceiver",
      "outputs": [
        {
          "internalType": "address",
          "name": "",
          "type": "address"
        }
      ],
      "stateMutability": "view",
      "type": "function"
    },
    {
      "inputs": [],
      "name": "buyPack",
      "outputs": [
        {
          "internalType": "uint256",
          "name": "",
          "type": "uint256"
        }
      ],
      "stateMutability": "nonpayable",
      "type": "function"
    },
    {
      "inputs": [
        {
          "internalType": "address",
          "name": "user",
          "type": "address"
        }
      ],
      "name": "buyPackByUser",
      "outputs": [
        {
          "internalType": "uint256",
          "name": "",
          "type": "uint256"
        }
      ],
      "stateMutability": "nonpayable",
      "type": "function"
    },
    {
      "inputs": [
        {
          "internalType": "uint256",
          "name": "numberOfPacks",
          "type": "uint256"
        }
      ],
      "name": "buyPacks",
      "outputs": [
        {
          "internalType": "uint256[]",
          "name": "",
          "type": "uint256[]"
        }
      ],
      "stateMutability": "nonpayable",
      "type": "function"
    },
    {
      "inputs": [
        {
          "internalType": "address",
          "name": "user",
          "type": "address"
        },
        {
          "internalType": "uint256",
          "name": "numberOfPacks",
          "type": "uint256"
        }
      ],
      "name": "buyPacksByUser",
      "outputs": [
        {
          "internalType": "uint256[]",
          "name": "",
          "type": "uint256[]"
        }
      ],
      "stateMutability": "nonpayable",
      "type": "function"
    },
    {
      "inputs": [
        {
          "internalType": "address",
          "name": "_newBalanceReceiver",
          "type": "address"
        }
      ],
      "name": "changeBalanceReceiver",
      "outputs": [],
      "stateMutability": "nonpayable",
      "type": "function"
    },
    {
      "inputs": [
        {
          "internalType": "uint256",
          "name": "_newPrice",
          "type": "uint256"
        }
      ],
      "name": "changePrice",
      "outputs": [],
      "stateMutability": "nonpayable",
      "type": "function"
    },
    {
      "inputs": [
        {
          "internalType": "bool",
          "name": "_transferDai",
          "type": "bool"
        }
      ],
      "name": "changeTransferDaiFlag",
      "outputs": [],
      "stateMutability": "nonpayable",
      "type": "function"
    },
    {
      "inputs": [],
      "name": "gammaCardsContract",
      "outputs": [
        {
          "internalType": "contract IGammaCardsContract",
          "name": "",
          "type": "address"
        }
      ],
      "stateMutability": "view",
      "type": "function"
    },
    {
      "inputs": [],
      "name": "gammaTicketsContract",
      "outputs": [
        {
          "internalType": "contract IgammaTicketsContract",
          "name": "",
          "type": "address"
        }
      ],
      "stateMutability": "view",
      "type": "function"
    },
    {
      "inputs": [
        {
          "internalType": "uint256",
          "name": "numberOfPacks",
          "type": "uint256"
        }
      ],
      "name": "getAmountRequiredToBuyPacks",
      "outputs": [
        {
          "internalType": "uint256",
          "name": "",
          "type": "uint256"
        }
      ],
      "stateMutability": "view",
      "type": "function"
    },
    {
      "inputs": [
        {
          "internalType": "uint256",
          "name": "tokenId",
          "type": "uint256"
        }
      ],
      "name": "getPackOwner",
      "outputs": [
        {
          "internalType": "address",
          "name": "",
          "type": "address"
        }
      ],
      "stateMutability": "view",
      "type": "function"
    },
    {
      "inputs": [
        {
          "internalType": "address",
          "name": "owner",
          "type": "address"
        }
      ],
      "name": "getPacksByUser",
      "outputs": [
        {
          "internalType": "uint256[]",
          "name": "",
          "type": "uint256[]"
        }
      ],
      "stateMutability": "view",
      "type": "function"
    },
    {
      "inputs": [
        {
          "internalType": "uint256",
          "name": "numberOfPacks",
          "type": "uint256"
        }
      ],
      "name": "getPrizeAmountToBuyPacks",
      "outputs": [
        {
          "internalType": "uint256",
          "name": "",
          "type": "uint256"
        }
      ],
      "stateMutability": "view",
      "type": "function"
    },
    {
      "inputs": [
        {
          "internalType": "uint256",
          "name": "numberOfPacks",
          "type": "uint256"
        }
      ],
      "name": "getPrizeNoFAccountAmountToBuyPacks",
      "outputs": [
        {
          "internalType": "uint256",
          "name": "",
          "type": "uint256"
        }
      ],
      "stateMutability": "view",
      "type": "function"
    },
    {
      "inputs": [
        {
          "internalType": "address",
          "name": "_daiTokenAddress",
          "type": "address"
        },
        {
          "internalType": "address",
          "name": "_balanceReceiver",
          "type": "address"
        },
        {
          "internalType": "address",
          "name": "_gammaCardsContract",
          "type": "address"
        },
        {
          "internalType": "address",
          "name": "_gammaTicketsContract",
          "type": "address"
        }
      ],
      "name": "init",
      "outputs": [],
      "stateMutability": "nonpayable",
      "type": "function"
    },
    {
      "inputs": [
        {
          "internalType": "address",
          "name": "user",
          "type": "address"
        }
      ],
      "name": "isOwner",
      "outputs": [
        {
          "internalType": "bool",
          "name": "",
          "type": "bool"
        }
      ],
      "stateMutability": "view",
      "type": "function"
    },
    {
      "inputs": [
        {
          "internalType": "uint256",
          "name": "numberOfPacks",
          "type": "uint256"
        }
      ],
      "name": "meetQuantityConditionsToBuy",
      "outputs": [
        {
          "internalType": "bool",
          "name": "",
          "type": "bool"
        }
      ],
      "stateMutability": "view",
      "type": "function"
    },
    {
      "inputs": [
        {
          "internalType": "uint256",
          "name": "tokenId",
          "type": "uint256"
        },
        {
          "internalType": "address",
          "name": "owner",
          "type": "address"
        }
      ],
      "name": "openPack",
      "outputs": [],
      "stateMutability": "nonpayable",
      "type": "function"
    },
    {
      "inputs": [
        {
          "internalType": "uint256[]",
          "name": "tokenIds",
          "type": "uint256[]"
        },
        {
          "internalType": "address",
          "name": "owner",
          "type": "address"
        }
      ],
      "name": "openPacks",
      "outputs": [],
      "stateMutability": "nonpayable",
      "type": "function"
    },
    {
      "inputs": [],
      "name": "owner",
      "outputs": [
        {
          "internalType": "address",
          "name": "",
          "type": "address"
        }
      ],
      "stateMutability": "view",
      "type": "function"
    },
    {
      "inputs": [],
      "name": "packPrice",
      "outputs": [
        {
          "internalType": "uint256",
          "name": "",
          "type": "uint256"
        }
      ],
      "stateMutability": "view",
      "type": "function"
    },
    {
      "inputs": [
        {
          "internalType": "uint256",
          "name": "tokenId",
          "type": "uint256"
        }
      ],
      "name": "packs",
      "outputs": [
        {
          "internalType": "address",
          "name": "owner",
          "type": "address"
        }
      ],
      "stateMutability": "view",
      "type": "function"
    },
    {
      "inputs": [
        {
          "internalType": "address",
          "name": "owner",
          "type": "address"
        },
        {
          "internalType": "uint256",
          "name": "",
          "type": "uint256"
        }
      ],
      "name": "packsByUser",
      "outputs": [
        {
          "internalType": "uint256",
          "name": "tokenIds",
          "type": "uint256"
        }
      ],
      "stateMutability": "view",
      "type": "function"
    },
    {
      "inputs": [
        {
          "internalType": "address",
          "name": "_ownerToRemove",
          "type": "address"
        }
      ],
      "name": "removeOwner",
      "outputs": [],
      "stateMutability": "nonpayable",
      "type": "function"
    },
    {
      "inputs": [],
      "name": "renounceOwnership",
      "outputs": [],
      "stateMutability": "nonpayable",
      "type": "function"
    },
    {
      "inputs": [
        {
          "internalType": "address",
          "name": "_gammaCardsContract",
          "type": "address"
        }
      ],
      "name": "setGammaCardsContract",
      "outputs": [],
      "stateMutability": "nonpayable",
      "type": "function"
    },
    {
      "inputs": [
        {
          "internalType": "address",
          "name": "_gammaTicketsContract",
          "type": "address"
        }
      ],
      "name": "setGammaTicketsContract",
      "outputs": [],
      "stateMutability": "nonpayable",
      "type": "function"
    },
    {
      "inputs": [
        {
          "internalType": "uint256",
          "name": "tokenId",
          "type": "uint256"
        },
        {
          "internalType": "address",
          "name": "owner",
          "type": "address"
        }
      ],
      "name": "testOpenPack",
      "outputs": [],
      "stateMutability": "nonpayable",
      "type": "function"
    },
    {
      "inputs": [
        {
          "internalType": "uint256[]",
          "name": "tokenIds",
          "type": "uint256[]"
        },
        {
          "internalType": "address",
          "name": "owner",
          "type": "address"
        }
      ],
      "name": "testOpenPacks",
      "outputs": [],
      "stateMutability": "nonpayable",
      "type": "function"
    },
    {
      "inputs": [],
      "name": "totalSupply",
      "outputs": [
        {
          "internalType": "uint256",
          "name": "",
          "type": "uint256"
        }
      ],
      "stateMutability": "view",
      "type": "function"
    },
    {
      "inputs": [
        {
          "internalType": "address",
          "name": "newOwner",
          "type": "address"
        }
      ],
      "name": "transferOwnership",
      "outputs": [],
      "stateMutability": "nonpayable",
      "type": "function"
    },
    {
      "inputs": [
        {
          "internalType": "address",
          "name": "to",
          "type": "address"
        },
        {
          "internalType": "uint256",
          "name": "tokenId",
          "type": "uint256"
        }
      ],
      "name": "transferPack",
      "outputs": [],
      "stateMutability": "nonpayable",
      "type": "function"
    },
    {
      "inputs": [
        {
          "internalType": "address",
          "name": "to",
          "type": "address"
        },
        {
          "internalType": "uint256[]",
          "name": "tokenIds",
          "type": "uint256[]"
        }
      ],
      "name": "transferPacks",
      "outputs": [],
      "stateMutability": "nonpayable",
      "type": "function"
    }
  ],
  "bytecode": "0x60806040526710a741a46278000060065560006008556009805460ff1916600117905534801561002e57600080fd5b506100383361003d565b61008d565b600080546001600160a01b038381166001600160a01b0319831681178455604051919092169283917f8be0079c531659141344cd1fd0a4f28419497f9722a3daafe3b4186f6b6457e09190a35050565b611fb88061009c6000396000f3fe608060405234801561001057600080fd5b506004361061021c5760003560e01c80638fd5baf711610125578063c37b9bcd116100ad578063d6a4c3e41161007c578063d6a4c3e4146104d1578063ddb975e8146104e4578063e0f78307146104f7578063e606df871461050a578063f2fde38b1461051d57600080fd5b8063c37b9bcd1461047a578063d250f03a14610482578063d3e6a7ad14610495578063d611713e146104be57600080fd5b8063a2b40d19116100f4578063a2b40d1914610405578063ab4bdbc814610418578063b48ce6531461042b578063b84c13921461043e578063bd7133801461046757600080fd5b80638fd5baf7146103b9578063967ed63d146103cc57806397f8b3d3146103df57806399e5f896146103f257600080fd5b80633f6ecd48116101a85780636adbaf75116101775780636adbaf75146103675780637065cb481461037a578063715018a61461038d57806380f2540b146103955780638da5cb5b146103a857600080fd5b80633f6ecd481461030e5780634c7a7ad314610321578063627b253f1461033457806362e218781461034757600080fd5b8063173825d9116101ef578063173825d91461029a57806318160ddd146102ad5780632f54bf6e146102b6578063335c8b63146102f257806339e8d3ec146102fb57600080fd5b806301321c4d1461022157806306552ff3146102475780630c3e5c001461025c57806314cca36a1461026f575b600080fd5b61023461022f366004611a9a565b610530565b6040519081526020015b60405180910390f35b61025a610255366004611aca565b61055e565b005b61025a61026a366004611bcf565b61064a565b600254610282906001600160a01b031681565b6040516001600160a01b03909116815260200161023e565b61025a6102a8366004611c1d565b6106c5565b61023461c35081565b6102e26102c4366004611c1d565b6001600160a01b031660009081526003602052604090205460ff1690565b604051901515815260200161023e565b61023460065481565b61025a610309366004611c38565b61076a565b61023461031c366004611a9a565b6107a7565b61025a61032f366004611c1d565b6107d5565b600754610282906001600160a01b031681565b61035a610355366004611c5b565b61087f565b60405161023e9190611cc0565b61035a610375366004611a9a565b6108bb565b61025a610388366004611c1d565b6108c7565b61025a61093d565b61025a6103a3366004611c38565b610951565b6000546001600160a01b0316610282565b61035a6103c7366004611c1d565b61097b565b6102346103da366004611c1d565b6109e7565b61025a6103ed366004611bcf565b610a24565b61025a610400366004611ce1565b610a95565b61025a610413366004611a9a565b610ad7565b61025a610426366004611cfe565b610b9a565b610234610439366004611a9a565b610c21565b61028261044c366004611a9a565b600a602052600090815260409020546001600160a01b031681565b610234610475366004611c5b565b610c4e565b610234610c7f565b600154610282906001600160a01b031681565b6102826104a3366004611a9a565b6000908152600a60205260409020546001600160a01b031690565b61025a6104cc366004611c5b565b610c8f565b6102e26104df366004611a9a565b610c99565b61025a6104f2366004611c1d565b610cd2565b61025a610505366004611c1d565b610d75565b600554610282906001600160a01b031681565b61025a61052b366004611c1d565b610e18565b60008061053c836107a7565b9050808360065461054d9190611d62565b6105579190611d79565b9392505050565b610566610e91565b6001600160a01b0383166105955760405162461bcd60e51b815260040161058c90611d8c565b60405180910390fd5b6001600160a01b0382166105bb5760405162461bcd60e51b815260040161058c90611d8c565b6001600160a01b0381166105e15760405162461bcd60e51b815260040161058c90611d8c565b600580546001600160a01b03199081166001600160a01b039687161790915560078054821694861694909417909355600180548416928516929092178255600280549093169316929092179055336000908152600360205260409020805460ff19169091179055565b3360009081526003602052604090205460ff166106795760405162461bcd60e51b815260040161058c90611db6565b60005b82518110156106c057600083828151811061069957610699611ddc565b602002602001015190506106ad8184610eeb565b50806106b881611df2565b91505061067c565b505050565b3360009081526003602052604090205460ff166106f45760405162461bcd60e51b815260040161058c90611db6565b604051632dd92c6960e21b8152600360048201526001600160a01b038216602482015273__$2004922c2908b386ae4415e9a8cdeda8c7$__9063b764b1a4906044015b60006040518083038186803b15801561074f57600080fd5b505af4158015610763573d6000803e3d6000fd5b5050505050565b3360009081526003602052604090205460ff166107995760405162461bcd60e51b815260040161058c90611db6565b6107a38282610eeb565b5050565b600081600680546107b89190611e0b565b6006546107c59190611d79565b6107cf9190611d62565b92915050565b3360009081526003602052604090205460ff166108045760405162461bcd60e51b815260040161058c90611db6565b6001600160a01b03811661082a5760405162461bcd60e51b815260040161058c90611d8c565b600180546001600160a01b0319166001600160a01b0383169081179091556040519081527f45c9eba39b5ae3e7a6650b0a57bcb8e5d135936d56d111983dbc5860ae6760fa906020015b60405180910390a150565b3360009081526003602052604090205460609060ff166108b15760405162461bcd60e51b815260040161058c90611db6565b6105578383610f51565b60606107cf3383610f51565b3360009081526003602052604090205460ff166108f65760405162461bcd60e51b815260040161058c90611db6565b604051632d35e2b960e21b8152600360048201526001600160a01b038216602482015273__$2004922c2908b386ae4415e9a8cdeda8c7$__9063b4d78ae490604401610737565b610945610e91565b61094f600061129c565b565b6001546001600160a01b031633146107995760405162461bcd60e51b815260040161058c90611e2d565b6001600160a01b0381166000908152600b60209081526040918290208054835181840281018401909452808452606093928301828280156109db57602002820191906000526020600020905b8154815260200190600101908083116109c7575b50505050509050919050565b3360009081526003602052604081205460ff16610a165760405162461bcd60e51b815260040161058c90611db6565b6107cf826112ec565b919050565b6001546001600160a01b03163314610a4e5760405162461bcd60e51b815260040161058c90611e2d565b60005b82518110156106c0576000838281518110610a6e57610a6e611ddc565b60200260200101519050610a828184610eeb565b5080610a8d81611df2565b915050610a51565b3360009081526003602052604090205460ff16610ac45760405162461bcd60e51b815260040161058c90611db6565b6009805460ff1916911515919091179055565b3360009081526003602052604090205460ff16610b065760405162461bcd60e51b815260040161058c90611db6565b60068190556001546040516370c41e3760e11b8152600481018390526001600160a01b039091169063e1883c6e90602401600060405180830381600087803b158015610b5157600080fd5b505af1158015610b65573d6000803e3d6000fd5b505050507f270b316b51ab2cf3a3bb8ca4d22e76a327d05e762fcaa8bd6afaf8cfde9270b78160405161087491815260200190565b60005b8151811015610be1576000828281518110610bba57610bba611ddc565b60200260200101519050610bce848261131f565b5080610bd981611df2565b915050610b9d565b507f1affae2fd35738ec8f6a4212f337c673b41aa2231f1bd5cfeb94463a93ace1f1338383604051610c1593929190611e7e565b60405180910390a15050565b600080610c2d836107a7565b90506000610c3a84610530565b9050610c468183611eb3565b949350505050565b600b6020528160005260406000208181548110610c6a57600080fd5b90600052602060002001600091509150505481565b6000610c8a336112ec565b905090565b6107a3828261131f565b6000808211610cba5760405162461bcd60e51b815260040161058c90611ec6565b61c35082600854610ccb9190611eb3565b1092915050565b3360009081526003602052604090205460ff16610d015760405162461bcd60e51b815260040161058c90611db6565b6001600160a01b038116610d275760405162461bcd60e51b815260040161058c90611d8c565b600280546001600160a01b0319166001600160a01b0383169081179091556040519081527f563f24d71e856f79bec30e1aa96082a296cd13f0a71cec730a72b719fa0fa20290602001610874565b3360009081526003602052604090205460ff16610da45760405162461bcd60e51b815260040161058c90611db6565b6001600160a01b038116610dca5760405162461bcd60e51b815260040161058c90611d8c565b600780546001600160a01b0319166001600160a01b0383169081179091556040519081527f7161c7a7090d78e8031fca87e845a86b39e0eb9c15436933d2d4ce7f4520c4a590602001610874565b610e20610e91565b6001600160a01b038116610e855760405162461bcd60e51b815260206004820152602660248201527f4f776e61626c653a206e6577206f776e657220697320746865207a65726f206160448201526564647265737360d01b606482015260840161058c565b610e8e8161129c565b50565b6000546001600160a01b0316331461094f5760405162461bcd60e51b815260206004820181905260248201527f4f776e61626c653a2063616c6c6572206973206e6f7420746865206f776e6572604482015260640161058c565b610ef58282611447565b6000828152600a602090815260409182902080546001600160a01b031916905581516001600160a01b03841681529081018490527f459bdaa71b6c253b49d34a7622dc4c6c1c416c0567571c068b392ba7172ddd4c9101610c15565b60606001600160a01b038316610f795760405162461bcd60e51b815260040161058c90611d8c565b60008211610f995760405162461bcd60e51b815260040161058c90611ec6565b61c35082600854610faa9190611eb3565b1061101d5760405162461bcd60e51b815260206004820152603c60248201527f546865206e756d626572206f66207061636b7320796f752077616e7420746f2060448201527f62757920657863656564732074686f736520617661696c61626c652e00000000606482015260840161058c565b60008267ffffffffffffffff81111561103857611038611b1e565b604051908082528060200260200182016040528015611061578160200160208202803683370190505b50905060005b838110156111555760085461c35081106110c35760405162461bcd60e51b815260206004820152601860248201527f546865726520617265206e6f206d6f7265207061636b732e0000000000000000604482015260640161058c565b6001600860008282546110d69190611eb3565b90915550506000818152600a6020908152604080832080546001600160a01b0319166001600160a01b038b169081179091558352600b8252822080546001810182559083529120018190558251819084908490811061113757611137611ddc565b6020908102919091010152508061114d81611df2565b915050611067565b5060006111628585611586565b9050806111e65760405162461bcd60e51b815260206004820152604660248201527f546865207472616e73666572732072656c6174656420746f207468652070757260448201527f6368617365206f66207061636b7320636f756c64206e6f7420626520636f6d706064820152653632ba32b21760d11b608482015260a40161058c565b8360010361125a577fc79cad949a408373456da7a9e88e8114102aa00e03a69733c70e3a0d95944ca7858360008151811061122357611223611ddc565b602002602001015160405161124d9291906001600160a01b03929092168252602082015260400190565b60405180910390a1611294565b7f8ae8b18ed6d499ec84f68235bf3512b3db155f7911789805d36093467e5971c9858360405161128b929190611f12565b60405180910390a15b509392505050565b600080546001600160a01b038381166001600160a01b0319831681178455604051919092169283917f8be0079c531659141344cd1fd0a4f28419497f9722a3daafe3b4186f6b6457e09190a35050565b6000806112fa836001610f51565b90508060008151811061130f5761130f611ddc565b6020026020010151915050919050565b6001600160a01b0382166113455760405162461bcd60e51b815260040161058c90611d8c565b6000818152600a60205260409020546001600160a01b031633146113ab5760405162461bcd60e51b815260206004820152601760248201527f54486973207061636b206973206e6f7420796f7572732e000000000000000000604482015260640161058c565b6000818152600a6020526040902080546001600160a01b0319166001600160a01b0384161790556113dc8133611447565b6001600160a01b0382166000818152600b6020908152604080832080546001810182559084529282902090920184905581513381529081019290925281018290527f16e5698e3d85c69c8d8cdb9a21893b33518e24d8cb69d9944d4bfd233464c3a290606001610c15565b6001600160a01b0381166000908152600b6020526040812054905b81811015611580576001600160a01b0383166000908152600b6020526040902080548591908390811061149757611497611ddc565b90600052602060002001540361156e576001600160a01b0383166000908152600b6020526040902080546114cd90600190611d79565b815481106114dd576114dd611ddc565b9060005260206000200154600b6000856001600160a01b03166001600160a01b03168152602001908152602001600020828154811061151e5761151e611ddc565b60009182526020808320909101929092556001600160a01b0385168152600b9091526040902080548061155357611553611f36565b60019003818190600052602060002001600090559055611580565b8061157881611df2565b915050611462565b50505050565b600080611592836107a7565b9050600061159f84610530565b600154604051630bc639c960e31b8152600481018590529192506001600160a01b031690635e31ce4890602401600060405180830381600087803b1580156115e657600080fd5b505af11580156115fa573d6000803e3d6000fd5b505060095460ff16159150611a8f905057600554604051636eb1769f60e11b81526001600160a01b03878116600483015230602483015290911690600090829063dd62ed3e90604401602060405180830381865afa158015611660573d6000803e3d6000fd5b505050506040513d601f19601f820116820180604052508101906116849190611f4c565b90506116908385611eb3565b8110156117165760405162461bcd60e51b815260206004820152604860248201527f496e73756666696369656e7420616c6c6f77616e636520746f207472616e736660448201527f6572207072697a657320616d6f756e7420616e64204e4f46204163636f756e746064820152671030b6b7bab73a1760c11b608482015260a40161058c565b6040516370a0823160e01b81526001600160a01b0388811660048301528591908416906370a0823190602401602060405180830381865afa15801561175f573d6000803e3d6000fd5b505050506040513d601f19601f820116820180604052508101906117839190611f4c565b10156117e95760405162461bcd60e51b815260206004820152602f60248201527f496e73756666696369656e742062616c616e636520746f207472616e7366657260448201526e10383934bd32b99030b6b7bab73a1760891b606482015260840161058c565b6040516370a0823160e01b81526001600160a01b0388811660048301528491908416906370a0823190602401602060405180830381865afa158015611832573d6000803e3d6000fd5b505050506040513d601f19601f820116820180604052508101906118569190611f4c565b10156118bc5760405162461bcd60e51b815260206004820152602f60248201527f496e73756666696369656e742062616c616e636520746f207472616e7366657260448201526e10383937b334ba1030b6b7bab73a1760891b606482015260840161058c565b6001546040516323b872dd60e01b81526001600160a01b0389811660048301529182166024820152604481018690526000918416906323b872dd906064016020604051808303816000875af1158015611919573d6000803e3d6000fd5b505050506040513d601f19601f8201168201806040525081019061193d9190611f65565b9050806119a65760405162461bcd60e51b815260206004820152603160248201527f4572726f722073656e64696e67207072697a6520616d6f756e7420746f20676160448201527036b6b0a1b0b93239a1b7b73a3930b1ba1760791b606482015260840161058c565b6007546040516323b872dd60e01b81526001600160a01b038a811660048301529182166024820152604481018690526000918516906323b872dd906064016020604051808303816000875af1158015611a03573d6000803e3d6000fd5b505050506040513d601f19601f82011682018060405250810190611a279190611f65565b905080611a8a5760405162461bcd60e51b815260206004820152602b60248201527f4572726f722073656e64696e672070726f66697420616d6f756e7420746f204e60448201526a37a31030b1b1b7bab73a1760a91b606482015260840161058c565b505050505b506001949350505050565b600060208284031215611aac57600080fd5b5035919050565b80356001600160a01b0381168114610a1f57600080fd5b60008060008060808587031215611ae057600080fd5b611ae985611ab3565b9350611af760208601611ab3565b9250611b0560408601611ab3565b9150611b1360608601611ab3565b905092959194509250565b634e487b7160e01b600052604160045260246000fd5b600082601f830112611b4557600080fd5b8135602067ffffffffffffffff80831115611b6257611b62611b1e565b8260051b604051601f19603f83011681018181108482111715611b8757611b87611b1e565b604052938452858101830193838101925087851115611ba557600080fd5b83870191505b84821015611bc457813583529183019190830190611bab565b979650505050505050565b60008060408385031215611be257600080fd5b823567ffffffffffffffff811115611bf957600080fd5b611c0585828601611b34565b925050611c1460208401611ab3565b90509250929050565b600060208284031215611c2f57600080fd5b61055782611ab3565b60008060408385031215611c4b57600080fd5b82359150611c1460208401611ab3565b60008060408385031215611c6e57600080fd5b611c7783611ab3565b946020939093013593505050565b600081518084526020808501945080840160005b83811015611cb557815187529582019590820190600101611c99565b509495945050505050565b6020815260006105576020830184611c85565b8015158114610e8e57600080fd5b600060208284031215611cf357600080fd5b813561055781611cd3565b60008060408385031215611d1157600080fd5b611d1a83611ab3565b9150602083013567ffffffffffffffff811115611d3657600080fd5b611d4285828601611b34565b9150509250929050565b634e487b7160e01b600052601160045260246000fd5b80820281158282048414176107cf576107cf611d4c565b818103818111156107cf576107cf611d4c565b60208082526010908201526f24b73b30b634b21030b2323932b9b99760811b604082015260600190565b6020808252600c908201526b27b7363c9037bbb732b9399760a11b604082015260600190565b634e487b7160e01b600052603260045260246000fd5b600060018201611e0457611e04611d4c565b5060010190565b600082611e2857634e487b7160e01b600052601260045260246000fd5b500490565b60208082526031908201527f4f6e6c792067616d6d6120636172647320636f6e74726163742063616e2063616040820152703636103a3434b990333ab731ba34b7b71760791b606082015260800190565b6001600160a01b03848116825283166020820152606060408201819052600090611eaa90830184611c85565b95945050505050565b808201808211156107cf576107cf611d4c565b6020808252602c908201527f4e756d626572206f66207061636b732073686f756c642062652067726561746560408201526b39103a3430b7103d32b9379760a11b606082015260800190565b6001600160a01b0383168152604060208201819052600090610c4690830184611c85565b634e487b7160e01b600052603160045260246000fd5b600060208284031215611f5e57600080fd5b5051919050565b600060208284031215611f7757600080fd5b815161055781611cd356fea2646970667358221220c72b2393e3bcd3deb50f5fff31aba6f60a77f67288c45d0a79012f6e873e6a6864736f6c63430008140033",
  "linkReferences": {
    "contracts/gamma/libs/LibControlMgmt.sol": {
      "LibControlMgmt": [
        {
          "length": 20,
          "start": 1973
        },
        {
          "length": 20,
          "start": 2487
        }
      ]
    }
  },
  "deployedLinkReferences": {
    "contracts/gamma/libs/LibControlMgmt.sol": {
      "LibControlMgmt": [
        {
          "length": 20,
          "start": 1817
        },
        {
          "length": 20,
          "start": 2331
        }
      ]
    }
  }
}