{
  "_format": "hh-sol-artifact-1",
  "contractName": "NofGammaPacksV3",
  "sourceName": "contracts/gamma/GammaPacks.v3.sol",
  "abi": [
    {
      "inputs": [
        {
          "internalType": "address",
          "name": "_daiTokenAddress",
          "type": "address"
        },
        {
          "internalType": "address",
          "name": "_balanceReceiver",
          "type": "address"
        }
      ],
      "stateMutability": "nonpayable",
      "type": "constructor"
    },
    {
      "anonymous": false,
      "inputs": [
        {
          "indexed": false,
          "internalType": "address",
          "name": "newCardsContract",
          "type": "address"
        }
      ],
      "name": "NewGammaCardsContract",
      "type": "event"
    },
    {
      "anonymous": false,
      "inputs": [
        {
          "indexed": false,
          "internalType": "uint256",
          "name": "newPrice",
          "type": "uint256"
        }
      ],
      "name": "NewPrice",
      "type": "event"
    },
    {
      "anonymous": false,
      "inputs": [
        {
          "indexed": true,
          "internalType": "address",
          "name": "previousOwner",
          "type": "address"
        },
        {
          "indexed": true,
          "internalType": "address",
          "name": "newOwner",
          "type": "address"
        }
      ],
      "name": "OwnershipTransferred",
      "type": "event"
    },
    {
      "anonymous": false,
      "inputs": [
        {
          "indexed": false,
          "internalType": "address",
          "name": "user",
          "type": "address"
        },
        {
          "indexed": false,
          "internalType": "uint256",
          "name": "tokenId",
          "type": "uint256"
        }
      ],
      "name": "PackOpen",
      "type": "event"
    },
    {
      "anonymous": false,
      "inputs": [
        {
          "indexed": false,
          "internalType": "address",
          "name": "buyer",
          "type": "address"
        },
        {
          "indexed": false,
          "internalType": "uint256",
          "name": "tokenId",
          "type": "uint256"
        }
      ],
      "name": "PackPurchase",
      "type": "event"
    },
    {
      "anonymous": false,
      "inputs": [
        {
          "indexed": false,
          "internalType": "address",
          "name": "from",
          "type": "address"
        },
        {
          "indexed": false,
          "internalType": "address",
          "name": "to",
          "type": "address"
        },
        {
          "indexed": false,
          "internalType": "uint256",
          "name": "tokenId",
          "type": "uint256"
        }
      ],
      "name": "PackTransfer",
      "type": "event"
    },
    {
      "anonymous": false,
      "inputs": [
        {
          "indexed": false,
          "internalType": "address",
          "name": "buyer",
          "type": "address"
        },
        {
          "indexed": false,
          "internalType": "uint256[]",
          "name": "tokenIds",
          "type": "uint256[]"
        }
      ],
      "name": "PacksPurchase",
      "type": "event"
    },
    {
      "inputs": [],
      "name": "DAI_TOKEN",
      "outputs": [
        {
          "internalType": "address",
          "name": "",
          "type": "address"
        }
      ],
      "stateMutability": "view",
      "type": "function"
    },
    {
      "inputs": [
        {
          "internalType": "address",
          "name": "_newOwner",
          "type": "address"
        }
      ],
      "name": "addOwner",
      "outputs": [],
      "stateMutability": "nonpayable",
      "type": "function"
    },
    {
      "inputs": [],
      "name": "balanceReceiver",
      "outputs": [
        {
          "internalType": "address",
          "name": "",
          "type": "address"
        }
      ],
      "stateMutability": "view",
      "type": "function"
    },
    {
      "inputs": [],
      "name": "buyPack",
      "outputs": [
        {
          "internalType": "uint256",
          "name": "",
          "type": "uint256"
        }
      ],
      "stateMutability": "nonpayable",
      "type": "function"
    },
    {
      "inputs": [
        {
          "internalType": "address",
          "name": "user",
          "type": "address"
        }
      ],
      "name": "buyPackByUser",
      "outputs": [
        {
          "internalType": "uint256",
          "name": "",
          "type": "uint256"
        }
      ],
      "stateMutability": "nonpayable",
      "type": "function"
    },
    {
      "inputs": [
        {
          "internalType": "uint256",
          "name": "numberOfPacks",
          "type": "uint256"
        }
      ],
      "name": "buyPacks",
      "outputs": [
        {
          "internalType": "uint256[]",
          "name": "",
          "type": "uint256[]"
        }
      ],
      "stateMutability": "nonpayable",
      "type": "function"
    },
    {
      "inputs": [
        {
          "internalType": "address",
          "name": "user",
          "type": "address"
        },
        {
          "internalType": "uint256",
          "name": "numberOfPacks",
          "type": "uint256"
        }
      ],
      "name": "buyPacksByUser",
      "outputs": [
        {
          "internalType": "uint256[]",
          "name": "",
          "type": "uint256[]"
        }
      ],
      "stateMutability": "nonpayable",
      "type": "function"
    },
    {
      "inputs": [
        {
          "internalType": "address",
          "name": "_newBalanceReceiver",
          "type": "address"
        }
      ],
      "name": "changeBalanceReceiver",
      "outputs": [],
      "stateMutability": "nonpayable",
      "type": "function"
    },
    {
      "inputs": [
        {
          "internalType": "uint256",
          "name": "_newPrice",
          "type": "uint256"
        }
      ],
      "name": "changePrice",
      "outputs": [],
      "stateMutability": "nonpayable",
      "type": "function"
    },
    {
      "inputs": [
        {
          "internalType": "bool",
          "name": "_transferDai",
          "type": "bool"
        }
      ],
      "name": "changeTransferDaiFlag",
      "outputs": [],
      "stateMutability": "nonpayable",
      "type": "function"
    },
    {
      "inputs": [],
      "name": "gammaCardsContract",
      "outputs": [
        {
          "internalType": "contract IGammaCardsContract",
          "name": "",
          "type": "address"
        }
      ],
      "stateMutability": "view",
      "type": "function"
    },
    {
      "inputs": [
        {
          "internalType": "uint256",
          "name": "numberOfPacks",
          "type": "uint256"
        }
      ],
      "name": "getAmountRequiredToBuyPacks",
      "outputs": [
        {
          "internalType": "uint256",
          "name": "",
          "type": "uint256"
        }
      ],
      "stateMutability": "view",
      "type": "function"
    },
    {
      "inputs": [
        {
          "internalType": "uint256",
          "name": "tokenId",
          "type": "uint256"
        }
      ],
      "name": "getPackOwner",
      "outputs": [
        {
          "internalType": "address",
          "name": "",
          "type": "address"
        }
      ],
      "stateMutability": "view",
      "type": "function"
    },
    {
      "inputs": [
        {
          "internalType": "address",
          "name": "owner",
          "type": "address"
        }
      ],
      "name": "getPacksByUser",
      "outputs": [
        {
          "internalType": "uint256[]",
          "name": "",
          "type": "uint256[]"
        }
      ],
      "stateMutability": "view",
      "type": "function"
    },
    {
      "inputs": [
        {
          "internalType": "uint256",
          "name": "numberOfPacks",
          "type": "uint256"
        }
      ],
      "name": "getPrizeAmountToBuyPacks",
      "outputs": [
        {
          "internalType": "uint256",
          "name": "",
          "type": "uint256"
        }
      ],
      "stateMutability": "view",
      "type": "function"
    },
    {
      "inputs": [
        {
          "internalType": "uint256",
          "name": "numberOfPacks",
          "type": "uint256"
        }
      ],
      "name": "getPrizeNoFAccountAmountToBuyPacks",
      "outputs": [
        {
          "internalType": "uint256",
          "name": "",
          "type": "uint256"
        }
      ],
      "stateMutability": "view",
      "type": "function"
    },
    {
      "inputs": [
        {
          "internalType": "uint256",
          "name": "tokenId",
          "type": "uint256"
        },
        {
          "internalType": "address",
          "name": "owner",
          "type": "address"
        }
      ],
      "name": "openPack",
      "outputs": [],
      "stateMutability": "nonpayable",
      "type": "function"
    },
    {
      "inputs": [
        {
          "internalType": "uint256[]",
          "name": "tokenIds",
          "type": "uint256[]"
        },
        {
          "internalType": "address",
          "name": "owner",
          "type": "address"
        }
      ],
      "name": "openPacks",
      "outputs": [],
      "stateMutability": "nonpayable",
      "type": "function"
    },
    {
      "inputs": [],
      "name": "owner",
      "outputs": [
        {
          "internalType": "address",
          "name": "",
          "type": "address"
        }
      ],
      "stateMutability": "view",
      "type": "function"
    },
    {
      "inputs": [
        {
          "internalType": "address",
          "name": "",
          "type": "address"
        }
      ],
      "name": "owners",
      "outputs": [
        {
          "internalType": "bool",
          "name": "",
          "type": "bool"
        }
      ],
      "stateMutability": "view",
      "type": "function"
    },
    {
      "inputs": [],
      "name": "packPrice",
      "outputs": [
        {
          "internalType": "uint256",
          "name": "",
          "type": "uint256"
        }
      ],
      "stateMutability": "view",
      "type": "function"
    },
    {
      "inputs": [
        {
          "internalType": "uint256",
          "name": "tokenId",
          "type": "uint256"
        }
      ],
      "name": "packs",
      "outputs": [
        {
          "internalType": "address",
          "name": "owner",
          "type": "address"
        }
      ],
      "stateMutability": "view",
      "type": "function"
    },
    {
      "inputs": [
        {
          "internalType": "address",
          "name": "owner",
          "type": "address"
        },
        {
          "internalType": "uint256",
          "name": "",
          "type": "uint256"
        }
      ],
      "name": "packsByUser",
      "outputs": [
        {
          "internalType": "uint256",
          "name": "tokenIds",
          "type": "uint256"
        }
      ],
      "stateMutability": "view",
      "type": "function"
    },
    {
      "inputs": [
        {
          "internalType": "address",
          "name": "_ownerToRemove",
          "type": "address"
        }
      ],
      "name": "removeOwner",
      "outputs": [],
      "stateMutability": "nonpayable",
      "type": "function"
    },
    {
      "inputs": [],
      "name": "renounceOwnership",
      "outputs": [],
      "stateMutability": "nonpayable",
      "type": "function"
    },
    {
      "inputs": [
        {
          "internalType": "address",
          "name": "_gammaCardsContract",
          "type": "address"
        }
      ],
      "name": "setGammaCardsContract",
      "outputs": [],
      "stateMutability": "nonpayable",
      "type": "function"
    },
    {
      "inputs": [
        {
          "internalType": "uint256",
          "name": "tokenId",
          "type": "uint256"
        },
        {
          "internalType": "address",
          "name": "owner",
          "type": "address"
        }
      ],
      "name": "testOpenPack",
      "outputs": [],
      "stateMutability": "nonpayable",
      "type": "function"
    },
    {
      "inputs": [
        {
          "internalType": "uint256[]",
          "name": "tokenIds",
          "type": "uint256[]"
        },
        {
          "internalType": "address",
          "name": "owner",
          "type": "address"
        }
      ],
      "name": "testOpenPacks",
      "outputs": [],
      "stateMutability": "nonpayable",
      "type": "function"
    },
    {
      "inputs": [],
      "name": "totalSupply",
      "outputs": [
        {
          "internalType": "uint256",
          "name": "",
          "type": "uint256"
        }
      ],
      "stateMutability": "view",
      "type": "function"
    },
    {
      "inputs": [
        {
          "internalType": "address",
          "name": "newOwner",
          "type": "address"
        }
      ],
      "name": "transferOwnership",
      "outputs": [],
      "stateMutability": "nonpayable",
      "type": "function"
    },
    {
      "inputs": [
        {
          "internalType": "address",
          "name": "to",
          "type": "address"
        },
        {
          "internalType": "uint256",
          "name": "tokenId",
          "type": "uint256"
        }
      ],
      "name": "transferPack",
      "outputs": [],
      "stateMutability": "nonpayable",
      "type": "function"
    },
    {
      "inputs": [
        {
          "internalType": "address",
          "name": "to",
          "type": "address"
        },
        {
          "internalType": "uint256[]",
          "name": "tokenIds",
          "type": "uint256[]"
        }
      ],
      "name": "transferPacks",
      "outputs": [],
      "stateMutability": "nonpayable",
      "type": "function"
    }
  ],
  "bytecode": "0x60806040526710a741a4627800006003556006805460ff191660011790553480156200002a57600080fd5b5060405162001f3f38038062001f3f8339810160408190526200004d9162000122565b6200005833620000b5565b600280546001600160a01b039384166001600160a01b03199182161790915560048054929093169116179055336000908152600960205260409020805460ff1990811660019081179092556006805490911690911790556200015a565b600080546001600160a01b038381166001600160a01b0319831681178455604051919092169283917f8be0079c531659141344cd1fd0a4f28419497f9722a3daafe3b4186f6b6457e09190a35050565b80516001600160a01b03811681146200011d57600080fd5b919050565b600080604083850312156200013657600080fd5b620001418362000105565b9150620001516020840162000105565b90509250929050565b611dd5806200016a6000396000f3fe608060405234801561001057600080fd5b50600436106101f05760003560e01c80638fd5baf71161010f578063bd713380116100a2578063d611713e11610071578063d611713e14610463578063e0f7830714610476578063e606df8714610489578063f2fde38b1461049c57600080fd5b8063bd7133801461040c578063c37b9bcd1461041f578063d250f03a14610427578063d3e6a7ad1461043a57600080fd5b8063a2b40d19116100de578063a2b40d19146103aa578063ab4bdbc8146103bd578063b48ce653146103d0578063b84c1392146103e357600080fd5b80638fd5baf71461035e578063967ed63d1461037157806397f8b3d31461038457806399e5f8961461039757600080fd5b80634c7a7ad3116101875780637065cb48116101565780637065cb481461031f578063715018a61461033257806380f2540b1461033a5780638da5cb5b1461034d57600080fd5b80634c7a7ad3146102ae578063627b253f146102c157806362e21878146102ec5780636adbaf751461030c57600080fd5b806318160ddd116101c357806318160ddd14610276578063335c8b631461027f57806339e8d3ec146102885780633f6ecd481461029b57600080fd5b806301321c4d146101f5578063022914a71461021b5780630c3e5c001461024e578063173825d914610263575b600080fd5b610208610203366004611903565b6104af565b6040519081526020015b60405180910390f35b61023e610229366004611933565b60096020526000908152604090205460ff1681565b6040519015158152602001610212565b61026161025c3660046119ff565b6104dd565b005b610261610271366004611933565b610561565b61020861c35081565b61020860035481565b610261610296366004611a4d565b6106a7565b6102086102a9366004611903565b6106e4565b6102616102bc366004611933565b610713565b6004546102d4906001600160a01b031681565b6040516001600160a01b039091168152602001610212565b6102ff6102fa366004611a70565b6107bd565b6040516102129190611ad5565b6102ff61031a366004611903565b6107f9565b61026161032d366004611933565b610805565b6102616108e7565b610261610348366004611a4d565b6108fb565b6000546001600160a01b03166102d4565b6102ff61036c366004611933565b610925565b61020861037f366004611933565b610991565b6102616103923660046119ff565b6109ce565b6102616103a5366004611af6565b610a3f565b6102616103b8366004611903565b610a81565b6102616103cb366004611b13565b610b44565b6102086103de366004611903565b610b8b565b6102d46103f1366004611903565b6007602052600090815260409020546001600160a01b031681565b61020861041a366004611a70565b610bb8565b610208610be9565b6001546102d4906001600160a01b031681565b6102d4610448366004611903565b6000908152600760205260409020546001600160a01b031690565b610261610471366004611a70565b610bf9565b610261610484366004611933565b610c03565b6002546102d4906001600160a01b031681565b6102616104aa366004611933565b610c7a565b6000806104bb836106e4565b905080836003546104cc9190611b77565b6104d69190611b8e565b9392505050565b3360009081526009602052604090205460ff166105155760405162461bcd60e51b815260040161050c90611ba1565b60405180910390fd5b60005b825181101561055c57600083828151811061053557610535611be4565b602002602001015190506105498184610cf3565b508061055481611bfa565b915050610518565b505050565b3360009081526009602052604090205460ff166105905760405162461bcd60e51b815260040161050c90611ba1565b6001600160a01b0381166105b65760405162461bcd60e51b815260040161050c90611c13565b336001600160a01b0382160361061e5760405162461bcd60e51b815260206004820152602760248201527f596f752063616e6e6f742072656d6f766520796f757273656c6620617320616e6044820152661037bbb732b91760c91b606482015260840161050c565b6001600160a01b03811660009081526009602052604090205460ff166106865760405162461bcd60e51b815260206004820152601860248201527f41646472657373206973206e6f7420616e206f776e65722e0000000000000000604482015260640161050c565b6001600160a01b03166000908152600960205260409020805460ff19169055565b3360009081526009602052604090205460ff166106d65760405162461bcd60e51b815260040161050c90611ba1565b6106e08282610cf3565b5050565b60008160066003546106f69190611c3d565b6003546107039190611b8e565b61070d9190611b77565b92915050565b3360009081526009602052604090205460ff166107425760405162461bcd60e51b815260040161050c90611ba1565b6001600160a01b0381166107685760405162461bcd60e51b815260040161050c90611c13565b600180546001600160a01b0319166001600160a01b0383169081179091556040519081527f45c9eba39b5ae3e7a6650b0a57bcb8e5d135936d56d111983dbc5860ae6760fa906020015b60405180910390a150565b3360009081526009602052604090205460609060ff166107ef5760405162461bcd60e51b815260040161050c90611ba1565b6104d68383610d61565b606061070d3383610d61565b3360009081526009602052604090205460ff166108345760405162461bcd60e51b815260040161050c90611ba1565b6001600160a01b03811661085a5760405162461bcd60e51b815260040161050c90611c13565b6001600160a01b03811660009081526009602052604090205460ff16156108c35760405162461bcd60e51b815260206004820152601c60248201527f4164647265737320697320616c726561647920616e206f776e65722e00000000604482015260640161050c565b6001600160a01b03166000908152600960205260409020805460ff19166001179055565b6108ef610f5c565b6108f96000610fb6565b565b6001546001600160a01b031633146106d65760405162461bcd60e51b815260040161050c90611c5f565b6001600160a01b03811660009081526008602090815260409182902080548351818402810184019094528084526060939283018282801561098557602002820191906000526020600020905b815481526020019060010190808311610971575b50505050509050919050565b3360009081526009602052604081205460ff166109c05760405162461bcd60e51b815260040161050c90611ba1565b61070d82611006565b919050565b6001546001600160a01b031633146109f85760405162461bcd60e51b815260040161050c90611c5f565b60005b825181101561055c576000838281518110610a1857610a18611be4565b60200260200101519050610a2c8184610cf3565b5080610a3781611bfa565b9150506109fb565b3360009081526009602052604090205460ff16610a6e5760405162461bcd60e51b815260040161050c90611ba1565b6006805460ff1916911515919091179055565b3360009081526009602052604090205460ff16610ab05760405162461bcd60e51b815260040161050c90611ba1565b60038190556001546040516370c41e3760e11b8152600481018390526001600160a01b039091169063e1883c6e90602401600060405180830381600087803b158015610afb57600080fd5b505af1158015610b0f573d6000803e3d6000fd5b505050507f270b316b51ab2cf3a3bb8ca4d22e76a327d05e762fcaa8bd6afaf8cfde9270b7816040516107b291815260200190565b60005b815181101561055c576000828281518110610b6457610b64611be4565b60200260200101519050610b788482611185565b5080610b8381611bfa565b915050610b47565b600080610b97836106e4565b90506000610ba4846104af565b9050610bb08183611cb0565b949350505050565b60086020528160005260406000208181548110610bd457600080fd5b90600052602060002001600091509150505481565b6000610bf433611006565b905090565b6106e08282611185565b3360009081526009602052604090205460ff16610c325760405162461bcd60e51b815260040161050c90611ba1565b6001600160a01b038116610c585760405162461bcd60e51b815260040161050c90611c13565b600480546001600160a01b0319166001600160a01b0392909216919091179055565b610c82610f5c565b6001600160a01b038116610ce75760405162461bcd60e51b815260206004820152602660248201527f4f776e61626c653a206e6577206f776e657220697320746865207a65726f206160448201526564647265737360d01b606482015260840161050c565b610cf081610fb6565b50565b610cfd82826112ad565b60008281526007602090815260409182902080546001600160a01b031916905581516001600160a01b03841681529081018490527fdda72cf20dc64f01f8d74c9683b47b096800d5f243fbbc3c4c9297c09091d8d591015b60405180910390a15050565b6001546060906001600160a01b0316610dbc5760405162461bcd60e51b815260206004820152601b60248201527f47616d6d614361726473436f6e7472616374206e6f74207365742e0000000000604482015260640161050c565b60008267ffffffffffffffff811115610dd757610dd761194e565b604051908082528060200260200182016040528015610e00578160200160208202803683370190505b50905060005b83811015610eef5760055461c3508110610e5d5760405162461bcd60e51b81526020600482015260186024820152772a3432b9329030b9329037379036b7b932903830b1b5b99760411b604482015260640161050c565b600160056000828254610e709190611cb0565b9091555050600081815260076020908152604080832080546001600160a01b0319166001600160a01b038b169081179091558352600882528220805460018101825590835291200181905582518190849084908110610ed157610ed1611be4565b60209081029190910101525080610ee781611bfa565b915050610e06565b506000610efc85856113ec565b905080610f1b5760405162461bcd60e51b815260040161050c90611cc3565b7fccced7f637f56c0164dc795f58e00b6eab6aed650e35721023dc6dd2b8f6746d8583604051610f4c929190611d2f565b60405180910390a1509392505050565b6000546001600160a01b031633146108f95760405162461bcd60e51b815260206004820181905260248201527f4f776e61626c653a2063616c6c6572206973206e6f7420746865206f776e6572604482015260640161050c565b600080546001600160a01b038381166001600160a01b0319831681178455604051919092169283917f8be0079c531659141344cd1fd0a4f28419497f9722a3daafe3b4186f6b6457e09190a35050565b6001546000906001600160a01b03166110615760405162461bcd60e51b815260206004820152601b60248201527f47616d6d614361726473436f6e7472616374206e6f74207365742e0000000000604482015260640161050c565b60055461c35081106110b05760405162461bcd60e51b81526020600482015260186024820152772a3432b9329030b9329037379036b7b932903830b1b5b99760411b604482015260640161050c565b6001600560008282546110c39190611cb0565b9091555050600081815260076020908152604080832080546001600160a01b0319166001600160a01b038816908117909155835260088252822080546001818101835591845291832090910183905561111d9085906113ec565b90508061113c5760405162461bcd60e51b815260040161050c90611cc3565b604080516001600160a01b0386168152602081018490527f4bec02a302b11f990fe586d595753fd0163e88c0f3fff0cdcc10e831ac620e9a910160405180910390a15092915050565b6001600160a01b0382166111ab5760405162461bcd60e51b815260040161050c90611c13565b6000818152600760205260409020546001600160a01b031633146112115760405162461bcd60e51b815260206004820152601760248201527f54486973207061636b206973206e6f7420796f7572732e000000000000000000604482015260640161050c565b600081815260076020526040902080546001600160a01b0319166001600160a01b03841617905561124281336112ad565b6001600160a01b038216600081815260086020908152604080832080546001810182559084529282902090920184905581513381529081019290925281018290527fddb6f61cc68e099150dacab8be873f19cc91f6ceb7d8237794124ede38722aaf90606001610d55565b6001600160a01b038116600090815260086020526040812054905b818110156113e6576001600160a01b03831660009081526008602052604090208054859190839081106112fd576112fd611be4565b9060005260206000200154036113d4576001600160a01b0383166000908152600860205260409020805461133390600190611b8e565b8154811061134357611343611be4565b906000526020600020015460086000856001600160a01b03166001600160a01b03168152602001908152602001600020828154811061138457611384611be4565b60009182526020808320909101929092556001600160a01b03851681526008909152604090208054806113b9576113b9611d53565b600190038181906000526020600020016000905590556113e6565b806113de81611bfa565b9150506112c8565b50505050565b6000806113f8836106e4565b90506000611405846104af565b600154604051630bc639c960e31b8152600481018590529192506001600160a01b031690635e31ce4890602401600060405180830381600087803b15801561144c57600080fd5b505af1158015611460573d6000803e3d6000fd5b505060065460ff161591506118f8905057600254604051636eb1769f60e11b81526001600160a01b03878116600483015230602483015290911690600090829063dd62ed3e90604401602060405180830381865afa1580156114c6573d6000803e3d6000fd5b505050506040513d601f19601f820116820180604052508101906114ea9190611d69565b90506114f68385611cb0565b81101561157c5760405162461bcd60e51b815260206004820152604860248201527f496e73756666696369656e7420616c6c6f77616e636520746f207472616e736660448201527f6572207072697a657320616d6f756e7420616e64204e4f46204163636f756e746064820152671030b6b7bab73a1760c11b608482015260a40161050c565b6040516370a0823160e01b81526001600160a01b0388811660048301528591908416906370a0823190602401602060405180830381865afa1580156115c5573d6000803e3d6000fd5b505050506040513d601f19601f820116820180604052508101906115e99190611d69565b101561164f5760405162461bcd60e51b815260206004820152602f60248201527f496e73756666696369656e742062616c616e636520746f207472616e7366657260448201526e10383934bd32b99030b6b7bab73a1760891b606482015260840161050c565b6040516370a0823160e01b81526001600160a01b0388811660048301528491908416906370a0823190602401602060405180830381865afa158015611698573d6000803e3d6000fd5b505050506040513d601f19601f820116820180604052508101906116bc9190611d69565b10156117225760405162461bcd60e51b815260206004820152602f60248201527f496e73756666696369656e742062616c616e636520746f207472616e7366657260448201526e10383937b334ba1030b6b7bab73a1760891b606482015260840161050c565b6001546040516323b872dd60e01b81526001600160a01b0389811660048301529182166024820152604481018690526000918416906323b872dd906064016020604051808303816000875af115801561177f573d6000803e3d6000fd5b505050506040513d601f19601f820116820180604052508101906117a39190611d82565b90508061180c5760405162461bcd60e51b815260206004820152603160248201527f4572726f722073656e64696e67207072697a6520616d6f756e7420746f20676160448201527036b6b0a1b0b93239a1b7b73a3930b1ba1760791b606482015260840161050c565b600480546040516323b872dd60e01b81526001600160a01b038b8116938201939093529082166024820152604481018690526000918516906323b872dd906064016020604051808303816000875af115801561186c573d6000803e3d6000fd5b505050506040513d601f19601f820116820180604052508101906118909190611d82565b9050806118f35760405162461bcd60e51b815260206004820152602b60248201527f4572726f722073656e64696e672070726f66697420616d6f756e7420746f204e60448201526a37a31030b1b1b7bab73a1760a91b606482015260840161050c565b505050505b506001949350505050565b60006020828403121561191557600080fd5b5035919050565b80356001600160a01b03811681146109c957600080fd5b60006020828403121561194557600080fd5b6104d68261191c565b634e487b7160e01b600052604160045260246000fd5b600082601f83011261197557600080fd5b8135602067ffffffffffffffff808311156119925761199261194e565b8260051b604051601f19603f830116810181811084821117156119b7576119b761194e565b6040529384528581018301938381019250878511156119d557600080fd5b83870191505b848210156119f4578135835291830191908301906119db565b979650505050505050565b60008060408385031215611a1257600080fd5b823567ffffffffffffffff811115611a2957600080fd5b611a3585828601611964565b925050611a446020840161191c565b90509250929050565b60008060408385031215611a6057600080fd5b82359150611a446020840161191c565b60008060408385031215611a8357600080fd5b611a8c8361191c565b946020939093013593505050565b600081518084526020808501945080840160005b83811015611aca57815187529582019590820190600101611aae565b509495945050505050565b6020815260006104d66020830184611a9a565b8015158114610cf057600080fd5b600060208284031215611b0857600080fd5b81356104d681611ae8565b60008060408385031215611b2657600080fd5b611b2f8361191c565b9150602083013567ffffffffffffffff811115611b4b57600080fd5b611b5785828601611964565b9150509250929050565b634e487b7160e01b600052601160045260246000fd5b808202811582820484141761070d5761070d611b61565b8181038181111561070d5761070d611b61565b60208082526023908201527f4f6e6c79206f776e6572732063616e2063616c6c20746869732066756e63746960408201526237b71760e91b606082015260800190565b634e487b7160e01b600052603260045260246000fd5b600060018201611c0c57611c0c611b61565b5060010190565b60208082526010908201526f24b73b30b634b21030b2323932b9b99760811b604082015260600190565b600082611c5a57634e487b7160e01b600052601260045260246000fd5b500490565b60208082526031908201527f4f6e6c792067616d6d6120636172647320636f6e74726163742063616e2063616040820152703636103a3434b990333ab731ba34b7b71760791b606082015260800190565b8082018082111561070d5761070d611b61565b60208082526046908201527f546865207472616e73666572732072656c6174656420746f207468652070757260408201527f6368617365206f66207061636b7320636f756c64206e6f7420626520636f6d706060820152653632ba32b21760d11b608082015260a00190565b6001600160a01b0383168152604060208201819052600090610bb090830184611a9a565b634e487b7160e01b600052603160045260246000fd5b600060208284031215611d7b57600080fd5b5051919050565b600060208284031215611d9457600080fd5b81516104d681611ae856fea26469706673582212203a4835193fdc66bf5ab826577bd83a6985d89cb09efb98b073d0f68cbf3d165764736f6c63430008140033",
  "linkReferences": {},
  "deployedLinkReferences": {}
}