{
  "_format": "hh-sol-artifact-1",
  "contractName": "NofGammaOffersV4",
  "sourceName": "contracts/gamma/GammaOffers.v4.sol",
  "abi": [
    {
      "inputs": [],
      "name": "ExchangeError",
      "type": "error"
    },
    {
      "inputs": [],
      "name": "GammaCardsContractNotSet",
      "type": "error"
    },
    {
      "inputs": [],
      "name": "InvalidAddress",
      "type": "error"
    },
    {
      "inputs": [],
      "name": "InvalidCard",
      "type": "error"
    },
    {
      "inputs": [],
      "name": "InvalidCardNumber",
      "type": "error"
    },
    {
      "inputs": [],
      "name": "InvalidOfferId",
      "type": "error"
    },
    {
      "inputs": [],
      "name": "OfferAlreadyExists",
      "type": "error"
    },
    {
      "inputs": [],
      "name": "OfferDoesNotExists",
      "type": "error"
    },
    {
      "inputs": [],
      "name": "OfferNotDeleted",
      "type": "error"
    },
    {
      "inputs": [],
      "name": "OffersMaximumAllowed",
      "type": "error"
    },
    {
      "inputs": [],
      "name": "OnlyCardsContract",
      "type": "error"
    },
    {
      "inputs": [],
      "name": "OnlyOwners",
      "type": "error"
    },
    {
      "inputs": [],
      "name": "RemoveOfferFromCardNumberMapping_DoNotMatch",
      "type": "error"
    },
    {
      "inputs": [],
      "name": "RemoveOfferFromUserMapping_DoNotMatch",
      "type": "error"
    },
    {
      "inputs": [],
      "name": "UserAlreadyHasCard",
      "type": "error"
    },
    {
      "inputs": [],
      "name": "UserDoesNotHaveCard",
      "type": "error"
    },
    {
      "anonymous": false,
      "inputs": [],
      "name": "AllOffersRemoved",
      "type": "event"
    },
    {
      "anonymous": false,
      "inputs": [
        {
          "indexed": false,
          "internalType": "address",
          "name": "newGammaCardsContract",
          "type": "address"
        }
      ],
      "name": "NewGammaCardsContract",
      "type": "event"
    },
    {
      "anonymous": false,
      "inputs": [
        {
          "indexed": false,
          "internalType": "address",
          "name": "user",
          "type": "address"
        },
        {
          "indexed": false,
          "internalType": "uint8",
          "name": "cardNumber",
          "type": "uint8"
        },
        {
          "indexed": false,
          "internalType": "uint8[]",
          "name": "wantedCardNumbers",
          "type": "uint8[]"
        }
      ],
      "name": "OfferCreated",
      "type": "event"
    },
    {
      "anonymous": false,
      "inputs": [
        {
          "indexed": false,
          "internalType": "address",
          "name": "user",
          "type": "address"
        },
        {
          "indexed": false,
          "internalType": "uint8",
          "name": "cardNumber",
          "type": "uint8"
        }
      ],
      "name": "OfferRemoved",
      "type": "event"
    },
    {
      "anonymous": false,
      "inputs": [
        {
          "indexed": true,
          "internalType": "address",
          "name": "previousOwner",
          "type": "address"
        },
        {
          "indexed": true,
          "internalType": "address",
          "name": "newOwner",
          "type": "address"
        }
      ],
      "name": "OwnershipTransferred",
      "type": "event"
    },
    {
      "anonymous": false,
      "inputs": [
        {
          "indexed": false,
          "internalType": "address",
          "name": "user",
          "type": "address"
        }
      ],
      "name": "UserOffersRemoved",
      "type": "event"
    },
    {
      "inputs": [
        {
          "internalType": "address",
          "name": "_newOwner",
          "type": "address"
        }
      ],
      "name": "addOwner",
      "outputs": [],
      "stateMutability": "nonpayable",
      "type": "function"
    },
    {
      "inputs": [],
      "name": "canAnyUserPublishOffer",
      "outputs": [
        {
          "internalType": "bool",
          "name": "",
          "type": "bool"
        }
      ],
      "stateMutability": "view",
      "type": "function"
    },
    {
      "inputs": [
        {
          "internalType": "address",
          "name": "user",
          "type": "address"
        }
      ],
      "name": "canUserPublishOffer",
      "outputs": [
        {
          "internalType": "bool",
          "name": "",
          "type": "bool"
        }
      ],
      "stateMutability": "view",
      "type": "function"
    },
    {
      "inputs": [
        {
          "internalType": "bool",
          "name": "_value",
          "type": "bool"
        }
      ],
      "name": "changeRemoveCardinInventoryWhenOffer",
      "outputs": [],
      "stateMutability": "nonpayable",
      "type": "function"
    },
    {
      "inputs": [
        {
          "internalType": "address",
          "name": "from",
          "type": "address"
        },
        {
          "internalType": "uint8",
          "name": "cardNumberWanted",
          "type": "uint8"
        },
        {
          "internalType": "address",
          "name": "offerWallet",
          "type": "address"
        },
        {
          "internalType": "uint8",
          "name": "offerCardNumber",
          "type": "uint8"
        }
      ],
      "name": "confirmOfferExchange",
      "outputs": [],
      "stateMutability": "nonpayable",
      "type": "function"
    },
    {
      "inputs": [
        {
          "internalType": "string",
          "name": "offerId",
          "type": "string"
        },
        {
          "internalType": "uint8",
          "name": "cardNumber",
          "type": "uint8"
        },
        {
          "internalType": "uint8[]",
          "name": "wantedCardNumbers",
          "type": "uint8[]"
        }
      ],
      "name": "createOffer",
      "outputs": [],
      "stateMutability": "nonpayable",
      "type": "function"
    },
    {
      "inputs": [
        {
          "internalType": "string",
          "name": "offerId",
          "type": "string"
        },
        {
          "internalType": "address",
          "name": "user",
          "type": "address"
        },
        {
          "internalType": "uint8",
          "name": "cardNumber",
          "type": "uint8"
        },
        {
          "internalType": "uint8[]",
          "name": "wantedCardNumbers",
          "type": "uint8[]"
        }
      ],
      "name": "createOfferWithoUser",
      "outputs": [],
      "stateMutability": "nonpayable",
      "type": "function"
    },
    {
      "inputs": [],
      "name": "deleteAllOffers",
      "outputs": [],
      "stateMutability": "nonpayable",
      "type": "function"
    },
    {
      "inputs": [],
      "name": "gammaCardsContract",
      "outputs": [
        {
          "internalType": "contract IGammaCardsContract",
          "name": "",
          "type": "address"
        }
      ],
      "stateMutability": "view",
      "type": "function"
    },
    {
      "inputs": [],
      "name": "getMaxOffersAllowed",
      "outputs": [
        {
          "internalType": "uint256",
          "name": "",
          "type": "uint256"
        }
      ],
      "stateMutability": "view",
      "type": "function"
    },
    {
      "inputs": [],
      "name": "getMaxOffersByUserAllowed",
      "outputs": [
        {
          "internalType": "uint256",
          "name": "",
          "type": "uint256"
        }
      ],
      "stateMutability": "view",
      "type": "function"
    },
    {
      "inputs": [
        {
          "internalType": "uint256",
          "name": "index",
          "type": "uint256"
        }
      ],
      "name": "getOfferByIndex",
      "outputs": [
        {
          "components": [
            {
              "internalType": "string",
              "name": "offerId",
              "type": "string"
            },
            {
              "internalType": "uint8",
              "name": "cardNumber",
              "type": "uint8"
            },
            {
              "internalType": "uint8[]",
              "name": "wantedCardNumbers",
              "type": "uint8[]"
            },
            {
              "internalType": "address",
              "name": "owner",
              "type": "address"
            },
            {
              "internalType": "uint256",
              "name": "timestamp",
              "type": "uint256"
            }
          ],
          "internalType": "struct NofGammaOffersV4.Offer",
          "name": "",
          "type": "tuple"
        }
      ],
      "stateMutability": "view",
      "type": "function"
    },
    {
      "inputs": [
        {
          "internalType": "string",
          "name": "offerId",
          "type": "string"
        }
      ],
      "name": "getOfferByOfferId",
      "outputs": [
        {
          "components": [
            {
              "internalType": "string",
              "name": "offerId",
              "type": "string"
            },
            {
              "internalType": "uint8",
              "name": "cardNumber",
              "type": "uint8"
            },
            {
              "internalType": "uint8[]",
              "name": "wantedCardNumbers",
              "type": "uint8[]"
            },
            {
              "internalType": "address",
              "name": "owner",
              "type": "address"
            },
            {
              "internalType": "uint256",
              "name": "timestamp",
              "type": "uint256"
            }
          ],
          "internalType": "struct NofGammaOffersV4.Offer",
          "name": "",
          "type": "tuple"
        }
      ],
      "stateMutability": "view",
      "type": "function"
    },
    {
      "inputs": [
        {
          "internalType": "address",
          "name": "user",
          "type": "address"
        },
        {
          "internalType": "uint8",
          "name": "cardNumber",
          "type": "uint8"
        }
      ],
      "name": "getOfferByUserAndCardNumber",
      "outputs": [
        {
          "components": [
            {
              "internalType": "string",
              "name": "offerId",
              "type": "string"
            },
            {
              "internalType": "uint8",
              "name": "cardNumber",
              "type": "uint8"
            },
            {
              "internalType": "uint8[]",
              "name": "wantedCardNumbers",
              "type": "uint8[]"
            },
            {
              "internalType": "address",
              "name": "owner",
              "type": "address"
            },
            {
              "internalType": "uint256",
              "name": "timestamp",
              "type": "uint256"
            }
          ],
          "internalType": "struct NofGammaOffersV4.Offer",
          "name": "",
          "type": "tuple"
        }
      ],
      "stateMutability": "view",
      "type": "function"
    },
    {
      "inputs": [],
      "name": "getOffers",
      "outputs": [
        {
          "components": [
            {
              "internalType": "string",
              "name": "offerId",
              "type": "string"
            },
            {
              "internalType": "uint8",
              "name": "cardNumber",
              "type": "uint8"
            },
            {
              "internalType": "uint8[]",
              "name": "wantedCardNumbers",
              "type": "uint8[]"
            },
            {
              "internalType": "address",
              "name": "owner",
              "type": "address"
            },
            {
              "internalType": "uint256",
              "name": "timestamp",
              "type": "uint256"
            }
          ],
          "internalType": "struct NofGammaOffersV4.Offer[]",
          "name": "",
          "type": "tuple[]"
        }
      ],
      "stateMutability": "view",
      "type": "function"
    },
    {
      "inputs": [
        {
          "internalType": "uint8",
          "name": "cardNumber",
          "type": "uint8"
        }
      ],
      "name": "getOffersByCardNumber",
      "outputs": [
        {
          "components": [
            {
              "internalType": "string",
              "name": "offerId",
              "type": "string"
            },
            {
              "internalType": "uint8",
              "name": "cardNumber",
              "type": "uint8"
            },
            {
              "internalType": "uint8[]",
              "name": "wantedCardNumbers",
              "type": "uint8[]"
            },
            {
              "internalType": "address",
              "name": "owner",
              "type": "address"
            },
            {
              "internalType": "uint256",
              "name": "timestamp",
              "type": "uint256"
            }
          ],
          "internalType": "struct NofGammaOffersV4.Offer[]",
          "name": "",
          "type": "tuple[]"
        }
      ],
      "stateMutability": "view",
      "type": "function"
    },
    {
      "inputs": [
        {
          "internalType": "uint8",
          "name": "cardNumber",
          "type": "uint8"
        }
      ],
      "name": "getOffersByCardNumberCounter",
      "outputs": [
        {
          "internalType": "uint256",
          "name": "",
          "type": "uint256"
        }
      ],
      "stateMutability": "view",
      "type": "function"
    },
    {
      "inputs": [
        {
          "internalType": "address",
          "name": "user",
          "type": "address"
        }
      ],
      "name": "getOffersByUser",
      "outputs": [
        {
          "components": [
            {
              "internalType": "string",
              "name": "offerId",
              "type": "string"
            },
            {
              "internalType": "uint8",
              "name": "cardNumber",
              "type": "uint8"
            },
            {
              "internalType": "uint8[]",
              "name": "wantedCardNumbers",
              "type": "uint8[]"
            },
            {
              "internalType": "address",
              "name": "owner",
              "type": "address"
            },
            {
              "internalType": "uint256",
              "name": "timestamp",
              "type": "uint256"
            }
          ],
          "internalType": "struct NofGammaOffersV4.Offer[]",
          "name": "",
          "type": "tuple[]"
        }
      ],
      "stateMutability": "view",
      "type": "function"
    },
    {
      "inputs": [
        {
          "internalType": "address",
          "name": "user",
          "type": "address"
        }
      ],
      "name": "getOffersByUserCounter",
      "outputs": [
        {
          "internalType": "uint256",
          "name": "",
          "type": "uint256"
        }
      ],
      "stateMutability": "view",
      "type": "function"
    },
    {
      "inputs": [],
      "name": "getOffersCounter",
      "outputs": [
        {
          "internalType": "uint256",
          "name": "",
          "type": "uint256"
        }
      ],
      "stateMutability": "view",
      "type": "function"
    },
    {
      "inputs": [
        {
          "internalType": "address",
          "name": "user",
          "type": "address"
        },
        {
          "internalType": "uint8",
          "name": "cardNumber",
          "type": "uint8"
        }
      ],
      "name": "hasOffer",
      "outputs": [
        {
          "internalType": "bool",
          "name": "",
          "type": "bool"
        }
      ],
      "stateMutability": "view",
      "type": "function"
    },
    {
      "inputs": [
        {
          "internalType": "address",
          "name": "_cardsContract",
          "type": "address"
        }
      ],
      "name": "init",
      "outputs": [],
      "stateMutability": "nonpayable",
      "type": "function"
    },
    {
      "inputs": [
        {
          "internalType": "address",
          "name": "user",
          "type": "address"
        }
      ],
      "name": "isOwner",
      "outputs": [
        {
          "internalType": "bool",
          "name": "",
          "type": "bool"
        }
      ],
      "stateMutability": "view",
      "type": "function"
    },
    {
      "inputs": [
        {
          "internalType": "uint256",
          "name": "",
          "type": "uint256"
        }
      ],
      "name": "offers",
      "outputs": [
        {
          "internalType": "string",
          "name": "offerId",
          "type": "string"
        },
        {
          "internalType": "uint8",
          "name": "cardNumber",
          "type": "uint8"
        },
        {
          "internalType": "address",
          "name": "owner",
          "type": "address"
        },
        {
          "internalType": "uint256",
          "name": "timestamp",
          "type": "uint256"
        }
      ],
      "stateMutability": "view",
      "type": "function"
    },
    {
      "inputs": [
        {
          "internalType": "uint8",
          "name": "",
          "type": "uint8"
        }
      ],
      "name": "offersByCardNumberCounter",
      "outputs": [
        {
          "internalType": "uint256",
          "name": "",
          "type": "uint256"
        }
      ],
      "stateMutability": "view",
      "type": "function"
    },
    {
      "inputs": [
        {
          "internalType": "address",
          "name": "",
          "type": "address"
        }
      ],
      "name": "offersByUserCounter",
      "outputs": [
        {
          "internalType": "uint256",
          "name": "",
          "type": "uint256"
        }
      ],
      "stateMutability": "view",
      "type": "function"
    },
    {
      "inputs": [],
      "name": "offersTotalCounter",
      "outputs": [
        {
          "internalType": "uint256",
          "name": "",
          "type": "uint256"
        }
      ],
      "stateMutability": "view",
      "type": "function"
    },
    {
      "inputs": [],
      "name": "owner",
      "outputs": [
        {
          "internalType": "address",
          "name": "",
          "type": "address"
        }
      ],
      "stateMutability": "view",
      "type": "function"
    },
    {
      "inputs": [
        {
          "internalType": "uint8",
          "name": "cardNumber",
          "type": "uint8"
        }
      ],
      "name": "removeOfferByCardNumber",
      "outputs": [
        {
          "internalType": "bool",
          "name": "",
          "type": "bool"
        }
      ],
      "stateMutability": "nonpayable",
      "type": "function"
    },
    {
      "inputs": [
        {
          "internalType": "address",
          "name": "user",
          "type": "address"
        },
        {
          "internalType": "uint8",
          "name": "cardNumber",
          "type": "uint8"
        }
      ],
      "name": "removeOfferByUserAndCardNumber",
      "outputs": [
        {
          "internalType": "bool",
          "name": "",
          "type": "bool"
        }
      ],
      "stateMutability": "nonpayable",
      "type": "function"
    },
    {
      "inputs": [
        {
          "internalType": "address",
          "name": "user",
          "type": "address"
        }
      ],
      "name": "removeOffersByUser",
      "outputs": [
        {
          "internalType": "bool",
          "name": "",
          "type": "bool"
        }
      ],
      "stateMutability": "nonpayable",
      "type": "function"
    },
    {
      "inputs": [
        {
          "internalType": "address",
          "name": "_ownerToRemove",
          "type": "address"
        }
      ],
      "name": "removeOwner",
      "outputs": [],
      "stateMutability": "nonpayable",
      "type": "function"
    },
    {
      "inputs": [],
      "name": "renounceOwnership",
      "outputs": [],
      "stateMutability": "nonpayable",
      "type": "function"
    },
    {
      "inputs": [
        {
          "internalType": "address",
          "name": "_gammaCardsContract",
          "type": "address"
        }
      ],
      "name": "setGammaCardsContract",
      "outputs": [],
      "stateMutability": "nonpayable",
      "type": "function"
    },
    {
      "inputs": [
        {
          "internalType": "uint256",
          "name": "_maxCardNumbersAllowed",
          "type": "uint256"
        }
      ],
      "name": "setMaxCardNumbersAllowed",
      "outputs": [],
      "stateMutability": "nonpayable",
      "type": "function"
    },
    {
      "inputs": [
        {
          "internalType": "uint256",
          "name": "_maxOffersAllowed",
          "type": "uint256"
        }
      ],
      "name": "setMaxOffersAllowed",
      "outputs": [],
      "stateMutability": "nonpayable",
      "type": "function"
    },
    {
      "inputs": [
        {
          "internalType": "uint256",
          "name": "_maxOffersByUserAllowed",
          "type": "uint256"
        }
      ],
      "name": "setMaxOffersByUserAllowed",
      "outputs": [],
      "stateMutability": "nonpayable",
      "type": "function"
    },
    {
      "inputs": [
        {
          "internalType": "address",
          "name": "newOwner",
          "type": "address"
        }
      ],
      "name": "transferOwnership",
      "outputs": [],
      "stateMutability": "nonpayable",
      "type": "function"
    }
  ],
  "bytecode": "0x60806040526113886004556005805560786006556007805460ff191690553480156200002a57600080fd5b5062000036336200003c565b6200008c565b600080546001600160a01b038381166001600160a01b0319831681178455604051919092169283917f8be0079c531659141344cd1fd0a4f28419497f9722a3daafe3b4186f6b6457e09190a35050565b613712806200009c6000396000f3fe608060405234801561001057600080fd5b50600436106102325760003560e01c80637594a6ed11610130578063ce7483d5116100b8578063e2b365961161007c578063e2b3659614610515578063e359a0a114610528578063e5e5f7321461053b578063f2fde38b1461054e578063fc9e80fc1461056157600080fd5b8063ce7483d5146104a4578063cf86f8e5146104c7578063d250f03a146104cf578063d827a8f4146104e2578063e02f97231461050257600080fd5b806390222aa1116100ff57806390222aa11461044e5780639618b333146104565780639f91506914610469578063ba79b77b14610489578063c08029e71461049157600080fd5b80637594a6ed146103d35780638400a189146103f35780638a72ea6a146104065780638da5cb5b1461042957600080fd5b80633a027073116101be5780635a919aeb116101825780635a919aeb146103905780635bbfbfd614610399578063619980dc146103ac5780637065cb48146103b8578063715018a6146103cb57600080fd5b80633a0270731461032f5780633e293e16146103425780633ee992ee146103555780634c7a7ad31461036a57806358e57ebb1461037d57600080fd5b806329d3f60b1161020557806329d3f60b146102985780632edb5fcf146102d55780632f54bf6e146102e8578063322fba27146103145780633808dfe71461031c57600080fd5b80630cdb311714610237578063173825d91461025d57806317a1fed91461027257806319ab453c14610285575b600080fd5b61024a610245366004612e02565b610574565b6040519081526020015b60405180910390f35b61027061026b366004612e02565b6105b9565b005b610270610280366004612f73565b61065f565b610270610293366004612e02565b6106a1565b6102c56102a6366004612e02565b6001600160a01b03166000908152600b60205260409020546005541190565b6040519015158152602001610254565b6102c56102e3366004612ff8565b61070c565b6102c56102f6366004612e02565b6001600160a01b031660009081526002602052604090205460ff1690565b6102706107cc565b61027061032a36600461302b565b61097b565b6102c561033d366004613044565b6109b0565b61027061035036600461305f565b6109f8565b61035d610a09565b60405161025491906131c5565b610270610378366004612e02565b610b9d565b61027061038b366004613235565b610c48565b61024a600d5481565b6102c56103a7366004612ff8565b610c8b565b600d54600454116102c5565b6102706103c6366004612e02565b610d0c565b610270610d83565b61024a6103e1366004612e02565b600b6020526000908152604090205481565b61035d610401366004613044565b610d97565b61041961041436600461302b565b610f3b565b6040516102549493929190613252565b6000546001600160a01b03165b6040516001600160a01b039091168152602001610254565b60045461024a565b61035d610464366004612e02565b611013565b61047c610477366004612ff8565b6111d6565b604051610254919061328d565b60055461024a565b61027061049f3660046132a0565b6113e6565b61024a6104b2366004613044565b60ff166000908152600c602052604090205490565b600d5461024a565b600154610436906001600160a01b031681565b61024a6104f0366004613044565b600c6020526000908152604090205481565b61027061051036600461302b565b61170a565b61047c6105233660046132f4565b61173f565b61047c61053636600461302b565b611948565b61027061054936600461302b565b611ad4565b61027061055c366004612e02565b611b09565b6102c561056f366004612e02565b611b87565b60006001600160a01b03821661059d5760405163e6c4247b60e01b815260040160405180910390fd5b506001600160a01b03166000908152600b602052604090205490565b3360009081526002602052604090205460ff166105e957604051634289c49360e01b815260040160405180910390fd5b604051632dd92c6960e21b8152600260048201526001600160a01b038216602482015273__$2004922c2908b386ae4415e9a8cdeda8c7$__9063b764b1a4906044015b60006040518083038186803b15801561064457600080fd5b505af4158015610658573d6000803e3d6000fd5b5050505050565b3360009081526002602052604090205460ff1661068f57604051634289c49360e01b815260040160405180910390fd5b61069b84848484611dd2565b50505050565b6106a9612305565b6001600160a01b0381166106d05760405163e6c4247b60e01b815260040160405180910390fd5b600180546001600160a01b0319166001600160a01b0392909216919091178155336000908152600260205260409020805460ff19169091179055565b60006001600160a01b0383166107355760405163e6c4247b60e01b815260040160405180910390fd5b60005b6001600160a01b0384166000908152600b60205260409020548110156107c0576001600160a01b0384166000908152600960205260409020805460ff851691908390811061078857610788613329565b600091825260209091206001600590920201015460ff16036107ae5760019150506107c6565b806107b881613355565b915050610738565b50600090505b92915050565b3360009081526002602052604090205460ff166107fc57604051634289c49360e01b815260040160405180910390fd5b60005b60085481101561093c57600960006008838154811061082057610820613329565b60009182526020808320600360059093020191909101546001600160a01b03168352820192909252604001812061085691612bd7565b6000600b60006008848154811061086f5761086f613329565b60009182526020808320600360059093020191909101546001600160a01b0316835282019290925260400181209190915560088054600a929190849081106108b9576108b9613329565b600091825260208083206001600590930201919091015460ff16835282019290925260400181206108e991612bd7565b6000600c60006008848154811061090257610902613329565b600091825260208083206001600590930201919091015460ff1683528201929092526040019020558061093481613355565b9150506107ff565b506000600d81905561095090600890612bd7565b6040517f47e81efc038e27bb296dec5d44262943d2c2bbec28f461787a9cc53885694cb090600090a1565b3360009081526002602052604090205460ff166109ab57604051634289c49360e01b815260040160405180910390fd5b600555565b6000806109bd33846111d6565b60608101519091506001600160a01b031633146109dd5750600092915050565b60006109f033858460000151600061235f565b949350505050565b610a0483338484611dd2565b505050565b60606008805480602002602001604051908101604052809291908181526020016000905b82821015610b9457838290600052602060002090600502016040518060a0016040529081600082018054610a609061336e565b80601f0160208091040260200160405190810160405280929190818152602001828054610a8c9061336e565b8015610ad95780601f10610aae57610100808354040283529160200191610ad9565b820191906000526020600020905b815481529060010190602001808311610abc57829003601f168201915b5050509183525050600182015460ff166020808301919091526002830180546040805182850281018501825282815294019392830182828015610b5957602002820191906000526020600020906000905b825461010083900a900460ff16815260206001928301818104948501949093039092029101808411610b2a5790505b505050918352505060038201546001600160a01b03166020808301919091526004909201546040909101529082526001929092019101610a2d565b50505050905090565b3360009081526002602052604090205460ff16610bcd57604051634289c49360e01b815260040160405180910390fd5b6001600160a01b038116610bf45760405163e6c4247b60e01b815260040160405180910390fd5b600180546001600160a01b0319166001600160a01b0383169081179091556040519081527f45c9eba39b5ae3e7a6650b0a57bcb8e5d135936d56d111983dbc5860ae6760fa9060200160405180910390a150565b3360009081526002602052604090205460ff16610c7857604051634289c49360e01b815260040160405180910390fd5b6007805460ff1916911515919091179055565b3360009081526002602052604081205460ff16610cbb57604051634289c49360e01b815260040160405180910390fd5b6000610cc784846111d6565b9050836001600160a01b031681606001516001600160a01b031614610cf05760009150506107c6565b6000610d0385858460000151600061235f565b95945050505050565b3360009081526002602052604090205460ff16610d3c57604051634289c49360e01b815260040160405180910390fd5b604051632d35e2b960e21b8152600260048201526001600160a01b038216602482015273__$2004922c2908b386ae4415e9a8cdeda8c7$__9063b4d78ae49060440161062c565b610d8b612305565b610d9560006124d6565b565b60ff81166000908152600a60209081526040808320805482518185028101850190935280835260609492939192909184015b82821015610f3057838290600052602060002090600502016040518060a0016040529081600082018054610dfc9061336e565b80601f0160208091040260200160405190810160405280929190818152602001828054610e289061336e565b8015610e755780601f10610e4a57610100808354040283529160200191610e75565b820191906000526020600020905b815481529060010190602001808311610e5857829003601f168201915b5050509183525050600182015460ff166020808301919091526002830180546040805182850281018501825282815294019392830182828015610ef557602002820191906000526020600020906000905b825461010083900a900460ff16815260206001928301818104948501949093039092029101808411610ec65790505b505050918352505060038201546001600160a01b03166020808301919091526004909201546040909101529082526001929092019101610dc9565b505050509050919050565b60088181548110610f4b57600080fd5b9060005260206000209060050201600091509050806000018054610f6e9061336e565b80601f0160208091040260200160405190810160405280929190818152602001828054610f9a9061336e565b8015610fe75780601f10610fbc57610100808354040283529160200191610fe7565b820191906000526020600020905b815481529060010190602001808311610fca57829003601f168201915b5050505060018301546003840154600490940154929360ff909116926001600160a01b03909116915084565b60606001600160a01b03821661103c5760405163e6c4247b60e01b815260040160405180910390fd5b6001600160a01b038216600090815260096020908152604080832080548251818502810185019093528083529193909284015b82821015610f3057838290600052602060002090600502016040518060a00160405290816000820180546110a29061336e565b80601f01602080910402602001604051908101604052809291908181526020018280546110ce9061336e565b801561111b5780601f106110f05761010080835404028352916020019161111b565b820191906000526020600020905b8154815290600101906020018083116110fe57829003601f168201915b5050509183525050600182015460ff16602080830191909152600283018054604080518285028101850182528281529401939283018282801561119b57602002820191906000526020600020906000905b825461010083900a900460ff1681526020600192830181810494850194909303909202910180841161116c5790505b505050918352505060038201546001600160a01b0316602080830191909152600490920154604090910152908252600192909201910161106f565b6111de612bf8565b6001600160a01b0383166112055760405163e6c4247b60e01b815260040160405180910390fd5b6001600160a01b0383166000908152600960209081526040808320600b90925282205490915b818110156113dd578460ff1683828154811061124957611249613329565b600091825260209091206001600590920201015460ff16036113cb5782818154811061127757611277613329565b90600052602060002090600502016040518060a00160405290816000820180546112a09061336e565b80601f01602080910402602001604051908101604052809291908181526020018280546112cc9061336e565b80156113195780601f106112ee57610100808354040283529160200191611319565b820191906000526020600020905b8154815290600101906020018083116112fc57829003601f168201915b5050509183525050600182015460ff16602080830191909152600283018054604080518285028101850182528281529401939283018282801561139957602002820191906000526020600020906000905b825461010083900a900460ff1681526020600192830181810494850194909303909202910180841161136a5790505b505050918352505060038201546001600160a01b0316602082015260049091015460409091015293506107c692505050565b806113d581613355565b91505061122b565b50610d03612526565b60006113f283836111d6565b9050826001600160a01b031681606001516001600160a01b03161461142a57604051631ded229360e11b815260040160405180910390fd5b604081015180516000036114d05760015460405163117ece1960e31b81526001600160a01b0390911690638bf670c89061146a90879089906004016133a8565b6020604051808303816000875af1158015611489573d6000803e3d6000fd5b505050506040513d601f19601f820116820180604052508101906114ad91906133c4565b156114cb57604051631177b29560e11b815260040160405180910390fd5b611545565b6000805b82518160ff161015611524578660ff16838260ff16815181106114f9576114f9613329565b602002602001015160ff16036115125760019150611524565b8061151c816133e1565b9150506114d4565b508061154357604051630eefa23760e11b815260040160405180910390fd5b505b600061155885858560000151600161235f565b90508061157857604051631b44035160e01b815260040160405180910390fd5b60015460405163568b427d60e11b81526001600160a01b03898116600483015260ff808a1660248401528882166044840152871660648301529091169063ad1684fa90608401600060405180830381600087803b1580156115d857600080fd5b505af11580156115ec573d6000803e3d6000fd5b505060015460405163117ece1960e31b81526001600160a01b039091169250638bf670c89150611622908a9088906004016133a8565b6020604051808303816000875af1158015611641573d6000803e3d6000fd5b505050506040513d601f19601f8201168201806040525081019061166591906133c4565b15806116e3575060015460405163117ece1960e31b81526001600160a01b0390911690638bf670c89061169e9088908a906004016133a8565b6020604051808303816000875af11580156116bd573d6000803e3d6000fd5b505050506040513d601f19601f820116820180604052508101906116e191906133c4565b155b156117015760405163fc9716b960e01b815260040160405180910390fd5b50505050505050565b3360009081526002602052604090205460ff1661173a57604051634289c49360e01b815260040160405180910390fd5b600655565b611747612bf8565b60005b60085481101561193f57826040516020016117659190613400565b604051602081830303815290604052805190602001206008828154811061178e5761178e613329565b90600052602060002090600502016000016040516020016117af919061341c565b604051602081830303815290604052805190602001200361192d57600881815481106117dd576117dd613329565b90600052602060002090600502016040518060a00160405290816000820180546118069061336e565b80601f01602080910402602001604051908101604052809291908181526020018280546118329061336e565b801561187f5780601f106118545761010080835404028352916020019161187f565b820191906000526020600020905b81548152906001019060200180831161186257829003601f168201915b5050509183525050600182015460ff1660208083019190915260028301805460408051828502810185018252828152940193928301828280156118ff57602002820191906000526020600020906000905b825461010083900a900460ff168152602060019283018181049485019490930390920291018084116118d05790505b505050918352505060038201546001600160a01b031660208201526004909101546040909101529392505050565b8061193781613355565b91505061174a565b506107c6612526565b611950612bf8565b600854821061197257604051635129cab160e11b815260040160405180910390fd5b6008828154811061198557611985613329565b90600052602060002090600502016040518060a00160405290816000820180546119ae9061336e565b80601f01602080910402602001604051908101604052809291908181526020018280546119da9061336e565b8015611a275780601f106119fc57610100808354040283529160200191611a27565b820191906000526020600020905b815481529060010190602001808311611a0a57829003601f168201915b5050509183525050600182015460ff166020808301919091526002830180546040805182850281018501825282815294019392830182828015611aa757602002820191906000526020600020906000905b825461010083900a900460ff16815260206001928301818104948501949093039092029101808411611a785790505b505050918352505060038201546001600160a01b0316602082015260049091015460409091015292915050565b3360009081526002602052604090205460ff16611b0457604051634289c49360e01b815260040160405180910390fd5b600455565b611b11612305565b6001600160a01b038116611b7b5760405162461bcd60e51b815260206004820152602660248201527f4f776e61626c653a206e6577206f776e657220697320746865207a65726f206160448201526564647265737360d01b60648201526084015b60405180910390fd5b611b84816124d6565b50565b6001546000906001600160a01b03163314611bb55760405163a71ed6c760e01b815260040160405180910390fd5b6001600160a01b038216611bdc5760405163e6c4247b60e01b815260040160405180910390fd5b6001600160a01b0382166000908152600960209081526040808320600b90925282205490915b81811015611d55576000838281548110611c1e57611c1e613329565b90600052602060002090600502016000018054611c3a9061336e565b80601f0160208091040260200160405190810160405280929190818152602001828054611c669061336e565b8015611cb35780601f10611c8857610100808354040283529160200191611cb3565b820191906000526020600020905b815481529060010190602001808311611c9657829003601f168201915b505050505090506000848381548110611cce57611cce613329565b600091825260209091206001600590920201015460ff169050611cf287828461256f565b611cfb82612823565b5060ff81166000908152600c60205260408120805460019290611d1f908490613492565b925050819055506001600d6000828254611d399190613492565b9250508190555050508080611d4d90613355565b915050611c02565b506001600160a01b0384166000908152600960205260408120611d7791612bd7565b6001600160a01b0384166000818152600b602090815260408083209290925590519182527f65419c67e554142d50c59abd004485123ca498611a223f842e75dd96225ba4c8910160405180910390a16001925050505b919050565b6001546001600160a01b0316611dfb5760405163cfdf350560e01b815260040160405180910390fd5b6005546001600160a01b0384166000908152600b602052604090205410611e355760405163182a7d7760e01b815260040160405180910390fd5b600454600d5410611e595760405163182a7d7760e01b815260040160405180910390fd5b60015460405163117ece1960e31b81526000916001600160a01b031690638bf670c890611e8c90879087906004016133a8565b6020604051808303816000875af1158015611eab573d6000803e3d6000fd5b505050506040513d601f19601f82011682018060405250810190611ecf91906133c4565b905080611eef5760405163142d47a160e11b815260040160405180910390fd5b60005b82518160ff161015611f52578360ff16838260ff1681518110611f1757611f17613329565b602002602001015160ff1603611f4057604051630d1ecf1760e11b815260040160405180910390fd5b80611f4a816133e1565b915050611ef2565b506000611f5f85856111d6565b60608101519091506001600160a01b031615611f8e5760405163eeee5c8b60e01b815260040160405180910390fd5b6001600160a01b0385166000908152600b60205260408120805460019290611fb79084906134a5565b909155505060ff84166000908152600c60205260408120805460019290611fdf9084906134a5565b925050819055506001600d6000828254611ff991906134a5565b90915550506040805160a08101825287815260ff861660208201529081018490526001600160a01b038616606082015242608082015260088054600181018255600091909152815160059091027ff3f7a9fe364faab93b216da50a3214154f22a0a2b415b23a84c8169e8b636ee3019081906120759082613506565b5060208281015160018301805460ff191660ff909216919091179055604083015180516120a89260028501920190612c33565b5060608201516003820180546001600160a01b0319166001600160a01b0392831617905560809092015160049091015585166000908152600960205260409020600880546120f890600190613492565b8154811061210857612108613329565b600091825260208083208454600181018655948452922060059182029092019202018061213583826135c6565b50600182810154908201805460ff191660ff909216919091179055600280830180546121649284019190612cd9565b5060038281015490820180546001600160a01b0319166001600160a01b0390921691909117905560049182015491015560ff84166000908152600a60205260409020600880546121b690600190613492565b815481106121c6576121c6613329565b60009182526020808320845460018101865594845292206005918202909201920201806121f383826135c6565b50600182810154908201805460ff191660ff909216919091179055600280830180546122229284019190612cd9565b5060038281015490820180546001600160a01b0319166001600160a01b0390921691909117905560049182015491015560075460ff16156122c257600154604051631c5568eb60e21b81526001600160a01b0390911690637155a3ac9061228f90889088906004016133a8565b600060405180830381600087803b1580156122a957600080fd5b505af11580156122bd573d6000803e3d6000fd5b505050505b7fed750964f1f81f105e56dfd1121427e0898e7bc23d6c10e92d851a2d35e0cfc58585856040516122f593929190613699565b60405180910390a1505050505050565b6000546001600160a01b03163314610d955760405162461bcd60e51b815260206004820181905260248201527f4f776e61626c653a2063616c6c6572206973206e6f7420746865206f776e65726044820152606401611b72565b60006001600160a01b0385166123885760405163e6c4247b60e01b815260040160405180910390fd5b612393858585612aa0565b61239e85858561256f565b6123a783612823565b506001600160a01b0385166000908152600b602052604081208054600192906123d1908490613492565b909155505060ff84166000908152600c602052604081208054600192906123f9908490613492565b925050819055506001600d60008282546124139190613492565b909155505060075460ff168015612428575081155b1561249257600154604051630aaf17c960e11b81526001600160a01b039091169063155e2f929061245f90889088906004016133a8565b600060405180830381600087803b15801561247957600080fd5b505af115801561248d573d6000803e3d6000fd5b505050505b7f7911e34642eae38762395a3dd0fa3308d0f8908b92fe36c41543d635ab7cb8f585856040516124c39291906133a8565b60405180910390a1506001949350505050565b600080546001600160a01b038381166001600160a01b0319831681178455604051919092169283917f8be0079c531659141344cd1fd0a4f28419497f9722a3daafe3b4186f6b6457e09190a35050565b61252e612bf8565b506040805160c081018252600060a0820181815282526020808301829052835182815290810184529282019290925260608101829052608081019190915290565b60ff82166000908152600a60205260408120905b8154811015610658576126418282815481106125a1576125a1613329565b906000526020600020906005020160000180546125bd9061336e565b80601f01602080910402602001604051908101604052809291908181526020018280546125e99061336e565b80156126365780601f1061260b57610100808354040283529160200191612636565b820191906000526020600020905b81548152906001019060200180831161261957829003601f168201915b505050505084612b7e565b1561281157846001600160a01b031682828154811061266257612662613329565b60009182526020909120600360059092020101546001600160a01b03161415806126b757508360ff1682828154811061269d5761269d613329565b600091825260209091206001600590920201015460ff1614155b156126d5576040516357aeb86360e11b815260040160405180910390fd5b81546126e390600190613492565b8110156127a557815482906126fa90600190613492565b8154811061270a5761270a613329565b906000526020600020906005020182828154811061272a5761272a613329565b600091825260209091206005909102018061274583826135c6565b50600182810154908201805460ff191660ff909216919091179055600280830180546127749284019190612cd9565b5060038281015490820180546001600160a01b0319166001600160a01b039092169190911790556004918201549101555b818054806127b5576127b56136c6565b600082815260208120600019909201916005830201906127d58282612d27565b60018201805460ff191690556127ef600283016000612d61565b506003810180546001600160a01b031916905560006004909101559055610658565b8061281b81613355565b915050612583565b600080805b600854811015612a9957600854811080156128f457506128f46008828154811061285457612854613329565b906000526020600020906005020160000180546128709061336e565b80601f016020809104026020016040519081016040528092919081815260200182805461289c9061336e565b80156128e95780601f106128be576101008083540402835291602001916128e9565b820191906000526020600020905b8154815290600101906020018083116128cc57829003601f168201915b505050505085612b7e565b15612a87576008818154811061290c5761290c613329565b600091825260208220600590910201906129268282612d27565b60018201805460ff19169055612940600283016000612d61565b506003810180546001600160a01b031916905560006004909101556008805461296b90600190613492565b8154811061297b5761297b613329565b90600052602060002090600502016008828154811061299c5761299c613329565b60009182526020909120600590910201806129b783826135c6565b50600182810154908201805460ff191660ff909216919091179055600280830180546129e69284019190612cd9565b5060038281015490820180546001600160a01b0319166001600160a01b039092169190911790556004918201549101556008805480612a2757612a276136c6565b60008281526020812060001990920191600583020190612a478282612d27565b60018201805460ff19169055612a61600283016000612d61565b506003810180546001600160a01b03191690556000600490910155905560019150612a99565b80612a9181613355565b915050612828565b5092915050565b6001600160a01b0383166000908152600960205260408120905b815481101561065857612ad88282815481106125a1576125a1613329565b15612b6c57846001600160a01b0316828281548110612af957612af9613329565b60009182526020909120600360059092020101546001600160a01b0316141580612b4e57508360ff16828281548110612b3457612b34613329565b600091825260209091206001600590920201015460ff1614155b156126d55760405163b7f2d83360e01b815260040160405180910390fd5b80612b7681613355565b915050612aba565b600081604051602001612b919190613400565b6040516020818303038152906040528051906020012083604051602001612bb89190613400565b6040516020818303038152906040528051906020012014905092915050565b5080546000825560050290600052602060002090810190611b849190612d86565b6040518060a0016040528060608152602001600060ff1681526020016060815260200160006001600160a01b03168152602001600081525090565b82805482825590600052602060002090601f01602090048101928215612cc95791602002820160005b83821115612c9a57835183826101000a81548160ff021916908360ff1602179055509260200192600101602081600001049283019260010302612c5c565b8015612cc75782816101000a81549060ff0219169055600101602081600001049283019260010302612c9a565b505b50612cd5929150612dd6565b5090565b82805482825590600052602060002090601f01602090048101928215612cc957600052602060002091601f016020900482015b82811115612cc9578254825591600101919060010190612d0c565b508054612d339061336e565b6000825580601f10612d43575050565b601f016020900490600052602060002090810190611b849190612dd6565b50805460008255601f016020900490600052602060002090810190611b849190612dd6565b80821115612cd5576000612d9a8282612d27565b60018201805460ff19169055612db4600283016000612d61565b506003810180546001600160a01b031916905560006004820155600501612d86565b5b80821115612cd55760008155600101612dd7565b80356001600160a01b0381168114611dcd57600080fd5b600060208284031215612e1457600080fd5b612e1d82612deb565b9392505050565b634e487b7160e01b600052604160045260246000fd5b604051601f8201601f1916810167ffffffffffffffff81118282101715612e6357612e63612e24565b604052919050565b600082601f830112612e7c57600080fd5b813567ffffffffffffffff811115612e9657612e96612e24565b612ea9601f8201601f1916602001612e3a565b818152846020838601011115612ebe57600080fd5b816020850160208301376000918101602001919091529392505050565b803560ff81168114611dcd57600080fd5b600082601f830112612efd57600080fd5b8135602067ffffffffffffffff821115612f1957612f19612e24565b8160051b612f28828201612e3a565b9283528481018201928281019087851115612f4257600080fd5b83870192505b84831015612f6857612f5983612edb565b82529183019190830190612f48565b979650505050505050565b60008060008060808587031215612f8957600080fd5b843567ffffffffffffffff80821115612fa157600080fd5b612fad88838901612e6b565b9550612fbb60208801612deb565b9450612fc960408801612edb565b93506060870135915080821115612fdf57600080fd5b50612fec87828801612eec565b91505092959194509250565b6000806040838503121561300b57600080fd5b61301483612deb565b915061302260208401612edb565b90509250929050565b60006020828403121561303d57600080fd5b5035919050565b60006020828403121561305657600080fd5b612e1d82612edb565b60008060006060848603121561307457600080fd5b833567ffffffffffffffff8082111561308c57600080fd5b61309887838801612e6b565b94506130a660208701612edb565b935060408601359150808211156130bc57600080fd5b506130c986828701612eec565b9150509250925092565b60005b838110156130ee5781810151838201526020016130d6565b50506000910152565b6000815180845261310f8160208601602086016130d3565b601f01601f19169290920160200192915050565b600081518084526020808501945080840160005b8381101561315657815160ff1687529582019590820190600101613137565b509495945050505050565b6000815160a0845261317660a08501826130f7565b905060ff60208401511660208501526040830151848203604086015261319c8282613123565b6060858101516001600160a01b0316908701526080948501519490950193909352509192915050565b6000602080830181845280855180835260408601915060408160051b870101925083870160005b8281101561321a57603f19888603018452613208858351613161565b945092850192908501906001016131ec565b5092979650505050505050565b8015158114611b8457600080fd5b60006020828403121561324757600080fd5b8135612e1d81613227565b60808152600061326560808301876130f7565b60ff959095166020830152506001600160a01b03929092166040830152606090910152919050565b602081526000612e1d6020830184613161565b600080600080608085870312156132b657600080fd5b6132bf85612deb565b93506132cd60208601612edb565b92506132db60408601612deb565b91506132e960608601612edb565b905092959194509250565b60006020828403121561330657600080fd5b813567ffffffffffffffff81111561331d57600080fd5b6109f084828501612e6b565b634e487b7160e01b600052603260045260246000fd5b634e487b7160e01b600052601160045260246000fd5b6000600182016133675761336761333f565b5060010190565b600181811c9082168061338257607f821691505b6020821081036133a257634e487b7160e01b600052602260045260246000fd5b50919050565b6001600160a01b0392909216825260ff16602082015260400190565b6000602082840312156133d657600080fd5b8151612e1d81613227565b600060ff821660ff81036133f7576133f761333f565b60010192915050565b600082516134128184602087016130d3565b9190910192915050565b600080835461342a8161336e565b60018281168015613442576001811461345757613486565b60ff1984168752821515830287019450613486565b8760005260208060002060005b8581101561347d5781548a820152908401908201613464565b50505082870194505b50929695505050505050565b818103818111156107c6576107c661333f565b808201808211156107c6576107c661333f565b601f821115610a0457600081815260208120601f850160051c810160208610156134df5750805b601f850160051c820191505b818110156134fe578281556001016134eb565b505050505050565b815167ffffffffffffffff81111561352057613520612e24565b6135348161352e845461336e565b846134b8565b602080601f83116001811461356957600084156135515750858301515b600019600386901b1c1916600185901b1785556134fe565b600085815260208120601f198616915b8281101561359857888601518255948401946001909101908401613579565b50858210156135b65787850151600019600388901b60f8161c191681555b5050505050600190811b01905550565b8181036135d1575050565b6135db825461336e565b67ffffffffffffffff8111156135f3576135f3612e24565b6136018161352e845461336e565b6000601f821160018114613635576000831561361d5750848201545b600019600385901b1c1916600184901b178455610658565b600085815260209020601f19841690600086815260209020845b8381101561366f578286015482556001958601959091019060200161364f565b50858310156135b65793015460001960f8600387901b161c19169092555050600190811b01905550565b6001600160a01b038416815260ff83166020820152606060408201819052600090610d0390830184613123565b634e487b7160e01b600052603160045260246000fdfea2646970667358221220c9307e3504111af512d0584b2cbf5f5a632cbc4d88ead7fd05bc3a6458988ba764736f6c63430008140033",
  "linkReferences": {
    "contracts/gamma/libs/LibControlMgmt.sol": {
      "LibControlMgmt": [
        {
          "length": 20,
          "start": 1706
        },
        {
          "length": 20,
          "start": 3581
        }
      ]
    }
  },
  "deployedLinkReferences": {
    "contracts/gamma/libs/LibControlMgmt.sol": {
      "LibControlMgmt": [
        {
          "length": 20,
          "start": 1550
        },
        {
          "length": 20,
          "start": 3425
        }
      ]
    }
  }
}