{
  "_format": "hh-sol-artifact-1",
  "contractName": "GammaPacks",
  "sourceName": "contracts/GammaPacks.sol",
  "abi": [
    {
      "inputs": [
        {
          "internalType": "address",
          "name": "_daiTokenAddress",
          "type": "address"
        },
        {
          "internalType": "address",
          "name": "_balanceReceiver",
          "type": "address"
        }
      ],
      "stateMutability": "nonpayable",
      "type": "constructor"
    },
    {
      "anonymous": false,
      "inputs": [
        {
          "indexed": false,
          "internalType": "address",
          "name": "newCardsContract",
          "type": "address"
        }
      ],
      "name": "NewCardsContract",
      "type": "event"
    },
    {
      "anonymous": false,
      "inputs": [
        {
          "indexed": false,
          "internalType": "uint256",
          "name": "newPrice",
          "type": "uint256"
        }
      ],
      "name": "NewPrice",
      "type": "event"
    },
    {
      "anonymous": false,
      "inputs": [
        {
          "indexed": true,
          "internalType": "address",
          "name": "previousOwner",
          "type": "address"
        },
        {
          "indexed": true,
          "internalType": "address",
          "name": "newOwner",
          "type": "address"
        }
      ],
      "name": "OwnershipTransferred",
      "type": "event"
    },
    {
      "anonymous": false,
      "inputs": [
        {
          "indexed": false,
          "internalType": "address",
          "name": "buyer",
          "type": "address"
        },
        {
          "indexed": false,
          "internalType": "uint256",
          "name": "tokenId",
          "type": "uint256"
        }
      ],
      "name": "PackPurchase",
      "type": "event"
    },
    {
      "anonymous": false,
      "inputs": [
        {
          "indexed": false,
          "internalType": "address",
          "name": "from",
          "type": "address"
        },
        {
          "indexed": false,
          "internalType": "address",
          "name": "to",
          "type": "address"
        },
        {
          "indexed": false,
          "internalType": "uint256",
          "name": "tokenId",
          "type": "uint256"
        }
      ],
      "name": "PackTransfer",
      "type": "event"
    },
    {
      "anonymous": false,
      "inputs": [
        {
          "indexed": false,
          "internalType": "address",
          "name": "buyer",
          "type": "address"
        },
        {
          "indexed": false,
          "internalType": "uint256[]",
          "name": "tokenIds",
          "type": "uint256[]"
        }
      ],
      "name": "PacksPurchase",
      "type": "event"
    },
    {
      "inputs": [],
      "name": "DAI_TOKEN",
      "outputs": [
        {
          "internalType": "address",
          "name": "",
          "type": "address"
        }
      ],
      "stateMutability": "view",
      "type": "function"
    },
    {
      "inputs": [],
      "name": "balanceReceiver",
      "outputs": [
        {
          "internalType": "address",
          "name": "",
          "type": "address"
        }
      ],
      "stateMutability": "view",
      "type": "function"
    },
    {
      "inputs": [],
      "name": "buyPack",
      "outputs": [
        {
          "internalType": "uint256",
          "name": "",
          "type": "uint256"
        }
      ],
      "stateMutability": "nonpayable",
      "type": "function"
    },
    {
      "inputs": [
        {
          "internalType": "uint256",
          "name": "numberOfPacks",
          "type": "uint256"
        }
      ],
      "name": "buyPacks",
      "outputs": [
        {
          "internalType": "uint256[]",
          "name": "",
          "type": "uint256[]"
        }
      ],
      "stateMutability": "nonpayable",
      "type": "function"
    },
    {
      "inputs": [],
      "name": "cardsContract",
      "outputs": [
        {
          "internalType": "contract ICardsContract",
          "name": "",
          "type": "address"
        }
      ],
      "stateMutability": "view",
      "type": "function"
    },
    {
      "inputs": [
        {
          "internalType": "uint256",
          "name": "_newPrice",
          "type": "uint256"
        }
      ],
      "name": "changePrice",
      "outputs": [],
      "stateMutability": "nonpayable",
      "type": "function"
    },
    {
      "inputs": [
        {
          "internalType": "uint256",
          "name": "tokenId",
          "type": "uint256"
        }
      ],
      "name": "getPackOwner",
      "outputs": [
        {
          "internalType": "address",
          "name": "",
          "type": "address"
        }
      ],
      "stateMutability": "view",
      "type": "function"
    },
    {
      "inputs": [
        {
          "internalType": "address",
          "name": "owner",
          "type": "address"
        }
      ],
      "name": "getPacksByUser",
      "outputs": [
        {
          "internalType": "uint256[]",
          "name": "",
          "type": "uint256[]"
        }
      ],
      "stateMutability": "view",
      "type": "function"
    },
    {
      "inputs": [
        {
          "internalType": "uint256",
          "name": "tokenId",
          "type": "uint256"
        }
      ],
      "name": "openPack",
      "outputs": [],
      "stateMutability": "nonpayable",
      "type": "function"
    },
    {
      "inputs": [],
      "name": "owner",
      "outputs": [
        {
          "internalType": "address",
          "name": "",
          "type": "address"
        }
      ],
      "stateMutability": "view",
      "type": "function"
    },
    {
      "inputs": [],
      "name": "packPrice",
      "outputs": [
        {
          "internalType": "uint256",
          "name": "",
          "type": "uint256"
        }
      ],
      "stateMutability": "view",
      "type": "function"
    },
    {
      "inputs": [
        {
          "internalType": "uint256",
          "name": "tokenId",
          "type": "uint256"
        }
      ],
      "name": "packs",
      "outputs": [
        {
          "internalType": "address",
          "name": "owner",
          "type": "address"
        }
      ],
      "stateMutability": "view",
      "type": "function"
    },
    {
      "inputs": [
        {
          "internalType": "address",
          "name": "owner",
          "type": "address"
        },
        {
          "internalType": "uint256",
          "name": "",
          "type": "uint256"
        }
      ],
      "name": "packsByUser",
      "outputs": [
        {
          "internalType": "uint256",
          "name": "tokenIds",
          "type": "uint256"
        }
      ],
      "stateMutability": "view",
      "type": "function"
    },
    {
      "inputs": [],
      "name": "renounceOwnership",
      "outputs": [],
      "stateMutability": "nonpayable",
      "type": "function"
    },
    {
      "inputs": [
        {
          "internalType": "address",
          "name": "_cardsContract",
          "type": "address"
        }
      ],
      "name": "setCardsContract",
      "outputs": [],
      "stateMutability": "nonpayable",
      "type": "function"
    },
    {
      "inputs": [],
      "name": "totalSupply",
      "outputs": [
        {
          "internalType": "uint256",
          "name": "",
          "type": "uint256"
        }
      ],
      "stateMutability": "view",
      "type": "function"
    },
    {
      "inputs": [
        {
          "internalType": "address",
          "name": "newOwner",
          "type": "address"
        }
      ],
      "name": "transferOwnership",
      "outputs": [],
      "stateMutability": "nonpayable",
      "type": "function"
    },
    {
      "inputs": [
        {
          "internalType": "address",
          "name": "to",
          "type": "address"
        },
        {
          "internalType": "uint256",
          "name": "tokenId",
          "type": "uint256"
        }
      ],
      "name": "transferPack",
      "outputs": [],
      "stateMutability": "nonpayable",
      "type": "function"
    }
  ],
  "bytecode": "0x60a06040526000196080908152506710a741a4627800006004553480156200002657600080fd5b50604051620022523803806200225283398181016040528101906200004c91906200022c565b6200006c62000060620000f660201b60201c565b620000fe60201b60201c565b81600260006101000a81548173ffffffffffffffffffffffffffffffffffffffff021916908373ffffffffffffffffffffffffffffffffffffffff16021790555080600560006101000a81548173ffffffffffffffffffffffffffffffffffffffff021916908373ffffffffffffffffffffffffffffffffffffffff160217905550505062000273565b600033905090565b60008060009054906101000a900473ffffffffffffffffffffffffffffffffffffffff169050816000806101000a81548173ffffffffffffffffffffffffffffffffffffffff021916908373ffffffffffffffffffffffffffffffffffffffff1602179055508173ffffffffffffffffffffffffffffffffffffffff168173ffffffffffffffffffffffffffffffffffffffff167f8be0079c531659141344cd1fd0a4f28419497f9722a3daafe3b4186f6b6457e060405160405180910390a35050565b600080fd5b600073ffffffffffffffffffffffffffffffffffffffff82169050919050565b6000620001f482620001c7565b9050919050565b6200020681620001e7565b81146200021257600080fd5b50565b6000815190506200022681620001fb565b92915050565b60008060408385031215620002465762000245620001c2565b5b6000620002568582860162000215565b9250506020620002698582860162000215565b9150509250929050565b608051611fc66200028c60003960005050611fc66000f3fe608060405234801561001057600080fd5b50600436106101155760003560e01c80638fd5baf7116100a2578063c37b9bcd11610071578063c37b9bcd146102ce578063d3e6a7ad146102ec578063d611713e1461031c578063e606df8714610338578063f2fde38b1461035657610115565b80638fd5baf714610222578063a2b40d1914610252578063b84c13921461026e578063bd7133801461029e57610115565b8063627b253f116100e9578063627b253f146101905780636374cb8b146101ae5780636adbaf75146101ca578063715018a6146101fa5780638da5cb5b1461020457610115565b806279ee211461011a57806318160ddd14610138578063335c8b631461015657806350a88c7e14610174575b600080fd5b610122610372565b60405161012f9190611734565b60405180910390f35b610140610398565b60405161014d9190611768565b60405180910390f35b61015e61039e565b60405161016b9190611768565b60405180910390f35b61018e600480360381019061018991906117b4565b6103a4565b005b610198610476565b6040516101a59190611802565b60405180910390f35b6101c860048036038101906101c39190611849565b61049c565b005b6101e460048036038101906101df91906117b4565b61051f565b6040516101f19190611934565b60405180910390f35b6102026109f0565b005b61020c610a04565b6040516102199190611802565b60405180910390f35b61023c60048036038101906102379190611849565b610a2d565b6040516102499190611934565b60405180910390f35b61026c600480360381019061026791906117b4565b610ac4565b005b610288600480360381019061028391906117b4565b610b9a565b6040516102959190611802565b60405180910390f35b6102b860048036038101906102b39190611956565b610bcd565b6040516102c59190611768565b60405180910390f35b6102d6610bfe565b6040516102e39190611768565b60405180910390f35b610306600480360381019061030191906117b4565b611029565b6040516103139190611802565b60405180910390f35b61033660048036038101906103319190611956565b611066565b005b610340611276565b60405161034d9190611802565b60405180910390f35b610370600480360381019061036b9190611849565b61129c565b005b600360009054906101000a900473ffffffffffffffffffffffffffffffffffffffff1681565b61c35081565b60045481565b600360009054906101000a900473ffffffffffffffffffffffffffffffffffffffff1673ffffffffffffffffffffffffffffffffffffffff163373ffffffffffffffffffffffffffffffffffffffff1614610434576040517f08c379a000000000000000000000000000000000000000000000000000000000815260040161042b906119f3565b60405180910390fd5b61043d8161131f565b6006600082815260200190815260200160002060006101000a81549073ffffffffffffffffffffffffffffffffffffffff021916905550565b600560009054906101000a900473ffffffffffffffffffffffffffffffffffffffff1681565b6104a4611547565b80600360006101000a81548173ffffffffffffffffffffffffffffffffffffffff021916908373ffffffffffffffffffffffffffffffffffffffff1602179055507f03fb71c656441080e12a35ef543bf2141601e59906bf22cf1952f28da56f45e1816040516105149190611802565b60405180910390a150565b6060600073ffffffffffffffffffffffffffffffffffffffff16600360009054906101000a900473ffffffffffffffffffffffffffffffffffffffff1673ffffffffffffffffffffffffffffffffffffffff16036105b2576040517f08c379a00000000000000000000000000000000000000000000000000000000081526004016105a990611a5f565b60405180910390fd5b60008260066004546105c49190611add565b6004546105d19190611b0e565b6105db9190611b42565b905060008367ffffffffffffffff8111156105f9576105f8611b84565b5b6040519080825280602002602001820160405280156106275781602001602082028036833780820191505090505b50905060005b8481101561077d57600061064160016115c5565b905061c3508110610687576040517f08c379a000000000000000000000000000000000000000000000000000000000815260040161067e90611bff565b60405180910390fd5b61069160016115d3565b336006600083815260200190815260200160002060006101000a81548173ffffffffffffffffffffffffffffffffffffffff021916908373ffffffffffffffffffffffffffffffffffffffff160217905550600760003373ffffffffffffffffffffffffffffffffffffffff1673ffffffffffffffffffffffffffffffffffffffff1681526020019081526020016000208190806001815401808255809150506001900390600052602060002001600090919091909150558083838151811061075d5761075c611c1f565b5b60200260200101818152505050808061077590611c4e565b91505061062d565b50600360009054906101000a900473ffffffffffffffffffffffffffffffffffffffff1673ffffffffffffffffffffffffffffffffffffffff16638ba526fc836040518263ffffffff1660e01b81526004016107d99190611768565b600060405180830381600087803b1580156107f357600080fd5b505af1158015610807573d6000803e3d6000fd5b50505050600260009054906101000a900473ffffffffffffffffffffffffffffffffffffffff1673ffffffffffffffffffffffffffffffffffffffff166323b872dd33600360009054906101000a900473ffffffffffffffffffffffffffffffffffffffff16856040518463ffffffff1660e01b815260040161088c93929190611c96565b6020604051808303816000875af11580156108ab573d6000803e3d6000fd5b505050506040513d601f19601f820116820180604052508101906108cf9190611d05565b50600260009054906101000a900473ffffffffffffffffffffffffffffffffffffffff1673ffffffffffffffffffffffffffffffffffffffff166323b872dd33600560009054906101000a900473ffffffffffffffffffffffffffffffffffffffff1685886004546109419190611b42565b61094b9190611b0e565b6040518463ffffffff1660e01b815260040161096993929190611c96565b6020604051808303816000875af1158015610988573d6000803e3d6000fd5b505050506040513d601f19601f820116820180604052508101906109ac9190611d05565b507fccced7f637f56c0164dc795f58e00b6eab6aed650e35721023dc6dd2b8f6746d33826040516109de929190611d32565b60405180910390a18092505050919050565b6109f8611547565b610a0260006115e9565b565b60008060009054906101000a900473ffffffffffffffffffffffffffffffffffffffff16905090565b6060600760008373ffffffffffffffffffffffffffffffffffffffff1673ffffffffffffffffffffffffffffffffffffffff168152602001908152602001600020805480602002602001604051908101604052809291908181526020018280548015610ab857602002820191906000526020600020905b815481526020019060010190808311610aa4575b50505050509050919050565b610acc611547565b80600481905550600360009054906101000a900473ffffffffffffffffffffffffffffffffffffffff1673ffffffffffffffffffffffffffffffffffffffff1663e1883c6e826040518263ffffffff1660e01b8152600401610b2e9190611768565b600060405180830381600087803b158015610b4857600080fd5b505af1158015610b5c573d6000803e3d6000fd5b505050507f270b316b51ab2cf3a3bb8ca4d22e76a327d05e762fcaa8bd6afaf8cfde9270b781604051610b8f9190611768565b60405180910390a150565b60066020528060005260406000206000915054906101000a900473ffffffffffffffffffffffffffffffffffffffff1681565b60076020528160005260406000208181548110610be957600080fd5b90600052602060002001600091509150505481565b60008073ffffffffffffffffffffffffffffffffffffffff16600360009054906101000a900473ffffffffffffffffffffffffffffffffffffffff1673ffffffffffffffffffffffffffffffffffffffff1603610c90576040517f08c379a0000000000000000000000000000000000000000000000000000000008152600401610c8790611a5f565b60405180910390fd5b6000610c9c60016115c5565b905061c3508110610ce2576040517f08c379a0000000000000000000000000000000000000000000000000000000008152600401610cd990611bff565b60405180910390fd5b610cec60016115d3565b336006600083815260200190815260200160002060006101000a81548173ffffffffffffffffffffffffffffffffffffffff021916908373ffffffffffffffffffffffffffffffffffffffff160217905550600760003373ffffffffffffffffffffffffffffffffffffffff1673ffffffffffffffffffffffffffffffffffffffff16815260200190815260200160002081908060018154018082558091505060019003906000526020600020016000909190919091505560006006600454610db59190611add565b600454610dc29190611b0e565b9050600360009054906101000a900473ffffffffffffffffffffffffffffffffffffffff1673ffffffffffffffffffffffffffffffffffffffff16638ba526fc826040518263ffffffff1660e01b8152600401610e1f9190611768565b600060405180830381600087803b158015610e3957600080fd5b505af1158015610e4d573d6000803e3d6000fd5b50505050600260009054906101000a900473ffffffffffffffffffffffffffffffffffffffff1673ffffffffffffffffffffffffffffffffffffffff166323b872dd33600360009054906101000a900473ffffffffffffffffffffffffffffffffffffffff16846040518463ffffffff1660e01b8152600401610ed293929190611c96565b6020604051808303816000875af1158015610ef1573d6000803e3d6000fd5b505050506040513d601f19601f82011682018060405250810190610f159190611d05565b50600260009054906101000a900473ffffffffffffffffffffffffffffffffffffffff1673ffffffffffffffffffffffffffffffffffffffff166323b872dd33600560009054906101000a900473ffffffffffffffffffffffffffffffffffffffff1684600454610f869190611b0e565b6040518463ffffffff1660e01b8152600401610fa493929190611c96565b6020604051808303816000875af1158015610fc3573d6000803e3d6000fd5b505050506040513d601f19601f82011682018060405250810190610fe79190611d05565b507f4bec02a302b11f990fe586d595753fd0163e88c0f3fff0cdcc10e831ac620e9a3383604051611019929190611d62565b60405180910390a1819250505090565b60006006600083815260200190815260200160002060009054906101000a900473ffffffffffffffffffffffffffffffffffffffff169050919050565b3373ffffffffffffffffffffffffffffffffffffffff166006600083815260200190815260200160002060009054906101000a900473ffffffffffffffffffffffffffffffffffffffff1673ffffffffffffffffffffffffffffffffffffffff1614611107576040517f08c379a00000000000000000000000000000000000000000000000000000000081526004016110fe90611dd7565b60405180910390fd5b600073ffffffffffffffffffffffffffffffffffffffff168273ffffffffffffffffffffffffffffffffffffffff1603611176576040517f08c379a000000000000000000000000000000000000000000000000000000000815260040161116d90611e43565b60405180910390fd5b816006600083815260200190815260200160002060006101000a81548173ffffffffffffffffffffffffffffffffffffffff021916908373ffffffffffffffffffffffffffffffffffffffff1602179055506111d18161131f565b600760008373ffffffffffffffffffffffffffffffffffffffff1673ffffffffffffffffffffffffffffffffffffffff1681526020019081526020016000208190806001815401808255809150506001900390600052602060002001600090919091909150557fddb6f61cc68e099150dacab8be873f19cc91f6ceb7d8237794124ede38722aaf33838360405161126a93929190611c96565b60405180910390a15050565b600260009054906101000a900473ffffffffffffffffffffffffffffffffffffffff1681565b6112a4611547565b600073ffffffffffffffffffffffffffffffffffffffff168173ffffffffffffffffffffffffffffffffffffffff1603611313576040517f08c379a000000000000000000000000000000000000000000000000000000000815260040161130a90611ed5565b60405180910390fd5b61131c816115e9565b50565b6000600760003373ffffffffffffffffffffffffffffffffffffffff1673ffffffffffffffffffffffffffffffffffffffff1681526020019081526020016000208054905090506000818110156115425782600760003373ffffffffffffffffffffffffffffffffffffffff1673ffffffffffffffffffffffffffffffffffffffff16815260200190815260200160002082815481106113c2576113c1611c1f565b5b90600052602060002001540361154157600760003373ffffffffffffffffffffffffffffffffffffffff1673ffffffffffffffffffffffffffffffffffffffff1681526020019081526020016000206001600760003373ffffffffffffffffffffffffffffffffffffffff1673ffffffffffffffffffffffffffffffffffffffff168152602001908152602001600020805490506114609190611b0e565b8154811061147157611470611c1f565b5b9060005260206000200154600760003373ffffffffffffffffffffffffffffffffffffffff1673ffffffffffffffffffffffffffffffffffffffff16815260200190815260200160002082815481106114cd576114cc611c1f565b5b9060005260206000200181905550600760003373ffffffffffffffffffffffffffffffffffffffff1673ffffffffffffffffffffffffffffffffffffffff16815260200190815260200160002080548061152a57611529611ef5565b5b600190038181906000526020600020016000905590555b5b505050565b61154f6116ad565b73ffffffffffffffffffffffffffffffffffffffff1661156d610a04565b73ffffffffffffffffffffffffffffffffffffffff16146115c3576040517f08c379a00000000000000000000000000000000000000000000000000000000081526004016115ba90611f70565b60405180910390fd5b565b600081600001549050919050565b6001816000016000828254019250508190555050565b60008060009054906101000a900473ffffffffffffffffffffffffffffffffffffffff169050816000806101000a81548173ffffffffffffffffffffffffffffffffffffffff021916908373ffffffffffffffffffffffffffffffffffffffff1602179055508173ffffffffffffffffffffffffffffffffffffffff168173ffffffffffffffffffffffffffffffffffffffff167f8be0079c531659141344cd1fd0a4f28419497f9722a3daafe3b4186f6b6457e060405160405180910390a35050565b600033905090565b600073ffffffffffffffffffffffffffffffffffffffff82169050919050565b6000819050919050565b60006116fa6116f56116f0846116b5565b6116d5565b6116b5565b9050919050565b600061170c826116df565b9050919050565b600061171e82611701565b9050919050565b61172e81611713565b82525050565b60006020820190506117496000830184611725565b92915050565b6000819050919050565b6117628161174f565b82525050565b600060208201905061177d6000830184611759565b92915050565b600080fd5b6117918161174f565b811461179c57600080fd5b50565b6000813590506117ae81611788565b92915050565b6000602082840312156117ca576117c9611783565b5b60006117d88482850161179f565b91505092915050565b60006117ec826116b5565b9050919050565b6117fc816117e1565b82525050565b600060208201905061181760008301846117f3565b92915050565b611826816117e1565b811461183157600080fd5b50565b6000813590506118438161181d565b92915050565b60006020828403121561185f5761185e611783565b5b600061186d84828501611834565b91505092915050565b600081519050919050565b600082825260208201905092915050565b6000819050602082019050919050565b6118ab8161174f565b82525050565b60006118bd83836118a2565b60208301905092915050565b6000602082019050919050565b60006118e182611876565b6118eb8185611881565b93506118f683611892565b8060005b8381101561192757815161190e88826118b1565b9750611919836118c9565b9250506001810190506118fa565b5085935050505092915050565b6000602082019050818103600083015261194e81846118d6565b905092915050565b6000806040838503121561196d5761196c611783565b5b600061197b85828601611834565b925050602061198c8582860161179f565b9150509250929050565b600082825260208201905092915050565b7f4e6f20657320636f6e747261746f206465206361727461730000000000000000600082015250565b60006119dd601883611996565b91506119e8826119a7565b602082019050919050565b60006020820190508181036000830152611a0c816119d0565b9050919050565b7f436f6e747261746f20646520636172746173206e6f207365746561646f000000600082015250565b6000611a49601d83611996565b9150611a5482611a13565b602082019050919050565b60006020820190508181036000830152611a7881611a3c565b9050919050565b7f4e487b7100000000000000000000000000000000000000000000000000000000600052601260045260246000fd5b7f4e487b7100000000000000000000000000000000000000000000000000000000600052601160045260246000fd5b6000611ae88261174f565b9150611af38361174f565b925082611b0357611b02611a7f565b5b828204905092915050565b6000611b198261174f565b9150611b248361174f565b9250828203905081811115611b3c57611b3b611aae565b5b92915050565b6000611b4d8261174f565b9150611b588361174f565b9250828202611b668161174f565b91508282048414831517611b7d57611b7c611aae565b5b5092915050565b7f4e487b7100000000000000000000000000000000000000000000000000000000600052604160045260246000fd5b7f5365206163616261726f6e206c6f7320736f6272657300000000000000000000600082015250565b6000611be9601683611996565b9150611bf482611bb3565b602082019050919050565b60006020820190508181036000830152611c1881611bdc565b9050919050565b7f4e487b7100000000000000000000000000000000000000000000000000000000600052603260045260246000fd5b6000611c598261174f565b91507fffffffffffffffffffffffffffffffffffffffffffffffffffffffffffffffff8203611c8b57611c8a611aae565b5b600182019050919050565b6000606082019050611cab60008301866117f3565b611cb860208301856117f3565b611cc56040830184611759565b949350505050565b60008115159050919050565b611ce281611ccd565b8114611ced57600080fd5b50565b600081519050611cff81611cd9565b92915050565b600060208284031215611d1b57611d1a611783565b5b6000611d2984828501611cf0565b91505092915050565b6000604082019050611d4760008301856117f3565b8181036020830152611d5981846118d6565b90509392505050565b6000604082019050611d7760008301856117f3565b611d846020830184611759565b9392505050565b7f457374652070617175657465206e6f206573207475796f000000000000000000600082015250565b6000611dc1601783611996565b9150611dcc82611d8b565b602082019050919050565b60006020820190508181036000830152611df081611db4565b9050919050565b7f5175656d6172206e6f207065726d697469646f00000000000000000000000000600082015250565b6000611e2d601383611996565b9150611e3882611df7565b602082019050919050565b60006020820190508181036000830152611e5c81611e20565b9050919050565b7f4f776e61626c653a206e6577206f776e657220697320746865207a65726f206160008201527f6464726573730000000000000000000000000000000000000000000000000000602082015250565b6000611ebf602683611996565b9150611eca82611e63565b604082019050919050565b60006020820190508181036000830152611eee81611eb2565b9050919050565b7f4e487b7100000000000000000000000000000000000000000000000000000000600052603160045260246000fd5b7f4f776e61626c653a2063616c6c6572206973206e6f7420746865206f776e6572600082015250565b6000611f5a602083611996565b9150611f6582611f24565b602082019050919050565b60006020820190508181036000830152611f8981611f4d565b905091905056fea26469706673582212202debacca29a251ced0e5cd3bd63e103dff251909124cba07eb084a47aac0190964736f6c63430008120033",
  "linkReferences": {},
  "deployedLinkReferences": {}
}