{
  "_format": "hh-sol-artifact-1",
  "contractName": "GammaCardsV2",
  "sourceName": "contracts/GammaCardsV2.sol",
  "abi": [
    {
      "inputs": [
        {
          "internalType": "address",
          "name": "_daiTokenAddress",
          "type": "address"
        },
        {
          "internalType": "address",
          "name": "_packsContract",
          "type": "address"
        },
        {
          "internalType": "string",
          "name": "_baseUri",
          "type": "string"
        },
        {
          "internalType": "address",
          "name": "_signer",
          "type": "address"
        }
      ],
      "stateMutability": "nonpayable",
      "type": "constructor"
    },
    {
      "anonymous": false,
      "inputs": [
        {
          "indexed": false,
          "internalType": "address",
          "name": "player",
          "type": "address"
        },
        {
          "indexed": false,
          "internalType": "uint8",
          "name": "albumClass",
          "type": "uint8"
        }
      ],
      "name": "AlbumCompleted",
      "type": "event"
    },
    {
      "anonymous": false,
      "inputs": [
        {
          "indexed": true,
          "internalType": "address",
          "name": "owner",
          "type": "address"
        },
        {
          "indexed": true,
          "internalType": "address",
          "name": "approved",
          "type": "address"
        },
        {
          "indexed": true,
          "internalType": "uint256",
          "name": "tokenId",
          "type": "uint256"
        }
      ],
      "name": "Approval",
      "type": "event"
    },
    {
      "anonymous": false,
      "inputs": [
        {
          "indexed": true,
          "internalType": "address",
          "name": "owner",
          "type": "address"
        },
        {
          "indexed": true,
          "internalType": "address",
          "name": "operator",
          "type": "address"
        },
        {
          "indexed": false,
          "internalType": "bool",
          "name": "approved",
          "type": "bool"
        }
      ],
      "name": "ApprovalForAll",
      "type": "event"
    },
    {
      "anonymous": false,
      "inputs": [
        {
          "indexed": false,
          "internalType": "address",
          "name": "player",
          "type": "address"
        },
        {
          "indexed": false,
          "internalType": "uint256",
          "name": "cardTokenId",
          "type": "uint256"
        },
        {
          "indexed": false,
          "internalType": "uint256",
          "name": "albumTokenId",
          "type": "uint256"
        }
      ],
      "name": "CardPasted",
      "type": "event"
    },
    {
      "anonymous": false,
      "inputs": [
        {
          "indexed": false,
          "internalType": "address",
          "name": "receiver",
          "type": "address"
        },
        {
          "indexed": false,
          "internalType": "uint256",
          "name": "amount",
          "type": "uint256"
        }
      ],
      "name": "EmergencyWithdrawal",
      "type": "event"
    },
    {
      "anonymous": false,
      "inputs": [
        {
          "indexed": false,
          "internalType": "address",
          "name": "newSigner",
          "type": "address"
        }
      ],
      "name": "NewSigner",
      "type": "event"
    },
    {
      "anonymous": false,
      "inputs": [
        {
          "indexed": false,
          "internalType": "string",
          "name": "newMainUri",
          "type": "string"
        },
        {
          "indexed": false,
          "internalType": "string",
          "name": "newSecondaryUri",
          "type": "string"
        }
      ],
      "name": "NewUris",
      "type": "event"
    },
    {
      "anonymous": false,
      "inputs": [
        {
          "indexed": true,
          "internalType": "address",
          "name": "previousOwner",
          "type": "address"
        },
        {
          "indexed": true,
          "internalType": "address",
          "name": "newOwner",
          "type": "address"
        }
      ],
      "name": "OwnershipTransferred",
      "type": "event"
    },
    {
      "anonymous": false,
      "inputs": [
        {
          "indexed": false,
          "internalType": "address",
          "name": "player",
          "type": "address"
        },
        {
          "indexed": false,
          "internalType": "uint8[]",
          "name": "packData",
          "type": "uint8[]"
        },
        {
          "indexed": false,
          "internalType": "uint256",
          "name": "packNumber",
          "type": "uint256"
        }
      ],
      "name": "PackOpened",
      "type": "event"
    },
    {
      "anonymous": false,
      "inputs": [
        {
          "indexed": true,
          "internalType": "address",
          "name": "from",
          "type": "address"
        },
        {
          "indexed": true,
          "internalType": "address",
          "name": "to",
          "type": "address"
        },
        {
          "indexed": true,
          "internalType": "uint256",
          "name": "tokenId",
          "type": "uint256"
        }
      ],
      "name": "Transfer",
      "type": "event"
    },
    {
      "inputs": [],
      "name": "DAI_TOKEN",
      "outputs": [
        {
          "internalType": "address",
          "name": "",
          "type": "address"
        }
      ],
      "stateMutability": "view",
      "type": "function"
    },
    {
      "inputs": [
        {
          "internalType": "address",
          "name": "to",
          "type": "address"
        },
        {
          "internalType": "uint256",
          "name": "tokenId",
          "type": "uint256"
        }
      ],
      "name": "approve",
      "outputs": [],
      "stateMutability": "nonpayable",
      "type": "function"
    },
    {
      "inputs": [
        {
          "internalType": "address",
          "name": "owner",
          "type": "address"
        }
      ],
      "name": "balanceOf",
      "outputs": [
        {
          "internalType": "uint256",
          "name": "",
          "type": "uint256"
        }
      ],
      "stateMutability": "view",
      "type": "function"
    },
    {
      "inputs": [],
      "name": "baseUri",
      "outputs": [
        {
          "internalType": "string",
          "name": "",
          "type": "string"
        }
      ],
      "stateMutability": "view",
      "type": "function"
    },
    {
      "inputs": [
        {
          "internalType": "uint256",
          "name": "tokenId",
          "type": "uint256"
        }
      ],
      "name": "burn",
      "outputs": [],
      "stateMutability": "nonpayable",
      "type": "function"
    },
    {
      "inputs": [
        {
          "internalType": "uint8[]",
          "name": "cardNumbers",
          "type": "uint8[]"
        }
      ],
      "name": "burnCards",
      "outputs": [],
      "stateMutability": "nonpayable",
      "type": "function"
    },
    {
      "inputs": [
        {
          "internalType": "address",
          "name": "user",
          "type": "address"
        }
      ],
      "name": "burnedCards",
      "outputs": [
        {
          "internalType": "uint256",
          "name": "amount",
          "type": "uint256"
        }
      ],
      "stateMutability": "view",
      "type": "function"
    },
    {
      "inputs": [
        {
          "internalType": "uint256",
          "name": "tokenId",
          "type": "uint256"
        }
      ],
      "name": "cards",
      "outputs": [
        {
          "internalType": "uint256",
          "name": "tokenId",
          "type": "uint256"
        },
        {
          "internalType": "uint256",
          "name": "number",
          "type": "uint256"
        },
        {
          "internalType": "bool",
          "name": "pasted",
          "type": "bool"
        },
        {
          "internalType": "uint8",
          "name": "class",
          "type": "uint8"
        },
        {
          "internalType": "uint256",
          "name": "completion",
          "type": "uint256"
        }
      ],
      "stateMutability": "view",
      "type": "function"
    },
    {
      "inputs": [
        {
          "internalType": "address",
          "name": "user",
          "type": "address"
        },
        {
          "internalType": "uint8",
          "name": "cardNumber",
          "type": "uint8"
        }
      ],
      "name": "cardsByUser",
      "outputs": [
        {
          "internalType": "uint8",
          "name": "amount",
          "type": "uint8"
        }
      ],
      "stateMutability": "view",
      "type": "function"
    },
    {
      "inputs": [
        {
          "internalType": "uint256",
          "name": "cardNumber",
          "type": "uint256"
        }
      ],
      "name": "cardsInventory",
      "outputs": [
        {
          "internalType": "uint256",
          "name": "amount",
          "type": "uint256"
        }
      ],
      "stateMutability": "view",
      "type": "function"
    },
    {
      "inputs": [
        {
          "internalType": "uint256",
          "name": "newPackPrice",
          "type": "uint256"
        }
      ],
      "name": "changePackPrice",
      "outputs": [],
      "stateMutability": "nonpayable",
      "type": "function"
    },
    {
      "inputs": [
        {
          "internalType": "uint256",
          "name": "amount",
          "type": "uint256"
        }
      ],
      "name": "emergencyWithdraw",
      "outputs": [],
      "stateMutability": "nonpayable",
      "type": "function"
    },
    {
      "inputs": [],
      "name": "finishAlbum",
      "outputs": [],
      "stateMutability": "nonpayable",
      "type": "function"
    },
    {
      "inputs": [
        {
          "internalType": "uint256",
          "name": "tokenId",
          "type": "uint256"
        }
      ],
      "name": "getApproved",
      "outputs": [
        {
          "internalType": "address",
          "name": "",
          "type": "address"
        }
      ],
      "stateMutability": "view",
      "type": "function"
    },
    {
      "inputs": [
        {
          "internalType": "address",
          "name": "user",
          "type": "address"
        }
      ],
      "name": "getCardsByUser",
      "outputs": [
        {
          "internalType": "uint8[]",
          "name": "",
          "type": "uint8[]"
        },
        {
          "internalType": "uint8[]",
          "name": "",
          "type": "uint8[]"
        }
      ],
      "stateMutability": "view",
      "type": "function"
    },
    {
      "inputs": [
        {
          "internalType": "address",
          "name": "owner",
          "type": "address"
        },
        {
          "internalType": "address",
          "name": "operator",
          "type": "address"
        }
      ],
      "name": "isApprovedForAll",
      "outputs": [
        {
          "internalType": "bool",
          "name": "",
          "type": "bool"
        }
      ],
      "stateMutability": "view",
      "type": "function"
    },
    {
      "inputs": [],
      "name": "mainAlbumPrize",
      "outputs": [
        {
          "internalType": "uint256",
          "name": "",
          "type": "uint256"
        }
      ],
      "stateMutability": "view",
      "type": "function"
    },
    {
      "inputs": [],
      "name": "mainUri",
      "outputs": [
        {
          "internalType": "string",
          "name": "",
          "type": "string"
        }
      ],
      "stateMutability": "view",
      "type": "function"
    },
    {
      "inputs": [
        {
          "internalType": "uint8",
          "name": "cardNum",
          "type": "uint8"
        }
      ],
      "name": "mintCard",
      "outputs": [],
      "stateMutability": "nonpayable",
      "type": "function"
    },
    {
      "inputs": [],
      "name": "name",
      "outputs": [
        {
          "internalType": "string",
          "name": "",
          "type": "string"
        }
      ],
      "stateMutability": "view",
      "type": "function"
    },
    {
      "inputs": [
        {
          "internalType": "uint256",
          "name": "packNumber",
          "type": "uint256"
        },
        {
          "internalType": "uint8[]",
          "name": "packData",
          "type": "uint8[]"
        },
        {
          "internalType": "bytes",
          "name": "signature",
          "type": "bytes"
        }
      ],
      "name": "openPack",
      "outputs": [],
      "stateMutability": "nonpayable",
      "type": "function"
    },
    {
      "inputs": [],
      "name": "owner",
      "outputs": [
        {
          "internalType": "address",
          "name": "",
          "type": "address"
        }
      ],
      "stateMutability": "view",
      "type": "function"
    },
    {
      "inputs": [
        {
          "internalType": "uint256",
          "name": "tokenId",
          "type": "uint256"
        }
      ],
      "name": "ownerOf",
      "outputs": [
        {
          "internalType": "address",
          "name": "",
          "type": "address"
        }
      ],
      "stateMutability": "view",
      "type": "function"
    },
    {
      "inputs": [],
      "name": "packPrice",
      "outputs": [
        {
          "internalType": "uint256",
          "name": "",
          "type": "uint256"
        }
      ],
      "stateMutability": "view",
      "type": "function"
    },
    {
      "inputs": [],
      "name": "packsContract",
      "outputs": [
        {
          "internalType": "contract IGammaPacks",
          "name": "",
          "type": "address"
        }
      ],
      "stateMutability": "view",
      "type": "function"
    },
    {
      "inputs": [],
      "name": "prizesBalance",
      "outputs": [
        {
          "internalType": "uint256",
          "name": "",
          "type": "uint256"
        }
      ],
      "stateMutability": "view",
      "type": "function"
    },
    {
      "inputs": [
        {
          "internalType": "uint256",
          "name": "amount",
          "type": "uint256"
        }
      ],
      "name": "receivePrizesBalance",
      "outputs": [],
      "stateMutability": "nonpayable",
      "type": "function"
    },
    {
      "inputs": [],
      "name": "renounceOwnership",
      "outputs": [],
      "stateMutability": "nonpayable",
      "type": "function"
    },
    {
      "inputs": [
        {
          "internalType": "address",
          "name": "from",
          "type": "address"
        },
        {
          "internalType": "address",
          "name": "to",
          "type": "address"
        },
        {
          "internalType": "uint256",
          "name": "tokenId",
          "type": "uint256"
        }
      ],
      "name": "safeTransferFrom",
      "outputs": [],
      "stateMutability": "nonpayable",
      "type": "function"
    },
    {
      "inputs": [
        {
          "internalType": "address",
          "name": "from",
          "type": "address"
        },
        {
          "internalType": "address",
          "name": "to",
          "type": "address"
        },
        {
          "internalType": "uint256",
          "name": "tokenId",
          "type": "uint256"
        },
        {
          "internalType": "bytes",
          "name": "data",
          "type": "bytes"
        }
      ],
      "name": "safeTransferFrom",
      "outputs": [],
      "stateMutability": "nonpayable",
      "type": "function"
    },
    {
      "inputs": [],
      "name": "secondaryAlbumPrize",
      "outputs": [
        {
          "internalType": "uint256",
          "name": "",
          "type": "uint256"
        }
      ],
      "stateMutability": "view",
      "type": "function"
    },
    {
      "inputs": [],
      "name": "secondaryUri",
      "outputs": [
        {
          "internalType": "string",
          "name": "",
          "type": "string"
        }
      ],
      "stateMutability": "view",
      "type": "function"
    },
    {
      "inputs": [
        {
          "internalType": "address",
          "name": "operator",
          "type": "address"
        },
        {
          "internalType": "bool",
          "name": "approved",
          "type": "bool"
        }
      ],
      "name": "setApprovalForAll",
      "outputs": [],
      "stateMutability": "nonpayable",
      "type": "function"
    },
    {
      "inputs": [
        {
          "internalType": "address",
          "name": "newSigner",
          "type": "address"
        }
      ],
      "name": "setSigner",
      "outputs": [],
      "stateMutability": "nonpayable",
      "type": "function"
    },
    {
      "inputs": [
        {
          "internalType": "string",
          "name": "newMainUri",
          "type": "string"
        },
        {
          "internalType": "string",
          "name": "newSecondaryUri",
          "type": "string"
        }
      ],
      "name": "setUris",
      "outputs": [],
      "stateMutability": "nonpayable",
      "type": "function"
    },
    {
      "inputs": [],
      "name": "signer",
      "outputs": [
        {
          "internalType": "address",
          "name": "",
          "type": "address"
        }
      ],
      "stateMutability": "view",
      "type": "function"
    },
    {
      "inputs": [
        {
          "internalType": "bytes4",
          "name": "interfaceId",
          "type": "bytes4"
        }
      ],
      "name": "supportsInterface",
      "outputs": [
        {
          "internalType": "bool",
          "name": "",
          "type": "bool"
        }
      ],
      "stateMutability": "view",
      "type": "function"
    },
    {
      "inputs": [],
      "name": "symbol",
      "outputs": [
        {
          "internalType": "string",
          "name": "",
          "type": "string"
        }
      ],
      "stateMutability": "view",
      "type": "function"
    },
    {
      "inputs": [],
      "name": "testAddCards",
      "outputs": [],
      "stateMutability": "nonpayable",
      "type": "function"
    },
    {
      "inputs": [
        {
          "internalType": "uint256",
          "name": "tokenId",
          "type": "uint256"
        }
      ],
      "name": "tokenURI",
      "outputs": [
        {
          "internalType": "string",
          "name": "",
          "type": "string"
        }
      ],
      "stateMutability": "view",
      "type": "function"
    },
    {
      "inputs": [
        {
          "internalType": "address",
          "name": "to",
          "type": "address"
        },
        {
          "internalType": "uint8",
          "name": "cardNumber",
          "type": "uint8"
        }
      ],
      "name": "transferCard",
      "outputs": [],
      "stateMutability": "nonpayable",
      "type": "function"
    },
    {
      "inputs": [
        {
          "internalType": "address",
          "name": "to",
          "type": "address"
        },
        {
          "internalType": "uint8[]",
          "name": "cardNumbers",
          "type": "uint8[]"
        }
      ],
      "name": "transferCards",
      "outputs": [],
      "stateMutability": "nonpayable",
      "type": "function"
    },
    {
      "inputs": [
        {
          "internalType": "address",
          "name": "from",
          "type": "address"
        },
        {
          "internalType": "address",
          "name": "to",
          "type": "address"
        },
        {
          "internalType": "uint256",
          "name": "tokenId",
          "type": "uint256"
        }
      ],
      "name": "transferFrom",
      "outputs": [],
      "stateMutability": "nonpayable",
      "type": "function"
    },
    {
      "inputs": [
        {
          "internalType": "address",
          "name": "newOwner",
          "type": "address"
        }
      ],
      "name": "transferOwnership",
      "outputs": [],
      "stateMutability": "nonpayable",
      "type": "function"
    }
  ],
  "bytecode": "0x60806040526710a741a462780000600c5567d02ab486cedc0000600f55670de0b6b3a76400006010553480156200003557600080fd5b5060405162007a4b38038062007a4b83398181016040528101906200005b9190620006a1565b6040518060400160405280600a81526020017f47616d6d614361726473000000000000000000000000000000000000000000008152506040518060400160405280600681526020017f4e4f465f474300000000000000000000000000000000000000000000000000008152508160009081620000d891906200097d565b508060019081620000ea91906200097d565b5050506200010d62000101620003db60201b60201c565b620003e360201b60201c565b82600860006101000a81548173ffffffffffffffffffffffffffffffffffffffff021916908373ffffffffffffffffffffffffffffffffffffffff16021790555083600a60006101000a81548173ffffffffffffffffffffffffffffffffffffffff021916908373ffffffffffffffffffffffffffffffffffffffff16021790555081600e9081620001a091906200097d565b50600e6040518060400160405280600181526020017f2f000000000000000000000000000000000000000000000000000000000000008152506040518060400160405280600381526020017f31323000000000000000000000000000000000000000000000000000000000008152506040518060400160405280600681526020017f462e6a736f6e00000000000000000000000000000000000000000000000000008152506040516020016200025a949392919062000b55565b604051602081830303815290604052601190816200027991906200097d565b50600e6040518060400160405280600181526020017f2f000000000000000000000000000000000000000000000000000000000000008152506040518060400160405280600381526020017f31323100000000000000000000000000000000000000000000000000000000008152506040518060400160405280600681526020017f462e6a736f6e000000000000000000000000000000000000000000000000000081525060405160200162000333949392919062000b55565b604051602081830303815290604052601290816200035291906200097d565b5080600b60006101000a81548173ffffffffffffffffffffffffffffffffffffffff021916908373ffffffffffffffffffffffffffffffffffffffff16021790555060005b607a811015620003d057600160136000838152602001908152602001600020819055508080620003c79062000bca565b91505062000397565b505050505062000c17565b600033905090565b6000600760009054906101000a900473ffffffffffffffffffffffffffffffffffffffff16905081600760006101000a81548173ffffffffffffffffffffffffffffffffffffffff021916908373ffffffffffffffffffffffffffffffffffffffff1602179055508173ffffffffffffffffffffffffffffffffffffffff168173ffffffffffffffffffffffffffffffffffffffff167f8be0079c531659141344cd1fd0a4f28419497f9722a3daafe3b4186f6b6457e060405160405180910390a35050565b6000604051905090565b600080fd5b600080fd5b600073ffffffffffffffffffffffffffffffffffffffff82169050919050565b6000620004ea82620004bd565b9050919050565b620004fc81620004dd565b81146200050857600080fd5b50565b6000815190506200051c81620004f1565b92915050565b600080fd5b600080fd5b6000601f19601f8301169050919050565b7f4e487b7100000000000000000000000000000000000000000000000000000000600052604160045260246000fd5b62000577826200052c565b810181811067ffffffffffffffff821117156200059957620005986200053d565b5b80604052505050565b6000620005ae620004a9565b9050620005bc82826200056c565b919050565b600067ffffffffffffffff821115620005df57620005de6200053d565b5b620005ea826200052c565b9050602081019050919050565b60005b8381101562000617578082015181840152602081019050620005fa565b60008484015250505050565b60006200063a6200063484620005c1565b620005a2565b90508281526020810184848401111562000659576200065862000527565b5b62000666848285620005f7565b509392505050565b600082601f83011262000686576200068562000522565b5b81516200069884826020860162000623565b91505092915050565b60008060008060808587031215620006be57620006bd620004b3565b5b6000620006ce878288016200050b565b9450506020620006e1878288016200050b565b935050604085015167ffffffffffffffff811115620007055762000704620004b8565b5b62000713878288016200066e565b925050606062000726878288016200050b565b91505092959194509250565b600081519050919050565b7f4e487b7100000000000000000000000000000000000000000000000000000000600052602260045260246000fd5b600060028204905060018216806200078557607f821691505b6020821081036200079b576200079a6200073d565b5b50919050565b60008190508160005260206000209050919050565b60006020601f8301049050919050565b600082821b905092915050565b600060088302620008057fffffffffffffffffffffffffffffffffffffffffffffffffffffffffffffffff82620007c6565b620008118683620007c6565b95508019841693508086168417925050509392505050565b6000819050919050565b6000819050919050565b60006200085e62000858620008528462000829565b62000833565b62000829565b9050919050565b6000819050919050565b6200087a836200083d565b62000892620008898262000865565b848454620007d3565b825550505050565b600090565b620008a96200089a565b620008b68184846200086f565b505050565b5b81811015620008de57620008d26000826200089f565b600181019050620008bc565b5050565b601f8211156200092d57620008f781620007a1565b6200090284620007b6565b8101602085101562000912578190505b6200092a6200092185620007b6565b830182620008bb565b50505b505050565b600082821c905092915050565b6000620009526000198460080262000932565b1980831691505092915050565b60006200096d83836200093f565b9150826002028217905092915050565b620009888262000732565b67ffffffffffffffff811115620009a457620009a36200053d565b5b620009b082546200076c565b620009bd828285620008e2565b600060209050601f831160018114620009f55760008415620009e0578287015190505b620009ec85826200095f565b86555062000a5c565b601f19841662000a0586620007a1565b60005b8281101562000a2f5784890151825560018201915060208501945060208101905062000a08565b8683101562000a4f578489015162000a4b601f8916826200093f565b8355505b6001600288020188555050505b505050505050565b600081905092915050565b60008190508160005260206000209050919050565b6000815462000a93816200076c565b62000a9f818662000a64565b9450600182166000811462000abd576001811462000ad35762000b0a565b60ff198316865281151582028601935062000b0a565b62000ade8562000a6f565b60005b8381101562000b025781548189015260018201915060208101905062000ae1565b838801955050505b50505092915050565b600081519050919050565b600062000b2b8262000b13565b62000b37818562000a64565b935062000b49818560208601620005f7565b80840191505092915050565b600062000b63828762000a84565b915062000b71828662000b1e565b915062000b7f828562000b1e565b915062000b8d828462000b1e565b915081905095945050505050565b7f4e487b7100000000000000000000000000000000000000000000000000000000600052601160045260246000fd5b600062000bd78262000829565b91507fffffffffffffffffffffffffffffffffffffffffffffffffffffffffffffffff820362000c0c5762000c0b62000b9b565b5b600182019050919050565b616e248062000c276000396000f3fe608060405234801561001057600080fd5b50600436106102745760003560e01c80638ba526fc11610151578063aaaeca17116100c3578063dec3f6d911610087578063dec3f6d91461074c578063e1883c6e1461076a578063e5db587a14610786578063e606df87146107a4578063e985e9c5146107c2578063f2fde38b146107f257610274565b8063aaaeca17146106bc578063b88d4fde146106c6578063bf400a6a146106e2578063c3461c07146106fe578063c87b56dd1461071c57610274565b806395d89b411161011557806395d89b411461060e5780639abc83201461062c5780639c7f707f1461064a5780639f4415d814610666578063a1af8ad414610684578063a22cb465146106a057610274565b80638ba526fc146105785780638da5cb5b146105945780638dc10768146105b25780638dd8be47146105e65780639038f4141461060457610274565b806342842e0e116101ea5780636352211e116101ae5780636352211e146104925780636c19e783146104c257806370a08231146104de578063715018a61461050e5780637e50fa8f14610518578063809eb3551461054857610274565b806342842e0e146103f057806342966c681461040c578063483823e8146104285780635312ea8e146104465780635dde20d81461046257610274565b806320965a5f1161023c57806320965a5f14610344578063238ac9331461036057806323b872dd1461037e578063267b841d1461039a5780632ca699e7146103b6578063335c8b63146103d257610274565b806301ffc9a7146102795780630435dcaf146102a957806306fdde03146102da578063081812fc146102f8578063095ea7b314610328575b600080fd5b610293600480360381019061028e9190614868565b61080e565b6040516102a091906148b0565b60405180910390f35b6102c360048036038101906102be9190614929565b6108f0565b6040516102d1929190614a21565b60405180910390f35b6102e2610c52565b6040516102ef9190614ae8565b60405180910390f35b610312600480360381019061030d9190614b40565b610ce4565b60405161031f9190614b7c565b60405180910390f35b610342600480360381019061033d9190614b97565b610d2a565b005b61035e60048036038101906103599190614c3c565b610e41565b005b61036861128e565b6040516103759190614b7c565b60405180910390f35b61039860048036038101906103939190614c89565b6112b4565b005b6103b460048036038101906103af9190614e9c565b611314565b005b6103d060048036038101906103cb9190614f2c565b61183a565b005b6103da611adc565b6040516103e79190614f7b565b60405180910390f35b61040a60048036038101906104059190614c89565b611ae2565b005b61042660048036038101906104219190614b40565b611b02565b005b610430611b5e565b60405161043d9190614f7b565b60405180910390f35b610460600480360381019061045b9190614b40565b611b64565b005b61047c60048036038101906104779190614b40565b611c77565b6040516104899190614f7b565b60405180910390f35b6104ac60048036038101906104a79190614b40565b611c8f565b6040516104b99190614b7c565b60405180910390f35b6104dc60048036038101906104d79190614929565b611d15565b005b6104f860048036038101906104f39190614929565b611d98565b6040516105059190614f7b565b60405180910390f35b610516611e4f565b005b610532600480360381019061052d9190614929565b611e63565b60405161053f9190614f7b565b60405180910390f35b610562600480360381019061055d9190614f2c565b611e7b565b60405161056f9190614fa5565b60405180910390f35b610592600480360381019061058d9190614b40565b611eaa565b005b61059c611f56565b6040516105a99190614b7c565b60405180910390f35b6105cc60048036038101906105c79190614b40565b611f80565b6040516105dd959493929190614fc0565b60405180910390f35b6105ee611fd0565b6040516105fb9190615072565b60405180910390f35b61060c611ff6565b005b6106166123df565b6040516106239190614ae8565b60405180910390f35b610634612471565b6040516106419190614ae8565b60405180910390f35b610664600480360381019061065f9190615142565b6124ff565b005b61066e612564565b60405161067b9190614f7b565b60405180910390f35b61069e600480360381019061069991906151ba565b61256a565b005b6106ba60048036038101906106b59190615246565b6128b0565b005b6106c46128c6565b005b6106e060048036038101906106db9190615327565b612977565b005b6106fc60048036038101906106f791906153aa565b6129d9565b005b610706612bc2565b6040516107139190614ae8565b60405180910390f35b61073660048036038101906107319190614b40565b612c50565b6040516107439190614ae8565b60405180910390f35b610754612c62565b6040516107619190614ae8565b60405180910390f35b610784600480360381019061077f9190614b40565b612cf0565b005b61078e612d8a565b60405161079b9190614f7b565b60405180910390f35b6107ac612d90565b6040516107b99190614b7c565b60405180910390f35b6107dc60048036038101906107d791906153d7565b612db6565b6040516107e991906148b0565b60405180910390f35b61080c60048036038101906108079190614929565b612e4a565b005b60007f80ac58cd000000000000000000000000000000000000000000000000000000007bffffffffffffffffffffffffffffffffffffffffffffffffffffffff1916827bffffffffffffffffffffffffffffffffffffffffffffffffffffffff191614806108d957507f5b5e139f000000000000000000000000000000000000000000000000000000007bffffffffffffffffffffffffffffffffffffffffffffffffffffffff1916827bffffffffffffffffffffffffffffffffffffffffffffffffffffffff1916145b806108e957506108e882612ecd565b5b9050919050565b6060806000607967ffffffffffffffff8111156109105761090f614cdc565b5b60405190808252806020026020018201604052801561093e5781602001602082028036833780820191505090505b5090506000607967ffffffffffffffff81111561095e5761095d614cdc565b5b60405190808252806020026020018201604052801561098c5781602001602082028036833780820191505090505b509050600080600190505b60788160ff1611610aec576000601560008973ffffffffffffffffffffffffffffffffffffffff1673ffffffffffffffffffffffffffffffffffffffff16815260200190815260200160002060008360ff1660ff16815260200190815260200160002060009054906101000a900460ff1660ff161115610ad95780848360ff1681518110610a2857610a27615417565b5b602002602001019060ff16908160ff1681525050601560008873ffffffffffffffffffffffffffffffffffffffff1673ffffffffffffffffffffffffffffffffffffffff16815260200190815260200160002060008260ff1660ff16815260200190815260200160002060009054906101000a900460ff16838360ff1681518110610ab657610ab5615417565b5b602002602001019060ff16908160ff16815250508180610ad590615475565b9250505b8080610ae490615475565b915050610997565b5060008160ff1667ffffffffffffffff811115610b0c57610b0b614cdc565b5b604051908082528060200260200182016040528015610b3a5781602001602082028036833780820191505090505b50905060008260ff1667ffffffffffffffff811115610b5c57610b5b614cdc565b5b604051908082528060200260200182016040528015610b8a5781602001602082028036833780820191505090505b50905060005b8360ff168160ff161015610c4157858160ff1681518110610bb457610bb3615417565b5b6020026020010151838260ff1681518110610bd257610bd1615417565b5b602002602001019060ff16908160ff1681525050848160ff1681518110610bfc57610bfb615417565b5b6020026020010151828260ff1681518110610c1a57610c19615417565b5b602002602001019060ff16908160ff16815250508080610c3990615475565b915050610b90565b508181965096505050505050915091565b606060008054610c61906154cd565b80601f0160208091040260200160405190810160405280929190818152602001828054610c8d906154cd565b8015610cda5780601f10610caf57610100808354040283529160200191610cda565b820191906000526020600020905b815481529060010190602001808311610cbd57829003601f168201915b5050505050905090565b6000610cef82612f37565b6004600083815260200190815260200160002060009054906101000a900473ffffffffffffffffffffffffffffffffffffffff169050919050565b6000610d3582611c8f565b90508073ffffffffffffffffffffffffffffffffffffffff168373ffffffffffffffffffffffffffffffffffffffff1603610da5576040517f08c379a0000000000000000000000000000000000000000000000000000000008152600401610d9c90615570565b60405180910390fd5b8073ffffffffffffffffffffffffffffffffffffffff16610dc4612f82565b73ffffffffffffffffffffffffffffffffffffffff161480610df35750610df281610ded612f82565b612db6565b5b610e32576040517f08c379a0000000000000000000000000000000000000000000000000000000008152600401610e2990615602565b60405180910390fd5b610e3c8383612f8a565b505050565b6000601560003373ffffffffffffffffffffffffffffffffffffffff1673ffffffffffffffffffffffffffffffffffffffff1681526020019081526020016000206000607960ff16815260200190815260200160002060009054906101000a900460ff1660ff1611610ee8576040517f08c379a0000000000000000000000000000000000000000000000000000000008152600401610edf9061566e565b60405180910390fd5b601560003373ffffffffffffffffffffffffffffffffffffffff1673ffffffffffffffffffffffffffffffffffffffff1681526020019081526020016000206000607960ff168152602001908152602001600020600081819054906101000a900460ff1680929190610f599061568e565b91906101000a81548160ff021916908360ff1602179055505081819050601660003373ffffffffffffffffffffffffffffffffffffffff1673ffffffffffffffffffffffffffffffffffffffff1681526020019081526020016000206000828254610fc491906156b7565b9250508190555060005b828290508160ff1610156110a557601560003373ffffffffffffffffffffffffffffffffffffffff1673ffffffffffffffffffffffffffffffffffffffff168152602001908152602001600020600084848460ff1681811061103357611032615417565b5b905060200201602081019061104891906153aa565b60ff1660ff168152602001908152602001600020600081819054906101000a900460ff16809291906110799061568e565b91906101000a81548160ff021916908360ff16021790555050808061109d90615475565b915050610fce565b506000603c601660003373ffffffffffffffffffffffffffffffffffffffff1673ffffffffffffffffffffffffffffffffffffffff168152602001908152602001600020546110f4919061571a565b0361128a57611191336012805461110a906154cd565b80601f0160208091040260200160405190810160405280929190818152602001828054611136906154cd565b80156111835780601f1061115857610100808354040283529160200191611183565b820191906000526020600020905b81548152906001019060200180831161116657829003601f168201915b505050505060796002613043565b600f54600d60008282546111a5919061574b565b92505081905550600a60009054906101000a900473ffffffffffffffffffffffffffffffffffffffff1673ffffffffffffffffffffffffffffffffffffffff1663a9059cbb336010546040518363ffffffff1660e01b815260040161120b92919061577f565b6020604051808303816000875af115801561122a573d6000803e3d6000fd5b505050506040513d601f19601f8201168201806040525081019061124e91906157bd565b507f6d0344e2059f835240cb954cce07d4b26f0d0844eecc234f7ee0e292ba80a1aa336002604051611281929190615825565b60405180910390a15b5050565b600b60009054906101000a900473ffffffffffffffffffffffffffffffffffffffff1681565b6112c56112bf612f82565b826130db565b611304576040517f08c379a00000000000000000000000000000000000000000000000000000000081526004016112fb906158c0565b60405180910390fd5b61130f838383613170565b505050565b3373ffffffffffffffffffffffffffffffffffffffff16600860009054906101000a900473ffffffffffffffffffffffffffffffffffffffff1673ffffffffffffffffffffffffffffffffffffffff1663d3e6a7ad866040518263ffffffff1660e01b81526004016113869190614f7b565b602060405180830381865afa1580156113a3573d6000803e3d6000fd5b505050506040513d601f19601f820116820180604052508101906113c791906158f5565b73ffffffffffffffffffffffffffffffffffffffff161461141d576040517f08c379a00000000000000000000000000000000000000000000000000000000081526004016114149061596e565b60405180910390fd5b600f835110611461576040517f08c379a0000000000000000000000000000000000000000000000000000000008152600401611458906159da565b60405180910390fd5b600860009054906101000a900473ffffffffffffffffffffffffffffffffffffffff1673ffffffffffffffffffffffffffffffffffffffff166350a88c7e856040518263ffffffff1660e01b81526004016114bc9190614f7b565b600060405180830381600087803b1580156114d657600080fd5b505af11580156114ea573d6000803e3d6000fd5b505050506006600c546114fd91906159fa565b600c5461150a919061574b565b600d600082825461151b91906156b7565b92505081905550600061156d33868673f1dd71895e49b1563693969de50898197cdf34816040516020016115529493929190615b24565b60405160208183030381529060405280519060200120613469565b9050600b60009054906101000a900473ffffffffffffffffffffffffffffffffffffffff1673ffffffffffffffffffffffffffffffffffffffff166115ff84848080601f016020809104026020016040519081016040528093929190818152602001838380828437600081840152601f19601f820116905080830192505050505050508361349990919063ffffffff16565b73ffffffffffffffffffffffffffffffffffffffff1614611655576040517f08c379a000000000000000000000000000000000000000000000000000000000815260040161164c90615bba565b60405180910390fd5b60008451905060005b818160ff1610156117f6576078868260ff168151811061168157611680615417565b5b602002602001015160ff16146116ce5761138960136000888460ff16815181106116ae576116ad615417565b5b602002602001015160ff16815260200190815260200160002054106116e8565b610bb9601360006078815260200190815260200160002054105b6116f157600080fd5b60136000878360ff168151811061170b5761170a615417565b5b602002602001015160ff168152602001908152602001600020600081548092919061173590615bda565b9190505550601560003373ffffffffffffffffffffffffffffffffffffffff1673ffffffffffffffffffffffffffffffffffffffff1681526020019081526020016000206000878360ff168151811061179157611790615417565b5b602002602001015160ff1660ff168152602001908152602001600020600081819054906101000a900460ff16809291906117ca90615475565b91906101000a81548160ff021916908360ff1602179055505080806117ee90615475565b91505061165e565b507fbabe8f5e83e93ab103ddf917b4292a19335a5128b3530bedd896a681cdd945e333868860405161182a93929190615c22565b60405180910390a1505050505050565b6000601560003373ffffffffffffffffffffffffffffffffffffffff1673ffffffffffffffffffffffffffffffffffffffff16815260200190815260200160002060008360ff1660ff16815260200190815260200160002060009054906101000a900460ff1660ff16116118e3576040517f08c379a00000000000000000000000000000000000000000000000000000000081526004016118da90615cac565b60405180910390fd5b3373ffffffffffffffffffffffffffffffffffffffff168273ffffffffffffffffffffffffffffffffffffffff1603611951576040517f08c379a000000000000000000000000000000000000000000000000000000000815260040161194890615d18565b60405180910390fd5b600073ffffffffffffffffffffffffffffffffffffffff168273ffffffffffffffffffffffffffffffffffffffff16036119c0576040517f08c379a00000000000000000000000000000000000000000000000000000000081526004016119b790615d84565b60405180910390fd5b601560003373ffffffffffffffffffffffffffffffffffffffff1673ffffffffffffffffffffffffffffffffffffffff16815260200190815260200160002060008260ff1660ff168152602001908152602001600020600081819054906101000a900460ff1680929190611a339061568e565b91906101000a81548160ff021916908360ff16021790555050601560008373ffffffffffffffffffffffffffffffffffffffff1673ffffffffffffffffffffffffffffffffffffffff16815260200190815260200160002060008260ff1660ff168152602001908152602001600020600081819054906101000a900460ff1680929190611abf90615475565b91906101000a81548160ff021916908360ff160217905550505050565b600c5481565b611afd83838360405180602001604052806000815250612977565b505050565b611b13611b0d612f82565b826130db565b611b52576040517f08c379a0000000000000000000000000000000000000000000000000000000008152600401611b49906158c0565b60405180910390fd5b611b5b816134c0565b50565b60105481565b611b6c6134cc565b80611b7630611d98565b1015611b8157600080fd5b80600d6000828254611b93919061574b565b92505081905550600a60009054906101000a900473ffffffffffffffffffffffffffffffffffffffff1673ffffffffffffffffffffffffffffffffffffffff1663a9059cbb33836040518363ffffffff1660e01b8152600401611bf792919061577f565b6020604051808303816000875af1158015611c16573d6000803e3d6000fd5b505050506040513d601f19601f82011682018060405250810190611c3a91906157bd565b507f23d6711a1d031134a36921253c75aa59e967d38e369ac625992824315e204f203382604051611c6c92919061577f565b60405180910390a150565b60136020528060005260406000206000915090505481565b600080611c9b8361354a565b9050600073ffffffffffffffffffffffffffffffffffffffff168173ffffffffffffffffffffffffffffffffffffffff1603611d0c576040517f08c379a0000000000000000000000000000000000000000000000000000000008152600401611d0390615df0565b60405180910390fd5b80915050919050565b611d1d6134cc565b80600b60006101000a81548173ffffffffffffffffffffffffffffffffffffffff021916908373ffffffffffffffffffffffffffffffffffffffff1602179055507fffafe5c39be83f4bcf20d7e1a150f6e21c1858ea0948315ba84b6b1c386d45bb81604051611d8d9190614b7c565b60405180910390a150565b60008073ffffffffffffffffffffffffffffffffffffffff168273ffffffffffffffffffffffffffffffffffffffff1603611e08576040517f08c379a0000000000000000000000000000000000000000000000000000000008152600401611dff90615e82565b60405180910390fd5b600360008373ffffffffffffffffffffffffffffffffffffffff1673ffffffffffffffffffffffffffffffffffffffff168152602001908152602001600020549050919050565b611e576134cc565b611e616000613587565b565b60166020528060005260406000206000915090505481565b60156020528160005260406000206020528060005260406000206000915091509054906101000a900460ff1681565b600860009054906101000a900473ffffffffffffffffffffffffffffffffffffffff1673ffffffffffffffffffffffffffffffffffffffff163373ffffffffffffffffffffffffffffffffffffffff1614611f3a576040517f08c379a0000000000000000000000000000000000000000000000000000000008152600401611f3190615eee565b60405180910390fd5b80600d6000828254611f4c91906156b7565b9250508190555050565b6000600760009054906101000a900473ffffffffffffffffffffffffffffffffffffffff16905090565b60146020528060005260406000206000915090508060000154908060010154908060020160009054906101000a900460ff16908060020160019054906101000a900460ff16908060030154905085565b600860009054906101000a900473ffffffffffffffffffffffffffffffffffffffff1681565b6000601560003373ffffffffffffffffffffffffffffffffffffffff1673ffffffffffffffffffffffffffffffffffffffff1681526020019081526020016000206000607860ff16815260200190815260200160002060009054906101000a900460ff1660ff161161209d576040517f08c379a000000000000000000000000000000000000000000000000000000000815260040161209490615f5a565b60405180910390fd5b600f54600d5410156120e4576040517f08c379a00000000000000000000000000000000000000000000000000000000081526004016120db90615fc6565b60405180910390fd5b6000805b60798160ff16101561220a576000601560003373ffffffffffffffffffffffffffffffffffffffff1673ffffffffffffffffffffffffffffffffffffffff16815260200190815260200160002060008360ff1660ff16815260200190815260200160002060009054906101000a900460ff1660ff160361216b576001915061220a565b601560003373ffffffffffffffffffffffffffffffffffffffff1673ffffffffffffffffffffffffffffffffffffffff16815260200190815260200160002060008260ff1660ff168152602001908152602001600020600081819054906101000a900460ff16809291906121de9061568e565b91906101000a81548160ff021916908360ff16021790555050808061220290615475565b9150506120e8565b50801561224c576040517f08c379a000000000000000000000000000000000000000000000000000000000815260040161224390616032565b60405180910390fd5b6122e4336011805461225d906154cd565b80601f0160208091040260200160405190810160405280929190818152602001828054612289906154cd565b80156122d65780601f106122ab576101008083540402835291602001916122d6565b820191906000526020600020905b8154815290600101906020018083116122b957829003601f168201915b505050505060786002613043565b600f54600d60008282546122f8919061574b565b92505081905550600a60009054906101000a900473ffffffffffffffffffffffffffffffffffffffff1673ffffffffffffffffffffffffffffffffffffffff1663a9059cbb33600f546040518363ffffffff1660e01b815260040161235e92919061577f565b6020604051808303816000875af115801561237d573d6000803e3d6000fd5b505050506040513d601f19601f820116820180604052508101906123a191906157bd565b507f6d0344e2059f835240cb954cce07d4b26f0d0844eecc234f7ee0e292ba80a1aa3360016040516123d492919061608d565b60405180910390a150565b6060600180546123ee906154cd565b80601f016020809104026020016040519081016040528092919081815260200182805461241a906154cd565b80156124675780601f1061243c57610100808354040283529160200191612467565b820191906000526020600020905b81548152906001019060200180831161244a57829003601f168201915b5050505050905090565b600e805461247e906154cd565b80601f01602080910402602001604051908101604052809291908181526020018280546124aa906154cd565b80156124f75780601f106124cc576101008083540402835291602001916124f7565b820191906000526020600020905b8154815290600101906020018083116124da57829003601f168201915b505050505081565b6125076134cc565b81601190816125169190616258565b5080601290816125269190616258565b507fabfd337ac5625b7dc2ddd3d3bd465fb1dec15322eeeed81032268b337880bec6828260405161255892919061632a565b60405180910390a15050565b600f5481565b3373ffffffffffffffffffffffffffffffffffffffff168373ffffffffffffffffffffffffffffffffffffffff16036125d8576040517f08c379a00000000000000000000000000000000000000000000000000000000081526004016125cf906163d3565b60405180910390fd5b600073ffffffffffffffffffffffffffffffffffffffff168373ffffffffffffffffffffffffffffffffffffffff1603612647576040517f08c379a000000000000000000000000000000000000000000000000000000000815260040161263e90616465565b60405180910390fd5b60005b828290508160ff1610156128aa576000601560003373ffffffffffffffffffffffffffffffffffffffff1673ffffffffffffffffffffffffffffffffffffffff168152602001908152602001600020600085858560ff168181106126b1576126b0615417565b5b90506020020160208101906126c691906153aa565b60ff1660ff16815260200190815260200160002060009054906101000a900460ff1660ff161161272b576040517f08c379a000000000000000000000000000000000000000000000000000000000815260040161272290615cac565b60405180910390fd5b601560003373ffffffffffffffffffffffffffffffffffffffff1673ffffffffffffffffffffffffffffffffffffffff168152602001908152602001600020600084848460ff1681811061278257612781615417565b5b905060200201602081019061279791906153aa565b60ff1660ff168152602001908152602001600020600081819054906101000a900460ff16809291906127c89061568e565b91906101000a81548160ff021916908360ff16021790555050601560008573ffffffffffffffffffffffffffffffffffffffff1673ffffffffffffffffffffffffffffffffffffffff168152602001908152602001600020600084848460ff1681811061283857612837615417565b5b905060200201602081019061284d91906153aa565b60ff1660ff168152602001908152602001600020600081819054906101000a900460ff168092919061287e90615475565b91906101000a81548160ff021916908360ff1602179055505080806128a290615475565b91505061264a565b50505050565b6128c26128bb612f82565b838361364d565b5050565b60005b60798160ff16101561297457601560003373ffffffffffffffffffffffffffffffffffffffff1673ffffffffffffffffffffffffffffffffffffffff16815260200190815260200160002060008260ff1660ff168152602001908152602001600020600081819054906101000a900460ff168092919061294890615475565b91906101000a81548160ff021916908360ff16021790555050808061296c90615475565b9150506128c9565b50565b612988612982612f82565b836130db565b6129c7576040517f08c379a00000000000000000000000000000000000000000000000000000000081526004016129be906158c0565b60405180910390fd5b6129d3848484846137b9565b50505050565b6000601560003373ffffffffffffffffffffffffffffffffffffffff1673ffffffffffffffffffffffffffffffffffffffff16815260200190815260200160002060008360ff1660ff16815260200190815260200160002060009054906101000a900460ff1660ff1611612a82576040517f08c379a0000000000000000000000000000000000000000000000000000000008152600401612a7990615cac565b60405180910390fd5b601560003373ffffffffffffffffffffffffffffffffffffffff1673ffffffffffffffffffffffffffffffffffffffff16815260200190815260200160002060008260ff1660ff168152602001908152602001600020600081819054906101000a900460ff1680929190612af59061568e565b91906101000a81548160ff021916908360ff160217905550506000600e6040518060400160405280600181526020017f2f00000000000000000000000000000000000000000000000000000000000000815250612b548460ff16613815565b6040518060400160405280600581526020017f2e6a736f6e000000000000000000000000000000000000000000000000000000815250604051602001612b9d9493929190616564565b6040516020818303038152906040529050612bbe33828460ff166001613043565b5050565b60118054612bcf906154cd565b80601f0160208091040260200160405190810160405280929190818152602001828054612bfb906154cd565b8015612c485780601f10612c1d57610100808354040283529160200191612c48565b820191906000526020600020905b815481529060010190602001808311612c2b57829003601f168201915b505050505081565b6060612c5b82613975565b9050919050565b60128054612c6f906154cd565b80601f0160208091040260200160405190810160405280929190818152602001828054612c9b906154cd565b8015612ce85780601f10612cbd57610100808354040283529160200191612ce8565b820191906000526020600020905b815481529060010190602001808311612ccb57829003601f168201915b505050505081565b600860009054906101000a900473ffffffffffffffffffffffffffffffffffffffff1673ffffffffffffffffffffffffffffffffffffffff163373ffffffffffffffffffffffffffffffffffffffff1614612d80576040517f08c379a0000000000000000000000000000000000000000000000000000000008152600401612d7790615eee565b60405180910390fd5b80600c8190555050565b600d5481565b600a60009054906101000a900473ffffffffffffffffffffffffffffffffffffffff1681565b6000600560008473ffffffffffffffffffffffffffffffffffffffff1673ffffffffffffffffffffffffffffffffffffffff16815260200190815260200160002060008373ffffffffffffffffffffffffffffffffffffffff1673ffffffffffffffffffffffffffffffffffffffff16815260200190815260200160002060009054906101000a900460ff16905092915050565b612e526134cc565b600073ffffffffffffffffffffffffffffffffffffffff168173ffffffffffffffffffffffffffffffffffffffff1603612ec1576040517f08c379a0000000000000000000000000000000000000000000000000000000008152600401612eb890616614565b60405180910390fd5b612eca81613587565b50565b60007f01ffc9a7000000000000000000000000000000000000000000000000000000007bffffffffffffffffffffffffffffffffffffffffffffffffffffffff1916827bffffffffffffffffffffffffffffffffffffffffffffffffffffffff1916149050919050565b612f4081613a87565b612f7f576040517f08c379a0000000000000000000000000000000000000000000000000000000008152600401612f7690615df0565b60405180910390fd5b50565b600033905090565b816004600083815260200190815260200160002060006101000a81548173ffffffffffffffffffffffffffffffffffffffff021916908373ffffffffffffffffffffffffffffffffffffffff160217905550808273ffffffffffffffffffffffffffffffffffffffff16612ffd83611c8f565b73ffffffffffffffffffffffffffffffffffffffff167f8c5be1e5ebec7d5bd14f71427d1e84f3dd0314c0f7b2291e5b200ac8c7c3b92560405160405180910390a45050565b600061304f6009613ac8565b905061305b6009613ad6565b806014600083815260200190815260200160002060000181905550826014600083815260200190815260200160002060010181905550816014600083815260200190815260200160002060020160016101000a81548160ff021916908360ff1602179055506130ca8582613aec565b6130d48185613b0a565b5050505050565b6000806130e783611c8f565b90508073ffffffffffffffffffffffffffffffffffffffff168473ffffffffffffffffffffffffffffffffffffffff16148061312957506131288185612db6565b5b8061316757508373ffffffffffffffffffffffffffffffffffffffff1661314f84610ce4565b73ffffffffffffffffffffffffffffffffffffffff16145b91505092915050565b8273ffffffffffffffffffffffffffffffffffffffff1661319082611c8f565b73ffffffffffffffffffffffffffffffffffffffff16146131e6576040517f08c379a00000000000000000000000000000000000000000000000000000000081526004016131dd906166a6565b60405180910390fd5b600073ffffffffffffffffffffffffffffffffffffffff168273ffffffffffffffffffffffffffffffffffffffff1603613255576040517f08c379a000000000000000000000000000000000000000000000000000000000815260040161324c90616738565b60405180910390fd5b6132628383836001613b77565b8273ffffffffffffffffffffffffffffffffffffffff1661328282611c8f565b73ffffffffffffffffffffffffffffffffffffffff16146132d8576040517f08c379a00000000000000000000000000000000000000000000000000000000081526004016132cf906166a6565b60405180910390fd5b6004600082815260200190815260200160002060006101000a81549073ffffffffffffffffffffffffffffffffffffffff02191690556001600360008573ffffffffffffffffffffffffffffffffffffffff1673ffffffffffffffffffffffffffffffffffffffff168152602001908152602001600020600082825403925050819055506001600360008473ffffffffffffffffffffffffffffffffffffffff1673ffffffffffffffffffffffffffffffffffffffff16815260200190815260200160002060008282540192505081905550816002600083815260200190815260200160002060006101000a81548173ffffffffffffffffffffffffffffffffffffffff021916908373ffffffffffffffffffffffffffffffffffffffff160217905550808273ffffffffffffffffffffffffffffffffffffffff168473ffffffffffffffffffffffffffffffffffffffff167fddf252ad1be2c89b69c2b068fc378daa952ba7f163c4a11628f55a4df523b3ef60405160405180910390a46134648383836001613c9d565b505050565b60008160405160200161347c91906167da565b604051602081830303815290604052805190602001209050919050565b60008060006134a88585613ca3565b915091506134b581613cf4565b819250505092915050565b6134c981613e5a565b50565b6134d4612f82565b73ffffffffffffffffffffffffffffffffffffffff166134f2611f56565b73ffffffffffffffffffffffffffffffffffffffff1614613548576040517f08c379a000000000000000000000000000000000000000000000000000000000815260040161353f9061684c565b60405180910390fd5b565b60006002600083815260200190815260200160002060009054906101000a900473ffffffffffffffffffffffffffffffffffffffff169050919050565b6000600760009054906101000a900473ffffffffffffffffffffffffffffffffffffffff16905081600760006101000a81548173ffffffffffffffffffffffffffffffffffffffff021916908373ffffffffffffffffffffffffffffffffffffffff1602179055508173ffffffffffffffffffffffffffffffffffffffff168173ffffffffffffffffffffffffffffffffffffffff167f8be0079c531659141344cd1fd0a4f28419497f9722a3daafe3b4186f6b6457e060405160405180910390a35050565b8173ffffffffffffffffffffffffffffffffffffffff168373ffffffffffffffffffffffffffffffffffffffff16036136bb576040517f08c379a00000000000000000000000000000000000000000000000000000000081526004016136b2906168b8565b60405180910390fd5b80600560008573ffffffffffffffffffffffffffffffffffffffff1673ffffffffffffffffffffffffffffffffffffffff16815260200190815260200160002060008473ffffffffffffffffffffffffffffffffffffffff1673ffffffffffffffffffffffffffffffffffffffff16815260200190815260200160002060006101000a81548160ff0219169083151502179055508173ffffffffffffffffffffffffffffffffffffffff168373ffffffffffffffffffffffffffffffffffffffff167f17307eab39ab6107e8899845ad3d59bd9653f200f220920489ca2b5937696c31836040516137ac91906148b0565b60405180910390a3505050565b6137c4848484613170565b6137d084848484613ead565b61380f576040517f08c379a00000000000000000000000000000000000000000000000000000000081526004016138069061694a565b60405180910390fd5b50505050565b60606000820361385c576040518060400160405280600181526020017f30000000000000000000000000000000000000000000000000000000000000008152509050613970565b600082905060005b6000821461388e57808061387790615bda565b915050600a8261388791906159fa565b9150613864565b60008167ffffffffffffffff8111156138aa576138a9614cdc565b5b6040519080825280601f01601f1916602001820160405280156138dc5781602001600182028036833780820191505090505b5090505b60008514613969576001826138f5919061574b565b9150600a85613904919061571a565b603061391091906156b7565b60f81b81838151811061392657613925615417565b5b60200101907effffffffffffffffffffffffffffffffffffffffffffffffffffffffffffff1916908160001a905350600a8561396291906159fa565b94506138e0565b8093505050505b919050565b606061398082612f37565b60006006600084815260200190815260200160002080546139a0906154cd565b80601f01602080910402602001604051908101604052809291908181526020018280546139cc906154cd565b8015613a195780601f106139ee57610100808354040283529160200191613a19565b820191906000526020600020905b8154815290600101906020018083116139fc57829003601f168201915b505050505090506000613a2a614034565b90506000815103613a3f578192505050613a82565b600082511115613a74578082604051602001613a5c92919061699b565b60405160208183030381529060405292505050613a82565b613a7d8461404b565b925050505b919050565b60008073ffffffffffffffffffffffffffffffffffffffff16613aa98361354a565b73ffffffffffffffffffffffffffffffffffffffff1614159050919050565b600081600001549050919050565b6001816000016000828254019250508190555050565b613b068282604051806020016040528060008152506140b3565b5050565b613b1382613a87565b613b52576040517f08c379a0000000000000000000000000000000000000000000000000000000008152600401613b4990616a31565b60405180910390fd5b80600660008481526020019081526020016000209081613b729190616258565b505050565b6001811115613c9757600073ffffffffffffffffffffffffffffffffffffffff168473ffffffffffffffffffffffffffffffffffffffff1614613c0b5780600360008673ffffffffffffffffffffffffffffffffffffffff1673ffffffffffffffffffffffffffffffffffffffff1681526020019081526020016000206000828254613c03919061574b565b925050819055505b600073ffffffffffffffffffffffffffffffffffffffff168373ffffffffffffffffffffffffffffffffffffffff1614613c965780600360008573ffffffffffffffffffffffffffffffffffffffff1673ffffffffffffffffffffffffffffffffffffffff1681526020019081526020016000206000828254613c8e91906156b7565b925050819055505b5b50505050565b50505050565b6000806041835103613ce45760008060006020860151925060408601519150606086015160001a9050613cd88782858561410e565b94509450505050613ced565b60006002915091505b9250929050565b60006004811115613d0857613d07616a51565b5b816004811115613d1b57613d1a616a51565b5b0315613e575760016004811115613d3557613d34616a51565b5b816004811115613d4857613d47616a51565b5b03613d88576040517f08c379a0000000000000000000000000000000000000000000000000000000008152600401613d7f90616acc565b60405180910390fd5b60026004811115613d9c57613d9b616a51565b5b816004811115613daf57613dae616a51565b5b03613def576040517f08c379a0000000000000000000000000000000000000000000000000000000008152600401613de690616b38565b60405180910390fd5b60036004811115613e0357613e02616a51565b5b816004811115613e1657613e15616a51565b5b03613e56576040517f08c379a0000000000000000000000000000000000000000000000000000000008152600401613e4d90616bca565b60405180910390fd5b5b50565b613e63816141f0565b6000600660008381526020019081526020016000208054613e83906154cd565b905014613eaa57600660008281526020019081526020016000206000613ea9919061479f565b5b50565b6000613ece8473ffffffffffffffffffffffffffffffffffffffff1661433e565b15614027578373ffffffffffffffffffffffffffffffffffffffff1663150b7a02613ef7612f82565b8786866040518563ffffffff1660e01b8152600401613f199493929190616c34565b6020604051808303816000875af1925050508015613f5557506040513d601f19601f82011682018060405250810190613f529190616c95565b60015b613fd7573d8060008114613f85576040519150601f19603f3d011682016040523d82523d6000602084013e613f8a565b606091505b506000815103613fcf576040517f08c379a0000000000000000000000000000000000000000000000000000000008152600401613fc69061694a565b60405180910390fd5b805181602001fd5b63150b7a0260e01b7bffffffffffffffffffffffffffffffffffffffffffffffffffffffff1916817bffffffffffffffffffffffffffffffffffffffffffffffffffffffff19161491505061402c565b600190505b949350505050565b606060405180602001604052806000815250905090565b606061405682612f37565b6000614060614034565b9050600081511161408057604051806020016040528060008152506140ab565b8061408a84614361565b60405160200161409b92919061699b565b6040516020818303038152906040525b915050919050565b6140bd838361442f565b6140ca6000848484613ead565b614109576040517f08c379a00000000000000000000000000000000000000000000000000000000081526004016141009061694a565b60405180910390fd5b505050565b6000807f7fffffffffffffffffffffffffffffff5d576e7357a4501ddfe92f46681b20a08360001c11156141495760006003915091506141e7565b60006001878787876040516000815260200160405260405161416e9493929190616cd1565b6020604051602081039080840390855afa158015614190573d6000803e3d6000fd5b505050602060405103519050600073ffffffffffffffffffffffffffffffffffffffff168173ffffffffffffffffffffffffffffffffffffffff16036141de576000600192509250506141e7565b80600092509250505b94509492505050565b60006141fb82611c8f565b905061420b816000846001613b77565b61421482611c8f565b90506004600083815260200190815260200160002060006101000a81549073ffffffffffffffffffffffffffffffffffffffff02191690556001600360008373ffffffffffffffffffffffffffffffffffffffff1673ffffffffffffffffffffffffffffffffffffffff168152602001908152602001600020600082825403925050819055506002600083815260200190815260200160002060006101000a81549073ffffffffffffffffffffffffffffffffffffffff021916905581600073ffffffffffffffffffffffffffffffffffffffff168273ffffffffffffffffffffffffffffffffffffffff167fddf252ad1be2c89b69c2b068fc378daa952ba7f163c4a11628f55a4df523b3ef60405160405180910390a461433a816000846001613c9d565b5050565b6000808273ffffffffffffffffffffffffffffffffffffffff163b119050919050565b6060600060016143708461464c565b01905060008167ffffffffffffffff81111561438f5761438e614cdc565b5b6040519080825280601f01601f1916602001820160405280156143c15781602001600182028036833780820191505090505b509050600082602001820190505b600115614424578080600190039150507f3031323334353637383961626364656600000000000000000000000000000000600a86061a8153600a8581614418576144176156eb565b5b049450600085036143cf575b819350505050919050565b600073ffffffffffffffffffffffffffffffffffffffff168273ffffffffffffffffffffffffffffffffffffffff160361449e576040517f08c379a000000000000000000000000000000000000000000000000000000000815260040161449590616d62565b60405180910390fd5b6144a781613a87565b156144e7576040517f08c379a00000000000000000000000000000000000000000000000000000000081526004016144de90616dce565b60405180910390fd5b6144f5600083836001613b77565b6144fe81613a87565b1561453e576040517f08c379a000000000000000000000000000000000000000000000000000000000815260040161453590616dce565b60405180910390fd5b6001600360008473ffffffffffffffffffffffffffffffffffffffff1673ffffffffffffffffffffffffffffffffffffffff16815260200190815260200160002060008282540192505081905550816002600083815260200190815260200160002060006101000a81548173ffffffffffffffffffffffffffffffffffffffff021916908373ffffffffffffffffffffffffffffffffffffffff160217905550808273ffffffffffffffffffffffffffffffffffffffff16600073ffffffffffffffffffffffffffffffffffffffff167fddf252ad1be2c89b69c2b068fc378daa952ba7f163c4a11628f55a4df523b3ef60405160405180910390a4614648600083836001613c9d565b5050565b600080600090507a184f03e93ff9f4daa797ed6e38ed64bf6a1f01000000000000000083106146aa577a184f03e93ff9f4daa797ed6e38ed64bf6a1f01000000000000000083816146a05761469f6156eb565b5b0492506040810190505b6d04ee2d6d415b85acef810000000083106146e7576d04ee2d6d415b85acef810000000083816146dd576146dc6156eb565b5b0492506020810190505b662386f26fc10000831061471657662386f26fc10000838161470c5761470b6156eb565b5b0492506010810190505b6305f5e100831061473f576305f5e1008381614735576147346156eb565b5b0492506008810190505b612710831061476457612710838161475a576147596156eb565b5b0492506004810190505b60648310614787576064838161477d5761477c6156eb565b5b0492506002810190505b600a8310614796576001810190505b80915050919050565b5080546147ab906154cd565b6000825580601f106147bd57506147dc565b601f0160209004906000526020600020908101906147db91906147df565b5b50565b5b808211156147f85760008160009055506001016147e0565b5090565b6000604051905090565b600080fd5b600080fd5b60007fffffffff0000000000000000000000000000000000000000000000000000000082169050919050565b61484581614810565b811461485057600080fd5b50565b6000813590506148628161483c565b92915050565b60006020828403121561487e5761487d614806565b5b600061488c84828501614853565b91505092915050565b60008115159050919050565b6148aa81614895565b82525050565b60006020820190506148c560008301846148a1565b92915050565b600073ffffffffffffffffffffffffffffffffffffffff82169050919050565b60006148f6826148cb565b9050919050565b614906816148eb565b811461491157600080fd5b50565b600081359050614923816148fd565b92915050565b60006020828403121561493f5761493e614806565b5b600061494d84828501614914565b91505092915050565b600081519050919050565b600082825260208201905092915050565b6000819050602082019050919050565b600060ff82169050919050565b61499881614982565b82525050565b60006149aa838361498f565b60208301905092915050565b6000602082019050919050565b60006149ce82614956565b6149d88185614961565b93506149e383614972565b8060005b83811015614a145781516149fb888261499e565b9750614a06836149b6565b9250506001810190506149e7565b5085935050505092915050565b60006040820190508181036000830152614a3b81856149c3565b90508181036020830152614a4f81846149c3565b90509392505050565b600081519050919050565b600082825260208201905092915050565b60005b83811015614a92578082015181840152602081019050614a77565b60008484015250505050565b6000601f19601f8301169050919050565b6000614aba82614a58565b614ac48185614a63565b9350614ad4818560208601614a74565b614add81614a9e565b840191505092915050565b60006020820190508181036000830152614b028184614aaf565b905092915050565b6000819050919050565b614b1d81614b0a565b8114614b2857600080fd5b50565b600081359050614b3a81614b14565b92915050565b600060208284031215614b5657614b55614806565b5b6000614b6484828501614b2b565b91505092915050565b614b76816148eb565b82525050565b6000602082019050614b916000830184614b6d565b92915050565b60008060408385031215614bae57614bad614806565b5b6000614bbc85828601614914565b9250506020614bcd85828601614b2b565b9150509250929050565b600080fd5b600080fd5b600080fd5b60008083601f840112614bfc57614bfb614bd7565b5b8235905067ffffffffffffffff811115614c1957614c18614bdc565b5b602083019150836020820283011115614c3557614c34614be1565b5b9250929050565b60008060208385031215614c5357614c52614806565b5b600083013567ffffffffffffffff811115614c7157614c7061480b565b5b614c7d85828601614be6565b92509250509250929050565b600080600060608486031215614ca257614ca1614806565b5b6000614cb086828701614914565b9350506020614cc186828701614914565b9250506040614cd286828701614b2b565b9150509250925092565b7f4e487b7100000000000000000000000000000000000000000000000000000000600052604160045260246000fd5b614d1482614a9e565b810181811067ffffffffffffffff82111715614d3357614d32614cdc565b5b80604052505050565b6000614d466147fc565b9050614d528282614d0b565b919050565b600067ffffffffffffffff821115614d7257614d71614cdc565b5b602082029050602081019050919050565b614d8c81614982565b8114614d9757600080fd5b50565b600081359050614da981614d83565b92915050565b6000614dc2614dbd84614d57565b614d3c565b90508083825260208201905060208402830185811115614de557614de4614be1565b5b835b81811015614e0e5780614dfa8882614d9a565b845260208401935050602081019050614de7565b5050509392505050565b600082601f830112614e2d57614e2c614bd7565b5b8135614e3d848260208601614daf565b91505092915050565b60008083601f840112614e5c57614e5b614bd7565b5b8235905067ffffffffffffffff811115614e7957614e78614bdc565b5b602083019150836001820283011115614e9557614e94614be1565b5b9250929050565b60008060008060608587031215614eb657614eb5614806565b5b6000614ec487828801614b2b565b945050602085013567ffffffffffffffff811115614ee557614ee461480b565b5b614ef187828801614e18565b935050604085013567ffffffffffffffff811115614f1257614f1161480b565b5b614f1e87828801614e46565b925092505092959194509250565b60008060408385031215614f4357614f42614806565b5b6000614f5185828601614914565b9250506020614f6285828601614d9a565b9150509250929050565b614f7581614b0a565b82525050565b6000602082019050614f906000830184614f6c565b92915050565b614f9f81614982565b82525050565b6000602082019050614fba6000830184614f96565b92915050565b600060a082019050614fd56000830188614f6c565b614fe26020830187614f6c565b614fef60408301866148a1565b614ffc6060830185614f96565b6150096080830184614f6c565b9695505050505050565b6000819050919050565b600061503861503361502e846148cb565b615013565b6148cb565b9050919050565b600061504a8261501d565b9050919050565b600061505c8261503f565b9050919050565b61506c81615051565b82525050565b60006020820190506150876000830184615063565b92915050565b600080fd5b600067ffffffffffffffff8211156150ad576150ac614cdc565b5b6150b682614a9e565b9050602081019050919050565b82818337600083830152505050565b60006150e56150e084615092565b614d3c565b9050828152602081018484840111156151015761510061508d565b5b61510c8482856150c3565b509392505050565b600082601f83011261512957615128614bd7565b5b81356151398482602086016150d2565b91505092915050565b6000806040838503121561515957615158614806565b5b600083013567ffffffffffffffff8111156151775761517661480b565b5b61518385828601615114565b925050602083013567ffffffffffffffff8111156151a4576151a361480b565b5b6151b085828601615114565b9150509250929050565b6000806000604084860312156151d3576151d2614806565b5b60006151e186828701614914565b935050602084013567ffffffffffffffff8111156152025761520161480b565b5b61520e86828701614be6565b92509250509250925092565b61522381614895565b811461522e57600080fd5b50565b6000813590506152408161521a565b92915050565b6000806040838503121561525d5761525c614806565b5b600061526b85828601614914565b925050602061527c85828601615231565b9150509250929050565b600067ffffffffffffffff8211156152a1576152a0614cdc565b5b6152aa82614a9e565b9050602081019050919050565b60006152ca6152c584615286565b614d3c565b9050828152602081018484840111156152e6576152e561508d565b5b6152f18482856150c3565b509392505050565b600082601f83011261530e5761530d614bd7565b5b813561531e8482602086016152b7565b91505092915050565b6000806000806080858703121561534157615340614806565b5b600061534f87828801614914565b945050602061536087828801614914565b935050604061537187828801614b2b565b925050606085013567ffffffffffffffff8111156153925761539161480b565b5b61539e878288016152f9565b91505092959194509250565b6000602082840312156153c0576153bf614806565b5b60006153ce84828501614d9a565b91505092915050565b600080604083850312156153ee576153ed614806565b5b60006153fc85828601614914565b925050602061540d85828601614914565b9150509250929050565b7f4e487b7100000000000000000000000000000000000000000000000000000000600052603260045260246000fd5b7f4e487b7100000000000000000000000000000000000000000000000000000000600052601160045260246000fd5b600061548082614982565b915060ff820361549357615492615446565b5b600182019050919050565b7f4e487b7100000000000000000000000000000000000000000000000000000000600052602260045260246000fd5b600060028204905060018216806154e557607f821691505b6020821081036154f8576154f761549e565b5b50919050565b7f4552433732313a20617070726f76616c20746f2063757272656e74206f776e6560008201527f7200000000000000000000000000000000000000000000000000000000000000602082015250565b600061555a602183614a63565b9150615565826154fe565b604082019050919050565b600060208201905081810360008301526155898161554d565b9050919050565b7f4552433732313a20617070726f76652063616c6c6572206973206e6f7420746f60008201527f6b656e206f776e6572206f7220617070726f76656420666f7220616c6c000000602082015250565b60006155ec603d83614a63565b91506155f782615590565b604082019050919050565b6000602082019050818103600083015261561b816155df565b9050919050565b7f4e6f207469656e657320616c62756d206465207175656d610000000000000000600082015250565b6000615658601883614a63565b915061566382615622565b602082019050919050565b600060208201905081810360008301526156878161564b565b9050919050565b600061569982614982565b9150600082036156ac576156ab615446565b5b600182039050919050565b60006156c282614b0a565b91506156cd83614b0a565b92508282019050808211156156e5576156e4615446565b5b92915050565b7f4e487b7100000000000000000000000000000000000000000000000000000000600052601260045260246000fd5b600061572582614b0a565b915061573083614b0a565b9250826157405761573f6156eb565b5b828206905092915050565b600061575682614b0a565b915061576183614b0a565b925082820390508181111561577957615778615446565b5b92915050565b60006040820190506157946000830185614b6d565b6157a16020830184614f6c565b9392505050565b6000815190506157b78161521a565b92915050565b6000602082840312156157d3576157d2614806565b5b60006157e1848285016157a8565b91505092915050565b6000819050919050565b600061580f61580a615805846157ea565b615013565b614982565b9050919050565b61581f816157f4565b82525050565b600060408201905061583a6000830185614b6d565b6158476020830184615816565b9392505050565b7f4552433732313a2063616c6c6572206973206e6f7420746f6b656e206f776e6560008201527f72206f7220617070726f76656400000000000000000000000000000000000000602082015250565b60006158aa602d83614a63565b91506158b58261584e565b604082019050919050565b600060208201905081810360008301526158d98161589d565b9050919050565b6000815190506158ef816148fd565b92915050565b60006020828403121561590b5761590a614806565b5b6000615919848285016158e0565b91505092915050565b7f4573746520736f627265206e6f206573207475796f0000000000000000000000600082015250565b6000615958601583614a63565b915061596382615922565b602082019050919050565b600060208201905081810360008301526159878161594b565b9050919050565b7f4c696d6974652064652063617274617320657863656469646f00000000000000600082015250565b60006159c4601983614a63565b91506159cf8261598e565b602082019050919050565b600060208201905081810360008301526159f3816159b7565b9050919050565b6000615a0582614b0a565b9150615a1083614b0a565b925082615a2057615a1f6156eb565b5b828204905092915050565b60008160601b9050919050565b6000615a4382615a2b565b9050919050565b6000615a5582615a38565b9050919050565b615a6d615a68826148eb565b615a4a565b82525050565b6000819050919050565b615a8e615a8982614b0a565b615a73565b82525050565b600081905092915050565b615aa881614982565b82525050565b6000615aba8383615a9f565b60208301905092915050565b6000615ad182614956565b615adb8185615a94565b9350615ae683614972565b8060005b83811015615b17578151615afe8882615aae565b9750615b09836149b6565b925050600181019050615aea565b5085935050505092915050565b6000615b308287615a5c565b601482019150615b408286615a7d565b602082019150615b508285615ac6565b9150615b5c8284615a5c565b60148201915081905095945050505050565b7f496e76616c6964207369676e6174757265000000000000000000000000000000600082015250565b6000615ba4601183614a63565b9150615baf82615b6e565b602082019050919050565b60006020820190508181036000830152615bd381615b97565b9050919050565b6000615be582614b0a565b91507fffffffffffffffffffffffffffffffffffffffffffffffffffffffffffffffff8203615c1757615c16615446565b5b600182019050919050565b6000606082019050615c376000830186614b6d565b8181036020830152615c4981856149c3565b9050615c586040830184614f6c565b949350505050565b7f4e6f207469656e65732065737461206361727461000000000000000000000000600082015250565b6000615c96601483614a63565b9150615ca182615c60565b602082019050919050565b60006020820190508181036000830152615cc581615c89565b9050919050565b7f5472616e73662070726f706961206e6f207065726d6974696461000000000000600082015250565b6000615d02601a83614a63565b9150615d0d82615ccc565b602082019050919050565b60006020820190508181036000830152615d3181615cf5565b9050919050565b7f5175656d61646f20646520636172746173206e6f207065726d697469646f0000600082015250565b6000615d6e601e83614a63565b9150615d7982615d38565b602082019050919050565b60006020820190508181036000830152615d9d81615d61565b9050919050565b7f4552433732313a20696e76616c696420746f6b656e2049440000000000000000600082015250565b6000615dda601883614a63565b9150615de582615da4565b602082019050919050565b60006020820190508181036000830152615e0981615dcd565b9050919050565b7f4552433732313a2061646472657373207a65726f206973206e6f74206120766160008201527f6c6964206f776e65720000000000000000000000000000000000000000000000602082015250565b6000615e6c602983614a63565b9150615e7782615e10565b604082019050919050565b60006020820190508181036000830152615e9b81615e5f565b9050919050565b7f536f6c6f20636f6e747261746f206465207061636b7300000000000000000000600082015250565b6000615ed8601683614a63565b9150615ee382615ea2565b602082019050919050565b60006020820190508181036000830152615f0781615ecb565b9050919050565b7f4e6f207469656e6573206e696e67756e20616c62756d00000000000000000000600082015250565b6000615f44601683614a63565b9150615f4f82615f0e565b602082019050919050565b60006020820190508181036000830152615f7381615f37565b9050919050565b7f466f6e646f7320696e737566696369656e746573000000000000000000000000600082015250565b6000615fb0601483614a63565b9150615fbb82615f7a565b602082019050919050565b60006020820190508181036000830152615fdf81615fa3565b9050919050565b7f4d75737420636f6d706c6574652074686520616c62756d000000000000000000600082015250565b600061601c601783614a63565b915061602782615fe6565b602082019050919050565b6000602082019050818103600083015261604b8161600f565b9050919050565b6000819050919050565b600061607761607261606d84616052565b615013565b614982565b9050919050565b6160878161605c565b82525050565b60006040820190506160a26000830185614b6d565b6160af602083018461607e565b9392505050565b60008190508160005260206000209050919050565b60006020601f8301049050919050565b600082821b905092915050565b6000600883026161187fffffffffffffffffffffffffffffffffffffffffffffffffffffffffffffffff826160db565b61612286836160db565b95508019841693508086168417925050509392505050565b600061615561615061614b84614b0a565b615013565b614b0a565b9050919050565b6000819050919050565b61616f8361613a565b61618361617b8261615c565b8484546160e8565b825550505050565b600090565b61619861618b565b6161a3818484616166565b505050565b5b818110156161c7576161bc600082616190565b6001810190506161a9565b5050565b601f82111561620c576161dd816160b6565b6161e6846160cb565b810160208510156161f5578190505b616209616201856160cb565b8301826161a8565b50505b505050565b600082821c905092915050565b600061622f60001984600802616211565b1980831691505092915050565b6000616248838361621e565b9150826002028217905092915050565b61626182614a58565b67ffffffffffffffff81111561627a57616279614cdc565b5b61628482546154cd565b61628f8282856161cb565b600060209050601f8311600181146162c257600084156162b0578287015190505b6162ba858261623c565b865550616322565b601f1984166162d0866160b6565b60005b828110156162f8578489015182556001820191506020850194506020810190506162d3565b868310156163155784890151616311601f89168261621e565b8355505b6001600288020188555050505b505050505050565b600060408201905081810360008301526163448185614aaf565b905081810360208301526163588184614aaf565b90509392505050565b7f4e6f2074652070756564657320656e766961722063617274617320612074692060008201527f6d69736d6f000000000000000000000000000000000000000000000000000000602082015250565b60006163bd602583614a63565b91506163c882616361565b604082019050919050565b600060208201905081810360008301526163ec816163b0565b9050919050565b7f4e6f20707565646573207175656d61722063617274617320646520657374612060008201527f6d616e6572610000000000000000000000000000000000000000000000000000602082015250565b600061644f602683614a63565b915061645a826163f3565b604082019050919050565b6000602082019050818103600083015261647e81616442565b9050919050565b600081905092915050565b60008190508160005260206000209050919050565b600081546164b2816154cd565b6164bc8186616485565b945060018216600081146164d757600181146164ec5761651f565b60ff198316865281151582028601935061651f565b6164f585616490565b60005b83811015616517578154818901526001820191506020810190506164f8565b838801955050505b50505092915050565b600081519050919050565b600061653e82616528565b6165488185616485565b9350616558818560208601614a74565b80840191505092915050565b600061657082876164a5565b915061657c8286616533565b91506165888285616533565b91506165948284616533565b915081905095945050505050565b7f4f776e61626c653a206e6577206f776e657220697320746865207a65726f206160008201527f6464726573730000000000000000000000000000000000000000000000000000602082015250565b60006165fe602683614a63565b9150616609826165a2565b604082019050919050565b6000602082019050818103600083015261662d816165f1565b9050919050565b7f4552433732313a207472616e736665722066726f6d20696e636f72726563742060008201527f6f776e6572000000000000000000000000000000000000000000000000000000602082015250565b6000616690602583614a63565b915061669b82616634565b604082019050919050565b600060208201905081810360008301526166bf81616683565b9050919050565b7f4552433732313a207472616e7366657220746f20746865207a65726f2061646460008201527f7265737300000000000000000000000000000000000000000000000000000000602082015250565b6000616722602483614a63565b915061672d826166c6565b604082019050919050565b6000602082019050818103600083015261675181616715565b9050919050565b600081905092915050565b7f19457468657265756d205369676e6564204d6573736167653a0a333200000000600082015250565b6000616799601c83616758565b91506167a482616763565b601c82019050919050565b6000819050919050565b6000819050919050565b6167d46167cf826167af565b6167b9565b82525050565b60006167e58261678c565b91506167f182846167c3565b60208201915081905092915050565b7f4f776e61626c653a2063616c6c6572206973206e6f7420746865206f776e6572600082015250565b6000616836602083614a63565b915061684182616800565b602082019050919050565b6000602082019050818103600083015261686581616829565b9050919050565b7f4552433732313a20617070726f766520746f2063616c6c657200000000000000600082015250565b60006168a2601983614a63565b91506168ad8261686c565b602082019050919050565b600060208201905081810360008301526168d181616895565b9050919050565b7f4552433732313a207472616e7366657220746f206e6f6e20455243373231526560008201527f63656976657220696d706c656d656e7465720000000000000000000000000000602082015250565b6000616934603283614a63565b915061693f826168d8565b604082019050919050565b6000602082019050818103600083015261696381616927565b9050919050565b600061697582614a58565b61697f8185616758565b935061698f818560208601614a74565b80840191505092915050565b60006169a7828561696a565b91506169b3828461696a565b91508190509392505050565b7f45524337323155524953746f726167653a2055524920736574206f66206e6f6e60008201527f6578697374656e7420746f6b656e000000000000000000000000000000000000602082015250565b6000616a1b602e83614a63565b9150616a26826169bf565b604082019050919050565b60006020820190508181036000830152616a4a81616a0e565b9050919050565b7f4e487b7100000000000000000000000000000000000000000000000000000000600052602160045260246000fd5b7f45434453413a20696e76616c6964207369676e61747572650000000000000000600082015250565b6000616ab6601883614a63565b9150616ac182616a80565b602082019050919050565b60006020820190508181036000830152616ae581616aa9565b9050919050565b7f45434453413a20696e76616c6964207369676e6174757265206c656e67746800600082015250565b6000616b22601f83614a63565b9150616b2d82616aec565b602082019050919050565b60006020820190508181036000830152616b5181616b15565b9050919050565b7f45434453413a20696e76616c6964207369676e6174757265202773272076616c60008201527f7565000000000000000000000000000000000000000000000000000000000000602082015250565b6000616bb4602283614a63565b9150616bbf82616b58565b604082019050919050565b60006020820190508181036000830152616be381616ba7565b9050919050565b600082825260208201905092915050565b6000616c0682616528565b616c108185616bea565b9350616c20818560208601614a74565b616c2981614a9e565b840191505092915050565b6000608082019050616c496000830187614b6d565b616c566020830186614b6d565b616c636040830185614f6c565b8181036060830152616c758184616bfb565b905095945050505050565b600081519050616c8f8161483c565b92915050565b600060208284031215616cab57616caa614806565b5b6000616cb984828501616c80565b91505092915050565b616ccb816167af565b82525050565b6000608082019050616ce66000830187616cc2565b616cf36020830186614f96565b616d006040830185616cc2565b616d0d6060830184616cc2565b95945050505050565b7f4552433732313a206d696e7420746f20746865207a65726f2061646472657373600082015250565b6000616d4c602083614a63565b9150616d5782616d16565b602082019050919050565b60006020820190508181036000830152616d7b81616d3f565b9050919050565b7f4552433732313a20746f6b656e20616c7265616479206d696e74656400000000600082015250565b6000616db8601c83614a63565b9150616dc382616d82565b602082019050919050565b60006020820190508181036000830152616de781616dab565b905091905056fea2646970667358221220a435ca4423cdb64bb372f0e0c2084241551008dbccd057870aaaeeccf41e60a764736f6c63430008120033",
  "linkReferences": {},
  "deployedLinkReferences": {}
}