{
  "_format": "hh-sol-artifact-1",
  "contractName": "LibPackVerifier",
  "sourceName": "contracts/gamma/libs/LibPackVerifier.sol",
  "abi": [
    {
      "inputs": [
        {
          "internalType": "address",
          "name": "sender",
          "type": "address"
        },
        {
          "internalType": "uint256",
          "name": "packNumber",
          "type": "uint256"
        },
        {
          "internalType": "uint8[]",
          "name": "packData",
          "type": "uint8[]"
        },
        {
          "internalType": "bytes",
          "name": "signature",
          "type": "bytes"
        }
      ],
      "name": "verifyPackSigner",
      "outputs": [
        {
          "internalType": "address",
          "name": "",
          "type": "address"
        }
      ],
      "stateMutability": "pure",
      "type": "function"
    }
  ],
  "bytecode": "0x6105fc61003a600b82828239805160001a60731461002d57634e487b7160e01b600052600060045260246000fd5b30600052607381538281f3fe73000000000000000000000000000000000000000030146080604052600436106100355760003560e01c806338fb7d8b1461003a575b600080fd5b61004d61004836600461040c565b610069565b6040516001600160a01b03909116815260200160405180910390f35b6000806100cd87878760405160200161008493929190610522565b604051602081830303815290604052805190602001207f19457468657265756d205369676e6564204d6573736167653a0a3332000000006000908152601c91909152603c902090565b9050600061011385858080601f016020809104026020016040519081016040528093929190818152602001838380828437600092019190915250869392505061011f9050565b98975050505050505050565b600080600061012e8585610143565b9150915061013b81610188565b509392505050565b60008082516041036101795760208301516040840151606085015160001a61016d878285856102da565b94509450505050610181565b506000905060025b9250929050565b600081600481111561019c5761019c6105b0565b036101a45750565b60018160048111156101b8576101b86105b0565b0361020a5760405162461bcd60e51b815260206004820152601860248201527f45434453413a20696e76616c6964207369676e6174757265000000000000000060448201526064015b60405180910390fd5b600281600481111561021e5761021e6105b0565b0361026b5760405162461bcd60e51b815260206004820152601f60248201527f45434453413a20696e76616c6964207369676e6174757265206c656e677468006044820152606401610201565b600381600481111561027f5761027f6105b0565b036102d75760405162461bcd60e51b815260206004820152602260248201527f45434453413a20696e76616c6964207369676e6174757265202773272076616c604482015261756560f01b6064820152608401610201565b50565b6000807f7fffffffffffffffffffffffffffffff5d576e7357a4501ddfe92f46681b20a08311156103115750600090506003610395565b6040805160008082526020820180845289905260ff881692820192909252606081018690526080810185905260019060a0016020604051602081039080840390855afa158015610365573d6000803e3d6000fd5b5050604051601f1901519150506001600160a01b03811661038e57600060019250925050610395565b9150600090505b94509492505050565b634e487b7160e01b600052604160045260246000fd5b803560ff811681146103c557600080fd5b919050565b60008083601f8401126103dc57600080fd5b50813567ffffffffffffffff8111156103f457600080fd5b60208301915083602082850101111561018157600080fd5b60008060008060006080868803121561042457600080fd5b85356001600160a01b038116811461043b57600080fd5b94506020868101359450604087013567ffffffffffffffff8082111561046057600080fd5b818901915089601f83011261047457600080fd5b8135818111156104865761048661039e565b8060051b604051601f19603f830116810181811085821117156104ab576104ab61039e565b6040529182528381018501918581018d8411156104c757600080fd5b948601945b838610156104ea576104dd866103b4565b81529486019486016104cc565b5097505050606089013592508083111561050357600080fd5b5050610511888289016103ca565b969995985093965092949392505050565b6bffffffffffffffffffffffff198460601b1681528260148201526000603482018351602080860160005b8381101561056c57815160ff168552938201939082019060010161054d565b50507f30786631644437313839356534396231353633363933393639646535303839388352693139376344463334383160b01b9083015250602a0195945050505050565b634e487b7160e01b600052602160045260246000fdfea26469706673582212202403adb3d5a58586f6f0122c27cfb786994f9734933a6198d0f0a3bec9cbbdf664736f6c63430008140033",
  "linkReferences": {},
  "deployedLinkReferences": {}
}