{
  "_format": "hh-sol-artifact-1",
  "contractName": "NofAlphaV4",
  "sourceName": "contracts/alpha/Alpha.v4.sol",
  "abi": [
    {
      "inputs": [],
      "stateMutability": "nonpayable",
      "type": "constructor"
    },
    {
      "inputs": [],
      "name": "Alpha_AlbumNotCompleted",
      "type": "error"
    },
    {
      "inputs": [],
      "name": "Alpha_AlreadyHaveAPack",
      "type": "error"
    },
    {
      "inputs": [],
      "name": "Alpha_AmountMustBeMultipleOf6",
      "type": "error"
    },
    {
      "inputs": [],
      "name": "Alpha_AuthorizedStatusAlreadySet",
      "type": "error"
    },
    {
      "inputs": [],
      "name": "Alpha_CardIsNotAnAlbum",
      "type": "error"
    },
    {
      "inputs": [],
      "name": "Alpha_NotAuthorized",
      "type": "error"
    },
    {
      "inputs": [],
      "name": "Alpha_NotCorrectPriceForPack",
      "type": "error"
    },
    {
      "inputs": [],
      "name": "Alpha_NotEnoughPrizeBalance",
      "type": "error"
    },
    {
      "inputs": [],
      "name": "Alpha_NotPlayingThisSeason",
      "type": "error"
    },
    {
      "inputs": [],
      "name": "Alpha_NotYourAlbum",
      "type": "error"
    },
    {
      "inputs": [],
      "name": "Alpha_NotYourCard",
      "type": "error"
    },
    {
      "inputs": [],
      "name": "Alpha_PriceTooLow",
      "type": "error"
    },
    {
      "inputs": [],
      "name": "Alpha_SeasonAlreadyExists",
      "type": "error"
    },
    {
      "inputs": [],
      "name": "Alpha_StillAlbumsAvailable",
      "type": "error"
    },
    {
      "anonymous": false,
      "inputs": [
        {
          "indexed": true,
          "internalType": "address",
          "name": "owner",
          "type": "address"
        },
        {
          "indexed": true,
          "internalType": "address",
          "name": "approved",
          "type": "address"
        },
        {
          "indexed": true,
          "internalType": "uint256",
          "name": "tokenId",
          "type": "uint256"
        }
      ],
      "name": "Approval",
      "type": "event"
    },
    {
      "anonymous": false,
      "inputs": [
        {
          "indexed": true,
          "internalType": "address",
          "name": "owner",
          "type": "address"
        },
        {
          "indexed": true,
          "internalType": "address",
          "name": "operator",
          "type": "address"
        },
        {
          "indexed": false,
          "internalType": "bool",
          "name": "approved",
          "type": "bool"
        }
      ],
      "name": "ApprovalForAll",
      "type": "event"
    },
    {
      "anonymous": false,
      "inputs": [
        {
          "indexed": true,
          "internalType": "address",
          "name": "authorized",
          "type": "address"
        },
        {
          "indexed": false,
          "internalType": "bool",
          "name": "status",
          "type": "bool"
        }
      ],
      "name": "Authorized",
      "type": "event"
    },
    {
      "anonymous": false,
      "inputs": [
        {
          "indexed": false,
          "internalType": "uint256",
          "name": "_fromTokenId",
          "type": "uint256"
        },
        {
          "indexed": false,
          "internalType": "uint256",
          "name": "_toTokenId",
          "type": "uint256"
        }
      ],
      "name": "BatchMetadataUpdate",
      "type": "event"
    },
    {
      "anonymous": false,
      "inputs": [
        {
          "indexed": true,
          "internalType": "address",
          "name": "buyer",
          "type": "address"
        },
        {
          "indexed": true,
          "internalType": "string",
          "name": "seasonName",
          "type": "string"
        }
      ],
      "name": "BuyPack",
      "type": "event"
    },
    {
      "anonymous": false,
      "inputs": [
        {
          "indexed": false,
          "internalType": "uint256",
          "name": "_tokenId",
          "type": "uint256"
        }
      ],
      "name": "MetadataUpdate",
      "type": "event"
    },
    {
      "anonymous": false,
      "inputs": [
        {
          "indexed": true,
          "internalType": "address",
          "name": "previousOwner",
          "type": "address"
        },
        {
          "indexed": true,
          "internalType": "address",
          "name": "newOwner",
          "type": "address"
        }
      ],
      "name": "OwnershipTransferred",
      "type": "event"
    },
    {
      "anonymous": false,
      "inputs": [
        {
          "indexed": true,
          "internalType": "address",
          "name": "from",
          "type": "address"
        },
        {
          "indexed": true,
          "internalType": "address",
          "name": "to",
          "type": "address"
        },
        {
          "indexed": true,
          "internalType": "uint256",
          "name": "tokenId",
          "type": "uint256"
        }
      ],
      "name": "Transfer",
      "type": "event"
    },
    {
      "anonymous": false,
      "inputs": [
        {
          "indexed": true,
          "internalType": "address",
          "name": "winner",
          "type": "address"
        },
        {
          "indexed": true,
          "internalType": "string",
          "name": "season",
          "type": "string"
        },
        {
          "indexed": true,
          "internalType": "uint256",
          "name": "position",
          "type": "uint256"
        }
      ],
      "name": "Winner",
      "type": "event"
    },
    {
      "inputs": [],
      "name": "DAI_TOKEN",
      "outputs": [
        {
          "internalType": "address",
          "name": "",
          "type": "address"
        }
      ],
      "stateMutability": "view",
      "type": "function"
    },
    {
      "inputs": [
        {
          "internalType": "address",
          "name": "to",
          "type": "address"
        },
        {
          "internalType": "uint256",
          "name": "tokenId",
          "type": "uint256"
        }
      ],
      "name": "approve",
      "outputs": [],
      "stateMutability": "nonpayable",
      "type": "function"
    },
    {
      "inputs": [
        {
          "internalType": "address",
          "name": "",
          "type": "address"
        }
      ],
      "name": "authorized",
      "outputs": [
        {
          "internalType": "bool",
          "name": "",
          "type": "bool"
        }
      ],
      "stateMutability": "view",
      "type": "function"
    },
    {
      "inputs": [
        {
          "internalType": "address",
          "name": "owner",
          "type": "address"
        }
      ],
      "name": "balanceOf",
      "outputs": [
        {
          "internalType": "uint256",
          "name": "",
          "type": "uint256"
        }
      ],
      "stateMutability": "view",
      "type": "function"
    },
    {
      "inputs": [],
      "name": "balanceReceiver",
      "outputs": [
        {
          "internalType": "address",
          "name": "",
          "type": "address"
        }
      ],
      "stateMutability": "view",
      "type": "function"
    },
    {
      "inputs": [],
      "name": "baseUri",
      "outputs": [
        {
          "internalType": "string",
          "name": "",
          "type": "string"
        }
      ],
      "stateMutability": "view",
      "type": "function"
    },
    {
      "inputs": [
        {
          "internalType": "uint256",
          "name": "_amount",
          "type": "uint256"
        },
        {
          "internalType": "string",
          "name": "_name",
          "type": "string"
        }
      ],
      "name": "buyPack",
      "outputs": [],
      "stateMutability": "nonpayable",
      "type": "function"
    },
    {
      "inputs": [
        {
          "internalType": "uint256",
          "name": "",
          "type": "uint256"
        }
      ],
      "name": "cards",
      "outputs": [
        {
          "internalType": "uint256",
          "name": "tokenId",
          "type": "uint256"
        },
        {
          "internalType": "uint256",
          "name": "class",
          "type": "uint256"
        },
        {
          "internalType": "uint256",
          "name": "collection",
          "type": "uint256"
        },
        {
          "internalType": "string",
          "name": "season",
          "type": "string"
        },
        {
          "internalType": "uint256",
          "name": "completion",
          "type": "uint256"
        },
        {
          "internalType": "uint256",
          "name": "number",
          "type": "uint256"
        }
      ],
      "stateMutability": "view",
      "type": "function"
    },
    {
      "inputs": [
        {
          "internalType": "address",
          "name": "",
          "type": "address"
        },
        {
          "internalType": "string",
          "name": "",
          "type": "string"
        },
        {
          "internalType": "uint256",
          "name": "",
          "type": "uint256"
        }
      ],
      "name": "cardsByUserBySeason",
      "outputs": [
        {
          "internalType": "uint256",
          "name": "tokenId",
          "type": "uint256"
        },
        {
          "internalType": "uint256",
          "name": "class",
          "type": "uint256"
        },
        {
          "internalType": "uint256",
          "name": "collection",
          "type": "uint256"
        },
        {
          "internalType": "string",
          "name": "season",
          "type": "string"
        },
        {
          "internalType": "uint256",
          "name": "completion",
          "type": "uint256"
        },
        {
          "internalType": "uint256",
          "name": "number",
          "type": "uint256"
        }
      ],
      "stateMutability": "view",
      "type": "function"
    },
    {
      "inputs": [
        {
          "internalType": "uint256",
          "name": "tokenId",
          "type": "uint256"
        }
      ],
      "name": "getApproved",
      "outputs": [
        {
          "internalType": "address",
          "name": "",
          "type": "address"
        }
      ],
      "stateMutability": "view",
      "type": "function"
    },
    {
      "inputs": [
        {
          "internalType": "address",
          "name": "_authorizedAddress",
          "type": "address"
        }
      ],
      "name": "getAuthorized",
      "outputs": [
        {
          "internalType": "bool",
          "name": "",
          "type": "bool"
        }
      ],
      "stateMutability": "view",
      "type": "function"
    },
    {
      "inputs": [
        {
          "internalType": "address",
          "name": "_user",
          "type": "address"
        },
        {
          "internalType": "string",
          "name": "_seasonName",
          "type": "string"
        }
      ],
      "name": "getCardsByUserBySeason",
      "outputs": [
        {
          "components": [
            {
              "internalType": "uint256",
              "name": "tokenId",
              "type": "uint256"
            },
            {
              "internalType": "uint256",
              "name": "class",
              "type": "uint256"
            },
            {
              "internalType": "uint256",
              "name": "collection",
              "type": "uint256"
            },
            {
              "internalType": "string",
              "name": "season",
              "type": "string"
            },
            {
              "internalType": "uint256",
              "name": "completion",
              "type": "uint256"
            },
            {
              "internalType": "uint256",
              "name": "number",
              "type": "uint256"
            }
          ],
          "internalType": "struct NofAlphaV4.Card[]",
          "name": "",
          "type": "tuple[]"
        }
      ],
      "stateMutability": "view",
      "type": "function"
    },
    {
      "inputs": [
        {
          "internalType": "string",
          "name": "_name",
          "type": "string"
        }
      ],
      "name": "getSeasonAlbums",
      "outputs": [
        {
          "internalType": "uint256[]",
          "name": "",
          "type": "uint256[]"
        }
      ],
      "stateMutability": "view",
      "type": "function"
    },
    {
      "inputs": [
        {
          "internalType": "string",
          "name": "_name",
          "type": "string"
        }
      ],
      "name": "getSeasonCards",
      "outputs": [
        {
          "internalType": "uint256[]",
          "name": "",
          "type": "uint256[]"
        }
      ],
      "stateMutability": "view",
      "type": "function"
    },
    {
      "inputs": [],
      "name": "getSeasonData",
      "outputs": [
        {
          "internalType": "string[]",
          "name": "",
          "type": "string[]"
        },
        {
          "internalType": "uint256[]",
          "name": "",
          "type": "uint256[]"
        }
      ],
      "stateMutability": "view",
      "type": "function"
    },
    {
      "inputs": [
        {
          "internalType": "string",
          "name": "_name",
          "type": "string"
        }
      ],
      "name": "getSeasonPlayers",
      "outputs": [
        {
          "internalType": "address[]",
          "name": "",
          "type": "address[]"
        }
      ],
      "stateMutability": "view",
      "type": "function"
    },
    {
      "inputs": [
        {
          "internalType": "string",
          "name": "_seasonName",
          "type": "string"
        }
      ],
      "name": "getWinners",
      "outputs": [
        {
          "internalType": "address[]",
          "name": "",
          "type": "address[]"
        }
      ],
      "stateMutability": "view",
      "type": "function"
    },
    {
      "inputs": [
        {
          "internalType": "string",
          "name": "__baseUri",
          "type": "string"
        },
        {
          "internalType": "address",
          "name": "_daiTokenAddress",
          "type": "address"
        },
        {
          "internalType": "address",
          "name": "_balanceReceiver",
          "type": "address"
        }
      ],
      "name": "init",
      "outputs": [],
      "stateMutability": "nonpayable",
      "type": "function"
    },
    {
      "inputs": [
        {
          "internalType": "address",
          "name": "_owner",
          "type": "address"
        },
        {
          "internalType": "address",
          "name": "_operator",
          "type": "address"
        }
      ],
      "name": "isApprovedForAll",
      "outputs": [
        {
          "internalType": "bool",
          "name": "isOperator",
          "type": "bool"
        }
      ],
      "stateMutability": "view",
      "type": "function"
    },
    {
      "inputs": [],
      "name": "name",
      "outputs": [
        {
          "internalType": "string",
          "name": "",
          "type": "string"
        }
      ],
      "stateMutability": "view",
      "type": "function"
    },
    {
      "inputs": [
        {
          "internalType": "string",
          "name": "_name",
          "type": "string"
        },
        {
          "internalType": "uint256",
          "name": "_price",
          "type": "uint256"
        },
        {
          "internalType": "uint256",
          "name": "_amount",
          "type": "uint256"
        },
        {
          "internalType": "string",
          "name": "_folder",
          "type": "string"
        }
      ],
      "name": "newSeason",
      "outputs": [],
      "stateMutability": "nonpayable",
      "type": "function"
    },
    {
      "inputs": [],
      "name": "owner",
      "outputs": [
        {
          "internalType": "address",
          "name": "",
          "type": "address"
        }
      ],
      "stateMutability": "view",
      "type": "function"
    },
    {
      "inputs": [
        {
          "internalType": "uint256",
          "name": "tokenId",
          "type": "uint256"
        }
      ],
      "name": "ownerOf",
      "outputs": [
        {
          "internalType": "address",
          "name": "",
          "type": "address"
        }
      ],
      "stateMutability": "view",
      "type": "function"
    },
    {
      "inputs": [
        {
          "internalType": "uint256",
          "name": "card",
          "type": "uint256"
        },
        {
          "internalType": "uint256",
          "name": "album",
          "type": "uint256"
        }
      ],
      "name": "pasteCards",
      "outputs": [],
      "stateMutability": "nonpayable",
      "type": "function"
    },
    {
      "inputs": [],
      "name": "prizesBalance",
      "outputs": [
        {
          "internalType": "uint256",
          "name": "",
          "type": "uint256"
        }
      ],
      "stateMutability": "view",
      "type": "function"
    },
    {
      "inputs": [],
      "name": "renounceOwnership",
      "outputs": [],
      "stateMutability": "nonpayable",
      "type": "function"
    },
    {
      "inputs": [
        {
          "internalType": "address",
          "name": "from",
          "type": "address"
        },
        {
          "internalType": "address",
          "name": "to",
          "type": "address"
        },
        {
          "internalType": "uint256",
          "name": "tokenId",
          "type": "uint256"
        }
      ],
      "name": "safeTransferFrom",
      "outputs": [],
      "stateMutability": "nonpayable",
      "type": "function"
    },
    {
      "inputs": [
        {
          "internalType": "address",
          "name": "_from",
          "type": "address"
        },
        {
          "internalType": "address",
          "name": "_to",
          "type": "address"
        },
        {
          "internalType": "uint256",
          "name": "_tokenId",
          "type": "uint256"
        },
        {
          "internalType": "bytes",
          "name": "_data",
          "type": "bytes"
        }
      ],
      "name": "safeTransferFrom",
      "outputs": [],
      "stateMutability": "nonpayable",
      "type": "function"
    },
    {
      "inputs": [
        {
          "internalType": "uint256",
          "name": "",
          "type": "uint256"
        }
      ],
      "name": "seasonNames",
      "outputs": [
        {
          "internalType": "string",
          "name": "",
          "type": "string"
        }
      ],
      "stateMutability": "view",
      "type": "function"
    },
    {
      "inputs": [
        {
          "internalType": "uint256",
          "name": "",
          "type": "uint256"
        }
      ],
      "name": "seasonPrices",
      "outputs": [
        {
          "internalType": "uint256",
          "name": "",
          "type": "uint256"
        }
      ],
      "stateMutability": "view",
      "type": "function"
    },
    {
      "inputs": [
        {
          "internalType": "string",
          "name": "",
          "type": "string"
        }
      ],
      "name": "seasons",
      "outputs": [
        {
          "internalType": "uint256",
          "name": "price",
          "type": "uint256"
        },
        {
          "internalType": "string",
          "name": "folder",
          "type": "string"
        }
      ],
      "stateMutability": "view",
      "type": "function"
    },
    {
      "inputs": [
        {
          "internalType": "address",
          "name": "operator",
          "type": "address"
        },
        {
          "internalType": "bool",
          "name": "approved",
          "type": "bool"
        }
      ],
      "name": "setApprovalForAll",
      "outputs": [],
      "stateMutability": "nonpayable",
      "type": "function"
    },
    {
      "inputs": [
        {
          "internalType": "address",
          "name": "_authorizedAddress",
          "type": "address"
        },
        {
          "internalType": "bool",
          "name": "_status",
          "type": "bool"
        }
      ],
      "name": "setAuthorized",
      "outputs": [],
      "stateMutability": "nonpayable",
      "type": "function"
    },
    {
      "inputs": [
        {
          "internalType": "address",
          "name": "_newBalanceReceiver",
          "type": "address"
        }
      ],
      "name": "setBalanceReceiver",
      "outputs": [],
      "stateMutability": "nonpayable",
      "type": "function"
    },
    {
      "inputs": [
        {
          "internalType": "string",
          "name": "__baseURI",
          "type": "string"
        }
      ],
      "name": "setBaseURI",
      "outputs": [],
      "stateMutability": "nonpayable",
      "type": "function"
    },
    {
      "inputs": [
        {
          "internalType": "bytes4",
          "name": "interfaceId",
          "type": "bytes4"
        }
      ],
      "name": "supportsInterface",
      "outputs": [
        {
          "internalType": "bool",
          "name": "",
          "type": "bool"
        }
      ],
      "stateMutability": "view",
      "type": "function"
    },
    {
      "inputs": [],
      "name": "symbol",
      "outputs": [
        {
          "internalType": "string",
          "name": "",
          "type": "string"
        }
      ],
      "stateMutability": "view",
      "type": "function"
    },
    {
      "inputs": [
        {
          "internalType": "uint256",
          "name": "tokenId",
          "type": "uint256"
        }
      ],
      "name": "tokenURI",
      "outputs": [
        {
          "internalType": "string",
          "name": "",
          "type": "string"
        }
      ],
      "stateMutability": "view",
      "type": "function"
    },
    {
      "inputs": [
        {
          "internalType": "address",
          "name": "from",
          "type": "address"
        },
        {
          "internalType": "address",
          "name": "to",
          "type": "address"
        },
        {
          "internalType": "uint256",
          "name": "tokenId",
          "type": "uint256"
        }
      ],
      "name": "transferFrom",
      "outputs": [],
      "stateMutability": "nonpayable",
      "type": "function"
    },
    {
      "inputs": [
        {
          "internalType": "address",
          "name": "newOwner",
          "type": "address"
        }
      ],
      "name": "transferOwnership",
      "outputs": [],
      "stateMutability": "nonpayable",
      "type": "function"
    }
  ],
  "bytecode": "0x61016060405260146080818152600e60a052600c60c052600a60e0526008610100526006610120526005610140526200003b919060076200018d565b503480156200004957600080fd5b50604051806040016040528060098152602001684e4f4620416c70686160b81b815250604051806040016040528060048152602001634e4f464160e01b81525081600090816200009a9190620002e3565b506001620000a98282620002e3565b505050620000c6620000c0620000cc60201b60201c565b620000dd565b620003af565b6000620000d86200012f565b905090565b600780546001600160a01b038381166001600160a01b0319831681179093556040519116919082907f8be0079c531659141344cd1fd0a4f28419497f9722a3daafe3b4186f6b6457e090600090a35050565b60003033036200018757600080368080601f0160208091040260200160405190810160405280939291908181526020018383808284376000920191909152505050503601516001600160a01b031691506200018a9050565b50335b90565b600183019183908215620002155791602002820160005b83821115620001e457835183826101000a81548160ff021916908360ff1602179055509260200192600101602081600001049283019260010302620001a4565b8015620002135782816101000a81549060ff0219169055600101602081600001049283019260010302620001e4565b505b506200022392915062000227565b5090565b5b8082111562000223576000815560010162000228565b634e487b7160e01b600052604160045260246000fd5b600181811c908216806200026957607f821691505b6020821081036200028a57634e487b7160e01b600052602260045260246000fd5b50919050565b601f821115620002de57600081815260208120601f850160051c81016020861015620002b95750805b601f850160051c820191505b81811015620002da57828155600101620002c5565b5050505b505050565b81516001600160401b03811115620002ff57620002ff6200023e565b620003178162000310845462000254565b8462000290565b602080601f8311600181146200034f5760008415620003365750858301515b600019600386901b1c1916600185901b178555620002da565b600085815260208120601f198616915b8281101562000380578886015182559484019460019091019084016200035f565b50858210156200039f5787850151600019600388901b60f8161c191681555b5050505050600190811b01905550565b6145ed80620003bf6000396000f3fe608060405234801561001057600080fd5b50600436106102485760003560e01c80638da5cb5b1161013b578063c1f3a3bb116100b8578063e606df871161007c578063e606df871461055e578063e985e9c514610571578063e9d43f7d14610584578063f0cad2a7146105a4578063f2fde38b146105b757600080fd5b8063c1f3a3bb146104f0578063c731fc7b14610503578063c87b56dd1461052f578063d1811d0214610542578063e5db587a1461055557600080fd5b8063a22cb465116100ff578063a22cb4651461047e578063b773d5c114610491578063b88d4fde146104a7578063b9181611146104ba578063be20e5a9146104dd57600080fd5b80638da5cb5b1461042a5780638dc107681461043b57806395a4c5251461044e57806395d89b411461046e5780639abc83201461047657600080fd5b806361c66c16116101c9578063715018a61161018d578063715018a6146103bb57806371f72fa0146103c3578063787f0b05146103d657806383c73d81146103f75780638477919b1461041757600080fd5b806361c66c161461034e578063627b253f146103615780636352211e1461037457806370a0823114610387578063711bf9b2146103a857600080fd5b806323b872dd1161021057806323b872dd146102dd578063308f5987146102f057806341c2c10f1461031557806342842e0e1461032857806355f804b31461033b57600080fd5b8063015db3961461024d57806301ffc9a71461026257806306fdde031461028a578063081812fc1461029f578063095ea7b3146102ca575b600080fd5b61026061025b36600461392e565b6105ca565b005b61027561027036600461398a565b610dda565b60405190151581526020015b60405180910390f35b610292610deb565b60405161028191906139f7565b6102b26102ad366004613a0a565b610e7d565b6040516001600160a01b039091168152602001610281565b6102606102d8366004613a3f565b610ea4565b6102606102eb366004613a69565b610fd0565b6103036102fe366004613aa5565b610fdb565b60405161028196959493929190613afb565b610260610323366004613b35565b6110d8565b610260610336366004613a69565b6118e4565b610260610349366004613b57565b6118ff565b61029261035c366004613a0a565b611917565b6008546102b2906001600160a01b031681565b6102b2610382366004613a0a565b6119c3565b61039a610395366004613b8b565b611a23565b604051908152602001610281565b6102606103b6366004613bb4565b611aa9565b610260611b51565b6102606103d1366004613beb565b611b65565b6103e96103e4366004613b57565b611bc3565b604051610281929190613c48565b61040a610405366004613b57565b611c73565b6040516102819190613c9c565b610260610425366004613caf565b611ce6565b6007546001600160a01b03166102b2565b610303610449366004613a0a565b611f12565b61046161045c366004613d6d565b611f42565b6040516102819190613dae565b610292611fbf565b610292611fce565b61026061048c366004613bb4565b611fdb565b610499611fed565b604051610281929190613dfb565b6102606104b5366004613e71565b612121565b6102756104c8366004613b8b565b600e6020526000908152604090205460ff1681565b61040a6104eb366004613b57565b6122a8565b6102606104fe366004613b8b565b612319565b610275610511366004613b8b565b6001600160a01b03166000908152600e602052604090205460ff1690565b61029261053d366004613a0a565b612343565b61039a610550366004613a0a565b61234e565b61039a60115481565b6009546102b2906001600160a01b031681565b61027561057f366004613ee0565b61236f565b610597610592366004613f13565b6123cf565b6040516102819190613f65565b6104616105b2366004613b57565b61252d565b6102606105c5366004613b8b565b6125a9565b600a816040516105da9190614005565b9081526040805160209281900383019020336000908152600390910190925290205460ff161561061d57604051635327f26b60e01b815260040160405180910390fd5b600a8160405161062d9190614005565b90815260405190819003602001902054821461065c5760405163ad3973c160e01b815260040160405180910390fd5b6001600a8260405161066e9190614005565b908152604080516020928190038301812033600090815260039091019093529120805460ff191692151592909217909155600a906106ad908390614005565b9081526040519081900360209081019091206004018054600181018255600091825291812090910180546001600160a01b0319163317905560646106f284604b614037565b6106fc9190614064565b905080601160008282546107109190614078565b90915550506009546040516323b872dd60e01b8152336004820152306024820152604481018390526001600160a01b03909116906323b872dd906064016020604051808303816000875af115801561076c573d6000803e3d6000fd5b505050506040513d601f19601f82011682018060405250810190610790919061408b565b506009546008546001600160a01b03918216916323b872dd913391166107b685886140a8565b6040516001600160e01b031960e086901b1681526001600160a01b03938416600482015292909116602483015260448201526064016020604051808303816000875af115801561080a573d6000803e3d6000fd5b505050506040513d601f19601f8201168201806040525081019061082e919061408b565b506000600a836040516108419190614005565b9081526040805160209281900383018120600201544293820193909352016040516020818303038152906040528051906020012060001c61088291906140bb565b90506000600a846040516108969190614005565b908152602001604051809103902060020182815481106108b8576108b86140cf565b90600052602060002001549050600a846040516108d59190614005565b90815260200160405180910390206002016001600a866040516108f89190614005565b9081526040519081900360200190206002015461091591906140a8565b81548110610925576109256140cf565b9060005260206000200154600a856040516109409190614005565b90815260200160405180910390206002018381548110610962576109626140cf565b9060005260206000200181905550600a846040516109809190614005565b90815260200160405180910390206002018054806109a0576109a06140e5565b60019003818190600052602060002001600090559055610ad633600a866040516109ca9190614005565b9081526020016040518091039020600501604051806040016040528060018152602001602f60f81b8152508473__$1bdba46fa44f06fa49315629a2a6224c43$__636900a3ae90916040518263ffffffff1660e01b8152600401610a3091815260200190565b600060405180830381865af4158015610a4d573d6000803e3d6000fd5b505050506040513d6000823e601f3d908101601f19168201604052610a7591908101906140fb565b60405180604001604052806005815260200164173539b7b760d91b815250604051602001610aa69493929190614215565b60408051601f1981840301815291905260006001610ac5600687614064565b610acf91906140a8565b8886612622565b505060005b6005811015610d94576000600a84604051610af69190614005565b9081526040805160209281900383018120600101544293820193909352016040516020818303038152906040528051906020012060001c610b3791906140bb565b90506000600a85604051610b4b9190614005565b90815260200160405180910390206001018281548110610b6d57610b6d6140cf565b90600052602060002001549050600a85604051610b8a9190614005565b90815260200160405180910390206001016001600a87604051610bad9190614005565b90815260405190819003602001902060010154610bca91906140a8565b81548110610bda57610bda6140cf565b9060005260206000200154600a86604051610bf59190614005565b90815260200160405180910390206001018381548110610c1757610c176140cf565b9060005260206000200181905550600a85604051610c359190614005565b9081526020016040518091039020600101805480610c5557610c556140e5565b60019003818190600052602060002001600090559055610d7f33600a87604051610c7f9190614005565b9081526020016040518091039020600501604051806040016040528060018152602001602f60f81b8152508473__$1bdba46fa44f06fa49315629a2a6224c43$__636900a3ae90916040518263ffffffff1660e01b8152600401610ce591815260200190565b600060405180830381865af4158015610d02573d6000803e3d6000fd5b505050506040513d6000823e601f3d908101601f19168201604052610d2a91908101906140fb565b60405180604001604052806005815260200164173539b7b760d91b815250604051602001610d5b9493929190614215565b60408051601f198184030181529190526001610d78600686614064565b8986612622565b50508080610d8c90614262565b915050610adb565b5081604051610da39190614005565b6040519081900381209033907f55d44f7f091f0389b4dcb1b6ae002ed20fe8229c546e6aaf1ccac2646cdf514c90600090a3505050565b6000610de58261272f565b92915050565b606060008054610dfa90614168565b80601f0160208091040260200160405190810160405280929190818152602001828054610e2690614168565b8015610e735780601f10610e4857610100808354040283529160200191610e73565b820191906000526020600020905b815481529060010190602001808311610e5657829003601f168201915b5050505050905090565b6000610e8882612754565b506000908152600460205260409020546001600160a01b031690565b6000610eaf826119c3565b9050806001600160a01b0316836001600160a01b031603610f215760405162461bcd60e51b815260206004820152602160248201527f4552433732313a20617070726f76616c20746f2063757272656e74206f776e656044820152603960f91b60648201526084015b60405180910390fd5b806001600160a01b0316610f336127b3565b6001600160a01b03161480610f4f5750610f4f8161057f6127b3565b610fc15760405162461bcd60e51b815260206004820152603d60248201527f4552433732313a20617070726f76652063616c6c6572206973206e6f7420746f60448201527f6b656e206f776e6572206f7220617070726f76656420666f7220616c6c0000006064820152608401610f18565b610fcb83836127c2565b505050565b610fcb8383836118e4565b600d602090815260008481526040902083518085018301805192815290830192850192909220915280548290811061101257600080fd5b9060005260206000209060060201600092509250505080600001549080600101549080600201549080600301805461104990614168565b80601f016020809104026020016040519081016040528092919081815260200182805461107590614168565b80156110c25780601f10611097576101008083540402835291602001916110c2565b820191906000526020600020905b8154815290600101906020018083116110a557829003601f168201915b5050505050908060040154908060050154905086565b336110e2836119c3565b6001600160a01b031614611109576040516318fc232560e01b815260040160405180910390fd5b33611113826119c3565b6001600160a01b03161461113a5760405163364be83560e01b815260040160405180910390fd5b6000818152600b60205260409020600101541561116a5760405163d0286c2360e01b815260040160405180910390fd5b6000828152600b60205260408120600301805461118690614168565b80601f01602080910402602001604051908101604052809291908181526020018280546111b290614168565b80156111ff5780601f106111d4576101008083540402835291602001916111ff565b820191906000526020600020905b8154815290600101906020018083116111e257829003601f168201915b5050505050905060005b336000908152600d6020526040908190209051611227908490614005565b9081526040519081900360200190205460ff8216101561146d576000848152600b6020908152604080832060050154338452600d909252918290209151909190611272908590614005565b90815260200160405180910390208260ff1681548110611294576112946140cf565b9060005260206000209060060201600501540361145b57336000908152600d60205260409081902090516112c9908490614005565b90815260200160405180910390206001600d6000336001600160a01b03166001600160a01b031681526020019081526020016000208460405161130c9190614005565b9081526040519081900360200190205461132691906140a8565b81548110611336576113366140cf565b60009182526020808320338452600d90915260409283902092516006909202019190611363908590614005565b90815260200160405180910390208260ff1681548110611385576113856140cf565b9060005260206000209060060201600082015481600001556001820154816001015560028201548160020155600382018160030190816113c591906142c9565b5060048281015490820155600591820154910155336000908152600d60205260409081902090516113f7908490614005565b9081526020016040518091039020805480611414576114146140e5565b6000828152602081206006600019909301928302018181556001810182905560028101829055906114486003830182613815565b5060006004820181905560059091015590555b80611465816143a5565b915050611209565b5061147783612830565b6000828152600b6020526040812060040180549161149483614262565b9091555050336000908152600d60209081526040808320868452600b90925291829020915190916114ca916003909101906143c4565b90815260200160405180910390206000815481106114ea576114ea6140cf565b60009182526020822060046006909202010180549161150883614262565b90915550506000828152600b6020526040902060040154600503610fcb576000828152600b60205260408120600301805461154290614168565b80601f016020809104026020016040519081016040528092919081815260200182805461156e90614168565b80156115bb5780601f10611590576101008083540402835291602001916115bb565b820191906000526020600020905b81548152906001019060200180831161159e57829003601f168201915b505050505090506007600c826040516115d49190614005565b90815260405190819003602001902054101561176d57600c816040516115fa9190614005565b908152604051908190036020908101822080546001818101835560009283529282200180546001600160a01b0319163317905591600a91601491600c90611642908790614005565b9081526040519081900360200190205461165c91906140a8565b6007811061166c5761166c6140cf565b602091828204019190069054906101000a900460ff1660ff16600a846040516116959190614005565b908152604051908190036020019020546116af9190614037565b6116b99190614064565b90506011548111156116de5760405163090d760160e01b815260040160405180910390fd5b80601160008282546116f091906140a8565b909155505060095460405163a9059cbb60e01b8152336004820152602481018390526001600160a01b039091169063a9059cbb906044016020604051808303816000875af1158015611746573d6000803e3d6000fd5b505050506040513d601f19601f8201168201806040525081019061176a919061408b565b50505b61188083600a836040516117819190614005565b908152604080519182900360209081018320838301835260018452602f60f81b848301526000898152600b90925290829020600590810154925163348051d760e11b81529101929173__$1bdba46fa44f06fa49315629a2a6224c43$__91636900a3ae916117f59160040190815260200190565b600060405180830381865af4158015611812573d6000803e3d6000fd5b505050506040513d6000823e601f3d908101601f1916820160405261183a91908101906140fb565b6040518060400160405280600681526020016523173539b7b760d11b81525060405160200161186c9493929190614215565b604051602081830303815290604052612839565b600c816040516118909190614005565b90815260405190819003602001812054906118ac908390614005565b6040519081900381209033907f953ec8b8176b9eb94e1561816a70bc231210aee5f1aaa59fdbad7915f9ad3c9690600090a450505050565b610fcb83838360405180602001604052806000815250612121565b611907612904565b600f61191382826143d0565b5050565b6010818154811061192757600080fd5b90600052602060002001600091509050805461194290614168565b80601f016020809104026020016040519081016040528092919081815260200182805461196e90614168565b80156119bb5780601f10611990576101008083540402835291602001916119bb565b820191906000526020600020905b81548152906001019060200180831161199e57829003601f168201915b505050505081565b6000818152600260205260408120546001600160a01b031680610de55760405162461bcd60e51b8152602060048201526018602482015277115490cdcc8c4e881a5b9d985b1a59081d1bdad95b88125160421b6044820152606401610f18565b60006001600160a01b038216611a8d5760405162461bcd60e51b815260206004820152602960248201527f4552433732313a2061646472657373207a65726f206973206e6f7420612076616044820152683634b21037bbb732b960b91b6064820152608401610f18565b506001600160a01b031660009081526003602052604090205490565b611ab1612904565b6001600160a01b0382166000908152600e602052604090205481151560ff909116151503611af25760405163295d231d60e11b815260040160405180910390fd5b6001600160a01b0382166000818152600e6020908152604091829020805460ff191685151590811790915591519182527f4c0079b9bcd37cd5d29a13938effd97c881798cbc6bd52a3026a29d94b27d1bf910160405180910390a25050565b611b59612904565b611b63600061297d565b565b611b6d612904565b600f611b7984826143d0565b50600980546001600160a01b039384166001600160a01b0319918216179091556008805492909316911617905550336000908152600e60205260409020805460ff19166001179055565b8051602081830181018051600a8252928201919093012091528054600582018054919291611bf090614168565b80601f0160208091040260200160405190810160405280929190818152602001828054611c1c90614168565b8015611c695780601f10611c3e57610100808354040283529160200191611c69565b820191906000526020600020905b815481529060010190602001808311611c4c57829003601f168201915b5050505050905082565b6060600a82604051611c859190614005565b9081526040805191829003602090810183206001018054808302850183019093528284529190830182828015611cda57602002820191906000526020600020905b815481526020019060010190808311611cc6575b50505050509050919050565b600a84604051611cf69190614005565b9081526040519081900360200190205415611d245760405163209b4beb60e01b815260040160405180910390fd5b336000908152600e602052604090205460ff16611d5457604051630d87421760e11b815260040160405180910390fd5b655af3107a4000831015611d7b5760405163b04a217360e01b815260040160405180910390fd5b611d866006836140bb565b15611da4576040516307fb5d6d60e01b815260040160405180910390fd5b82600a85604051611db59190614005565b908152604051908190036020018120919091558190600a90611dd8908790614005565b90815260200160405180910390206005019081611df591906143d0565b50601080546001810182556000919091527f1b6847dc741a1b0cd08d278845f9d819d87b734759afb55fe2de5cb82a9ae67201611e3285826143d0565b5060138054600181810183556000929092527f66de8ffda797e3de9c05e8fc57b3bf0ec28a930d40b0d285d93c06501cf6a090018490555b828111611f0b57611e7c6006826140bb565b600003611ebf57600a85604051611e939190614005565b908152604051602091819003820190206002018054600181018255600091825291902001819055611ef9565b600a85604051611ecf9190614005565b90815260405160209181900382019020600190810180549182018155600090815291909120018190555b80611f0381614262565b915050611e6a565b5050505050565b600b6020526000908152604090208054600182015460028301546003840180549394929391929161104990614168565b6060600c8383604051611f56929190614487565b9081526040805191829003602090810183208054808302850183019093528284529190830182828015611fb257602002820191906000526020600020905b81546001600160a01b03168152600190910190602001808311611f94575b5050505050905092915050565b606060018054610dfa90614168565b600f805461194290614168565b611913611fe66127b3565b83836129cf565b6060806010601381805480602002602001604051908101604052809291908181526020016000905b828210156120c157838290600052602060002001805461203490614168565b80601f016020809104026020016040519081016040528092919081815260200182805461206090614168565b80156120ad5780601f10612082576101008083540402835291602001916120ad565b820191906000526020600020905b81548152906001019060200180831161209057829003601f168201915b505050505081526020019060010190612015565b5050505091508080548060200260200160405190810160405280929190818152602001828054801561211257602002820191906000526020600020905b8154815260200190600101908083116120fe575b50505050509050915091509091565b6000828152600b60205260408120600301805461213d90614168565b80601f016020809104026020016040519081016040528092919081815260200182805461216990614168565b80156121b65780601f1061218b576101008083540402835291602001916121b6565b820191906000526020600020905b81548152906001019060200180831161219957829003601f168201915b505050505090506121c6816122a8565b51156121e557604051631c5836a160e21b815260040160405180910390fd5b6000838152600b60205260409020600190810154900361225f57600a8160405161220f9190614005565b90815260408051602092819003830190206001600160a01b0387166000908152600390910190925290205460ff1661225a57604051636341b66f60e11b815260040160405180910390fd5b612291565b6000838152600b60205260409020600401546005146122915760405163f959be5b60e01b815260040160405180910390fd5b61229c858585612a9d565b611f0b85858585612e77565b6060600a826040516122ba9190614005565b9081526040805191829003602090810183206002018054808302850183019093528284529190830182828015611cda5760200282019190600052602060002090815481526020019060010190808311611cc65750505050509050919050565b612321612904565b600880546001600160a01b0319166001600160a01b0392909216919091179055565b6060610de582612efc565b6013818154811061235e57600080fd5b600091825260209091200154905081565b60007358807bad0b376efc12f5ad86aac70e78ed67dead196001600160a01b0383160161239e57506001610de5565b6001600160a01b0380841660009081526005602090815260408083209386168352929052205460ff165b9392505050565b6001600160a01b0383166000908152600d6020526040908190209051606091906123fc9085908590614487565b9081526020016040518091039020805480602002602001604051908101604052809291908181526020016000905b8282101561252057838290600052602060002090600602016040518060c001604052908160008201548152602001600182015481526020016002820154815260200160038201805461247b90614168565b80601f01602080910402602001604051908101604052809291908181526020018280546124a790614168565b80156124f45780601f106124c9576101008083540402835291602001916124f4565b820191906000526020600020905b8154815290600101906020018083116124d757829003601f168201915b50505050508152602001600482015481526020016005820154815250508152602001906001019061242a565b5050505090509392505050565b6060600a8260405161253f9190614005565b9081526040805191829003602090810183206004018054808302850183019093528284529190830182828015611cda57602002820191906000526020600020905b81546001600160a01b031681526001909101906020018083116125805750505050509050919050565b6125b1612904565b6001600160a01b0381166126165760405162461bcd60e51b815260206004820152602660248201527f4f776e61626c653a206e6577206f776e657220697320746865207a65726f206160448201526564647265737360d01b6064820152608401610f18565b61261f8161297d565b50565b601280549060019060006126368385614078565b90915550506000818152600b60205260409020818155600181018690556002810185905560030161266784826143d0565b506000818152600b602090815260408083206005018590556001600160a01b038a168352600d9091529081902090516126a1908590614005565b90815260408051602092819003830190206000848152600b8452918220815460018082018455928452939092208254600690940201928355808201549083015560028082015490830155906003808201906126fe908401826142c9565b506004828101549082015560059182015491015561271c8782612fff565b6127268187612839565b50505050505050565b60006001600160e01b03198216632483248360e11b1480610de55750610de582613198565b6000818152600260205260409020546001600160a01b031661261f5760405162461bcd60e51b8152602060048201526018602482015277115490cdcc8c4e881a5b9d985b1a59081d1bdad95b88125160421b6044820152606401610f18565b60006127bd6131e8565b905090565b600081815260046020526040902080546001600160a01b0319166001600160a01b03841690811790915581906127f7826119c3565b6001600160a01b03167f8c5be1e5ebec7d5bd14f71427d1e84f3dd0314c0f7b2291e5b200ac8c7c3b92560405160405180910390a45050565b61261f81613244565b6000828152600260205260409020546001600160a01b03166128b45760405162461bcd60e51b815260206004820152602e60248201527f45524337323155524953746f726167653a2055524920736574206f66206e6f6e60448201526d32bc34b9ba32b73a103a37b5b2b760911b6064820152608401610f18565b60008281526006602052604090206128cc82826143d0565b506040518281527ff8e1a15aba9398e019f0b49df1a4fde98ee17ae345cb5f6b5e2c27f5033e8ce79060200160405180910390a15050565b61290c6127b3565b6001600160a01b03166129276007546001600160a01b031690565b6001600160a01b031614611b635760405162461bcd60e51b815260206004820181905260248201527f4f776e61626c653a2063616c6c6572206973206e6f7420746865206f776e65726044820152606401610f18565b600780546001600160a01b038381166001600160a01b0319831681179093556040519116919082907f8be0079c531659141344cd1fd0a4f28419497f9722a3daafe3b4186f6b6457e090600090a35050565b816001600160a01b0316836001600160a01b031603612a305760405162461bcd60e51b815260206004820152601960248201527f4552433732313a20617070726f766520746f2063616c6c6572000000000000006044820152606401610f18565b6001600160a01b03838116600081815260056020908152604080832094871680845294825291829020805460ff191686151590811790915591519182527f17307eab39ab6107e8899845ad3d59bd9653f200f220920489ca2b5937696c31910160405180910390a3505050565b6000818152600b602052604081206003018054612ab990614168565b80601f0160208091040260200160405190810160405280929190818152602001828054612ae590614168565b8015612b325780601f10612b0757610100808354040283529160200191612b32565b820191906000526020600020905b815481529060010190602001808311612b1557829003601f168201915b5050505050905060005b6001600160a01b0385166000908152600d6020526040908190209051612b63908490614005565b9081526040519081900360200190205460ff82161015612dd8576000838152600b60209081526040808320600501546001600160a01b0389168452600d909252918290209151909190612bb7908590614005565b90815260200160405180910390208260ff1681548110612bd957612bd96140cf565b90600052602060002090600602016005015403612dc6576001600160a01b0385166000908152600d6020526040908190209051612c17908490614005565b90815260200160405180910390206001600d6000886001600160a01b03166001600160a01b0316815260200190815260200160002084604051612c5a9190614005565b90815260405190819003602001902054612c7491906140a8565b81548110612c8457612c846140cf565b9060005260206000209060060201600d6000876001600160a01b03166001600160a01b0316815260200190815260200160002083604051612cc59190614005565b90815260200160405180910390208260ff1681548110612ce757612ce76140cf565b906000526020600020906006020160008201548160000155600182015481600101556002820154816002015560038201816003019081612d2791906142c9565b50600482810154908201556005918201549101556001600160a01b0385166000908152600d6020526040908190209051612d62908490614005565b9081526020016040518091039020805480612d7f57612d7f6140e5565b600082815260208120600660001990930192830201818155600181018290556002810182905590612db36003830182613815565b5060006004820181905560059091015590555b80612dd0816143a5565b915050612b3c565b506001600160a01b0383166000908152600d6020526040908190209051612e00908390614005565b90815260408051602092819003830190206000858152600b845291822081546001808201845592845293909220825460069094020192835580820154908301556002808201549083015590600380820190612e5d908401826142c9565b506004828101549082015560059182015491015550505050565b612e88612e826127b3565b83613284565b612eea5760405162461bcd60e51b815260206004820152602d60248201527f4552433732313a2063616c6c6572206973206e6f7420746f6b656e206f776e6560448201526c1c881bdc88185c1c1c9bdd9959609a1b6064820152608401610f18565b612ef6848484846132e2565b50505050565b6060612f0782612754565b60008281526006602052604081208054612f2090614168565b80601f0160208091040260200160405190810160405280929190818152602001828054612f4c90614168565b8015612f995780601f10612f6e57610100808354040283529160200191612f99565b820191906000526020600020905b815481529060010190602001808311612f7c57829003601f168201915b505050505090506000612faa613315565b90508051600003612fbc575092915050565b815115612fee578082604051602001612fd6929190614497565b60405160208183030381529060405292505050919050565b612ff784613324565b949350505050565b6001600160a01b0382166130555760405162461bcd60e51b815260206004820181905260248201527f4552433732313a206d696e7420746f20746865207a65726f20616464726573736044820152606401610f18565b6000818152600260205260409020546001600160a01b0316156130ba5760405162461bcd60e51b815260206004820152601c60248201527f4552433732313a20746f6b656e20616c7265616479206d696e746564000000006044820152606401610f18565b6130c860008383600161338a565b6000818152600260205260409020546001600160a01b03161561312d5760405162461bcd60e51b815260206004820152601c60248201527f4552433732313a20746f6b656e20616c7265616479206d696e746564000000006044820152606401610f18565b6001600160a01b038216600081815260036020908152604080832080546001019055848352600290915280822080546001600160a01b0319168417905551839291907fddf252ad1be2c89b69c2b068fc378daa952ba7f163c4a11628f55a4df523b3ef908290a45050565b60006001600160e01b031982166380ac58cd60e01b14806131c957506001600160e01b03198216635b5e139f60e01b145b80610de557506301ffc9a760e01b6001600160e01b0319831614610de5565b600030330361323e57600080368080601f0160208091040260200160405190810160405280939291908181526020018383808284376000920191909152505050503601516001600160a01b031691506132419050565b50335b90565b61324d8161338f565b6000818152600660205260409020805461326690614168565b15905061261f57600081815260066020526040812061261f91613815565b600080613290836119c3565b9050806001600160a01b0316846001600160a01b031614806132b757506132b7818561236f565b80612ff75750836001600160a01b03166132d084610e7d565b6001600160a01b031614949350505050565b6132ed848484613432565b6132f9848484846135a3565b612ef65760405162461bcd60e51b8152600401610f18906144c6565b6060600f8054610dfa90614168565b606061332f82612754565b6000613339613315565b9050600081511161335957604051806020016040528060008152506123c8565b80613363846136ab565b604051602001613374929190614497565b6040516020818303038152906040529392505050565b612ef6565b600061339a826119c3565b90506133aa81600084600161338a565b6133b3826119c3565b600083815260046020908152604080832080546001600160a01b03199081169091556001600160a01b0385168085526003845282852080546000190190558785526002909352818420805490911690555192935084927fddf252ad1be2c89b69c2b068fc378daa952ba7f163c4a11628f55a4df523b3ef908390a45050565b826001600160a01b0316613445826119c3565b6001600160a01b03161461346b5760405162461bcd60e51b8152600401610f1890614518565b6001600160a01b0382166134cd5760405162461bcd60e51b8152602060048201526024808201527f4552433732313a207472616e7366657220746f20746865207a65726f206164646044820152637265737360e01b6064820152608401610f18565b6134da838383600161338a565b826001600160a01b03166134ed826119c3565b6001600160a01b0316146135135760405162461bcd60e51b8152600401610f1890614518565b600081815260046020908152604080832080546001600160a01b03199081169091556001600160a01b0387811680865260038552838620805460001901905590871680865283862080546001019055868652600290945282852080549092168417909155905184937fddf252ad1be2c89b69c2b068fc378daa952ba7f163c4a11628f55a4df523b3ef91a4505050565b60006001600160a01b0384163b156136a057836001600160a01b031663150b7a026135cc6127b3565b8786866040518563ffffffff1660e01b81526004016135ee949392919061455d565b6020604051808303816000875af1925050508015613629575060408051601f3d908101601f191682019092526136269181019061459a565b60015b613686573d808015613657576040519150601f19603f3d011682016040523d82523d6000602084013e61365c565b606091505b50805160000361367e5760405162461bcd60e51b8152600401610f18906144c6565b805181602001fd5b6001600160e01b031916630a85bd0160e11b149050612ff7565b506001949350505050565b606060006136b88361373d565b60010190506000816001600160401b038111156136d7576136d7613863565b6040519080825280601f01601f191660200182016040528015613701576020820181803683370190505b5090508181016020015b600019016f181899199a1a9b1b9c1cb0b131b232b360811b600a86061a8153600a850494508461370b57509392505050565b60008072184f03e93ff9f4daa797ed6e38ed64bf6a1f0160401b831061377c5772184f03e93ff9f4daa797ed6e38ed64bf6a1f0160401b830492506040015b6d04ee2d6d415b85acef810000000083106137a8576d04ee2d6d415b85acef8100000000830492506020015b662386f26fc1000083106137c657662386f26fc10000830492506010015b6305f5e10083106137de576305f5e100830492506008015b61271083106137f257612710830492506004015b60648310613804576064830492506002015b600a8310610de55760010192915050565b50805461382190614168565b6000825580601f10613831575050565b601f01602090049060005260206000209081019061261f91905b8082111561385f576000815560010161384b565b5090565b634e487b7160e01b600052604160045260246000fd5b604051601f8201601f191681016001600160401b03811182821017156138a1576138a1613863565b604052919050565b60006001600160401b038211156138c2576138c2613863565b50601f01601f191660200190565b60006138e36138de846138a9565b613879565b90508281528383830111156138f757600080fd5b828260208301376000602084830101529392505050565b600082601f83011261391f57600080fd5b6123c8838335602085016138d0565b6000806040838503121561394157600080fd5b8235915060208301356001600160401b0381111561395e57600080fd5b61396a8582860161390e565b9150509250929050565b6001600160e01b03198116811461261f57600080fd5b60006020828403121561399c57600080fd5b81356123c881613974565b60005b838110156139c25781810151838201526020016139aa565b50506000910152565b600081518084526139e38160208601602086016139a7565b601f01601f19169290920160200192915050565b6020815260006123c860208301846139cb565b600060208284031215613a1c57600080fd5b5035919050565b80356001600160a01b0381168114613a3a57600080fd5b919050565b60008060408385031215613a5257600080fd5b613a5b83613a23565b946020939093013593505050565b600080600060608486031215613a7e57600080fd5b613a8784613a23565b9250613a9560208501613a23565b9150604084013590509250925092565b600080600060608486031215613aba57600080fd5b613ac384613a23565b925060208401356001600160401b03811115613ade57600080fd5b613aea8682870161390e565b925050604084013590509250925092565b86815285602082015284604082015260c060608201526000613b2060c08301866139cb565b60808301949094525060a00152949350505050565b60008060408385031215613b4857600080fd5b50508035926020909101359150565b600060208284031215613b6957600080fd5b81356001600160401b03811115613b7f57600080fd5b612ff78482850161390e565b600060208284031215613b9d57600080fd5b6123c882613a23565b801515811461261f57600080fd5b60008060408385031215613bc757600080fd5b613bd083613a23565b91506020830135613be081613ba6565b809150509250929050565b600080600060608486031215613c0057600080fd5b83356001600160401b03811115613c1657600080fd5b613c228682870161390e565b935050613c3160208501613a23565b9150613c3f60408501613a23565b90509250925092565b828152604060208201526000612ff760408301846139cb565b600081518084526020808501945080840160005b83811015613c9157815187529582019590820190600101613c75565b509495945050505050565b6020815260006123c86020830184613c61565b60008060008060808587031215613cc557600080fd5b84356001600160401b0380821115613cdc57600080fd5b613ce88883890161390e565b955060208701359450604087013593506060870135915080821115613d0c57600080fd5b50613d198782880161390e565b91505092959194509250565b60008083601f840112613d3757600080fd5b5081356001600160401b03811115613d4e57600080fd5b602083019150836020828501011115613d6657600080fd5b9250929050565b60008060208385031215613d8057600080fd5b82356001600160401b03811115613d9657600080fd5b613da285828601613d25565b90969095509350505050565b6020808252825182820181905260009190848201906040850190845b81811015613def5783516001600160a01b031683529284019291840191600101613dca565b50909695505050505050565b6000604082016040835280855180835260608501915060608160051b8601019250602080880160005b83811015613e5257605f19888703018552613e408683516139cb565b95509382019390820190600101613e24565b505085840381870152505050613e688185613c61565b95945050505050565b60008060008060808587031215613e8757600080fd5b613e9085613a23565b9350613e9e60208601613a23565b92506040850135915060608501356001600160401b03811115613ec057600080fd5b8501601f81018713613ed157600080fd5b613d19878235602084016138d0565b60008060408385031215613ef357600080fd5b613efc83613a23565b9150613f0a60208401613a23565b90509250929050565b600080600060408486031215613f2857600080fd5b613f3184613a23565b925060208401356001600160401b03811115613f4c57600080fd5b613f5886828701613d25565b9497909650939450505050565b60006020808301818452808551808352604092508286019150828160051b87010184880160005b83811015613ff757603f19898403018552815160c081518552888201518986015287820151888601526060808301518282880152613fcc838801826139cb565b6080858101519089015260a09485015194909701939093525050509386019390860190600101613f8c565b509098975050505050505050565b600082516140178184602087016139a7565b9190910192915050565b634e487b7160e01b600052601160045260246000fd5b8082028115828204841417610de557610de5614021565b634e487b7160e01b600052601260045260246000fd5b6000826140735761407361404e565b500490565b80820180821115610de557610de5614021565b60006020828403121561409d57600080fd5b81516123c881613ba6565b81810381811115610de557610de5614021565b6000826140ca576140ca61404e565b500690565b634e487b7160e01b600052603260045260246000fd5b634e487b7160e01b600052603160045260246000fd5b60006020828403121561410d57600080fd5b81516001600160401b0381111561412357600080fd5b8201601f8101841361413457600080fd5b80516141426138de826138a9565b81815285602083850101111561415757600080fd5b613e688260208301602086016139a7565b600181811c9082168061417c57607f821691505b60208210810361419c57634e487b7160e01b600052602260045260246000fd5b50919050565b600081546141af81614168565b600182811680156141c757600181146141dc5761420b565b60ff198416875282151583028701945061420b565b8560005260208060002060005b858110156142025781548a8201529084019082016141e9565b50505082870194505b5050505092915050565b600061422182876141a2565b8551614231818360208a016139a7565b85519101906142448183602089016139a7565b84519101906142578183602088016139a7565b019695505050505050565b60006001820161427457614274614021565b5060010190565b601f821115610fcb57600081815260208120601f850160051c810160208610156142a25750805b601f850160051c820191505b818110156142c1578281556001016142ae565b505050505050565b8181036142d4575050565b6142de8254614168565b6001600160401b038111156142f5576142f5613863565b614309816143038454614168565b8461427b565b6000601f82116001811461433d57600083156143255750848201545b600019600385901b1c1916600184901b178455611f0b565b600085815260209020601f19841690600086815260209020845b838110156143775782860154825560019586019590910190602001614357565b50858310156143955781850154600019600388901b60f8161c191681555b5050505050600190811b01905550565b600060ff821660ff81036143bb576143bb614021565b60010192915050565b60006123c882846141a2565b81516001600160401b038111156143e9576143e9613863565b6143f7816143038454614168565b602080601f83116001811461442c57600084156144145750858301515b600019600386901b1c1916600185901b1785556142c1565b600085815260208120601f198616915b8281101561445b5788860151825594840194600190910190840161443c565b508582101561439557939096015160001960f8600387901b161c19169092555050600190811b01905550565b8183823760009101908152919050565b600083516144a98184602088016139a7565b8351908301906144bd8183602088016139a7565b01949350505050565b60208082526032908201527f4552433732313a207472616e7366657220746f206e6f6e20455243373231526560408201527131b2b4bb32b91034b6b83632b6b2b73a32b960711b606082015260800190565b60208082526025908201527f4552433732313a207472616e736665722066726f6d20696e636f72726563742060408201526437bbb732b960d91b606082015260800190565b6001600160a01b0385811682528416602082015260408101839052608060608201819052600090614590908301846139cb565b9695505050505050565b6000602082840312156145ac57600080fd5b81516123c88161397456fea2646970667358221220b21742430ef5072a5d0ffe8836d74e4b3337828b6bf71c3a554eed9a68524a1f64736f6c63430008140033",
  "linkReferences": {
    "contracts/libs/LibStringUtils.sol": {
      "LibStringUtils": [
        {
          "length": 20,
          "start": 3511
        },
        {
          "length": 20,
          "start": 4204
        },
        {
          "length": 20,
          "start": 7050
        }
      ]
    }
  },
  "deployedLinkReferences": {
    "contracts/libs/LibStringUtils.sol": {
      "LibStringUtils": [
        {
          "length": 20,
          "start": 2552
        },
        {
          "length": 20,
          "start": 3245
        },
        {
          "length": 20,
          "start": 6091
        }
      ]
    }
  }
}