{
  "_format": "hh-sol-artifact-1",
  "contractName": "NofAlphaV4",
  "sourceName": "contracts/alpha/Alpha.v4.sol",
  "abi": [
    {
      "inputs": [],
      "stateMutability": "nonpayable",
      "type": "constructor"
    },
    {
      "inputs": [],
      "name": "Alpha_AlbumNotCompleted",
      "type": "error"
    },
    {
      "inputs": [],
      "name": "Alpha_AlreadyHaveAPack",
      "type": "error"
    },
    {
      "inputs": [],
      "name": "Alpha_AmountMustBeMultipleOf6",
      "type": "error"
    },
    {
      "inputs": [],
      "name": "Alpha_AuthorizedStatusAlreadySet",
      "type": "error"
    },
    {
      "inputs": [],
      "name": "Alpha_CardIsNotAnAlbum",
      "type": "error"
    },
    {
      "inputs": [],
      "name": "Alpha_NotAuthorized",
      "type": "error"
    },
    {
      "inputs": [],
      "name": "Alpha_NotCorrectPriceForPack",
      "type": "error"
    },
    {
      "inputs": [],
      "name": "Alpha_NotEnoughPrizeBalance",
      "type": "error"
    },
    {
      "inputs": [],
      "name": "Alpha_NotPlayingThisSeason",
      "type": "error"
    },
    {
      "inputs": [],
      "name": "Alpha_NotYourAlbum",
      "type": "error"
    },
    {
      "inputs": [],
      "name": "Alpha_NotYourCard",
      "type": "error"
    },
    {
      "inputs": [],
      "name": "Alpha_PriceTooLow",
      "type": "error"
    },
    {
      "inputs": [],
      "name": "Alpha_StillAlbumsAvailable",
      "type": "error"
    },
    {
      "anonymous": false,
      "inputs": [
        {
          "indexed": true,
          "internalType": "address",
          "name": "owner",
          "type": "address"
        },
        {
          "indexed": true,
          "internalType": "address",
          "name": "approved",
          "type": "address"
        },
        {
          "indexed": true,
          "internalType": "uint256",
          "name": "tokenId",
          "type": "uint256"
        }
      ],
      "name": "Approval",
      "type": "event"
    },
    {
      "anonymous": false,
      "inputs": [
        {
          "indexed": true,
          "internalType": "address",
          "name": "owner",
          "type": "address"
        },
        {
          "indexed": true,
          "internalType": "address",
          "name": "operator",
          "type": "address"
        },
        {
          "indexed": false,
          "internalType": "bool",
          "name": "approved",
          "type": "bool"
        }
      ],
      "name": "ApprovalForAll",
      "type": "event"
    },
    {
      "anonymous": false,
      "inputs": [
        {
          "indexed": true,
          "internalType": "address",
          "name": "authorized",
          "type": "address"
        },
        {
          "indexed": false,
          "internalType": "bool",
          "name": "status",
          "type": "bool"
        }
      ],
      "name": "Authorized",
      "type": "event"
    },
    {
      "anonymous": false,
      "inputs": [
        {
          "indexed": false,
          "internalType": "uint256",
          "name": "_fromTokenId",
          "type": "uint256"
        },
        {
          "indexed": false,
          "internalType": "uint256",
          "name": "_toTokenId",
          "type": "uint256"
        }
      ],
      "name": "BatchMetadataUpdate",
      "type": "event"
    },
    {
      "anonymous": false,
      "inputs": [
        {
          "indexed": true,
          "internalType": "address",
          "name": "buyer",
          "type": "address"
        },
        {
          "indexed": true,
          "internalType": "string",
          "name": "seasonName",
          "type": "string"
        }
      ],
      "name": "BuyPack",
      "type": "event"
    },
    {
      "anonymous": false,
      "inputs": [
        {
          "indexed": false,
          "internalType": "uint256",
          "name": "_tokenId",
          "type": "uint256"
        }
      ],
      "name": "MetadataUpdate",
      "type": "event"
    },
    {
      "anonymous": false,
      "inputs": [
        {
          "indexed": true,
          "internalType": "address",
          "name": "previousOwner",
          "type": "address"
        },
        {
          "indexed": true,
          "internalType": "address",
          "name": "newOwner",
          "type": "address"
        }
      ],
      "name": "OwnershipTransferred",
      "type": "event"
    },
    {
      "anonymous": false,
      "inputs": [
        {
          "indexed": true,
          "internalType": "address",
          "name": "from",
          "type": "address"
        },
        {
          "indexed": true,
          "internalType": "address",
          "name": "to",
          "type": "address"
        },
        {
          "indexed": true,
          "internalType": "uint256",
          "name": "tokenId",
          "type": "uint256"
        }
      ],
      "name": "Transfer",
      "type": "event"
    },
    {
      "anonymous": false,
      "inputs": [
        {
          "indexed": true,
          "internalType": "address",
          "name": "winner",
          "type": "address"
        },
        {
          "indexed": true,
          "internalType": "string",
          "name": "season",
          "type": "string"
        },
        {
          "indexed": true,
          "internalType": "uint256",
          "name": "position",
          "type": "uint256"
        }
      ],
      "name": "Winner",
      "type": "event"
    },
    {
      "inputs": [],
      "name": "DAI_TOKEN",
      "outputs": [
        {
          "internalType": "address",
          "name": "",
          "type": "address"
        }
      ],
      "stateMutability": "view",
      "type": "function"
    },
    {
      "inputs": [
        {
          "internalType": "address",
          "name": "to",
          "type": "address"
        },
        {
          "internalType": "uint256",
          "name": "tokenId",
          "type": "uint256"
        }
      ],
      "name": "approve",
      "outputs": [],
      "stateMutability": "nonpayable",
      "type": "function"
    },
    {
      "inputs": [
        {
          "internalType": "address",
          "name": "",
          "type": "address"
        }
      ],
      "name": "authorized",
      "outputs": [
        {
          "internalType": "bool",
          "name": "",
          "type": "bool"
        }
      ],
      "stateMutability": "view",
      "type": "function"
    },
    {
      "inputs": [
        {
          "internalType": "address",
          "name": "owner",
          "type": "address"
        }
      ],
      "name": "balanceOf",
      "outputs": [
        {
          "internalType": "uint256",
          "name": "",
          "type": "uint256"
        }
      ],
      "stateMutability": "view",
      "type": "function"
    },
    {
      "inputs": [],
      "name": "balanceReceiver",
      "outputs": [
        {
          "internalType": "address",
          "name": "",
          "type": "address"
        }
      ],
      "stateMutability": "view",
      "type": "function"
    },
    {
      "inputs": [],
      "name": "baseUri",
      "outputs": [
        {
          "internalType": "string",
          "name": "",
          "type": "string"
        }
      ],
      "stateMutability": "view",
      "type": "function"
    },
    {
      "inputs": [
        {
          "internalType": "uint256",
          "name": "_amount",
          "type": "uint256"
        },
        {
          "internalType": "string",
          "name": "_name",
          "type": "string"
        }
      ],
      "name": "buyPack",
      "outputs": [],
      "stateMutability": "nonpayable",
      "type": "function"
    },
    {
      "inputs": [
        {
          "internalType": "uint256",
          "name": "",
          "type": "uint256"
        }
      ],
      "name": "cards",
      "outputs": [
        {
          "internalType": "uint256",
          "name": "tokenId",
          "type": "uint256"
        },
        {
          "internalType": "uint256",
          "name": "class",
          "type": "uint256"
        },
        {
          "internalType": "uint256",
          "name": "collection",
          "type": "uint256"
        },
        {
          "internalType": "string",
          "name": "season",
          "type": "string"
        },
        {
          "internalType": "uint256",
          "name": "completion",
          "type": "uint256"
        },
        {
          "internalType": "uint256",
          "name": "number",
          "type": "uint256"
        }
      ],
      "stateMutability": "view",
      "type": "function"
    },
    {
      "inputs": [
        {
          "internalType": "address",
          "name": "",
          "type": "address"
        },
        {
          "internalType": "string",
          "name": "",
          "type": "string"
        },
        {
          "internalType": "uint256",
          "name": "",
          "type": "uint256"
        }
      ],
      "name": "cardsByUserBySeason",
      "outputs": [
        {
          "internalType": "uint256",
          "name": "tokenId",
          "type": "uint256"
        },
        {
          "internalType": "uint256",
          "name": "class",
          "type": "uint256"
        },
        {
          "internalType": "uint256",
          "name": "collection",
          "type": "uint256"
        },
        {
          "internalType": "string",
          "name": "season",
          "type": "string"
        },
        {
          "internalType": "uint256",
          "name": "completion",
          "type": "uint256"
        },
        {
          "internalType": "uint256",
          "name": "number",
          "type": "uint256"
        }
      ],
      "stateMutability": "view",
      "type": "function"
    },
    {
      "inputs": [
        {
          "internalType": "uint256",
          "name": "tokenId",
          "type": "uint256"
        }
      ],
      "name": "getApproved",
      "outputs": [
        {
          "internalType": "address",
          "name": "",
          "type": "address"
        }
      ],
      "stateMutability": "view",
      "type": "function"
    },
    {
      "inputs": [
        {
          "internalType": "address",
          "name": "_authorizedAddress",
          "type": "address"
        }
      ],
      "name": "getAuthorized",
      "outputs": [
        {
          "internalType": "bool",
          "name": "",
          "type": "bool"
        }
      ],
      "stateMutability": "view",
      "type": "function"
    },
    {
      "inputs": [
        {
          "internalType": "address",
          "name": "_user",
          "type": "address"
        },
        {
          "internalType": "string",
          "name": "_seasonName",
          "type": "string"
        }
      ],
      "name": "getCardsByUserBySeason",
      "outputs": [
        {
          "components": [
            {
              "internalType": "uint256",
              "name": "tokenId",
              "type": "uint256"
            },
            {
              "internalType": "uint256",
              "name": "class",
              "type": "uint256"
            },
            {
              "internalType": "uint256",
              "name": "collection",
              "type": "uint256"
            },
            {
              "internalType": "string",
              "name": "season",
              "type": "string"
            },
            {
              "internalType": "uint256",
              "name": "completion",
              "type": "uint256"
            },
            {
              "internalType": "uint256",
              "name": "number",
              "type": "uint256"
            }
          ],
          "internalType": "struct NofAlphaV4.Card[]",
          "name": "",
          "type": "tuple[]"
        }
      ],
      "stateMutability": "view",
      "type": "function"
    },
    {
      "inputs": [
        {
          "internalType": "string",
          "name": "_name",
          "type": "string"
        }
      ],
      "name": "getSeasonAlbums",
      "outputs": [
        {
          "internalType": "uint256[]",
          "name": "",
          "type": "uint256[]"
        }
      ],
      "stateMutability": "view",
      "type": "function"
    },
    {
      "inputs": [
        {
          "internalType": "string",
          "name": "_name",
          "type": "string"
        }
      ],
      "name": "getSeasonCards",
      "outputs": [
        {
          "internalType": "uint256[]",
          "name": "",
          "type": "uint256[]"
        }
      ],
      "stateMutability": "view",
      "type": "function"
    },
    {
      "inputs": [],
      "name": "getSeasonData",
      "outputs": [
        {
          "internalType": "string[]",
          "name": "",
          "type": "string[]"
        },
        {
          "internalType": "uint256[]",
          "name": "",
          "type": "uint256[]"
        }
      ],
      "stateMutability": "view",
      "type": "function"
    },
    {
      "inputs": [
        {
          "internalType": "string",
          "name": "_seasonName",
          "type": "string"
        }
      ],
      "name": "getWinners",
      "outputs": [
        {
          "internalType": "address[]",
          "name": "",
          "type": "address[]"
        }
      ],
      "stateMutability": "view",
      "type": "function"
    },
    {
      "inputs": [
        {
          "internalType": "string",
          "name": "__baseUri",
          "type": "string"
        },
        {
          "internalType": "address",
          "name": "_daiTokenAddress",
          "type": "address"
        },
        {
          "internalType": "address",
          "name": "_balanceReceiver",
          "type": "address"
        }
      ],
      "name": "init",
      "outputs": [],
      "stateMutability": "nonpayable",
      "type": "function"
    },
    {
      "inputs": [
        {
          "internalType": "address",
          "name": "_owner",
          "type": "address"
        },
        {
          "internalType": "address",
          "name": "_operator",
          "type": "address"
        }
      ],
      "name": "isApprovedForAll",
      "outputs": [
        {
          "internalType": "bool",
          "name": "isOperator",
          "type": "bool"
        }
      ],
      "stateMutability": "view",
      "type": "function"
    },
    {
      "inputs": [],
      "name": "name",
      "outputs": [
        {
          "internalType": "string",
          "name": "",
          "type": "string"
        }
      ],
      "stateMutability": "view",
      "type": "function"
    },
    {
      "inputs": [
        {
          "internalType": "string",
          "name": "_name",
          "type": "string"
        },
        {
          "internalType": "uint256",
          "name": "_price",
          "type": "uint256"
        },
        {
          "internalType": "uint256",
          "name": "_amount",
          "type": "uint256"
        },
        {
          "internalType": "string",
          "name": "_folder",
          "type": "string"
        }
      ],
      "name": "newSeason",
      "outputs": [],
      "stateMutability": "nonpayable",
      "type": "function"
    },
    {
      "inputs": [],
      "name": "owner",
      "outputs": [
        {
          "internalType": "address",
          "name": "",
          "type": "address"
        }
      ],
      "stateMutability": "view",
      "type": "function"
    },
    {
      "inputs": [
        {
          "internalType": "uint256",
          "name": "tokenId",
          "type": "uint256"
        }
      ],
      "name": "ownerOf",
      "outputs": [
        {
          "internalType": "address",
          "name": "",
          "type": "address"
        }
      ],
      "stateMutability": "view",
      "type": "function"
    },
    {
      "inputs": [
        {
          "internalType": "uint256",
          "name": "card",
          "type": "uint256"
        },
        {
          "internalType": "uint256",
          "name": "album",
          "type": "uint256"
        }
      ],
      "name": "pasteCards",
      "outputs": [],
      "stateMutability": "nonpayable",
      "type": "function"
    },
    {
      "inputs": [],
      "name": "prizesBalance",
      "outputs": [
        {
          "internalType": "uint256",
          "name": "",
          "type": "uint256"
        }
      ],
      "stateMutability": "view",
      "type": "function"
    },
    {
      "inputs": [],
      "name": "renounceOwnership",
      "outputs": [],
      "stateMutability": "nonpayable",
      "type": "function"
    },
    {
      "inputs": [
        {
          "internalType": "address",
          "name": "from",
          "type": "address"
        },
        {
          "internalType": "address",
          "name": "to",
          "type": "address"
        },
        {
          "internalType": "uint256",
          "name": "tokenId",
          "type": "uint256"
        }
      ],
      "name": "safeTransferFrom",
      "outputs": [],
      "stateMutability": "nonpayable",
      "type": "function"
    },
    {
      "inputs": [
        {
          "internalType": "address",
          "name": "_from",
          "type": "address"
        },
        {
          "internalType": "address",
          "name": "_to",
          "type": "address"
        },
        {
          "internalType": "uint256",
          "name": "_tokenId",
          "type": "uint256"
        },
        {
          "internalType": "bytes",
          "name": "_data",
          "type": "bytes"
        }
      ],
      "name": "safeTransferFrom",
      "outputs": [],
      "stateMutability": "nonpayable",
      "type": "function"
    },
    {
      "inputs": [
        {
          "internalType": "uint256",
          "name": "",
          "type": "uint256"
        }
      ],
      "name": "seasonNames",
      "outputs": [
        {
          "internalType": "string",
          "name": "",
          "type": "string"
        }
      ],
      "stateMutability": "view",
      "type": "function"
    },
    {
      "inputs": [
        {
          "internalType": "uint256",
          "name": "",
          "type": "uint256"
        }
      ],
      "name": "seasonPrices",
      "outputs": [
        {
          "internalType": "uint256",
          "name": "",
          "type": "uint256"
        }
      ],
      "stateMutability": "view",
      "type": "function"
    },
    {
      "inputs": [
        {
          "internalType": "string",
          "name": "",
          "type": "string"
        }
      ],
      "name": "seasons",
      "outputs": [
        {
          "internalType": "uint256",
          "name": "price",
          "type": "uint256"
        },
        {
          "internalType": "string",
          "name": "folder",
          "type": "string"
        }
      ],
      "stateMutability": "view",
      "type": "function"
    },
    {
      "inputs": [
        {
          "internalType": "address",
          "name": "operator",
          "type": "address"
        },
        {
          "internalType": "bool",
          "name": "approved",
          "type": "bool"
        }
      ],
      "name": "setApprovalForAll",
      "outputs": [],
      "stateMutability": "nonpayable",
      "type": "function"
    },
    {
      "inputs": [
        {
          "internalType": "address",
          "name": "_authorizedAddress",
          "type": "address"
        },
        {
          "internalType": "bool",
          "name": "_status",
          "type": "bool"
        }
      ],
      "name": "setAuthorized",
      "outputs": [],
      "stateMutability": "nonpayable",
      "type": "function"
    },
    {
      "inputs": [
        {
          "internalType": "address",
          "name": "_newBalanceReceiver",
          "type": "address"
        }
      ],
      "name": "setBalanceReceiver",
      "outputs": [],
      "stateMutability": "nonpayable",
      "type": "function"
    },
    {
      "inputs": [
        {
          "internalType": "string",
          "name": "__baseURI",
          "type": "string"
        }
      ],
      "name": "setBaseURI",
      "outputs": [],
      "stateMutability": "nonpayable",
      "type": "function"
    },
    {
      "inputs": [
        {
          "internalType": "bytes4",
          "name": "interfaceId",
          "type": "bytes4"
        }
      ],
      "name": "supportsInterface",
      "outputs": [
        {
          "internalType": "bool",
          "name": "",
          "type": "bool"
        }
      ],
      "stateMutability": "view",
      "type": "function"
    },
    {
      "inputs": [],
      "name": "symbol",
      "outputs": [
        {
          "internalType": "string",
          "name": "",
          "type": "string"
        }
      ],
      "stateMutability": "view",
      "type": "function"
    },
    {
      "inputs": [
        {
          "internalType": "uint256",
          "name": "tokenId",
          "type": "uint256"
        }
      ],
      "name": "tokenURI",
      "outputs": [
        {
          "internalType": "string",
          "name": "",
          "type": "string"
        }
      ],
      "stateMutability": "view",
      "type": "function"
    },
    {
      "inputs": [
        {
          "internalType": "address",
          "name": "from",
          "type": "address"
        },
        {
          "internalType": "address",
          "name": "to",
          "type": "address"
        },
        {
          "internalType": "uint256",
          "name": "tokenId",
          "type": "uint256"
        }
      ],
      "name": "transferFrom",
      "outputs": [],
      "stateMutability": "nonpayable",
      "type": "function"
    },
    {
      "inputs": [
        {
          "internalType": "address",
          "name": "newOwner",
          "type": "address"
        }
      ],
      "name": "transferOwnership",
      "outputs": [],
      "stateMutability": "nonpayable",
      "type": "function"
    }
  ],
  "bytecode": "0x61016060405260146080818152600e60a052600c60c052600a60e0526008610100526006610120526005610140526200003b919060076200018d565b503480156200004957600080fd5b50604051806040016040528060098152602001684e4f4620416c70686160b81b815250604051806040016040528060048152602001634e4f464160e01b81525081600090816200009a9190620002e3565b506001620000a98282620002e3565b505050620000c6620000c0620000cc60201b60201c565b620000dd565b620003af565b6000620000d86200012f565b905090565b600780546001600160a01b038381166001600160a01b0319831681179093556040519116919082907f8be0079c531659141344cd1fd0a4f28419497f9722a3daafe3b4186f6b6457e090600090a35050565b60003033036200018757600080368080601f0160208091040260200160405190810160405280939291908181526020018383808284376000920191909152505050503601516001600160a01b031691506200018a9050565b50335b90565b600183019183908215620002155791602002820160005b83821115620001e457835183826101000a81548160ff021916908360ff1602179055509260200192600101602081600001049283019260010302620001a4565b8015620002135782816101000a81549060ff0219169055600101602081600001049283019260010302620001e4565b505b506200022392915062000227565b5090565b5b8082111562000223576000815560010162000228565b634e487b7160e01b600052604160045260246000fd5b600181811c908216806200026957607f821691505b6020821081036200028a57634e487b7160e01b600052602260045260246000fd5b50919050565b601f821115620002de57600081815260208120601f850160051c81016020861015620002b95750805b601f850160051c820191505b81811015620002da57828155600101620002c5565b5050505b505050565b81516001600160401b03811115620002ff57620002ff6200023e565b620003178162000310845462000254565b8462000290565b602080601f8311600181146200034f5760008415620003365750858301515b600019600386901b1c1916600185901b178555620002da565b600085815260208120601f198616915b8281101562000380578886015182559484019460019091019084016200035f565b50858210156200039f5787850151600019600388901b60f8161c191681555b5050505050600190811b01905550565b61448e80620003bf6000396000f3fe608060405234801561001057600080fd5b506004361061023d5760003560e01c80638477919b1161013b578063be20e5a9116100b8578063e5db587a1161007c578063e5db587a1461054a578063e606df8714610553578063e985e9c514610566578063e9d43f7d14610579578063f2fde38b1461059957600080fd5b8063be20e5a9146104d2578063c1f3a3bb146104e5578063c731fc7b146104f8578063c87b56dd14610524578063d1811d021461053757600080fd5b80639abc8320116100ff5780639abc83201461046b578063a22cb46514610473578063b773d5c114610486578063b88d4fde1461049c578063b9181611146104af57600080fd5b80638477919b1461040c5780638da5cb5b1461041f5780638dc107681461043057806395a4c5251461044357806395d89b411461046357600080fd5b806355f804b3116101c9578063711bf9b21161018d578063711bf9b21461039d578063715018a6146103b057806371f72fa0146103b8578063787f0b05146103cb57806383c73d81146103ec57600080fd5b806355f804b31461033057806361c66c1614610343578063627b253f146103565780636352211e1461036957806370a082311461037c57600080fd5b8063095ea7b311610210578063095ea7b3146102bf57806323b872dd146102d2578063308f5987146102e557806341c2c10f1461030a57806342842e0e1461031d57600080fd5b8063015db3961461024257806301ffc9a71461025757806306fdde031461027f578063081812fc14610294575b600080fd5b6102556102503660046137cf565b6105ac565b005b61026a61026536600461382b565b610d35565b60405190151581526020015b60405180910390f35b610287610d46565b6040516102769190613898565b6102a76102a23660046138ab565b610dd8565b6040516001600160a01b039091168152602001610276565b6102556102cd3660046138e0565b610dff565b6102556102e036600461390a565b610f2b565b6102f86102f3366004613946565b610f36565b6040516102769695949392919061399c565b6102556103183660046139d6565b611033565b61025561032b36600461390a565b61183f565b61025561033e3660046139f8565b61185a565b6102876103513660046138ab565b611872565b6008546102a7906001600160a01b031681565b6102a76103773660046138ab565b61191e565b61038f61038a366004613a2c565b61197e565b604051908152602001610276565b6102556103ab366004613a55565b611a04565b610255611aac565b6102556103c6366004613a8c565b611ac0565b6103de6103d93660046139f8565b611b1e565b604051610276929190613ae9565b6103ff6103fa3660046139f8565b611bce565b6040516102769190613b3d565b61025561041a366004613b50565b611c41565b6007546001600160a01b03166102a7565b6102f861043e3660046138ab565b611e2f565b610456610451366004613c0e565b611e5f565b6040516102769190613c4f565b610287611edc565b610287611eeb565b610255610481366004613a55565b611ef8565b61048e611f0a565b604051610276929190613c9c565b6102556104aa366004613d12565b61203e565b61026a6104bd366004613a2c565b600e6020526000908152604090205460ff1681565b6103ff6104e03660046139f8565b6121c5565b6102556104f3366004613a2c565b612236565b61026a610506366004613a2c565b6001600160a01b03166000908152600e602052604090205460ff1690565b6102876105323660046138ab565b612260565b61038f6105453660046138ab565b61226b565b61038f60115481565b6009546102a7906001600160a01b031681565b61026a610574366004613d81565b61228c565b61058c610587366004613db4565b6122ec565b6040516102769190613e06565b6102556105a7366004613a2c565b61244a565b600a816040516105bc9190613ea6565b9081526040805160209281900383019020336000908152600390910190925290205460ff16156105ff57604051635327f26b60e01b815260040160405180910390fd5b600a8160405161060f9190613ea6565b90815260405190819003602001902054821461063e5760405163ad3973c160e01b815260040160405180910390fd5b6000606461064d84604b613ed8565b6106579190613f05565b9050806011600082825461066b9190613f19565b90915550506009546040516323b872dd60e01b8152336004820152306024820152604481018390526001600160a01b03909116906323b872dd906064016020604051808303816000875af11580156106c7573d6000803e3d6000fd5b505050506040513d601f19601f820116820180604052508101906106eb9190613f2c565b506009546008546001600160a01b03918216916323b872dd913391166107118588613f49565b6040516001600160e01b031960e086901b1681526001600160a01b03938416600482015292909116602483015260448201526064016020604051808303816000875af1158015610765573d6000803e3d6000fd5b505050506040513d601f19601f820116820180604052508101906107899190613f2c565b506000600a8360405161079c9190613ea6565b9081526040805160209281900383018120600201544293820193909352016040516020818303038152906040528051906020012060001c6107dd9190613f5c565b90506000600a846040516107f19190613ea6565b9081526020016040518091039020600201828154811061081357610813613f70565b90600052602060002001549050600a846040516108309190613ea6565b90815260200160405180910390206002016001600a866040516108539190613ea6565b908152604051908190036020019020600201546108709190613f49565b8154811061088057610880613f70565b9060005260206000200154600a8560405161089b9190613ea6565b908152602001604051809103902060020183815481106108bd576108bd613f70565b9060005260206000200181905550600a846040516108db9190613ea6565b90815260200160405180910390206002018054806108fb576108fb613f86565b60019003818190600052602060002001600090559055610a3133600a866040516109259190613ea6565b9081526020016040518091039020600401604051806040016040528060018152602001602f60f81b8152508473__$1bdba46fa44f06fa49315629a2a6224c43$__636900a3ae90916040518263ffffffff1660e01b815260040161098b91815260200190565b600060405180830381865af41580156109a8573d6000803e3d6000fd5b505050506040513d6000823e601f3d908101601f191682016040526109d09190810190613f9c565b60405180604001604052806005815260200164173539b7b760d91b815250604051602001610a0194939291906140b6565b60408051601f1981840301815291905260006001610a20600687613f05565b610a2a9190613f49565b88866124c3565b505060005b6005811015610cef576000600a84604051610a519190613ea6565b9081526040805160209281900383018120600101544293820193909352016040516020818303038152906040528051906020012060001c610a929190613f5c565b90506000600a85604051610aa69190613ea6565b90815260200160405180910390206001018281548110610ac857610ac8613f70565b90600052602060002001549050600a85604051610ae59190613ea6565b90815260200160405180910390206001016001600a87604051610b089190613ea6565b90815260405190819003602001902060010154610b259190613f49565b81548110610b3557610b35613f70565b9060005260206000200154600a86604051610b509190613ea6565b90815260200160405180910390206001018381548110610b7257610b72613f70565b9060005260206000200181905550600a85604051610b909190613ea6565b9081526020016040518091039020600101805480610bb057610bb0613f86565b60019003818190600052602060002001600090559055610cda33600a87604051610bda9190613ea6565b9081526020016040518091039020600401604051806040016040528060018152602001602f60f81b8152508473__$1bdba46fa44f06fa49315629a2a6224c43$__636900a3ae90916040518263ffffffff1660e01b8152600401610c4091815260200190565b600060405180830381865af4158015610c5d573d6000803e3d6000fd5b505050506040513d6000823e601f3d908101601f19168201604052610c859190810190613f9c565b60405180604001604052806005815260200164173539b7b760d91b815250604051602001610cb694939291906140b6565b60408051601f198184030181529190526001610cd3600686613f05565b89866124c3565b50508080610ce790614103565b915050610a36565b5081604051610cfe9190613ea6565b6040519081900381209033907f55d44f7f091f0389b4dcb1b6ae002ed20fe8229c546e6aaf1ccac2646cdf514c90600090a3505050565b6000610d40826125d0565b92915050565b606060008054610d5590614009565b80601f0160208091040260200160405190810160405280929190818152602001828054610d8190614009565b8015610dce5780601f10610da357610100808354040283529160200191610dce565b820191906000526020600020905b815481529060010190602001808311610db157829003601f168201915b5050505050905090565b6000610de3826125f5565b506000908152600460205260409020546001600160a01b031690565b6000610e0a8261191e565b9050806001600160a01b0316836001600160a01b031603610e7c5760405162461bcd60e51b815260206004820152602160248201527f4552433732313a20617070726f76616c20746f2063757272656e74206f776e656044820152603960f91b60648201526084015b60405180910390fd5b806001600160a01b0316610e8e612654565b6001600160a01b03161480610eaa5750610eaa81610574612654565b610f1c5760405162461bcd60e51b815260206004820152603d60248201527f4552433732313a20617070726f76652063616c6c6572206973206e6f7420746f60448201527f6b656e206f776e6572206f7220617070726f76656420666f7220616c6c0000006064820152608401610e73565b610f268383612663565b505050565b610f2683838361183f565b600d6020908152600084815260409020835180850183018051928152908301928501929092209152805482908110610f6d57600080fd5b90600052602060002090600602016000925092505050806000015490806001015490806002015490806003018054610fa490614009565b80601f0160208091040260200160405190810160405280929190818152602001828054610fd090614009565b801561101d5780601f10610ff25761010080835404028352916020019161101d565b820191906000526020600020905b81548152906001019060200180831161100057829003601f168201915b5050505050908060040154908060050154905086565b3361103d8361191e565b6001600160a01b031614611064576040516318fc232560e01b815260040160405180910390fd5b3361106e8261191e565b6001600160a01b0316146110955760405163364be83560e01b815260040160405180910390fd5b6000818152600b6020526040902060010154156110c55760405163d0286c2360e01b815260040160405180910390fd5b6000828152600b6020526040812060030180546110e190614009565b80601f016020809104026020016040519081016040528092919081815260200182805461110d90614009565b801561115a5780601f1061112f5761010080835404028352916020019161115a565b820191906000526020600020905b81548152906001019060200180831161113d57829003601f168201915b5050505050905060005b336000908152600d6020526040908190209051611182908490613ea6565b9081526040519081900360200190205460ff821610156113c8576000848152600b6020908152604080832060050154338452600d9092529182902091519091906111cd908590613ea6565b90815260200160405180910390208260ff16815481106111ef576111ef613f70565b906000526020600020906006020160050154036113b657336000908152600d6020526040908190209051611224908490613ea6565b90815260200160405180910390206001600d6000336001600160a01b03166001600160a01b03168152602001908152602001600020846040516112679190613ea6565b908152604051908190036020019020546112819190613f49565b8154811061129157611291613f70565b60009182526020808320338452600d909152604092839020925160069092020191906112be908590613ea6565b90815260200160405180910390208260ff16815481106112e0576112e0613f70565b906000526020600020906006020160008201548160000155600182015481600101556002820154816002015560038201816003019081611320919061416a565b5060048281015490820155600591820154910155336000908152600d6020526040908190209051611352908490613ea6565b908152602001604051809103902080548061136f5761136f613f86565b6000828152602081206006600019909301928302018181556001810182905560028101829055906113a360038301826136b6565b5060006004820181905560059091015590555b806113c081614246565b915050611164565b506113d2836126d1565b6000828152600b602052604081206004018054916113ef83614103565b9091555050336000908152600d60209081526040808320868452600b909252918290209151909161142591600390910190614265565b908152602001604051809103902060008154811061144557611445613f70565b60009182526020822060046006909202010180549161146383614103565b90915550506000828152600b6020526040902060040154600503610f26576000828152600b60205260408120600301805461149d90614009565b80601f01602080910402602001604051908101604052809291908181526020018280546114c990614009565b80156115165780601f106114eb57610100808354040283529160200191611516565b820191906000526020600020905b8154815290600101906020018083116114f957829003601f168201915b505050505090506007600c8260405161152f9190613ea6565b9081526040519081900360200190205410156116c857600c816040516115559190613ea6565b908152604051908190036020908101822080546001818101835560009283529282200180546001600160a01b0319163317905591600a91601491600c9061159d908790613ea6565b908152604051908190036020019020546115b79190613f49565b600781106115c7576115c7613f70565b602091828204019190069054906101000a900460ff1660ff16600a846040516115f09190613ea6565b9081526040519081900360200190205461160a9190613ed8565b6116149190613f05565b90506011548111156116395760405163090d760160e01b815260040160405180910390fd5b806011600082825461164b9190613f49565b909155505060095460405163a9059cbb60e01b8152336004820152602481018390526001600160a01b039091169063a9059cbb906044016020604051808303816000875af11580156116a1573d6000803e3d6000fd5b505050506040513d601f19601f820116820180604052508101906116c59190613f2c565b50505b6117db83600a836040516116dc9190613ea6565b908152604080519182900360209081018320838301835260018452602f60f81b848301526000898152600b9092529082902060050154915163348051d760e11b81526004918201939273__$1bdba46fa44f06fa49315629a2a6224c43$__92636900a3ae9261175092910190815260200190565b600060405180830381865af415801561176d573d6000803e3d6000fd5b505050506040513d6000823e601f3d908101601f191682016040526117959190810190613f9c565b6040518060400160405280600681526020016523173539b7b760d11b8152506040516020016117c794939291906140b6565b6040516020818303038152906040526126da565b600c816040516117eb9190613ea6565b9081526040519081900360200181205490611807908390613ea6565b6040519081900381209033907f953ec8b8176b9eb94e1561816a70bc231210aee5f1aaa59fdbad7915f9ad3c9690600090a450505050565b610f268383836040518060200160405280600081525061203e565b6118626127a5565b600f61186e8282614271565b5050565b6010818154811061188257600080fd5b90600052602060002001600091509050805461189d90614009565b80601f01602080910402602001604051908101604052809291908181526020018280546118c990614009565b80156119165780601f106118eb57610100808354040283529160200191611916565b820191906000526020600020905b8154815290600101906020018083116118f957829003601f168201915b505050505081565b6000818152600260205260408120546001600160a01b031680610d405760405162461bcd60e51b8152602060048201526018602482015277115490cdcc8c4e881a5b9d985b1a59081d1bdad95b88125160421b6044820152606401610e73565b60006001600160a01b0382166119e85760405162461bcd60e51b815260206004820152602960248201527f4552433732313a2061646472657373207a65726f206973206e6f7420612076616044820152683634b21037bbb732b960b91b6064820152608401610e73565b506001600160a01b031660009081526003602052604090205490565b611a0c6127a5565b6001600160a01b0382166000908152600e602052604090205481151560ff909116151503611a4d5760405163295d231d60e11b815260040160405180910390fd5b6001600160a01b0382166000818152600e6020908152604091829020805460ff191685151590811790915591519182527f4c0079b9bcd37cd5d29a13938effd97c881798cbc6bd52a3026a29d94b27d1bf910160405180910390a25050565b611ab46127a5565b611abe600061281e565b565b611ac86127a5565b600f611ad48482614271565b50600980546001600160a01b039384166001600160a01b0319918216179091556008805492909316911617905550336000908152600e60205260409020805460ff19166001179055565b8051602081830181018051600a8252928201919093012091528054600482018054919291611b4b90614009565b80601f0160208091040260200160405190810160405280929190818152602001828054611b7790614009565b8015611bc45780601f10611b9957610100808354040283529160200191611bc4565b820191906000526020600020905b815481529060010190602001808311611ba757829003601f168201915b5050505050905082565b6060600a82604051611be09190613ea6565b9081526040805191829003602090810183206001018054808302850183019093528284529190830182828015611c3557602002820191906000526020600020905b815481526020019060010190808311611c21575b50505050509050919050565b336000908152600e602052604090205460ff16611c7157604051630d87421760e11b815260040160405180910390fd5b655af3107a4000831015611c985760405163b04a217360e01b815260040160405180910390fd5b611ca3600683613f5c565b15611cc1576040516307fb5d6d60e01b815260040160405180910390fd5b82600a85604051611cd29190613ea6565b908152604051908190036020018120919091558190600a90611cf5908790613ea6565b90815260200160405180910390206004019081611d129190614271565b50601080546001810182556000919091527f1b6847dc741a1b0cd08d278845f9d819d87b734759afb55fe2de5cb82a9ae67201611d4f8582614271565b5060138054600181810183556000929092527f66de8ffda797e3de9c05e8fc57b3bf0ec28a930d40b0d285d93c06501cf6a090018490555b828111611e2857611d99600682613f5c565b600003611ddc57600a85604051611db09190613ea6565b908152604051602091819003820190206002018054600181018255600091825291902001819055611e16565b600a85604051611dec9190613ea6565b90815260405160209181900382019020600190810180549182018155600090815291909120018190555b80611e2081614103565b915050611d87565b5050505050565b600b60205260009081526040902080546001820154600283015460038401805493949293919291610fa490614009565b6060600c8383604051611e73929190614328565b9081526040805191829003602090810183208054808302850183019093528284529190830182828015611ecf57602002820191906000526020600020905b81546001600160a01b03168152600190910190602001808311611eb1575b5050505050905092915050565b606060018054610d5590614009565b600f805461189d90614009565b61186e611f03612654565b8383612870565b6060806010601381805480602002602001604051908101604052809291908181526020016000905b82821015611fde578382906000526020600020018054611f5190614009565b80601f0160208091040260200160405190810160405280929190818152602001828054611f7d90614009565b8015611fca5780601f10611f9f57610100808354040283529160200191611fca565b820191906000526020600020905b815481529060010190602001808311611fad57829003601f168201915b505050505081526020019060010190611f32565b5050505091508080548060200260200160405190810160405280929190818152602001828054801561202f57602002820191906000526020600020905b81548152602001906001019080831161201b575b50505050509050915091509091565b6000828152600b60205260408120600301805461205a90614009565b80601f016020809104026020016040519081016040528092919081815260200182805461208690614009565b80156120d35780601f106120a8576101008083540402835291602001916120d3565b820191906000526020600020905b8154815290600101906020018083116120b657829003601f168201915b505050505090506120e3816121c5565b511561210257604051631c5836a160e21b815260040160405180910390fd5b6000838152600b60205260409020600190810154900361217c57600a8160405161212c9190613ea6565b90815260408051602092819003830190206001600160a01b0387166000908152600390910190925290205460ff1661217757604051636341b66f60e11b815260040160405180910390fd5b6121ae565b6000838152600b60205260409020600401546005146121ae5760405163f959be5b60e01b815260040160405180910390fd5b6121b985858561293e565b611e2885858585612d18565b6060600a826040516121d79190613ea6565b9081526040805191829003602090810183206002018054808302850183019093528284529190830182828015611c355760200282019190600052602060002090815481526020019060010190808311611c215750505050509050919050565b61223e6127a5565b600880546001600160a01b0319166001600160a01b0392909216919091179055565b6060610d4082612d9d565b6013818154811061227b57600080fd5b600091825260209091200154905081565b60007358807bad0b376efc12f5ad86aac70e78ed67dead196001600160a01b038316016122bb57506001610d40565b6001600160a01b0380841660009081526005602090815260408083209386168352929052205460ff165b9392505050565b6001600160a01b0383166000908152600d6020526040908190209051606091906123199085908590614328565b9081526020016040518091039020805480602002602001604051908101604052809291908181526020016000905b8282101561243d57838290600052602060002090600602016040518060c001604052908160008201548152602001600182015481526020016002820154815260200160038201805461239890614009565b80601f01602080910402602001604051908101604052809291908181526020018280546123c490614009565b80156124115780601f106123e657610100808354040283529160200191612411565b820191906000526020600020905b8154815290600101906020018083116123f457829003601f168201915b505050505081526020016004820154815260200160058201548152505081526020019060010190612347565b5050505090509392505050565b6124526127a5565b6001600160a01b0381166124b75760405162461bcd60e51b815260206004820152602660248201527f4f776e61626c653a206e6577206f776e657220697320746865207a65726f206160448201526564647265737360d01b6064820152608401610e73565b6124c08161281e565b50565b601280549060019060006124d78385613f19565b90915550506000818152600b6020526040902081815560018101869055600281018590556003016125088482614271565b506000818152600b602090815260408083206005018590556001600160a01b038a168352600d909152908190209051612542908590613ea6565b90815260408051602092819003830190206000848152600b84529182208154600180820184559284529390922082546006909402019283558082015490830155600280820154908301559060038082019061259f9084018261416a565b50600482810154908201556005918201549101556125bd8782612ea0565b6125c781876126da565b50505050505050565b60006001600160e01b03198216632483248360e11b1480610d405750610d4082613039565b6000818152600260205260409020546001600160a01b03166124c05760405162461bcd60e51b8152602060048201526018602482015277115490cdcc8c4e881a5b9d985b1a59081d1bdad95b88125160421b6044820152606401610e73565b600061265e613089565b905090565b600081815260046020526040902080546001600160a01b0319166001600160a01b03841690811790915581906126988261191e565b6001600160a01b03167f8c5be1e5ebec7d5bd14f71427d1e84f3dd0314c0f7b2291e5b200ac8c7c3b92560405160405180910390a45050565b6124c0816130e5565b6000828152600260205260409020546001600160a01b03166127555760405162461bcd60e51b815260206004820152602e60248201527f45524337323155524953746f726167653a2055524920736574206f66206e6f6e60448201526d32bc34b9ba32b73a103a37b5b2b760911b6064820152608401610e73565b600082815260066020526040902061276d8282614271565b506040518281527ff8e1a15aba9398e019f0b49df1a4fde98ee17ae345cb5f6b5e2c27f5033e8ce79060200160405180910390a15050565b6127ad612654565b6001600160a01b03166127c86007546001600160a01b031690565b6001600160a01b031614611abe5760405162461bcd60e51b815260206004820181905260248201527f4f776e61626c653a2063616c6c6572206973206e6f7420746865206f776e65726044820152606401610e73565b600780546001600160a01b038381166001600160a01b0319831681179093556040519116919082907f8be0079c531659141344cd1fd0a4f28419497f9722a3daafe3b4186f6b6457e090600090a35050565b816001600160a01b0316836001600160a01b0316036128d15760405162461bcd60e51b815260206004820152601960248201527f4552433732313a20617070726f766520746f2063616c6c6572000000000000006044820152606401610e73565b6001600160a01b03838116600081815260056020908152604080832094871680845294825291829020805460ff191686151590811790915591519182527f17307eab39ab6107e8899845ad3d59bd9653f200f220920489ca2b5937696c31910160405180910390a3505050565b6000818152600b60205260408120600301805461295a90614009565b80601f016020809104026020016040519081016040528092919081815260200182805461298690614009565b80156129d35780601f106129a8576101008083540402835291602001916129d3565b820191906000526020600020905b8154815290600101906020018083116129b657829003601f168201915b5050505050905060005b6001600160a01b0385166000908152600d6020526040908190209051612a04908490613ea6565b9081526040519081900360200190205460ff82161015612c79576000838152600b60209081526040808320600501546001600160a01b0389168452600d909252918290209151909190612a58908590613ea6565b90815260200160405180910390208260ff1681548110612a7a57612a7a613f70565b90600052602060002090600602016005015403612c67576001600160a01b0385166000908152600d6020526040908190209051612ab8908490613ea6565b90815260200160405180910390206001600d6000886001600160a01b03166001600160a01b0316815260200190815260200160002084604051612afb9190613ea6565b90815260405190819003602001902054612b159190613f49565b81548110612b2557612b25613f70565b9060005260206000209060060201600d6000876001600160a01b03166001600160a01b0316815260200190815260200160002083604051612b669190613ea6565b90815260200160405180910390208260ff1681548110612b8857612b88613f70565b906000526020600020906006020160008201548160000155600182015481600101556002820154816002015560038201816003019081612bc8919061416a565b50600482810154908201556005918201549101556001600160a01b0385166000908152600d6020526040908190209051612c03908490613ea6565b9081526020016040518091039020805480612c2057612c20613f86565b600082815260208120600660001990930192830201818155600181018290556002810182905590612c5460038301826136b6565b5060006004820181905560059091015590555b80612c7181614246565b9150506129dd565b506001600160a01b0383166000908152600d6020526040908190209051612ca1908390613ea6565b90815260408051602092819003830190206000858152600b845291822081546001808201845592845293909220825460069094020192835580820154908301556002808201549083015590600380820190612cfe9084018261416a565b506004828101549082015560059182015491015550505050565b612d29612d23612654565b83613125565b612d8b5760405162461bcd60e51b815260206004820152602d60248201527f4552433732313a2063616c6c6572206973206e6f7420746f6b656e206f776e6560448201526c1c881bdc88185c1c1c9bdd9959609a1b6064820152608401610e73565b612d9784848484613183565b50505050565b6060612da8826125f5565b60008281526006602052604081208054612dc190614009565b80601f0160208091040260200160405190810160405280929190818152602001828054612ded90614009565b8015612e3a5780601f10612e0f57610100808354040283529160200191612e3a565b820191906000526020600020905b815481529060010190602001808311612e1d57829003601f168201915b505050505090506000612e4b6131b6565b90508051600003612e5d575092915050565b815115612e8f578082604051602001612e77929190614338565b60405160208183030381529060405292505050919050565b612e98846131c5565b949350505050565b6001600160a01b038216612ef65760405162461bcd60e51b815260206004820181905260248201527f4552433732313a206d696e7420746f20746865207a65726f20616464726573736044820152606401610e73565b6000818152600260205260409020546001600160a01b031615612f5b5760405162461bcd60e51b815260206004820152601c60248201527f4552433732313a20746f6b656e20616c7265616479206d696e746564000000006044820152606401610e73565b612f6960008383600161322b565b6000818152600260205260409020546001600160a01b031615612fce5760405162461bcd60e51b815260206004820152601c60248201527f4552433732313a20746f6b656e20616c7265616479206d696e746564000000006044820152606401610e73565b6001600160a01b038216600081815260036020908152604080832080546001019055848352600290915280822080546001600160a01b0319168417905551839291907fddf252ad1be2c89b69c2b068fc378daa952ba7f163c4a11628f55a4df523b3ef908290a45050565b60006001600160e01b031982166380ac58cd60e01b148061306a57506001600160e01b03198216635b5e139f60e01b145b80610d4057506301ffc9a760e01b6001600160e01b0319831614610d40565b60003033036130df57600080368080601f0160208091040260200160405190810160405280939291908181526020018383808284376000920191909152505050503601516001600160a01b031691506130e29050565b50335b90565b6130ee81613230565b6000818152600660205260409020805461310790614009565b1590506124c05760008181526006602052604081206124c0916136b6565b6000806131318361191e565b9050806001600160a01b0316846001600160a01b031614806131585750613158818561228c565b80612e985750836001600160a01b031661317184610dd8565b6001600160a01b031614949350505050565b61318e8484846132d3565b61319a84848484613444565b612d975760405162461bcd60e51b8152600401610e7390614367565b6060600f8054610d5590614009565b60606131d0826125f5565b60006131da6131b6565b905060008151116131fa57604051806020016040528060008152506122e5565b806132048461354c565b604051602001613215929190614338565b6040516020818303038152906040529392505050565b612d97565b600061323b8261191e565b905061324b81600084600161322b565b6132548261191e565b600083815260046020908152604080832080546001600160a01b03199081169091556001600160a01b0385168085526003845282852080546000190190558785526002909352818420805490911690555192935084927fddf252ad1be2c89b69c2b068fc378daa952ba7f163c4a11628f55a4df523b3ef908390a45050565b826001600160a01b03166132e68261191e565b6001600160a01b03161461330c5760405162461bcd60e51b8152600401610e73906143b9565b6001600160a01b03821661336e5760405162461bcd60e51b8152602060048201526024808201527f4552433732313a207472616e7366657220746f20746865207a65726f206164646044820152637265737360e01b6064820152608401610e73565b61337b838383600161322b565b826001600160a01b031661338e8261191e565b6001600160a01b0316146133b45760405162461bcd60e51b8152600401610e73906143b9565b600081815260046020908152604080832080546001600160a01b03199081169091556001600160a01b0387811680865260038552838620805460001901905590871680865283862080546001019055868652600290945282852080549092168417909155905184937fddf252ad1be2c89b69c2b068fc378daa952ba7f163c4a11628f55a4df523b3ef91a4505050565b60006001600160a01b0384163b1561354157836001600160a01b031663150b7a0261346d612654565b8786866040518563ffffffff1660e01b815260040161348f94939291906143fe565b6020604051808303816000875af19250505080156134ca575060408051601f3d908101601f191682019092526134c79181019061443b565b60015b613527573d8080156134f8576040519150601f19603f3d011682016040523d82523d6000602084013e6134fd565b606091505b50805160000361351f5760405162461bcd60e51b8152600401610e7390614367565b805181602001fd5b6001600160e01b031916630a85bd0160e11b149050612e98565b506001949350505050565b60606000613559836135de565b60010190506000816001600160401b0381111561357857613578613704565b6040519080825280601f01601f1916602001820160405280156135a2576020820181803683370190505b5090508181016020015b600019016f181899199a1a9b1b9c1cb0b131b232b360811b600a86061a8153600a85049450846135ac57509392505050565b60008072184f03e93ff9f4daa797ed6e38ed64bf6a1f0160401b831061361d5772184f03e93ff9f4daa797ed6e38ed64bf6a1f0160401b830492506040015b6d04ee2d6d415b85acef81000000008310613649576d04ee2d6d415b85acef8100000000830492506020015b662386f26fc10000831061366757662386f26fc10000830492506010015b6305f5e100831061367f576305f5e100830492506008015b612710831061369357612710830492506004015b606483106136a5576064830492506002015b600a8310610d405760010192915050565b5080546136c290614009565b6000825580601f106136d2575050565b601f0160209004906000526020600020908101906124c091905b8082111561370057600081556001016136ec565b5090565b634e487b7160e01b600052604160045260246000fd5b604051601f8201601f191681016001600160401b038111828210171561374257613742613704565b604052919050565b60006001600160401b0382111561376357613763613704565b50601f01601f191660200190565b600061378461377f8461374a565b61371a565b905082815283838301111561379857600080fd5b828260208301376000602084830101529392505050565b600082601f8301126137c057600080fd5b6122e583833560208501613771565b600080604083850312156137e257600080fd5b8235915060208301356001600160401b038111156137ff57600080fd5b61380b858286016137af565b9150509250929050565b6001600160e01b0319811681146124c057600080fd5b60006020828403121561383d57600080fd5b81356122e581613815565b60005b8381101561386357818101518382015260200161384b565b50506000910152565b60008151808452613884816020860160208601613848565b601f01601f19169290920160200192915050565b6020815260006122e5602083018461386c565b6000602082840312156138bd57600080fd5b5035919050565b80356001600160a01b03811681146138db57600080fd5b919050565b600080604083850312156138f357600080fd5b6138fc836138c4565b946020939093013593505050565b60008060006060848603121561391f57600080fd5b613928846138c4565b9250613936602085016138c4565b9150604084013590509250925092565b60008060006060848603121561395b57600080fd5b613964846138c4565b925060208401356001600160401b0381111561397f57600080fd5b61398b868287016137af565b925050604084013590509250925092565b86815285602082015284604082015260c0606082015260006139c160c083018661386c565b60808301949094525060a00152949350505050565b600080604083850312156139e957600080fd5b50508035926020909101359150565b600060208284031215613a0a57600080fd5b81356001600160401b03811115613a2057600080fd5b612e98848285016137af565b600060208284031215613a3e57600080fd5b6122e5826138c4565b80151581146124c057600080fd5b60008060408385031215613a6857600080fd5b613a71836138c4565b91506020830135613a8181613a47565b809150509250929050565b600080600060608486031215613aa157600080fd5b83356001600160401b03811115613ab757600080fd5b613ac3868287016137af565b935050613ad2602085016138c4565b9150613ae0604085016138c4565b90509250925092565b828152604060208201526000612e98604083018461386c565b600081518084526020808501945080840160005b83811015613b3257815187529582019590820190600101613b16565b509495945050505050565b6020815260006122e56020830184613b02565b60008060008060808587031215613b6657600080fd5b84356001600160401b0380821115613b7d57600080fd5b613b89888389016137af565b955060208701359450604087013593506060870135915080821115613bad57600080fd5b50613bba878288016137af565b91505092959194509250565b60008083601f840112613bd857600080fd5b5081356001600160401b03811115613bef57600080fd5b602083019150836020828501011115613c0757600080fd5b9250929050565b60008060208385031215613c2157600080fd5b82356001600160401b03811115613c3757600080fd5b613c4385828601613bc6565b90969095509350505050565b6020808252825182820181905260009190848201906040850190845b81811015613c905783516001600160a01b031683529284019291840191600101613c6b565b50909695505050505050565b6000604082016040835280855180835260608501915060608160051b8601019250602080880160005b83811015613cf357605f19888703018552613ce186835161386c565b95509382019390820190600101613cc5565b505085840381870152505050613d098185613b02565b95945050505050565b60008060008060808587031215613d2857600080fd5b613d31856138c4565b9350613d3f602086016138c4565b92506040850135915060608501356001600160401b03811115613d6157600080fd5b8501601f81018713613d7257600080fd5b613bba87823560208401613771565b60008060408385031215613d9457600080fd5b613d9d836138c4565b9150613dab602084016138c4565b90509250929050565b600080600060408486031215613dc957600080fd5b613dd2846138c4565b925060208401356001600160401b03811115613ded57600080fd5b613df986828701613bc6565b9497909650939450505050565b60006020808301818452808551808352604092508286019150828160051b87010184880160005b83811015613e9857603f19898403018552815160c081518552888201518986015287820151888601526060808301518282880152613e6d8388018261386c565b6080858101519089015260a09485015194909701939093525050509386019390860190600101613e2d565b509098975050505050505050565b60008251613eb8818460208701613848565b9190910192915050565b634e487b7160e01b600052601160045260246000fd5b8082028115828204841417610d4057610d40613ec2565b634e487b7160e01b600052601260045260246000fd5b600082613f1457613f14613eef565b500490565b80820180821115610d4057610d40613ec2565b600060208284031215613f3e57600080fd5b81516122e581613a47565b81810381811115610d4057610d40613ec2565b600082613f6b57613f6b613eef565b500690565b634e487b7160e01b600052603260045260246000fd5b634e487b7160e01b600052603160045260246000fd5b600060208284031215613fae57600080fd5b81516001600160401b03811115613fc457600080fd5b8201601f81018413613fd557600080fd5b8051613fe361377f8261374a565b818152856020838501011115613ff857600080fd5b613d09826020830160208601613848565b600181811c9082168061401d57607f821691505b60208210810361403d57634e487b7160e01b600052602260045260246000fd5b50919050565b6000815461405081614009565b60018281168015614068576001811461407d576140ac565b60ff19841687528215158302870194506140ac565b8560005260208060002060005b858110156140a35781548a82015290840190820161408a565b50505082870194505b5050505092915050565b60006140c28287614043565b85516140d2818360208a01613848565b85519101906140e5818360208901613848565b84519101906140f8818360208801613848565b019695505050505050565b60006001820161411557614115613ec2565b5060010190565b601f821115610f2657600081815260208120601f850160051c810160208610156141435750805b601f850160051c820191505b818110156141625782815560010161414f565b505050505050565b818103614175575050565b61417f8254614009565b6001600160401b0381111561419657614196613704565b6141aa816141a48454614009565b8461411c565b6000601f8211600181146141de57600083156141c65750848201545b600019600385901b1c1916600184901b178455611e28565b600085815260209020601f19841690600086815260209020845b8381101561421857828601548255600195860195909101906020016141f8565b50858310156142365781850154600019600388901b60f8161c191681555b5050505050600190811b01905550565b600060ff821660ff810361425c5761425c613ec2565b60010192915050565b60006122e58284614043565b81516001600160401b0381111561428a5761428a613704565b614298816141a48454614009565b602080601f8311600181146142cd57600084156142b55750858301515b600019600386901b1c1916600185901b178555614162565b600085815260208120601f198616915b828110156142fc578886015182559484019460019091019084016142dd565b508582101561423657939096015160001960f8600387901b161c19169092555050600190811b01905550565b8183823760009101908152919050565b6000835161434a818460208801613848565b83519083019061435e818360208801613848565b01949350505050565b60208082526032908201527f4552433732313a207472616e7366657220746f206e6f6e20455243373231526560408201527131b2b4bb32b91034b6b83632b6b2b73a32b960711b606082015260800190565b60208082526025908201527f4552433732313a207472616e736665722066726f6d20696e636f72726563742060408201526437bbb732b960d91b606082015260800190565b6001600160a01b03858116825284166020820152604081018390526080606082018190526000906144319083018461386c565b9695505050505050565b60006020828403121561444d57600080fd5b81516122e58161381556fea2646970667358221220448c7146ab9d3f5d0f9f46c781a1d078ebdc63cac00db8f9b51d690a10631ab764736f6c63430008140033",
  "linkReferences": {
    "contracts/libs/LibStringUtils.sol": {
      "LibStringUtils": [
        {
          "length": 20,
          "start": 3346
        },
        {
          "length": 20,
          "start": 4039
        },
        {
          "length": 20,
          "start": 6886
        }
      ]
    }
  },
  "deployedLinkReferences": {
    "contracts/libs/LibStringUtils.sol": {
      "LibStringUtils": [
        {
          "length": 20,
          "start": 2387
        },
        {
          "length": 20,
          "start": 3080
        },
        {
          "length": 20,
          "start": 5927
        }
      ]
    }
  }
}