{
  "_format": "hh-sol-artifact-1",
  "contractName": "GammaCardsV2",
  "sourceName": "contracts/GammaCardsV2.sol",
  "abi": [
    {
      "inputs": [
        {
          "internalType": "address",
          "name": "_daiTokenAddress",
          "type": "address"
        },
        {
          "internalType": "address",
          "name": "_packsContract",
          "type": "address"
        },
        {
          "internalType": "string",
          "name": "_baseUri",
          "type": "string"
        },
        {
          "internalType": "address",
          "name": "_signer",
          "type": "address"
        }
      ],
      "stateMutability": "nonpayable",
      "type": "constructor"
    },
    {
      "anonymous": false,
      "inputs": [
        {
          "indexed": false,
          "internalType": "address",
          "name": "player",
          "type": "address"
        },
        {
          "indexed": false,
          "internalType": "uint8",
          "name": "albumClass",
          "type": "uint8"
        }
      ],
      "name": "AlbumCompleted",
      "type": "event"
    },
    {
      "anonymous": false,
      "inputs": [
        {
          "indexed": true,
          "internalType": "address",
          "name": "owner",
          "type": "address"
        },
        {
          "indexed": true,
          "internalType": "address",
          "name": "approved",
          "type": "address"
        },
        {
          "indexed": true,
          "internalType": "uint256",
          "name": "tokenId",
          "type": "uint256"
        }
      ],
      "name": "Approval",
      "type": "event"
    },
    {
      "anonymous": false,
      "inputs": [
        {
          "indexed": true,
          "internalType": "address",
          "name": "owner",
          "type": "address"
        },
        {
          "indexed": true,
          "internalType": "address",
          "name": "operator",
          "type": "address"
        },
        {
          "indexed": false,
          "internalType": "bool",
          "name": "approved",
          "type": "bool"
        }
      ],
      "name": "ApprovalForAll",
      "type": "event"
    },
    {
      "anonymous": false,
      "inputs": [
        {
          "indexed": false,
          "internalType": "address",
          "name": "player",
          "type": "address"
        },
        {
          "indexed": false,
          "internalType": "uint256",
          "name": "cardTokenId",
          "type": "uint256"
        },
        {
          "indexed": false,
          "internalType": "uint256",
          "name": "albumTokenId",
          "type": "uint256"
        }
      ],
      "name": "CardPasted",
      "type": "event"
    },
    {
      "anonymous": false,
      "inputs": [
        {
          "indexed": false,
          "internalType": "address",
          "name": "receiver",
          "type": "address"
        },
        {
          "indexed": false,
          "internalType": "uint256",
          "name": "amount",
          "type": "uint256"
        }
      ],
      "name": "EmergencyWithdrawal",
      "type": "event"
    },
    {
      "anonymous": false,
      "inputs": [
        {
          "indexed": false,
          "internalType": "address",
          "name": "newSigner",
          "type": "address"
        }
      ],
      "name": "NewSigner",
      "type": "event"
    },
    {
      "anonymous": false,
      "inputs": [
        {
          "indexed": false,
          "internalType": "string",
          "name": "newMainUri",
          "type": "string"
        },
        {
          "indexed": false,
          "internalType": "string",
          "name": "newSecondaryUri",
          "type": "string"
        }
      ],
      "name": "NewUris",
      "type": "event"
    },
    {
      "anonymous": false,
      "inputs": [
        {
          "indexed": true,
          "internalType": "address",
          "name": "previousOwner",
          "type": "address"
        },
        {
          "indexed": true,
          "internalType": "address",
          "name": "newOwner",
          "type": "address"
        }
      ],
      "name": "OwnershipTransferred",
      "type": "event"
    },
    {
      "anonymous": false,
      "inputs": [
        {
          "indexed": false,
          "internalType": "address",
          "name": "player",
          "type": "address"
        },
        {
          "indexed": false,
          "internalType": "uint8[]",
          "name": "packData",
          "type": "uint8[]"
        },
        {
          "indexed": false,
          "internalType": "uint256",
          "name": "packNumber",
          "type": "uint256"
        }
      ],
      "name": "PackOpened",
      "type": "event"
    },
    {
      "anonymous": false,
      "inputs": [
        {
          "indexed": true,
          "internalType": "address",
          "name": "from",
          "type": "address"
        },
        {
          "indexed": true,
          "internalType": "address",
          "name": "to",
          "type": "address"
        },
        {
          "indexed": true,
          "internalType": "uint256",
          "name": "tokenId",
          "type": "uint256"
        }
      ],
      "name": "Transfer",
      "type": "event"
    },
    {
      "inputs": [],
      "name": "DAI_TOKEN",
      "outputs": [
        {
          "internalType": "address",
          "name": "",
          "type": "address"
        }
      ],
      "stateMutability": "view",
      "type": "function"
    },
    {
      "inputs": [
        {
          "internalType": "address",
          "name": "to",
          "type": "address"
        },
        {
          "internalType": "uint256",
          "name": "tokenId",
          "type": "uint256"
        }
      ],
      "name": "approve",
      "outputs": [],
      "stateMutability": "nonpayable",
      "type": "function"
    },
    {
      "inputs": [
        {
          "internalType": "address",
          "name": "owner",
          "type": "address"
        }
      ],
      "name": "balanceOf",
      "outputs": [
        {
          "internalType": "uint256",
          "name": "",
          "type": "uint256"
        }
      ],
      "stateMutability": "view",
      "type": "function"
    },
    {
      "inputs": [],
      "name": "baseUri",
      "outputs": [
        {
          "internalType": "string",
          "name": "",
          "type": "string"
        }
      ],
      "stateMutability": "view",
      "type": "function"
    },
    {
      "inputs": [
        {
          "internalType": "uint256",
          "name": "tokenId",
          "type": "uint256"
        }
      ],
      "name": "burn",
      "outputs": [],
      "stateMutability": "nonpayable",
      "type": "function"
    },
    {
      "inputs": [
        {
          "internalType": "uint8[]",
          "name": "cardNumbers",
          "type": "uint8[]"
        }
      ],
      "name": "burnCards",
      "outputs": [],
      "stateMutability": "nonpayable",
      "type": "function"
    },
    {
      "inputs": [
        {
          "internalType": "address",
          "name": "user",
          "type": "address"
        }
      ],
      "name": "burnedCards",
      "outputs": [
        {
          "internalType": "uint256",
          "name": "amount",
          "type": "uint256"
        }
      ],
      "stateMutability": "view",
      "type": "function"
    },
    {
      "inputs": [
        {
          "internalType": "uint256",
          "name": "tokenId",
          "type": "uint256"
        }
      ],
      "name": "cards",
      "outputs": [
        {
          "internalType": "uint256",
          "name": "tokenId",
          "type": "uint256"
        },
        {
          "internalType": "uint256",
          "name": "number",
          "type": "uint256"
        },
        {
          "internalType": "bool",
          "name": "pasted",
          "type": "bool"
        },
        {
          "internalType": "uint8",
          "name": "class",
          "type": "uint8"
        },
        {
          "internalType": "uint256",
          "name": "completion",
          "type": "uint256"
        }
      ],
      "stateMutability": "view",
      "type": "function"
    },
    {
      "inputs": [
        {
          "internalType": "address",
          "name": "user",
          "type": "address"
        },
        {
          "internalType": "uint8",
          "name": "cardNumber",
          "type": "uint8"
        }
      ],
      "name": "cardsByUser",
      "outputs": [
        {
          "internalType": "uint8",
          "name": "amount",
          "type": "uint8"
        }
      ],
      "stateMutability": "view",
      "type": "function"
    },
    {
      "inputs": [
        {
          "internalType": "uint256",
          "name": "cardNumber",
          "type": "uint256"
        }
      ],
      "name": "cardsInventory",
      "outputs": [
        {
          "internalType": "uint256",
          "name": "amount",
          "type": "uint256"
        }
      ],
      "stateMutability": "view",
      "type": "function"
    },
    {
      "inputs": [
        {
          "internalType": "uint256",
          "name": "newPackPrice",
          "type": "uint256"
        }
      ],
      "name": "changePackPrice",
      "outputs": [],
      "stateMutability": "nonpayable",
      "type": "function"
    },
    {
      "inputs": [
        {
          "internalType": "uint256",
          "name": "amount",
          "type": "uint256"
        }
      ],
      "name": "emergencyWithdraw",
      "outputs": [],
      "stateMutability": "nonpayable",
      "type": "function"
    },
    {
      "inputs": [],
      "name": "escrow",
      "outputs": [
        {
          "internalType": "address",
          "name": "",
          "type": "address"
        }
      ],
      "stateMutability": "view",
      "type": "function"
    },
    {
      "inputs": [],
      "name": "finishAlbum",
      "outputs": [],
      "stateMutability": "nonpayable",
      "type": "function"
    },
    {
      "inputs": [
        {
          "internalType": "uint256",
          "name": "tokenId",
          "type": "uint256"
        }
      ],
      "name": "getApproved",
      "outputs": [
        {
          "internalType": "address",
          "name": "",
          "type": "address"
        }
      ],
      "stateMutability": "view",
      "type": "function"
    },
    {
      "inputs": [
        {
          "internalType": "address",
          "name": "user",
          "type": "address"
        }
      ],
      "name": "getCardsByUser",
      "outputs": [
        {
          "internalType": "uint8[]",
          "name": "",
          "type": "uint8[]"
        },
        {
          "internalType": "uint8[]",
          "name": "",
          "type": "uint8[]"
        }
      ],
      "stateMutability": "view",
      "type": "function"
    },
    {
      "inputs": [
        {
          "internalType": "address",
          "name": "owner",
          "type": "address"
        },
        {
          "internalType": "address",
          "name": "operator",
          "type": "address"
        }
      ],
      "name": "isApprovedForAll",
      "outputs": [
        {
          "internalType": "bool",
          "name": "",
          "type": "bool"
        }
      ],
      "stateMutability": "view",
      "type": "function"
    },
    {
      "inputs": [],
      "name": "mainAlbumPrize",
      "outputs": [
        {
          "internalType": "uint256",
          "name": "",
          "type": "uint256"
        }
      ],
      "stateMutability": "view",
      "type": "function"
    },
    {
      "inputs": [],
      "name": "mainUri",
      "outputs": [
        {
          "internalType": "string",
          "name": "",
          "type": "string"
        }
      ],
      "stateMutability": "view",
      "type": "function"
    },
    {
      "inputs": [
        {
          "internalType": "uint8",
          "name": "cardNum",
          "type": "uint8"
        }
      ],
      "name": "mintCard",
      "outputs": [],
      "stateMutability": "nonpayable",
      "type": "function"
    },
    {
      "inputs": [],
      "name": "name",
      "outputs": [
        {
          "internalType": "string",
          "name": "",
          "type": "string"
        }
      ],
      "stateMutability": "view",
      "type": "function"
    },
    {
      "inputs": [
        {
          "internalType": "uint256",
          "name": "packNumber",
          "type": "uint256"
        },
        {
          "internalType": "uint8[]",
          "name": "packData",
          "type": "uint8[]"
        },
        {
          "internalType": "bytes",
          "name": "signature",
          "type": "bytes"
        }
      ],
      "name": "openPack",
      "outputs": [],
      "stateMutability": "nonpayable",
      "type": "function"
    },
    {
      "inputs": [],
      "name": "owner",
      "outputs": [
        {
          "internalType": "address",
          "name": "",
          "type": "address"
        }
      ],
      "stateMutability": "view",
      "type": "function"
    },
    {
      "inputs": [
        {
          "internalType": "uint256",
          "name": "tokenId",
          "type": "uint256"
        }
      ],
      "name": "ownerOf",
      "outputs": [
        {
          "internalType": "address",
          "name": "",
          "type": "address"
        }
      ],
      "stateMutability": "view",
      "type": "function"
    },
    {
      "inputs": [],
      "name": "packPrice",
      "outputs": [
        {
          "internalType": "uint256",
          "name": "",
          "type": "uint256"
        }
      ],
      "stateMutability": "view",
      "type": "function"
    },
    {
      "inputs": [],
      "name": "packsContract",
      "outputs": [
        {
          "internalType": "contract IGammaPacks",
          "name": "",
          "type": "address"
        }
      ],
      "stateMutability": "view",
      "type": "function"
    },
    {
      "inputs": [],
      "name": "prizesBalance",
      "outputs": [
        {
          "internalType": "uint256",
          "name": "",
          "type": "uint256"
        }
      ],
      "stateMutability": "view",
      "type": "function"
    },
    {
      "inputs": [
        {
          "internalType": "uint256",
          "name": "amount",
          "type": "uint256"
        }
      ],
      "name": "receivePrizesBalance",
      "outputs": [],
      "stateMutability": "nonpayable",
      "type": "function"
    },
    {
      "inputs": [],
      "name": "renounceOwnership",
      "outputs": [],
      "stateMutability": "nonpayable",
      "type": "function"
    },
    {
      "inputs": [
        {
          "internalType": "address",
          "name": "from",
          "type": "address"
        },
        {
          "internalType": "address",
          "name": "to",
          "type": "address"
        },
        {
          "internalType": "uint256",
          "name": "tokenId",
          "type": "uint256"
        }
      ],
      "name": "safeTransferFrom",
      "outputs": [],
      "stateMutability": "nonpayable",
      "type": "function"
    },
    {
      "inputs": [
        {
          "internalType": "address",
          "name": "from",
          "type": "address"
        },
        {
          "internalType": "address",
          "name": "to",
          "type": "address"
        },
        {
          "internalType": "uint256",
          "name": "tokenId",
          "type": "uint256"
        },
        {
          "internalType": "bytes",
          "name": "data",
          "type": "bytes"
        }
      ],
      "name": "safeTransferFrom",
      "outputs": [],
      "stateMutability": "nonpayable",
      "type": "function"
    },
    {
      "inputs": [],
      "name": "secondaryAlbumPrize",
      "outputs": [
        {
          "internalType": "uint256",
          "name": "",
          "type": "uint256"
        }
      ],
      "stateMutability": "view",
      "type": "function"
    },
    {
      "inputs": [],
      "name": "secondaryUri",
      "outputs": [
        {
          "internalType": "string",
          "name": "",
          "type": "string"
        }
      ],
      "stateMutability": "view",
      "type": "function"
    },
    {
      "inputs": [
        {
          "internalType": "address",
          "name": "seller",
          "type": "address"
        },
        {
          "internalType": "uint8",
          "name": "sellerCard",
          "type": "uint8"
        },
        {
          "internalType": "address",
          "name": "buyer",
          "type": "address"
        }
      ],
      "name": "sendCard",
      "outputs": [],
      "stateMutability": "nonpayable",
      "type": "function"
    },
    {
      "inputs": [
        {
          "internalType": "address",
          "name": "operator",
          "type": "address"
        },
        {
          "internalType": "bool",
          "name": "approved",
          "type": "bool"
        }
      ],
      "name": "setApprovalForAll",
      "outputs": [],
      "stateMutability": "nonpayable",
      "type": "function"
    },
    {
      "inputs": [
        {
          "internalType": "address",
          "name": "_escrow",
          "type": "address"
        }
      ],
      "name": "setEscrow",
      "outputs": [],
      "stateMutability": "nonpayable",
      "type": "function"
    },
    {
      "inputs": [
        {
          "internalType": "address",
          "name": "newSigner",
          "type": "address"
        }
      ],
      "name": "setSigner",
      "outputs": [],
      "stateMutability": "nonpayable",
      "type": "function"
    },
    {
      "inputs": [
        {
          "internalType": "string",
          "name": "newMainUri",
          "type": "string"
        },
        {
          "internalType": "string",
          "name": "newSecondaryUri",
          "type": "string"
        }
      ],
      "name": "setUris",
      "outputs": [],
      "stateMutability": "nonpayable",
      "type": "function"
    },
    {
      "inputs": [],
      "name": "signer",
      "outputs": [
        {
          "internalType": "address",
          "name": "",
          "type": "address"
        }
      ],
      "stateMutability": "view",
      "type": "function"
    },
    {
      "inputs": [
        {
          "internalType": "bytes4",
          "name": "interfaceId",
          "type": "bytes4"
        }
      ],
      "name": "supportsInterface",
      "outputs": [
        {
          "internalType": "bool",
          "name": "",
          "type": "bool"
        }
      ],
      "stateMutability": "view",
      "type": "function"
    },
    {
      "inputs": [],
      "name": "symbol",
      "outputs": [
        {
          "internalType": "string",
          "name": "",
          "type": "string"
        }
      ],
      "stateMutability": "view",
      "type": "function"
    },
    {
      "inputs": [],
      "name": "testAddCards",
      "outputs": [],
      "stateMutability": "nonpayable",
      "type": "function"
    },
    {
      "inputs": [
        {
          "internalType": "uint256",
          "name": "tokenId",
          "type": "uint256"
        }
      ],
      "name": "tokenURI",
      "outputs": [
        {
          "internalType": "string",
          "name": "",
          "type": "string"
        }
      ],
      "stateMutability": "view",
      "type": "function"
    },
    {
      "inputs": [
        {
          "internalType": "address",
          "name": "to",
          "type": "address"
        },
        {
          "internalType": "uint8",
          "name": "cardNumber",
          "type": "uint8"
        }
      ],
      "name": "transferCard",
      "outputs": [],
      "stateMutability": "nonpayable",
      "type": "function"
    },
    {
      "inputs": [
        {
          "internalType": "address",
          "name": "to",
          "type": "address"
        },
        {
          "internalType": "uint8[]",
          "name": "cardNumbers",
          "type": "uint8[]"
        }
      ],
      "name": "transferCards",
      "outputs": [],
      "stateMutability": "nonpayable",
      "type": "function"
    },
    {
      "inputs": [
        {
          "internalType": "address",
          "name": "from",
          "type": "address"
        },
        {
          "internalType": "address",
          "name": "to",
          "type": "address"
        },
        {
          "internalType": "uint256",
          "name": "tokenId",
          "type": "uint256"
        }
      ],
      "name": "transferFrom",
      "outputs": [],
      "stateMutability": "nonpayable",
      "type": "function"
    },
    {
      "inputs": [
        {
          "internalType": "address",
          "name": "offeror",
          "type": "address"
        },
        {
          "internalType": "uint8",
          "name": "oferrorCard",
          "type": "uint8"
        },
        {
          "internalType": "address",
          "name": "acceptor",
          "type": "address"
        },
        {
          "internalType": "uint8",
          "name": "acceptorCard",
          "type": "uint8"
        }
      ],
      "name": "transferFromEscrow",
      "outputs": [],
      "stateMutability": "nonpayable",
      "type": "function"
    },
    {
      "inputs": [
        {
          "internalType": "address",
          "name": "newOwner",
          "type": "address"
        }
      ],
      "name": "transferOwnership",
      "outputs": [],
      "stateMutability": "nonpayable",
      "type": "function"
    }
  ],
  "bytecode": "0x60a06040526710a741a462780000600c553480156200001d57600080fd5b50604051620084553803806200845583398181016040528101906200004391906200067c565b6040518060400160405280600a81526020017f47616d6d614361726473000000000000000000000000000000000000000000008152506040518060400160405280600681526020017f4e4f465f474300000000000000000000000000000000000000000000000000008152508160009081620000c0919062000958565b508060019081620000d2919062000958565b505050620000f5620000e9620003b660201b60201c565b620003be60201b60201c565b82600860006101000a81548173ffffffffffffffffffffffffffffffffffffffff021916908373ffffffffffffffffffffffffffffffffffffffff1602179055508373ffffffffffffffffffffffffffffffffffffffff1660808173ffffffffffffffffffffffffffffffffffffffff168152505081600e90816200017b919062000958565b50600e6040518060400160405280600181526020017f2f000000000000000000000000000000000000000000000000000000000000008152506040518060400160405280600381526020017f31323000000000000000000000000000000000000000000000000000000000008152506040518060400160405280600681526020017f462e6a736f6e000000000000000000000000000000000000000000000000000081525060405160200162000235949392919062000b30565b604051602081830303815290604052600f908162000254919062000958565b50600e6040518060400160405280600181526020017f2f000000000000000000000000000000000000000000000000000000000000008152506040518060400160405280600381526020017f31323100000000000000000000000000000000000000000000000000000000008152506040518060400160405280600681526020017f462e6a736f6e00000000000000000000000000000000000000000000000000008152506040516020016200030e949392919062000b30565b604051602081830303815290604052601090816200032d919062000958565b5080600a60006101000a81548173ffffffffffffffffffffffffffffffffffffffff021916908373ffffffffffffffffffffffffffffffffffffffff16021790555060005b607a811015620003ab57600160116000838152602001908152602001600020819055508080620003a29062000ba5565b91505062000372565b505050505062000bf2565b600033905090565b6000600760009054906101000a900473ffffffffffffffffffffffffffffffffffffffff16905081600760006101000a81548173ffffffffffffffffffffffffffffffffffffffff021916908373ffffffffffffffffffffffffffffffffffffffff1602179055508173ffffffffffffffffffffffffffffffffffffffff168173ffffffffffffffffffffffffffffffffffffffff167f8be0079c531659141344cd1fd0a4f28419497f9722a3daafe3b4186f6b6457e060405160405180910390a35050565b6000604051905090565b600080fd5b600080fd5b600073ffffffffffffffffffffffffffffffffffffffff82169050919050565b6000620004c58262000498565b9050919050565b620004d781620004b8565b8114620004e357600080fd5b50565b600081519050620004f781620004cc565b92915050565b600080fd5b600080fd5b6000601f19601f8301169050919050565b7f4e487b7100000000000000000000000000000000000000000000000000000000600052604160045260246000fd5b620005528262000507565b810181811067ffffffffffffffff8211171562000574576200057362000518565b5b80604052505050565b60006200058962000484565b905062000597828262000547565b919050565b600067ffffffffffffffff821115620005ba57620005b962000518565b5b620005c58262000507565b9050602081019050919050565b60005b83811015620005f2578082015181840152602081019050620005d5565b60008484015250505050565b6000620006156200060f846200059c565b6200057d565b90508281526020810184848401111562000634576200063362000502565b5b62000641848285620005d2565b509392505050565b600082601f830112620006615762000660620004fd565b5b815162000673848260208601620005fe565b91505092915050565b600080600080608085870312156200069957620006986200048e565b5b6000620006a987828801620004e6565b9450506020620006bc87828801620004e6565b935050604085015167ffffffffffffffff811115620006e057620006df62000493565b5b620006ee8782880162000649565b92505060606200070187828801620004e6565b91505092959194509250565b600081519050919050565b7f4e487b7100000000000000000000000000000000000000000000000000000000600052602260045260246000fd5b600060028204905060018216806200076057607f821691505b60208210810362000776576200077562000718565b5b50919050565b60008190508160005260206000209050919050565b60006020601f8301049050919050565b600082821b905092915050565b600060088302620007e07fffffffffffffffffffffffffffffffffffffffffffffffffffffffffffffffff82620007a1565b620007ec8683620007a1565b95508019841693508086168417925050509392505050565b6000819050919050565b6000819050919050565b600062000839620008336200082d8462000804565b6200080e565b62000804565b9050919050565b6000819050919050565b620008558362000818565b6200086d620008648262000840565b848454620007ae565b825550505050565b600090565b6200088462000875565b620008918184846200084a565b505050565b5b81811015620008b957620008ad6000826200087a565b60018101905062000897565b5050565b601f8211156200090857620008d2816200077c565b620008dd8462000791565b81016020851015620008ed578190505b62000905620008fc8562000791565b83018262000896565b50505b505050565b600082821c905092915050565b60006200092d600019846008026200090d565b1980831691505092915050565b60006200094883836200091a565b9150826002028217905092915050565b62000963826200070d565b67ffffffffffffffff8111156200097f576200097e62000518565b5b6200098b825462000747565b62000998828285620008bd565b600060209050601f831160018114620009d05760008415620009bb578287015190505b620009c785826200093a565b86555062000a37565b601f198416620009e0866200077c565b60005b8281101562000a0a57848901518255600182019150602085019450602081019050620009e3565b8683101562000a2a578489015162000a26601f8916826200091a565b8355505b6001600288020188555050505b505050505050565b600081905092915050565b60008190508160005260206000209050919050565b6000815462000a6e8162000747565b62000a7a818662000a3f565b9450600182166000811462000a98576001811462000aae5762000ae5565b60ff198316865281151582028601935062000ae5565b62000ab98562000a4a565b60005b8381101562000add5781548189015260018201915060208101905062000abc565b838801955050505b50505092915050565b600081519050919050565b600062000b068262000aee565b62000b12818562000a3f565b935062000b24818560208601620005d2565b80840191505092915050565b600062000b3e828762000a5f565b915062000b4c828662000af9565b915062000b5a828562000af9565b915062000b68828462000af9565b915081905095945050505050565b7f4e487b7100000000000000000000000000000000000000000000000000000000600052601160045260246000fd5b600062000bb28262000804565b91507fffffffffffffffffffffffffffffffffffffffffffffffffffffffffffffffff820362000be75762000be662000b76565b5b600182019050919050565b60805161783262000c236000396000818161166a01528181612062015281816127d5015261353801526178326000f3fe608060405234801561001057600080fd5b50600436106102a05760003560e01c80638da5cb5b11610167578063b88d4fde116100ce578063e1883c6e11610087578063e1883c6e146107ea578063e2fdcc1714610806578063e5db587a14610824578063e606df8714610842578063e985e9c514610860578063f2fde38b14610890576102a0565b8063b88d4fde1461072a578063bf400a6a14610746578063c10c354614610762578063c3461c071461077e578063c87b56dd1461079c578063dec3f6d9146107cc576102a0565b80639c7f707f116101205780639c7f707f146106925780639d52fbcb146106ae5780639f4415d8146106ca578063a1af8ad4146106e8578063a22cb46514610704578063aaaeca1714610720576102a0565b80638da5cb5b146105dc5780638dc10768146105fa5780638dd8be471461062e5780639038f4141461064c57806395d89b41146106565780639abc832014610674576102a0565b806342842e0e1161020b5780636c19e783116101c45780636c19e7831461050a57806370a0823114610526578063715018a6146105565780637e50fa8f14610560578063809eb355146105905780638ba526fc146105c0576102a0565b806342842e0e1461043857806342966c6814610454578063483823e8146104705780635312ea8e1461048e5780635dde20d8146104aa5780636352211e146104da576102a0565b806320965a5f1161025d57806320965a5f1461038c578063238ac933146103a857806323b872dd146103c6578063267b841d146103e25780632ca699e7146103fe578063335c8b631461041a576102a0565b806301ffc9a7146102a55780630435dcaf146102d557806306fdde0314610306578063081812fc14610324578063095ea7b3146103545780630d8f580814610370575b600080fd5b6102bf60048036038101906102ba919061500c565b6108ac565b6040516102cc9190615054565b60405180910390f35b6102ef60048036038101906102ea91906150cd565b61098e565b6040516102fd9291906151c5565b60405180910390f35b61030e610cf0565b60405161031b919061528c565b60405180910390f35b61033e600480360381019061033991906152e4565b610d82565b60405161034b9190615320565b60405180910390f35b61036e6004803603810190610369919061533b565b610dc8565b005b61038a600480360381019061038591906153a7565b610edf565b005b6103a660048036038101906103a19190615473565b6112f7565b005b6103b061174e565b6040516103bd9190615320565b60405180910390f35b6103e060048036038101906103db91906154c0565b611774565b005b6103fc60048036038101906103f791906156a7565b6117d4565b005b61041860048036038101906104139190615737565b611cfa565b005b610422611f9c565b60405161042f9190615786565b60405180910390f35b610452600480360381019061044d91906154c0565b611fa2565b005b61046e600480360381019061046991906152e4565b611fc2565b005b61047861201e565b6040516104859190615786565b60405180910390f35b6104a860048036038101906104a391906152e4565b61202a565b005b6104c460048036038101906104bf91906152e4565b61213b565b6040516104d19190615786565b60405180910390f35b6104f460048036038101906104ef91906152e4565b612153565b6040516105019190615320565b60405180910390f35b610524600480360381019061051f91906150cd565b6121d9565b005b610540600480360381019061053b91906150cd565b61225c565b60405161054d9190615786565b60405180910390f35b61055e612313565b005b61057a600480360381019061057591906150cd565b612327565b6040516105879190615786565b60405180910390f35b6105aa60048036038101906105a59190615737565b61233f565b6040516105b791906157b0565b60405180910390f35b6105da60048036038101906105d591906152e4565b61236e565b005b6105e461241a565b6040516105f19190615320565b60405180910390f35b610614600480360381019061060f91906152e4565b612444565b6040516106259594939291906157cb565b60405180910390f35b610636612494565b604051610643919061587d565b60405180910390f35b6106546124ba565b005b61065e6128b7565b60405161066b919061528c565b60405180910390f35b61067c612949565b604051610689919061528c565b60405180910390f35b6106ac60048036038101906106a7919061594d565b6129d7565b005b6106c860048036038101906106c391906159c5565b612a3c565b005b6106d2612c92565b6040516106df9190615786565b60405180910390f35b61070260048036038101906106fd9190615a18565b612c9e565b005b61071e60048036038101906107199190615aa4565b612fe4565b005b610728612ffa565b005b610744600480360381019061073f9190615b85565b6130ab565b005b610760600480360381019061075b9190615c08565b61310d565b005b61077c600480360381019061077791906150cd565b6132f6565b005b610786613342565b604051610793919061528c565b60405180910390f35b6107b660048036038101906107b191906152e4565b6133d0565b6040516107c3919061528c565b60405180910390f35b6107d46133e2565b6040516107e1919061528c565b60405180910390f35b61080460048036038101906107ff91906152e4565b613470565b005b61080e61350a565b60405161081b9190615320565b60405180910390f35b61082c613530565b6040516108399190615786565b60405180910390f35b61084a613536565b6040516108579190615320565b60405180910390f35b61087a60048036038101906108759190615c35565b61355a565b6040516108879190615054565b60405180910390f35b6108aa60048036038101906108a591906150cd565b6135ee565b005b60007f80ac58cd000000000000000000000000000000000000000000000000000000007bffffffffffffffffffffffffffffffffffffffffffffffffffffffff1916827bffffffffffffffffffffffffffffffffffffffffffffffffffffffff1916148061097757507f5b5e139f000000000000000000000000000000000000000000000000000000007bffffffffffffffffffffffffffffffffffffffffffffffffffffffff1916827bffffffffffffffffffffffffffffffffffffffffffffffffffffffff1916145b80610987575061098682613671565b5b9050919050565b6060806000607967ffffffffffffffff8111156109ae576109ad615513565b5b6040519080825280602002602001820160405280156109dc5781602001602082028036833780820191505090505b5090506000607967ffffffffffffffff8111156109fc576109fb615513565b5b604051908082528060200260200182016040528015610a2a5781602001602082028036833780820191505090505b509050600080600190505b60788160ff1611610b8a576000601360008973ffffffffffffffffffffffffffffffffffffffff1673ffffffffffffffffffffffffffffffffffffffff16815260200190815260200160002060008360ff1660ff16815260200190815260200160002060009054906101000a900460ff1660ff161115610b775780848360ff1681518110610ac657610ac5615c75565b5b602002602001019060ff16908160ff1681525050601360008873ffffffffffffffffffffffffffffffffffffffff1673ffffffffffffffffffffffffffffffffffffffff16815260200190815260200160002060008260ff1660ff16815260200190815260200160002060009054906101000a900460ff16838360ff1681518110610b5457610b53615c75565b5b602002602001019060ff16908160ff16815250508180610b7390615cd3565b9250505b8080610b8290615cd3565b915050610a35565b5060008160ff1667ffffffffffffffff811115610baa57610ba9615513565b5b604051908082528060200260200182016040528015610bd85781602001602082028036833780820191505090505b50905060008260ff1667ffffffffffffffff811115610bfa57610bf9615513565b5b604051908082528060200260200182016040528015610c285781602001602082028036833780820191505090505b50905060005b8360ff168160ff161015610cdf57858160ff1681518110610c5257610c51615c75565b5b6020026020010151838260ff1681518110610c7057610c6f615c75565b5b602002602001019060ff16908160ff1681525050848160ff1681518110610c9a57610c99615c75565b5b6020026020010151828260ff1681518110610cb857610cb7615c75565b5b602002602001019060ff16908160ff16815250508080610cd790615cd3565b915050610c2e565b508181965096505050505050915091565b606060008054610cff90615d2b565b80601f0160208091040260200160405190810160405280929190818152602001828054610d2b90615d2b565b8015610d785780601f10610d4d57610100808354040283529160200191610d78565b820191906000526020600020905b815481529060010190602001808311610d5b57829003601f168201915b5050505050905090565b6000610d8d826136db565b6004600083815260200190815260200160002060009054906101000a900473ffffffffffffffffffffffffffffffffffffffff169050919050565b6000610dd382612153565b90508073ffffffffffffffffffffffffffffffffffffffff168373ffffffffffffffffffffffffffffffffffffffff1603610e43576040517f08c379a0000000000000000000000000000000000000000000000000000000008152600401610e3a90615dce565b60405180910390fd5b8073ffffffffffffffffffffffffffffffffffffffff16610e62613726565b73ffffffffffffffffffffffffffffffffffffffff161480610e915750610e9081610e8b613726565b61355a565b5b610ed0576040517f08c379a0000000000000000000000000000000000000000000000000000000008152600401610ec790615e60565b60405180910390fd5b610eda838361372e565b505050565b600b60009054906101000a900473ffffffffffffffffffffffffffffffffffffffff1673ffffffffffffffffffffffffffffffffffffffff163373ffffffffffffffffffffffffffffffffffffffff1614610f6f576040517f08c379a0000000000000000000000000000000000000000000000000000000008152600401610f6690615ecc565b60405180910390fd5b6000601360008673ffffffffffffffffffffffffffffffffffffffff1673ffffffffffffffffffffffffffffffffffffffff16815260200190815260200160002060008560ff1660ff16815260200190815260200160002060009054906101000a900460ff1660ff1611611018576040517f08c379a000000000000000000000000000000000000000000000000000000000815260040161100f90615f38565b60405180910390fd5b6000601360008473ffffffffffffffffffffffffffffffffffffffff1673ffffffffffffffffffffffffffffffffffffffff16815260200190815260200160002060008360ff1660ff16815260200190815260200160002060009054906101000a900460ff1660ff16116110c1576040517f08c379a00000000000000000000000000000000000000000000000000000000081526004016110b890615fa4565b60405180910390fd5b601360008573ffffffffffffffffffffffffffffffffffffffff1673ffffffffffffffffffffffffffffffffffffffff16815260200190815260200160002060008460ff1660ff168152602001908152602001600020600081819054906101000a900460ff168092919061113490615fc4565b91906101000a81548160ff021916908360ff16021790555050601360008373ffffffffffffffffffffffffffffffffffffffff1673ffffffffffffffffffffffffffffffffffffffff16815260200190815260200160002060008260ff1660ff168152602001908152602001600020600081819054906101000a900460ff16809291906111c090615fc4565b91906101000a81548160ff021916908360ff16021790555050601360008573ffffffffffffffffffffffffffffffffffffffff1673ffffffffffffffffffffffffffffffffffffffff16815260200190815260200160002060008260ff1660ff168152602001908152602001600020600081819054906101000a900460ff168092919061124c90615cd3565b91906101000a81548160ff021916908360ff16021790555050601360008373ffffffffffffffffffffffffffffffffffffffff1673ffffffffffffffffffffffffffffffffffffffff16815260200190815260200160002060008460ff1660ff168152602001908152602001600020600081819054906101000a900460ff16809291906112d890615cd3565b91906101000a81548160ff021916908360ff1602179055505050505050565b6000601360003373ffffffffffffffffffffffffffffffffffffffff1673ffffffffffffffffffffffffffffffffffffffff1681526020019081526020016000206000607960ff16815260200190815260200160002060009054906101000a900460ff1660ff161161139e576040517f08c379a000000000000000000000000000000000000000000000000000000000815260040161139590616039565b60405180910390fd5b601360003373ffffffffffffffffffffffffffffffffffffffff1673ffffffffffffffffffffffffffffffffffffffff1681526020019081526020016000206000607960ff168152602001908152602001600020600081819054906101000a900460ff168092919061140f90615fc4565b91906101000a81548160ff021916908360ff1602179055505081819050601460003373ffffffffffffffffffffffffffffffffffffffff1673ffffffffffffffffffffffffffffffffffffffff168152602001908152602001600020600082825461147a9190616059565b9250508190555060005b828290508160ff16101561155b57601360003373ffffffffffffffffffffffffffffffffffffffff1673ffffffffffffffffffffffffffffffffffffffff168152602001908152602001600020600084848460ff168181106114e9576114e8615c75565b5b90506020020160208101906114fe9190615c08565b60ff1660ff168152602001908152602001600020600081819054906101000a900460ff168092919061152f90615fc4565b91906101000a81548160ff021916908360ff16021790555050808061155390615cd3565b915050611484565b506000603c601460003373ffffffffffffffffffffffffffffffffffffffff1673ffffffffffffffffffffffffffffffffffffffff168152602001908152602001600020546115aa91906160bc565b0361174a5761164733601080546115c090615d2b565b80601f01602080910402602001604051908101604052809291908181526020018280546115ec90615d2b565b80156116395780601f1061160e57610100808354040283529160200191611639565b820191906000526020600020905b81548152906001019060200180831161161c57829003601f168201915b5050505050607960026137e7565b67d02ab486cedc0000600d600082825461166191906160ed565b925050819055507f000000000000000000000000000000000000000000000000000000000000000073ffffffffffffffffffffffffffffffffffffffff1663a9059cbb33670de0b6b3a76400006040518363ffffffff1660e01b81526004016116cb929190616121565b6020604051808303816000875af11580156116ea573d6000803e3d6000fd5b505050506040513d601f19601f8201168201806040525081019061170e919061615f565b507f6d0344e2059f835240cb954cce07d4b26f0d0844eecc234f7ee0e292ba80a1aa3360026040516117419291906161c7565b60405180910390a15b5050565b600a60009054906101000a900473ffffffffffffffffffffffffffffffffffffffff1681565b61178561177f613726565b8261387f565b6117c4576040517f08c379a00000000000000000000000000000000000000000000000000000000081526004016117bb90616262565b60405180910390fd5b6117cf838383613914565b505050565b3373ffffffffffffffffffffffffffffffffffffffff16600860009054906101000a900473ffffffffffffffffffffffffffffffffffffffff1673ffffffffffffffffffffffffffffffffffffffff1663d3e6a7ad866040518263ffffffff1660e01b81526004016118469190615786565b602060405180830381865afa158015611863573d6000803e3d6000fd5b505050506040513d601f19601f820116820180604052508101906118879190616297565b73ffffffffffffffffffffffffffffffffffffffff16146118dd576040517f08c379a00000000000000000000000000000000000000000000000000000000081526004016118d490616310565b60405180910390fd5b600f835110611921576040517f08c379a00000000000000000000000000000000000000000000000000000000081526004016119189061637c565b60405180910390fd5b600860009054906101000a900473ffffffffffffffffffffffffffffffffffffffff1673ffffffffffffffffffffffffffffffffffffffff166350a88c7e856040518263ffffffff1660e01b815260040161197c9190615786565b600060405180830381600087803b15801561199657600080fd5b505af11580156119aa573d6000803e3d6000fd5b505050506006600c546119bd919061639c565b600c546119ca91906160ed565b600d60008282546119db9190616059565b925050819055506000611a2d33868673f1dd71895e49b1563693969de50898197cdf3481604051602001611a1294939291906164c6565b60405160208183030381529060405280519060200120613c0d565b9050600a60009054906101000a900473ffffffffffffffffffffffffffffffffffffffff1673ffffffffffffffffffffffffffffffffffffffff16611abf84848080601f016020809104026020016040519081016040528093929190818152602001838380828437600081840152601f19601f8201169050808301925050505050505083613c3d90919063ffffffff16565b73ffffffffffffffffffffffffffffffffffffffff1614611b15576040517f08c379a0000000000000000000000000000000000000000000000000000000008152600401611b0c9061655c565b60405180910390fd5b60008451905060005b818160ff161015611cb6576078868260ff1681518110611b4157611b40615c75565b5b602002602001015160ff1614611b8e5761138960116000888460ff1681518110611b6e57611b6d615c75565b5b602002602001015160ff1681526020019081526020016000205410611ba8565b610bb9601160006078815260200190815260200160002054105b611bb157600080fd5b60116000878360ff1681518110611bcb57611bca615c75565b5b602002602001015160ff1681526020019081526020016000206000815480929190611bf59061657c565b9190505550601360003373ffffffffffffffffffffffffffffffffffffffff1673ffffffffffffffffffffffffffffffffffffffff1681526020019081526020016000206000878360ff1681518110611c5157611c50615c75565b5b602002602001015160ff1660ff168152602001908152602001600020600081819054906101000a900460ff1680929190611c8a90615cd3565b91906101000a81548160ff021916908360ff160217905550508080611cae90615cd3565b915050611b1e565b507fbabe8f5e83e93ab103ddf917b4292a19335a5128b3530bedd896a681cdd945e3338688604051611cea939291906165c4565b60405180910390a1505050505050565b6000601360003373ffffffffffffffffffffffffffffffffffffffff1673ffffffffffffffffffffffffffffffffffffffff16815260200190815260200160002060008360ff1660ff16815260200190815260200160002060009054906101000a900460ff1660ff1611611da3576040517f08c379a0000000000000000000000000000000000000000000000000000000008152600401611d9a9061664e565b60405180910390fd5b3373ffffffffffffffffffffffffffffffffffffffff168273ffffffffffffffffffffffffffffffffffffffff1603611e11576040517f08c379a0000000000000000000000000000000000000000000000000000000008152600401611e08906166ba565b60405180910390fd5b600073ffffffffffffffffffffffffffffffffffffffff168273ffffffffffffffffffffffffffffffffffffffff1603611e80576040517f08c379a0000000000000000000000000000000000000000000000000000000008152600401611e7790616726565b60405180910390fd5b601360003373ffffffffffffffffffffffffffffffffffffffff1673ffffffffffffffffffffffffffffffffffffffff16815260200190815260200160002060008260ff1660ff168152602001908152602001600020600081819054906101000a900460ff1680929190611ef390615fc4565b91906101000a81548160ff021916908360ff16021790555050601360008373ffffffffffffffffffffffffffffffffffffffff1673ffffffffffffffffffffffffffffffffffffffff16815260200190815260200160002060008260ff1660ff168152602001908152602001600020600081819054906101000a900460ff1680929190611f7f90615cd3565b91906101000a81548160ff021916908360ff160217905550505050565b600c5481565b611fbd838383604051806020016040528060008152506130ab565b505050565b611fd3611fcd613726565b8261387f565b612012576040517f08c379a000000000000000000000000000000000000000000000000000000000815260040161200990616262565b60405180910390fd5b61201b81613c64565b50565b670de0b6b3a764000081565b612032613c70565b8061203c3061225c565b101561204757600080fd5b80600d600082825461205991906160ed565b925050819055507f000000000000000000000000000000000000000000000000000000000000000073ffffffffffffffffffffffffffffffffffffffff1663a9059cbb33836040518363ffffffff1660e01b81526004016120bb929190616121565b6020604051808303816000875af11580156120da573d6000803e3d6000fd5b505050506040513d601f19601f820116820180604052508101906120fe919061615f565b507f23d6711a1d031134a36921253c75aa59e967d38e369ac625992824315e204f203382604051612130929190616121565b60405180910390a150565b60116020528060005260406000206000915090505481565b60008061215f83613cee565b9050600073ffffffffffffffffffffffffffffffffffffffff168173ffffffffffffffffffffffffffffffffffffffff16036121d0576040517f08c379a00000000000000000000000000000000000000000000000000000000081526004016121c790616792565b60405180910390fd5b80915050919050565b6121e1613c70565b80600a60006101000a81548173ffffffffffffffffffffffffffffffffffffffff021916908373ffffffffffffffffffffffffffffffffffffffff1602179055507fffafe5c39be83f4bcf20d7e1a150f6e21c1858ea0948315ba84b6b1c386d45bb816040516122519190615320565b60405180910390a150565b60008073ffffffffffffffffffffffffffffffffffffffff168273ffffffffffffffffffffffffffffffffffffffff16036122cc576040517f08c379a00000000000000000000000000000000000000000000000000000000081526004016122c390616824565b60405180910390fd5b600360008373ffffffffffffffffffffffffffffffffffffffff1673ffffffffffffffffffffffffffffffffffffffff168152602001908152602001600020549050919050565b61231b613c70565b6123256000613d2b565b565b60146020528060005260406000206000915090505481565b60136020528160005260406000206020528060005260406000206000915091509054906101000a900460ff1681565b600860009054906101000a900473ffffffffffffffffffffffffffffffffffffffff1673ffffffffffffffffffffffffffffffffffffffff163373ffffffffffffffffffffffffffffffffffffffff16146123fe576040517f08c379a00000000000000000000000000000000000000000000000000000000081526004016123f590616890565b60405180910390fd5b80600d60008282546124109190616059565b9250508190555050565b6000600760009054906101000a900473ffffffffffffffffffffffffffffffffffffffff16905090565b60126020528060005260406000206000915090508060000154908060010154908060020160009054906101000a900460ff16908060020160019054906101000a900460ff16908060030154905085565b600860009054906101000a900473ffffffffffffffffffffffffffffffffffffffff1681565b6000601360003373ffffffffffffffffffffffffffffffffffffffff1673ffffffffffffffffffffffffffffffffffffffff1681526020019081526020016000206000607860ff16815260200190815260200160002060009054906101000a900460ff1660ff1611612561576040517f08c379a0000000000000000000000000000000000000000000000000000000008152600401612558906168fc565b60405180910390fd5b67d02ab486cedc0000600d5410156125ae576040517f08c379a00000000000000000000000000000000000000000000000000000000081526004016125a590616968565b60405180910390fd5b600080600090505b60798160ff1610156126d8576000601360003373ffffffffffffffffffffffffffffffffffffffff1673ffffffffffffffffffffffffffffffffffffffff16815260200190815260200160002060008360ff1660ff16815260200190815260200160002060009054906101000a900460ff1660ff160361263957600191506126d8565b601360003373ffffffffffffffffffffffffffffffffffffffff1673ffffffffffffffffffffffffffffffffffffffff16815260200190815260200160002060008260ff1660ff168152602001908152602001600020600081819054906101000a900460ff16809291906126ac90615fc4565b91906101000a81548160ff021916908360ff1602179055505080806126d090615cd3565b9150506125b6565b50801561271a576040517f08c379a0000000000000000000000000000000000000000000000000000000008152600401612711906169d4565b60405180910390fd5b6127b233600f805461272b90615d2b565b80601f016020809104026020016040519081016040528092919081815260200182805461275790615d2b565b80156127a45780601f10612779576101008083540402835291602001916127a4565b820191906000526020600020905b81548152906001019060200180831161278757829003601f168201915b5050505050607860026137e7565b67d02ab486cedc0000600d60008282546127cc91906160ed565b925050819055507f000000000000000000000000000000000000000000000000000000000000000073ffffffffffffffffffffffffffffffffffffffff1663a9059cbb3367d02ab486cedc00006040518363ffffffff1660e01b8152600401612836929190616121565b6020604051808303816000875af1158015612855573d6000803e3d6000fd5b505050506040513d601f19601f82011682018060405250810190612879919061615f565b507f6d0344e2059f835240cb954cce07d4b26f0d0844eecc234f7ee0e292ba80a1aa3360016040516128ac929190616a2f565b60405180910390a150565b6060600180546128c690615d2b565b80601f01602080910402602001604051908101604052809291908181526020018280546128f290615d2b565b801561293f5780601f106129145761010080835404028352916020019161293f565b820191906000526020600020905b81548152906001019060200180831161292257829003601f168201915b5050505050905090565b600e805461295690615d2b565b80601f016020809104026020016040519081016040528092919081815260200182805461298290615d2b565b80156129cf5780601f106129a4576101008083540402835291602001916129cf565b820191906000526020600020905b8154815290600101906020018083116129b257829003601f168201915b505050505081565b6129df613c70565b81600f90816129ee9190616bfa565b5080601090816129fe9190616bfa565b507fabfd337ac5625b7dc2ddd3d3bd465fb1dec15322eeeed81032268b337880bec68282604051612a30929190616ccc565b60405180910390a15050565b600b60009054906101000a900473ffffffffffffffffffffffffffffffffffffffff1673ffffffffffffffffffffffffffffffffffffffff163373ffffffffffffffffffffffffffffffffffffffff1614612acc576040517f08c379a0000000000000000000000000000000000000000000000000000000008152600401612ac390615ecc565b60405180910390fd5b6000601360008573ffffffffffffffffffffffffffffffffffffffff1673ffffffffffffffffffffffffffffffffffffffff16815260200190815260200160002060008460ff1660ff16815260200190815260200160002060009054906101000a900460ff1660ff1611612b75576040517f08c379a0000000000000000000000000000000000000000000000000000000008152600401612b6c90616d4f565b60405180910390fd5b601360008473ffffffffffffffffffffffffffffffffffffffff1673ffffffffffffffffffffffffffffffffffffffff16815260200190815260200160002060008360ff1660ff168152602001908152602001600020600081819054906101000a900460ff1680929190612be890615fc4565b91906101000a81548160ff021916908360ff16021790555050601360008273ffffffffffffffffffffffffffffffffffffffff1673ffffffffffffffffffffffffffffffffffffffff16815260200190815260200160002060008360ff1660ff168152602001908152602001600020600081819054906101000a900460ff1680929190612c7490615cd3565b91906101000a81548160ff021916908360ff16021790555050505050565b67d02ab486cedc000081565b3373ffffffffffffffffffffffffffffffffffffffff168373ffffffffffffffffffffffffffffffffffffffff1603612d0c576040517f08c379a0000000000000000000000000000000000000000000000000000000008152600401612d0390616de1565b60405180910390fd5b600073ffffffffffffffffffffffffffffffffffffffff168373ffffffffffffffffffffffffffffffffffffffff1603612d7b576040517f08c379a0000000000000000000000000000000000000000000000000000000008152600401612d7290616e73565b60405180910390fd5b60005b828290508160ff161015612fde576000601360003373ffffffffffffffffffffffffffffffffffffffff1673ffffffffffffffffffffffffffffffffffffffff168152602001908152602001600020600085858560ff16818110612de557612de4615c75565b5b9050602002016020810190612dfa9190615c08565b60ff1660ff16815260200190815260200160002060009054906101000a900460ff1660ff1611612e5f576040517f08c379a0000000000000000000000000000000000000000000000000000000008152600401612e569061664e565b60405180910390fd5b601360003373ffffffffffffffffffffffffffffffffffffffff1673ffffffffffffffffffffffffffffffffffffffff168152602001908152602001600020600084848460ff16818110612eb657612eb5615c75565b5b9050602002016020810190612ecb9190615c08565b60ff1660ff168152602001908152602001600020600081819054906101000a900460ff1680929190612efc90615fc4565b91906101000a81548160ff021916908360ff16021790555050601360008573ffffffffffffffffffffffffffffffffffffffff1673ffffffffffffffffffffffffffffffffffffffff168152602001908152602001600020600084848460ff16818110612f6c57612f6b615c75565b5b9050602002016020810190612f819190615c08565b60ff1660ff168152602001908152602001600020600081819054906101000a900460ff1680929190612fb290615cd3565b91906101000a81548160ff021916908360ff160217905550508080612fd690615cd3565b915050612d7e565b50505050565b612ff6612fef613726565b8383613df1565b5050565b60005b60798160ff1610156130a857601360003373ffffffffffffffffffffffffffffffffffffffff1673ffffffffffffffffffffffffffffffffffffffff16815260200190815260200160002060008260ff1660ff168152602001908152602001600020600081819054906101000a900460ff168092919061307c90615cd3565b91906101000a81548160ff021916908360ff1602179055505080806130a090615cd3565b915050612ffd565b50565b6130bc6130b6613726565b8361387f565b6130fb576040517f08c379a00000000000000000000000000000000000000000000000000000000081526004016130f290616262565b60405180910390fd5b61310784848484613f5d565b50505050565b6000601360003373ffffffffffffffffffffffffffffffffffffffff1673ffffffffffffffffffffffffffffffffffffffff16815260200190815260200160002060008360ff1660ff16815260200190815260200160002060009054906101000a900460ff1660ff16116131b6576040517f08c379a00000000000000000000000000000000000000000000000000000000081526004016131ad9061664e565b60405180910390fd5b601360003373ffffffffffffffffffffffffffffffffffffffff1673ffffffffffffffffffffffffffffffffffffffff16815260200190815260200160002060008260ff1660ff168152602001908152602001600020600081819054906101000a900460ff168092919061322990615fc4565b91906101000a81548160ff021916908360ff160217905550506000600e6040518060400160405280600181526020017f2f000000000000000000000000000000000000000000000000000000000000008152506132888460ff16613fb9565b6040518060400160405280600581526020017f2e6a736f6e0000000000000000000000000000000000000000000000000000008152506040516020016132d19493929190616f72565b60405160208183030381529060405290506132f233828460ff1660016137e7565b5050565b6132fe613c70565b80600b60006101000a81548173ffffffffffffffffffffffffffffffffffffffff021916908373ffffffffffffffffffffffffffffffffffffffff16021790555050565b600f805461334f90615d2b565b80601f016020809104026020016040519081016040528092919081815260200182805461337b90615d2b565b80156133c85780601f1061339d576101008083540402835291602001916133c8565b820191906000526020600020905b8154815290600101906020018083116133ab57829003601f168201915b505050505081565b60606133db82614119565b9050919050565b601080546133ef90615d2b565b80601f016020809104026020016040519081016040528092919081815260200182805461341b90615d2b565b80156134685780601f1061343d57610100808354040283529160200191613468565b820191906000526020600020905b81548152906001019060200180831161344b57829003601f168201915b505050505081565b600860009054906101000a900473ffffffffffffffffffffffffffffffffffffffff1673ffffffffffffffffffffffffffffffffffffffff163373ffffffffffffffffffffffffffffffffffffffff1614613500576040517f08c379a00000000000000000000000000000000000000000000000000000000081526004016134f790616890565b60405180910390fd5b80600c8190555050565b600b60009054906101000a900473ffffffffffffffffffffffffffffffffffffffff1681565b600d5481565b7f000000000000000000000000000000000000000000000000000000000000000081565b6000600560008473ffffffffffffffffffffffffffffffffffffffff1673ffffffffffffffffffffffffffffffffffffffff16815260200190815260200160002060008373ffffffffffffffffffffffffffffffffffffffff1673ffffffffffffffffffffffffffffffffffffffff16815260200190815260200160002060009054906101000a900460ff16905092915050565b6135f6613c70565b600073ffffffffffffffffffffffffffffffffffffffff168173ffffffffffffffffffffffffffffffffffffffff1603613665576040517f08c379a000000000000000000000000000000000000000000000000000000000815260040161365c90617022565b60405180910390fd5b61366e81613d2b565b50565b60007f01ffc9a7000000000000000000000000000000000000000000000000000000007bffffffffffffffffffffffffffffffffffffffffffffffffffffffff1916827bffffffffffffffffffffffffffffffffffffffffffffffffffffffff1916149050919050565b6136e48161422b565b613723576040517f08c379a000000000000000000000000000000000000000000000000000000000815260040161371a90616792565b60405180910390fd5b50565b600033905090565b816004600083815260200190815260200160002060006101000a81548173ffffffffffffffffffffffffffffffffffffffff021916908373ffffffffffffffffffffffffffffffffffffffff160217905550808273ffffffffffffffffffffffffffffffffffffffff166137a183612153565b73ffffffffffffffffffffffffffffffffffffffff167f8c5be1e5ebec7d5bd14f71427d1e84f3dd0314c0f7b2291e5b200ac8c7c3b92560405160405180910390a45050565b60006137f3600961426c565b90506137ff600961427a565b806012600083815260200190815260200160002060000181905550826012600083815260200190815260200160002060010181905550816012600083815260200190815260200160002060020160016101000a81548160ff021916908360ff16021790555061386e8582614290565b61387881856142ae565b5050505050565b60008061388b83612153565b90508073ffffffffffffffffffffffffffffffffffffffff168473ffffffffffffffffffffffffffffffffffffffff1614806138cd57506138cc818561355a565b5b8061390b57508373ffffffffffffffffffffffffffffffffffffffff166138f384610d82565b73ffffffffffffffffffffffffffffffffffffffff16145b91505092915050565b8273ffffffffffffffffffffffffffffffffffffffff1661393482612153565b73ffffffffffffffffffffffffffffffffffffffff161461398a576040517f08c379a0000000000000000000000000000000000000000000000000000000008152600401613981906170b4565b60405180910390fd5b600073ffffffffffffffffffffffffffffffffffffffff168273ffffffffffffffffffffffffffffffffffffffff16036139f9576040517f08c379a00000000000000000000000000000000000000000000000000000000081526004016139f090617146565b60405180910390fd5b613a06838383600161431b565b8273ffffffffffffffffffffffffffffffffffffffff16613a2682612153565b73ffffffffffffffffffffffffffffffffffffffff1614613a7c576040517f08c379a0000000000000000000000000000000000000000000000000000000008152600401613a73906170b4565b60405180910390fd5b6004600082815260200190815260200160002060006101000a81549073ffffffffffffffffffffffffffffffffffffffff02191690556001600360008573ffffffffffffffffffffffffffffffffffffffff1673ffffffffffffffffffffffffffffffffffffffff168152602001908152602001600020600082825403925050819055506001600360008473ffffffffffffffffffffffffffffffffffffffff1673ffffffffffffffffffffffffffffffffffffffff16815260200190815260200160002060008282540192505081905550816002600083815260200190815260200160002060006101000a81548173ffffffffffffffffffffffffffffffffffffffff021916908373ffffffffffffffffffffffffffffffffffffffff160217905550808273ffffffffffffffffffffffffffffffffffffffff168473ffffffffffffffffffffffffffffffffffffffff167fddf252ad1be2c89b69c2b068fc378daa952ba7f163c4a11628f55a4df523b3ef60405160405180910390a4613c088383836001614441565b505050565b600081604051602001613c2091906171e8565b604051602081830303815290604052805190602001209050919050565b6000806000613c4c8585614447565b91509150613c5981614498565b819250505092915050565b613c6d816145fe565b50565b613c78613726565b73ffffffffffffffffffffffffffffffffffffffff16613c9661241a565b73ffffffffffffffffffffffffffffffffffffffff1614613cec576040517f08c379a0000000000000000000000000000000000000000000000000000000008152600401613ce39061725a565b60405180910390fd5b565b60006002600083815260200190815260200160002060009054906101000a900473ffffffffffffffffffffffffffffffffffffffff169050919050565b6000600760009054906101000a900473ffffffffffffffffffffffffffffffffffffffff16905081600760006101000a81548173ffffffffffffffffffffffffffffffffffffffff021916908373ffffffffffffffffffffffffffffffffffffffff1602179055508173ffffffffffffffffffffffffffffffffffffffff168173ffffffffffffffffffffffffffffffffffffffff167f8be0079c531659141344cd1fd0a4f28419497f9722a3daafe3b4186f6b6457e060405160405180910390a35050565b8173ffffffffffffffffffffffffffffffffffffffff168373ffffffffffffffffffffffffffffffffffffffff1603613e5f576040517f08c379a0000000000000000000000000000000000000000000000000000000008152600401613e56906172c6565b60405180910390fd5b80600560008573ffffffffffffffffffffffffffffffffffffffff1673ffffffffffffffffffffffffffffffffffffffff16815260200190815260200160002060008473ffffffffffffffffffffffffffffffffffffffff1673ffffffffffffffffffffffffffffffffffffffff16815260200190815260200160002060006101000a81548160ff0219169083151502179055508173ffffffffffffffffffffffffffffffffffffffff168373ffffffffffffffffffffffffffffffffffffffff167f17307eab39ab6107e8899845ad3d59bd9653f200f220920489ca2b5937696c3183604051613f509190615054565b60405180910390a3505050565b613f68848484613914565b613f7484848484614651565b613fb3576040517f08c379a0000000000000000000000000000000000000000000000000000000008152600401613faa90617358565b60405180910390fd5b50505050565b606060008203614000576040518060400160405280600181526020017f30000000000000000000000000000000000000000000000000000000000000008152509050614114565b600082905060005b6000821461403257808061401b9061657c565b915050600a8261402b919061639c565b9150614008565b60008167ffffffffffffffff81111561404e5761404d615513565b5b6040519080825280601f01601f1916602001820160405280156140805781602001600182028036833780820191505090505b5090505b6000851461410d5760018261409991906160ed565b9150600a856140a891906160bc565b60306140b49190616059565b60f81b8183815181106140ca576140c9615c75565b5b60200101907effffffffffffffffffffffffffffffffffffffffffffffffffffffffffffff1916908160001a905350600a85614106919061639c565b9450614084565b8093505050505b919050565b6060614124826136db565b600060066000848152602001908152602001600020805461414490615d2b565b80601f016020809104026020016040519081016040528092919081815260200182805461417090615d2b565b80156141bd5780601f10614192576101008083540402835291602001916141bd565b820191906000526020600020905b8154815290600101906020018083116141a057829003601f168201915b5050505050905060006141ce6147d8565b905060008151036141e3578192505050614226565b6000825111156142185780826040516020016142009291906173a9565b60405160208183030381529060405292505050614226565b614221846147ef565b925050505b919050565b60008073ffffffffffffffffffffffffffffffffffffffff1661424d83613cee565b73ffffffffffffffffffffffffffffffffffffffff1614159050919050565b600081600001549050919050565b6001816000016000828254019250508190555050565b6142aa828260405180602001604052806000815250614857565b5050565b6142b78261422b565b6142f6576040517f08c379a00000000000000000000000000000000000000000000000000000000081526004016142ed9061743f565b60405180910390fd5b806006600084815260200190815260200160002090816143169190616bfa565b505050565b600181111561443b57600073ffffffffffffffffffffffffffffffffffffffff168473ffffffffffffffffffffffffffffffffffffffff16146143af5780600360008673ffffffffffffffffffffffffffffffffffffffff1673ffffffffffffffffffffffffffffffffffffffff16815260200190815260200160002060008282546143a791906160ed565b925050819055505b600073ffffffffffffffffffffffffffffffffffffffff168373ffffffffffffffffffffffffffffffffffffffff161461443a5780600360008573ffffffffffffffffffffffffffffffffffffffff1673ffffffffffffffffffffffffffffffffffffffff16815260200190815260200160002060008282546144329190616059565b925050819055505b5b50505050565b50505050565b60008060418351036144885760008060006020860151925060408601519150606086015160001a905061447c878285856148b2565b94509450505050614491565b60006002915091505b9250929050565b600060048111156144ac576144ab61745f565b5b8160048111156144bf576144be61745f565b5b03156145fb57600160048111156144d9576144d861745f565b5b8160048111156144ec576144eb61745f565b5b0361452c576040517f08c379a0000000000000000000000000000000000000000000000000000000008152600401614523906174da565b60405180910390fd5b600260048111156145405761453f61745f565b5b8160048111156145535761455261745f565b5b03614593576040517f08c379a000000000000000000000000000000000000000000000000000000000815260040161458a90617546565b60405180910390fd5b600360048111156145a7576145a661745f565b5b8160048111156145ba576145b961745f565b5b036145fa576040517f08c379a00000000000000000000000000000000000000000000000000000000081526004016145f1906175d8565b60405180910390fd5b5b50565b61460781614994565b600060066000838152602001908152602001600020805461462790615d2b565b90501461464e5760066000828152602001908152602001600020600061464d9190614f43565b5b50565b60006146728473ffffffffffffffffffffffffffffffffffffffff16614ae2565b156147cb578373ffffffffffffffffffffffffffffffffffffffff1663150b7a0261469b613726565b8786866040518563ffffffff1660e01b81526004016146bd9493929190617642565b6020604051808303816000875af19250505080156146f957506040513d601f19601f820116820180604052508101906146f691906176a3565b60015b61477b573d8060008114614729576040519150601f19603f3d011682016040523d82523d6000602084013e61472e565b606091505b506000815103614773576040517f08c379a000000000000000000000000000000000000000000000000000000000815260040161476a90617358565b60405180910390fd5b805181602001fd5b63150b7a0260e01b7bffffffffffffffffffffffffffffffffffffffffffffffffffffffff1916817bffffffffffffffffffffffffffffffffffffffffffffffffffffffff1916149150506147d0565b600190505b949350505050565b606060405180602001604052806000815250905090565b60606147fa826136db565b60006148046147d8565b90506000815111614824576040518060200160405280600081525061484f565b8061482e84614b05565b60405160200161483f9291906173a9565b6040516020818303038152906040525b915050919050565b6148618383614bd3565b61486e6000848484614651565b6148ad576040517f08c379a00000000000000000000000000000000000000000000000000000000081526004016148a490617358565b60405180910390fd5b505050565b6000807f7fffffffffffffffffffffffffffffff5d576e7357a4501ddfe92f46681b20a08360001c11156148ed57600060039150915061498b565b60006001878787876040516000815260200160405260405161491294939291906176df565b6020604051602081039080840390855afa158015614934573d6000803e3d6000fd5b505050602060405103519050600073ffffffffffffffffffffffffffffffffffffffff168173ffffffffffffffffffffffffffffffffffffffff16036149825760006001925092505061498b565b80600092509250505b94509492505050565b600061499f82612153565b90506149af81600084600161431b565b6149b882612153565b90506004600083815260200190815260200160002060006101000a81549073ffffffffffffffffffffffffffffffffffffffff02191690556001600360008373ffffffffffffffffffffffffffffffffffffffff1673ffffffffffffffffffffffffffffffffffffffff168152602001908152602001600020600082825403925050819055506002600083815260200190815260200160002060006101000a81549073ffffffffffffffffffffffffffffffffffffffff021916905581600073ffffffffffffffffffffffffffffffffffffffff168273ffffffffffffffffffffffffffffffffffffffff167fddf252ad1be2c89b69c2b068fc378daa952ba7f163c4a11628f55a4df523b3ef60405160405180910390a4614ade816000846001614441565b5050565b6000808273ffffffffffffffffffffffffffffffffffffffff163b119050919050565b606060006001614b1484614df0565b01905060008167ffffffffffffffff811115614b3357614b32615513565b5b6040519080825280601f01601f191660200182016040528015614b655781602001600182028036833780820191505090505b509050600082602001820190505b600115614bc8578080600190039150507f3031323334353637383961626364656600000000000000000000000000000000600a86061a8153600a8581614bbc57614bbb61608d565b5b04945060008503614b73575b819350505050919050565b600073ffffffffffffffffffffffffffffffffffffffff168273ffffffffffffffffffffffffffffffffffffffff1603614c42576040517f08c379a0000000000000000000000000000000000000000000000000000000008152600401614c3990617770565b60405180910390fd5b614c4b8161422b565b15614c8b576040517f08c379a0000000000000000000000000000000000000000000000000000000008152600401614c82906177dc565b60405180910390fd5b614c9960008383600161431b565b614ca28161422b565b15614ce2576040517f08c379a0000000000000000000000000000000000000000000000000000000008152600401614cd9906177dc565b60405180910390fd5b6001600360008473ffffffffffffffffffffffffffffffffffffffff1673ffffffffffffffffffffffffffffffffffffffff16815260200190815260200160002060008282540192505081905550816002600083815260200190815260200160002060006101000a81548173ffffffffffffffffffffffffffffffffffffffff021916908373ffffffffffffffffffffffffffffffffffffffff160217905550808273ffffffffffffffffffffffffffffffffffffffff16600073ffffffffffffffffffffffffffffffffffffffff167fddf252ad1be2c89b69c2b068fc378daa952ba7f163c4a11628f55a4df523b3ef60405160405180910390a4614dec600083836001614441565b5050565b600080600090507a184f03e93ff9f4daa797ed6e38ed64bf6a1f0100000000000000008310614e4e577a184f03e93ff9f4daa797ed6e38ed64bf6a1f0100000000000000008381614e4457614e4361608d565b5b0492506040810190505b6d04ee2d6d415b85acef81000000008310614e8b576d04ee2d6d415b85acef81000000008381614e8157614e8061608d565b5b0492506020810190505b662386f26fc100008310614eba57662386f26fc100008381614eb057614eaf61608d565b5b0492506010810190505b6305f5e1008310614ee3576305f5e1008381614ed957614ed861608d565b5b0492506008810190505b6127108310614f08576127108381614efe57614efd61608d565b5b0492506004810190505b60648310614f2b5760648381614f2157614f2061608d565b5b0492506002810190505b600a8310614f3a576001810190505b80915050919050565b508054614f4f90615d2b565b6000825580601f10614f615750614f80565b601f016020900490600052602060002090810190614f7f9190614f83565b5b50565b5b80821115614f9c576000816000905550600101614f84565b5090565b6000604051905090565b600080fd5b600080fd5b60007fffffffff0000000000000000000000000000000000000000000000000000000082169050919050565b614fe981614fb4565b8114614ff457600080fd5b50565b60008135905061500681614fe0565b92915050565b60006020828403121561502257615021614faa565b5b600061503084828501614ff7565b91505092915050565b60008115159050919050565b61504e81615039565b82525050565b60006020820190506150696000830184615045565b92915050565b600073ffffffffffffffffffffffffffffffffffffffff82169050919050565b600061509a8261506f565b9050919050565b6150aa8161508f565b81146150b557600080fd5b50565b6000813590506150c7816150a1565b92915050565b6000602082840312156150e3576150e2614faa565b5b60006150f1848285016150b8565b91505092915050565b600081519050919050565b600082825260208201905092915050565b6000819050602082019050919050565b600060ff82169050919050565b61513c81615126565b82525050565b600061514e8383615133565b60208301905092915050565b6000602082019050919050565b6000615172826150fa565b61517c8185615105565b935061518783615116565b8060005b838110156151b857815161519f8882615142565b97506151aa8361515a565b92505060018101905061518b565b5085935050505092915050565b600060408201905081810360008301526151df8185615167565b905081810360208301526151f38184615167565b90509392505050565b600081519050919050565b600082825260208201905092915050565b60005b8381101561523657808201518184015260208101905061521b565b60008484015250505050565b6000601f19601f8301169050919050565b600061525e826151fc565b6152688185615207565b9350615278818560208601615218565b61528181615242565b840191505092915050565b600060208201905081810360008301526152a68184615253565b905092915050565b6000819050919050565b6152c1816152ae565b81146152cc57600080fd5b50565b6000813590506152de816152b8565b92915050565b6000602082840312156152fa576152f9614faa565b5b6000615308848285016152cf565b91505092915050565b61531a8161508f565b82525050565b60006020820190506153356000830184615311565b92915050565b6000806040838503121561535257615351614faa565b5b6000615360858286016150b8565b9250506020615371858286016152cf565b9150509250929050565b61538481615126565b811461538f57600080fd5b50565b6000813590506153a18161537b565b92915050565b600080600080608085870312156153c1576153c0614faa565b5b60006153cf878288016150b8565b94505060206153e087828801615392565b93505060406153f1878288016150b8565b925050606061540287828801615392565b91505092959194509250565b600080fd5b600080fd5b600080fd5b60008083601f8401126154335761543261540e565b5b8235905067ffffffffffffffff8111156154505761544f615413565b5b60208301915083602082028301111561546c5761546b615418565b5b9250929050565b6000806020838503121561548a57615489614faa565b5b600083013567ffffffffffffffff8111156154a8576154a7614faf565b5b6154b48582860161541d565b92509250509250929050565b6000806000606084860312156154d9576154d8614faa565b5b60006154e7868287016150b8565b93505060206154f8868287016150b8565b9250506040615509868287016152cf565b9150509250925092565b7f4e487b7100000000000000000000000000000000000000000000000000000000600052604160045260246000fd5b61554b82615242565b810181811067ffffffffffffffff8211171561556a57615569615513565b5b80604052505050565b600061557d614fa0565b90506155898282615542565b919050565b600067ffffffffffffffff8211156155a9576155a8615513565b5b602082029050602081019050919050565b60006155cd6155c88461558e565b615573565b905080838252602082019050602084028301858111156155f0576155ef615418565b5b835b8181101561561957806156058882615392565b8452602084019350506020810190506155f2565b5050509392505050565b600082601f8301126156385761563761540e565b5b81356156488482602086016155ba565b91505092915050565b60008083601f8401126156675761566661540e565b5b8235905067ffffffffffffffff81111561568457615683615413565b5b6020830191508360018202830111156156a05761569f615418565b5b9250929050565b600080600080606085870312156156c1576156c0614faa565b5b60006156cf878288016152cf565b945050602085013567ffffffffffffffff8111156156f0576156ef614faf565b5b6156fc87828801615623565b935050604085013567ffffffffffffffff81111561571d5761571c614faf565b5b61572987828801615651565b925092505092959194509250565b6000806040838503121561574e5761574d614faa565b5b600061575c858286016150b8565b925050602061576d85828601615392565b9150509250929050565b615780816152ae565b82525050565b600060208201905061579b6000830184615777565b92915050565b6157aa81615126565b82525050565b60006020820190506157c560008301846157a1565b92915050565b600060a0820190506157e06000830188615777565b6157ed6020830187615777565b6157fa6040830186615045565b61580760608301856157a1565b6158146080830184615777565b9695505050505050565b6000819050919050565b600061584361583e6158398461506f565b61581e565b61506f565b9050919050565b600061585582615828565b9050919050565b60006158678261584a565b9050919050565b6158778161585c565b82525050565b6000602082019050615892600083018461586e565b92915050565b600080fd5b600067ffffffffffffffff8211156158b8576158b7615513565b5b6158c182615242565b9050602081019050919050565b82818337600083830152505050565b60006158f06158eb8461589d565b615573565b90508281526020810184848401111561590c5761590b615898565b5b6159178482856158ce565b509392505050565b600082601f8301126159345761593361540e565b5b81356159448482602086016158dd565b91505092915050565b6000806040838503121561596457615963614faa565b5b600083013567ffffffffffffffff81111561598257615981614faf565b5b61598e8582860161591f565b925050602083013567ffffffffffffffff8111156159af576159ae614faf565b5b6159bb8582860161591f565b9150509250929050565b6000806000606084860312156159de576159dd614faa565b5b60006159ec868287016150b8565b93505060206159fd86828701615392565b9250506040615a0e868287016150b8565b9150509250925092565b600080600060408486031215615a3157615a30614faa565b5b6000615a3f868287016150b8565b935050602084013567ffffffffffffffff811115615a6057615a5f614faf565b5b615a6c8682870161541d565b92509250509250925092565b615a8181615039565b8114615a8c57600080fd5b50565b600081359050615a9e81615a78565b92915050565b60008060408385031215615abb57615aba614faa565b5b6000615ac9858286016150b8565b9250506020615ada85828601615a8f565b9150509250929050565b600067ffffffffffffffff821115615aff57615afe615513565b5b615b0882615242565b9050602081019050919050565b6000615b28615b2384615ae4565b615573565b905082815260208101848484011115615b4457615b43615898565b5b615b4f8482856158ce565b509392505050565b600082601f830112615b6c57615b6b61540e565b5b8135615b7c848260208601615b15565b91505092915050565b60008060008060808587031215615b9f57615b9e614faa565b5b6000615bad878288016150b8565b9450506020615bbe878288016150b8565b9350506040615bcf878288016152cf565b925050606085013567ffffffffffffffff811115615bf057615bef614faf565b5b615bfc87828801615b57565b91505092959194509250565b600060208284031215615c1e57615c1d614faa565b5b6000615c2c84828501615392565b91505092915050565b60008060408385031215615c4c57615c4b614faa565b5b6000615c5a858286016150b8565b9250506020615c6b858286016150b8565b9150509250929050565b7f4e487b7100000000000000000000000000000000000000000000000000000000600052603260045260246000fd5b7f4e487b7100000000000000000000000000000000000000000000000000000000600052601160045260246000fd5b6000615cde82615126565b915060ff8203615cf157615cf0615ca4565b5b600182019050919050565b7f4e487b7100000000000000000000000000000000000000000000000000000000600052602260045260246000fd5b60006002820490506001821680615d4357607f821691505b602082108103615d5657615d55615cfc565b5b50919050565b7f4552433732313a20617070726f76616c20746f2063757272656e74206f776e6560008201527f7200000000000000000000000000000000000000000000000000000000000000602082015250565b6000615db8602183615207565b9150615dc382615d5c565b604082019050919050565b60006020820190508181036000830152615de781615dab565b9050919050565b7f4552433732313a20617070726f76652063616c6c6572206973206e6f7420746f60008201527f6b656e206f776e6572206f7220617070726f76656420666f7220616c6c000000602082015250565b6000615e4a603d83615207565b9150615e5582615dee565b604082019050919050565b60006020820190508181036000830152615e7981615e3d565b9050919050565b7f536f6c6f20657363726f77000000000000000000000000000000000000000000600082015250565b6000615eb6600b83615207565b9150615ec182615e80565b602082019050919050565b60006020820190508181036000830152615ee581615ea9565b9050919050565b7f456c206f66657274616e7465206e6f207469656e652065737461206361727461600082015250565b6000615f22602083615207565b9150615f2d82615eec565b602082019050919050565b60006020820190508181036000830152615f5181615f15565b9050919050565b7f456c206163657074616e7465206e6f207469656e652065737461206361727461600082015250565b6000615f8e602083615207565b9150615f9982615f58565b602082019050919050565b60006020820190508181036000830152615fbd81615f81565b9050919050565b6000615fcf82615126565b915060008203615fe257615fe1615ca4565b5b600182039050919050565b7f4e6f207469656e657320616c62756d206465207175656d610000000000000000600082015250565b6000616023601883615207565b915061602e82615fed565b602082019050919050565b6000602082019050818103600083015261605281616016565b9050919050565b6000616064826152ae565b915061606f836152ae565b925082820190508082111561608757616086615ca4565b5b92915050565b7f4e487b7100000000000000000000000000000000000000000000000000000000600052601260045260246000fd5b60006160c7826152ae565b91506160d2836152ae565b9250826160e2576160e161608d565b5b828206905092915050565b60006160f8826152ae565b9150616103836152ae565b925082820390508181111561611b5761611a615ca4565b5b92915050565b60006040820190506161366000830185615311565b6161436020830184615777565b9392505050565b60008151905061615981615a78565b92915050565b60006020828403121561617557616174614faa565b5b60006161838482850161614a565b91505092915050565b6000819050919050565b60006161b16161ac6161a78461618c565b61581e565b615126565b9050919050565b6161c181616196565b82525050565b60006040820190506161dc6000830185615311565b6161e960208301846161b8565b9392505050565b7f4552433732313a2063616c6c6572206973206e6f7420746f6b656e206f776e6560008201527f72206f7220617070726f76656400000000000000000000000000000000000000602082015250565b600061624c602d83615207565b9150616257826161f0565b604082019050919050565b6000602082019050818103600083015261627b8161623f565b9050919050565b600081519050616291816150a1565b92915050565b6000602082840312156162ad576162ac614faa565b5b60006162bb84828501616282565b91505092915050565b7f4573746520736f627265206e6f206573207475796f0000000000000000000000600082015250565b60006162fa601583615207565b9150616305826162c4565b602082019050919050565b60006020820190508181036000830152616329816162ed565b9050919050565b7f4c696d6974652064652063617274617320657863656469646f00000000000000600082015250565b6000616366601983615207565b915061637182616330565b602082019050919050565b6000602082019050818103600083015261639581616359565b9050919050565b60006163a7826152ae565b91506163b2836152ae565b9250826163c2576163c161608d565b5b828204905092915050565b60008160601b9050919050565b60006163e5826163cd565b9050919050565b60006163f7826163da565b9050919050565b61640f61640a8261508f565b6163ec565b82525050565b6000819050919050565b61643061642b826152ae565b616415565b82525050565b600081905092915050565b61644a81615126565b82525050565b600061645c8383616441565b60208301905092915050565b6000616473826150fa565b61647d8185616436565b935061648883615116565b8060005b838110156164b95781516164a08882616450565b97506164ab8361515a565b92505060018101905061648c565b5085935050505092915050565b60006164d282876163fe565b6014820191506164e2828661641f565b6020820191506164f28285616468565b91506164fe82846163fe565b60148201915081905095945050505050565b7f496e76616c6964207369676e6174757265000000000000000000000000000000600082015250565b6000616546601183615207565b915061655182616510565b602082019050919050565b6000602082019050818103600083015261657581616539565b9050919050565b6000616587826152ae565b91507fffffffffffffffffffffffffffffffffffffffffffffffffffffffffffffffff82036165b9576165b8615ca4565b5b600182019050919050565b60006060820190506165d96000830186615311565b81810360208301526165eb8185615167565b90506165fa6040830184615777565b949350505050565b7f4e6f207469656e65732065737461206361727461000000000000000000000000600082015250565b6000616638601483615207565b915061664382616602565b602082019050919050565b600060208201905081810360008301526166678161662b565b9050919050565b7f5472616e73662070726f706961206e6f207065726d6974696461000000000000600082015250565b60006166a4601a83615207565b91506166af8261666e565b602082019050919050565b600060208201905081810360008301526166d381616697565b9050919050565b7f5175656d61646f20646520636172746173206e6f207065726d697469646f0000600082015250565b6000616710601e83615207565b915061671b826166da565b602082019050919050565b6000602082019050818103600083015261673f81616703565b9050919050565b7f4552433732313a20696e76616c696420746f6b656e2049440000000000000000600082015250565b600061677c601883615207565b915061678782616746565b602082019050919050565b600060208201905081810360008301526167ab8161676f565b9050919050565b7f4552433732313a2061646472657373207a65726f206973206e6f74206120766160008201527f6c6964206f776e65720000000000000000000000000000000000000000000000602082015250565b600061680e602983615207565b9150616819826167b2565b604082019050919050565b6000602082019050818103600083015261683d81616801565b9050919050565b7f536f6c6f20636f6e747261746f206465207061636b7300000000000000000000600082015250565b600061687a601683615207565b915061688582616844565b602082019050919050565b600060208201905081810360008301526168a98161686d565b9050919050565b7f4e6f207469656e6573206e696e67756e20616c62756d00000000000000000000600082015250565b60006168e6601683615207565b91506168f1826168b0565b602082019050919050565b60006020820190508181036000830152616915816168d9565b9050919050565b7f466f6e646f7320696e737566696369656e746573000000000000000000000000600082015250565b6000616952601483615207565b915061695d8261691c565b602082019050919050565b6000602082019050818103600083015261698181616945565b9050919050565b7f4d75737420636f6d706c6574652074686520616c62756d000000000000000000600082015250565b60006169be601783615207565b91506169c982616988565b602082019050919050565b600060208201905081810360008301526169ed816169b1565b9050919050565b6000819050919050565b6000616a19616a14616a0f846169f4565b61581e565b615126565b9050919050565b616a29816169fe565b82525050565b6000604082019050616a446000830185615311565b616a516020830184616a20565b9392505050565b60008190508160005260206000209050919050565b60006020601f8301049050919050565b600082821b905092915050565b600060088302616aba7fffffffffffffffffffffffffffffffffffffffffffffffffffffffffffffffff82616a7d565b616ac48683616a7d565b95508019841693508086168417925050509392505050565b6000616af7616af2616aed846152ae565b61581e565b6152ae565b9050919050565b6000819050919050565b616b1183616adc565b616b25616b1d82616afe565b848454616a8a565b825550505050565b600090565b616b3a616b2d565b616b45818484616b08565b505050565b5b81811015616b6957616b5e600082616b32565b600181019050616b4b565b5050565b601f821115616bae57616b7f81616a58565b616b8884616a6d565b81016020851015616b97578190505b616bab616ba385616a6d565b830182616b4a565b50505b505050565b600082821c905092915050565b6000616bd160001984600802616bb3565b1980831691505092915050565b6000616bea8383616bc0565b9150826002028217905092915050565b616c03826151fc565b67ffffffffffffffff811115616c1c57616c1b615513565b5b616c268254615d2b565b616c31828285616b6d565b600060209050601f831160018114616c645760008415616c52578287015190505b616c5c8582616bde565b865550616cc4565b601f198416616c7286616a58565b60005b82811015616c9a57848901518255600182019150602085019450602081019050616c75565b86831015616cb75784890151616cb3601f891682616bc0565b8355505b6001600288020188555050505b505050505050565b60006040820190508181036000830152616ce68185615253565b90508181036020830152616cfa8184615253565b90509392505050565b7f456c2076656e6465646f72206e6f207469656e65206573746120636172746100600082015250565b6000616d39601f83615207565b9150616d4482616d03565b602082019050919050565b60006020820190508181036000830152616d6881616d2c565b9050919050565b7f4e6f2074652070756564657320656e766961722063617274617320612074692060008201527f6d69736d6f000000000000000000000000000000000000000000000000000000602082015250565b6000616dcb602583615207565b9150616dd682616d6f565b604082019050919050565b60006020820190508181036000830152616dfa81616dbe565b9050919050565b7f4e6f20707565646573207175656d61722063617274617320646520657374612060008201527f6d616e6572610000000000000000000000000000000000000000000000000000602082015250565b6000616e5d602683615207565b9150616e6882616e01565b604082019050919050565b60006020820190508181036000830152616e8c81616e50565b9050919050565b600081905092915050565b60008190508160005260206000209050919050565b60008154616ec081615d2b565b616eca8186616e93565b94506001821660008114616ee55760018114616efa57616f2d565b60ff1983168652811515820286019350616f2d565b616f0385616e9e565b60005b83811015616f2557815481890152600182019150602081019050616f06565b838801955050505b50505092915050565b600081519050919050565b6000616f4c82616f36565b616f568185616e93565b9350616f66818560208601615218565b80840191505092915050565b6000616f7e8287616eb3565b9150616f8a8286616f41565b9150616f968285616f41565b9150616fa28284616f41565b915081905095945050505050565b7f4f776e61626c653a206e6577206f776e657220697320746865207a65726f206160008201527f6464726573730000000000000000000000000000000000000000000000000000602082015250565b600061700c602683615207565b915061701782616fb0565b604082019050919050565b6000602082019050818103600083015261703b81616fff565b9050919050565b7f4552433732313a207472616e736665722066726f6d20696e636f72726563742060008201527f6f776e6572000000000000000000000000000000000000000000000000000000602082015250565b600061709e602583615207565b91506170a982617042565b604082019050919050565b600060208201905081810360008301526170cd81617091565b9050919050565b7f4552433732313a207472616e7366657220746f20746865207a65726f2061646460008201527f7265737300000000000000000000000000000000000000000000000000000000602082015250565b6000617130602483615207565b915061713b826170d4565b604082019050919050565b6000602082019050818103600083015261715f81617123565b9050919050565b600081905092915050565b7f19457468657265756d205369676e6564204d6573736167653a0a333200000000600082015250565b60006171a7601c83617166565b91506171b282617171565b601c82019050919050565b6000819050919050565b6000819050919050565b6171e26171dd826171bd565b6171c7565b82525050565b60006171f38261719a565b91506171ff82846171d1565b60208201915081905092915050565b7f4f776e61626c653a2063616c6c6572206973206e6f7420746865206f776e6572600082015250565b6000617244602083615207565b915061724f8261720e565b602082019050919050565b6000602082019050818103600083015261727381617237565b9050919050565b7f4552433732313a20617070726f766520746f2063616c6c657200000000000000600082015250565b60006172b0601983615207565b91506172bb8261727a565b602082019050919050565b600060208201905081810360008301526172df816172a3565b9050919050565b7f4552433732313a207472616e7366657220746f206e6f6e20455243373231526560008201527f63656976657220696d706c656d656e7465720000000000000000000000000000602082015250565b6000617342603283615207565b915061734d826172e6565b604082019050919050565b6000602082019050818103600083015261737181617335565b9050919050565b6000617383826151fc565b61738d8185617166565b935061739d818560208601615218565b80840191505092915050565b60006173b58285617378565b91506173c18284617378565b91508190509392505050565b7f45524337323155524953746f726167653a2055524920736574206f66206e6f6e60008201527f6578697374656e7420746f6b656e000000000000000000000000000000000000602082015250565b6000617429602e83615207565b9150617434826173cd565b604082019050919050565b600060208201905081810360008301526174588161741c565b9050919050565b7f4e487b7100000000000000000000000000000000000000000000000000000000600052602160045260246000fd5b7f45434453413a20696e76616c6964207369676e61747572650000000000000000600082015250565b60006174c4601883615207565b91506174cf8261748e565b602082019050919050565b600060208201905081810360008301526174f3816174b7565b9050919050565b7f45434453413a20696e76616c6964207369676e6174757265206c656e67746800600082015250565b6000617530601f83615207565b915061753b826174fa565b602082019050919050565b6000602082019050818103600083015261755f81617523565b9050919050565b7f45434453413a20696e76616c6964207369676e6174757265202773272076616c60008201527f7565000000000000000000000000000000000000000000000000000000000000602082015250565b60006175c2602283615207565b91506175cd82617566565b604082019050919050565b600060208201905081810360008301526175f1816175b5565b9050919050565b600082825260208201905092915050565b600061761482616f36565b61761e81856175f8565b935061762e818560208601615218565b61763781615242565b840191505092915050565b60006080820190506176576000830187615311565b6176646020830186615311565b6176716040830185615777565b81810360608301526176838184617609565b905095945050505050565b60008151905061769d81614fe0565b92915050565b6000602082840312156176b9576176b8614faa565b5b60006176c78482850161768e565b91505092915050565b6176d9816171bd565b82525050565b60006080820190506176f460008301876176d0565b61770160208301866157a1565b61770e60408301856176d0565b61771b60608301846176d0565b95945050505050565b7f4552433732313a206d696e7420746f20746865207a65726f2061646472657373600082015250565b600061775a602083615207565b915061776582617724565b602082019050919050565b600060208201905081810360008301526177898161774d565b9050919050565b7f4552433732313a20746f6b656e20616c7265616479206d696e74656400000000600082015250565b60006177c6601c83615207565b91506177d182617790565b602082019050919050565b600060208201905081810360008301526177f5816177b9565b905091905056fea2646970667358221220c8aa22907eab086d44716f80483a8e2f31df0b768e719333e598993013a5aae064736f6c63430008120033",
  "linkReferences": {},
  "deployedLinkReferences": {}
}