{
  "_format": "hh-sol-artifact-1",
  "contractName": "LibPackVerifier",
  "sourceName": "contracts/gamma/libs/LibPackVerifier.sol",
  "abi": [
    {
      "inputs": [],
      "name": "ECDSAInvalidSignature",
      "type": "error"
    },
    {
      "inputs": [
        {
          "internalType": "uint256",
          "name": "length",
          "type": "uint256"
        }
      ],
      "name": "ECDSAInvalidSignatureLength",
      "type": "error"
    },
    {
      "inputs": [
        {
          "internalType": "bytes32",
          "name": "s",
          "type": "bytes32"
        }
      ],
      "name": "ECDSAInvalidSignatureS",
      "type": "error"
    },
    {
      "inputs": [
        {
          "internalType": "address",
          "name": "sender",
          "type": "address"
        },
        {
          "internalType": "uint256",
          "name": "packNumber",
          "type": "uint256"
        },
        {
          "internalType": "uint8[]",
          "name": "packData",
          "type": "uint8[]"
        },
        {
          "internalType": "bytes",
          "name": "signature",
          "type": "bytes"
        }
      ],
      "name": "verifyPackSigner",
      "outputs": [
        {
          "internalType": "address",
          "name": "",
          "type": "address"
        }
      ],
      "stateMutability": "pure",
      "type": "function"
    }
  ],
  "bytecode": "0x61058c61003a600b82828239805160001a60731461002d57634e487b7160e01b600052600060045260246000fd5b30600052607381538281f3fe73000000000000000000000000000000000000000030146080604052600436106100355760003560e01c806338fb7d8b1461003a575b600080fd5b61004d61004836600461039c565b610069565b6040516001600160a01b03909116815260200160405180910390f35b6000806100cd878787604051602001610084939291906104b2565b604051602081830303815290604052805190602001207f19457468657265756d205369676e6564204d6573736167653a0a3332000000006000908152601c91909152603c902090565b9050600061011385858080601f016020809104026020016040519081016040528093929190818152602001838380828437600092019190915250869392505061011f9050565b98975050505050505050565b60008060008061012f8686610149565b92509250925061013f8282610196565b5090949350505050565b600080600083516041036101835760208401516040850151606086015160001a61017588828585610258565b95509550955050505061018f565b50508151600091506002905b9250925092565b60008260038111156101aa576101aa610540565b036101b3575050565b60018260038111156101c7576101c7610540565b036101e55760405163f645eedf60e01b815260040160405180910390fd5b60028260038111156101f9576101f9610540565b0361021f5760405163fce698f760e01b8152600481018290526024015b60405180910390fd5b600382600381111561023357610233610540565b03610254576040516335e2f38360e21b815260048101829052602401610216565b5050565b600080807f7fffffffffffffffffffffffffffffff5d576e7357a4501ddfe92f46681b20a0841115610293575060009150600390508261031d565b604080516000808252602082018084528a905260ff891692820192909252606081018790526080810186905260019060a0016020604051602081039080840390855afa1580156102e7573d6000803e3d6000fd5b5050604051601f1901519150506001600160a01b0381166103135750600092506001915082905061031d565b9250600091508190505b9450945094915050565b634e487b7160e01b600052604160045260246000fd5b803560ff8116811461034e57600080fd5b919050565b60008083601f84011261036557600080fd5b50813567ffffffffffffffff81111561037d57600080fd5b60208301915083602082850101111561039557600080fd5b9250929050565b6000806000806000608086880312156103b457600080fd5b85356001600160a01b03811681146103cb57600080fd5b94506020868101359450604087013567ffffffffffffffff808211156103f057600080fd5b818901915089601f83011261040457600080fd5b81358181111561041657610416610327565b8060051b604051601f19603f8301168101818110858211171561043b5761043b610327565b6040529182528381018501918581018d84111561045757600080fd5b948601945b8386101561047a5761046d8661033d565b815294860194860161045c565b5097505050606089013592508083111561049357600080fd5b50506104a188828901610353565b969995985093965092949392505050565b6bffffffffffffffffffffffff198460601b1681528260148201526000603482018351602080860160005b838110156104fc57815160ff16855293820193908201906001016104dd565b50507f30786631644437313839356534396231353633363933393639646535303839388352693139376344463334383160b01b9083015250602a0195945050505050565b634e487b7160e01b600052602160045260246000fdfea264697066735822122031137824af166079df823af04362858a738d821388548f231f814ae4e5acccb364736f6c63430008140033",
  "linkReferences": {},
  "deployedLinkReferences": {}
}