{
  "_format": "hh-sol-artifact-1",
  "contractName": "AccessControlMixin",
  "sourceName": "contracts/testDai/TestDAI.v3.sol",
  "abi": [
    {
      "anonymous": false,
      "inputs": [
        {
          "indexed": true,
          "internalType": "bytes32",
          "name": "role",
          "type": "bytes32"
        },
        {
          "indexed": true,
          "internalType": "bytes32",
          "name": "previousAdminRole",
          "type": "bytes32"
        },
        {
          "indexed": true,
          "internalType": "bytes32",
          "name": "newAdminRole",
          "type": "bytes32"
        }
      ],
      "name": "RoleAdminChanged",
      "type": "event"
    },
    {
      "anonymous": false,
      "inputs": [
        {
          "indexed": true,
          "internalType": "bytes32",
          "name": "role",
          "type": "bytes32"
        },
        {
          "indexed": true,
          "internalType": "address",
          "name": "account",
          "type": "address"
        },
        {
          "indexed": true,
          "internalType": "address",
          "name": "sender",
          "type": "address"
        }
      ],
      "name": "RoleGranted",
      "type": "event"
    },
    {
      "anonymous": false,
      "inputs": [
        {
          "indexed": true,
          "internalType": "bytes32",
          "name": "role",
          "type": "bytes32"
        },
        {
          "indexed": true,
          "internalType": "address",
          "name": "account",
          "type": "address"
        },
        {
          "indexed": true,
          "internalType": "address",
          "name": "sender",
          "type": "address"
        }
      ],
      "name": "RoleRevoked",
      "type": "event"
    },
    {
      "inputs": [],
      "name": "DEFAULT_ADMIN_ROLE",
      "outputs": [
        {
          "internalType": "bytes32",
          "name": "",
          "type": "bytes32"
        }
      ],
      "stateMutability": "view",
      "type": "function"
    },
    {
      "inputs": [
        {
          "internalType": "bytes32",
          "name": "role",
          "type": "bytes32"
        }
      ],
      "name": "getRoleAdmin",
      "outputs": [
        {
          "internalType": "bytes32",
          "name": "",
          "type": "bytes32"
        }
      ],
      "stateMutability": "view",
      "type": "function"
    },
    {
      "inputs": [
        {
          "internalType": "bytes32",
          "name": "role",
          "type": "bytes32"
        },
        {
          "internalType": "uint256",
          "name": "index",
          "type": "uint256"
        }
      ],
      "name": "getRoleMember",
      "outputs": [
        {
          "internalType": "address",
          "name": "",
          "type": "address"
        }
      ],
      "stateMutability": "view",
      "type": "function"
    },
    {
      "inputs": [
        {
          "internalType": "bytes32",
          "name": "role",
          "type": "bytes32"
        }
      ],
      "name": "getRoleMemberCount",
      "outputs": [
        {
          "internalType": "uint256",
          "name": "",
          "type": "uint256"
        }
      ],
      "stateMutability": "view",
      "type": "function"
    },
    {
      "inputs": [
        {
          "internalType": "bytes32",
          "name": "role",
          "type": "bytes32"
        },
        {
          "internalType": "address",
          "name": "account",
          "type": "address"
        }
      ],
      "name": "grantRole",
      "outputs": [],
      "stateMutability": "nonpayable",
      "type": "function"
    },
    {
      "inputs": [
        {
          "internalType": "bytes32",
          "name": "role",
          "type": "bytes32"
        },
        {
          "internalType": "address",
          "name": "account",
          "type": "address"
        }
      ],
      "name": "hasRole",
      "outputs": [
        {
          "internalType": "bool",
          "name": "",
          "type": "bool"
        }
      ],
      "stateMutability": "view",
      "type": "function"
    },
    {
      "inputs": [
        {
          "internalType": "bytes32",
          "name": "role",
          "type": "bytes32"
        },
        {
          "internalType": "address",
          "name": "account",
          "type": "address"
        }
      ],
      "name": "renounceRole",
      "outputs": [],
      "stateMutability": "nonpayable",
      "type": "function"
    },
    {
      "inputs": [
        {
          "internalType": "bytes32",
          "name": "role",
          "type": "bytes32"
        },
        {
          "internalType": "address",
          "name": "account",
          "type": "address"
        }
      ],
      "name": "revokeRole",
      "outputs": [],
      "stateMutability": "nonpayable",
      "type": "function"
    }
  ],
  "bytecode": "0x608060405234801561001057600080fd5b50610736806100206000396000f3fe608060405234801561001057600080fd5b50600436106100885760003560e01c806391d148541161005b57806391d1485414610116578063a217fddf14610139578063ca15c87314610141578063d547741f1461015457600080fd5b8063248a9ca31461008d5780632f2ff15d146100c357806336568abe146100d85780639010d07c146100eb575b600080fd5b6100b061009b366004610621565b60009081526020819052604090206002015490565b6040519081526020015b60405180910390f35b6100d66100d136600461063a565b610167565b005b6100d66100e636600461063a565b6101fa565b6100fe6100f9366004610676565b610274565b6040516001600160a01b0390911681526020016100ba565b61012961012436600461063a565b610295565b60405190151581526020016100ba565b6100b0600081565b6100b061014f366004610621565b6102ad565b6100d661016236600461063a565b6102c4565b6000828152602081905260409020600201546101839033610295565b6101ec5760405162461bcd60e51b815260206004820152602f60248201527f416363657373436f6e74726f6c3a2073656e646572206d75737420626520616e60448201526e0818591b5a5b881d1bc819dc985b9d608a1b60648201526084015b60405180910390fd5b6101f68282610345565b5050565b6001600160a01b038116331461026a5760405162461bcd60e51b815260206004820152602f60248201527f416363657373436f6e74726f6c3a2063616e206f6e6c792072656e6f756e636560448201526e103937b632b9903337b91039b2b63360891b60648201526084016101e3565b6101f6828261039e565b600082815260208190526040812061028c90836103f7565b90505b92915050565b600082815260208190526040812061028c9083610403565b600081815260208190526040812061028f90610425565b6000828152602081905260409020600201546102e09033610295565b61026a5760405162461bcd60e51b815260206004820152603060248201527f416363657373436f6e74726f6c3a2073656e646572206d75737420626520616e60448201526f2061646d696e20746f207265766f6b6560801b60648201526084016101e3565b600082815260208190526040902061035d908261042f565b156101f65760405133906001600160a01b0383169084907f2f8788117e7eff1d82e926ec794901d17c78024a50270940304540a733656f0d90600090a45050565b60008281526020819052604090206103b69082610444565b156101f65760405133906001600160a01b0383169084907ff6391f5c32d9c69d2a47ea670b442974b53935d1edc7fd64eb21e047a839171b90600090a45050565b600061028c8383610459565b6001600160a01b0381166000908152600183016020526040812054151561028c565b600061028f825490565b600061028c836001600160a01b0384166104df565b600061028c836001600160a01b03841661052e565b815460009082106104b75760405162461bcd60e51b815260206004820152602260248201527f456e756d657261626c655365743a20696e646578206f7574206f6620626f756e604482015261647360f01b60648201526084016101e3565b8260000182815481106104cc576104cc610698565b9060005260206000200154905092915050565b60008181526001830160205260408120546105265750815460018181018455600084815260208082209093018490558454848252828601909352604090209190915561028f565b50600061028f565b600081815260018301602052604081205480156106175760006105526001836106c4565b8554909150600090610566906001906106c4565b9050600086600001828154811061057f5761057f610698565b90600052602060002001549050808760000184815481106105a2576105a2610698565b6000918252602090912001556105b98360016106d7565b600082815260018901602052604090205586548790806105db576105db6106ea565b6001900381819060005260206000200160009055905586600101600087815260200190815260200160002060009055600194505050505061028f565b600091505061028f565b60006020828403121561063357600080fd5b5035919050565b6000806040838503121561064d57600080fd5b8235915060208301356001600160a01b038116811461066b57600080fd5b809150509250929050565b6000806040838503121561068957600080fd5b50508035926020909101359150565b634e487b7160e01b600052603260045260246000fd5b634e487b7160e01b600052601160045260246000fd5b8181038181111561028f5761028f6106ae565b8082018082111561028f5761028f6106ae565b634e487b7160e01b600052603160045260246000fdfea2646970667358221220a15be5456a96593c6edd3802a275e3dd7756d3a52b4a74c13dea4acd9b77592864736f6c63430008140033",
  "linkReferences": {},
  "deployedLinkReferences": {}
}