{
  "_format": "hh-sol-artifact-1",
  "contractName": "ERC20",
  "sourceName": "contracts/testDai/TestDAI.v3.sol",
  "abi": [
    {
      "inputs": [
        {
          "internalType": "string",
          "name": "__name",
          "type": "string"
        },
        {
          "internalType": "string",
          "name": "__symbol",
          "type": "string"
        }
      ],
      "stateMutability": "nonpayable",
      "type": "constructor"
    },
    {
      "anonymous": false,
      "inputs": [
        {
          "indexed": true,
          "internalType": "address",
          "name": "owner",
          "type": "address"
        },
        {
          "indexed": true,
          "internalType": "address",
          "name": "spender",
          "type": "address"
        },
        {
          "indexed": false,
          "internalType": "uint256",
          "name": "value",
          "type": "uint256"
        }
      ],
      "name": "Approval",
      "type": "event"
    },
    {
      "anonymous": false,
      "inputs": [
        {
          "indexed": true,
          "internalType": "address",
          "name": "from",
          "type": "address"
        },
        {
          "indexed": true,
          "internalType": "address",
          "name": "to",
          "type": "address"
        },
        {
          "indexed": false,
          "internalType": "uint256",
          "name": "value",
          "type": "uint256"
        }
      ],
      "name": "Transfer",
      "type": "event"
    },
    {
      "inputs": [
        {
          "internalType": "address",
          "name": "account",
          "type": "address"
        },
        {
          "internalType": "uint256",
          "name": "amount",
          "type": "uint256"
        }
      ],
      "name": "_mint",
      "outputs": [],
      "stateMutability": "nonpayable",
      "type": "function"
    },
    {
      "inputs": [
        {
          "internalType": "address",
          "name": "owner",
          "type": "address"
        },
        {
          "internalType": "address",
          "name": "spender",
          "type": "address"
        }
      ],
      "name": "allowance",
      "outputs": [
        {
          "internalType": "uint256",
          "name": "",
          "type": "uint256"
        }
      ],
      "stateMutability": "view",
      "type": "function"
    },
    {
      "inputs": [
        {
          "internalType": "address",
          "name": "spender",
          "type": "address"
        },
        {
          "internalType": "uint256",
          "name": "amount",
          "type": "uint256"
        }
      ],
      "name": "approve",
      "outputs": [
        {
          "internalType": "bool",
          "name": "",
          "type": "bool"
        }
      ],
      "stateMutability": "nonpayable",
      "type": "function"
    },
    {
      "inputs": [
        {
          "internalType": "address",
          "name": "account",
          "type": "address"
        }
      ],
      "name": "balanceOf",
      "outputs": [
        {
          "internalType": "uint256",
          "name": "",
          "type": "uint256"
        }
      ],
      "stateMutability": "view",
      "type": "function"
    },
    {
      "inputs": [],
      "name": "decimals",
      "outputs": [
        {
          "internalType": "uint8",
          "name": "",
          "type": "uint8"
        }
      ],
      "stateMutability": "view",
      "type": "function"
    },
    {
      "inputs": [
        {
          "internalType": "address",
          "name": "spender",
          "type": "address"
        },
        {
          "internalType": "uint256",
          "name": "subtractedValue",
          "type": "uint256"
        }
      ],
      "name": "decreaseAllowance",
      "outputs": [
        {
          "internalType": "bool",
          "name": "",
          "type": "bool"
        }
      ],
      "stateMutability": "nonpayable",
      "type": "function"
    },
    {
      "inputs": [
        {
          "internalType": "address",
          "name": "spender",
          "type": "address"
        },
        {
          "internalType": "uint256",
          "name": "addedValue",
          "type": "uint256"
        }
      ],
      "name": "increaseAllowance",
      "outputs": [
        {
          "internalType": "bool",
          "name": "",
          "type": "bool"
        }
      ],
      "stateMutability": "nonpayable",
      "type": "function"
    },
    {
      "inputs": [],
      "name": "name",
      "outputs": [
        {
          "internalType": "string",
          "name": "",
          "type": "string"
        }
      ],
      "stateMutability": "view",
      "type": "function"
    },
    {
      "inputs": [],
      "name": "symbol",
      "outputs": [
        {
          "internalType": "string",
          "name": "",
          "type": "string"
        }
      ],
      "stateMutability": "view",
      "type": "function"
    },
    {
      "inputs": [],
      "name": "totalSupply",
      "outputs": [
        {
          "internalType": "uint256",
          "name": "",
          "type": "uint256"
        }
      ],
      "stateMutability": "view",
      "type": "function"
    },
    {
      "inputs": [
        {
          "internalType": "address",
          "name": "recipient",
          "type": "address"
        },
        {
          "internalType": "uint256",
          "name": "amount",
          "type": "uint256"
        }
      ],
      "name": "transfer",
      "outputs": [
        {
          "internalType": "bool",
          "name": "",
          "type": "bool"
        }
      ],
      "stateMutability": "nonpayable",
      "type": "function"
    },
    {
      "inputs": [
        {
          "internalType": "address",
          "name": "sender",
          "type": "address"
        },
        {
          "internalType": "address",
          "name": "recipient",
          "type": "address"
        },
        {
          "internalType": "uint256",
          "name": "amount",
          "type": "uint256"
        }
      ],
      "name": "transferFrom",
      "outputs": [
        {
          "internalType": "bool",
          "name": "",
          "type": "bool"
        }
      ],
      "stateMutability": "nonpayable",
      "type": "function"
    }
  ],
  "bytecode": "0x60806040523480156200001157600080fd5b5060405162000d0838038062000d0883398101604081905262000034916200012c565b600362000042838262000225565b50600462000051828262000225565b50506005805460ff1916601217905550620002f1565b634e487b7160e01b600052604160045260246000fd5b600082601f8301126200008f57600080fd5b81516001600160401b0380821115620000ac57620000ac62000067565b604051601f8301601f19908116603f01168101908282118183101715620000d757620000d762000067565b81604052838152602092508683858801011115620000f457600080fd5b600091505b83821015620001185785820183015181830184015290820190620000f9565b600093810190920192909252949350505050565b600080604083850312156200014057600080fd5b82516001600160401b03808211156200015857600080fd5b62000166868387016200007d565b935060208501519150808211156200017d57600080fd5b506200018c858286016200007d565b9150509250929050565b600181811c90821680620001ab57607f821691505b602082108103620001cc57634e487b7160e01b600052602260045260246000fd5b50919050565b601f8211156200022057600081815260208120601f850160051c81016020861015620001fb5750805b601f850160051c820191505b818110156200021c5782815560010162000207565b5050505b505050565b81516001600160401b0381111562000241576200024162000067565b620002598162000252845462000196565b84620001d2565b602080601f831160018114620002915760008415620002785750858301515b600019600386901b1c1916600185901b1785556200021c565b600085815260208120601f198616915b82811015620002c257888601518255948401946001909101908401620002a1565b5085821015620002e15787850151600019600388901b60f8161c191681555b5050505050600190811b01905550565b610a0780620003016000396000f3fe608060405234801561001057600080fd5b50600436106100b45760003560e01c80634e6ec247116100715780634e6ec2471461014757806370a082311461015c57806395d89b4114610185578063a457c2d71461018d578063a9059cbb146101a0578063dd62ed3e146101b357600080fd5b806306fdde03146100b9578063095ea7b3146100d757806318160ddd146100fa57806323b872dd1461010c578063313ce5671461011f5780633950935114610134575b600080fd5b6100c16101ec565b6040516100ce91906107ca565b60405180910390f35b6100ea6100e5366004610834565b61027e565b60405190151581526020016100ce565b6002545b6040519081526020016100ce565b6100ea61011a36600461085e565b610295565b60055460405160ff90911681526020016100ce565b6100ea610142366004610834565b6102fe565b61015a610155366004610834565b610334565b005b6100fe61016a36600461089a565b6001600160a01b031660009081526020819052604090205490565b6100c1610417565b6100ea61019b366004610834565b610426565b6100ea6101ae366004610834565b610475565b6100fe6101c13660046108b5565b6001600160a01b03918216600090815260016020908152604080832093909416825291909152205490565b6060600380546101fb906108e8565b80601f0160208091040260200160405190810160405280929190818152602001828054610227906108e8565b80156102745780601f1061024957610100808354040283529160200191610274565b820191906000526020600020905b81548152906001019060200180831161025757829003601f168201915b5050505050905090565b600061028b338484610482565b5060015b92915050565b60006102a28484846105a7565b6102f484336102ef85604051806060016040528060288152602001610985602891396001600160a01b038a166000908152600160209081526040808320338452909152902054919061072a565b610482565b5060019392505050565b3360008181526001602090815260408083206001600160a01b0387168452909152812054909161028b9185906102ef9086610764565b6001600160a01b03821661038f5760405162461bcd60e51b815260206004820152601f60248201527f45524332303a206d696e7420746f20746865207a65726f20616464726573730060448201526064015b60405180910390fd5b60025461039c9082610764565b6002556001600160a01b0382166000908152602081905260409020546103c29082610764565b6001600160a01b038316600081815260208181526040808320949094559251848152919290917fddf252ad1be2c89b69c2b068fc378daa952ba7f163c4a11628f55a4df523b3ef910160405180910390a35050565b6060600480546101fb906108e8565b600061028b33846102ef856040518060600160405280602581526020016109ad602591393360009081526001602090815260408083206001600160a01b038d168452909152902054919061072a565b600061028b3384846105a7565b6001600160a01b0383166104e45760405162461bcd60e51b8152602060048201526024808201527f45524332303a20617070726f76652066726f6d20746865207a65726f206164646044820152637265737360e01b6064820152608401610386565b6001600160a01b0382166105455760405162461bcd60e51b815260206004820152602260248201527f45524332303a20617070726f766520746f20746865207a65726f206164647265604482015261737360f01b6064820152608401610386565b6001600160a01b0383811660008181526001602090815260408083209487168084529482529182902085905590518481527f8c5be1e5ebec7d5bd14f71427d1e84f3dd0314c0f7b2291e5b200ac8c7c3b92591015b60405180910390a3505050565b6001600160a01b03831661060b5760405162461bcd60e51b815260206004820152602560248201527f45524332303a207472616e736665722066726f6d20746865207a65726f206164604482015264647265737360d81b6064820152608401610386565b6001600160a01b03821661066d5760405162461bcd60e51b815260206004820152602360248201527f45524332303a207472616e7366657220746f20746865207a65726f206164647260448201526265737360e81b6064820152608401610386565b6106aa8160405180606001604052806026815260200161095f602691396001600160a01b038616600090815260208190526040902054919061072a565b6001600160a01b0380851660009081526020819052604080822093909355908416815220546106d99082610764565b6001600160a01b038381166000818152602081815260409182902094909455518481529092918616917fddf252ad1be2c89b69c2b068fc378daa952ba7f163c4a11628f55a4df523b3ef910161059a565b6000818484111561074e5760405162461bcd60e51b815260040161038691906107ca565b50600061075b8486610938565b95945050505050565b600080610771838561094b565b9050838110156107c35760405162461bcd60e51b815260206004820152601b60248201527f536166654d6174683a206164646974696f6e206f766572666c6f7700000000006044820152606401610386565b9392505050565b600060208083528351808285015260005b818110156107f7578581018301518582016040015282016107db565b506000604082860101526040601f19601f8301168501019250505092915050565b80356001600160a01b038116811461082f57600080fd5b919050565b6000806040838503121561084757600080fd5b61085083610818565b946020939093013593505050565b60008060006060848603121561087357600080fd5b61087c84610818565b925061088a60208501610818565b9150604084013590509250925092565b6000602082840312156108ac57600080fd5b6107c382610818565b600080604083850312156108c857600080fd5b6108d183610818565b91506108df60208401610818565b90509250929050565b600181811c908216806108fc57607f821691505b60208210810361091c57634e487b7160e01b600052602260045260246000fd5b50919050565b634e487b7160e01b600052601160045260246000fd5b8181038181111561028f5761028f610922565b8082018082111561028f5761028f61092256fe45524332303a207472616e7366657220616d6f756e7420657863656564732062616c616e636545524332303a207472616e7366657220616d6f756e74206578636565647320616c6c6f77616e636545524332303a2064656372656173656420616c6c6f77616e63652062656c6f77207a65726fa26469706673582212208098355556e06117134b1244f355d02195dd43058369f2ab5f33ef72720cd90064736f6c63430008140033",
  "linkReferences": {},
  "deployedLinkReferences": {}
}