{
  "_format": "hh-sol-artifact-1",
  "contractName": "NativeMetaTransaction",
  "sourceName": "contracts/testDai/TestDAI.v3.sol",
  "abi": [
    {
      "anonymous": false,
      "inputs": [
        {
          "indexed": false,
          "internalType": "address",
          "name": "userAddress",
          "type": "address"
        },
        {
          "indexed": false,
          "internalType": "address payable",
          "name": "relayerAddress",
          "type": "address"
        },
        {
          "indexed": false,
          "internalType": "bytes",
          "name": "functionSignature",
          "type": "bytes"
        }
      ],
      "name": "MetaTransactionExecuted",
      "type": "event"
    },
    {
      "inputs": [
        {
          "internalType": "address",
          "name": "userAddress",
          "type": "address"
        },
        {
          "internalType": "bytes",
          "name": "functionSignature",
          "type": "bytes"
        },
        {
          "internalType": "bytes32",
          "name": "sigR",
          "type": "bytes32"
        },
        {
          "internalType": "bytes32",
          "name": "sigS",
          "type": "bytes32"
        },
        {
          "internalType": "uint8",
          "name": "sigV",
          "type": "uint8"
        }
      ],
      "name": "executeMetaTransaction",
      "outputs": [
        {
          "internalType": "bytes",
          "name": "",
          "type": "bytes"
        }
      ],
      "stateMutability": "payable",
      "type": "function"
    },
    {
      "inputs": [],
      "name": "getChainId",
      "outputs": [
        {
          "internalType": "uint256",
          "name": "",
          "type": "uint256"
        }
      ],
      "stateMutability": "view",
      "type": "function"
    },
    {
      "inputs": [],
      "name": "getDomainSeperator",
      "outputs": [
        {
          "internalType": "bytes32",
          "name": "",
          "type": "bytes32"
        }
      ],
      "stateMutability": "view",
      "type": "function"
    },
    {
      "inputs": [
        {
          "internalType": "address",
          "name": "user",
          "type": "address"
        }
      ],
      "name": "getNonce",
      "outputs": [
        {
          "internalType": "uint256",
          "name": "nonce",
          "type": "uint256"
        }
      ],
      "stateMutability": "view",
      "type": "function"
    }
  ],
  "bytecode": "0x60806040526000805460ff1916905534801561001a57600080fd5b506107998061002a6000396000f3fe60806040526004361061003f5760003560e01c80630c53c51c1461004457806320379ee51461006d5780632d0335ab1461008c5780633408e470146100c2575b600080fd5b61005761005236600461050c565b6100d5565b6040516100649190610642565b60405180910390f35b34801561007957600080fd5b506001545b604051908152602001610064565b34801561009857600080fd5b5061007e6100a736600461065c565b6001600160a01b031660009081526002602052604090205490565b3480156100ce57600080fd5b504661007e565b60408051606081810183526001600160a01b0388166000818152600260209081529085902054845283015291810186905261011387828787876102c4565b61016e5760405162461bcd60e51b815260206004820152602160248201527f5369676e657220616e64207369676e617475726520646f206e6f74206d6174636044820152600d60fb1b60648201526084015b60405180910390fd5b6001600160a01b0387166000908152600260205260409020546101929060016103b4565b6001600160a01b0388166000908152600260205260409081902091909155517f5845892132946850460bff5a0083f71031bc5bf9aadcd40f1de79423eac9b10b906101e290899033908a90610677565b60405180910390a1600080306001600160a01b0316888a60405160200161020a9291906106ac565b60408051601f1981840301815290829052610224916106e3565b6000604051808303816000865af19150503d8060008114610261576040519150601f19603f3d011682016040523d82523d6000602084013e610266565b606091505b5091509150816102b85760405162461bcd60e51b815260206004820152601c60248201527f46756e6374696f6e2063616c6c206e6f74207375636365737366756c000000006044820152606401610165565b98975050505050505050565b60006001600160a01b03861661032a5760405162461bcd60e51b815260206004820152602560248201527f4e61746976654d6574615472616e73616374696f6e3a20494e56414c49445f5360448201526424a3a722a960d91b6064820152608401610165565b600161033d6103388761041c565b610499565b6040805160008152602081018083529290925260ff851690820152606081018690526080810185905260a0016020604051602081039080840390855afa15801561038b573d6000803e3d6000fd5b505050602060405103516001600160a01b0316866001600160a01b031614905095945050505050565b6000806103c183856106ff565b9050838110156104135760405162461bcd60e51b815260206004820152601b60248201527f536166654d6174683a206164646974696f6e206f766572666c6f7700000000006044820152606401610165565b90505b92915050565b6000604051806080016040528060438152602001610721604391398051602091820120835184830151604080870151805190860120905161047c950193845260208401929092526001600160a01b03166040830152606082015260800190565b604051602081830303815290604052805190602001209050919050565b60006104a460015490565b60405161190160f01b602082015260228101919091526042810183905260620161047c565b80356001600160a01b03811681146104e057600080fd5b919050565b634e487b7160e01b600052604160045260246000fd5b803560ff811681146104e057600080fd5b600080600080600060a0868803121561052457600080fd5b61052d866104c9565b9450602086013567ffffffffffffffff8082111561054a57600080fd5b818801915088601f83011261055e57600080fd5b813581811115610570576105706104e5565b604051601f8201601f19908116603f01168101908382118183101715610598576105986104e5565b816040528281528b60208487010111156105b157600080fd5b82602086016020830137600060208483010152809850505050505060408601359250606086013591506105e6608087016104fb565b90509295509295909350565b60005b8381101561060d5781810151838201526020016105f5565b50506000910152565b6000815180845261062e8160208601602086016105f2565b601f01601f19169290920160200192915050565b6020815260006106556020830184610616565b9392505050565b60006020828403121561066e57600080fd5b610655826104c9565b6001600160a01b038481168252831660208201526060604082018190526000906106a390830184610616565b95945050505050565b600083516106be8184602088016105f2565b60609390931b6bffffffffffffffffffffffff19169190920190815260140192915050565b600082516106f58184602087016105f2565b9190910192915050565b8082018082111561041657634e487b7160e01b600052601160045260246000fdfe4d6574615472616e73616374696f6e2875696e74323536206e6f6e63652c616464726573732066726f6d2c62797465732066756e6374696f6e5369676e617475726529a2646970667358221220c0ef7d9248999f2285eff1b86e454abed25b72d6cc6591610a4bbbe450aa744364736f6c63430008140033",
  "linkReferences": {},
  "deployedLinkReferences": {}
}