{
  "_format": "hh-sol-artifact-1",
  "contractName": "NofTestDAIV3",
  "sourceName": "contracts/testDai/TestDAI.v3.sol",
  "abi": [
    {
      "anonymous": false,
      "inputs": [
        {
          "indexed": true,
          "internalType": "address",
          "name": "owner",
          "type": "address"
        },
        {
          "indexed": true,
          "internalType": "address",
          "name": "spender",
          "type": "address"
        },
        {
          "indexed": false,
          "internalType": "uint256",
          "name": "value",
          "type": "uint256"
        }
      ],
      "name": "Approval",
      "type": "event"
    },
    {
      "anonymous": false,
      "inputs": [
        {
          "indexed": false,
          "internalType": "address",
          "name": "userAddress",
          "type": "address"
        },
        {
          "indexed": false,
          "internalType": "address payable",
          "name": "relayerAddress",
          "type": "address"
        },
        {
          "indexed": false,
          "internalType": "bytes",
          "name": "functionSignature",
          "type": "bytes"
        }
      ],
      "name": "MetaTransactionExecuted",
      "type": "event"
    },
    {
      "anonymous": false,
      "inputs": [
        {
          "indexed": true,
          "internalType": "bytes32",
          "name": "role",
          "type": "bytes32"
        },
        {
          "indexed": true,
          "internalType": "bytes32",
          "name": "previousAdminRole",
          "type": "bytes32"
        },
        {
          "indexed": true,
          "internalType": "bytes32",
          "name": "newAdminRole",
          "type": "bytes32"
        }
      ],
      "name": "RoleAdminChanged",
      "type": "event"
    },
    {
      "anonymous": false,
      "inputs": [
        {
          "indexed": true,
          "internalType": "bytes32",
          "name": "role",
          "type": "bytes32"
        },
        {
          "indexed": true,
          "internalType": "address",
          "name": "account",
          "type": "address"
        },
        {
          "indexed": true,
          "internalType": "address",
          "name": "sender",
          "type": "address"
        }
      ],
      "name": "RoleGranted",
      "type": "event"
    },
    {
      "anonymous": false,
      "inputs": [
        {
          "indexed": true,
          "internalType": "bytes32",
          "name": "role",
          "type": "bytes32"
        },
        {
          "indexed": true,
          "internalType": "address",
          "name": "account",
          "type": "address"
        },
        {
          "indexed": true,
          "internalType": "address",
          "name": "sender",
          "type": "address"
        }
      ],
      "name": "RoleRevoked",
      "type": "event"
    },
    {
      "anonymous": false,
      "inputs": [
        {
          "indexed": true,
          "internalType": "address",
          "name": "from",
          "type": "address"
        },
        {
          "indexed": true,
          "internalType": "address",
          "name": "to",
          "type": "address"
        },
        {
          "indexed": false,
          "internalType": "uint256",
          "name": "value",
          "type": "uint256"
        }
      ],
      "name": "Transfer",
      "type": "event"
    },
    {
      "inputs": [],
      "name": "CHILD_CHAIN_ID",
      "outputs": [
        {
          "internalType": "uint256",
          "name": "",
          "type": "uint256"
        }
      ],
      "stateMutability": "view",
      "type": "function"
    },
    {
      "inputs": [],
      "name": "CHILD_CHAIN_ID_BYTES",
      "outputs": [
        {
          "internalType": "bytes",
          "name": "",
          "type": "bytes"
        }
      ],
      "stateMutability": "view",
      "type": "function"
    },
    {
      "inputs": [],
      "name": "DEFAULT_ADMIN_ROLE",
      "outputs": [
        {
          "internalType": "bytes32",
          "name": "",
          "type": "bytes32"
        }
      ],
      "stateMutability": "view",
      "type": "function"
    },
    {
      "inputs": [],
      "name": "DEPOSITOR_ROLE",
      "outputs": [
        {
          "internalType": "bytes32",
          "name": "",
          "type": "bytes32"
        }
      ],
      "stateMutability": "view",
      "type": "function"
    },
    {
      "inputs": [],
      "name": "ERC712_VERSION",
      "outputs": [
        {
          "internalType": "string",
          "name": "",
          "type": "string"
        }
      ],
      "stateMutability": "view",
      "type": "function"
    },
    {
      "inputs": [],
      "name": "PERMIT_TYPEHASH",
      "outputs": [
        {
          "internalType": "bytes32",
          "name": "",
          "type": "bytes32"
        }
      ],
      "stateMutability": "view",
      "type": "function"
    },
    {
      "inputs": [],
      "name": "ROOT_CHAIN_ID",
      "outputs": [
        {
          "internalType": "uint256",
          "name": "",
          "type": "uint256"
        }
      ],
      "stateMutability": "view",
      "type": "function"
    },
    {
      "inputs": [],
      "name": "ROOT_CHAIN_ID_BYTES",
      "outputs": [
        {
          "internalType": "bytes",
          "name": "",
          "type": "bytes"
        }
      ],
      "stateMutability": "view",
      "type": "function"
    },
    {
      "inputs": [
        {
          "internalType": "address",
          "name": "account",
          "type": "address"
        },
        {
          "internalType": "uint256",
          "name": "amount",
          "type": "uint256"
        }
      ],
      "name": "_mint",
      "outputs": [],
      "stateMutability": "nonpayable",
      "type": "function"
    },
    {
      "inputs": [
        {
          "internalType": "address",
          "name": "owner",
          "type": "address"
        },
        {
          "internalType": "address",
          "name": "spender",
          "type": "address"
        }
      ],
      "name": "allowance",
      "outputs": [
        {
          "internalType": "uint256",
          "name": "",
          "type": "uint256"
        }
      ],
      "stateMutability": "view",
      "type": "function"
    },
    {
      "inputs": [
        {
          "internalType": "address",
          "name": "spender",
          "type": "address"
        },
        {
          "internalType": "uint256",
          "name": "amount",
          "type": "uint256"
        }
      ],
      "name": "approve",
      "outputs": [
        {
          "internalType": "bool",
          "name": "",
          "type": "bool"
        }
      ],
      "stateMutability": "nonpayable",
      "type": "function"
    },
    {
      "inputs": [
        {
          "internalType": "address",
          "name": "account",
          "type": "address"
        }
      ],
      "name": "balanceOf",
      "outputs": [
        {
          "internalType": "uint256",
          "name": "",
          "type": "uint256"
        }
      ],
      "stateMutability": "view",
      "type": "function"
    },
    {
      "inputs": [
        {
          "internalType": "string",
          "name": "name_",
          "type": "string"
        }
      ],
      "name": "changeName",
      "outputs": [],
      "stateMutability": "nonpayable",
      "type": "function"
    },
    {
      "inputs": [],
      "name": "decimals",
      "outputs": [
        {
          "internalType": "uint8",
          "name": "",
          "type": "uint8"
        }
      ],
      "stateMutability": "view",
      "type": "function"
    },
    {
      "inputs": [
        {
          "internalType": "address",
          "name": "spender",
          "type": "address"
        },
        {
          "internalType": "uint256",
          "name": "subtractedValue",
          "type": "uint256"
        }
      ],
      "name": "decreaseAllowance",
      "outputs": [
        {
          "internalType": "bool",
          "name": "",
          "type": "bool"
        }
      ],
      "stateMutability": "nonpayable",
      "type": "function"
    },
    {
      "inputs": [
        {
          "internalType": "address",
          "name": "user",
          "type": "address"
        },
        {
          "internalType": "bytes",
          "name": "depositData",
          "type": "bytes"
        }
      ],
      "name": "deposit",
      "outputs": [],
      "stateMutability": "nonpayable",
      "type": "function"
    },
    {
      "inputs": [
        {
          "internalType": "address",
          "name": "userAddress",
          "type": "address"
        },
        {
          "internalType": "bytes",
          "name": "functionSignature",
          "type": "bytes"
        },
        {
          "internalType": "bytes32",
          "name": "sigR",
          "type": "bytes32"
        },
        {
          "internalType": "bytes32",
          "name": "sigS",
          "type": "bytes32"
        },
        {
          "internalType": "uint8",
          "name": "sigV",
          "type": "uint8"
        }
      ],
      "name": "executeMetaTransaction",
      "outputs": [
        {
          "internalType": "bytes",
          "name": "",
          "type": "bytes"
        }
      ],
      "stateMutability": "payable",
      "type": "function"
    },
    {
      "inputs": [],
      "name": "getChainId",
      "outputs": [
        {
          "internalType": "uint256",
          "name": "",
          "type": "uint256"
        }
      ],
      "stateMutability": "view",
      "type": "function"
    },
    {
      "inputs": [],
      "name": "getDomainSeperator",
      "outputs": [
        {
          "internalType": "bytes32",
          "name": "",
          "type": "bytes32"
        }
      ],
      "stateMutability": "view",
      "type": "function"
    },
    {
      "inputs": [
        {
          "internalType": "address",
          "name": "user",
          "type": "address"
        }
      ],
      "name": "getNonce",
      "outputs": [
        {
          "internalType": "uint256",
          "name": "nonce",
          "type": "uint256"
        }
      ],
      "stateMutability": "view",
      "type": "function"
    },
    {
      "inputs": [
        {
          "internalType": "bytes32",
          "name": "role",
          "type": "bytes32"
        }
      ],
      "name": "getRoleAdmin",
      "outputs": [
        {
          "internalType": "bytes32",
          "name": "",
          "type": "bytes32"
        }
      ],
      "stateMutability": "view",
      "type": "function"
    },
    {
      "inputs": [
        {
          "internalType": "bytes32",
          "name": "role",
          "type": "bytes32"
        },
        {
          "internalType": "uint256",
          "name": "index",
          "type": "uint256"
        }
      ],
      "name": "getRoleMember",
      "outputs": [
        {
          "internalType": "address",
          "name": "",
          "type": "address"
        }
      ],
      "stateMutability": "view",
      "type": "function"
    },
    {
      "inputs": [
        {
          "internalType": "bytes32",
          "name": "role",
          "type": "bytes32"
        }
      ],
      "name": "getRoleMemberCount",
      "outputs": [
        {
          "internalType": "uint256",
          "name": "",
          "type": "uint256"
        }
      ],
      "stateMutability": "view",
      "type": "function"
    },
    {
      "inputs": [
        {
          "internalType": "bytes32",
          "name": "role",
          "type": "bytes32"
        },
        {
          "internalType": "address",
          "name": "account",
          "type": "address"
        }
      ],
      "name": "grantRole",
      "outputs": [],
      "stateMutability": "nonpayable",
      "type": "function"
    },
    {
      "inputs": [
        {
          "internalType": "bytes32",
          "name": "role",
          "type": "bytes32"
        },
        {
          "internalType": "address",
          "name": "account",
          "type": "address"
        }
      ],
      "name": "hasRole",
      "outputs": [
        {
          "internalType": "bool",
          "name": "",
          "type": "bool"
        }
      ],
      "stateMutability": "view",
      "type": "function"
    },
    {
      "inputs": [
        {
          "internalType": "address",
          "name": "spender",
          "type": "address"
        },
        {
          "internalType": "uint256",
          "name": "addedValue",
          "type": "uint256"
        }
      ],
      "name": "increaseAllowance",
      "outputs": [
        {
          "internalType": "bool",
          "name": "",
          "type": "bool"
        }
      ],
      "stateMutability": "nonpayable",
      "type": "function"
    },
    {
      "inputs": [
        {
          "internalType": "string",
          "name": "name_",
          "type": "string"
        },
        {
          "internalType": "string",
          "name": "symbol_",
          "type": "string"
        },
        {
          "internalType": "uint8",
          "name": "decimals_",
          "type": "uint8"
        },
        {
          "internalType": "address",
          "name": "childChainManager",
          "type": "address"
        }
      ],
      "name": "initialize",
      "outputs": [],
      "stateMutability": "nonpayable",
      "type": "function"
    },
    {
      "inputs": [
        {
          "internalType": "address",
          "name": "src",
          "type": "address"
        },
        {
          "internalType": "address",
          "name": "dst",
          "type": "address"
        },
        {
          "internalType": "uint256",
          "name": "wad",
          "type": "uint256"
        }
      ],
      "name": "move",
      "outputs": [],
      "stateMutability": "nonpayable",
      "type": "function"
    },
    {
      "inputs": [],
      "name": "name",
      "outputs": [
        {
          "internalType": "string",
          "name": "",
          "type": "string"
        }
      ],
      "stateMutability": "view",
      "type": "function"
    },
    {
      "inputs": [
        {
          "internalType": "address",
          "name": "holder",
          "type": "address"
        },
        {
          "internalType": "address",
          "name": "spender",
          "type": "address"
        },
        {
          "internalType": "uint256",
          "name": "nonce",
          "type": "uint256"
        },
        {
          "internalType": "uint256",
          "name": "expiry",
          "type": "uint256"
        },
        {
          "internalType": "bool",
          "name": "allowed",
          "type": "bool"
        },
        {
          "internalType": "uint8",
          "name": "v",
          "type": "uint8"
        },
        {
          "internalType": "bytes32",
          "name": "r",
          "type": "bytes32"
        },
        {
          "internalType": "bytes32",
          "name": "s",
          "type": "bytes32"
        }
      ],
      "name": "permit",
      "outputs": [],
      "stateMutability": "nonpayable",
      "type": "function"
    },
    {
      "inputs": [
        {
          "internalType": "address",
          "name": "usr",
          "type": "address"
        },
        {
          "internalType": "uint256",
          "name": "wad",
          "type": "uint256"
        }
      ],
      "name": "pull",
      "outputs": [],
      "stateMutability": "nonpayable",
      "type": "function"
    },
    {
      "inputs": [
        {
          "internalType": "address",
          "name": "usr",
          "type": "address"
        },
        {
          "internalType": "uint256",
          "name": "wad",
          "type": "uint256"
        }
      ],
      "name": "push",
      "outputs": [],
      "stateMutability": "nonpayable",
      "type": "function"
    },
    {
      "inputs": [
        {
          "internalType": "bytes32",
          "name": "role",
          "type": "bytes32"
        },
        {
          "internalType": "address",
          "name": "account",
          "type": "address"
        }
      ],
      "name": "renounceRole",
      "outputs": [],
      "stateMutability": "nonpayable",
      "type": "function"
    },
    {
      "inputs": [
        {
          "internalType": "bytes32",
          "name": "role",
          "type": "bytes32"
        },
        {
          "internalType": "address",
          "name": "account",
          "type": "address"
        }
      ],
      "name": "revokeRole",
      "outputs": [],
      "stateMutability": "nonpayable",
      "type": "function"
    },
    {
      "inputs": [],
      "name": "symbol",
      "outputs": [
        {
          "internalType": "string",
          "name": "",
          "type": "string"
        }
      ],
      "stateMutability": "view",
      "type": "function"
    },
    {
      "inputs": [],
      "name": "totalSupply",
      "outputs": [
        {
          "internalType": "uint256",
          "name": "",
          "type": "uint256"
        }
      ],
      "stateMutability": "view",
      "type": "function"
    },
    {
      "inputs": [
        {
          "internalType": "address",
          "name": "recipient",
          "type": "address"
        },
        {
          "internalType": "uint256",
          "name": "amount",
          "type": "uint256"
        }
      ],
      "name": "transfer",
      "outputs": [
        {
          "internalType": "bool",
          "name": "",
          "type": "bool"
        }
      ],
      "stateMutability": "nonpayable",
      "type": "function"
    },
    {
      "inputs": [
        {
          "internalType": "address",
          "name": "sender",
          "type": "address"
        },
        {
          "internalType": "address",
          "name": "recipient",
          "type": "address"
        },
        {
          "internalType": "uint256",
          "name": "amount",
          "type": "uint256"
        }
      ],
      "name": "transferFrom",
      "outputs": [
        {
          "internalType": "bool",
          "name": "",
          "type": "bool"
        }
      ],
      "stateMutability": "nonpayable",
      "type": "function"
    },
    {
      "inputs": [
        {
          "internalType": "uint256",
          "name": "amount",
          "type": "uint256"
        }
      ],
      "name": "withdraw",
      "outputs": [],
      "stateMutability": "nonpayable",
      "type": "function"
    }
  ],
  "bytecode": "0x60806040526008805460ff191690553480156200001b57600080fd5b5060408051808201825260038082526244414960e81b6020808401829052845180860190955282855284015290919062000056838262000120565b50600462000065828262000120565b50506005805460ff1916601217905550620001ec565b634e487b7160e01b600052604160045260246000fd5b600181811c90821680620000a657607f821691505b602082108103620000c757634e487b7160e01b600052602260045260246000fd5b50919050565b601f8211156200011b57600081815260208120601f850160051c81016020861015620000f65750805b601f850160051c820191505b81811015620001175782815560010162000102565b5050505b505050565b81516001600160401b038111156200013c576200013c6200007b565b62000154816200014d845462000091565b84620000cd565b602080601f8311600181146200018c5760008415620001735750858301515b600019600386901b1c1916600185901b17855562000117565b600085815260208120601f198616915b82811015620001bd578886015182559484019460019091019084016200019c565b5085821015620001dc5787850151600019600388901b60f8161c191681555b5050505050600190811b01905550565b6127d580620001fc6000396000f3fe6080604052600436106102305760003560e01c80635353a2d81161012e578063a457c2d7116100ab578063cf2c52cb1161006f578063cf2c52cb146106e5578063d547741f14610705578063dd62ed3e14610725578063de7ea79d1461076b578063f2d5d56b1461078b57600080fd5b8063a457c2d714610645578063a9059cbb14610665578063b753a98c14610685578063bb35783b146106a5578063ca15c873146106c557600080fd5b80639010d07c116100f25780639010d07c1461058f57806391d14854146105c757806395d89b41146105e7578063a217fddf146105fc578063a3b0b5a31461061157600080fd5b80635353a2d8146104ef578063626381a01461050f57806370a08231146105245780638acfcaf71461055a5780638fcbaf0c1461056f57600080fd5b8063248a9ca3116101bc578063313ce56711610180578063313ce5671461045a5780633408e4701461047c57806336568abe1461048f57806339509351146104af5780634e6ec247146104cf57600080fd5b8063248a9ca31461037e5780632d0335ab146103ae5780632e1a7d4d146103e45780632f2ff15d1461040657806330adf81f1461042657600080fd5b80630dd7531a116102035780630dd7531a146102d05780630f7e5970146102fd57806318160ddd1461032a57806320379ee51461034957806323b872dd1461035e57600080fd5b806306fdde0314610235578063095ea7b3146102605780630b54817c146102905780630c53c51c146102bd575b600080fd5b34801561024157600080fd5b5061024a6107ab565b6040516102579190611f05565b60405180910390f35b34801561026c57600080fd5b5061028061027b366004611f34565b61083d565b6040519015158152602001610257565b34801561029c57600080fd5b5061024a604051806040016040528060018152602001608960f81b81525081565b61024a6102cb366004611f85565b61085b565b3480156102dc57600080fd5b5061024a604051806040016040528060018152602001600160f81b81525081565b34801561030957600080fd5b5061024a604051806040016040528060018152602001603160f81b81525081565b34801561033657600080fd5b506002545b604051908152602001610257565b34801561035557600080fd5b5060095461033b565b34801561036a57600080fd5b5061028061037936600461206b565b610a4a565b34801561038a57600080fd5b5061033b6103993660046120a7565b60009081526006602052604090206002015490565b3480156103ba57600080fd5b5061033b6103c93660046120c0565b6001600160a01b03166000908152600a602052604090205490565b3480156103f057600080fd5b506104046103ff3660046120a7565b610ad1565b005b34801561041257600080fd5b506104046104213660046120db565b610ae5565b34801561043257600080fd5b5061033b7fea2aa0a1be11a07ed86d755c93467f4f82362b452371d1ba94d1715123511acb81565b34801561046657600080fd5b5060055460405160ff9091168152602001610257565b34801561048857600080fd5b504661033b565b34801561049b57600080fd5b506104046104aa3660046120db565b610b75565b3480156104bb57600080fd5b506102806104ca366004611f34565b610bff565b3480156104db57600080fd5b506104046104ea366004611f34565b610c4d565b3480156104fb57600080fd5b5061040461050a366004612150565b610d2c565b34801561051b57600080fd5b5061033b608981565b34801561053057600080fd5b5061033b61053f3660046120c0565b6001600160a01b031660009081526020819052604090205490565b34801561056657600080fd5b5061033b600181565b34801561057b57600080fd5b5061040461058a366004612192565b610df7565b34801561059b57600080fd5b506105af6105aa366004612214565b611068565b6040516001600160a01b039091168152602001610257565b3480156105d357600080fd5b506102806105e23660046120db565b611087565b3480156105f357600080fd5b5061024a61109f565b34801561060857600080fd5b5061033b600081565b34801561061d57600080fd5b5061033b7f8f4f2da22e8ac8f11e15f9fc141cddbb5deea8800186560abb6e68c5496619a981565b34801561065157600080fd5b50610280610660366004611f34565b6110ae565b34801561067157600080fd5b50610280610680366004611f34565b611116565b34801561069157600080fd5b506104046106a0366004611f34565b61112a565b3480156106b157600080fd5b506104046106c036600461206b565b611135565b3480156106d157600080fd5b5061033b6106e03660046120a7565b611146565b3480156106f157600080fd5b50610404610700366004612236565b61115d565b34801561071157600080fd5b506104046107203660046120db565b6111cc565b34801561073157600080fd5b5061033b610740366004612289565b6001600160a01b03918216600090815260016020908152604080832093909416825291909152205490565b34801561077757600080fd5b506104046107863660046122b3565b61124f565b34801561079757600080fd5b506104046107a6366004611f34565b6113f3565b6060600380546107ba90612343565b80601f01602080910402602001604051908101604052809291908181526020018280546107e690612343565b80156108335780601f1061080857610100808354040283529160200191610833565b820191906000526020600020905b81548152906001019060200180831161081657829003601f168201915b5050505050905090565b600061085161084a6113fe565b848461140d565b5060015b92915050565b60408051606081810183526001600160a01b0388166000818152600a6020908152908590205484528301529181018690526108998782878787611532565b6108f45760405162461bcd60e51b815260206004820152602160248201527f5369676e657220616e64207369676e617475726520646f206e6f74206d6174636044820152600d60fb1b60648201526084015b60405180910390fd5b6001600160a01b0387166000908152600a6020526040902054610918906001611622565b6001600160a01b0388166000908152600a60205260409081902091909155517f5845892132946850460bff5a0083f71031bc5bf9aadcd40f1de79423eac9b10b9061096890899033908a9061237d565b60405180910390a1600080306001600160a01b0316888a6040516020016109909291906123a9565b60408051601f19818403018152908290526109aa916123e0565b6000604051808303816000865af19150503d80600081146109e7576040519150601f19603f3d011682016040523d82523d6000602084013e6109ec565b606091505b509150915081610a3e5760405162461bcd60e51b815260206004820152601c60248201527f46756e6374696f6e2063616c6c206e6f74207375636365737366756c0000000060448201526064016108eb565b98975050505050505050565b6000610a57848484611681565b610ac784610a636113fe565b610ac285604051806060016040528060288152602001612753602891396001600160a01b038a16600090815260016020526040812090610aa16113fe565b6001600160a01b031681526020810191909152604001600020549190611804565b61140d565b5060019392505050565b610ae2610adc6113fe565b8261183e565b50565b600082815260066020526040902060020154610b03906105e26113fe565b610b675760405162461bcd60e51b815260206004820152602f60248201527f416363657373436f6e74726f6c3a2073656e646572206d75737420626520616e60448201526e0818591b5a5b881d1bc819dc985b9d608a1b60648201526084016108eb565b610b718282611942565b5050565b610b7d6113fe565b6001600160a01b0316816001600160a01b031614610bf55760405162461bcd60e51b815260206004820152602f60248201527f416363657373436f6e74726f6c3a2063616e206f6e6c792072656e6f756e636560448201526e103937b632b9903337b91039b2b63360891b60648201526084016108eb565b610b7182826119ab565b6000610851610c0c6113fe565b84610ac28560016000610c1d6113fe565b6001600160a01b03908116825260208083019390935260409182016000908120918c168152925290205490611622565b6001600160a01b038216610ca35760405162461bcd60e51b815260206004820152601f60248201527f45524332303a206d696e7420746f20746865207a65726f20616464726573730060448201526064016108eb565b600254610cb09082611622565b6002556001600160a01b038216600090815260208190526040902054610cd69082611622565b6001600160a01b038316600081815260208181526040808320949094559251848152919290917fddf252ad1be2c89b69c2b068fc378daa952ba7f163c4a11628f55a4df523b3ef91015b60405180910390a35050565b6000610d3a816105e26113fe565b600790610d5a5760405162461bcd60e51b81526004016108eb91906123fc565b50610d9a83838080601f016020809104026020016040519081016040528093929190818152602001838380828437600092019190915250611a1492505050565b610df283838080601f016020809104026020016040519081016040528093929190818152602001838380828437600092019190915250506040805180820190915260018152603160f81b60208201529150611a209050565b505050565b6000610e0260095490565b604080517fea2aa0a1be11a07ed86d755c93467f4f82362b452371d1ba94d1715123511acb60208201526001600160a01b03808d1692820192909252908a1660608201526080810189905260a0810188905286151560c082015260e00160405160208183030381529060405280519060200120604051602001610e9c92919061190160f01b81526002810192909252602282015260420190565b60408051601f1981840301815282825280516020918201206000845290830180835281905260ff8716918301919091526060820185905260808201849052915060019060a0016020604051602081039080840390855afa158015610f04573d6000803e3d6000fd5b505050602060405103516001600160a01b0316896001600160a01b031614610f6e5760405162461bcd60e51b815260206004820152601960248201527f554368696c644441493a20494e56414c49442d5045524d49540000000000000060448201526064016108eb565b851580610f7b5750854211155b610fc75760405162461bcd60e51b815260206004820152601960248201527f554368696c644441493a205045524d49542d455850495245440000000000000060448201526064016108eb565b6001600160a01b0389166000908152600a60205260408120805491610feb8361249d565b91905055871461103d5760405162461bcd60e51b815260206004820152601860248201527f554368696c644441493a20494e56414c49442d4e4f4e4345000000000000000060448201526064016108eb565b60008561104b57600061104f565b6000195b905061105c8a8a8361140d565b50505050505050505050565b60008281526006602052604081206110809083611aa7565b9392505050565b60008281526006602052604081206110809083611ab3565b6060600480546107ba90612343565b60006108516110bb6113fe565b84610ac28560405180606001604052806025815260200161277b60259139600160006110e56113fe565b6001600160a01b03908116825260208083019390935260409182016000908120918d16815292529020549190611804565b60006108516111236113fe565b8484611681565b610df2338383610a4a565b611140838383610a4a565b50505050565b600081815260066020526040812061085590611ad5565b7f8f4f2da22e8ac8f11e15f9fc141cddbb5deea8800186560abb6e68c5496619a961118a816105e26113fe565b6007906111aa5760405162461bcd60e51b81526004016108eb91906123fc565b5060006111b9838501856120a7565b90506111c58582610c4d565b5050505050565b6000828152600660205260409020600201546111ea906105e26113fe565b610bf55760405162461bcd60e51b815260206004820152603060248201527f416363657373436f6e74726f6c3a2073656e646572206d75737420626520616e60448201526f2061646d696e20746f207265766f6b6560801b60648201526084016108eb565b60085460ff16156112935760405162461bcd60e51b815260206004820152600e60248201526d185b1c9958591e481a5b9a5d195960921b60448201526064016108eb565b6112d286868080601f016020809104026020016040519081016040528093929190818152602001838380828437600092019190915250611a1492505050565b61131184848080601f016020809104026020016040519081016040528093929190818152602001838380828437600092019190915250611adf92505050565b6005805460ff191660ff841617905561134a84846040516020016113369291906124b6565b604051602081830303815290604052611aeb565b61135c60006113576113fe565b610b67565b6113867f8f4f2da22e8ac8f11e15f9fc141cddbb5deea8800186560abb6e68c5496619a982610b67565b6113de86868080601f016020809104026020016040519081016040528093929190818152602001838380828437600092019190915250506040805180820190915260018152603160f81b60208201529150611b199050565b50506008805460ff1916600117905550505050565b610df2823383610a4a565b6000611408611b78565b905090565b6001600160a01b03831661146f5760405162461bcd60e51b8152602060048201526024808201527f45524332303a20617070726f76652066726f6d20746865207a65726f206164646044820152637265737360e01b60648201526084016108eb565b6001600160a01b0382166114d05760405162461bcd60e51b815260206004820152602260248201527f45524332303a20617070726f766520746f20746865207a65726f206164647265604482015261737360f01b60648201526084016108eb565b6001600160a01b0383811660008181526001602090815260408083209487168084529482529182902085905590518481527f8c5be1e5ebec7d5bd14f71427d1e84f3dd0314c0f7b2291e5b200ac8c7c3b92591015b60405180910390a3505050565b60006001600160a01b0386166115985760405162461bcd60e51b815260206004820152602560248201527f4e61746976654d6574615472616e73616374696f6e3a20494e56414c49445f5360448201526424a3a722a960d91b60648201526084016108eb565b60016115ab6115a687611bd4565b611c51565b6040805160008152602081018083529290925260ff851690820152606081018690526080810185905260a0016020604051602081039080840390855afa1580156115f9573d6000803e3d6000fd5b505050602060405103516001600160a01b0316866001600160a01b031614905095945050505050565b60008061162f83856124d7565b9050838110156110805760405162461bcd60e51b815260206004820152601b60248201527f536166654d6174683a206164646974696f6e206f766572666c6f77000000000060448201526064016108eb565b6001600160a01b0383166116e55760405162461bcd60e51b815260206004820152602560248201527f45524332303a207472616e736665722066726f6d20746865207a65726f206164604482015264647265737360d81b60648201526084016108eb565b6001600160a01b0382166117475760405162461bcd60e51b815260206004820152602360248201527f45524332303a207472616e7366657220746f20746865207a65726f206164647260448201526265737360e81b60648201526084016108eb565b6117848160405180606001604052806026815260200161272d602691396001600160a01b0386166000908152602081905260409020549190611804565b6001600160a01b0380851660009081526020819052604080822093909355908416815220546117b39082611622565b6001600160a01b038381166000818152602081815260409182902094909455518481529092918616917fddf252ad1be2c89b69c2b068fc378daa952ba7f163c4a11628f55a4df523b3ef9101611525565b600081848411156118285760405162461bcd60e51b81526004016108eb9190611f05565b50600061183584866124ea565b95945050505050565b6001600160a01b03821661189e5760405162461bcd60e51b815260206004820152602160248201527f45524332303a206275726e2066726f6d20746865207a65726f206164647265736044820152607360f81b60648201526084016108eb565b6118db81604051806060016040528060228152602001612679602291396001600160a01b0385166000908152602081905260409020549190611804565b6001600160a01b0383166000908152602081905260409020556002546119019082611c81565b6002556040518181526000906001600160a01b038416907fddf252ad1be2c89b69c2b068fc378daa952ba7f163c4a11628f55a4df523b3ef90602001610d20565b600082815260066020526040902061195a9082611cc3565b15610b71576119676113fe565b6001600160a01b0316816001600160a01b0316837f2f8788117e7eff1d82e926ec794901d17c78024a50270940304540a733656f0d60405160405180910390a45050565b60008281526006602052604090206119c39082611cd8565b15610b71576119d06113fe565b6001600160a01b0316816001600160a01b0316837ff6391f5c32d9c69d2a47ea670b442974b53935d1edc7fd64eb21e047a839171b60405160405180910390a45050565b6003610b71828261254b565b6040518060800160405280604f81526020016126de604f9139805190602001208280519060200120828051906020012030611a584690565b60408051602081019690965285019390935260608401919091526001600160a01b0316608083015260a082015260c00160408051601f1981840301815291905280516020909101206009555050565b60006110808383611ced565b6001600160a01b03811660009081526001830160205260408120541515611080565b6000610855825490565b6004610b71828261254b565b80604051602001611afc919061260b565b60405160208183030381529060405260079081610b71919061254b565b60085460ff1615611b5d5760405162461bcd60e51b815260206004820152600e60248201526d185b1c9958591e481a5b9a5d195960921b60448201526064016108eb565b611b678282611a20565b50506008805460ff19166001179055565b6000303303611bce57600080368080601f0160208091040260200160405190810160405280939291908181526020018383808284376000920191909152505050503601516001600160a01b03169150611bd19050565b50335b90565b600060405180608001604052806043815260200161269b6043913980516020918201208351848301516040808701518051908601209051611c34950193845260208401929092526001600160a01b03166040830152606082015260800190565b604051602081830303815290604052805190602001209050919050565b6000611c5c60095490565b60405161190160f01b6020820152602281019190915260428101839052606201611c34565b600061108083836040518060400160405280601e81526020017f536166654d6174683a207375627472616374696f6e206f766572666c6f770000815250611804565b6000611080836001600160a01b038416611d73565b6000611080836001600160a01b038416611dc2565b81546000908210611d4b5760405162461bcd60e51b815260206004820152602260248201527f456e756d657261626c655365743a20696e646578206f7574206f6620626f756e604482015261647360f01b60648201526084016108eb565b826000018281548110611d6057611d6061264c565b9060005260206000200154905092915050565b6000818152600183016020526040812054611dba57508154600181810184556000848152602080822090930184905584548482528286019093526040902091909155610855565b506000610855565b60008181526001830160205260408120548015611eab576000611de66001836124ea565b8554909150600090611dfa906001906124ea565b90506000866000018281548110611e1357611e1361264c565b9060005260206000200154905080876000018481548110611e3657611e3661264c565b600091825260209091200155611e4d8360016124d7565b60008281526001890160205260409020558654879080611e6f57611e6f612662565b60019003818190600052602060002001600090559055866001016000878152602001908152602001600020600090556001945050505050610855565b6000915050610855565b60005b83811015611ed0578181015183820152602001611eb8565b50506000910152565b60008151808452611ef1816020860160208601611eb5565b601f01601f19169290920160200192915050565b6020815260006110806020830184611ed9565b80356001600160a01b0381168114611f2f57600080fd5b919050565b60008060408385031215611f4757600080fd5b611f5083611f18565b946020939093013593505050565b634e487b7160e01b600052604160045260246000fd5b803560ff81168114611f2f57600080fd5b600080600080600060a08688031215611f9d57600080fd5b611fa686611f18565b9450602086013567ffffffffffffffff80821115611fc357600080fd5b818801915088601f830112611fd757600080fd5b813581811115611fe957611fe9611f5e565b604051601f8201601f19908116603f0116810190838211818310171561201157612011611f5e565b816040528281528b602084870101111561202a57600080fd5b826020860160208301376000602084830101528098505050505050604086013592506060860135915061205f60808701611f74565b90509295509295909350565b60008060006060848603121561208057600080fd5b61208984611f18565b925061209760208501611f18565b9150604084013590509250925092565b6000602082840312156120b957600080fd5b5035919050565b6000602082840312156120d257600080fd5b61108082611f18565b600080604083850312156120ee57600080fd5b823591506120fe60208401611f18565b90509250929050565b60008083601f84011261211957600080fd5b50813567ffffffffffffffff81111561213157600080fd5b60208301915083602082850101111561214957600080fd5b9250929050565b6000806020838503121561216357600080fd5b823567ffffffffffffffff81111561217a57600080fd5b61218685828601612107565b90969095509350505050565b600080600080600080600080610100898b0312156121af57600080fd5b6121b889611f18565b97506121c660208a01611f18565b96506040890135955060608901359450608089013580151581146121e957600080fd5b93506121f760a08a01611f74565b925060c0890135915060e089013590509295985092959890939650565b6000806040838503121561222757600080fd5b50508035926020909101359150565b60008060006040848603121561224b57600080fd5b61225484611f18565b9250602084013567ffffffffffffffff81111561227057600080fd5b61227c86828701612107565b9497909650939450505050565b6000806040838503121561229c57600080fd5b6122a583611f18565b91506120fe60208401611f18565b600080600080600080608087890312156122cc57600080fd5b863567ffffffffffffffff808211156122e457600080fd5b6122f08a838b01612107565b9098509650602089013591508082111561230957600080fd5b5061231689828a01612107565b9095509350612329905060408801611f74565b915061233760608801611f18565b90509295509295509295565b600181811c9082168061235757607f821691505b60208210810361237757634e487b7160e01b600052602260045260246000fd5b50919050565b6001600160a01b0384811682528316602082015260606040820181905260009061183590830184611ed9565b600083516123bb818460208801611eb5565b60609390931b6bffffffffffffffffffffffff19169190920190815260140192915050565b600082516123f2818460208701611eb5565b9190910192915050565b600060208083526000845461241081612343565b80848701526040600180841660008114612431576001811461244b57612479565b60ff1985168984015283151560051b890183019550612479565b896000528660002060005b858110156124715781548b8201860152908301908801612456565b8a0184019650505b509398975050505050505050565b634e487b7160e01b600052601160045260246000fd5b6000600182016124af576124af612487565b5060010190565b6410da1a5b1960da1b81528183600583013760009101600501908152919050565b8082018082111561085557610855612487565b8181038181111561085557610855612487565b601f821115610df257600081815260208120601f850160051c810160208610156125245750805b601f850160051c820191505b8181101561254357828155600101612530565b505050505050565b815167ffffffffffffffff81111561256557612565611f5e565b612579816125738454612343565b846124fd565b602080601f8311600181146125ae57600084156125965750858301515b600019600386901b1c1916600185901b178555612543565b600085815260208120601f198616915b828110156125dd578886015182559484019460019091019084016125be565b50858210156125fb5787850151600019600388901b60f8161c191681555b5050505050600190811b01905550565b6000825161261d818460208701611eb5565b7f3a20494e53554646494349454e545f5045524d495353494f4e53000000000000920191825250601a01919050565b634e487b7160e01b600052603260045260246000fd5b634e487b7160e01b600052603160045260246000fdfe45524332303a206275726e20616d6f756e7420657863656564732062616c616e63654d6574615472616e73616374696f6e2875696e74323536206e6f6e63652c616464726573732066726f6d2c62797465732066756e6374696f6e5369676e617475726529454950373132446f6d61696e28737472696e67206e616d652c737472696e672076657273696f6e2c6164647265737320766572696679696e67436f6e74726163742c627974657333322073616c742945524332303a207472616e7366657220616d6f756e7420657863656564732062616c616e636545524332303a207472616e7366657220616d6f756e74206578636565647320616c6c6f77616e636545524332303a2064656372656173656420616c6c6f77616e63652062656c6f77207a65726fa26469706673582212200b28813c898b058db947de197948e4a016de2d4eb44c0a299d2131490f4dba2564736f6c63430008140033",
  "linkReferences": {},
  "deployedLinkReferences": {}
}