{
  "_format": "hh-sol-artifact-1",
  "contractName": "NofGammaTicketsV1",
  "sourceName": "contracts/gamma/GammaTickets.v1.sol",
  "abi": [
    {
      "anonymous": false,
      "inputs": [],
      "name": "AllTicketsRemoved",
      "type": "event"
    },
    {
      "anonymous": false,
      "inputs": [
        {
          "indexed": false,
          "internalType": "address",
          "name": "newGammaCardsContract",
          "type": "address"
        }
      ],
      "name": "NewGammaCardsContract",
      "type": "event"
    },
    {
      "anonymous": false,
      "inputs": [
        {
          "indexed": false,
          "internalType": "address",
          "name": "newGammaPacksContract",
          "type": "address"
        }
      ],
      "name": "NewGammaPacksContract",
      "type": "event"
    },
    {
      "anonymous": false,
      "inputs": [
        {
          "indexed": true,
          "internalType": "address",
          "name": "previousOwner",
          "type": "address"
        },
        {
          "indexed": true,
          "internalType": "address",
          "name": "newOwner",
          "type": "address"
        }
      ],
      "name": "OwnershipTransferred",
      "type": "event"
    },
    {
      "anonymous": false,
      "inputs": [
        {
          "indexed": false,
          "internalType": "uint256",
          "name": "timestamp",
          "type": "uint256"
        },
        {
          "indexed": false,
          "internalType": "bytes32",
          "name": "ticketId",
          "type": "bytes32"
        },
        {
          "indexed": false,
          "internalType": "uint256",
          "name": "ticketCounter",
          "type": "uint256"
        },
        {
          "indexed": true,
          "internalType": "address",
          "name": "user",
          "type": "address"
        }
      ],
      "name": "TicketGenerated",
      "type": "event"
    },
    {
      "anonymous": false,
      "inputs": [
        {
          "indexed": false,
          "internalType": "uint256",
          "name": "timestamp",
          "type": "uint256"
        },
        {
          "indexed": false,
          "internalType": "bytes32",
          "name": "ticketId",
          "type": "bytes32"
        },
        {
          "indexed": false,
          "internalType": "uint256",
          "name": "ticketCounter",
          "type": "uint256"
        },
        {
          "indexed": false,
          "internalType": "address",
          "name": "user",
          "type": "address"
        }
      ],
      "name": "WinnerObtained",
      "type": "event"
    },
    {
      "inputs": [
        {
          "internalType": "address",
          "name": "_newOwner",
          "type": "address"
        }
      ],
      "name": "addOwner",
      "outputs": [],
      "stateMutability": "nonpayable",
      "type": "function"
    },
    {
      "inputs": [],
      "name": "deleteAllTickets",
      "outputs": [],
      "stateMutability": "nonpayable",
      "type": "function"
    },
    {
      "inputs": [],
      "name": "gammaCardsContract",
      "outputs": [
        {
          "internalType": "contract IGammaCardsContract",
          "name": "",
          "type": "address"
        }
      ],
      "stateMutability": "view",
      "type": "function"
    },
    {
      "inputs": [],
      "name": "gammaPacksContract",
      "outputs": [
        {
          "internalType": "contract IgammaPacksContract",
          "name": "",
          "type": "address"
        }
      ],
      "stateMutability": "view",
      "type": "function"
    },
    {
      "inputs": [
        {
          "internalType": "address",
          "name": "user",
          "type": "address"
        }
      ],
      "name": "generateTicket",
      "outputs": [],
      "stateMutability": "nonpayable",
      "type": "function"
    },
    {
      "inputs": [],
      "name": "getLotteryWinner",
      "outputs": [
        {
          "internalType": "uint256",
          "name": "timestamp",
          "type": "uint256"
        },
        {
          "internalType": "bytes32",
          "name": "ticketId",
          "type": "bytes32"
        },
        {
          "internalType": "uint256",
          "name": "ticketCounter",
          "type": "uint256"
        },
        {
          "internalType": "address",
          "name": "user",
          "type": "address"
        }
      ],
      "stateMutability": "nonpayable",
      "type": "function"
    },
    {
      "inputs": [],
      "name": "getTickets",
      "outputs": [
        {
          "components": [
            {
              "internalType": "uint256",
              "name": "timestamp",
              "type": "uint256"
            },
            {
              "internalType": "bytes32",
              "name": "ticketId",
              "type": "bytes32"
            },
            {
              "internalType": "uint256",
              "name": "ticketCounter",
              "type": "uint256"
            },
            {
              "internalType": "address",
              "name": "user",
              "type": "address"
            }
          ],
          "internalType": "struct NofGammaTicketsV1.Ticket[]",
          "name": "",
          "type": "tuple[]"
        }
      ],
      "stateMutability": "view",
      "type": "function"
    },
    {
      "inputs": [
        {
          "internalType": "address",
          "name": "user",
          "type": "address"
        }
      ],
      "name": "getTicketsByUser",
      "outputs": [
        {
          "components": [
            {
              "internalType": "uint256",
              "name": "timestamp",
              "type": "uint256"
            },
            {
              "internalType": "bytes32",
              "name": "ticketId",
              "type": "bytes32"
            },
            {
              "internalType": "uint256",
              "name": "ticketCounter",
              "type": "uint256"
            },
            {
              "internalType": "address",
              "name": "user",
              "type": "address"
            }
          ],
          "internalType": "struct NofGammaTicketsV1.Ticket[]",
          "name": "",
          "type": "tuple[]"
        }
      ],
      "stateMutability": "view",
      "type": "function"
    },
    {
      "inputs": [],
      "name": "getWinner",
      "outputs": [
        {
          "internalType": "uint256",
          "name": "timestamp",
          "type": "uint256"
        },
        {
          "internalType": "bytes32",
          "name": "ticketId",
          "type": "bytes32"
        },
        {
          "internalType": "uint256",
          "name": "ticketCounter",
          "type": "uint256"
        },
        {
          "internalType": "address",
          "name": "user",
          "type": "address"
        }
      ],
      "stateMutability": "view",
      "type": "function"
    },
    {
      "inputs": [
        {
          "internalType": "address",
          "name": "_gammaPacksContract",
          "type": "address"
        },
        {
          "internalType": "address",
          "name": "_gammaCardsContract",
          "type": "address"
        }
      ],
      "name": "init",
      "outputs": [],
      "stateMutability": "nonpayable",
      "type": "function"
    },
    {
      "inputs": [
        {
          "internalType": "address",
          "name": "user",
          "type": "address"
        }
      ],
      "name": "isOwner",
      "outputs": [
        {
          "internalType": "bool",
          "name": "",
          "type": "bool"
        }
      ],
      "stateMutability": "view",
      "type": "function"
    },
    {
      "inputs": [],
      "name": "owner",
      "outputs": [
        {
          "internalType": "address",
          "name": "",
          "type": "address"
        }
      ],
      "stateMutability": "view",
      "type": "function"
    },
    {
      "inputs": [
        {
          "internalType": "address",
          "name": "_ownerToRemove",
          "type": "address"
        }
      ],
      "name": "removeOwner",
      "outputs": [],
      "stateMutability": "nonpayable",
      "type": "function"
    },
    {
      "inputs": [],
      "name": "renounceOwnership",
      "outputs": [],
      "stateMutability": "nonpayable",
      "type": "function"
    },
    {
      "inputs": [
        {
          "internalType": "address",
          "name": "_gammaCardsContract",
          "type": "address"
        }
      ],
      "name": "setGammaCardsContract",
      "outputs": [],
      "stateMutability": "nonpayable",
      "type": "function"
    },
    {
      "inputs": [
        {
          "internalType": "address",
          "name": "_gammaPacksContract",
          "type": "address"
        }
      ],
      "name": "setGammaPacksContract",
      "outputs": [],
      "stateMutability": "nonpayable",
      "type": "function"
    },
    {
      "inputs": [
        {
          "internalType": "uint256",
          "name": "",
          "type": "uint256"
        }
      ],
      "name": "tickets",
      "outputs": [
        {
          "internalType": "uint256",
          "name": "timestamp",
          "type": "uint256"
        },
        {
          "internalType": "bytes32",
          "name": "ticketId",
          "type": "bytes32"
        },
        {
          "internalType": "uint256",
          "name": "ticketCounter",
          "type": "uint256"
        },
        {
          "internalType": "address",
          "name": "user",
          "type": "address"
        }
      ],
      "stateMutability": "view",
      "type": "function"
    },
    {
      "inputs": [
        {
          "internalType": "address",
          "name": "",
          "type": "address"
        },
        {
          "internalType": "uint256",
          "name": "",
          "type": "uint256"
        }
      ],
      "name": "ticketsByUser",
      "outputs": [
        {
          "internalType": "uint256",
          "name": "timestamp",
          "type": "uint256"
        },
        {
          "internalType": "bytes32",
          "name": "ticketId",
          "type": "bytes32"
        },
        {
          "internalType": "uint256",
          "name": "ticketCounter",
          "type": "uint256"
        },
        {
          "internalType": "address",
          "name": "user",
          "type": "address"
        }
      ],
      "stateMutability": "view",
      "type": "function"
    },
    {
      "inputs": [],
      "name": "ticketsTotalCounter",
      "outputs": [
        {
          "internalType": "uint256",
          "name": "",
          "type": "uint256"
        }
      ],
      "stateMutability": "view",
      "type": "function"
    },
    {
      "inputs": [
        {
          "internalType": "address",
          "name": "newOwner",
          "type": "address"
        }
      ],
      "name": "transferOwnership",
      "outputs": [],
      "stateMutability": "nonpayable",
      "type": "function"
    },
    {
      "inputs": [],
      "name": "winner",
      "outputs": [
        {
          "internalType": "uint256",
          "name": "timestamp",
          "type": "uint256"
        },
        {
          "internalType": "bytes32",
          "name": "ticketId",
          "type": "bytes32"
        },
        {
          "internalType": "uint256",
          "name": "ticketCounter",
          "type": "uint256"
        },
        {
          "internalType": "address",
          "name": "user",
          "type": "address"
        }
      ],
      "stateMutability": "view",
      "type": "function"
    }
  ],
  "bytecode": "0x60806040526000600b5534801561001557600080fd5b5061001f33610024565b610074565b600080546001600160a01b038381166001600160a01b0319831681178455604051919092169283917f8be0079c531659141344cd1fd0a4f28419497f9722a3daafe3b4186f6b6457e09190a35050565b6110f7806100836000396000f3fe608060405234801561001057600080fd5b50600436106101375760003560e01c80638da5cb5b116100b8578063dfbf53ae1161007c578063dfbf53ae1461029e578063e5b0b100146102bd578063e6afe6bc146102d0578063f09a4016146102e7578063f2fde38b146102fa578063fa8213d31461030d57600080fd5b80638da5cb5b146102575780638e7ea5b214610268578063b2d55c1c14610270578063cafaa47314610278578063d250f03a1461028b57600080fd5b80634c7a7ad3116100ff5780634c7a7ad3146102015780634ed026221461021457806350b44712146102295780637065cb481461023c578063715018a61461024f57600080fd5b806304ac05cf1461013c578063173825d91461017d5780632f54bf6e146101925780632f9e026a146101ce578063306e4118146101f9575b600080fd5b61014f61014a366004610ebc565b610320565b604080519485526020850193909352918301526001600160a01b031660608201526080015b60405180910390f35b61019061018b366004610ee6565b61036f565b005b6101be6101a0366004610ee6565b6001600160a01b031660009081526003602052604090205460ff1690565b6040519015158152602001610174565b6002546101e1906001600160a01b031681565b6040516001600160a01b039091168152602001610174565b61019061041d565b61019061020f366004610ee6565b6104f0565b61021c61059a565b6040516101749190610f08565b61014f610237366004610f75565b610624565b61019061024a366004610ee6565b610667565b6101906106dd565b6000546001600160a01b03166101e1565b61014f6106f1565b61014f61070d565b610190610286366004610ee6565b6108ef565b6001546101e1906001600160a01b031681565b60065460075460085460095461014f939291906001600160a01b031684565b61021c6102cb366004610ee6565b610992565b6102d9600b5481565b604051908152602001610174565b6101906102f5366004610f8e565b610a32565b610190610308366004610ee6565b610ace565b61019061031b366004610ee6565b610b47565b600a602052816000526040600020818154811061033c57600080fd5b6000918252602090912060049091020180546001820154600283015460039093015491945092506001600160a01b031684565b3360009081526003602052604090205460ff166103a75760405162461bcd60e51b815260040161039e90610fc1565b60405180910390fd5b604051632dd92c6960e21b8152600360048201526001600160a01b038216602482015273__$2004922c2908b386ae4415e9a8cdeda8c7$__9063b764b1a4906044015b60006040518083038186803b15801561040257600080fd5b505af4158015610416573d6000803e3d6000fd5b5050505050565b6002546001600160a01b031633146104475760405162461bcd60e51b815260040161039e90610fe7565b61045360056000610e4c565b6000600b8190555b6005548110156104c457600a60006005838154811061047c5761047c611038565b60009182526020808320600360049093020191909101546001600160a01b0316835282019290925260400181206104b291610e4c565b806104bc8161104e565b91505061045b565b506040517fc3ed638c0e10b967891ee71bc361fabc770df50e93331cdf41fddc37deb28b5b90600090a1565b3360009081526003602052604090205460ff1661051f5760405162461bcd60e51b815260040161039e90610fc1565b6001600160a01b0381166105455760405162461bcd60e51b815260040161039e90611075565b600180546001600160a01b0319166001600160a01b0383169081179091556040519081527f45c9eba39b5ae3e7a6650b0a57bcb8e5d135936d56d111983dbc5860ae6760fa906020015b60405180910390a150565b60606005805480602002602001604051908101604052809291908181526020016000905b8282101561061b57600084815260209081902060408051608081018252600486029092018054835260018082015484860152600282015492840192909252600301546001600160a01b0316606083015290835290920191016105be565b50505050905090565b6005818154811061063457600080fd5b6000918252602090912060049091020180546001820154600283015460039093015491935091906001600160a01b031684565b3360009081526003602052604090205460ff166106965760405162461bcd60e51b815260040161039e90610fc1565b604051632d35e2b960e21b8152600360048201526001600160a01b038216602482015273__$2004922c2908b386ae4415e9a8cdeda8c7$__9063b4d78ae4906044016103ea565b6106e5610da2565b6106ef6000610dfc565b565b6006546007546008546009546001600160a01b03165b90919293565b6002546000908190819081906001600160a01b031633146107405760405162461bcd60e51b815260040161039e90610fe7565b60055461079d5760405162461bcd60e51b815260206004820152602560248201527f4e6f207469636b65747320617661696c61626c6520666f7220746865206c6f746044820152643a32b93c9760d91b606482015260840161039e565b600654156107c8575050600654600754600854600954929450909250906001600160a01b0316610707565b60055460408051426020820152449181019190915260608101829052600091906080016040516020818303038152906040528051906020012060001c61080e919061109f565b90506005818154811061082357610823611038565b60009182526020909120600490910201805460068190556001820154600781905560028301546008819055600390930154600980546001600160a01b0319166001600160a01b0390921691821790556040517f314d0f2749f4f47e45bd658d5f379146bedd6ac53f8e6f0f63c5fe4ab14bc2aa946108c39493929091938452602084019290925260408301526001600160a01b0316606082015260800190565b60405180910390a15050600654600754600854600954929691955093506001600160a01b039091169150565b3360009081526003602052604090205460ff1661091e5760405162461bcd60e51b815260040161039e90610fc1565b6001600160a01b0381166109445760405162461bcd60e51b815260040161039e90611075565b600280546001600160a01b0319166001600160a01b0383169081179091556040519081527f5a78287a942b8ea0da8734a4eb919df11e564cc48301ffcb582dc8612d98208f9060200161058f565b6001600160a01b0381166000908152600a60209081526040808320805482518185028101850190935280835260609492939192909184015b82821015610a2757600084815260209081902060408051608081018252600486029092018054835260018082015484860152600282015492840192909252600301546001600160a01b0316606083015290835290920191016109ca565b505050509050919050565b610a3a610da2565b6001600160a01b038216610a605760405162461bcd60e51b815260040161039e90611075565b6001600160a01b038116610a865760405162461bcd60e51b815260040161039e90611075565b600280546001600160a01b039384166001600160a01b03199182161790915560018054929093169116178155336000908152600360205260409020805460ff19169091179055565b610ad6610da2565b6001600160a01b038116610b3b5760405162461bcd60e51b815260206004820152602660248201527f4f776e61626c653a206e6577206f776e657220697320746865207a65726f206160448201526564647265737360d01b606482015260840161039e565b610b4481610dfc565b50565b6001546001600160a01b03163314610bbb5760405162461bcd60e51b815260206004820152603160248201527f4f6e6c792067616d6d6120636172647320636f6e74726163742063616e2063616044820152703636103a3434b990333ab731ba34b7b71760791b606482015260840161039e565b600b54604080514260208201819052918101839052606084811b6bffffffffffffffffffffffff19169082015260009060740160408051601f1981840301815282825280516020918201206080840183528584528382018181528484018881526001600160a01b03808b1660608801818152600580546001818101835560009283528b5160049283027f036b6384b5eca791c62761152d0c79bb0604c104a5fb6f4eb0703f3154bb3db081019190915588517f036b6384b5eca791c62761152d0c79bb0604c104a5fb6f4eb0703f3154bb3db182015587517f036b6384b5eca791c62761152d0c79bb0604c104a5fb6f4eb0703f3154bb3db282015584517f036b6384b5eca791c62761152d0c79bb0604c104a5fb6f4eb0703f3154bb3db390910180549188166001600160a01b0319928316179055948352600a8a529982208054808c0182559083529882208b519990910201978855945197870197909755915160028601559451600394909401805494909516931692909217909255600b805492945090610d4a8361104e565b909155505060408051848152602081018490529081018590526001600160a01b038616907f0493d9379fb7ffa47303ca5a377a34a8034f42db6d986fe1f57b0b800fd210919060600160405180910390a25050505050565b6000546001600160a01b031633146106ef5760405162461bcd60e51b815260206004820181905260248201527f4f776e61626c653a2063616c6c6572206973206e6f7420746865206f776e6572604482015260640161039e565b600080546001600160a01b038381166001600160a01b0319831681178455604051919092169283917f8be0079c531659141344cd1fd0a4f28419497f9722a3daafe3b4186f6b6457e09190a35050565b5080546000825560040290600052602060002090810190610b4491905b80821115610e9c5760008082556001820181905560028201556003810180546001600160a01b0319169055600401610e69565b5090565b80356001600160a01b0381168114610eb757600080fd5b919050565b60008060408385031215610ecf57600080fd5b610ed883610ea0565b946020939093013593505050565b600060208284031215610ef857600080fd5b610f0182610ea0565b9392505050565b602080825282518282018190526000919060409081850190868401855b82811015610f6857815180518552868101518786015285810151868601526060908101516001600160a01b03169085015260809093019290850190600101610f25565b5091979650505050505050565b600060208284031215610f8757600080fd5b5035919050565b60008060408385031215610fa157600080fd5b610faa83610ea0565b9150610fb860208401610ea0565b90509250929050565b6020808252600c908201526b27b7363c9037bbb732b9399760a11b604082015260600190565b60208082526031908201527f4f6e6c792067616d6d61207061636b7320636f6e74726163742063616e2063616040820152703636103a3434b990333ab731ba34b7b71760791b606082015260800190565b634e487b7160e01b600052603260045260246000fd5b60006001820161106e57634e487b7160e01b600052601160045260246000fd5b5060010190565b60208082526010908201526f24b73b30b634b21030b2323932b9b99760811b604082015260600190565b6000826110bc57634e487b7160e01b600052601260045260246000fd5b50069056fea2646970667358221220cf6908679797d80ede0649852205b6283ff297198660c59b234d3069ef46f77c64736f6c63430008140033",
  "linkReferences": {
    "contracts/gamma/libs/LibControlMgmt.sol": {
      "LibControlMgmt": [
        {
          "length": 20,
          "start": 1103
        },
        {
          "length": 20,
          "start": 1854
        }
      ]
    }
  },
  "deployedLinkReferences": {
    "contracts/gamma/libs/LibControlMgmt.sol": {
      "LibControlMgmt": [
        {
          "length": 20,
          "start": 972
        },
        {
          "length": 20,
          "start": 1723
        }
      ]
    }
  }
}