{
  "_format": "hh-sol-artifact-1",
  "contractName": "NofGammaCardsV2",
  "sourceName": "contracts/gamma/GammaCards.v2.sol",
  "abi": [
    {
      "inputs": [
        {
          "internalType": "address",
          "name": "_daiTokenAddress",
          "type": "address"
        },
        {
          "internalType": "address",
          "name": "_packsContract",
          "type": "address"
        },
        {
          "internalType": "string",
          "name": "_baseUri",
          "type": "string"
        },
        {
          "internalType": "address",
          "name": "_signer",
          "type": "address"
        }
      ],
      "stateMutability": "nonpayable",
      "type": "constructor"
    },
    {
      "anonymous": false,
      "inputs": [
        {
          "indexed": false,
          "internalType": "address",
          "name": "player",
          "type": "address"
        },
        {
          "indexed": false,
          "internalType": "uint8",
          "name": "albumClass",
          "type": "uint8"
        }
      ],
      "name": "AlbumCompleted",
      "type": "event"
    },
    {
      "anonymous": false,
      "inputs": [
        {
          "indexed": true,
          "internalType": "address",
          "name": "owner",
          "type": "address"
        },
        {
          "indexed": true,
          "internalType": "address",
          "name": "approved",
          "type": "address"
        },
        {
          "indexed": true,
          "internalType": "uint256",
          "name": "tokenId",
          "type": "uint256"
        }
      ],
      "name": "Approval",
      "type": "event"
    },
    {
      "anonymous": false,
      "inputs": [
        {
          "indexed": true,
          "internalType": "address",
          "name": "owner",
          "type": "address"
        },
        {
          "indexed": true,
          "internalType": "address",
          "name": "operator",
          "type": "address"
        },
        {
          "indexed": false,
          "internalType": "bool",
          "name": "approved",
          "type": "bool"
        }
      ],
      "name": "ApprovalForAll",
      "type": "event"
    },
    {
      "anonymous": false,
      "inputs": [
        {
          "indexed": false,
          "internalType": "address",
          "name": "player",
          "type": "address"
        },
        {
          "indexed": false,
          "internalType": "uint256",
          "name": "cardTokenId",
          "type": "uint256"
        },
        {
          "indexed": false,
          "internalType": "uint256",
          "name": "albumTokenId",
          "type": "uint256"
        }
      ],
      "name": "CardPasted",
      "type": "event"
    },
    {
      "anonymous": false,
      "inputs": [
        {
          "indexed": false,
          "internalType": "address",
          "name": "receiver",
          "type": "address"
        },
        {
          "indexed": false,
          "internalType": "uint256",
          "name": "amount",
          "type": "uint256"
        }
      ],
      "name": "EmergencyWithdrawal",
      "type": "event"
    },
    {
      "anonymous": false,
      "inputs": [
        {
          "indexed": false,
          "internalType": "address",
          "name": "newSigner",
          "type": "address"
        }
      ],
      "name": "NewSigner",
      "type": "event"
    },
    {
      "anonymous": false,
      "inputs": [
        {
          "indexed": false,
          "internalType": "string",
          "name": "newMainUri",
          "type": "string"
        },
        {
          "indexed": false,
          "internalType": "string",
          "name": "newSecondaryUri",
          "type": "string"
        }
      ],
      "name": "NewUris",
      "type": "event"
    },
    {
      "anonymous": false,
      "inputs": [
        {
          "indexed": true,
          "internalType": "address",
          "name": "previousOwner",
          "type": "address"
        },
        {
          "indexed": true,
          "internalType": "address",
          "name": "newOwner",
          "type": "address"
        }
      ],
      "name": "OwnershipTransferred",
      "type": "event"
    },
    {
      "anonymous": false,
      "inputs": [
        {
          "indexed": false,
          "internalType": "address",
          "name": "player",
          "type": "address"
        },
        {
          "indexed": false,
          "internalType": "uint8[]",
          "name": "packData",
          "type": "uint8[]"
        },
        {
          "indexed": false,
          "internalType": "uint256",
          "name": "packNumber",
          "type": "uint256"
        }
      ],
      "name": "PackOpened",
      "type": "event"
    },
    {
      "anonymous": false,
      "inputs": [
        {
          "indexed": true,
          "internalType": "address",
          "name": "from",
          "type": "address"
        },
        {
          "indexed": true,
          "internalType": "address",
          "name": "to",
          "type": "address"
        },
        {
          "indexed": true,
          "internalType": "uint256",
          "name": "tokenId",
          "type": "uint256"
        }
      ],
      "name": "Transfer",
      "type": "event"
    },
    {
      "inputs": [],
      "name": "DAI_TOKEN",
      "outputs": [
        {
          "internalType": "address",
          "name": "",
          "type": "address"
        }
      ],
      "stateMutability": "view",
      "type": "function"
    },
    {
      "inputs": [
        {
          "internalType": "address",
          "name": "_newOwner",
          "type": "address"
        }
      ],
      "name": "addOwner",
      "outputs": [],
      "stateMutability": "nonpayable",
      "type": "function"
    },
    {
      "inputs": [
        {
          "internalType": "address",
          "name": "to",
          "type": "address"
        },
        {
          "internalType": "uint256",
          "name": "tokenId",
          "type": "uint256"
        }
      ],
      "name": "approve",
      "outputs": [],
      "stateMutability": "nonpayable",
      "type": "function"
    },
    {
      "inputs": [
        {
          "internalType": "address",
          "name": "owner",
          "type": "address"
        }
      ],
      "name": "balanceOf",
      "outputs": [
        {
          "internalType": "uint256",
          "name": "",
          "type": "uint256"
        }
      ],
      "stateMutability": "view",
      "type": "function"
    },
    {
      "inputs": [],
      "name": "baseUri",
      "outputs": [
        {
          "internalType": "string",
          "name": "",
          "type": "string"
        }
      ],
      "stateMutability": "view",
      "type": "function"
    },
    {
      "inputs": [
        {
          "internalType": "uint256",
          "name": "tokenId",
          "type": "uint256"
        }
      ],
      "name": "burn",
      "outputs": [],
      "stateMutability": "nonpayable",
      "type": "function"
    },
    {
      "inputs": [
        {
          "internalType": "uint8[]",
          "name": "cardNumbers",
          "type": "uint8[]"
        }
      ],
      "name": "burnCards",
      "outputs": [],
      "stateMutability": "nonpayable",
      "type": "function"
    },
    {
      "inputs": [
        {
          "internalType": "address",
          "name": "user",
          "type": "address"
        }
      ],
      "name": "burnedCards",
      "outputs": [
        {
          "internalType": "uint256",
          "name": "amount",
          "type": "uint256"
        }
      ],
      "stateMutability": "view",
      "type": "function"
    },
    {
      "inputs": [
        {
          "internalType": "uint256",
          "name": "tokenId",
          "type": "uint256"
        }
      ],
      "name": "cards",
      "outputs": [
        {
          "internalType": "uint256",
          "name": "tokenId",
          "type": "uint256"
        },
        {
          "internalType": "uint256",
          "name": "number",
          "type": "uint256"
        },
        {
          "internalType": "bool",
          "name": "pasted",
          "type": "bool"
        },
        {
          "internalType": "uint8",
          "name": "class",
          "type": "uint8"
        },
        {
          "internalType": "uint256",
          "name": "completion",
          "type": "uint256"
        }
      ],
      "stateMutability": "view",
      "type": "function"
    },
    {
      "inputs": [
        {
          "internalType": "address",
          "name": "user",
          "type": "address"
        },
        {
          "internalType": "uint8",
          "name": "cardNumber",
          "type": "uint8"
        }
      ],
      "name": "cardsByUser",
      "outputs": [
        {
          "internalType": "uint8",
          "name": "amount",
          "type": "uint8"
        }
      ],
      "stateMutability": "view",
      "type": "function"
    },
    {
      "inputs": [
        {
          "internalType": "uint256",
          "name": "cardNumber",
          "type": "uint256"
        }
      ],
      "name": "cardsInventory",
      "outputs": [
        {
          "internalType": "uint256",
          "name": "amount",
          "type": "uint256"
        }
      ],
      "stateMutability": "view",
      "type": "function"
    },
    {
      "inputs": [
        {
          "internalType": "uint256",
          "name": "newPackPrice",
          "type": "uint256"
        }
      ],
      "name": "changePackPrice",
      "outputs": [],
      "stateMutability": "nonpayable",
      "type": "function"
    },
    {
      "inputs": [
        {
          "internalType": "uint256",
          "name": "amount",
          "type": "uint256"
        }
      ],
      "name": "emergencyWithdraw",
      "outputs": [],
      "stateMutability": "nonpayable",
      "type": "function"
    },
    {
      "inputs": [],
      "name": "finishAlbum",
      "outputs": [],
      "stateMutability": "nonpayable",
      "type": "function"
    },
    {
      "inputs": [
        {
          "internalType": "uint256",
          "name": "tokenId",
          "type": "uint256"
        }
      ],
      "name": "getApproved",
      "outputs": [
        {
          "internalType": "address",
          "name": "",
          "type": "address"
        }
      ],
      "stateMutability": "view",
      "type": "function"
    },
    {
      "inputs": [
        {
          "internalType": "address",
          "name": "user",
          "type": "address"
        }
      ],
      "name": "getCardsByUser",
      "outputs": [
        {
          "internalType": "uint8[]",
          "name": "",
          "type": "uint8[]"
        },
        {
          "internalType": "uint8[]",
          "name": "",
          "type": "uint8[]"
        }
      ],
      "stateMutability": "view",
      "type": "function"
    },
    {
      "inputs": [
        {
          "internalType": "address",
          "name": "owner",
          "type": "address"
        },
        {
          "internalType": "address",
          "name": "operator",
          "type": "address"
        }
      ],
      "name": "isApprovedForAll",
      "outputs": [
        {
          "internalType": "bool",
          "name": "",
          "type": "bool"
        }
      ],
      "stateMutability": "view",
      "type": "function"
    },
    {
      "inputs": [],
      "name": "mainAlbumPrize",
      "outputs": [
        {
          "internalType": "uint256",
          "name": "",
          "type": "uint256"
        }
      ],
      "stateMutability": "view",
      "type": "function"
    },
    {
      "inputs": [],
      "name": "mainUri",
      "outputs": [
        {
          "internalType": "string",
          "name": "",
          "type": "string"
        }
      ],
      "stateMutability": "view",
      "type": "function"
    },
    {
      "inputs": [
        {
          "internalType": "uint8",
          "name": "cardNum",
          "type": "uint8"
        }
      ],
      "name": "mintCard",
      "outputs": [],
      "stateMutability": "nonpayable",
      "type": "function"
    },
    {
      "inputs": [],
      "name": "name",
      "outputs": [
        {
          "internalType": "string",
          "name": "",
          "type": "string"
        }
      ],
      "stateMutability": "view",
      "type": "function"
    },
    {
      "inputs": [
        {
          "internalType": "uint256",
          "name": "packNumber",
          "type": "uint256"
        },
        {
          "internalType": "uint8[]",
          "name": "packData",
          "type": "uint8[]"
        },
        {
          "internalType": "bytes",
          "name": "signature",
          "type": "bytes"
        }
      ],
      "name": "openPack",
      "outputs": [],
      "stateMutability": "nonpayable",
      "type": "function"
    },
    {
      "inputs": [],
      "name": "owner",
      "outputs": [
        {
          "internalType": "address",
          "name": "",
          "type": "address"
        }
      ],
      "stateMutability": "view",
      "type": "function"
    },
    {
      "inputs": [
        {
          "internalType": "uint256",
          "name": "tokenId",
          "type": "uint256"
        }
      ],
      "name": "ownerOf",
      "outputs": [
        {
          "internalType": "address",
          "name": "",
          "type": "address"
        }
      ],
      "stateMutability": "view",
      "type": "function"
    },
    {
      "inputs": [
        {
          "internalType": "address",
          "name": "",
          "type": "address"
        }
      ],
      "name": "owners",
      "outputs": [
        {
          "internalType": "bool",
          "name": "",
          "type": "bool"
        }
      ],
      "stateMutability": "view",
      "type": "function"
    },
    {
      "inputs": [],
      "name": "packPrice",
      "outputs": [
        {
          "internalType": "uint256",
          "name": "",
          "type": "uint256"
        }
      ],
      "stateMutability": "view",
      "type": "function"
    },
    {
      "inputs": [],
      "name": "packsContract",
      "outputs": [
        {
          "internalType": "contract IGammaPacks",
          "name": "",
          "type": "address"
        }
      ],
      "stateMutability": "view",
      "type": "function"
    },
    {
      "inputs": [],
      "name": "prizesBalance",
      "outputs": [
        {
          "internalType": "uint256",
          "name": "",
          "type": "uint256"
        }
      ],
      "stateMutability": "view",
      "type": "function"
    },
    {
      "inputs": [
        {
          "internalType": "uint256",
          "name": "amount",
          "type": "uint256"
        }
      ],
      "name": "receivePrizesBalance",
      "outputs": [],
      "stateMutability": "nonpayable",
      "type": "function"
    },
    {
      "inputs": [
        {
          "internalType": "address",
          "name": "_ownerToRemove",
          "type": "address"
        }
      ],
      "name": "removeOwner",
      "outputs": [],
      "stateMutability": "nonpayable",
      "type": "function"
    },
    {
      "inputs": [],
      "name": "renounceOwnership",
      "outputs": [],
      "stateMutability": "nonpayable",
      "type": "function"
    },
    {
      "inputs": [
        {
          "internalType": "address",
          "name": "from",
          "type": "address"
        },
        {
          "internalType": "address",
          "name": "to",
          "type": "address"
        },
        {
          "internalType": "uint256",
          "name": "tokenId",
          "type": "uint256"
        }
      ],
      "name": "safeTransferFrom",
      "outputs": [],
      "stateMutability": "nonpayable",
      "type": "function"
    },
    {
      "inputs": [
        {
          "internalType": "address",
          "name": "from",
          "type": "address"
        },
        {
          "internalType": "address",
          "name": "to",
          "type": "address"
        },
        {
          "internalType": "uint256",
          "name": "tokenId",
          "type": "uint256"
        },
        {
          "internalType": "bytes",
          "name": "data",
          "type": "bytes"
        }
      ],
      "name": "safeTransferFrom",
      "outputs": [],
      "stateMutability": "nonpayable",
      "type": "function"
    },
    {
      "inputs": [],
      "name": "secondaryAlbumPrize",
      "outputs": [
        {
          "internalType": "uint256",
          "name": "",
          "type": "uint256"
        }
      ],
      "stateMutability": "view",
      "type": "function"
    },
    {
      "inputs": [],
      "name": "secondaryUri",
      "outputs": [
        {
          "internalType": "string",
          "name": "",
          "type": "string"
        }
      ],
      "stateMutability": "view",
      "type": "function"
    },
    {
      "inputs": [
        {
          "internalType": "address",
          "name": "operator",
          "type": "address"
        },
        {
          "internalType": "bool",
          "name": "approved",
          "type": "bool"
        }
      ],
      "name": "setApprovalForAll",
      "outputs": [],
      "stateMutability": "nonpayable",
      "type": "function"
    },
    {
      "inputs": [
        {
          "internalType": "address",
          "name": "newSigner",
          "type": "address"
        }
      ],
      "name": "setSigner",
      "outputs": [],
      "stateMutability": "nonpayable",
      "type": "function"
    },
    {
      "inputs": [
        {
          "internalType": "string",
          "name": "newMainUri",
          "type": "string"
        },
        {
          "internalType": "string",
          "name": "newSecondaryUri",
          "type": "string"
        }
      ],
      "name": "setUris",
      "outputs": [],
      "stateMutability": "nonpayable",
      "type": "function"
    },
    {
      "inputs": [],
      "name": "signer",
      "outputs": [
        {
          "internalType": "address",
          "name": "",
          "type": "address"
        }
      ],
      "stateMutability": "view",
      "type": "function"
    },
    {
      "inputs": [
        {
          "internalType": "bytes4",
          "name": "interfaceId",
          "type": "bytes4"
        }
      ],
      "name": "supportsInterface",
      "outputs": [
        {
          "internalType": "bool",
          "name": "",
          "type": "bool"
        }
      ],
      "stateMutability": "view",
      "type": "function"
    },
    {
      "inputs": [],
      "name": "symbol",
      "outputs": [
        {
          "internalType": "string",
          "name": "",
          "type": "string"
        }
      ],
      "stateMutability": "view",
      "type": "function"
    },
    {
      "inputs": [],
      "name": "testAddCards",
      "outputs": [],
      "stateMutability": "nonpayable",
      "type": "function"
    },
    {
      "inputs": [
        {
          "internalType": "uint256",
          "name": "tokenId",
          "type": "uint256"
        }
      ],
      "name": "tokenURI",
      "outputs": [
        {
          "internalType": "string",
          "name": "",
          "type": "string"
        }
      ],
      "stateMutability": "view",
      "type": "function"
    },
    {
      "inputs": [
        {
          "internalType": "address",
          "name": "to",
          "type": "address"
        },
        {
          "internalType": "uint8",
          "name": "cardNumber",
          "type": "uint8"
        }
      ],
      "name": "transferCard",
      "outputs": [],
      "stateMutability": "nonpayable",
      "type": "function"
    },
    {
      "inputs": [
        {
          "internalType": "address",
          "name": "to",
          "type": "address"
        },
        {
          "internalType": "uint8[]",
          "name": "cardNumbers",
          "type": "uint8[]"
        }
      ],
      "name": "transferCards",
      "outputs": [],
      "stateMutability": "nonpayable",
      "type": "function"
    },
    {
      "inputs": [
        {
          "internalType": "address",
          "name": "from",
          "type": "address"
        },
        {
          "internalType": "address",
          "name": "to",
          "type": "address"
        },
        {
          "internalType": "uint256",
          "name": "tokenId",
          "type": "uint256"
        }
      ],
      "name": "transferFrom",
      "outputs": [],
      "stateMutability": "nonpayable",
      "type": "function"
    },
    {
      "inputs": [
        {
          "internalType": "address",
          "name": "newOwner",
          "type": "address"
        }
      ],
      "name": "transferOwnership",
      "outputs": [],
      "stateMutability": "nonpayable",
      "type": "function"
    }
  ],
  "bytecode": "0x60806040526710a741a462780000600c5567d02ab486cedc0000600f55670de0b6b3a76400006010553480156200003557600080fd5b506040516200458d3803806200458d833981016040819052620000589162000336565b6040518060400160405280600a81526020016947616d6d61436172647360b01b815250604051806040016040528060068152602001654e4f465f474360d01b8152508160009081620000ab9190620004b8565b506001620000ba8282620004b8565b505050620000d7620000d16200028760201b60201c565b6200028b565b600880546001600160a01b038086166001600160a01b031992831617909255600a805492871692909116919091179055600e620001158382620004b8565b5060408051808201825260018152602f60f81b60208083019190915282518084018452600381526203132360ec1b8183015283518085018552600681526523173539b7b760d11b8184015293516200017494600e949390910162000584565b60405160208183030381529060405260119081620001939190620004b8565b5060408051808201825260018152602f60f81b60208083019190915282518084018452600381526231323160e81b8183015283518085018552600681526523173539b7b760d11b818401529351620001f294600e949390910162000584565b60405160208183030381529060405260129081620002119190620004b8565b50600b80546001600160a01b0319166001600160a01b03831617905560005b607a811015620002615760008181526013602052604090206001905580620002588162000641565b91505062000230565b5050336000908152601760205260409020805460ff191660011790555062000669915050565b3390565b600780546001600160a01b038381166001600160a01b0319831681179093556040519116919082907f8be0079c531659141344cd1fd0a4f28419497f9722a3daafe3b4186f6b6457e090600090a35050565b80516001600160a01b0381168114620002f557600080fd5b919050565b634e487b7160e01b600052604160045260246000fd5b60005b838110156200032d57818101518382015260200162000313565b50506000910152565b600080600080608085870312156200034d57600080fd5b6200035885620002dd565b93506200036860208601620002dd565b60408601519093506001600160401b03808211156200038657600080fd5b818701915087601f8301126200039b57600080fd5b815181811115620003b057620003b0620002fa565b604051601f8201601f19908116603f01168101908382118183101715620003db57620003db620002fa565b816040528281528a6020848701011115620003f557600080fd5b6200040883602083016020880162000310565b80965050505050506200041e60608601620002dd565b905092959194509250565b600181811c908216806200043e57607f821691505b6020821081036200045f57634e487b7160e01b600052602260045260246000fd5b50919050565b601f821115620004b357600081815260208120601f850160051c810160208610156200048e5750805b601f850160051c820191505b81811015620004af578281556001016200049a565b5050505b505050565b81516001600160401b03811115620004d457620004d4620002fa565b620004ec81620004e5845462000429565b8462000465565b602080601f8311600181146200052457600084156200050b5750858301515b600019600386901b1c1916600185901b178555620004af565b600085815260208120601f198616915b82811015620005555788860151825594840194600190910190840162000534565b5085821015620005745787850151600019600388901b60f8161c191681555b5050505050600190811b01905550565b6000808654620005948162000429565b60018281168015620005af5760018114620005c557620005f6565b60ff1984168752821515830287019450620005f6565b8a60005260208060002060005b85811015620005ed5781548a820152908401908201620005d2565b50505082870194505b5050505085516200060c818360208a0162000310565b85519101906200062181836020890162000310565b84519101906200063681836020880162000310565b019695505050505050565b6000600182016200066257634e487b7160e01b600052601160045260246000fd5b5060010190565b613f1480620006796000396000f3fe608060405234801561001057600080fd5b50600436106102955760003560e01c80637e50fa8f11610167578063a22cb465116100ce578063dec3f6d911610087578063dec3f6d914610646578063e1883c6e1461064e578063e5db587a14610661578063e606df871461066a578063e985e9c51461067d578063f2fde38b1461069057600080fd5b8063a22cb465146105ea578063aaaeca17146105fd578063b88d4fde14610605578063bf400a6a14610618578063c3461c071461062b578063c87b56dd1461063357600080fd5b80639038f414116101205780639038f414146105a357806395d89b41146105ab5780639abc8320146105b35780639c7f707f146105bb5780639f4415d8146105ce578063a1af8ad4146105d757600080fd5b80637e50fa8f1461049a578063809eb355146104ba5780638ba526fc146104fa5780638da5cb5b1461050d5780638dc107681461051e5780638dd8be471461059057600080fd5b80632ca699e71161020b5780635dde20d8116101c45780635dde20d8146104265780636352211e146104465780636c19e783146104595780637065cb481461046c57806370a082311461047f578063715018a61461049257600080fd5b80632ca699e7146103ba578063335c8b63146103cd57806342842e0e146103e457806342966c68146103f7578063483823e81461040a5780635312ea8e1461041357600080fd5b8063095ea7b31161025d578063095ea7b314610346578063173825d91461035b57806320965a5f1461036e578063238ac9331461038157806323b872dd14610394578063267b841d146103a757600080fd5b806301ffc9a71461029a578063022914a7146102c25780630435dcaf146102e557806306fdde0314610306578063081812fc1461031b575b600080fd5b6102ad6102a83660046132da565b6106a3565b60405190151581526020015b60405180910390f35b6102ad6102d036600461330c565b60176020526000908152604090205460ff1681565b6102f86102f336600461330c565b6106f5565b6040516102b9929190613367565b61030e610965565b6040516102b991906133e5565b61032e6103293660046133f8565b6109f7565b6040516001600160a01b0390911681526020016102b9565b610359610354366004613411565b610a1e565b005b61035961036936600461330c565b610b38565b61035961037c366004613481565b610c37565b600b5461032e906001600160a01b031681565b6103596103a23660046134c2565b610f37565b6103596103b53660046135a0565b610f69565b6103596103c836600461367c565b6113ea565b6103d6600c5481565b6040519081526020016102b9565b6103596103f23660046134c2565b61156c565b6103596104053660046133f8565b611587565b6103d660105481565b6103596104213660046133f8565b6115b8565b6103d66104343660046133f8565b60136020526000908152604090205481565b61032e6104543660046133f8565b6116c6565b61035961046736600461330c565b611726565b61035961047a36600461330c565b6117a3565b6103d661048d36600461330c565b61183e565b6103596118c4565b6103d66104a836600461330c565b60166020526000908152604090205481565b6104e86104c836600461367c565b601560209081526000928352604080842090915290825290205460ff1681565b60405160ff90911681526020016102b9565b6103596105083660046133f8565b6118d8565b6007546001600160a01b031661032e565b61056061052c3660046133f8565b60146020526000908152604090208054600182015460028301546003909301549192909160ff808316926101009004169085565b6040805195865260208601949094529115159284019290925260ff9091166060830152608082015260a0016102b9565b60085461032e906001600160a01b031681565b610359611945565b61030e611c3a565b61030e611c49565b6103596105c9366004613728565b611cd7565b6103d6600f5481565b6103596105e536600461378b565b611d51565b6103596105f83660046137ed565b611fbc565b610359611fc7565b610359610613366004613826565b61202e565b6103596106263660046138a5565b612060565b61030e61215d565b61030e6106413660046133f8565b61216a565b61030e612175565b61035961065c3660046133f8565b612182565b6103d6600d5481565b600a5461032e906001600160a01b031681565b6102ad61068b3660046138c0565b6121da565b61035961069e36600461330c565b612208565b60006001600160e01b031982166380ac58cd60e01b14806106d457506001600160e01b03198216635b5e139f60e01b145b806106ef57506301ffc9a760e01b6001600160e01b03198316145b92915050565b604080516079808252610f408201909252606091829160009160208201610f20803683375050604080516079808252610f408201909252929350600092915060208201610f2080368337019050509050600060015b60788160ff161161081b576001600160a01b038716600090815260156020908152604080832060ff808616855292529091205416156108095780848360ff1681518110610799576107996138ee565b60ff9283166020918202929092018101919091526001600160a01b03891660009081526015825260408082208585168352909252205484519082169185919085169081106107e9576107e96138ee565b60ff90921660209283029190910190910152816108058161391a565b9250505b806108138161391a565b91505061074a565b5060008160ff166001600160401b0381111561083957610839613503565b604051908082528060200260200182016040528015610862578160200160208202803683370190505b50905060008260ff166001600160401b0381111561088257610882613503565b6040519080825280602002602001820160405280156108ab578160200160208202803683370190505b50905060005b8360ff168160ff16101561095757858160ff16815181106108d4576108d46138ee565b6020026020010151838260ff16815181106108f1576108f16138ee565b60ff9283166020918202929092010152855186918316908110610916576109166138ee565b6020026020010151828260ff1681518110610933576109336138ee565b60ff909216602092830291909101909101528061094f8161391a565b9150506108b1565b509097909650945050505050565b60606000805461097490613939565b80601f01602080910402602001604051908101604052809291908181526020018280546109a090613939565b80156109ed5780601f106109c2576101008083540402835291602001916109ed565b820191906000526020600020905b8154815290600101906020018083116109d057829003601f168201915b5050505050905090565b6000610a028261227e565b506000908152600460205260409020546001600160a01b031690565b6000610a29826116c6565b9050806001600160a01b0316836001600160a01b031603610a9b5760405162461bcd60e51b815260206004820152602160248201527f4552433732313a20617070726f76616c20746f2063757272656e74206f776e656044820152603960f91b60648201526084015b60405180910390fd5b336001600160a01b0382161480610ab75750610ab781336121da565b610b295760405162461bcd60e51b815260206004820152603d60248201527f4552433732313a20617070726f76652063616c6c6572206973206e6f7420746f60448201527f6b656e206f776e6572206f7220617070726f76656420666f7220616c6c0000006064820152608401610a92565b610b3383836122dd565b505050565b3360009081526017602052604090205460ff16610b675760405162461bcd60e51b8152600401610a9290613973565b6001600160a01b038116610baf5760405162461bcd60e51b815260206004820152600f60248201526e496e76616c6964206164647265737360881b6044820152606401610a92565b336001600160a01b03821603610c165760405162461bcd60e51b815260206004820152602660248201527f596f752063616e6e6f742072656d6f766520796f757273656c6620617320616e6044820152651037bbb732b960d11b6064820152608401610a92565b6001600160a01b03166000908152601760205260409020805460ff19169055565b3360009081526015602090815260408083206079845290915290205460ff16610ca25760405162461bcd60e51b815260206004820152601860248201527f4e6f207469656e657320616c62756d206465207175656d6100000000000000006044820152606401610a92565b336000908152601560209081526040808320607984529091528120805460ff1691610ccc836139b6565b825460ff9182166101009390930a9283029190920219909116179055503360009081526016602052604081208054839290610d089084906139d3565b90915550600090505b60ff8116821115610da95733600090815260156020526040812090848460ff8516818110610d4157610d416138ee565b9050602002016020810190610d5691906138a5565b60ff90811682526020820192909252604001600090812080549092169190610d7d836139b6565b91906101000a81548160ff021916908360ff160217905550508080610da19061391a565b915050610d11565b5033600090815260166020526040902054610dc690603c906139fc565b600003610f3357610e653360128054610dde90613939565b80601f0160208091040260200160405190810160405280929190818152602001828054610e0a90613939565b8015610e575780601f10610e2c57610100808354040283529160200191610e57565b820191906000526020600020905b815481529060010190602001808311610e3a57829003601f168201915b50505050506079600261234b565b600f54600d6000828254610e799190613a10565b9091555050600a5460105460405163a9059cbb60e01b815233600482015260248101919091526001600160a01b039091169063a9059cbb906044016020604051808303816000875af1158015610ed3573d6000803e3d6000fd5b505050506040513d601f19601f82011682018060405250810190610ef79190613a23565b5060408051338152600260208201527f6d0344e2059f835240cb954cce07d4b26f0d0844eecc234f7ee0e292ba80a1aa91015b60405180910390a15b5050565b610f42335b826123ae565b610f5e5760405162461bcd60e51b8152600401610a9290613a40565b610b3383838361240d565b60085460405163d3e6a7ad60e01b81526004810186905233916001600160a01b03169063d3e6a7ad90602401602060405180830381865afa158015610fb2573d6000803e3d6000fd5b505050506040513d601f19601f82011682018060405250810190610fd69190613a8d565b6001600160a01b0316146110245760405162461bcd60e51b81526020600482015260156024820152744573746520736f627265206e6f206573207475796f60581b6044820152606401610a92565b600f8351106110755760405162461bcd60e51b815260206004820152601960248201527f4c696d6974652064652063617274617320657863656469646f000000000000006044820152606401610a92565b6008546040516380f2540b60e01b8152600481018690523360248201526001600160a01b03909116906380f2540b90604401600060405180830381600087803b1580156110c157600080fd5b505af11580156110d5573d6000803e3d6000fd5b505050506006600c546110e89190613aaa565b600c546110f59190613a10565b600d600082825461110691906139d3565b92505081905550600061118733868660405160200161112793929190613abe565b60408051601f1981840301815282825280516020918201207f19457468657265756d205369676e6564204d6573736167653a0a33320000000084830152603c8085019190915282518085039091018152605c909301909152815191012090565b600b54604080516020601f87018190048102820181019092528581529293506001600160a01b03909116916111d9918690869081908401838280828437600092019190915250869392505061257e9050565b6001600160a01b0316146112235760405162461bcd60e51b8152602060048201526011602482015270496e76616c6964207369676e617475726560781b6044820152606401610a92565b835160005b818160ff1610156113a657858160ff1681518110611248576112486138ee565b602002602001015160ff166078146112965761138960136000888460ff1681518110611276576112766138ee565b602002602001015160ff16815260200190815260200160002054106112c7565b607860005260136020527fdf3e0ba85198d5d74c53175fb24486e82f8e6ac58d6fdc8357e123450eab705e54610bb9115b6112d057600080fd5b60136000878360ff16815181106112e9576112e96138ee565b602002602001015160ff168152602001908152602001600020600081548092919061131390613b4c565b90915550503360009081526015602052604081208751909190889060ff8516908110611341576113416138ee565b602002602001015160ff1660ff168152602001908152602001600020600081819054906101000a900460ff168092919061137a9061391a565b91906101000a81548160ff021916908360ff16021790555050808061139e9061391a565b915050611228565b507fbabe8f5e83e93ab103ddf917b4292a19335a5128b3530bedd896a681cdd945e33386886040516113da93929190613b65565b60405180910390a1505050505050565b33600090815260156020908152604080832060ff8086168552925290912054166114265760405162461bcd60e51b8152600401610a9290613b99565b336001600160a01b0383160361147e5760405162461bcd60e51b815260206004820152601a60248201527f5472616e73662070726f706961206e6f207065726d69746964610000000000006044820152606401610a92565b6001600160a01b0382166114d45760405162461bcd60e51b815260206004820152601e60248201527f5175656d61646f20646520636172746173206e6f207065726d697469646f00006044820152606401610a92565b33600090815260156020908152604080832060ff808616855292528220805490911691611500836139b6565b82546101009290920a60ff8181021990931691831602179091556001600160a01b0384166000908152601560209081526040808320868516845290915281208054909216925061154f8361391a565b91906101000a81548160ff021916908360ff160217905550505050565b610b338383836040518060200160405280600081525061202e565b61159033610f3c565b6115ac5760405162461bcd60e51b8152600401610a9290613a40565b6115b5816125a2565b50565b3360009081526017602052604090205460ff166115e75760405162461bcd60e51b8152600401610a9290613973565b806115f13061183e565b10156115fc57600080fd5b80600d600082825461160e9190613a10565b9091555050600a5460405163a9059cbb60e01b8152336004820152602481018390526001600160a01b039091169063a9059cbb906044016020604051808303816000875af1158015611664573d6000803e3d6000fd5b505050506040513d601f19601f820116820180604052508101906116889190613a23565b5060408051338152602081018390527f23d6711a1d031134a36921253c75aa59e967d38e369ac625992824315e204f2091015b60405180910390a150565b6000818152600260205260408120546001600160a01b0316806106ef5760405162461bcd60e51b8152602060048201526018602482015277115490cdcc8c4e881a5b9d985b1a59081d1bdad95b88125160421b6044820152606401610a92565b3360009081526017602052604090205460ff166117555760405162461bcd60e51b8152600401610a9290613973565b600b80546001600160a01b0319166001600160a01b0383169081179091556040519081527fffafe5c39be83f4bcf20d7e1a150f6e21c1858ea0948315ba84b6b1c386d45bb906020016116bb565b3360009081526017602052604090205460ff166117d25760405162461bcd60e51b8152600401610a9290613973565b6001600160a01b03811661181a5760405162461bcd60e51b815260206004820152600f60248201526e496e76616c6964206164647265737360881b6044820152606401610a92565b6001600160a01b03166000908152601760205260409020805460ff19166001179055565b60006001600160a01b0382166118a85760405162461bcd60e51b815260206004820152602960248201527f4552433732313a2061646472657373207a65726f206973206e6f7420612076616044820152683634b21037bbb732b960b91b6064820152608401610a92565b506001600160a01b031660009081526003602052604090205490565b6118cc6125ab565b6118d66000612605565b565b6008546001600160a01b0316331461192b5760405162461bcd60e51b8152602060048201526016602482015275536f6c6f20636f6e747261746f206465207061636b7360501b6044820152606401610a92565b80600d600082825461193d91906139d3565b909155505050565b3360009081526015602090815260408083206078845290915290205460ff166119a95760405162461bcd60e51b81526020600482015260166024820152754e6f207469656e6573206e696e67756e20616c62756d60501b6044820152606401610a92565b600f54600d5410156119f45760405162461bcd60e51b8152602060048201526014602482015273466f6e646f7320696e737566696369656e74657360601b6044820152606401610a92565b6000805b60798160ff161015611a8a5733600090815260156020908152604080832060ff80861685529252822054169003611a325760019150611a8a565b33600090815260156020908152604080832060ff808616855292528220805490911691611a5e836139b6565b91906101000a81548160ff021916908360ff160217905550508080611a829061391a565b9150506119f8565b508015611ad95760405162461bcd60e51b815260206004820152601760248201527f4d75737420636f6d706c6574652074686520616c62756d0000000000000000006044820152606401610a92565b611b713360118054611aea90613939565b80601f0160208091040260200160405190810160405280929190818152602001828054611b1690613939565b8015611b635780601f10611b3857610100808354040283529160200191611b63565b820191906000526020600020905b815481529060010190602001808311611b4657829003601f168201915b50505050506078600261234b565b600f54600d6000828254611b859190613a10565b9091555050600a54600f5460405163a9059cbb60e01b815233600482015260248101919091526001600160a01b039091169063a9059cbb906044016020604051808303816000875af1158015611bdf573d6000803e3d6000fd5b505050506040513d601f19601f82011682018060405250810190611c039190613a23565b5060408051338152600160208201527f6d0344e2059f835240cb954cce07d4b26f0d0844eecc234f7ee0e292ba80a1aa91016116bb565b60606001805461097490613939565b600e8054611c5690613939565b80601f0160208091040260200160405190810160405280929190818152602001828054611c8290613939565b8015611ccf5780601f10611ca457610100808354040283529160200191611ccf565b820191906000526020600020905b815481529060010190602001808311611cb257829003601f168201915b505050505081565b3360009081526017602052604090205460ff16611d065760405162461bcd60e51b8152600401610a9290613973565b6011611d128382613c15565b506012611d1f8282613c15565b507fabfd337ac5625b7dc2ddd3d3bd465fb1dec15322eeeed81032268b337880bec68282604051610f2a929190613cd4565b336001600160a01b03841603611db75760405162461bcd60e51b815260206004820152602560248201527f4e6f2074652070756564657320656e76696172206361727461732061207469206044820152646d69736d6f60d81b6064820152608401610a92565b6001600160a01b038316611e1c5760405162461bcd60e51b815260206004820152602660248201527f4e6f20707565646573207175656d6172206361727461732064652065737461206044820152656d616e65726160d01b6064820152608401610a92565b60005b60ff8116821115611fb65733600090815260156020526040812081858560ff8616818110611e4f57611e4f6138ee565b9050602002016020810190611e6491906138a5565b60ff90811682526020820192909252604001600020541611611e985760405162461bcd60e51b8152600401610a9290613b99565b33600090815260156020526040812090848460ff8516818110611ebd57611ebd6138ee565b9050602002016020810190611ed291906138a5565b60ff90811682526020820192909252604001600090812080549092169190611ef9836139b6565b91906101000a81548160ff021916908360ff1602179055505060156000856001600160a01b03166001600160a01b03168152602001908152602001600020600084848460ff16818110611f4e57611f4e6138ee565b9050602002016020810190611f6391906138a5565b60ff90811682526020820192909252604001600090812080549092169190611f8a8361391a565b91906101000a81548160ff021916908360ff160217905550508080611fae9061391a565b915050611e1f565b50505050565b610f33338383612657565b60005b60798160ff1610156115b55733600090815260156020908152604080832060ff8086168552925282208054909116916120028361391a565b91906101000a81548160ff021916908360ff1602179055505080806120269061391a565b915050611fca565b61203833836123ae565b6120545760405162461bcd60e51b8152600401610a9290613a40565b611fb684848484612725565b33600090815260156020908152604080832060ff80861685529252909120541661209c5760405162461bcd60e51b8152600401610a9290613b99565b33600090815260156020908152604080832060ff8086168552925282208054909116916120c8836139b6565b91906101000a81548160ff021916908360ff160217905550506000600e604051806040016040528060018152602001602f60f81b81525061210b8460ff16612758565b60405180604001604052806005815260200164173539b7b760d91b81525060405160200161213c9493929190613cf9565b6040516020818303038152906040529050610f3333828460ff16600161234b565b60118054611c5690613939565b60606106ef82612858565b60128054611c5690613939565b6008546001600160a01b031633146121d55760405162461bcd60e51b8152602060048201526016602482015275536f6c6f20636f6e747261746f206465207061636b7360501b6044820152606401610a92565b600c55565b6001600160a01b03918216600090815260056020908152604080832093909416825291909152205460ff1690565b6122106125ab565b6001600160a01b0381166122755760405162461bcd60e51b815260206004820152602660248201527f4f776e61626c653a206e6577206f776e657220697320746865207a65726f206160448201526564647265737360d01b6064820152608401610a92565b6115b581612605565b6000818152600260205260409020546001600160a01b03166115b55760405162461bcd60e51b8152602060048201526018602482015277115490cdcc8c4e881a5b9d985b1a59081d1bdad95b88125160421b6044820152606401610a92565b600081815260046020526040902080546001600160a01b0319166001600160a01b0384169081179091558190612312826116c6565b6001600160a01b03167f8c5be1e5ebec7d5bd14f71427d1e84f3dd0314c0f7b2291e5b200ac8c7c3b92560405160405180910390a45050565b600061235660095490565b9050612366600980546001019055565b600081815260146020526040902081815560018101849055600201805461ff00191661010060ff85160217905561239d8582612960565b6123a7818561297a565b5050505050565b6000806123ba836116c6565b9050806001600160a01b0316846001600160a01b031614806123e157506123e181856121da565b806124055750836001600160a01b03166123fa846109f7565b6001600160a01b0316145b949350505050565b826001600160a01b0316612420826116c6565b6001600160a01b0316146124465760405162461bcd60e51b8152600401610a9290613da8565b6001600160a01b0382166124a85760405162461bcd60e51b8152602060048201526024808201527f4552433732313a207472616e7366657220746f20746865207a65726f206164646044820152637265737360e01b6064820152608401610a92565b6124b58383836001612a0d565b826001600160a01b03166124c8826116c6565b6001600160a01b0316146124ee5760405162461bcd60e51b8152600401610a9290613da8565b600081815260046020908152604080832080546001600160a01b03199081169091556001600160a01b0387811680865260038552838620805460001901905590871680865283862080546001019055868652600290945282852080549092168417909155905184937fddf252ad1be2c89b69c2b068fc378daa952ba7f163c4a11628f55a4df523b3ef91a4505050565b600080600061258d8585612a95565b9150915061259a81612ada565b509392505050565b6115b581612c24565b6007546001600160a01b031633146118d65760405162461bcd60e51b815260206004820181905260248201527f4f776e61626c653a2063616c6c6572206973206e6f7420746865206f776e65726044820152606401610a92565b600780546001600160a01b038381166001600160a01b0319831681179093556040519116919082907f8be0079c531659141344cd1fd0a4f28419497f9722a3daafe3b4186f6b6457e090600090a35050565b816001600160a01b0316836001600160a01b0316036126b85760405162461bcd60e51b815260206004820152601960248201527f4552433732313a20617070726f766520746f2063616c6c6572000000000000006044820152606401610a92565b6001600160a01b03838116600081815260056020908152604080832094871680845294825291829020805460ff191686151590811790915591519182527f17307eab39ab6107e8899845ad3d59bd9653f200f220920489ca2b5937696c31910160405180910390a3505050565b61273084848461240d565b61273c84848484612c64565b611fb65760405162461bcd60e51b8152600401610a9290613ded565b60608160000361277f5750506040805180820190915260018152600360fc1b602082015290565b8160005b81156127a9578061279381613b4c565b91506127a29050600a83613aaa565b9150612783565b6000816001600160401b038111156127c3576127c3613503565b6040519080825280601f01601f1916602001820160405280156127ed576020820181803683370190505b5090505b841561240557612802600183613a10565b915061280f600a866139fc565b61281a9060306139d3565b60f81b81838151811061282f5761282f6138ee565b60200101906001600160f81b031916908160001a905350612851600a86613aaa565b94506127f1565b60606128638261227e565b6000828152600660205260408120805461287c90613939565b80601f01602080910402602001604051908101604052809291908181526020018280546128a890613939565b80156128f55780601f106128ca576101008083540402835291602001916128f5565b820191906000526020600020905b8154815290600101906020018083116128d857829003601f168201915b50505050509050600061291360408051602081019091526000815290565b90508051600003612925575092915050565b81511561295757808260405160200161293f929190613e3f565b60405160208183030381529060405292505050919050565b61240584612d65565b610f33828260405180602001604052806000815250612dd9565b6000828152600260205260409020546001600160a01b03166129f55760405162461bcd60e51b815260206004820152602e60248201527f45524337323155524953746f726167653a2055524920736574206f66206e6f6e60448201526d32bc34b9ba32b73a103a37b5b2b760911b6064820152608401610a92565b6000828152600660205260409020610b338282613c15565b6001811115611fb6576001600160a01b03841615612a53576001600160a01b03841660009081526003602052604081208054839290612a4d908490613a10565b90915550505b6001600160a01b03831615611fb6576001600160a01b03831660009081526003602052604081208054839290612a8a9084906139d3565b909155505050505050565b6000808251604103612acb5760208301516040840151606085015160001a612abf87828585612e0c565b94509450505050612ad3565b506000905060025b9250929050565b6000816004811115612aee57612aee613e6e565b03612af65750565b6001816004811115612b0a57612b0a613e6e565b03612b575760405162461bcd60e51b815260206004820152601860248201527f45434453413a20696e76616c6964207369676e617475726500000000000000006044820152606401610a92565b6002816004811115612b6b57612b6b613e6e565b03612bb85760405162461bcd60e51b815260206004820152601f60248201527f45434453413a20696e76616c6964207369676e6174757265206c656e677468006044820152606401610a92565b6003816004811115612bcc57612bcc613e6e565b036115b55760405162461bcd60e51b815260206004820152602260248201527f45434453413a20696e76616c6964207369676e6174757265202773272076616c604482015261756560f01b6064820152608401610a92565b612c2d81612ed0565b60008181526006602052604090208054612c4690613939565b1590506115b55760008181526006602052604081206115b591613276565b60006001600160a01b0384163b15612d5a57604051630a85bd0160e11b81526001600160a01b0385169063150b7a0290612ca8903390899088908890600401613e84565b6020604051808303816000875af1925050508015612ce3575060408051601f3d908101601f19168201909252612ce091810190613ec1565b60015b612d40573d808015612d11576040519150601f19603f3d011682016040523d82523d6000602084013e612d16565b606091505b508051600003612d385760405162461bcd60e51b8152600401610a9290613ded565b805181602001fd5b6001600160e01b031916630a85bd0160e11b149050612405565b506001949350505050565b6060612d708261227e565b6000612d8760408051602081019091526000815290565b90506000815111612da75760405180602001604052806000815250612dd2565b80612db184612f73565b604051602001612dc2929190613e3f565b6040516020818303038152906040525b9392505050565b612de38383613005565b612df06000848484612c64565b610b335760405162461bcd60e51b8152600401610a9290613ded565b6000807f7fffffffffffffffffffffffffffffff5d576e7357a4501ddfe92f46681b20a0831115612e435750600090506003612ec7565b6040805160008082526020820180845289905260ff881692820192909252606081018690526080810185905260019060a0016020604051602081039080840390855afa158015612e97573d6000803e3d6000fd5b5050604051601f1901519150506001600160a01b038116612ec057600060019250925050612ec7565b9150600090505b94509492505050565b6000612edb826116c6565b9050612eeb816000846001612a0d565b612ef4826116c6565b600083815260046020908152604080832080546001600160a01b03199081169091556001600160a01b0385168085526003845282852080546000190190558785526002909352818420805490911690555192935084927fddf252ad1be2c89b69c2b068fc378daa952ba7f163c4a11628f55a4df523b3ef908390a45050565b60606000612f808361319e565b60010190506000816001600160401b03811115612f9f57612f9f613503565b6040519080825280601f01601f191660200182016040528015612fc9576020820181803683370190505b5090508181016020015b600019016f181899199a1a9b1b9c1cb0b131b232b360811b600a86061a8153600a8504945084612fd357509392505050565b6001600160a01b03821661305b5760405162461bcd60e51b815260206004820181905260248201527f4552433732313a206d696e7420746f20746865207a65726f20616464726573736044820152606401610a92565b6000818152600260205260409020546001600160a01b0316156130c05760405162461bcd60e51b815260206004820152601c60248201527f4552433732313a20746f6b656e20616c7265616479206d696e746564000000006044820152606401610a92565b6130ce600083836001612a0d565b6000818152600260205260409020546001600160a01b0316156131335760405162461bcd60e51b815260206004820152601c60248201527f4552433732313a20746f6b656e20616c7265616479206d696e746564000000006044820152606401610a92565b6001600160a01b038216600081815260036020908152604080832080546001019055848352600290915280822080546001600160a01b0319168417905551839291907fddf252ad1be2c89b69c2b068fc378daa952ba7f163c4a11628f55a4df523b3ef908290a45050565b60008072184f03e93ff9f4daa797ed6e38ed64bf6a1f0160401b83106131dd5772184f03e93ff9f4daa797ed6e38ed64bf6a1f0160401b830492506040015b6d04ee2d6d415b85acef81000000008310613209576d04ee2d6d415b85acef8100000000830492506020015b662386f26fc10000831061322757662386f26fc10000830492506010015b6305f5e100831061323f576305f5e100830492506008015b612710831061325357612710830492506004015b60648310613265576064830492506002015b600a83106106ef5760010192915050565b50805461328290613939565b6000825580601f10613292575050565b601f0160209004906000526020600020908101906115b591905b808211156132c057600081556001016132ac565b5090565b6001600160e01b0319811681146115b557600080fd5b6000602082840312156132ec57600080fd5b8135612dd2816132c4565b6001600160a01b03811681146115b557600080fd5b60006020828403121561331e57600080fd5b8135612dd2816132f7565b600081518084526020808501945080840160005b8381101561335c57815160ff168752958201959082019060010161333d565b509495945050505050565b60408152600061337a6040830185613329565b828103602084015261338c8185613329565b95945050505050565b60005b838110156133b0578181015183820152602001613398565b50506000910152565b600081518084526133d1816020860160208601613395565b601f01601f19169290920160200192915050565b602081526000612dd260208301846133b9565b60006020828403121561340a57600080fd5b5035919050565b6000806040838503121561342457600080fd5b823561342f816132f7565b946020939093013593505050565b60008083601f84011261344f57600080fd5b5081356001600160401b0381111561346657600080fd5b6020830191508360208260051b8501011115612ad357600080fd5b6000806020838503121561349457600080fd5b82356001600160401b038111156134aa57600080fd5b6134b68582860161343d565b90969095509350505050565b6000806000606084860312156134d757600080fd5b83356134e2816132f7565b925060208401356134f2816132f7565b929592945050506040919091013590565b634e487b7160e01b600052604160045260246000fd5b604051601f8201601f191681016001600160401b038111828210171561354157613541613503565b604052919050565b803560ff8116811461355a57600080fd5b919050565b60008083601f84011261357157600080fd5b5081356001600160401b0381111561358857600080fd5b602083019150836020828501011115612ad357600080fd5b600080600080606085870312156135b657600080fd5b843593506020808601356001600160401b03808211156135d557600080fd5b818801915088601f8301126135e957600080fd5b8135818111156135fb576135fb613503565b8060051b61360a858201613519565b918252838101850191858101908c84111561362457600080fd5b948601945b838610156136495761363a86613549565b82529486019490860190613629565b9850505050604088013592508083111561366257600080fd5b50506136708782880161355f565b95989497509550505050565b6000806040838503121561368f57600080fd5b823561369a816132f7565b91506136a860208401613549565b90509250929050565b60006001600160401b038311156136ca576136ca613503565b6136dd601f8401601f1916602001613519565b90508281528383830111156136f157600080fd5b828260208301376000602084830101529392505050565b600082601f83011261371957600080fd5b612dd2838335602085016136b1565b6000806040838503121561373b57600080fd5b82356001600160401b038082111561375257600080fd5b61375e86838701613708565b9350602085013591508082111561377457600080fd5b5061378185828601613708565b9150509250929050565b6000806000604084860312156137a057600080fd5b83356137ab816132f7565b925060208401356001600160401b038111156137c657600080fd5b6137d28682870161343d565b9497909650939450505050565b80151581146115b557600080fd5b6000806040838503121561380057600080fd5b823561380b816132f7565b9150602083013561381b816137df565b809150509250929050565b6000806000806080858703121561383c57600080fd5b8435613847816132f7565b93506020850135613857816132f7565b92506040850135915060608501356001600160401b0381111561387957600080fd5b8501601f8101871361388a57600080fd5b613899878235602084016136b1565b91505092959194509250565b6000602082840312156138b757600080fd5b612dd282613549565b600080604083850312156138d357600080fd5b82356138de816132f7565b9150602083013561381b816132f7565b634e487b7160e01b600052603260045260246000fd5b634e487b7160e01b600052601160045260246000fd5b600060ff821660ff810361393057613930613904565b60010192915050565b600181811c9082168061394d57607f821691505b60208210810361396d57634e487b7160e01b600052602260045260246000fd5b50919050565b60208082526023908201527f4f6e6c79206f776e6572732063616e2063616c6c20746869732066756e63746960408201526237b71760e91b606082015260800190565b600060ff8216806139c9576139c9613904565b6000190192915050565b808201808211156106ef576106ef613904565b634e487b7160e01b600052601260045260246000fd5b600082613a0b57613a0b6139e6565b500690565b818103818111156106ef576106ef613904565b600060208284031215613a3557600080fd5b8151612dd2816137df565b6020808252602d908201527f4552433732313a2063616c6c6572206973206e6f7420746f6b656e206f776e6560408201526c1c881bdc88185c1c1c9bdd9959609a1b606082015260800190565b600060208284031215613a9f57600080fd5b8151612dd2816132f7565b600082613ab957613ab96139e6565b500490565b6bffffffffffffffffffffffff198460601b1681528260148201526000603482018351602080860160005b83811015613b0857815160ff1685529382019390820190600101613ae9565b50507f30786631644437313839356534396231353633363933393639646535303839388352693139376344463334383160b01b9083015250602a0195945050505050565b600060018201613b5e57613b5e613904565b5060010190565b6001600160a01b0384168152606060208201819052600090613b8990830185613329565b9050826040830152949350505050565b6020808252601490820152734e6f207469656e6573206573746120636172746160601b604082015260600190565b601f821115610b3357600081815260208120601f850160051c81016020861015613bee5750805b601f850160051c820191505b81811015613c0d57828155600101613bfa565b505050505050565b81516001600160401b03811115613c2e57613c2e613503565b613c4281613c3c8454613939565b84613bc7565b602080601f831160018114613c775760008415613c5f5750858301515b600019600386901b1c1916600185901b178555613c0d565b600085815260208120601f198616915b82811015613ca657888601518255948401946001909101908401613c87565b5085821015613cc45787850151600019600388901b60f8161c191681555b5050505050600190811b01905550565b604081526000613ce760408301856133b9565b828103602084015261338c81856133b9565b6000808654613d0781613939565b60018281168015613d1f5760018114613d3457613d63565b60ff1984168752821515830287019450613d63565b8a60005260208060002060005b85811015613d5a5781548a820152908401908201613d41565b50505082870194505b505050508551613d77818360208a01613395565b8551910190613d8a818360208901613395565b8451910190613d9d818360208801613395565b019695505050505050565b60208082526025908201527f4552433732313a207472616e736665722066726f6d20696e636f72726563742060408201526437bbb732b960d91b606082015260800190565b60208082526032908201527f4552433732313a207472616e7366657220746f206e6f6e20455243373231526560408201527131b2b4bb32b91034b6b83632b6b2b73a32b960711b606082015260800190565b60008351613e51818460208801613395565b835190830190613e65818360208801613395565b01949350505050565b634e487b7160e01b600052602160045260246000fd5b6001600160a01b0385811682528416602082015260408101839052608060608201819052600090613eb7908301846133b9565b9695505050505050565b600060208284031215613ed357600080fd5b8151612dd2816132c456fea26469706673582212201cea9ab1ff2d75bbeeb297232d9d266e2ca9cebcc81c5cdcb27985d4079041d364736f6c63430008120033",
  "linkReferences": {},
  "deployedLinkReferences": {}
}