{
  "_format": "hh-sol-artifact-1",
  "contractName": "NofGammaCardsV2",
  "sourceName": "contracts/gamma/GammaCards.v2.sol",
  "abi": [
    {
      "inputs": [
        {
          "internalType": "address",
          "name": "_daiTokenAddress",
          "type": "address"
        },
        {
          "internalType": "address",
          "name": "_packsContract",
          "type": "address"
        },
        {
          "internalType": "string",
          "name": "_baseUri",
          "type": "string"
        },
        {
          "internalType": "address",
          "name": "_signer",
          "type": "address"
        }
      ],
      "stateMutability": "nonpayable",
      "type": "constructor"
    },
    {
      "anonymous": false,
      "inputs": [
        {
          "indexed": false,
          "internalType": "address",
          "name": "player",
          "type": "address"
        },
        {
          "indexed": false,
          "internalType": "uint8",
          "name": "albumClass",
          "type": "uint8"
        }
      ],
      "name": "AlbumCompleted",
      "type": "event"
    },
    {
      "anonymous": false,
      "inputs": [
        {
          "indexed": true,
          "internalType": "address",
          "name": "owner",
          "type": "address"
        },
        {
          "indexed": true,
          "internalType": "address",
          "name": "approved",
          "type": "address"
        },
        {
          "indexed": true,
          "internalType": "uint256",
          "name": "tokenId",
          "type": "uint256"
        }
      ],
      "name": "Approval",
      "type": "event"
    },
    {
      "anonymous": false,
      "inputs": [
        {
          "indexed": true,
          "internalType": "address",
          "name": "owner",
          "type": "address"
        },
        {
          "indexed": true,
          "internalType": "address",
          "name": "operator",
          "type": "address"
        },
        {
          "indexed": false,
          "internalType": "bool",
          "name": "approved",
          "type": "bool"
        }
      ],
      "name": "ApprovalForAll",
      "type": "event"
    },
    {
      "anonymous": false,
      "inputs": [
        {
          "indexed": false,
          "internalType": "address",
          "name": "player",
          "type": "address"
        },
        {
          "indexed": false,
          "internalType": "uint256",
          "name": "cardTokenId",
          "type": "uint256"
        },
        {
          "indexed": false,
          "internalType": "uint256",
          "name": "albumTokenId",
          "type": "uint256"
        }
      ],
      "name": "CardPasted",
      "type": "event"
    },
    {
      "anonymous": false,
      "inputs": [
        {
          "indexed": false,
          "internalType": "address",
          "name": "receiver",
          "type": "address"
        },
        {
          "indexed": false,
          "internalType": "uint256",
          "name": "amount",
          "type": "uint256"
        }
      ],
      "name": "EmergencyWithdrawal",
      "type": "event"
    },
    {
      "anonymous": false,
      "inputs": [
        {
          "indexed": false,
          "internalType": "address",
          "name": "newSigner",
          "type": "address"
        }
      ],
      "name": "NewSigner",
      "type": "event"
    },
    {
      "anonymous": false,
      "inputs": [
        {
          "indexed": false,
          "internalType": "string",
          "name": "newMainUri",
          "type": "string"
        },
        {
          "indexed": false,
          "internalType": "string",
          "name": "newSecondaryUri",
          "type": "string"
        }
      ],
      "name": "NewUris",
      "type": "event"
    },
    {
      "anonymous": false,
      "inputs": [
        {
          "indexed": true,
          "internalType": "address",
          "name": "previousOwner",
          "type": "address"
        },
        {
          "indexed": true,
          "internalType": "address",
          "name": "newOwner",
          "type": "address"
        }
      ],
      "name": "OwnershipTransferred",
      "type": "event"
    },
    {
      "anonymous": false,
      "inputs": [
        {
          "indexed": false,
          "internalType": "address",
          "name": "player",
          "type": "address"
        },
        {
          "indexed": false,
          "internalType": "uint8[]",
          "name": "packData",
          "type": "uint8[]"
        },
        {
          "indexed": false,
          "internalType": "uint256",
          "name": "packNumber",
          "type": "uint256"
        }
      ],
      "name": "PackOpened",
      "type": "event"
    },
    {
      "anonymous": false,
      "inputs": [
        {
          "indexed": true,
          "internalType": "address",
          "name": "from",
          "type": "address"
        },
        {
          "indexed": true,
          "internalType": "address",
          "name": "to",
          "type": "address"
        },
        {
          "indexed": true,
          "internalType": "uint256",
          "name": "tokenId",
          "type": "uint256"
        }
      ],
      "name": "Transfer",
      "type": "event"
    },
    {
      "inputs": [],
      "name": "DAI_TOKEN",
      "outputs": [
        {
          "internalType": "address",
          "name": "",
          "type": "address"
        }
      ],
      "stateMutability": "view",
      "type": "function"
    },
    {
      "inputs": [
        {
          "internalType": "address",
          "name": "_newOwner",
          "type": "address"
        }
      ],
      "name": "addOwner",
      "outputs": [],
      "stateMutability": "nonpayable",
      "type": "function"
    },
    {
      "inputs": [
        {
          "internalType": "address",
          "name": "_newSigner",
          "type": "address"
        }
      ],
      "name": "addSigner",
      "outputs": [],
      "stateMutability": "nonpayable",
      "type": "function"
    },
    {
      "inputs": [
        {
          "internalType": "address",
          "name": "to",
          "type": "address"
        },
        {
          "internalType": "uint256",
          "name": "tokenId",
          "type": "uint256"
        }
      ],
      "name": "approve",
      "outputs": [],
      "stateMutability": "nonpayable",
      "type": "function"
    },
    {
      "inputs": [
        {
          "internalType": "address",
          "name": "owner",
          "type": "address"
        }
      ],
      "name": "balanceOf",
      "outputs": [
        {
          "internalType": "uint256",
          "name": "",
          "type": "uint256"
        }
      ],
      "stateMutability": "view",
      "type": "function"
    },
    {
      "inputs": [],
      "name": "baseUri",
      "outputs": [
        {
          "internalType": "string",
          "name": "",
          "type": "string"
        }
      ],
      "stateMutability": "view",
      "type": "function"
    },
    {
      "inputs": [
        {
          "internalType": "uint256",
          "name": "tokenId",
          "type": "uint256"
        }
      ],
      "name": "burn",
      "outputs": [],
      "stateMutability": "nonpayable",
      "type": "function"
    },
    {
      "inputs": [
        {
          "internalType": "uint8[]",
          "name": "cardNumbers",
          "type": "uint8[]"
        }
      ],
      "name": "burnCards",
      "outputs": [],
      "stateMutability": "nonpayable",
      "type": "function"
    },
    {
      "inputs": [
        {
          "internalType": "address",
          "name": "user",
          "type": "address"
        }
      ],
      "name": "burnedCards",
      "outputs": [
        {
          "internalType": "uint256",
          "name": "amount",
          "type": "uint256"
        }
      ],
      "stateMutability": "view",
      "type": "function"
    },
    {
      "inputs": [
        {
          "internalType": "uint256",
          "name": "tokenId",
          "type": "uint256"
        }
      ],
      "name": "cards",
      "outputs": [
        {
          "internalType": "uint256",
          "name": "tokenId",
          "type": "uint256"
        },
        {
          "internalType": "uint256",
          "name": "number",
          "type": "uint256"
        },
        {
          "internalType": "bool",
          "name": "pasted",
          "type": "bool"
        },
        {
          "internalType": "uint8",
          "name": "class",
          "type": "uint8"
        },
        {
          "internalType": "uint256",
          "name": "completion",
          "type": "uint256"
        }
      ],
      "stateMutability": "view",
      "type": "function"
    },
    {
      "inputs": [
        {
          "internalType": "address",
          "name": "user",
          "type": "address"
        },
        {
          "internalType": "uint8",
          "name": "cardNumber",
          "type": "uint8"
        }
      ],
      "name": "cardsByUser",
      "outputs": [
        {
          "internalType": "uint8",
          "name": "amount",
          "type": "uint8"
        }
      ],
      "stateMutability": "view",
      "type": "function"
    },
    {
      "inputs": [
        {
          "internalType": "uint256",
          "name": "cardNumber",
          "type": "uint256"
        }
      ],
      "name": "cardsInventory",
      "outputs": [
        {
          "internalType": "uint256",
          "name": "amount",
          "type": "uint256"
        }
      ],
      "stateMutability": "view",
      "type": "function"
    },
    {
      "inputs": [
        {
          "internalType": "uint256",
          "name": "newPackPrice",
          "type": "uint256"
        }
      ],
      "name": "changePackPrice",
      "outputs": [],
      "stateMutability": "nonpayable",
      "type": "function"
    },
    {
      "inputs": [
        {
          "internalType": "bool",
          "name": "required",
          "type": "bool"
        }
      ],
      "name": "changeRequireOpenPackSignerValidation",
      "outputs": [],
      "stateMutability": "nonpayable",
      "type": "function"
    },
    {
      "inputs": [
        {
          "internalType": "uint256",
          "name": "amount",
          "type": "uint256"
        }
      ],
      "name": "emergencyWithdraw",
      "outputs": [],
      "stateMutability": "nonpayable",
      "type": "function"
    },
    {
      "inputs": [],
      "name": "finishAlbum",
      "outputs": [],
      "stateMutability": "nonpayable",
      "type": "function"
    },
    {
      "inputs": [
        {
          "internalType": "uint256",
          "name": "tokenId",
          "type": "uint256"
        }
      ],
      "name": "getApproved",
      "outputs": [
        {
          "internalType": "address",
          "name": "",
          "type": "address"
        }
      ],
      "stateMutability": "view",
      "type": "function"
    },
    {
      "inputs": [
        {
          "internalType": "address",
          "name": "user",
          "type": "address"
        }
      ],
      "name": "getCardsByUser",
      "outputs": [
        {
          "internalType": "uint8[]",
          "name": "",
          "type": "uint8[]"
        },
        {
          "internalType": "uint8[]",
          "name": "",
          "type": "uint8[]"
        }
      ],
      "stateMutability": "view",
      "type": "function"
    },
    {
      "inputs": [
        {
          "internalType": "uint8",
          "name": "cardNum",
          "type": "uint8"
        }
      ],
      "name": "hasCard",
      "outputs": [
        {
          "internalType": "bool",
          "name": "has",
          "type": "bool"
        }
      ],
      "stateMutability": "view",
      "type": "function"
    },
    {
      "inputs": [
        {
          "internalType": "address",
          "name": "owner",
          "type": "address"
        },
        {
          "internalType": "address",
          "name": "operator",
          "type": "address"
        }
      ],
      "name": "isApprovedForAll",
      "outputs": [
        {
          "internalType": "bool",
          "name": "",
          "type": "bool"
        }
      ],
      "stateMutability": "view",
      "type": "function"
    },
    {
      "inputs": [],
      "name": "mainAlbumPrize",
      "outputs": [
        {
          "internalType": "uint256",
          "name": "",
          "type": "uint256"
        }
      ],
      "stateMutability": "view",
      "type": "function"
    },
    {
      "inputs": [],
      "name": "mainUri",
      "outputs": [
        {
          "internalType": "string",
          "name": "",
          "type": "string"
        }
      ],
      "stateMutability": "view",
      "type": "function"
    },
    {
      "inputs": [
        {
          "internalType": "uint8",
          "name": "cardNum",
          "type": "uint8"
        }
      ],
      "name": "mintCard",
      "outputs": [],
      "stateMutability": "nonpayable",
      "type": "function"
    },
    {
      "inputs": [],
      "name": "name",
      "outputs": [
        {
          "internalType": "string",
          "name": "",
          "type": "string"
        }
      ],
      "stateMutability": "view",
      "type": "function"
    },
    {
      "inputs": [
        {
          "internalType": "uint256",
          "name": "packNumber",
          "type": "uint256"
        },
        {
          "internalType": "uint8[]",
          "name": "packData",
          "type": "uint8[]"
        },
        {
          "internalType": "bytes",
          "name": "signature",
          "type": "bytes"
        }
      ],
      "name": "openPack",
      "outputs": [],
      "stateMutability": "nonpayable",
      "type": "function"
    },
    {
      "inputs": [],
      "name": "owner",
      "outputs": [
        {
          "internalType": "address",
          "name": "",
          "type": "address"
        }
      ],
      "stateMutability": "view",
      "type": "function"
    },
    {
      "inputs": [
        {
          "internalType": "uint256",
          "name": "tokenId",
          "type": "uint256"
        }
      ],
      "name": "ownerOf",
      "outputs": [
        {
          "internalType": "address",
          "name": "",
          "type": "address"
        }
      ],
      "stateMutability": "view",
      "type": "function"
    },
    {
      "inputs": [
        {
          "internalType": "address",
          "name": "",
          "type": "address"
        }
      ],
      "name": "owners",
      "outputs": [
        {
          "internalType": "bool",
          "name": "",
          "type": "bool"
        }
      ],
      "stateMutability": "view",
      "type": "function"
    },
    {
      "inputs": [],
      "name": "packPrice",
      "outputs": [
        {
          "internalType": "uint256",
          "name": "",
          "type": "uint256"
        }
      ],
      "stateMutability": "view",
      "type": "function"
    },
    {
      "inputs": [],
      "name": "packsContract",
      "outputs": [
        {
          "internalType": "contract IGammaPacks",
          "name": "",
          "type": "address"
        }
      ],
      "stateMutability": "view",
      "type": "function"
    },
    {
      "inputs": [],
      "name": "prizesBalance",
      "outputs": [
        {
          "internalType": "uint256",
          "name": "",
          "type": "uint256"
        }
      ],
      "stateMutability": "view",
      "type": "function"
    },
    {
      "inputs": [
        {
          "internalType": "uint256",
          "name": "amount",
          "type": "uint256"
        }
      ],
      "name": "receivePrizesBalance",
      "outputs": [],
      "stateMutability": "nonpayable",
      "type": "function"
    },
    {
      "inputs": [
        {
          "internalType": "address",
          "name": "_ownerToRemove",
          "type": "address"
        }
      ],
      "name": "removeOwner",
      "outputs": [],
      "stateMutability": "nonpayable",
      "type": "function"
    },
    {
      "inputs": [
        {
          "internalType": "address",
          "name": "_signerToRemove",
          "type": "address"
        }
      ],
      "name": "removeSigner",
      "outputs": [],
      "stateMutability": "nonpayable",
      "type": "function"
    },
    {
      "inputs": [],
      "name": "renounceOwnership",
      "outputs": [],
      "stateMutability": "nonpayable",
      "type": "function"
    },
    {
      "inputs": [],
      "name": "requireOpenPackSignerValidation",
      "outputs": [
        {
          "internalType": "bool",
          "name": "",
          "type": "bool"
        }
      ],
      "stateMutability": "view",
      "type": "function"
    },
    {
      "inputs": [
        {
          "internalType": "address",
          "name": "from",
          "type": "address"
        },
        {
          "internalType": "address",
          "name": "to",
          "type": "address"
        },
        {
          "internalType": "uint256",
          "name": "tokenId",
          "type": "uint256"
        }
      ],
      "name": "safeTransferFrom",
      "outputs": [],
      "stateMutability": "nonpayable",
      "type": "function"
    },
    {
      "inputs": [
        {
          "internalType": "address",
          "name": "from",
          "type": "address"
        },
        {
          "internalType": "address",
          "name": "to",
          "type": "address"
        },
        {
          "internalType": "uint256",
          "name": "tokenId",
          "type": "uint256"
        },
        {
          "internalType": "bytes",
          "name": "data",
          "type": "bytes"
        }
      ],
      "name": "safeTransferFrom",
      "outputs": [],
      "stateMutability": "nonpayable",
      "type": "function"
    },
    {
      "inputs": [],
      "name": "secondaryAlbumPrize",
      "outputs": [
        {
          "internalType": "uint256",
          "name": "",
          "type": "uint256"
        }
      ],
      "stateMutability": "view",
      "type": "function"
    },
    {
      "inputs": [],
      "name": "secondaryUri",
      "outputs": [
        {
          "internalType": "string",
          "name": "",
          "type": "string"
        }
      ],
      "stateMutability": "view",
      "type": "function"
    },
    {
      "inputs": [
        {
          "internalType": "address",
          "name": "operator",
          "type": "address"
        },
        {
          "internalType": "bool",
          "name": "approved",
          "type": "bool"
        }
      ],
      "name": "setApprovalForAll",
      "outputs": [],
      "stateMutability": "nonpayable",
      "type": "function"
    },
    {
      "inputs": [
        {
          "internalType": "string",
          "name": "newMainUri",
          "type": "string"
        },
        {
          "internalType": "string",
          "name": "newSecondaryUri",
          "type": "string"
        }
      ],
      "name": "setUris",
      "outputs": [],
      "stateMutability": "nonpayable",
      "type": "function"
    },
    {
      "inputs": [
        {
          "internalType": "address",
          "name": "",
          "type": "address"
        }
      ],
      "name": "signers",
      "outputs": [
        {
          "internalType": "bool",
          "name": "",
          "type": "bool"
        }
      ],
      "stateMutability": "view",
      "type": "function"
    },
    {
      "inputs": [
        {
          "internalType": "bytes4",
          "name": "interfaceId",
          "type": "bytes4"
        }
      ],
      "name": "supportsInterface",
      "outputs": [
        {
          "internalType": "bool",
          "name": "",
          "type": "bool"
        }
      ],
      "stateMutability": "view",
      "type": "function"
    },
    {
      "inputs": [],
      "name": "symbol",
      "outputs": [
        {
          "internalType": "string",
          "name": "",
          "type": "string"
        }
      ],
      "stateMutability": "view",
      "type": "function"
    },
    {
      "inputs": [],
      "name": "testAddCards",
      "outputs": [],
      "stateMutability": "nonpayable",
      "type": "function"
    },
    {
      "inputs": [
        {
          "internalType": "uint256",
          "name": "tokenId",
          "type": "uint256"
        }
      ],
      "name": "tokenURI",
      "outputs": [
        {
          "internalType": "string",
          "name": "",
          "type": "string"
        }
      ],
      "stateMutability": "view",
      "type": "function"
    },
    {
      "inputs": [
        {
          "internalType": "address",
          "name": "to",
          "type": "address"
        },
        {
          "internalType": "uint8",
          "name": "cardNumber",
          "type": "uint8"
        }
      ],
      "name": "transferCard",
      "outputs": [],
      "stateMutability": "nonpayable",
      "type": "function"
    },
    {
      "inputs": [
        {
          "internalType": "address",
          "name": "to",
          "type": "address"
        },
        {
          "internalType": "uint8[]",
          "name": "cardNumbers",
          "type": "uint8[]"
        }
      ],
      "name": "transferCards",
      "outputs": [],
      "stateMutability": "nonpayable",
      "type": "function"
    },
    {
      "inputs": [
        {
          "internalType": "address",
          "name": "from",
          "type": "address"
        },
        {
          "internalType": "address",
          "name": "to",
          "type": "address"
        },
        {
          "internalType": "uint256",
          "name": "tokenId",
          "type": "uint256"
        }
      ],
      "name": "transferFrom",
      "outputs": [],
      "stateMutability": "nonpayable",
      "type": "function"
    },
    {
      "inputs": [
        {
          "internalType": "address",
          "name": "newOwner",
          "type": "address"
        }
      ],
      "name": "transferOwnership",
      "outputs": [],
      "stateMutability": "nonpayable",
      "type": "function"
    },
    {
      "inputs": [
        {
          "internalType": "uint256",
          "name": "packNumber",
          "type": "uint256"
        },
        {
          "internalType": "uint8[]",
          "name": "packData",
          "type": "uint8[]"
        },
        {
          "internalType": "bytes",
          "name": "signature",
          "type": "bytes"
        }
      ],
      "name": "verifyPackSigner",
      "outputs": [
        {
          "internalType": "address",
          "name": "signer",
          "type": "address"
        }
      ],
      "stateMutability": "view",
      "type": "function"
    }
  ],
  "bytecode": "0x60806040526710a741a462780000600b5567d02ab486cedc0000600e55670de0b6b3a7640000600f553480156200003557600080fd5b5060405162004b3638038062004b36833981016040819052620000589162000348565b6040518060400160405280600a81526020016947616d6d61436172647360b01b815250604051806040016040528060068152602001654e4f465f474360d01b8152508160009081620000ab9190620004ca565b506001620000ba8282620004ca565b505050620000d7620000d16200029960201b60201c565b6200029d565b600880546001600160a01b038086166001600160a01b031992831617909255600a805492871692909116919091179055600d620001158382620004ca565b5060408051808201825260018152602f60f81b60208083019190915282518084018452600381526203132360ec1b8183015283518085018552600681526523173539b7b760d11b8184015293516200017494600d949390910162000596565b60405160208183030381529060405260109081620001939190620004ca565b5060408051808201825260018152602f60f81b60208083019190915282518084018452600381526231323160e81b8183015283518085018552600681526523173539b7b760d11b818401529351620001f294600d949390910162000596565b60405160208183030381529060405260119081620002119190620004ca565b506001600160a01b0381166000908152601860205260408120805460ff199081166001179091556012805490911690555b607a8110156200027357600081815260136020526040902060019055806200026a8162000653565b91505062000242565b5050336000908152601760205260409020805460ff19166001179055506200067b915050565b3390565b600780546001600160a01b038381166001600160a01b0319831681179093556040519116919082907f8be0079c531659141344cd1fd0a4f28419497f9722a3daafe3b4186f6b6457e090600090a35050565b80516001600160a01b03811681146200030757600080fd5b919050565b634e487b7160e01b600052604160045260246000fd5b60005b838110156200033f57818101518382015260200162000325565b50506000910152565b600080600080608085870312156200035f57600080fd5b6200036a85620002ef565b93506200037a60208601620002ef565b60408601519093506001600160401b03808211156200039857600080fd5b818701915087601f830112620003ad57600080fd5b815181811115620003c257620003c26200030c565b604051601f8201601f19908116603f01168101908382118183101715620003ed57620003ed6200030c565b816040528281528a60208487010111156200040757600080fd5b6200041a83602083016020880162000322565b80965050505050506200043060608601620002ef565b905092959194509250565b600181811c908216806200045057607f821691505b6020821081036200047157634e487b7160e01b600052602260045260246000fd5b50919050565b601f821115620004c557600081815260208120601f850160051c81016020861015620004a05750805b601f850160051c820191505b81811015620004c157828155600101620004ac565b5050505b505050565b81516001600160401b03811115620004e657620004e66200030c565b620004fe81620004f784546200043b565b8462000477565b602080601f8311600181146200053657600084156200051d5750858301515b600019600386901b1c1916600185901b178555620004c1565b600085815260208120601f198616915b82811015620005675788860151825594840194600190910190840162000546565b5085821015620005865787850151600019600388901b60f8161c191681555b5050505050600190811b01905550565b6000808654620005a6816200043b565b60018281168015620005c15760018114620005d75762000608565b60ff198416875282151583028701945062000608565b8a60005260208060002060005b85811015620005ff5781548a820152908401908201620005e4565b50505082870194505b5050505085516200061e818360208a0162000322565b85519101906200063381836020890162000322565b84519101906200064881836020880162000322565b019695505050505050565b6000600182016200067457634e487b7160e01b600052601160045260246000fd5b5060010190565b6144ab806200068b6000396000f3fe608060405234801561001057600080fd5b506004361061030c5760003560e01c8063809eb3551161019d578063aaaeca17116100e9578063dec3f6d9116100a2578063e606df871161007c578063e606df8714610757578063e985e9c51461076a578063eb12d61e1461077d578063f2fde38b1461079057600080fd5b8063dec3f6d914610733578063e1883c6e1461073b578063e5db587a1461074e57600080fd5b8063aaaeca17146106d7578063b88d4fde146106df578063bf400a6a146106f2578063c3461c0714610705578063c87b56dd1461070d578063dbfc05cf1461072057600080fd5b806395d89b41116101565780639c7f707f116101305780639c7f707f146106955780639f4415d8146106a8578063a1af8ad4146106b1578063a22cb465146106c457600080fd5b806395d89b411461067857806396884135146106805780639abc83201461068d57600080fd5b8063809eb355146105875780638ba526fc146105c75780638da5cb5b146105da5780638dc10768146105eb5780638dd8be471461065d5780639038f4141461067057600080fd5b8063335c8b631161025c5780635dde20d81161021557806370a08231116101ef57806370a0823114610529578063715018a61461053c578063736c0d5b146105445780637e50fa8f1461056757600080fd5b80635dde20d8146104e35780636352211e146105035780637065cb481461051657600080fd5b8063335c8b631461045757806342842e0e1461046e57806342966c6814610481578063483823e8146104945780634e5ad3181461049d5780635312ea8e146104d057600080fd5b80630e316ab7116102c957806320965a5f116102a357806320965a5f1461040b57806323b872dd1461041e578063267b841d146104315780632ca699e71461044457600080fd5b80630e316ab7146103d25780631306952c146103e5578063173825d9146103f857600080fd5b806301ffc9a714610311578063022914a7146103395780630435dcaf1461035c57806306fdde031461037d578063081812fc14610392578063095ea7b3146103bd575b600080fd5b61032461031f366004613801565b6107a3565b60405190151581526020015b60405180910390f35b610324610347366004613833565b60176020526000908152604090205460ff1681565b61036f61036a366004613833565b6107f5565b60405161033092919061388e565b610385610a64565b604051610330919061390c565b6103a56103a036600461391f565b610af6565b6040516001600160a01b039091168152602001610330565b6103d06103cb366004613938565b610b1d565b005b6103d06103e0366004613833565b610c37565b6103a56103f3366004613a01565b610d7d565b6103d0610406366004613833565b610e8b565b6103d0610419366004613b21565b610fd0565b6103d061042c366004613b62565b6112d0565b6103d061043f366004613a01565b611302565b6103d0610452366004613ba3565b6117b8565b610460600b5481565b604051908152602001610330565b6103d061047c366004613b62565b61193a565b6103d061048f36600461391f565b611955565b610460600f5481565b6103246104ab366004613bd8565b33600090815260156020908152604080832060ff948516845290915290205416151590565b6103d06104de36600461391f565b611986565b6104606104f136600461391f565b60136020526000908152604090205481565b6103a561051136600461391f565b611a94565b6103d0610524366004613833565b611af4565b610460610537366004613833565b611bd6565b6103d0611c5c565b610324610552366004613833565b60186020526000908152604090205460ff1681565b610460610575366004613833565b60166020526000908152604090205481565b6105b5610595366004613ba3565b601560209081526000928352604080842090915290825290205460ff1681565b60405160ff9091168152602001610330565b6103d06105d536600461391f565b611c70565b6007546001600160a01b03166103a5565b61062d6105f936600461391f565b60146020526000908152604090208054600182015460028301546003909301549192909160ff808316926101009004169085565b6040805195865260208601949094529115159284019290925260ff9091166060830152608082015260a001610330565b6008546103a5906001600160a01b031681565b6103d0611cdd565b610385611fd2565b6012546103249060ff1681565b610385611fe1565b6103d06106a3366004613c6a565b61206f565b610460600e5481565b6103d06106bf366004613ccd565b6120e9565b6103d06106d2366004613d2f565b612354565b6103d061235f565b6103d06106ed366004613d68565b6123c6565b6103d0610700366004613bd8565b6123f8565b6103856124f5565b61038561071b36600461391f565b612502565b6103d061072e366004613de7565b61250d565b61038561254f565b6103d061074936600461391f565b61255c565b610460600c5481565b600a546103a5906001600160a01b031681565b610324610778366004613e04565b6125b4565b6103d061078b366004613833565b6125e2565b6103d061079e366004613833565b6126c4565b60006001600160e01b031982166380ac58cd60e01b14806107d457506001600160e01b03198216635b5e139f60e01b145b806107ef57506301ffc9a760e01b6001600160e01b03198316145b92915050565b604080516079808252610f408201909252606091829160009160208201610f20803683375050604080516079808252610f408201909252929350600092915060208201610f20803683370190505090506000805b60778160ff161161091a576001600160a01b038716600090815260156020908152604080832060ff808616855292529091205416156109085780848360ff168151811061089857610898613e32565b60ff9283166020918202929092018101919091526001600160a01b03891660009081526015825260408082208585168352909252205484519082169185919085169081106108e8576108e8613e32565b60ff909216602092830291909101909101528161090481613e5e565b9250505b8061091281613e5e565b915050610849565b5060008160ff166001600160401b0381111561093857610938613964565b604051908082528060200260200182016040528015610961578160200160208202803683370190505b50905060008260ff166001600160401b0381111561098157610981613964565b6040519080825280602002602001820160405280156109aa578160200160208202803683370190505b50905060005b8360ff168160ff161015610a5657858160ff16815181106109d3576109d3613e32565b6020026020010151838260ff16815181106109f0576109f0613e32565b60ff9283166020918202929092010152855186918316908110610a1557610a15613e32565b6020026020010151828260ff1681518110610a3257610a32613e32565b60ff9092166020928302919091019091015280610a4e81613e5e565b9150506109b0565b509097909650945050505050565b606060008054610a7390613e7d565b80601f0160208091040260200160405190810160405280929190818152602001828054610a9f90613e7d565b8015610aec5780601f10610ac157610100808354040283529160200191610aec565b820191906000526020600020905b815481529060010190602001808311610acf57829003601f168201915b5050505050905090565b6000610b018261273a565b506000908152600460205260409020546001600160a01b031690565b6000610b2882611a94565b9050806001600160a01b0316836001600160a01b031603610b9a5760405162461bcd60e51b815260206004820152602160248201527f4552433732313a20617070726f76616c20746f2063757272656e74206f776e656044820152603960f91b60648201526084015b60405180910390fd5b336001600160a01b0382161480610bb65750610bb681336125b4565b610c285760405162461bcd60e51b815260206004820152603d60248201527f4552433732313a20617070726f76652063616c6c6572206973206e6f7420746f60448201527f6b656e206f776e6572206f7220617070726f76656420666f7220616c6c0000006064820152608401610b91565b610c328383612799565b505050565b3360009081526017602052604090205460ff16610c665760405162461bcd60e51b8152600401610b9190613eb7565b6001600160a01b038116610c8c5760405162461bcd60e51b8152600401610b9190613efa565b336001600160a01b03821603610cf45760405162461bcd60e51b815260206004820152602760248201527f596f752063616e6e6f742072656d6f766520796f757273656c6620617320616e6044820152661039b4b3b732b960c91b6064820152608401610b91565b6001600160a01b03811660009081526018602052604090205460ff16610d5c5760405162461bcd60e51b815260206004820152601860248201527f41646472657373206973206e6f7420616e207369676e657200000000000000006044820152606401610b91565b6001600160a01b03166000908152601860205260409020805460ff19169055565b600080610df8338787604051602001610d9893929190613f23565b60408051601f1981840301815282825280516020918201207f19457468657265756d205369676e6564204d6573736167653a0a33320000000084830152603c8085019190915282518085039091018152605c909301909152815191012090565b90506000610e3e85858080601f01602080910402602001604051908101604052809392919081815260200183838082843760009201919091525086939250506128079050565b9050610e7f6040518060400160405280601a81526020017f6f70656e207061636b207369676e6572207265636f76657265640000000000008152508261282b565b9150505b949350505050565b3360009081526017602052604090205460ff16610eba5760405162461bcd60e51b8152600401610b9190613eb7565b6001600160a01b038116610ee05760405162461bcd60e51b8152600401610b9190613efa565b336001600160a01b03821603610f475760405162461bcd60e51b815260206004820152602660248201527f596f752063616e6e6f742072656d6f766520796f757273656c6620617320616e6044820152651037bbb732b960d11b6064820152608401610b91565b6001600160a01b03811660009081526017602052604090205460ff16610faf5760405162461bcd60e51b815260206004820152601760248201527f41646472657373206973206e6f7420616e206f776e65720000000000000000006044820152606401610b91565b6001600160a01b03166000908152601760205260409020805460ff19169055565b3360009081526015602090815260408083206079845290915290205460ff1661103b5760405162461bcd60e51b815260206004820152601860248201527f4e6f207469656e657320616c62756d206465207175656d6100000000000000006044820152606401610b91565b336000908152601560209081526040808320607984529091528120805460ff169161106583613fb1565b825460ff9182166101009390930a92830291909202199091161790555033600090815260166020526040812080548392906110a1908490613fce565b90915550600090505b60ff81168211156111425733600090815260156020526040812090848460ff85168181106110da576110da613e32565b90506020020160208101906110ef9190613bd8565b60ff9081168252602082019290925260400160009081208054909216919061111683613fb1565b91906101000a81548160ff021916908360ff16021790555050808061113a90613e5e565b9150506110aa565b503360009081526016602052604090205461115f90603c90613ff7565b6000036112cc576111fe336011805461117790613e7d565b80601f01602080910402602001604051908101604052809291908181526020018280546111a390613e7d565b80156111f05780601f106111c5576101008083540402835291602001916111f0565b820191906000526020600020905b8154815290600101906020018083116111d357829003601f168201915b505050505060796002612870565b600e54600c6000828254611212919061400b565b9091555050600a54600f5460405163a9059cbb60e01b815233600482015260248101919091526001600160a01b039091169063a9059cbb906044016020604051808303816000875af115801561126c573d6000803e3d6000fd5b505050506040513d601f19601f82011682018060405250810190611290919061401e565b5060408051338152600260208201527f6d0344e2059f835240cb954cce07d4b26f0d0844eecc234f7ee0e292ba80a1aa91015b60405180910390a15b5050565b6112db335b826128d3565b6112f75760405162461bcd60e51b8152600401610b919061403b565b610c32838383612931565b60085460405163d3e6a7ad60e01b81526004810186905233916001600160a01b03169063d3e6a7ad90602401602060405180830381865afa15801561134b573d6000803e3d6000fd5b505050506040513d601f19601f8201168201806040525081019061136f9190614088565b6001600160a01b0316146113bd5760405162461bcd60e51b81526020600482015260156024820152744573746520736f627265206e6f206573207475796f60581b6044820152606401610b91565b600f83511061140e5760405162461bcd60e51b815260206004820152601960248201527f4c696d6974652064652063617274617320657863656469646f000000000000006044820152606401610b91565b60125460ff1615611519576000611433338686604051602001610d9893929190613f23565b9050600061147984848080601f01602080910402602001604051908101604052809392919081815260200183838082843760009201919091525086939250506128079050565b90506114ba6040518060400160405280601a81526020017f6f70656e207061636b207369676e6572207265636f76657265640000000000008152508261282b565b6001600160a01b03811660009081526018602052604090205460ff166115165760405162461bcd60e51b8152602060048201526011602482015270496e76616c6964207369676e617475726560781b6044820152606401610b91565b50505b6008546040516380f2540b60e01b8152600481018690523360248201526001600160a01b03909116906380f2540b90604401600060405180830381600087803b15801561156557600080fd5b505af1158015611579573d6000803e3d6000fd5b505050506006600b5461158c91906140a5565b600b54611599919061400b565b600c60008282546115aa9190613fce565b9091555050825160005b818160ff16101561177557848160ff16815181106115d4576115d4613e32565b602002602001015160ff166078146116225761138960136000878460ff168151811061160257611602613e32565b602002602001015160ff1681526020019081526020016000205410611653565b607860005260136020527fdf3e0ba85198d5d74c53175fb24486e82f8e6ac58d6fdc8357e123450eab705e54610bb9115b61169f5760405162461bcd60e51b815260206004820152601e60248201527f696e76616c69642063617264496e76656e746f727920706f736974696f6e00006044820152606401610b91565b60136000868360ff16815181106116b8576116b8613e32565b602002602001015160ff16815260200190815260200160002060008154809291906116e2906140b9565b90915550503360009081526015602052604081208651909190879060ff851690811061171057611710613e32565b602002602001015160ff1660ff168152602001908152602001600020600081819054906101000a900460ff168092919061174990613e5e565b91906101000a81548160ff021916908360ff16021790555050808061176d90613e5e565b9150506115b4565b507fbabe8f5e83e93ab103ddf917b4292a19335a5128b3530bedd896a681cdd945e33385876040516117a9939291906140d2565b60405180910390a15050505050565b33600090815260156020908152604080832060ff8086168552925290912054166117f45760405162461bcd60e51b8152600401610b9190614106565b336001600160a01b0383160361184c5760405162461bcd60e51b815260206004820152601a60248201527f5472616e73662070726f706961206e6f207065726d69746964610000000000006044820152606401610b91565b6001600160a01b0382166118a25760405162461bcd60e51b815260206004820152601e60248201527f5175656d61646f20646520636172746173206e6f207065726d697469646f00006044820152606401610b91565b33600090815260156020908152604080832060ff8086168552925282208054909116916118ce83613fb1565b82546101009290920a60ff8181021990931691831602179091556001600160a01b0384166000908152601560209081526040808320868516845290915281208054909216925061191d83613e5e565b91906101000a81548160ff021916908360ff160217905550505050565b610c32838383604051806020016040528060008152506123c6565b61195e336112d5565b61197a5760405162461bcd60e51b8152600401610b919061403b565b61198381612aa2565b50565b3360009081526017602052604090205460ff166119b55760405162461bcd60e51b8152600401610b9190613eb7565b806119bf30611bd6565b10156119ca57600080fd5b80600c60008282546119dc919061400b565b9091555050600a5460405163a9059cbb60e01b8152336004820152602481018390526001600160a01b039091169063a9059cbb906044016020604051808303816000875af1158015611a32573d6000803e3d6000fd5b505050506040513d601f19601f82011682018060405250810190611a56919061401e565b5060408051338152602081018390527f23d6711a1d031134a36921253c75aa59e967d38e369ac625992824315e204f2091015b60405180910390a150565b6000818152600260205260408120546001600160a01b0316806107ef5760405162461bcd60e51b8152602060048201526018602482015277115490cdcc8c4e881a5b9d985b1a59081d1bdad95b88125160421b6044820152606401610b91565b3360009081526017602052604090205460ff16611b235760405162461bcd60e51b8152600401610b9190613eb7565b6001600160a01b038116611b495760405162461bcd60e51b8152600401610b9190613efa565b6001600160a01b03811660009081526017602052604090205460ff1615611bb25760405162461bcd60e51b815260206004820152601b60248201527f4164647265737320697320616c726561647920616e206f776e657200000000006044820152606401610b91565b6001600160a01b03166000908152601760205260409020805460ff19166001179055565b60006001600160a01b038216611c405760405162461bcd60e51b815260206004820152602960248201527f4552433732313a2061646472657373207a65726f206973206e6f7420612076616044820152683634b21037bbb732b960b91b6064820152608401610b91565b506001600160a01b031660009081526003602052604090205490565b611c64612aab565b611c6e6000612b05565b565b6008546001600160a01b03163314611cc35760405162461bcd60e51b8152602060048201526016602482015275536f6c6f20636f6e747261746f206465207061636b7360501b6044820152606401610b91565b80600c6000828254611cd59190613fce565b909155505050565b3360009081526015602090815260408083206078845290915290205460ff16611d415760405162461bcd60e51b81526020600482015260166024820152754e6f207469656e6573206e696e67756e20616c62756d60501b6044820152606401610b91565b600e54600c541015611d8c5760405162461bcd60e51b8152602060048201526014602482015273466f6e646f7320696e737566696369656e74657360601b6044820152606401610b91565b6000805b60798160ff161015611e225733600090815260156020908152604080832060ff80861685529252822054169003611dca5760019150611e22565b33600090815260156020908152604080832060ff808616855292528220805490911691611df683613fb1565b91906101000a81548160ff021916908360ff160217905550508080611e1a90613e5e565b915050611d90565b508015611e715760405162461bcd60e51b815260206004820152601760248201527f4d75737420636f6d706c6574652074686520616c62756d0000000000000000006044820152606401610b91565b611f093360108054611e8290613e7d565b80601f0160208091040260200160405190810160405280929190818152602001828054611eae90613e7d565b8015611efb5780601f10611ed057610100808354040283529160200191611efb565b820191906000526020600020905b815481529060010190602001808311611ede57829003601f168201915b505050505060786002612870565b600e54600c6000828254611f1d919061400b565b9091555050600a54600e5460405163a9059cbb60e01b815233600482015260248101919091526001600160a01b039091169063a9059cbb906044016020604051808303816000875af1158015611f77573d6000803e3d6000fd5b505050506040513d601f19601f82011682018060405250810190611f9b919061401e565b5060408051338152600160208201527f6d0344e2059f835240cb954cce07d4b26f0d0844eecc234f7ee0e292ba80a1aa9101611a89565b606060018054610a7390613e7d565b600d8054611fee90613e7d565b80601f016020809104026020016040519081016040528092919081815260200182805461201a90613e7d565b80156120675780601f1061203c57610100808354040283529160200191612067565b820191906000526020600020905b81548152906001019060200180831161204a57829003601f168201915b505050505081565b3360009081526017602052604090205460ff1661209e5760405162461bcd60e51b8152600401610b9190613eb7565b60106120aa8382614182565b5060116120b78282614182565b507fabfd337ac5625b7dc2ddd3d3bd465fb1dec15322eeeed81032268b337880bec682826040516112c3929190614241565b336001600160a01b0384160361214f5760405162461bcd60e51b815260206004820152602560248201527f4e6f2074652070756564657320656e76696172206361727461732061207469206044820152646d69736d6f60d81b6064820152608401610b91565b6001600160a01b0383166121b45760405162461bcd60e51b815260206004820152602660248201527f4e6f20707565646573207175656d6172206361727461732064652065737461206044820152656d616e65726160d01b6064820152608401610b91565b60005b60ff811682111561234e5733600090815260156020526040812081858560ff86168181106121e7576121e7613e32565b90506020020160208101906121fc9190613bd8565b60ff908116825260208201929092526040016000205416116122305760405162461bcd60e51b8152600401610b9190614106565b33600090815260156020526040812090848460ff851681811061225557612255613e32565b905060200201602081019061226a9190613bd8565b60ff9081168252602082019290925260400160009081208054909216919061229183613fb1565b91906101000a81548160ff021916908360ff1602179055505060156000856001600160a01b03166001600160a01b03168152602001908152602001600020600084848460ff168181106122e6576122e6613e32565b90506020020160208101906122fb9190613bd8565b60ff9081168252602082019290925260400160009081208054909216919061232283613e5e565b91906101000a81548160ff021916908360ff16021790555050808061234690613e5e565b9150506121b7565b50505050565b6112cc338383612b57565b60005b60798160ff1610156119835733600090815260156020908152604080832060ff80861685529252822080549091169161239a83613e5e565b91906101000a81548160ff021916908360ff1602179055505080806123be90613e5e565b915050612362565b6123d033836128d3565b6123ec5760405162461bcd60e51b8152600401610b919061403b565b61234e84848484612c25565b33600090815260156020908152604080832060ff8086168552925290912054166124345760405162461bcd60e51b8152600401610b9190614106565b33600090815260156020908152604080832060ff80861685529252822080549091169161246083613fb1565b91906101000a81548160ff021916908360ff160217905550506000600d604051806040016040528060018152602001602f60f81b8152506124a38460ff16612c58565b60405180604001604052806005815260200164173539b7b760d91b8152506040516020016124d49493929190614266565b60405160208183030381529060405290506112cc33828460ff166001612870565b60108054611fee90613e7d565b60606107ef82612d58565b3360009081526017602052604090205460ff1661253c5760405162461bcd60e51b8152600401610b9190613eb7565b6012805460ff1916911515919091179055565b60118054611fee90613e7d565b6008546001600160a01b031633146125af5760405162461bcd60e51b8152602060048201526016602482015275536f6c6f20636f6e747261746f206465207061636b7360501b6044820152606401610b91565b600b55565b6001600160a01b03918216600090815260056020908152604080832093909416825291909152205460ff1690565b3360009081526017602052604090205460ff166126115760405162461bcd60e51b8152600401610b9190613eb7565b6001600160a01b0381166126375760405162461bcd60e51b8152600401610b9190613efa565b6001600160a01b03811660009081526018602052604090205460ff16156126a05760405162461bcd60e51b815260206004820152601b60248201527f4164647265737320697320616c726561647920616e206f776e657200000000006044820152606401610b91565b6001600160a01b03166000908152601860205260409020805460ff19166001179055565b6126cc612aab565b6001600160a01b0381166127315760405162461bcd60e51b815260206004820152602660248201527f4f776e61626c653a206e6577206f776e657220697320746865207a65726f206160448201526564647265737360d01b6064820152608401610b91565b61198381612b05565b6000818152600260205260409020546001600160a01b03166119835760405162461bcd60e51b8152602060048201526018602482015277115490cdcc8c4e881a5b9d985b1a59081d1bdad95b88125160421b6044820152606401610b91565b600081815260046020526040902080546001600160a01b0319166001600160a01b03841690811790915581906127ce82611a94565b6001600160a01b03167f8c5be1e5ebec7d5bd14f71427d1e84f3dd0314c0f7b2291e5b200ac8c7c3b92560405160405180910390a45050565b60008060006128168585612e60565b9150915061282381612ea5565b509392505050565b6112cc8282604051602401612841929190614315565b60408051601f198184030181529190526020810180516001600160e01b031663319af33360e01b179052612fef565b600061287b60095490565b905061288b600980546001019055565b600081815260146020526040902081815560018101849055600201805461ff00191661010060ff8516021790556128c28582612ff8565b6128cc8185613012565b5050505050565b6000806128df83611a94565b9050806001600160a01b0316846001600160a01b03161480612906575061290681856125b4565b80610e835750836001600160a01b031661291f84610af6565b6001600160a01b031614949350505050565b826001600160a01b031661294482611a94565b6001600160a01b03161461296a5760405162461bcd60e51b8152600401610b919061433f565b6001600160a01b0382166129cc5760405162461bcd60e51b8152602060048201526024808201527f4552433732313a207472616e7366657220746f20746865207a65726f206164646044820152637265737360e01b6064820152608401610b91565b6129d983838360016130a5565b826001600160a01b03166129ec82611a94565b6001600160a01b031614612a125760405162461bcd60e51b8152600401610b919061433f565b600081815260046020908152604080832080546001600160a01b03199081169091556001600160a01b0387811680865260038552838620805460001901905590871680865283862080546001019055868652600290945282852080549092168417909155905184937fddf252ad1be2c89b69c2b068fc378daa952ba7f163c4a11628f55a4df523b3ef91a4505050565b6119838161312d565b6007546001600160a01b03163314611c6e5760405162461bcd60e51b815260206004820181905260248201527f4f776e61626c653a2063616c6c6572206973206e6f7420746865206f776e65726044820152606401610b91565b600780546001600160a01b038381166001600160a01b0319831681179093556040519116919082907f8be0079c531659141344cd1fd0a4f28419497f9722a3daafe3b4186f6b6457e090600090a35050565b816001600160a01b0316836001600160a01b031603612bb85760405162461bcd60e51b815260206004820152601960248201527f4552433732313a20617070726f766520746f2063616c6c6572000000000000006044820152606401610b91565b6001600160a01b03838116600081815260056020908152604080832094871680845294825291829020805460ff191686151590811790915591519182527f17307eab39ab6107e8899845ad3d59bd9653f200f220920489ca2b5937696c31910160405180910390a3505050565b612c30848484612931565b612c3c8484848461316d565b61234e5760405162461bcd60e51b8152600401610b9190614384565b606081600003612c7f5750506040805180820190915260018152600360fc1b602082015290565b8160005b8115612ca95780612c93816140b9565b9150612ca29050600a836140a5565b9150612c83565b6000816001600160401b03811115612cc357612cc3613964565b6040519080825280601f01601f191660200182016040528015612ced576020820181803683370190505b5090505b8415610e8357612d0260018361400b565b9150612d0f600a86613ff7565b612d1a906030613fce565b60f81b818381518110612d2f57612d2f613e32565b60200101906001600160f81b031916908160001a905350612d51600a866140a5565b9450612cf1565b6060612d638261273a565b60008281526006602052604081208054612d7c90613e7d565b80601f0160208091040260200160405190810160405280929190818152602001828054612da890613e7d565b8015612df55780601f10612dca57610100808354040283529160200191612df5565b820191906000526020600020905b815481529060010190602001808311612dd857829003601f168201915b505050505090506000612e1360408051602081019091526000815290565b90508051600003612e25575092915050565b815115612e57578082604051602001612e3f9291906143d6565b60405160208183030381529060405292505050919050565b610e838461326b565b6000808251604103612e965760208301516040840151606085015160001a612e8a878285856132df565b94509450505050612e9e565b506000905060025b9250929050565b6000816004811115612eb957612eb9614405565b03612ec15750565b6001816004811115612ed557612ed5614405565b03612f225760405162461bcd60e51b815260206004820152601860248201527f45434453413a20696e76616c6964207369676e617475726500000000000000006044820152606401610b91565b6002816004811115612f3657612f36614405565b03612f835760405162461bcd60e51b815260206004820152601f60248201527f45434453413a20696e76616c6964207369676e6174757265206c656e677468006044820152606401610b91565b6003816004811115612f9757612f97614405565b036119835760405162461bcd60e51b815260206004820152602260248201527f45434453413a20696e76616c6964207369676e6174757265202773272076616c604482015261756560f01b6064820152608401610b91565b611983816133a3565b6112cc8282604051806020016040528060008152506133c4565b6000828152600260205260409020546001600160a01b031661308d5760405162461bcd60e51b815260206004820152602e60248201527f45524337323155524953746f726167653a2055524920736574206f66206e6f6e60448201526d32bc34b9ba32b73a103a37b5b2b760911b6064820152608401610b91565b6000828152600660205260409020610c328282614182565b600181111561234e576001600160a01b038416156130eb576001600160a01b038416600090815260036020526040812080548392906130e590849061400b565b90915550505b6001600160a01b0383161561234e576001600160a01b03831660009081526003602052604081208054839290613122908490613fce565b909155505050505050565b613136816133f7565b6000818152600660205260409020805461314f90613e7d565b1590506119835760008181526006602052604081206119839161379d565b60006001600160a01b0384163b1561326357604051630a85bd0160e11b81526001600160a01b0385169063150b7a02906131b190339089908890889060040161441b565b6020604051808303816000875af19250505080156131ec575060408051601f3d908101601f191682019092526131e991810190614458565b60015b613249573d80801561321a576040519150601f19603f3d011682016040523d82523d6000602084013e61321f565b606091505b5080516000036132415760405162461bcd60e51b8152600401610b9190614384565b805181602001fd5b6001600160e01b031916630a85bd0160e11b149050610e83565b506001610e83565b60606132768261273a565b600061328d60408051602081019091526000815290565b905060008151116132ad57604051806020016040528060008152506132d8565b806132b78461349a565b6040516020016132c89291906143d6565b6040516020818303038152906040525b9392505050565b6000807f7fffffffffffffffffffffffffffffff5d576e7357a4501ddfe92f46681b20a0831115613316575060009050600361339a565b6040805160008082526020820180845289905260ff881692820192909252606081018690526080810185905260019060a0016020604051602081039080840390855afa15801561336a573d6000803e3d6000fd5b5050604051601f1901519150506001600160a01b0381166133935760006001925092505061339a565b9150600090505b94509492505050565b60006a636f6e736f6c652e6c6f679050600080835160208501845afa505050565b6133ce838361352c565b6133db600084848461316d565b610c325760405162461bcd60e51b8152600401610b9190614384565b600061340282611a94565b90506134128160008460016130a5565b61341b82611a94565b600083815260046020908152604080832080546001600160a01b03199081169091556001600160a01b0385168085526003845282852080546000190190558785526002909352818420805490911690555192935084927fddf252ad1be2c89b69c2b068fc378daa952ba7f163c4a11628f55a4df523b3ef908390a45050565b606060006134a7836136c5565b60010190506000816001600160401b038111156134c6576134c6613964565b6040519080825280601f01601f1916602001820160405280156134f0576020820181803683370190505b5090508181016020015b600019016f181899199a1a9b1b9c1cb0b131b232b360811b600a86061a8153600a85049450846134fa57509392505050565b6001600160a01b0382166135825760405162461bcd60e51b815260206004820181905260248201527f4552433732313a206d696e7420746f20746865207a65726f20616464726573736044820152606401610b91565b6000818152600260205260409020546001600160a01b0316156135e75760405162461bcd60e51b815260206004820152601c60248201527f4552433732313a20746f6b656e20616c7265616479206d696e746564000000006044820152606401610b91565b6135f56000838360016130a5565b6000818152600260205260409020546001600160a01b03161561365a5760405162461bcd60e51b815260206004820152601c60248201527f4552433732313a20746f6b656e20616c7265616479206d696e746564000000006044820152606401610b91565b6001600160a01b038216600081815260036020908152604080832080546001019055848352600290915280822080546001600160a01b0319168417905551839291907fddf252ad1be2c89b69c2b068fc378daa952ba7f163c4a11628f55a4df523b3ef908290a45050565b60008072184f03e93ff9f4daa797ed6e38ed64bf6a1f0160401b83106137045772184f03e93ff9f4daa797ed6e38ed64bf6a1f0160401b830492506040015b6d04ee2d6d415b85acef81000000008310613730576d04ee2d6d415b85acef8100000000830492506020015b662386f26fc10000831061374e57662386f26fc10000830492506010015b6305f5e1008310613766576305f5e100830492506008015b612710831061377a57612710830492506004015b6064831061378c576064830492506002015b600a83106107ef5760010192915050565b5080546137a990613e7d565b6000825580601f106137b9575050565b601f01602090049060005260206000209081019061198391905b808211156137e757600081556001016137d3565b5090565b6001600160e01b03198116811461198357600080fd5b60006020828403121561381357600080fd5b81356132d8816137eb565b6001600160a01b038116811461198357600080fd5b60006020828403121561384557600080fd5b81356132d88161381e565b600081518084526020808501945080840160005b8381101561388357815160ff1687529582019590820190600101613864565b509495945050505050565b6040815260006138a16040830185613850565b82810360208401526138b38185613850565b95945050505050565b60005b838110156138d75781810151838201526020016138bf565b50506000910152565b600081518084526138f88160208601602086016138bc565b601f01601f19169290920160200192915050565b6020815260006132d860208301846138e0565b60006020828403121561393157600080fd5b5035919050565b6000806040838503121561394b57600080fd5b82356139568161381e565b946020939093013593505050565b634e487b7160e01b600052604160045260246000fd5b604051601f8201601f191681016001600160401b03811182821017156139a2576139a2613964565b604052919050565b803560ff811681146139bb57600080fd5b919050565b60008083601f8401126139d257600080fd5b5081356001600160401b038111156139e957600080fd5b602083019150836020828501011115612e9e57600080fd5b60008060008060608587031215613a1757600080fd5b843593506020808601356001600160401b0380821115613a3657600080fd5b818801915088601f830112613a4a57600080fd5b813581811115613a5c57613a5c613964565b8060051b613a6b85820161397a565b918252838101850191858101908c841115613a8557600080fd5b948601945b83861015613aaa57613a9b866139aa565b82529486019490860190613a8a565b98505050506040880135925080831115613ac357600080fd5b5050613ad1878288016139c0565b95989497509550505050565b60008083601f840112613aef57600080fd5b5081356001600160401b03811115613b0657600080fd5b6020830191508360208260051b8501011115612e9e57600080fd5b60008060208385031215613b3457600080fd5b82356001600160401b03811115613b4a57600080fd5b613b5685828601613add565b90969095509350505050565b600080600060608486031215613b7757600080fd5b8335613b828161381e565b92506020840135613b928161381e565b929592945050506040919091013590565b60008060408385031215613bb657600080fd5b8235613bc18161381e565b9150613bcf602084016139aa565b90509250929050565b600060208284031215613bea57600080fd5b6132d8826139aa565b60006001600160401b03831115613c0c57613c0c613964565b613c1f601f8401601f191660200161397a565b9050828152838383011115613c3357600080fd5b828260208301376000602084830101529392505050565b600082601f830112613c5b57600080fd5b6132d883833560208501613bf3565b60008060408385031215613c7d57600080fd5b82356001600160401b0380821115613c9457600080fd5b613ca086838701613c4a565b93506020850135915080821115613cb657600080fd5b50613cc385828601613c4a565b9150509250929050565b600080600060408486031215613ce257600080fd5b8335613ced8161381e565b925060208401356001600160401b03811115613d0857600080fd5b613d1486828701613add565b9497909650939450505050565b801515811461198357600080fd5b60008060408385031215613d4257600080fd5b8235613d4d8161381e565b91506020830135613d5d81613d21565b809150509250929050565b60008060008060808587031215613d7e57600080fd5b8435613d898161381e565b93506020850135613d998161381e565b92506040850135915060608501356001600160401b03811115613dbb57600080fd5b8501601f81018713613dcc57600080fd5b613ddb87823560208401613bf3565b91505092959194509250565b600060208284031215613df957600080fd5b81356132d881613d21565b60008060408385031215613e1757600080fd5b8235613e228161381e565b91506020830135613d5d8161381e565b634e487b7160e01b600052603260045260246000fd5b634e487b7160e01b600052601160045260246000fd5b600060ff821660ff8103613e7457613e74613e48565b60010192915050565b600181811c90821680613e9157607f821691505b602082108103613eb157634e487b7160e01b600052602260045260246000fd5b50919050565b60208082526023908201527f4f6e6c79206f776e6572732063616e2063616c6c20746869732066756e63746960408201526237b71760e91b606082015260800190565b6020808252600f908201526e496e76616c6964206164647265737360881b604082015260600190565b6bffffffffffffffffffffffff198460601b1681528260148201526000603482018351602080860160005b83811015613f6d57815160ff1685529382019390820190600101613f4e565b50507f30786631644437313839356534396231353633363933393639646535303839388352693139376344463334383160b01b9083015250602a0195945050505050565b600060ff821680613fc457613fc4613e48565b6000190192915050565b808201808211156107ef576107ef613e48565b634e487b7160e01b600052601260045260246000fd5b60008261400657614006613fe1565b500690565b818103818111156107ef576107ef613e48565b60006020828403121561403057600080fd5b81516132d881613d21565b6020808252602d908201527f4552433732313a2063616c6c6572206973206e6f7420746f6b656e206f776e6560408201526c1c881bdc88185c1c1c9bdd9959609a1b606082015260800190565b60006020828403121561409a57600080fd5b81516132d88161381e565b6000826140b4576140b4613fe1565b500490565b6000600182016140cb576140cb613e48565b5060010190565b6001600160a01b03841681526060602082018190526000906140f690830185613850565b9050826040830152949350505050565b6020808252601490820152734e6f207469656e6573206573746120636172746160601b604082015260600190565b601f821115610c3257600081815260208120601f850160051c8101602086101561415b5750805b601f850160051c820191505b8181101561417a57828155600101614167565b505050505050565b81516001600160401b0381111561419b5761419b613964565b6141af816141a98454613e7d565b84614134565b602080601f8311600181146141e457600084156141cc5750858301515b600019600386901b1c1916600185901b17855561417a565b600085815260208120601f198616915b82811015614213578886015182559484019460019091019084016141f4565b50858210156142315787850151600019600388901b60f8161c191681555b5050505050600190811b01905550565b60408152600061425460408301856138e0565b82810360208401526138b381856138e0565b600080865461427481613e7d565b6001828116801561428c57600181146142a1576142d0565b60ff19841687528215158302870194506142d0565b8a60005260208060002060005b858110156142c75781548a8201529084019082016142ae565b50505082870194505b5050505085516142e4818360208a016138bc565b85519101906142f78183602089016138bc565b845191019061430a8183602088016138bc565b019695505050505050565b60408152600061432860408301856138e0565b905060018060a01b03831660208301529392505050565b60208082526025908201527f4552433732313a207472616e736665722066726f6d20696e636f72726563742060408201526437bbb732b960d91b606082015260800190565b60208082526032908201527f4552433732313a207472616e7366657220746f206e6f6e20455243373231526560408201527131b2b4bb32b91034b6b83632b6b2b73a32b960711b606082015260800190565b600083516143e88184602088016138bc565b8351908301906143fc8183602088016138bc565b01949350505050565b634e487b7160e01b600052602160045260246000fd5b6001600160a01b038581168252841660208201526040810183905260806060820181905260009061444e908301846138e0565b9695505050505050565b60006020828403121561446a57600080fd5b81516132d8816137eb56fea2646970667358221220510ab41f01bfdbc3d83a04deaeff06c2d6111d39619a96453f03e78c82c969f564736f6c63430008120033",
  "linkReferences": {},
  "deployedLinkReferences": {}
}