{
  "_format": "hh-sol-artifact-1",
  "contractName": "NofGammaCardsV2",
  "sourceName": "contracts/gamma/GammaCards.v2.sol",
  "abi": [
    {
      "inputs": [
        {
          "internalType": "address",
          "name": "_daiTokenAddress",
          "type": "address"
        },
        {
          "internalType": "address",
          "name": "_packsContract",
          "type": "address"
        },
        {
          "internalType": "string",
          "name": "_baseUri",
          "type": "string"
        },
        {
          "internalType": "address",
          "name": "_signer",
          "type": "address"
        }
      ],
      "stateMutability": "nonpayable",
      "type": "constructor"
    },
    {
      "anonymous": false,
      "inputs": [
        {
          "indexed": false,
          "internalType": "address",
          "name": "player",
          "type": "address"
        },
        {
          "indexed": false,
          "internalType": "uint8",
          "name": "albumClass",
          "type": "uint8"
        }
      ],
      "name": "AlbumCompleted",
      "type": "event"
    },
    {
      "anonymous": false,
      "inputs": [
        {
          "indexed": true,
          "internalType": "address",
          "name": "owner",
          "type": "address"
        },
        {
          "indexed": true,
          "internalType": "address",
          "name": "approved",
          "type": "address"
        },
        {
          "indexed": true,
          "internalType": "uint256",
          "name": "tokenId",
          "type": "uint256"
        }
      ],
      "name": "Approval",
      "type": "event"
    },
    {
      "anonymous": false,
      "inputs": [
        {
          "indexed": true,
          "internalType": "address",
          "name": "owner",
          "type": "address"
        },
        {
          "indexed": true,
          "internalType": "address",
          "name": "operator",
          "type": "address"
        },
        {
          "indexed": false,
          "internalType": "bool",
          "name": "approved",
          "type": "bool"
        }
      ],
      "name": "ApprovalForAll",
      "type": "event"
    },
    {
      "anonymous": false,
      "inputs": [
        {
          "indexed": false,
          "internalType": "address",
          "name": "player",
          "type": "address"
        },
        {
          "indexed": false,
          "internalType": "uint256",
          "name": "cardTokenId",
          "type": "uint256"
        },
        {
          "indexed": false,
          "internalType": "uint256",
          "name": "albumTokenId",
          "type": "uint256"
        }
      ],
      "name": "CardPasted",
      "type": "event"
    },
    {
      "anonymous": false,
      "inputs": [
        {
          "indexed": false,
          "internalType": "address",
          "name": "receiver",
          "type": "address"
        },
        {
          "indexed": false,
          "internalType": "uint256",
          "name": "amount",
          "type": "uint256"
        }
      ],
      "name": "EmergencyWithdrawal",
      "type": "event"
    },
    {
      "anonymous": false,
      "inputs": [
        {
          "indexed": false,
          "internalType": "address",
          "name": "newSigner",
          "type": "address"
        }
      ],
      "name": "NewSigner",
      "type": "event"
    },
    {
      "anonymous": false,
      "inputs": [
        {
          "indexed": false,
          "internalType": "string",
          "name": "newMainUri",
          "type": "string"
        },
        {
          "indexed": false,
          "internalType": "string",
          "name": "newSecondaryUri",
          "type": "string"
        }
      ],
      "name": "NewUris",
      "type": "event"
    },
    {
      "anonymous": false,
      "inputs": [
        {
          "indexed": true,
          "internalType": "address",
          "name": "previousOwner",
          "type": "address"
        },
        {
          "indexed": true,
          "internalType": "address",
          "name": "newOwner",
          "type": "address"
        }
      ],
      "name": "OwnershipTransferred",
      "type": "event"
    },
    {
      "anonymous": false,
      "inputs": [
        {
          "indexed": false,
          "internalType": "address",
          "name": "player",
          "type": "address"
        },
        {
          "indexed": false,
          "internalType": "uint8[]",
          "name": "packData",
          "type": "uint8[]"
        },
        {
          "indexed": false,
          "internalType": "uint256",
          "name": "packNumber",
          "type": "uint256"
        }
      ],
      "name": "PackOpened",
      "type": "event"
    },
    {
      "anonymous": false,
      "inputs": [
        {
          "indexed": true,
          "internalType": "address",
          "name": "from",
          "type": "address"
        },
        {
          "indexed": true,
          "internalType": "address",
          "name": "to",
          "type": "address"
        },
        {
          "indexed": true,
          "internalType": "uint256",
          "name": "tokenId",
          "type": "uint256"
        }
      ],
      "name": "Transfer",
      "type": "event"
    },
    {
      "inputs": [],
      "name": "DAI_TOKEN",
      "outputs": [
        {
          "internalType": "address",
          "name": "",
          "type": "address"
        }
      ],
      "stateMutability": "view",
      "type": "function"
    },
    {
      "inputs": [
        {
          "internalType": "address",
          "name": "_newOwner",
          "type": "address"
        }
      ],
      "name": "addOwner",
      "outputs": [],
      "stateMutability": "nonpayable",
      "type": "function"
    },
    {
      "inputs": [
        {
          "internalType": "address",
          "name": "to",
          "type": "address"
        },
        {
          "internalType": "uint256",
          "name": "tokenId",
          "type": "uint256"
        }
      ],
      "name": "approve",
      "outputs": [],
      "stateMutability": "nonpayable",
      "type": "function"
    },
    {
      "inputs": [
        {
          "internalType": "address",
          "name": "owner",
          "type": "address"
        }
      ],
      "name": "balanceOf",
      "outputs": [
        {
          "internalType": "uint256",
          "name": "",
          "type": "uint256"
        }
      ],
      "stateMutability": "view",
      "type": "function"
    },
    {
      "inputs": [],
      "name": "baseUri",
      "outputs": [
        {
          "internalType": "string",
          "name": "",
          "type": "string"
        }
      ],
      "stateMutability": "view",
      "type": "function"
    },
    {
      "inputs": [
        {
          "internalType": "uint256",
          "name": "tokenId",
          "type": "uint256"
        }
      ],
      "name": "burn",
      "outputs": [],
      "stateMutability": "nonpayable",
      "type": "function"
    },
    {
      "inputs": [
        {
          "internalType": "uint8[]",
          "name": "cardNumbers",
          "type": "uint8[]"
        }
      ],
      "name": "burnCards",
      "outputs": [],
      "stateMutability": "nonpayable",
      "type": "function"
    },
    {
      "inputs": [
        {
          "internalType": "address",
          "name": "user",
          "type": "address"
        }
      ],
      "name": "burnedCards",
      "outputs": [
        {
          "internalType": "uint256",
          "name": "amount",
          "type": "uint256"
        }
      ],
      "stateMutability": "view",
      "type": "function"
    },
    {
      "inputs": [
        {
          "internalType": "uint256",
          "name": "tokenId",
          "type": "uint256"
        }
      ],
      "name": "cards",
      "outputs": [
        {
          "internalType": "uint256",
          "name": "tokenId",
          "type": "uint256"
        },
        {
          "internalType": "uint256",
          "name": "number",
          "type": "uint256"
        },
        {
          "internalType": "bool",
          "name": "pasted",
          "type": "bool"
        },
        {
          "internalType": "uint8",
          "name": "class",
          "type": "uint8"
        },
        {
          "internalType": "uint256",
          "name": "completion",
          "type": "uint256"
        }
      ],
      "stateMutability": "view",
      "type": "function"
    },
    {
      "inputs": [
        {
          "internalType": "address",
          "name": "user",
          "type": "address"
        },
        {
          "internalType": "uint8",
          "name": "cardNumber",
          "type": "uint8"
        }
      ],
      "name": "cardsByUser",
      "outputs": [
        {
          "internalType": "uint8",
          "name": "amount",
          "type": "uint8"
        }
      ],
      "stateMutability": "view",
      "type": "function"
    },
    {
      "inputs": [
        {
          "internalType": "uint256",
          "name": "cardNumber",
          "type": "uint256"
        }
      ],
      "name": "cardsInventory",
      "outputs": [
        {
          "internalType": "uint256",
          "name": "amount",
          "type": "uint256"
        }
      ],
      "stateMutability": "view",
      "type": "function"
    },
    {
      "inputs": [
        {
          "internalType": "uint256",
          "name": "newPackPrice",
          "type": "uint256"
        }
      ],
      "name": "changePackPrice",
      "outputs": [],
      "stateMutability": "nonpayable",
      "type": "function"
    },
    {
      "inputs": [
        {
          "internalType": "uint256",
          "name": "amount",
          "type": "uint256"
        }
      ],
      "name": "emergencyWithdraw",
      "outputs": [],
      "stateMutability": "nonpayable",
      "type": "function"
    },
    {
      "inputs": [],
      "name": "finishAlbum",
      "outputs": [],
      "stateMutability": "nonpayable",
      "type": "function"
    },
    {
      "inputs": [
        {
          "internalType": "uint256",
          "name": "tokenId",
          "type": "uint256"
        }
      ],
      "name": "getApproved",
      "outputs": [
        {
          "internalType": "address",
          "name": "",
          "type": "address"
        }
      ],
      "stateMutability": "view",
      "type": "function"
    },
    {
      "inputs": [
        {
          "internalType": "address",
          "name": "user",
          "type": "address"
        }
      ],
      "name": "getCardsByUser",
      "outputs": [
        {
          "internalType": "uint8[]",
          "name": "",
          "type": "uint8[]"
        },
        {
          "internalType": "uint8[]",
          "name": "",
          "type": "uint8[]"
        }
      ],
      "stateMutability": "view",
      "type": "function"
    },
    {
      "inputs": [
        {
          "internalType": "uint8",
          "name": "cardNum",
          "type": "uint8"
        }
      ],
      "name": "hasCard",
      "outputs": [
        {
          "internalType": "bool",
          "name": "has",
          "type": "bool"
        }
      ],
      "stateMutability": "view",
      "type": "function"
    },
    {
      "inputs": [
        {
          "internalType": "address",
          "name": "owner",
          "type": "address"
        },
        {
          "internalType": "address",
          "name": "operator",
          "type": "address"
        }
      ],
      "name": "isApprovedForAll",
      "outputs": [
        {
          "internalType": "bool",
          "name": "",
          "type": "bool"
        }
      ],
      "stateMutability": "view",
      "type": "function"
    },
    {
      "inputs": [],
      "name": "mainAlbumPrize",
      "outputs": [
        {
          "internalType": "uint256",
          "name": "",
          "type": "uint256"
        }
      ],
      "stateMutability": "view",
      "type": "function"
    },
    {
      "inputs": [],
      "name": "mainUri",
      "outputs": [
        {
          "internalType": "string",
          "name": "",
          "type": "string"
        }
      ],
      "stateMutability": "view",
      "type": "function"
    },
    {
      "inputs": [
        {
          "internalType": "uint8",
          "name": "cardNum",
          "type": "uint8"
        }
      ],
      "name": "mintCard",
      "outputs": [],
      "stateMutability": "nonpayable",
      "type": "function"
    },
    {
      "inputs": [],
      "name": "name",
      "outputs": [
        {
          "internalType": "string",
          "name": "",
          "type": "string"
        }
      ],
      "stateMutability": "view",
      "type": "function"
    },
    {
      "inputs": [
        {
          "internalType": "uint256",
          "name": "packNumber",
          "type": "uint256"
        },
        {
          "internalType": "uint8[]",
          "name": "packData",
          "type": "uint8[]"
        },
        {
          "internalType": "bytes",
          "name": "signature",
          "type": "bytes"
        }
      ],
      "name": "openPack",
      "outputs": [],
      "stateMutability": "nonpayable",
      "type": "function"
    },
    {
      "inputs": [],
      "name": "owner",
      "outputs": [
        {
          "internalType": "address",
          "name": "",
          "type": "address"
        }
      ],
      "stateMutability": "view",
      "type": "function"
    },
    {
      "inputs": [
        {
          "internalType": "uint256",
          "name": "tokenId",
          "type": "uint256"
        }
      ],
      "name": "ownerOf",
      "outputs": [
        {
          "internalType": "address",
          "name": "",
          "type": "address"
        }
      ],
      "stateMutability": "view",
      "type": "function"
    },
    {
      "inputs": [
        {
          "internalType": "address",
          "name": "",
          "type": "address"
        }
      ],
      "name": "owners",
      "outputs": [
        {
          "internalType": "bool",
          "name": "",
          "type": "bool"
        }
      ],
      "stateMutability": "view",
      "type": "function"
    },
    {
      "inputs": [],
      "name": "packPrice",
      "outputs": [
        {
          "internalType": "uint256",
          "name": "",
          "type": "uint256"
        }
      ],
      "stateMutability": "view",
      "type": "function"
    },
    {
      "inputs": [],
      "name": "packsContract",
      "outputs": [
        {
          "internalType": "contract IGammaPacks",
          "name": "",
          "type": "address"
        }
      ],
      "stateMutability": "view",
      "type": "function"
    },
    {
      "inputs": [],
      "name": "prizesBalance",
      "outputs": [
        {
          "internalType": "uint256",
          "name": "",
          "type": "uint256"
        }
      ],
      "stateMutability": "view",
      "type": "function"
    },
    {
      "inputs": [
        {
          "internalType": "uint256",
          "name": "amount",
          "type": "uint256"
        }
      ],
      "name": "receivePrizesBalance",
      "outputs": [],
      "stateMutability": "nonpayable",
      "type": "function"
    },
    {
      "inputs": [
        {
          "internalType": "address",
          "name": "_ownerToRemove",
          "type": "address"
        }
      ],
      "name": "removeOwner",
      "outputs": [],
      "stateMutability": "nonpayable",
      "type": "function"
    },
    {
      "inputs": [],
      "name": "renounceOwnership",
      "outputs": [],
      "stateMutability": "nonpayable",
      "type": "function"
    },
    {
      "inputs": [
        {
          "internalType": "address",
          "name": "from",
          "type": "address"
        },
        {
          "internalType": "address",
          "name": "to",
          "type": "address"
        },
        {
          "internalType": "uint256",
          "name": "tokenId",
          "type": "uint256"
        }
      ],
      "name": "safeTransferFrom",
      "outputs": [],
      "stateMutability": "nonpayable",
      "type": "function"
    },
    {
      "inputs": [
        {
          "internalType": "address",
          "name": "from",
          "type": "address"
        },
        {
          "internalType": "address",
          "name": "to",
          "type": "address"
        },
        {
          "internalType": "uint256",
          "name": "tokenId",
          "type": "uint256"
        },
        {
          "internalType": "bytes",
          "name": "data",
          "type": "bytes"
        }
      ],
      "name": "safeTransferFrom",
      "outputs": [],
      "stateMutability": "nonpayable",
      "type": "function"
    },
    {
      "inputs": [],
      "name": "secondaryAlbumPrize",
      "outputs": [
        {
          "internalType": "uint256",
          "name": "",
          "type": "uint256"
        }
      ],
      "stateMutability": "view",
      "type": "function"
    },
    {
      "inputs": [],
      "name": "secondaryUri",
      "outputs": [
        {
          "internalType": "string",
          "name": "",
          "type": "string"
        }
      ],
      "stateMutability": "view",
      "type": "function"
    },
    {
      "inputs": [
        {
          "internalType": "address",
          "name": "operator",
          "type": "address"
        },
        {
          "internalType": "bool",
          "name": "approved",
          "type": "bool"
        }
      ],
      "name": "setApprovalForAll",
      "outputs": [],
      "stateMutability": "nonpayable",
      "type": "function"
    },
    {
      "inputs": [
        {
          "internalType": "address",
          "name": "newSigner",
          "type": "address"
        }
      ],
      "name": "setSigner",
      "outputs": [],
      "stateMutability": "nonpayable",
      "type": "function"
    },
    {
      "inputs": [
        {
          "internalType": "string",
          "name": "newMainUri",
          "type": "string"
        },
        {
          "internalType": "string",
          "name": "newSecondaryUri",
          "type": "string"
        }
      ],
      "name": "setUris",
      "outputs": [],
      "stateMutability": "nonpayable",
      "type": "function"
    },
    {
      "inputs": [],
      "name": "signer",
      "outputs": [
        {
          "internalType": "address",
          "name": "",
          "type": "address"
        }
      ],
      "stateMutability": "view",
      "type": "function"
    },
    {
      "inputs": [
        {
          "internalType": "bytes4",
          "name": "interfaceId",
          "type": "bytes4"
        }
      ],
      "name": "supportsInterface",
      "outputs": [
        {
          "internalType": "bool",
          "name": "",
          "type": "bool"
        }
      ],
      "stateMutability": "view",
      "type": "function"
    },
    {
      "inputs": [],
      "name": "symbol",
      "outputs": [
        {
          "internalType": "string",
          "name": "",
          "type": "string"
        }
      ],
      "stateMutability": "view",
      "type": "function"
    },
    {
      "inputs": [],
      "name": "testAddCards",
      "outputs": [],
      "stateMutability": "nonpayable",
      "type": "function"
    },
    {
      "inputs": [
        {
          "internalType": "uint256",
          "name": "tokenId",
          "type": "uint256"
        }
      ],
      "name": "tokenURI",
      "outputs": [
        {
          "internalType": "string",
          "name": "",
          "type": "string"
        }
      ],
      "stateMutability": "view",
      "type": "function"
    },
    {
      "inputs": [
        {
          "internalType": "address",
          "name": "to",
          "type": "address"
        },
        {
          "internalType": "uint8",
          "name": "cardNumber",
          "type": "uint8"
        }
      ],
      "name": "transferCard",
      "outputs": [],
      "stateMutability": "nonpayable",
      "type": "function"
    },
    {
      "inputs": [
        {
          "internalType": "address",
          "name": "to",
          "type": "address"
        },
        {
          "internalType": "uint8[]",
          "name": "cardNumbers",
          "type": "uint8[]"
        }
      ],
      "name": "transferCards",
      "outputs": [],
      "stateMutability": "nonpayable",
      "type": "function"
    },
    {
      "inputs": [
        {
          "internalType": "address",
          "name": "from",
          "type": "address"
        },
        {
          "internalType": "address",
          "name": "to",
          "type": "address"
        },
        {
          "internalType": "uint256",
          "name": "tokenId",
          "type": "uint256"
        }
      ],
      "name": "transferFrom",
      "outputs": [],
      "stateMutability": "nonpayable",
      "type": "function"
    },
    {
      "inputs": [
        {
          "internalType": "address",
          "name": "newOwner",
          "type": "address"
        }
      ],
      "name": "transferOwnership",
      "outputs": [],
      "stateMutability": "nonpayable",
      "type": "function"
    }
  ],
  "bytecode": "0x60806040526710a741a462780000600c5567d02ab486cedc0000600f55670de0b6b3a76400006010553480156200003557600080fd5b50604051620047a1380380620047a1833981016040819052620000589162000336565b6040518060400160405280600a81526020016947616d6d61436172647360b01b815250604051806040016040528060068152602001654e4f465f474360d01b8152508160009081620000ab9190620004b8565b506001620000ba8282620004b8565b505050620000d7620000d16200028760201b60201c565b6200028b565b600880546001600160a01b038086166001600160a01b031992831617909255600a805492871692909116919091179055600e620001158382620004b8565b5060408051808201825260018152602f60f81b60208083019190915282518084018452600381526203132360ec1b8183015283518085018552600681526523173539b7b760d11b8184015293516200017494600e949390910162000584565b60405160208183030381529060405260119081620001939190620004b8565b5060408051808201825260018152602f60f81b60208083019190915282518084018452600381526231323160e81b8183015283518085018552600681526523173539b7b760d11b818401529351620001f294600e949390910162000584565b60405160208183030381529060405260129081620002119190620004b8565b50600b80546001600160a01b0319166001600160a01b03831617905560005b607a811015620002615760008181526013602052604090206001905580620002588162000641565b91505062000230565b5050336000908152601760205260409020805460ff191660011790555062000669915050565b3390565b600780546001600160a01b038381166001600160a01b0319831681179093556040519116919082907f8be0079c531659141344cd1fd0a4f28419497f9722a3daafe3b4186f6b6457e090600090a35050565b80516001600160a01b0381168114620002f557600080fd5b919050565b634e487b7160e01b600052604160045260246000fd5b60005b838110156200032d57818101518382015260200162000313565b50506000910152565b600080600080608085870312156200034d57600080fd5b6200035885620002dd565b93506200036860208601620002dd565b60408601519093506001600160401b03808211156200038657600080fd5b818701915087601f8301126200039b57600080fd5b815181811115620003b057620003b0620002fa565b604051601f8201601f19908116603f01168101908382118183101715620003db57620003db620002fa565b816040528281528a6020848701011115620003f557600080fd5b6200040883602083016020880162000310565b80965050505050506200041e60608601620002dd565b905092959194509250565b600181811c908216806200043e57607f821691505b6020821081036200045f57634e487b7160e01b600052602260045260246000fd5b50919050565b601f821115620004b357600081815260208120601f850160051c810160208610156200048e5750805b601f850160051c820191505b81811015620004af578281556001016200049a565b5050505b505050565b81516001600160401b03811115620004d457620004d4620002fa565b620004ec81620004e5845462000429565b8462000465565b602080601f8311600181146200052457600084156200050b5750858301515b600019600386901b1c1916600185901b178555620004af565b600085815260208120601f198616915b82811015620005555788860151825594840194600190910190840162000534565b5085821015620005745787850151600019600388901b60f8161c191681555b5050505050600190811b01905550565b6000808654620005948162000429565b60018281168015620005af5760018114620005c557620005f6565b60ff1984168752821515830287019450620005f6565b8a60005260208060002060005b85811015620005ed5781548a820152908401908201620005d2565b50505082870194505b5050505085516200060c818360208a0162000310565b85519101906200062181836020890162000310565b84519101906200063681836020880162000310565b019695505050505050565b6000600182016200066257634e487b7160e01b600052601160045260246000fd5b5060010190565b61412880620006796000396000f3fe608060405234801561001057600080fd5b50600436106102a05760003560e01c80637e50fa8f11610167578063a22cb465116100ce578063dec3f6d911610087578063dec3f6d914610684578063e1883c6e1461068c578063e5db587a1461069f578063e606df87146106a8578063e985e9c5146106bb578063f2fde38b146106ce57600080fd5b8063a22cb46514610628578063aaaeca171461063b578063b88d4fde14610643578063bf400a6a14610656578063c3461c0714610669578063c87b56dd1461067157600080fd5b80639038f414116101205780639038f414146105e157806395d89b41146105e95780639abc8320146105f15780639c7f707f146105f95780639f4415d81461060c578063a1af8ad41461061557600080fd5b80637e50fa8f146104d8578063809eb355146104f85780638ba526fc146105385780638da5cb5b1461054b5780638dc107681461055c5780638dd8be47146105ce57600080fd5b8063335c8b631161020b5780635dde20d8116101c45780635dde20d8146104645780636352211e146104845780636c19e783146104975780637065cb48146104aa57806370a08231146104bd578063715018a6146104d057600080fd5b8063335c8b63146103d857806342842e0e146103ef57806342966c6814610402578063483823e8146104155780634e5ad3181461041e5780635312ea8e1461045157600080fd5b8063173825d91161025d578063173825d91461036657806320965a5f14610379578063238ac9331461038c57806323b872dd1461039f578063267b841d146103b25780632ca699e7146103c557600080fd5b806301ffc9a7146102a5578063022914a7146102cd5780630435dcaf146102f057806306fdde0314610311578063081812fc14610326578063095ea7b314610351575b600080fd5b6102b86102b3366004613488565b6106e1565b60405190151581526020015b60405180910390f35b6102b86102db3660046134ba565b60176020526000908152604090205460ff1681565b6103036102fe3660046134ba565b610733565b6040516102c4929190613515565b6103196109a3565b6040516102c49190613593565b6103396103343660046135a6565b610a35565b6040516001600160a01b0390911681526020016102c4565b61036461035f3660046135bf565b610a5c565b005b6103646103743660046134ba565b610b76565b61036461038736600461362f565b610c75565b600b54610339906001600160a01b031681565b6103646103ad366004613670565b610f75565b6103646103c036600461374e565b610fa7565b6103646103d336600461382a565b6114e0565b6103e1600c5481565b6040519081526020016102c4565b6103646103fd366004613670565b611662565b6103646104103660046135a6565b61167d565b6103e160105481565b6102b861042c36600461385f565b33600090815260156020908152604080832060ff948516845290915290205416151590565b61036461045f3660046135a6565b6116ae565b6103e16104723660046135a6565b60136020526000908152604090205481565b6103396104923660046135a6565b6117bc565b6103646104a53660046134ba565b61181c565b6103646104b83660046134ba565b611899565b6103e16104cb3660046134ba565b611934565b6103646119ba565b6103e16104e63660046134ba565b60166020526000908152604090205481565b61052661050636600461382a565b601560209081526000928352604080842090915290825290205460ff1681565b60405160ff90911681526020016102c4565b6103646105463660046135a6565b6119ce565b6007546001600160a01b0316610339565b61059e61056a3660046135a6565b60146020526000908152604090208054600182015460028301546003909301549192909160ff808316926101009004169085565b6040805195865260208601949094529115159284019290925260ff9091166060830152608082015260a0016102c4565b600854610339906001600160a01b031681565b610364611a3b565b610319611d30565b610319611d3f565b6103646106073660046138f1565b611dcd565b6103e1600f5481565b610364610623366004613954565b611e47565b6103646106363660046139b6565b6120b2565b6103646120bd565b6103646106513660046139ef565b612124565b61036461066436600461385f565b612156565b610319612253565b61031961067f3660046135a6565b612260565b61031961226b565b61036461069a3660046135a6565b612278565b6103e1600d5481565b600a54610339906001600160a01b031681565b6102b86106c9366004613a6e565b6122d0565b6103646106dc3660046134ba565b6122fe565b60006001600160e01b031982166380ac58cd60e01b148061071257506001600160e01b03198216635b5e139f60e01b145b8061072d57506301ffc9a760e01b6001600160e01b03198316145b92915050565b604080516079808252610f408201909252606091829160009160208201610f20803683375050604080516079808252610f408201909252929350600092915060208201610f2080368337019050509050600060015b60788160ff1611610859576001600160a01b038716600090815260156020908152604080832060ff808616855292529091205416156108475780848360ff16815181106107d7576107d7613a9c565b60ff9283166020918202929092018101919091526001600160a01b038916600090815260158252604080822085851683529092522054845190821691859190851690811061082757610827613a9c565b60ff909216602092830291909101909101528161084381613ac8565b9250505b8061085181613ac8565b915050610788565b5060008160ff166001600160401b03811115610877576108776136b1565b6040519080825280602002602001820160405280156108a0578160200160208202803683370190505b50905060008260ff166001600160401b038111156108c0576108c06136b1565b6040519080825280602002602001820160405280156108e9578160200160208202803683370190505b50905060005b8360ff168160ff16101561099557858160ff168151811061091257610912613a9c565b6020026020010151838260ff168151811061092f5761092f613a9c565b60ff928316602091820292909201015285518691831690811061095457610954613a9c565b6020026020010151828260ff168151811061097157610971613a9c565b60ff909216602092830291909101909101528061098d81613ac8565b9150506108ef565b509097909650945050505050565b6060600080546109b290613ae7565b80601f01602080910402602001604051908101604052809291908181526020018280546109de90613ae7565b8015610a2b5780601f10610a0057610100808354040283529160200191610a2b565b820191906000526020600020905b815481529060010190602001808311610a0e57829003601f168201915b5050505050905090565b6000610a4082612374565b506000908152600460205260409020546001600160a01b031690565b6000610a67826117bc565b9050806001600160a01b0316836001600160a01b031603610ad95760405162461bcd60e51b815260206004820152602160248201527f4552433732313a20617070726f76616c20746f2063757272656e74206f776e656044820152603960f91b60648201526084015b60405180910390fd5b336001600160a01b0382161480610af55750610af581336122d0565b610b675760405162461bcd60e51b815260206004820152603d60248201527f4552433732313a20617070726f76652063616c6c6572206973206e6f7420746f60448201527f6b656e206f776e6572206f7220617070726f76656420666f7220616c6c0000006064820152608401610ad0565b610b7183836123d3565b505050565b3360009081526017602052604090205460ff16610ba55760405162461bcd60e51b8152600401610ad090613b21565b6001600160a01b038116610bed5760405162461bcd60e51b815260206004820152600f60248201526e496e76616c6964206164647265737360881b6044820152606401610ad0565b336001600160a01b03821603610c545760405162461bcd60e51b815260206004820152602660248201527f596f752063616e6e6f742072656d6f766520796f757273656c6620617320616e6044820152651037bbb732b960d11b6064820152608401610ad0565b6001600160a01b03166000908152601760205260409020805460ff19169055565b3360009081526015602090815260408083206079845290915290205460ff16610ce05760405162461bcd60e51b815260206004820152601860248201527f4e6f207469656e657320616c62756d206465207175656d6100000000000000006044820152606401610ad0565b336000908152601560209081526040808320607984529091528120805460ff1691610d0a83613b64565b825460ff9182166101009390930a9283029190920219909116179055503360009081526016602052604081208054839290610d46908490613b81565b90915550600090505b60ff8116821115610de75733600090815260156020526040812090848460ff8516818110610d7f57610d7f613a9c565b9050602002016020810190610d94919061385f565b60ff90811682526020820192909252604001600090812080549092169190610dbb83613b64565b91906101000a81548160ff021916908360ff160217905550508080610ddf90613ac8565b915050610d4f565b5033600090815260166020526040902054610e0490603c90613baa565b600003610f7157610ea33360128054610e1c90613ae7565b80601f0160208091040260200160405190810160405280929190818152602001828054610e4890613ae7565b8015610e955780601f10610e6a57610100808354040283529160200191610e95565b820191906000526020600020905b815481529060010190602001808311610e7857829003601f168201915b505050505060796002612441565b600f54600d6000828254610eb79190613bbe565b9091555050600a5460105460405163a9059cbb60e01b815233600482015260248101919091526001600160a01b039091169063a9059cbb906044016020604051808303816000875af1158015610f11573d6000803e3d6000fd5b505050506040513d601f19601f82011682018060405250810190610f359190613bd1565b5060408051338152600260208201527f6d0344e2059f835240cb954cce07d4b26f0d0844eecc234f7ee0e292ba80a1aa91015b60405180910390a15b5050565b610f80335b826124a4565b610f9c5760405162461bcd60e51b8152600401610ad090613bee565b610b71838383612503565b60085460405163d3e6a7ad60e01b81526004810186905233916001600160a01b03169063d3e6a7ad90602401602060405180830381865afa158015610ff0573d6000803e3d6000fd5b505050506040513d601f19601f820116820180604052508101906110149190613c3b565b6001600160a01b0316146110625760405162461bcd60e51b81526020600482015260156024820152744573746520736f627265206e6f206573207475796f60581b6044820152606401610ad0565b600f8351106110b35760405162461bcd60e51b815260206004820152601960248201527f4c696d6974652064652063617274617320657863656469646f000000000000006044820152606401610ad0565b6008546040516380f2540b60e01b8152600481018690523360248201526001600160a01b03909116906380f2540b90604401600060405180830381600087803b1580156110ff57600080fd5b505af1158015611113573d6000803e3d6000fd5b505050506006600c546111269190613c58565b600c546111339190613bbe565b600d60008282546111449190613b81565b9250508190555060006111c533868660405160200161116593929190613c6c565b60408051601f1981840301815282825280516020918201207f19457468657265756d205369676e6564204d6573736167653a0a33320000000084830152603c8085019190915282518085039091018152605c909301909152815191012090565b90506112476040518060400160405280601a81526020017f6f70656e207061636b207369676e6572207265636f766572656400000000000081525061124285858080601f01602080910402602001604051908101604052809392919081815260200183838082843760009201919091525087939250506126749050565b612698565b6040805180820190915260088152676f70656e5061636b60c01b6020820152600b546112809190339088906001600160a01b03166126dd565b600b54604080516020601f86018190048102820181019092528481526001600160a01b03909216916112cf91869086908190840183828082843760009201919091525086939250506126749050565b6001600160a01b0316146113195760405162461bcd60e51b8152602060048201526011602482015270496e76616c6964207369676e617475726560781b6044820152606401610ad0565b835160005b818160ff16101561149c57858160ff168151811061133e5761133e613a9c565b602002602001015160ff1660781461138c5761138960136000888460ff168151811061136c5761136c613a9c565b602002602001015160ff16815260200190815260200160002054106113bd565b607860005260136020527fdf3e0ba85198d5d74c53175fb24486e82f8e6ac58d6fdc8357e123450eab705e54610bb9115b6113c657600080fd5b60136000878360ff16815181106113df576113df613a9c565b602002602001015160ff168152602001908152602001600020600081548092919061140990613cfa565b90915550503360009081526015602052604081208751909190889060ff851690811061143757611437613a9c565b602002602001015160ff1660ff168152602001908152602001600020600081819054906101000a900460ff168092919061147090613ac8565b91906101000a81548160ff021916908360ff16021790555050808061149490613ac8565b91505061131e565b507fbabe8f5e83e93ab103ddf917b4292a19335a5128b3530bedd896a681cdd945e33386886040516114d093929190613d13565b60405180910390a1505050505050565b33600090815260156020908152604080832060ff80861685529252909120541661151c5760405162461bcd60e51b8152600401610ad090613d47565b336001600160a01b038316036115745760405162461bcd60e51b815260206004820152601a60248201527f5472616e73662070726f706961206e6f207065726d69746964610000000000006044820152606401610ad0565b6001600160a01b0382166115ca5760405162461bcd60e51b815260206004820152601e60248201527f5175656d61646f20646520636172746173206e6f207065726d697469646f00006044820152606401610ad0565b33600090815260156020908152604080832060ff8086168552925282208054909116916115f683613b64565b82546101009290920a60ff8181021990931691831602179091556001600160a01b0384166000908152601560209081526040808320868516845290915281208054909216925061164583613ac8565b91906101000a81548160ff021916908360ff160217905550505050565b610b7183838360405180602001604052806000815250612124565b61168633610f7a565b6116a25760405162461bcd60e51b8152600401610ad090613bee565b6116ab81612726565b50565b3360009081526017602052604090205460ff166116dd5760405162461bcd60e51b8152600401610ad090613b21565b806116e730611934565b10156116f257600080fd5b80600d60008282546117049190613bbe565b9091555050600a5460405163a9059cbb60e01b8152336004820152602481018390526001600160a01b039091169063a9059cbb906044016020604051808303816000875af115801561175a573d6000803e3d6000fd5b505050506040513d601f19601f8201168201806040525081019061177e9190613bd1565b5060408051338152602081018390527f23d6711a1d031134a36921253c75aa59e967d38e369ac625992824315e204f2091015b60405180910390a150565b6000818152600260205260408120546001600160a01b03168061072d5760405162461bcd60e51b8152602060048201526018602482015277115490cdcc8c4e881a5b9d985b1a59081d1bdad95b88125160421b6044820152606401610ad0565b3360009081526017602052604090205460ff1661184b5760405162461bcd60e51b8152600401610ad090613b21565b600b80546001600160a01b0319166001600160a01b0383169081179091556040519081527fffafe5c39be83f4bcf20d7e1a150f6e21c1858ea0948315ba84b6b1c386d45bb906020016117b1565b3360009081526017602052604090205460ff166118c85760405162461bcd60e51b8152600401610ad090613b21565b6001600160a01b0381166119105760405162461bcd60e51b815260206004820152600f60248201526e496e76616c6964206164647265737360881b6044820152606401610ad0565b6001600160a01b03166000908152601760205260409020805460ff19166001179055565b60006001600160a01b03821661199e5760405162461bcd60e51b815260206004820152602960248201527f4552433732313a2061646472657373207a65726f206973206e6f7420612076616044820152683634b21037bbb732b960b91b6064820152608401610ad0565b506001600160a01b031660009081526003602052604090205490565b6119c261272f565b6119cc6000612789565b565b6008546001600160a01b03163314611a215760405162461bcd60e51b8152602060048201526016602482015275536f6c6f20636f6e747261746f206465207061636b7360501b6044820152606401610ad0565b80600d6000828254611a339190613b81565b909155505050565b3360009081526015602090815260408083206078845290915290205460ff16611a9f5760405162461bcd60e51b81526020600482015260166024820152754e6f207469656e6573206e696e67756e20616c62756d60501b6044820152606401610ad0565b600f54600d541015611aea5760405162461bcd60e51b8152602060048201526014602482015273466f6e646f7320696e737566696369656e74657360601b6044820152606401610ad0565b6000805b60798160ff161015611b805733600090815260156020908152604080832060ff80861685529252822054169003611b285760019150611b80565b33600090815260156020908152604080832060ff808616855292528220805490911691611b5483613b64565b91906101000a81548160ff021916908360ff160217905550508080611b7890613ac8565b915050611aee565b508015611bcf5760405162461bcd60e51b815260206004820152601760248201527f4d75737420636f6d706c6574652074686520616c62756d0000000000000000006044820152606401610ad0565b611c673360118054611be090613ae7565b80601f0160208091040260200160405190810160405280929190818152602001828054611c0c90613ae7565b8015611c595780601f10611c2e57610100808354040283529160200191611c59565b820191906000526020600020905b815481529060010190602001808311611c3c57829003601f168201915b505050505060786002612441565b600f54600d6000828254611c7b9190613bbe565b9091555050600a54600f5460405163a9059cbb60e01b815233600482015260248101919091526001600160a01b039091169063a9059cbb906044016020604051808303816000875af1158015611cd5573d6000803e3d6000fd5b505050506040513d601f19601f82011682018060405250810190611cf99190613bd1565b5060408051338152600160208201527f6d0344e2059f835240cb954cce07d4b26f0d0844eecc234f7ee0e292ba80a1aa91016117b1565b6060600180546109b290613ae7565b600e8054611d4c90613ae7565b80601f0160208091040260200160405190810160405280929190818152602001828054611d7890613ae7565b8015611dc55780601f10611d9a57610100808354040283529160200191611dc5565b820191906000526020600020905b815481529060010190602001808311611da857829003601f168201915b505050505081565b3360009081526017602052604090205460ff16611dfc5760405162461bcd60e51b8152600401610ad090613b21565b6011611e088382613dc3565b506012611e158282613dc3565b507fabfd337ac5625b7dc2ddd3d3bd465fb1dec15322eeeed81032268b337880bec68282604051610f68929190613e82565b336001600160a01b03841603611ead5760405162461bcd60e51b815260206004820152602560248201527f4e6f2074652070756564657320656e76696172206361727461732061207469206044820152646d69736d6f60d81b6064820152608401610ad0565b6001600160a01b038316611f125760405162461bcd60e51b815260206004820152602660248201527f4e6f20707565646573207175656d6172206361727461732064652065737461206044820152656d616e65726160d01b6064820152608401610ad0565b60005b60ff81168211156120ac5733600090815260156020526040812081858560ff8616818110611f4557611f45613a9c565b9050602002016020810190611f5a919061385f565b60ff90811682526020820192909252604001600020541611611f8e5760405162461bcd60e51b8152600401610ad090613d47565b33600090815260156020526040812090848460ff8516818110611fb357611fb3613a9c565b9050602002016020810190611fc8919061385f565b60ff90811682526020820192909252604001600090812080549092169190611fef83613b64565b91906101000a81548160ff021916908360ff1602179055505060156000856001600160a01b03166001600160a01b03168152602001908152602001600020600084848460ff1681811061204457612044613a9c565b9050602002016020810190612059919061385f565b60ff9081168252602082019290925260400160009081208054909216919061208083613ac8565b91906101000a81548160ff021916908360ff1602179055505080806120a490613ac8565b915050611f15565b50505050565b610f713383836127db565b60005b60798160ff1610156116ab5733600090815260156020908152604080832060ff8086168552925282208054909116916120f883613ac8565b91906101000a81548160ff021916908360ff16021790555050808061211c90613ac8565b9150506120c0565b61212e33836124a4565b61214a5760405162461bcd60e51b8152600401610ad090613bee565b6120ac848484846128a9565b33600090815260156020908152604080832060ff8086168552925290912054166121925760405162461bcd60e51b8152600401610ad090613d47565b33600090815260156020908152604080832060ff8086168552925282208054909116916121be83613b64565b91906101000a81548160ff021916908360ff160217905550506000600e604051806040016040528060018152602001602f60f81b8152506122018460ff166128dc565b60405180604001604052806005815260200164173539b7b760d91b8152506040516020016122329493929190613ea7565b6040516020818303038152906040529050610f7133828460ff166001612441565b60118054611d4c90613ae7565b606061072d826129dc565b60128054611d4c90613ae7565b6008546001600160a01b031633146122cb5760405162461bcd60e51b8152602060048201526016602482015275536f6c6f20636f6e747261746f206465207061636b7360501b6044820152606401610ad0565b600c55565b6001600160a01b03918216600090815260056020908152604080832093909416825291909152205460ff1690565b61230661272f565b6001600160a01b03811661236b5760405162461bcd60e51b815260206004820152602660248201527f4f776e61626c653a206e6577206f776e657220697320746865207a65726f206160448201526564647265737360d01b6064820152608401610ad0565b6116ab81612789565b6000818152600260205260409020546001600160a01b03166116ab5760405162461bcd60e51b8152602060048201526018602482015277115490cdcc8c4e881a5b9d985b1a59081d1bdad95b88125160421b6044820152606401610ad0565b600081815260046020526040902080546001600160a01b0319166001600160a01b0384169081179091558190612408826117bc565b6001600160a01b03167f8c5be1e5ebec7d5bd14f71427d1e84f3dd0314c0f7b2291e5b200ac8c7c3b92560405160405180910390a45050565b600061244c60095490565b905061245c600980546001019055565b600081815260146020526040902081815560018101849055600201805461ff00191661010060ff8516021790556124938582612ae4565b61249d8185612afe565b5050505050565b6000806124b0836117bc565b9050806001600160a01b0316846001600160a01b031614806124d757506124d781856122d0565b806124fb5750836001600160a01b03166124f084610a35565b6001600160a01b0316145b949350505050565b826001600160a01b0316612516826117bc565b6001600160a01b03161461253c5760405162461bcd60e51b8152600401610ad090613f56565b6001600160a01b03821661259e5760405162461bcd60e51b8152602060048201526024808201527f4552433732313a207472616e7366657220746f20746865207a65726f206164646044820152637265737360e01b6064820152608401610ad0565b6125ab8383836001612b91565b826001600160a01b03166125be826117bc565b6001600160a01b0316146125e45760405162461bcd60e51b8152600401610ad090613f56565b600081815260046020908152604080832080546001600160a01b03199081169091556001600160a01b0387811680865260038552838620805460001901905590871680865283862080546001019055868652600290945282852080549092168417909155905184937fddf252ad1be2c89b69c2b068fc378daa952ba7f163c4a11628f55a4df523b3ef91a4505050565b60008060006126838585612c19565b9150915061269081612c5e565b509392505050565b610f7182826040516024016126ae929190613f9b565b60408051601f198184030181529190526020810180516001600160e01b031663319af33360e01b179052612da8565b6120ac848484846040516024016126f79493929190613fc5565b60408051601f198184030181529190526020810180516001600160e01b03166363fb8bc560e01b179052612da8565b6116ab81612db1565b6007546001600160a01b031633146119cc5760405162461bcd60e51b815260206004820181905260248201527f4f776e61626c653a2063616c6c6572206973206e6f7420746865206f776e65726044820152606401610ad0565b600780546001600160a01b038381166001600160a01b0319831681179093556040519116919082907f8be0079c531659141344cd1fd0a4f28419497f9722a3daafe3b4186f6b6457e090600090a35050565b816001600160a01b0316836001600160a01b03160361283c5760405162461bcd60e51b815260206004820152601960248201527f4552433732313a20617070726f766520746f2063616c6c6572000000000000006044820152606401610ad0565b6001600160a01b03838116600081815260056020908152604080832094871680845294825291829020805460ff191686151590811790915591519182527f17307eab39ab6107e8899845ad3d59bd9653f200f220920489ca2b5937696c31910160405180910390a3505050565b6128b4848484612503565b6128c084848484612df1565b6120ac5760405162461bcd60e51b8152600401610ad090614001565b6060816000036129035750506040805180820190915260018152600360fc1b602082015290565b8160005b811561292d578061291781613cfa565b91506129269050600a83613c58565b9150612907565b6000816001600160401b03811115612947576129476136b1565b6040519080825280601f01601f191660200182016040528015612971576020820181803683370190505b5090505b84156124fb57612986600183613bbe565b9150612993600a86613baa565b61299e906030613b81565b60f81b8183815181106129b3576129b3613a9c565b60200101906001600160f81b031916908160001a9053506129d5600a86613c58565b9450612975565b60606129e782612374565b60008281526006602052604081208054612a0090613ae7565b80601f0160208091040260200160405190810160405280929190818152602001828054612a2c90613ae7565b8015612a795780601f10612a4e57610100808354040283529160200191612a79565b820191906000526020600020905b815481529060010190602001808311612a5c57829003601f168201915b505050505090506000612a9760408051602081019091526000815290565b90508051600003612aa9575092915050565b815115612adb578082604051602001612ac3929190614053565b60405160208183030381529060405292505050919050565b6124fb84612ef2565b610f71828260405180602001604052806000815250612f66565b6000828152600260205260409020546001600160a01b0316612b795760405162461bcd60e51b815260206004820152602e60248201527f45524337323155524953746f726167653a2055524920736574206f66206e6f6e60448201526d32bc34b9ba32b73a103a37b5b2b760911b6064820152608401610ad0565b6000828152600660205260409020610b718282613dc3565b60018111156120ac576001600160a01b03841615612bd7576001600160a01b03841660009081526003602052604081208054839290612bd1908490613bbe565b90915550505b6001600160a01b038316156120ac576001600160a01b03831660009081526003602052604081208054839290612c0e908490613b81565b909155505050505050565b6000808251604103612c4f5760208301516040840151606085015160001a612c4387828585612f99565b94509450505050612c57565b506000905060025b9250929050565b6000816004811115612c7257612c72614082565b03612c7a5750565b6001816004811115612c8e57612c8e614082565b03612cdb5760405162461bcd60e51b815260206004820152601860248201527f45434453413a20696e76616c6964207369676e617475726500000000000000006044820152606401610ad0565b6002816004811115612cef57612cef614082565b03612d3c5760405162461bcd60e51b815260206004820152601f60248201527f45434453413a20696e76616c6964207369676e6174757265206c656e677468006044820152606401610ad0565b6003816004811115612d5057612d50614082565b036116ab5760405162461bcd60e51b815260206004820152602260248201527f45434453413a20696e76616c6964207369676e6174757265202773272076616c604482015261756560f01b6064820152608401610ad0565b6116ab8161305d565b612dba8161307e565b60008181526006602052604090208054612dd390613ae7565b1590506116ab5760008181526006602052604081206116ab91613424565b60006001600160a01b0384163b15612ee757604051630a85bd0160e11b81526001600160a01b0385169063150b7a0290612e35903390899088908890600401614098565b6020604051808303816000875af1925050508015612e70575060408051601f3d908101601f19168201909252612e6d918101906140d5565b60015b612ecd573d808015612e9e576040519150601f19603f3d011682016040523d82523d6000602084013e612ea3565b606091505b508051600003612ec55760405162461bcd60e51b8152600401610ad090614001565b805181602001fd5b6001600160e01b031916630a85bd0160e11b1490506124fb565b506001949350505050565b6060612efd82612374565b6000612f1460408051602081019091526000815290565b90506000815111612f345760405180602001604052806000815250612f5f565b80612f3e84613121565b604051602001612f4f929190614053565b6040516020818303038152906040525b9392505050565b612f7083836131b3565b612f7d6000848484612df1565b610b715760405162461bcd60e51b8152600401610ad090614001565b6000807f7fffffffffffffffffffffffffffffff5d576e7357a4501ddfe92f46681b20a0831115612fd05750600090506003613054565b6040805160008082526020820180845289905260ff881692820192909252606081018690526080810185905260019060a0016020604051602081039080840390855afa158015613024573d6000803e3d6000fd5b5050604051601f1901519150506001600160a01b03811661304d57600060019250925050613054565b9150600090505b94509492505050565b60006a636f6e736f6c652e6c6f679050600080835160208501845afa505050565b6000613089826117bc565b9050613099816000846001612b91565b6130a2826117bc565b600083815260046020908152604080832080546001600160a01b03199081169091556001600160a01b0385168085526003845282852080546000190190558785526002909352818420805490911690555192935084927fddf252ad1be2c89b69c2b068fc378daa952ba7f163c4a11628f55a4df523b3ef908390a45050565b6060600061312e8361334c565b60010190506000816001600160401b0381111561314d5761314d6136b1565b6040519080825280601f01601f191660200182016040528015613177576020820181803683370190505b5090508181016020015b600019016f181899199a1a9b1b9c1cb0b131b232b360811b600a86061a8153600a850494508461318157509392505050565b6001600160a01b0382166132095760405162461bcd60e51b815260206004820181905260248201527f4552433732313a206d696e7420746f20746865207a65726f20616464726573736044820152606401610ad0565b6000818152600260205260409020546001600160a01b03161561326e5760405162461bcd60e51b815260206004820152601c60248201527f4552433732313a20746f6b656e20616c7265616479206d696e746564000000006044820152606401610ad0565b61327c600083836001612b91565b6000818152600260205260409020546001600160a01b0316156132e15760405162461bcd60e51b815260206004820152601c60248201527f4552433732313a20746f6b656e20616c7265616479206d696e746564000000006044820152606401610ad0565b6001600160a01b038216600081815260036020908152604080832080546001019055848352600290915280822080546001600160a01b0319168417905551839291907fddf252ad1be2c89b69c2b068fc378daa952ba7f163c4a11628f55a4df523b3ef908290a45050565b60008072184f03e93ff9f4daa797ed6e38ed64bf6a1f0160401b831061338b5772184f03e93ff9f4daa797ed6e38ed64bf6a1f0160401b830492506040015b6d04ee2d6d415b85acef810000000083106133b7576d04ee2d6d415b85acef8100000000830492506020015b662386f26fc1000083106133d557662386f26fc10000830492506010015b6305f5e10083106133ed576305f5e100830492506008015b612710831061340157612710830492506004015b60648310613413576064830492506002015b600a831061072d5760010192915050565b50805461343090613ae7565b6000825580601f10613440575050565b601f0160209004906000526020600020908101906116ab91905b8082111561346e576000815560010161345a565b5090565b6001600160e01b0319811681146116ab57600080fd5b60006020828403121561349a57600080fd5b8135612f5f81613472565b6001600160a01b03811681146116ab57600080fd5b6000602082840312156134cc57600080fd5b8135612f5f816134a5565b600081518084526020808501945080840160005b8381101561350a57815160ff16875295820195908201906001016134eb565b509495945050505050565b60408152600061352860408301856134d7565b828103602084015261353a81856134d7565b95945050505050565b60005b8381101561355e578181015183820152602001613546565b50506000910152565b6000815180845261357f816020860160208601613543565b601f01601f19169290920160200192915050565b602081526000612f5f6020830184613567565b6000602082840312156135b857600080fd5b5035919050565b600080604083850312156135d257600080fd5b82356135dd816134a5565b946020939093013593505050565b60008083601f8401126135fd57600080fd5b5081356001600160401b0381111561361457600080fd5b6020830191508360208260051b8501011115612c5757600080fd5b6000806020838503121561364257600080fd5b82356001600160401b0381111561365857600080fd5b613664858286016135eb565b90969095509350505050565b60008060006060848603121561368557600080fd5b8335613690816134a5565b925060208401356136a0816134a5565b929592945050506040919091013590565b634e487b7160e01b600052604160045260246000fd5b604051601f8201601f191681016001600160401b03811182821017156136ef576136ef6136b1565b604052919050565b803560ff8116811461370857600080fd5b919050565b60008083601f84011261371f57600080fd5b5081356001600160401b0381111561373657600080fd5b602083019150836020828501011115612c5757600080fd5b6000806000806060858703121561376457600080fd5b843593506020808601356001600160401b038082111561378357600080fd5b818801915088601f83011261379757600080fd5b8135818111156137a9576137a96136b1565b8060051b6137b88582016136c7565b918252838101850191858101908c8411156137d257600080fd5b948601945b838610156137f7576137e8866136f7565b825294860194908601906137d7565b9850505050604088013592508083111561381057600080fd5b505061381e8782880161370d565b95989497509550505050565b6000806040838503121561383d57600080fd5b8235613848816134a5565b9150613856602084016136f7565b90509250929050565b60006020828403121561387157600080fd5b612f5f826136f7565b60006001600160401b03831115613893576138936136b1565b6138a6601f8401601f19166020016136c7565b90508281528383830111156138ba57600080fd5b828260208301376000602084830101529392505050565b600082601f8301126138e257600080fd5b612f5f8383356020850161387a565b6000806040838503121561390457600080fd5b82356001600160401b038082111561391b57600080fd5b613927868387016138d1565b9350602085013591508082111561393d57600080fd5b5061394a858286016138d1565b9150509250929050565b60008060006040848603121561396957600080fd5b8335613974816134a5565b925060208401356001600160401b0381111561398f57600080fd5b61399b868287016135eb565b9497909650939450505050565b80151581146116ab57600080fd5b600080604083850312156139c957600080fd5b82356139d4816134a5565b915060208301356139e4816139a8565b809150509250929050565b60008060008060808587031215613a0557600080fd5b8435613a10816134a5565b93506020850135613a20816134a5565b92506040850135915060608501356001600160401b03811115613a4257600080fd5b8501601f81018713613a5357600080fd5b613a628782356020840161387a565b91505092959194509250565b60008060408385031215613a8157600080fd5b8235613a8c816134a5565b915060208301356139e4816134a5565b634e487b7160e01b600052603260045260246000fd5b634e487b7160e01b600052601160045260246000fd5b600060ff821660ff8103613ade57613ade613ab2565b60010192915050565b600181811c90821680613afb57607f821691505b602082108103613b1b57634e487b7160e01b600052602260045260246000fd5b50919050565b60208082526023908201527f4f6e6c79206f776e6572732063616e2063616c6c20746869732066756e63746960408201526237b71760e91b606082015260800190565b600060ff821680613b7757613b77613ab2565b6000190192915050565b8082018082111561072d5761072d613ab2565b634e487b7160e01b600052601260045260246000fd5b600082613bb957613bb9613b94565b500690565b8181038181111561072d5761072d613ab2565b600060208284031215613be357600080fd5b8151612f5f816139a8565b6020808252602d908201527f4552433732313a2063616c6c6572206973206e6f7420746f6b656e206f776e6560408201526c1c881bdc88185c1c1c9bdd9959609a1b606082015260800190565b600060208284031215613c4d57600080fd5b8151612f5f816134a5565b600082613c6757613c67613b94565b500490565b6bffffffffffffffffffffffff198460601b1681528260148201526000603482018351602080860160005b83811015613cb657815160ff1685529382019390820190600101613c97565b50507f30786631644437313839356534396231353633363933393639646535303839388352693139376344463334383160b01b9083015250602a0195945050505050565b600060018201613d0c57613d0c613ab2565b5060010190565b6001600160a01b0384168152606060208201819052600090613d37908301856134d7565b9050826040830152949350505050565b6020808252601490820152734e6f207469656e6573206573746120636172746160601b604082015260600190565b601f821115610b7157600081815260208120601f850160051c81016020861015613d9c5750805b601f850160051c820191505b81811015613dbb57828155600101613da8565b505050505050565b81516001600160401b03811115613ddc57613ddc6136b1565b613df081613dea8454613ae7565b84613d75565b602080601f831160018114613e255760008415613e0d5750858301515b600019600386901b1c1916600185901b178555613dbb565b600085815260208120601f198616915b82811015613e5457888601518255948401946001909101908401613e35565b5085821015613e725787850151600019600388901b60f8161c191681555b5050505050600190811b01905550565b604081526000613e956040830185613567565b828103602084015261353a8185613567565b6000808654613eb581613ae7565b60018281168015613ecd5760018114613ee257613f11565b60ff1984168752821515830287019450613f11565b8a60005260208060002060005b85811015613f085781548a820152908401908201613eef565b50505082870194505b505050508551613f25818360208a01613543565b8551910190613f38818360208901613543565b8451910190613f4b818360208801613543565b019695505050505050565b60208082526025908201527f4552433732313a207472616e736665722066726f6d20696e636f72726563742060408201526437bbb732b960d91b606082015260800190565b604081526000613fae6040830185613567565b905060018060a01b03831660208301529392505050565b608081526000613fd86080830187613567565b6001600160a01b0395861660208401526040830194909452509216606090920191909152919050565b60208082526032908201527f4552433732313a207472616e7366657220746f206e6f6e20455243373231526560408201527131b2b4bb32b91034b6b83632b6b2b73a32b960711b606082015260800190565b60008351614065818460208801613543565b835190830190614079818360208801613543565b01949350505050565b634e487b7160e01b600052602160045260246000fd5b6001600160a01b03858116825284166020820152604081018390526080606082018190526000906140cb90830184613567565b9695505050505050565b6000602082840312156140e757600080fd5b8151612f5f8161347256fea2646970667358221220581ccfeac7c0a99d0d2fa122693fadee063bd9d8665380356de45f9bf6a7ce0d64736f6c63430008120033",
  "linkReferences": {},
  "deployedLinkReferences": {}
}