{
  "_format": "hh-sol-artifact-1",
  "contractName": "NofGammaCardsV2",
  "sourceName": "contracts/gamma/GammaCards.v2.sol",
  "abi": [
    {
      "inputs": [
        {
          "internalType": "address",
          "name": "_daiTokenAddress",
          "type": "address"
        },
        {
          "internalType": "address",
          "name": "_packsContract",
          "type": "address"
        },
        {
          "internalType": "string",
          "name": "_baseUri",
          "type": "string"
        },
        {
          "internalType": "address",
          "name": "_signer",
          "type": "address"
        }
      ],
      "stateMutability": "nonpayable",
      "type": "constructor"
    },
    {
      "anonymous": false,
      "inputs": [
        {
          "indexed": false,
          "internalType": "address",
          "name": "player",
          "type": "address"
        },
        {
          "indexed": false,
          "internalType": "uint8",
          "name": "albumClass",
          "type": "uint8"
        }
      ],
      "name": "AlbumCompleted",
      "type": "event"
    },
    {
      "anonymous": false,
      "inputs": [
        {
          "indexed": true,
          "internalType": "address",
          "name": "owner",
          "type": "address"
        },
        {
          "indexed": true,
          "internalType": "address",
          "name": "approved",
          "type": "address"
        },
        {
          "indexed": true,
          "internalType": "uint256",
          "name": "tokenId",
          "type": "uint256"
        }
      ],
      "name": "Approval",
      "type": "event"
    },
    {
      "anonymous": false,
      "inputs": [
        {
          "indexed": true,
          "internalType": "address",
          "name": "owner",
          "type": "address"
        },
        {
          "indexed": true,
          "internalType": "address",
          "name": "operator",
          "type": "address"
        },
        {
          "indexed": false,
          "internalType": "bool",
          "name": "approved",
          "type": "bool"
        }
      ],
      "name": "ApprovalForAll",
      "type": "event"
    },
    {
      "anonymous": false,
      "inputs": [
        {
          "indexed": false,
          "internalType": "address",
          "name": "player",
          "type": "address"
        },
        {
          "indexed": false,
          "internalType": "uint256",
          "name": "cardTokenId",
          "type": "uint256"
        },
        {
          "indexed": false,
          "internalType": "uint256",
          "name": "albumTokenId",
          "type": "uint256"
        }
      ],
      "name": "CardPasted",
      "type": "event"
    },
    {
      "anonymous": false,
      "inputs": [
        {
          "indexed": false,
          "internalType": "address",
          "name": "receiver",
          "type": "address"
        },
        {
          "indexed": false,
          "internalType": "uint256",
          "name": "amount",
          "type": "uint256"
        }
      ],
      "name": "EmergencyWithdrawal",
      "type": "event"
    },
    {
      "anonymous": false,
      "inputs": [
        {
          "indexed": false,
          "internalType": "address",
          "name": "newSigner",
          "type": "address"
        }
      ],
      "name": "NewSigner",
      "type": "event"
    },
    {
      "anonymous": false,
      "inputs": [
        {
          "indexed": false,
          "internalType": "string",
          "name": "newMainUri",
          "type": "string"
        },
        {
          "indexed": false,
          "internalType": "string",
          "name": "newSecondaryUri",
          "type": "string"
        }
      ],
      "name": "NewUris",
      "type": "event"
    },
    {
      "anonymous": false,
      "inputs": [
        {
          "indexed": true,
          "internalType": "address",
          "name": "previousOwner",
          "type": "address"
        },
        {
          "indexed": true,
          "internalType": "address",
          "name": "newOwner",
          "type": "address"
        }
      ],
      "name": "OwnershipTransferred",
      "type": "event"
    },
    {
      "anonymous": false,
      "inputs": [
        {
          "indexed": false,
          "internalType": "address",
          "name": "player",
          "type": "address"
        },
        {
          "indexed": false,
          "internalType": "uint8[]",
          "name": "packData",
          "type": "uint8[]"
        },
        {
          "indexed": false,
          "internalType": "uint256",
          "name": "packNumber",
          "type": "uint256"
        }
      ],
      "name": "PackOpened",
      "type": "event"
    },
    {
      "anonymous": false,
      "inputs": [
        {
          "indexed": true,
          "internalType": "address",
          "name": "from",
          "type": "address"
        },
        {
          "indexed": true,
          "internalType": "address",
          "name": "to",
          "type": "address"
        },
        {
          "indexed": true,
          "internalType": "uint256",
          "name": "tokenId",
          "type": "uint256"
        }
      ],
      "name": "Transfer",
      "type": "event"
    },
    {
      "inputs": [],
      "name": "DAI_TOKEN",
      "outputs": [
        {
          "internalType": "address",
          "name": "",
          "type": "address"
        }
      ],
      "stateMutability": "view",
      "type": "function"
    },
    {
      "inputs": [
        {
          "internalType": "address",
          "name": "_newOwner",
          "type": "address"
        }
      ],
      "name": "addOwner",
      "outputs": [],
      "stateMutability": "nonpayable",
      "type": "function"
    },
    {
      "inputs": [
        {
          "internalType": "address",
          "name": "to",
          "type": "address"
        },
        {
          "internalType": "uint256",
          "name": "tokenId",
          "type": "uint256"
        }
      ],
      "name": "approve",
      "outputs": [],
      "stateMutability": "nonpayable",
      "type": "function"
    },
    {
      "inputs": [
        {
          "internalType": "address",
          "name": "owner",
          "type": "address"
        }
      ],
      "name": "balanceOf",
      "outputs": [
        {
          "internalType": "uint256",
          "name": "",
          "type": "uint256"
        }
      ],
      "stateMutability": "view",
      "type": "function"
    },
    {
      "inputs": [],
      "name": "baseUri",
      "outputs": [
        {
          "internalType": "string",
          "name": "",
          "type": "string"
        }
      ],
      "stateMutability": "view",
      "type": "function"
    },
    {
      "inputs": [
        {
          "internalType": "uint256",
          "name": "tokenId",
          "type": "uint256"
        }
      ],
      "name": "burn",
      "outputs": [],
      "stateMutability": "nonpayable",
      "type": "function"
    },
    {
      "inputs": [
        {
          "internalType": "uint8[]",
          "name": "cardNumbers",
          "type": "uint8[]"
        }
      ],
      "name": "burnCards",
      "outputs": [],
      "stateMutability": "nonpayable",
      "type": "function"
    },
    {
      "inputs": [
        {
          "internalType": "address",
          "name": "user",
          "type": "address"
        }
      ],
      "name": "burnedCards",
      "outputs": [
        {
          "internalType": "uint256",
          "name": "amount",
          "type": "uint256"
        }
      ],
      "stateMutability": "view",
      "type": "function"
    },
    {
      "inputs": [
        {
          "internalType": "uint256",
          "name": "tokenId",
          "type": "uint256"
        }
      ],
      "name": "cards",
      "outputs": [
        {
          "internalType": "uint256",
          "name": "tokenId",
          "type": "uint256"
        },
        {
          "internalType": "uint256",
          "name": "number",
          "type": "uint256"
        },
        {
          "internalType": "bool",
          "name": "pasted",
          "type": "bool"
        },
        {
          "internalType": "uint8",
          "name": "class",
          "type": "uint8"
        },
        {
          "internalType": "uint256",
          "name": "completion",
          "type": "uint256"
        }
      ],
      "stateMutability": "view",
      "type": "function"
    },
    {
      "inputs": [
        {
          "internalType": "address",
          "name": "user",
          "type": "address"
        },
        {
          "internalType": "uint8",
          "name": "cardNumber",
          "type": "uint8"
        }
      ],
      "name": "cardsByUser",
      "outputs": [
        {
          "internalType": "uint8",
          "name": "amount",
          "type": "uint8"
        }
      ],
      "stateMutability": "view",
      "type": "function"
    },
    {
      "inputs": [
        {
          "internalType": "uint256",
          "name": "cardNumber",
          "type": "uint256"
        }
      ],
      "name": "cardsInventory",
      "outputs": [
        {
          "internalType": "uint256",
          "name": "amount",
          "type": "uint256"
        }
      ],
      "stateMutability": "view",
      "type": "function"
    },
    {
      "inputs": [
        {
          "internalType": "uint256",
          "name": "newPackPrice",
          "type": "uint256"
        }
      ],
      "name": "changePackPrice",
      "outputs": [],
      "stateMutability": "nonpayable",
      "type": "function"
    },
    {
      "inputs": [
        {
          "internalType": "uint256",
          "name": "amount",
          "type": "uint256"
        }
      ],
      "name": "emergencyWithdraw",
      "outputs": [],
      "stateMutability": "nonpayable",
      "type": "function"
    },
    {
      "inputs": [],
      "name": "finishAlbum",
      "outputs": [],
      "stateMutability": "nonpayable",
      "type": "function"
    },
    {
      "inputs": [
        {
          "internalType": "uint256",
          "name": "tokenId",
          "type": "uint256"
        }
      ],
      "name": "getApproved",
      "outputs": [
        {
          "internalType": "address",
          "name": "",
          "type": "address"
        }
      ],
      "stateMutability": "view",
      "type": "function"
    },
    {
      "inputs": [
        {
          "internalType": "address",
          "name": "user",
          "type": "address"
        }
      ],
      "name": "getCardsByUser",
      "outputs": [
        {
          "internalType": "uint8[]",
          "name": "",
          "type": "uint8[]"
        },
        {
          "internalType": "uint8[]",
          "name": "",
          "type": "uint8[]"
        }
      ],
      "stateMutability": "view",
      "type": "function"
    },
    {
      "inputs": [
        {
          "internalType": "address",
          "name": "owner",
          "type": "address"
        },
        {
          "internalType": "address",
          "name": "operator",
          "type": "address"
        }
      ],
      "name": "isApprovedForAll",
      "outputs": [
        {
          "internalType": "bool",
          "name": "",
          "type": "bool"
        }
      ],
      "stateMutability": "view",
      "type": "function"
    },
    {
      "inputs": [],
      "name": "mainAlbumPrize",
      "outputs": [
        {
          "internalType": "uint256",
          "name": "",
          "type": "uint256"
        }
      ],
      "stateMutability": "view",
      "type": "function"
    },
    {
      "inputs": [],
      "name": "mainUri",
      "outputs": [
        {
          "internalType": "string",
          "name": "",
          "type": "string"
        }
      ],
      "stateMutability": "view",
      "type": "function"
    },
    {
      "inputs": [
        {
          "internalType": "uint8",
          "name": "cardNum",
          "type": "uint8"
        }
      ],
      "name": "mintCard",
      "outputs": [],
      "stateMutability": "nonpayable",
      "type": "function"
    },
    {
      "inputs": [],
      "name": "name",
      "outputs": [
        {
          "internalType": "string",
          "name": "",
          "type": "string"
        }
      ],
      "stateMutability": "view",
      "type": "function"
    },
    {
      "inputs": [
        {
          "internalType": "uint256",
          "name": "packNumber",
          "type": "uint256"
        },
        {
          "internalType": "uint8[]",
          "name": "packData",
          "type": "uint8[]"
        },
        {
          "internalType": "bytes",
          "name": "signature",
          "type": "bytes"
        }
      ],
      "name": "openPack",
      "outputs": [],
      "stateMutability": "nonpayable",
      "type": "function"
    },
    {
      "inputs": [],
      "name": "owner",
      "outputs": [
        {
          "internalType": "address",
          "name": "",
          "type": "address"
        }
      ],
      "stateMutability": "view",
      "type": "function"
    },
    {
      "inputs": [
        {
          "internalType": "uint256",
          "name": "tokenId",
          "type": "uint256"
        }
      ],
      "name": "ownerOf",
      "outputs": [
        {
          "internalType": "address",
          "name": "",
          "type": "address"
        }
      ],
      "stateMutability": "view",
      "type": "function"
    },
    {
      "inputs": [
        {
          "internalType": "address",
          "name": "",
          "type": "address"
        }
      ],
      "name": "owners",
      "outputs": [
        {
          "internalType": "bool",
          "name": "",
          "type": "bool"
        }
      ],
      "stateMutability": "view",
      "type": "function"
    },
    {
      "inputs": [],
      "name": "packPrice",
      "outputs": [
        {
          "internalType": "uint256",
          "name": "",
          "type": "uint256"
        }
      ],
      "stateMutability": "view",
      "type": "function"
    },
    {
      "inputs": [],
      "name": "packsContract",
      "outputs": [
        {
          "internalType": "contract IGammaPacks",
          "name": "",
          "type": "address"
        }
      ],
      "stateMutability": "view",
      "type": "function"
    },
    {
      "inputs": [],
      "name": "prizesBalance",
      "outputs": [
        {
          "internalType": "uint256",
          "name": "",
          "type": "uint256"
        }
      ],
      "stateMutability": "view",
      "type": "function"
    },
    {
      "inputs": [
        {
          "internalType": "uint256",
          "name": "amount",
          "type": "uint256"
        }
      ],
      "name": "receivePrizesBalance",
      "outputs": [],
      "stateMutability": "nonpayable",
      "type": "function"
    },
    {
      "inputs": [
        {
          "internalType": "address",
          "name": "_ownerToRemove",
          "type": "address"
        }
      ],
      "name": "removeOwner",
      "outputs": [],
      "stateMutability": "nonpayable",
      "type": "function"
    },
    {
      "inputs": [],
      "name": "renounceOwnership",
      "outputs": [],
      "stateMutability": "nonpayable",
      "type": "function"
    },
    {
      "inputs": [
        {
          "internalType": "address",
          "name": "from",
          "type": "address"
        },
        {
          "internalType": "address",
          "name": "to",
          "type": "address"
        },
        {
          "internalType": "uint256",
          "name": "tokenId",
          "type": "uint256"
        }
      ],
      "name": "safeTransferFrom",
      "outputs": [],
      "stateMutability": "nonpayable",
      "type": "function"
    },
    {
      "inputs": [
        {
          "internalType": "address",
          "name": "from",
          "type": "address"
        },
        {
          "internalType": "address",
          "name": "to",
          "type": "address"
        },
        {
          "internalType": "uint256",
          "name": "tokenId",
          "type": "uint256"
        },
        {
          "internalType": "bytes",
          "name": "data",
          "type": "bytes"
        }
      ],
      "name": "safeTransferFrom",
      "outputs": [],
      "stateMutability": "nonpayable",
      "type": "function"
    },
    {
      "inputs": [],
      "name": "secondaryAlbumPrize",
      "outputs": [
        {
          "internalType": "uint256",
          "name": "",
          "type": "uint256"
        }
      ],
      "stateMutability": "view",
      "type": "function"
    },
    {
      "inputs": [],
      "name": "secondaryUri",
      "outputs": [
        {
          "internalType": "string",
          "name": "",
          "type": "string"
        }
      ],
      "stateMutability": "view",
      "type": "function"
    },
    {
      "inputs": [
        {
          "internalType": "address",
          "name": "operator",
          "type": "address"
        },
        {
          "internalType": "bool",
          "name": "approved",
          "type": "bool"
        }
      ],
      "name": "setApprovalForAll",
      "outputs": [],
      "stateMutability": "nonpayable",
      "type": "function"
    },
    {
      "inputs": [
        {
          "internalType": "address",
          "name": "newSigner",
          "type": "address"
        }
      ],
      "name": "setSigner",
      "outputs": [],
      "stateMutability": "nonpayable",
      "type": "function"
    },
    {
      "inputs": [
        {
          "internalType": "string",
          "name": "newMainUri",
          "type": "string"
        },
        {
          "internalType": "string",
          "name": "newSecondaryUri",
          "type": "string"
        }
      ],
      "name": "setUris",
      "outputs": [],
      "stateMutability": "nonpayable",
      "type": "function"
    },
    {
      "inputs": [],
      "name": "signer",
      "outputs": [
        {
          "internalType": "address",
          "name": "",
          "type": "address"
        }
      ],
      "stateMutability": "view",
      "type": "function"
    },
    {
      "inputs": [
        {
          "internalType": "bytes4",
          "name": "interfaceId",
          "type": "bytes4"
        }
      ],
      "name": "supportsInterface",
      "outputs": [
        {
          "internalType": "bool",
          "name": "",
          "type": "bool"
        }
      ],
      "stateMutability": "view",
      "type": "function"
    },
    {
      "inputs": [],
      "name": "symbol",
      "outputs": [
        {
          "internalType": "string",
          "name": "",
          "type": "string"
        }
      ],
      "stateMutability": "view",
      "type": "function"
    },
    {
      "inputs": [],
      "name": "testAddCards",
      "outputs": [],
      "stateMutability": "nonpayable",
      "type": "function"
    },
    {
      "inputs": [
        {
          "internalType": "uint256",
          "name": "tokenId",
          "type": "uint256"
        }
      ],
      "name": "tokenURI",
      "outputs": [
        {
          "internalType": "string",
          "name": "",
          "type": "string"
        }
      ],
      "stateMutability": "view",
      "type": "function"
    },
    {
      "inputs": [
        {
          "internalType": "address",
          "name": "to",
          "type": "address"
        },
        {
          "internalType": "uint8",
          "name": "cardNumber",
          "type": "uint8"
        }
      ],
      "name": "transferCard",
      "outputs": [],
      "stateMutability": "nonpayable",
      "type": "function"
    },
    {
      "inputs": [
        {
          "internalType": "address",
          "name": "to",
          "type": "address"
        },
        {
          "internalType": "uint8[]",
          "name": "cardNumbers",
          "type": "uint8[]"
        }
      ],
      "name": "transferCards",
      "outputs": [],
      "stateMutability": "nonpayable",
      "type": "function"
    },
    {
      "inputs": [
        {
          "internalType": "address",
          "name": "from",
          "type": "address"
        },
        {
          "internalType": "address",
          "name": "to",
          "type": "address"
        },
        {
          "internalType": "uint256",
          "name": "tokenId",
          "type": "uint256"
        }
      ],
      "name": "transferFrom",
      "outputs": [],
      "stateMutability": "nonpayable",
      "type": "function"
    },
    {
      "inputs": [
        {
          "internalType": "address",
          "name": "newOwner",
          "type": "address"
        }
      ],
      "name": "transferOwnership",
      "outputs": [],
      "stateMutability": "nonpayable",
      "type": "function"
    }
  ],
  "bytecode": "0x60806040526710a741a462780000600c5567d02ab486cedc0000600f55670de0b6b3a76400006010553480156200003557600080fd5b506040516200465438038062004654833981016040819052620000589162000336565b6040518060400160405280600a81526020016947616d6d61436172647360b01b815250604051806040016040528060068152602001654e4f465f474360d01b8152508160009081620000ab9190620004b8565b506001620000ba8282620004b8565b505050620000d7620000d16200028760201b60201c565b6200028b565b600880546001600160a01b038086166001600160a01b031992831617909255600a805492871692909116919091179055600e620001158382620004b8565b5060408051808201825260018152602f60f81b60208083019190915282518084018452600381526203132360ec1b8183015283518085018552600681526523173539b7b760d11b8184015293516200017494600e949390910162000584565b60405160208183030381529060405260119081620001939190620004b8565b5060408051808201825260018152602f60f81b60208083019190915282518084018452600381526231323160e81b8183015283518085018552600681526523173539b7b760d11b818401529351620001f294600e949390910162000584565b60405160208183030381529060405260129081620002119190620004b8565b50600b80546001600160a01b0319166001600160a01b03831617905560005b607a811015620002615760008181526013602052604090206001905580620002588162000641565b91505062000230565b5050336000908152601760205260409020805460ff191660011790555062000669915050565b3390565b600780546001600160a01b038381166001600160a01b0319831681179093556040519116919082907f8be0079c531659141344cd1fd0a4f28419497f9722a3daafe3b4186f6b6457e090600090a35050565b80516001600160a01b0381168114620002f557600080fd5b919050565b634e487b7160e01b600052604160045260246000fd5b60005b838110156200032d57818101518382015260200162000313565b50506000910152565b600080600080608085870312156200034d57600080fd5b6200035885620002dd565b93506200036860208601620002dd565b60408601519093506001600160401b03808211156200038657600080fd5b818701915087601f8301126200039b57600080fd5b815181811115620003b057620003b0620002fa565b604051601f8201601f19908116603f01168101908382118183101715620003db57620003db620002fa565b816040528281528a6020848701011115620003f557600080fd5b6200040883602083016020880162000310565b80965050505050506200041e60608601620002dd565b905092959194509250565b600181811c908216806200043e57607f821691505b6020821081036200045f57634e487b7160e01b600052602260045260246000fd5b50919050565b601f821115620004b357600081815260208120601f850160051c810160208610156200048e5750805b601f850160051c820191505b81811015620004af578281556001016200049a565b5050505b505050565b81516001600160401b03811115620004d457620004d4620002fa565b620004ec81620004e5845462000429565b8462000465565b602080601f8311600181146200052457600084156200050b5750858301515b600019600386901b1c1916600185901b178555620004af565b600085815260208120601f198616915b82811015620005555788860151825594840194600190910190840162000534565b5085821015620005745787850151600019600388901b60f8161c191681555b5050505050600190811b01905550565b6000808654620005948162000429565b60018281168015620005af5760018114620005c557620005f6565b60ff1984168752821515830287019450620005f6565b8a60005260208060002060005b85811015620005ed5781548a820152908401908201620005d2565b50505082870194505b5050505085516200060c818360208a0162000310565b85519101906200062181836020890162000310565b84519101906200063681836020880162000310565b019695505050505050565b6000600182016200066257634e487b7160e01b600052601160045260246000fd5b5060010190565b613fdb80620006796000396000f3fe608060405234801561001057600080fd5b50600436106102955760003560e01c80637e50fa8f11610167578063a22cb465116100ce578063dec3f6d911610087578063dec3f6d914610646578063e1883c6e1461064e578063e5db587a14610661578063e606df871461066a578063e985e9c51461067d578063f2fde38b1461069057600080fd5b8063a22cb465146105ea578063aaaeca17146105fd578063b88d4fde14610605578063bf400a6a14610618578063c3461c071461062b578063c87b56dd1461063357600080fd5b80639038f414116101205780639038f414146105a357806395d89b41146105ab5780639abc8320146105b35780639c7f707f146105bb5780639f4415d8146105ce578063a1af8ad4146105d757600080fd5b80637e50fa8f1461049a578063809eb355146104ba5780638ba526fc146104fa5780638da5cb5b1461050d5780638dc107681461051e5780638dd8be471461059057600080fd5b80632ca699e71161020b5780635dde20d8116101c45780635dde20d8146104265780636352211e146104465780636c19e783146104595780637065cb481461046c57806370a082311461047f578063715018a61461049257600080fd5b80632ca699e7146103ba578063335c8b63146103cd57806342842e0e146103e457806342966c68146103f7578063483823e81461040a5780635312ea8e1461041357600080fd5b8063095ea7b31161025d578063095ea7b314610346578063173825d91461035b57806320965a5f1461036e578063238ac9331461038157806323b872dd14610394578063267b841d146103a757600080fd5b806301ffc9a71461029a578063022914a7146102c25780630435dcaf146102e557806306fdde0314610306578063081812fc1461031b575b600080fd5b6102ad6102a8366004613373565b6106a3565b60405190151581526020015b60405180910390f35b6102ad6102d03660046133a5565b60176020526000908152604090205460ff1681565b6102f86102f33660046133a5565b6106f5565b6040516102b9929190613400565b61030e610965565b6040516102b9919061347e565b61032e610329366004613491565b6109f7565b6040516001600160a01b0390911681526020016102b9565b6103596103543660046134aa565b610a1e565b005b6103596103693660046133a5565b610b38565b61035961037c36600461351a565b610c37565b600b5461032e906001600160a01b031681565b6103596103a236600461355b565b610f37565b6103596103b5366004613639565b610f69565b6103596103c8366004613715565b611412565b6103d6600c5481565b6040519081526020016102b9565b6103596103f236600461355b565b611594565b610359610405366004613491565b6115af565b6103d660105481565b610359610421366004613491565b6115e0565b6103d6610434366004613491565b60136020526000908152604090205481565b61032e610454366004613491565b6116ee565b6103596104673660046133a5565b61174e565b61035961047a3660046133a5565b6117cb565b6103d661048d3660046133a5565b611866565b6103596118ec565b6103d66104a83660046133a5565b60166020526000908152604090205481565b6104e86104c8366004613715565b601560209081526000928352604080842090915290825290205460ff1681565b60405160ff90911681526020016102b9565b610359610508366004613491565b611900565b6007546001600160a01b031661032e565b61056061052c366004613491565b60146020526000908152604090208054600182015460028301546003909301549192909160ff808316926101009004169085565b6040805195865260208601949094529115159284019290925260ff9091166060830152608082015260a0016102b9565b60085461032e906001600160a01b031681565b61035961196d565b61030e611c62565b61030e611c71565b6103596105c93660046137c1565b611cff565b6103d6600f5481565b6103596105e5366004613824565b611d79565b6103596105f8366004613886565b611fe4565b610359611fef565b6103596106133660046138bf565b612056565b61035961062636600461393e565b612088565b61030e612185565b61030e610641366004613491565b612192565b61030e61219d565b61035961065c366004613491565b6121aa565b6103d6600d5481565b600a5461032e906001600160a01b031681565b6102ad61068b366004613959565b612202565b61035961069e3660046133a5565b612230565b60006001600160e01b031982166380ac58cd60e01b14806106d457506001600160e01b03198216635b5e139f60e01b145b806106ef57506301ffc9a760e01b6001600160e01b03198316145b92915050565b604080516079808252610f408201909252606091829160009160208201610f20803683375050604080516079808252610f408201909252929350600092915060208201610f2080368337019050509050600060015b60788160ff161161081b576001600160a01b038716600090815260156020908152604080832060ff808616855292529091205416156108095780848360ff168151811061079957610799613987565b60ff9283166020918202929092018101919091526001600160a01b03891660009081526015825260408082208585168352909252205484519082169185919085169081106107e9576107e9613987565b60ff9092166020928302919091019091015281610805816139b3565b9250505b80610813816139b3565b91505061074a565b5060008160ff166001600160401b038111156108395761083961359c565b604051908082528060200260200182016040528015610862578160200160208202803683370190505b50905060008260ff166001600160401b038111156108825761088261359c565b6040519080825280602002602001820160405280156108ab578160200160208202803683370190505b50905060005b8360ff168160ff16101561095757858160ff16815181106108d4576108d4613987565b6020026020010151838260ff16815181106108f1576108f1613987565b60ff928316602091820292909201015285518691831690811061091657610916613987565b6020026020010151828260ff168151811061093357610933613987565b60ff909216602092830291909101909101528061094f816139b3565b9150506108b1565b509097909650945050505050565b606060008054610974906139d2565b80601f01602080910402602001604051908101604052809291908181526020018280546109a0906139d2565b80156109ed5780601f106109c2576101008083540402835291602001916109ed565b820191906000526020600020905b8154815290600101906020018083116109d057829003601f168201915b5050505050905090565b6000610a02826122a6565b506000908152600460205260409020546001600160a01b031690565b6000610a29826116ee565b9050806001600160a01b0316836001600160a01b031603610a9b5760405162461bcd60e51b815260206004820152602160248201527f4552433732313a20617070726f76616c20746f2063757272656e74206f776e656044820152603960f91b60648201526084015b60405180910390fd5b336001600160a01b0382161480610ab75750610ab78133612202565b610b295760405162461bcd60e51b815260206004820152603d60248201527f4552433732313a20617070726f76652063616c6c6572206973206e6f7420746f60448201527f6b656e206f776e6572206f7220617070726f76656420666f7220616c6c0000006064820152608401610a92565b610b338383612305565b505050565b3360009081526017602052604090205460ff16610b675760405162461bcd60e51b8152600401610a9290613a0c565b6001600160a01b038116610baf5760405162461bcd60e51b815260206004820152600f60248201526e496e76616c6964206164647265737360881b6044820152606401610a92565b336001600160a01b03821603610c165760405162461bcd60e51b815260206004820152602660248201527f596f752063616e6e6f742072656d6f766520796f757273656c6620617320616e6044820152651037bbb732b960d11b6064820152608401610a92565b6001600160a01b03166000908152601760205260409020805460ff19169055565b3360009081526015602090815260408083206079845290915290205460ff16610ca25760405162461bcd60e51b815260206004820152601860248201527f4e6f207469656e657320616c62756d206465207175656d6100000000000000006044820152606401610a92565b336000908152601560209081526040808320607984529091528120805460ff1691610ccc83613a4f565b825460ff9182166101009390930a9283029190920219909116179055503360009081526016602052604081208054839290610d08908490613a6c565b90915550600090505b60ff8116821115610da95733600090815260156020526040812090848460ff8516818110610d4157610d41613987565b9050602002016020810190610d56919061393e565b60ff90811682526020820192909252604001600090812080549092169190610d7d83613a4f565b91906101000a81548160ff021916908360ff160217905550508080610da1906139b3565b915050610d11565b5033600090815260166020526040902054610dc690603c90613a95565b600003610f3357610e653360128054610dde906139d2565b80601f0160208091040260200160405190810160405280929190818152602001828054610e0a906139d2565b8015610e575780601f10610e2c57610100808354040283529160200191610e57565b820191906000526020600020905b815481529060010190602001808311610e3a57829003601f168201915b505050505060796002612373565b600f54600d6000828254610e799190613aa9565b9091555050600a5460105460405163a9059cbb60e01b815233600482015260248101919091526001600160a01b039091169063a9059cbb906044016020604051808303816000875af1158015610ed3573d6000803e3d6000fd5b505050506040513d601f19601f82011682018060405250810190610ef79190613abc565b5060408051338152600260208201527f6d0344e2059f835240cb954cce07d4b26f0d0844eecc234f7ee0e292ba80a1aa91015b60405180910390a15b5050565b610f42335b826123d6565b610f5e5760405162461bcd60e51b8152600401610a9290613ad9565b610b33838383612435565b60085460405163d3e6a7ad60e01b81526004810186905233916001600160a01b03169063d3e6a7ad90602401602060405180830381865afa158015610fb2573d6000803e3d6000fd5b505050506040513d601f19601f82011682018060405250810190610fd69190613b26565b6001600160a01b0316146110245760405162461bcd60e51b81526020600482015260156024820152744573746520736f627265206e6f206573207475796f60581b6044820152606401610a92565b600f8351106110755760405162461bcd60e51b815260206004820152601960248201527f4c696d6974652064652063617274617320657863656469646f000000000000006044820152606401610a92565b6008546040516380f2540b60e01b8152600481018690523360248201526001600160a01b03909116906380f2540b90604401600060405180830381600087803b1580156110c157600080fd5b505af11580156110d5573d6000803e3d6000fd5b505050506006600c546110e89190613b43565b600c546110f59190613aa9565b600d60008282546111069190613a6c565b90915550506040805180820190915260088152676f70656e5061636b60c01b60208201526111359033866125a6565b60006111af33868660405160200161114f93929190613b57565b60408051601f1981840301815282825280516020918201207f19457468657265756d205369676e6564204d6573736167653a0a33320000000084830152603c8085019190915282518085039091018152605c909301909152815191012090565b600b54604080516020601f87018190048102820181019092528581529293506001600160a01b039091169161120191869086908190840183828082843760009201919091525086939250506125ed9050565b6001600160a01b03161461124b5760405162461bcd60e51b8152602060048201526011602482015270496e76616c6964207369676e617475726560781b6044820152606401610a92565b835160005b818160ff1610156113ce57858160ff168151811061127057611270613987565b602002602001015160ff166078146112be5761138960136000888460ff168151811061129e5761129e613987565b602002602001015160ff16815260200190815260200160002054106112ef565b607860005260136020527fdf3e0ba85198d5d74c53175fb24486e82f8e6ac58d6fdc8357e123450eab705e54610bb9115b6112f857600080fd5b60136000878360ff168151811061131157611311613987565b602002602001015160ff168152602001908152602001600020600081548092919061133b90613be5565b90915550503360009081526015602052604081208751909190889060ff851690811061136957611369613987565b602002602001015160ff1660ff168152602001908152602001600020600081819054906101000a900460ff16809291906113a2906139b3565b91906101000a81548160ff021916908360ff1602179055505080806113c6906139b3565b915050611250565b507fbabe8f5e83e93ab103ddf917b4292a19335a5128b3530bedd896a681cdd945e333868860405161140293929190613bfe565b60405180910390a1505050505050565b33600090815260156020908152604080832060ff80861685529252909120541661144e5760405162461bcd60e51b8152600401610a9290613c32565b336001600160a01b038316036114a65760405162461bcd60e51b815260206004820152601a60248201527f5472616e73662070726f706961206e6f207065726d69746964610000000000006044820152606401610a92565b6001600160a01b0382166114fc5760405162461bcd60e51b815260206004820152601e60248201527f5175656d61646f20646520636172746173206e6f207065726d697469646f00006044820152606401610a92565b33600090815260156020908152604080832060ff80861685529252822080549091169161152883613a4f565b82546101009290920a60ff8181021990931691831602179091556001600160a01b03841660009081526015602090815260408083208685168452909152812080549092169250611577836139b3565b91906101000a81548160ff021916908360ff160217905550505050565b610b3383838360405180602001604052806000815250612056565b6115b833610f3c565b6115d45760405162461bcd60e51b8152600401610a9290613ad9565b6115dd81612611565b50565b3360009081526017602052604090205460ff1661160f5760405162461bcd60e51b8152600401610a9290613a0c565b8061161930611866565b101561162457600080fd5b80600d60008282546116369190613aa9565b9091555050600a5460405163a9059cbb60e01b8152336004820152602481018390526001600160a01b039091169063a9059cbb906044016020604051808303816000875af115801561168c573d6000803e3d6000fd5b505050506040513d601f19601f820116820180604052508101906116b09190613abc565b5060408051338152602081018390527f23d6711a1d031134a36921253c75aa59e967d38e369ac625992824315e204f2091015b60405180910390a150565b6000818152600260205260408120546001600160a01b0316806106ef5760405162461bcd60e51b8152602060048201526018602482015277115490cdcc8c4e881a5b9d985b1a59081d1bdad95b88125160421b6044820152606401610a92565b3360009081526017602052604090205460ff1661177d5760405162461bcd60e51b8152600401610a9290613a0c565b600b80546001600160a01b0319166001600160a01b0383169081179091556040519081527fffafe5c39be83f4bcf20d7e1a150f6e21c1858ea0948315ba84b6b1c386d45bb906020016116e3565b3360009081526017602052604090205460ff166117fa5760405162461bcd60e51b8152600401610a9290613a0c565b6001600160a01b0381166118425760405162461bcd60e51b815260206004820152600f60248201526e496e76616c6964206164647265737360881b6044820152606401610a92565b6001600160a01b03166000908152601760205260409020805460ff19166001179055565b60006001600160a01b0382166118d05760405162461bcd60e51b815260206004820152602960248201527f4552433732313a2061646472657373207a65726f206973206e6f7420612076616044820152683634b21037bbb732b960b91b6064820152608401610a92565b506001600160a01b031660009081526003602052604090205490565b6118f461261a565b6118fe6000612674565b565b6008546001600160a01b031633146119535760405162461bcd60e51b8152602060048201526016602482015275536f6c6f20636f6e747261746f206465207061636b7360501b6044820152606401610a92565b80600d60008282546119659190613a6c565b909155505050565b3360009081526015602090815260408083206078845290915290205460ff166119d15760405162461bcd60e51b81526020600482015260166024820152754e6f207469656e6573206e696e67756e20616c62756d60501b6044820152606401610a92565b600f54600d541015611a1c5760405162461bcd60e51b8152602060048201526014602482015273466f6e646f7320696e737566696369656e74657360601b6044820152606401610a92565b6000805b60798160ff161015611ab25733600090815260156020908152604080832060ff80861685529252822054169003611a5a5760019150611ab2565b33600090815260156020908152604080832060ff808616855292528220805490911691611a8683613a4f565b91906101000a81548160ff021916908360ff160217905550508080611aaa906139b3565b915050611a20565b508015611b015760405162461bcd60e51b815260206004820152601760248201527f4d75737420636f6d706c6574652074686520616c62756d0000000000000000006044820152606401610a92565b611b993360118054611b12906139d2565b80601f0160208091040260200160405190810160405280929190818152602001828054611b3e906139d2565b8015611b8b5780601f10611b6057610100808354040283529160200191611b8b565b820191906000526020600020905b815481529060010190602001808311611b6e57829003601f168201915b505050505060786002612373565b600f54600d6000828254611bad9190613aa9565b9091555050600a54600f5460405163a9059cbb60e01b815233600482015260248101919091526001600160a01b039091169063a9059cbb906044016020604051808303816000875af1158015611c07573d6000803e3d6000fd5b505050506040513d601f19601f82011682018060405250810190611c2b9190613abc565b5060408051338152600160208201527f6d0344e2059f835240cb954cce07d4b26f0d0844eecc234f7ee0e292ba80a1aa91016116e3565b606060018054610974906139d2565b600e8054611c7e906139d2565b80601f0160208091040260200160405190810160405280929190818152602001828054611caa906139d2565b8015611cf75780601f10611ccc57610100808354040283529160200191611cf7565b820191906000526020600020905b815481529060010190602001808311611cda57829003601f168201915b505050505081565b3360009081526017602052604090205460ff16611d2e5760405162461bcd60e51b8152600401610a9290613a0c565b6011611d3a8382613cae565b506012611d478282613cae565b507fabfd337ac5625b7dc2ddd3d3bd465fb1dec15322eeeed81032268b337880bec68282604051610f2a929190613d6d565b336001600160a01b03841603611ddf5760405162461bcd60e51b815260206004820152602560248201527f4e6f2074652070756564657320656e76696172206361727461732061207469206044820152646d69736d6f60d81b6064820152608401610a92565b6001600160a01b038316611e445760405162461bcd60e51b815260206004820152602660248201527f4e6f20707565646573207175656d6172206361727461732064652065737461206044820152656d616e65726160d01b6064820152608401610a92565b60005b60ff8116821115611fde5733600090815260156020526040812081858560ff8616818110611e7757611e77613987565b9050602002016020810190611e8c919061393e565b60ff90811682526020820192909252604001600020541611611ec05760405162461bcd60e51b8152600401610a9290613c32565b33600090815260156020526040812090848460ff8516818110611ee557611ee5613987565b9050602002016020810190611efa919061393e565b60ff90811682526020820192909252604001600090812080549092169190611f2183613a4f565b91906101000a81548160ff021916908360ff1602179055505060156000856001600160a01b03166001600160a01b03168152602001908152602001600020600084848460ff16818110611f7657611f76613987565b9050602002016020810190611f8b919061393e565b60ff90811682526020820192909252604001600090812080549092169190611fb2836139b3565b91906101000a81548160ff021916908360ff160217905550508080611fd6906139b3565b915050611e47565b50505050565b610f333383836126c6565b60005b60798160ff1610156115dd5733600090815260156020908152604080832060ff80861685529252822080549091169161202a836139b3565b91906101000a81548160ff021916908360ff16021790555050808061204e906139b3565b915050611ff2565b61206033836123d6565b61207c5760405162461bcd60e51b8152600401610a9290613ad9565b611fde84848484612794565b33600090815260156020908152604080832060ff8086168552925290912054166120c45760405162461bcd60e51b8152600401610a9290613c32565b33600090815260156020908152604080832060ff8086168552925282208054909116916120f083613a4f565b91906101000a81548160ff021916908360ff160217905550506000600e604051806040016040528060018152602001602f60f81b8152506121338460ff166127c7565b60405180604001604052806005815260200164173539b7b760d91b8152506040516020016121649493929190613d92565b6040516020818303038152906040529050610f3333828460ff166001612373565b60118054611c7e906139d2565b60606106ef826128c7565b60128054611c7e906139d2565b6008546001600160a01b031633146121fd5760405162461bcd60e51b8152602060048201526016602482015275536f6c6f20636f6e747261746f206465207061636b7360501b6044820152606401610a92565b600c55565b6001600160a01b03918216600090815260056020908152604080832093909416825291909152205460ff1690565b61223861261a565b6001600160a01b03811661229d5760405162461bcd60e51b815260206004820152602660248201527f4f776e61626c653a206e6577206f776e657220697320746865207a65726f206160448201526564647265737360d01b6064820152608401610a92565b6115dd81612674565b6000818152600260205260409020546001600160a01b03166115dd5760405162461bcd60e51b8152602060048201526018602482015277115490cdcc8c4e881a5b9d985b1a59081d1bdad95b88125160421b6044820152606401610a92565b600081815260046020526040902080546001600160a01b0319166001600160a01b038416908117909155819061233a826116ee565b6001600160a01b03167f8c5be1e5ebec7d5bd14f71427d1e84f3dd0314c0f7b2291e5b200ac8c7c3b92560405160405180910390a45050565b600061237e60095490565b905061238e600980546001019055565b600081815260146020526040902081815560018101849055600201805461ff00191661010060ff8516021790556123c585826129cf565b6123cf81856129e9565b5050505050565b6000806123e2836116ee565b9050806001600160a01b0316846001600160a01b0316148061240957506124098185612202565b8061242d5750836001600160a01b0316612422846109f7565b6001600160a01b0316145b949350505050565b826001600160a01b0316612448826116ee565b6001600160a01b03161461246e5760405162461bcd60e51b8152600401610a9290613e41565b6001600160a01b0382166124d05760405162461bcd60e51b8152602060048201526024808201527f4552433732313a207472616e7366657220746f20746865207a65726f206164646044820152637265737360e01b6064820152608401610a92565b6124dd8383836001612a7c565b826001600160a01b03166124f0826116ee565b6001600160a01b0316146125165760405162461bcd60e51b8152600401610a9290613e41565b600081815260046020908152604080832080546001600160a01b03199081169091556001600160a01b0387811680865260038552838620805460001901905590871680865283862080546001019055868652600290945282852080549092168417909155905184937fddf252ad1be2c89b69c2b068fc378daa952ba7f163c4a11628f55a4df523b3ef91a4505050565b610b338383836040516024016125be93929190613e86565b60408051601f198184030181529190526020810180516001600160e01b0316630d26b92560e01b179052612b04565b60008060006125fc8585612b0d565b9150915061260981612b52565b509392505050565b6115dd81612c9c565b6007546001600160a01b031633146118fe5760405162461bcd60e51b815260206004820181905260248201527f4f776e61626c653a2063616c6c6572206973206e6f7420746865206f776e65726044820152606401610a92565b600780546001600160a01b038381166001600160a01b0319831681179093556040519116919082907f8be0079c531659141344cd1fd0a4f28419497f9722a3daafe3b4186f6b6457e090600090a35050565b816001600160a01b0316836001600160a01b0316036127275760405162461bcd60e51b815260206004820152601960248201527f4552433732313a20617070726f766520746f2063616c6c6572000000000000006044820152606401610a92565b6001600160a01b03838116600081815260056020908152604080832094871680845294825291829020805460ff191686151590811790915591519182527f17307eab39ab6107e8899845ad3d59bd9653f200f220920489ca2b5937696c31910160405180910390a3505050565b61279f848484612435565b6127ab84848484612cdc565b611fde5760405162461bcd60e51b8152600401610a9290613eb4565b6060816000036127ee5750506040805180820190915260018152600360fc1b602082015290565b8160005b8115612818578061280281613be5565b91506128119050600a83613b43565b91506127f2565b6000816001600160401b038111156128325761283261359c565b6040519080825280601f01601f19166020018201604052801561285c576020820181803683370190505b5090505b841561242d57612871600183613aa9565b915061287e600a86613a95565b612889906030613a6c565b60f81b81838151811061289e5761289e613987565b60200101906001600160f81b031916908160001a9053506128c0600a86613b43565b9450612860565b60606128d2826122a6565b600082815260066020526040812080546128eb906139d2565b80601f0160208091040260200160405190810160405280929190818152602001828054612917906139d2565b80156129645780601f1061293957610100808354040283529160200191612964565b820191906000526020600020905b81548152906001019060200180831161294757829003601f168201915b50505050509050600061298260408051602081019091526000815290565b90508051600003612994575092915050565b8151156129c65780826040516020016129ae929190613f06565b60405160208183030381529060405292505050919050565b61242d84612ddd565b610f33828260405180602001604052806000815250612e51565b6000828152600260205260409020546001600160a01b0316612a645760405162461bcd60e51b815260206004820152602e60248201527f45524337323155524953746f726167653a2055524920736574206f66206e6f6e60448201526d32bc34b9ba32b73a103a37b5b2b760911b6064820152608401610a92565b6000828152600660205260409020610b338282613cae565b6001811115611fde576001600160a01b03841615612ac2576001600160a01b03841660009081526003602052604081208054839290612abc908490613aa9565b90915550505b6001600160a01b03831615611fde576001600160a01b03831660009081526003602052604081208054839290612af9908490613a6c565b909155505050505050565b6115dd81612e84565b6000808251604103612b435760208301516040840151606085015160001a612b3787828585612ea5565b94509450505050612b4b565b506000905060025b9250929050565b6000816004811115612b6657612b66613f35565b03612b6e5750565b6001816004811115612b8257612b82613f35565b03612bcf5760405162461bcd60e51b815260206004820152601860248201527f45434453413a20696e76616c6964207369676e617475726500000000000000006044820152606401610a92565b6002816004811115612be357612be3613f35565b03612c305760405162461bcd60e51b815260206004820152601f60248201527f45434453413a20696e76616c6964207369676e6174757265206c656e677468006044820152606401610a92565b6003816004811115612c4457612c44613f35565b036115dd5760405162461bcd60e51b815260206004820152602260248201527f45434453413a20696e76616c6964207369676e6174757265202773272076616c604482015261756560f01b6064820152608401610a92565b612ca581612f69565b60008181526006602052604090208054612cbe906139d2565b1590506115dd5760008181526006602052604081206115dd9161330f565b60006001600160a01b0384163b15612dd257604051630a85bd0160e11b81526001600160a01b0385169063150b7a0290612d20903390899088908890600401613f4b565b6020604051808303816000875af1925050508015612d5b575060408051601f3d908101601f19168201909252612d5891810190613f88565b60015b612db8573d808015612d89576040519150601f19603f3d011682016040523d82523d6000602084013e612d8e565b606091505b508051600003612db05760405162461bcd60e51b8152600401610a9290613eb4565b805181602001fd5b6001600160e01b031916630a85bd0160e11b14905061242d565b506001949350505050565b6060612de8826122a6565b6000612dff60408051602081019091526000815290565b90506000815111612e1f5760405180602001604052806000815250612e4a565b80612e298461300c565b604051602001612e3a929190613f06565b6040516020818303038152906040525b9392505050565b612e5b838361309e565b612e686000848484612cdc565b610b335760405162461bcd60e51b8152600401610a9290613eb4565b60006a636f6e736f6c652e6c6f679050600080835160208501845afa505050565b6000807f7fffffffffffffffffffffffffffffff5d576e7357a4501ddfe92f46681b20a0831115612edc5750600090506003612f60565b6040805160008082526020820180845289905260ff881692820192909252606081018690526080810185905260019060a0016020604051602081039080840390855afa158015612f30573d6000803e3d6000fd5b5050604051601f1901519150506001600160a01b038116612f5957600060019250925050612f60565b9150600090505b94509492505050565b6000612f74826116ee565b9050612f84816000846001612a7c565b612f8d826116ee565b600083815260046020908152604080832080546001600160a01b03199081169091556001600160a01b0385168085526003845282852080546000190190558785526002909352818420805490911690555192935084927fddf252ad1be2c89b69c2b068fc378daa952ba7f163c4a11628f55a4df523b3ef908390a45050565b6060600061301983613237565b60010190506000816001600160401b038111156130385761303861359c565b6040519080825280601f01601f191660200182016040528015613062576020820181803683370190505b5090508181016020015b600019016f181899199a1a9b1b9c1cb0b131b232b360811b600a86061a8153600a850494508461306c57509392505050565b6001600160a01b0382166130f45760405162461bcd60e51b815260206004820181905260248201527f4552433732313a206d696e7420746f20746865207a65726f20616464726573736044820152606401610a92565b6000818152600260205260409020546001600160a01b0316156131595760405162461bcd60e51b815260206004820152601c60248201527f4552433732313a20746f6b656e20616c7265616479206d696e746564000000006044820152606401610a92565b613167600083836001612a7c565b6000818152600260205260409020546001600160a01b0316156131cc5760405162461bcd60e51b815260206004820152601c60248201527f4552433732313a20746f6b656e20616c7265616479206d696e746564000000006044820152606401610a92565b6001600160a01b038216600081815260036020908152604080832080546001019055848352600290915280822080546001600160a01b0319168417905551839291907fddf252ad1be2c89b69c2b068fc378daa952ba7f163c4a11628f55a4df523b3ef908290a45050565b60008072184f03e93ff9f4daa797ed6e38ed64bf6a1f0160401b83106132765772184f03e93ff9f4daa797ed6e38ed64bf6a1f0160401b830492506040015b6d04ee2d6d415b85acef810000000083106132a2576d04ee2d6d415b85acef8100000000830492506020015b662386f26fc1000083106132c057662386f26fc10000830492506010015b6305f5e10083106132d8576305f5e100830492506008015b61271083106132ec57612710830492506004015b606483106132fe576064830492506002015b600a83106106ef5760010192915050565b50805461331b906139d2565b6000825580601f1061332b575050565b601f0160209004906000526020600020908101906115dd91905b808211156133595760008155600101613345565b5090565b6001600160e01b0319811681146115dd57600080fd5b60006020828403121561338557600080fd5b8135612e4a8161335d565b6001600160a01b03811681146115dd57600080fd5b6000602082840312156133b757600080fd5b8135612e4a81613390565b600081518084526020808501945080840160005b838110156133f557815160ff16875295820195908201906001016133d6565b509495945050505050565b60408152600061341360408301856133c2565b828103602084015261342581856133c2565b95945050505050565b60005b83811015613449578181015183820152602001613431565b50506000910152565b6000815180845261346a81602086016020860161342e565b601f01601f19169290920160200192915050565b602081526000612e4a6020830184613452565b6000602082840312156134a357600080fd5b5035919050565b600080604083850312156134bd57600080fd5b82356134c881613390565b946020939093013593505050565b60008083601f8401126134e857600080fd5b5081356001600160401b038111156134ff57600080fd5b6020830191508360208260051b8501011115612b4b57600080fd5b6000806020838503121561352d57600080fd5b82356001600160401b0381111561354357600080fd5b61354f858286016134d6565b90969095509350505050565b60008060006060848603121561357057600080fd5b833561357b81613390565b9250602084013561358b81613390565b929592945050506040919091013590565b634e487b7160e01b600052604160045260246000fd5b604051601f8201601f191681016001600160401b03811182821017156135da576135da61359c565b604052919050565b803560ff811681146135f357600080fd5b919050565b60008083601f84011261360a57600080fd5b5081356001600160401b0381111561362157600080fd5b602083019150836020828501011115612b4b57600080fd5b6000806000806060858703121561364f57600080fd5b843593506020808601356001600160401b038082111561366e57600080fd5b818801915088601f83011261368257600080fd5b8135818111156136945761369461359c565b8060051b6136a38582016135b2565b918252838101850191858101908c8411156136bd57600080fd5b948601945b838610156136e2576136d3866135e2565b825294860194908601906136c2565b985050505060408801359250808311156136fb57600080fd5b5050613709878288016135f8565b95989497509550505050565b6000806040838503121561372857600080fd5b823561373381613390565b9150613741602084016135e2565b90509250929050565b60006001600160401b038311156137635761376361359c565b613776601f8401601f19166020016135b2565b905082815283838301111561378a57600080fd5b828260208301376000602084830101529392505050565b600082601f8301126137b257600080fd5b612e4a8383356020850161374a565b600080604083850312156137d457600080fd5b82356001600160401b03808211156137eb57600080fd5b6137f7868387016137a1565b9350602085013591508082111561380d57600080fd5b5061381a858286016137a1565b9150509250929050565b60008060006040848603121561383957600080fd5b833561384481613390565b925060208401356001600160401b0381111561385f57600080fd5b61386b868287016134d6565b9497909650939450505050565b80151581146115dd57600080fd5b6000806040838503121561389957600080fd5b82356138a481613390565b915060208301356138b481613878565b809150509250929050565b600080600080608085870312156138d557600080fd5b84356138e081613390565b935060208501356138f081613390565b92506040850135915060608501356001600160401b0381111561391257600080fd5b8501601f8101871361392357600080fd5b6139328782356020840161374a565b91505092959194509250565b60006020828403121561395057600080fd5b612e4a826135e2565b6000806040838503121561396c57600080fd5b823561397781613390565b915060208301356138b481613390565b634e487b7160e01b600052603260045260246000fd5b634e487b7160e01b600052601160045260246000fd5b600060ff821660ff81036139c9576139c961399d565b60010192915050565b600181811c908216806139e657607f821691505b602082108103613a0657634e487b7160e01b600052602260045260246000fd5b50919050565b60208082526023908201527f4f6e6c79206f776e6572732063616e2063616c6c20746869732066756e63746960408201526237b71760e91b606082015260800190565b600060ff821680613a6257613a6261399d565b6000190192915050565b808201808211156106ef576106ef61399d565b634e487b7160e01b600052601260045260246000fd5b600082613aa457613aa4613a7f565b500690565b818103818111156106ef576106ef61399d565b600060208284031215613ace57600080fd5b8151612e4a81613878565b6020808252602d908201527f4552433732313a2063616c6c6572206973206e6f7420746f6b656e206f776e6560408201526c1c881bdc88185c1c1c9bdd9959609a1b606082015260800190565b600060208284031215613b3857600080fd5b8151612e4a81613390565b600082613b5257613b52613a7f565b500490565b6bffffffffffffffffffffffff198460601b1681528260148201526000603482018351602080860160005b83811015613ba157815160ff1685529382019390820190600101613b82565b50507f30786631644437313839356534396231353633363933393639646535303839388352693139376344463334383160b01b9083015250602a0195945050505050565b600060018201613bf757613bf761399d565b5060010190565b6001600160a01b0384168152606060208201819052600090613c22908301856133c2565b9050826040830152949350505050565b6020808252601490820152734e6f207469656e6573206573746120636172746160601b604082015260600190565b601f821115610b3357600081815260208120601f850160051c81016020861015613c875750805b601f850160051c820191505b81811015613ca657828155600101613c93565b505050505050565b81516001600160401b03811115613cc757613cc761359c565b613cdb81613cd584546139d2565b84613c60565b602080601f831160018114613d105760008415613cf85750858301515b600019600386901b1c1916600185901b178555613ca6565b600085815260208120601f198616915b82811015613d3f57888601518255948401946001909101908401613d20565b5085821015613d5d5787850151600019600388901b60f8161c191681555b5050505050600190811b01905550565b604081526000613d806040830185613452565b82810360208401526134258185613452565b6000808654613da0816139d2565b60018281168015613db85760018114613dcd57613dfc565b60ff1984168752821515830287019450613dfc565b8a60005260208060002060005b85811015613df35781548a820152908401908201613dda565b50505082870194505b505050508551613e10818360208a0161342e565b8551910190613e2381836020890161342e565b8451910190613e3681836020880161342e565b019695505050505050565b60208082526025908201527f4552433732313a207472616e736665722066726f6d20696e636f72726563742060408201526437bbb732b960d91b606082015260800190565b606081526000613e996060830186613452565b6001600160a01b039490941660208301525060400152919050565b60208082526032908201527f4552433732313a207472616e7366657220746f206e6f6e20455243373231526560408201527131b2b4bb32b91034b6b83632b6b2b73a32b960711b606082015260800190565b60008351613f1881846020880161342e565b835190830190613f2c81836020880161342e565b01949350505050565b634e487b7160e01b600052602160045260246000fd5b6001600160a01b0385811682528416602082015260408101839052608060608201819052600090613f7e90830184613452565b9695505050505050565b600060208284031215613f9a57600080fd5b8151612e4a8161335d56fea2646970667358221220a99735b33991880209df6e30bc25ed498333e08c8dc2017afd32390b582bf2bf64736f6c63430008120033",
  "linkReferences": {},
  "deployedLinkReferences": {}
}