{
  "_format": "hh-sol-artifact-1",
  "contractName": "NofGammaCardsV2",
  "sourceName": "contracts/gamma/GammaCards.v2.sol",
  "abi": [
    {
      "inputs": [
        {
          "internalType": "address",
          "name": "_daiTokenAddress",
          "type": "address"
        },
        {
          "internalType": "address",
          "name": "_packsContract",
          "type": "address"
        },
        {
          "internalType": "string",
          "name": "_baseUri",
          "type": "string"
        },
        {
          "internalType": "address",
          "name": "_signer",
          "type": "address"
        }
      ],
      "stateMutability": "nonpayable",
      "type": "constructor"
    },
    {
      "anonymous": false,
      "inputs": [
        {
          "indexed": false,
          "internalType": "address",
          "name": "player",
          "type": "address"
        },
        {
          "indexed": false,
          "internalType": "uint8",
          "name": "albumClass",
          "type": "uint8"
        }
      ],
      "name": "AlbumCompleted",
      "type": "event"
    },
    {
      "anonymous": false,
      "inputs": [
        {
          "indexed": true,
          "internalType": "address",
          "name": "owner",
          "type": "address"
        },
        {
          "indexed": true,
          "internalType": "address",
          "name": "approved",
          "type": "address"
        },
        {
          "indexed": true,
          "internalType": "uint256",
          "name": "tokenId",
          "type": "uint256"
        }
      ],
      "name": "Approval",
      "type": "event"
    },
    {
      "anonymous": false,
      "inputs": [
        {
          "indexed": true,
          "internalType": "address",
          "name": "owner",
          "type": "address"
        },
        {
          "indexed": true,
          "internalType": "address",
          "name": "operator",
          "type": "address"
        },
        {
          "indexed": false,
          "internalType": "bool",
          "name": "approved",
          "type": "bool"
        }
      ],
      "name": "ApprovalForAll",
      "type": "event"
    },
    {
      "anonymous": false,
      "inputs": [
        {
          "indexed": false,
          "internalType": "address",
          "name": "player",
          "type": "address"
        },
        {
          "indexed": false,
          "internalType": "uint256",
          "name": "cardTokenId",
          "type": "uint256"
        },
        {
          "indexed": false,
          "internalType": "uint256",
          "name": "albumTokenId",
          "type": "uint256"
        }
      ],
      "name": "CardPasted",
      "type": "event"
    },
    {
      "anonymous": false,
      "inputs": [
        {
          "indexed": false,
          "internalType": "address",
          "name": "receiver",
          "type": "address"
        },
        {
          "indexed": false,
          "internalType": "uint256",
          "name": "amount",
          "type": "uint256"
        }
      ],
      "name": "EmergencyWithdrawal",
      "type": "event"
    },
    {
      "anonymous": false,
      "inputs": [
        {
          "indexed": false,
          "internalType": "address",
          "name": "newSigner",
          "type": "address"
        }
      ],
      "name": "NewSigner",
      "type": "event"
    },
    {
      "anonymous": false,
      "inputs": [
        {
          "indexed": false,
          "internalType": "string",
          "name": "newMainUri",
          "type": "string"
        },
        {
          "indexed": false,
          "internalType": "string",
          "name": "newSecondaryUri",
          "type": "string"
        }
      ],
      "name": "NewUris",
      "type": "event"
    },
    {
      "anonymous": false,
      "inputs": [
        {
          "indexed": true,
          "internalType": "address",
          "name": "previousOwner",
          "type": "address"
        },
        {
          "indexed": true,
          "internalType": "address",
          "name": "newOwner",
          "type": "address"
        }
      ],
      "name": "OwnershipTransferred",
      "type": "event"
    },
    {
      "anonymous": false,
      "inputs": [
        {
          "indexed": false,
          "internalType": "address",
          "name": "player",
          "type": "address"
        },
        {
          "indexed": false,
          "internalType": "uint8[]",
          "name": "packData",
          "type": "uint8[]"
        },
        {
          "indexed": false,
          "internalType": "uint256",
          "name": "packNumber",
          "type": "uint256"
        }
      ],
      "name": "PackOpened",
      "type": "event"
    },
    {
      "anonymous": false,
      "inputs": [
        {
          "indexed": true,
          "internalType": "address",
          "name": "from",
          "type": "address"
        },
        {
          "indexed": true,
          "internalType": "address",
          "name": "to",
          "type": "address"
        },
        {
          "indexed": true,
          "internalType": "uint256",
          "name": "tokenId",
          "type": "uint256"
        }
      ],
      "name": "Transfer",
      "type": "event"
    },
    {
      "inputs": [],
      "name": "DAI_TOKEN",
      "outputs": [
        {
          "internalType": "address",
          "name": "",
          "type": "address"
        }
      ],
      "stateMutability": "view",
      "type": "function"
    },
    {
      "inputs": [
        {
          "internalType": "address",
          "name": "_newOwner",
          "type": "address"
        }
      ],
      "name": "addOwner",
      "outputs": [],
      "stateMutability": "nonpayable",
      "type": "function"
    },
    {
      "inputs": [
        {
          "internalType": "address",
          "name": "_newSigner",
          "type": "address"
        }
      ],
      "name": "addSigner",
      "outputs": [],
      "stateMutability": "nonpayable",
      "type": "function"
    },
    {
      "inputs": [
        {
          "internalType": "address",
          "name": "to",
          "type": "address"
        },
        {
          "internalType": "uint256",
          "name": "tokenId",
          "type": "uint256"
        }
      ],
      "name": "approve",
      "outputs": [],
      "stateMutability": "nonpayable",
      "type": "function"
    },
    {
      "inputs": [
        {
          "internalType": "address",
          "name": "owner",
          "type": "address"
        }
      ],
      "name": "balanceOf",
      "outputs": [
        {
          "internalType": "uint256",
          "name": "",
          "type": "uint256"
        }
      ],
      "stateMutability": "view",
      "type": "function"
    },
    {
      "inputs": [],
      "name": "baseUri",
      "outputs": [
        {
          "internalType": "string",
          "name": "",
          "type": "string"
        }
      ],
      "stateMutability": "view",
      "type": "function"
    },
    {
      "inputs": [
        {
          "internalType": "uint256",
          "name": "tokenId",
          "type": "uint256"
        }
      ],
      "name": "burn",
      "outputs": [],
      "stateMutability": "nonpayable",
      "type": "function"
    },
    {
      "inputs": [
        {
          "internalType": "uint8[]",
          "name": "cardNumbers",
          "type": "uint8[]"
        }
      ],
      "name": "burnCards",
      "outputs": [],
      "stateMutability": "nonpayable",
      "type": "function"
    },
    {
      "inputs": [
        {
          "internalType": "address",
          "name": "user",
          "type": "address"
        }
      ],
      "name": "burnedCards",
      "outputs": [
        {
          "internalType": "uint256",
          "name": "amount",
          "type": "uint256"
        }
      ],
      "stateMutability": "view",
      "type": "function"
    },
    {
      "inputs": [
        {
          "internalType": "uint256",
          "name": "tokenId",
          "type": "uint256"
        }
      ],
      "name": "cards",
      "outputs": [
        {
          "internalType": "uint256",
          "name": "tokenId",
          "type": "uint256"
        },
        {
          "internalType": "uint256",
          "name": "number",
          "type": "uint256"
        },
        {
          "internalType": "bool",
          "name": "pasted",
          "type": "bool"
        },
        {
          "internalType": "uint8",
          "name": "class",
          "type": "uint8"
        },
        {
          "internalType": "uint256",
          "name": "completion",
          "type": "uint256"
        }
      ],
      "stateMutability": "view",
      "type": "function"
    },
    {
      "inputs": [
        {
          "internalType": "address",
          "name": "user",
          "type": "address"
        },
        {
          "internalType": "uint8",
          "name": "cardNumber",
          "type": "uint8"
        }
      ],
      "name": "cardsByUser",
      "outputs": [
        {
          "internalType": "uint8",
          "name": "amount",
          "type": "uint8"
        }
      ],
      "stateMutability": "view",
      "type": "function"
    },
    {
      "inputs": [
        {
          "internalType": "uint256",
          "name": "cardNumber",
          "type": "uint256"
        }
      ],
      "name": "cardsInventory",
      "outputs": [
        {
          "internalType": "uint256",
          "name": "amount",
          "type": "uint256"
        }
      ],
      "stateMutability": "view",
      "type": "function"
    },
    {
      "inputs": [
        {
          "internalType": "uint256",
          "name": "newPackPrice",
          "type": "uint256"
        }
      ],
      "name": "changePackPrice",
      "outputs": [],
      "stateMutability": "nonpayable",
      "type": "function"
    },
    {
      "inputs": [
        {
          "internalType": "uint256",
          "name": "amount",
          "type": "uint256"
        }
      ],
      "name": "emergencyWithdraw",
      "outputs": [],
      "stateMutability": "nonpayable",
      "type": "function"
    },
    {
      "inputs": [],
      "name": "finishAlbum",
      "outputs": [],
      "stateMutability": "nonpayable",
      "type": "function"
    },
    {
      "inputs": [
        {
          "internalType": "uint256",
          "name": "tokenId",
          "type": "uint256"
        }
      ],
      "name": "getApproved",
      "outputs": [
        {
          "internalType": "address",
          "name": "",
          "type": "address"
        }
      ],
      "stateMutability": "view",
      "type": "function"
    },
    {
      "inputs": [
        {
          "internalType": "address",
          "name": "user",
          "type": "address"
        }
      ],
      "name": "getCardsByUser",
      "outputs": [
        {
          "internalType": "uint8[]",
          "name": "",
          "type": "uint8[]"
        },
        {
          "internalType": "uint8[]",
          "name": "",
          "type": "uint8[]"
        }
      ],
      "stateMutability": "view",
      "type": "function"
    },
    {
      "inputs": [
        {
          "internalType": "uint8",
          "name": "cardNum",
          "type": "uint8"
        }
      ],
      "name": "hasCard",
      "outputs": [
        {
          "internalType": "bool",
          "name": "has",
          "type": "bool"
        }
      ],
      "stateMutability": "view",
      "type": "function"
    },
    {
      "inputs": [
        {
          "internalType": "address",
          "name": "owner",
          "type": "address"
        },
        {
          "internalType": "address",
          "name": "operator",
          "type": "address"
        }
      ],
      "name": "isApprovedForAll",
      "outputs": [
        {
          "internalType": "bool",
          "name": "",
          "type": "bool"
        }
      ],
      "stateMutability": "view",
      "type": "function"
    },
    {
      "inputs": [],
      "name": "mainAlbumPrize",
      "outputs": [
        {
          "internalType": "uint256",
          "name": "",
          "type": "uint256"
        }
      ],
      "stateMutability": "view",
      "type": "function"
    },
    {
      "inputs": [],
      "name": "mainUri",
      "outputs": [
        {
          "internalType": "string",
          "name": "",
          "type": "string"
        }
      ],
      "stateMutability": "view",
      "type": "function"
    },
    {
      "inputs": [
        {
          "internalType": "uint8",
          "name": "cardNum",
          "type": "uint8"
        }
      ],
      "name": "mintCard",
      "outputs": [],
      "stateMutability": "nonpayable",
      "type": "function"
    },
    {
      "inputs": [],
      "name": "name",
      "outputs": [
        {
          "internalType": "string",
          "name": "",
          "type": "string"
        }
      ],
      "stateMutability": "view",
      "type": "function"
    },
    {
      "inputs": [
        {
          "internalType": "uint256",
          "name": "packNumber",
          "type": "uint256"
        },
        {
          "internalType": "uint8[]",
          "name": "packData",
          "type": "uint8[]"
        },
        {
          "internalType": "bytes",
          "name": "signature",
          "type": "bytes"
        }
      ],
      "name": "openPack",
      "outputs": [],
      "stateMutability": "nonpayable",
      "type": "function"
    },
    {
      "inputs": [],
      "name": "owner",
      "outputs": [
        {
          "internalType": "address",
          "name": "",
          "type": "address"
        }
      ],
      "stateMutability": "view",
      "type": "function"
    },
    {
      "inputs": [
        {
          "internalType": "uint256",
          "name": "tokenId",
          "type": "uint256"
        }
      ],
      "name": "ownerOf",
      "outputs": [
        {
          "internalType": "address",
          "name": "",
          "type": "address"
        }
      ],
      "stateMutability": "view",
      "type": "function"
    },
    {
      "inputs": [
        {
          "internalType": "address",
          "name": "",
          "type": "address"
        }
      ],
      "name": "owners",
      "outputs": [
        {
          "internalType": "bool",
          "name": "",
          "type": "bool"
        }
      ],
      "stateMutability": "view",
      "type": "function"
    },
    {
      "inputs": [],
      "name": "packPrice",
      "outputs": [
        {
          "internalType": "uint256",
          "name": "",
          "type": "uint256"
        }
      ],
      "stateMutability": "view",
      "type": "function"
    },
    {
      "inputs": [],
      "name": "packsContract",
      "outputs": [
        {
          "internalType": "contract IGammaPacks",
          "name": "",
          "type": "address"
        }
      ],
      "stateMutability": "view",
      "type": "function"
    },
    {
      "inputs": [],
      "name": "prizesBalance",
      "outputs": [
        {
          "internalType": "uint256",
          "name": "",
          "type": "uint256"
        }
      ],
      "stateMutability": "view",
      "type": "function"
    },
    {
      "inputs": [
        {
          "internalType": "uint256",
          "name": "amount",
          "type": "uint256"
        }
      ],
      "name": "receivePrizesBalance",
      "outputs": [],
      "stateMutability": "nonpayable",
      "type": "function"
    },
    {
      "inputs": [
        {
          "internalType": "address",
          "name": "_ownerToRemove",
          "type": "address"
        }
      ],
      "name": "removeOwner",
      "outputs": [],
      "stateMutability": "nonpayable",
      "type": "function"
    },
    {
      "inputs": [
        {
          "internalType": "address",
          "name": "_signerToRemove",
          "type": "address"
        }
      ],
      "name": "removeSigner",
      "outputs": [],
      "stateMutability": "nonpayable",
      "type": "function"
    },
    {
      "inputs": [],
      "name": "renounceOwnership",
      "outputs": [],
      "stateMutability": "nonpayable",
      "type": "function"
    },
    {
      "inputs": [
        {
          "internalType": "address",
          "name": "from",
          "type": "address"
        },
        {
          "internalType": "address",
          "name": "to",
          "type": "address"
        },
        {
          "internalType": "uint256",
          "name": "tokenId",
          "type": "uint256"
        }
      ],
      "name": "safeTransferFrom",
      "outputs": [],
      "stateMutability": "nonpayable",
      "type": "function"
    },
    {
      "inputs": [
        {
          "internalType": "address",
          "name": "from",
          "type": "address"
        },
        {
          "internalType": "address",
          "name": "to",
          "type": "address"
        },
        {
          "internalType": "uint256",
          "name": "tokenId",
          "type": "uint256"
        },
        {
          "internalType": "bytes",
          "name": "data",
          "type": "bytes"
        }
      ],
      "name": "safeTransferFrom",
      "outputs": [],
      "stateMutability": "nonpayable",
      "type": "function"
    },
    {
      "inputs": [],
      "name": "secondaryAlbumPrize",
      "outputs": [
        {
          "internalType": "uint256",
          "name": "",
          "type": "uint256"
        }
      ],
      "stateMutability": "view",
      "type": "function"
    },
    {
      "inputs": [],
      "name": "secondaryUri",
      "outputs": [
        {
          "internalType": "string",
          "name": "",
          "type": "string"
        }
      ],
      "stateMutability": "view",
      "type": "function"
    },
    {
      "inputs": [
        {
          "internalType": "address",
          "name": "operator",
          "type": "address"
        },
        {
          "internalType": "bool",
          "name": "approved",
          "type": "bool"
        }
      ],
      "name": "setApprovalForAll",
      "outputs": [],
      "stateMutability": "nonpayable",
      "type": "function"
    },
    {
      "inputs": [
        {
          "internalType": "string",
          "name": "newMainUri",
          "type": "string"
        },
        {
          "internalType": "string",
          "name": "newSecondaryUri",
          "type": "string"
        }
      ],
      "name": "setUris",
      "outputs": [],
      "stateMutability": "nonpayable",
      "type": "function"
    },
    {
      "inputs": [
        {
          "internalType": "address",
          "name": "",
          "type": "address"
        }
      ],
      "name": "signers",
      "outputs": [
        {
          "internalType": "bool",
          "name": "",
          "type": "bool"
        }
      ],
      "stateMutability": "view",
      "type": "function"
    },
    {
      "inputs": [
        {
          "internalType": "bytes4",
          "name": "interfaceId",
          "type": "bytes4"
        }
      ],
      "name": "supportsInterface",
      "outputs": [
        {
          "internalType": "bool",
          "name": "",
          "type": "bool"
        }
      ],
      "stateMutability": "view",
      "type": "function"
    },
    {
      "inputs": [],
      "name": "symbol",
      "outputs": [
        {
          "internalType": "string",
          "name": "",
          "type": "string"
        }
      ],
      "stateMutability": "view",
      "type": "function"
    },
    {
      "inputs": [],
      "name": "testAddCards",
      "outputs": [],
      "stateMutability": "nonpayable",
      "type": "function"
    },
    {
      "inputs": [
        {
          "internalType": "uint256",
          "name": "tokenId",
          "type": "uint256"
        }
      ],
      "name": "tokenURI",
      "outputs": [
        {
          "internalType": "string",
          "name": "",
          "type": "string"
        }
      ],
      "stateMutability": "view",
      "type": "function"
    },
    {
      "inputs": [
        {
          "internalType": "address",
          "name": "to",
          "type": "address"
        },
        {
          "internalType": "uint8",
          "name": "cardNumber",
          "type": "uint8"
        }
      ],
      "name": "transferCard",
      "outputs": [],
      "stateMutability": "nonpayable",
      "type": "function"
    },
    {
      "inputs": [
        {
          "internalType": "address",
          "name": "to",
          "type": "address"
        },
        {
          "internalType": "uint8[]",
          "name": "cardNumbers",
          "type": "uint8[]"
        }
      ],
      "name": "transferCards",
      "outputs": [],
      "stateMutability": "nonpayable",
      "type": "function"
    },
    {
      "inputs": [
        {
          "internalType": "address",
          "name": "from",
          "type": "address"
        },
        {
          "internalType": "address",
          "name": "to",
          "type": "address"
        },
        {
          "internalType": "uint256",
          "name": "tokenId",
          "type": "uint256"
        }
      ],
      "name": "transferFrom",
      "outputs": [],
      "stateMutability": "nonpayable",
      "type": "function"
    },
    {
      "inputs": [
        {
          "internalType": "address",
          "name": "newOwner",
          "type": "address"
        }
      ],
      "name": "transferOwnership",
      "outputs": [],
      "stateMutability": "nonpayable",
      "type": "function"
    }
  ],
  "bytecode": "0x60806040526710a741a462780000600b5567d02ab486cedc0000600e55670de0b6b3a7640000600f553480156200003557600080fd5b50604051620049513803806200495183398101604081905262000058916200033c565b6040518060400160405280600a81526020016947616d6d61436172647360b01b815250604051806040016040528060068152602001654e4f465f474360d01b8152508160009081620000ab9190620004be565b506001620000ba8282620004be565b505050620000d7620000d16200028d60201b60201c565b62000291565b600880546001600160a01b038086166001600160a01b031992831617909255600a805492871692909116919091179055600d620001158382620004be565b5060408051808201825260018152602f60f81b60208083019190915282518084018452600381526203132360ec1b8183015283518085018552600681526523173539b7b760d11b8184015293516200017494600d94939091016200058a565b60405160208183030381529060405260109081620001939190620004be565b5060408051808201825260018152602f60f81b60208083019190915282518084018452600381526231323160e81b8183015283518085018552600681526523173539b7b760d11b818401529351620001f294600d94939091016200058a565b60405160208183030381529060405260119081620002119190620004be565b506001600160a01b0381166000908152601760205260408120805460ff191660011790555b607a8110156200026757600081815260126020526040902060019055806200025e8162000647565b91505062000236565b5050336000908152601660205260409020805460ff19166001179055506200066f915050565b3390565b600780546001600160a01b038381166001600160a01b0319831681179093556040519116919082907f8be0079c531659141344cd1fd0a4f28419497f9722a3daafe3b4186f6b6457e090600090a35050565b80516001600160a01b0381168114620002fb57600080fd5b919050565b634e487b7160e01b600052604160045260246000fd5b60005b838110156200033357818101518382015260200162000319565b50506000910152565b600080600080608085870312156200035357600080fd5b6200035e85620002e3565b93506200036e60208601620002e3565b60408601519093506001600160401b03808211156200038c57600080fd5b818701915087601f830112620003a157600080fd5b815181811115620003b657620003b662000300565b604051601f8201601f19908116603f01168101908382118183101715620003e157620003e162000300565b816040528281528a6020848701011115620003fb57600080fd5b6200040e83602083016020880162000316565b80965050505050506200042460608601620002e3565b905092959194509250565b600181811c908216806200044457607f821691505b6020821081036200046557634e487b7160e01b600052602260045260246000fd5b50919050565b601f821115620004b957600081815260208120601f850160051c81016020861015620004945750805b601f850160051c820191505b81811015620004b557828155600101620004a0565b5050505b505050565b81516001600160401b03811115620004da57620004da62000300565b620004f281620004eb84546200042f565b846200046b565b602080601f8311600181146200052a5760008415620005115750858301515b600019600386901b1c1916600185901b178555620004b5565b600085815260208120601f198616915b828110156200055b578886015182559484019460019091019084016200053a565b50858210156200057a5787850151600019600388901b60f8161c191681555b5050505050600190811b01905550565b60008086546200059a816200042f565b60018281168015620005b55760018114620005cb57620005fc565b60ff1984168752821515830287019450620005fc565b8a60005260208060002060005b85811015620005f35781548a820152908401908201620005d8565b50505082870194505b50505050855162000612818360208a0162000316565b85519101906200062781836020890162000316565b84519101906200063c81836020880162000316565b019695505050505050565b6000600182016200066857634e487b7160e01b600052601160045260246000fd5b5060010190565b6142d2806200067f6000396000f3fe608060405234801561001057600080fd5b50600436106102bb5760003560e01c80637e50fa8f11610182578063a22cb465116100e9578063dec3f6d9116100a2578063e606df871161007c578063e606df87146106d3578063e985e9c5146106e6578063eb12d61e146106f9578063f2fde38b1461070c57600080fd5b8063dec3f6d9146106af578063e1883c6e146106b7578063e5db587a146106ca57600080fd5b8063a22cb46514610653578063aaaeca1714610666578063b88d4fde1461066e578063bf400a6a14610681578063c3461c0714610694578063c87b56dd1461069c57600080fd5b80639038f4141161013b5780639038f4141461060c57806395d89b41146106145780639abc83201461061c5780639c7f707f146106245780639f4415d814610637578063a1af8ad41461064057600080fd5b80637e50fa8f14610503578063809eb355146105235780638ba526fc146105635780638da5cb5b146105765780638dc10768146105875780638dd8be47146105f957600080fd5b8063335c8b63116102265780635dde20d8116101df5780635dde20d81461047f5780636352211e1461049f5780637065cb48146104b257806370a08231146104c5578063715018a6146104d8578063736c0d5b146104e057600080fd5b8063335c8b63146103f357806342842e0e1461040a57806342966c681461041d578063483823e8146104305780634e5ad318146104395780635312ea8e1461046c57600080fd5b80630e316ab7116102785780630e316ab714610381578063173825d91461039457806320965a5f146103a757806323b872dd146103ba578063267b841d146103cd5780632ca699e7146103e057600080fd5b806301ffc9a7146102c0578063022914a7146102e85780630435dcaf1461030b57806306fdde031461032c578063081812fc14610341578063095ea7b31461036c575b600080fd5b6102d36102ce366004613645565b61071f565b60405190151581526020015b60405180910390f35b6102d36102f6366004613677565b60166020526000908152604090205460ff1681565b61031e610319366004613677565b610771565b6040516102df9291906136d2565b6103346109e1565b6040516102df9190613750565b61035461034f366004613763565b610a73565b6040516001600160a01b0390911681526020016102df565b61037f61037a36600461377c565b610a9a565b005b61037f61038f366004613677565b610bb4565b61037f6103a2366004613677565b610cfa565b61037f6103b53660046137ec565b610e3f565b61037f6103c836600461382d565b61113f565b61037f6103db36600461390b565b611171565b61037f6103ee3660046139e7565b61163a565b6103fc600b5481565b6040519081526020016102df565b61037f61041836600461382d565b6117bc565b61037f61042b366004613763565b6117d7565b6103fc600f5481565b6102d3610447366004613a1c565b33600090815260146020908152604080832060ff948516845290915290205416151590565b61037f61047a366004613763565b611808565b6103fc61048d366004613763565b60126020526000908152604090205481565b6103546104ad366004613763565b611916565b61037f6104c0366004613677565b611976565b6103fc6104d3366004613677565b611a58565b61037f611ade565b6102d36104ee366004613677565b60176020526000908152604090205460ff1681565b6103fc610511366004613677565b60156020526000908152604090205481565b6105516105313660046139e7565b601460209081526000928352604080842090915290825290205460ff1681565b60405160ff90911681526020016102df565b61037f610571366004613763565b611af2565b6007546001600160a01b0316610354565b6105c9610595366004613763565b60136020526000908152604090208054600182015460028301546003909301549192909160ff808316926101009004169085565b6040805195865260208601949094529115159284019290925260ff9091166060830152608082015260a0016102df565b600854610354906001600160a01b031681565b61037f611b5f565b610334611e54565b610334611e63565b61037f610632366004613aae565b611ef1565b6103fc600e5481565b61037f61064e366004613b11565b611f6b565b61037f610661366004613b73565b6121d6565b61037f6121e1565b61037f61067c366004613bac565b612248565b61037f61068f366004613a1c565b61227a565b610334612377565b6103346106aa366004613763565b612384565b61033461238f565b61037f6106c5366004613763565b61239c565b6103fc600c5481565b600a54610354906001600160a01b031681565b6102d36106f4366004613c2b565b6123f4565b61037f610707366004613677565b612422565b61037f61071a366004613677565b612504565b60006001600160e01b031982166380ac58cd60e01b148061075057506001600160e01b03198216635b5e139f60e01b145b8061076b57506301ffc9a760e01b6001600160e01b03198316145b92915050565b604080516079808252610f408201909252606091829160009160208201610f20803683375050604080516079808252610f408201909252929350600092915060208201610f2080368337019050509050600060015b60788160ff1611610897576001600160a01b038716600090815260146020908152604080832060ff808616855292529091205416156108855780848360ff168151811061081557610815613c59565b60ff9283166020918202929092018101919091526001600160a01b038916600090815260148252604080822085851683529092522054845190821691859190851690811061086557610865613c59565b60ff909216602092830291909101909101528161088181613c85565b9250505b8061088f81613c85565b9150506107c6565b5060008160ff166001600160401b038111156108b5576108b561386e565b6040519080825280602002602001820160405280156108de578160200160208202803683370190505b50905060008260ff166001600160401b038111156108fe576108fe61386e565b604051908082528060200260200182016040528015610927578160200160208202803683370190505b50905060005b8360ff168160ff1610156109d357858160ff168151811061095057610950613c59565b6020026020010151838260ff168151811061096d5761096d613c59565b60ff928316602091820292909201015285518691831690811061099257610992613c59565b6020026020010151828260ff16815181106109af576109af613c59565b60ff90921660209283029190910190910152806109cb81613c85565b91505061092d565b509097909650945050505050565b6060600080546109f090613ca4565b80601f0160208091040260200160405190810160405280929190818152602001828054610a1c90613ca4565b8015610a695780601f10610a3e57610100808354040283529160200191610a69565b820191906000526020600020905b815481529060010190602001808311610a4c57829003601f168201915b5050505050905090565b6000610a7e8261257a565b506000908152600460205260409020546001600160a01b031690565b6000610aa582611916565b9050806001600160a01b0316836001600160a01b031603610b175760405162461bcd60e51b815260206004820152602160248201527f4552433732313a20617070726f76616c20746f2063757272656e74206f776e656044820152603960f91b60648201526084015b60405180910390fd5b336001600160a01b0382161480610b335750610b3381336123f4565b610ba55760405162461bcd60e51b815260206004820152603d60248201527f4552433732313a20617070726f76652063616c6c6572206973206e6f7420746f60448201527f6b656e206f776e6572206f7220617070726f76656420666f7220616c6c0000006064820152608401610b0e565b610baf83836125d9565b505050565b3360009081526016602052604090205460ff16610be35760405162461bcd60e51b8152600401610b0e90613cde565b6001600160a01b038116610c095760405162461bcd60e51b8152600401610b0e90613d21565b336001600160a01b03821603610c715760405162461bcd60e51b815260206004820152602760248201527f596f752063616e6e6f742072656d6f766520796f757273656c6620617320616e6044820152661039b4b3b732b960c91b6064820152608401610b0e565b6001600160a01b03811660009081526017602052604090205460ff16610cd95760405162461bcd60e51b815260206004820152601860248201527f41646472657373206973206e6f7420616e207369676e657200000000000000006044820152606401610b0e565b6001600160a01b03166000908152601760205260409020805460ff19169055565b3360009081526016602052604090205460ff16610d295760405162461bcd60e51b8152600401610b0e90613cde565b6001600160a01b038116610d4f5760405162461bcd60e51b8152600401610b0e90613d21565b336001600160a01b03821603610db65760405162461bcd60e51b815260206004820152602660248201527f596f752063616e6e6f742072656d6f766520796f757273656c6620617320616e6044820152651037bbb732b960d11b6064820152608401610b0e565b6001600160a01b03811660009081526016602052604090205460ff16610e1e5760405162461bcd60e51b815260206004820152601760248201527f41646472657373206973206e6f7420616e206f776e65720000000000000000006044820152606401610b0e565b6001600160a01b03166000908152601660205260409020805460ff19169055565b3360009081526014602090815260408083206079845290915290205460ff16610eaa5760405162461bcd60e51b815260206004820152601860248201527f4e6f207469656e657320616c62756d206465207175656d6100000000000000006044820152606401610b0e565b336000908152601460209081526040808320607984529091528120805460ff1691610ed483613d4a565b825460ff9182166101009390930a9283029190920219909116179055503360009081526015602052604081208054839290610f10908490613d67565b90915550600090505b60ff8116821115610fb15733600090815260146020526040812090848460ff8516818110610f4957610f49613c59565b9050602002016020810190610f5e9190613a1c565b60ff90811682526020820192909252604001600090812080549092169190610f8583613d4a565b91906101000a81548160ff021916908360ff160217905550508080610fa990613c85565b915050610f19565b5033600090815260156020526040902054610fce90603c90613d90565b60000361113b5761106d3360118054610fe690613ca4565b80601f016020809104026020016040519081016040528092919081815260200182805461101290613ca4565b801561105f5780601f106110345761010080835404028352916020019161105f565b820191906000526020600020905b81548152906001019060200180831161104257829003601f168201915b505050505060796002612647565b600e54600c60008282546110819190613da4565b9091555050600a54600f5460405163a9059cbb60e01b815233600482015260248101919091526001600160a01b039091169063a9059cbb906044016020604051808303816000875af11580156110db573d6000803e3d6000fd5b505050506040513d601f19601f820116820180604052508101906110ff9190613db7565b5060408051338152600260208201527f6d0344e2059f835240cb954cce07d4b26f0d0844eecc234f7ee0e292ba80a1aa91015b60405180910390a15b5050565b61114a335b826126aa565b6111665760405162461bcd60e51b8152600401610b0e90613dd4565b610baf838383612709565b60085460405163d3e6a7ad60e01b81526004810186905233916001600160a01b03169063d3e6a7ad90602401602060405180830381865afa1580156111ba573d6000803e3d6000fd5b505050506040513d601f19601f820116820180604052508101906111de9190613e21565b6001600160a01b03161461122c5760405162461bcd60e51b81526020600482015260156024820152744573746520736f627265206e6f206573207475796f60581b6044820152606401610b0e565b600f83511061127d5760405162461bcd60e51b815260206004820152601960248201527f4c696d6974652064652063617274617320657863656469646f000000000000006044820152606401610b0e565b6008546040516380f2540b60e01b8152600481018690523360248201526001600160a01b03909116906380f2540b90604401600060405180830381600087803b1580156112c957600080fd5b505af11580156112dd573d6000803e3d6000fd5b505050506006600b546112f09190613e3e565b600b546112fd9190613da4565b600c600082825461130e9190613d67565b92505081905550600061138f33868660405160200161132f93929190613e52565b60408051601f1981840301815282825280516020918201207f19457468657265756d205369676e6564204d6573736167653a0a33320000000084830152603c8085019190915282518085039091018152605c909301909152815191012090565b905060006113d584848080601f016020809104026020016040519081016040528093929190818152602001838380828437600092019190915250869392505061287a9050565b90506114166040518060400160405280601a81526020017f6f70656e207061636b207369676e6572207265636f76657265640000000000008152508261289e565b6001600160a01b03811660009081526017602052604090205460ff166114725760405162461bcd60e51b8152602060048201526011602482015270496e76616c6964207369676e617475726560781b6044820152606401610b0e565b845160005b818160ff1610156115f557868160ff168151811061149757611497613c59565b602002602001015160ff166078146114e55761138960126000898460ff16815181106114c5576114c5613c59565b602002602001015160ff1681526020019081526020016000205410611516565b607860005260126020527fd43bf65cc296265a72286ada1f6592702fb1f53ce0ec526dff3e3696637b205b54610bb9115b61151f57600080fd5b60126000888360ff168151811061153857611538613c59565b602002602001015160ff168152602001908152602001600020600081548092919061156290613ee0565b90915550503360009081526014602052604081208851909190899060ff851690811061159057611590613c59565b602002602001015160ff1660ff168152602001908152602001600020600081819054906101000a900460ff16809291906115c990613c85565b91906101000a81548160ff021916908360ff1602179055505080806115ed90613c85565b915050611477565b507fbabe8f5e83e93ab103ddf917b4292a19335a5128b3530bedd896a681cdd945e333878960405161162993929190613ef9565b60405180910390a150505050505050565b33600090815260146020908152604080832060ff8086168552925290912054166116765760405162461bcd60e51b8152600401610b0e90613f2d565b336001600160a01b038316036116ce5760405162461bcd60e51b815260206004820152601a60248201527f5472616e73662070726f706961206e6f207065726d69746964610000000000006044820152606401610b0e565b6001600160a01b0382166117245760405162461bcd60e51b815260206004820152601e60248201527f5175656d61646f20646520636172746173206e6f207065726d697469646f00006044820152606401610b0e565b33600090815260146020908152604080832060ff80861685529252822080549091169161175083613d4a565b82546101009290920a60ff8181021990931691831602179091556001600160a01b0384166000908152601460209081526040808320868516845290915281208054909216925061179f83613c85565b91906101000a81548160ff021916908360ff160217905550505050565b610baf83838360405180602001604052806000815250612248565b6117e033611144565b6117fc5760405162461bcd60e51b8152600401610b0e90613dd4565b611805816128e3565b50565b3360009081526016602052604090205460ff166118375760405162461bcd60e51b8152600401610b0e90613cde565b8061184130611a58565b101561184c57600080fd5b80600c600082825461185e9190613da4565b9091555050600a5460405163a9059cbb60e01b8152336004820152602481018390526001600160a01b039091169063a9059cbb906044016020604051808303816000875af11580156118b4573d6000803e3d6000fd5b505050506040513d601f19601f820116820180604052508101906118d89190613db7565b5060408051338152602081018390527f23d6711a1d031134a36921253c75aa59e967d38e369ac625992824315e204f2091015b60405180910390a150565b6000818152600260205260408120546001600160a01b03168061076b5760405162461bcd60e51b8152602060048201526018602482015277115490cdcc8c4e881a5b9d985b1a59081d1bdad95b88125160421b6044820152606401610b0e565b3360009081526016602052604090205460ff166119a55760405162461bcd60e51b8152600401610b0e90613cde565b6001600160a01b0381166119cb5760405162461bcd60e51b8152600401610b0e90613d21565b6001600160a01b03811660009081526016602052604090205460ff1615611a345760405162461bcd60e51b815260206004820152601b60248201527f4164647265737320697320616c726561647920616e206f776e657200000000006044820152606401610b0e565b6001600160a01b03166000908152601660205260409020805460ff19166001179055565b60006001600160a01b038216611ac25760405162461bcd60e51b815260206004820152602960248201527f4552433732313a2061646472657373207a65726f206973206e6f7420612076616044820152683634b21037bbb732b960b91b6064820152608401610b0e565b506001600160a01b031660009081526003602052604090205490565b611ae66128ec565b611af06000612946565b565b6008546001600160a01b03163314611b455760405162461bcd60e51b8152602060048201526016602482015275536f6c6f20636f6e747261746f206465207061636b7360501b6044820152606401610b0e565b80600c6000828254611b579190613d67565b909155505050565b3360009081526014602090815260408083206078845290915290205460ff16611bc35760405162461bcd60e51b81526020600482015260166024820152754e6f207469656e6573206e696e67756e20616c62756d60501b6044820152606401610b0e565b600e54600c541015611c0e5760405162461bcd60e51b8152602060048201526014602482015273466f6e646f7320696e737566696369656e74657360601b6044820152606401610b0e565b6000805b60798160ff161015611ca45733600090815260146020908152604080832060ff80861685529252822054169003611c4c5760019150611ca4565b33600090815260146020908152604080832060ff808616855292528220805490911691611c7883613d4a565b91906101000a81548160ff021916908360ff160217905550508080611c9c90613c85565b915050611c12565b508015611cf35760405162461bcd60e51b815260206004820152601760248201527f4d75737420636f6d706c6574652074686520616c62756d0000000000000000006044820152606401610b0e565b611d8b3360108054611d0490613ca4565b80601f0160208091040260200160405190810160405280929190818152602001828054611d3090613ca4565b8015611d7d5780601f10611d5257610100808354040283529160200191611d7d565b820191906000526020600020905b815481529060010190602001808311611d6057829003601f168201915b505050505060786002612647565b600e54600c6000828254611d9f9190613da4565b9091555050600a54600e5460405163a9059cbb60e01b815233600482015260248101919091526001600160a01b039091169063a9059cbb906044016020604051808303816000875af1158015611df9573d6000803e3d6000fd5b505050506040513d601f19601f82011682018060405250810190611e1d9190613db7565b5060408051338152600160208201527f6d0344e2059f835240cb954cce07d4b26f0d0844eecc234f7ee0e292ba80a1aa910161190b565b6060600180546109f090613ca4565b600d8054611e7090613ca4565b80601f0160208091040260200160405190810160405280929190818152602001828054611e9c90613ca4565b8015611ee95780601f10611ebe57610100808354040283529160200191611ee9565b820191906000526020600020905b815481529060010190602001808311611ecc57829003601f168201915b505050505081565b3360009081526016602052604090205460ff16611f205760405162461bcd60e51b8152600401610b0e90613cde565b6010611f2c8382613fa9565b506011611f398282613fa9565b507fabfd337ac5625b7dc2ddd3d3bd465fb1dec15322eeeed81032268b337880bec68282604051611132929190614068565b336001600160a01b03841603611fd15760405162461bcd60e51b815260206004820152602560248201527f4e6f2074652070756564657320656e76696172206361727461732061207469206044820152646d69736d6f60d81b6064820152608401610b0e565b6001600160a01b0383166120365760405162461bcd60e51b815260206004820152602660248201527f4e6f20707565646573207175656d6172206361727461732064652065737461206044820152656d616e65726160d01b6064820152608401610b0e565b60005b60ff81168211156121d05733600090815260146020526040812081858560ff861681811061206957612069613c59565b905060200201602081019061207e9190613a1c565b60ff908116825260208201929092526040016000205416116120b25760405162461bcd60e51b8152600401610b0e90613f2d565b33600090815260146020526040812090848460ff85168181106120d7576120d7613c59565b90506020020160208101906120ec9190613a1c565b60ff9081168252602082019290925260400160009081208054909216919061211383613d4a565b91906101000a81548160ff021916908360ff1602179055505060146000856001600160a01b03166001600160a01b03168152602001908152602001600020600084848460ff1681811061216857612168613c59565b905060200201602081019061217d9190613a1c565b60ff908116825260208201929092526040016000908120805490921691906121a483613c85565b91906101000a81548160ff021916908360ff1602179055505080806121c890613c85565b915050612039565b50505050565b61113b338383612998565b60005b60798160ff1610156118055733600090815260146020908152604080832060ff80861685529252822080549091169161221c83613c85565b91906101000a81548160ff021916908360ff16021790555050808061224090613c85565b9150506121e4565b61225233836126aa565b61226e5760405162461bcd60e51b8152600401610b0e90613dd4565b6121d084848484612a66565b33600090815260146020908152604080832060ff8086168552925290912054166122b65760405162461bcd60e51b8152600401610b0e90613f2d565b33600090815260146020908152604080832060ff8086168552925282208054909116916122e283613d4a565b91906101000a81548160ff021916908360ff160217905550506000600d604051806040016040528060018152602001602f60f81b8152506123258460ff16612a99565b60405180604001604052806005815260200164173539b7b760d91b815250604051602001612356949392919061408d565b604051602081830303815290604052905061113b33828460ff166001612647565b60108054611e7090613ca4565b606061076b82612b99565b60118054611e7090613ca4565b6008546001600160a01b031633146123ef5760405162461bcd60e51b8152602060048201526016602482015275536f6c6f20636f6e747261746f206465207061636b7360501b6044820152606401610b0e565b600b55565b6001600160a01b03918216600090815260056020908152604080832093909416825291909152205460ff1690565b3360009081526016602052604090205460ff166124515760405162461bcd60e51b8152600401610b0e90613cde565b6001600160a01b0381166124775760405162461bcd60e51b8152600401610b0e90613d21565b6001600160a01b03811660009081526017602052604090205460ff16156124e05760405162461bcd60e51b815260206004820152601b60248201527f4164647265737320697320616c726561647920616e206f776e657200000000006044820152606401610b0e565b6001600160a01b03166000908152601760205260409020805460ff19166001179055565b61250c6128ec565b6001600160a01b0381166125715760405162461bcd60e51b815260206004820152602660248201527f4f776e61626c653a206e6577206f776e657220697320746865207a65726f206160448201526564647265737360d01b6064820152608401610b0e565b61180581612946565b6000818152600260205260409020546001600160a01b03166118055760405162461bcd60e51b8152602060048201526018602482015277115490cdcc8c4e881a5b9d985b1a59081d1bdad95b88125160421b6044820152606401610b0e565b600081815260046020526040902080546001600160a01b0319166001600160a01b038416908117909155819061260e82611916565b6001600160a01b03167f8c5be1e5ebec7d5bd14f71427d1e84f3dd0314c0f7b2291e5b200ac8c7c3b92560405160405180910390a45050565b600061265260095490565b9050612662600980546001019055565b600081815260136020526040902081815560018101849055600201805461ff00191661010060ff8516021790556126998582612ca1565b6126a38185612cbb565b5050505050565b6000806126b683611916565b9050806001600160a01b0316846001600160a01b031614806126dd57506126dd81856123f4565b806127015750836001600160a01b03166126f684610a73565b6001600160a01b0316145b949350505050565b826001600160a01b031661271c82611916565b6001600160a01b0316146127425760405162461bcd60e51b8152600401610b0e9061413c565b6001600160a01b0382166127a45760405162461bcd60e51b8152602060048201526024808201527f4552433732313a207472616e7366657220746f20746865207a65726f206164646044820152637265737360e01b6064820152608401610b0e565b6127b18383836001612d4e565b826001600160a01b03166127c482611916565b6001600160a01b0316146127ea5760405162461bcd60e51b8152600401610b0e9061413c565b600081815260046020908152604080832080546001600160a01b03199081169091556001600160a01b0387811680865260038552838620805460001901905590871680865283862080546001019055868652600290945282852080549092168417909155905184937fddf252ad1be2c89b69c2b068fc378daa952ba7f163c4a11628f55a4df523b3ef91a4505050565b60008060006128898585612dd6565b9150915061289681612e1b565b509392505050565b61113b82826040516024016128b4929190614181565b60408051601f198184030181529190526020810180516001600160e01b031663319af33360e01b179052612f65565b61180581612f6e565b6007546001600160a01b03163314611af05760405162461bcd60e51b815260206004820181905260248201527f4f776e61626c653a2063616c6c6572206973206e6f7420746865206f776e65726044820152606401610b0e565b600780546001600160a01b038381166001600160a01b0319831681179093556040519116919082907f8be0079c531659141344cd1fd0a4f28419497f9722a3daafe3b4186f6b6457e090600090a35050565b816001600160a01b0316836001600160a01b0316036129f95760405162461bcd60e51b815260206004820152601960248201527f4552433732313a20617070726f766520746f2063616c6c6572000000000000006044820152606401610b0e565b6001600160a01b03838116600081815260056020908152604080832094871680845294825291829020805460ff191686151590811790915591519182527f17307eab39ab6107e8899845ad3d59bd9653f200f220920489ca2b5937696c31910160405180910390a3505050565b612a71848484612709565b612a7d84848484612fae565b6121d05760405162461bcd60e51b8152600401610b0e906141ab565b606081600003612ac05750506040805180820190915260018152600360fc1b602082015290565b8160005b8115612aea5780612ad481613ee0565b9150612ae39050600a83613e3e565b9150612ac4565b6000816001600160401b03811115612b0457612b0461386e565b6040519080825280601f01601f191660200182016040528015612b2e576020820181803683370190505b5090505b841561270157612b43600183613da4565b9150612b50600a86613d90565b612b5b906030613d67565b60f81b818381518110612b7057612b70613c59565b60200101906001600160f81b031916908160001a905350612b92600a86613e3e565b9450612b32565b6060612ba48261257a565b60008281526006602052604081208054612bbd90613ca4565b80601f0160208091040260200160405190810160405280929190818152602001828054612be990613ca4565b8015612c365780601f10612c0b57610100808354040283529160200191612c36565b820191906000526020600020905b815481529060010190602001808311612c1957829003601f168201915b505050505090506000612c5460408051602081019091526000815290565b90508051600003612c66575092915050565b815115612c98578082604051602001612c809291906141fd565b60405160208183030381529060405292505050919050565b612701846130af565b61113b828260405180602001604052806000815250613123565b6000828152600260205260409020546001600160a01b0316612d365760405162461bcd60e51b815260206004820152602e60248201527f45524337323155524953746f726167653a2055524920736574206f66206e6f6e60448201526d32bc34b9ba32b73a103a37b5b2b760911b6064820152608401610b0e565b6000828152600660205260409020610baf8282613fa9565b60018111156121d0576001600160a01b03841615612d94576001600160a01b03841660009081526003602052604081208054839290612d8e908490613da4565b90915550505b6001600160a01b038316156121d0576001600160a01b03831660009081526003602052604081208054839290612dcb908490613d67565b909155505050505050565b6000808251604103612e0c5760208301516040840151606085015160001a612e0087828585613156565b94509450505050612e14565b506000905060025b9250929050565b6000816004811115612e2f57612e2f61422c565b03612e375750565b6001816004811115612e4b57612e4b61422c565b03612e985760405162461bcd60e51b815260206004820152601860248201527f45434453413a20696e76616c6964207369676e617475726500000000000000006044820152606401610b0e565b6002816004811115612eac57612eac61422c565b03612ef95760405162461bcd60e51b815260206004820152601f60248201527f45434453413a20696e76616c6964207369676e6174757265206c656e677468006044820152606401610b0e565b6003816004811115612f0d57612f0d61422c565b036118055760405162461bcd60e51b815260206004820152602260248201527f45434453413a20696e76616c6964207369676e6174757265202773272076616c604482015261756560f01b6064820152608401610b0e565b6118058161321a565b612f778161323b565b60008181526006602052604090208054612f9090613ca4565b159050611805576000818152600660205260408120611805916135e1565b60006001600160a01b0384163b156130a457604051630a85bd0160e11b81526001600160a01b0385169063150b7a0290612ff2903390899088908890600401614242565b6020604051808303816000875af192505050801561302d575060408051601f3d908101601f1916820190925261302a9181019061427f565b60015b61308a573d80801561305b576040519150601f19603f3d011682016040523d82523d6000602084013e613060565b606091505b5080516000036130825760405162461bcd60e51b8152600401610b0e906141ab565b805181602001fd5b6001600160e01b031916630a85bd0160e11b149050612701565b506001949350505050565b60606130ba8261257a565b60006130d160408051602081019091526000815290565b905060008151116130f1576040518060200160405280600081525061311c565b806130fb846132de565b60405160200161310c9291906141fd565b6040516020818303038152906040525b9392505050565b61312d8383613370565b61313a6000848484612fae565b610baf5760405162461bcd60e51b8152600401610b0e906141ab565b6000807f7fffffffffffffffffffffffffffffff5d576e7357a4501ddfe92f46681b20a083111561318d5750600090506003613211565b6040805160008082526020820180845289905260ff881692820192909252606081018690526080810185905260019060a0016020604051602081039080840390855afa1580156131e1573d6000803e3d6000fd5b5050604051601f1901519150506001600160a01b03811661320a57600060019250925050613211565b9150600090505b94509492505050565b60006a636f6e736f6c652e6c6f679050600080835160208501845afa505050565b600061324682611916565b9050613256816000846001612d4e565b61325f82611916565b600083815260046020908152604080832080546001600160a01b03199081169091556001600160a01b0385168085526003845282852080546000190190558785526002909352818420805490911690555192935084927fddf252ad1be2c89b69c2b068fc378daa952ba7f163c4a11628f55a4df523b3ef908390a45050565b606060006132eb83613509565b60010190506000816001600160401b0381111561330a5761330a61386e565b6040519080825280601f01601f191660200182016040528015613334576020820181803683370190505b5090508181016020015b600019016f181899199a1a9b1b9c1cb0b131b232b360811b600a86061a8153600a850494508461333e57509392505050565b6001600160a01b0382166133c65760405162461bcd60e51b815260206004820181905260248201527f4552433732313a206d696e7420746f20746865207a65726f20616464726573736044820152606401610b0e565b6000818152600260205260409020546001600160a01b03161561342b5760405162461bcd60e51b815260206004820152601c60248201527f4552433732313a20746f6b656e20616c7265616479206d696e746564000000006044820152606401610b0e565b613439600083836001612d4e565b6000818152600260205260409020546001600160a01b03161561349e5760405162461bcd60e51b815260206004820152601c60248201527f4552433732313a20746f6b656e20616c7265616479206d696e746564000000006044820152606401610b0e565b6001600160a01b038216600081815260036020908152604080832080546001019055848352600290915280822080546001600160a01b0319168417905551839291907fddf252ad1be2c89b69c2b068fc378daa952ba7f163c4a11628f55a4df523b3ef908290a45050565b60008072184f03e93ff9f4daa797ed6e38ed64bf6a1f0160401b83106135485772184f03e93ff9f4daa797ed6e38ed64bf6a1f0160401b830492506040015b6d04ee2d6d415b85acef81000000008310613574576d04ee2d6d415b85acef8100000000830492506020015b662386f26fc10000831061359257662386f26fc10000830492506010015b6305f5e10083106135aa576305f5e100830492506008015b61271083106135be57612710830492506004015b606483106135d0576064830492506002015b600a831061076b5760010192915050565b5080546135ed90613ca4565b6000825580601f106135fd575050565b601f01602090049060005260206000209081019061180591905b8082111561362b5760008155600101613617565b5090565b6001600160e01b03198116811461180557600080fd5b60006020828403121561365757600080fd5b813561311c8161362f565b6001600160a01b038116811461180557600080fd5b60006020828403121561368957600080fd5b813561311c81613662565b600081518084526020808501945080840160005b838110156136c757815160ff16875295820195908201906001016136a8565b509495945050505050565b6040815260006136e56040830185613694565b82810360208401526136f78185613694565b95945050505050565b60005b8381101561371b578181015183820152602001613703565b50506000910152565b6000815180845261373c816020860160208601613700565b601f01601f19169290920160200192915050565b60208152600061311c6020830184613724565b60006020828403121561377557600080fd5b5035919050565b6000806040838503121561378f57600080fd5b823561379a81613662565b946020939093013593505050565b60008083601f8401126137ba57600080fd5b5081356001600160401b038111156137d157600080fd5b6020830191508360208260051b8501011115612e1457600080fd5b600080602083850312156137ff57600080fd5b82356001600160401b0381111561381557600080fd5b613821858286016137a8565b90969095509350505050565b60008060006060848603121561384257600080fd5b833561384d81613662565b9250602084013561385d81613662565b929592945050506040919091013590565b634e487b7160e01b600052604160045260246000fd5b604051601f8201601f191681016001600160401b03811182821017156138ac576138ac61386e565b604052919050565b803560ff811681146138c557600080fd5b919050565b60008083601f8401126138dc57600080fd5b5081356001600160401b038111156138f357600080fd5b602083019150836020828501011115612e1457600080fd5b6000806000806060858703121561392157600080fd5b843593506020808601356001600160401b038082111561394057600080fd5b818801915088601f83011261395457600080fd5b8135818111156139665761396661386e565b8060051b613975858201613884565b918252838101850191858101908c84111561398f57600080fd5b948601945b838610156139b4576139a5866138b4565b82529486019490860190613994565b985050505060408801359250808311156139cd57600080fd5b50506139db878288016138ca565b95989497509550505050565b600080604083850312156139fa57600080fd5b8235613a0581613662565b9150613a13602084016138b4565b90509250929050565b600060208284031215613a2e57600080fd5b61311c826138b4565b60006001600160401b03831115613a5057613a5061386e565b613a63601f8401601f1916602001613884565b9050828152838383011115613a7757600080fd5b828260208301376000602084830101529392505050565b600082601f830112613a9f57600080fd5b61311c83833560208501613a37565b60008060408385031215613ac157600080fd5b82356001600160401b0380821115613ad857600080fd5b613ae486838701613a8e565b93506020850135915080821115613afa57600080fd5b50613b0785828601613a8e565b9150509250929050565b600080600060408486031215613b2657600080fd5b8335613b3181613662565b925060208401356001600160401b03811115613b4c57600080fd5b613b58868287016137a8565b9497909650939450505050565b801515811461180557600080fd5b60008060408385031215613b8657600080fd5b8235613b9181613662565b91506020830135613ba181613b65565b809150509250929050565b60008060008060808587031215613bc257600080fd5b8435613bcd81613662565b93506020850135613bdd81613662565b92506040850135915060608501356001600160401b03811115613bff57600080fd5b8501601f81018713613c1057600080fd5b613c1f87823560208401613a37565b91505092959194509250565b60008060408385031215613c3e57600080fd5b8235613c4981613662565b91506020830135613ba181613662565b634e487b7160e01b600052603260045260246000fd5b634e487b7160e01b600052601160045260246000fd5b600060ff821660ff8103613c9b57613c9b613c6f565b60010192915050565b600181811c90821680613cb857607f821691505b602082108103613cd857634e487b7160e01b600052602260045260246000fd5b50919050565b60208082526023908201527f4f6e6c79206f776e6572732063616e2063616c6c20746869732066756e63746960408201526237b71760e91b606082015260800190565b6020808252600f908201526e496e76616c6964206164647265737360881b604082015260600190565b600060ff821680613d5d57613d5d613c6f565b6000190192915050565b8082018082111561076b5761076b613c6f565b634e487b7160e01b600052601260045260246000fd5b600082613d9f57613d9f613d7a565b500690565b8181038181111561076b5761076b613c6f565b600060208284031215613dc957600080fd5b815161311c81613b65565b6020808252602d908201527f4552433732313a2063616c6c6572206973206e6f7420746f6b656e206f776e6560408201526c1c881bdc88185c1c1c9bdd9959609a1b606082015260800190565b600060208284031215613e3357600080fd5b815161311c81613662565b600082613e4d57613e4d613d7a565b500490565b6bffffffffffffffffffffffff198460601b1681528260148201526000603482018351602080860160005b83811015613e9c57815160ff1685529382019390820190600101613e7d565b50507f30786631644437313839356534396231353633363933393639646535303839388352693139376344463334383160b01b9083015250602a0195945050505050565b600060018201613ef257613ef2613c6f565b5060010190565b6001600160a01b0384168152606060208201819052600090613f1d90830185613694565b9050826040830152949350505050565b6020808252601490820152734e6f207469656e6573206573746120636172746160601b604082015260600190565b601f821115610baf57600081815260208120601f850160051c81016020861015613f825750805b601f850160051c820191505b81811015613fa157828155600101613f8e565b505050505050565b81516001600160401b03811115613fc257613fc261386e565b613fd681613fd08454613ca4565b84613f5b565b602080601f83116001811461400b5760008415613ff35750858301515b600019600386901b1c1916600185901b178555613fa1565b600085815260208120601f198616915b8281101561403a5788860151825594840194600190910190840161401b565b50858210156140585787850151600019600388901b60f8161c191681555b5050505050600190811b01905550565b60408152600061407b6040830185613724565b82810360208401526136f78185613724565b600080865461409b81613ca4565b600182811680156140b357600181146140c8576140f7565b60ff19841687528215158302870194506140f7565b8a60005260208060002060005b858110156140ee5781548a8201529084019082016140d5565b50505082870194505b50505050855161410b818360208a01613700565b855191019061411e818360208901613700565b8451910190614131818360208801613700565b019695505050505050565b60208082526025908201527f4552433732313a207472616e736665722066726f6d20696e636f72726563742060408201526437bbb732b960d91b606082015260800190565b6040815260006141946040830185613724565b905060018060a01b03831660208301529392505050565b60208082526032908201527f4552433732313a207472616e7366657220746f206e6f6e20455243373231526560408201527131b2b4bb32b91034b6b83632b6b2b73a32b960711b606082015260800190565b6000835161420f818460208801613700565b835190830190614223818360208801613700565b01949350505050565b634e487b7160e01b600052602160045260246000fd5b6001600160a01b038581168252841660208201526040810183905260806060820181905260009061427590830184613724565b9695505050505050565b60006020828403121561429157600080fd5b815161311c8161362f56fea26469706673582212206ca13976ef27d81bac376fc9bbaff39c9ef0d04a9a0fcd34d619e4f8408ea34964736f6c63430008120033",
  "linkReferences": {},
  "deployedLinkReferences": {}
}