{
  "_format": "hh-sol-artifact-1",
  "contractName": "GammaCards",
  "sourceName": "contracts/GammaCards.sol",
  "abi": [
    {
      "inputs": [
        {
          "internalType": "address",
          "name": "_daiTokenAddress",
          "type": "address"
        },
        {
          "internalType": "address",
          "name": "_packsContract",
          "type": "address"
        },
        {
          "internalType": "string",
          "name": "_baseUri",
          "type": "string"
        },
        {
          "internalType": "address",
          "name": "_signer",
          "type": "address"
        }
      ],
      "stateMutability": "nonpayable",
      "type": "constructor"
    },
    {
      "anonymous": false,
      "inputs": [
        {
          "indexed": false,
          "internalType": "address",
          "name": "player",
          "type": "address"
        },
        {
          "indexed": false,
          "internalType": "uint8",
          "name": "class",
          "type": "uint8"
        }
      ],
      "name": "AlbumCompleted",
      "type": "event"
    },
    {
      "anonymous": false,
      "inputs": [
        {
          "indexed": true,
          "internalType": "address",
          "name": "owner",
          "type": "address"
        },
        {
          "indexed": true,
          "internalType": "address",
          "name": "approved",
          "type": "address"
        },
        {
          "indexed": true,
          "internalType": "uint256",
          "name": "tokenId",
          "type": "uint256"
        }
      ],
      "name": "Approval",
      "type": "event"
    },
    {
      "anonymous": false,
      "inputs": [
        {
          "indexed": true,
          "internalType": "address",
          "name": "owner",
          "type": "address"
        },
        {
          "indexed": true,
          "internalType": "address",
          "name": "operator",
          "type": "address"
        },
        {
          "indexed": false,
          "internalType": "bool",
          "name": "approved",
          "type": "bool"
        }
      ],
      "name": "ApprovalForAll",
      "type": "event"
    },
    {
      "anonymous": false,
      "inputs": [
        {
          "indexed": false,
          "internalType": "address",
          "name": "player",
          "type": "address"
        },
        {
          "indexed": false,
          "internalType": "uint256",
          "name": "cardTokenId",
          "type": "uint256"
        },
        {
          "indexed": false,
          "internalType": "uint256",
          "name": "albumTokenId",
          "type": "uint256"
        }
      ],
      "name": "CardPasted",
      "type": "event"
    },
    {
      "anonymous": false,
      "inputs": [
        {
          "indexed": false,
          "internalType": "address",
          "name": "receiver",
          "type": "address"
        },
        {
          "indexed": false,
          "internalType": "uint256",
          "name": "amount",
          "type": "uint256"
        }
      ],
      "name": "EmergencyWithdrawal",
      "type": "event"
    },
    {
      "anonymous": false,
      "inputs": [
        {
          "indexed": true,
          "internalType": "address",
          "name": "previousOwner",
          "type": "address"
        },
        {
          "indexed": true,
          "internalType": "address",
          "name": "newOwner",
          "type": "address"
        }
      ],
      "name": "OwnershipTransferred",
      "type": "event"
    },
    {
      "anonymous": false,
      "inputs": [
        {
          "indexed": false,
          "internalType": "address",
          "name": "player",
          "type": "address"
        },
        {
          "indexed": false,
          "internalType": "uint8[]",
          "name": "packData",
          "type": "uint8[]"
        },
        {
          "indexed": false,
          "internalType": "uint256",
          "name": "packNumber",
          "type": "uint256"
        }
      ],
      "name": "PackOpened",
      "type": "event"
    },
    {
      "anonymous": false,
      "inputs": [
        {
          "indexed": true,
          "internalType": "address",
          "name": "from",
          "type": "address"
        },
        {
          "indexed": true,
          "internalType": "address",
          "name": "to",
          "type": "address"
        },
        {
          "indexed": true,
          "internalType": "uint256",
          "name": "tokenId",
          "type": "uint256"
        }
      ],
      "name": "Transfer",
      "type": "event"
    },
    {
      "inputs": [],
      "name": "DAI_TOKEN",
      "outputs": [
        {
          "internalType": "address",
          "name": "",
          "type": "address"
        }
      ],
      "stateMutability": "view",
      "type": "function"
    },
    {
      "inputs": [
        {
          "internalType": "uint256",
          "name": "albumTokenId",
          "type": "uint256"
        },
        {
          "internalType": "uint256",
          "name": "cardNum",
          "type": "uint256"
        }
      ],
      "name": "albumsCompletion",
      "outputs": [
        {
          "internalType": "bool",
          "name": "pasted",
          "type": "bool"
        }
      ],
      "stateMutability": "view",
      "type": "function"
    },
    {
      "inputs": [
        {
          "internalType": "uint256",
          "name": "albumNumber",
          "type": "uint256"
        }
      ],
      "name": "albumsInventory",
      "outputs": [
        {
          "internalType": "uint256",
          "name": "amount",
          "type": "uint256"
        }
      ],
      "stateMutability": "view",
      "type": "function"
    },
    {
      "inputs": [
        {
          "internalType": "address",
          "name": "to",
          "type": "address"
        },
        {
          "internalType": "uint256",
          "name": "tokenId",
          "type": "uint256"
        }
      ],
      "name": "approve",
      "outputs": [],
      "stateMutability": "nonpayable",
      "type": "function"
    },
    {
      "inputs": [
        {
          "internalType": "address",
          "name": "owner",
          "type": "address"
        }
      ],
      "name": "balanceOf",
      "outputs": [
        {
          "internalType": "uint256",
          "name": "",
          "type": "uint256"
        }
      ],
      "stateMutability": "view",
      "type": "function"
    },
    {
      "inputs": [],
      "name": "baseUri",
      "outputs": [
        {
          "internalType": "string",
          "name": "",
          "type": "string"
        }
      ],
      "stateMutability": "view",
      "type": "function"
    },
    {
      "inputs": [
        {
          "internalType": "uint256",
          "name": "tokenId",
          "type": "uint256"
        }
      ],
      "name": "burn",
      "outputs": [],
      "stateMutability": "nonpayable",
      "type": "function"
    },
    {
      "inputs": [
        {
          "internalType": "uint256",
          "name": "tokenId",
          "type": "uint256"
        }
      ],
      "name": "cards",
      "outputs": [
        {
          "internalType": "uint256",
          "name": "tokenId",
          "type": "uint256"
        },
        {
          "internalType": "uint256",
          "name": "number",
          "type": "uint256"
        },
        {
          "internalType": "bool",
          "name": "pasted",
          "type": "bool"
        },
        {
          "internalType": "uint8",
          "name": "class",
          "type": "uint8"
        },
        {
          "internalType": "uint256",
          "name": "completion",
          "type": "uint256"
        }
      ],
      "stateMutability": "view",
      "type": "function"
    },
    {
      "inputs": [
        {
          "internalType": "address",
          "name": "user",
          "type": "address"
        },
        {
          "internalType": "uint256",
          "name": "",
          "type": "uint256"
        }
      ],
      "name": "cardsByUser",
      "outputs": [
        {
          "internalType": "uint256",
          "name": "tokenId",
          "type": "uint256"
        }
      ],
      "stateMutability": "view",
      "type": "function"
    },
    {
      "inputs": [
        {
          "internalType": "uint256",
          "name": "cardNumber",
          "type": "uint256"
        }
      ],
      "name": "cardsInventory",
      "outputs": [
        {
          "internalType": "uint256",
          "name": "amount",
          "type": "uint256"
        }
      ],
      "stateMutability": "view",
      "type": "function"
    },
    {
      "inputs": [],
      "name": "emergencyWithdraw",
      "outputs": [],
      "stateMutability": "nonpayable",
      "type": "function"
    },
    {
      "inputs": [
        {
          "internalType": "uint256",
          "name": "tokenId",
          "type": "uint256"
        }
      ],
      "name": "getApproved",
      "outputs": [
        {
          "internalType": "address",
          "name": "",
          "type": "address"
        }
      ],
      "stateMutability": "view",
      "type": "function"
    },
    {
      "inputs": [
        {
          "internalType": "address",
          "name": "owner",
          "type": "address"
        },
        {
          "internalType": "address",
          "name": "operator",
          "type": "address"
        }
      ],
      "name": "isApprovedForAll",
      "outputs": [
        {
          "internalType": "bool",
          "name": "",
          "type": "bool"
        }
      ],
      "stateMutability": "view",
      "type": "function"
    },
    {
      "inputs": [],
      "name": "mainAlbumPrize",
      "outputs": [
        {
          "internalType": "uint256",
          "name": "",
          "type": "uint256"
        }
      ],
      "stateMutability": "view",
      "type": "function"
    },
    {
      "inputs": [],
      "name": "name",
      "outputs": [
        {
          "internalType": "string",
          "name": "",
          "type": "string"
        }
      ],
      "stateMutability": "view",
      "type": "function"
    },
    {
      "inputs": [
        {
          "internalType": "uint256",
          "name": "packNumber",
          "type": "uint256"
        },
        {
          "internalType": "uint8[]",
          "name": "packData",
          "type": "uint8[]"
        },
        {
          "internalType": "bytes",
          "name": "signature",
          "type": "bytes"
        }
      ],
      "name": "openPack",
      "outputs": [],
      "stateMutability": "nonpayable",
      "type": "function"
    },
    {
      "inputs": [],
      "name": "owner",
      "outputs": [
        {
          "internalType": "address",
          "name": "",
          "type": "address"
        }
      ],
      "stateMutability": "view",
      "type": "function"
    },
    {
      "inputs": [
        {
          "internalType": "uint256",
          "name": "tokenId",
          "type": "uint256"
        }
      ],
      "name": "ownerOf",
      "outputs": [
        {
          "internalType": "address",
          "name": "",
          "type": "address"
        }
      ],
      "stateMutability": "view",
      "type": "function"
    },
    {
      "inputs": [],
      "name": "packPrice",
      "outputs": [
        {
          "internalType": "uint256",
          "name": "",
          "type": "uint256"
        }
      ],
      "stateMutability": "view",
      "type": "function"
    },
    {
      "inputs": [],
      "name": "packsContract",
      "outputs": [
        {
          "internalType": "address",
          "name": "",
          "type": "address"
        }
      ],
      "stateMutability": "view",
      "type": "function"
    },
    {
      "inputs": [],
      "name": "packsContractInterface",
      "outputs": [
        {
          "internalType": "contract IGammaPacks",
          "name": "",
          "type": "address"
        }
      ],
      "stateMutability": "view",
      "type": "function"
    },
    {
      "inputs": [
        {
          "internalType": "uint256",
          "name": "cardTokenId",
          "type": "uint256"
        },
        {
          "internalType": "uint256",
          "name": "albumTokenId",
          "type": "uint256"
        }
      ],
      "name": "pasteCard",
      "outputs": [],
      "stateMutability": "nonpayable",
      "type": "function"
    },
    {
      "inputs": [],
      "name": "prizesBalance",
      "outputs": [
        {
          "internalType": "uint256",
          "name": "",
          "type": "uint256"
        }
      ],
      "stateMutability": "view",
      "type": "function"
    },
    {
      "inputs": [],
      "name": "renounceOwnership",
      "outputs": [],
      "stateMutability": "nonpayable",
      "type": "function"
    },
    {
      "inputs": [
        {
          "internalType": "address",
          "name": "from",
          "type": "address"
        },
        {
          "internalType": "address",
          "name": "to",
          "type": "address"
        },
        {
          "internalType": "uint256",
          "name": "tokenId",
          "type": "uint256"
        }
      ],
      "name": "safeTransferFrom",
      "outputs": [],
      "stateMutability": "nonpayable",
      "type": "function"
    },
    {
      "inputs": [
        {
          "internalType": "address",
          "name": "from",
          "type": "address"
        },
        {
          "internalType": "address",
          "name": "to",
          "type": "address"
        },
        {
          "internalType": "uint256",
          "name": "tokenId",
          "type": "uint256"
        },
        {
          "internalType": "bytes",
          "name": "data",
          "type": "bytes"
        }
      ],
      "name": "safeTransferFrom",
      "outputs": [],
      "stateMutability": "nonpayable",
      "type": "function"
    },
    {
      "inputs": [],
      "name": "secondaryAlbumPrize",
      "outputs": [
        {
          "internalType": "uint256",
          "name": "",
          "type": "uint256"
        }
      ],
      "stateMutability": "view",
      "type": "function"
    },
    {
      "inputs": [
        {
          "internalType": "address",
          "name": "operator",
          "type": "address"
        },
        {
          "internalType": "bool",
          "name": "approved",
          "type": "bool"
        }
      ],
      "name": "setApprovalForAll",
      "outputs": [],
      "stateMutability": "nonpayable",
      "type": "function"
    },
    {
      "inputs": [],
      "name": "signer",
      "outputs": [
        {
          "internalType": "address",
          "name": "",
          "type": "address"
        }
      ],
      "stateMutability": "view",
      "type": "function"
    },
    {
      "inputs": [
        {
          "internalType": "bytes4",
          "name": "interfaceId",
          "type": "bytes4"
        }
      ],
      "name": "supportsInterface",
      "outputs": [
        {
          "internalType": "bool",
          "name": "",
          "type": "bool"
        }
      ],
      "stateMutability": "view",
      "type": "function"
    },
    {
      "inputs": [],
      "name": "symbol",
      "outputs": [
        {
          "internalType": "string",
          "name": "",
          "type": "string"
        }
      ],
      "stateMutability": "view",
      "type": "function"
    },
    {
      "inputs": [
        {
          "internalType": "uint256",
          "name": "tokenId",
          "type": "uint256"
        }
      ],
      "name": "tokenURI",
      "outputs": [
        {
          "internalType": "string",
          "name": "",
          "type": "string"
        }
      ],
      "stateMutability": "view",
      "type": "function"
    },
    {
      "inputs": [
        {
          "internalType": "address",
          "name": "from",
          "type": "address"
        },
        {
          "internalType": "address",
          "name": "to",
          "type": "address"
        },
        {
          "internalType": "uint256",
          "name": "tokenId",
          "type": "uint256"
        }
      ],
      "name": "transferFrom",
      "outputs": [],
      "stateMutability": "nonpayable",
      "type": "function"
    },
    {
      "inputs": [
        {
          "internalType": "address",
          "name": "newOwner",
          "type": "address"
        }
      ],
      "name": "transferOwnership",
      "outputs": [],
      "stateMutability": "nonpayable",
      "type": "function"
    },
    {
      "inputs": [
        {
          "internalType": "uint256",
          "name": "nonce",
          "type": "uint256"
        }
      ],
      "name": "usedNonces",
      "outputs": [
        {
          "internalType": "bool",
          "name": "used",
          "type": "bool"
        }
      ],
      "stateMutability": "view",
      "type": "function"
    }
  ],
  "bytecode": "0x60a060405267d02ab486cedc0000600f55670de0b6b3a76400006010553480156200002957600080fd5b50604051620064ef380380620064ef83398181016040528101906200004f9190620004da565b6040518060400160405280600a81526020017f47616d6d614361726473000000000000000000000000000000000000000000008152506040518060400160405280600681526020017f4e4f465f474300000000000000000000000000000000000000000000000000008152508160009081620000cc9190620007b6565b508060019081620000de9190620007b6565b50505062000101620000f56200021460201b60201c565b6200021c60201b60201c565b82600860006101000a81548173ffffffffffffffffffffffffffffffffffffffff021916908373ffffffffffffffffffffffffffffffffffffffff16021790555083600a60006101000a81548173ffffffffffffffffffffffffffffffffffffffff021916908373ffffffffffffffffffffffffffffffffffffffff16021790555082600b60006101000a81548173ffffffffffffffffffffffffffffffffffffffff021916908373ffffffffffffffffffffffffffffffffffffffff16021790555081600e9081620001d59190620007b6565b508073ffffffffffffffffffffffffffffffffffffffff1660808173ffffffffffffffffffffffffffffffffffffffff1681525050505050506200089d565b600033905090565b6000600760009054906101000a900473ffffffffffffffffffffffffffffffffffffffff16905081600760006101000a81548173ffffffffffffffffffffffffffffffffffffffff021916908373ffffffffffffffffffffffffffffffffffffffff1602179055508173ffffffffffffffffffffffffffffffffffffffff168173ffffffffffffffffffffffffffffffffffffffff167f8be0079c531659141344cd1fd0a4f28419497f9722a3daafe3b4186f6b6457e060405160405180910390a35050565b6000604051905090565b600080fd5b600080fd5b600073ffffffffffffffffffffffffffffffffffffffff82169050919050565b60006200032382620002f6565b9050919050565b620003358162000316565b81146200034157600080fd5b50565b60008151905062000355816200032a565b92915050565b600080fd5b600080fd5b6000601f19601f8301169050919050565b7f4e487b7100000000000000000000000000000000000000000000000000000000600052604160045260246000fd5b620003b08262000365565b810181811067ffffffffffffffff82111715620003d257620003d162000376565b5b80604052505050565b6000620003e7620002e2565b9050620003f58282620003a5565b919050565b600067ffffffffffffffff82111562000418576200041762000376565b5b620004238262000365565b9050602081019050919050565b60005b838110156200045057808201518184015260208101905062000433565b60008484015250505050565b6000620004736200046d84620003fa565b620003db565b90508281526020810184848401111562000492576200049162000360565b5b6200049f84828562000430565b509392505050565b600082601f830112620004bf57620004be6200035b565b5b8151620004d18482602086016200045c565b91505092915050565b60008060008060808587031215620004f757620004f6620002ec565b5b6000620005078782880162000344565b94505060206200051a8782880162000344565b935050604085015167ffffffffffffffff8111156200053e576200053d620002f1565b5b6200054c87828801620004a7565b92505060606200055f8782880162000344565b91505092959194509250565b600081519050919050565b7f4e487b7100000000000000000000000000000000000000000000000000000000600052602260045260246000fd5b60006002820490506001821680620005be57607f821691505b602082108103620005d457620005d362000576565b5b50919050565b60008190508160005260206000209050919050565b60006020601f8301049050919050565b600082821b905092915050565b6000600883026200063e7fffffffffffffffffffffffffffffffffffffffffffffffffffffffffffffffff82620005ff565b6200064a8683620005ff565b95508019841693508086168417925050509392505050565b6000819050919050565b6000819050919050565b600062000697620006916200068b8462000662565b6200066c565b62000662565b9050919050565b6000819050919050565b620006b38362000676565b620006cb620006c2826200069e565b8484546200060c565b825550505050565b600090565b620006e2620006d3565b620006ef818484620006a8565b505050565b5b8181101562000717576200070b600082620006d8565b600181019050620006f5565b5050565b601f82111562000766576200073081620005da565b6200073b84620005ef565b810160208510156200074b578190505b620007636200075a85620005ef565b830182620006f4565b50505b505050565b600082821c905092915050565b60006200078b600019846008026200076b565b1980831691505092915050565b6000620007a6838362000778565b9150826002028217905092915050565b620007c1826200056b565b67ffffffffffffffff811115620007dd57620007dc62000376565b5b620007e98254620005a5565b620007f68282856200071b565b600060209050601f8311600181146200082e576000841562000819578287015190505b62000825858262000798565b86555062000895565b601f1984166200083e86620005da565b60005b82811015620008685784890151825560018201915060208501945060208101905062000841565b8683101562000888578489015162000884601f89168262000778565b8355505b6001600288020188555050505b505050505050565b608051615c2f620008c060003960008181610f3001526111fb0152615c2f6000f3fe608060405234801561001057600080fd5b50600436106102115760003560e01c8063715018a611610125578063a22cb465116100ad578063e5db587a1161007c578063e5db587a1461062c578063e606df871461064a578063e672745214610668578063e985e9c514610686578063f2fde38b146106b657610211565b8063a22cb465146105ba578063b88d4fde146105d6578063c87b56dd146105f2578063db2e21bc1461062257610211565b80638dd8be47116100f45780638dd8be471461051257806395d89b411461053057806398bbe6d51461054e5780639abc83201461057e5780639f4415d81461059c57610211565b8063715018a6146104865780638a9781aa146104905780638da5cb5b146104c05780638dc10768146104de57610211565b8063335c8b63116101a85780635d4f4f69116101775780635d4f4f69146103965780635dde20d8146103c65780636352211e146103f65780636717e41c1461042657806370a082311461045657610211565b8063335c8b631461032257806342842e0e1461034057806342966c681461035c578063483823e81461037857610211565b8063095ea7b3116101e4578063095ea7b3146102b0578063238ac933146102cc57806323b872dd146102ea578063267b841d1461030657610211565b806301ffc9a714610216578063036b035a1461024657806306fdde0314610262578063081812fc14610280575b600080fd5b610230600480360381019061022b9190613a9f565b6106d2565b60405161023d9190613ae7565b60405180910390f35b610260600480360381019061025b9190613b38565b6107b4565b005b61026a610d3f565b6040516102779190613c08565b60405180910390f35b61029a60048036038101906102959190613c2a565b610dd1565b6040516102a79190613c98565b60405180910390f35b6102ca60048036038101906102c59190613cdf565b610e17565b005b6102d4610f2e565b6040516102e19190613c98565b60405180910390f35b61030460048036038101906102ff9190613d1f565b610f52565b005b610320600480360381019061031b9190613f4e565b610fb2565b005b61032a6116b2565b6040516103379190613fed565b60405180910390f35b61035a60048036038101906103559190613d1f565b6116b8565b005b61037660048036038101906103719190613c2a565b6116d3565b005b61038061172f565b60405161038d9190613fed565b60405180910390f35b6103b060048036038101906103ab9190613b38565b611735565b6040516103bd9190613ae7565b60405180910390f35b6103e060048036038101906103db9190613c2a565b611764565b6040516103ed9190613fed565b60405180910390f35b610410600480360381019061040b9190613c2a565b61177c565b60405161041d9190613c98565b60405180910390f35b610440600480360381019061043b9190613c2a565b611802565b60405161044d9190613ae7565b60405180910390f35b610470600480360381019061046b9190614008565b611822565b60405161047d9190613fed565b60405180910390f35b61048e6118d9565b005b6104aa60048036038101906104a59190613c2a565b6118ed565b6040516104b79190613fed565b60405180910390f35b6104c8611905565b6040516104d59190613c98565b60405180910390f35b6104f860048036038101906104f39190613c2a565b61192f565b604051610509959493929190614044565b60405180910390f35b61051a61197f565b6040516105279190613c98565b60405180910390f35b6105386119a5565b6040516105459190613c08565b60405180910390f35b61056860048036038101906105639190613cdf565b611a37565b6040516105759190613fed565b60405180910390f35b610586611a68565b6040516105939190613c08565b60405180910390f35b6105a4611af6565b6040516105b19190613fed565b60405180910390f35b6105d460048036038101906105cf91906140c3565b611afc565b005b6105f060048036038101906105eb91906141b8565b611b12565b005b61060c60048036038101906106079190613c2a565b611b74565b6040516106199190613c08565b60405180910390f35b61062a611b86565b005b610634611c78565b6040516106419190613fed565b60405180910390f35b610652611c7e565b60405161065f9190613c98565b60405180910390f35b610670611ca4565b60405161067d919061429a565b60405180910390f35b6106a0600480360381019061069b91906142b5565b611cca565b6040516106ad9190613ae7565b60405180910390f35b6106d060048036038101906106cb9190614008565b611d5e565b005b60007f80ac58cd000000000000000000000000000000000000000000000000000000007bffffffffffffffffffffffffffffffffffffffffffffffffffffffff1916827bffffffffffffffffffffffffffffffffffffffffffffffffffffffff1916148061079d57507f5b5e139f000000000000000000000000000000000000000000000000000000007bffffffffffffffffffffffffffffffffffffffffffffffffffffffff1916827bffffffffffffffffffffffffffffffffffffffffffffffffffffffff1916145b806107ad57506107ac82611de1565b5b9050919050565b3373ffffffffffffffffffffffffffffffffffffffff166107d48361177c565b73ffffffffffffffffffffffffffffffffffffffff1614801561082a57503373ffffffffffffffffffffffffffffffffffffffff166108128261177c565b73ffffffffffffffffffffffffffffffffffffffff16145b610869576040517f08c379a000000000000000000000000000000000000000000000000000000000815260040161086090614367565b60405180910390fd5b60016014600083815260200190815260200160002060020160019054906101000a900460ff1660ff16116108d2576040517f08c379a00000000000000000000000000000000000000000000000000000000081526004016108c9906143d3565b60405180910390fd5b60016014600084815260200190815260200160002060020160019054906101000a900460ff1660ff161461093b576040517f08c379a00000000000000000000000000000000000000000000000000000000081526004016109329061443f565b60405180910390fd5b60006014600083815260200190815260200160002060020160019054906101000a900460ff16905060028160ff1603610a4a576015600083815260200190815260200160002060006014600086815260200190815260200160002060010154815260200190815260200160002060009054906101000a900460ff16156109f6576040517f08c379a00000000000000000000000000000000000000000000000000000000081526004016109ed906144ab565b60405180910390fd5b60016015600084815260200190815260200160002060006014600087815260200190815260200160002060010154815260200190815260200160002060006101000a81548160ff0219169083151502179055505b601460008381526020019081526020016000206003016000815480929190610a71906144fa565b919050555060016014600085815260200190815260200160002060020160006101000a81548160ff0219169083151502179055507f7ab6504e276a4cc030e62b9e8909a879d55dba80fca5fa9d909fbe6bf19798ba338484604051610ad893929190614542565b60405180910390a160028160ff16148015610b09575060786014600084815260200190815260200160002060030154145b15610c0a57600f54600d6000828254610b229190614579565b92505081905550600a60009054906101000a900473ffffffffffffffffffffffffffffffffffffffff1673ffffffffffffffffffffffffffffffffffffffff1663a9059cbb33600f546040518363ffffffff1660e01b8152600401610b889291906145ad565b6020604051808303816000875af1158015610ba7573d6000803e3d6000fd5b505050506040513d601f19601f82011682018060405250810190610bcb91906145eb565b507f6d0344e2059f835240cb954cce07d4b26f0d0844eecc234f7ee0e292ba80a1aa3382604051610bfd929190614618565b60405180910390a1610d31565b60038160ff16148015610c335750603c6014600084815260200190815260200160002060030154145b15610d3057601054600d6000828254610c4c9190614579565b92505081905550600a60009054906101000a900473ffffffffffffffffffffffffffffffffffffffff1673ffffffffffffffffffffffffffffffffffffffff1663a9059cbb336010546040518363ffffffff1660e01b8152600401610cb29291906145ad565b6020604051808303816000875af1158015610cd1573d6000803e3d6000fd5b505050506040513d601f19601f82011682018060405250810190610cf591906145eb565b507f6d0344e2059f835240cb954cce07d4b26f0d0844eecc234f7ee0e292ba80a1aa3382604051610d27929190614618565b60405180910390a15b5b610d3a83611e4b565b505050565b606060008054610d4e90614670565b80601f0160208091040260200160405190810160405280929190818152602001828054610d7a90614670565b8015610dc75780601f10610d9c57610100808354040283529160200191610dc7565b820191906000526020600020905b815481529060010190602001808311610daa57829003601f168201915b5050505050905090565b6000610ddc82611e57565b6004600083815260200190815260200160002060009054906101000a900473ffffffffffffffffffffffffffffffffffffffff169050919050565b6000610e228261177c565b90508073ffffffffffffffffffffffffffffffffffffffff168373ffffffffffffffffffffffffffffffffffffffff1603610e92576040517f08c379a0000000000000000000000000000000000000000000000000000000008152600401610e8990614713565b60405180910390fd5b8073ffffffffffffffffffffffffffffffffffffffff16610eb1611ea2565b73ffffffffffffffffffffffffffffffffffffffff161480610ee05750610edf81610eda611ea2565b611cca565b5b610f1f576040517f08c379a0000000000000000000000000000000000000000000000000000000008152600401610f16906147a5565b60405180910390fd5b610f298383611eaa565b505050565b7f000000000000000000000000000000000000000000000000000000000000000081565b610f63610f5d611ea2565b82611f63565b610fa2576040517f08c379a0000000000000000000000000000000000000000000000000000000008152600401610f9990614837565b60405180910390fd5b610fad838383611ff8565b505050565b3373ffffffffffffffffffffffffffffffffffffffff16600860009054906101000a900473ffffffffffffffffffffffffffffffffffffffff1673ffffffffffffffffffffffffffffffffffffffff16636352211e866040518263ffffffff1660e01b81526004016110249190613fed565b602060405180830381865afa158015611041573d6000803e3d6000fd5b505050506040513d601f19601f82011682018060405250810190611065919061486c565b73ffffffffffffffffffffffffffffffffffffffff16146110bb576040517f08c379a00000000000000000000000000000000000000000000000000000000081526004016110b2906148e5565b60405180910390fd5b60328351106110ff576040517f08c379a00000000000000000000000000000000000000000000000000000000081526004016110f690614951565b60405180910390fd5b600860009054906101000a900473ffffffffffffffffffffffffffffffffffffffff1673ffffffffffffffffffffffffffffffffffffffff166350a88c7e856040518263ffffffff1660e01b815260040161115a9190613fed565b600060405180830381600087803b15801561117457600080fd5b505af1158015611188573d6000803e3d6000fd5b505050506006600c5461119b91906149a0565b600c546111a89190614579565b600d60008282546111b991906149d1565b9250508190555060006111f7338686306040516020016111dc9493929190614b26565b604051602081830303815290604052805190602001206122f1565b90507f000000000000000000000000000000000000000000000000000000000000000073ffffffffffffffffffffffffffffffffffffffff1661128784848080601f016020809104026020016040519081016040528093929190818152602001838380828437600081840152601f19601f820116905080830192505050505050508361232190919063ffffffff16565b73ffffffffffffffffffffffffffffffffffffffff16146112dd576040517f08c379a00000000000000000000000000000000000000000000000000000000081526004016112d490614bbc565b60405180910390fd5b60005b84518160ff16101561166f576000600e6040518060400160405280600181526020017f2f0000000000000000000000000000000000000000000000000000000000000081525061134f888560ff168151811061133f5761133e614bdc565b5b602002602001015160ff16612348565b6040518060400160405280600581526020017f2e6a736f6e0000000000000000000000000000000000000000000000000000008152506040516020016113989493929190614cea565b60405160208183030381529060405290506078868360ff16815181106113c1576113c0614bdc565b5b602002602001015160ff1610156114c45761138760126000888560ff16815181106113ef576113ee614bdc565b5b602002602001015160ff1681526020019081526020016000205410611449576040517f08c379a000000000000000000000000000000000000000000000000000000000815260040161144090614d9a565b60405180910390fd5b60126000878460ff168151811061146357611462614bdc565b5b602002602001015160ff168152602001908152602001600020600081548092919061148d906144fa565b91905055506114bf3382888560ff16815181106114ad576114ac614bdc565b5b602002602001015160ff1660016124a8565b61165b565b6078868360ff16815181106114dc576114db614bdc565b5b602002602001015160ff16036115a057610bb760136000607881526020019081526020016000205410611544576040517f08c379a000000000000000000000000000000000000000000000000000000000815260040161153b90614e2c565b60405180910390fd5b60136000607881526020019081526020016000206000815480929190611569906144fa565b919050555061159b3382888560ff168151811061158957611588614bdc565b5b602002602001015160ff1660026124a8565b61165a565b6079868360ff16815181106115b8576115b7614bdc565b5b602002602001015160ff16036116595761138760136000607981526020019081526020016000205410611620576040517f08c379a000000000000000000000000000000000000000000000000000000000815260040161161790614ebe565b60405180910390fd5b60136000607981526020019081526020016000206000815480929190611645906144fa565b91905055506116583382607960036124a8565b5b5b5b50808061166790614ede565b9150506112e0565b507fbabe8f5e83e93ab103ddf917b4292a19335a5128b3530bedd896a681cdd945e33385876040516116a393929190614f9d565b60405180910390a15050505050565b600c5481565b6116c38383836125a6565b6116ce838383612843565b505050565b6116e46116de611ea2565b82611f63565b611723576040517f08c379a000000000000000000000000000000000000000000000000000000000815260040161171a90614837565b60405180910390fd5b61172c81611e4b565b50565b60105481565b60156020528160005260406000206020528060005260406000206000915091509054906101000a900460ff1681565b60126020528060005260406000206000915090505481565b60008061178883612863565b9050600073ffffffffffffffffffffffffffffffffffffffff168173ffffffffffffffffffffffffffffffffffffffff16036117f9576040517f08c379a00000000000000000000000000000000000000000000000000000000081526004016117f090615027565b60405180910390fd5b80915050919050565b60116020528060005260406000206000915054906101000a900460ff1681565b60008073ffffffffffffffffffffffffffffffffffffffff168273ffffffffffffffffffffffffffffffffffffffff1603611892576040517f08c379a0000000000000000000000000000000000000000000000000000000008152600401611889906150b9565b60405180910390fd5b600360008373ffffffffffffffffffffffffffffffffffffffff1673ffffffffffffffffffffffffffffffffffffffff168152602001908152602001600020549050919050565b6118e16128a0565b6118eb600061291e565b565b60136020528060005260406000206000915090505481565b6000600760009054906101000a900473ffffffffffffffffffffffffffffffffffffffff16905090565b60146020528060005260406000206000915090508060000154908060010154908060020160009054906101000a900460ff16908060020160019054906101000a900460ff16908060030154905085565b600b60009054906101000a900473ffffffffffffffffffffffffffffffffffffffff1681565b6060600180546119b490614670565b80601f01602080910402602001604051908101604052809291908181526020018280546119e090614670565b8015611a2d5780601f10611a0257610100808354040283529160200191611a2d565b820191906000526020600020905b815481529060010190602001808311611a1057829003601f168201915b5050505050905090565b60166020528160005260406000208181548110611a5357600080fd5b90600052602060002001600091509150505481565b600e8054611a7590614670565b80601f0160208091040260200160405190810160405280929190818152602001828054611aa190614670565b8015611aee5780601f10611ac357610100808354040283529160200191611aee565b820191906000526020600020905b815481529060010190602001808311611ad157829003601f168201915b505050505081565b600f5481565b611b0e611b07611ea2565b83836129e4565b5050565b611b23611b1d611ea2565b83611f63565b611b62576040517f08c379a0000000000000000000000000000000000000000000000000000000008152600401611b5990614837565b60405180910390fd5b611b6e84848484612b50565b50505050565b6060611b7f82612bac565b9050919050565b611b8e6128a0565b6000611b9930611822565b9050600a60009054906101000a900473ffffffffffffffffffffffffffffffffffffffff1673ffffffffffffffffffffffffffffffffffffffff1663a9059cbb33836040518363ffffffff1660e01b8152600401611bf89291906145ad565b6020604051808303816000875af1158015611c17573d6000803e3d6000fd5b505050506040513d601f19601f82011682018060405250810190611c3b91906145eb565b507f23d6711a1d031134a36921253c75aa59e967d38e369ac625992824315e204f203382604051611c6d9291906145ad565b60405180910390a150565b600d5481565b600a60009054906101000a900473ffffffffffffffffffffffffffffffffffffffff1681565b600860009054906101000a900473ffffffffffffffffffffffffffffffffffffffff1681565b6000600560008473ffffffffffffffffffffffffffffffffffffffff1673ffffffffffffffffffffffffffffffffffffffff16815260200190815260200160002060008373ffffffffffffffffffffffffffffffffffffffff1673ffffffffffffffffffffffffffffffffffffffff16815260200190815260200160002060009054906101000a900460ff16905092915050565b611d666128a0565b600073ffffffffffffffffffffffffffffffffffffffff168173ffffffffffffffffffffffffffffffffffffffff1603611dd5576040517f08c379a0000000000000000000000000000000000000000000000000000000008152600401611dcc9061514b565b60405180910390fd5b611dde8161291e565b50565b60007f01ffc9a7000000000000000000000000000000000000000000000000000000007bffffffffffffffffffffffffffffffffffffffffffffffffffffffff1916827bffffffffffffffffffffffffffffffffffffffffffffffffffffffff1916149050919050565b611e5481612cbe565b50565b611e6081612d11565b611e9f576040517f08c379a0000000000000000000000000000000000000000000000000000000008152600401611e9690615027565b60405180910390fd5b50565b600033905090565b816004600083815260200190815260200160002060006101000a81548173ffffffffffffffffffffffffffffffffffffffff021916908373ffffffffffffffffffffffffffffffffffffffff160217905550808273ffffffffffffffffffffffffffffffffffffffff16611f1d8361177c565b73ffffffffffffffffffffffffffffffffffffffff167f8c5be1e5ebec7d5bd14f71427d1e84f3dd0314c0f7b2291e5b200ac8c7c3b92560405160405180910390a45050565b600080611f6f8361177c565b90508073ffffffffffffffffffffffffffffffffffffffff168473ffffffffffffffffffffffffffffffffffffffff161480611fb15750611fb08185611cca565b5b80611fef57508373ffffffffffffffffffffffffffffffffffffffff16611fd784610dd1565b73ffffffffffffffffffffffffffffffffffffffff16145b91505092915050565b8273ffffffffffffffffffffffffffffffffffffffff166120188261177c565b73ffffffffffffffffffffffffffffffffffffffff161461206e576040517f08c379a0000000000000000000000000000000000000000000000000000000008152600401612065906151dd565b60405180910390fd5b600073ffffffffffffffffffffffffffffffffffffffff168273ffffffffffffffffffffffffffffffffffffffff16036120dd576040517f08c379a00000000000000000000000000000000000000000000000000000000081526004016120d49061526f565b60405180910390fd5b6120ea8383836001612d52565b8273ffffffffffffffffffffffffffffffffffffffff1661210a8261177c565b73ffffffffffffffffffffffffffffffffffffffff1614612160576040517f08c379a0000000000000000000000000000000000000000000000000000000008152600401612157906151dd565b60405180910390fd5b6004600082815260200190815260200160002060006101000a81549073ffffffffffffffffffffffffffffffffffffffff02191690556001600360008573ffffffffffffffffffffffffffffffffffffffff1673ffffffffffffffffffffffffffffffffffffffff168152602001908152602001600020600082825403925050819055506001600360008473ffffffffffffffffffffffffffffffffffffffff1673ffffffffffffffffffffffffffffffffffffffff16815260200190815260200160002060008282540192505081905550816002600083815260200190815260200160002060006101000a81548173ffffffffffffffffffffffffffffffffffffffff021916908373ffffffffffffffffffffffffffffffffffffffff160217905550808273ffffffffffffffffffffffffffffffffffffffff168473ffffffffffffffffffffffffffffffffffffffff167fddf252ad1be2c89b69c2b068fc378daa952ba7f163c4a11628f55a4df523b3ef60405160405180910390a46122ec8383836001612e78565b505050565b6000816040516020016123049190615311565b604051602081830303815290604052805190602001209050919050565b60008060006123308585612e7e565b9150915061233d81612ecf565b819250505092915050565b60606000820361238f576040518060400160405280600181526020017f300000000000000000000000000000000000000000000000000000000000000081525090506124a3565b600082905060005b600082146123c15780806123aa906144fa565b915050600a826123ba91906149a0565b9150612397565b60008167ffffffffffffffff8111156123dd576123dc613d77565b5b6040519080825280601f01601f19166020018201604052801561240f5781602001600182028036833780820191505090505b5090505b6000851461249c576001826124289190614579565b9150600a856124379190615337565b603061244391906149d1565b60f81b81838151811061245957612458614bdc565b5b60200101907effffffffffffffffffffffffffffffffffffffffffffffffffffffffffffff1916908160001a905350600a8561249591906149a0565b9450612413565b8093505050505b919050565b60006124b46009613035565b90506124c06009613043565b806014600083815260200190815260200160002060000181905550826014600083815260200190815260200160002060010181905550816014600083815260200190815260200160002060020160016101000a81548160ff021916908360ff160217905550601660003373ffffffffffffffffffffffffffffffffffffffff1673ffffffffffffffffffffffffffffffffffffffff1681526020019081526020016000208190806001815401808255809150506001900390600052602060002001600090919091909150556125958582613059565b61259f8185613077565b5050505050565b60005b601660008573ffffffffffffffffffffffffffffffffffffffff1673ffffffffffffffffffffffffffffffffffffffff168152602001908152602001600020805490508110156127d75781601660008673ffffffffffffffffffffffffffffffffffffffff1673ffffffffffffffffffffffffffffffffffffffff168152602001908152602001600020828154811061264557612644614bdc565b5b9060005260206000200154036127c457601660008573ffffffffffffffffffffffffffffffffffffffff1673ffffffffffffffffffffffffffffffffffffffff1681526020019081526020016000206001601660008773ffffffffffffffffffffffffffffffffffffffff1673ffffffffffffffffffffffffffffffffffffffff168152602001908152602001600020805490506126e39190614579565b815481106126f4576126f3614bdc565b5b9060005260206000200154601660008673ffffffffffffffffffffffffffffffffffffffff1673ffffffffffffffffffffffffffffffffffffffff16815260200190815260200160002082815481106127505761274f614bdc565b5b9060005260206000200181905550601660008573ffffffffffffffffffffffffffffffffffffffff1673ffffffffffffffffffffffffffffffffffffffff1681526020019081526020016000208054806127ad576127ac615368565b5b600190038181906000526020600020016000905590555b80806127cf906144fa565b9150506125a9565b50601660008373ffffffffffffffffffffffffffffffffffffffff1673ffffffffffffffffffffffffffffffffffffffff168152602001908152602001600020819080600181540180825580915050600190039060005260206000200160009091909190915055505050565b61285e83838360405180602001604052806000815250611b12565b505050565b60006002600083815260200190815260200160002060009054906101000a900473ffffffffffffffffffffffffffffffffffffffff169050919050565b6128a8611ea2565b73ffffffffffffffffffffffffffffffffffffffff166128c6611905565b73ffffffffffffffffffffffffffffffffffffffff161461291c576040517f08c379a0000000000000000000000000000000000000000000000000000000008152600401612913906153e3565b60405180910390fd5b565b6000600760009054906101000a900473ffffffffffffffffffffffffffffffffffffffff16905081600760006101000a81548173ffffffffffffffffffffffffffffffffffffffff021916908373ffffffffffffffffffffffffffffffffffffffff1602179055508173ffffffffffffffffffffffffffffffffffffffff168173ffffffffffffffffffffffffffffffffffffffff167f8be0079c531659141344cd1fd0a4f28419497f9722a3daafe3b4186f6b6457e060405160405180910390a35050565b8173ffffffffffffffffffffffffffffffffffffffff168373ffffffffffffffffffffffffffffffffffffffff1603612a52576040517f08c379a0000000000000000000000000000000000000000000000000000000008152600401612a499061544f565b60405180910390fd5b80600560008573ffffffffffffffffffffffffffffffffffffffff1673ffffffffffffffffffffffffffffffffffffffff16815260200190815260200160002060008473ffffffffffffffffffffffffffffffffffffffff1673ffffffffffffffffffffffffffffffffffffffff16815260200190815260200160002060006101000a81548160ff0219169083151502179055508173ffffffffffffffffffffffffffffffffffffffff168373ffffffffffffffffffffffffffffffffffffffff167f17307eab39ab6107e8899845ad3d59bd9653f200f220920489ca2b5937696c3183604051612b439190613ae7565b60405180910390a3505050565b612b5b848484611ff8565b612b67848484846130e4565b612ba6576040517f08c379a0000000000000000000000000000000000000000000000000000000008152600401612b9d906154e1565b60405180910390fd5b50505050565b6060612bb782611e57565b6000600660008481526020019081526020016000208054612bd790614670565b80601f0160208091040260200160405190810160405280929190818152602001828054612c0390614670565b8015612c505780601f10612c2557610100808354040283529160200191612c50565b820191906000526020600020905b815481529060010190602001808311612c3357829003601f168201915b505050505090506000612c6161326b565b90506000815103612c76578192505050612cb9565b600082511115612cab578082604051602001612c93929190615532565b60405160208183030381529060405292505050612cb9565b612cb484613282565b925050505b919050565b612cc7816132ea565b6000600660008381526020019081526020016000208054612ce790614670565b905014612d0e57600660008281526020019081526020016000206000612d0d91906139d6565b5b50565b60008073ffffffffffffffffffffffffffffffffffffffff16612d3383612863565b73ffffffffffffffffffffffffffffffffffffffff1614159050919050565b6001811115612e7257600073ffffffffffffffffffffffffffffffffffffffff168473ffffffffffffffffffffffffffffffffffffffff1614612de65780600360008673ffffffffffffffffffffffffffffffffffffffff1673ffffffffffffffffffffffffffffffffffffffff1681526020019081526020016000206000828254612dde9190614579565b925050819055505b600073ffffffffffffffffffffffffffffffffffffffff168373ffffffffffffffffffffffffffffffffffffffff1614612e715780600360008573ffffffffffffffffffffffffffffffffffffffff1673ffffffffffffffffffffffffffffffffffffffff1681526020019081526020016000206000828254612e6991906149d1565b925050819055505b5b50505050565b50505050565b6000806041835103612ebf5760008060006020860151925060408601519150606086015160001a9050612eb387828585613438565b94509450505050612ec8565b60006002915091505b9250929050565b60006004811115612ee357612ee2615556565b5b816004811115612ef657612ef5615556565b5b03156130325760016004811115612f1057612f0f615556565b5b816004811115612f2357612f22615556565b5b03612f63576040517f08c379a0000000000000000000000000000000000000000000000000000000008152600401612f5a906155d1565b60405180910390fd5b60026004811115612f7757612f76615556565b5b816004811115612f8a57612f89615556565b5b03612fca576040517f08c379a0000000000000000000000000000000000000000000000000000000008152600401612fc19061563d565b60405180910390fd5b60036004811115612fde57612fdd615556565b5b816004811115612ff157612ff0615556565b5b03613031576040517f08c379a0000000000000000000000000000000000000000000000000000000008152600401613028906156cf565b60405180910390fd5b5b50565b600081600001549050919050565b6001816000016000828254019250508190555050565b61307382826040518060200160405280600081525061351a565b5050565b61308082612d11565b6130bf576040517f08c379a00000000000000000000000000000000000000000000000000000000081526004016130b690615761565b60405180910390fd5b806006600084815260200190815260200160002090816130df9190615923565b505050565b60006131058473ffffffffffffffffffffffffffffffffffffffff16613575565b1561325e578373ffffffffffffffffffffffffffffffffffffffff1663150b7a0261312e611ea2565b8786866040518563ffffffff1660e01b81526004016131509493929190615a3f565b6020604051808303816000875af192505050801561318c57506040513d601f19601f820116820180604052508101906131899190615aa0565b60015b61320e573d80600081146131bc576040519150601f19603f3d011682016040523d82523d6000602084013e6131c1565b606091505b506000815103613206576040517f08c379a00000000000000000000000000000000000000000000000000000000081526004016131fd906154e1565b60405180910390fd5b805181602001fd5b63150b7a0260e01b7bffffffffffffffffffffffffffffffffffffffffffffffffffffffff1916817bffffffffffffffffffffffffffffffffffffffffffffffffffffffff191614915050613263565b600190505b949350505050565b606060405180602001604052806000815250905090565b606061328d82611e57565b600061329761326b565b905060008151116132b757604051806020016040528060008152506132e2565b806132c184613598565b6040516020016132d2929190615532565b6040516020818303038152906040525b915050919050565b60006132f58261177c565b9050613305816000846001612d52565b61330e8261177c565b90506004600083815260200190815260200160002060006101000a81549073ffffffffffffffffffffffffffffffffffffffff02191690556001600360008373ffffffffffffffffffffffffffffffffffffffff1673ffffffffffffffffffffffffffffffffffffffff168152602001908152602001600020600082825403925050819055506002600083815260200190815260200160002060006101000a81549073ffffffffffffffffffffffffffffffffffffffff021916905581600073ffffffffffffffffffffffffffffffffffffffff168273ffffffffffffffffffffffffffffffffffffffff167fddf252ad1be2c89b69c2b068fc378daa952ba7f163c4a11628f55a4df523b3ef60405160405180910390a4613434816000846001612e78565b5050565b6000807f7fffffffffffffffffffffffffffffff5d576e7357a4501ddfe92f46681b20a08360001c1115613473576000600391509150613511565b6000600187878787604051600081526020016040526040516134989493929190615adc565b6020604051602081039080840390855afa1580156134ba573d6000803e3d6000fd5b505050602060405103519050600073ffffffffffffffffffffffffffffffffffffffff168173ffffffffffffffffffffffffffffffffffffffff160361350857600060019250925050613511565b80600092509250505b94509492505050565b6135248383613666565b61353160008484846130e4565b613570576040517f08c379a0000000000000000000000000000000000000000000000000000000008152600401613567906154e1565b60405180910390fd5b505050565b6000808273ffffffffffffffffffffffffffffffffffffffff163b119050919050565b6060600060016135a784613883565b01905060008167ffffffffffffffff8111156135c6576135c5613d77565b5b6040519080825280601f01601f1916602001820160405280156135f85781602001600182028036833780820191505090505b509050600082602001820190505b60011561365b578080600190039150507f3031323334353637383961626364656600000000000000000000000000000000600a86061a8153600a858161364f5761364e614971565b5b04945060008503613606575b819350505050919050565b600073ffffffffffffffffffffffffffffffffffffffff168273ffffffffffffffffffffffffffffffffffffffff16036136d5576040517f08c379a00000000000000000000000000000000000000000000000000000000081526004016136cc90615b6d565b60405180910390fd5b6136de81612d11565b1561371e576040517f08c379a000000000000000000000000000000000000000000000000000000000815260040161371590615bd9565b60405180910390fd5b61372c600083836001612d52565b61373581612d11565b15613775576040517f08c379a000000000000000000000000000000000000000000000000000000000815260040161376c90615bd9565b60405180910390fd5b6001600360008473ffffffffffffffffffffffffffffffffffffffff1673ffffffffffffffffffffffffffffffffffffffff16815260200190815260200160002060008282540192505081905550816002600083815260200190815260200160002060006101000a81548173ffffffffffffffffffffffffffffffffffffffff021916908373ffffffffffffffffffffffffffffffffffffffff160217905550808273ffffffffffffffffffffffffffffffffffffffff16600073ffffffffffffffffffffffffffffffffffffffff167fddf252ad1be2c89b69c2b068fc378daa952ba7f163c4a11628f55a4df523b3ef60405160405180910390a461387f600083836001612e78565b5050565b600080600090507a184f03e93ff9f4daa797ed6e38ed64bf6a1f01000000000000000083106138e1577a184f03e93ff9f4daa797ed6e38ed64bf6a1f01000000000000000083816138d7576138d6614971565b5b0492506040810190505b6d04ee2d6d415b85acef8100000000831061391e576d04ee2d6d415b85acef8100000000838161391457613913614971565b5b0492506020810190505b662386f26fc10000831061394d57662386f26fc10000838161394357613942614971565b5b0492506010810190505b6305f5e1008310613976576305f5e100838161396c5761396b614971565b5b0492506008810190505b612710831061399b57612710838161399157613990614971565b5b0492506004810190505b606483106139be57606483816139b4576139b3614971565b5b0492506002810190505b600a83106139cd576001810190505b80915050919050565b5080546139e290614670565b6000825580601f106139f45750613a13565b601f016020900490600052602060002090810190613a129190613a16565b5b50565b5b80821115613a2f576000816000905550600101613a17565b5090565b6000604051905090565b600080fd5b600080fd5b60007fffffffff0000000000000000000000000000000000000000000000000000000082169050919050565b613a7c81613a47565b8114613a8757600080fd5b50565b600081359050613a9981613a73565b92915050565b600060208284031215613ab557613ab4613a3d565b5b6000613ac384828501613a8a565b91505092915050565b60008115159050919050565b613ae181613acc565b82525050565b6000602082019050613afc6000830184613ad8565b92915050565b6000819050919050565b613b1581613b02565b8114613b2057600080fd5b50565b600081359050613b3281613b0c565b92915050565b60008060408385031215613b4f57613b4e613a3d565b5b6000613b5d85828601613b23565b9250506020613b6e85828601613b23565b9150509250929050565b600081519050919050565b600082825260208201905092915050565b60005b83811015613bb2578082015181840152602081019050613b97565b60008484015250505050565b6000601f19601f8301169050919050565b6000613bda82613b78565b613be48185613b83565b9350613bf4818560208601613b94565b613bfd81613bbe565b840191505092915050565b60006020820190508181036000830152613c228184613bcf565b905092915050565b600060208284031215613c4057613c3f613a3d565b5b6000613c4e84828501613b23565b91505092915050565b600073ffffffffffffffffffffffffffffffffffffffff82169050919050565b6000613c8282613c57565b9050919050565b613c9281613c77565b82525050565b6000602082019050613cad6000830184613c89565b92915050565b613cbc81613c77565b8114613cc757600080fd5b50565b600081359050613cd981613cb3565b92915050565b60008060408385031215613cf657613cf5613a3d565b5b6000613d0485828601613cca565b9250506020613d1585828601613b23565b9150509250929050565b600080600060608486031215613d3857613d37613a3d565b5b6000613d4686828701613cca565b9350506020613d5786828701613cca565b9250506040613d6886828701613b23565b9150509250925092565b600080fd5b7f4e487b7100000000000000000000000000000000000000000000000000000000600052604160045260246000fd5b613daf82613bbe565b810181811067ffffffffffffffff82111715613dce57613dcd613d77565b5b80604052505050565b6000613de1613a33565b9050613ded8282613da6565b919050565b600067ffffffffffffffff821115613e0d57613e0c613d77565b5b602082029050602081019050919050565b600080fd5b600060ff82169050919050565b613e3981613e23565b8114613e4457600080fd5b50565b600081359050613e5681613e30565b92915050565b6000613e6f613e6a84613df2565b613dd7565b90508083825260208201905060208402830185811115613e9257613e91613e1e565b5b835b81811015613ebb5780613ea78882613e47565b845260208401935050602081019050613e94565b5050509392505050565b600082601f830112613eda57613ed9613d72565b5b8135613eea848260208601613e5c565b91505092915050565b600080fd5b60008083601f840112613f0e57613f0d613d72565b5b8235905067ffffffffffffffff811115613f2b57613f2a613ef3565b5b602083019150836001820283011115613f4757613f46613e1e565b5b9250929050565b60008060008060608587031215613f6857613f67613a3d565b5b6000613f7687828801613b23565b945050602085013567ffffffffffffffff811115613f9757613f96613a42565b5b613fa387828801613ec5565b935050604085013567ffffffffffffffff811115613fc457613fc3613a42565b5b613fd087828801613ef8565b925092505092959194509250565b613fe781613b02565b82525050565b60006020820190506140026000830184613fde565b92915050565b60006020828403121561401e5761401d613a3d565b5b600061402c84828501613cca565b91505092915050565b61403e81613e23565b82525050565b600060a0820190506140596000830188613fde565b6140666020830187613fde565b6140736040830186613ad8565b6140806060830185614035565b61408d6080830184613fde565b9695505050505050565b6140a081613acc565b81146140ab57600080fd5b50565b6000813590506140bd81614097565b92915050565b600080604083850312156140da576140d9613a3d565b5b60006140e885828601613cca565b92505060206140f9858286016140ae565b9150509250929050565b600080fd5b600067ffffffffffffffff82111561412357614122613d77565b5b61412c82613bbe565b9050602081019050919050565b82818337600083830152505050565b600061415b61415684614108565b613dd7565b90508281526020810184848401111561417757614176614103565b5b614182848285614139565b509392505050565b600082601f83011261419f5761419e613d72565b5b81356141af848260208601614148565b91505092915050565b600080600080608085870312156141d2576141d1613a3d565b5b60006141e087828801613cca565b94505060206141f187828801613cca565b935050604061420287828801613b23565b925050606085013567ffffffffffffffff81111561422357614222613a42565b5b61422f8782880161418a565b91505092959194509250565b6000819050919050565b600061426061425b61425684613c57565b61423b565b613c57565b9050919050565b600061427282614245565b9050919050565b600061428482614267565b9050919050565b61429481614279565b82525050565b60006020820190506142af600083018461428b565b92915050565b600080604083850312156142cc576142cb613a3d565b5b60006142da85828601613cca565b92505060206142eb85828601613cca565b9150509250929050565b7f4c61206361727461206f20656c20616c62756d206e6f2074652070657274656e60008201527f6563656e00000000000000000000000000000000000000000000000000000000602082015250565b6000614351602483613b83565b915061435c826142f5565b604082019050919050565b6000602082019050818103600083015261438081614344565b9050919050565b7f45737465204944206e6f20657320756e20616c62756d00000000000000000000600082015250565b60006143bd601683613b83565b91506143c882614387565b602082019050919050565b600060208201905081810360008301526143ec816143b0565b9050919050565b7f45737465204944206e6f20657320756e61206361727461000000000000000000600082015250565b6000614429601783613b83565b9150614434826143f3565b602082019050919050565b600060208201905081810360008301526144588161441c565b9050919050565b7f4573746120636172746120796120657374612070656761646100000000000000600082015250565b6000614495601983613b83565b91506144a08261445f565b602082019050919050565b600060208201905081810360008301526144c481614488565b9050919050565b7f4e487b7100000000000000000000000000000000000000000000000000000000600052601160045260246000fd5b600061450582613b02565b91507fffffffffffffffffffffffffffffffffffffffffffffffffffffffffffffffff8203614537576145366144cb565b5b600182019050919050565b60006060820190506145576000830186613c89565b6145646020830185613fde565b6145716040830184613fde565b949350505050565b600061458482613b02565b915061458f83613b02565b92508282039050818111156145a7576145a66144cb565b5b92915050565b60006040820190506145c26000830185613c89565b6145cf6020830184613fde565b9392505050565b6000815190506145e581614097565b92915050565b60006020828403121561460157614600613a3d565b5b600061460f848285016145d6565b91505092915050565b600060408201905061462d6000830185613c89565b61463a6020830184614035565b9392505050565b7f4e487b7100000000000000000000000000000000000000000000000000000000600052602260045260246000fd5b6000600282049050600182168061468857607f821691505b60208210810361469b5761469a614641565b5b50919050565b7f4552433732313a20617070726f76616c20746f2063757272656e74206f776e6560008201527f7200000000000000000000000000000000000000000000000000000000000000602082015250565b60006146fd602183613b83565b9150614708826146a1565b604082019050919050565b6000602082019050818103600083015261472c816146f0565b9050919050565b7f4552433732313a20617070726f76652063616c6c6572206973206e6f7420746f60008201527f6b656e206f776e6572206f7220617070726f76656420666f7220616c6c000000602082015250565b600061478f603d83613b83565b915061479a82614733565b604082019050919050565b600060208201905081810360008301526147be81614782565b9050919050565b7f4552433732313a2063616c6c6572206973206e6f7420746f6b656e206f776e6560008201527f72206f7220617070726f76656400000000000000000000000000000000000000602082015250565b6000614821602d83613b83565b915061482c826147c5565b604082019050919050565b6000602082019050818103600083015261485081614814565b9050919050565b60008151905061486681613cb3565b92915050565b60006020828403121561488257614881613a3d565b5b600061489084828501614857565b91505092915050565b7f4573746520736f627265206e6f206573207475796f0000000000000000000000600082015250565b60006148cf601583613b83565b91506148da82614899565b602082019050919050565b600060208201905081810360008301526148fe816148c2565b9050919050565b7f4c696d6974652064652063617274617320657863656469646f00000000000000600082015250565b600061493b601983613b83565b915061494682614905565b602082019050919050565b6000602082019050818103600083015261496a8161492e565b9050919050565b7f4e487b7100000000000000000000000000000000000000000000000000000000600052601260045260246000fd5b60006149ab82613b02565b91506149b683613b02565b9250826149c6576149c5614971565b5b828204905092915050565b60006149dc82613b02565b91506149e783613b02565b92508282019050808211156149ff576149fe6144cb565b5b92915050565b60008160601b9050919050565b6000614a1d82614a05565b9050919050565b6000614a2f82614a12565b9050919050565b614a47614a4282613c77565b614a24565b82525050565b6000819050919050565b614a68614a6382613b02565b614a4d565b82525050565b600081519050919050565b600081905092915050565b6000819050602082019050919050565b614a9d81613e23565b82525050565b6000614aaf8383614a94565b60208301905092915050565b6000602082019050919050565b6000614ad382614a6e565b614add8185614a79565b9350614ae883614a84565b8060005b83811015614b19578151614b008882614aa3565b9750614b0b83614abb565b925050600181019050614aec565b5085935050505092915050565b6000614b328287614a36565b601482019150614b428286614a57565b602082019150614b528285614ac8565b9150614b5e8284614a36565b60148201915081905095945050505050565b7f496e76616c6964207369676e6174757265000000000000000000000000000000600082015250565b6000614ba6601183613b83565b9150614bb182614b70565b602082019050919050565b60006020820190508181036000830152614bd581614b99565b9050919050565b7f4e487b7100000000000000000000000000000000000000000000000000000000600052603260045260246000fd5b600081905092915050565b60008190508160005260206000209050919050565b60008154614c3881614670565b614c428186614c0b565b94506001821660008114614c5d5760018114614c7257614ca5565b60ff1983168652811515820286019350614ca5565b614c7b85614c16565b60005b83811015614c9d57815481890152600182019150602081019050614c7e565b838801955050505b50505092915050565b600081519050919050565b6000614cc482614cae565b614cce8185614c0b565b9350614cde818560208601613b94565b80840191505092915050565b6000614cf68287614c2b565b9150614d028286614cb9565b9150614d0e8285614cb9565b9150614d1a8284614cb9565b915081905095945050505050565b7f43616e746964616420646520636f70696173206465206c61206361727461206560008201527f7863656469646100000000000000000000000000000000000000000000000000602082015250565b6000614d84602783613b83565b9150614d8f82614d28565b604082019050919050565b60006020820190508181036000830152614db381614d77565b9050919050565b7f43616e746964616420646520636f706961732064656c20616c62756d2064652060008201527f3132302065786365646964610000000000000000000000000000000000000000602082015250565b6000614e16602c83613b83565b9150614e2182614dba565b604082019050919050565b60006020820190508181036000830152614e4581614e09565b9050919050565b7f43616e746964616420646520636f706961732064656c20616c62756d2064652060008201527f3630206578636564696461000000000000000000000000000000000000000000602082015250565b6000614ea8602b83613b83565b9150614eb382614e4c565b604082019050919050565b60006020820190508181036000830152614ed781614e9b565b9050919050565b6000614ee982613e23565b915060ff8203614efc57614efb6144cb565b5b600182019050919050565b600082825260208201905092915050565b614f2181613e23565b82525050565b6000614f338383614f18565b60208301905092915050565b6000614f4a82614a6e565b614f548185614f07565b9350614f5f83614a84565b8060005b83811015614f90578151614f778882614f27565b9750614f8283614abb565b925050600181019050614f63565b5085935050505092915050565b6000606082019050614fb26000830186613c89565b8181036020830152614fc48185614f3f565b9050614fd36040830184613fde565b949350505050565b7f4552433732313a20696e76616c696420746f6b656e2049440000000000000000600082015250565b6000615011601883613b83565b915061501c82614fdb565b602082019050919050565b6000602082019050818103600083015261504081615004565b9050919050565b7f4552433732313a2061646472657373207a65726f206973206e6f74206120766160008201527f6c6964206f776e65720000000000000000000000000000000000000000000000602082015250565b60006150a3602983613b83565b91506150ae82615047565b604082019050919050565b600060208201905081810360008301526150d281615096565b9050919050565b7f4f776e61626c653a206e6577206f776e657220697320746865207a65726f206160008201527f6464726573730000000000000000000000000000000000000000000000000000602082015250565b6000615135602683613b83565b9150615140826150d9565b604082019050919050565b6000602082019050818103600083015261516481615128565b9050919050565b7f4552433732313a207472616e736665722066726f6d20696e636f72726563742060008201527f6f776e6572000000000000000000000000000000000000000000000000000000602082015250565b60006151c7602583613b83565b91506151d28261516b565b604082019050919050565b600060208201905081810360008301526151f6816151ba565b9050919050565b7f4552433732313a207472616e7366657220746f20746865207a65726f2061646460008201527f7265737300000000000000000000000000000000000000000000000000000000602082015250565b6000615259602483613b83565b9150615264826151fd565b604082019050919050565b600060208201905081810360008301526152888161524c565b9050919050565b600081905092915050565b7f19457468657265756d205369676e6564204d6573736167653a0a333200000000600082015250565b60006152d0601c8361528f565b91506152db8261529a565b601c82019050919050565b6000819050919050565b6000819050919050565b61530b615306826152e6565b6152f0565b82525050565b600061531c826152c3565b915061532882846152fa565b60208201915081905092915050565b600061534282613b02565b915061534d83613b02565b92508261535d5761535c614971565b5b828206905092915050565b7f4e487b7100000000000000000000000000000000000000000000000000000000600052603160045260246000fd5b7f4f776e61626c653a2063616c6c6572206973206e6f7420746865206f776e6572600082015250565b60006153cd602083613b83565b91506153d882615397565b602082019050919050565b600060208201905081810360008301526153fc816153c0565b9050919050565b7f4552433732313a20617070726f766520746f2063616c6c657200000000000000600082015250565b6000615439601983613b83565b915061544482615403565b602082019050919050565b600060208201905081810360008301526154688161542c565b9050919050565b7f4552433732313a207472616e7366657220746f206e6f6e20455243373231526560008201527f63656976657220696d706c656d656e7465720000000000000000000000000000602082015250565b60006154cb603283613b83565b91506154d68261546f565b604082019050919050565b600060208201905081810360008301526154fa816154be565b9050919050565b600061550c82613b78565b615516818561528f565b9350615526818560208601613b94565b80840191505092915050565b600061553e8285615501565b915061554a8284615501565b91508190509392505050565b7f4e487b7100000000000000000000000000000000000000000000000000000000600052602160045260246000fd5b7f45434453413a20696e76616c6964207369676e61747572650000000000000000600082015250565b60006155bb601883613b83565b91506155c682615585565b602082019050919050565b600060208201905081810360008301526155ea816155ae565b9050919050565b7f45434453413a20696e76616c6964207369676e6174757265206c656e67746800600082015250565b6000615627601f83613b83565b9150615632826155f1565b602082019050919050565b600060208201905081810360008301526156568161561a565b9050919050565b7f45434453413a20696e76616c6964207369676e6174757265202773272076616c60008201527f7565000000000000000000000000000000000000000000000000000000000000602082015250565b60006156b9602283613b83565b91506156c48261565d565b604082019050919050565b600060208201905081810360008301526156e8816156ac565b9050919050565b7f45524337323155524953746f726167653a2055524920736574206f66206e6f6e60008201527f6578697374656e7420746f6b656e000000000000000000000000000000000000602082015250565b600061574b602e83613b83565b9150615756826156ef565b604082019050919050565b6000602082019050818103600083015261577a8161573e565b9050919050565b60008190508160005260206000209050919050565b60006020601f8301049050919050565b600082821b905092915050565b6000600883026157e37fffffffffffffffffffffffffffffffffffffffffffffffffffffffffffffffff826157a6565b6157ed86836157a6565b95508019841693508086168417925050509392505050565b600061582061581b61581684613b02565b61423b565b613b02565b9050919050565b6000819050919050565b61583a83615805565b61584e61584682615827565b8484546157b3565b825550505050565b600090565b615863615856565b61586e818484615831565b505050565b5b818110156158925761588760008261585b565b600181019050615874565b5050565b601f8211156158d7576158a881615781565b6158b184615796565b810160208510156158c0578190505b6158d46158cc85615796565b830182615873565b50505b505050565b600082821c905092915050565b60006158fa600019846008026158dc565b1980831691505092915050565b600061591383836158e9565b9150826002028217905092915050565b61592c82613b78565b67ffffffffffffffff81111561594557615944613d77565b5b61594f8254614670565b61595a828285615896565b600060209050601f83116001811461598d576000841561597b578287015190505b6159858582615907565b8655506159ed565b601f19841661599b86615781565b60005b828110156159c35784890151825560018201915060208501945060208101905061599e565b868310156159e057848901516159dc601f8916826158e9565b8355505b6001600288020188555050505b505050505050565b600082825260208201905092915050565b6000615a1182614cae565b615a1b81856159f5565b9350615a2b818560208601613b94565b615a3481613bbe565b840191505092915050565b6000608082019050615a546000830187613c89565b615a616020830186613c89565b615a6e6040830185613fde565b8181036060830152615a808184615a06565b905095945050505050565b600081519050615a9a81613a73565b92915050565b600060208284031215615ab657615ab5613a3d565b5b6000615ac484828501615a8b565b91505092915050565b615ad6816152e6565b82525050565b6000608082019050615af16000830187615acd565b615afe6020830186614035565b615b0b6040830185615acd565b615b186060830184615acd565b95945050505050565b7f4552433732313a206d696e7420746f20746865207a65726f2061646472657373600082015250565b6000615b57602083613b83565b9150615b6282615b21565b602082019050919050565b60006020820190508181036000830152615b8681615b4a565b9050919050565b7f4552433732313a20746f6b656e20616c7265616479206d696e74656400000000600082015250565b6000615bc3601c83613b83565b9150615bce82615b8d565b602082019050919050565b60006020820190508181036000830152615bf281615bb6565b905091905056fea2646970667358221220d2b48077e412b2af411dec35642b05bba9b82975baa9d9347afba8bea738555764736f6c63430008120033",
  "linkReferences": {},
  "deployedLinkReferences": {}
}