{
  "_format": "hh-sol-artifact-1",
  "contractName": "NofGammaOffersV4",
  "sourceName": "contracts/gamma/GammaOffers.v4.sol",
  "abi": [
    {
      "inputs": [
        {
          "internalType": "address",
          "name": "_cardsContract",
          "type": "address"
        }
      ],
      "stateMutability": "nonpayable",
      "type": "constructor"
    },
    {
      "anonymous": false,
      "inputs": [
        {
          "indexed": false,
          "internalType": "address",
          "name": "newGammaCardsContract",
          "type": "address"
        }
      ],
      "name": "NewGammaCardsContract",
      "type": "event"
    },
    {
      "anonymous": false,
      "inputs": [
        {
          "indexed": false,
          "internalType": "address",
          "name": "user",
          "type": "address"
        },
        {
          "indexed": false,
          "internalType": "uint8",
          "name": "cardNumber",
          "type": "uint8"
        },
        {
          "indexed": false,
          "internalType": "uint8[]",
          "name": "wantedCardNumbers",
          "type": "uint8[]"
        }
      ],
      "name": "NewOfferCreated",
      "type": "event"
    },
    {
      "anonymous": false,
      "inputs": [
        {
          "indexed": false,
          "internalType": "address",
          "name": "owner",
          "type": "address"
        }
      ],
      "name": "NewOwnerAdded",
      "type": "event"
    },
    {
      "anonymous": false,
      "inputs": [
        {
          "indexed": false,
          "internalType": "address",
          "name": "user",
          "type": "address"
        },
        {
          "indexed": false,
          "internalType": "uint8",
          "name": "cardNumber",
          "type": "uint8"
        }
      ],
      "name": "OfferRemoved",
      "type": "event"
    },
    {
      "anonymous": false,
      "inputs": [
        {
          "indexed": false,
          "internalType": "address",
          "name": "owner",
          "type": "address"
        }
      ],
      "name": "OwnerRemoved",
      "type": "event"
    },
    {
      "anonymous": false,
      "inputs": [
        {
          "indexed": true,
          "internalType": "address",
          "name": "previousOwner",
          "type": "address"
        },
        {
          "indexed": true,
          "internalType": "address",
          "name": "newOwner",
          "type": "address"
        }
      ],
      "name": "OwnershipTransferred",
      "type": "event"
    },
    {
      "anonymous": false,
      "inputs": [],
      "name": "RemovedAllOffers",
      "type": "event"
    },
    {
      "inputs": [
        {
          "internalType": "address",
          "name": "_newOwner",
          "type": "address"
        }
      ],
      "name": "addOwner",
      "outputs": [],
      "stateMutability": "nonpayable",
      "type": "function"
    },
    {
      "inputs": [],
      "name": "canAnyUserPublishOffer",
      "outputs": [
        {
          "internalType": "bool",
          "name": "",
          "type": "bool"
        }
      ],
      "stateMutability": "view",
      "type": "function"
    },
    {
      "inputs": [
        {
          "internalType": "address",
          "name": "user",
          "type": "address"
        }
      ],
      "name": "canUserPublishOffer",
      "outputs": [
        {
          "internalType": "bool",
          "name": "",
          "type": "bool"
        }
      ],
      "stateMutability": "view",
      "type": "function"
    },
    {
      "inputs": [
        {
          "internalType": "bool",
          "name": "_value",
          "type": "bool"
        }
      ],
      "name": "changeRemoveCardinInventoryWhenOffer",
      "outputs": [],
      "stateMutability": "nonpayable",
      "type": "function"
    },
    {
      "inputs": [
        {
          "internalType": "address",
          "name": "from",
          "type": "address"
        },
        {
          "internalType": "uint8",
          "name": "cardNumberWanted",
          "type": "uint8"
        },
        {
          "internalType": "address",
          "name": "offerWallet",
          "type": "address"
        },
        {
          "internalType": "uint8",
          "name": "offerCardNumber",
          "type": "uint8"
        }
      ],
      "name": "confirmOfferExchange",
      "outputs": [],
      "stateMutability": "nonpayable",
      "type": "function"
    },
    {
      "inputs": [
        {
          "internalType": "string",
          "name": "offerId",
          "type": "string"
        },
        {
          "internalType": "uint8",
          "name": "cardNumber",
          "type": "uint8"
        },
        {
          "internalType": "uint8[]",
          "name": "wantedCardNumbers",
          "type": "uint8[]"
        }
      ],
      "name": "createOffer",
      "outputs": [],
      "stateMutability": "nonpayable",
      "type": "function"
    },
    {
      "inputs": [
        {
          "internalType": "string",
          "name": "offerId",
          "type": "string"
        },
        {
          "internalType": "address",
          "name": "user",
          "type": "address"
        },
        {
          "internalType": "uint8",
          "name": "cardNumber",
          "type": "uint8"
        },
        {
          "internalType": "uint8[]",
          "name": "wantedCardNumbers",
          "type": "uint8[]"
        }
      ],
      "name": "createOfferWithoUser",
      "outputs": [],
      "stateMutability": "nonpayable",
      "type": "function"
    },
    {
      "inputs": [],
      "name": "deleteAllOffers",
      "outputs": [],
      "stateMutability": "nonpayable",
      "type": "function"
    },
    {
      "inputs": [],
      "name": "gammaCardsContract",
      "outputs": [
        {
          "internalType": "contract IGammaCardsContract",
          "name": "",
          "type": "address"
        }
      ],
      "stateMutability": "view",
      "type": "function"
    },
    {
      "inputs": [],
      "name": "getMaxOffersAllowed",
      "outputs": [
        {
          "internalType": "uint256",
          "name": "",
          "type": "uint256"
        }
      ],
      "stateMutability": "view",
      "type": "function"
    },
    {
      "inputs": [],
      "name": "getMaxOffersByUserAllowed",
      "outputs": [
        {
          "internalType": "uint256",
          "name": "",
          "type": "uint256"
        }
      ],
      "stateMutability": "view",
      "type": "function"
    },
    {
      "inputs": [
        {
          "internalType": "uint256",
          "name": "index",
          "type": "uint256"
        }
      ],
      "name": "getOfferByIndex",
      "outputs": [
        {
          "components": [
            {
              "internalType": "string",
              "name": "offerId",
              "type": "string"
            },
            {
              "internalType": "uint8",
              "name": "cardNumber",
              "type": "uint8"
            },
            {
              "internalType": "uint8[]",
              "name": "wantedCardNumbers",
              "type": "uint8[]"
            },
            {
              "internalType": "address",
              "name": "owner",
              "type": "address"
            },
            {
              "internalType": "uint256",
              "name": "timestamp",
              "type": "uint256"
            }
          ],
          "internalType": "struct NofGammaOffersV4.Offer",
          "name": "",
          "type": "tuple"
        }
      ],
      "stateMutability": "view",
      "type": "function"
    },
    {
      "inputs": [
        {
          "internalType": "string",
          "name": "offerId",
          "type": "string"
        }
      ],
      "name": "getOfferByOfferId",
      "outputs": [
        {
          "components": [
            {
              "internalType": "string",
              "name": "offerId",
              "type": "string"
            },
            {
              "internalType": "uint8",
              "name": "cardNumber",
              "type": "uint8"
            },
            {
              "internalType": "uint8[]",
              "name": "wantedCardNumbers",
              "type": "uint8[]"
            },
            {
              "internalType": "address",
              "name": "owner",
              "type": "address"
            },
            {
              "internalType": "uint256",
              "name": "timestamp",
              "type": "uint256"
            }
          ],
          "internalType": "struct NofGammaOffersV4.Offer",
          "name": "",
          "type": "tuple"
        }
      ],
      "stateMutability": "view",
      "type": "function"
    },
    {
      "inputs": [
        {
          "internalType": "address",
          "name": "user",
          "type": "address"
        },
        {
          "internalType": "uint8",
          "name": "cardNumber",
          "type": "uint8"
        }
      ],
      "name": "getOfferByUserAndCardNumber",
      "outputs": [
        {
          "components": [
            {
              "internalType": "string",
              "name": "offerId",
              "type": "string"
            },
            {
              "internalType": "uint8",
              "name": "cardNumber",
              "type": "uint8"
            },
            {
              "internalType": "uint8[]",
              "name": "wantedCardNumbers",
              "type": "uint8[]"
            },
            {
              "internalType": "address",
              "name": "owner",
              "type": "address"
            },
            {
              "internalType": "uint256",
              "name": "timestamp",
              "type": "uint256"
            }
          ],
          "internalType": "struct NofGammaOffersV4.Offer",
          "name": "",
          "type": "tuple"
        }
      ],
      "stateMutability": "view",
      "type": "function"
    },
    {
      "inputs": [],
      "name": "getOffers",
      "outputs": [
        {
          "components": [
            {
              "internalType": "string",
              "name": "offerId",
              "type": "string"
            },
            {
              "internalType": "uint8",
              "name": "cardNumber",
              "type": "uint8"
            },
            {
              "internalType": "uint8[]",
              "name": "wantedCardNumbers",
              "type": "uint8[]"
            },
            {
              "internalType": "address",
              "name": "owner",
              "type": "address"
            },
            {
              "internalType": "uint256",
              "name": "timestamp",
              "type": "uint256"
            }
          ],
          "internalType": "struct NofGammaOffersV4.Offer[]",
          "name": "",
          "type": "tuple[]"
        }
      ],
      "stateMutability": "view",
      "type": "function"
    },
    {
      "inputs": [
        {
          "internalType": "uint8",
          "name": "cardNumber",
          "type": "uint8"
        }
      ],
      "name": "getOffersByCardNumber",
      "outputs": [
        {
          "components": [
            {
              "internalType": "string",
              "name": "offerId",
              "type": "string"
            },
            {
              "internalType": "uint8",
              "name": "cardNumber",
              "type": "uint8"
            },
            {
              "internalType": "uint8[]",
              "name": "wantedCardNumbers",
              "type": "uint8[]"
            },
            {
              "internalType": "address",
              "name": "owner",
              "type": "address"
            },
            {
              "internalType": "uint256",
              "name": "timestamp",
              "type": "uint256"
            }
          ],
          "internalType": "struct NofGammaOffersV4.Offer[]",
          "name": "",
          "type": "tuple[]"
        }
      ],
      "stateMutability": "view",
      "type": "function"
    },
    {
      "inputs": [
        {
          "internalType": "uint8",
          "name": "cardNumber",
          "type": "uint8"
        }
      ],
      "name": "getOffersByCardNumberCounter",
      "outputs": [
        {
          "internalType": "uint256",
          "name": "",
          "type": "uint256"
        }
      ],
      "stateMutability": "view",
      "type": "function"
    },
    {
      "inputs": [
        {
          "internalType": "address",
          "name": "user",
          "type": "address"
        }
      ],
      "name": "getOffersByUser",
      "outputs": [
        {
          "components": [
            {
              "internalType": "string",
              "name": "offerId",
              "type": "string"
            },
            {
              "internalType": "uint8",
              "name": "cardNumber",
              "type": "uint8"
            },
            {
              "internalType": "uint8[]",
              "name": "wantedCardNumbers",
              "type": "uint8[]"
            },
            {
              "internalType": "address",
              "name": "owner",
              "type": "address"
            },
            {
              "internalType": "uint256",
              "name": "timestamp",
              "type": "uint256"
            }
          ],
          "internalType": "struct NofGammaOffersV4.Offer[]",
          "name": "",
          "type": "tuple[]"
        }
      ],
      "stateMutability": "view",
      "type": "function"
    },
    {
      "inputs": [
        {
          "internalType": "address",
          "name": "user",
          "type": "address"
        }
      ],
      "name": "getOffersByUserCounter",
      "outputs": [
        {
          "internalType": "uint256",
          "name": "",
          "type": "uint256"
        }
      ],
      "stateMutability": "view",
      "type": "function"
    },
    {
      "inputs": [],
      "name": "getOffersCounter",
      "outputs": [
        {
          "internalType": "uint256",
          "name": "",
          "type": "uint256"
        }
      ],
      "stateMutability": "view",
      "type": "function"
    },
    {
      "inputs": [
        {
          "internalType": "address",
          "name": "user",
          "type": "address"
        },
        {
          "internalType": "uint8",
          "name": "cardNumber",
          "type": "uint8"
        }
      ],
      "name": "hasOffer",
      "outputs": [
        {
          "internalType": "bool",
          "name": "",
          "type": "bool"
        }
      ],
      "stateMutability": "view",
      "type": "function"
    },
    {
      "inputs": [
        {
          "internalType": "uint256",
          "name": "",
          "type": "uint256"
        }
      ],
      "name": "offers",
      "outputs": [
        {
          "internalType": "string",
          "name": "offerId",
          "type": "string"
        },
        {
          "internalType": "uint8",
          "name": "cardNumber",
          "type": "uint8"
        },
        {
          "internalType": "address",
          "name": "owner",
          "type": "address"
        },
        {
          "internalType": "uint256",
          "name": "timestamp",
          "type": "uint256"
        }
      ],
      "stateMutability": "view",
      "type": "function"
    },
    {
      "inputs": [
        {
          "internalType": "uint8",
          "name": "",
          "type": "uint8"
        }
      ],
      "name": "offersByCardNumberCounter",
      "outputs": [
        {
          "internalType": "uint256",
          "name": "",
          "type": "uint256"
        }
      ],
      "stateMutability": "view",
      "type": "function"
    },
    {
      "inputs": [
        {
          "internalType": "address",
          "name": "",
          "type": "address"
        }
      ],
      "name": "offersByUserCounter",
      "outputs": [
        {
          "internalType": "uint256",
          "name": "",
          "type": "uint256"
        }
      ],
      "stateMutability": "view",
      "type": "function"
    },
    {
      "inputs": [],
      "name": "offersTotalCounter",
      "outputs": [
        {
          "internalType": "uint256",
          "name": "",
          "type": "uint256"
        }
      ],
      "stateMutability": "view",
      "type": "function"
    },
    {
      "inputs": [],
      "name": "owner",
      "outputs": [
        {
          "internalType": "address",
          "name": "",
          "type": "address"
        }
      ],
      "stateMutability": "view",
      "type": "function"
    },
    {
      "inputs": [
        {
          "internalType": "address",
          "name": "",
          "type": "address"
        }
      ],
      "name": "owners",
      "outputs": [
        {
          "internalType": "bool",
          "name": "",
          "type": "bool"
        }
      ],
      "stateMutability": "view",
      "type": "function"
    },
    {
      "inputs": [
        {
          "internalType": "uint8",
          "name": "cardNumber",
          "type": "uint8"
        }
      ],
      "name": "removeOfferByCardNumber",
      "outputs": [
        {
          "internalType": "bool",
          "name": "",
          "type": "bool"
        }
      ],
      "stateMutability": "nonpayable",
      "type": "function"
    },
    {
      "inputs": [
        {
          "internalType": "address",
          "name": "user",
          "type": "address"
        },
        {
          "internalType": "uint8",
          "name": "cardNumber",
          "type": "uint8"
        }
      ],
      "name": "removeOfferByUserAndCardNumber",
      "outputs": [
        {
          "internalType": "bool",
          "name": "",
          "type": "bool"
        }
      ],
      "stateMutability": "nonpayable",
      "type": "function"
    },
    {
      "inputs": [
        {
          "internalType": "address",
          "name": "_ownerToRemove",
          "type": "address"
        }
      ],
      "name": "removeOwner",
      "outputs": [],
      "stateMutability": "nonpayable",
      "type": "function"
    },
    {
      "inputs": [],
      "name": "renounceOwnership",
      "outputs": [],
      "stateMutability": "nonpayable",
      "type": "function"
    },
    {
      "inputs": [
        {
          "internalType": "address",
          "name": "_gammaCardsContract",
          "type": "address"
        }
      ],
      "name": "setGammaCardsContract",
      "outputs": [],
      "stateMutability": "nonpayable",
      "type": "function"
    },
    {
      "inputs": [
        {
          "internalType": "uint256",
          "name": "_maxCardNumbersAllowed",
          "type": "uint256"
        }
      ],
      "name": "setMaxCardNumbersAllowed",
      "outputs": [],
      "stateMutability": "nonpayable",
      "type": "function"
    },
    {
      "inputs": [
        {
          "internalType": "uint256",
          "name": "_maxOffersAllowed",
          "type": "uint256"
        }
      ],
      "name": "setMaxOffersAllowed",
      "outputs": [],
      "stateMutability": "nonpayable",
      "type": "function"
    },
    {
      "inputs": [
        {
          "internalType": "uint256",
          "name": "_maxOffersByUserAllowed",
          "type": "uint256"
        }
      ],
      "name": "setMaxOffersByUserAllowed",
      "outputs": [],
      "stateMutability": "nonpayable",
      "type": "function"
    },
    {
      "inputs": [
        {
          "internalType": "address",
          "name": "newOwner",
          "type": "address"
        }
      ],
      "name": "transferOwnership",
      "outputs": [],
      "stateMutability": "nonpayable",
      "type": "function"
    }
  ],
  "bytecode": "0x608060405261138860035560056004819055607890556006805460ff191690553480156200002c57600080fd5b5060405162003ac738038062003ac78339810160408190526200004f91620000f5565b6200005a33620000a5565b600180546001600160a01b0319166001600160a01b0392909216919091178155336000908152600260205260409020805460ff19908116909217905560068054909116905562000127565b600080546001600160a01b038381166001600160a01b0319831681178455604051919092169283917f8be0079c531659141344cd1fd0a4f28419497f9722a3daafe3b4186f6b6457e09190a35050565b6000602082840312156200010857600080fd5b81516001600160a01b03811681146200012057600080fd5b9392505050565b61399080620001376000396000f3fe608060405234801561001057600080fd5b506004361061021c5760003560e01c80637594a6ed11610125578063ce7483d5116100ad578063e02f97231161007c578063e02f9723146104d0578063e2b36596146104e3578063e359a0a1146104f6578063e5e5f73214610509578063f2fde38b1461051c57600080fd5b8063ce7483d514610472578063cf86f8e514610495578063d250f03a1461049d578063d827a8f4146104b057600080fd5b806390222aa1116100f457806390222aa11461041c5780639618b333146104245780639f91506914610437578063ba79b77b14610457578063c08029e71461045f57600080fd5b80637594a6ed146103a15780638400a189146103c15780638a72ea6a146103d45780638da5cb5b146103f757600080fd5b80633e293e16116101a85780635a919aeb116101775780635a919aeb1461035e5780635bbfbfd614610367578063619980dc1461037a5780637065cb4814610386578063715018a61461039957600080fd5b80633e293e16146103105780633ee992ee146103235780634c7a7ad31461033857806358e57ebb1461034b57600080fd5b806329d3f60b116101ef57806329d3f60b146102a25780632edb5fcf146102cf578063322fba27146102e25780633808dfe7146102ea5780633a027073146102fd57600080fd5b8063022914a7146102215780630cdb311714610259578063173825d91461027a57806317a1fed91461028f575b600080fd5b61024461022f366004613009565b60026020526000908152604090205460ff1681565b60405190151581526020015b60405180910390f35b61026c610267366004613009565b61052f565b604051908152602001610250565b61028d610288366004613009565b61057c565b005b61028d61029d366004613173565b6106f9565b6102446102b0366004613009565b6001600160a01b03166000908152600a60205260409020546004541190565b6102446102dd3660046131f8565b61073a565b61028d6107f9565b61028d6102f836600461322b565b6109a7565b61024461030b366004613244565b6109db565b61028d61031e36600461325f565b6109e9565b61032b6109fa565b60405161025091906133c5565b61028d610346366004613009565b610b8e565b61028d610359366004613435565b610c31565b61026c600c5481565b6102446103753660046131f8565b610c73565b600c5460035411610244565b61028d610394366004613009565b610cb5565b61028d610dc7565b61026c6103af366004613009565b600a6020526000908152604090205481565b61032b6103cf366004613244565b610ddb565b6103e76103e236600461322b565b610f7f565b6040516102509493929190613452565b6000546001600160a01b03165b6040516001600160a01b039091168152602001610250565b60035461026c565b61032b610432366004613009565b611057565b61044a6104453660046131f8565b611219565b604051610250919061348d565b60045461026c565b61028d61046d3660046134a0565b61144d565b61026c610480366004613244565b60ff166000908152600b602052604090205490565b600c5461026c565b600154610404906001600160a01b031681565b61026c6104be366004613244565b600b6020526000908152604090205481565b61028d6104de36600461322b565b6116bd565b61044a6104f13660046134f4565b6116f1565b61044a61050436600461322b565b6118fa565b61028d61051736600461322b565b611ab5565b61028d61052a366004613009565b611ae9565b60006001600160a01b0382166105605760405162461bcd60e51b815260040161055790613531565b60405180910390fd5b506001600160a01b03166000908152600a602052604090205490565b3360009081526002602052604090205460ff166105ab5760405162461bcd60e51b81526004016105579061355b565b6001600160a01b0381166105d15760405162461bcd60e51b815260040161055790613531565b336001600160a01b038216036106395760405162461bcd60e51b815260206004820152602760248201527f596f752063616e6e6f742072656d6f766520796f757273656c6620617320616e6044820152661037bbb732b91760c91b6064820152608401610557565b6001600160a01b03811660009081526002602052604090205460ff166106a15760405162461bcd60e51b815260206004820152601860248201527f41646472657373206973206e6f7420616e206f776e65722e00000000000000006044820152606401610557565b6001600160a01b038116600081815260026020908152604091829020805460ff1916905590519182527f58619076adf5bb0943d100ef88d52d7c3fd691b19d3a9071b555b651fbf418da91015b60405180910390a150565b3360009081526002602052604090205460ff166107285760405162461bcd60e51b81526004016105579061355b565b61073484848484611b62565b50505050565b60006001600160a01b0383166107625760405162461bcd60e51b815260040161055790613531565b60005b6001600160a01b0384166000908152600a60205260409020548110156107ed576001600160a01b0384166000908152600860205260409020805460ff85169190839081106107b5576107b561359e565b600091825260209091206001600590920201015460ff16036107db5760019150506107f3565b806107e5816135ca565b915050610765565b50600090505b92915050565b3360009081526002602052604090205460ff166108285760405162461bcd60e51b81526004016105579061355b565b60005b60075481101561096857600860006007838154811061084c5761084c61359e565b60009182526020808320600360059093020191909101546001600160a01b03168352820192909252604001812061088291612dd9565b6000600a60006007848154811061089b5761089b61359e565b60009182526020808320600360059093020191909101546001600160a01b03168352820192909252604001812091909155600780546009929190849081106108e5576108e561359e565b600091825260208083206001600590930201919091015460ff168352820192909252604001812061091591612dd9565b6000600b60006007848154811061092e5761092e61359e565b600091825260208083206001600590930201919091015460ff16835282019290925260400190205580610960816135ca565b91505061082b565b506000600c81905561097c90600790612dd9565b6040517f550d27073d0d6d364815a66fed9ba2bcde6c0406944f87d0cb3e538118faef4a90600090a1565b3360009081526002602052604090205460ff166109d65760405162461bcd60e51b81526004016105579061355b565b600455565b60006107f33383600061226c565b6109f583338484611b62565b505050565b60606007805480602002602001604051908101604052809291908181526020016000905b82821015610b8557838290600052602060002090600502016040518060a0016040529081600082018054610a51906135e3565b80601f0160208091040260200160405190810160405280929190818152602001828054610a7d906135e3565b8015610aca5780601f10610a9f57610100808354040283529160200191610aca565b820191906000526020600020905b815481529060010190602001808311610aad57829003601f168201915b5050509183525050600182015460ff166020808301919091526002830180546040805182850281018501825282815294019392830182828015610b4a57602002820191906000526020600020906000905b825461010083900a900460ff16815260206001928301818104948501949093039092029101808411610b1b5790505b505050918352505060038201546001600160a01b03166020808301919091526004909201546040909101529082526001929092019101610a1e565b50505050905090565b3360009081526002602052604090205460ff16610bbd5760405162461bcd60e51b81526004016105579061355b565b6001600160a01b038116610be35760405162461bcd60e51b815260040161055790613531565b600180546001600160a01b0319166001600160a01b0383169081179091556040519081527f45c9eba39b5ae3e7a6650b0a57bcb8e5d135936d56d111983dbc5860ae6760fa906020016106ee565b3360009081526002602052604090205460ff16610c605760405162461bcd60e51b81526004016105579061355b565b6006805460ff1916911515919091179055565b3360009081526002602052604081205460ff16610ca25760405162461bcd60e51b81526004016105579061355b565b610cae8383600061226c565b9392505050565b3360009081526002602052604090205460ff16610ce45760405162461bcd60e51b81526004016105579061355b565b6001600160a01b038116610d0a5760405162461bcd60e51b815260040161055790613531565b6001600160a01b03811660009081526002602052604090205460ff1615610d735760405162461bcd60e51b815260206004820152601c60248201527f4164647265737320697320616c726561647920616e206f776e65722e000000006044820152606401610557565b6001600160a01b038116600081815260026020908152604091829020805460ff1916600117905590519182527f6e4e2a7c0e1576d48aeabd633d094f622d4f046286fec8b9045dd7f5c9fb087d91016106ee565b610dcf61250f565b610dd96000612569565b565b60ff81166000908152600960209081526040808320805482518185028101850190935280835260609492939192909184015b82821015610f7457838290600052602060002090600502016040518060a0016040529081600082018054610e40906135e3565b80601f0160208091040260200160405190810160405280929190818152602001828054610e6c906135e3565b8015610eb95780601f10610e8e57610100808354040283529160200191610eb9565b820191906000526020600020905b815481529060010190602001808311610e9c57829003601f168201915b5050509183525050600182015460ff166020808301919091526002830180546040805182850281018501825282815294019392830182828015610f3957602002820191906000526020600020906000905b825461010083900a900460ff16815260206001928301818104948501949093039092029101808411610f0a5790505b505050918352505060038201546001600160a01b03166020808301919091526004909201546040909101529082526001929092019101610e0d565b505050509050919050565b60078181548110610f8f57600080fd5b9060005260206000209060050201600091509050806000018054610fb2906135e3565b80601f0160208091040260200160405190810160405280929190818152602001828054610fde906135e3565b801561102b5780601f106110005761010080835404028352916020019161102b565b820191906000526020600020905b81548152906001019060200180831161100e57829003601f168201915b5050505060018301546003840154600490940154929360ff909116926001600160a01b03909116915084565b60606001600160a01b03821661107f5760405162461bcd60e51b815260040161055790613531565b6001600160a01b038216600090815260086020908152604080832080548251818502810185019093528083529193909284015b82821015610f7457838290600052602060002090600502016040518060a00160405290816000820180546110e5906135e3565b80601f0160208091040260200160405190810160405280929190818152602001828054611111906135e3565b801561115e5780601f106111335761010080835404028352916020019161115e565b820191906000526020600020905b81548152906001019060200180831161114157829003601f168201915b5050509183525050600182015460ff1660208083019190915260028301805460408051828502810185018252828152940193928301828280156111de57602002820191906000526020600020906000905b825461010083900a900460ff168152602060019283018181049485019490930390920291018084116111af5790505b505050918352505060038201546001600160a01b031660208083019190915260049092015460409091015290825260019290920191016110b2565b611221612dfa565b6001600160a01b0383166112475760405162461bcd60e51b815260040161055790613531565b60005b6001600160a01b0384166000908152600a6020526040902054811015611444576001600160a01b0384166000908152600860205260409020805460ff851691908390811061129a5761129a61359e565b600091825260209091206001600590920201015460ff1603611432576001600160a01b03841660009081526008602052604090208054829081106112e0576112e061359e565b90600052602060002090600502016040518060a0016040529081600082018054611309906135e3565b80601f0160208091040260200160405190810160405280929190818152602001828054611335906135e3565b80156113825780601f1061135757610100808354040283529160200191611382565b820191906000526020600020905b81548152906001019060200180831161136557829003601f168201915b5050509183525050600182015460ff16602080830191909152600283018054604080518285028101850182528281529401939283018282801561140257602002820191906000526020600020906000905b825461010083900a900460ff168152602060019283018181049485019490930390920291018084116113d35790505b505050918352505060038201546001600160a01b0316602082015260049091015460409091015291506107f39050565b8061143c816135ca565b91505061124a565b50610cae6125b9565b60015460405163568b427d60e11b81526001600160a01b03868116600483015260ff80871660248401528582166044840152841660648301529091169063ad1684fa90608401600060405180830381600087803b1580156114ad57600080fd5b505af11580156114c1573d6000803e3d6000fd5b505060015460405163117ece1960e31b81526001600160a01b039091169250638bf670c891506114f7908790859060040161361d565b6020604051808303816000875af1158015611516573d6000803e3d6000fd5b505050506040513d601f19601f8201168201806040525081019061153a9190613639565b6115865760405162461bcd60e51b815260206004820152601f60248201527f45786368616e6765206572726f7220776974682077616c6c65742066726f6d006044820152606401610557565b60015460405163117ece1960e31b81526001600160a01b0390911690638bf670c8906115b8908590879060040161361d565b6020604051808303816000875af11580156115d7573d6000803e3d6000fd5b505050506040513d601f19601f820116820180604052508101906115fb9190613639565b6116475760405162461bcd60e51b815260206004820152601d60248201527f45786368616e6765206572726f7220776974682077616c6c657420746f0000006044820152606401610557565b60006116558383600161226c565b9050806116b65760405162461bcd60e51b815260206004820152602960248201527f4572726f722064656c6574696e67206f66666572206166746572207472616e7360448201526866657220636172647360b81b6064820152608401610557565b5050505050565b3360009081526002602052604090205460ff166116ec5760405162461bcd60e51b81526004016105579061355b565b600555565b6116f9612dfa565b60005b6007548110156118f157826040516020016117179190613656565b60405160208183030381529060405280519060200120600782815481106117405761174061359e565b90600052602060002090600502016000016040516020016117619190613672565b60405160208183030381529060405280519060200120036118df576007818154811061178f5761178f61359e565b90600052602060002090600502016040518060a00160405290816000820180546117b8906135e3565b80601f01602080910402602001604051908101604052809291908181526020018280546117e4906135e3565b80156118315780601f1061180657610100808354040283529160200191611831565b820191906000526020600020905b81548152906001019060200180831161181457829003601f168201915b5050509183525050600182015460ff1660208083019190915260028301805460408051828502810185018252828152940193928301828280156118b157602002820191906000526020600020906000905b825461010083900a900460ff168152602060019283018181049485019490930390920291018084116118825790505b505050918352505060038201546001600160a01b031660208201526004909101546040909101529392505050565b806118e9816135ca565b9150506116fc565b506107f36125b9565b611902612dfa565b60075482106119535760405162461bcd60e51b815260206004820152601760248201527f4f6666657220496420646f6573206e6f742065786973740000000000000000006044820152606401610557565b600782815481106119665761196661359e565b90600052602060002090600502016040518060a001604052908160008201805461198f906135e3565b80601f01602080910402602001604051908101604052809291908181526020018280546119bb906135e3565b8015611a085780601f106119dd57610100808354040283529160200191611a08565b820191906000526020600020905b8154815290600101906020018083116119eb57829003601f168201915b5050509183525050600182015460ff166020808301919091526002830180546040805182850281018501825282815294019392830182828015611a8857602002820191906000526020600020906000905b825461010083900a900460ff16815260206001928301818104948501949093039092029101808411611a595790505b505050918352505060038201546001600160a01b0316602082015260049091015460409091015292915050565b3360009081526002602052604090205460ff16611ae45760405162461bcd60e51b81526004016105579061355b565b600355565b611af161250f565b6001600160a01b038116611b565760405162461bcd60e51b815260206004820152602660248201527f4f776e61626c653a206e6577206f776e657220697320746865207a65726f206160448201526564647265737360d01b6064820152608401610557565b611b5f81612569565b50565b6001546001600160a01b0316611bba5760405162461bcd60e51b815260206004820152601b60248201527f47616d6d614361726473436f6e7472616374206e6f74207365742e00000000006044820152606401610557565b6000815111611c165760405162461bcd60e51b815260206004820152602260248201527f77616e746564436172644e756d626572732063616e6e6f7420626520656d70746044820152613c9760f11b6064820152608401610557565b6004546001600160a01b0384166000908152600a602052604090205410611c945760405162461bcd60e51b815260206004820152602c60248201527f5573657220686173207265616368656420746865206d6178696d756d20616c6c60448201526b37bbb2b21037b33332b9399760a11b6064820152608401610557565b600354600c5410611cfe5760405162461bcd60e51b815260206004820152602e60248201527f546f74616c206f66666572732068617665207265616368656420746865206d6160448201526d3c34b6bab69030b63637bbb2b21760911b6064820152608401610557565b60015460405163117ece1960e31b81526000916001600160a01b031690638bf670c890611d31908790879060040161361d565b6020604051808303816000875af1158015611d50573d6000803e3d6000fd5b505050506040513d601f19601f82011682018060405250810190611d749190613639565b905080611dc35760405162461bcd60e51b815260206004820152601c60248201527f596f7520646f6573206e6f742068617665207468617420636172642e000000006044820152606401610557565b60005b82518160ff161015611e6c578360ff16838260ff1681518110611deb57611deb61359e565b602002602001015160ff1603611e5a5760405162461bcd60e51b815260206004820152602e60248201527f54686520636172644e756d6265722063616e6e6f7420626520696e2077616e7460448201526d32b221b0b932273ab6b132b9399760911b6064820152608401610557565b80611e64816136e8565b915050611dc6565b506000611e798585611219565b60608101519091506001600160a01b031615611ef55760405162461bcd60e51b815260206004820152603560248201527f416e206f6666657220666f722074686973207573657220616e6420636172644e6044820152743ab6b132b91030b63932b0b23c9032bc34b9ba399760591b6064820152608401610557565b6001600160a01b0385166000908152600a60205260408120805460019290611f1e908490613707565b909155505060ff84166000908152600b60205260408120805460019290611f46908490613707565b925050819055506001600c6000828254611f609190613707565b90915550506040805160a08101825287815260ff861660208201529081018490526001600160a01b038616606082015242608082015260078054600181018255600091909152815160059091027fa66cc928b5edb82af9bd49922954155ab7b0942694bea4ce44661d9a8736c68801908190611fdc9082613768565b5060208281015160018301805460ff191660ff9092169190911790556040830151805161200f9260028501920190612e35565b5060608201516003820180546001600160a01b0319166001600160a01b03928316179055608090920151600490910155851660009081526008602052604090206007805461205f90600190613828565b8154811061206f5761206f61359e565b600091825260208083208454600181018655948452922060059182029092019202018061209c838261383b565b50600182810154908201805460ff191660ff909216919091179055600280830180546120cb9284019190612edb565b5060038281015490820180546001600160a01b0319166001600160a01b0390921691909117905560049182015491015560ff841660009081526009602052604090206007805461211d90600190613828565b8154811061212d5761212d61359e565b600091825260208083208454600181018655948452922060059182029092019202018061215a838261383b565b50600182810154908201805460ff191660ff909216919091179055600280830180546121899284019190612edb565b5060038281015490820180546001600160a01b0319166001600160a01b0390921691909117905560049182015491015560065460ff161561222957600154604051631c5568eb60e21b81526001600160a01b0390911690637155a3ac906121f6908890889060040161361d565b600060405180830381600087803b15801561221057600080fd5b505af1158015612224573d6000803e3d6000fd5b505050505b7f31a893ae21b5459c9a34e0be8a4fdf6803ec101bc80e2903766025d86cbe915985858560405161225c9392919061390e565b60405180910390a1505050505050565b60006001600160a01b0384166122945760405162461bcd60e51b815260040161055790613531565b6001600160a01b0384166000908152600860209081526040808320600a9092528220549091805b82811015612504578660ff168482815481106122d9576122d961359e565b600091825260209091206001600590920201015460ff16036124f25760008482815481106123095761230961359e565b90600052602060002090600502016000018054612325906135e3565b80601f0160208091040260200160405190810160405280929190818152602001828054612351906135e3565b801561239e5780601f106123735761010080835404028352916020019161239e565b820191906000526020600020905b81548152906001019060200180831161238157829003601f168201915b505050505090506123b0898983612602565b6123bb89898361296e565b6123c481612b03565b506001600160a01b0389166000908152600a602052604081208054600192906123ee908490613828565b909155505060ff88166000908152600b60205260408120805460019290612416908490613828565b925050819055506001600c60008282546124309190613828565b90915550506006546001935060ff168015612449575086155b156124b357600154604051630aaf17c960e11b81526001600160a01b039091169063155e2f9290612480908c908c9060040161361d565b600060405180830381600087803b15801561249a57600080fd5b505af11580156124ae573d6000803e3d6000fd5b505050505b7f7911e34642eae38762395a3dd0fa3308d0f8908b92fe36c41543d635ab7cb8f589896040516124e492919061361d565b60405180910390a150612504565b806124fc816135ca565b9150506122bb565b509695505050505050565b6000546001600160a01b03163314610dd95760405162461bcd60e51b815260206004820181905260248201527f4f776e61626c653a2063616c6c6572206973206e6f7420746865206f776e65726044820152606401610557565b600080546001600160a01b038381166001600160a01b0319831681178455604051919092169283917f8be0079c531659141344cd1fd0a4f28419497f9722a3daafe3b4186f6b6457e09190a35050565b6125c1612dfa565b506040805160c081018252600060a0820181815282526020808301829052835182815290810184529282019290925260608101829052608081019190915290565b6001600160a01b0383166000908152600860205260408120905b81548110156116b6576126da82828154811061263a5761263a61359e565b90600052602060002090600502016000018054612656906135e3565b80601f0160208091040260200160405190810160405280929190818152602001828054612682906135e3565b80156126cf5780601f106126a4576101008083540402835291602001916126cf565b820191906000526020600020905b8154815290600101906020018083116126b257829003601f168201915b505050505084612d80565b1561295c57846001600160a01b03168282815481106126fb576126fb61359e565b60009182526020909120600360059092020101546001600160a01b0316146127805760405162461bcd60e51b815260206004820152603260248201527f5f64656c6574654f6666657246726f6d557365724d617070696e673a206f776e60448201527132b9103237b2b9903737ba1036b0ba31b41760711b6064820152608401610557565b8360ff168282815481106127965761279661359e565b600091825260209091206001600590920201015460ff16146128205760405162461bcd60e51b815260206004820152603760248201527f5f64656c6574654f6666657246726f6d557365724d617070696e673a2063617260448201527f644e756d62657220646f6573206e6f74206d617463682e0000000000000000006064820152608401610557565b815461282e90600190613828565b8110156128f0578154829061284590600190613828565b815481106128555761285561359e565b90600052602060002090600502018282815481106128755761287561359e565b6000918252602090912060059091020180612890838261383b565b50600182810154908201805460ff191660ff909216919091179055600280830180546128bf9284019190612edb565b5060038281015490820180546001600160a01b0319166001600160a01b039092169190911790556004918201549101555b8180548061290057612900613944565b600082815260208120600019909201916005830201906129208282612f29565b60018201805460ff1916905561293a600283016000612f63565b506003810180546001600160a01b0319169055600060049091015590556116b6565b80612966816135ca565b91505061261c565b60ff82166000908152600960205260408120905b81548110156116b6576129a082828154811061263a5761263a61359e565b15612af157846001600160a01b03168282815481106129c1576129c161359e565b60009182526020909120600360059092020101546001600160a01b031614612a515760405162461bcd60e51b815260206004820152603860248201527f5f64656c6574654f6666657246726f6d436172644e756d6265724d617070696e60448201527f673a206f776e657220646f6573206e6f74206d617463682e00000000000000006064820152608401610557565b8360ff16828281548110612a6757612a6761359e565b600091825260209091206001600590920201015460ff16146128205760405162461bcd60e51b815260206004820152603d60248201527f5f64656c6574654f6666657246726f6d436172644e756d6265724d617070696e60448201527f673a20636172644e756d62657220646f6573206e6f74206d617463682e0000006064820152608401610557565b80612afb816135ca565b915050612982565b600080805b600754811015612d795760075481108015612bd45750612bd460078281548110612b3457612b3461359e565b90600052602060002090600502016000018054612b50906135e3565b80601f0160208091040260200160405190810160405280929190818152602001828054612b7c906135e3565b8015612bc95780601f10612b9e57610100808354040283529160200191612bc9565b820191906000526020600020905b815481529060010190602001808311612bac57829003601f168201915b505050505085612d80565b15612d675760078181548110612bec57612bec61359e565b60009182526020822060059091020190612c068282612f29565b60018201805460ff19169055612c20600283016000612f63565b506003810180546001600160a01b0319169055600060049091015560078054612c4b90600190613828565b81548110612c5b57612c5b61359e565b906000526020600020906005020160078281548110612c7c57612c7c61359e565b6000918252602090912060059091020180612c97838261383b565b50600182810154908201805460ff191660ff90921691909117905560028083018054612cc69284019190612edb565b5060038281015490820180546001600160a01b0319166001600160a01b039092169190911790556004918201549101556007805480612d0757612d07613944565b60008281526020812060001990920191600583020190612d278282612f29565b60018201805460ff19169055612d41600283016000612f63565b506003810180546001600160a01b03191690556000600490910155905560019150612d79565b80612d71816135ca565b915050612b08565b5092915050565b600081604051602001612d939190613656565b6040516020818303038152906040528051906020012083604051602001612dba9190613656565b6040516020818303038152906040528051906020012014905092915050565b5080546000825560050290600052602060002090810190611b5f9190612f88565b6040518060a0016040528060608152602001600060ff1681526020016060815260200160006001600160a01b03168152602001600081525090565b82805482825590600052602060002090601f01602090048101928215612ecb5791602002820160005b83821115612e9c57835183826101000a81548160ff021916908360ff1602179055509260200192600101602081600001049283019260010302612e5e565b8015612ec95782816101000a81549060ff0219169055600101602081600001049283019260010302612e9c565b505b50612ed7929150612fd8565b5090565b82805482825590600052602060002090601f01602090048101928215612ecb57600052602060002091601f016020900482015b82811115612ecb578254825591600101919060010190612f0e565b508054612f35906135e3565b6000825580601f10612f45575050565b601f016020900490600052602060002090810190611b5f9190612fd8565b50805460008255601f016020900490600052602060002090810190611b5f9190612fd8565b80821115612ed7576000612f9c8282612f29565b60018201805460ff19169055612fb6600283016000612f63565b506003810180546001600160a01b031916905560006004820155600501612f88565b5b80821115612ed75760008155600101612fd9565b80356001600160a01b038116811461300457600080fd5b919050565b60006020828403121561301b57600080fd5b610cae82612fed565b634e487b7160e01b600052604160045260246000fd5b604051601f8201601f1916810167ffffffffffffffff8111828210171561306357613063613024565b604052919050565b600082601f83011261307c57600080fd5b813567ffffffffffffffff81111561309657613096613024565b6130a9601f8201601f191660200161303a565b8181528460208386010111156130be57600080fd5b816020850160208301376000918101602001919091529392505050565b803560ff8116811461300457600080fd5b600082601f8301126130fd57600080fd5b8135602067ffffffffffffffff82111561311957613119613024565b8160051b61312882820161303a565b928352848101820192828101908785111561314257600080fd5b83870192505b8483101561316857613159836130db565b82529183019190830190613148565b979650505050505050565b6000806000806080858703121561318957600080fd5b843567ffffffffffffffff808211156131a157600080fd5b6131ad8883890161306b565b95506131bb60208801612fed565b94506131c9604088016130db565b935060608701359150808211156131df57600080fd5b506131ec878288016130ec565b91505092959194509250565b6000806040838503121561320b57600080fd5b61321483612fed565b9150613222602084016130db565b90509250929050565b60006020828403121561323d57600080fd5b5035919050565b60006020828403121561325657600080fd5b610cae826130db565b60008060006060848603121561327457600080fd5b833567ffffffffffffffff8082111561328c57600080fd5b6132988783880161306b565b94506132a6602087016130db565b935060408601359150808211156132bc57600080fd5b506132c9868287016130ec565b9150509250925092565b60005b838110156132ee5781810151838201526020016132d6565b50506000910152565b6000815180845261330f8160208601602086016132d3565b601f01601f19169290920160200192915050565b600081518084526020808501945080840160005b8381101561335657815160ff1687529582019590820190600101613337565b509495945050505050565b6000815160a0845261337660a08501826132f7565b905060ff60208401511660208501526040830151848203604086015261339c8282613323565b6060858101516001600160a01b0316908701526080948501519490950193909352509192915050565b6000602080830181845280855180835260408601915060408160051b870101925083870160005b8281101561341a57603f19888603018452613408858351613361565b945092850192908501906001016133ec565b5092979650505050505050565b8015158114611b5f57600080fd5b60006020828403121561344757600080fd5b8135610cae81613427565b60808152600061346560808301876132f7565b60ff959095166020830152506001600160a01b03929092166040830152606090910152919050565b602081526000610cae6020830184613361565b600080600080608085870312156134b657600080fd5b6134bf85612fed565b93506134cd602086016130db565b92506134db60408601612fed565b91506134e9606086016130db565b905092959194509250565b60006020828403121561350657600080fd5b813567ffffffffffffffff81111561351d57600080fd5b6135298482850161306b565b949350505050565b60208082526010908201526f24b73b30b634b21030b2323932b9b99760811b604082015260600190565b60208082526023908201527f4f6e6c79206f776e6572732063616e2063616c6c20746869732066756e63746960408201526237b71760e91b606082015260800190565b634e487b7160e01b600052603260045260246000fd5b634e487b7160e01b600052601160045260246000fd5b6000600182016135dc576135dc6135b4565b5060010190565b600181811c908216806135f757607f821691505b60208210810361361757634e487b7160e01b600052602260045260246000fd5b50919050565b6001600160a01b0392909216825260ff16602082015260400190565b60006020828403121561364b57600080fd5b8151610cae81613427565b600082516136688184602087016132d3565b9190910192915050565b6000808354613680816135e3565b6001828116801561369857600181146136ad576136dc565b60ff19841687528215158302870194506136dc565b8760005260208060002060005b858110156136d35781548a8201529084019082016136ba565b50505082870194505b50929695505050505050565b600060ff821660ff81036136fe576136fe6135b4565b60010192915050565b808201808211156107f3576107f36135b4565b601f8211156109f557600081815260208120601f850160051c810160208610156137415750805b601f850160051c820191505b818110156137605782815560010161374d565b505050505050565b815167ffffffffffffffff81111561378257613782613024565b6137968161379084546135e3565b8461371a565b602080601f8311600181146137cb57600084156137b35750858301515b600019600386901b1c1916600185901b178555613760565b600085815260208120601f198616915b828110156137fa578886015182559484019460019091019084016137db565b50858210156138185787850151600019600388901b60f8161c191681555b5050505050600190811b01905550565b818103818111156107f3576107f36135b4565b818103613846575050565b61385082546135e3565b67ffffffffffffffff81111561386857613868613024565b6138768161379084546135e3565b6000601f8211600181146138aa57600083156138925750848201545b600019600385901b1c1916600184901b1784556116b6565b600085815260209020601f19841690600086815260209020845b838110156138e457828601548255600195860195909101906020016138c4565b50858310156138185793015460001960f8600387901b161c19169092555050600190811b01905550565b6001600160a01b038416815260ff8316602082015260606040820181905260009061393b90830184613323565b95945050505050565b634e487b7160e01b600052603160045260246000fdfea264697066735822122054fe423f8cd3ba085154be3d87909c062c5caac319e520a9eb8e749a64d6b89664736f6c63430008140033",
  "linkReferences": {},
  "deployedLinkReferences": {}
}