{
  "_format": "hh-sol-artifact-1",
  "contractName": "NofGammaOffersV4",
  "sourceName": "contracts/gamma/GammaOffers.v4.sol",
  "abi": [
    {
      "inputs": [
        {
          "internalType": "address",
          "name": "_cardsContract",
          "type": "address"
        }
      ],
      "stateMutability": "nonpayable",
      "type": "constructor"
    },
    {
      "anonymous": false,
      "inputs": [],
      "name": "AllOffersRemoved",
      "type": "event"
    },
    {
      "anonymous": false,
      "inputs": [
        {
          "indexed": false,
          "internalType": "address",
          "name": "newGammaCardsContract",
          "type": "address"
        }
      ],
      "name": "NewGammaCardsContract",
      "type": "event"
    },
    {
      "anonymous": false,
      "inputs": [
        {
          "indexed": false,
          "internalType": "address",
          "name": "owner",
          "type": "address"
        }
      ],
      "name": "NewOwnerAdded",
      "type": "event"
    },
    {
      "anonymous": false,
      "inputs": [
        {
          "indexed": false,
          "internalType": "address",
          "name": "user",
          "type": "address"
        },
        {
          "indexed": false,
          "internalType": "uint8",
          "name": "cardNumber",
          "type": "uint8"
        },
        {
          "indexed": false,
          "internalType": "uint8[]",
          "name": "wantedCardNumbers",
          "type": "uint8[]"
        }
      ],
      "name": "OfferCreated",
      "type": "event"
    },
    {
      "anonymous": false,
      "inputs": [
        {
          "indexed": false,
          "internalType": "address",
          "name": "user",
          "type": "address"
        },
        {
          "indexed": false,
          "internalType": "uint8",
          "name": "cardNumber",
          "type": "uint8"
        }
      ],
      "name": "OfferRemoved",
      "type": "event"
    },
    {
      "anonymous": false,
      "inputs": [
        {
          "indexed": false,
          "internalType": "address",
          "name": "owner",
          "type": "address"
        }
      ],
      "name": "OwnerRemoved",
      "type": "event"
    },
    {
      "anonymous": false,
      "inputs": [
        {
          "indexed": true,
          "internalType": "address",
          "name": "previousOwner",
          "type": "address"
        },
        {
          "indexed": true,
          "internalType": "address",
          "name": "newOwner",
          "type": "address"
        }
      ],
      "name": "OwnershipTransferred",
      "type": "event"
    },
    {
      "anonymous": false,
      "inputs": [
        {
          "indexed": false,
          "internalType": "address",
          "name": "user",
          "type": "address"
        }
      ],
      "name": "UserOffersRemoved",
      "type": "event"
    },
    {
      "inputs": [
        {
          "internalType": "address",
          "name": "_newOwner",
          "type": "address"
        }
      ],
      "name": "addOwner",
      "outputs": [],
      "stateMutability": "nonpayable",
      "type": "function"
    },
    {
      "inputs": [],
      "name": "canAnyUserPublishOffer",
      "outputs": [
        {
          "internalType": "bool",
          "name": "",
          "type": "bool"
        }
      ],
      "stateMutability": "view",
      "type": "function"
    },
    {
      "inputs": [
        {
          "internalType": "address",
          "name": "user",
          "type": "address"
        }
      ],
      "name": "canUserPublishOffer",
      "outputs": [
        {
          "internalType": "bool",
          "name": "",
          "type": "bool"
        }
      ],
      "stateMutability": "view",
      "type": "function"
    },
    {
      "inputs": [
        {
          "internalType": "bool",
          "name": "_value",
          "type": "bool"
        }
      ],
      "name": "changeRemoveCardinInventoryWhenOffer",
      "outputs": [],
      "stateMutability": "nonpayable",
      "type": "function"
    },
    {
      "inputs": [
        {
          "internalType": "address",
          "name": "from",
          "type": "address"
        },
        {
          "internalType": "uint8",
          "name": "cardNumberWanted",
          "type": "uint8"
        },
        {
          "internalType": "address",
          "name": "offerWallet",
          "type": "address"
        },
        {
          "internalType": "uint8",
          "name": "offerCardNumber",
          "type": "uint8"
        }
      ],
      "name": "confirmOfferExchange",
      "outputs": [],
      "stateMutability": "nonpayable",
      "type": "function"
    },
    {
      "inputs": [
        {
          "internalType": "string",
          "name": "offerId",
          "type": "string"
        },
        {
          "internalType": "uint8",
          "name": "cardNumber",
          "type": "uint8"
        },
        {
          "internalType": "uint8[]",
          "name": "wantedCardNumbers",
          "type": "uint8[]"
        }
      ],
      "name": "createOffer",
      "outputs": [],
      "stateMutability": "nonpayable",
      "type": "function"
    },
    {
      "inputs": [
        {
          "internalType": "string",
          "name": "offerId",
          "type": "string"
        },
        {
          "internalType": "address",
          "name": "user",
          "type": "address"
        },
        {
          "internalType": "uint8",
          "name": "cardNumber",
          "type": "uint8"
        },
        {
          "internalType": "uint8[]",
          "name": "wantedCardNumbers",
          "type": "uint8[]"
        }
      ],
      "name": "createOfferWithoUser",
      "outputs": [],
      "stateMutability": "nonpayable",
      "type": "function"
    },
    {
      "inputs": [],
      "name": "deleteAllOffers",
      "outputs": [],
      "stateMutability": "nonpayable",
      "type": "function"
    },
    {
      "inputs": [],
      "name": "gammaCardsContract",
      "outputs": [
        {
          "internalType": "contract IGammaCardsContract",
          "name": "",
          "type": "address"
        }
      ],
      "stateMutability": "view",
      "type": "function"
    },
    {
      "inputs": [],
      "name": "getMaxOffersAllowed",
      "outputs": [
        {
          "internalType": "uint256",
          "name": "",
          "type": "uint256"
        }
      ],
      "stateMutability": "view",
      "type": "function"
    },
    {
      "inputs": [],
      "name": "getMaxOffersByUserAllowed",
      "outputs": [
        {
          "internalType": "uint256",
          "name": "",
          "type": "uint256"
        }
      ],
      "stateMutability": "view",
      "type": "function"
    },
    {
      "inputs": [
        {
          "internalType": "uint256",
          "name": "index",
          "type": "uint256"
        }
      ],
      "name": "getOfferByIndex",
      "outputs": [
        {
          "components": [
            {
              "internalType": "string",
              "name": "offerId",
              "type": "string"
            },
            {
              "internalType": "uint8",
              "name": "cardNumber",
              "type": "uint8"
            },
            {
              "internalType": "uint8[]",
              "name": "wantedCardNumbers",
              "type": "uint8[]"
            },
            {
              "internalType": "address",
              "name": "owner",
              "type": "address"
            },
            {
              "internalType": "uint256",
              "name": "timestamp",
              "type": "uint256"
            }
          ],
          "internalType": "struct NofGammaOffersV4.Offer",
          "name": "",
          "type": "tuple"
        }
      ],
      "stateMutability": "view",
      "type": "function"
    },
    {
      "inputs": [
        {
          "internalType": "string",
          "name": "offerId",
          "type": "string"
        }
      ],
      "name": "getOfferByOfferId",
      "outputs": [
        {
          "components": [
            {
              "internalType": "string",
              "name": "offerId",
              "type": "string"
            },
            {
              "internalType": "uint8",
              "name": "cardNumber",
              "type": "uint8"
            },
            {
              "internalType": "uint8[]",
              "name": "wantedCardNumbers",
              "type": "uint8[]"
            },
            {
              "internalType": "address",
              "name": "owner",
              "type": "address"
            },
            {
              "internalType": "uint256",
              "name": "timestamp",
              "type": "uint256"
            }
          ],
          "internalType": "struct NofGammaOffersV4.Offer",
          "name": "",
          "type": "tuple"
        }
      ],
      "stateMutability": "view",
      "type": "function"
    },
    {
      "inputs": [
        {
          "internalType": "address",
          "name": "user",
          "type": "address"
        },
        {
          "internalType": "uint8",
          "name": "cardNumber",
          "type": "uint8"
        }
      ],
      "name": "getOfferByUserAndCardNumber",
      "outputs": [
        {
          "components": [
            {
              "internalType": "string",
              "name": "offerId",
              "type": "string"
            },
            {
              "internalType": "uint8",
              "name": "cardNumber",
              "type": "uint8"
            },
            {
              "internalType": "uint8[]",
              "name": "wantedCardNumbers",
              "type": "uint8[]"
            },
            {
              "internalType": "address",
              "name": "owner",
              "type": "address"
            },
            {
              "internalType": "uint256",
              "name": "timestamp",
              "type": "uint256"
            }
          ],
          "internalType": "struct NofGammaOffersV4.Offer",
          "name": "",
          "type": "tuple"
        }
      ],
      "stateMutability": "view",
      "type": "function"
    },
    {
      "inputs": [],
      "name": "getOffers",
      "outputs": [
        {
          "components": [
            {
              "internalType": "string",
              "name": "offerId",
              "type": "string"
            },
            {
              "internalType": "uint8",
              "name": "cardNumber",
              "type": "uint8"
            },
            {
              "internalType": "uint8[]",
              "name": "wantedCardNumbers",
              "type": "uint8[]"
            },
            {
              "internalType": "address",
              "name": "owner",
              "type": "address"
            },
            {
              "internalType": "uint256",
              "name": "timestamp",
              "type": "uint256"
            }
          ],
          "internalType": "struct NofGammaOffersV4.Offer[]",
          "name": "",
          "type": "tuple[]"
        }
      ],
      "stateMutability": "view",
      "type": "function"
    },
    {
      "inputs": [
        {
          "internalType": "uint8",
          "name": "cardNumber",
          "type": "uint8"
        }
      ],
      "name": "getOffersByCardNumber",
      "outputs": [
        {
          "components": [
            {
              "internalType": "string",
              "name": "offerId",
              "type": "string"
            },
            {
              "internalType": "uint8",
              "name": "cardNumber",
              "type": "uint8"
            },
            {
              "internalType": "uint8[]",
              "name": "wantedCardNumbers",
              "type": "uint8[]"
            },
            {
              "internalType": "address",
              "name": "owner",
              "type": "address"
            },
            {
              "internalType": "uint256",
              "name": "timestamp",
              "type": "uint256"
            }
          ],
          "internalType": "struct NofGammaOffersV4.Offer[]",
          "name": "",
          "type": "tuple[]"
        }
      ],
      "stateMutability": "view",
      "type": "function"
    },
    {
      "inputs": [
        {
          "internalType": "uint8",
          "name": "cardNumber",
          "type": "uint8"
        }
      ],
      "name": "getOffersByCardNumberCounter",
      "outputs": [
        {
          "internalType": "uint256",
          "name": "",
          "type": "uint256"
        }
      ],
      "stateMutability": "view",
      "type": "function"
    },
    {
      "inputs": [
        {
          "internalType": "address",
          "name": "user",
          "type": "address"
        }
      ],
      "name": "getOffersByUser",
      "outputs": [
        {
          "components": [
            {
              "internalType": "string",
              "name": "offerId",
              "type": "string"
            },
            {
              "internalType": "uint8",
              "name": "cardNumber",
              "type": "uint8"
            },
            {
              "internalType": "uint8[]",
              "name": "wantedCardNumbers",
              "type": "uint8[]"
            },
            {
              "internalType": "address",
              "name": "owner",
              "type": "address"
            },
            {
              "internalType": "uint256",
              "name": "timestamp",
              "type": "uint256"
            }
          ],
          "internalType": "struct NofGammaOffersV4.Offer[]",
          "name": "",
          "type": "tuple[]"
        }
      ],
      "stateMutability": "view",
      "type": "function"
    },
    {
      "inputs": [
        {
          "internalType": "address",
          "name": "user",
          "type": "address"
        }
      ],
      "name": "getOffersByUserCounter",
      "outputs": [
        {
          "internalType": "uint256",
          "name": "",
          "type": "uint256"
        }
      ],
      "stateMutability": "view",
      "type": "function"
    },
    {
      "inputs": [],
      "name": "getOffersCounter",
      "outputs": [
        {
          "internalType": "uint256",
          "name": "",
          "type": "uint256"
        }
      ],
      "stateMutability": "view",
      "type": "function"
    },
    {
      "inputs": [
        {
          "internalType": "address",
          "name": "user",
          "type": "address"
        },
        {
          "internalType": "uint8",
          "name": "cardNumber",
          "type": "uint8"
        }
      ],
      "name": "hasOffer",
      "outputs": [
        {
          "internalType": "bool",
          "name": "",
          "type": "bool"
        }
      ],
      "stateMutability": "view",
      "type": "function"
    },
    {
      "inputs": [
        {
          "internalType": "uint256",
          "name": "",
          "type": "uint256"
        }
      ],
      "name": "offers",
      "outputs": [
        {
          "internalType": "string",
          "name": "offerId",
          "type": "string"
        },
        {
          "internalType": "uint8",
          "name": "cardNumber",
          "type": "uint8"
        },
        {
          "internalType": "address",
          "name": "owner",
          "type": "address"
        },
        {
          "internalType": "uint256",
          "name": "timestamp",
          "type": "uint256"
        }
      ],
      "stateMutability": "view",
      "type": "function"
    },
    {
      "inputs": [
        {
          "internalType": "uint8",
          "name": "",
          "type": "uint8"
        }
      ],
      "name": "offersByCardNumberCounter",
      "outputs": [
        {
          "internalType": "uint256",
          "name": "",
          "type": "uint256"
        }
      ],
      "stateMutability": "view",
      "type": "function"
    },
    {
      "inputs": [
        {
          "internalType": "address",
          "name": "",
          "type": "address"
        }
      ],
      "name": "offersByUserCounter",
      "outputs": [
        {
          "internalType": "uint256",
          "name": "",
          "type": "uint256"
        }
      ],
      "stateMutability": "view",
      "type": "function"
    },
    {
      "inputs": [],
      "name": "offersTotalCounter",
      "outputs": [
        {
          "internalType": "uint256",
          "name": "",
          "type": "uint256"
        }
      ],
      "stateMutability": "view",
      "type": "function"
    },
    {
      "inputs": [],
      "name": "owner",
      "outputs": [
        {
          "internalType": "address",
          "name": "",
          "type": "address"
        }
      ],
      "stateMutability": "view",
      "type": "function"
    },
    {
      "inputs": [
        {
          "internalType": "address",
          "name": "",
          "type": "address"
        }
      ],
      "name": "owners",
      "outputs": [
        {
          "internalType": "bool",
          "name": "",
          "type": "bool"
        }
      ],
      "stateMutability": "view",
      "type": "function"
    },
    {
      "inputs": [
        {
          "internalType": "uint8",
          "name": "cardNumber",
          "type": "uint8"
        }
      ],
      "name": "removeOfferByCardNumber",
      "outputs": [
        {
          "internalType": "bool",
          "name": "",
          "type": "bool"
        }
      ],
      "stateMutability": "nonpayable",
      "type": "function"
    },
    {
      "inputs": [
        {
          "internalType": "address",
          "name": "user",
          "type": "address"
        },
        {
          "internalType": "uint8",
          "name": "cardNumber",
          "type": "uint8"
        }
      ],
      "name": "removeOfferByUserAndCardNumber",
      "outputs": [
        {
          "internalType": "bool",
          "name": "",
          "type": "bool"
        }
      ],
      "stateMutability": "nonpayable",
      "type": "function"
    },
    {
      "inputs": [
        {
          "internalType": "address",
          "name": "user",
          "type": "address"
        }
      ],
      "name": "removeOffersByUser",
      "outputs": [
        {
          "internalType": "bool",
          "name": "",
          "type": "bool"
        }
      ],
      "stateMutability": "nonpayable",
      "type": "function"
    },
    {
      "inputs": [
        {
          "internalType": "address",
          "name": "_ownerToRemove",
          "type": "address"
        }
      ],
      "name": "removeOwner",
      "outputs": [],
      "stateMutability": "nonpayable",
      "type": "function"
    },
    {
      "inputs": [],
      "name": "renounceOwnership",
      "outputs": [],
      "stateMutability": "nonpayable",
      "type": "function"
    },
    {
      "inputs": [
        {
          "internalType": "address",
          "name": "_gammaCardsContract",
          "type": "address"
        }
      ],
      "name": "setGammaCardsContract",
      "outputs": [],
      "stateMutability": "nonpayable",
      "type": "function"
    },
    {
      "inputs": [
        {
          "internalType": "uint256",
          "name": "_maxCardNumbersAllowed",
          "type": "uint256"
        }
      ],
      "name": "setMaxCardNumbersAllowed",
      "outputs": [],
      "stateMutability": "nonpayable",
      "type": "function"
    },
    {
      "inputs": [
        {
          "internalType": "uint256",
          "name": "_maxOffersAllowed",
          "type": "uint256"
        }
      ],
      "name": "setMaxOffersAllowed",
      "outputs": [],
      "stateMutability": "nonpayable",
      "type": "function"
    },
    {
      "inputs": [
        {
          "internalType": "uint256",
          "name": "_maxOffersByUserAllowed",
          "type": "uint256"
        }
      ],
      "name": "setMaxOffersByUserAllowed",
      "outputs": [],
      "stateMutability": "nonpayable",
      "type": "function"
    },
    {
      "inputs": [
        {
          "internalType": "address",
          "name": "newOwner",
          "type": "address"
        }
      ],
      "name": "transferOwnership",
      "outputs": [],
      "stateMutability": "nonpayable",
      "type": "function"
    }
  ],
  "bytecode": "0x608060405261138860035560056004819055607890556006805460ff191690553480156200002c57600080fd5b5060405162003d7338038062003d738339810160408190526200004f91620000f5565b6200005a33620000a5565b600180546001600160a01b0319166001600160a01b0392909216919091178155336000908152600260205260409020805460ff19908116909217905560068054909116905562000127565b600080546001600160a01b038381166001600160a01b0319831681178455604051919092169283917f8be0079c531659141344cd1fd0a4f28419497f9722a3daafe3b4186f6b6457e09190a35050565b6000602082840312156200010857600080fd5b81516001600160a01b03811681146200012057600080fd5b9392505050565b613c3c80620001376000396000f3fe608060405234801561001057600080fd5b50600436106102275760003560e01c80637594a6ed11610130578063ce7483d5116100b8578063e2b365961161007c578063e2b36596146104ee578063e359a0a114610501578063e5e5f73214610514578063f2fde38b14610527578063fc9e80fc1461053a57600080fd5b8063ce7483d51461047d578063cf86f8e5146104a0578063d250f03a146104a8578063d827a8f4146104bb578063e02f9723146104db57600080fd5b806390222aa1116100ff57806390222aa1146104275780639618b3331461042f5780639f91506914610442578063ba79b77b14610462578063c08029e71461046a57600080fd5b80637594a6ed146103ac5780638400a189146103cc5780638a72ea6a146103df5780638da5cb5b1461040257600080fd5b80633e293e16116101b35780635a919aeb116101825780635a919aeb146103695780635bbfbfd614610372578063619980dc146103855780637065cb4814610391578063715018a6146103a457600080fd5b80633e293e161461031b5780633ee992ee1461032e5780634c7a7ad31461034357806358e57ebb1461035657600080fd5b806329d3f60b116101fa57806329d3f60b146102ad5780632edb5fcf146102da578063322fba27146102ed5780633808dfe7146102f55780633a0270731461030857600080fd5b8063022914a71461022c5780630cdb311714610264578063173825d91461028557806317a1fed91461029a575b600080fd5b61024f61023a3660046132b5565b60026020526000908152604090205460ff1681565b60405190151581526020015b60405180910390f35b6102776102723660046132b5565b61054d565b60405190815260200161025b565b6102986102933660046132b5565b61059a565b005b6102986102a836600461341f565b610717565b61024f6102bb3660046132b5565b6001600160a01b03166000908152600a60205260409020546004541190565b61024f6102e83660046134a4565b610758565b610298610817565b6102986103033660046134d7565b6109c5565b61024f6103163660046134f0565b6109f9565b61029861032936600461350b565b610a07565b610336610a18565b60405161025b9190613671565b6102986103513660046132b5565b610bac565b6102986103643660046136e1565b610c4f565b610277600c5481565b61024f6103803660046134a4565b610c91565b600c546003541161024f565b61029861039f3660046132b5565b610cd3565b610298610de5565b6102776103ba3660046132b5565b600a6020526000908152604090205481565b6103366103da3660046134f0565b610df9565b6103f26103ed3660046134d7565b610f9d565b60405161025b94939291906136fe565b6000546001600160a01b03165b6040516001600160a01b03909116815260200161025b565b600354610277565b61033661043d3660046132b5565b611075565b6104556104503660046134a4565b611237565b60405161025b9190613739565b600454610277565b61029861047836600461374c565b61146b565b61027761048b3660046134f0565b60ff166000908152600b602052604090205490565b600c54610277565b60015461040f906001600160a01b031681565b6102776104c93660046134f0565b600b6020526000908152604090205481565b6102986104e93660046134d7565b6116db565b6104556104fc3660046137a0565b61170f565b61045561050f3660046134d7565b611918565b6102986105223660046134d7565b611ad3565b6102986105353660046132b5565b611b07565b61024f6105483660046132b5565b611b80565b60006001600160a01b03821661057e5760405162461bcd60e51b8152600401610575906137dd565b60405180910390fd5b506001600160a01b03166000908152600a602052604090205490565b3360009081526002602052604090205460ff166105c95760405162461bcd60e51b815260040161057590613807565b6001600160a01b0381166105ef5760405162461bcd60e51b8152600401610575906137dd565b336001600160a01b038216036106575760405162461bcd60e51b815260206004820152602760248201527f596f752063616e6e6f742072656d6f766520796f757273656c6620617320616e6044820152661037bbb732b91760c91b6064820152608401610575565b6001600160a01b03811660009081526002602052604090205460ff166106bf5760405162461bcd60e51b815260206004820152601860248201527f41646472657373206973206e6f7420616e206f776e65722e00000000000000006044820152606401610575565b6001600160a01b038116600081815260026020908152604091829020805460ff1916905590519182527f58619076adf5bb0943d100ef88d52d7c3fd691b19d3a9071b555b651fbf418da91015b60405180910390a150565b3360009081526002602052604090205460ff166107465760405162461bcd60e51b815260040161057590613807565b61075284848484611e13565b50505050565b60006001600160a01b0383166107805760405162461bcd60e51b8152600401610575906137dd565b60005b6001600160a01b0384166000908152600a602052604090205481101561080b576001600160a01b0384166000908152600860205260409020805460ff85169190839081106107d3576107d361384a565b600091825260209091206001600590920201015460ff16036107f9576001915050610811565b8061080381613876565b915050610783565b50600090505b92915050565b3360009081526002602052604090205460ff166108465760405162461bcd60e51b815260040161057590613807565b60005b60075481101561098657600860006007838154811061086a5761086a61384a565b60009182526020808320600360059093020191909101546001600160a01b0316835282019290925260400181206108a09161308a565b6000600a6000600784815481106108b9576108b961384a565b60009182526020808320600360059093020191909101546001600160a01b03168352820192909252604001812091909155600780546009929190849081106109035761090361384a565b600091825260208083206001600590930201919091015460ff16835282019290925260400181206109339161308a565b6000600b60006007848154811061094c5761094c61384a565b600091825260208083206001600590930201919091015460ff1683528201929092526040019020558061097e81613876565b915050610849565b506000600c81905561099a9060079061308a565b6040517f47e81efc038e27bb296dec5d44262943d2c2bbec28f461787a9cc53885694cb090600090a1565b3360009081526002602052604090205460ff166109f45760405162461bcd60e51b815260040161057590613807565b600455565b60006108113383600061251d565b610a1383338484611e13565b505050565b60606007805480602002602001604051908101604052809291908181526020016000905b82821015610ba357838290600052602060002090600502016040518060a0016040529081600082018054610a6f9061388f565b80601f0160208091040260200160405190810160405280929190818152602001828054610a9b9061388f565b8015610ae85780601f10610abd57610100808354040283529160200191610ae8565b820191906000526020600020905b815481529060010190602001808311610acb57829003601f168201915b5050509183525050600182015460ff166020808301919091526002830180546040805182850281018501825282815294019392830182828015610b6857602002820191906000526020600020906000905b825461010083900a900460ff16815260206001928301818104948501949093039092029101808411610b395790505b505050918352505060038201546001600160a01b03166020808301919091526004909201546040909101529082526001929092019101610a3c565b50505050905090565b3360009081526002602052604090205460ff16610bdb5760405162461bcd60e51b815260040161057590613807565b6001600160a01b038116610c015760405162461bcd60e51b8152600401610575906137dd565b600180546001600160a01b0319166001600160a01b0383169081179091556040519081527f45c9eba39b5ae3e7a6650b0a57bcb8e5d135936d56d111983dbc5860ae6760fa9060200161070c565b3360009081526002602052604090205460ff16610c7e5760405162461bcd60e51b815260040161057590613807565b6006805460ff1916911515919091179055565b3360009081526002602052604081205460ff16610cc05760405162461bcd60e51b815260040161057590613807565b610ccc8383600061251d565b9392505050565b3360009081526002602052604090205460ff16610d025760405162461bcd60e51b815260040161057590613807565b6001600160a01b038116610d285760405162461bcd60e51b8152600401610575906137dd565b6001600160a01b03811660009081526002602052604090205460ff1615610d915760405162461bcd60e51b815260206004820152601c60248201527f4164647265737320697320616c726561647920616e206f776e65722e000000006044820152606401610575565b6001600160a01b038116600081815260026020908152604091829020805460ff1916600117905590519182527f6e4e2a7c0e1576d48aeabd633d094f622d4f046286fec8b9045dd7f5c9fb087d910161070c565b610ded6127c0565b610df7600061281a565b565b60ff81166000908152600960209081526040808320805482518185028101850190935280835260609492939192909184015b82821015610f9257838290600052602060002090600502016040518060a0016040529081600082018054610e5e9061388f565b80601f0160208091040260200160405190810160405280929190818152602001828054610e8a9061388f565b8015610ed75780601f10610eac57610100808354040283529160200191610ed7565b820191906000526020600020905b815481529060010190602001808311610eba57829003601f168201915b5050509183525050600182015460ff166020808301919091526002830180546040805182850281018501825282815294019392830182828015610f5757602002820191906000526020600020906000905b825461010083900a900460ff16815260206001928301818104948501949093039092029101808411610f285790505b505050918352505060038201546001600160a01b03166020808301919091526004909201546040909101529082526001929092019101610e2b565b505050509050919050565b60078181548110610fad57600080fd5b9060005260206000209060050201600091509050806000018054610fd09061388f565b80601f0160208091040260200160405190810160405280929190818152602001828054610ffc9061388f565b80156110495780601f1061101e57610100808354040283529160200191611049565b820191906000526020600020905b81548152906001019060200180831161102c57829003601f168201915b5050505060018301546003840154600490940154929360ff909116926001600160a01b03909116915084565b60606001600160a01b03821661109d5760405162461bcd60e51b8152600401610575906137dd565b6001600160a01b038216600090815260086020908152604080832080548251818502810185019093528083529193909284015b82821015610f9257838290600052602060002090600502016040518060a00160405290816000820180546111039061388f565b80601f016020809104026020016040519081016040528092919081815260200182805461112f9061388f565b801561117c5780601f106111515761010080835404028352916020019161117c565b820191906000526020600020905b81548152906001019060200180831161115f57829003601f168201915b5050509183525050600182015460ff1660208083019190915260028301805460408051828502810185018252828152940193928301828280156111fc57602002820191906000526020600020906000905b825461010083900a900460ff168152602060019283018181049485019490930390920291018084116111cd5790505b505050918352505060038201546001600160a01b031660208083019190915260049092015460409091015290825260019290920191016110d0565b61123f6130ab565b6001600160a01b0383166112655760405162461bcd60e51b8152600401610575906137dd565b60005b6001600160a01b0384166000908152600a6020526040902054811015611462576001600160a01b0384166000908152600860205260409020805460ff85169190839081106112b8576112b861384a565b600091825260209091206001600590920201015460ff1603611450576001600160a01b03841660009081526008602052604090208054829081106112fe576112fe61384a565b90600052602060002090600502016040518060a00160405290816000820180546113279061388f565b80601f01602080910402602001604051908101604052809291908181526020018280546113539061388f565b80156113a05780601f10611375576101008083540402835291602001916113a0565b820191906000526020600020905b81548152906001019060200180831161138357829003601f168201915b5050509183525050600182015460ff16602080830191909152600283018054604080518285028101850182528281529401939283018282801561142057602002820191906000526020600020906000905b825461010083900a900460ff168152602060019283018181049485019490930390920291018084116113f15790505b505050918352505060038201546001600160a01b0316602082015260049091015460409091015291506108119050565b8061145a81613876565b915050611268565b50610ccc61286a565b60015460405163568b427d60e11b81526001600160a01b03868116600483015260ff80871660248401528582166044840152841660648301529091169063ad1684fa90608401600060405180830381600087803b1580156114cb57600080fd5b505af11580156114df573d6000803e3d6000fd5b505060015460405163117ece1960e31b81526001600160a01b039091169250638bf670c8915061151590879085906004016138c9565b6020604051808303816000875af1158015611534573d6000803e3d6000fd5b505050506040513d601f19601f8201168201806040525081019061155891906138e5565b6115a45760405162461bcd60e51b815260206004820152601f60248201527f45786368616e6765206572726f7220776974682077616c6c65742066726f6d006044820152606401610575565b60015460405163117ece1960e31b81526001600160a01b0390911690638bf670c8906115d690859087906004016138c9565b6020604051808303816000875af11580156115f5573d6000803e3d6000fd5b505050506040513d601f19601f8201168201806040525081019061161991906138e5565b6116655760405162461bcd60e51b815260206004820152601d60248201527f45786368616e6765206572726f7220776974682077616c6c657420746f0000006044820152606401610575565b60006116738383600161251d565b9050806116d45760405162461bcd60e51b815260206004820152602960248201527f4572726f722064656c6574696e67206f66666572206166746572207472616e7360448201526866657220636172647360b81b6064820152608401610575565b5050505050565b3360009081526002602052604090205460ff1661170a5760405162461bcd60e51b815260040161057590613807565b600555565b6117176130ab565b60005b60075481101561190f57826040516020016117359190613902565b604051602081830303815290604052805190602001206007828154811061175e5761175e61384a565b906000526020600020906005020160000160405160200161177f919061391e565b60405160208183030381529060405280519060200120036118fd57600781815481106117ad576117ad61384a565b90600052602060002090600502016040518060a00160405290816000820180546117d69061388f565b80601f01602080910402602001604051908101604052809291908181526020018280546118029061388f565b801561184f5780601f106118245761010080835404028352916020019161184f565b820191906000526020600020905b81548152906001019060200180831161183257829003601f168201915b5050509183525050600182015460ff1660208083019190915260028301805460408051828502810185018252828152940193928301828280156118cf57602002820191906000526020600020906000905b825461010083900a900460ff168152602060019283018181049485019490930390920291018084116118a05790505b505050918352505060038201546001600160a01b031660208201526004909101546040909101529392505050565b8061190781613876565b91505061171a565b5061081161286a565b6119206130ab565b60075482106119715760405162461bcd60e51b815260206004820152601760248201527f4f6666657220496420646f6573206e6f742065786973740000000000000000006044820152606401610575565b600782815481106119845761198461384a565b90600052602060002090600502016040518060a00160405290816000820180546119ad9061388f565b80601f01602080910402602001604051908101604052809291908181526020018280546119d99061388f565b8015611a265780601f106119fb57610100808354040283529160200191611a26565b820191906000526020600020905b815481529060010190602001808311611a0957829003601f168201915b5050509183525050600182015460ff166020808301919091526002830180546040805182850281018501825282815294019392830182828015611aa657602002820191906000526020600020906000905b825461010083900a900460ff16815260206001928301818104948501949093039092029101808411611a775790505b505050918352505060038201546001600160a01b0316602082015260049091015460409091015292915050565b3360009081526002602052604090205460ff16611b025760405162461bcd60e51b815260040161057590613807565b600355565b611b0f6127c0565b6001600160a01b038116611b745760405162461bcd60e51b815260206004820152602660248201527f4f776e61626c653a206e6577206f776e657220697320746865207a65726f206160448201526564647265737360d01b6064820152608401610575565b611b7d8161281a565b50565b6001546000906001600160a01b03163314611bf75760405162461bcd60e51b815260206004820152603160248201527f4f6e6c792067616d6d6120636172647320636f6e74726163742063616e2063616044820152703636103a3434b990333ab731ba34b7b71760791b6064820152608401610575565b6001600160a01b038216611c1d5760405162461bcd60e51b8152600401610575906137dd565b6001600160a01b0382166000908152600860209081526040808320600a90925282205490915b81811015611d96576000838281548110611c5f57611c5f61384a565b90600052602060002090600502016000018054611c7b9061388f565b80601f0160208091040260200160405190810160405280929190818152602001828054611ca79061388f565b8015611cf45780601f10611cc957610100808354040283529160200191611cf4565b820191906000526020600020905b815481529060010190602001808311611cd757829003601f168201915b505050505090506000848381548110611d0f57611d0f61384a565b600091825260209091206001600590920201015460ff169050611d338782846128b3565b611d3c82612c24565b5060ff81166000908152600b60205260408120805460019290611d60908490613994565b925050819055506001600c6000828254611d7a9190613994565b9250508190555050508080611d8e90613876565b915050611c43565b506001600160a01b0384166000908152600860205260408120611db89161308a565b6001600160a01b0384166000818152600a602090815260408083209290925590519182527f65419c67e554142d50c59abd004485123ca498611a223f842e75dd96225ba4c8910160405180910390a16001925050505b919050565b6001546001600160a01b0316611e6b5760405162461bcd60e51b815260206004820152601b60248201527f47616d6d614361726473436f6e7472616374206e6f74207365742e00000000006044820152606401610575565b6000815111611ec75760405162461bcd60e51b815260206004820152602260248201527f77616e746564436172644e756d626572732063616e6e6f7420626520656d70746044820152613c9760f11b6064820152608401610575565b6004546001600160a01b0384166000908152600a602052604090205410611f455760405162461bcd60e51b815260206004820152602c60248201527f5573657220686173207265616368656420746865206d6178696d756d20616c6c60448201526b37bbb2b21037b33332b9399760a11b6064820152608401610575565b600354600c5410611faf5760405162461bcd60e51b815260206004820152602e60248201527f546f74616c206f66666572732068617665207265616368656420746865206d6160448201526d3c34b6bab69030b63637bbb2b21760911b6064820152608401610575565b60015460405163117ece1960e31b81526000916001600160a01b031690638bf670c890611fe290879087906004016138c9565b6020604051808303816000875af1158015612001573d6000803e3d6000fd5b505050506040513d601f19601f8201168201806040525081019061202591906138e5565b9050806120745760405162461bcd60e51b815260206004820152601c60248201527f596f7520646f6573206e6f742068617665207468617420636172642e000000006044820152606401610575565b60005b82518160ff16101561211d578360ff16838260ff168151811061209c5761209c61384a565b602002602001015160ff160361210b5760405162461bcd60e51b815260206004820152602e60248201527f54686520636172644e756d6265722063616e6e6f7420626520696e2077616e7460448201526d32b221b0b932273ab6b132b9399760911b6064820152608401610575565b80612115816139a7565b915050612077565b50600061212a8585611237565b60608101519091506001600160a01b0316156121a65760405162461bcd60e51b815260206004820152603560248201527f416e206f6666657220666f722074686973207573657220616e6420636172644e6044820152743ab6b132b91030b63932b0b23c9032bc34b9ba399760591b6064820152608401610575565b6001600160a01b0385166000908152600a602052604081208054600192906121cf9084906139c6565b909155505060ff84166000908152600b602052604081208054600192906121f79084906139c6565b925050819055506001600c600082825461221191906139c6565b90915550506040805160a08101825287815260ff861660208201529081018490526001600160a01b038616606082015242608082015260078054600181018255600091909152815160059091027fa66cc928b5edb82af9bd49922954155ab7b0942694bea4ce44661d9a8736c6880190819061228d9082613a27565b5060208281015160018301805460ff191660ff909216919091179055604083015180516122c092600285019201906130e6565b5060608201516003820180546001600160a01b0319166001600160a01b03928316179055608090920151600490910155851660009081526008602052604090206007805461231090600190613994565b815481106123205761232061384a565b600091825260208083208454600181018655948452922060059182029092019202018061234d8382613ae7565b50600182810154908201805460ff191660ff9092169190911790556002808301805461237c928401919061318c565b5060038281015490820180546001600160a01b0319166001600160a01b0390921691909117905560049182015491015560ff84166000908152600960205260409020600780546123ce90600190613994565b815481106123de576123de61384a565b600091825260208083208454600181018655948452922060059182029092019202018061240b8382613ae7565b50600182810154908201805460ff191660ff9092169190911790556002808301805461243a928401919061318c565b5060038281015490820180546001600160a01b0319166001600160a01b0390921691909117905560049182015491015560065460ff16156124da57600154604051631c5568eb60e21b81526001600160a01b0390911690637155a3ac906124a790889088906004016138c9565b600060405180830381600087803b1580156124c157600080fd5b505af11580156124d5573d6000803e3d6000fd5b505050505b7fed750964f1f81f105e56dfd1121427e0898e7bc23d6c10e92d851a2d35e0cfc585858560405161250d93929190613bba565b60405180910390a1505050505050565b60006001600160a01b0384166125455760405162461bcd60e51b8152600401610575906137dd565b6001600160a01b0384166000908152600860209081526040808320600a9092528220549091805b828110156127b5578660ff1684828154811061258a5761258a61384a565b600091825260209091206001600590920201015460ff16036127a35760008482815481106125ba576125ba61384a565b906000526020600020906005020160000180546125d69061388f565b80601f01602080910402602001604051908101604052809291908181526020018280546126029061388f565b801561264f5780601f106126245761010080835404028352916020019161264f565b820191906000526020600020905b81548152906001019060200180831161263257829003601f168201915b50505050509050612661898983612ea1565b61266c8989836128b3565b61267581612c24565b506001600160a01b0389166000908152600a6020526040812080546001929061269f908490613994565b909155505060ff88166000908152600b602052604081208054600192906126c7908490613994565b925050819055506001600c60008282546126e19190613994565b90915550506006546001935060ff1680156126fa575086155b1561276457600154604051630aaf17c960e11b81526001600160a01b039091169063155e2f9290612731908c908c906004016138c9565b600060405180830381600087803b15801561274b57600080fd5b505af115801561275f573d6000803e3d6000fd5b505050505b7f7911e34642eae38762395a3dd0fa3308d0f8908b92fe36c41543d635ab7cb8f589896040516127959291906138c9565b60405180910390a1506127b5565b806127ad81613876565b91505061256c565b509695505050505050565b6000546001600160a01b03163314610df75760405162461bcd60e51b815260206004820181905260248201527f4f776e61626c653a2063616c6c6572206973206e6f7420746865206f776e65726044820152606401610575565b600080546001600160a01b038381166001600160a01b0319831681178455604051919092169283917f8be0079c531659141344cd1fd0a4f28419497f9722a3daafe3b4186f6b6457e09190a35050565b6128726130ab565b506040805160c081018252600060a0820181815282526020808301829052835182815290810184529282019290925260608101829052608081019190915290565b60ff82166000908152600960205260408120905b81548110156116d4576129858282815481106128e5576128e561384a565b906000526020600020906005020160000180546129019061388f565b80601f016020809104026020016040519081016040528092919081815260200182805461292d9061388f565b801561297a5780601f1061294f5761010080835404028352916020019161297a565b820191906000526020600020905b81548152906001019060200180831161295d57829003601f168201915b505050505084613031565b15612c1257846001600160a01b03168282815481106129a6576129a661384a565b60009182526020909120600360059092020101546001600160a01b031614612a365760405162461bcd60e51b815260206004820152603860248201527f5f72656d6f76654f6666657246726f6d436172644e756d6265724d617070696e60448201527f673a206f776e657220646f6573206e6f74206d617463682e00000000000000006064820152608401610575565b8360ff16828281548110612a4c57612a4c61384a565b600091825260209091206001600590920201015460ff1614612ad65760405162461bcd60e51b815260206004820152603d60248201527f5f72656d6f76654f6666657246726f6d436172644e756d6265724d617070696e60448201527f673a20636172644e756d62657220646f6573206e6f74206d617463682e0000006064820152608401610575565b8154612ae490600190613994565b811015612ba65781548290612afb90600190613994565b81548110612b0b57612b0b61384a565b9060005260206000209060050201828281548110612b2b57612b2b61384a565b6000918252602090912060059091020180612b468382613ae7565b50600182810154908201805460ff191660ff90921691909117905560028083018054612b75928401919061318c565b5060038281015490820180546001600160a01b0319166001600160a01b039092169190911790556004918201549101555b81805480612bb657612bb6613bf0565b60008281526020812060001990920191600583020190612bd682826131da565b60018201805460ff19169055612bf0600283016000613214565b506003810180546001600160a01b0319169055600060049091015590556116d4565b80612c1c81613876565b9150506128c7565b600080805b600754811015612e9a5760075481108015612cf55750612cf560078281548110612c5557612c5561384a565b90600052602060002090600502016000018054612c719061388f565b80601f0160208091040260200160405190810160405280929190818152602001828054612c9d9061388f565b8015612cea5780601f10612cbf57610100808354040283529160200191612cea565b820191906000526020600020905b815481529060010190602001808311612ccd57829003601f168201915b505050505085613031565b15612e885760078181548110612d0d57612d0d61384a565b60009182526020822060059091020190612d2782826131da565b60018201805460ff19169055612d41600283016000613214565b506003810180546001600160a01b0319169055600060049091015560078054612d6c90600190613994565b81548110612d7c57612d7c61384a565b906000526020600020906005020160078281548110612d9d57612d9d61384a565b6000918252602090912060059091020180612db88382613ae7565b50600182810154908201805460ff191660ff90921691909117905560028083018054612de7928401919061318c565b5060038281015490820180546001600160a01b0319166001600160a01b039092169190911790556004918201549101556007805480612e2857612e28613bf0565b60008281526020812060001990920191600583020190612e4882826131da565b60018201805460ff19169055612e62600283016000613214565b506003810180546001600160a01b03191690556000600490910155905560019150612e9a565b80612e9281613876565b915050612c29565b5092915050565b6001600160a01b0383166000908152600860205260408120905b81548110156116d457612ed98282815481106128e5576128e561384a565b1561301f57846001600160a01b0316828281548110612efa57612efa61384a565b60009182526020909120600360059092020101546001600160a01b031614612f7f5760405162461bcd60e51b815260206004820152603260248201527f5f72656d6f76654f6666657246726f6d557365724d617070696e673a206f776e60448201527132b9103237b2b9903737ba1036b0ba31b41760711b6064820152608401610575565b8360ff16828281548110612f9557612f9561384a565b600091825260209091206001600590920201015460ff1614612ad65760405162461bcd60e51b815260206004820152603760248201527f5f72656d6f76654f6666657246726f6d557365724d617070696e673a2063617260448201527f644e756d62657220646f6573206e6f74206d617463682e0000000000000000006064820152608401610575565b8061302981613876565b915050612ebb565b6000816040516020016130449190613902565b604051602081830303815290604052805190602001208360405160200161306b9190613902565b6040516020818303038152906040528051906020012014905092915050565b5080546000825560050290600052602060002090810190611b7d9190613239565b6040518060a0016040528060608152602001600060ff1681526020016060815260200160006001600160a01b03168152602001600081525090565b82805482825590600052602060002090601f0160209004810192821561317c5791602002820160005b8382111561314d57835183826101000a81548160ff021916908360ff160217905550926020019260010160208160000104928301926001030261310f565b801561317a5782816101000a81549060ff021916905560010160208160000104928301926001030261314d565b505b50613188929150613289565b5090565b82805482825590600052602060002090601f0160209004810192821561317c57600052602060002091601f016020900482015b8281111561317c5782548255916001019190600101906131bf565b5080546131e69061388f565b6000825580601f106131f6575050565b601f016020900490600052602060002090810190611b7d9190613289565b50805460008255601f016020900490600052602060002090810190611b7d9190613289565b8082111561318857600061324d82826131da565b60018201805460ff19169055613267600283016000613214565b506003810180546001600160a01b031916905560006004820155600501613239565b5b80821115613188576000815560010161328a565b80356001600160a01b0381168114611e0e57600080fd5b6000602082840312156132c757600080fd5b610ccc8261329e565b634e487b7160e01b600052604160045260246000fd5b604051601f8201601f1916810167ffffffffffffffff8111828210171561330f5761330f6132d0565b604052919050565b600082601f83011261332857600080fd5b813567ffffffffffffffff811115613342576133426132d0565b613355601f8201601f19166020016132e6565b81815284602083860101111561336a57600080fd5b816020850160208301376000918101602001919091529392505050565b803560ff81168114611e0e57600080fd5b600082601f8301126133a957600080fd5b8135602067ffffffffffffffff8211156133c5576133c56132d0565b8160051b6133d48282016132e6565b92835284810182019282810190878511156133ee57600080fd5b83870192505b848310156134145761340583613387565b825291830191908301906133f4565b979650505050505050565b6000806000806080858703121561343557600080fd5b843567ffffffffffffffff8082111561344d57600080fd5b61345988838901613317565b95506134676020880161329e565b945061347560408801613387565b9350606087013591508082111561348b57600080fd5b5061349887828801613398565b91505092959194509250565b600080604083850312156134b757600080fd5b6134c08361329e565b91506134ce60208401613387565b90509250929050565b6000602082840312156134e957600080fd5b5035919050565b60006020828403121561350257600080fd5b610ccc82613387565b60008060006060848603121561352057600080fd5b833567ffffffffffffffff8082111561353857600080fd5b61354487838801613317565b945061355260208701613387565b9350604086013591508082111561356857600080fd5b5061357586828701613398565b9150509250925092565b60005b8381101561359a578181015183820152602001613582565b50506000910152565b600081518084526135bb81602086016020860161357f565b601f01601f19169290920160200192915050565b600081518084526020808501945080840160005b8381101561360257815160ff16875295820195908201906001016135e3565b509495945050505050565b6000815160a0845261362260a08501826135a3565b905060ff60208401511660208501526040830151848203604086015261364882826135cf565b6060858101516001600160a01b0316908701526080948501519490950193909352509192915050565b6000602080830181845280855180835260408601915060408160051b870101925083870160005b828110156136c657603f198886030184526136b485835161360d565b94509285019290850190600101613698565b5092979650505050505050565b8015158114611b7d57600080fd5b6000602082840312156136f357600080fd5b8135610ccc816136d3565b60808152600061371160808301876135a3565b60ff959095166020830152506001600160a01b03929092166040830152606090910152919050565b602081526000610ccc602083018461360d565b6000806000806080858703121561376257600080fd5b61376b8561329e565b935061377960208601613387565b92506137876040860161329e565b915061379560608601613387565b905092959194509250565b6000602082840312156137b257600080fd5b813567ffffffffffffffff8111156137c957600080fd5b6137d584828501613317565b949350505050565b60208082526010908201526f24b73b30b634b21030b2323932b9b99760811b604082015260600190565b60208082526023908201527f4f6e6c79206f776e6572732063616e2063616c6c20746869732066756e63746960408201526237b71760e91b606082015260800190565b634e487b7160e01b600052603260045260246000fd5b634e487b7160e01b600052601160045260246000fd5b60006001820161388857613888613860565b5060010190565b600181811c908216806138a357607f821691505b6020821081036138c357634e487b7160e01b600052602260045260246000fd5b50919050565b6001600160a01b0392909216825260ff16602082015260400190565b6000602082840312156138f757600080fd5b8151610ccc816136d3565b6000825161391481846020870161357f565b9190910192915050565b600080835461392c8161388f565b60018281168015613944576001811461395957613988565b60ff1984168752821515830287019450613988565b8760005260208060002060005b8581101561397f5781548a820152908401908201613966565b50505082870194505b50929695505050505050565b8181038181111561081157610811613860565b600060ff821660ff81036139bd576139bd613860565b60010192915050565b8082018082111561081157610811613860565b601f821115610a1357600081815260208120601f850160051c81016020861015613a005750805b601f850160051c820191505b81811015613a1f57828155600101613a0c565b505050505050565b815167ffffffffffffffff811115613a4157613a416132d0565b613a5581613a4f845461388f565b846139d9565b602080601f831160018114613a8a5760008415613a725750858301515b600019600386901b1c1916600185901b178555613a1f565b600085815260208120601f198616915b82811015613ab957888601518255948401946001909101908401613a9a565b5085821015613ad75787850151600019600388901b60f8161c191681555b5050505050600190811b01905550565b818103613af2575050565b613afc825461388f565b67ffffffffffffffff811115613b1457613b146132d0565b613b2281613a4f845461388f565b6000601f821160018114613b565760008315613b3e5750848201545b600019600385901b1c1916600184901b1784556116d4565b600085815260209020601f19841690600086815260209020845b83811015613b905782860154825560019586019590910190602001613b70565b5085831015613ad75793015460001960f8600387901b161c19169092555050600190811b01905550565b6001600160a01b038416815260ff83166020820152606060408201819052600090613be7908301846135cf565b95945050505050565b634e487b7160e01b600052603160045260246000fdfea2646970667358221220296f382f921118b91accf89e7c13361bd044968f793d329c0082a2d401e5714e64736f6c63430008140033",
  "linkReferences": {},
  "deployedLinkReferences": {}
}