{
  "_format": "hh-sol-artifact-1",
  "contractName": "NofGammaOffersV4",
  "sourceName": "contracts/gamma/GammaOffers.v4.sol",
  "abi": [
    {
      "anonymous": false,
      "inputs": [],
      "name": "AllOffersRemoved",
      "type": "event"
    },
    {
      "anonymous": false,
      "inputs": [
        {
          "indexed": false,
          "internalType": "address",
          "name": "newGammaCardsContract",
          "type": "address"
        }
      ],
      "name": "NewGammaCardsContract",
      "type": "event"
    },
    {
      "anonymous": false,
      "inputs": [
        {
          "indexed": false,
          "internalType": "address",
          "name": "user",
          "type": "address"
        },
        {
          "indexed": false,
          "internalType": "uint8",
          "name": "cardNumber",
          "type": "uint8"
        },
        {
          "indexed": false,
          "internalType": "uint8[]",
          "name": "wantedCardNumbers",
          "type": "uint8[]"
        }
      ],
      "name": "OfferCreated",
      "type": "event"
    },
    {
      "anonymous": false,
      "inputs": [
        {
          "indexed": false,
          "internalType": "address",
          "name": "user",
          "type": "address"
        },
        {
          "indexed": false,
          "internalType": "uint8",
          "name": "cardNumber",
          "type": "uint8"
        }
      ],
      "name": "OfferRemoved",
      "type": "event"
    },
    {
      "anonymous": false,
      "inputs": [
        {
          "indexed": true,
          "internalType": "address",
          "name": "previousOwner",
          "type": "address"
        },
        {
          "indexed": true,
          "internalType": "address",
          "name": "newOwner",
          "type": "address"
        }
      ],
      "name": "OwnershipTransferred",
      "type": "event"
    },
    {
      "anonymous": false,
      "inputs": [
        {
          "indexed": false,
          "internalType": "address",
          "name": "user",
          "type": "address"
        }
      ],
      "name": "UserOffersRemoved",
      "type": "event"
    },
    {
      "inputs": [
        {
          "internalType": "address",
          "name": "_newOwner",
          "type": "address"
        }
      ],
      "name": "addOwner",
      "outputs": [],
      "stateMutability": "nonpayable",
      "type": "function"
    },
    {
      "inputs": [],
      "name": "canAnyUserPublishOffer",
      "outputs": [
        {
          "internalType": "bool",
          "name": "",
          "type": "bool"
        }
      ],
      "stateMutability": "view",
      "type": "function"
    },
    {
      "inputs": [
        {
          "internalType": "address",
          "name": "user",
          "type": "address"
        }
      ],
      "name": "canUserPublishOffer",
      "outputs": [
        {
          "internalType": "bool",
          "name": "",
          "type": "bool"
        }
      ],
      "stateMutability": "view",
      "type": "function"
    },
    {
      "inputs": [
        {
          "internalType": "bool",
          "name": "_value",
          "type": "bool"
        }
      ],
      "name": "changeRemoveCardinInventoryWhenOffer",
      "outputs": [],
      "stateMutability": "nonpayable",
      "type": "function"
    },
    {
      "inputs": [
        {
          "internalType": "address",
          "name": "from",
          "type": "address"
        },
        {
          "internalType": "uint8",
          "name": "cardNumberWanted",
          "type": "uint8"
        },
        {
          "internalType": "address",
          "name": "offerWallet",
          "type": "address"
        },
        {
          "internalType": "uint8",
          "name": "offerCardNumber",
          "type": "uint8"
        }
      ],
      "name": "confirmOfferExchange",
      "outputs": [],
      "stateMutability": "nonpayable",
      "type": "function"
    },
    {
      "inputs": [
        {
          "internalType": "string",
          "name": "offerId",
          "type": "string"
        },
        {
          "internalType": "uint8",
          "name": "cardNumber",
          "type": "uint8"
        },
        {
          "internalType": "uint8[]",
          "name": "wantedCardNumbers",
          "type": "uint8[]"
        }
      ],
      "name": "createOffer",
      "outputs": [],
      "stateMutability": "nonpayable",
      "type": "function"
    },
    {
      "inputs": [
        {
          "internalType": "string",
          "name": "offerId",
          "type": "string"
        },
        {
          "internalType": "address",
          "name": "user",
          "type": "address"
        },
        {
          "internalType": "uint8",
          "name": "cardNumber",
          "type": "uint8"
        },
        {
          "internalType": "uint8[]",
          "name": "wantedCardNumbers",
          "type": "uint8[]"
        }
      ],
      "name": "createOfferWithoUser",
      "outputs": [],
      "stateMutability": "nonpayable",
      "type": "function"
    },
    {
      "inputs": [],
      "name": "deleteAllOffers",
      "outputs": [],
      "stateMutability": "nonpayable",
      "type": "function"
    },
    {
      "inputs": [],
      "name": "gammaCardsContract",
      "outputs": [
        {
          "internalType": "contract IGammaCardsContract",
          "name": "",
          "type": "address"
        }
      ],
      "stateMutability": "view",
      "type": "function"
    },
    {
      "inputs": [],
      "name": "getMaxOffersAllowed",
      "outputs": [
        {
          "internalType": "uint256",
          "name": "",
          "type": "uint256"
        }
      ],
      "stateMutability": "view",
      "type": "function"
    },
    {
      "inputs": [],
      "name": "getMaxOffersByUserAllowed",
      "outputs": [
        {
          "internalType": "uint256",
          "name": "",
          "type": "uint256"
        }
      ],
      "stateMutability": "view",
      "type": "function"
    },
    {
      "inputs": [
        {
          "internalType": "uint256",
          "name": "index",
          "type": "uint256"
        }
      ],
      "name": "getOfferByIndex",
      "outputs": [
        {
          "components": [
            {
              "internalType": "string",
              "name": "offerId",
              "type": "string"
            },
            {
              "internalType": "uint8",
              "name": "cardNumber",
              "type": "uint8"
            },
            {
              "internalType": "uint8[]",
              "name": "wantedCardNumbers",
              "type": "uint8[]"
            },
            {
              "internalType": "address",
              "name": "owner",
              "type": "address"
            },
            {
              "internalType": "uint256",
              "name": "timestamp",
              "type": "uint256"
            }
          ],
          "internalType": "struct NofGammaOffersV4.Offer",
          "name": "",
          "type": "tuple"
        }
      ],
      "stateMutability": "view",
      "type": "function"
    },
    {
      "inputs": [
        {
          "internalType": "string",
          "name": "offerId",
          "type": "string"
        }
      ],
      "name": "getOfferByOfferId",
      "outputs": [
        {
          "components": [
            {
              "internalType": "string",
              "name": "offerId",
              "type": "string"
            },
            {
              "internalType": "uint8",
              "name": "cardNumber",
              "type": "uint8"
            },
            {
              "internalType": "uint8[]",
              "name": "wantedCardNumbers",
              "type": "uint8[]"
            },
            {
              "internalType": "address",
              "name": "owner",
              "type": "address"
            },
            {
              "internalType": "uint256",
              "name": "timestamp",
              "type": "uint256"
            }
          ],
          "internalType": "struct NofGammaOffersV4.Offer",
          "name": "",
          "type": "tuple"
        }
      ],
      "stateMutability": "view",
      "type": "function"
    },
    {
      "inputs": [
        {
          "internalType": "address",
          "name": "user",
          "type": "address"
        },
        {
          "internalType": "uint8",
          "name": "cardNumber",
          "type": "uint8"
        }
      ],
      "name": "getOfferByUserAndCardNumber",
      "outputs": [
        {
          "components": [
            {
              "internalType": "string",
              "name": "offerId",
              "type": "string"
            },
            {
              "internalType": "uint8",
              "name": "cardNumber",
              "type": "uint8"
            },
            {
              "internalType": "uint8[]",
              "name": "wantedCardNumbers",
              "type": "uint8[]"
            },
            {
              "internalType": "address",
              "name": "owner",
              "type": "address"
            },
            {
              "internalType": "uint256",
              "name": "timestamp",
              "type": "uint256"
            }
          ],
          "internalType": "struct NofGammaOffersV4.Offer",
          "name": "",
          "type": "tuple"
        }
      ],
      "stateMutability": "view",
      "type": "function"
    },
    {
      "inputs": [],
      "name": "getOffers",
      "outputs": [
        {
          "components": [
            {
              "internalType": "string",
              "name": "offerId",
              "type": "string"
            },
            {
              "internalType": "uint8",
              "name": "cardNumber",
              "type": "uint8"
            },
            {
              "internalType": "uint8[]",
              "name": "wantedCardNumbers",
              "type": "uint8[]"
            },
            {
              "internalType": "address",
              "name": "owner",
              "type": "address"
            },
            {
              "internalType": "uint256",
              "name": "timestamp",
              "type": "uint256"
            }
          ],
          "internalType": "struct NofGammaOffersV4.Offer[]",
          "name": "",
          "type": "tuple[]"
        }
      ],
      "stateMutability": "view",
      "type": "function"
    },
    {
      "inputs": [
        {
          "internalType": "uint8",
          "name": "cardNumber",
          "type": "uint8"
        }
      ],
      "name": "getOffersByCardNumber",
      "outputs": [
        {
          "components": [
            {
              "internalType": "string",
              "name": "offerId",
              "type": "string"
            },
            {
              "internalType": "uint8",
              "name": "cardNumber",
              "type": "uint8"
            },
            {
              "internalType": "uint8[]",
              "name": "wantedCardNumbers",
              "type": "uint8[]"
            },
            {
              "internalType": "address",
              "name": "owner",
              "type": "address"
            },
            {
              "internalType": "uint256",
              "name": "timestamp",
              "type": "uint256"
            }
          ],
          "internalType": "struct NofGammaOffersV4.Offer[]",
          "name": "",
          "type": "tuple[]"
        }
      ],
      "stateMutability": "view",
      "type": "function"
    },
    {
      "inputs": [
        {
          "internalType": "uint8",
          "name": "cardNumber",
          "type": "uint8"
        }
      ],
      "name": "getOffersByCardNumberCounter",
      "outputs": [
        {
          "internalType": "uint256",
          "name": "",
          "type": "uint256"
        }
      ],
      "stateMutability": "view",
      "type": "function"
    },
    {
      "inputs": [
        {
          "internalType": "address",
          "name": "user",
          "type": "address"
        }
      ],
      "name": "getOffersByUser",
      "outputs": [
        {
          "components": [
            {
              "internalType": "string",
              "name": "offerId",
              "type": "string"
            },
            {
              "internalType": "uint8",
              "name": "cardNumber",
              "type": "uint8"
            },
            {
              "internalType": "uint8[]",
              "name": "wantedCardNumbers",
              "type": "uint8[]"
            },
            {
              "internalType": "address",
              "name": "owner",
              "type": "address"
            },
            {
              "internalType": "uint256",
              "name": "timestamp",
              "type": "uint256"
            }
          ],
          "internalType": "struct NofGammaOffersV4.Offer[]",
          "name": "",
          "type": "tuple[]"
        }
      ],
      "stateMutability": "view",
      "type": "function"
    },
    {
      "inputs": [
        {
          "internalType": "address",
          "name": "user",
          "type": "address"
        }
      ],
      "name": "getOffersByUserCounter",
      "outputs": [
        {
          "internalType": "uint256",
          "name": "",
          "type": "uint256"
        }
      ],
      "stateMutability": "view",
      "type": "function"
    },
    {
      "inputs": [],
      "name": "getOffersCounter",
      "outputs": [
        {
          "internalType": "uint256",
          "name": "",
          "type": "uint256"
        }
      ],
      "stateMutability": "view",
      "type": "function"
    },
    {
      "inputs": [
        {
          "internalType": "address",
          "name": "user",
          "type": "address"
        },
        {
          "internalType": "uint8",
          "name": "cardNumber",
          "type": "uint8"
        }
      ],
      "name": "hasOffer",
      "outputs": [
        {
          "internalType": "bool",
          "name": "",
          "type": "bool"
        }
      ],
      "stateMutability": "view",
      "type": "function"
    },
    {
      "inputs": [
        {
          "internalType": "address",
          "name": "_cardsContract",
          "type": "address"
        }
      ],
      "name": "init",
      "outputs": [],
      "stateMutability": "nonpayable",
      "type": "function"
    },
    {
      "inputs": [
        {
          "internalType": "address",
          "name": "user",
          "type": "address"
        }
      ],
      "name": "isOwner",
      "outputs": [
        {
          "internalType": "bool",
          "name": "",
          "type": "bool"
        }
      ],
      "stateMutability": "view",
      "type": "function"
    },
    {
      "inputs": [
        {
          "internalType": "uint256",
          "name": "",
          "type": "uint256"
        }
      ],
      "name": "offers",
      "outputs": [
        {
          "internalType": "string",
          "name": "offerId",
          "type": "string"
        },
        {
          "internalType": "uint8",
          "name": "cardNumber",
          "type": "uint8"
        },
        {
          "internalType": "address",
          "name": "owner",
          "type": "address"
        },
        {
          "internalType": "uint256",
          "name": "timestamp",
          "type": "uint256"
        }
      ],
      "stateMutability": "view",
      "type": "function"
    },
    {
      "inputs": [
        {
          "internalType": "uint8",
          "name": "",
          "type": "uint8"
        }
      ],
      "name": "offersByCardNumberCounter",
      "outputs": [
        {
          "internalType": "uint256",
          "name": "",
          "type": "uint256"
        }
      ],
      "stateMutability": "view",
      "type": "function"
    },
    {
      "inputs": [
        {
          "internalType": "address",
          "name": "",
          "type": "address"
        }
      ],
      "name": "offersByUserCounter",
      "outputs": [
        {
          "internalType": "uint256",
          "name": "",
          "type": "uint256"
        }
      ],
      "stateMutability": "view",
      "type": "function"
    },
    {
      "inputs": [],
      "name": "offersTotalCounter",
      "outputs": [
        {
          "internalType": "uint256",
          "name": "",
          "type": "uint256"
        }
      ],
      "stateMutability": "view",
      "type": "function"
    },
    {
      "inputs": [],
      "name": "owner",
      "outputs": [
        {
          "internalType": "address",
          "name": "",
          "type": "address"
        }
      ],
      "stateMutability": "view",
      "type": "function"
    },
    {
      "inputs": [
        {
          "internalType": "uint8",
          "name": "cardNumber",
          "type": "uint8"
        }
      ],
      "name": "removeOfferByCardNumber",
      "outputs": [
        {
          "internalType": "bool",
          "name": "",
          "type": "bool"
        }
      ],
      "stateMutability": "nonpayable",
      "type": "function"
    },
    {
      "inputs": [
        {
          "internalType": "address",
          "name": "user",
          "type": "address"
        },
        {
          "internalType": "uint8",
          "name": "cardNumber",
          "type": "uint8"
        }
      ],
      "name": "removeOfferByUserAndCardNumber",
      "outputs": [
        {
          "internalType": "bool",
          "name": "",
          "type": "bool"
        }
      ],
      "stateMutability": "nonpayable",
      "type": "function"
    },
    {
      "inputs": [
        {
          "internalType": "address",
          "name": "user",
          "type": "address"
        }
      ],
      "name": "removeOffersByUser",
      "outputs": [
        {
          "internalType": "bool",
          "name": "",
          "type": "bool"
        }
      ],
      "stateMutability": "nonpayable",
      "type": "function"
    },
    {
      "inputs": [
        {
          "internalType": "address",
          "name": "_ownerToRemove",
          "type": "address"
        }
      ],
      "name": "removeOwner",
      "outputs": [],
      "stateMutability": "nonpayable",
      "type": "function"
    },
    {
      "inputs": [],
      "name": "renounceOwnership",
      "outputs": [],
      "stateMutability": "nonpayable",
      "type": "function"
    },
    {
      "inputs": [
        {
          "internalType": "address",
          "name": "_gammaCardsContract",
          "type": "address"
        }
      ],
      "name": "setGammaCardsContract",
      "outputs": [],
      "stateMutability": "nonpayable",
      "type": "function"
    },
    {
      "inputs": [
        {
          "internalType": "uint256",
          "name": "_maxCardNumbersAllowed",
          "type": "uint256"
        }
      ],
      "name": "setMaxCardNumbersAllowed",
      "outputs": [],
      "stateMutability": "nonpayable",
      "type": "function"
    },
    {
      "inputs": [
        {
          "internalType": "uint256",
          "name": "_maxOffersAllowed",
          "type": "uint256"
        }
      ],
      "name": "setMaxOffersAllowed",
      "outputs": [],
      "stateMutability": "nonpayable",
      "type": "function"
    },
    {
      "inputs": [
        {
          "internalType": "uint256",
          "name": "_maxOffersByUserAllowed",
          "type": "uint256"
        }
      ],
      "name": "setMaxOffersByUserAllowed",
      "outputs": [],
      "stateMutability": "nonpayable",
      "type": "function"
    },
    {
      "inputs": [
        {
          "internalType": "address",
          "name": "newOwner",
          "type": "address"
        }
      ],
      "name": "transferOwnership",
      "outputs": [],
      "stateMutability": "nonpayable",
      "type": "function"
    }
  ],
  "bytecode": "0x60806040526113886004556005805560786006556007805460ff191690553480156200002a57600080fd5b5062000036336200003c565b6200008c565b600080546001600160a01b038381166001600160a01b0319831681178455604051919092169283917f8be0079c531659141344cd1fd0a4f28419497f9722a3daafe3b4186f6b6457e09190a35050565b613c1f806200009c6000396000f3fe608060405234801561001057600080fd5b50600436106102325760003560e01c80637594a6ed11610130578063ce7483d5116100b8578063e2b365961161007c578063e2b3659614610515578063e359a0a114610528578063e5e5f7321461053b578063f2fde38b1461054e578063fc9e80fc1461056157600080fd5b8063ce7483d5146104a4578063cf86f8e5146104c7578063d250f03a146104cf578063d827a8f4146104e2578063e02f97231461050257600080fd5b806390222aa1116100ff57806390222aa11461044e5780639618b333146104565780639f91506914610469578063ba79b77b14610489578063c08029e71461049157600080fd5b80637594a6ed146103d35780638400a189146103f35780638a72ea6a146104065780638da5cb5b1461042957600080fd5b80633a027073116101be5780635a919aeb116101825780635a919aeb146103905780635bbfbfd614610399578063619980dc146103ac5780637065cb48146103b8578063715018a6146103cb57600080fd5b80633a0270731461032f5780633e293e16146103425780633ee992ee146103555780634c7a7ad31461036a57806358e57ebb1461037d57600080fd5b806329d3f60b1161020557806329d3f60b146102985780632edb5fcf146102d55780632f54bf6e146102e8578063322fba27146103145780633808dfe71461031c57600080fd5b80630cdb311714610237578063173825d91461025d57806317a1fed91461027257806319ab453c14610285575b600080fd5b61024a6102453660046132bf565b610574565b6040519081526020015b60405180910390f35b61027061026b3660046132bf565b6105c1565b005b610270610280366004613430565b610666565b6102706102933660046132bf565b6106a7565b6102c56102a63660046132bf565b6001600160a01b03166000908152600b60205260409020546005541190565b6040519015158152602001610254565b6102c56102e33660046134b5565b610711565b6102c56102f63660046132bf565b6001600160a01b031660009081526002602052604090205460ff1690565b6102706107d0565b61027061032a3660046134e8565b61097e565b6102c561033d366004613501565b6109b2565b61027061035036600461351c565b6109fa565b61035d610a0b565b6040516102549190613682565b6102706103783660046132bf565b610b9f565b61027061038b3660046136f2565b610c48565b61024a600d5481565b6102c56103a73660046134b5565b610c8a565b600d54600454116102c5565b6102706103c63660046132bf565b610d0a565b610270610d80565b61024a6103e13660046132bf565b600b6020526000908152604090205481565b61035d610401366004613501565b610d94565b6104196104143660046134e8565b610f38565b604051610254949392919061370f565b6000546001600160a01b03165b6040516001600160a01b039091168152602001610254565b60045461024a565b61035d6104643660046132bf565b611010565b61047c6104773660046134b5565b6111d2565b604051610254919061374a565b60055461024a565b61027061049f36600461375d565b6113e1565b61024a6104b2366004613501565b60ff166000908152600c602052604090205490565b600d5461024a565b600154610436906001600160a01b031681565b61024a6104f0366004613501565b600c6020526000908152604090205481565b6102706105103660046134e8565b61186e565b61047c6105233660046137b1565b6118a2565b61047c6105363660046134e8565b611aab565b6102706105493660046134e8565b611c66565b61027061055c3660046132bf565b611c9a565b6102c561056f3660046132bf565b611d13565b60006001600160a01b0382166105a55760405162461bcd60e51b815260040161059c906137e6565b60405180910390fd5b506001600160a01b03166000908152600b602052604090205490565b3360009081526002602052604090205460ff166105f05760405162461bcd60e51b815260040161059c90613810565b604051632dd92c6960e21b8152600260048201526001600160a01b038216602482015273__$2004922c2908b386ae4415e9a8cdeda8c7$__9063b764b1a4906044015b60006040518083038186803b15801561064b57600080fd5b505af415801561065f573d6000803e3d6000fd5b5050505050565b3360009081526002602052604090205460ff166106955760405162461bcd60e51b815260040161059c90613810565b6106a184848484611fa6565b50505050565b6106af612654565b6001600160a01b0381166106d55760405162461bcd60e51b815260040161059c906137e6565b600180546001600160a01b0319166001600160a01b0392909216919091178155336000908152600260205260409020805460ff19169091179055565b60006001600160a01b0383166107395760405162461bcd60e51b815260040161059c906137e6565b60005b6001600160a01b0384166000908152600b60205260409020548110156107c4576001600160a01b0384166000908152600960205260409020805460ff851691908390811061078c5761078c613836565b600091825260209091206001600590920201015460ff16036107b25760019150506107ca565b806107bc81613862565b91505061073c565b50600090505b92915050565b3360009081526002602052604090205460ff166107ff5760405162461bcd60e51b815260040161059c90613810565b60005b60085481101561093f57600960006008838154811061082357610823613836565b60009182526020808320600360059093020191909101546001600160a01b03168352820192909252604001812061085991613094565b6000600b60006008848154811061087257610872613836565b60009182526020808320600360059093020191909101546001600160a01b0316835282019290925260400181209190915560088054600a929190849081106108bc576108bc613836565b600091825260208083206001600590930201919091015460ff16835282019290925260400181206108ec91613094565b6000600c60006008848154811061090557610905613836565b600091825260208083206001600590930201919091015460ff1683528201929092526040019020558061093781613862565b915050610802565b506000600d81905561095390600890613094565b6040517f47e81efc038e27bb296dec5d44262943d2c2bbec28f461787a9cc53885694cb090600090a1565b3360009081526002602052604090205460ff166109ad5760405162461bcd60e51b815260040161059c90613810565b600555565b6000806109bf33846111d2565b60608101519091506001600160a01b031633146109df5750600092915050565b60006109f23385846000015160006126ae565b949350505050565b610a0683338484611fa6565b505050565b60606008805480602002602001604051908101604052809291908181526020016000905b82821015610b9657838290600052602060002090600502016040518060a0016040529081600082018054610a629061387b565b80601f0160208091040260200160405190810160405280929190818152602001828054610a8e9061387b565b8015610adb5780601f10610ab057610100808354040283529160200191610adb565b820191906000526020600020905b815481529060010190602001808311610abe57829003601f168201915b5050509183525050600182015460ff166020808301919091526002830180546040805182850281018501825282815294019392830182828015610b5b57602002820191906000526020600020906000905b825461010083900a900460ff16815260206001928301818104948501949093039092029101808411610b2c5790505b505050918352505060038201546001600160a01b03166020808301919091526004909201546040909101529082526001929092019101610a2f565b50505050905090565b3360009081526002602052604090205460ff16610bce5760405162461bcd60e51b815260040161059c90613810565b6001600160a01b038116610bf45760405162461bcd60e51b815260040161059c906137e6565b600180546001600160a01b0319166001600160a01b0383169081179091556040519081527f45c9eba39b5ae3e7a6650b0a57bcb8e5d135936d56d111983dbc5860ae6760fa9060200160405180910390a150565b3360009081526002602052604090205460ff16610c775760405162461bcd60e51b815260040161059c90613810565b6007805460ff1916911515919091179055565b3360009081526002602052604081205460ff16610cb95760405162461bcd60e51b815260040161059c90613810565b6000610cc584846111d2565b9050836001600160a01b031681606001516001600160a01b031614610cee5760009150506107ca565b6000610d018585846000015160006126ae565b95945050505050565b3360009081526002602052604090205460ff16610d395760405162461bcd60e51b815260040161059c90613810565b604051632d35e2b960e21b8152600260048201526001600160a01b038216602482015273__$2004922c2908b386ae4415e9a8cdeda8c7$__9063b4d78ae490604401610633565b610d88612654565b610d926000612824565b565b60ff81166000908152600a60209081526040808320805482518185028101850190935280835260609492939192909184015b82821015610f2d57838290600052602060002090600502016040518060a0016040529081600082018054610df99061387b565b80601f0160208091040260200160405190810160405280929190818152602001828054610e259061387b565b8015610e725780601f10610e4757610100808354040283529160200191610e72565b820191906000526020600020905b815481529060010190602001808311610e5557829003601f168201915b5050509183525050600182015460ff166020808301919091526002830180546040805182850281018501825282815294019392830182828015610ef257602002820191906000526020600020906000905b825461010083900a900460ff16815260206001928301818104948501949093039092029101808411610ec35790505b505050918352505060038201546001600160a01b03166020808301919091526004909201546040909101529082526001929092019101610dc6565b505050509050919050565b60088181548110610f4857600080fd5b9060005260206000209060050201600091509050806000018054610f6b9061387b565b80601f0160208091040260200160405190810160405280929190818152602001828054610f979061387b565b8015610fe45780601f10610fb957610100808354040283529160200191610fe4565b820191906000526020600020905b815481529060010190602001808311610fc757829003601f168201915b5050505060018301546003840154600490940154929360ff909116926001600160a01b03909116915084565b60606001600160a01b0382166110385760405162461bcd60e51b815260040161059c906137e6565b6001600160a01b038216600090815260096020908152604080832080548251818502810185019093528083529193909284015b82821015610f2d57838290600052602060002090600502016040518060a001604052908160008201805461109e9061387b565b80601f01602080910402602001604051908101604052809291908181526020018280546110ca9061387b565b80156111175780601f106110ec57610100808354040283529160200191611117565b820191906000526020600020905b8154815290600101906020018083116110fa57829003601f168201915b5050509183525050600182015460ff16602080830191909152600283018054604080518285028101850182528281529401939283018282801561119757602002820191906000526020600020906000905b825461010083900a900460ff168152602060019283018181049485019490930390920291018084116111685790505b505050918352505060038201546001600160a01b0316602080830191909152600490920154604090910152908252600192909201910161106b565b6111da6130b5565b6001600160a01b0383166112005760405162461bcd60e51b815260040161059c906137e6565b6001600160a01b0383166000908152600960209081526040808320600b90925282205490915b818110156113d8578460ff1683828154811061124457611244613836565b600091825260209091206001600590920201015460ff16036113c65782818154811061127257611272613836565b90600052602060002090600502016040518060a001604052908160008201805461129b9061387b565b80601f01602080910402602001604051908101604052809291908181526020018280546112c79061387b565b80156113145780601f106112e957610100808354040283529160200191611314565b820191906000526020600020905b8154815290600101906020018083116112f757829003601f168201915b5050509183525050600182015460ff16602080830191909152600283018054604080518285028101850182528281529401939283018282801561139457602002820191906000526020600020906000905b825461010083900a900460ff168152602060019283018181049485019490930390920291018084116113655790505b505050918352505060038201546001600160a01b0316602082015260049091015460409091015293506107ca92505050565b806113d081613862565b915050611226565b50610d01612874565b60006113ed83836111d2565b9050826001600160a01b031681606001516001600160a01b0316146114705760405162461bcd60e51b815260206004820152603360248201527f416e206f6666657220666f722074686973207573657220616e6420636172644e6044820152723ab6b132b9103237b713ba1032bc34b9ba399760691b606482015260840161059c565b604081015180516000036115455760015460405163117ece1960e31b81526001600160a01b0390911690638bf670c8906114b090879089906004016138b5565b6020604051808303816000875af11580156114cf573d6000803e3d6000fd5b505050506040513d601f19601f820116820180604052508101906114f391906138d1565b156115405760405162461bcd60e51b815260206004820152601f60248201527f546865207573657220616c726561647920686173207468617420636172642e00604482015260640161059c565b6115f7565b6000805b82518160ff161015611599578660ff16838260ff168151811061156e5761156e613836565b602002602001015160ff16036115875760019150611599565b80611591816138ee565b915050611549565b50806115f55760405162461bcd60e51b815260206004820152602560248201527f5468652063617264206973206e6f7420696e2077616e746564436172644e756d6044820152643132b9399760d91b606482015260840161059c565b505b600061160a8585856000015160016126ae565b90508061166b5760405162461bcd60e51b815260206004820152602960248201527f4572726f722064656c6574696e67206f66666572206166746572207472616e7360448201526866657220636172647360b81b606482015260840161059c565b60015460405163568b427d60e11b81526001600160a01b03898116600483015260ff808a1660248401528882166044840152871660648301529091169063ad1684fa90608401600060405180830381600087803b1580156116cb57600080fd5b505af11580156116df573d6000803e3d6000fd5b505060015460405163117ece1960e31b81526001600160a01b039091169250638bf670c89150611715908a9088906004016138b5565b6020604051808303816000875af1158015611734573d6000803e3d6000fd5b505050506040513d601f19601f8201168201806040525081019061175891906138d1565b6117a45760405162461bcd60e51b815260206004820152601f60248201527f45786368616e6765206572726f7220776974682077616c6c65742066726f6d00604482015260640161059c565b60015460405163117ece1960e31b81526001600160a01b0390911690638bf670c8906117d69088908a906004016138b5565b6020604051808303816000875af11580156117f5573d6000803e3d6000fd5b505050506040513d601f19601f8201168201806040525081019061181991906138d1565b6118655760405162461bcd60e51b815260206004820152601d60248201527f45786368616e6765206572726f7220776974682077616c6c657420746f000000604482015260640161059c565b50505050505050565b3360009081526002602052604090205460ff1661189d5760405162461bcd60e51b815260040161059c90613810565b600655565b6118aa6130b5565b60005b600854811015611aa257826040516020016118c8919061390d565b60405160208183030381529060405280519060200120600882815481106118f1576118f1613836565b90600052602060002090600502016000016040516020016119129190613929565b6040516020818303038152906040528051906020012003611a90576008818154811061194057611940613836565b90600052602060002090600502016040518060a00160405290816000820180546119699061387b565b80601f01602080910402602001604051908101604052809291908181526020018280546119959061387b565b80156119e25780601f106119b7576101008083540402835291602001916119e2565b820191906000526020600020905b8154815290600101906020018083116119c557829003601f168201915b5050509183525050600182015460ff166020808301919091526002830180546040805182850281018501825282815294019392830182828015611a6257602002820191906000526020600020906000905b825461010083900a900460ff16815260206001928301818104948501949093039092029101808411611a335790505b505050918352505060038201546001600160a01b031660208201526004909101546040909101529392505050565b80611a9a81613862565b9150506118ad565b506107ca612874565b611ab36130b5565b6008548210611b045760405162461bcd60e51b815260206004820152601760248201527f4f6666657220496420646f6573206e6f74206578697374000000000000000000604482015260640161059c565b60088281548110611b1757611b17613836565b90600052602060002090600502016040518060a0016040529081600082018054611b409061387b565b80601f0160208091040260200160405190810160405280929190818152602001828054611b6c9061387b565b8015611bb95780601f10611b8e57610100808354040283529160200191611bb9565b820191906000526020600020905b815481529060010190602001808311611b9c57829003601f168201915b5050509183525050600182015460ff166020808301919091526002830180546040805182850281018501825282815294019392830182828015611c3957602002820191906000526020600020906000905b825461010083900a900460ff16815260206001928301818104948501949093039092029101808411611c0a5790505b505050918352505060038201546001600160a01b0316602082015260049091015460409091015292915050565b3360009081526002602052604090205460ff16611c955760405162461bcd60e51b815260040161059c90613810565b600455565b611ca2612654565b6001600160a01b038116611d075760405162461bcd60e51b815260206004820152602660248201527f4f776e61626c653a206e6577206f776e657220697320746865207a65726f206160448201526564647265737360d01b606482015260840161059c565b611d1081612824565b50565b6001546000906001600160a01b03163314611d8a5760405162461bcd60e51b815260206004820152603160248201527f4f6e6c792067616d6d6120636172647320636f6e74726163742063616e2063616044820152703636103a3434b990333ab731ba34b7b71760791b606482015260840161059c565b6001600160a01b038216611db05760405162461bcd60e51b815260040161059c906137e6565b6001600160a01b0382166000908152600960209081526040808320600b90925282205490915b81811015611f29576000838281548110611df257611df2613836565b90600052602060002090600502016000018054611e0e9061387b565b80601f0160208091040260200160405190810160405280929190818152602001828054611e3a9061387b565b8015611e875780601f10611e5c57610100808354040283529160200191611e87565b820191906000526020600020905b815481529060010190602001808311611e6a57829003601f168201915b505050505090506000848381548110611ea257611ea2613836565b600091825260209091206001600590920201015460ff169050611ec68782846128bd565b611ecf82612c2e565b5060ff81166000908152600c60205260408120805460019290611ef390849061399f565b925050819055506001600d6000828254611f0d919061399f565b9250508190555050508080611f2190613862565b915050611dd6565b506001600160a01b0384166000908152600960205260408120611f4b91613094565b6001600160a01b0384166000818152600b602090815260408083209290925590519182527f65419c67e554142d50c59abd004485123ca498611a223f842e75dd96225ba4c8910160405180910390a16001925050505b919050565b6001546001600160a01b0316611ffe5760405162461bcd60e51b815260206004820152601b60248201527f47616d6d614361726473436f6e7472616374206e6f74207365742e0000000000604482015260640161059c565b6005546001600160a01b0384166000908152600b60205260409020541061207c5760405162461bcd60e51b815260206004820152602c60248201527f5573657220686173207265616368656420746865206d6178696d756d20616c6c60448201526b37bbb2b21037b33332b9399760a11b606482015260840161059c565b600454600d54106120e65760405162461bcd60e51b815260206004820152602e60248201527f546f74616c206f66666572732068617665207265616368656420746865206d6160448201526d3c34b6bab69030b63637bbb2b21760911b606482015260840161059c565b60015460405163117ece1960e31b81526000916001600160a01b031690638bf670c89061211990879087906004016138b5565b6020604051808303816000875af1158015612138573d6000803e3d6000fd5b505050506040513d601f19601f8201168201806040525081019061215c91906138d1565b9050806121ab5760405162461bcd60e51b815260206004820152601c60248201527f596f7520646f6573206e6f742068617665207468617420636172642e00000000604482015260640161059c565b60005b82518160ff161015612254578360ff16838260ff16815181106121d3576121d3613836565b602002602001015160ff16036122425760405162461bcd60e51b815260206004820152602e60248201527f54686520636172644e756d6265722063616e6e6f7420626520696e2077616e7460448201526d32b221b0b932273ab6b132b9399760911b606482015260840161059c565b8061224c816138ee565b9150506121ae565b50600061226185856111d2565b60608101519091506001600160a01b0316156122dd5760405162461bcd60e51b815260206004820152603560248201527f416e206f6666657220666f722074686973207573657220616e6420636172644e6044820152743ab6b132b91030b63932b0b23c9032bc34b9ba399760591b606482015260840161059c565b6001600160a01b0385166000908152600b602052604081208054600192906123069084906139b2565b909155505060ff84166000908152600c6020526040812080546001929061232e9084906139b2565b925050819055506001600d600082825461234891906139b2565b90915550506040805160a08101825287815260ff861660208201529081018490526001600160a01b038616606082015242608082015260088054600181018255600091909152815160059091027ff3f7a9fe364faab93b216da50a3214154f22a0a2b415b23a84c8169e8b636ee3019081906123c49082613a13565b5060208281015160018301805460ff191660ff909216919091179055604083015180516123f792600285019201906130f0565b5060608201516003820180546001600160a01b0319166001600160a01b0392831617905560809092015160049091015585166000908152600960205260409020600880546124479060019061399f565b8154811061245757612457613836565b60009182526020808320845460018101865594845292206005918202909201920201806124848382613ad3565b50600182810154908201805460ff191660ff909216919091179055600280830180546124b39284019190613196565b5060038281015490820180546001600160a01b0319166001600160a01b0390921691909117905560049182015491015560ff84166000908152600a60205260409020600880546125059060019061399f565b8154811061251557612515613836565b60009182526020808320845460018101865594845292206005918202909201920201806125428382613ad3565b50600182810154908201805460ff191660ff909216919091179055600280830180546125719284019190613196565b5060038281015490820180546001600160a01b0319166001600160a01b0390921691909117905560049182015491015560075460ff161561261157600154604051631c5568eb60e21b81526001600160a01b0390911690637155a3ac906125de90889088906004016138b5565b600060405180830381600087803b1580156125f857600080fd5b505af115801561260c573d6000803e3d6000fd5b505050505b7fed750964f1f81f105e56dfd1121427e0898e7bc23d6c10e92d851a2d35e0cfc585858560405161264493929190613ba6565b60405180910390a1505050505050565b6000546001600160a01b03163314610d925760405162461bcd60e51b815260206004820181905260248201527f4f776e61626c653a2063616c6c6572206973206e6f7420746865206f776e6572604482015260640161059c565b60006001600160a01b0385166126d65760405162461bcd60e51b815260040161059c906137e6565b6126e1858585612eab565b6126ec8585856128bd565b6126f583612c2e565b506001600160a01b0385166000908152600b6020526040812080546001929061271f90849061399f565b909155505060ff84166000908152600c6020526040812080546001929061274790849061399f565b925050819055506001600d6000828254612761919061399f565b909155505060075460ff168015612776575081155b156127e057600154604051630aaf17c960e11b81526001600160a01b039091169063155e2f92906127ad90889088906004016138b5565b600060405180830381600087803b1580156127c757600080fd5b505af11580156127db573d6000803e3d6000fd5b505050505b7f7911e34642eae38762395a3dd0fa3308d0f8908b92fe36c41543d635ab7cb8f585856040516128119291906138b5565b60405180910390a1506001949350505050565b600080546001600160a01b038381166001600160a01b0319831681178455604051919092169283917f8be0079c531659141344cd1fd0a4f28419497f9722a3daafe3b4186f6b6457e09190a35050565b61287c6130b5565b506040805160c081018252600060a0820181815282526020808301829052835182815290810184529282019290925260608101829052608081019190915290565b60ff82166000908152600a60205260408120905b815481101561065f5761298f8282815481106128ef576128ef613836565b9060005260206000209060050201600001805461290b9061387b565b80601f01602080910402602001604051908101604052809291908181526020018280546129379061387b565b80156129845780601f1061295957610100808354040283529160200191612984565b820191906000526020600020905b81548152906001019060200180831161296757829003601f168201915b50505050508461303b565b15612c1c57846001600160a01b03168282815481106129b0576129b0613836565b60009182526020909120600360059092020101546001600160a01b031614612a405760405162461bcd60e51b815260206004820152603860248201527f5f72656d6f76654f6666657246726f6d436172644e756d6265724d617070696e60448201527f673a206f776e657220646f6573206e6f74206d617463682e0000000000000000606482015260840161059c565b8360ff16828281548110612a5657612a56613836565b600091825260209091206001600590920201015460ff1614612ae05760405162461bcd60e51b815260206004820152603d60248201527f5f72656d6f76654f6666657246726f6d436172644e756d6265724d617070696e60448201527f673a20636172644e756d62657220646f6573206e6f74206d617463682e000000606482015260840161059c565b8154612aee9060019061399f565b811015612bb05781548290612b059060019061399f565b81548110612b1557612b15613836565b9060005260206000209060050201828281548110612b3557612b35613836565b6000918252602090912060059091020180612b508382613ad3565b50600182810154908201805460ff191660ff90921691909117905560028083018054612b7f9284019190613196565b5060038281015490820180546001600160a01b0319166001600160a01b039092169190911790556004918201549101555b81805480612bc057612bc0613bd3565b60008281526020812060001990920191600583020190612be082826131e4565b60018201805460ff19169055612bfa60028301600061321e565b506003810180546001600160a01b03191690556000600490910155905561065f565b80612c2681613862565b9150506128d1565b600080805b600854811015612ea45760085481108015612cff5750612cff60088281548110612c5f57612c5f613836565b90600052602060002090600502016000018054612c7b9061387b565b80601f0160208091040260200160405190810160405280929190818152602001828054612ca79061387b565b8015612cf45780601f10612cc957610100808354040283529160200191612cf4565b820191906000526020600020905b815481529060010190602001808311612cd757829003601f168201915b50505050508561303b565b15612e925760088181548110612d1757612d17613836565b60009182526020822060059091020190612d3182826131e4565b60018201805460ff19169055612d4b60028301600061321e565b506003810180546001600160a01b0319169055600060049091015560088054612d769060019061399f565b81548110612d8657612d86613836565b906000526020600020906005020160088281548110612da757612da7613836565b6000918252602090912060059091020180612dc28382613ad3565b50600182810154908201805460ff191660ff90921691909117905560028083018054612df19284019190613196565b5060038281015490820180546001600160a01b0319166001600160a01b039092169190911790556004918201549101556008805480612e3257612e32613bd3565b60008281526020812060001990920191600583020190612e5282826131e4565b60018201805460ff19169055612e6c60028301600061321e565b506003810180546001600160a01b03191690556000600490910155905560019150612ea4565b80612e9c81613862565b915050612c33565b5092915050565b6001600160a01b0383166000908152600960205260408120905b815481101561065f57612ee38282815481106128ef576128ef613836565b1561302957846001600160a01b0316828281548110612f0457612f04613836565b60009182526020909120600360059092020101546001600160a01b031614612f895760405162461bcd60e51b815260206004820152603260248201527f5f72656d6f76654f6666657246726f6d557365724d617070696e673a206f776e60448201527132b9103237b2b9903737ba1036b0ba31b41760711b606482015260840161059c565b8360ff16828281548110612f9f57612f9f613836565b600091825260209091206001600590920201015460ff1614612ae05760405162461bcd60e51b815260206004820152603760248201527f5f72656d6f76654f6666657246726f6d557365724d617070696e673a2063617260448201527f644e756d62657220646f6573206e6f74206d617463682e000000000000000000606482015260840161059c565b8061303381613862565b915050612ec5565b60008160405160200161304e919061390d565b6040516020818303038152906040528051906020012083604051602001613075919061390d565b6040516020818303038152906040528051906020012014905092915050565b5080546000825560050290600052602060002090810190611d109190613243565b6040518060a0016040528060608152602001600060ff1681526020016060815260200160006001600160a01b03168152602001600081525090565b82805482825590600052602060002090601f016020900481019282156131865791602002820160005b8382111561315757835183826101000a81548160ff021916908360ff1602179055509260200192600101602081600001049283019260010302613119565b80156131845782816101000a81549060ff0219169055600101602081600001049283019260010302613157565b505b50613192929150613293565b5090565b82805482825590600052602060002090601f0160209004810192821561318657600052602060002091601f016020900482015b828111156131865782548255916001019190600101906131c9565b5080546131f09061387b565b6000825580601f10613200575050565b601f016020900490600052602060002090810190611d109190613293565b50805460008255601f016020900490600052602060002090810190611d109190613293565b8082111561319257600061325782826131e4565b60018201805460ff1916905561327160028301600061321e565b506003810180546001600160a01b031916905560006004820155600501613243565b5b808211156131925760008155600101613294565b80356001600160a01b0381168114611fa157600080fd5b6000602082840312156132d157600080fd5b6132da826132a8565b9392505050565b634e487b7160e01b600052604160045260246000fd5b604051601f8201601f1916810167ffffffffffffffff81118282101715613320576133206132e1565b604052919050565b600082601f83011261333957600080fd5b813567ffffffffffffffff811115613353576133536132e1565b613366601f8201601f19166020016132f7565b81815284602083860101111561337b57600080fd5b816020850160208301376000918101602001919091529392505050565b803560ff81168114611fa157600080fd5b600082601f8301126133ba57600080fd5b8135602067ffffffffffffffff8211156133d6576133d66132e1565b8160051b6133e58282016132f7565b92835284810182019282810190878511156133ff57600080fd5b83870192505b848310156134255761341683613398565b82529183019190830190613405565b979650505050505050565b6000806000806080858703121561344657600080fd5b843567ffffffffffffffff8082111561345e57600080fd5b61346a88838901613328565b9550613478602088016132a8565b945061348660408801613398565b9350606087013591508082111561349c57600080fd5b506134a9878288016133a9565b91505092959194509250565b600080604083850312156134c857600080fd5b6134d1836132a8565b91506134df60208401613398565b90509250929050565b6000602082840312156134fa57600080fd5b5035919050565b60006020828403121561351357600080fd5b6132da82613398565b60008060006060848603121561353157600080fd5b833567ffffffffffffffff8082111561354957600080fd5b61355587838801613328565b945061356360208701613398565b9350604086013591508082111561357957600080fd5b50613586868287016133a9565b9150509250925092565b60005b838110156135ab578181015183820152602001613593565b50506000910152565b600081518084526135cc816020860160208601613590565b601f01601f19169290920160200192915050565b600081518084526020808501945080840160005b8381101561361357815160ff16875295820195908201906001016135f4565b509495945050505050565b6000815160a0845261363360a08501826135b4565b905060ff60208401511660208501526040830151848203604086015261365982826135e0565b6060858101516001600160a01b0316908701526080948501519490950193909352509192915050565b6000602080830181845280855180835260408601915060408160051b870101925083870160005b828110156136d757603f198886030184526136c585835161361e565b945092850192908501906001016136a9565b5092979650505050505050565b8015158114611d1057600080fd5b60006020828403121561370457600080fd5b81356132da816136e4565b60808152600061372260808301876135b4565b60ff959095166020830152506001600160a01b03929092166040830152606090910152919050565b6020815260006132da602083018461361e565b6000806000806080858703121561377357600080fd5b61377c856132a8565b935061378a60208601613398565b9250613798604086016132a8565b91506137a660608601613398565b905092959194509250565b6000602082840312156137c357600080fd5b813567ffffffffffffffff8111156137da57600080fd5b6109f284828501613328565b60208082526010908201526f24b73b30b634b21030b2323932b9b99760811b604082015260600190565b6020808252600c908201526b27b7363c9037bbb732b9399760a11b604082015260600190565b634e487b7160e01b600052603260045260246000fd5b634e487b7160e01b600052601160045260246000fd5b6000600182016138745761387461384c565b5060010190565b600181811c9082168061388f57607f821691505b6020821081036138af57634e487b7160e01b600052602260045260246000fd5b50919050565b6001600160a01b0392909216825260ff16602082015260400190565b6000602082840312156138e357600080fd5b81516132da816136e4565b600060ff821660ff81036139045761390461384c565b60010192915050565b6000825161391f818460208701613590565b9190910192915050565b60008083546139378161387b565b6001828116801561394f576001811461396457613993565b60ff1984168752821515830287019450613993565b8760005260208060002060005b8581101561398a5781548a820152908401908201613971565b50505082870194505b50929695505050505050565b818103818111156107ca576107ca61384c565b808201808211156107ca576107ca61384c565b601f821115610a0657600081815260208120601f850160051c810160208610156139ec5750805b601f850160051c820191505b81811015613a0b578281556001016139f8565b505050505050565b815167ffffffffffffffff811115613a2d57613a2d6132e1565b613a4181613a3b845461387b565b846139c5565b602080601f831160018114613a765760008415613a5e5750858301515b600019600386901b1c1916600185901b178555613a0b565b600085815260208120601f198616915b82811015613aa557888601518255948401946001909101908401613a86565b5085821015613ac35787850151600019600388901b60f8161c191681555b5050505050600190811b01905550565b818103613ade575050565b613ae8825461387b565b67ffffffffffffffff811115613b0057613b006132e1565b613b0e81613a3b845461387b565b6000601f821160018114613b425760008315613b2a5750848201545b600019600385901b1c1916600184901b17845561065f565b600085815260209020601f19841690600086815260209020845b83811015613b7c5782860154825560019586019590910190602001613b5c565b5085831015613ac35793015460001960f8600387901b161c19169092555050600190811b01905550565b6001600160a01b038416815260ff83166020820152606060408201819052600090610d01908301846135e0565b634e487b7160e01b600052603160045260246000fdfea264697066735822122092cd44bbd1c5e46ead7241ec5e135e7cba9ff72a72a707c2c7292b608df6d10964736f6c63430008140033",
  "linkReferences": {
    "contracts/gamma/libs/LibControlMgmt.sol": {
      "LibControlMgmt": [
        {
          "length": 20,
          "start": 1713
        },
        {
          "length": 20,
          "start": 3578
        }
      ]
    }
  },
  "deployedLinkReferences": {
    "contracts/gamma/libs/LibControlMgmt.sol": {
      "LibControlMgmt": [
        {
          "length": 20,
          "start": 1557
        },
        {
          "length": 20,
          "start": 3422
        }
      ]
    }
  }
}