{
  "_format": "hh-sol-artifact-1",
  "contractName": "NofGammaOffersV4",
  "sourceName": "contracts/gamma/GammaOffers.v4.sol",
  "abi": [
    {
      "inputs": [
        {
          "internalType": "address",
          "name": "_cardsContract",
          "type": "address"
        }
      ],
      "stateMutability": "nonpayable",
      "type": "constructor"
    },
    {
      "anonymous": false,
      "inputs": [],
      "name": "AllOffersRemoved",
      "type": "event"
    },
    {
      "anonymous": false,
      "inputs": [
        {
          "indexed": false,
          "internalType": "address",
          "name": "newGammaCardsContract",
          "type": "address"
        }
      ],
      "name": "NewGammaCardsContract",
      "type": "event"
    },
    {
      "anonymous": false,
      "inputs": [
        {
          "indexed": false,
          "internalType": "address",
          "name": "owner",
          "type": "address"
        }
      ],
      "name": "NewOwnerAdded",
      "type": "event"
    },
    {
      "anonymous": false,
      "inputs": [
        {
          "indexed": false,
          "internalType": "address",
          "name": "user",
          "type": "address"
        },
        {
          "indexed": false,
          "internalType": "uint8",
          "name": "cardNumber",
          "type": "uint8"
        },
        {
          "indexed": false,
          "internalType": "uint8[]",
          "name": "wantedCardNumbers",
          "type": "uint8[]"
        }
      ],
      "name": "OfferCreated",
      "type": "event"
    },
    {
      "anonymous": false,
      "inputs": [
        {
          "indexed": false,
          "internalType": "address",
          "name": "user",
          "type": "address"
        },
        {
          "indexed": false,
          "internalType": "uint8",
          "name": "cardNumber",
          "type": "uint8"
        }
      ],
      "name": "OfferRemoved",
      "type": "event"
    },
    {
      "anonymous": false,
      "inputs": [
        {
          "indexed": false,
          "internalType": "address",
          "name": "owner",
          "type": "address"
        }
      ],
      "name": "OwnerRemoved",
      "type": "event"
    },
    {
      "anonymous": false,
      "inputs": [
        {
          "indexed": true,
          "internalType": "address",
          "name": "previousOwner",
          "type": "address"
        },
        {
          "indexed": true,
          "internalType": "address",
          "name": "newOwner",
          "type": "address"
        }
      ],
      "name": "OwnershipTransferred",
      "type": "event"
    },
    {
      "anonymous": false,
      "inputs": [
        {
          "indexed": false,
          "internalType": "address",
          "name": "user",
          "type": "address"
        }
      ],
      "name": "UserOffersRemoved",
      "type": "event"
    },
    {
      "inputs": [
        {
          "internalType": "address",
          "name": "_newOwner",
          "type": "address"
        }
      ],
      "name": "addOwner",
      "outputs": [],
      "stateMutability": "nonpayable",
      "type": "function"
    },
    {
      "inputs": [],
      "name": "canAnyUserPublishOffer",
      "outputs": [
        {
          "internalType": "bool",
          "name": "",
          "type": "bool"
        }
      ],
      "stateMutability": "view",
      "type": "function"
    },
    {
      "inputs": [
        {
          "internalType": "address",
          "name": "user",
          "type": "address"
        }
      ],
      "name": "canUserPublishOffer",
      "outputs": [
        {
          "internalType": "bool",
          "name": "",
          "type": "bool"
        }
      ],
      "stateMutability": "view",
      "type": "function"
    },
    {
      "inputs": [
        {
          "internalType": "bool",
          "name": "_value",
          "type": "bool"
        }
      ],
      "name": "changeRemoveCardinInventoryWhenOffer",
      "outputs": [],
      "stateMutability": "nonpayable",
      "type": "function"
    },
    {
      "inputs": [
        {
          "internalType": "address",
          "name": "from",
          "type": "address"
        },
        {
          "internalType": "uint8",
          "name": "cardNumberWanted",
          "type": "uint8"
        },
        {
          "internalType": "address",
          "name": "offerWallet",
          "type": "address"
        },
        {
          "internalType": "uint8",
          "name": "offerCardNumber",
          "type": "uint8"
        }
      ],
      "name": "confirmOfferExchange",
      "outputs": [],
      "stateMutability": "nonpayable",
      "type": "function"
    },
    {
      "inputs": [
        {
          "internalType": "string",
          "name": "offerId",
          "type": "string"
        },
        {
          "internalType": "uint8",
          "name": "cardNumber",
          "type": "uint8"
        },
        {
          "internalType": "uint8[]",
          "name": "wantedCardNumbers",
          "type": "uint8[]"
        }
      ],
      "name": "createOffer",
      "outputs": [],
      "stateMutability": "nonpayable",
      "type": "function"
    },
    {
      "inputs": [
        {
          "internalType": "string",
          "name": "offerId",
          "type": "string"
        },
        {
          "internalType": "address",
          "name": "user",
          "type": "address"
        },
        {
          "internalType": "uint8",
          "name": "cardNumber",
          "type": "uint8"
        },
        {
          "internalType": "uint8[]",
          "name": "wantedCardNumbers",
          "type": "uint8[]"
        }
      ],
      "name": "createOfferWithoUser",
      "outputs": [],
      "stateMutability": "nonpayable",
      "type": "function"
    },
    {
      "inputs": [],
      "name": "deleteAllOffers",
      "outputs": [],
      "stateMutability": "nonpayable",
      "type": "function"
    },
    {
      "inputs": [],
      "name": "gammaCardsContract",
      "outputs": [
        {
          "internalType": "contract IGammaCardsContract",
          "name": "",
          "type": "address"
        }
      ],
      "stateMutability": "view",
      "type": "function"
    },
    {
      "inputs": [],
      "name": "getMaxOffersAllowed",
      "outputs": [
        {
          "internalType": "uint256",
          "name": "",
          "type": "uint256"
        }
      ],
      "stateMutability": "view",
      "type": "function"
    },
    {
      "inputs": [],
      "name": "getMaxOffersByUserAllowed",
      "outputs": [
        {
          "internalType": "uint256",
          "name": "",
          "type": "uint256"
        }
      ],
      "stateMutability": "view",
      "type": "function"
    },
    {
      "inputs": [
        {
          "internalType": "uint256",
          "name": "index",
          "type": "uint256"
        }
      ],
      "name": "getOfferByIndex",
      "outputs": [
        {
          "components": [
            {
              "internalType": "string",
              "name": "offerId",
              "type": "string"
            },
            {
              "internalType": "uint8",
              "name": "cardNumber",
              "type": "uint8"
            },
            {
              "internalType": "uint8[]",
              "name": "wantedCardNumbers",
              "type": "uint8[]"
            },
            {
              "internalType": "address",
              "name": "owner",
              "type": "address"
            },
            {
              "internalType": "uint256",
              "name": "timestamp",
              "type": "uint256"
            }
          ],
          "internalType": "struct NofGammaOffersV4.Offer",
          "name": "",
          "type": "tuple"
        }
      ],
      "stateMutability": "view",
      "type": "function"
    },
    {
      "inputs": [
        {
          "internalType": "string",
          "name": "offerId",
          "type": "string"
        }
      ],
      "name": "getOfferByOfferId",
      "outputs": [
        {
          "components": [
            {
              "internalType": "string",
              "name": "offerId",
              "type": "string"
            },
            {
              "internalType": "uint8",
              "name": "cardNumber",
              "type": "uint8"
            },
            {
              "internalType": "uint8[]",
              "name": "wantedCardNumbers",
              "type": "uint8[]"
            },
            {
              "internalType": "address",
              "name": "owner",
              "type": "address"
            },
            {
              "internalType": "uint256",
              "name": "timestamp",
              "type": "uint256"
            }
          ],
          "internalType": "struct NofGammaOffersV4.Offer",
          "name": "",
          "type": "tuple"
        }
      ],
      "stateMutability": "view",
      "type": "function"
    },
    {
      "inputs": [
        {
          "internalType": "address",
          "name": "user",
          "type": "address"
        },
        {
          "internalType": "uint8",
          "name": "cardNumber",
          "type": "uint8"
        }
      ],
      "name": "getOfferByUserAndCardNumber",
      "outputs": [
        {
          "components": [
            {
              "internalType": "string",
              "name": "offerId",
              "type": "string"
            },
            {
              "internalType": "uint8",
              "name": "cardNumber",
              "type": "uint8"
            },
            {
              "internalType": "uint8[]",
              "name": "wantedCardNumbers",
              "type": "uint8[]"
            },
            {
              "internalType": "address",
              "name": "owner",
              "type": "address"
            },
            {
              "internalType": "uint256",
              "name": "timestamp",
              "type": "uint256"
            }
          ],
          "internalType": "struct NofGammaOffersV4.Offer",
          "name": "",
          "type": "tuple"
        }
      ],
      "stateMutability": "view",
      "type": "function"
    },
    {
      "inputs": [],
      "name": "getOffers",
      "outputs": [
        {
          "components": [
            {
              "internalType": "string",
              "name": "offerId",
              "type": "string"
            },
            {
              "internalType": "uint8",
              "name": "cardNumber",
              "type": "uint8"
            },
            {
              "internalType": "uint8[]",
              "name": "wantedCardNumbers",
              "type": "uint8[]"
            },
            {
              "internalType": "address",
              "name": "owner",
              "type": "address"
            },
            {
              "internalType": "uint256",
              "name": "timestamp",
              "type": "uint256"
            }
          ],
          "internalType": "struct NofGammaOffersV4.Offer[]",
          "name": "",
          "type": "tuple[]"
        }
      ],
      "stateMutability": "view",
      "type": "function"
    },
    {
      "inputs": [
        {
          "internalType": "uint8",
          "name": "cardNumber",
          "type": "uint8"
        }
      ],
      "name": "getOffersByCardNumber",
      "outputs": [
        {
          "components": [
            {
              "internalType": "string",
              "name": "offerId",
              "type": "string"
            },
            {
              "internalType": "uint8",
              "name": "cardNumber",
              "type": "uint8"
            },
            {
              "internalType": "uint8[]",
              "name": "wantedCardNumbers",
              "type": "uint8[]"
            },
            {
              "internalType": "address",
              "name": "owner",
              "type": "address"
            },
            {
              "internalType": "uint256",
              "name": "timestamp",
              "type": "uint256"
            }
          ],
          "internalType": "struct NofGammaOffersV4.Offer[]",
          "name": "",
          "type": "tuple[]"
        }
      ],
      "stateMutability": "view",
      "type": "function"
    },
    {
      "inputs": [
        {
          "internalType": "uint8",
          "name": "cardNumber",
          "type": "uint8"
        }
      ],
      "name": "getOffersByCardNumberCounter",
      "outputs": [
        {
          "internalType": "uint256",
          "name": "",
          "type": "uint256"
        }
      ],
      "stateMutability": "view",
      "type": "function"
    },
    {
      "inputs": [
        {
          "internalType": "address",
          "name": "user",
          "type": "address"
        }
      ],
      "name": "getOffersByUser",
      "outputs": [
        {
          "components": [
            {
              "internalType": "string",
              "name": "offerId",
              "type": "string"
            },
            {
              "internalType": "uint8",
              "name": "cardNumber",
              "type": "uint8"
            },
            {
              "internalType": "uint8[]",
              "name": "wantedCardNumbers",
              "type": "uint8[]"
            },
            {
              "internalType": "address",
              "name": "owner",
              "type": "address"
            },
            {
              "internalType": "uint256",
              "name": "timestamp",
              "type": "uint256"
            }
          ],
          "internalType": "struct NofGammaOffersV4.Offer[]",
          "name": "",
          "type": "tuple[]"
        }
      ],
      "stateMutability": "view",
      "type": "function"
    },
    {
      "inputs": [
        {
          "internalType": "address",
          "name": "user",
          "type": "address"
        }
      ],
      "name": "getOffersByUserCounter",
      "outputs": [
        {
          "internalType": "uint256",
          "name": "",
          "type": "uint256"
        }
      ],
      "stateMutability": "view",
      "type": "function"
    },
    {
      "inputs": [],
      "name": "getOffersCounter",
      "outputs": [
        {
          "internalType": "uint256",
          "name": "",
          "type": "uint256"
        }
      ],
      "stateMutability": "view",
      "type": "function"
    },
    {
      "inputs": [
        {
          "internalType": "address",
          "name": "user",
          "type": "address"
        },
        {
          "internalType": "uint8",
          "name": "cardNumber",
          "type": "uint8"
        }
      ],
      "name": "hasOffer",
      "outputs": [
        {
          "internalType": "bool",
          "name": "",
          "type": "bool"
        }
      ],
      "stateMutability": "view",
      "type": "function"
    },
    {
      "inputs": [
        {
          "internalType": "uint256",
          "name": "",
          "type": "uint256"
        }
      ],
      "name": "offers",
      "outputs": [
        {
          "internalType": "string",
          "name": "offerId",
          "type": "string"
        },
        {
          "internalType": "uint8",
          "name": "cardNumber",
          "type": "uint8"
        },
        {
          "internalType": "address",
          "name": "owner",
          "type": "address"
        },
        {
          "internalType": "uint256",
          "name": "timestamp",
          "type": "uint256"
        }
      ],
      "stateMutability": "view",
      "type": "function"
    },
    {
      "inputs": [
        {
          "internalType": "uint8",
          "name": "",
          "type": "uint8"
        }
      ],
      "name": "offersByCardNumberCounter",
      "outputs": [
        {
          "internalType": "uint256",
          "name": "",
          "type": "uint256"
        }
      ],
      "stateMutability": "view",
      "type": "function"
    },
    {
      "inputs": [
        {
          "internalType": "address",
          "name": "",
          "type": "address"
        }
      ],
      "name": "offersByUserCounter",
      "outputs": [
        {
          "internalType": "uint256",
          "name": "",
          "type": "uint256"
        }
      ],
      "stateMutability": "view",
      "type": "function"
    },
    {
      "inputs": [],
      "name": "offersTotalCounter",
      "outputs": [
        {
          "internalType": "uint256",
          "name": "",
          "type": "uint256"
        }
      ],
      "stateMutability": "view",
      "type": "function"
    },
    {
      "inputs": [],
      "name": "owner",
      "outputs": [
        {
          "internalType": "address",
          "name": "",
          "type": "address"
        }
      ],
      "stateMutability": "view",
      "type": "function"
    },
    {
      "inputs": [
        {
          "internalType": "address",
          "name": "",
          "type": "address"
        }
      ],
      "name": "owners",
      "outputs": [
        {
          "internalType": "bool",
          "name": "",
          "type": "bool"
        }
      ],
      "stateMutability": "view",
      "type": "function"
    },
    {
      "inputs": [
        {
          "internalType": "uint8",
          "name": "cardNumber",
          "type": "uint8"
        }
      ],
      "name": "removeOfferByCardNumber",
      "outputs": [
        {
          "internalType": "bool",
          "name": "",
          "type": "bool"
        }
      ],
      "stateMutability": "nonpayable",
      "type": "function"
    },
    {
      "inputs": [
        {
          "internalType": "address",
          "name": "user",
          "type": "address"
        },
        {
          "internalType": "uint8",
          "name": "cardNumber",
          "type": "uint8"
        }
      ],
      "name": "removeOfferByUserAndCardNumber",
      "outputs": [
        {
          "internalType": "bool",
          "name": "",
          "type": "bool"
        }
      ],
      "stateMutability": "nonpayable",
      "type": "function"
    },
    {
      "inputs": [
        {
          "internalType": "address",
          "name": "user",
          "type": "address"
        }
      ],
      "name": "removeOffersByUser",
      "outputs": [
        {
          "internalType": "bool",
          "name": "",
          "type": "bool"
        }
      ],
      "stateMutability": "nonpayable",
      "type": "function"
    },
    {
      "inputs": [
        {
          "internalType": "address",
          "name": "_ownerToRemove",
          "type": "address"
        }
      ],
      "name": "removeOwner",
      "outputs": [],
      "stateMutability": "nonpayable",
      "type": "function"
    },
    {
      "inputs": [],
      "name": "renounceOwnership",
      "outputs": [],
      "stateMutability": "nonpayable",
      "type": "function"
    },
    {
      "inputs": [
        {
          "internalType": "address",
          "name": "_gammaCardsContract",
          "type": "address"
        }
      ],
      "name": "setGammaCardsContract",
      "outputs": [],
      "stateMutability": "nonpayable",
      "type": "function"
    },
    {
      "inputs": [
        {
          "internalType": "uint256",
          "name": "_maxCardNumbersAllowed",
          "type": "uint256"
        }
      ],
      "name": "setMaxCardNumbersAllowed",
      "outputs": [],
      "stateMutability": "nonpayable",
      "type": "function"
    },
    {
      "inputs": [
        {
          "internalType": "uint256",
          "name": "_maxOffersAllowed",
          "type": "uint256"
        }
      ],
      "name": "setMaxOffersAllowed",
      "outputs": [],
      "stateMutability": "nonpayable",
      "type": "function"
    },
    {
      "inputs": [
        {
          "internalType": "uint256",
          "name": "_maxOffersByUserAllowed",
          "type": "uint256"
        }
      ],
      "name": "setMaxOffersByUserAllowed",
      "outputs": [],
      "stateMutability": "nonpayable",
      "type": "function"
    },
    {
      "inputs": [
        {
          "internalType": "address",
          "name": "newOwner",
          "type": "address"
        }
      ],
      "name": "transferOwnership",
      "outputs": [],
      "stateMutability": "nonpayable",
      "type": "function"
    }
  ],
  "bytecode": "0x608060405261138860035560056004819055607890556006805460ff191690553480156200002c57600080fd5b5060405162003e5738038062003e578339810160408190526200004f91620000f5565b6200005a33620000a5565b600180546001600160a01b0319166001600160a01b0392909216919091178155336000908152600260205260409020805460ff19908116909217905560068054909116905562000127565b600080546001600160a01b038381166001600160a01b0319831681178455604051919092169283917f8be0079c531659141344cd1fd0a4f28419497f9722a3daafe3b4186f6b6457e09190a35050565b6000602082840312156200010857600080fd5b81516001600160a01b03811681146200012057600080fd5b9392505050565b613d2080620001376000396000f3fe608060405234801561001057600080fd5b50600436106102275760003560e01c80637594a6ed11610130578063ce7483d5116100b8578063e2b365961161007c578063e2b36596146104ee578063e359a0a114610501578063e5e5f73214610514578063f2fde38b14610527578063fc9e80fc1461053a57600080fd5b8063ce7483d51461047d578063cf86f8e5146104a0578063d250f03a146104a8578063d827a8f4146104bb578063e02f9723146104db57600080fd5b806390222aa1116100ff57806390222aa1146104275780639618b3331461042f5780639f91506914610442578063ba79b77b14610462578063c08029e71461046a57600080fd5b80637594a6ed146103ac5780638400a189146103cc5780638a72ea6a146103df5780638da5cb5b1461040257600080fd5b80633e293e16116101b35780635a919aeb116101825780635a919aeb146103695780635bbfbfd614610372578063619980dc146103855780637065cb4814610391578063715018a6146103a457600080fd5b80633e293e161461031b5780633ee992ee1461032e5780634c7a7ad31461034357806358e57ebb1461035657600080fd5b806329d3f60b116101fa57806329d3f60b146102ad5780632edb5fcf146102da578063322fba27146102ed5780633808dfe7146102f55780633a0270731461030857600080fd5b8063022914a71461022c5780630cdb311714610264578063173825d91461028557806317a1fed91461029a575b600080fd5b61024f61023a3660046133a3565b60026020526000908152604090205460ff1681565b60405190151581526020015b60405180910390f35b6102776102723660046133a3565b61054d565b60405190815260200161025b565b6102986102933660046133a3565b61059a565b005b6102986102a8366004613514565b610717565b61024f6102bb3660046133a3565b6001600160a01b03166000908152600a60205260409020546004541190565b61024f6102e8366004613599565b610758565b610298610817565b6102986103033660046135cc565b6109c5565b61024f6103163660046135e5565b6109f9565b610298610329366004613600565b610a41565b610336610a52565b60405161025b9190613766565b6102986103513660046133a3565b610be6565b6102986103643660046137d6565b610c89565b610277600c5481565b61024f610380366004613599565b610ccb565b600c546003541161024f565b61029861039f3660046133a3565b610d4b565b610298610e5d565b6102776103ba3660046133a3565b600a6020526000908152604090205481565b6103366103da3660046135e5565b610e71565b6103f26103ed3660046135cc565b611015565b60405161025b94939291906137f3565b6000546001600160a01b03165b6040516001600160a01b03909116815260200161025b565b600354610277565b61033661043d3660046133a3565b6110ed565b610455610450366004613599565b6112af565b60405161025b919061382e565b600454610277565b610298610478366004613841565b6114be565b61027761048b3660046135e5565b60ff166000908152600b602052604090205490565b600c54610277565b60015461040f906001600160a01b031681565b6102776104c93660046135e5565b600b6020526000908152604090205481565b6102986104e93660046135cc565b61194b565b6104556104fc366004613895565b61197f565b61045561050f3660046135cc565b611b88565b6102986105223660046135cc565b611d43565b6102986105353660046133a3565b611d77565b61024f6105483660046133a3565b611df0565b60006001600160a01b03821661057e5760405162461bcd60e51b8152600401610575906138ca565b60405180910390fd5b506001600160a01b03166000908152600a602052604090205490565b3360009081526002602052604090205460ff166105c95760405162461bcd60e51b8152600401610575906138f4565b6001600160a01b0381166105ef5760405162461bcd60e51b8152600401610575906138ca565b336001600160a01b038216036106575760405162461bcd60e51b815260206004820152602760248201527f596f752063616e6e6f742072656d6f766520796f757273656c6620617320616e6044820152661037bbb732b91760c91b6064820152608401610575565b6001600160a01b03811660009081526002602052604090205460ff166106bf5760405162461bcd60e51b815260206004820152601860248201527f41646472657373206973206e6f7420616e206f776e65722e00000000000000006044820152606401610575565b6001600160a01b038116600081815260026020908152604091829020805460ff1916905590519182527f58619076adf5bb0943d100ef88d52d7c3fd691b19d3a9071b555b651fbf418da91015b60405180910390a150565b3360009081526002602052604090205460ff166107465760405162461bcd60e51b8152600401610575906138f4565b61075284848484612083565b50505050565b60006001600160a01b0383166107805760405162461bcd60e51b8152600401610575906138ca565b60005b6001600160a01b0384166000908152600a602052604090205481101561080b576001600160a01b0384166000908152600860205260409020805460ff85169190839081106107d3576107d3613937565b600091825260209091206001600590920201015460ff16036107f9576001915050610811565b8061080381613963565b915050610783565b50600090505b92915050565b3360009081526002602052604090205460ff166108465760405162461bcd60e51b8152600401610575906138f4565b60005b60075481101561098657600860006007838154811061086a5761086a613937565b60009182526020808320600360059093020191909101546001600160a01b0316835282019290925260400181206108a091613178565b6000600a6000600784815481106108b9576108b9613937565b60009182526020808320600360059093020191909101546001600160a01b031683528201929092526040018120919091556007805460099291908490811061090357610903613937565b600091825260208083206001600590930201919091015460ff168352820192909252604001812061093391613178565b6000600b60006007848154811061094c5761094c613937565b600091825260208083206001600590930201919091015460ff1683528201929092526040019020558061097e81613963565b915050610849565b506000600c81905561099a90600790613178565b6040517f47e81efc038e27bb296dec5d44262943d2c2bbec28f461787a9cc53885694cb090600090a1565b3360009081526002602052604090205460ff166109f45760405162461bcd60e51b8152600401610575906138f4565b600455565b600080610a0633846112af565b60608101519091506001600160a01b03163314610a265750600092915050565b6000610a39338584600001516000612731565b949350505050565b610a4d83338484612083565b505050565b60606007805480602002602001604051908101604052809291908181526020016000905b82821015610bdd57838290600052602060002090600502016040518060a0016040529081600082018054610aa99061397c565b80601f0160208091040260200160405190810160405280929190818152602001828054610ad59061397c565b8015610b225780601f10610af757610100808354040283529160200191610b22565b820191906000526020600020905b815481529060010190602001808311610b0557829003601f168201915b5050509183525050600182015460ff166020808301919091526002830180546040805182850281018501825282815294019392830182828015610ba257602002820191906000526020600020906000905b825461010083900a900460ff16815260206001928301818104948501949093039092029101808411610b735790505b505050918352505060038201546001600160a01b03166020808301919091526004909201546040909101529082526001929092019101610a76565b50505050905090565b3360009081526002602052604090205460ff16610c155760405162461bcd60e51b8152600401610575906138f4565b6001600160a01b038116610c3b5760405162461bcd60e51b8152600401610575906138ca565b600180546001600160a01b0319166001600160a01b0383169081179091556040519081527f45c9eba39b5ae3e7a6650b0a57bcb8e5d135936d56d111983dbc5860ae6760fa9060200161070c565b3360009081526002602052604090205460ff16610cb85760405162461bcd60e51b8152600401610575906138f4565b6006805460ff1916911515919091179055565b3360009081526002602052604081205460ff16610cfa5760405162461bcd60e51b8152600401610575906138f4565b6000610d0684846112af565b9050836001600160a01b031681606001516001600160a01b031614610d2f576000915050610811565b6000610d42858584600001516000612731565b95945050505050565b3360009081526002602052604090205460ff16610d7a5760405162461bcd60e51b8152600401610575906138f4565b6001600160a01b038116610da05760405162461bcd60e51b8152600401610575906138ca565b6001600160a01b03811660009081526002602052604090205460ff1615610e095760405162461bcd60e51b815260206004820152601c60248201527f4164647265737320697320616c726561647920616e206f776e65722e000000006044820152606401610575565b6001600160a01b038116600081815260026020908152604091829020805460ff1916600117905590519182527f6e4e2a7c0e1576d48aeabd633d094f622d4f046286fec8b9045dd7f5c9fb087d910161070c565b610e656128a7565b610e6f6000612901565b565b60ff81166000908152600960209081526040808320805482518185028101850190935280835260609492939192909184015b8282101561100a57838290600052602060002090600502016040518060a0016040529081600082018054610ed69061397c565b80601f0160208091040260200160405190810160405280929190818152602001828054610f029061397c565b8015610f4f5780601f10610f2457610100808354040283529160200191610f4f565b820191906000526020600020905b815481529060010190602001808311610f3257829003601f168201915b5050509183525050600182015460ff166020808301919091526002830180546040805182850281018501825282815294019392830182828015610fcf57602002820191906000526020600020906000905b825461010083900a900460ff16815260206001928301818104948501949093039092029101808411610fa05790505b505050918352505060038201546001600160a01b03166020808301919091526004909201546040909101529082526001929092019101610ea3565b505050509050919050565b6007818154811061102557600080fd5b90600052602060002090600502016000915090508060000180546110489061397c565b80601f01602080910402602001604051908101604052809291908181526020018280546110749061397c565b80156110c15780601f10611096576101008083540402835291602001916110c1565b820191906000526020600020905b8154815290600101906020018083116110a457829003601f168201915b5050505060018301546003840154600490940154929360ff909116926001600160a01b03909116915084565b60606001600160a01b0382166111155760405162461bcd60e51b8152600401610575906138ca565b6001600160a01b038216600090815260086020908152604080832080548251818502810185019093528083529193909284015b8282101561100a57838290600052602060002090600502016040518060a001604052908160008201805461117b9061397c565b80601f01602080910402602001604051908101604052809291908181526020018280546111a79061397c565b80156111f45780601f106111c9576101008083540402835291602001916111f4565b820191906000526020600020905b8154815290600101906020018083116111d757829003601f168201915b5050509183525050600182015460ff16602080830191909152600283018054604080518285028101850182528281529401939283018282801561127457602002820191906000526020600020906000905b825461010083900a900460ff168152602060019283018181049485019490930390920291018084116112455790505b505050918352505060038201546001600160a01b03166020808301919091526004909201546040909101529082526001929092019101611148565b6112b7613199565b6001600160a01b0383166112dd5760405162461bcd60e51b8152600401610575906138ca565b6001600160a01b0383166000908152600860209081526040808320600a90925282205490915b818110156114b5578460ff1683828154811061132157611321613937565b600091825260209091206001600590920201015460ff16036114a35782818154811061134f5761134f613937565b90600052602060002090600502016040518060a00160405290816000820180546113789061397c565b80601f01602080910402602001604051908101604052809291908181526020018280546113a49061397c565b80156113f15780601f106113c6576101008083540402835291602001916113f1565b820191906000526020600020905b8154815290600101906020018083116113d457829003601f168201915b5050509183525050600182015460ff16602080830191909152600283018054604080518285028101850182528281529401939283018282801561147157602002820191906000526020600020906000905b825461010083900a900460ff168152602060019283018181049485019490930390920291018084116114425790505b505050918352505060038201546001600160a01b03166020820152600490910154604090910152935061081192505050565b806114ad81613963565b915050611303565b50610d42612951565b60006114ca83836112af565b9050826001600160a01b031681606001516001600160a01b03161461154d5760405162461bcd60e51b815260206004820152603360248201527f416e206f6666657220666f722074686973207573657220616e6420636172644e6044820152723ab6b132b9103237b713ba1032bc34b9ba399760691b6064820152608401610575565b604081015180516000036116225760015460405163117ece1960e31b81526001600160a01b0390911690638bf670c89061158d90879089906004016139b6565b6020604051808303816000875af11580156115ac573d6000803e3d6000fd5b505050506040513d601f19601f820116820180604052508101906115d091906139d2565b1561161d5760405162461bcd60e51b815260206004820152601f60248201527f546865207573657220616c726561647920686173207468617420636172642e006044820152606401610575565b6116d4565b6000805b82518160ff161015611676578660ff16838260ff168151811061164b5761164b613937565b602002602001015160ff16036116645760019150611676565b8061166e816139ef565b915050611626565b50806116d25760405162461bcd60e51b815260206004820152602560248201527f5468652063617264206973206e6f7420696e2077616e746564436172644e756d6044820152643132b9399760d91b6064820152608401610575565b505b60006116e7858585600001516001612731565b9050806117485760405162461bcd60e51b815260206004820152602960248201527f4572726f722064656c6574696e67206f66666572206166746572207472616e7360448201526866657220636172647360b81b6064820152608401610575565b60015460405163568b427d60e11b81526001600160a01b03898116600483015260ff808a1660248401528882166044840152871660648301529091169063ad1684fa90608401600060405180830381600087803b1580156117a857600080fd5b505af11580156117bc573d6000803e3d6000fd5b505060015460405163117ece1960e31b81526001600160a01b039091169250638bf670c891506117f2908a9088906004016139b6565b6020604051808303816000875af1158015611811573d6000803e3d6000fd5b505050506040513d601f19601f8201168201806040525081019061183591906139d2565b6118815760405162461bcd60e51b815260206004820152601f60248201527f45786368616e6765206572726f7220776974682077616c6c65742066726f6d006044820152606401610575565b60015460405163117ece1960e31b81526001600160a01b0390911690638bf670c8906118b39088908a906004016139b6565b6020604051808303816000875af11580156118d2573d6000803e3d6000fd5b505050506040513d601f19601f820116820180604052508101906118f691906139d2565b6119425760405162461bcd60e51b815260206004820152601d60248201527f45786368616e6765206572726f7220776974682077616c6c657420746f0000006044820152606401610575565b50505050505050565b3360009081526002602052604090205460ff1661197a5760405162461bcd60e51b8152600401610575906138f4565b600555565b611987613199565b60005b600754811015611b7f57826040516020016119a59190613a0e565b60405160208183030381529060405280519060200120600782815481106119ce576119ce613937565b90600052602060002090600502016000016040516020016119ef9190613a2a565b6040516020818303038152906040528051906020012003611b6d5760078181548110611a1d57611a1d613937565b90600052602060002090600502016040518060a0016040529081600082018054611a469061397c565b80601f0160208091040260200160405190810160405280929190818152602001828054611a729061397c565b8015611abf5780601f10611a9457610100808354040283529160200191611abf565b820191906000526020600020905b815481529060010190602001808311611aa257829003601f168201915b5050509183525050600182015460ff166020808301919091526002830180546040805182850281018501825282815294019392830182828015611b3f57602002820191906000526020600020906000905b825461010083900a900460ff16815260206001928301818104948501949093039092029101808411611b105790505b505050918352505060038201546001600160a01b031660208201526004909101546040909101529392505050565b80611b7781613963565b91505061198a565b50610811612951565b611b90613199565b6007548210611be15760405162461bcd60e51b815260206004820152601760248201527f4f6666657220496420646f6573206e6f742065786973740000000000000000006044820152606401610575565b60078281548110611bf457611bf4613937565b90600052602060002090600502016040518060a0016040529081600082018054611c1d9061397c565b80601f0160208091040260200160405190810160405280929190818152602001828054611c499061397c565b8015611c965780601f10611c6b57610100808354040283529160200191611c96565b820191906000526020600020905b815481529060010190602001808311611c7957829003601f168201915b5050509183525050600182015460ff166020808301919091526002830180546040805182850281018501825282815294019392830182828015611d1657602002820191906000526020600020906000905b825461010083900a900460ff16815260206001928301818104948501949093039092029101808411611ce75790505b505050918352505060038201546001600160a01b0316602082015260049091015460409091015292915050565b3360009081526002602052604090205460ff16611d725760405162461bcd60e51b8152600401610575906138f4565b600355565b611d7f6128a7565b6001600160a01b038116611de45760405162461bcd60e51b815260206004820152602660248201527f4f776e61626c653a206e6577206f776e657220697320746865207a65726f206160448201526564647265737360d01b6064820152608401610575565b611ded81612901565b50565b6001546000906001600160a01b03163314611e675760405162461bcd60e51b815260206004820152603160248201527f4f6e6c792067616d6d6120636172647320636f6e74726163742063616e2063616044820152703636103a3434b990333ab731ba34b7b71760791b6064820152608401610575565b6001600160a01b038216611e8d5760405162461bcd60e51b8152600401610575906138ca565b6001600160a01b0382166000908152600860209081526040808320600a90925282205490915b81811015612006576000838281548110611ecf57611ecf613937565b90600052602060002090600502016000018054611eeb9061397c565b80601f0160208091040260200160405190810160405280929190818152602001828054611f179061397c565b8015611f645780601f10611f3957610100808354040283529160200191611f64565b820191906000526020600020905b815481529060010190602001808311611f4757829003601f168201915b505050505090506000848381548110611f7f57611f7f613937565b600091825260209091206001600590920201015460ff169050611fa387828461299a565b611fac82612d12565b5060ff81166000908152600b60205260408120805460019290611fd0908490613aa0565b925050819055506001600c6000828254611fea9190613aa0565b9250508190555050508080611ffe90613963565b915050611eb3565b506001600160a01b038416600090815260086020526040812061202891613178565b6001600160a01b0384166000818152600a602090815260408083209290925590519182527f65419c67e554142d50c59abd004485123ca498611a223f842e75dd96225ba4c8910160405180910390a16001925050505b919050565b6001546001600160a01b03166120db5760405162461bcd60e51b815260206004820152601b60248201527f47616d6d614361726473436f6e7472616374206e6f74207365742e00000000006044820152606401610575565b6004546001600160a01b0384166000908152600a6020526040902054106121595760405162461bcd60e51b815260206004820152602c60248201527f5573657220686173207265616368656420746865206d6178696d756d20616c6c60448201526b37bbb2b21037b33332b9399760a11b6064820152608401610575565b600354600c54106121c35760405162461bcd60e51b815260206004820152602e60248201527f546f74616c206f66666572732068617665207265616368656420746865206d6160448201526d3c34b6bab69030b63637bbb2b21760911b6064820152608401610575565b60015460405163117ece1960e31b81526000916001600160a01b031690638bf670c8906121f690879087906004016139b6565b6020604051808303816000875af1158015612215573d6000803e3d6000fd5b505050506040513d601f19601f8201168201806040525081019061223991906139d2565b9050806122885760405162461bcd60e51b815260206004820152601c60248201527f596f7520646f6573206e6f742068617665207468617420636172642e000000006044820152606401610575565b60005b82518160ff161015612331578360ff16838260ff16815181106122b0576122b0613937565b602002602001015160ff160361231f5760405162461bcd60e51b815260206004820152602e60248201527f54686520636172644e756d6265722063616e6e6f7420626520696e2077616e7460448201526d32b221b0b932273ab6b132b9399760911b6064820152608401610575565b80612329816139ef565b91505061228b565b50600061233e85856112af565b60608101519091506001600160a01b0316156123ba5760405162461bcd60e51b815260206004820152603560248201527f416e206f6666657220666f722074686973207573657220616e6420636172644e6044820152743ab6b132b91030b63932b0b23c9032bc34b9ba399760591b6064820152608401610575565b6001600160a01b0385166000908152600a602052604081208054600192906123e3908490613ab3565b909155505060ff84166000908152600b6020526040812080546001929061240b908490613ab3565b925050819055506001600c60008282546124259190613ab3565b90915550506040805160a08101825287815260ff861660208201529081018490526001600160a01b038616606082015242608082015260078054600181018255600091909152815160059091027fa66cc928b5edb82af9bd49922954155ab7b0942694bea4ce44661d9a8736c688019081906124a19082613b14565b5060208281015160018301805460ff191660ff909216919091179055604083015180516124d492600285019201906131d4565b5060608201516003820180546001600160a01b0319166001600160a01b03928316179055608090920151600490910155851660009081526008602052604090206007805461252490600190613aa0565b8154811061253457612534613937565b60009182526020808320845460018101865594845292206005918202909201920201806125618382613bd4565b50600182810154908201805460ff191660ff90921691909117905560028083018054612590928401919061327a565b5060038281015490820180546001600160a01b0319166001600160a01b0390921691909117905560049182015491015560ff84166000908152600960205260409020600780546125e290600190613aa0565b815481106125f2576125f2613937565b600091825260208083208454600181018655948452922060059182029092019202018061261f8382613bd4565b50600182810154908201805460ff191660ff9092169190911790556002808301805461264e928401919061327a565b5060038281015490820180546001600160a01b0319166001600160a01b0390921691909117905560049182015491015560065460ff16156126ee57600154604051631c5568eb60e21b81526001600160a01b0390911690637155a3ac906126bb90889088906004016139b6565b600060405180830381600087803b1580156126d557600080fd5b505af11580156126e9573d6000803e3d6000fd5b505050505b7fed750964f1f81f105e56dfd1121427e0898e7bc23d6c10e92d851a2d35e0cfc585858560405161272193929190613ca7565b60405180910390a1505050505050565b60006001600160a01b0385166127595760405162461bcd60e51b8152600401610575906138ca565b612764858585612f8f565b61276f85858561299a565b61277883612d12565b506001600160a01b0385166000908152600a602052604081208054600192906127a2908490613aa0565b909155505060ff84166000908152600b602052604081208054600192906127ca908490613aa0565b925050819055506001600c60008282546127e49190613aa0565b909155505060065460ff1680156127f9575081155b1561286357600154604051630aaf17c960e11b81526001600160a01b039091169063155e2f929061283090889088906004016139b6565b600060405180830381600087803b15801561284a57600080fd5b505af115801561285e573d6000803e3d6000fd5b505050505b7f7911e34642eae38762395a3dd0fa3308d0f8908b92fe36c41543d635ab7cb8f585856040516128949291906139b6565b60405180910390a1506001949350505050565b6000546001600160a01b03163314610e6f5760405162461bcd60e51b815260206004820181905260248201527f4f776e61626c653a2063616c6c6572206973206e6f7420746865206f776e65726044820152606401610575565b600080546001600160a01b038381166001600160a01b0319831681178455604051919092169283917f8be0079c531659141344cd1fd0a4f28419497f9722a3daafe3b4186f6b6457e09190a35050565b612959613199565b506040805160c081018252600060a0820181815282526020808301829052835182815290810184529282019290925260608101829052608081019190915290565b60ff82166000908152600960205260408120905b8154811015612d0b57612a6c8282815481106129cc576129cc613937565b906000526020600020906005020160000180546129e89061397c565b80601f0160208091040260200160405190810160405280929190818152602001828054612a149061397c565b8015612a615780601f10612a3657610100808354040283529160200191612a61565b820191906000526020600020905b815481529060010190602001808311612a4457829003601f168201915b50505050508461311f565b15612cf957846001600160a01b0316828281548110612a8d57612a8d613937565b60009182526020909120600360059092020101546001600160a01b031614612b1d5760405162461bcd60e51b815260206004820152603860248201527f5f72656d6f76654f6666657246726f6d436172644e756d6265724d617070696e60448201527f673a206f776e657220646f6573206e6f74206d617463682e00000000000000006064820152608401610575565b8360ff16828281548110612b3357612b33613937565b600091825260209091206001600590920201015460ff1614612bbd5760405162461bcd60e51b815260206004820152603d60248201527f5f72656d6f76654f6666657246726f6d436172644e756d6265724d617070696e60448201527f673a20636172644e756d62657220646f6573206e6f74206d617463682e0000006064820152608401610575565b8154612bcb90600190613aa0565b811015612c8d5781548290612be290600190613aa0565b81548110612bf257612bf2613937565b9060005260206000209060050201828281548110612c1257612c12613937565b6000918252602090912060059091020180612c2d8382613bd4565b50600182810154908201805460ff191660ff90921691909117905560028083018054612c5c928401919061327a565b5060038281015490820180546001600160a01b0319166001600160a01b039092169190911790556004918201549101555b81805480612c9d57612c9d613cd4565b60008281526020812060001990920191600583020190612cbd82826132c8565b60018201805460ff19169055612cd7600283016000613302565b506003810180546001600160a01b031916905560006004909101559055612d0b565b80612d0381613963565b9150506129ae565b5050505050565b600080805b600754811015612f885760075481108015612de35750612de360078281548110612d4357612d43613937565b90600052602060002090600502016000018054612d5f9061397c565b80601f0160208091040260200160405190810160405280929190818152602001828054612d8b9061397c565b8015612dd85780601f10612dad57610100808354040283529160200191612dd8565b820191906000526020600020905b815481529060010190602001808311612dbb57829003601f168201915b50505050508561311f565b15612f765760078181548110612dfb57612dfb613937565b60009182526020822060059091020190612e1582826132c8565b60018201805460ff19169055612e2f600283016000613302565b506003810180546001600160a01b0319169055600060049091015560078054612e5a90600190613aa0565b81548110612e6a57612e6a613937565b906000526020600020906005020160078281548110612e8b57612e8b613937565b6000918252602090912060059091020180612ea68382613bd4565b50600182810154908201805460ff191660ff90921691909117905560028083018054612ed5928401919061327a565b5060038281015490820180546001600160a01b0319166001600160a01b039092169190911790556004918201549101556007805480612f1657612f16613cd4565b60008281526020812060001990920191600583020190612f3682826132c8565b60018201805460ff19169055612f50600283016000613302565b506003810180546001600160a01b03191690556000600490910155905560019150612f88565b80612f8081613963565b915050612d17565b5092915050565b6001600160a01b0383166000908152600860205260408120905b8154811015612d0b57612fc78282815481106129cc576129cc613937565b1561310d57846001600160a01b0316828281548110612fe857612fe8613937565b60009182526020909120600360059092020101546001600160a01b03161461306d5760405162461bcd60e51b815260206004820152603260248201527f5f72656d6f76654f6666657246726f6d557365724d617070696e673a206f776e60448201527132b9103237b2b9903737ba1036b0ba31b41760711b6064820152608401610575565b8360ff1682828154811061308357613083613937565b600091825260209091206001600590920201015460ff1614612bbd5760405162461bcd60e51b815260206004820152603760248201527f5f72656d6f76654f6666657246726f6d557365724d617070696e673a2063617260448201527f644e756d62657220646f6573206e6f74206d617463682e0000000000000000006064820152608401610575565b8061311781613963565b915050612fa9565b6000816040516020016131329190613a0e565b60405160208183030381529060405280519060200120836040516020016131599190613a0e565b6040516020818303038152906040528051906020012014905092915050565b5080546000825560050290600052602060002090810190611ded9190613327565b6040518060a0016040528060608152602001600060ff1681526020016060815260200160006001600160a01b03168152602001600081525090565b82805482825590600052602060002090601f0160209004810192821561326a5791602002820160005b8382111561323b57835183826101000a81548160ff021916908360ff16021790555092602001926001016020816000010492830192600103026131fd565b80156132685782816101000a81549060ff021916905560010160208160000104928301926001030261323b565b505b50613276929150613377565b5090565b82805482825590600052602060002090601f0160209004810192821561326a57600052602060002091601f016020900482015b8281111561326a5782548255916001019190600101906132ad565b5080546132d49061397c565b6000825580601f106132e4575050565b601f016020900490600052602060002090810190611ded9190613377565b50805460008255601f016020900490600052602060002090810190611ded9190613377565b8082111561327657600061333b82826132c8565b60018201805460ff19169055613355600283016000613302565b506003810180546001600160a01b031916905560006004820155600501613327565b5b808211156132765760008155600101613378565b80356001600160a01b038116811461207e57600080fd5b6000602082840312156133b557600080fd5b6133be8261338c565b9392505050565b634e487b7160e01b600052604160045260246000fd5b604051601f8201601f1916810167ffffffffffffffff81118282101715613404576134046133c5565b604052919050565b600082601f83011261341d57600080fd5b813567ffffffffffffffff811115613437576134376133c5565b61344a601f8201601f19166020016133db565b81815284602083860101111561345f57600080fd5b816020850160208301376000918101602001919091529392505050565b803560ff8116811461207e57600080fd5b600082601f83011261349e57600080fd5b8135602067ffffffffffffffff8211156134ba576134ba6133c5565b8160051b6134c98282016133db565b92835284810182019282810190878511156134e357600080fd5b83870192505b84831015613509576134fa8361347c565b825291830191908301906134e9565b979650505050505050565b6000806000806080858703121561352a57600080fd5b843567ffffffffffffffff8082111561354257600080fd5b61354e8883890161340c565b955061355c6020880161338c565b945061356a6040880161347c565b9350606087013591508082111561358057600080fd5b5061358d8782880161348d565b91505092959194509250565b600080604083850312156135ac57600080fd5b6135b58361338c565b91506135c36020840161347c565b90509250929050565b6000602082840312156135de57600080fd5b5035919050565b6000602082840312156135f757600080fd5b6133be8261347c565b60008060006060848603121561361557600080fd5b833567ffffffffffffffff8082111561362d57600080fd5b6136398783880161340c565b94506136476020870161347c565b9350604086013591508082111561365d57600080fd5b5061366a8682870161348d565b9150509250925092565b60005b8381101561368f578181015183820152602001613677565b50506000910152565b600081518084526136b0816020860160208601613674565b601f01601f19169290920160200192915050565b600081518084526020808501945080840160005b838110156136f757815160ff16875295820195908201906001016136d8565b509495945050505050565b6000815160a0845261371760a0850182613698565b905060ff60208401511660208501526040830151848203604086015261373d82826136c4565b6060858101516001600160a01b0316908701526080948501519490950193909352509192915050565b6000602080830181845280855180835260408601915060408160051b870101925083870160005b828110156137bb57603f198886030184526137a9858351613702565b9450928501929085019060010161378d565b5092979650505050505050565b8015158114611ded57600080fd5b6000602082840312156137e857600080fd5b81356133be816137c8565b6080815260006138066080830187613698565b60ff959095166020830152506001600160a01b03929092166040830152606090910152919050565b6020815260006133be6020830184613702565b6000806000806080858703121561385757600080fd5b6138608561338c565b935061386e6020860161347c565b925061387c6040860161338c565b915061388a6060860161347c565b905092959194509250565b6000602082840312156138a757600080fd5b813567ffffffffffffffff8111156138be57600080fd5b610a398482850161340c565b60208082526010908201526f24b73b30b634b21030b2323932b9b99760811b604082015260600190565b60208082526023908201527f4f6e6c79206f776e6572732063616e2063616c6c20746869732066756e63746960408201526237b71760e91b606082015260800190565b634e487b7160e01b600052603260045260246000fd5b634e487b7160e01b600052601160045260246000fd5b6000600182016139755761397561394d565b5060010190565b600181811c9082168061399057607f821691505b6020821081036139b057634e487b7160e01b600052602260045260246000fd5b50919050565b6001600160a01b0392909216825260ff16602082015260400190565b6000602082840312156139e457600080fd5b81516133be816137c8565b600060ff821660ff8103613a0557613a0561394d565b60010192915050565b60008251613a20818460208701613674565b9190910192915050565b6000808354613a388161397c565b60018281168015613a505760018114613a6557613a94565b60ff1984168752821515830287019450613a94565b8760005260208060002060005b85811015613a8b5781548a820152908401908201613a72565b50505082870194505b50929695505050505050565b818103818111156108115761081161394d565b808201808211156108115761081161394d565b601f821115610a4d57600081815260208120601f850160051c81016020861015613aed5750805b601f850160051c820191505b81811015613b0c57828155600101613af9565b505050505050565b815167ffffffffffffffff811115613b2e57613b2e6133c5565b613b4281613b3c845461397c565b84613ac6565b602080601f831160018114613b775760008415613b5f5750858301515b600019600386901b1c1916600185901b178555613b0c565b600085815260208120601f198616915b82811015613ba657888601518255948401946001909101908401613b87565b5085821015613bc45787850151600019600388901b60f8161c191681555b5050505050600190811b01905550565b818103613bdf575050565b613be9825461397c565b67ffffffffffffffff811115613c0157613c016133c5565b613c0f81613b3c845461397c565b6000601f821160018114613c435760008315613c2b5750848201545b600019600385901b1c1916600184901b178455612d0b565b600085815260209020601f19841690600086815260209020845b83811015613c7d5782860154825560019586019590910190602001613c5d565b5085831015613bc45793015460001960f8600387901b161c19169092555050600190811b01905550565b6001600160a01b038416815260ff83166020820152606060408201819052600090610d42908301846136c4565b634e487b7160e01b600052603160045260246000fdfea26469706673582212202897cd27e21b0da1912712aa00d7dc02e05a37fcafe5982b62bcf145f00169ff64736f6c63430008140033",
  "linkReferences": {},
  "deployedLinkReferences": {}
}