{
  "_format": "hh-sol-artifact-1",
  "contractName": "NofGammaPacksV2",
  "sourceName": "contracts/gamma/GammaPacks.v2.sol",
  "abi": [
    {
      "inputs": [
        {
          "internalType": "address",
          "name": "_daiTokenAddress",
          "type": "address"
        },
        {
          "internalType": "address",
          "name": "_balanceReceiver",
          "type": "address"
        }
      ],
      "stateMutability": "nonpayable",
      "type": "constructor"
    },
    {
      "anonymous": false,
      "inputs": [
        {
          "indexed": false,
          "internalType": "address",
          "name": "newCardsContract",
          "type": "address"
        }
      ],
      "name": "NewGammaCardsContract",
      "type": "event"
    },
    {
      "anonymous": false,
      "inputs": [
        {
          "indexed": false,
          "internalType": "uint256",
          "name": "newPrice",
          "type": "uint256"
        }
      ],
      "name": "NewPrice",
      "type": "event"
    },
    {
      "anonymous": false,
      "inputs": [
        {
          "indexed": true,
          "internalType": "address",
          "name": "previousOwner",
          "type": "address"
        },
        {
          "indexed": true,
          "internalType": "address",
          "name": "newOwner",
          "type": "address"
        }
      ],
      "name": "OwnershipTransferred",
      "type": "event"
    },
    {
      "anonymous": false,
      "inputs": [
        {
          "indexed": false,
          "internalType": "address",
          "name": "buyer",
          "type": "address"
        },
        {
          "indexed": false,
          "internalType": "uint256",
          "name": "tokenId",
          "type": "uint256"
        }
      ],
      "name": "PackPurchase",
      "type": "event"
    },
    {
      "anonymous": false,
      "inputs": [
        {
          "indexed": false,
          "internalType": "address",
          "name": "from",
          "type": "address"
        },
        {
          "indexed": false,
          "internalType": "address",
          "name": "to",
          "type": "address"
        },
        {
          "indexed": false,
          "internalType": "uint256",
          "name": "tokenId",
          "type": "uint256"
        }
      ],
      "name": "PackTransfer",
      "type": "event"
    },
    {
      "anonymous": false,
      "inputs": [
        {
          "indexed": false,
          "internalType": "address",
          "name": "buyer",
          "type": "address"
        },
        {
          "indexed": false,
          "internalType": "uint256[]",
          "name": "tokenIds",
          "type": "uint256[]"
        }
      ],
      "name": "PacksPurchase",
      "type": "event"
    },
    {
      "inputs": [],
      "name": "DAI_TOKEN",
      "outputs": [
        {
          "internalType": "address",
          "name": "",
          "type": "address"
        }
      ],
      "stateMutability": "view",
      "type": "function"
    },
    {
      "inputs": [
        {
          "internalType": "address",
          "name": "user",
          "type": "address"
        },
        {
          "internalType": "uint256",
          "name": "numberOfPacks",
          "type": "uint256"
        }
      ],
      "name": "_buyPacks",
      "outputs": [
        {
          "internalType": "uint256[]",
          "name": "",
          "type": "uint256[]"
        }
      ],
      "stateMutability": "nonpayable",
      "type": "function"
    },
    {
      "inputs": [
        {
          "internalType": "address",
          "name": "_newOwner",
          "type": "address"
        }
      ],
      "name": "addOwner",
      "outputs": [],
      "stateMutability": "nonpayable",
      "type": "function"
    },
    {
      "inputs": [],
      "name": "balanceReceiver",
      "outputs": [
        {
          "internalType": "address",
          "name": "",
          "type": "address"
        }
      ],
      "stateMutability": "view",
      "type": "function"
    },
    {
      "inputs": [],
      "name": "buyPack",
      "outputs": [
        {
          "internalType": "uint256",
          "name": "",
          "type": "uint256"
        }
      ],
      "stateMutability": "nonpayable",
      "type": "function"
    },
    {
      "inputs": [
        {
          "internalType": "address",
          "name": "user",
          "type": "address"
        }
      ],
      "name": "buyPackByUser",
      "outputs": [
        {
          "internalType": "uint256",
          "name": "",
          "type": "uint256"
        }
      ],
      "stateMutability": "nonpayable",
      "type": "function"
    },
    {
      "inputs": [
        {
          "internalType": "uint256",
          "name": "numberOfPacks",
          "type": "uint256"
        }
      ],
      "name": "buyPacks",
      "outputs": [
        {
          "internalType": "uint256[]",
          "name": "",
          "type": "uint256[]"
        }
      ],
      "stateMutability": "nonpayable",
      "type": "function"
    },
    {
      "inputs": [
        {
          "internalType": "address",
          "name": "user",
          "type": "address"
        },
        {
          "internalType": "uint256",
          "name": "numberOfPacks",
          "type": "uint256"
        }
      ],
      "name": "buyPacksByUser",
      "outputs": [
        {
          "internalType": "uint256[]",
          "name": "",
          "type": "uint256[]"
        }
      ],
      "stateMutability": "nonpayable",
      "type": "function"
    },
    {
      "inputs": [
        {
          "internalType": "address",
          "name": "_newBalanceReceiver",
          "type": "address"
        }
      ],
      "name": "changeBalanceReceiver",
      "outputs": [],
      "stateMutability": "nonpayable",
      "type": "function"
    },
    {
      "inputs": [
        {
          "internalType": "uint256",
          "name": "_newPrice",
          "type": "uint256"
        }
      ],
      "name": "changePrice",
      "outputs": [],
      "stateMutability": "nonpayable",
      "type": "function"
    },
    {
      "inputs": [],
      "name": "gammaCardsContract",
      "outputs": [
        {
          "internalType": "contract IGammaCardsContract",
          "name": "",
          "type": "address"
        }
      ],
      "stateMutability": "view",
      "type": "function"
    },
    {
      "inputs": [
        {
          "internalType": "uint256",
          "name": "tokenId",
          "type": "uint256"
        }
      ],
      "name": "getPackOwner",
      "outputs": [
        {
          "internalType": "address",
          "name": "",
          "type": "address"
        }
      ],
      "stateMutability": "view",
      "type": "function"
    },
    {
      "inputs": [
        {
          "internalType": "address",
          "name": "owner",
          "type": "address"
        }
      ],
      "name": "getPacksByUser",
      "outputs": [
        {
          "internalType": "uint256[]",
          "name": "",
          "type": "uint256[]"
        }
      ],
      "stateMutability": "view",
      "type": "function"
    },
    {
      "inputs": [
        {
          "internalType": "uint256",
          "name": "tokenId",
          "type": "uint256"
        },
        {
          "internalType": "address",
          "name": "owner",
          "type": "address"
        }
      ],
      "name": "openPack",
      "outputs": [],
      "stateMutability": "nonpayable",
      "type": "function"
    },
    {
      "inputs": [],
      "name": "owner",
      "outputs": [
        {
          "internalType": "address",
          "name": "",
          "type": "address"
        }
      ],
      "stateMutability": "view",
      "type": "function"
    },
    {
      "inputs": [
        {
          "internalType": "address",
          "name": "",
          "type": "address"
        }
      ],
      "name": "owners",
      "outputs": [
        {
          "internalType": "bool",
          "name": "",
          "type": "bool"
        }
      ],
      "stateMutability": "view",
      "type": "function"
    },
    {
      "inputs": [],
      "name": "packPrice",
      "outputs": [
        {
          "internalType": "uint256",
          "name": "",
          "type": "uint256"
        }
      ],
      "stateMutability": "view",
      "type": "function"
    },
    {
      "inputs": [
        {
          "internalType": "uint256",
          "name": "tokenId",
          "type": "uint256"
        }
      ],
      "name": "packs",
      "outputs": [
        {
          "internalType": "address",
          "name": "owner",
          "type": "address"
        }
      ],
      "stateMutability": "view",
      "type": "function"
    },
    {
      "inputs": [
        {
          "internalType": "address",
          "name": "owner",
          "type": "address"
        },
        {
          "internalType": "uint256",
          "name": "",
          "type": "uint256"
        }
      ],
      "name": "packsByUser",
      "outputs": [
        {
          "internalType": "uint256",
          "name": "tokenIds",
          "type": "uint256"
        }
      ],
      "stateMutability": "view",
      "type": "function"
    },
    {
      "inputs": [
        {
          "internalType": "address",
          "name": "_ownerToRemove",
          "type": "address"
        }
      ],
      "name": "removeOwner",
      "outputs": [],
      "stateMutability": "nonpayable",
      "type": "function"
    },
    {
      "inputs": [],
      "name": "renounceOwnership",
      "outputs": [],
      "stateMutability": "nonpayable",
      "type": "function"
    },
    {
      "inputs": [
        {
          "internalType": "address",
          "name": "_gammaCardsContract",
          "type": "address"
        }
      ],
      "name": "setGammaCardsContract",
      "outputs": [],
      "stateMutability": "nonpayable",
      "type": "function"
    },
    {
      "inputs": [
        {
          "internalType": "uint256",
          "name": "tokenId",
          "type": "uint256"
        },
        {
          "internalType": "address",
          "name": "owner",
          "type": "address"
        }
      ],
      "name": "testOpenPack",
      "outputs": [],
      "stateMutability": "nonpayable",
      "type": "function"
    },
    {
      "inputs": [],
      "name": "totalSupply",
      "outputs": [
        {
          "internalType": "uint256",
          "name": "",
          "type": "uint256"
        }
      ],
      "stateMutability": "view",
      "type": "function"
    },
    {
      "inputs": [
        {
          "internalType": "address",
          "name": "newOwner",
          "type": "address"
        }
      ],
      "name": "transferOwnership",
      "outputs": [],
      "stateMutability": "nonpayable",
      "type": "function"
    },
    {
      "inputs": [
        {
          "internalType": "address",
          "name": "to",
          "type": "address"
        },
        {
          "internalType": "uint256",
          "name": "tokenId",
          "type": "uint256"
        }
      ],
      "name": "transferPack",
      "outputs": [],
      "stateMutability": "nonpayable",
      "type": "function"
    }
  ],
  "bytecode": "0x60806040526710a741a4627800006003553480156200001d57600080fd5b50604051620017cc380380620017cc833981016040819052620000409162000104565b6200004b3362000097565b600280546001600160a01b039384166001600160a01b03199182161790915560048054929093169116179055336000908152600860205260409020805460ff191660011790556200013c565b600080546001600160a01b038381166001600160a01b0319831681178455604051919092169283917f8be0079c531659141344cd1fd0a4f28419497f9722a3daafe3b4186f6b6457e09190a35050565b80516001600160a01b0381168114620000ff57600080fd5b919050565b600080604083850312156200011857600080fd5b6200012383620000e7565b91506200013360208401620000e7565b90509250929050565b611680806200014c6000396000f3fe608060405234801561001057600080fd5b506004361061018e5760003560e01c80638da5cb5b116100de578063c37b9bcd11610097578063d611713e11610071578063d611713e1461038f578063e0f78307146103a2578063e606df87146103b5578063f2fde38b146103c857600080fd5b8063c37b9bcd1461034b578063d250f03a14610353578063d3e6a7ad1461036657600080fd5b80638da5cb5b146102c55780638fd5baf7146102d6578063967ed63d146102e9578063a2b40d19146102fc578063b84c13921461030f578063bd7133801461033857600080fd5b8063627b253f1161014b5780636f62c53f116101255780636f62c53f146102845780637065cb4814610297578063715018a6146102aa57806380f2540b146102b257600080fd5b8063627b253f1461022657806362e21878146102515780636adbaf751461027157600080fd5b8063022914a714610193578063173825d9146101cb57806318160ddd146101e0578063335c8b63146101f757806339e8d3ec146102005780634c7a7ad314610213575b600080fd5b6101b66101a13660046113cf565b60086020526000908152604090205460ff1681565b60405190151581526020015b60405180910390f35b6101de6101d93660046113cf565b6103db565b005b6101e961c35081565b6040519081526020016101c2565b6101e960035481565b6101de61020e3660046113ea565b61052a565b6101de6102213660046113cf565b610582565b600454610239906001600160a01b031681565b6040516001600160a01b0390911681526020016101c2565b61026461025f366004611416565b61062c565b6040516101c2919061147b565b61026461027f36600461148e565b610671565b610264610292366004611416565b610679565b6101de6102a53660046113cf565b6109e6565b6101de610ac8565b6101de6102c03660046113ea565b610adc565b6000546001600160a01b0316610239565b6102646102e43660046113cf565b610b36565b6101e96102f73660046113cf565b610ba2565b6101de61030a36600461148e565b610bdf565b61023961031d36600461148e565b6006602052600090815260409020546001600160a01b031681565b6101e9610346366004611416565b610ca2565b6101e9610cd3565b600154610239906001600160a01b031681565b61023961037436600461148e565b6000908152600660205260409020546001600160a01b031690565b6101de61039d366004611416565b610ce3565b6101de6103b03660046113cf565b610e0c565b600254610239906001600160a01b031681565b6101de6103d63660046113cf565b610e83565b3360009081526008602052604090205460ff166104135760405162461bcd60e51b815260040161040a906114a7565b60405180910390fd5b6001600160a01b0381166104395760405162461bcd60e51b815260040161040a906114ea565b336001600160a01b038216036104a15760405162461bcd60e51b815260206004820152602760248201527f596f752063616e6e6f742072656d6f766520796f757273656c6620617320616e6044820152661037bbb732b91760c91b606482015260840161040a565b6001600160a01b03811660009081526008602052604090205460ff166105095760405162461bcd60e51b815260206004820152601860248201527f41646472657373206973206e6f7420616e206f776e65722e0000000000000000604482015260640161040a565b6001600160a01b03166000908152600860205260409020805460ff19169055565b3360009081526008602052604090205460ff166105595760405162461bcd60e51b815260040161040a906114a7565b6105638282610efc565b50600090815260066020526040902080546001600160a01b0319169055565b3360009081526008602052604090205460ff166105b15760405162461bcd60e51b815260040161040a906114a7565b6001600160a01b0381166105d75760405162461bcd60e51b815260040161040a906114ea565b600180546001600160a01b0319166001600160a01b0383169081179091556040519081527f45c9eba39b5ae3e7a6650b0a57bcb8e5d135936d56d111983dbc5860ae6760fa906020015b60405180910390a150565b3360009081526008602052604090205460609060ff1661065e5760405162461bcd60e51b815260040161040a906114a7565b6106688383610679565b90505b92915050565b606061066b33835b6001546060906001600160a01b03166106d45760405162461bcd60e51b815260206004820152601b60248201527f47616d6d614361726473436f6e7472616374206e6f74207365742e0000000000604482015260640161040a565b60008260066003546106e6919061152a565b6003546106f3919061154c565b6106fd919061155f565b905060008367ffffffffffffffff81111561071a5761071a611576565b604051908082528060200260200182016040528015610743578160200160208202803683370190505b50905060005b8481101561083257600061075c60055490565b905061c35081106107aa5760405162461bcd60e51b81526020600482015260186024820152772a3432b9329030b9329037379036b7b932903830b1b5b99760411b604482015260640161040a565b6107b8600580546001019055565b600081815260066020908152604080832080546001600160a01b0319166001600160a01b038c1690811790915583526007825282208054600181018255908352912001819055825181908490849081106108145761081461158c565b6020908102919091010152508061082a816115a2565b915050610749565b506001546040516322e949bf60e21b8152600481018490526001600160a01b0390911690638ba526fc90602401600060405180830381600087803b15801561087957600080fd5b505af115801561088d573d6000803e3d6000fd5b50506002546001546040516323b872dd60e01b81526001600160a01b0392831694506323b872dd93506108c8928a92169087906004016115bb565b6020604051808303816000875af11580156108e7573d6000803e3d6000fd5b505050506040513d601f19601f8201168201806040525081019061090b91906115df565b506002546004546003546001600160a01b03928316926323b872dd9289929116908690610939908a9061155f565b610943919061154c565b6040518463ffffffff1660e01b8152600401610961939291906115bb565b6020604051808303816000875af1158015610980573d6000803e3d6000fd5b505050506040513d601f19601f820116820180604052508101906109a491906115df565b507fccced7f637f56c0164dc795f58e00b6eab6aed650e35721023dc6dd2b8f6746d85826040516109d6929190611608565b60405180910390a1949350505050565b3360009081526008602052604090205460ff16610a155760405162461bcd60e51b815260040161040a906114a7565b6001600160a01b038116610a3b5760405162461bcd60e51b815260040161040a906114ea565b6001600160a01b03811660009081526008602052604090205460ff1615610aa45760405162461bcd60e51b815260206004820152601c60248201527f4164647265737320697320616c726561647920616e206f776e65722e00000000604482015260640161040a565b6001600160a01b03166000908152600860205260409020805460ff19166001179055565b610ad061103b565b610ada6000611095565b565b6001546001600160a01b031633146105595760405162461bcd60e51b815260206004820152601a60248201527f4974206973206e6f742061206361726420636f6e74726163742e000000000000604482015260640161040a565b6001600160a01b038116600090815260076020908152604091829020805483518184028101840190945280845260609392830182828015610b9657602002820191906000526020600020905b815481526020019060010190808311610b82575b50505050509050919050565b3360009081526008602052604081205460ff16610bd15760405162461bcd60e51b815260040161040a906114a7565b61066b826110e5565b919050565b3360009081526008602052604090205460ff16610c0e5760405162461bcd60e51b815260040161040a906114a7565b60038190556001546040516370c41e3760e11b8152600481018390526001600160a01b039091169063e1883c6e90602401600060405180830381600087803b158015610c5957600080fd5b505af1158015610c6d573d6000803e3d6000fd5b505050507f270b316b51ab2cf3a3bb8ca4d22e76a327d05e762fcaa8bd6afaf8cfde9270b78160405161062191815260200190565b60076020528160005260406000208181548110610cbe57600080fd5b90600052602060002001600091509150505481565b6000610cde336110e5565b905090565b6000818152600660205260409020546001600160a01b03163314610d495760405162461bcd60e51b815260206004820152601760248201527f54486973207061636b206973206e6f7420796f7572732e000000000000000000604482015260640161040a565b6001600160a01b038216610d6f5760405162461bcd60e51b815260040161040a906114ea565b600081815260066020526040902080546001600160a01b0319166001600160a01b038416179055610da08133610efc565b6001600160a01b038216600090815260076020908152604080832080546001810182559084529190922001829055517fddb6f61cc68e099150dacab8be873f19cc91f6ceb7d8237794124ede38722aaf90610e00903390859085906115bb565b60405180910390a15050565b3360009081526008602052604090205460ff16610e3b5760405162461bcd60e51b815260040161040a906114a7565b6001600160a01b038116610e615760405162461bcd60e51b815260040161040a906114ea565b600480546001600160a01b0319166001600160a01b0392909216919091179055565b610e8b61103b565b6001600160a01b038116610ef05760405162461bcd60e51b815260206004820152602660248201527f4f776e61626c653a206e6577206f776e657220697320746865207a65726f206160448201526564647265737360d01b606482015260840161040a565b610ef981611095565b50565b6001600160a01b038116600090815260076020526040812054905b81811015611035576001600160a01b0383166000908152600760205260409020805485919083908110610f4c57610f4c61158c565b906000526020600020015403611023576001600160a01b03831660009081526007602052604090208054610f829060019061154c565b81548110610f9257610f9261158c565b906000526020600020015460076000856001600160a01b03166001600160a01b031681526020019081526020016000208281548110610fd357610fd361158c565b60009182526020808320909101929092556001600160a01b038516815260079091526040902080548061100857611008611634565b60019003818190600052602060002001600090559055611035565b8061102d816115a2565b915050610f17565b50505050565b6000546001600160a01b03163314610ada5760405162461bcd60e51b815260206004820181905260248201527f4f776e61626c653a2063616c6c6572206973206e6f7420746865206f776e6572604482015260640161040a565b600080546001600160a01b038381166001600160a01b0319831681178455604051919092169283917f8be0079c531659141344cd1fd0a4f28419497f9722a3daafe3b4186f6b6457e09190a35050565b6001546000906001600160a01b03166111405760405162461bcd60e51b815260206004820152601b60248201527f47616d6d614361726473436f6e7472616374206e6f74207365742e0000000000604482015260640161040a565b600061114b60055490565b905061c35081106111995760405162461bcd60e51b81526020600482015260186024820152772a3432b9329030b9329037379036b7b932903830b1b5b99760411b604482015260640161040a565b6111a7600580546001019055565b600081815260066020818152604080842080546001600160a01b0319166001600160a01b03891690811790915584526007825283208054600181018255908452908320018390556003546111fb919061152a565b600354611208919061154c565b6001546040516322e949bf60e21b8152600481018390529192506001600160a01b031690638ba526fc90602401600060405180830381600087803b15801561124f57600080fd5b505af1158015611263573d6000803e3d6000fd5b50506002546001546040516323b872dd60e01b81526001600160a01b0392831694506323b872dd935061129e928992169086906004016115bb565b6020604051808303816000875af11580156112bd573d6000803e3d6000fd5b505050506040513d601f19601f820116820180604052508101906112e191906115df565b506002546004546003546001600160a01b03928316926323b872dd92889291169061130d90869061154c565b6040518463ffffffff1660e01b815260040161132b939291906115bb565b6020604051808303816000875af115801561134a573d6000803e3d6000fd5b505050506040513d601f19601f8201168201806040525081019061136e91906115df565b50604080516001600160a01b0386168152602081018490527f4bec02a302b11f990fe586d595753fd0163e88c0f3fff0cdcc10e831ac620e9a910160405180910390a15092915050565b80356001600160a01b0381168114610bda57600080fd5b6000602082840312156113e157600080fd5b610668826113b8565b600080604083850312156113fd57600080fd5b8235915061140d602084016113b8565b90509250929050565b6000806040838503121561142957600080fd5b611432836113b8565b946020939093013593505050565b600081518084526020808501945080840160005b8381101561147057815187529582019590820190600101611454565b509495945050505050565b6020815260006106686020830184611440565b6000602082840312156114a057600080fd5b5035919050565b60208082526023908201527f4f6e6c79206f776e6572732063616e2063616c6c20746869732066756e63746960408201526237b71760e91b606082015260800190565b60208082526010908201526f24b73b30b634b21030b2323932b9b99760811b604082015260600190565b634e487b7160e01b600052601160045260246000fd5b60008261154757634e487b7160e01b600052601260045260246000fd5b500490565b8181038181111561066b5761066b611514565b808202811582820484141761066b5761066b611514565b634e487b7160e01b600052604160045260246000fd5b634e487b7160e01b600052603260045260246000fd5b6000600182016115b4576115b4611514565b5060010190565b6001600160a01b039384168152919092166020820152604081019190915260600190565b6000602082840312156115f157600080fd5b8151801515811461160157600080fd5b9392505050565b6001600160a01b038316815260406020820181905260009061162c90830184611440565b949350505050565b634e487b7160e01b600052603160045260246000fdfea26469706673582212206cf58155ebdf0adc698593202d0503bbb160f3cf2f8f0a0c2ee03c780cc3905f64736f6c63430008120033",
  "linkReferences": {},
  "deployedLinkReferences": {}
}