{
  "_format": "hh-sol-artifact-1",
  "contractName": "NofGammaPacksV2",
  "sourceName": "contracts/gamma/GammaPacks.v2.sol",
  "abi": [
    {
      "inputs": [
        {
          "internalType": "address",
          "name": "_daiTokenAddress",
          "type": "address"
        },
        {
          "internalType": "address",
          "name": "_balanceReceiver",
          "type": "address"
        }
      ],
      "stateMutability": "nonpayable",
      "type": "constructor"
    },
    {
      "anonymous": false,
      "inputs": [
        {
          "indexed": false,
          "internalType": "address",
          "name": "newCardsContract",
          "type": "address"
        }
      ],
      "name": "NewGammaCardsContract",
      "type": "event"
    },
    {
      "anonymous": false,
      "inputs": [
        {
          "indexed": false,
          "internalType": "uint256",
          "name": "newPrice",
          "type": "uint256"
        }
      ],
      "name": "NewPrice",
      "type": "event"
    },
    {
      "anonymous": false,
      "inputs": [
        {
          "indexed": true,
          "internalType": "address",
          "name": "previousOwner",
          "type": "address"
        },
        {
          "indexed": true,
          "internalType": "address",
          "name": "newOwner",
          "type": "address"
        }
      ],
      "name": "OwnershipTransferred",
      "type": "event"
    },
    {
      "anonymous": false,
      "inputs": [
        {
          "indexed": false,
          "internalType": "address",
          "name": "buyer",
          "type": "address"
        },
        {
          "indexed": false,
          "internalType": "uint256",
          "name": "tokenId",
          "type": "uint256"
        }
      ],
      "name": "PackPurchase",
      "type": "event"
    },
    {
      "anonymous": false,
      "inputs": [
        {
          "indexed": false,
          "internalType": "address",
          "name": "from",
          "type": "address"
        },
        {
          "indexed": false,
          "internalType": "address",
          "name": "to",
          "type": "address"
        },
        {
          "indexed": false,
          "internalType": "uint256",
          "name": "tokenId",
          "type": "uint256"
        }
      ],
      "name": "PackTransfer",
      "type": "event"
    },
    {
      "anonymous": false,
      "inputs": [
        {
          "indexed": false,
          "internalType": "address",
          "name": "buyer",
          "type": "address"
        },
        {
          "indexed": false,
          "internalType": "uint256[]",
          "name": "tokenIds",
          "type": "uint256[]"
        }
      ],
      "name": "PacksPurchase",
      "type": "event"
    },
    {
      "inputs": [],
      "name": "DAI_TOKEN",
      "outputs": [
        {
          "internalType": "address",
          "name": "",
          "type": "address"
        }
      ],
      "stateMutability": "view",
      "type": "function"
    },
    {
      "inputs": [
        {
          "internalType": "address",
          "name": "user",
          "type": "address"
        },
        {
          "internalType": "uint256",
          "name": "numberOfPacks",
          "type": "uint256"
        }
      ],
      "name": "_buyPacks",
      "outputs": [
        {
          "internalType": "uint256[]",
          "name": "",
          "type": "uint256[]"
        }
      ],
      "stateMutability": "nonpayable",
      "type": "function"
    },
    {
      "inputs": [
        {
          "internalType": "address",
          "name": "_newOwner",
          "type": "address"
        }
      ],
      "name": "addOwner",
      "outputs": [],
      "stateMutability": "nonpayable",
      "type": "function"
    },
    {
      "inputs": [],
      "name": "balanceReceiver",
      "outputs": [
        {
          "internalType": "address",
          "name": "",
          "type": "address"
        }
      ],
      "stateMutability": "view",
      "type": "function"
    },
    {
      "inputs": [],
      "name": "buyPack",
      "outputs": [
        {
          "internalType": "uint256",
          "name": "",
          "type": "uint256"
        }
      ],
      "stateMutability": "nonpayable",
      "type": "function"
    },
    {
      "inputs": [
        {
          "internalType": "address",
          "name": "user",
          "type": "address"
        }
      ],
      "name": "buyPackByUser",
      "outputs": [
        {
          "internalType": "uint256",
          "name": "",
          "type": "uint256"
        }
      ],
      "stateMutability": "nonpayable",
      "type": "function"
    },
    {
      "inputs": [
        {
          "internalType": "uint256",
          "name": "numberOfPacks",
          "type": "uint256"
        }
      ],
      "name": "buyPacks",
      "outputs": [
        {
          "internalType": "uint256[]",
          "name": "",
          "type": "uint256[]"
        }
      ],
      "stateMutability": "nonpayable",
      "type": "function"
    },
    {
      "inputs": [
        {
          "internalType": "address",
          "name": "user",
          "type": "address"
        },
        {
          "internalType": "uint256",
          "name": "numberOfPacks",
          "type": "uint256"
        }
      ],
      "name": "buyPacksByUser",
      "outputs": [
        {
          "internalType": "uint256[]",
          "name": "",
          "type": "uint256[]"
        }
      ],
      "stateMutability": "nonpayable",
      "type": "function"
    },
    {
      "inputs": [
        {
          "internalType": "address",
          "name": "_newBalanceReceiver",
          "type": "address"
        }
      ],
      "name": "changeBalanceReceiver",
      "outputs": [],
      "stateMutability": "nonpayable",
      "type": "function"
    },
    {
      "inputs": [
        {
          "internalType": "uint256",
          "name": "_newPrice",
          "type": "uint256"
        }
      ],
      "name": "changePrice",
      "outputs": [],
      "stateMutability": "nonpayable",
      "type": "function"
    },
    {
      "inputs": [
        {
          "internalType": "bool",
          "name": "_transferDai",
          "type": "bool"
        }
      ],
      "name": "changeTransferDaiFlag",
      "outputs": [],
      "stateMutability": "nonpayable",
      "type": "function"
    },
    {
      "inputs": [],
      "name": "gammaCardsContract",
      "outputs": [
        {
          "internalType": "contract IGammaCardsContract",
          "name": "",
          "type": "address"
        }
      ],
      "stateMutability": "view",
      "type": "function"
    },
    {
      "inputs": [
        {
          "internalType": "uint256",
          "name": "tokenId",
          "type": "uint256"
        }
      ],
      "name": "getPackOwner",
      "outputs": [
        {
          "internalType": "address",
          "name": "",
          "type": "address"
        }
      ],
      "stateMutability": "view",
      "type": "function"
    },
    {
      "inputs": [
        {
          "internalType": "address",
          "name": "owner",
          "type": "address"
        }
      ],
      "name": "getPacksByUser",
      "outputs": [
        {
          "internalType": "uint256[]",
          "name": "",
          "type": "uint256[]"
        }
      ],
      "stateMutability": "view",
      "type": "function"
    },
    {
      "inputs": [
        {
          "internalType": "uint256",
          "name": "tokenId",
          "type": "uint256"
        },
        {
          "internalType": "address",
          "name": "owner",
          "type": "address"
        }
      ],
      "name": "openPack",
      "outputs": [],
      "stateMutability": "nonpayable",
      "type": "function"
    },
    {
      "inputs": [],
      "name": "owner",
      "outputs": [
        {
          "internalType": "address",
          "name": "",
          "type": "address"
        }
      ],
      "stateMutability": "view",
      "type": "function"
    },
    {
      "inputs": [
        {
          "internalType": "address",
          "name": "",
          "type": "address"
        }
      ],
      "name": "owners",
      "outputs": [
        {
          "internalType": "bool",
          "name": "",
          "type": "bool"
        }
      ],
      "stateMutability": "view",
      "type": "function"
    },
    {
      "inputs": [],
      "name": "packPrice",
      "outputs": [
        {
          "internalType": "uint256",
          "name": "",
          "type": "uint256"
        }
      ],
      "stateMutability": "view",
      "type": "function"
    },
    {
      "inputs": [
        {
          "internalType": "uint256",
          "name": "tokenId",
          "type": "uint256"
        }
      ],
      "name": "packs",
      "outputs": [
        {
          "internalType": "address",
          "name": "owner",
          "type": "address"
        }
      ],
      "stateMutability": "view",
      "type": "function"
    },
    {
      "inputs": [
        {
          "internalType": "address",
          "name": "owner",
          "type": "address"
        },
        {
          "internalType": "uint256",
          "name": "",
          "type": "uint256"
        }
      ],
      "name": "packsByUser",
      "outputs": [
        {
          "internalType": "uint256",
          "name": "tokenIds",
          "type": "uint256"
        }
      ],
      "stateMutability": "view",
      "type": "function"
    },
    {
      "inputs": [
        {
          "internalType": "address",
          "name": "_ownerToRemove",
          "type": "address"
        }
      ],
      "name": "removeOwner",
      "outputs": [],
      "stateMutability": "nonpayable",
      "type": "function"
    },
    {
      "inputs": [],
      "name": "renounceOwnership",
      "outputs": [],
      "stateMutability": "nonpayable",
      "type": "function"
    },
    {
      "inputs": [
        {
          "internalType": "address",
          "name": "_gammaCardsContract",
          "type": "address"
        }
      ],
      "name": "setGammaCardsContract",
      "outputs": [],
      "stateMutability": "nonpayable",
      "type": "function"
    },
    {
      "inputs": [
        {
          "internalType": "uint256",
          "name": "tokenId",
          "type": "uint256"
        },
        {
          "internalType": "address",
          "name": "owner",
          "type": "address"
        }
      ],
      "name": "testOpenPack",
      "outputs": [],
      "stateMutability": "nonpayable",
      "type": "function"
    },
    {
      "inputs": [],
      "name": "totalSupply",
      "outputs": [
        {
          "internalType": "uint256",
          "name": "",
          "type": "uint256"
        }
      ],
      "stateMutability": "view",
      "type": "function"
    },
    {
      "inputs": [
        {
          "internalType": "address",
          "name": "newOwner",
          "type": "address"
        }
      ],
      "name": "transferOwnership",
      "outputs": [],
      "stateMutability": "nonpayable",
      "type": "function"
    },
    {
      "inputs": [
        {
          "internalType": "address",
          "name": "to",
          "type": "address"
        },
        {
          "internalType": "uint256",
          "name": "tokenId",
          "type": "uint256"
        }
      ],
      "name": "transferPack",
      "outputs": [],
      "stateMutability": "nonpayable",
      "type": "function"
    }
  ],
  "bytecode": "0x60806040526710a741a4627800006003556006805460ff191690553480156200002757600080fd5b506040516200189a3803806200189a8339810160408190526200004a916200011a565b6200005533620000ad565b600280546001600160a01b039384166001600160a01b03199182161790915560048054929093169116179055336000908152600960205260409020805460ff1990811660011790915560068054909116905562000152565b600080546001600160a01b038381166001600160a01b0319831681178455604051919092169283917f8be0079c531659141344cd1fd0a4f28419497f9722a3daafe3b4186f6b6457e09190a35050565b80516001600160a01b03811681146200011557600080fd5b919050565b600080604083850312156200012e57600080fd5b6200013983620000fd565b91506200014960208401620000fd565b90509250929050565b61173880620001626000396000f3fe608060405234801561001057600080fd5b50600436106101a95760003560e01c80638da5cb5b116100f9578063c37b9bcd11610097578063d611713e11610071578063d611713e146103bd578063e0f78307146103d0578063e606df87146103e3578063f2fde38b146103f657600080fd5b8063c37b9bcd14610379578063d250f03a14610381578063d3e6a7ad1461039457600080fd5b806399e5f896116100d357806399e5f89614610317578063a2b40d191461032a578063b84c13921461033d578063bd7133801461036657600080fd5b80638da5cb5b146102e05780638fd5baf7146102f1578063967ed63d1461030457600080fd5b8063627b253f116101665780636f62c53f116101405780636f62c53f1461029f5780637065cb48146102b2578063715018a6146102c557806380f2540b146102cd57600080fd5b8063627b253f1461024157806362e218781461026c5780636adbaf751461028c57600080fd5b8063022914a7146101ae578063173825d9146101e657806318160ddd146101fb578063335c8b631461021257806339e8d3ec1461021b5780634c7a7ad31461022e575b600080fd5b6101d16101bc366004611461565b60096020526000908152604090205460ff1681565b60405190151581526020015b60405180910390f35b6101f96101f4366004611461565b610409565b005b61020461c35081565b6040519081526020016101dd565b61020460035481565b6101f961022936600461147c565b610558565b6101f961023c366004611461565b6105b0565b600454610254906001600160a01b031681565b6040516001600160a01b0390911681526020016101dd565b61027f61027a3660046114a8565b61065a565b6040516101dd919061150d565b61027f61029a366004611520565b61069f565b61027f6102ad3660046114a8565b6106a7565b6101f96102c0366004611461565b610a24565b6101f9610b06565b6101f96102db36600461147c565b610b1a565b6000546001600160a01b0316610254565b61027f6102ff366004611461565b610b74565b610204610312366004611461565b610be0565b6101f9610325366004611547565b610c1d565b6101f9610338366004611520565b610c5f565b61025461034b366004611520565b6007602052600090815260409020546001600160a01b031681565b6102046103743660046114a8565b610d22565b610204610d53565b600154610254906001600160a01b031681565b6102546103a2366004611520565b6000908152600760205260409020546001600160a01b031690565b6101f96103cb3660046114a8565b610d63565b6101f96103de366004611461565b610e8c565b600254610254906001600160a01b031681565b6101f9610404366004611461565b610f03565b3360009081526009602052604090205460ff166104415760405162461bcd60e51b81526004016104389061156b565b60405180910390fd5b6001600160a01b0381166104675760405162461bcd60e51b8152600401610438906115ae565b336001600160a01b038216036104cf5760405162461bcd60e51b815260206004820152602760248201527f596f752063616e6e6f742072656d6f766520796f757273656c6620617320616e6044820152661037bbb732b91760c91b6064820152608401610438565b6001600160a01b03811660009081526009602052604090205460ff166105375760405162461bcd60e51b815260206004820152601860248201527f41646472657373206973206e6f7420616e206f776e65722e00000000000000006044820152606401610438565b6001600160a01b03166000908152600960205260409020805460ff19169055565b3360009081526009602052604090205460ff166105875760405162461bcd60e51b81526004016104389061156b565b6105918282610f7c565b50600090815260076020526040902080546001600160a01b0319169055565b3360009081526009602052604090205460ff166105df5760405162461bcd60e51b81526004016104389061156b565b6001600160a01b0381166106055760405162461bcd60e51b8152600401610438906115ae565b600180546001600160a01b0319166001600160a01b0383169081179091556040519081527f45c9eba39b5ae3e7a6650b0a57bcb8e5d135936d56d111983dbc5860ae6760fa906020015b60405180910390a150565b3360009081526009602052604090205460609060ff1661068c5760405162461bcd60e51b81526004016104389061156b565b61069683836106a7565b90505b92915050565b606061069933835b6001546060906001600160a01b03166107025760405162461bcd60e51b815260206004820152601b60248201527f47616d6d614361726473436f6e7472616374206e6f74207365742e00000000006044820152606401610438565b600082600660035461071491906115ee565b6003546107219190611610565b61072b9190611623565b905060008367ffffffffffffffff8111156107485761074861163a565b604051908082528060200260200182016040528015610771578160200160208202803683370190505b50905060005b8481101561086057600061078a60055490565b905061c35081106107d85760405162461bcd60e51b81526020600482015260186024820152772a3432b9329030b9329037379036b7b932903830b1b5b99760411b6044820152606401610438565b6107e6600580546001019055565b600081815260076020908152604080832080546001600160a01b0319166001600160a01b038c16908117909155835260088252822080546001810182559083529120018190558251819084908490811061084257610842611650565b6020908102919091010152508061085881611666565b915050610777565b506001546040516322e949bf60e21b8152600481018490526001600160a01b0390911690638ba526fc90602401600060405180830381600087803b1580156108a757600080fd5b505af11580156108bb573d6000803e3d6000fd5b505060065460ff161591506109e39050576002546001546040516323b872dd60e01b81526001600160a01b03928316926323b872dd92610905928a9290911690879060040161167f565b6020604051808303816000875af1158015610924573d6000803e3d6000fd5b505050506040513d601f19601f8201168201806040525081019061094891906116a3565b506002546004546003546001600160a01b03928316926323b872dd9289929116908690610976908a90611623565b6109809190611610565b6040518463ffffffff1660e01b815260040161099e9392919061167f565b6020604051808303816000875af11580156109bd573d6000803e3d6000fd5b505050506040513d601f19601f820116820180604052508101906109e191906116a3565b505b7fccced7f637f56c0164dc795f58e00b6eab6aed650e35721023dc6dd2b8f6746d8582604051610a149291906116c0565b60405180910390a1949350505050565b3360009081526009602052604090205460ff16610a535760405162461bcd60e51b81526004016104389061156b565b6001600160a01b038116610a795760405162461bcd60e51b8152600401610438906115ae565b6001600160a01b03811660009081526009602052604090205460ff1615610ae25760405162461bcd60e51b815260206004820152601c60248201527f4164647265737320697320616c726561647920616e206f776e65722e000000006044820152606401610438565b6001600160a01b03166000908152600960205260409020805460ff19166001179055565b610b0e6110bb565b610b186000611115565b565b6001546001600160a01b031633146105875760405162461bcd60e51b815260206004820152601a60248201527f4974206973206e6f742061206361726420636f6e74726163742e0000000000006044820152606401610438565b6001600160a01b038116600090815260086020908152604091829020805483518184028101840190945280845260609392830182828015610bd457602002820191906000526020600020905b815481526020019060010190808311610bc0575b50505050509050919050565b3360009081526009602052604081205460ff16610c0f5760405162461bcd60e51b81526004016104389061156b565b61069982611165565b919050565b3360009081526009602052604090205460ff16610c4c5760405162461bcd60e51b81526004016104389061156b565b6006805460ff1916911515919091179055565b3360009081526009602052604090205460ff16610c8e5760405162461bcd60e51b81526004016104389061156b565b60038190556001546040516370c41e3760e11b8152600481018390526001600160a01b039091169063e1883c6e90602401600060405180830381600087803b158015610cd957600080fd5b505af1158015610ced573d6000803e3d6000fd5b505050507f270b316b51ab2cf3a3bb8ca4d22e76a327d05e762fcaa8bd6afaf8cfde9270b78160405161064f91815260200190565b60086020528160005260406000208181548110610d3e57600080fd5b90600052602060002001600091509150505481565b6000610d5e33611165565b905090565b6000818152600760205260409020546001600160a01b03163314610dc95760405162461bcd60e51b815260206004820152601760248201527f54486973207061636b206973206e6f7420796f7572732e0000000000000000006044820152606401610438565b6001600160a01b038216610def5760405162461bcd60e51b8152600401610438906115ae565b600081815260076020526040902080546001600160a01b0319166001600160a01b038416179055610e208133610f7c565b6001600160a01b038216600090815260086020908152604080832080546001810182559084529190922001829055517fddb6f61cc68e099150dacab8be873f19cc91f6ceb7d8237794124ede38722aaf90610e809033908590859061167f565b60405180910390a15050565b3360009081526009602052604090205460ff16610ebb5760405162461bcd60e51b81526004016104389061156b565b6001600160a01b038116610ee15760405162461bcd60e51b8152600401610438906115ae565b600480546001600160a01b0319166001600160a01b0392909216919091179055565b610f0b6110bb565b6001600160a01b038116610f705760405162461bcd60e51b815260206004820152602660248201527f4f776e61626c653a206e6577206f776e657220697320746865207a65726f206160448201526564647265737360d01b6064820152608401610438565b610f7981611115565b50565b6001600160a01b038116600090815260086020526040812054905b818110156110b5576001600160a01b0383166000908152600860205260409020805485919083908110610fcc57610fcc611650565b9060005260206000200154036110a3576001600160a01b0383166000908152600860205260409020805461100290600190611610565b8154811061101257611012611650565b906000526020600020015460086000856001600160a01b03166001600160a01b03168152602001908152602001600020828154811061105357611053611650565b60009182526020808320909101929092556001600160a01b0385168152600890915260409020805480611088576110886116ec565b600190038181906000526020600020016000905590556110b5565b806110ad81611666565b915050610f97565b50505050565b6000546001600160a01b03163314610b185760405162461bcd60e51b815260206004820181905260248201527f4f776e61626c653a2063616c6c6572206973206e6f7420746865206f776e65726044820152606401610438565b600080546001600160a01b038381166001600160a01b0319831681178455604051919092169283917f8be0079c531659141344cd1fd0a4f28419497f9722a3daafe3b4186f6b6457e09190a35050565b6001546000906001600160a01b03166111c05760405162461bcd60e51b815260206004820152601b60248201527f47616d6d614361726473436f6e7472616374206e6f74207365742e00000000006044820152606401610438565b60006111cb60055490565b905061c35081106112195760405162461bcd60e51b81526020600482015260186024820152772a3432b9329030b9329037379036b7b932903830b1b5b99760411b6044820152606401610438565b611227600580546001019055565b600081815260076020908152604080832080546001600160a01b0319166001600160a01b038816908117909155835260088252822080546001810182559083529082200182905560035461127d906006906115ee565b60035461128a9190611610565b6001546040516322e949bf60e21b8152600481018390529192506001600160a01b031690638ba526fc90602401600060405180830381600087803b1580156112d157600080fd5b505af11580156112e5573d6000803e3d6000fd5b505060065460ff161591506114019050576002546001546040516323b872dd60e01b81526001600160a01b03928316926323b872dd9261132f92899290911690869060040161167f565b6020604051808303816000875af115801561134e573d6000803e3d6000fd5b505050506040513d601f19601f8201168201806040525081019061137291906116a3565b506002546004546003546001600160a01b03928316926323b872dd92889291169061139e908690611610565b6040518463ffffffff1660e01b81526004016113bc9392919061167f565b6020604051808303816000875af11580156113db573d6000803e3d6000fd5b505050506040513d601f19601f820116820180604052508101906113ff91906116a3565b505b604080516001600160a01b0386168152602081018490527f4bec02a302b11f990fe586d595753fd0163e88c0f3fff0cdcc10e831ac620e9a910160405180910390a15092915050565b80356001600160a01b0381168114610c1857600080fd5b60006020828403121561147357600080fd5b6106968261144a565b6000806040838503121561148f57600080fd5b8235915061149f6020840161144a565b90509250929050565b600080604083850312156114bb57600080fd5b6114c48361144a565b946020939093013593505050565b600081518084526020808501945080840160005b83811015611502578151875295820195908201906001016114e6565b509495945050505050565b60208152600061069660208301846114d2565b60006020828403121561153257600080fd5b5035919050565b8015158114610f7957600080fd5b60006020828403121561155957600080fd5b813561156481611539565b9392505050565b60208082526023908201527f4f6e6c79206f776e6572732063616e2063616c6c20746869732066756e63746960408201526237b71760e91b606082015260800190565b60208082526010908201526f24b73b30b634b21030b2323932b9b99760811b604082015260600190565b634e487b7160e01b600052601160045260246000fd5b60008261160b57634e487b7160e01b600052601260045260246000fd5b500490565b81810381811115610699576106996115d8565b8082028115828204841417610699576106996115d8565b634e487b7160e01b600052604160045260246000fd5b634e487b7160e01b600052603260045260246000fd5b600060018201611678576116786115d8565b5060010190565b6001600160a01b039384168152919092166020820152604081019190915260600190565b6000602082840312156116b557600080fd5b815161156481611539565b6001600160a01b03831681526040602082018190526000906116e4908301846114d2565b949350505050565b634e487b7160e01b600052603160045260246000fdfea26469706673582212200e7d9f062c949640542ce5dc2d5c2fd1bd1fa9caf399abd78031ecc31f99c29464736f6c63430008120033",
  "linkReferences": {},
  "deployedLinkReferences": {}
}