{
  "_format": "hh-sol-artifact-1",
  "contractName": "NofGammaPacksV2",
  "sourceName": "contracts/gamma/GammaPacks.v2.sol",
  "abi": [
    {
      "inputs": [
        {
          "internalType": "address",
          "name": "_daiTokenAddress",
          "type": "address"
        },
        {
          "internalType": "address",
          "name": "_balanceReceiver",
          "type": "address"
        }
      ],
      "stateMutability": "nonpayable",
      "type": "constructor"
    },
    {
      "anonymous": false,
      "inputs": [
        {
          "indexed": false,
          "internalType": "address",
          "name": "newCardsContract",
          "type": "address"
        }
      ],
      "name": "NewCardsContract",
      "type": "event"
    },
    {
      "anonymous": false,
      "inputs": [
        {
          "indexed": false,
          "internalType": "uint256",
          "name": "newPrice",
          "type": "uint256"
        }
      ],
      "name": "NewPrice",
      "type": "event"
    },
    {
      "anonymous": false,
      "inputs": [
        {
          "indexed": true,
          "internalType": "address",
          "name": "previousOwner",
          "type": "address"
        },
        {
          "indexed": true,
          "internalType": "address",
          "name": "newOwner",
          "type": "address"
        }
      ],
      "name": "OwnershipTransferred",
      "type": "event"
    },
    {
      "anonymous": false,
      "inputs": [
        {
          "indexed": false,
          "internalType": "address",
          "name": "buyer",
          "type": "address"
        },
        {
          "indexed": false,
          "internalType": "uint256",
          "name": "tokenId",
          "type": "uint256"
        }
      ],
      "name": "PackPurchase",
      "type": "event"
    },
    {
      "anonymous": false,
      "inputs": [
        {
          "indexed": false,
          "internalType": "address",
          "name": "from",
          "type": "address"
        },
        {
          "indexed": false,
          "internalType": "address",
          "name": "to",
          "type": "address"
        },
        {
          "indexed": false,
          "internalType": "uint256",
          "name": "tokenId",
          "type": "uint256"
        }
      ],
      "name": "PackTransfer",
      "type": "event"
    },
    {
      "anonymous": false,
      "inputs": [
        {
          "indexed": false,
          "internalType": "address",
          "name": "buyer",
          "type": "address"
        },
        {
          "indexed": false,
          "internalType": "uint256[]",
          "name": "tokenIds",
          "type": "uint256[]"
        }
      ],
      "name": "PacksPurchase",
      "type": "event"
    },
    {
      "inputs": [],
      "name": "DAI_TOKEN",
      "outputs": [
        {
          "internalType": "address",
          "name": "",
          "type": "address"
        }
      ],
      "stateMutability": "view",
      "type": "function"
    },
    {
      "inputs": [
        {
          "internalType": "address",
          "name": "_newOwner",
          "type": "address"
        }
      ],
      "name": "addOwner",
      "outputs": [],
      "stateMutability": "nonpayable",
      "type": "function"
    },
    {
      "inputs": [],
      "name": "balanceReceiver",
      "outputs": [
        {
          "internalType": "address",
          "name": "",
          "type": "address"
        }
      ],
      "stateMutability": "view",
      "type": "function"
    },
    {
      "inputs": [],
      "name": "buyPack",
      "outputs": [
        {
          "internalType": "uint256",
          "name": "",
          "type": "uint256"
        }
      ],
      "stateMutability": "nonpayable",
      "type": "function"
    },
    {
      "inputs": [
        {
          "internalType": "uint256",
          "name": "numberOfPacks",
          "type": "uint256"
        }
      ],
      "name": "buyPacks",
      "outputs": [
        {
          "internalType": "uint256[]",
          "name": "",
          "type": "uint256[]"
        }
      ],
      "stateMutability": "nonpayable",
      "type": "function"
    },
    {
      "inputs": [],
      "name": "cardsContract",
      "outputs": [
        {
          "internalType": "contract ICardsContract",
          "name": "",
          "type": "address"
        }
      ],
      "stateMutability": "view",
      "type": "function"
    },
    {
      "inputs": [
        {
          "internalType": "address",
          "name": "_newBalanceReceiver",
          "type": "address"
        }
      ],
      "name": "changeBalanceReceiver",
      "outputs": [],
      "stateMutability": "nonpayable",
      "type": "function"
    },
    {
      "inputs": [
        {
          "internalType": "uint256",
          "name": "_newPrice",
          "type": "uint256"
        }
      ],
      "name": "changePrice",
      "outputs": [],
      "stateMutability": "nonpayable",
      "type": "function"
    },
    {
      "inputs": [
        {
          "internalType": "uint256",
          "name": "tokenId",
          "type": "uint256"
        }
      ],
      "name": "getPackOwner",
      "outputs": [
        {
          "internalType": "address",
          "name": "",
          "type": "address"
        }
      ],
      "stateMutability": "view",
      "type": "function"
    },
    {
      "inputs": [
        {
          "internalType": "address",
          "name": "owner",
          "type": "address"
        }
      ],
      "name": "getPacksByUser",
      "outputs": [
        {
          "internalType": "uint256[]",
          "name": "",
          "type": "uint256[]"
        }
      ],
      "stateMutability": "view",
      "type": "function"
    },
    {
      "inputs": [
        {
          "internalType": "uint256",
          "name": "tokenId",
          "type": "uint256"
        },
        {
          "internalType": "address",
          "name": "owner",
          "type": "address"
        }
      ],
      "name": "openPack",
      "outputs": [],
      "stateMutability": "nonpayable",
      "type": "function"
    },
    {
      "inputs": [],
      "name": "owner",
      "outputs": [
        {
          "internalType": "address",
          "name": "",
          "type": "address"
        }
      ],
      "stateMutability": "view",
      "type": "function"
    },
    {
      "inputs": [
        {
          "internalType": "address",
          "name": "",
          "type": "address"
        }
      ],
      "name": "owners",
      "outputs": [
        {
          "internalType": "bool",
          "name": "",
          "type": "bool"
        }
      ],
      "stateMutability": "view",
      "type": "function"
    },
    {
      "inputs": [],
      "name": "packPrice",
      "outputs": [
        {
          "internalType": "uint256",
          "name": "",
          "type": "uint256"
        }
      ],
      "stateMutability": "view",
      "type": "function"
    },
    {
      "inputs": [
        {
          "internalType": "uint256",
          "name": "tokenId",
          "type": "uint256"
        }
      ],
      "name": "packs",
      "outputs": [
        {
          "internalType": "address",
          "name": "owner",
          "type": "address"
        }
      ],
      "stateMutability": "view",
      "type": "function"
    },
    {
      "inputs": [
        {
          "internalType": "address",
          "name": "owner",
          "type": "address"
        },
        {
          "internalType": "uint256",
          "name": "",
          "type": "uint256"
        }
      ],
      "name": "packsByUser",
      "outputs": [
        {
          "internalType": "uint256",
          "name": "tokenIds",
          "type": "uint256"
        }
      ],
      "stateMutability": "view",
      "type": "function"
    },
    {
      "inputs": [
        {
          "internalType": "address",
          "name": "_ownerToRemove",
          "type": "address"
        }
      ],
      "name": "removeOwner",
      "outputs": [],
      "stateMutability": "nonpayable",
      "type": "function"
    },
    {
      "inputs": [],
      "name": "renounceOwnership",
      "outputs": [],
      "stateMutability": "nonpayable",
      "type": "function"
    },
    {
      "inputs": [
        {
          "internalType": "address",
          "name": "_cardsContract",
          "type": "address"
        }
      ],
      "name": "setCardsContract",
      "outputs": [],
      "stateMutability": "nonpayable",
      "type": "function"
    },
    {
      "inputs": [],
      "name": "totalSupply",
      "outputs": [
        {
          "internalType": "uint256",
          "name": "",
          "type": "uint256"
        }
      ],
      "stateMutability": "view",
      "type": "function"
    },
    {
      "inputs": [
        {
          "internalType": "address",
          "name": "newOwner",
          "type": "address"
        }
      ],
      "name": "transferOwnership",
      "outputs": [],
      "stateMutability": "nonpayable",
      "type": "function"
    },
    {
      "inputs": [
        {
          "internalType": "address",
          "name": "to",
          "type": "address"
        },
        {
          "internalType": "uint256",
          "name": "tokenId",
          "type": "uint256"
        }
      ],
      "name": "transferPack",
      "outputs": [],
      "stateMutability": "nonpayable",
      "type": "function"
    }
  ],
  "bytecode": "0x60a06040526710a741a4627800006003556000196080523480156200002357600080fd5b50604051620017b7380380620017b783398101604081905262000046916200010a565b62000051336200009d565b600280546001600160a01b039384166001600160a01b03199182161790915560048054929093169116179055336000908152600860205260409020805460ff1916600117905562000142565b600080546001600160a01b038381166001600160a01b0319831681178455604051919092169283917f8be0079c531659141344cd1fd0a4f28419497f9722a3daafe3b4186f6b6457e09190a35050565b80516001600160a01b03811681146200010557600080fd5b919050565b600080604083850312156200011e57600080fd5b6200012983620000ed565b91506200013960208401620000ed565b90509250929050565b60805161165c6200015b6000396000505061165c6000f3fe608060405234801561001057600080fd5b50600436106101415760003560e01c80638da5cb5b116100b8578063c37b9bcd1161007c578063c37b9bcd146102c5578063d3e6a7ad146102cd578063d611713e146102f6578063e0f7830714610309578063e606df871461031c578063f2fde38b1461032f57600080fd5b80638da5cb5b146102525780638fd5baf714610263578063a2b40d1914610276578063b84c139214610289578063bd713380146102b257600080fd5b8063627b253f1161010a578063627b253f146101de5780636374cb8b146101f15780636adbaf75146102045780637065cb4814610224578063715018a61461023757806380f2540b1461023f57600080fd5b806279ee2114610146578063022914a714610176578063173825d9146101a957806318160ddd146101be578063335c8b63146101d5575b600080fd5b600154610159906001600160a01b031681565b6040516001600160a01b0390911681526020015b60405180910390f35b610199610184366004611315565b60086020526000908152604090205460ff1681565b604051901515815260200161016d565b6101bc6101b7366004611315565b610342565b005b6101c761c35081565b60405190815260200161016d565b6101c760035481565b600454610159906001600160a01b031681565b6101bc6101ff366004611315565b610428565b610217610212366004611337565b6104ac565b60405161016d919061138b565b6101bc610232366004611315565b61080d565b6101bc610886565b6101bc61024d36600461139e565b61089a565b6000546001600160a01b0316610159565b610217610271366004611315565b61091d565b6101bc610284366004611337565b610989565b610159610297366004611337565b6006602052600090815260409020546001600160a01b031681565b6101c76102c03660046113ca565b610a4c565b6101c7610a7d565b6101596102db366004611337565b6000908152600660205260409020546001600160a01b031690565b6101bc6103043660046113ca565b610e24565b6101bc610317366004611315565b610f73565b600254610159906001600160a01b031681565b6101bc61033d366004611315565b610fea565b3360009081526008602052604090205460ff1661037a5760405162461bcd60e51b8152600401610371906113f4565b60405180910390fd5b6001600160a01b0381166103a05760405162461bcd60e51b815260040161037190611437565b336001600160a01b038216036104075760405162461bcd60e51b815260206004820152602660248201527f596f752063616e6e6f742072656d6f766520796f757273656c6620617320616e6044820152651037bbb732b960d11b6064820152608401610371565b6001600160a01b03166000908152600860205260409020805460ff19169055565b3360009081526008602052604090205460ff166104575760405162461bcd60e51b8152600401610371906113f4565b600180546001600160a01b0319166001600160a01b0383169081179091556040519081527f03fb71c656441080e12a35ef543bf2141601e59906bf22cf1952f28da56f45e1906020015b60405180910390a150565b6001546060906001600160a01b03166105075760405162461bcd60e51b815260206004820152601d60248201527f436f6e747261746f20646520636172746173206e6f207365746561646f0000006044820152606401610371565b60008260066003546105199190611476565b6003546105269190611498565b61053091906114b1565b905060008367ffffffffffffffff81111561054d5761054d6114c8565b604051908082528060200260200182016040528015610576578160200160208202803683370190505b50905060005b8481101561065a57600061058f60055490565b905061c35081106105db5760405162461bcd60e51b81526020600482015260166024820152755365206163616261726f6e206c6f7320736f6272657360501b6044820152606401610371565b6105e9600580546001019055565b600081815260066020908152604080832080546001600160a01b03191633908117909155835260078252822080546001810182559083529120018190558251819084908490811061063c5761063c6114de565b60209081029190910101525080610652816114f4565b91505061057c565b506001546040516322e949bf60e21b8152600481018490526001600160a01b0390911690638ba526fc90602401600060405180830381600087803b1580156106a157600080fd5b505af11580156106b5573d6000803e3d6000fd5b50506002546001546040516323b872dd60e01b81526001600160a01b0392831694506323b872dd93506106f09233921690879060040161150d565b6020604051808303816000875af115801561070f573d6000803e3d6000fd5b505050506040513d601f19601f820116820180604052508101906107339190611531565b506002546004546003546001600160a01b03928316926323b872dd9233929116908690610761908a906114b1565b61076b9190611498565b6040518463ffffffff1660e01b81526004016107899392919061150d565b6020604051808303816000875af11580156107a8573d6000803e3d6000fd5b505050506040513d601f19601f820116820180604052508101906107cc9190611531565b507fccced7f637f56c0164dc795f58e00b6eab6aed650e35721023dc6dd2b8f6746d33826040516107fe929190611553565b60405180910390a19392505050565b3360009081526008602052604090205460ff1661083c5760405162461bcd60e51b8152600401610371906113f4565b6001600160a01b0381166108625760405162461bcd60e51b815260040161037190611437565b6001600160a01b03166000908152600860205260409020805460ff19166001179055565b61088e611063565b61089860006110bd565b565b6001546001600160a01b031633146108f45760405162461bcd60e51b815260206004820152601860248201527f4e6f20657320636f6e747261746f2064652063617274617300000000000000006044820152606401610371565b6108fe828261110d565b50600090815260066020526040902080546001600160a01b0319169055565b6001600160a01b03811660009081526007602090815260409182902080548351818402810184019094528084526060939283018282801561097d57602002820191906000526020600020905b815481526020019060010190808311610969575b50505050509050919050565b3360009081526008602052604090205460ff166109b85760405162461bcd60e51b8152600401610371906113f4565b60038190556001546040516370c41e3760e11b8152600481018390526001600160a01b039091169063e1883c6e90602401600060405180830381600087803b158015610a0357600080fd5b505af1158015610a17573d6000803e3d6000fd5b505050507f270b316b51ab2cf3a3bb8ca4d22e76a327d05e762fcaa8bd6afaf8cfde9270b7816040516104a191815260200190565b60076020528160005260406000208181548110610a6857600080fd5b90600052602060002001600091509150505481565b6001546000906001600160a01b0316610ad85760405162461bcd60e51b815260206004820152601d60248201527f436f6e747261746f20646520636172746173206e6f207365746561646f0000006044820152606401610371565b6000610ae360055490565b9050610b12604051806040016040528060078152602001666275795061636b60c81b815250338361c35061124c565b61c3508110610b5c5760405162461bcd60e51b81526020600482015260166024820152755365206163616261726f6e206c6f7320736f6272657360501b6044820152606401610371565b610b6a600580546001019055565b600081815260066020818152604080842080546001600160a01b031916339081179091558452600782528320805460018101825590845290832001839055600354610bb59190611476565b600354610bc29190611498565b6001546040516322e949bf60e21b8152600481018390529192506001600160a01b031690638ba526fc90602401600060405180830381600087803b158015610c0957600080fd5b505af1158015610c1d573d6000803e3d6000fd5b50505050610c5f6040518060400160405280601981526020017f6275795061636b206265666f7265207472616e73666572203100000000000000815250611295565b6002546001546040516323b872dd60e01b81526001600160a01b03928316926323b872dd92610c9892339290911690869060040161150d565b6020604051808303816000875af1158015610cb7573d6000803e3d6000fd5b505050506040513d601f19601f82011682018060405250810190610cdb9190611531565b50610d1a6040518060400160405280601981526020017f6275795061636b206265666f7265207472616e73666572203200000000000000815250611295565b6002546004546003546001600160a01b03928316926323b872dd923392911690610d45908690611498565b6040518463ffffffff1660e01b8152600401610d639392919061150d565b6020604051808303816000875af1158015610d82573d6000803e3d6000fd5b505050506040513d601f19601f82011682018060405250810190610da69190611531565b50610de56040518060400160405280601981526020017f6275795061636b206265666f726520656d6974206576656e7400000000000000815250611295565b60408051338152602081018490527f4bec02a302b11f990fe586d595753fd0163e88c0f3fff0cdcc10e831ac620e9a910160405180910390a150919050565b6000818152600660205260409020546001600160a01b03163314610e8a5760405162461bcd60e51b815260206004820152601760248201527f457374652070617175657465206e6f206573207475796f0000000000000000006044820152606401610371565b6001600160a01b038216610ed65760405162461bcd60e51b81526020600482015260136024820152725175656d6172206e6f207065726d697469646f60681b6044820152606401610371565b600081815260066020526040902080546001600160a01b0319166001600160a01b038416179055610f07813361110d565b6001600160a01b038216600090815260076020908152604080832080546001810182559084529190922001829055517fddb6f61cc68e099150dacab8be873f19cc91f6ceb7d8237794124ede38722aaf90610f679033908590859061150d565b60405180910390a15050565b3360009081526008602052604090205460ff16610fa25760405162461bcd60e51b8152600401610371906113f4565b6001600160a01b038116610fc85760405162461bcd60e51b815260040161037190611437565b600480546001600160a01b0319166001600160a01b0392909216919091179055565b610ff2611063565b6001600160a01b0381166110575760405162461bcd60e51b815260206004820152602660248201527f4f776e61626c653a206e6577206f776e657220697320746865207a65726f206160448201526564647265737360d01b6064820152608401610371565b611060816110bd565b50565b6000546001600160a01b031633146108985760405162461bcd60e51b815260206004820181905260248201527f4f776e61626c653a2063616c6c6572206973206e6f7420746865206f776e65726044820152606401610371565b600080546001600160a01b038381166001600160a01b0319831681178455604051919092169283917f8be0079c531659141344cd1fd0a4f28419497f9722a3daafe3b4186f6b6457e09190a35050565b6001600160a01b038116600090815260076020526040812054905b81811015611246576001600160a01b038316600090815260076020526040902080548591908390811061115d5761115d6114de565b906000526020600020015403611234576001600160a01b0383166000908152600760205260409020805461119390600190611498565b815481106111a3576111a36114de565b906000526020600020015460076000856001600160a01b03166001600160a01b0316815260200190815260200160002082815481106111e4576111e46114de565b60009182526020808320909101929092556001600160a01b03851681526007909152604090208054806112195761121961157f565b60019003818190600052602060002001600090559055611246565b8061123e816114f4565b915050611128565b50505050565b6112468484848460405160240161126694939291906115db565b60408051601f198184030181529190526020810180516001600160e01b0316637c7a8d8f60e11b1790526112d4565b611060816040516024016112a99190611613565b60408051601f198184030181529190526020810180516001600160e01b031663104c13eb60e21b1790525b6110608160006a636f6e736f6c652e6c6f679050600080835160208501845afa505050565b80356001600160a01b038116811461131057600080fd5b919050565b60006020828403121561132757600080fd5b611330826112f9565b9392505050565b60006020828403121561134957600080fd5b5035919050565b600081518084526020808501945080840160005b8381101561138057815187529582019590820190600101611364565b509495945050505050565b6020815260006113306020830184611350565b600080604083850312156113b157600080fd5b823591506113c1602084016112f9565b90509250929050565b600080604083850312156113dd57600080fd5b6113e6836112f9565b946020939093013593505050565b60208082526023908201527f4f6e6c79206f776e6572732063616e2063616c6c20746869732066756e63746960408201526237b71760e91b606082015260800190565b6020808252600f908201526e496e76616c6964206164647265737360881b604082015260600190565b634e487b7160e01b600052601160045260246000fd5b60008261149357634e487b7160e01b600052601260045260246000fd5b500490565b818103818111156114ab576114ab611460565b92915050565b80820281158282048414176114ab576114ab611460565b634e487b7160e01b600052604160045260246000fd5b634e487b7160e01b600052603260045260246000fd5b60006001820161150657611506611460565b5060010190565b6001600160a01b039384168152919092166020820152604081019190915260600190565b60006020828403121561154357600080fd5b8151801515811461133057600080fd5b6001600160a01b038316815260406020820181905260009061157790830184611350565b949350505050565b634e487b7160e01b600052603160045260246000fd5b6000815180845260005b818110156115bb5760208185018101518683018201520161159f565b506000602082860101526020601f19601f83011685010191505092915050565b6080815260006115ee6080830187611595565b6001600160a01b03959095166020830152506040810192909252606090910152919050565b602081526000611330602083018461159556fea2646970667358221220b89ebcc8cd9935a32a5815778b866599052c00691abf5592f2a6d989f50a8b0664736f6c63430008120033",
  "linkReferences": {},
  "deployedLinkReferences": {}
}