{
  "_format": "hh-sol-artifact-1",
  "contractName": "NofGammaPacksV2",
  "sourceName": "contracts/gamma/GammaPacks.v2.sol",
  "abi": [
    {
      "inputs": [
        {
          "internalType": "address",
          "name": "_daiTokenAddress",
          "type": "address"
        },
        {
          "internalType": "address",
          "name": "_balanceReceiver",
          "type": "address"
        }
      ],
      "stateMutability": "nonpayable",
      "type": "constructor"
    },
    {
      "anonymous": false,
      "inputs": [
        {
          "indexed": false,
          "internalType": "address",
          "name": "newCardsContract",
          "type": "address"
        }
      ],
      "name": "NewGammaCardsContract",
      "type": "event"
    },
    {
      "anonymous": false,
      "inputs": [
        {
          "indexed": false,
          "internalType": "uint256",
          "name": "newPrice",
          "type": "uint256"
        }
      ],
      "name": "NewPrice",
      "type": "event"
    },
    {
      "anonymous": false,
      "inputs": [
        {
          "indexed": true,
          "internalType": "address",
          "name": "previousOwner",
          "type": "address"
        },
        {
          "indexed": true,
          "internalType": "address",
          "name": "newOwner",
          "type": "address"
        }
      ],
      "name": "OwnershipTransferred",
      "type": "event"
    },
    {
      "anonymous": false,
      "inputs": [
        {
          "indexed": false,
          "internalType": "address",
          "name": "buyer",
          "type": "address"
        },
        {
          "indexed": false,
          "internalType": "uint256",
          "name": "tokenId",
          "type": "uint256"
        }
      ],
      "name": "PackPurchase",
      "type": "event"
    },
    {
      "anonymous": false,
      "inputs": [
        {
          "indexed": false,
          "internalType": "address",
          "name": "from",
          "type": "address"
        },
        {
          "indexed": false,
          "internalType": "address",
          "name": "to",
          "type": "address"
        },
        {
          "indexed": false,
          "internalType": "uint256",
          "name": "tokenId",
          "type": "uint256"
        }
      ],
      "name": "PackTransfer",
      "type": "event"
    },
    {
      "anonymous": false,
      "inputs": [
        {
          "indexed": false,
          "internalType": "address",
          "name": "buyer",
          "type": "address"
        },
        {
          "indexed": false,
          "internalType": "uint256[]",
          "name": "tokenIds",
          "type": "uint256[]"
        }
      ],
      "name": "PacksPurchase",
      "type": "event"
    },
    {
      "inputs": [],
      "name": "DAI_TOKEN",
      "outputs": [
        {
          "internalType": "address",
          "name": "",
          "type": "address"
        }
      ],
      "stateMutability": "view",
      "type": "function"
    },
    {
      "inputs": [
        {
          "internalType": "address",
          "name": "_newOwner",
          "type": "address"
        }
      ],
      "name": "addOwner",
      "outputs": [],
      "stateMutability": "nonpayable",
      "type": "function"
    },
    {
      "inputs": [],
      "name": "balanceReceiver",
      "outputs": [
        {
          "internalType": "address",
          "name": "",
          "type": "address"
        }
      ],
      "stateMutability": "view",
      "type": "function"
    },
    {
      "inputs": [],
      "name": "buyPack",
      "outputs": [
        {
          "internalType": "uint256",
          "name": "",
          "type": "uint256"
        }
      ],
      "stateMutability": "nonpayable",
      "type": "function"
    },
    {
      "inputs": [
        {
          "internalType": "uint256",
          "name": "numberOfPacks",
          "type": "uint256"
        }
      ],
      "name": "buyPacks",
      "outputs": [
        {
          "internalType": "uint256[]",
          "name": "",
          "type": "uint256[]"
        }
      ],
      "stateMutability": "nonpayable",
      "type": "function"
    },
    {
      "inputs": [
        {
          "internalType": "address",
          "name": "_newBalanceReceiver",
          "type": "address"
        }
      ],
      "name": "changeBalanceReceiver",
      "outputs": [],
      "stateMutability": "nonpayable",
      "type": "function"
    },
    {
      "inputs": [
        {
          "internalType": "uint256",
          "name": "_newPrice",
          "type": "uint256"
        }
      ],
      "name": "changePrice",
      "outputs": [],
      "stateMutability": "nonpayable",
      "type": "function"
    },
    {
      "inputs": [],
      "name": "gammaCardsContract",
      "outputs": [
        {
          "internalType": "contract IGammaCardsContract",
          "name": "",
          "type": "address"
        }
      ],
      "stateMutability": "view",
      "type": "function"
    },
    {
      "inputs": [
        {
          "internalType": "uint256",
          "name": "tokenId",
          "type": "uint256"
        }
      ],
      "name": "getPackOwner",
      "outputs": [
        {
          "internalType": "address",
          "name": "",
          "type": "address"
        }
      ],
      "stateMutability": "view",
      "type": "function"
    },
    {
      "inputs": [
        {
          "internalType": "address",
          "name": "owner",
          "type": "address"
        }
      ],
      "name": "getPacksByUser",
      "outputs": [
        {
          "internalType": "uint256[]",
          "name": "",
          "type": "uint256[]"
        }
      ],
      "stateMutability": "view",
      "type": "function"
    },
    {
      "inputs": [
        {
          "internalType": "uint256",
          "name": "tokenId",
          "type": "uint256"
        },
        {
          "internalType": "address",
          "name": "owner",
          "type": "address"
        }
      ],
      "name": "openPack",
      "outputs": [],
      "stateMutability": "nonpayable",
      "type": "function"
    },
    {
      "inputs": [],
      "name": "owner",
      "outputs": [
        {
          "internalType": "address",
          "name": "",
          "type": "address"
        }
      ],
      "stateMutability": "view",
      "type": "function"
    },
    {
      "inputs": [
        {
          "internalType": "address",
          "name": "",
          "type": "address"
        }
      ],
      "name": "owners",
      "outputs": [
        {
          "internalType": "bool",
          "name": "",
          "type": "bool"
        }
      ],
      "stateMutability": "view",
      "type": "function"
    },
    {
      "inputs": [],
      "name": "packPrice",
      "outputs": [
        {
          "internalType": "uint256",
          "name": "",
          "type": "uint256"
        }
      ],
      "stateMutability": "view",
      "type": "function"
    },
    {
      "inputs": [
        {
          "internalType": "uint256",
          "name": "tokenId",
          "type": "uint256"
        }
      ],
      "name": "packs",
      "outputs": [
        {
          "internalType": "address",
          "name": "owner",
          "type": "address"
        }
      ],
      "stateMutability": "view",
      "type": "function"
    },
    {
      "inputs": [
        {
          "internalType": "address",
          "name": "owner",
          "type": "address"
        },
        {
          "internalType": "uint256",
          "name": "",
          "type": "uint256"
        }
      ],
      "name": "packsByUser",
      "outputs": [
        {
          "internalType": "uint256",
          "name": "tokenIds",
          "type": "uint256"
        }
      ],
      "stateMutability": "view",
      "type": "function"
    },
    {
      "inputs": [
        {
          "internalType": "address",
          "name": "_ownerToRemove",
          "type": "address"
        }
      ],
      "name": "removeOwner",
      "outputs": [],
      "stateMutability": "nonpayable",
      "type": "function"
    },
    {
      "inputs": [],
      "name": "renounceOwnership",
      "outputs": [],
      "stateMutability": "nonpayable",
      "type": "function"
    },
    {
      "inputs": [
        {
          "internalType": "address",
          "name": "_gammaCardsContract",
          "type": "address"
        }
      ],
      "name": "setGammaCardsContract",
      "outputs": [],
      "stateMutability": "nonpayable",
      "type": "function"
    },
    {
      "inputs": [
        {
          "internalType": "uint256",
          "name": "tokenId",
          "type": "uint256"
        },
        {
          "internalType": "address",
          "name": "owner",
          "type": "address"
        }
      ],
      "name": "testOpenPack",
      "outputs": [],
      "stateMutability": "nonpayable",
      "type": "function"
    },
    {
      "inputs": [],
      "name": "totalSupply",
      "outputs": [
        {
          "internalType": "uint256",
          "name": "",
          "type": "uint256"
        }
      ],
      "stateMutability": "view",
      "type": "function"
    },
    {
      "inputs": [
        {
          "internalType": "address",
          "name": "newOwner",
          "type": "address"
        }
      ],
      "name": "transferOwnership",
      "outputs": [],
      "stateMutability": "nonpayable",
      "type": "function"
    },
    {
      "inputs": [
        {
          "internalType": "address",
          "name": "to",
          "type": "address"
        },
        {
          "internalType": "uint256",
          "name": "tokenId",
          "type": "uint256"
        }
      ],
      "name": "transferPack",
      "outputs": [],
      "stateMutability": "nonpayable",
      "type": "function"
    }
  ],
  "bytecode": "0x60806040526710a741a4627800006003553480156200001d57600080fd5b50604051620016a6380380620016a6833981016040819052620000409162000104565b6200004b3362000097565b600280546001600160a01b039384166001600160a01b03199182161790915560048054929093169116179055336000908152600860205260409020805460ff191660011790556200013c565b600080546001600160a01b038381166001600160a01b0319831681178455604051919092169283917f8be0079c531659141344cd1fd0a4f28419497f9722a3daafe3b4186f6b6457e09190a35050565b80516001600160a01b0381168114620000ff57600080fd5b919050565b600080604083850312156200011857600080fd5b6200012383620000e7565b91506200013360208401620000e7565b90509250929050565b61155a806200014c6000396000f3fe608060405234801561001057600080fd5b506004361061014d5760003560e01c80638da5cb5b116100c3578063d250f03a1161007c578063d250f03a146102d9578063d3e6a7ad146102ec578063d611713e14610315578063e0f7830714610328578063e606df871461033b578063f2fde38b1461034e57600080fd5b80638da5cb5b1461025e5780638fd5baf71461026f578063a2b40d1914610282578063b84c139214610295578063bd713380146102be578063c37b9bcd146102d157600080fd5b80634c7a7ad3116101155780634c7a7ad3146101d2578063627b253f146101e55780636adbaf75146102105780637065cb4814610230578063715018a61461024357806380f2540b1461024b57600080fd5b8063022914a714610152578063173825d91461018a57806318160ddd1461019f578063335c8b63146101b657806339e8d3ec146101bf575b600080fd5b6101756101603660046112a3565b60086020526000908152604090205460ff1681565b60405190151581526020015b60405180910390f35b61019d6101983660046112a3565b610361565b005b6101a861c35081565b604051908152602001610181565b6101a860035481565b61019d6101cd3660046112c5565b6104b0565b61019d6101e03660046112a3565b610508565b6004546101f8906001600160a01b031681565b6040516001600160a01b039091168152602001610181565b61022361021e3660046112f1565b6105b2565b6040516101819190611345565b61019d61023e3660046112a3565b610915565b61019d6109f7565b61019d6102593660046112c5565b610a0b565b6000546001600160a01b03166101f8565b61022361027d3660046112a3565b610a65565b61019d6102903660046112f1565b610ad1565b6101f86102a33660046112f1565b6006602052600090815260409020546001600160a01b031681565b6101a86102cc366004611358565b610b94565b6101a8610bc5565b6001546101f8906001600160a01b031681565b6101f86102fa3660046112f1565b6000908152600660205260409020546001600160a01b031690565b61019d610323366004611358565b610e85565b61019d6103363660046112a3565b610fae565b6002546101f8906001600160a01b031681565b61019d61035c3660046112a3565b611025565b3360009081526008602052604090205460ff166103995760405162461bcd60e51b815260040161039090611382565b60405180910390fd5b6001600160a01b0381166103bf5760405162461bcd60e51b8152600401610390906113c5565b336001600160a01b038216036104275760405162461bcd60e51b815260206004820152602760248201527f596f752063616e6e6f742072656d6f766520796f757273656c6620617320616e6044820152661037bbb732b91760c91b6064820152608401610390565b6001600160a01b03811660009081526008602052604090205460ff1661048f5760405162461bcd60e51b815260206004820152601860248201527f41646472657373206973206e6f7420616e206f776e65722e00000000000000006044820152606401610390565b6001600160a01b03166000908152600860205260409020805460ff19169055565b3360009081526008602052604090205460ff166104df5760405162461bcd60e51b815260040161039090611382565b6104e9828261109e565b50600090815260066020526040902080546001600160a01b0319169055565b3360009081526008602052604090205460ff166105375760405162461bcd60e51b815260040161039090611382565b6001600160a01b03811661055d5760405162461bcd60e51b8152600401610390906113c5565b600180546001600160a01b0319166001600160a01b0383169081179091556040519081527f45c9eba39b5ae3e7a6650b0a57bcb8e5d135936d56d111983dbc5860ae6760fa906020015b60405180910390a150565b6001546060906001600160a01b031661060d5760405162461bcd60e51b815260206004820152601b60248201527f47616d6d614361726473436f6e7472616374206e6f74207365742e00000000006044820152606401610390565b600082600660035461061f9190611405565b60035461062c9190611427565b6106369190611440565b905060008367ffffffffffffffff81111561065357610653611457565b60405190808252806020026020018201604052801561067c578160200160208202803683370190505b50905060005b8481101561076257600061069560055490565b905061c35081106106e35760405162461bcd60e51b81526020600482015260186024820152772a3432b9329030b9329037379036b7b932903830b1b5b99760411b6044820152606401610390565b6106f1600580546001019055565b600081815260066020908152604080832080546001600160a01b0319163390811790915583526007825282208054600181018255908352912001819055825181908490849081106107445761074461146d565b6020908102919091010152508061075a81611483565b915050610682565b506001546040516322e949bf60e21b8152600481018490526001600160a01b0390911690638ba526fc90602401600060405180830381600087803b1580156107a957600080fd5b505af11580156107bd573d6000803e3d6000fd5b50506002546001546040516323b872dd60e01b81526001600160a01b0392831694506323b872dd93506107f89233921690879060040161149c565b6020604051808303816000875af1158015610817573d6000803e3d6000fd5b505050506040513d601f19601f8201168201806040525081019061083b91906114c0565b506002546004546003546001600160a01b03928316926323b872dd9233929116908690610869908a90611440565b6108739190611427565b6040518463ffffffff1660e01b81526004016108919392919061149c565b6020604051808303816000875af11580156108b0573d6000803e3d6000fd5b505050506040513d601f19601f820116820180604052508101906108d491906114c0565b507fccced7f637f56c0164dc795f58e00b6eab6aed650e35721023dc6dd2b8f6746d33826040516109069291906114e2565b60405180910390a19392505050565b3360009081526008602052604090205460ff166109445760405162461bcd60e51b815260040161039090611382565b6001600160a01b03811661096a5760405162461bcd60e51b8152600401610390906113c5565b6001600160a01b03811660009081526008602052604090205460ff16156109d35760405162461bcd60e51b815260206004820152601c60248201527f4164647265737320697320616c726561647920616e206f776e65722e000000006044820152606401610390565b6001600160a01b03166000908152600860205260409020805460ff19166001179055565b6109ff6111dd565b610a096000611237565b565b6001546001600160a01b031633146104df5760405162461bcd60e51b815260206004820152601a60248201527f4974206973206e6f742061206361726420636f6e74726163742e0000000000006044820152606401610390565b6001600160a01b038116600090815260076020908152604091829020805483518184028101840190945280845260609392830182828015610ac557602002820191906000526020600020905b815481526020019060010190808311610ab1575b50505050509050919050565b3360009081526008602052604090205460ff16610b005760405162461bcd60e51b815260040161039090611382565b60038190556001546040516370c41e3760e11b8152600481018390526001600160a01b039091169063e1883c6e90602401600060405180830381600087803b158015610b4b57600080fd5b505af1158015610b5f573d6000803e3d6000fd5b505050507f270b316b51ab2cf3a3bb8ca4d22e76a327d05e762fcaa8bd6afaf8cfde9270b7816040516105a791815260200190565b60076020528160005260406000208181548110610bb057600080fd5b90600052602060002001600091509150505481565b6001546000906001600160a01b0316610c205760405162461bcd60e51b815260206004820152601b60248201527f47616d6d614361726473436f6e7472616374206e6f74207365742e00000000006044820152606401610390565b6000610c2b60055490565b905061c3508110610c795760405162461bcd60e51b81526020600482015260186024820152772a3432b9329030b9329037379036b7b932903830b1b5b99760411b6044820152606401610390565b610c87600580546001019055565b600081815260066020818152604080842080546001600160a01b031916339081179091558452600782528320805460018101825590845290832001839055600354610cd29190611405565b600354610cdf9190611427565b6001546040516322e949bf60e21b8152600481018390529192506001600160a01b031690638ba526fc90602401600060405180830381600087803b158015610d2657600080fd5b505af1158015610d3a573d6000803e3d6000fd5b50506002546001546040516323b872dd60e01b81526001600160a01b0392831694506323b872dd9350610d759233921690869060040161149c565b6020604051808303816000875af1158015610d94573d6000803e3d6000fd5b505050506040513d601f19601f82011682018060405250810190610db891906114c0565b506002546004546003546001600160a01b03928316926323b872dd923392911690610de4908690611427565b6040518463ffffffff1660e01b8152600401610e029392919061149c565b6020604051808303816000875af1158015610e21573d6000803e3d6000fd5b505050506040513d601f19601f82011682018060405250810190610e4591906114c0565b5060408051338152602081018490527f4bec02a302b11f990fe586d595753fd0163e88c0f3fff0cdcc10e831ac620e9a910160405180910390a150919050565b6000818152600660205260409020546001600160a01b03163314610eeb5760405162461bcd60e51b815260206004820152601760248201527f54486973207061636b206973206e6f7420796f7572732e0000000000000000006044820152606401610390565b6001600160a01b038216610f115760405162461bcd60e51b8152600401610390906113c5565b600081815260066020526040902080546001600160a01b0319166001600160a01b038416179055610f42813361109e565b6001600160a01b038216600090815260076020908152604080832080546001810182559084529190922001829055517fddb6f61cc68e099150dacab8be873f19cc91f6ceb7d8237794124ede38722aaf90610fa29033908590859061149c565b60405180910390a15050565b3360009081526008602052604090205460ff16610fdd5760405162461bcd60e51b815260040161039090611382565b6001600160a01b0381166110035760405162461bcd60e51b8152600401610390906113c5565b600480546001600160a01b0319166001600160a01b0392909216919091179055565b61102d6111dd565b6001600160a01b0381166110925760405162461bcd60e51b815260206004820152602660248201527f4f776e61626c653a206e6577206f776e657220697320746865207a65726f206160448201526564647265737360d01b6064820152608401610390565b61109b81611237565b50565b6001600160a01b038116600090815260076020526040812054905b818110156111d7576001600160a01b03831660009081526007602052604090208054859190839081106110ee576110ee61146d565b9060005260206000200154036111c5576001600160a01b0383166000908152600760205260409020805461112490600190611427565b815481106111345761113461146d565b906000526020600020015460076000856001600160a01b03166001600160a01b0316815260200190815260200160002082815481106111755761117561146d565b60009182526020808320909101929092556001600160a01b03851681526007909152604090208054806111aa576111aa61150e565b600190038181906000526020600020016000905590556111d7565b806111cf81611483565b9150506110b9565b50505050565b6000546001600160a01b03163314610a095760405162461bcd60e51b815260206004820181905260248201527f4f776e61626c653a2063616c6c6572206973206e6f7420746865206f776e65726044820152606401610390565b600080546001600160a01b038381166001600160a01b0319831681178455604051919092169283917f8be0079c531659141344cd1fd0a4f28419497f9722a3daafe3b4186f6b6457e09190a35050565b80356001600160a01b038116811461129e57600080fd5b919050565b6000602082840312156112b557600080fd5b6112be82611287565b9392505050565b600080604083850312156112d857600080fd5b823591506112e860208401611287565b90509250929050565b60006020828403121561130357600080fd5b5035919050565b600081518084526020808501945080840160005b8381101561133a5781518752958201959082019060010161131e565b509495945050505050565b6020815260006112be602083018461130a565b6000806040838503121561136b57600080fd5b61137483611287565b946020939093013593505050565b60208082526023908201527f4f6e6c79206f776e6572732063616e2063616c6c20746869732066756e63746960408201526237b71760e91b606082015260800190565b60208082526010908201526f24b73b30b634b21030b2323932b9b99760811b604082015260600190565b634e487b7160e01b600052601160045260246000fd5b60008261142257634e487b7160e01b600052601260045260246000fd5b500490565b8181038181111561143a5761143a6113ef565b92915050565b808202811582820484141761143a5761143a6113ef565b634e487b7160e01b600052604160045260246000fd5b634e487b7160e01b600052603260045260246000fd5b600060018201611495576114956113ef565b5060010190565b6001600160a01b039384168152919092166020820152604081019190915260600190565b6000602082840312156114d257600080fd5b815180151581146112be57600080fd5b6001600160a01b03831681526040602082018190526000906115069083018461130a565b949350505050565b634e487b7160e01b600052603160045260246000fdfea26469706673582212207d6541b01983e7e914102214261bc4187f367bf315cfde6c7eb221f6d374f38264736f6c63430008120033",
  "linkReferences": {},
  "deployedLinkReferences": {}
}