{
  "_format": "hh-sol-artifact-1",
  "contractName": "ChainConstants",
  "sourceName": "contracts/testDai/TestDAI.v2.sol",
  "abi": [
    {
      "inputs": [],
      "name": "CHILD_CHAIN_ID",
      "outputs": [
        {
          "internalType": "uint256",
          "name": "",
          "type": "uint256"
        }
      ],
      "stateMutability": "view",
      "type": "function"
    },
    {
      "inputs": [],
      "name": "CHILD_CHAIN_ID_BYTES",
      "outputs": [
        {
          "internalType": "bytes",
          "name": "",
          "type": "bytes"
        }
      ],
      "stateMutability": "view",
      "type": "function"
    },
    {
      "inputs": [],
      "name": "ERC712_VERSION",
      "outputs": [
        {
          "internalType": "string",
          "name": "",
          "type": "string"
        }
      ],
      "stateMutability": "view",
      "type": "function"
    },
    {
      "inputs": [],
      "name": "ROOT_CHAIN_ID",
      "outputs": [
        {
          "internalType": "uint256",
          "name": "",
          "type": "uint256"
        }
      ],
      "stateMutability": "view",
      "type": "function"
    },
    {
      "inputs": [],
      "name": "ROOT_CHAIN_ID_BYTES",
      "outputs": [
        {
          "internalType": "bytes",
          "name": "",
          "type": "bytes"
        }
      ],
      "stateMutability": "view",
      "type": "function"
    }
  ],
  "bytecode": "0x608060405234801561001057600080fd5b50610186806100206000396000f3fe608060405234801561001057600080fd5b50600436106100575760003560e01c80630b54817c1461005c5780630dd7531a146100925780630f7e5970146100b2578063626381a0146100d25780638acfcaf7146100e8575b600080fd5b61007c604051806040016040528060018152602001608960f81b81525081565b6040516100899190610136565b60405180910390f35b61007c604051806040016040528060018152602001600160f81b81525081565b61007c604051806040016040528060018152602001603160f81b81525081565b6100da608981565b604051908152602001610089565b6100da600181565b6000815180845260005b81811015610116576020818501810151868301820152016100fa565b506000602082860101526020601f19601f83011685010191505092915050565b60208152600061014960208301846100f0565b939250505056fea2646970667358221220288491776e512dac5d0146286de6f142705064485a959103852d3ea628738ef364736f6c63430008120033",
  "linkReferences": {},
  "deployedLinkReferences": {}
}