{
  "_format": "hh-sol-artifact-1",
  "contractName": "Escrow",
  "sourceName": "contracts/Escrow.sol",
  "abi": [
    {
      "inputs": [
        {
          "internalType": "contract GammaCardsV2",
          "name": "_gammaCardsContract",
          "type": "address"
        },
        {
          "internalType": "address",
          "name": "_daiTokenAddress",
          "type": "address"
        }
      ],
      "stateMutability": "nonpayable",
      "type": "constructor"
    },
    {
      "anonymous": false,
      "inputs": [
        {
          "indexed": true,
          "internalType": "address",
          "name": "previousOwner",
          "type": "address"
        },
        {
          "indexed": true,
          "internalType": "address",
          "name": "newOwner",
          "type": "address"
        }
      ],
      "name": "OwnershipTransferred",
      "type": "event"
    },
    {
      "anonymous": false,
      "inputs": [
        {
          "indexed": true,
          "internalType": "uint256",
          "name": "saleId",
          "type": "uint256"
        }
      ],
      "name": "SaleCancelled",
      "type": "event"
    },
    {
      "anonymous": false,
      "inputs": [
        {
          "indexed": true,
          "internalType": "uint256",
          "name": "saleId",
          "type": "uint256"
        },
        {
          "indexed": true,
          "internalType": "address",
          "name": "seller",
          "type": "address"
        },
        {
          "indexed": true,
          "internalType": "address",
          "name": "buyer",
          "type": "address"
        },
        {
          "indexed": false,
          "internalType": "uint8",
          "name": "soldCard",
          "type": "uint8"
        }
      ],
      "name": "SaleCompleted",
      "type": "event"
    },
    {
      "anonymous": false,
      "inputs": [
        {
          "indexed": true,
          "internalType": "uint256",
          "name": "saleId",
          "type": "uint256"
        },
        {
          "indexed": false,
          "internalType": "uint8",
          "name": "offeredCard",
          "type": "uint8"
        }
      ],
      "name": "SaleCreated",
      "type": "event"
    },
    {
      "anonymous": false,
      "inputs": [
        {
          "indexed": true,
          "internalType": "uint256",
          "name": "tradeId",
          "type": "uint256"
        },
        {
          "indexed": true,
          "internalType": "address",
          "name": "offeror",
          "type": "address"
        },
        {
          "indexed": false,
          "internalType": "uint8",
          "name": "offeredCard",
          "type": "uint8"
        },
        {
          "indexed": true,
          "internalType": "address",
          "name": "acceptor",
          "type": "address"
        },
        {
          "indexed": false,
          "internalType": "uint8",
          "name": "wantedCard",
          "type": "uint8"
        }
      ],
      "name": "TradeAccepted",
      "type": "event"
    },
    {
      "anonymous": false,
      "inputs": [
        {
          "indexed": true,
          "internalType": "uint256",
          "name": "tradeId",
          "type": "uint256"
        },
        {
          "indexed": false,
          "internalType": "uint8",
          "name": "offeredCard",
          "type": "uint8"
        }
      ],
      "name": "TradeCancelled",
      "type": "event"
    },
    {
      "anonymous": false,
      "inputs": [
        {
          "indexed": true,
          "internalType": "uint256",
          "name": "tradeId",
          "type": "uint256"
        },
        {
          "indexed": false,
          "internalType": "uint8",
          "name": "offeredCard",
          "type": "uint8"
        },
        {
          "indexed": false,
          "internalType": "uint8[]",
          "name": "wantedCards",
          "type": "uint8[]"
        }
      ],
      "name": "TradeCreated",
      "type": "event"
    },
    {
      "anonymous": false,
      "inputs": [
        {
          "indexed": false,
          "internalType": "uint256",
          "name": "oldIndex",
          "type": "uint256"
        },
        {
          "indexed": false,
          "internalType": "uint256",
          "name": "newIndex",
          "type": "uint256"
        }
      ],
      "name": "UpdateSaleIndex",
      "type": "event"
    },
    {
      "anonymous": false,
      "inputs": [
        {
          "indexed": false,
          "internalType": "uint256",
          "name": "oldIndex",
          "type": "uint256"
        },
        {
          "indexed": false,
          "internalType": "uint256",
          "name": "newIndex",
          "type": "uint256"
        }
      ],
      "name": "UpdateTradeIndex",
      "type": "event"
    },
    {
      "inputs": [],
      "name": "CARD_PRICE",
      "outputs": [
        {
          "internalType": "uint256",
          "name": "",
          "type": "uint256"
        }
      ],
      "stateMutability": "view",
      "type": "function"
    },
    {
      "inputs": [],
      "name": "DAI_TOKEN",
      "outputs": [
        {
          "internalType": "contract IERC20",
          "name": "",
          "type": "address"
        }
      ],
      "stateMutability": "view",
      "type": "function"
    },
    {
      "inputs": [
        {
          "internalType": "uint256",
          "name": "_tradeId",
          "type": "uint256"
        },
        {
          "internalType": "uint8",
          "name": "_wantedCard",
          "type": "uint8"
        }
      ],
      "name": "acceptTrade",
      "outputs": [],
      "stateMutability": "nonpayable",
      "type": "function"
    },
    {
      "inputs": [
        {
          "internalType": "uint256",
          "name": "_saleId",
          "type": "uint256"
        }
      ],
      "name": "buyCardForDAI",
      "outputs": [],
      "stateMutability": "nonpayable",
      "type": "function"
    },
    {
      "inputs": [
        {
          "internalType": "uint256",
          "name": "_saleId",
          "type": "uint256"
        }
      ],
      "name": "cancelSale",
      "outputs": [],
      "stateMutability": "nonpayable",
      "type": "function"
    },
    {
      "inputs": [
        {
          "internalType": "uint256",
          "name": "_tradeId",
          "type": "uint256"
        }
      ],
      "name": "cancelTrade",
      "outputs": [],
      "stateMutability": "nonpayable",
      "type": "function"
    },
    {
      "inputs": [
        {
          "internalType": "uint8",
          "name": "_offeredCard",
          "type": "uint8"
        }
      ],
      "name": "createSale",
      "outputs": [],
      "stateMutability": "nonpayable",
      "type": "function"
    },
    {
      "inputs": [
        {
          "internalType": "uint8",
          "name": "_offeredCard",
          "type": "uint8"
        },
        {
          "internalType": "uint8[]",
          "name": "_wantedCards",
          "type": "uint8[]"
        }
      ],
      "name": "createTrade",
      "outputs": [],
      "stateMutability": "nonpayable",
      "type": "function"
    },
    {
      "inputs": [],
      "name": "gammaCardsContract",
      "outputs": [
        {
          "internalType": "contract GammaCardsV2",
          "name": "",
          "type": "address"
        }
      ],
      "stateMutability": "view",
      "type": "function"
    },
    {
      "inputs": [],
      "name": "owner",
      "outputs": [
        {
          "internalType": "address",
          "name": "",
          "type": "address"
        }
      ],
      "stateMutability": "view",
      "type": "function"
    },
    {
      "inputs": [],
      "name": "renounceOwnership",
      "outputs": [],
      "stateMutability": "nonpayable",
      "type": "function"
    },
    {
      "inputs": [
        {
          "internalType": "uint256",
          "name": "",
          "type": "uint256"
        }
      ],
      "name": "sales",
      "outputs": [
        {
          "internalType": "uint8",
          "name": "offeredCard",
          "type": "uint8"
        },
        {
          "internalType": "address",
          "name": "seller",
          "type": "address"
        },
        {
          "internalType": "uint32",
          "name": "createdOn",
          "type": "uint32"
        }
      ],
      "stateMutability": "view",
      "type": "function"
    },
    {
      "inputs": [
        {
          "internalType": "uint256",
          "name": "",
          "type": "uint256"
        }
      ],
      "name": "trades",
      "outputs": [
        {
          "internalType": "uint8",
          "name": "offeredCard",
          "type": "uint8"
        },
        {
          "internalType": "address",
          "name": "offeror",
          "type": "address"
        },
        {
          "internalType": "uint32",
          "name": "createdOn",
          "type": "uint32"
        }
      ],
      "stateMutability": "view",
      "type": "function"
    },
    {
      "inputs": [
        {
          "internalType": "address",
          "name": "newOwner",
          "type": "address"
        }
      ],
      "name": "transferOwnership",
      "outputs": [],
      "stateMutability": "nonpayable",
      "type": "function"
    }
  ],
  "bytecode": "0x60c06040523480156200001157600080fd5b5060405162002d5d38038062002d5d833981810160405281019062000037919062000242565b620000576200004b620000c760201b60201c565b620000cf60201b60201c565b8173ffffffffffffffffffffffffffffffffffffffff1660808173ffffffffffffffffffffffffffffffffffffffff16815250508073ffffffffffffffffffffffffffffffffffffffff1660a08173ffffffffffffffffffffffffffffffffffffffff1681525050505062000289565b600033905090565b60008060009054906101000a900473ffffffffffffffffffffffffffffffffffffffff169050816000806101000a81548173ffffffffffffffffffffffffffffffffffffffff021916908373ffffffffffffffffffffffffffffffffffffffff1602179055508173ffffffffffffffffffffffffffffffffffffffff168173ffffffffffffffffffffffffffffffffffffffff167f8be0079c531659141344cd1fd0a4f28419497f9722a3daafe3b4186f6b6457e060405160405180910390a35050565b600080fd5b600073ffffffffffffffffffffffffffffffffffffffff82169050919050565b6000620001c58262000198565b9050919050565b6000620001d982620001b8565b9050919050565b620001eb81620001cc565b8114620001f757600080fd5b50565b6000815190506200020b81620001e0565b92915050565b6200021c81620001b8565b81146200022857600080fd5b50565b6000815190506200023c8162000211565b92915050565b600080604083850312156200025c576200025b62000193565b5b60006200026c85828601620001fa565b92505060206200027f858286016200022b565b9150509250929050565b60805160a051612a99620002c4600039600081816108090152610d39015260008181610ae601528181610d150152610d5f0152612a996000f3fe608060405234801561001057600080fd5b50600436106100ea5760003560e01c8063bd94b0051161008c578063d250f03a11610066578063d250f03a14610225578063e606df8714610243578063eb00863914610261578063f2fde38b1461027d576100ea565b8063bd94b005146101cf578063be0b680b146101eb578063cb0adce814610207576100ea565b80636aed7294116100c85780636aed729414610159578063715018a6146101755780638da5cb5b1461017f578063b5f522f71461019d576100ea565b806309ec6cc7146100ef5780631e6c598e1461010b5780635283efb81461013d575b600080fd5b61010960048036038101906101049190611aeb565b610299565b005b61012560048036038101906101209190611aeb565b61049c565b60405161013493929190611b94565b60405180910390f35b61015760048036038101906101529190611bf7565b610513565b005b610173600480360381019061016e9190611aeb565b610726565b005b61017d6108c0565b005b6101876108d4565b6040516101949190611c37565b60405180910390f35b6101b760048036038101906101b29190611aeb565b6108fd565b6040516101c693929190611b94565b60405180910390f35b6101e960048036038101906101e49190611aeb565b610970565b005b61020560048036038101906102009190611c52565b610ae2565b005b61020f610d07565b60405161021c9190611c8e565b60405180910390f35b61022d610d13565b60405161023a9190611d08565b60405180910390f35b61024b610d37565b6040516102589190611d44565b60405180910390f35b61027b60048036038101906102769190611eb8565b610d5b565b005b61029760048036038101906102929190611f40565b611031565b005b6000600182815481106102af576102ae611f6d565b5b90600052602060002090600302016040518060800160405290816000820160009054906101000a900460ff1660ff1660ff1681526020016001820180548060200260200160405190810160405280929190818152602001828054801561035a57602002820191906000526020600020906000905b82829054906101000a900460ff1660ff16815260200190600101906020826000010492830192600103820291508084116103235790505b505050505081526020016002820160009054906101000a900473ffffffffffffffffffffffffffffffffffffffff1673ffffffffffffffffffffffffffffffffffffffff1673ffffffffffffffffffffffffffffffffffffffff1681526020016002820160149054906101000a900463ffffffff1663ffffffff1663ffffffff168152505090503373ffffffffffffffffffffffffffffffffffffffff16816040015173ffffffffffffffffffffffffffffffffffffffff1614610453576040517f08c379a000000000000000000000000000000000000000000000000000000000815260040161044a9061201f565b60405180910390fd5b61045c826110b4565b817fd8767bc2b7bed52eec7a5330cc4879f1b6a5a9f15823bac1b62d9d69dd6120778260000151604051610490919061203f565b60405180910390a25050565b600181815481106104ac57600080fd5b90600052602060002090600302016000915090508060000160009054906101000a900460ff16908060020160009054906101000a900473ffffffffffffffffffffffffffffffffffffffff16908060020160149054906101000a900463ffffffff16905083565b60006001838154811061052957610528611f6d565b5b90600052602060002090600302016040518060800160405290816000820160009054906101000a900460ff1660ff1660ff168152602001600182018054806020026020016040519081016040528092919081815260200182805480156105d457602002820191906000526020600020906000905b82829054906101000a900460ff1660ff168152602001906001019060208260000104928301926001038202915080841161059d5790505b505050505081526020016002820160009054906101000a900473ffffffffffffffffffffffffffffffffffffffff1673ffffffffffffffffffffffffffffffffffffffff1673ffffffffffffffffffffffffffffffffffffffff1681526020016002820160149054906101000a900463ffffffff1663ffffffff1663ffffffff168152505090506106698160200151836112bb565b6106a8576040517f08c379a000000000000000000000000000000000000000000000000000000000815260040161069f906120cc565b60405180910390fd5b6106b1836110b4565b3373ffffffffffffffffffffffffffffffffffffffff16816040015173ffffffffffffffffffffffffffffffffffffffff16847f3b6381e5c6a5537f4d406471b2fcad0c750a5709c3f066683014eb05a6215b118460000151866040516107199291906120ec565b60405180910390a4505050565b60006002828154811061073c5761073b611f6d565b5b906000526020600020016040518060600160405290816000820160009054906101000a900460ff1660ff1660ff1681526020016000820160019054906101000a900473ffffffffffffffffffffffffffffffffffffffff1673ffffffffffffffffffffffffffffffffffffffff1673ffffffffffffffffffffffffffffffffffffffff1681526020016000820160159054906101000a900463ffffffff1663ffffffff1663ffffffff168152505090506107f582611318565b61084e33826020015167016345785d8a00007f000000000000000000000000000000000000000000000000000000000000000073ffffffffffffffffffffffffffffffffffffffff166114ee909392919063ffffffff16565b3373ffffffffffffffffffffffffffffffffffffffff16816020015173ffffffffffffffffffffffffffffffffffffffff16837fa525b79b09b1da3de88bd5564bd6ec0fa5066d47864a109fcfea9fced4e8083a84600001516040516108b4919061203f565b60405180910390a45050565b6108c8611577565b6108d260006115f5565b565b60008060009054906101000a900473ffffffffffffffffffffffffffffffffffffffff16905090565b6002818154811061090d57600080fd5b906000526020600020016000915090508060000160009054906101000a900460ff16908060000160019054906101000a900473ffffffffffffffffffffffffffffffffffffffff16908060000160159054906101000a900463ffffffff16905083565b60006002828154811061098657610985611f6d565b5b906000526020600020016040518060600160405290816000820160009054906101000a900460ff1660ff1660ff1681526020016000820160019054906101000a900473ffffffffffffffffffffffffffffffffffffffff1673ffffffffffffffffffffffffffffffffffffffff1673ffffffffffffffffffffffffffffffffffffffff1681526020016000820160159054906101000a900463ffffffff1663ffffffff1663ffffffff168152505090503373ffffffffffffffffffffffffffffffffffffffff16816020015173ffffffffffffffffffffffffffffffffffffffff1614610aa8576040517f08c379a0000000000000000000000000000000000000000000000000000000008152600401610a9f90612187565b60405180910390fd5b610ab182611318565b817f2c56893f6f6026d19bd17b7d05c9f15c522de1ae2b1c3a825f91a73c799321f260405160405180910390a25050565b60007f000000000000000000000000000000000000000000000000000000000000000073ffffffffffffffffffffffffffffffffffffffff1663809eb35533846040518363ffffffff1660e01b8152600401610b3f9291906121a7565b602060405180830381865afa158015610b5c573d6000803e3d6000fd5b505050506040513d601f19601f82011682018060405250810190610b8091906121e5565b60ff1611610bc3576040517f08c379a0000000000000000000000000000000000000000000000000000000008152600401610bba90612284565b60405180910390fd5b600060405180606001604052808360ff1681526020013373ffffffffffffffffffffffffffffffffffffffff1681526020014263ffffffff1681525090506002819080600181540180825580915050600190039060005260206000200160009091909190915060008201518160000160006101000a81548160ff021916908360ff16021790555060208201518160000160016101000a81548173ffffffffffffffffffffffffffffffffffffffff021916908373ffffffffffffffffffffffffffffffffffffffff16021790555060408201518160000160156101000a81548163ffffffff021916908363ffffffff16021790555050506001600280549050610ccc91906122d3565b7f90322bdf9d3b1ad74a17e8643f146d8a012efddd3182c6e4806e3c213d18feb183604051610cfb919061203f565b60405180910390a25050565b67016345785d8a000081565b7f000000000000000000000000000000000000000000000000000000000000000081565b7f000000000000000000000000000000000000000000000000000000000000000081565b60007f000000000000000000000000000000000000000000000000000000000000000073ffffffffffffffffffffffffffffffffffffffff1663809eb35533856040518363ffffffff1660e01b8152600401610db89291906121a7565b602060405180830381865afa158015610dd5573d6000803e3d6000fd5b505050506040513d601f19601f82011682018060405250810190610df991906121e5565b60ff1611610e3c576040517f08c379a0000000000000000000000000000000000000000000000000000000008152600401610e3390612379565b60405180910390fd5b6000815111610e80576040517f08c379a0000000000000000000000000000000000000000000000000000000008152600401610e779061240b565b60405180910390fd5b600b815110610ec4576040517f08c379a0000000000000000000000000000000000000000000000000000000008152600401610ebb9061249d565b60405180910390fd5b600060405180608001604052808460ff1681526020018381526020013373ffffffffffffffffffffffffffffffffffffffff1681526020014263ffffffff168152509050600181908060018154018082558091505060019003906000526020600020906003020160009091909190915060008201518160000160006101000a81548160ff021916908360ff1602179055506020820151816001019080519060200190610f71929190611955565b5060408201518160020160006101000a81548173ffffffffffffffffffffffffffffffffffffffff021916908373ffffffffffffffffffffffffffffffffffffffff16021790555060608201518160020160146101000a81548163ffffffff021916908363ffffffff160217905550505060018080549050610ff391906122d3565b7f6503ddddbee715c7befd4e9e87ceacd356008bd7fd90821ffe2f14142ca69ccb848460405161102492919061257b565b60405180910390a2505050565b611039611577565b600073ffffffffffffffffffffffffffffffffffffffff168173ffffffffffffffffffffffffffffffffffffffff16036110a8576040517f08c379a000000000000000000000000000000000000000000000000000000000815260040161109f9061261d565b60405180910390fd5b6110b1816115f5565b50565b60018080805490506110c691906122d3565b815481106110d7576110d6611f6d565b5b9060005260206000209060030201600182815481106110f9576110f8611f6d565b5b90600052602060002090600302016000820160009054906101000a900460ff168160000160006101000a81548160ff021916908360ff160217905550600182018160010190805461114b9291906119fc565b506002820160009054906101000a900473ffffffffffffffffffffffffffffffffffffffff168160020160006101000a81548173ffffffffffffffffffffffffffffffffffffffff021916908373ffffffffffffffffffffffffffffffffffffffff1602179055506002820160149054906101000a900463ffffffff168160020160146101000a81548163ffffffff021916908363ffffffff16021790555090505060018054806111ff576111fe61263d565b5b6001900381819060005260206000209060030201600080820160006101000a81549060ff02191690556001820160006112389190611a5c565b6002820160006101000a81549073ffffffffffffffffffffffffffffffffffffffff02191690556002820160146101000a81549063ffffffff0219169055505090557f10cdefed467d2761fb1ec7ec838133bde98b22c15a4e7e9e8ce89839e709f1a0600180549050826040516112b092919061266c565b60405180910390a150565b6000805b835181101561130c578260ff168482815181106112df576112de611f6d565b5b602002602001015160ff16036112f9576001915050611312565b808061130490612695565b9150506112bf565b50600090505b92915050565b6002600160028054905061132c91906122d3565b8154811061133d5761133c611f6d565b5b906000526020600020016002828154811061135b5761135a611f6d565b5b906000526020600020016000820160009054906101000a900460ff168160000160006101000a81548160ff021916908360ff1602179055506000820160019054906101000a900473ffffffffffffffffffffffffffffffffffffffff168160000160016101000a81548173ffffffffffffffffffffffffffffffffffffffff021916908373ffffffffffffffffffffffffffffffffffffffff1602179055506000820160159054906101000a900463ffffffff168160000160156101000a81548163ffffffff021916908363ffffffff16021790555090505060028054806114465761144561263d565b5b60019003818190600052602060002001600080820160006101000a81549060ff02191690556000820160016101000a81549073ffffffffffffffffffffffffffffffffffffffff02191690556000820160156101000a81549063ffffffff0219169055505090557f0b1f1db3c44893aec8d8654dade31dfc4d5057bef99c5c56b5b2f292bf57dee7600280549050826040516114e392919061266c565b60405180910390a150565b611571846323b872dd60e01b85858560405160240161150f939291906126dd565b604051602081830303815290604052907bffffffffffffffffffffffffffffffffffffffffffffffffffffffff19166020820180517bffffffffffffffffffffffffffffffffffffffffffffffffffffffff83818316178352505050506116b9565b50505050565b61157f611780565b73ffffffffffffffffffffffffffffffffffffffff1661159d6108d4565b73ffffffffffffffffffffffffffffffffffffffff16146115f3576040517f08c379a00000000000000000000000000000000000000000000000000000000081526004016115ea90612760565b60405180910390fd5b565b60008060009054906101000a900473ffffffffffffffffffffffffffffffffffffffff169050816000806101000a81548173ffffffffffffffffffffffffffffffffffffffff021916908373ffffffffffffffffffffffffffffffffffffffff1602179055508173ffffffffffffffffffffffffffffffffffffffff168173ffffffffffffffffffffffffffffffffffffffff167f8be0079c531659141344cd1fd0a4f28419497f9722a3daafe3b4186f6b6457e060405160405180910390a35050565b600061171b826040518060400160405280602081526020017f5361666545524332303a206c6f772d6c6576656c2063616c6c206661696c65648152508573ffffffffffffffffffffffffffffffffffffffff166117889092919063ffffffff16565b905060008151111561177b578080602001905181019061173b91906127b8565b61177a576040517f08c379a000000000000000000000000000000000000000000000000000000000815260040161177190612857565b60405180910390fd5b5b505050565b600033905090565b606061179784846000856117a0565b90509392505050565b6060824710156117e5576040517f08c379a00000000000000000000000000000000000000000000000000000000081526004016117dc906128e9565b60405180910390fd5b6000808673ffffffffffffffffffffffffffffffffffffffff16858760405161180e919061297a565b60006040518083038185875af1925050503d806000811461184b576040519150601f19603f3d011682016040523d82523d6000602084013e611850565b606091505b50915091506118618783838761186d565b92505050949350505050565b606083156118cf5760008351036118c757611887856118e2565b6118c6576040517f08c379a00000000000000000000000000000000000000000000000000000000081526004016118bd906129dd565b60405180910390fd5b5b8290506118da565b6118d98383611905565b5b949350505050565b6000808273ffffffffffffffffffffffffffffffffffffffff163b119050919050565b6000825111156119185781518083602001fd5b806040517f08c379a000000000000000000000000000000000000000000000000000000000815260040161194c9190612a41565b60405180910390fd5b82805482825590600052602060002090601f016020900481019282156119eb5791602002820160005b838211156119bc57835183826101000a81548160ff021916908360ff160217905550926020019260010160208160000104928301926001030261197e565b80156119e95782816101000a81549060ff02191690556001016020816000010492830192600103026119bc565b505b5090506119f89190611a84565b5090565b82805482825590600052602060002090601f01602090048101928215611a4b57600052602060002091601f016020900482015b82811115611a4a578254825591600101919060010190611a2f565b5b509050611a589190611a84565b5090565b50805460008255601f016020900490600052602060002090810190611a819190611a84565b50565b5b80821115611a9d576000816000905550600101611a85565b5090565b6000604051905090565b600080fd5b600080fd5b6000819050919050565b611ac881611ab5565b8114611ad357600080fd5b50565b600081359050611ae581611abf565b92915050565b600060208284031215611b0157611b00611aab565b5b6000611b0f84828501611ad6565b91505092915050565b600060ff82169050919050565b611b2e81611b18565b82525050565b600073ffffffffffffffffffffffffffffffffffffffff82169050919050565b6000611b5f82611b34565b9050919050565b611b6f81611b54565b82525050565b600063ffffffff82169050919050565b611b8e81611b75565b82525050565b6000606082019050611ba96000830186611b25565b611bb66020830185611b66565b611bc36040830184611b85565b949350505050565b611bd481611b18565b8114611bdf57600080fd5b50565b600081359050611bf181611bcb565b92915050565b60008060408385031215611c0e57611c0d611aab565b5b6000611c1c85828601611ad6565b9250506020611c2d85828601611be2565b9150509250929050565b6000602082019050611c4c6000830184611b66565b92915050565b600060208284031215611c6857611c67611aab565b5b6000611c7684828501611be2565b91505092915050565b611c8881611ab5565b82525050565b6000602082019050611ca36000830184611c7f565b92915050565b6000819050919050565b6000611cce611cc9611cc484611b34565b611ca9565b611b34565b9050919050565b6000611ce082611cb3565b9050919050565b6000611cf282611cd5565b9050919050565b611d0281611ce7565b82525050565b6000602082019050611d1d6000830184611cf9565b92915050565b6000611d2e82611cd5565b9050919050565b611d3e81611d23565b82525050565b6000602082019050611d596000830184611d35565b92915050565b600080fd5b6000601f19601f8301169050919050565b7f4e487b7100000000000000000000000000000000000000000000000000000000600052604160045260246000fd5b611dad82611d64565b810181811067ffffffffffffffff82111715611dcc57611dcb611d75565b5b80604052505050565b6000611ddf611aa1565b9050611deb8282611da4565b919050565b600067ffffffffffffffff821115611e0b57611e0a611d75565b5b602082029050602081019050919050565b600080fd5b6000611e34611e2f84611df0565b611dd5565b90508083825260208201905060208402830185811115611e5757611e56611e1c565b5b835b81811015611e805780611e6c8882611be2565b845260208401935050602081019050611e59565b5050509392505050565b600082601f830112611e9f57611e9e611d5f565b5b8135611eaf848260208601611e21565b91505092915050565b60008060408385031215611ecf57611ece611aab565b5b6000611edd85828601611be2565b925050602083013567ffffffffffffffff811115611efe57611efd611ab0565b5b611f0a85828601611e8a565b9150509250929050565b611f1d81611b54565b8114611f2857600080fd5b50565b600081359050611f3a81611f14565b92915050565b600060208284031215611f5657611f55611aab565b5b6000611f6484828501611f2b565b91505092915050565b7f4e487b7100000000000000000000000000000000000000000000000000000000600052603260045260246000fd5b600082825260208201905092915050565b7f596f7520617265206e6f7420746865206f666665726f72206f6620746869732060008201527f7472616465000000000000000000000000000000000000000000000000000000602082015250565b6000612009602583611f9c565b915061201482611fad565b604082019050919050565b6000602082019050818103600083015261203881611ffc565b9050919050565b60006020820190506120546000830184611b25565b92915050565b7f596f7520617265206e6f74206f66666572696e6720746865206361726420746860008201527f65206f666665726f722069732061736b696e6720666f72000000000000000000602082015250565b60006120b6603783611f9c565b91506120c18261205a565b604082019050919050565b600060208201905081810360008301526120e5816120a9565b9050919050565b60006040820190506121016000830185611b25565b61210e6020830184611b25565b9392505050565b7f596f7520617265206e6f74207468652073656c6c6572206f662074686973207360008201527f616c650000000000000000000000000000000000000000000000000000000000602082015250565b6000612171602383611f9c565b915061217c82612115565b604082019050919050565b600060208201905081810360008301526121a081612164565b9050919050565b60006040820190506121bc6000830185611b66565b6121c96020830184611b25565b9392505050565b6000815190506121df81611bcb565b92915050565b6000602082840312156121fb576121fa611aab565b5b6000612209848285016121d0565b91505092915050565b7f596f7520646f6e2774206f776e20746865206361726420796f7520617265207460008201527f7279696e6720746f2073656c6c00000000000000000000000000000000000000602082015250565b600061226e602d83611f9c565b915061227982612212565b604082019050919050565b6000602082019050818103600083015261229d81612261565b9050919050565b7f4e487b7100000000000000000000000000000000000000000000000000000000600052601160045260246000fd5b60006122de82611ab5565b91506122e983611ab5565b9250828203905081811115612301576123006122a4565b5b92915050565b7f596f7520646f6e2774206f776e20746865206361726420796f7520617265207460008201527f7279696e6720746f207472616465000000000000000000000000000000000000602082015250565b6000612363602e83611f9c565b915061236e82612307565b604082019050919050565b6000602082019050818103600083015261239281612356565b9050919050565b7f596f75206d7573742061736b20666f72206174206c65617374206f6e6520636160008201527f7264000000000000000000000000000000000000000000000000000000000000602082015250565b60006123f5602283611f9c565b915061240082612399565b604082019050919050565b60006020820190508181036000830152612424816123e8565b9050919050565b7f596f752063616e27742061736b20666f72206d6f7265207468616e203130206360008201527f6172647300000000000000000000000000000000000000000000000000000000602082015250565b6000612487602483611f9c565b91506124928261242b565b604082019050919050565b600060208201905081810360008301526124b68161247a565b9050919050565b600081519050919050565b600082825260208201905092915050565b6000819050602082019050919050565b6124f281611b18565b82525050565b600061250483836124e9565b60208301905092915050565b6000602082019050919050565b6000612528826124bd565b61253281856124c8565b935061253d836124d9565b8060005b8381101561256e57815161255588826124f8565b975061256083612510565b925050600181019050612541565b5085935050505092915050565b60006040820190506125906000830185611b25565b81810360208301526125a2818461251d565b90509392505050565b7f4f776e61626c653a206e6577206f776e657220697320746865207a65726f206160008201527f6464726573730000000000000000000000000000000000000000000000000000602082015250565b6000612607602683611f9c565b9150612612826125ab565b604082019050919050565b60006020820190508181036000830152612636816125fa565b9050919050565b7f4e487b7100000000000000000000000000000000000000000000000000000000600052603160045260246000fd5b60006040820190506126816000830185611c7f565b61268e6020830184611c7f565b9392505050565b60006126a082611ab5565b91507fffffffffffffffffffffffffffffffffffffffffffffffffffffffffffffffff82036126d2576126d16122a4565b5b600182019050919050565b60006060820190506126f26000830186611b66565b6126ff6020830185611b66565b61270c6040830184611c7f565b949350505050565b7f4f776e61626c653a2063616c6c6572206973206e6f7420746865206f776e6572600082015250565b600061274a602083611f9c565b915061275582612714565b602082019050919050565b600060208201905081810360008301526127798161273d565b9050919050565b60008115159050919050565b61279581612780565b81146127a057600080fd5b50565b6000815190506127b28161278c565b92915050565b6000602082840312156127ce576127cd611aab565b5b60006127dc848285016127a3565b91505092915050565b7f5361666545524332303a204552433230206f7065726174696f6e20646964206e60008201527f6f74207375636365656400000000000000000000000000000000000000000000602082015250565b6000612841602a83611f9c565b915061284c826127e5565b604082019050919050565b6000602082019050818103600083015261287081612834565b9050919050565b7f416464726573733a20696e73756666696369656e742062616c616e636520666f60008201527f722063616c6c0000000000000000000000000000000000000000000000000000602082015250565b60006128d3602683611f9c565b91506128de82612877565b604082019050919050565b60006020820190508181036000830152612902816128c6565b9050919050565b600081519050919050565b600081905092915050565b60005b8381101561293d578082015181840152602081019050612922565b60008484015250505050565b600061295482612909565b61295e8185612914565b935061296e81856020860161291f565b80840191505092915050565b60006129868284612949565b915081905092915050565b7f416464726573733a2063616c6c20746f206e6f6e2d636f6e7472616374000000600082015250565b60006129c7601d83611f9c565b91506129d282612991565b602082019050919050565b600060208201905081810360008301526129f6816129ba565b9050919050565b600081519050919050565b6000612a13826129fd565b612a1d8185611f9c565b9350612a2d81856020860161291f565b612a3681611d64565b840191505092915050565b60006020820190508181036000830152612a5b8184612a08565b90509291505056fea26469706673582212205e64d40d6454bf6a92e41d498e17162c2623392d6f254418ed634d07c4eb2b2164736f6c63430008120033",
  "linkReferences": {},
  "deployedLinkReferences": {}
}