{
  "_format": "hh-sol-artifact-1",
  "contractName": "Escrow",
  "sourceName": "contracts/Escrow.sol",
  "abi": [
    {
      "inputs": [
        {
          "internalType": "contract GammaCardsV2",
          "name": "_gammaCardsContract",
          "type": "address"
        },
        {
          "internalType": "address",
          "name": "_daiTokenAddress",
          "type": "address"
        }
      ],
      "stateMutability": "nonpayable",
      "type": "constructor"
    },
    {
      "anonymous": false,
      "inputs": [
        {
          "indexed": true,
          "internalType": "address",
          "name": "previousOwner",
          "type": "address"
        },
        {
          "indexed": true,
          "internalType": "address",
          "name": "newOwner",
          "type": "address"
        }
      ],
      "name": "OwnershipTransferred",
      "type": "event"
    },
    {
      "anonymous": false,
      "inputs": [
        {
          "indexed": true,
          "internalType": "uint256",
          "name": "saleId",
          "type": "uint256"
        }
      ],
      "name": "SaleCancelled",
      "type": "event"
    },
    {
      "anonymous": false,
      "inputs": [
        {
          "indexed": true,
          "internalType": "uint256",
          "name": "saleId",
          "type": "uint256"
        },
        {
          "indexed": true,
          "internalType": "address",
          "name": "seller",
          "type": "address"
        },
        {
          "indexed": true,
          "internalType": "address",
          "name": "buyer",
          "type": "address"
        },
        {
          "indexed": false,
          "internalType": "uint8",
          "name": "soldCard",
          "type": "uint8"
        }
      ],
      "name": "SaleCompleted",
      "type": "event"
    },
    {
      "anonymous": false,
      "inputs": [
        {
          "indexed": true,
          "internalType": "uint256",
          "name": "saleId",
          "type": "uint256"
        },
        {
          "indexed": false,
          "internalType": "uint8",
          "name": "offeredCard",
          "type": "uint8"
        }
      ],
      "name": "SaleCreated",
      "type": "event"
    },
    {
      "anonymous": false,
      "inputs": [
        {
          "indexed": true,
          "internalType": "uint256",
          "name": "tradeId",
          "type": "uint256"
        },
        {
          "indexed": true,
          "internalType": "address",
          "name": "offeror",
          "type": "address"
        },
        {
          "indexed": false,
          "internalType": "uint8",
          "name": "offeredCard",
          "type": "uint8"
        },
        {
          "indexed": true,
          "internalType": "address",
          "name": "acceptor",
          "type": "address"
        },
        {
          "indexed": false,
          "internalType": "uint8",
          "name": "wantedCard",
          "type": "uint8"
        }
      ],
      "name": "TradeAccepted",
      "type": "event"
    },
    {
      "anonymous": false,
      "inputs": [
        {
          "indexed": true,
          "internalType": "uint256",
          "name": "tradeId",
          "type": "uint256"
        },
        {
          "indexed": false,
          "internalType": "uint8",
          "name": "offeredCard",
          "type": "uint8"
        }
      ],
      "name": "TradeCancelled",
      "type": "event"
    },
    {
      "anonymous": false,
      "inputs": [
        {
          "indexed": true,
          "internalType": "uint256",
          "name": "tradeId",
          "type": "uint256"
        },
        {
          "indexed": false,
          "internalType": "uint8",
          "name": "offeredCard",
          "type": "uint8"
        },
        {
          "indexed": false,
          "internalType": "uint8[]",
          "name": "wantedCards",
          "type": "uint8[]"
        }
      ],
      "name": "TradeCreated",
      "type": "event"
    },
    {
      "anonymous": false,
      "inputs": [
        {
          "indexed": false,
          "internalType": "uint256",
          "name": "oldIndex",
          "type": "uint256"
        },
        {
          "indexed": false,
          "internalType": "uint256",
          "name": "newIndex",
          "type": "uint256"
        }
      ],
      "name": "UpdateSaleIndex",
      "type": "event"
    },
    {
      "anonymous": false,
      "inputs": [
        {
          "indexed": false,
          "internalType": "uint256",
          "name": "oldIndex",
          "type": "uint256"
        },
        {
          "indexed": false,
          "internalType": "uint256",
          "name": "newIndex",
          "type": "uint256"
        }
      ],
      "name": "UpdateTradeIndex",
      "type": "event"
    },
    {
      "inputs": [],
      "name": "CARD_PRICE",
      "outputs": [
        {
          "internalType": "uint256",
          "name": "",
          "type": "uint256"
        }
      ],
      "stateMutability": "view",
      "type": "function"
    },
    {
      "inputs": [],
      "name": "DAI_TOKEN",
      "outputs": [
        {
          "internalType": "contract IERC20",
          "name": "",
          "type": "address"
        }
      ],
      "stateMutability": "view",
      "type": "function"
    },
    {
      "inputs": [
        {
          "internalType": "uint256",
          "name": "_tradeId",
          "type": "uint256"
        },
        {
          "internalType": "uint8",
          "name": "_wantedCard",
          "type": "uint8"
        }
      ],
      "name": "acceptTrade",
      "outputs": [],
      "stateMutability": "nonpayable",
      "type": "function"
    },
    {
      "inputs": [
        {
          "internalType": "uint256",
          "name": "_saleId",
          "type": "uint256"
        }
      ],
      "name": "buyCardForDAI",
      "outputs": [],
      "stateMutability": "nonpayable",
      "type": "function"
    },
    {
      "inputs": [
        {
          "internalType": "uint256",
          "name": "_saleId",
          "type": "uint256"
        }
      ],
      "name": "cancelSale",
      "outputs": [],
      "stateMutability": "nonpayable",
      "type": "function"
    },
    {
      "inputs": [
        {
          "internalType": "uint256",
          "name": "_tradeId",
          "type": "uint256"
        }
      ],
      "name": "cancelTrade",
      "outputs": [],
      "stateMutability": "nonpayable",
      "type": "function"
    },
    {
      "inputs": [
        {
          "internalType": "uint8",
          "name": "_offeredCard",
          "type": "uint8"
        }
      ],
      "name": "createSale",
      "outputs": [],
      "stateMutability": "nonpayable",
      "type": "function"
    },
    {
      "inputs": [
        {
          "internalType": "uint8",
          "name": "_offeredCard",
          "type": "uint8"
        },
        {
          "internalType": "uint8[]",
          "name": "_wantedCards",
          "type": "uint8[]"
        }
      ],
      "name": "createTrade",
      "outputs": [],
      "stateMutability": "nonpayable",
      "type": "function"
    },
    {
      "inputs": [],
      "name": "gammaCardsContract",
      "outputs": [
        {
          "internalType": "contract GammaCardsV2",
          "name": "",
          "type": "address"
        }
      ],
      "stateMutability": "view",
      "type": "function"
    },
    {
      "inputs": [],
      "name": "owner",
      "outputs": [
        {
          "internalType": "address",
          "name": "",
          "type": "address"
        }
      ],
      "stateMutability": "view",
      "type": "function"
    },
    {
      "inputs": [],
      "name": "renounceOwnership",
      "outputs": [],
      "stateMutability": "nonpayable",
      "type": "function"
    },
    {
      "inputs": [
        {
          "internalType": "uint256",
          "name": "",
          "type": "uint256"
        }
      ],
      "name": "sales",
      "outputs": [
        {
          "internalType": "uint8",
          "name": "offeredCard",
          "type": "uint8"
        },
        {
          "internalType": "address",
          "name": "seller",
          "type": "address"
        },
        {
          "internalType": "uint32",
          "name": "createdOn",
          "type": "uint32"
        }
      ],
      "stateMutability": "view",
      "type": "function"
    },
    {
      "inputs": [
        {
          "internalType": "uint256",
          "name": "",
          "type": "uint256"
        }
      ],
      "name": "trades",
      "outputs": [
        {
          "internalType": "uint8",
          "name": "offeredCard",
          "type": "uint8"
        },
        {
          "internalType": "address",
          "name": "offeror",
          "type": "address"
        },
        {
          "internalType": "uint32",
          "name": "createdOn",
          "type": "uint32"
        }
      ],
      "stateMutability": "view",
      "type": "function"
    },
    {
      "inputs": [
        {
          "internalType": "address",
          "name": "newOwner",
          "type": "address"
        }
      ],
      "name": "transferOwnership",
      "outputs": [],
      "stateMutability": "nonpayable",
      "type": "function"
    }
  ],
  "bytecode": "0x60c06040523480156200001157600080fd5b5060405162002f1738038062002f17833981810160405281019062000037919062000242565b620000576200004b620000c760201b60201c565b620000cf60201b60201c565b8173ffffffffffffffffffffffffffffffffffffffff1660808173ffffffffffffffffffffffffffffffffffffffff16815250508073ffffffffffffffffffffffffffffffffffffffff1660a08173ffffffffffffffffffffffffffffffffffffffff1681525050505062000289565b600033905090565b60008060009054906101000a900473ffffffffffffffffffffffffffffffffffffffff169050816000806101000a81548173ffffffffffffffffffffffffffffffffffffffff021916908373ffffffffffffffffffffffffffffffffffffffff1602179055508173ffffffffffffffffffffffffffffffffffffffff168173ffffffffffffffffffffffffffffffffffffffff167f8be0079c531659141344cd1fd0a4f28419497f9722a3daafe3b4186f6b6457e060405160405180910390a35050565b600080fd5b600073ffffffffffffffffffffffffffffffffffffffff82169050919050565b6000620001c58262000198565b9050919050565b6000620001d982620001b8565b9050919050565b620001eb81620001cc565b8114620001f757600080fd5b50565b6000815190506200020b81620001e0565b92915050565b6200021c81620001b8565b81146200022857600080fd5b50565b6000815190506200023c8162000211565b92915050565b600080604083850312156200025c576200025b62000193565b5b60006200026c85828601620001fa565b92505060206200027f858286016200022b565b9150509250929050565b60805160a051612c45620002d2600039600081816108a20152610e690152600081816106b3015281816108e901528181610c1601528181610e450152610e8f0152612c456000f3fe608060405234801561001057600080fd5b50600436106100ea5760003560e01c8063bd94b0051161008c578063d250f03a11610066578063d250f03a14610225578063e606df8714610243578063eb00863914610261578063f2fde38b1461027d576100ea565b8063bd94b005146101cf578063be0b680b146101eb578063cb0adce814610207576100ea565b80636aed7294116100c85780636aed729414610159578063715018a6146101755780638da5cb5b1461017f578063b5f522f71461019d576100ea565b806309ec6cc7146100ef5780631e6c598e1461010b5780635283efb81461013d575b600080fd5b61010960048036038101906101049190611c1b565b610299565b005b61012560048036038101906101209190611c1b565b61049c565b60405161013493929190611cc4565b60405180910390f35b61015760048036038101906101529190611d27565b610513565b005b610173600480360381019061016e9190611c1b565b6107bf565b005b61017d6109f0565b005b610187610a04565b6040516101949190611d67565b60405180910390f35b6101b760048036038101906101b29190611c1b565b610a2d565b6040516101c693929190611cc4565b60405180910390f35b6101e960048036038101906101e49190611c1b565b610aa0565b005b61020560048036038101906102009190611d82565b610c12565b005b61020f610e37565b60405161021c9190611dbe565b60405180910390f35b61022d610e43565b60405161023a9190611e38565b60405180910390f35b61024b610e67565b6040516102589190611e74565b60405180910390f35b61027b60048036038101906102769190611fe8565b610e8b565b005b61029760048036038101906102929190612070565b611161565b005b6000600182815481106102af576102ae61209d565b5b90600052602060002090600302016040518060800160405290816000820160009054906101000a900460ff1660ff1660ff1681526020016001820180548060200260200160405190810160405280929190818152602001828054801561035a57602002820191906000526020600020906000905b82829054906101000a900460ff1660ff16815260200190600101906020826000010492830192600103820291508084116103235790505b505050505081526020016002820160009054906101000a900473ffffffffffffffffffffffffffffffffffffffff1673ffffffffffffffffffffffffffffffffffffffff1673ffffffffffffffffffffffffffffffffffffffff1681526020016002820160149054906101000a900463ffffffff1663ffffffff1663ffffffff168152505090503373ffffffffffffffffffffffffffffffffffffffff16816040015173ffffffffffffffffffffffffffffffffffffffff1614610453576040517f08c379a000000000000000000000000000000000000000000000000000000000815260040161044a9061214f565b60405180910390fd5b61045c826111e4565b817fd8767bc2b7bed52eec7a5330cc4879f1b6a5a9f15823bac1b62d9d69dd6120778260000151604051610490919061216f565b60405180910390a25050565b600181815481106104ac57600080fd5b90600052602060002090600302016000915090508060000160009054906101000a900460ff16908060020160009054906101000a900473ffffffffffffffffffffffffffffffffffffffff16908060020160149054906101000a900463ffffffff16905083565b6000600183815481106105295761052861209d565b5b90600052602060002090600302016040518060800160405290816000820160009054906101000a900460ff1660ff1660ff168152602001600182018054806020026020016040519081016040528092919081815260200182805480156105d457602002820191906000526020600020906000905b82829054906101000a900460ff1660ff168152602001906001019060208260000104928301926001038202915080841161059d5790505b505050505081526020016002820160009054906101000a900473ffffffffffffffffffffffffffffffffffffffff1673ffffffffffffffffffffffffffffffffffffffff1673ffffffffffffffffffffffffffffffffffffffff1681526020016002820160149054906101000a900463ffffffff1663ffffffff1663ffffffff168152505090506106698160200151836113eb565b6106a8576040517f08c379a000000000000000000000000000000000000000000000000000000000815260040161069f906121fc565b60405180910390fd5b6106b1836111e4565b7f000000000000000000000000000000000000000000000000000000000000000073ffffffffffffffffffffffffffffffffffffffff16630d8f58088260400151836000015133866040518563ffffffff1660e01b8152600401610718949392919061221c565b600060405180830381600087803b15801561073257600080fd5b505af1158015610746573d6000803e3d6000fd5b505050503373ffffffffffffffffffffffffffffffffffffffff16816040015173ffffffffffffffffffffffffffffffffffffffff16847f3b6381e5c6a5537f4d406471b2fcad0c750a5709c3f066683014eb05a6215b118460000151866040516107b2929190612261565b60405180910390a4505050565b6000600282815481106107d5576107d461209d565b5b906000526020600020016040518060600160405290816000820160009054906101000a900460ff1660ff1660ff1681526020016000820160019054906101000a900473ffffffffffffffffffffffffffffffffffffffff1673ffffffffffffffffffffffffffffffffffffffff1673ffffffffffffffffffffffffffffffffffffffff1681526020016000820160159054906101000a900463ffffffff1663ffffffff1663ffffffff1681525050905061088e82611448565b6108e733826020015167016345785d8a00007f000000000000000000000000000000000000000000000000000000000000000073ffffffffffffffffffffffffffffffffffffffff1661161e909392919063ffffffff16565b7f000000000000000000000000000000000000000000000000000000000000000073ffffffffffffffffffffffffffffffffffffffff16639d52fbcb82602001518360000151336040518463ffffffff1660e01b815260040161094c9392919061228a565b600060405180830381600087803b15801561096657600080fd5b505af115801561097a573d6000803e3d6000fd5b505050503373ffffffffffffffffffffffffffffffffffffffff16816020015173ffffffffffffffffffffffffffffffffffffffff16837fa525b79b09b1da3de88bd5564bd6ec0fa5066d47864a109fcfea9fced4e8083a84600001516040516109e4919061216f565b60405180910390a45050565b6109f86116a7565b610a026000611725565b565b60008060009054906101000a900473ffffffffffffffffffffffffffffffffffffffff16905090565b60028181548110610a3d57600080fd5b906000526020600020016000915090508060000160009054906101000a900460ff16908060000160019054906101000a900473ffffffffffffffffffffffffffffffffffffffff16908060000160159054906101000a900463ffffffff16905083565b600060028281548110610ab657610ab561209d565b5b906000526020600020016040518060600160405290816000820160009054906101000a900460ff1660ff1660ff1681526020016000820160019054906101000a900473ffffffffffffffffffffffffffffffffffffffff1673ffffffffffffffffffffffffffffffffffffffff1673ffffffffffffffffffffffffffffffffffffffff1681526020016000820160159054906101000a900463ffffffff1663ffffffff1663ffffffff168152505090503373ffffffffffffffffffffffffffffffffffffffff16816020015173ffffffffffffffffffffffffffffffffffffffff1614610bd8576040517f08c379a0000000000000000000000000000000000000000000000000000000008152600401610bcf90612333565b60405180910390fd5b610be182611448565b817f2c56893f6f6026d19bd17b7d05c9f15c522de1ae2b1c3a825f91a73c799321f260405160405180910390a25050565b60007f000000000000000000000000000000000000000000000000000000000000000073ffffffffffffffffffffffffffffffffffffffff1663809eb35533846040518363ffffffff1660e01b8152600401610c6f929190612353565b602060405180830381865afa158015610c8c573d6000803e3d6000fd5b505050506040513d601f19601f82011682018060405250810190610cb09190612391565b60ff1611610cf3576040517f08c379a0000000000000000000000000000000000000000000000000000000008152600401610cea90612430565b60405180910390fd5b600060405180606001604052808360ff1681526020013373ffffffffffffffffffffffffffffffffffffffff1681526020014263ffffffff1681525090506002819080600181540180825580915050600190039060005260206000200160009091909190915060008201518160000160006101000a81548160ff021916908360ff16021790555060208201518160000160016101000a81548173ffffffffffffffffffffffffffffffffffffffff021916908373ffffffffffffffffffffffffffffffffffffffff16021790555060408201518160000160156101000a81548163ffffffff021916908363ffffffff16021790555050506001600280549050610dfc919061247f565b7f90322bdf9d3b1ad74a17e8643f146d8a012efddd3182c6e4806e3c213d18feb183604051610e2b919061216f565b60405180910390a25050565b67016345785d8a000081565b7f000000000000000000000000000000000000000000000000000000000000000081565b7f000000000000000000000000000000000000000000000000000000000000000081565b60007f000000000000000000000000000000000000000000000000000000000000000073ffffffffffffffffffffffffffffffffffffffff1663809eb35533856040518363ffffffff1660e01b8152600401610ee8929190612353565b602060405180830381865afa158015610f05573d6000803e3d6000fd5b505050506040513d601f19601f82011682018060405250810190610f299190612391565b60ff1611610f6c576040517f08c379a0000000000000000000000000000000000000000000000000000000008152600401610f6390612525565b60405180910390fd5b6000815111610fb0576040517f08c379a0000000000000000000000000000000000000000000000000000000008152600401610fa7906125b7565b60405180910390fd5b600b815110610ff4576040517f08c379a0000000000000000000000000000000000000000000000000000000008152600401610feb90612649565b60405180910390fd5b600060405180608001604052808460ff1681526020018381526020013373ffffffffffffffffffffffffffffffffffffffff1681526020014263ffffffff168152509050600181908060018154018082558091505060019003906000526020600020906003020160009091909190915060008201518160000160006101000a81548160ff021916908360ff16021790555060208201518160010190805190602001906110a1929190611a85565b5060408201518160020160006101000a81548173ffffffffffffffffffffffffffffffffffffffff021916908373ffffffffffffffffffffffffffffffffffffffff16021790555060608201518160020160146101000a81548163ffffffff021916908363ffffffff160217905550505060018080549050611123919061247f565b7f6503ddddbee715c7befd4e9e87ceacd356008bd7fd90821ffe2f14142ca69ccb8484604051611154929190612727565b60405180910390a2505050565b6111696116a7565b600073ffffffffffffffffffffffffffffffffffffffff168173ffffffffffffffffffffffffffffffffffffffff16036111d8576040517f08c379a00000000000000000000000000000000000000000000000000000000081526004016111cf906127c9565b60405180910390fd5b6111e181611725565b50565b60018080805490506111f6919061247f565b815481106112075761120661209d565b5b9060005260206000209060030201600182815481106112295761122861209d565b5b90600052602060002090600302016000820160009054906101000a900460ff168160000160006101000a81548160ff021916908360ff160217905550600182018160010190805461127b929190611b2c565b506002820160009054906101000a900473ffffffffffffffffffffffffffffffffffffffff168160020160006101000a81548173ffffffffffffffffffffffffffffffffffffffff021916908373ffffffffffffffffffffffffffffffffffffffff1602179055506002820160149054906101000a900463ffffffff168160020160146101000a81548163ffffffff021916908363ffffffff160217905550905050600180548061132f5761132e6127e9565b5b6001900381819060005260206000209060030201600080820160006101000a81549060ff02191690556001820160006113689190611b8c565b6002820160006101000a81549073ffffffffffffffffffffffffffffffffffffffff02191690556002820160146101000a81549063ffffffff0219169055505090557f10cdefed467d2761fb1ec7ec838133bde98b22c15a4e7e9e8ce89839e709f1a0600180549050826040516113e0929190612818565b60405180910390a150565b6000805b835181101561143c578260ff1684828151811061140f5761140e61209d565b5b602002602001015160ff1603611429576001915050611442565b808061143490612841565b9150506113ef565b50600090505b92915050565b6002600160028054905061145c919061247f565b8154811061146d5761146c61209d565b5b906000526020600020016002828154811061148b5761148a61209d565b5b906000526020600020016000820160009054906101000a900460ff168160000160006101000a81548160ff021916908360ff1602179055506000820160019054906101000a900473ffffffffffffffffffffffffffffffffffffffff168160000160016101000a81548173ffffffffffffffffffffffffffffffffffffffff021916908373ffffffffffffffffffffffffffffffffffffffff1602179055506000820160159054906101000a900463ffffffff168160000160156101000a81548163ffffffff021916908363ffffffff1602179055509050506002805480611576576115756127e9565b5b60019003818190600052602060002001600080820160006101000a81549060ff02191690556000820160016101000a81549073ffffffffffffffffffffffffffffffffffffffff02191690556000820160156101000a81549063ffffffff0219169055505090557f0b1f1db3c44893aec8d8654dade31dfc4d5057bef99c5c56b5b2f292bf57dee760028054905082604051611613929190612818565b60405180910390a150565b6116a1846323b872dd60e01b85858560405160240161163f93929190612889565b604051602081830303815290604052907bffffffffffffffffffffffffffffffffffffffffffffffffffffffff19166020820180517bffffffffffffffffffffffffffffffffffffffffffffffffffffffff83818316178352505050506117e9565b50505050565b6116af6118b0565b73ffffffffffffffffffffffffffffffffffffffff166116cd610a04565b73ffffffffffffffffffffffffffffffffffffffff1614611723576040517f08c379a000000000000000000000000000000000000000000000000000000000815260040161171a9061290c565b60405180910390fd5b565b60008060009054906101000a900473ffffffffffffffffffffffffffffffffffffffff169050816000806101000a81548173ffffffffffffffffffffffffffffffffffffffff021916908373ffffffffffffffffffffffffffffffffffffffff1602179055508173ffffffffffffffffffffffffffffffffffffffff168173ffffffffffffffffffffffffffffffffffffffff167f8be0079c531659141344cd1fd0a4f28419497f9722a3daafe3b4186f6b6457e060405160405180910390a35050565b600061184b826040518060400160405280602081526020017f5361666545524332303a206c6f772d6c6576656c2063616c6c206661696c65648152508573ffffffffffffffffffffffffffffffffffffffff166118b89092919063ffffffff16565b90506000815111156118ab578080602001905181019061186b9190612964565b6118aa576040517f08c379a00000000000000000000000000000000000000000000000000000000081526004016118a190612a03565b60405180910390fd5b5b505050565b600033905090565b60606118c784846000856118d0565b90509392505050565b606082471015611915576040517f08c379a000000000000000000000000000000000000000000000000000000000815260040161190c90612a95565b60405180910390fd5b6000808673ffffffffffffffffffffffffffffffffffffffff16858760405161193e9190612b26565b60006040518083038185875af1925050503d806000811461197b576040519150601f19603f3d011682016040523d82523d6000602084013e611980565b606091505b50915091506119918783838761199d565b92505050949350505050565b606083156119ff5760008351036119f7576119b785611a12565b6119f6576040517f08c379a00000000000000000000000000000000000000000000000000000000081526004016119ed90612b89565b60405180910390fd5b5b829050611a0a565b611a098383611a35565b5b949350505050565b6000808273ffffffffffffffffffffffffffffffffffffffff163b119050919050565b600082511115611a485781518083602001fd5b806040517f08c379a0000000000000000000000000000000000000000000000000000000008152600401611a7c9190612bed565b60405180910390fd5b82805482825590600052602060002090601f01602090048101928215611b1b5791602002820160005b83821115611aec57835183826101000a81548160ff021916908360ff1602179055509260200192600101602081600001049283019260010302611aae565b8015611b195782816101000a81549060ff0219169055600101602081600001049283019260010302611aec565b505b509050611b289190611bb4565b5090565b82805482825590600052602060002090601f01602090048101928215611b7b57600052602060002091601f016020900482015b82811115611b7a578254825591600101919060010190611b5f565b5b509050611b889190611bb4565b5090565b50805460008255601f016020900490600052602060002090810190611bb19190611bb4565b50565b5b80821115611bcd576000816000905550600101611bb5565b5090565b6000604051905090565b600080fd5b600080fd5b6000819050919050565b611bf881611be5565b8114611c0357600080fd5b50565b600081359050611c1581611bef565b92915050565b600060208284031215611c3157611c30611bdb565b5b6000611c3f84828501611c06565b91505092915050565b600060ff82169050919050565b611c5e81611c48565b82525050565b600073ffffffffffffffffffffffffffffffffffffffff82169050919050565b6000611c8f82611c64565b9050919050565b611c9f81611c84565b82525050565b600063ffffffff82169050919050565b611cbe81611ca5565b82525050565b6000606082019050611cd96000830186611c55565b611ce66020830185611c96565b611cf36040830184611cb5565b949350505050565b611d0481611c48565b8114611d0f57600080fd5b50565b600081359050611d2181611cfb565b92915050565b60008060408385031215611d3e57611d3d611bdb565b5b6000611d4c85828601611c06565b9250506020611d5d85828601611d12565b9150509250929050565b6000602082019050611d7c6000830184611c96565b92915050565b600060208284031215611d9857611d97611bdb565b5b6000611da684828501611d12565b91505092915050565b611db881611be5565b82525050565b6000602082019050611dd36000830184611daf565b92915050565b6000819050919050565b6000611dfe611df9611df484611c64565b611dd9565b611c64565b9050919050565b6000611e1082611de3565b9050919050565b6000611e2282611e05565b9050919050565b611e3281611e17565b82525050565b6000602082019050611e4d6000830184611e29565b92915050565b6000611e5e82611e05565b9050919050565b611e6e81611e53565b82525050565b6000602082019050611e896000830184611e65565b92915050565b600080fd5b6000601f19601f8301169050919050565b7f4e487b7100000000000000000000000000000000000000000000000000000000600052604160045260246000fd5b611edd82611e94565b810181811067ffffffffffffffff82111715611efc57611efb611ea5565b5b80604052505050565b6000611f0f611bd1565b9050611f1b8282611ed4565b919050565b600067ffffffffffffffff821115611f3b57611f3a611ea5565b5b602082029050602081019050919050565b600080fd5b6000611f64611f5f84611f20565b611f05565b90508083825260208201905060208402830185811115611f8757611f86611f4c565b5b835b81811015611fb05780611f9c8882611d12565b845260208401935050602081019050611f89565b5050509392505050565b600082601f830112611fcf57611fce611e8f565b5b8135611fdf848260208601611f51565b91505092915050565b60008060408385031215611fff57611ffe611bdb565b5b600061200d85828601611d12565b925050602083013567ffffffffffffffff81111561202e5761202d611be0565b5b61203a85828601611fba565b9150509250929050565b61204d81611c84565b811461205857600080fd5b50565b60008135905061206a81612044565b92915050565b60006020828403121561208657612085611bdb565b5b60006120948482850161205b565b91505092915050565b7f4e487b7100000000000000000000000000000000000000000000000000000000600052603260045260246000fd5b600082825260208201905092915050565b7f596f7520617265206e6f7420746865206f666665726f72206f6620746869732060008201527f7472616465000000000000000000000000000000000000000000000000000000602082015250565b60006121396025836120cc565b9150612144826120dd565b604082019050919050565b600060208201905081810360008301526121688161212c565b9050919050565b60006020820190506121846000830184611c55565b92915050565b7f596f7520617265206e6f74206f66666572696e6720746865206361726420746860008201527f65206f666665726f722069732061736b696e6720666f72000000000000000000602082015250565b60006121e66037836120cc565b91506121f18261218a565b604082019050919050565b60006020820190508181036000830152612215816121d9565b9050919050565b60006080820190506122316000830187611c96565b61223e6020830186611c55565b61224b6040830185611c96565b6122586060830184611c55565b95945050505050565b60006040820190506122766000830185611c55565b6122836020830184611c55565b9392505050565b600060608201905061229f6000830186611c96565b6122ac6020830185611c55565b6122b96040830184611c96565b949350505050565b7f596f7520617265206e6f74207468652073656c6c6572206f662074686973207360008201527f616c650000000000000000000000000000000000000000000000000000000000602082015250565b600061231d6023836120cc565b9150612328826122c1565b604082019050919050565b6000602082019050818103600083015261234c81612310565b9050919050565b60006040820190506123686000830185611c96565b6123756020830184611c55565b9392505050565b60008151905061238b81611cfb565b92915050565b6000602082840312156123a7576123a6611bdb565b5b60006123b58482850161237c565b91505092915050565b7f596f7520646f6e2774206f776e20746865206361726420796f7520617265207460008201527f7279696e6720746f2073656c6c00000000000000000000000000000000000000602082015250565b600061241a602d836120cc565b9150612425826123be565b604082019050919050565b600060208201905081810360008301526124498161240d565b9050919050565b7f4e487b7100000000000000000000000000000000000000000000000000000000600052601160045260246000fd5b600061248a82611be5565b915061249583611be5565b92508282039050818111156124ad576124ac612450565b5b92915050565b7f596f7520646f6e2774206f776e20746865206361726420796f7520617265207460008201527f7279696e6720746f207472616465000000000000000000000000000000000000602082015250565b600061250f602e836120cc565b915061251a826124b3565b604082019050919050565b6000602082019050818103600083015261253e81612502565b9050919050565b7f596f75206d7573742061736b20666f72206174206c65617374206f6e6520636160008201527f7264000000000000000000000000000000000000000000000000000000000000602082015250565b60006125a16022836120cc565b91506125ac82612545565b604082019050919050565b600060208201905081810360008301526125d081612594565b9050919050565b7f596f752063616e27742061736b20666f72206d6f7265207468616e203130206360008201527f6172647300000000000000000000000000000000000000000000000000000000602082015250565b60006126336024836120cc565b915061263e826125d7565b604082019050919050565b6000602082019050818103600083015261266281612626565b9050919050565b600081519050919050565b600082825260208201905092915050565b6000819050602082019050919050565b61269e81611c48565b82525050565b60006126b08383612695565b60208301905092915050565b6000602082019050919050565b60006126d482612669565b6126de8185612674565b93506126e983612685565b8060005b8381101561271a57815161270188826126a4565b975061270c836126bc565b9250506001810190506126ed565b5085935050505092915050565b600060408201905061273c6000830185611c55565b818103602083015261274e81846126c9565b90509392505050565b7f4f776e61626c653a206e6577206f776e657220697320746865207a65726f206160008201527f6464726573730000000000000000000000000000000000000000000000000000602082015250565b60006127b36026836120cc565b91506127be82612757565b604082019050919050565b600060208201905081810360008301526127e2816127a6565b9050919050565b7f4e487b7100000000000000000000000000000000000000000000000000000000600052603160045260246000fd5b600060408201905061282d6000830185611daf565b61283a6020830184611daf565b9392505050565b600061284c82611be5565b91507fffffffffffffffffffffffffffffffffffffffffffffffffffffffffffffffff820361287e5761287d612450565b5b600182019050919050565b600060608201905061289e6000830186611c96565b6128ab6020830185611c96565b6128b86040830184611daf565b949350505050565b7f4f776e61626c653a2063616c6c6572206973206e6f7420746865206f776e6572600082015250565b60006128f66020836120cc565b9150612901826128c0565b602082019050919050565b60006020820190508181036000830152612925816128e9565b9050919050565b60008115159050919050565b6129418161292c565b811461294c57600080fd5b50565b60008151905061295e81612938565b92915050565b60006020828403121561297a57612979611bdb565b5b60006129888482850161294f565b91505092915050565b7f5361666545524332303a204552433230206f7065726174696f6e20646964206e60008201527f6f74207375636365656400000000000000000000000000000000000000000000602082015250565b60006129ed602a836120cc565b91506129f882612991565b604082019050919050565b60006020820190508181036000830152612a1c816129e0565b9050919050565b7f416464726573733a20696e73756666696369656e742062616c616e636520666f60008201527f722063616c6c0000000000000000000000000000000000000000000000000000602082015250565b6000612a7f6026836120cc565b9150612a8a82612a23565b604082019050919050565b60006020820190508181036000830152612aae81612a72565b9050919050565b600081519050919050565b600081905092915050565b60005b83811015612ae9578082015181840152602081019050612ace565b60008484015250505050565b6000612b0082612ab5565b612b0a8185612ac0565b9350612b1a818560208601612acb565b80840191505092915050565b6000612b328284612af5565b915081905092915050565b7f416464726573733a2063616c6c20746f206e6f6e2d636f6e7472616374000000600082015250565b6000612b73601d836120cc565b9150612b7e82612b3d565b602082019050919050565b60006020820190508181036000830152612ba281612b66565b9050919050565b600081519050919050565b6000612bbf82612ba9565b612bc981856120cc565b9350612bd9818560208601612acb565b612be281611e94565b840191505092915050565b60006020820190508181036000830152612c078184612bb4565b90509291505056fea26469706673582212201233ac48f9c1bbce7b84b0eaaab8eb986178ec2ae6ed11985bbaba3c00497cc864736f6c63430008120033",
  "linkReferences": {},
  "deployedLinkReferences": {}
}