{
  "_format": "hh-sol-artifact-1",
  "contractName": "LibStringUtils",
  "sourceName": "contracts/gamma/libs/LibStringUtils.sol",
  "abi": [
    {
      "inputs": [
        {
          "internalType": "uint256",
          "name": "value",
          "type": "uint256"
        }
      ],
      "name": "toString",
      "outputs": [
        {
          "internalType": "string",
          "name": "",
          "type": "string"
        }
      ],
      "stateMutability": "pure",
      "type": "function"
    }
  ],
  "bytecode": "0x6102ce61003a600b82828239805160001a60731461002d57634e487b7160e01b600052600060045260246000fd5b30600052607381538281f3fe73000000000000000000000000000000000000000030146080604052600436106100355760003560e01c80636900a3ae1461003a575b600080fd5b61004d61004836600461016c565b610063565b60405161005a9190610185565b60405180910390f35b60608160000361008a5750506040805180820190915260018152600360fc1b602082015290565b8160005b81156100b4578061009e816101e9565b91506100ad9050600a83610218565b915061008e565b60008167ffffffffffffffff8111156100cf576100cf61022c565b6040519080825280601f01601f1916602001820160405280156100f9576020820181803683370190505b5090505b84156101645761010e600183610242565b915061011b600a8661025b565b61012690603061026f565b60f81b81838151811061013b5761013b610282565b60200101906001600160f81b031916908160001a90535061015d600a86610218565b94506100fd565b949350505050565b60006020828403121561017e57600080fd5b5035919050565b600060208083528351808285015260005b818110156101b257858101830151858201604001528201610196565b506000604082860101526040601f19601f8301168501019250505092915050565b634e487b7160e01b600052601160045260246000fd5b6000600182016101fb576101fb6101d3565b5060010190565b634e487b7160e01b600052601260045260246000fd5b60008261022757610227610202565b500490565b634e487b7160e01b600052604160045260246000fd5b81810381811115610255576102556101d3565b92915050565b60008261026a5761026a610202565b500690565b80820180821115610255576102556101d3565b634e487b7160e01b600052603260045260246000fdfea2646970667358221220e9777e20a0452e201d3312dd3a508695794a6a7fc48e20c536fd52f14927c5a964736f6c63430008140033",
  "linkReferences": {},
  "deployedLinkReferences": {}
}