{
  "_format": "hh-sol-artifact-1",
  "contractName": "EIP712Base",
  "sourceName": "contracts/TestDAI.sol",
  "abi": [
    {
      "inputs": [],
      "name": "getChainId",
      "outputs": [
        {
          "internalType": "uint256",
          "name": "",
          "type": "uint256"
        }
      ],
      "stateMutability": "pure",
      "type": "function"
    },
    {
      "inputs": [],
      "name": "getDomainSeperator",
      "outputs": [
        {
          "internalType": "bytes32",
          "name": "",
          "type": "bytes32"
        }
      ],
      "stateMutability": "view",
      "type": "function"
    }
  ],
  "bytecode": "0x608060405260008060006101000a81548160ff02191690831515021790555034801561002a57600080fd5b5060bc806100396000396000f3fe6080604052348015600f57600080fd5b506004361060325760003560e01c806320379ee51460375780633408e470146053575b600080fd5b603d606f565b6040518082815260200191505060405180910390f35b60596079565b6040518082815260200191505060405180910390f35b6000600154905090565b600080469050809150509056fea264697066735822122090e80096a67f9843fe18e2741c4f6f7a7767e4f2a699ec2135fff0aea85ae46c64736f6c63430006060033",
  "linkReferences": {},
  "deployedLinkReferences": {}
}