{
  "_format": "hh-sol-artifact-1",
  "contractName": "NofAlphaV2",
  "sourceName": "contracts/alpha/Alpha.v2.sol",
  "abi": [
    {
      "inputs": [
        {
          "internalType": "string",
          "name": "__baseUri",
          "type": "string"
        },
        {
          "internalType": "address",
          "name": "_daiTokenAddress",
          "type": "address"
        },
        {
          "internalType": "address",
          "name": "_balanceReceiver",
          "type": "address"
        }
      ],
      "stateMutability": "nonpayable",
      "type": "constructor"
    },
    {
      "anonymous": false,
      "inputs": [
        {
          "indexed": true,
          "internalType": "address",
          "name": "owner",
          "type": "address"
        },
        {
          "indexed": true,
          "internalType": "address",
          "name": "approved",
          "type": "address"
        },
        {
          "indexed": true,
          "internalType": "uint256",
          "name": "tokenId",
          "type": "uint256"
        }
      ],
      "name": "Approval",
      "type": "event"
    },
    {
      "anonymous": false,
      "inputs": [
        {
          "indexed": true,
          "internalType": "address",
          "name": "owner",
          "type": "address"
        },
        {
          "indexed": true,
          "internalType": "address",
          "name": "operator",
          "type": "address"
        },
        {
          "indexed": false,
          "internalType": "bool",
          "name": "approved",
          "type": "bool"
        }
      ],
      "name": "ApprovalForAll",
      "type": "event"
    },
    {
      "anonymous": false,
      "inputs": [
        {
          "indexed": false,
          "internalType": "address",
          "name": "buyer",
          "type": "address"
        },
        {
          "indexed": false,
          "internalType": "string",
          "name": "seasonName",
          "type": "string"
        }
      ],
      "name": "BuyPack",
      "type": "event"
    },
    {
      "anonymous": false,
      "inputs": [
        {
          "indexed": true,
          "internalType": "address",
          "name": "previousOwner",
          "type": "address"
        },
        {
          "indexed": true,
          "internalType": "address",
          "name": "newOwner",
          "type": "address"
        }
      ],
      "name": "OwnershipTransferred",
      "type": "event"
    },
    {
      "anonymous": false,
      "inputs": [
        {
          "indexed": true,
          "internalType": "address",
          "name": "from",
          "type": "address"
        },
        {
          "indexed": true,
          "internalType": "address",
          "name": "to",
          "type": "address"
        },
        {
          "indexed": true,
          "internalType": "uint256",
          "name": "tokenId",
          "type": "uint256"
        }
      ],
      "name": "Transfer",
      "type": "event"
    },
    {
      "anonymous": false,
      "inputs": [
        {
          "indexed": false,
          "internalType": "address",
          "name": "winner",
          "type": "address"
        },
        {
          "indexed": false,
          "internalType": "string",
          "name": "season",
          "type": "string"
        },
        {
          "indexed": false,
          "internalType": "uint256",
          "name": "position",
          "type": "uint256"
        }
      ],
      "name": "Winner",
      "type": "event"
    },
    {
      "inputs": [],
      "name": "DAI_TOKEN",
      "outputs": [
        {
          "internalType": "address",
          "name": "",
          "type": "address"
        }
      ],
      "stateMutability": "view",
      "type": "function"
    },
    {
      "inputs": [
        {
          "internalType": "address",
          "name": "to",
          "type": "address"
        },
        {
          "internalType": "uint256",
          "name": "tokenId",
          "type": "uint256"
        }
      ],
      "name": "approve",
      "outputs": [],
      "stateMutability": "nonpayable",
      "type": "function"
    },
    {
      "inputs": [
        {
          "internalType": "address",
          "name": "owner",
          "type": "address"
        }
      ],
      "name": "balanceOf",
      "outputs": [
        {
          "internalType": "uint256",
          "name": "",
          "type": "uint256"
        }
      ],
      "stateMutability": "view",
      "type": "function"
    },
    {
      "inputs": [],
      "name": "balanceReceiver",
      "outputs": [
        {
          "internalType": "address",
          "name": "",
          "type": "address"
        }
      ],
      "stateMutability": "view",
      "type": "function"
    },
    {
      "inputs": [],
      "name": "baseUri",
      "outputs": [
        {
          "internalType": "string",
          "name": "",
          "type": "string"
        }
      ],
      "stateMutability": "view",
      "type": "function"
    },
    {
      "inputs": [
        {
          "internalType": "uint256",
          "name": "amount",
          "type": "uint256"
        },
        {
          "internalType": "string",
          "name": "name",
          "type": "string"
        }
      ],
      "name": "buyPack",
      "outputs": [],
      "stateMutability": "nonpayable",
      "type": "function"
    },
    {
      "inputs": [
        {
          "internalType": "uint256",
          "name": "",
          "type": "uint256"
        }
      ],
      "name": "cards",
      "outputs": [
        {
          "internalType": "uint256",
          "name": "tokenId",
          "type": "uint256"
        },
        {
          "internalType": "uint256",
          "name": "class",
          "type": "uint256"
        },
        {
          "internalType": "uint256",
          "name": "collection",
          "type": "uint256"
        },
        {
          "internalType": "string",
          "name": "season",
          "type": "string"
        },
        {
          "internalType": "uint256",
          "name": "completion",
          "type": "uint256"
        },
        {
          "internalType": "uint256",
          "name": "number",
          "type": "uint256"
        }
      ],
      "stateMutability": "view",
      "type": "function"
    },
    {
      "inputs": [
        {
          "internalType": "address",
          "name": "",
          "type": "address"
        },
        {
          "internalType": "string",
          "name": "",
          "type": "string"
        },
        {
          "internalType": "uint256",
          "name": "",
          "type": "uint256"
        }
      ],
      "name": "cardsByUserBySeason",
      "outputs": [
        {
          "internalType": "uint256",
          "name": "tokenId",
          "type": "uint256"
        },
        {
          "internalType": "uint256",
          "name": "class",
          "type": "uint256"
        },
        {
          "internalType": "uint256",
          "name": "collection",
          "type": "uint256"
        },
        {
          "internalType": "string",
          "name": "season",
          "type": "string"
        },
        {
          "internalType": "uint256",
          "name": "completion",
          "type": "uint256"
        },
        {
          "internalType": "uint256",
          "name": "number",
          "type": "uint256"
        }
      ],
      "stateMutability": "view",
      "type": "function"
    },
    {
      "inputs": [
        {
          "internalType": "uint256",
          "name": "tokenId",
          "type": "uint256"
        }
      ],
      "name": "getApproved",
      "outputs": [
        {
          "internalType": "address",
          "name": "",
          "type": "address"
        }
      ],
      "stateMutability": "view",
      "type": "function"
    },
    {
      "inputs": [
        {
          "internalType": "address",
          "name": "_user",
          "type": "address"
        },
        {
          "internalType": "string",
          "name": "_seasonName",
          "type": "string"
        }
      ],
      "name": "getCardsByUserBySeason",
      "outputs": [
        {
          "components": [
            {
              "internalType": "uint256",
              "name": "tokenId",
              "type": "uint256"
            },
            {
              "internalType": "uint256",
              "name": "class",
              "type": "uint256"
            },
            {
              "internalType": "uint256",
              "name": "collection",
              "type": "uint256"
            },
            {
              "internalType": "string",
              "name": "season",
              "type": "string"
            },
            {
              "internalType": "uint256",
              "name": "completion",
              "type": "uint256"
            },
            {
              "internalType": "uint256",
              "name": "number",
              "type": "uint256"
            }
          ],
          "internalType": "struct NofAlphaV2.Card[]",
          "name": "",
          "type": "tuple[]"
        }
      ],
      "stateMutability": "view",
      "type": "function"
    },
    {
      "inputs": [
        {
          "internalType": "string",
          "name": "name",
          "type": "string"
        }
      ],
      "name": "getSeasonAlbums",
      "outputs": [
        {
          "internalType": "uint256[]",
          "name": "",
          "type": "uint256[]"
        }
      ],
      "stateMutability": "view",
      "type": "function"
    },
    {
      "inputs": [
        {
          "internalType": "string",
          "name": "name",
          "type": "string"
        }
      ],
      "name": "getSeasonCards",
      "outputs": [
        {
          "internalType": "uint256[]",
          "name": "",
          "type": "uint256[]"
        }
      ],
      "stateMutability": "view",
      "type": "function"
    },
    {
      "inputs": [],
      "name": "getSeasonData",
      "outputs": [
        {
          "internalType": "string[]",
          "name": "",
          "type": "string[]"
        },
        {
          "internalType": "uint256[]",
          "name": "",
          "type": "uint256[]"
        }
      ],
      "stateMutability": "view",
      "type": "function"
    },
    {
      "inputs": [
        {
          "internalType": "string",
          "name": "_seasonName",
          "type": "string"
        }
      ],
      "name": "getWinners",
      "outputs": [
        {
          "internalType": "address[]",
          "name": "",
          "type": "address[]"
        }
      ],
      "stateMutability": "view",
      "type": "function"
    },
    {
      "inputs": [
        {
          "internalType": "address",
          "name": "_owner",
          "type": "address"
        },
        {
          "internalType": "address",
          "name": "_operator",
          "type": "address"
        }
      ],
      "name": "isApprovedForAll",
      "outputs": [
        {
          "internalType": "bool",
          "name": "isOperator",
          "type": "bool"
        }
      ],
      "stateMutability": "view",
      "type": "function"
    },
    {
      "inputs": [],
      "name": "name",
      "outputs": [
        {
          "internalType": "string",
          "name": "",
          "type": "string"
        }
      ],
      "stateMutability": "view",
      "type": "function"
    },
    {
      "inputs": [
        {
          "internalType": "string",
          "name": "name",
          "type": "string"
        },
        {
          "internalType": "uint256",
          "name": "price",
          "type": "uint256"
        },
        {
          "internalType": "uint256",
          "name": "amount",
          "type": "uint256"
        },
        {
          "internalType": "string",
          "name": "folder",
          "type": "string"
        }
      ],
      "name": "newSeason",
      "outputs": [],
      "stateMutability": "nonpayable",
      "type": "function"
    },
    {
      "inputs": [],
      "name": "owner",
      "outputs": [
        {
          "internalType": "address",
          "name": "",
          "type": "address"
        }
      ],
      "stateMutability": "view",
      "type": "function"
    },
    {
      "inputs": [
        {
          "internalType": "uint256",
          "name": "tokenId",
          "type": "uint256"
        }
      ],
      "name": "ownerOf",
      "outputs": [
        {
          "internalType": "address",
          "name": "",
          "type": "address"
        }
      ],
      "stateMutability": "view",
      "type": "function"
    },
    {
      "inputs": [
        {
          "internalType": "uint256",
          "name": "card",
          "type": "uint256"
        },
        {
          "internalType": "uint256",
          "name": "album",
          "type": "uint256"
        }
      ],
      "name": "pasteCards",
      "outputs": [],
      "stateMutability": "nonpayable",
      "type": "function"
    },
    {
      "inputs": [],
      "name": "prizesBalance",
      "outputs": [
        {
          "internalType": "uint256",
          "name": "",
          "type": "uint256"
        }
      ],
      "stateMutability": "view",
      "type": "function"
    },
    {
      "inputs": [],
      "name": "renounceOwnership",
      "outputs": [],
      "stateMutability": "nonpayable",
      "type": "function"
    },
    {
      "inputs": [
        {
          "internalType": "address",
          "name": "from",
          "type": "address"
        },
        {
          "internalType": "address",
          "name": "to",
          "type": "address"
        },
        {
          "internalType": "uint256",
          "name": "tokenId",
          "type": "uint256"
        }
      ],
      "name": "safeTransferFrom",
      "outputs": [],
      "stateMutability": "nonpayable",
      "type": "function"
    },
    {
      "inputs": [
        {
          "internalType": "address",
          "name": "from",
          "type": "address"
        },
        {
          "internalType": "address",
          "name": "to",
          "type": "address"
        },
        {
          "internalType": "uint256",
          "name": "tokenId",
          "type": "uint256"
        },
        {
          "internalType": "bytes",
          "name": "data",
          "type": "bytes"
        }
      ],
      "name": "safeTransferFrom",
      "outputs": [],
      "stateMutability": "nonpayable",
      "type": "function"
    },
    {
      "inputs": [
        {
          "internalType": "uint256",
          "name": "",
          "type": "uint256"
        }
      ],
      "name": "seasonNames",
      "outputs": [
        {
          "internalType": "string",
          "name": "",
          "type": "string"
        }
      ],
      "stateMutability": "view",
      "type": "function"
    },
    {
      "inputs": [
        {
          "internalType": "uint256",
          "name": "",
          "type": "uint256"
        }
      ],
      "name": "seasonPrices",
      "outputs": [
        {
          "internalType": "uint256",
          "name": "",
          "type": "uint256"
        }
      ],
      "stateMutability": "view",
      "type": "function"
    },
    {
      "inputs": [
        {
          "internalType": "string",
          "name": "",
          "type": "string"
        }
      ],
      "name": "seasons",
      "outputs": [
        {
          "internalType": "uint256",
          "name": "price",
          "type": "uint256"
        },
        {
          "internalType": "string",
          "name": "folder",
          "type": "string"
        }
      ],
      "stateMutability": "view",
      "type": "function"
    },
    {
      "inputs": [
        {
          "internalType": "address",
          "name": "operator",
          "type": "address"
        },
        {
          "internalType": "bool",
          "name": "approved",
          "type": "bool"
        }
      ],
      "name": "setApprovalForAll",
      "outputs": [],
      "stateMutability": "nonpayable",
      "type": "function"
    },
    {
      "inputs": [
        {
          "internalType": "address",
          "name": "_newBalanceReceiver",
          "type": "address"
        }
      ],
      "name": "setBalanceReceiver",
      "outputs": [],
      "stateMutability": "nonpayable",
      "type": "function"
    },
    {
      "inputs": [
        {
          "internalType": "string",
          "name": "__baseURI",
          "type": "string"
        }
      ],
      "name": "setBaseURI",
      "outputs": [],
      "stateMutability": "nonpayable",
      "type": "function"
    },
    {
      "inputs": [
        {
          "internalType": "bytes4",
          "name": "interfaceId",
          "type": "bytes4"
        }
      ],
      "name": "supportsInterface",
      "outputs": [
        {
          "internalType": "bool",
          "name": "",
          "type": "bool"
        }
      ],
      "stateMutability": "view",
      "type": "function"
    },
    {
      "inputs": [],
      "name": "symbol",
      "outputs": [
        {
          "internalType": "string",
          "name": "",
          "type": "string"
        }
      ],
      "stateMutability": "view",
      "type": "function"
    },
    {
      "inputs": [
        {
          "internalType": "uint256",
          "name": "tokenId",
          "type": "uint256"
        }
      ],
      "name": "tokenURI",
      "outputs": [
        {
          "internalType": "string",
          "name": "",
          "type": "string"
        }
      ],
      "stateMutability": "view",
      "type": "function"
    },
    {
      "inputs": [
        {
          "internalType": "address",
          "name": "from",
          "type": "address"
        },
        {
          "internalType": "address",
          "name": "to",
          "type": "address"
        },
        {
          "internalType": "uint256",
          "name": "tokenId",
          "type": "uint256"
        }
      ],
      "name": "transferFrom",
      "outputs": [],
      "stateMutability": "nonpayable",
      "type": "function"
    },
    {
      "inputs": [
        {
          "internalType": "address",
          "name": "newOwner",
          "type": "address"
        }
      ],
      "name": "transferOwnership",
      "outputs": [],
      "stateMutability": "nonpayable",
      "type": "function"
    }
  ],
  "bytecode": "0x61016060405260146080908152600e60a052600c60c052600a60e0526008610100526006610120526005610140526200003d90600f906007620001f8565b503480156200004b57600080fd5b50604051620049bc380380620049bc8339810160408190526200006e91620002dc565b604051806040016040528060098152602001684e4f4620416c70686160b81b815250604051806040016040528060048152602001634e4f464160e01b8152508160009081620000be919062000465565b506001620000cd828262000465565b505050620000ea620000e46200012c60201b60201c565b62000148565b6009620000f8848262000465565b50601380546001600160a01b039384166001600160a01b031991821617909155600a80549290931691161790555062000531565b6000620001436200019a60201b6200240e1760201c565b905090565b600780546001600160a01b038381166001600160a01b0319831681179093556040519116919082907f8be0079c531659141344cd1fd0a4f28419497f9722a3daafe3b4186f6b6457e090600090a35050565b6000303303620001f257600080368080601f0160208091040260200160405190810160405280939291908181526020018383808284376000920191909152505050503601516001600160a01b03169150620001f59050565b50335b90565b600183019183908215620002805791602002820160005b838211156200024f57835183826101000a81548160ff021916908360ff16021790555092602001926001016020816000010492830192600103026200020f565b80156200027e5782816101000a81549060ff02191690556001016020816000010492830192600103026200024f565b505b506200028e92915062000292565b5090565b5b808211156200028e576000815560010162000293565b634e487b7160e01b600052604160045260246000fd5b80516001600160a01b0381168114620002d757600080fd5b919050565b600080600060608486031215620002f257600080fd5b83516001600160401b03808211156200030a57600080fd5b818601915086601f8301126200031f57600080fd5b815181811115620003345762000334620002a9565b604051601f8201601f19908116603f011681019083821181831017156200035f576200035f620002a9565b816040528281526020935089848487010111156200037c57600080fd5b600091505b82821015620003a0578482018401518183018501529083019062000381565b6000848483010152809750505050620003bb818701620002bf565b93505050620003cd60408501620002bf565b90509250925092565b600181811c90821680620003eb57607f821691505b6020821081036200040c57634e487b7160e01b600052602260045260246000fd5b50919050565b601f8211156200046057600081815260208120601f850160051c810160208610156200043b5750805b601f850160051c820191505b818110156200045c5782815560010162000447565b5050505b505050565b81516001600160401b03811115620004815762000481620002a9565b6200049981620004928454620003d6565b8462000412565b602080601f831160018114620004d15760008415620004b85750858301515b600019600386901b1c1916600185901b1785556200045c565b600085815260208120601f198616915b828110156200050257888601518255948401946001909101908401620004e1565b5085821015620005215787850151600019600388901b60f8161c191681555b5050505050600190811b01905550565b61447b80620005416000396000f3fe608060405234801561001057600080fd5b50600436106102115760003560e01c80638477919b11610125578063be20e5a9116100ad578063e5db587a1161007c578063e5db587a146104a9578063e606df87146104b2578063e985e9c5146104c5578063e9d43f7d146104d8578063f2fde38b146104f857600080fd5b8063be20e5a91461045d578063c1f3a3bb14610470578063c87b56dd14610483578063d1811d021461049657600080fd5b806395d89b41116100f457806395d89b41146104115780639abc832014610419578063a22cb46514610421578063b773d5c114610434578063b88d4fde1461044a57600080fd5b80638477919b146103ba5780638da5cb5b146103cd5780638dc10768146103de57806395a4c525146103f157600080fd5b806342842e0e116101a85780636352211e116101775780636352211e1461033d57806370a0823114610350578063715018a614610371578063787f0b051461037957806383c73d811461039a57600080fd5b806342842e0e146102f157806355f804b31461030457806361c66c1614610317578063627b253f1461032a57600080fd5b8063095ea7b3116101e4578063095ea7b31461029357806323b872dd146102a6578063308f5987146102b957806341c2c10f146102de57600080fd5b8063015db3961461021657806301ffc9a71461022b57806306fdde0314610253578063081812fc14610268575b600080fd5b61022961022436600461382e565b61050b565b005b61023e61023936600461388a565b610c44565b60405190151581526020015b60405180910390f35b61025b610c55565b60405161024a91906138f7565b61027b61027636600461390a565b610ce7565b6040516001600160a01b03909116815260200161024a565b6102296102a136600461393f565b610d0e565b6102296102b4366004613969565b610e35565b6102cc6102c73660046139a5565b610e40565b60405161024a969594939291906139fb565b6102296102ec366004613a35565b610f3d565b6102296102ff366004613969565b61178f565b610229610312366004613a57565b6117aa565b61025b61032536600461390a565b6117c2565b600a5461027b906001600160a01b031681565b61027b61034b36600461390a565b61186e565b61036361035e366004613a8b565b6118ce565b60405190815260200161024a565b610229611954565b61038c610387366004613a57565b611968565b60405161024a929190613aa6565b6103ad6103a8366004613a57565b611a18565b60405161024a9190613afa565b6102296103c8366004613b0d565b611a8b565b6007546001600160a01b031661027b565b6102cc6103ec36600461390a565b611cbe565b6104046103ff366004613bcb565b611cee565b60405161024a9190613c0c565b61025b611d6b565b61025b611d7a565b61022961042f366004613c67565b611d87565b61043c611d99565b60405161024a929190613c9e565b610229610458366004613d14565b611ecd565b6103ad61046b366004613a57565b612110565b61022961047e366004613a8b565b612181565b61025b61049136600461390a565b6121ab565b6103636104a436600461390a565b6121b6565b61036360125481565b60135461027b906001600160a01b031681565b61023e6104d3366004613d83565b6121d7565b6104eb6104e6366004613db6565b612237565b60405161024a9190613e08565b610229610506366004613a8b565b612395565b600b8160405161051b9190613ea8565b9081526040805160209281900383019020336000908152600390910190925290205460ff16156105925760405162461bcd60e51b815260206004820152601760248201527f59612074656e657320756e207061636b2077616368696e00000000000000000060448201526064015b60405180910390fd5b6001600b826040516105a49190613ea8565b908152604080516020928190038301812033600090815260039091019093529120805460ff1916921515929092179091558290600b906105e5908490613ea8565b90815260405190819003602001902054146106425760405162461bcd60e51b815260206004820152601960248201527f53656e6420657861637420707269636520666f72205061636b000000000000006044820152606401610589565b6000606461065184604b613eda565b61065b9190613f07565b9050806012600082825461066f9190613f1b565b90915550506013546040516323b872dd60e01b8152336004820152306024820152604481018390526001600160a01b03909116906323b872dd906064016020604051808303816000875af11580156106cb573d6000803e3d6000fd5b505050506040513d601f19601f820116820180604052508101906106ef9190613f2e565b50601354600a546001600160a01b03918216916323b872dd913391166107158588613f4b565b6040516001600160e01b031960e086901b1681526001600160a01b03938416600482015292909116602483015260448201526064016020604051808303816000875af1158015610769573d6000803e3d6000fd5b505050506040513d601f19601f8201168201806040525081019061078d9190613f2e565b506000600b836040516107a09190613ea8565b9081526040805160209281900383018120600201544293820193909352016040516020818303038152906040528051906020012060001c6107e19190613f5e565b90506000600b846040516107f59190613ea8565b9081526020016040518091039020600201828154811061081757610817613f72565b90600052602060002001549050600b846040516108349190613ea8565b90815260200160405180910390206002016001600b866040516108579190613ea8565b908152604051908190036020019020600201546108749190613f4b565b8154811061088457610884613f72565b9060005260206000200154600b8560405161089f9190613ea8565b908152602001604051809103902060020183815481106108c1576108c1613f72565b9060005260206000200181905550600b846040516108df9190613ea8565b90815260200160405180910390206002018054806108ff576108ff613f88565b600190038181906000526020600020016000905590556109be33600b866040516109299190613ea8565b9081526020016040518091039020600401604051806040016040528060018152602001602f60f81b81525061095d8561246a565b60405180604001604052806005815260200164173539b7b760d91b81525060405160200161098e949392919061404b565b60408051601f19818403018152919052600060016109ad600687613f07565b6109b79190613f4b565b8886612572565b505060005b6005811015610c05576000600b846040516109de9190613ea8565b9081526040805160209281900383018120600101544293820193909352016040516020818303038152906040528051906020012060001c610a1f9190613f5e565b90506000600b85604051610a339190613ea8565b90815260200160405180910390206001018281548110610a5557610a55613f72565b90600052602060002001549050600b85604051610a729190613ea8565b90815260200160405180910390206001016001600b87604051610a959190613ea8565b90815260405190819003602001902060010154610ab29190613f4b565b81548110610ac257610ac2613f72565b9060005260206000200154600b86604051610add9190613ea8565b90815260200160405180910390206001018381548110610aff57610aff613f72565b9060005260206000200181905550600b85604051610b1d9190613ea8565b9081526020016040518091039020600101805480610b3d57610b3d613f88565b60019003818190600052602060002001600090559055610bf033600b87604051610b679190613ea8565b9081526020016040518091039020600401604051806040016040528060018152602001602f60f81b815250610b9b8561246a565b60405180604001604052806005815260200164173539b7b760d91b815250604051602001610bcc949392919061404b565b60408051601f198184030181529190526001610be9600686613f07565b8986612572565b50508080610bfd90614098565b9150506109c3565b507f55d44f7f091f0389b4dcb1b6ae002ed20fe8229c546e6aaf1ccac2646cdf514c3383604051610c379291906140b1565b60405180910390a1505050565b6000610c4f82612681565b92915050565b606060008054610c6490613f9e565b80601f0160208091040260200160405190810160405280929190818152602001828054610c9090613f9e565b8015610cdd5780601f10610cb257610100808354040283529160200191610cdd565b820191906000526020600020905b815481529060010190602001808311610cc057829003601f168201915b5050505050905090565b6000610cf2826126d1565b506000908152600460205260409020546001600160a01b031690565b6000610d198261186e565b9050806001600160a01b0316836001600160a01b031603610d865760405162461bcd60e51b815260206004820152602160248201527f4552433732313a20617070726f76616c20746f2063757272656e74206f776e656044820152603960f91b6064820152608401610589565b806001600160a01b0316610d98612730565b6001600160a01b03161480610db45750610db4816104d3612730565b610e265760405162461bcd60e51b815260206004820152603d60248201527f4552433732313a20617070726f76652063616c6c6572206973206e6f7420746f60448201527f6b656e206f776e6572206f7220617070726f76656420666f7220616c6c0000006064820152608401610589565b610e30838361273f565b505050565b610e3083838361178f565b600e6020908152600084815260409020835180850183018051928152908301928501929092209152805482908110610e7757600080fd5b90600052602060002090600602016000925092505050806000015490806001015490806002015490806003018054610eae90613f9e565b80601f0160208091040260200160405190810160405280929190818152602001828054610eda90613f9e565b8015610f275780601f10610efc57610100808354040283529160200191610f27565b820191906000526020600020905b815481529060010190602001808311610f0a57829003601f168201915b5050505050908060040154908060050154905086565b33610f478361186e565b6001600160a01b031614610f955760405162461bcd60e51b8152602060048201526015602482015274151a1a5cc81a5cc81b9bdd081e5bdd5c8818d85c99605a1b6044820152606401610589565b33610f9f8261186e565b6001600160a01b031614610fee5760405162461bcd60e51b815260206004820152601660248201527554686973206973206e6f7420796f757220616c62756d60501b6044820152606401610589565b6000818152600c6020526040902060010154156110445760405162461bcd60e51b815260206004820152601460248201527363617264206973206e6f7420616e20616c62756d60601b6044820152606401610589565b6000828152600c60205260408120600301805461106090613f9e565b80601f016020809104026020016040519081016040528092919081815260200182805461108c90613f9e565b80156110d95780601f106110ae576101008083540402835291602001916110d9565b820191906000526020600020905b8154815290600101906020018083116110bc57829003601f168201915b5050505050905060005b336000908152600e6020526040908190209051611101908490613ea8565b9081526040519081900360200190205460ff82161015611347576000848152600c6020908152604080832060050154338452600e90925291829020915190919061114c908590613ea8565b90815260200160405180910390208260ff168154811061116e5761116e613f72565b9060005260206000209060060201600501540361133557336000908152600e60205260409081902090516111a3908490613ea8565b90815260200160405180910390206001600e6000336001600160a01b03166001600160a01b03168152602001908152602001600020846040516111e69190613ea8565b908152604051908190036020019020546112009190613f4b565b8154811061121057611210613f72565b60009182526020808320338452600e9091526040928390209251600690920201919061123d908590613ea8565b90815260200160405180910390208260ff168154811061125f5761125f613f72565b90600052602060002090600602016000820154816000015560018201548160010155600282015481600201556003820181600301908161129f9190614123565b5060048281015490820155600591820154910155336000908152600e60205260409081902090516112d1908490613ea8565b90815260200160405180910390208054806112ee576112ee613f88565b6000828152602081206006600019909301928302018181556001810182905560028101829055906113226003830182613735565b5060006004820181905560059091015590555b8061133f816141ff565b9150506110e3565b50611351836127ad565b6000828152600c6020526040812060040180549161136e83614098565b9091555050336000908152600e60209081526040808320868452600c90925291829020915190916113a49160039091019061421e565b90815260200160405180910390206000815481106113c4576113c4613f72565b6000918252602082206004600690920201018054916113e283614098565b90915550506000828152600c6020526040902060040154600503610e30576000828152600c60205260408120600301805461141c90613f9e565b80601f016020809104026020016040519081016040528092919081815260200182805461144890613f9e565b80156114955780601f1061146a57610100808354040283529160200191611495565b820191906000526020600020905b81548152906001019060200180831161147857829003601f168201915b505050505090506007600d826040516114ae9190613ea8565b90815260405190819003602001902054101561168f57600d816040516114d49190613ea8565b908152604051908190036020908101822080546001818101835560009283529282200180546001600160a01b0319163317905591600a91600f91600d9061151c908790613ea8565b908152604051908190036020019020546115369190613f4b565b6007811061154657611546613f72565b602091828204019190069054906101000a900460ff1660ff16600b8460405161156f9190613ea8565b908152604051908190036020019020546115899190613eda565b6115939190613f07565b90506012548111156116005760405162461bcd60e51b815260206004820152603060248201527f5072697a65206d757374206265206c6f776572206f7220657175616c2074686160448201526f6e207072697a65732062616c616e636560801b6064820152608401610589565b80601260008282546116129190613f4b565b909155505060135460405163a9059cbb60e01b8152336004820152602481018390526001600160a01b039091169063a9059cbb906044016020604051808303816000875af1158015611668573d6000803e3d6000fd5b505050506040513d601f19601f8201168201806040525081019061168c9190613f2e565b50505b61173383600b836040516116a39190613ea8565b9081526020016040518091039020600401604051806040016040528060018152602001602f60f81b8152506116ed600c60008981526020019081526020016000206005015461246a565b6040518060400160405280600681526020016523173539b7b760d11b81525060405160200161171f949392919061404b565b6040516020818303038152906040526127b6565b7f953ec8b8176b9eb94e1561816a70bc231210aee5f1aaa59fdbad7915f9ad3c963382600d846040516117669190613ea8565b9081526040519081900360200181205461178193929161422a565b60405180910390a150505050565b610e3083838360405180602001604052806000815250611ecd565b6117b2612849565b60096117be828261425e565b5050565b601081815481106117d257600080fd5b9060005260206000200160009150905080546117ed90613f9e565b80601f016020809104026020016040519081016040528092919081815260200182805461181990613f9e565b80156118665780601f1061183b57610100808354040283529160200191611866565b820191906000526020600020905b81548152906001019060200180831161184957829003601f168201915b505050505081565b6000818152600260205260408120546001600160a01b031680610c4f5760405162461bcd60e51b8152602060048201526018602482015277115490cdcc8c4e881a5b9d985b1a59081d1bdad95b88125160421b6044820152606401610589565b60006001600160a01b0382166119385760405162461bcd60e51b815260206004820152602960248201527f4552433732313a2061646472657373207a65726f206973206e6f7420612076616044820152683634b21037bbb732b960b91b6064820152608401610589565b506001600160a01b031660009081526003602052604090205490565b61195c612849565b61196660006128c2565b565b8051602081830181018051600b825292820191909301209152805460048201805491929161199590613f9e565b80601f01602080910402602001604051908101604052809291908181526020018280546119c190613f9e565b8015611a0e5780601f106119e357610100808354040283529160200191611a0e565b820191906000526020600020905b8154815290600101906020018083116119f157829003601f168201915b5050505050905082565b6060600b82604051611a2a9190613ea8565b9081526040805191829003602090810183206001018054808302850183019093528284529190830182828015611a7f57602002820191906000526020600020905b815481526020019060010190808311611a6b575b50505050509050919050565b611a93612849565b655af3107a4000831015611af85760405162461bcd60e51b815260206004820152602660248201527f7061636b2076616c7565206d757374206265206174206c6561737420302e303060448201526530312044414960d01b6064820152608401610589565b611b03600683613f5e565b15611b505760405162461bcd60e51b815260206004820152601c60248201527f416d6f756e74206d757374206265206d756c7469706c65206f662036000000006044820152606401610589565b82600b85604051611b619190613ea8565b908152604051908190036020018120919091558190600b90611b84908790613ea8565b90815260200160405180910390206004019081611ba1919061425e565b50601080546001810182556000919091527f1b6847dc741a1b0cd08d278845f9d819d87b734759afb55fe2de5cb82a9ae67201611bde858261425e565b5060118054600181810183556000929092527f31ecc21a745e3968a04e9570e4425bc18fa8019c68028196b546d1669c200c68018490555b828111611cb757611c28600682613f5e565b600003611c6b57600b85604051611c3f9190613ea8565b908152604051602091819003820190206002018054600181018255600091825291902001819055611ca5565b600b85604051611c7b9190613ea8565b90815260405160209181900382019020600190810180549182018155600090815291909120018190555b80611caf81614098565b915050611c16565b5050505050565b600c60205260009081526040902080546001820154600283015460038401805493949293919291610eae90613f9e565b6060600d8383604051611d02929190614315565b9081526040805191829003602090810183208054808302850183019093528284529190830182828015611d5e57602002820191906000526020600020905b81546001600160a01b03168152600190910190602001808311611d40575b5050505050905092915050565b606060018054610c6490613f9e565b600980546117ed90613f9e565b6117be611d92612730565b8383612914565b6060806010601181805480602002602001604051908101604052809291908181526020016000905b82821015611e6d578382906000526020600020018054611de090613f9e565b80601f0160208091040260200160405190810160405280929190818152602001828054611e0c90613f9e565b8015611e595780601f10611e2e57610100808354040283529160200191611e59565b820191906000526020600020905b815481529060010190602001808311611e3c57829003601f168201915b505050505081526020019060010190611dc1565b50505050915080805480602002602001604051908101604052809291908181526020018280548015611ebe57602002820191906000526020600020905b815481526020019060010190808311611eaa575b50505050509050915091509091565b6000828152600c602052604081206003018054611ee990613f9e565b80601f0160208091040260200160405190810160405280929190818152602001828054611f1590613f9e565b8015611f625780601f10611f3757610100808354040283529160200191611f62565b820191906000526020600020905b815481529060010190602001808311611f4557829003601f168201915b50505050509050611f7281612110565b5115611fd25760405162461bcd60e51b815260206004820152602960248201527f54686572652061726520616c62756d7320617661696c61626c6520696e20746860448201526834b99039b2b0b9b7b760b91b6064820152608401610589565b611fde858585856129e2565b6000838152600c60205260409020600190810154900361209357600b816040516120089190613ea8565b90815260408051602092819003830190206001600160a01b0387166000908152600390910190925290205460ff1661208e5760405162461bcd60e51b815260206004820152602360248201527f5265636569766572206973206e6f7420706c6179696e6720746869732073656160448201526239b7b760e91b6064820152608401610589565b612105565b6000838152600c60205260409020600401546005146121055760405162461bcd60e51b815260206004820152602860248201527f4f6e6c7920636f6d706c6574656420616c62756d732063616e206265207472616044820152671b9cd9995c9c995960c21b6064820152608401610589565b611cb7858585612a67565b6060600b826040516121229190613ea8565b9081526040805191829003602090810183206002018054808302850183019093528284529190830182828015611a7f5760200282019190600052602060002090815481526020019060010190808311611a6b5750505050509050919050565b612189612849565b600a80546001600160a01b0319166001600160a01b0392909216919091179055565b6060610c4f82612e41565b601181815481106121c657600080fd5b600091825260209091200154905081565b60007358807bad0b376efc12f5ad86aac70e78ed67dead196001600160a01b0383160161220657506001610c4f565b6001600160a01b0380841660009081526005602090815260408083209386168352929052205460ff165b9392505050565b6001600160a01b0383166000908152600e6020526040908190209051606091906122649085908590614315565b9081526020016040518091039020805480602002602001604051908101604052809291908181526020016000905b8282101561238857838290600052602060002090600602016040518060c00160405290816000820154815260200160018201548152602001600282015481526020016003820180546122e390613f9e565b80601f016020809104026020016040519081016040528092919081815260200182805461230f90613f9e565b801561235c5780601f106123315761010080835404028352916020019161235c565b820191906000526020600020905b81548152906001019060200180831161233f57829003601f168201915b505050505081526020016004820154815260200160058201548152505081526020019060010190612292565b5050505090509392505050565b61239d612849565b6001600160a01b0381166124025760405162461bcd60e51b815260206004820152602660248201527f4f776e61626c653a206e6577206f776e657220697320746865207a65726f206160448201526564647265737360d01b6064820152608401610589565b61240b816128c2565b50565b600030330361246457600080368080601f0160208091040260200160405190810160405280939291908181526020018383808284376000920191909152505050503601516001600160a01b031691506124679050565b50335b90565b6060816000036124915750506040805180820190915260018152600360fc1b602082015290565b8160005b81156124bb57806124a581614098565b91506124b49050600a83613f07565b9150612495565b6000816001600160401b038111156124d5576124d5613783565b6040519080825280601f01601f1916602001820160405280156124ff576020820181803683370190505b5090505b841561256a57612514600183613f4b565b9150612521600a86613f5e565b61252c906030613f1b565b60f81b81838151811061254157612541613f72565b60200101906001600160f81b031916908160001a905350612563600a86613f07565b9450612503565b949350505050565b600061257d60085490565b905061258d600880546001019055565b6000818152600c6020526040902081815560018101869055600281018590556003016125b9848261425e565b506000818152600c602090815260408083206005018590556001600160a01b038a168352600e9091529081902090516125f3908590613ea8565b90815260408051602092819003830190206000848152600c84529182208154600180820184559284529390922082546006909402019283558082015490830155600280820154908301559060038082019061265090840182614123565b506004828101549082015560059182015491015561266e8782612f3c565b61267881876127b6565b50505050505050565b60006001600160e01b031982166380ac58cd60e01b14806126b257506001600160e01b03198216635b5e139f60e01b145b80610c4f57506301ffc9a760e01b6001600160e01b0319831614610c4f565b6000818152600260205260409020546001600160a01b031661240b5760405162461bcd60e51b8152602060048201526018602482015277115490cdcc8c4e881a5b9d985b1a59081d1bdad95b88125160421b6044820152606401610589565b600061273a61240e565b905090565b600081815260046020526040902080546001600160a01b0319166001600160a01b03841690811790915581906127748261186e565b6001600160a01b03167f8c5be1e5ebec7d5bd14f71427d1e84f3dd0314c0f7b2291e5b200ac8c7c3b92560405160405180910390a45050565b61240b816130d5565b6000828152600260205260409020546001600160a01b03166128315760405162461bcd60e51b815260206004820152602e60248201527f45524337323155524953746f726167653a2055524920736574206f66206e6f6e60448201526d32bc34b9ba32b73a103a37b5b2b760911b6064820152608401610589565b6000828152600660205260409020610e30828261425e565b612851612730565b6001600160a01b031661286c6007546001600160a01b031690565b6001600160a01b0316146119665760405162461bcd60e51b815260206004820181905260248201527f4f776e61626c653a2063616c6c6572206973206e6f7420746865206f776e65726044820152606401610589565b600780546001600160a01b038381166001600160a01b0319831681179093556040519116919082907f8be0079c531659141344cd1fd0a4f28419497f9722a3daafe3b4186f6b6457e090600090a35050565b816001600160a01b0316836001600160a01b0316036129755760405162461bcd60e51b815260206004820152601960248201527f4552433732313a20617070726f766520746f2063616c6c6572000000000000006044820152606401610589565b6001600160a01b03838116600081815260056020908152604080832094871680845294825291829020805460ff191686151590811790915591519182527f17307eab39ab6107e8899845ad3d59bd9653f200f220920489ca2b5937696c31910160405180910390a3505050565b6129f36129ed612730565b83613115565b612a555760405162461bcd60e51b815260206004820152602d60248201527f4552433732313a2063616c6c6572206973206e6f7420746f6b656e206f776e6560448201526c1c881bdc88185c1c1c9bdd9959609a1b6064820152608401610589565b612a6184848484613173565b50505050565b6000818152600c602052604081206003018054612a8390613f9e565b80601f0160208091040260200160405190810160405280929190818152602001828054612aaf90613f9e565b8015612afc5780601f10612ad157610100808354040283529160200191612afc565b820191906000526020600020905b815481529060010190602001808311612adf57829003601f168201915b5050505050905060005b6001600160a01b0385166000908152600e6020526040908190209051612b2d908490613ea8565b9081526040519081900360200190205460ff82161015612da2576000838152600c60209081526040808320600501546001600160a01b0389168452600e909252918290209151909190612b81908590613ea8565b90815260200160405180910390208260ff1681548110612ba357612ba3613f72565b90600052602060002090600602016005015403612d90576001600160a01b0385166000908152600e6020526040908190209051612be1908490613ea8565b90815260200160405180910390206001600e6000886001600160a01b03166001600160a01b0316815260200190815260200160002084604051612c249190613ea8565b90815260405190819003602001902054612c3e9190613f4b565b81548110612c4e57612c4e613f72565b9060005260206000209060060201600e6000876001600160a01b03166001600160a01b0316815260200190815260200160002083604051612c8f9190613ea8565b90815260200160405180910390208260ff1681548110612cb157612cb1613f72565b906000526020600020906006020160008201548160000155600182015481600101556002820154816002015560038201816003019081612cf19190614123565b50600482810154908201556005918201549101556001600160a01b0385166000908152600e6020526040908190209051612d2c908490613ea8565b9081526020016040518091039020805480612d4957612d49613f88565b600082815260208120600660001990930192830201818155600181018290556002810182905590612d7d6003830182613735565b5060006004820181905560059091015590555b80612d9a816141ff565b915050612b06565b506001600160a01b0383166000908152600e6020526040908190209051612dca908390613ea8565b90815260408051602092819003830190206000858152600c845291822081546001808201845592845293909220825460069094020192835580820154908301556002808201549083015590600380820190612e2790840182614123565b506004828101549082015560059182015491015550505050565b6060612e4c826126d1565b60008281526006602052604081208054612e6590613f9e565b80601f0160208091040260200160405190810160405280929190818152602001828054612e9190613f9e565b8015612ede5780601f10612eb357610100808354040283529160200191612ede565b820191906000526020600020905b815481529060010190602001808311612ec157829003601f168201915b505050505090506000612eef6131a6565b90508051600003612f01575092915050565b815115612f33578082604051602001612f1b929190614325565b60405160208183030381529060405292505050919050565b61256a846131b5565b6001600160a01b038216612f925760405162461bcd60e51b815260206004820181905260248201527f4552433732313a206d696e7420746f20746865207a65726f20616464726573736044820152606401610589565b6000818152600260205260409020546001600160a01b031615612ff75760405162461bcd60e51b815260206004820152601c60248201527f4552433732313a20746f6b656e20616c7265616479206d696e746564000000006044820152606401610589565b61300560008383600161321b565b6000818152600260205260409020546001600160a01b03161561306a5760405162461bcd60e51b815260206004820152601c60248201527f4552433732313a20746f6b656e20616c7265616479206d696e746564000000006044820152606401610589565b6001600160a01b038216600081815260036020908152604080832080546001019055848352600290915280822080546001600160a01b0319168417905551839291907fddf252ad1be2c89b69c2b068fc378daa952ba7f163c4a11628f55a4df523b3ef908290a45050565b6130de81613227565b600081815260066020526040902080546130f790613f9e565b15905061240b57600081815260066020526040812061240b91613735565b6000806131218361186e565b9050806001600160a01b0316846001600160a01b03161480613148575061314881856121d7565b8061256a5750836001600160a01b031661316184610ce7565b6001600160a01b031614949350505050565b61317e8484846132ca565b61318a8484848461343b565b612a615760405162461bcd60e51b815260040161058990614354565b606060098054610c6490613f9e565b60606131c0826126d1565b60006131ca6131a6565b905060008151116131ea5760405180602001604052806000815250612230565b806131f484613543565b604051602001613205929190614325565b6040516020818303038152906040529392505050565b612a61848484846135d5565b60006132328261186e565b905061324281600084600161321b565b61324b8261186e565b600083815260046020908152604080832080546001600160a01b03199081169091556001600160a01b0385168085526003845282852080546000190190558785526002909352818420805490911690555192935084927fddf252ad1be2c89b69c2b068fc378daa952ba7f163c4a11628f55a4df523b3ef908390a45050565b826001600160a01b03166132dd8261186e565b6001600160a01b0316146133035760405162461bcd60e51b8152600401610589906143a6565b6001600160a01b0382166133655760405162461bcd60e51b8152602060048201526024808201527f4552433732313a207472616e7366657220746f20746865207a65726f206164646044820152637265737360e01b6064820152608401610589565b613372838383600161321b565b826001600160a01b03166133858261186e565b6001600160a01b0316146133ab5760405162461bcd60e51b8152600401610589906143a6565b600081815260046020908152604080832080546001600160a01b03199081169091556001600160a01b0387811680865260038552838620805460001901905590871680865283862080546001019055868652600290945282852080549092168417909155905184937fddf252ad1be2c89b69c2b068fc378daa952ba7f163c4a11628f55a4df523b3ef91a4505050565b60006001600160a01b0384163b1561353857836001600160a01b031663150b7a02613464612730565b8786866040518563ffffffff1660e01b815260040161348694939291906143eb565b6020604051808303816000875af19250505080156134c1575060408051601f3d908101601f191682019092526134be91810190614428565b60015b61351e573d8080156134ef576040519150601f19603f3d011682016040523d82523d6000602084013e6134f4565b606091505b5080516000036135165760405162461bcd60e51b815260040161058990614354565b805181602001fd5b6001600160e01b031916630a85bd0160e11b14905061256a565b506001949350505050565b606060006135508361365d565b60010190506000816001600160401b0381111561356f5761356f613783565b6040519080825280601f01601f191660200182016040528015613599576020820181803683370190505b5090508181016020015b600019016f181899199a1a9b1b9c1cb0b131b232b360811b600a86061a8153600a85049450846135a357509392505050565b6001811115612a61576001600160a01b0384161561361b576001600160a01b03841660009081526003602052604081208054839290613615908490613f4b565b90915550505b6001600160a01b03831615612a61576001600160a01b03831660009081526003602052604081208054839290613652908490613f1b565b909155505050505050565b60008072184f03e93ff9f4daa797ed6e38ed64bf6a1f0160401b831061369c5772184f03e93ff9f4daa797ed6e38ed64bf6a1f0160401b830492506040015b6d04ee2d6d415b85acef810000000083106136c8576d04ee2d6d415b85acef8100000000830492506020015b662386f26fc1000083106136e657662386f26fc10000830492506010015b6305f5e10083106136fe576305f5e100830492506008015b612710831061371257612710830492506004015b60648310613724576064830492506002015b600a8310610c4f5760010192915050565b50805461374190613f9e565b6000825580601f10613751575050565b601f01602090049060005260206000209081019061240b91905b8082111561377f576000815560010161376b565b5090565b634e487b7160e01b600052604160045260246000fd5b60006001600160401b03808411156137b3576137b3613783565b604051601f8501601f19908116603f011681019082821181831017156137db576137db613783565b816040528093508581528686860111156137f457600080fd5b858560208301376000602087830101525050509392505050565b600082601f83011261381f57600080fd5b61223083833560208501613799565b6000806040838503121561384157600080fd5b8235915060208301356001600160401b0381111561385e57600080fd5b61386a8582860161380e565b9150509250929050565b6001600160e01b03198116811461240b57600080fd5b60006020828403121561389c57600080fd5b813561223081613874565b60005b838110156138c25781810151838201526020016138aa565b50506000910152565b600081518084526138e38160208601602086016138a7565b601f01601f19169290920160200192915050565b60208152600061223060208301846138cb565b60006020828403121561391c57600080fd5b5035919050565b80356001600160a01b038116811461393a57600080fd5b919050565b6000806040838503121561395257600080fd5b61395b83613923565b946020939093013593505050565b60008060006060848603121561397e57600080fd5b61398784613923565b925061399560208501613923565b9150604084013590509250925092565b6000806000606084860312156139ba57600080fd5b6139c384613923565b925060208401356001600160401b038111156139de57600080fd5b6139ea8682870161380e565b925050604084013590509250925092565b86815285602082015284604082015260c060608201526000613a2060c08301866138cb565b60808301949094525060a00152949350505050565b60008060408385031215613a4857600080fd5b50508035926020909101359150565b600060208284031215613a6957600080fd5b81356001600160401b03811115613a7f57600080fd5b61256a8482850161380e565b600060208284031215613a9d57600080fd5b61223082613923565b82815260406020820152600061256a60408301846138cb565b600081518084526020808501945080840160005b83811015613aef57815187529582019590820190600101613ad3565b509495945050505050565b6020815260006122306020830184613abf565b60008060008060808587031215613b2357600080fd5b84356001600160401b0380821115613b3a57600080fd5b613b468883890161380e565b955060208701359450604087013593506060870135915080821115613b6a57600080fd5b50613b778782880161380e565b91505092959194509250565b60008083601f840112613b9557600080fd5b5081356001600160401b03811115613bac57600080fd5b602083019150836020828501011115613bc457600080fd5b9250929050565b60008060208385031215613bde57600080fd5b82356001600160401b03811115613bf457600080fd5b613c0085828601613b83565b90969095509350505050565b6020808252825182820181905260009190848201906040850190845b81811015613c4d5783516001600160a01b031683529284019291840191600101613c28565b50909695505050505050565b801515811461240b57600080fd5b60008060408385031215613c7a57600080fd5b613c8383613923565b91506020830135613c9381613c59565b809150509250929050565b6000604082016040835280855180835260608501915060608160051b8601019250602080880160005b83811015613cf557605f19888703018552613ce38683516138cb565b95509382019390820190600101613cc7565b505085840381870152505050613d0b8185613abf565b95945050505050565b60008060008060808587031215613d2a57600080fd5b613d3385613923565b9350613d4160208601613923565b92506040850135915060608501356001600160401b03811115613d6357600080fd5b8501601f81018713613d7457600080fd5b613b7787823560208401613799565b60008060408385031215613d9657600080fd5b613d9f83613923565b9150613dad60208401613923565b90509250929050565b600080600060408486031215613dcb57600080fd5b613dd484613923565b925060208401356001600160401b03811115613def57600080fd5b613dfb86828701613b83565b9497909650939450505050565b60006020808301818452808551808352604092508286019150828160051b87010184880160005b83811015613e9a57603f19898403018552815160c081518552888201518986015287820151888601526060808301518282880152613e6f838801826138cb565b6080858101519089015260a09485015194909701939093525050509386019390860190600101613e2f565b509098975050505050505050565b60008251613eba8184602087016138a7565b9190910192915050565b634e487b7160e01b600052601160045260246000fd5b8082028115828204841417610c4f57610c4f613ec4565b634e487b7160e01b600052601260045260246000fd5b600082613f1657613f16613ef1565b500490565b80820180821115610c4f57610c4f613ec4565b600060208284031215613f4057600080fd5b815161223081613c59565b81810381811115610c4f57610c4f613ec4565b600082613f6d57613f6d613ef1565b500690565b634e487b7160e01b600052603260045260246000fd5b634e487b7160e01b600052603160045260246000fd5b600181811c90821680613fb257607f821691505b602082108103613fd257634e487b7160e01b600052602260045260246000fd5b50919050565b60008154613fe581613f9e565b60018281168015613ffd576001811461401257614041565b60ff1984168752821515830287019450614041565b8560005260208060002060005b858110156140385781548a82015290840190820161401f565b50505082870194505b5050505092915050565b60006140578287613fd8565b8551614067818360208a016138a7565b855191019061407a8183602089016138a7565b845191019061408d8183602088016138a7565b019695505050505050565b6000600182016140aa576140aa613ec4565b5060010190565b6001600160a01b038316815260406020820181905260009061256a908301846138cb565b601f821115610e3057600081815260208120601f850160051c810160208610156140fc5750805b601f850160051c820191505b8181101561411b57828155600101614108565b505050505050565b81810361412e575050565b6141388254613f9e565b6001600160401b0381111561414f5761414f613783565b6141638161415d8454613f9e565b846140d5565b6000601f821160018114614197576000831561417f5750848201545b600019600385901b1c1916600184901b178455611cb7565b600085815260209020601f19841690600086815260209020845b838110156141d157828601548255600195860195909101906020016141b1565b50858310156141ef5781850154600019600388901b60f8161c191681555b5050505050600190811b01905550565b600060ff821660ff810361421557614215613ec4565b60010192915050565b60006122308284613fd8565b6001600160a01b038416815260606020820181905260009061424e908301856138cb565b9050826040830152949350505050565b81516001600160401b0381111561427757614277613783565b6142858161415d8454613f9e565b602080601f8311600181146142ba57600084156142a25750858301515b600019600386901b1c1916600185901b17855561411b565b600085815260208120601f198616915b828110156142e9578886015182559484019460019091019084016142ca565b50858210156141ef57939096015160001960f8600387901b161c19169092555050600190811b01905550565b8183823760009101908152919050565b600083516143378184602088016138a7565b83519083019061434b8183602088016138a7565b01949350505050565b60208082526032908201527f4552433732313a207472616e7366657220746f206e6f6e20455243373231526560408201527131b2b4bb32b91034b6b83632b6b2b73a32b960711b606082015260800190565b60208082526025908201527f4552433732313a207472616e736665722066726f6d20696e636f72726563742060408201526437bbb732b960d91b606082015260800190565b6001600160a01b038581168252841660208201526040810183905260806060820181905260009061441e908301846138cb565b9695505050505050565b60006020828403121561443a57600080fd5b81516122308161387456fea2646970667358221220b52ab67087a553bdb6b6cb52fb888610452450edfb1546bffd01916eaab859bf64736f6c63430008120033",
  "linkReferences": {},
  "deployedLinkReferences": {}
}