{
  "_format": "hh-sol-artifact-1",
  "contractName": "GammaPacks",
  "sourceName": "contracts/GammaPacks.sol",
  "abi": [
    {
      "inputs": [
        {
          "internalType": "address",
          "name": "_daiTokenAddress",
          "type": "address"
        },
        {
          "internalType": "address",
          "name": "_balanceReceiver",
          "type": "address"
        }
      ],
      "stateMutability": "nonpayable",
      "type": "constructor"
    },
    {
      "anonymous": false,
      "inputs": [
        {
          "indexed": false,
          "internalType": "address",
          "name": "newCardsContract",
          "type": "address"
        }
      ],
      "name": "NewCardsContract",
      "type": "event"
    },
    {
      "anonymous": false,
      "inputs": [
        {
          "indexed": false,
          "internalType": "uint256",
          "name": "newPrice",
          "type": "uint256"
        }
      ],
      "name": "NewPrice",
      "type": "event"
    },
    {
      "anonymous": false,
      "inputs": [
        {
          "indexed": true,
          "internalType": "address",
          "name": "previousOwner",
          "type": "address"
        },
        {
          "indexed": true,
          "internalType": "address",
          "name": "newOwner",
          "type": "address"
        }
      ],
      "name": "OwnershipTransferred",
      "type": "event"
    },
    {
      "anonymous": false,
      "inputs": [
        {
          "indexed": false,
          "internalType": "address",
          "name": "buyer",
          "type": "address"
        },
        {
          "indexed": false,
          "internalType": "uint256",
          "name": "tokenId",
          "type": "uint256"
        }
      ],
      "name": "PackPurchase",
      "type": "event"
    },
    {
      "anonymous": false,
      "inputs": [
        {
          "indexed": false,
          "internalType": "address",
          "name": "from",
          "type": "address"
        },
        {
          "indexed": false,
          "internalType": "address",
          "name": "to",
          "type": "address"
        },
        {
          "indexed": false,
          "internalType": "uint256",
          "name": "tokenId",
          "type": "uint256"
        }
      ],
      "name": "PackTransfer",
      "type": "event"
    },
    {
      "inputs": [],
      "name": "DAI_TOKEN",
      "outputs": [
        {
          "internalType": "address",
          "name": "",
          "type": "address"
        }
      ],
      "stateMutability": "view",
      "type": "function"
    },
    {
      "inputs": [],
      "name": "balanceReceiver",
      "outputs": [
        {
          "internalType": "address",
          "name": "",
          "type": "address"
        }
      ],
      "stateMutability": "view",
      "type": "function"
    },
    {
      "inputs": [],
      "name": "buyPack",
      "outputs": [],
      "stateMutability": "nonpayable",
      "type": "function"
    },
    {
      "inputs": [],
      "name": "cardsContract",
      "outputs": [
        {
          "internalType": "contract ICardsContract",
          "name": "",
          "type": "address"
        }
      ],
      "stateMutability": "view",
      "type": "function"
    },
    {
      "inputs": [
        {
          "internalType": "uint256",
          "name": "_newPrice",
          "type": "uint256"
        }
      ],
      "name": "changePrice",
      "outputs": [],
      "stateMutability": "nonpayable",
      "type": "function"
    },
    {
      "inputs": [
        {
          "internalType": "uint256",
          "name": "tokenId",
          "type": "uint256"
        }
      ],
      "name": "getPackOwner",
      "outputs": [
        {
          "internalType": "address",
          "name": "",
          "type": "address"
        }
      ],
      "stateMutability": "view",
      "type": "function"
    },
    {
      "inputs": [
        {
          "internalType": "address",
          "name": "owner",
          "type": "address"
        }
      ],
      "name": "getPacksByUser",
      "outputs": [
        {
          "internalType": "uint256[]",
          "name": "",
          "type": "uint256[]"
        }
      ],
      "stateMutability": "view",
      "type": "function"
    },
    {
      "inputs": [
        {
          "internalType": "uint256",
          "name": "tokenId",
          "type": "uint256"
        }
      ],
      "name": "openPack",
      "outputs": [],
      "stateMutability": "nonpayable",
      "type": "function"
    },
    {
      "inputs": [],
      "name": "owner",
      "outputs": [
        {
          "internalType": "address",
          "name": "",
          "type": "address"
        }
      ],
      "stateMutability": "view",
      "type": "function"
    },
    {
      "inputs": [],
      "name": "packPrice",
      "outputs": [
        {
          "internalType": "uint256",
          "name": "",
          "type": "uint256"
        }
      ],
      "stateMutability": "view",
      "type": "function"
    },
    {
      "inputs": [
        {
          "internalType": "uint256",
          "name": "tokenId",
          "type": "uint256"
        }
      ],
      "name": "packs",
      "outputs": [
        {
          "internalType": "address",
          "name": "owner",
          "type": "address"
        }
      ],
      "stateMutability": "view",
      "type": "function"
    },
    {
      "inputs": [
        {
          "internalType": "address",
          "name": "owner",
          "type": "address"
        },
        {
          "internalType": "uint256",
          "name": "",
          "type": "uint256"
        }
      ],
      "name": "packsByUser",
      "outputs": [
        {
          "internalType": "uint256",
          "name": "tokenIds",
          "type": "uint256"
        }
      ],
      "stateMutability": "view",
      "type": "function"
    },
    {
      "inputs": [],
      "name": "renounceOwnership",
      "outputs": [],
      "stateMutability": "nonpayable",
      "type": "function"
    },
    {
      "inputs": [
        {
          "internalType": "address",
          "name": "_cardsContract",
          "type": "address"
        }
      ],
      "name": "setCardsContract",
      "outputs": [],
      "stateMutability": "nonpayable",
      "type": "function"
    },
    {
      "inputs": [],
      "name": "totalSupply",
      "outputs": [
        {
          "internalType": "uint256",
          "name": "",
          "type": "uint256"
        }
      ],
      "stateMutability": "view",
      "type": "function"
    },
    {
      "inputs": [
        {
          "internalType": "address",
          "name": "newOwner",
          "type": "address"
        }
      ],
      "name": "transferOwnership",
      "outputs": [],
      "stateMutability": "nonpayable",
      "type": "function"
    },
    {
      "inputs": [
        {
          "internalType": "address",
          "name": "to",
          "type": "address"
        },
        {
          "internalType": "uint256",
          "name": "tokenId",
          "type": "uint256"
        }
      ],
      "name": "transferPack",
      "outputs": [],
      "stateMutability": "nonpayable",
      "type": "function"
    }
  ],
  "bytecode": "0x60a06040527fffffffffffffffffffffffffffffffffffffffffffffffffffffffffffffffff6080908152506710a741a4627800006004553480156200004457600080fd5b5060405162001cb738038062001cb783398181016040528101906200006a91906200024a565b6200008a6200007e6200011460201b60201c565b6200011c60201b60201c565b81600260006101000a81548173ffffffffffffffffffffffffffffffffffffffff021916908373ffffffffffffffffffffffffffffffffffffffff16021790555080600560006101000a81548173ffffffffffffffffffffffffffffffffffffffff021916908373ffffffffffffffffffffffffffffffffffffffff160217905550505062000291565b600033905090565b60008060009054906101000a900473ffffffffffffffffffffffffffffffffffffffff169050816000806101000a81548173ffffffffffffffffffffffffffffffffffffffff021916908373ffffffffffffffffffffffffffffffffffffffff1602179055508173ffffffffffffffffffffffffffffffffffffffff168173ffffffffffffffffffffffffffffffffffffffff167f8be0079c531659141344cd1fd0a4f28419497f9722a3daafe3b4186f6b6457e060405160405180910390a35050565b600080fd5b600073ffffffffffffffffffffffffffffffffffffffff82169050919050565b60006200021282620001e5565b9050919050565b620002248162000205565b81146200023057600080fd5b50565b600081519050620002448162000219565b92915050565b60008060408385031215620002645762000263620001e0565b5b6000620002748582860162000233565b9250506020620002878582860162000233565b9150509250929050565b608051611a0d620002aa60003960005050611a0d6000f3fe608060405234801561001057600080fd5b506004361061010a5760003560e01c80638fd5baf7116100a2578063c37b9bcd11610071578063c37b9bcd14610293578063d3e6a7ad1461029d578063d611713e146102cd578063e606df87146102e9578063f2fde38b146103075761010a565b80638fd5baf7146101e7578063a2b40d1914610217578063b84c139214610233578063bd713380146102635761010a565b8063627b253f116100de578063627b253f146101855780636374cb8b146101a3578063715018a6146101bf5780638da5cb5b146101c95761010a565b806279ee211461010f57806318160ddd1461012d578063335c8b631461014b57806350a88c7e14610169575b600080fd5b610117610323565b604051610124919061121c565b60405180910390f35b610135610349565b6040516101429190611250565b60405180910390f35b61015361034f565b6040516101609190611250565b60405180910390f35b610183600480360381019061017e919061129c565b610355565b005b61018d610427565b60405161019a91906112ea565b60405180910390f35b6101bd60048036038101906101b89190611331565b61044d565b005b6101c76104d0565b005b6101d16104e4565b6040516101de91906112ea565b60405180910390f35b61020160048036038101906101fc9190611331565b61050d565b60405161020e919061141c565b60405180910390f35b610231600480360381019061022c919061129c565b6105a4565b005b61024d6004803603810190610248919061129c565b61067a565b60405161025a91906112ea565b60405180910390f35b61027d6004803603810190610278919061143e565b6106ad565b60405161028a9190611250565b60405180910390f35b61029b6106de565b005b6102b760048036038101906102b2919061129c565b610b04565b6040516102c491906112ea565b60405180910390f35b6102e760048036038101906102e2919061143e565b610b41565b005b6102f1610d51565b6040516102fe91906112ea565b60405180910390f35b610321600480360381019061031c9190611331565b610d77565b005b600360009054906101000a900473ffffffffffffffffffffffffffffffffffffffff1681565b61c35081565b60045481565b600360009054906101000a900473ffffffffffffffffffffffffffffffffffffffff1673ffffffffffffffffffffffffffffffffffffffff163373ffffffffffffffffffffffffffffffffffffffff16146103e5576040517f08c379a00000000000000000000000000000000000000000000000000000000081526004016103dc906114db565b60405180910390fd5b6103ee81610dfa565b6006600082815260200190815260200160002060006101000a81549073ffffffffffffffffffffffffffffffffffffffff021916905550565b600560009054906101000a900473ffffffffffffffffffffffffffffffffffffffff1681565b61045561102f565b80600360006101000a81548173ffffffffffffffffffffffffffffffffffffffff021916908373ffffffffffffffffffffffffffffffffffffffff1602179055507f03fb71c656441080e12a35ef543bf2141601e59906bf22cf1952f28da56f45e1816040516104c591906112ea565b60405180910390a150565b6104d861102f565b6104e260006110ad565b565b60008060009054906101000a900473ffffffffffffffffffffffffffffffffffffffff16905090565b6060600760008373ffffffffffffffffffffffffffffffffffffffff1673ffffffffffffffffffffffffffffffffffffffff16815260200190815260200160002080548060200260200160405190810160405280929190818152602001828054801561059857602002820191906000526020600020905b815481526020019060010190808311610584575b50505050509050919050565b6105ac61102f565b80600481905550600360009054906101000a900473ffffffffffffffffffffffffffffffffffffffff1673ffffffffffffffffffffffffffffffffffffffff1663e1883c6e826040518263ffffffff1660e01b815260040161060e9190611250565b600060405180830381600087803b15801561062857600080fd5b505af115801561063c573d6000803e3d6000fd5b505050507f270b316b51ab2cf3a3bb8ca4d22e76a327d05e762fcaa8bd6afaf8cfde9270b78160405161066f9190611250565b60405180910390a150565b60066020528060005260406000206000915054906101000a900473ffffffffffffffffffffffffffffffffffffffff1681565b600760205281600052604060002081815481106106c957600080fd5b90600052602060002001600091509150505481565b600073ffffffffffffffffffffffffffffffffffffffff16600360009054906101000a900473ffffffffffffffffffffffffffffffffffffffff1673ffffffffffffffffffffffffffffffffffffffff160361076f576040517f08c379a000000000000000000000000000000000000000000000000000000000815260040161076690611547565b60405180910390fd5b600061077b6001611171565b905061c35081106107c1576040517f08c379a00000000000000000000000000000000000000000000000000000000081526004016107b8906115b3565b60405180910390fd5b6107cb600161117f565b336006600083815260200190815260200160002060006101000a81548173ffffffffffffffffffffffffffffffffffffffff021916908373ffffffffffffffffffffffffffffffffffffffff160217905550600760003373ffffffffffffffffffffffffffffffffffffffff1673ffffffffffffffffffffffffffffffffffffffff168152602001908152602001600020819080600181540180825580915050600190039060005260206000200160009091909190915055600060066004546108949190611631565b6004546108a19190611662565b9050600360009054906101000a900473ffffffffffffffffffffffffffffffffffffffff1673ffffffffffffffffffffffffffffffffffffffff16638ba526fc826040518263ffffffff1660e01b81526004016108fe9190611250565b600060405180830381600087803b15801561091857600080fd5b505af115801561092c573d6000803e3d6000fd5b50505050600260009054906101000a900473ffffffffffffffffffffffffffffffffffffffff1673ffffffffffffffffffffffffffffffffffffffff166323b872dd33600360009054906101000a900473ffffffffffffffffffffffffffffffffffffffff16846040518463ffffffff1660e01b81526004016109b193929190611696565b6020604051808303816000875af11580156109d0573d6000803e3d6000fd5b505050506040513d601f19601f820116820180604052508101906109f49190611705565b50600260009054906101000a900473ffffffffffffffffffffffffffffffffffffffff1673ffffffffffffffffffffffffffffffffffffffff166323b872dd33600560009054906101000a900473ffffffffffffffffffffffffffffffffffffffff1684600454610a659190611662565b6040518463ffffffff1660e01b8152600401610a8393929190611696565b6020604051808303816000875af1158015610aa2573d6000803e3d6000fd5b505050506040513d601f19601f82011682018060405250810190610ac69190611705565b507f4bec02a302b11f990fe586d595753fd0163e88c0f3fff0cdcc10e831ac620e9a3383604051610af8929190611732565b60405180910390a15050565b60006006600083815260200190815260200160002060009054906101000a900473ffffffffffffffffffffffffffffffffffffffff169050919050565b3373ffffffffffffffffffffffffffffffffffffffff166006600083815260200190815260200160002060009054906101000a900473ffffffffffffffffffffffffffffffffffffffff1673ffffffffffffffffffffffffffffffffffffffff1614610be2576040517f08c379a0000000000000000000000000000000000000000000000000000000008152600401610bd9906117a7565b60405180910390fd5b600073ffffffffffffffffffffffffffffffffffffffff168273ffffffffffffffffffffffffffffffffffffffff1603610c51576040517f08c379a0000000000000000000000000000000000000000000000000000000008152600401610c4890611813565b60405180910390fd5b816006600083815260200190815260200160002060006101000a81548173ffffffffffffffffffffffffffffffffffffffff021916908373ffffffffffffffffffffffffffffffffffffffff160217905550610cac81610dfa565b600760008373ffffffffffffffffffffffffffffffffffffffff1673ffffffffffffffffffffffffffffffffffffffff1681526020019081526020016000208190806001815401808255809150506001900390600052602060002001600090919091909150557fddb6f61cc68e099150dacab8be873f19cc91f6ceb7d8237794124ede38722aaf338383604051610d4593929190611696565b60405180910390a15050565b600260009054906101000a900473ffffffffffffffffffffffffffffffffffffffff1681565b610d7f61102f565b600073ffffffffffffffffffffffffffffffffffffffff168173ffffffffffffffffffffffffffffffffffffffff1603610dee576040517f08c379a0000000000000000000000000000000000000000000000000000000008152600401610de5906118a5565b60405180910390fd5b610df7816110ad565b50565b60005b600760003373ffffffffffffffffffffffffffffffffffffffff1673ffffffffffffffffffffffffffffffffffffffff1681526020019081526020016000208054905081101561102b5781600760003373ffffffffffffffffffffffffffffffffffffffff1673ffffffffffffffffffffffffffffffffffffffff1681526020019081526020016000208281548110610e9957610e986118c5565b5b90600052602060002001540361101857600760003373ffffffffffffffffffffffffffffffffffffffff1673ffffffffffffffffffffffffffffffffffffffff1681526020019081526020016000206001600760003373ffffffffffffffffffffffffffffffffffffffff1673ffffffffffffffffffffffffffffffffffffffff16815260200190815260200160002080549050610f379190611662565b81548110610f4857610f476118c5565b5b9060005260206000200154600760003373ffffffffffffffffffffffffffffffffffffffff1673ffffffffffffffffffffffffffffffffffffffff1681526020019081526020016000208281548110610fa457610fa36118c5565b5b9060005260206000200181905550600760003373ffffffffffffffffffffffffffffffffffffffff1673ffffffffffffffffffffffffffffffffffffffff168152602001908152602001600020805480611001576110006118f4565b5b600190038181906000526020600020016000905590555b808061102390611923565b915050610dfd565b5050565b611037611195565b73ffffffffffffffffffffffffffffffffffffffff166110556104e4565b73ffffffffffffffffffffffffffffffffffffffff16146110ab576040517f08c379a00000000000000000000000000000000000000000000000000000000081526004016110a2906119b7565b60405180910390fd5b565b60008060009054906101000a900473ffffffffffffffffffffffffffffffffffffffff169050816000806101000a81548173ffffffffffffffffffffffffffffffffffffffff021916908373ffffffffffffffffffffffffffffffffffffffff1602179055508173ffffffffffffffffffffffffffffffffffffffff168173ffffffffffffffffffffffffffffffffffffffff167f8be0079c531659141344cd1fd0a4f28419497f9722a3daafe3b4186f6b6457e060405160405180910390a35050565b600081600001549050919050565b6001816000016000828254019250508190555050565b600033905090565b600073ffffffffffffffffffffffffffffffffffffffff82169050919050565b6000819050919050565b60006111e26111dd6111d88461119d565b6111bd565b61119d565b9050919050565b60006111f4826111c7565b9050919050565b6000611206826111e9565b9050919050565b611216816111fb565b82525050565b6000602082019050611231600083018461120d565b92915050565b6000819050919050565b61124a81611237565b82525050565b60006020820190506112656000830184611241565b92915050565b600080fd5b61127981611237565b811461128457600080fd5b50565b60008135905061129681611270565b92915050565b6000602082840312156112b2576112b161126b565b5b60006112c084828501611287565b91505092915050565b60006112d48261119d565b9050919050565b6112e4816112c9565b82525050565b60006020820190506112ff60008301846112db565b92915050565b61130e816112c9565b811461131957600080fd5b50565b60008135905061132b81611305565b92915050565b6000602082840312156113475761134661126b565b5b60006113558482850161131c565b91505092915050565b600081519050919050565b600082825260208201905092915050565b6000819050602082019050919050565b61139381611237565b82525050565b60006113a5838361138a565b60208301905092915050565b6000602082019050919050565b60006113c98261135e565b6113d38185611369565b93506113de8361137a565b8060005b8381101561140f5781516113f68882611399565b9750611401836113b1565b9250506001810190506113e2565b5085935050505092915050565b6000602082019050818103600083015261143681846113be565b905092915050565b600080604083850312156114555761145461126b565b5b60006114638582860161131c565b925050602061147485828601611287565b9150509250929050565b600082825260208201905092915050565b7f4e6f20657320636f6e747261746f206465206361727461730000000000000000600082015250565b60006114c560188361147e565b91506114d08261148f565b602082019050919050565b600060208201905081810360008301526114f4816114b8565b9050919050565b7f436f6e747261746f20646520636172746173206e6f207365746561646f000000600082015250565b6000611531601d8361147e565b915061153c826114fb565b602082019050919050565b6000602082019050818103600083015261156081611524565b9050919050565b7f5365206163616261726f6e206c6f7320736f6272657300000000000000000000600082015250565b600061159d60168361147e565b91506115a882611567565b602082019050919050565b600060208201905081810360008301526115cc81611590565b9050919050565b7f4e487b7100000000000000000000000000000000000000000000000000000000600052601260045260246000fd5b7f4e487b7100000000000000000000000000000000000000000000000000000000600052601160045260246000fd5b600061163c82611237565b915061164783611237565b925082611657576116566115d3565b5b828204905092915050565b600061166d82611237565b915061167883611237565b92508282039050818111156116905761168f611602565b5b92915050565b60006060820190506116ab60008301866112db565b6116b860208301856112db565b6116c56040830184611241565b949350505050565b60008115159050919050565b6116e2816116cd565b81146116ed57600080fd5b50565b6000815190506116ff816116d9565b92915050565b60006020828403121561171b5761171a61126b565b5b6000611729848285016116f0565b91505092915050565b600060408201905061174760008301856112db565b6117546020830184611241565b9392505050565b7f457374652070617175657465206e6f206573207475796f000000000000000000600082015250565b600061179160178361147e565b915061179c8261175b565b602082019050919050565b600060208201905081810360008301526117c081611784565b9050919050565b7f5175656d6172206e6f207065726d697469646f00000000000000000000000000600082015250565b60006117fd60138361147e565b9150611808826117c7565b602082019050919050565b6000602082019050818103600083015261182c816117f0565b9050919050565b7f4f776e61626c653a206e6577206f776e657220697320746865207a65726f206160008201527f6464726573730000000000000000000000000000000000000000000000000000602082015250565b600061188f60268361147e565b915061189a82611833565b604082019050919050565b600060208201905081810360008301526118be81611882565b9050919050565b7f4e487b7100000000000000000000000000000000000000000000000000000000600052603260045260246000fd5b7f4e487b7100000000000000000000000000000000000000000000000000000000600052603160045260246000fd5b600061192e82611237565b91507fffffffffffffffffffffffffffffffffffffffffffffffffffffffffffffffff82036119605761195f611602565b5b600182019050919050565b7f4f776e61626c653a2063616c6c6572206973206e6f7420746865206f776e6572600082015250565b60006119a160208361147e565b91506119ac8261196b565b602082019050919050565b600060208201905081810360008301526119d081611994565b905091905056fea2646970667358221220b945b584642e3f16e927c14aac125108c54836ad7911ac2c86415db4858bcde564736f6c63430008120033",
  "linkReferences": {},
  "deployedLinkReferences": {}
}