{
  "_format": "hh-sol-artifact-1",
  "contractName": "GammaPacks",
  "sourceName": "contracts/GammaPacks.sol",
  "abi": [
    {
      "inputs": [
        {
          "internalType": "address",
          "name": "_daiTokenAddress",
          "type": "address"
        },
        {
          "internalType": "address",
          "name": "_balanceReceiver",
          "type": "address"
        }
      ],
      "stateMutability": "nonpayable",
      "type": "constructor"
    },
    {
      "anonymous": false,
      "inputs": [
        {
          "indexed": false,
          "internalType": "address",
          "name": "newCardsContract",
          "type": "address"
        }
      ],
      "name": "NewCardsContract",
      "type": "event"
    },
    {
      "anonymous": false,
      "inputs": [
        {
          "indexed": false,
          "internalType": "uint256",
          "name": "newPrice",
          "type": "uint256"
        }
      ],
      "name": "NewPrice",
      "type": "event"
    },
    {
      "anonymous": false,
      "inputs": [
        {
          "indexed": true,
          "internalType": "address",
          "name": "previousOwner",
          "type": "address"
        },
        {
          "indexed": true,
          "internalType": "address",
          "name": "newOwner",
          "type": "address"
        }
      ],
      "name": "OwnershipTransferred",
      "type": "event"
    },
    {
      "anonymous": false,
      "inputs": [
        {
          "indexed": false,
          "internalType": "address",
          "name": "buyer",
          "type": "address"
        },
        {
          "indexed": false,
          "internalType": "uint256",
          "name": "tokenId",
          "type": "uint256"
        }
      ],
      "name": "PackPurchase",
      "type": "event"
    },
    {
      "anonymous": false,
      "inputs": [
        {
          "indexed": false,
          "internalType": "address",
          "name": "from",
          "type": "address"
        },
        {
          "indexed": false,
          "internalType": "address",
          "name": "to",
          "type": "address"
        },
        {
          "indexed": false,
          "internalType": "uint256",
          "name": "tokenId",
          "type": "uint256"
        }
      ],
      "name": "PackTransfer",
      "type": "event"
    },
    {
      "anonymous": false,
      "inputs": [
        {
          "indexed": false,
          "internalType": "address",
          "name": "buyer",
          "type": "address"
        },
        {
          "indexed": false,
          "internalType": "uint256",
          "name": "amountOfPacks",
          "type": "uint256"
        }
      ],
      "name": "PacksPurchase",
      "type": "event"
    },
    {
      "inputs": [],
      "name": "DAI_TOKEN",
      "outputs": [
        {
          "internalType": "address",
          "name": "",
          "type": "address"
        }
      ],
      "stateMutability": "view",
      "type": "function"
    },
    {
      "inputs": [],
      "name": "balanceReceiver",
      "outputs": [
        {
          "internalType": "address",
          "name": "",
          "type": "address"
        }
      ],
      "stateMutability": "view",
      "type": "function"
    },
    {
      "inputs": [],
      "name": "buyPack",
      "outputs": [],
      "stateMutability": "nonpayable",
      "type": "function"
    },
    {
      "inputs": [
        {
          "internalType": "uint256",
          "name": "numberOfPacks",
          "type": "uint256"
        }
      ],
      "name": "buyPacks",
      "outputs": [],
      "stateMutability": "nonpayable",
      "type": "function"
    },
    {
      "inputs": [],
      "name": "cardsContract",
      "outputs": [
        {
          "internalType": "contract ICardsContract",
          "name": "",
          "type": "address"
        }
      ],
      "stateMutability": "view",
      "type": "function"
    },
    {
      "inputs": [
        {
          "internalType": "uint256",
          "name": "_newPrice",
          "type": "uint256"
        }
      ],
      "name": "changePrice",
      "outputs": [],
      "stateMutability": "nonpayable",
      "type": "function"
    },
    {
      "inputs": [
        {
          "internalType": "uint256",
          "name": "tokenId",
          "type": "uint256"
        }
      ],
      "name": "getPackOwner",
      "outputs": [
        {
          "internalType": "address",
          "name": "",
          "type": "address"
        }
      ],
      "stateMutability": "view",
      "type": "function"
    },
    {
      "inputs": [
        {
          "internalType": "address",
          "name": "owner",
          "type": "address"
        }
      ],
      "name": "getPacksByUser",
      "outputs": [
        {
          "internalType": "uint256[]",
          "name": "",
          "type": "uint256[]"
        }
      ],
      "stateMutability": "view",
      "type": "function"
    },
    {
      "inputs": [
        {
          "internalType": "uint256",
          "name": "tokenId",
          "type": "uint256"
        }
      ],
      "name": "openPack",
      "outputs": [],
      "stateMutability": "nonpayable",
      "type": "function"
    },
    {
      "inputs": [],
      "name": "owner",
      "outputs": [
        {
          "internalType": "address",
          "name": "",
          "type": "address"
        }
      ],
      "stateMutability": "view",
      "type": "function"
    },
    {
      "inputs": [],
      "name": "packPrice",
      "outputs": [
        {
          "internalType": "uint256",
          "name": "",
          "type": "uint256"
        }
      ],
      "stateMutability": "view",
      "type": "function"
    },
    {
      "inputs": [
        {
          "internalType": "uint256",
          "name": "tokenId",
          "type": "uint256"
        }
      ],
      "name": "packs",
      "outputs": [
        {
          "internalType": "address",
          "name": "owner",
          "type": "address"
        }
      ],
      "stateMutability": "view",
      "type": "function"
    },
    {
      "inputs": [
        {
          "internalType": "address",
          "name": "owner",
          "type": "address"
        },
        {
          "internalType": "uint256",
          "name": "",
          "type": "uint256"
        }
      ],
      "name": "packsByUser",
      "outputs": [
        {
          "internalType": "uint256",
          "name": "tokenIds",
          "type": "uint256"
        }
      ],
      "stateMutability": "view",
      "type": "function"
    },
    {
      "inputs": [],
      "name": "renounceOwnership",
      "outputs": [],
      "stateMutability": "nonpayable",
      "type": "function"
    },
    {
      "inputs": [
        {
          "internalType": "address",
          "name": "_cardsContract",
          "type": "address"
        }
      ],
      "name": "setCardsContract",
      "outputs": [],
      "stateMutability": "nonpayable",
      "type": "function"
    },
    {
      "inputs": [],
      "name": "totalSupply",
      "outputs": [
        {
          "internalType": "uint256",
          "name": "",
          "type": "uint256"
        }
      ],
      "stateMutability": "view",
      "type": "function"
    },
    {
      "inputs": [
        {
          "internalType": "address",
          "name": "newOwner",
          "type": "address"
        }
      ],
      "name": "transferOwnership",
      "outputs": [],
      "stateMutability": "nonpayable",
      "type": "function"
    },
    {
      "inputs": [
        {
          "internalType": "address",
          "name": "to",
          "type": "address"
        },
        {
          "internalType": "uint256",
          "name": "tokenId",
          "type": "uint256"
        }
      ],
      "name": "transferPack",
      "outputs": [],
      "stateMutability": "nonpayable",
      "type": "function"
    }
  ],
  "bytecode": "0x60a06040526000196080908152506710a741a4627800006004553480156200002657600080fd5b50604051620021513803806200215183398181016040528101906200004c91906200022c565b6200006c62000060620000f660201b60201c565b620000fe60201b60201c565b81600260006101000a81548173ffffffffffffffffffffffffffffffffffffffff021916908373ffffffffffffffffffffffffffffffffffffffff16021790555080600560006101000a81548173ffffffffffffffffffffffffffffffffffffffff021916908373ffffffffffffffffffffffffffffffffffffffff160217905550505062000273565b600033905090565b60008060009054906101000a900473ffffffffffffffffffffffffffffffffffffffff169050816000806101000a81548173ffffffffffffffffffffffffffffffffffffffff021916908373ffffffffffffffffffffffffffffffffffffffff1602179055508173ffffffffffffffffffffffffffffffffffffffff168173ffffffffffffffffffffffffffffffffffffffff167f8be0079c531659141344cd1fd0a4f28419497f9722a3daafe3b4186f6b6457e060405160405180910390a35050565b600080fd5b600073ffffffffffffffffffffffffffffffffffffffff82169050919050565b6000620001f482620001c7565b9050919050565b6200020681620001e7565b81146200021257600080fd5b50565b6000815190506200022681620001fb565b92915050565b60008060408385031215620002465762000245620001c2565b5b6000620002568582860162000215565b9250506020620002698582860162000215565b9150509250929050565b608051611ec56200028c60003960005050611ec56000f3fe608060405234801561001057600080fd5b50600436106101155760003560e01c80638fd5baf7116100a2578063c37b9bcd11610071578063c37b9bcd146102ba578063d3e6a7ad146102c4578063d611713e146102f4578063e606df8714610310578063f2fde38b1461032e57610115565b80638fd5baf71461020e578063a2b40d191461023e578063b84c13921461025a578063bd7133801461028a57610115565b8063627b253f116100e9578063627b253f146101905780636374cb8b146101ae5780636adbaf75146101ca578063715018a6146101e65780638da5cb5b146101f057610115565b806279ee211461011a57806318160ddd14610138578063335c8b631461015657806350a88c7e14610174575b600080fd5b61012261034a565b60405161012f9190611692565b60405180910390f35b610140610370565b60405161014d91906116c6565b60405180910390f35b61015e610376565b60405161016b91906116c6565b60405180910390f35b61018e60048036038101906101899190611712565b61037c565b005b61019861044e565b6040516101a59190611760565b60405180910390f35b6101c860048036038101906101c391906117a7565b610474565b005b6101e460048036038101906101df9190611712565b6104f7565b005b6101ee610953565b005b6101f8610967565b6040516102059190611760565b60405180910390f35b610228600480360381019061022391906117a7565b610990565b6040516102359190611892565b60405180910390f35b61025860048036038101906102539190611712565b610a27565b005b610274600480360381019061026f9190611712565b610afd565b6040516102819190611760565b60405180910390f35b6102a4600480360381019061029f91906118b4565b610b30565b6040516102b191906116c6565b60405180910390f35b6102c2610b61565b005b6102de60048036038101906102d99190611712565b610f87565b6040516102eb9190611760565b60405180910390f35b61030e600480360381019061030991906118b4565b610fc4565b005b6103186111d4565b6040516103259190611760565b60405180910390f35b610348600480360381019061034391906117a7565b6111fa565b005b600360009054906101000a900473ffffffffffffffffffffffffffffffffffffffff1681565b61c35081565b60045481565b600360009054906101000a900473ffffffffffffffffffffffffffffffffffffffff1673ffffffffffffffffffffffffffffffffffffffff163373ffffffffffffffffffffffffffffffffffffffff161461040c576040517f08c379a000000000000000000000000000000000000000000000000000000000815260040161040390611951565b60405180910390fd5b6104158161127d565b6006600082815260200190815260200160002060006101000a81549073ffffffffffffffffffffffffffffffffffffffff021916905550565b600560009054906101000a900473ffffffffffffffffffffffffffffffffffffffff1681565b61047c6114a5565b80600360006101000a81548173ffffffffffffffffffffffffffffffffffffffff021916908373ffffffffffffffffffffffffffffffffffffffff1602179055507f03fb71c656441080e12a35ef543bf2141601e59906bf22cf1952f28da56f45e1816040516104ec9190611760565b60405180910390a150565b600073ffffffffffffffffffffffffffffffffffffffff16600360009054906101000a900473ffffffffffffffffffffffffffffffffffffffff1673ffffffffffffffffffffffffffffffffffffffff1603610588576040517f08c379a000000000000000000000000000000000000000000000000000000000815260040161057f906119bd565b60405180910390fd5b600081600660045461059a9190611a3b565b6004546105a79190611a6c565b6105b19190611aa0565b905060005b828110156106e65760006105ca6001611523565b905061c3508110610610576040517f08c379a000000000000000000000000000000000000000000000000000000000815260040161060790611b2e565b60405180910390fd5b61061a6001611531565b336006600083815260200190815260200160002060006101000a81548173ffffffffffffffffffffffffffffffffffffffff021916908373ffffffffffffffffffffffffffffffffffffffff160217905550600760003373ffffffffffffffffffffffffffffffffffffffff1673ffffffffffffffffffffffffffffffffffffffff1681526020019081526020016000208190806001815401808255809150506001900390600052602060002001600090919091909150555080806106de90611b4e565b9150506105b6565b50600360009054906101000a900473ffffffffffffffffffffffffffffffffffffffff1673ffffffffffffffffffffffffffffffffffffffff16638ba526fc826040518263ffffffff1660e01b815260040161074291906116c6565b600060405180830381600087803b15801561075c57600080fd5b505af1158015610770573d6000803e3d6000fd5b50505050600260009054906101000a900473ffffffffffffffffffffffffffffffffffffffff1673ffffffffffffffffffffffffffffffffffffffff166323b872dd33600360009054906101000a900473ffffffffffffffffffffffffffffffffffffffff16846040518463ffffffff1660e01b81526004016107f593929190611b96565b6020604051808303816000875af1158015610814573d6000803e3d6000fd5b505050506040513d601f19601f820116820180604052508101906108389190611c05565b50600260009054906101000a900473ffffffffffffffffffffffffffffffffffffffff1673ffffffffffffffffffffffffffffffffffffffff166323b872dd33600560009054906101000a900473ffffffffffffffffffffffffffffffffffffffff1684866004546108aa9190611aa0565b6108b49190611a6c565b6040518463ffffffff1660e01b81526004016108d293929190611b96565b6020604051808303816000875af11580156108f1573d6000803e3d6000fd5b505050506040513d601f19601f820116820180604052508101906109159190611c05565b507f034f82f611543bca78681cb8857be7523e9a2daa7067c396af2dbb82538d45583383604051610947929190611c32565b60405180910390a15050565b61095b6114a5565b6109656000611547565b565b60008060009054906101000a900473ffffffffffffffffffffffffffffffffffffffff16905090565b6060600760008373ffffffffffffffffffffffffffffffffffffffff1673ffffffffffffffffffffffffffffffffffffffff168152602001908152602001600020805480602002602001604051908101604052809291908181526020018280548015610a1b57602002820191906000526020600020905b815481526020019060010190808311610a07575b50505050509050919050565b610a2f6114a5565b80600481905550600360009054906101000a900473ffffffffffffffffffffffffffffffffffffffff1673ffffffffffffffffffffffffffffffffffffffff1663e1883c6e826040518263ffffffff1660e01b8152600401610a9191906116c6565b600060405180830381600087803b158015610aab57600080fd5b505af1158015610abf573d6000803e3d6000fd5b505050507f270b316b51ab2cf3a3bb8ca4d22e76a327d05e762fcaa8bd6afaf8cfde9270b781604051610af291906116c6565b60405180910390a150565b60066020528060005260406000206000915054906101000a900473ffffffffffffffffffffffffffffffffffffffff1681565b60076020528160005260406000208181548110610b4c57600080fd5b90600052602060002001600091509150505481565b600073ffffffffffffffffffffffffffffffffffffffff16600360009054906101000a900473ffffffffffffffffffffffffffffffffffffffff1673ffffffffffffffffffffffffffffffffffffffff1603610bf2576040517f08c379a0000000000000000000000000000000000000000000000000000000008152600401610be9906119bd565b60405180910390fd5b6000610bfe6001611523565b905061c3508110610c44576040517f08c379a0000000000000000000000000000000000000000000000000000000008152600401610c3b90611b2e565b60405180910390fd5b610c4e6001611531565b336006600083815260200190815260200160002060006101000a81548173ffffffffffffffffffffffffffffffffffffffff021916908373ffffffffffffffffffffffffffffffffffffffff160217905550600760003373ffffffffffffffffffffffffffffffffffffffff1673ffffffffffffffffffffffffffffffffffffffff16815260200190815260200160002081908060018154018082558091505060019003906000526020600020016000909190919091505560006006600454610d179190611a3b565b600454610d249190611a6c565b9050600360009054906101000a900473ffffffffffffffffffffffffffffffffffffffff1673ffffffffffffffffffffffffffffffffffffffff16638ba526fc826040518263ffffffff1660e01b8152600401610d8191906116c6565b600060405180830381600087803b158015610d9b57600080fd5b505af1158015610daf573d6000803e3d6000fd5b50505050600260009054906101000a900473ffffffffffffffffffffffffffffffffffffffff1673ffffffffffffffffffffffffffffffffffffffff166323b872dd33600360009054906101000a900473ffffffffffffffffffffffffffffffffffffffff16846040518463ffffffff1660e01b8152600401610e3493929190611b96565b6020604051808303816000875af1158015610e53573d6000803e3d6000fd5b505050506040513d601f19601f82011682018060405250810190610e779190611c05565b50600260009054906101000a900473ffffffffffffffffffffffffffffffffffffffff1673ffffffffffffffffffffffffffffffffffffffff166323b872dd33600560009054906101000a900473ffffffffffffffffffffffffffffffffffffffff1684600454610ee89190611a6c565b6040518463ffffffff1660e01b8152600401610f0693929190611b96565b6020604051808303816000875af1158015610f25573d6000803e3d6000fd5b505050506040513d601f19601f82011682018060405250810190610f499190611c05565b507f4bec02a302b11f990fe586d595753fd0163e88c0f3fff0cdcc10e831ac620e9a3383604051610f7b929190611c32565b60405180910390a15050565b60006006600083815260200190815260200160002060009054906101000a900473ffffffffffffffffffffffffffffffffffffffff169050919050565b3373ffffffffffffffffffffffffffffffffffffffff166006600083815260200190815260200160002060009054906101000a900473ffffffffffffffffffffffffffffffffffffffff1673ffffffffffffffffffffffffffffffffffffffff1614611065576040517f08c379a000000000000000000000000000000000000000000000000000000000815260040161105c90611ca7565b60405180910390fd5b600073ffffffffffffffffffffffffffffffffffffffff168273ffffffffffffffffffffffffffffffffffffffff16036110d4576040517f08c379a00000000000000000000000000000000000000000000000000000000081526004016110cb90611d13565b60405180910390fd5b816006600083815260200190815260200160002060006101000a81548173ffffffffffffffffffffffffffffffffffffffff021916908373ffffffffffffffffffffffffffffffffffffffff16021790555061112f8161127d565b600760008373ffffffffffffffffffffffffffffffffffffffff1673ffffffffffffffffffffffffffffffffffffffff1681526020019081526020016000208190806001815401808255809150506001900390600052602060002001600090919091909150557fddb6f61cc68e099150dacab8be873f19cc91f6ceb7d8237794124ede38722aaf3383836040516111c893929190611b96565b60405180910390a15050565b600260009054906101000a900473ffffffffffffffffffffffffffffffffffffffff1681565b6112026114a5565b600073ffffffffffffffffffffffffffffffffffffffff168173ffffffffffffffffffffffffffffffffffffffff1603611271576040517f08c379a000000000000000000000000000000000000000000000000000000000815260040161126890611da5565b60405180910390fd5b61127a81611547565b50565b6000600760003373ffffffffffffffffffffffffffffffffffffffff1673ffffffffffffffffffffffffffffffffffffffff1681526020019081526020016000208054905090506000818110156114a05782600760003373ffffffffffffffffffffffffffffffffffffffff1673ffffffffffffffffffffffffffffffffffffffff16815260200190815260200160002082815481106113205761131f611dc5565b5b90600052602060002001540361149f57600760003373ffffffffffffffffffffffffffffffffffffffff1673ffffffffffffffffffffffffffffffffffffffff1681526020019081526020016000206001600760003373ffffffffffffffffffffffffffffffffffffffff1673ffffffffffffffffffffffffffffffffffffffff168152602001908152602001600020805490506113be9190611a6c565b815481106113cf576113ce611dc5565b5b9060005260206000200154600760003373ffffffffffffffffffffffffffffffffffffffff1673ffffffffffffffffffffffffffffffffffffffff168152602001908152602001600020828154811061142b5761142a611dc5565b5b9060005260206000200181905550600760003373ffffffffffffffffffffffffffffffffffffffff1673ffffffffffffffffffffffffffffffffffffffff16815260200190815260200160002080548061148857611487611df4565b5b600190038181906000526020600020016000905590555b5b505050565b6114ad61160b565b73ffffffffffffffffffffffffffffffffffffffff166114cb610967565b73ffffffffffffffffffffffffffffffffffffffff1614611521576040517f08c379a000000000000000000000000000000000000000000000000000000000815260040161151890611e6f565b60405180910390fd5b565b600081600001549050919050565b6001816000016000828254019250508190555050565b60008060009054906101000a900473ffffffffffffffffffffffffffffffffffffffff169050816000806101000a81548173ffffffffffffffffffffffffffffffffffffffff021916908373ffffffffffffffffffffffffffffffffffffffff1602179055508173ffffffffffffffffffffffffffffffffffffffff168173ffffffffffffffffffffffffffffffffffffffff167f8be0079c531659141344cd1fd0a4f28419497f9722a3daafe3b4186f6b6457e060405160405180910390a35050565b600033905090565b600073ffffffffffffffffffffffffffffffffffffffff82169050919050565b6000819050919050565b600061165861165361164e84611613565b611633565b611613565b9050919050565b600061166a8261163d565b9050919050565b600061167c8261165f565b9050919050565b61168c81611671565b82525050565b60006020820190506116a76000830184611683565b92915050565b6000819050919050565b6116c0816116ad565b82525050565b60006020820190506116db60008301846116b7565b92915050565b600080fd5b6116ef816116ad565b81146116fa57600080fd5b50565b60008135905061170c816116e6565b92915050565b600060208284031215611728576117276116e1565b5b6000611736848285016116fd565b91505092915050565b600061174a82611613565b9050919050565b61175a8161173f565b82525050565b60006020820190506117756000830184611751565b92915050565b6117848161173f565b811461178f57600080fd5b50565b6000813590506117a18161177b565b92915050565b6000602082840312156117bd576117bc6116e1565b5b60006117cb84828501611792565b91505092915050565b600081519050919050565b600082825260208201905092915050565b6000819050602082019050919050565b611809816116ad565b82525050565b600061181b8383611800565b60208301905092915050565b6000602082019050919050565b600061183f826117d4565b61184981856117df565b9350611854836117f0565b8060005b8381101561188557815161186c888261180f565b975061187783611827565b925050600181019050611858565b5085935050505092915050565b600060208201905081810360008301526118ac8184611834565b905092915050565b600080604083850312156118cb576118ca6116e1565b5b60006118d985828601611792565b92505060206118ea858286016116fd565b9150509250929050565b600082825260208201905092915050565b7f4e6f20657320636f6e747261746f206465206361727461730000000000000000600082015250565b600061193b6018836118f4565b915061194682611905565b602082019050919050565b6000602082019050818103600083015261196a8161192e565b9050919050565b7f436f6e747261746f20646520636172746173206e6f207365746561646f000000600082015250565b60006119a7601d836118f4565b91506119b282611971565b602082019050919050565b600060208201905081810360008301526119d68161199a565b9050919050565b7f4e487b7100000000000000000000000000000000000000000000000000000000600052601260045260246000fd5b7f4e487b7100000000000000000000000000000000000000000000000000000000600052601160045260246000fd5b6000611a46826116ad565b9150611a51836116ad565b925082611a6157611a606119dd565b5b828204905092915050565b6000611a77826116ad565b9150611a82836116ad565b9250828203905081811115611a9a57611a99611a0c565b5b92915050565b6000611aab826116ad565b9150611ab6836116ad565b9250828202611ac4816116ad565b91508282048414831517611adb57611ada611a0c565b5b5092915050565b7f5365206163616261726f6e206c6f7320736f6272657300000000000000000000600082015250565b6000611b186016836118f4565b9150611b2382611ae2565b602082019050919050565b60006020820190508181036000830152611b4781611b0b565b9050919050565b6000611b59826116ad565b91507fffffffffffffffffffffffffffffffffffffffffffffffffffffffffffffffff8203611b8b57611b8a611a0c565b5b600182019050919050565b6000606082019050611bab6000830186611751565b611bb86020830185611751565b611bc560408301846116b7565b949350505050565b60008115159050919050565b611be281611bcd565b8114611bed57600080fd5b50565b600081519050611bff81611bd9565b92915050565b600060208284031215611c1b57611c1a6116e1565b5b6000611c2984828501611bf0565b91505092915050565b6000604082019050611c476000830185611751565b611c5460208301846116b7565b9392505050565b7f457374652070617175657465206e6f206573207475796f000000000000000000600082015250565b6000611c916017836118f4565b9150611c9c82611c5b565b602082019050919050565b60006020820190508181036000830152611cc081611c84565b9050919050565b7f5175656d6172206e6f207065726d697469646f00000000000000000000000000600082015250565b6000611cfd6013836118f4565b9150611d0882611cc7565b602082019050919050565b60006020820190508181036000830152611d2c81611cf0565b9050919050565b7f4f776e61626c653a206e6577206f776e657220697320746865207a65726f206160008201527f6464726573730000000000000000000000000000000000000000000000000000602082015250565b6000611d8f6026836118f4565b9150611d9a82611d33565b604082019050919050565b60006020820190508181036000830152611dbe81611d82565b9050919050565b7f4e487b7100000000000000000000000000000000000000000000000000000000600052603260045260246000fd5b7f4e487b7100000000000000000000000000000000000000000000000000000000600052603160045260246000fd5b7f4f776e61626c653a2063616c6c6572206973206e6f7420746865206f776e6572600082015250565b6000611e596020836118f4565b9150611e6482611e23565b602082019050919050565b60006020820190508181036000830152611e8881611e4c565b905091905056fea2646970667358221220ee5380309f2941220082ed4f7568ba0f3983e420817d9a721db165981b29605864736f6c63430008120033",
  "linkReferences": {},
  "deployedLinkReferences": {}
}