{
  "_format": "hh-sol-artifact-1",
  "contractName": "GammaPacks",
  "sourceName": "contracts/GammaPacks.sol",
  "abi": [
    {
      "inputs": [
        {
          "internalType": "address",
          "name": "_daiTokenAddress",
          "type": "address"
        },
        {
          "internalType": "uint256",
          "name": "_packPrice",
          "type": "uint256"
        },
        {
          "internalType": "address",
          "name": "_balanceReceiver",
          "type": "address"
        },
        {
          "internalType": "string",
          "name": "_baseUri",
          "type": "string"
        }
      ],
      "stateMutability": "nonpayable",
      "type": "constructor"
    },
    {
      "anonymous": false,
      "inputs": [
        {
          "indexed": true,
          "internalType": "address",
          "name": "owner",
          "type": "address"
        },
        {
          "indexed": true,
          "internalType": "address",
          "name": "approved",
          "type": "address"
        },
        {
          "indexed": true,
          "internalType": "uint256",
          "name": "tokenId",
          "type": "uint256"
        }
      ],
      "name": "Approval",
      "type": "event"
    },
    {
      "anonymous": false,
      "inputs": [
        {
          "indexed": true,
          "internalType": "address",
          "name": "owner",
          "type": "address"
        },
        {
          "indexed": true,
          "internalType": "address",
          "name": "operator",
          "type": "address"
        },
        {
          "indexed": false,
          "internalType": "bool",
          "name": "approved",
          "type": "bool"
        }
      ],
      "name": "ApprovalForAll",
      "type": "event"
    },
    {
      "anonymous": false,
      "inputs": [
        {
          "indexed": false,
          "internalType": "address",
          "name": "newCardsContract",
          "type": "address"
        }
      ],
      "name": "NewCardsContract",
      "type": "event"
    },
    {
      "anonymous": false,
      "inputs": [
        {
          "indexed": false,
          "internalType": "uint256",
          "name": "newPrice",
          "type": "uint256"
        }
      ],
      "name": "NewPrice",
      "type": "event"
    },
    {
      "anonymous": false,
      "inputs": [
        {
          "indexed": true,
          "internalType": "address",
          "name": "previousOwner",
          "type": "address"
        },
        {
          "indexed": true,
          "internalType": "address",
          "name": "newOwner",
          "type": "address"
        }
      ],
      "name": "OwnershipTransferred",
      "type": "event"
    },
    {
      "anonymous": false,
      "inputs": [
        {
          "indexed": false,
          "internalType": "address",
          "name": "buyer",
          "type": "address"
        },
        {
          "indexed": false,
          "internalType": "uint256",
          "name": "tokenId",
          "type": "uint256"
        }
      ],
      "name": "PackPurchase",
      "type": "event"
    },
    {
      "anonymous": false,
      "inputs": [
        {
          "indexed": true,
          "internalType": "address",
          "name": "from",
          "type": "address"
        },
        {
          "indexed": true,
          "internalType": "address",
          "name": "to",
          "type": "address"
        },
        {
          "indexed": true,
          "internalType": "uint256",
          "name": "tokenId",
          "type": "uint256"
        }
      ],
      "name": "Transfer",
      "type": "event"
    },
    {
      "inputs": [],
      "name": "DAI_TOKEN",
      "outputs": [
        {
          "internalType": "address",
          "name": "",
          "type": "address"
        }
      ],
      "stateMutability": "view",
      "type": "function"
    },
    {
      "inputs": [],
      "name": "MAX_INT",
      "outputs": [
        {
          "internalType": "uint256",
          "name": "",
          "type": "uint256"
        }
      ],
      "stateMutability": "view",
      "type": "function"
    },
    {
      "inputs": [
        {
          "internalType": "address",
          "name": "to",
          "type": "address"
        },
        {
          "internalType": "uint256",
          "name": "tokenId",
          "type": "uint256"
        }
      ],
      "name": "approve",
      "outputs": [],
      "stateMutability": "nonpayable",
      "type": "function"
    },
    {
      "inputs": [
        {
          "internalType": "address",
          "name": "owner",
          "type": "address"
        }
      ],
      "name": "balanceOf",
      "outputs": [
        {
          "internalType": "uint256",
          "name": "",
          "type": "uint256"
        }
      ],
      "stateMutability": "view",
      "type": "function"
    },
    {
      "inputs": [],
      "name": "balanceReceiver",
      "outputs": [
        {
          "internalType": "address",
          "name": "",
          "type": "address"
        }
      ],
      "stateMutability": "view",
      "type": "function"
    },
    {
      "inputs": [],
      "name": "baseUri",
      "outputs": [
        {
          "internalType": "string",
          "name": "",
          "type": "string"
        }
      ],
      "stateMutability": "view",
      "type": "function"
    },
    {
      "inputs": [
        {
          "internalType": "uint256",
          "name": "tokenId",
          "type": "uint256"
        }
      ],
      "name": "burn",
      "outputs": [],
      "stateMutability": "nonpayable",
      "type": "function"
    },
    {
      "inputs": [
        {
          "internalType": "uint256",
          "name": "price",
          "type": "uint256"
        }
      ],
      "name": "buyPack",
      "outputs": [],
      "stateMutability": "nonpayable",
      "type": "function"
    },
    {
      "inputs": [],
      "name": "cardsContract",
      "outputs": [
        {
          "internalType": "address",
          "name": "",
          "type": "address"
        }
      ],
      "stateMutability": "view",
      "type": "function"
    },
    {
      "inputs": [
        {
          "internalType": "uint256",
          "name": "_newPrice",
          "type": "uint256"
        }
      ],
      "name": "changePrice",
      "outputs": [],
      "stateMutability": "nonpayable",
      "type": "function"
    },
    {
      "inputs": [
        {
          "internalType": "uint256",
          "name": "tokenId",
          "type": "uint256"
        }
      ],
      "name": "getApproved",
      "outputs": [
        {
          "internalType": "address",
          "name": "",
          "type": "address"
        }
      ],
      "stateMutability": "view",
      "type": "function"
    },
    {
      "inputs": [
        {
          "internalType": "address",
          "name": "owner",
          "type": "address"
        },
        {
          "internalType": "address",
          "name": "operator",
          "type": "address"
        }
      ],
      "name": "isApprovedForAll",
      "outputs": [
        {
          "internalType": "bool",
          "name": "",
          "type": "bool"
        }
      ],
      "stateMutability": "view",
      "type": "function"
    },
    {
      "inputs": [],
      "name": "name",
      "outputs": [
        {
          "internalType": "string",
          "name": "",
          "type": "string"
        }
      ],
      "stateMutability": "view",
      "type": "function"
    },
    {
      "inputs": [
        {
          "internalType": "uint256",
          "name": "tokenId",
          "type": "uint256"
        }
      ],
      "name": "openPack",
      "outputs": [],
      "stateMutability": "nonpayable",
      "type": "function"
    },
    {
      "inputs": [],
      "name": "owner",
      "outputs": [
        {
          "internalType": "address",
          "name": "",
          "type": "address"
        }
      ],
      "stateMutability": "view",
      "type": "function"
    },
    {
      "inputs": [
        {
          "internalType": "uint256",
          "name": "tokenId",
          "type": "uint256"
        }
      ],
      "name": "ownerOf",
      "outputs": [
        {
          "internalType": "address",
          "name": "",
          "type": "address"
        }
      ],
      "stateMutability": "view",
      "type": "function"
    },
    {
      "inputs": [],
      "name": "packPrice",
      "outputs": [
        {
          "internalType": "uint256",
          "name": "",
          "type": "uint256"
        }
      ],
      "stateMutability": "view",
      "type": "function"
    },
    {
      "inputs": [],
      "name": "renounceOwnership",
      "outputs": [],
      "stateMutability": "nonpayable",
      "type": "function"
    },
    {
      "inputs": [
        {
          "internalType": "address",
          "name": "from",
          "type": "address"
        },
        {
          "internalType": "address",
          "name": "to",
          "type": "address"
        },
        {
          "internalType": "uint256",
          "name": "tokenId",
          "type": "uint256"
        }
      ],
      "name": "safeTransferFrom",
      "outputs": [],
      "stateMutability": "nonpayable",
      "type": "function"
    },
    {
      "inputs": [
        {
          "internalType": "address",
          "name": "from",
          "type": "address"
        },
        {
          "internalType": "address",
          "name": "to",
          "type": "address"
        },
        {
          "internalType": "uint256",
          "name": "tokenId",
          "type": "uint256"
        },
        {
          "internalType": "bytes",
          "name": "data",
          "type": "bytes"
        }
      ],
      "name": "safeTransferFrom",
      "outputs": [],
      "stateMutability": "nonpayable",
      "type": "function"
    },
    {
      "inputs": [
        {
          "internalType": "address",
          "name": "operator",
          "type": "address"
        },
        {
          "internalType": "bool",
          "name": "approved",
          "type": "bool"
        }
      ],
      "name": "setApprovalForAll",
      "outputs": [],
      "stateMutability": "nonpayable",
      "type": "function"
    },
    {
      "inputs": [
        {
          "internalType": "address",
          "name": "_cardsContract",
          "type": "address"
        }
      ],
      "name": "setCardsContract",
      "outputs": [],
      "stateMutability": "nonpayable",
      "type": "function"
    },
    {
      "inputs": [
        {
          "internalType": "bytes4",
          "name": "interfaceId",
          "type": "bytes4"
        }
      ],
      "name": "supportsInterface",
      "outputs": [
        {
          "internalType": "bool",
          "name": "",
          "type": "bool"
        }
      ],
      "stateMutability": "view",
      "type": "function"
    },
    {
      "inputs": [],
      "name": "symbol",
      "outputs": [
        {
          "internalType": "string",
          "name": "",
          "type": "string"
        }
      ],
      "stateMutability": "view",
      "type": "function"
    },
    {
      "inputs": [
        {
          "internalType": "uint256",
          "name": "tokenId",
          "type": "uint256"
        }
      ],
      "name": "tokenURI",
      "outputs": [
        {
          "internalType": "string",
          "name": "",
          "type": "string"
        }
      ],
      "stateMutability": "view",
      "type": "function"
    },
    {
      "inputs": [],
      "name": "totalSupply",
      "outputs": [
        {
          "internalType": "uint256",
          "name": "",
          "type": "uint256"
        }
      ],
      "stateMutability": "view",
      "type": "function"
    },
    {
      "inputs": [
        {
          "internalType": "address",
          "name": "from",
          "type": "address"
        },
        {
          "internalType": "address",
          "name": "to",
          "type": "address"
        },
        {
          "internalType": "uint256",
          "name": "tokenId",
          "type": "uint256"
        }
      ],
      "name": "transferFrom",
      "outputs": [],
      "stateMutability": "nonpayable",
      "type": "function"
    },
    {
      "inputs": [
        {
          "internalType": "address",
          "name": "newOwner",
          "type": "address"
        }
      ],
      "name": "transferOwnership",
      "outputs": [],
      "stateMutability": "nonpayable",
      "type": "function"
    }
  ],
  "bytecode": "0x60806040527fffffffffffffffffffffffffffffffffffffffffffffffffffffffffffffffff600c553480156200003557600080fd5b50604051620043523803806200435283398181016040528101906200005b9190620004b3565b6040518060400160405280600a81526020017f47616d6d615061636b73000000000000000000000000000000000000000000008152506040518060400160405280600681526020017f4e4f465f475000000000000000000000000000000000000000000000000000008152508160009081620000d8919062000785565b508060019081620000ea919062000785565b5050506200010d62000101620001b260201b60201c565b620001ba60201b60201c565b80600b90816200011e919062000785565b5083600960006101000a81548173ffffffffffffffffffffffffffffffffffffffff021916908373ffffffffffffffffffffffffffffffffffffffff16021790555082600d8190555081600e60006101000a81548173ffffffffffffffffffffffffffffffffffffffff021916908373ffffffffffffffffffffffffffffffffffffffff160217905550505050506200086c565b600033905090565b6000600760009054906101000a900473ffffffffffffffffffffffffffffffffffffffff16905081600760006101000a81548173ffffffffffffffffffffffffffffffffffffffff021916908373ffffffffffffffffffffffffffffffffffffffff1602179055508173ffffffffffffffffffffffffffffffffffffffff168173ffffffffffffffffffffffffffffffffffffffff167f8be0079c531659141344cd1fd0a4f28419497f9722a3daafe3b4186f6b6457e060405160405180910390a35050565b6000604051905090565b600080fd5b600080fd5b600073ffffffffffffffffffffffffffffffffffffffff82169050919050565b6000620002c18262000294565b9050919050565b620002d381620002b4565b8114620002df57600080fd5b50565b600081519050620002f381620002c8565b92915050565b6000819050919050565b6200030e81620002f9565b81146200031a57600080fd5b50565b6000815190506200032e8162000303565b92915050565b600080fd5b600080fd5b6000601f19601f8301169050919050565b7f4e487b7100000000000000000000000000000000000000000000000000000000600052604160045260246000fd5b62000389826200033e565b810181811067ffffffffffffffff82111715620003ab57620003aa6200034f565b5b80604052505050565b6000620003c062000280565b9050620003ce82826200037e565b919050565b600067ffffffffffffffff821115620003f157620003f06200034f565b5b620003fc826200033e565b9050602081019050919050565b60005b83811015620004295780820151818401526020810190506200040c565b60008484015250505050565b60006200044c6200044684620003d3565b620003b4565b9050828152602081018484840111156200046b576200046a62000339565b5b6200047884828562000409565b509392505050565b600082601f83011262000498576200049762000334565b5b8151620004aa84826020860162000435565b91505092915050565b60008060008060808587031215620004d057620004cf6200028a565b5b6000620004e087828801620002e2565b9450506020620004f3878288016200031d565b93505060406200050687828801620002e2565b925050606085015167ffffffffffffffff8111156200052a57620005296200028f565b5b620005388782880162000480565b91505092959194509250565b600081519050919050565b7f4e487b7100000000000000000000000000000000000000000000000000000000600052602260045260246000fd5b600060028204905060018216806200059757607f821691505b602082108103620005ad57620005ac6200054f565b5b50919050565b60008190508160005260206000209050919050565b60006020601f8301049050919050565b600082821b905092915050565b600060088302620006177fffffffffffffffffffffffffffffffffffffffffffffffffffffffffffffffff82620005d8565b620006238683620005d8565b95508019841693508086168417925050509392505050565b6000819050919050565b600062000666620006606200065a84620002f9565b6200063b565b620002f9565b9050919050565b6000819050919050565b620006828362000645565b6200069a62000691826200066d565b848454620005e5565b825550505050565b600090565b620006b1620006a2565b620006be81848462000677565b505050565b5b81811015620006e657620006da600082620006a7565b600181019050620006c4565b5050565b601f8211156200073557620006ff81620005b3565b6200070a84620005c8565b810160208510156200071a578190505b620007326200072985620005c8565b830182620006c3565b50505b505050565b600082821c905092915050565b60006200075a600019846008026200073a565b1980831691505092915050565b600062000775838362000747565b9150826002028217905092915050565b620007908262000544565b67ffffffffffffffff811115620007ac57620007ab6200034f565b5b620007b882546200057e565b620007c5828285620006ea565b600060209050601f831160018114620007fd5760008415620007e8578287015190505b620007f4858262000767565b86555062000864565b601f1984166200080d86620005b3565b60005b82811015620008375784890151825560018201915060208501945060208101905062000810565b8683101562000857578489015162000853601f89168262000747565b8355505b6001600288020188555050505b505050505050565b613ad6806200087c6000396000f3fe608060405234801561001057600080fd5b50600436106101c35760003560e01c80636374cb8b116100f9578063a2b40d1911610097578063dc45bfb311610071578063dc45bfb3146104cc578063e606df87146104e8578063e985e9c514610506578063f2fde38b14610536576101c3565b8063a2b40d1914610464578063b88d4fde14610480578063c87b56dd1461049c576101c3565b80638da5cb5b116100d35780638da5cb5b146103ee57806395d89b411461040c5780639abc83201461042a578063a22cb46514610448576101c3565b80636374cb8b1461039857806370a08231146103b4578063715018a6146103e4576101c3565b806323b872dd1161016657806342966c681161014057806342966c681461031257806350a88c7e1461032e578063627b253f1461034a5780636352211e14610368576101c3565b806323b872dd146102bc578063335c8b63146102d857806342842e0e146102f6576101c3565b8063081812fc116101a2578063081812fc14610234578063095ea7b314610264578063098d32281461028057806318160ddd1461029e576101c3565b806279ee21146101c857806301ffc9a7146101e657806306fdde0314610216575b600080fd5b6101d0610552565b6040516101dd91906126eb565b60405180910390f35b61020060048036038101906101fb9190612772565b610578565b60405161020d91906127ba565b60405180910390f35b61021e61065a565b60405161022b9190612865565b60405180910390f35b61024e600480360381019061024991906128bd565b6106ec565b60405161025b91906126eb565b60405180910390f35b61027e60048036038101906102799190612916565b610732565b005b610288610849565b6040516102959190612965565b60405180910390f35b6102a661084f565b6040516102b39190612965565b60405180910390f35b6102d660048036038101906102d19190612980565b610855565b005b6102e06108b5565b6040516102ed9190612965565b60405180910390f35b610310600480360381019061030b9190612980565b6108bb565b005b61032c600480360381019061032791906128bd565b6108db565b005b610348600480360381019061034391906128bd565b610937565b005b610352610943565b60405161035f91906126eb565b60405180910390f35b610382600480360381019061037d91906128bd565b610969565b60405161038f91906126eb565b60405180910390f35b6103b260048036038101906103ad91906129d3565b6109ef565b005b6103ce60048036038101906103c991906129d3565b610a72565b6040516103db9190612965565b60405180910390f35b6103ec610b29565b005b6103f6610b3d565b60405161040391906126eb565b60405180910390f35b610414610b67565b6040516104219190612865565b60405180910390f35b610432610bf9565b60405161043f9190612865565b60405180910390f35b610462600480360381019061045d9190612a2c565b610c87565b005b61047e600480360381019061047991906128bd565b610c9d565b005b61049a60048036038101906104959190612ba1565b610ce6565b005b6104b660048036038101906104b191906128bd565b610d48565b6040516104c39190612865565b60405180910390f35b6104e660048036038101906104e191906128bd565b610d5a565b005b6104f0611078565b6040516104fd91906126eb565b60405180910390f35b610520600480360381019061051b9190612c24565b61109e565b60405161052d91906127ba565b60405180910390f35b610550600480360381019061054b91906129d3565b611132565b005b600a60009054906101000a900473ffffffffffffffffffffffffffffffffffffffff1681565b60007f80ac58cd000000000000000000000000000000000000000000000000000000007bffffffffffffffffffffffffffffffffffffffffffffffffffffffff1916827bffffffffffffffffffffffffffffffffffffffffffffffffffffffff1916148061064357507f5b5e139f000000000000000000000000000000000000000000000000000000007bffffffffffffffffffffffffffffffffffffffffffffffffffffffff1916827bffffffffffffffffffffffffffffffffffffffffffffffffffffffff1916145b806106535750610652826111b5565b5b9050919050565b60606000805461066990612c93565b80601f016020809104026020016040519081016040528092919081815260200182805461069590612c93565b80156106e25780601f106106b7576101008083540402835291602001916106e2565b820191906000526020600020905b8154815290600101906020018083116106c557829003601f168201915b5050505050905090565b60006106f78261121f565b6004600083815260200190815260200160002060009054906101000a900473ffffffffffffffffffffffffffffffffffffffff169050919050565b600061073d82610969565b90508073ffffffffffffffffffffffffffffffffffffffff168373ffffffffffffffffffffffffffffffffffffffff16036107ad576040517f08c379a00000000000000000000000000000000000000000000000000000000081526004016107a490612d36565b60405180910390fd5b8073ffffffffffffffffffffffffffffffffffffffff166107cc61126a565b73ffffffffffffffffffffffffffffffffffffffff1614806107fb57506107fa816107f561126a565b61109e565b5b61083a576040517f08c379a000000000000000000000000000000000000000000000000000000000815260040161083190612dc8565b60405180910390fd5b6108448383611272565b505050565b600c5481565b61c35081565b61086661086061126a565b8261132b565b6108a5576040517f08c379a000000000000000000000000000000000000000000000000000000000815260040161089c90612e5a565b60405180910390fd5b6108b08383836113c0565b505050565b600d5481565b6108d683838360405180602001604052806000815250610ce6565b505050565b6108ec6108e661126a565b8261132b565b61092b576040517f08c379a000000000000000000000000000000000000000000000000000000000815260040161092290612e5a565b60405180910390fd5b610934816116b9565b50565b610940816116b9565b50565b600e60009054906101000a900473ffffffffffffffffffffffffffffffffffffffff1681565b600080610975836116c5565b9050600073ffffffffffffffffffffffffffffffffffffffff168173ffffffffffffffffffffffffffffffffffffffff16036109e6576040517f08c379a00000000000000000000000000000000000000000000000000000000081526004016109dd90612ec6565b60405180910390fd5b80915050919050565b6109f7611702565b80600a60006101000a81548173ffffffffffffffffffffffffffffffffffffffff021916908373ffffffffffffffffffffffffffffffffffffffff1602179055507f03fb71c656441080e12a35ef543bf2141601e59906bf22cf1952f28da56f45e181604051610a6791906126eb565b60405180910390a150565b60008073ffffffffffffffffffffffffffffffffffffffff168273ffffffffffffffffffffffffffffffffffffffff1603610ae2576040517f08c379a0000000000000000000000000000000000000000000000000000000008152600401610ad990612f58565b60405180910390fd5b600360008373ffffffffffffffffffffffffffffffffffffffff1673ffffffffffffffffffffffffffffffffffffffff168152602001908152602001600020549050919050565b610b31611702565b610b3b6000611780565b565b6000600760009054906101000a900473ffffffffffffffffffffffffffffffffffffffff16905090565b606060018054610b7690612c93565b80601f0160208091040260200160405190810160405280929190818152602001828054610ba290612c93565b8015610bef5780601f10610bc457610100808354040283529160200191610bef565b820191906000526020600020905b815481529060010190602001808311610bd257829003601f168201915b5050505050905090565b600b8054610c0690612c93565b80601f0160208091040260200160405190810160405280929190818152602001828054610c3290612c93565b8015610c7f5780601f10610c5457610100808354040283529160200191610c7f565b820191906000526020600020905b815481529060010190602001808311610c6257829003601f168201915b505050505081565b610c99610c9261126a565b8383611846565b5050565b610ca5611702565b80600d819055507f270b316b51ab2cf3a3bb8ca4d22e76a327d05e762fcaa8bd6afaf8cfde9270b781604051610cdb9190612965565b60405180910390a150565b610cf7610cf161126a565b8361132b565b610d36576040517f08c379a0000000000000000000000000000000000000000000000000000000008152600401610d2d90612e5a565b60405180910390fd5b610d42848484846119b2565b50505050565b6060610d5382611a0e565b9050919050565b600073ffffffffffffffffffffffffffffffffffffffff16600a60009054906101000a900473ffffffffffffffffffffffffffffffffffffffff1673ffffffffffffffffffffffffffffffffffffffff1603610deb576040517f08c379a0000000000000000000000000000000000000000000000000000000008152600401610de290612fc4565b60405180910390fd5b600d548114610e2f576040517f08c379a0000000000000000000000000000000000000000000000000000000008152600401610e2690613030565b60405180910390fd5b610ec333600b8054610e4090612c93565b80601f0160208091040260200160405190810160405280929190818152602001828054610e6c90612c93565b8015610eb95780601f10610e8e57610100808354040283529160200191610eb9565b820191906000526020600020905b815481529060010190602001808311610e9c57829003601f168201915b5050505050611b20565b6000600682610ed291906130ae565b82610edd91906130df565b9050600960009054906101000a900473ffffffffffffffffffffffffffffffffffffffff1673ffffffffffffffffffffffffffffffffffffffff166323b872dd33600a60009054906101000a900473ffffffffffffffffffffffffffffffffffffffff16846040518463ffffffff1660e01b8152600401610f6093929190613113565b6020604051808303816000875af1158015610f7f573d6000803e3d6000fd5b505050506040513d601f19601f82011682018060405250810190610fa3919061315f565b50600960009054906101000a900473ffffffffffffffffffffffffffffffffffffffff1673ffffffffffffffffffffffffffffffffffffffff166323b872dd33600e60009054906101000a900473ffffffffffffffffffffffffffffffffffffffff16848661101291906130df565b6040518463ffffffff1660e01b815260040161103093929190613113565b6020604051808303816000875af115801561104f573d6000803e3d6000fd5b505050506040513d601f19601f82011682018060405250810190611073919061315f565b505050565b600960009054906101000a900473ffffffffffffffffffffffffffffffffffffffff1681565b6000600560008473ffffffffffffffffffffffffffffffffffffffff1673ffffffffffffffffffffffffffffffffffffffff16815260200190815260200160002060008373ffffffffffffffffffffffffffffffffffffffff1673ffffffffffffffffffffffffffffffffffffffff16815260200190815260200160002060009054906101000a900460ff16905092915050565b61113a611702565b600073ffffffffffffffffffffffffffffffffffffffff168173ffffffffffffffffffffffffffffffffffffffff16036111a9576040517f08c379a00000000000000000000000000000000000000000000000000000000081526004016111a0906131fe565b60405180910390fd5b6111b281611780565b50565b60007f01ffc9a7000000000000000000000000000000000000000000000000000000007bffffffffffffffffffffffffffffffffffffffffffffffffffffffff1916827bffffffffffffffffffffffffffffffffffffffffffffffffffffffff1916149050919050565b61122881611bce565b611267576040517f08c379a000000000000000000000000000000000000000000000000000000000815260040161125e90612ec6565b60405180910390fd5b50565b600033905090565b816004600083815260200190815260200160002060006101000a81548173ffffffffffffffffffffffffffffffffffffffff021916908373ffffffffffffffffffffffffffffffffffffffff160217905550808273ffffffffffffffffffffffffffffffffffffffff166112e583610969565b73ffffffffffffffffffffffffffffffffffffffff167f8c5be1e5ebec7d5bd14f71427d1e84f3dd0314c0f7b2291e5b200ac8c7c3b92560405160405180910390a45050565b60008061133783610969565b90508073ffffffffffffffffffffffffffffffffffffffff168473ffffffffffffffffffffffffffffffffffffffff1614806113795750611378818561109e565b5b806113b757508373ffffffffffffffffffffffffffffffffffffffff1661139f846106ec565b73ffffffffffffffffffffffffffffffffffffffff16145b91505092915050565b8273ffffffffffffffffffffffffffffffffffffffff166113e082610969565b73ffffffffffffffffffffffffffffffffffffffff1614611436576040517f08c379a000000000000000000000000000000000000000000000000000000000815260040161142d90613290565b60405180910390fd5b600073ffffffffffffffffffffffffffffffffffffffff168273ffffffffffffffffffffffffffffffffffffffff16036114a5576040517f08c379a000000000000000000000000000000000000000000000000000000000815260040161149c90613322565b60405180910390fd5b6114b28383836001611c0f565b8273ffffffffffffffffffffffffffffffffffffffff166114d282610969565b73ffffffffffffffffffffffffffffffffffffffff1614611528576040517f08c379a000000000000000000000000000000000000000000000000000000000815260040161151f90613290565b60405180910390fd5b6004600082815260200190815260200160002060006101000a81549073ffffffffffffffffffffffffffffffffffffffff02191690556001600360008573ffffffffffffffffffffffffffffffffffffffff1673ffffffffffffffffffffffffffffffffffffffff168152602001908152602001600020600082825403925050819055506001600360008473ffffffffffffffffffffffffffffffffffffffff1673ffffffffffffffffffffffffffffffffffffffff16815260200190815260200160002060008282540192505081905550816002600083815260200190815260200160002060006101000a81548173ffffffffffffffffffffffffffffffffffffffff021916908373ffffffffffffffffffffffffffffffffffffffff160217905550808273ffffffffffffffffffffffffffffffffffffffff168473ffffffffffffffffffffffffffffffffffffffff167fddf252ad1be2c89b69c2b068fc378daa952ba7f163c4a11628f55a4df523b3ef60405160405180910390a46116b48383836001611d35565b505050565b6116c281611d3b565b50565b60006002600083815260200190815260200160002060009054906101000a900473ffffffffffffffffffffffffffffffffffffffff169050919050565b61170a61126a565b73ffffffffffffffffffffffffffffffffffffffff16611728610b3d565b73ffffffffffffffffffffffffffffffffffffffff161461177e576040517f08c379a00000000000000000000000000000000000000000000000000000000081526004016117759061338e565b60405180910390fd5b565b6000600760009054906101000a900473ffffffffffffffffffffffffffffffffffffffff16905081600760006101000a81548173ffffffffffffffffffffffffffffffffffffffff021916908373ffffffffffffffffffffffffffffffffffffffff1602179055508173ffffffffffffffffffffffffffffffffffffffff168173ffffffffffffffffffffffffffffffffffffffff167f8be0079c531659141344cd1fd0a4f28419497f9722a3daafe3b4186f6b6457e060405160405180910390a35050565b8173ffffffffffffffffffffffffffffffffffffffff168373ffffffffffffffffffffffffffffffffffffffff16036118b4576040517f08c379a00000000000000000000000000000000000000000000000000000000081526004016118ab906133fa565b60405180910390fd5b80600560008573ffffffffffffffffffffffffffffffffffffffff1673ffffffffffffffffffffffffffffffffffffffff16815260200190815260200160002060008473ffffffffffffffffffffffffffffffffffffffff1673ffffffffffffffffffffffffffffffffffffffff16815260200190815260200160002060006101000a81548160ff0219169083151502179055508173ffffffffffffffffffffffffffffffffffffffff168373ffffffffffffffffffffffffffffffffffffffff167f17307eab39ab6107e8899845ad3d59bd9653f200f220920489ca2b5937696c31836040516119a591906127ba565b60405180910390a3505050565b6119bd8484846113c0565b6119c984848484611d8e565b611a08576040517f08c379a00000000000000000000000000000000000000000000000000000000081526004016119ff9061348c565b60405180910390fd5b50505050565b6060611a198261121f565b6000600660008481526020019081526020016000208054611a3990612c93565b80601f0160208091040260200160405190810160405280929190818152602001828054611a6590612c93565b8015611ab25780601f10611a8757610100808354040283529160200191611ab2565b820191906000526020600020905b815481529060010190602001808311611a9557829003601f168201915b505050505090506000611ac3611f15565b90506000815103611ad8578192505050611b1b565b600082511115611b0d578082604051602001611af59291906134e8565b60405160208183030381529060405292505050611b1b565b611b1684611f2c565b925050505b919050565b6000611b2c6008611f94565b905061c3508110611b72576040517f08c379a0000000000000000000000000000000000000000000000000000000008152600401611b6990613558565b60405180910390fd5b611b7c6008611fa2565b611b868382611fb8565b611b908183611fd6565b7f4bec02a302b11f990fe586d595753fd0163e88c0f3fff0cdcc10e831ac620e9a3382604051611bc1929190613578565b60405180910390a1505050565b60008073ffffffffffffffffffffffffffffffffffffffff16611bf0836116c5565b73ffffffffffffffffffffffffffffffffffffffff1614159050919050565b6001811115611d2f57600073ffffffffffffffffffffffffffffffffffffffff168473ffffffffffffffffffffffffffffffffffffffff1614611ca35780600360008673ffffffffffffffffffffffffffffffffffffffff1673ffffffffffffffffffffffffffffffffffffffff1681526020019081526020016000206000828254611c9b91906130df565b925050819055505b600073ffffffffffffffffffffffffffffffffffffffff168373ffffffffffffffffffffffffffffffffffffffff1614611d2e5780600360008573ffffffffffffffffffffffffffffffffffffffff1673ffffffffffffffffffffffffffffffffffffffff1681526020019081526020016000206000828254611d2691906135a1565b925050819055505b5b50505050565b50505050565b611d4481612043565b6000600660008381526020019081526020016000208054611d6490612c93565b905014611d8b57600660008281526020019081526020016000206000611d8a919061264d565b5b50565b6000611daf8473ffffffffffffffffffffffffffffffffffffffff16612191565b15611f08578373ffffffffffffffffffffffffffffffffffffffff1663150b7a02611dd861126a565b8786866040518563ffffffff1660e01b8152600401611dfa949392919061362a565b6020604051808303816000875af1925050508015611e3657506040513d601f19601f82011682018060405250810190611e33919061368b565b60015b611eb8573d8060008114611e66576040519150601f19603f3d011682016040523d82523d6000602084013e611e6b565b606091505b506000815103611eb0576040517f08c379a0000000000000000000000000000000000000000000000000000000008152600401611ea79061348c565b60405180910390fd5b805181602001fd5b63150b7a0260e01b7bffffffffffffffffffffffffffffffffffffffffffffffffffffffff1916817bffffffffffffffffffffffffffffffffffffffffffffffffffffffff191614915050611f0d565b600190505b949350505050565b606060405180602001604052806000815250905090565b6060611f378261121f565b6000611f41611f15565b90506000815111611f615760405180602001604052806000815250611f8c565b80611f6b846121b4565b604051602001611f7c9291906134e8565b6040516020818303038152906040525b915050919050565b600081600001549050919050565b6001816000016000828254019250508190555050565b611fd2828260405180602001604052806000815250612282565b5050565b611fdf82611bce565b61201e576040517f08c379a00000000000000000000000000000000000000000000000000000000081526004016120159061372a565b60405180910390fd5b8060066000848152602001908152602001600020908161203e91906138f6565b505050565b600061204e82610969565b905061205e816000846001611c0f565b61206782610969565b90506004600083815260200190815260200160002060006101000a81549073ffffffffffffffffffffffffffffffffffffffff02191690556001600360008373ffffffffffffffffffffffffffffffffffffffff1673ffffffffffffffffffffffffffffffffffffffff168152602001908152602001600020600082825403925050819055506002600083815260200190815260200160002060006101000a81549073ffffffffffffffffffffffffffffffffffffffff021916905581600073ffffffffffffffffffffffffffffffffffffffff168273ffffffffffffffffffffffffffffffffffffffff167fddf252ad1be2c89b69c2b068fc378daa952ba7f163c4a11628f55a4df523b3ef60405160405180910390a461218d816000846001611d35565b5050565b6000808273ffffffffffffffffffffffffffffffffffffffff163b119050919050565b6060600060016121c3846122dd565b01905060008167ffffffffffffffff8111156121e2576121e1612a76565b5b6040519080825280601f01601f1916602001820160405280156122145781602001600182028036833780820191505090505b509050600082602001820190505b600115612277578080600190039150507f3031323334353637383961626364656600000000000000000000000000000000600a86061a8153600a858161226b5761226a613050565b5b04945060008503612222575b819350505050919050565b61228c8383612430565b6122996000848484611d8e565b6122d8576040517f08c379a00000000000000000000000000000000000000000000000000000000081526004016122cf9061348c565b60405180910390fd5b505050565b600080600090507a184f03e93ff9f4daa797ed6e38ed64bf6a1f010000000000000000831061233b577a184f03e93ff9f4daa797ed6e38ed64bf6a1f010000000000000000838161233157612330613050565b5b0492506040810190505b6d04ee2d6d415b85acef81000000008310612378576d04ee2d6d415b85acef8100000000838161236e5761236d613050565b5b0492506020810190505b662386f26fc1000083106123a757662386f26fc10000838161239d5761239c613050565b5b0492506010810190505b6305f5e10083106123d0576305f5e10083816123c6576123c5613050565b5b0492506008810190505b61271083106123f55761271083816123eb576123ea613050565b5b0492506004810190505b60648310612418576064838161240e5761240d613050565b5b0492506002810190505b600a8310612427576001810190505b80915050919050565b600073ffffffffffffffffffffffffffffffffffffffff168273ffffffffffffffffffffffffffffffffffffffff160361249f576040517f08c379a000000000000000000000000000000000000000000000000000000000815260040161249690613a14565b60405180910390fd5b6124a881611bce565b156124e8576040517f08c379a00000000000000000000000000000000000000000000000000000000081526004016124df90613a80565b60405180910390fd5b6124f6600083836001611c0f565b6124ff81611bce565b1561253f576040517f08c379a000000000000000000000000000000000000000000000000000000000815260040161253690613a80565b60405180910390fd5b6001600360008473ffffffffffffffffffffffffffffffffffffffff1673ffffffffffffffffffffffffffffffffffffffff16815260200190815260200160002060008282540192505081905550816002600083815260200190815260200160002060006101000a81548173ffffffffffffffffffffffffffffffffffffffff021916908373ffffffffffffffffffffffffffffffffffffffff160217905550808273ffffffffffffffffffffffffffffffffffffffff16600073ffffffffffffffffffffffffffffffffffffffff167fddf252ad1be2c89b69c2b068fc378daa952ba7f163c4a11628f55a4df523b3ef60405160405180910390a4612649600083836001611d35565b5050565b50805461265990612c93565b6000825580601f1061266b575061268a565b601f016020900490600052602060002090810190612689919061268d565b5b50565b5b808211156126a657600081600090555060010161268e565b5090565b600073ffffffffffffffffffffffffffffffffffffffff82169050919050565b60006126d5826126aa565b9050919050565b6126e5816126ca565b82525050565b600060208201905061270060008301846126dc565b92915050565b6000604051905090565b600080fd5b600080fd5b60007fffffffff0000000000000000000000000000000000000000000000000000000082169050919050565b61274f8161271a565b811461275a57600080fd5b50565b60008135905061276c81612746565b92915050565b60006020828403121561278857612787612710565b5b60006127968482850161275d565b91505092915050565b60008115159050919050565b6127b48161279f565b82525050565b60006020820190506127cf60008301846127ab565b92915050565b600081519050919050565b600082825260208201905092915050565b60005b8381101561280f5780820151818401526020810190506127f4565b60008484015250505050565b6000601f19601f8301169050919050565b6000612837826127d5565b61284181856127e0565b93506128518185602086016127f1565b61285a8161281b565b840191505092915050565b6000602082019050818103600083015261287f818461282c565b905092915050565b6000819050919050565b61289a81612887565b81146128a557600080fd5b50565b6000813590506128b781612891565b92915050565b6000602082840312156128d3576128d2612710565b5b60006128e1848285016128a8565b91505092915050565b6128f3816126ca565b81146128fe57600080fd5b50565b600081359050612910816128ea565b92915050565b6000806040838503121561292d5761292c612710565b5b600061293b85828601612901565b925050602061294c858286016128a8565b9150509250929050565b61295f81612887565b82525050565b600060208201905061297a6000830184612956565b92915050565b60008060006060848603121561299957612998612710565b5b60006129a786828701612901565b93505060206129b886828701612901565b92505060406129c9868287016128a8565b9150509250925092565b6000602082840312156129e9576129e8612710565b5b60006129f784828501612901565b91505092915050565b612a098161279f565b8114612a1457600080fd5b50565b600081359050612a2681612a00565b92915050565b60008060408385031215612a4357612a42612710565b5b6000612a5185828601612901565b9250506020612a6285828601612a17565b9150509250929050565b600080fd5b600080fd5b7f4e487b7100000000000000000000000000000000000000000000000000000000600052604160045260246000fd5b612aae8261281b565b810181811067ffffffffffffffff82111715612acd57612acc612a76565b5b80604052505050565b6000612ae0612706565b9050612aec8282612aa5565b919050565b600067ffffffffffffffff821115612b0c57612b0b612a76565b5b612b158261281b565b9050602081019050919050565b82818337600083830152505050565b6000612b44612b3f84612af1565b612ad6565b905082815260208101848484011115612b6057612b5f612a71565b5b612b6b848285612b22565b509392505050565b600082601f830112612b8857612b87612a6c565b5b8135612b98848260208601612b31565b91505092915050565b60008060008060808587031215612bbb57612bba612710565b5b6000612bc987828801612901565b9450506020612bda87828801612901565b9350506040612beb878288016128a8565b925050606085013567ffffffffffffffff811115612c0c57612c0b612715565b5b612c1887828801612b73565b91505092959194509250565b60008060408385031215612c3b57612c3a612710565b5b6000612c4985828601612901565b9250506020612c5a85828601612901565b9150509250929050565b7f4e487b7100000000000000000000000000000000000000000000000000000000600052602260045260246000fd5b60006002820490506001821680612cab57607f821691505b602082108103612cbe57612cbd612c64565b5b50919050565b7f4552433732313a20617070726f76616c20746f2063757272656e74206f776e6560008201527f7200000000000000000000000000000000000000000000000000000000000000602082015250565b6000612d206021836127e0565b9150612d2b82612cc4565b604082019050919050565b60006020820190508181036000830152612d4f81612d13565b9050919050565b7f4552433732313a20617070726f76652063616c6c6572206973206e6f7420746f60008201527f6b656e206f776e6572206f7220617070726f76656420666f7220616c6c000000602082015250565b6000612db2603d836127e0565b9150612dbd82612d56565b604082019050919050565b60006020820190508181036000830152612de181612da5565b9050919050565b7f4552433732313a2063616c6c6572206973206e6f7420746f6b656e206f776e6560008201527f72206f7220617070726f76656400000000000000000000000000000000000000602082015250565b6000612e44602d836127e0565b9150612e4f82612de8565b604082019050919050565b60006020820190508181036000830152612e7381612e37565b9050919050565b7f4552433732313a20696e76616c696420746f6b656e2049440000000000000000600082015250565b6000612eb06018836127e0565b9150612ebb82612e7a565b602082019050919050565b60006020820190508181036000830152612edf81612ea3565b9050919050565b7f4552433732313a2061646472657373207a65726f206973206e6f74206120766160008201527f6c6964206f776e65720000000000000000000000000000000000000000000000602082015250565b6000612f426029836127e0565b9150612f4d82612ee6565b604082019050919050565b60006020820190508181036000830152612f7181612f35565b9050919050565b7f436f6e747261746f20646520636172746173206e6f207365746561646f000000600082015250565b6000612fae601d836127e0565b9150612fb982612f78565b602082019050919050565b60006020820190508181036000830152612fdd81612fa1565b9050919050565b7f446562657320656e7669617220656c2070726563696f2065786163746f000000600082015250565b600061301a601d836127e0565b915061302582612fe4565b602082019050919050565b600060208201905081810360008301526130498161300d565b9050919050565b7f4e487b7100000000000000000000000000000000000000000000000000000000600052601260045260246000fd5b7f4e487b7100000000000000000000000000000000000000000000000000000000600052601160045260246000fd5b60006130b982612887565b91506130c483612887565b9250826130d4576130d3613050565b5b828204905092915050565b60006130ea82612887565b91506130f583612887565b925082820390508181111561310d5761310c61307f565b5b92915050565b600060608201905061312860008301866126dc565b61313560208301856126dc565b6131426040830184612956565b949350505050565b60008151905061315981612a00565b92915050565b60006020828403121561317557613174612710565b5b60006131838482850161314a565b91505092915050565b7f4f776e61626c653a206e6577206f776e657220697320746865207a65726f206160008201527f6464726573730000000000000000000000000000000000000000000000000000602082015250565b60006131e86026836127e0565b91506131f38261318c565b604082019050919050565b60006020820190508181036000830152613217816131db565b9050919050565b7f4552433732313a207472616e736665722066726f6d20696e636f72726563742060008201527f6f776e6572000000000000000000000000000000000000000000000000000000602082015250565b600061327a6025836127e0565b91506132858261321e565b604082019050919050565b600060208201905081810360008301526132a98161326d565b9050919050565b7f4552433732313a207472616e7366657220746f20746865207a65726f2061646460008201527f7265737300000000000000000000000000000000000000000000000000000000602082015250565b600061330c6024836127e0565b9150613317826132b0565b604082019050919050565b6000602082019050818103600083015261333b816132ff565b9050919050565b7f4f776e61626c653a2063616c6c6572206973206e6f7420746865206f776e6572600082015250565b60006133786020836127e0565b915061338382613342565b602082019050919050565b600060208201905081810360008301526133a78161336b565b9050919050565b7f4552433732313a20617070726f766520746f2063616c6c657200000000000000600082015250565b60006133e46019836127e0565b91506133ef826133ae565b602082019050919050565b60006020820190508181036000830152613413816133d7565b9050919050565b7f4552433732313a207472616e7366657220746f206e6f6e20455243373231526560008201527f63656976657220696d706c656d656e7465720000000000000000000000000000602082015250565b60006134766032836127e0565b91506134818261341a565b604082019050919050565b600060208201905081810360008301526134a581613469565b9050919050565b600081905092915050565b60006134c2826127d5565b6134cc81856134ac565b93506134dc8185602086016127f1565b80840191505092915050565b60006134f482856134b7565b915061350082846134b7565b91508190509392505050565b7f5365206163616261726f6e206c6f7320736f6272657300000000000000000000600082015250565b60006135426016836127e0565b915061354d8261350c565b602082019050919050565b6000602082019050818103600083015261357181613535565b9050919050565b600060408201905061358d60008301856126dc565b61359a6020830184612956565b9392505050565b60006135ac82612887565b91506135b783612887565b92508282019050808211156135cf576135ce61307f565b5b92915050565b600081519050919050565b600082825260208201905092915050565b60006135fc826135d5565b61360681856135e0565b93506136168185602086016127f1565b61361f8161281b565b840191505092915050565b600060808201905061363f60008301876126dc565b61364c60208301866126dc565b6136596040830185612956565b818103606083015261366b81846135f1565b905095945050505050565b60008151905061368581612746565b92915050565b6000602082840312156136a1576136a0612710565b5b60006136af84828501613676565b91505092915050565b7f45524337323155524953746f726167653a2055524920736574206f66206e6f6e60008201527f6578697374656e7420746f6b656e000000000000000000000000000000000000602082015250565b6000613714602e836127e0565b915061371f826136b8565b604082019050919050565b6000602082019050818103600083015261374381613707565b9050919050565b60008190508160005260206000209050919050565b60006020601f8301049050919050565b600082821b905092915050565b6000600883026137ac7fffffffffffffffffffffffffffffffffffffffffffffffffffffffffffffffff8261376f565b6137b6868361376f565b95508019841693508086168417925050509392505050565b6000819050919050565b60006137f36137ee6137e984612887565b6137ce565b612887565b9050919050565b6000819050919050565b61380d836137d8565b613821613819826137fa565b84845461377c565b825550505050565b600090565b613836613829565b613841818484613804565b505050565b5b818110156138655761385a60008261382e565b600181019050613847565b5050565b601f8211156138aa5761387b8161374a565b6138848461375f565b81016020851015613893578190505b6138a761389f8561375f565b830182613846565b50505b505050565b600082821c905092915050565b60006138cd600019846008026138af565b1980831691505092915050565b60006138e683836138bc565b9150826002028217905092915050565b6138ff826127d5565b67ffffffffffffffff81111561391857613917612a76565b5b6139228254612c93565b61392d828285613869565b600060209050601f831160018114613960576000841561394e578287015190505b61395885826138da565b8655506139c0565b601f19841661396e8661374a565b60005b8281101561399657848901518255600182019150602085019450602081019050613971565b868310156139b357848901516139af601f8916826138bc565b8355505b6001600288020188555050505b505050505050565b7f4552433732313a206d696e7420746f20746865207a65726f2061646472657373600082015250565b60006139fe6020836127e0565b9150613a09826139c8565b602082019050919050565b60006020820190508181036000830152613a2d816139f1565b9050919050565b7f4552433732313a20746f6b656e20616c7265616479206d696e74656400000000600082015250565b6000613a6a601c836127e0565b9150613a7582613a34565b602082019050919050565b60006020820190508181036000830152613a9981613a5d565b905091905056fea2646970667358221220af8adcb8c9248d65a27ce6b1d607a86967f33c5d33f2e0d09e92df236bacdd3f64736f6c63430008120033",
  "linkReferences": {},
  "deployedLinkReferences": {}
}