{
  "_format": "hh-sol-artifact-1",
  "contractName": "NofGammaCardsV3",
  "sourceName": "contracts/gamma/GammaCards.v3.sol",
  "abi": [
    {
      "inputs": [
        {
          "internalType": "address",
          "name": "_daiTokenAddress",
          "type": "address"
        },
        {
          "internalType": "address",
          "name": "_gammaPacksContract",
          "type": "address"
        },
        {
          "internalType": "string",
          "name": "_baseUri",
          "type": "string"
        },
        {
          "internalType": "address",
          "name": "_signer",
          "type": "address"
        }
      ],
      "stateMutability": "nonpayable",
      "type": "constructor"
    },
    {
      "anonymous": false,
      "inputs": [
        {
          "indexed": false,
          "internalType": "address",
          "name": "player",
          "type": "address"
        },
        {
          "indexed": false,
          "internalType": "uint8",
          "name": "albumClass",
          "type": "uint8"
        }
      ],
      "name": "AlbumCompleted",
      "type": "event"
    },
    {
      "anonymous": false,
      "inputs": [
        {
          "indexed": true,
          "internalType": "address",
          "name": "owner",
          "type": "address"
        },
        {
          "indexed": true,
          "internalType": "address",
          "name": "approved",
          "type": "address"
        },
        {
          "indexed": true,
          "internalType": "uint256",
          "name": "tokenId",
          "type": "uint256"
        }
      ],
      "name": "Approval",
      "type": "event"
    },
    {
      "anonymous": false,
      "inputs": [
        {
          "indexed": true,
          "internalType": "address",
          "name": "owner",
          "type": "address"
        },
        {
          "indexed": true,
          "internalType": "address",
          "name": "operator",
          "type": "address"
        },
        {
          "indexed": false,
          "internalType": "bool",
          "name": "approved",
          "type": "bool"
        }
      ],
      "name": "ApprovalForAll",
      "type": "event"
    },
    {
      "anonymous": false,
      "inputs": [
        {
          "indexed": false,
          "internalType": "address",
          "name": "player",
          "type": "address"
        },
        {
          "indexed": false,
          "internalType": "uint256",
          "name": "cardTokenId",
          "type": "uint256"
        },
        {
          "indexed": false,
          "internalType": "uint256",
          "name": "albumTokenId",
          "type": "uint256"
        }
      ],
      "name": "CardPasted",
      "type": "event"
    },
    {
      "anonymous": false,
      "inputs": [
        {
          "indexed": false,
          "internalType": "address",
          "name": "receiver",
          "type": "address"
        },
        {
          "indexed": false,
          "internalType": "uint256",
          "name": "amount",
          "type": "uint256"
        }
      ],
      "name": "EmergencyWithdrawal",
      "type": "event"
    },
    {
      "anonymous": false,
      "inputs": [
        {
          "indexed": false,
          "internalType": "address",
          "name": "newGammaOffersContract",
          "type": "address"
        }
      ],
      "name": "NewGammaOffersContract",
      "type": "event"
    },
    {
      "anonymous": false,
      "inputs": [
        {
          "indexed": false,
          "internalType": "address",
          "name": "newSigner",
          "type": "address"
        }
      ],
      "name": "NewSigner",
      "type": "event"
    },
    {
      "anonymous": false,
      "inputs": [
        {
          "indexed": false,
          "internalType": "string",
          "name": "newMainUri",
          "type": "string"
        },
        {
          "indexed": false,
          "internalType": "string",
          "name": "newSecondaryUri",
          "type": "string"
        }
      ],
      "name": "NewUris",
      "type": "event"
    },
    {
      "anonymous": false,
      "inputs": [
        {
          "indexed": true,
          "internalType": "address",
          "name": "previousOwner",
          "type": "address"
        },
        {
          "indexed": true,
          "internalType": "address",
          "name": "newOwner",
          "type": "address"
        }
      ],
      "name": "OwnershipTransferred",
      "type": "event"
    },
    {
      "anonymous": false,
      "inputs": [
        {
          "indexed": false,
          "internalType": "address",
          "name": "player",
          "type": "address"
        },
        {
          "indexed": false,
          "internalType": "uint8[]",
          "name": "packData",
          "type": "uint8[]"
        },
        {
          "indexed": false,
          "internalType": "uint256",
          "name": "packNumber",
          "type": "uint256"
        }
      ],
      "name": "PackOpened",
      "type": "event"
    },
    {
      "anonymous": false,
      "inputs": [
        {
          "indexed": true,
          "internalType": "address",
          "name": "from",
          "type": "address"
        },
        {
          "indexed": true,
          "internalType": "address",
          "name": "to",
          "type": "address"
        },
        {
          "indexed": true,
          "internalType": "uint256",
          "name": "tokenId",
          "type": "uint256"
        }
      ],
      "name": "Transfer",
      "type": "event"
    },
    {
      "inputs": [],
      "name": "DAI_TOKEN",
      "outputs": [
        {
          "internalType": "address",
          "name": "",
          "type": "address"
        }
      ],
      "stateMutability": "view",
      "type": "function"
    },
    {
      "inputs": [
        {
          "internalType": "address",
          "name": "_newOwner",
          "type": "address"
        }
      ],
      "name": "addOwner",
      "outputs": [],
      "stateMutability": "nonpayable",
      "type": "function"
    },
    {
      "inputs": [
        {
          "internalType": "address",
          "name": "_newSigner",
          "type": "address"
        }
      ],
      "name": "addSigner",
      "outputs": [],
      "stateMutability": "nonpayable",
      "type": "function"
    },
    {
      "inputs": [
        {
          "internalType": "address",
          "name": "to",
          "type": "address"
        },
        {
          "internalType": "uint256",
          "name": "tokenId",
          "type": "uint256"
        }
      ],
      "name": "approve",
      "outputs": [],
      "stateMutability": "nonpayable",
      "type": "function"
    },
    {
      "inputs": [
        {
          "internalType": "address",
          "name": "owner",
          "type": "address"
        }
      ],
      "name": "balanceOf",
      "outputs": [
        {
          "internalType": "uint256",
          "name": "",
          "type": "uint256"
        }
      ],
      "stateMutability": "view",
      "type": "function"
    },
    {
      "inputs": [],
      "name": "baseUri",
      "outputs": [
        {
          "internalType": "string",
          "name": "",
          "type": "string"
        }
      ],
      "stateMutability": "view",
      "type": "function"
    },
    {
      "inputs": [
        {
          "internalType": "uint256",
          "name": "tokenId",
          "type": "uint256"
        }
      ],
      "name": "burn",
      "outputs": [],
      "stateMutability": "nonpayable",
      "type": "function"
    },
    {
      "inputs": [
        {
          "internalType": "uint8[]",
          "name": "cardNumbers",
          "type": "uint8[]"
        }
      ],
      "name": "burnCards",
      "outputs": [],
      "stateMutability": "nonpayable",
      "type": "function"
    },
    {
      "inputs": [
        {
          "internalType": "address",
          "name": "user",
          "type": "address"
        }
      ],
      "name": "burnedCards",
      "outputs": [
        {
          "internalType": "uint256",
          "name": "amount",
          "type": "uint256"
        }
      ],
      "stateMutability": "view",
      "type": "function"
    },
    {
      "inputs": [
        {
          "internalType": "uint256",
          "name": "tokenId",
          "type": "uint256"
        }
      ],
      "name": "cards",
      "outputs": [
        {
          "internalType": "uint256",
          "name": "tokenId",
          "type": "uint256"
        },
        {
          "internalType": "uint256",
          "name": "number",
          "type": "uint256"
        },
        {
          "internalType": "bool",
          "name": "pasted",
          "type": "bool"
        },
        {
          "internalType": "uint8",
          "name": "class",
          "type": "uint8"
        },
        {
          "internalType": "uint256",
          "name": "completion",
          "type": "uint256"
        }
      ],
      "stateMutability": "view",
      "type": "function"
    },
    {
      "inputs": [
        {
          "internalType": "address",
          "name": "user",
          "type": "address"
        },
        {
          "internalType": "uint8",
          "name": "cardNumber",
          "type": "uint8"
        }
      ],
      "name": "cardsByUser",
      "outputs": [
        {
          "internalType": "uint8",
          "name": "amount",
          "type": "uint8"
        }
      ],
      "stateMutability": "view",
      "type": "function"
    },
    {
      "inputs": [
        {
          "internalType": "uint256",
          "name": "cardNumber",
          "type": "uint256"
        }
      ],
      "name": "cardsInventory",
      "outputs": [
        {
          "internalType": "uint256",
          "name": "amount",
          "type": "uint256"
        }
      ],
      "stateMutability": "view",
      "type": "function"
    },
    {
      "inputs": [
        {
          "internalType": "uint256",
          "name": "newPackPrice",
          "type": "uint256"
        }
      ],
      "name": "changePackPrice",
      "outputs": [],
      "stateMutability": "nonpayable",
      "type": "function"
    },
    {
      "inputs": [
        {
          "internalType": "bool",
          "name": "required",
          "type": "bool"
        }
      ],
      "name": "changeRequireOpenPackSignerValidation",
      "outputs": [],
      "stateMutability": "nonpayable",
      "type": "function"
    },
    {
      "inputs": [
        {
          "internalType": "uint256",
          "name": "amount",
          "type": "uint256"
        }
      ],
      "name": "emergencyWithdraw",
      "outputs": [],
      "stateMutability": "nonpayable",
      "type": "function"
    },
    {
      "inputs": [
        {
          "internalType": "address",
          "name": "from",
          "type": "address"
        },
        {
          "internalType": "uint8",
          "name": "cardNumberFrom",
          "type": "uint8"
        },
        {
          "internalType": "address",
          "name": "to",
          "type": "address"
        },
        {
          "internalType": "uint8",
          "name": "cardNumberTo",
          "type": "uint8"
        }
      ],
      "name": "exchangeCardsOffer",
      "outputs": [],
      "stateMutability": "nonpayable",
      "type": "function"
    },
    {
      "inputs": [],
      "name": "finishAlbum",
      "outputs": [],
      "stateMutability": "nonpayable",
      "type": "function"
    },
    {
      "inputs": [],
      "name": "gammaOffersContract",
      "outputs": [
        {
          "internalType": "contract IgammaOffersContract",
          "name": "",
          "type": "address"
        }
      ],
      "stateMutability": "view",
      "type": "function"
    },
    {
      "inputs": [],
      "name": "gammaPacksContract",
      "outputs": [
        {
          "internalType": "contract IgammaPacksContract",
          "name": "",
          "type": "address"
        }
      ],
      "stateMutability": "view",
      "type": "function"
    },
    {
      "inputs": [
        {
          "internalType": "uint256",
          "name": "tokenId",
          "type": "uint256"
        }
      ],
      "name": "getApproved",
      "outputs": [
        {
          "internalType": "address",
          "name": "",
          "type": "address"
        }
      ],
      "stateMutability": "view",
      "type": "function"
    },
    {
      "inputs": [
        {
          "internalType": "address",
          "name": "user",
          "type": "address"
        }
      ],
      "name": "getCardsByUser",
      "outputs": [
        {
          "internalType": "uint8[]",
          "name": "",
          "type": "uint8[]"
        },
        {
          "internalType": "uint8[]",
          "name": "",
          "type": "uint8[]"
        }
      ],
      "stateMutability": "view",
      "type": "function"
    },
    {
      "inputs": [
        {
          "internalType": "uint8",
          "name": "cardNum",
          "type": "uint8"
        }
      ],
      "name": "hasCard",
      "outputs": [
        {
          "internalType": "bool",
          "name": "has",
          "type": "bool"
        }
      ],
      "stateMutability": "view",
      "type": "function"
    },
    {
      "inputs": [
        {
          "internalType": "address",
          "name": "user",
          "type": "address"
        },
        {
          "internalType": "uint8",
          "name": "cardNumber",
          "type": "uint8"
        }
      ],
      "name": "hasCardByOffer",
      "outputs": [
        {
          "internalType": "bool",
          "name": "has",
          "type": "bool"
        }
      ],
      "stateMutability": "view",
      "type": "function"
    },
    {
      "inputs": [
        {
          "internalType": "address",
          "name": "owner",
          "type": "address"
        },
        {
          "internalType": "address",
          "name": "operator",
          "type": "address"
        }
      ],
      "name": "isApprovedForAll",
      "outputs": [
        {
          "internalType": "bool",
          "name": "",
          "type": "bool"
        }
      ],
      "stateMutability": "view",
      "type": "function"
    },
    {
      "inputs": [],
      "name": "mainAlbumPrize",
      "outputs": [
        {
          "internalType": "uint256",
          "name": "",
          "type": "uint256"
        }
      ],
      "stateMutability": "view",
      "type": "function"
    },
    {
      "inputs": [],
      "name": "mainUri",
      "outputs": [
        {
          "internalType": "string",
          "name": "",
          "type": "string"
        }
      ],
      "stateMutability": "view",
      "type": "function"
    },
    {
      "inputs": [
        {
          "internalType": "uint8",
          "name": "cardNum",
          "type": "uint8"
        }
      ],
      "name": "mintCard",
      "outputs": [],
      "stateMutability": "nonpayable",
      "type": "function"
    },
    {
      "inputs": [],
      "name": "name",
      "outputs": [
        {
          "internalType": "string",
          "name": "",
          "type": "string"
        }
      ],
      "stateMutability": "view",
      "type": "function"
    },
    {
      "inputs": [
        {
          "internalType": "uint256",
          "name": "packNumber",
          "type": "uint256"
        },
        {
          "internalType": "uint8[]",
          "name": "packData",
          "type": "uint8[]"
        },
        {
          "internalType": "bytes",
          "name": "signature",
          "type": "bytes"
        }
      ],
      "name": "openPack",
      "outputs": [],
      "stateMutability": "nonpayable",
      "type": "function"
    },
    {
      "inputs": [],
      "name": "owner",
      "outputs": [
        {
          "internalType": "address",
          "name": "",
          "type": "address"
        }
      ],
      "stateMutability": "view",
      "type": "function"
    },
    {
      "inputs": [
        {
          "internalType": "uint256",
          "name": "tokenId",
          "type": "uint256"
        }
      ],
      "name": "ownerOf",
      "outputs": [
        {
          "internalType": "address",
          "name": "",
          "type": "address"
        }
      ],
      "stateMutability": "view",
      "type": "function"
    },
    {
      "inputs": [
        {
          "internalType": "address",
          "name": "",
          "type": "address"
        }
      ],
      "name": "owners",
      "outputs": [
        {
          "internalType": "bool",
          "name": "",
          "type": "bool"
        }
      ],
      "stateMutability": "view",
      "type": "function"
    },
    {
      "inputs": [],
      "name": "packPrice",
      "outputs": [
        {
          "internalType": "uint256",
          "name": "",
          "type": "uint256"
        }
      ],
      "stateMutability": "view",
      "type": "function"
    },
    {
      "inputs": [],
      "name": "prizesBalance",
      "outputs": [
        {
          "internalType": "uint256",
          "name": "",
          "type": "uint256"
        }
      ],
      "stateMutability": "view",
      "type": "function"
    },
    {
      "inputs": [
        {
          "internalType": "uint256",
          "name": "amount",
          "type": "uint256"
        }
      ],
      "name": "receivePrizesBalance",
      "outputs": [],
      "stateMutability": "nonpayable",
      "type": "function"
    },
    {
      "inputs": [
        {
          "internalType": "address",
          "name": "user",
          "type": "address"
        },
        {
          "internalType": "uint8",
          "name": "cardNumber",
          "type": "uint8"
        }
      ],
      "name": "removeCardByOffer",
      "outputs": [],
      "stateMutability": "nonpayable",
      "type": "function"
    },
    {
      "inputs": [
        {
          "internalType": "address",
          "name": "_ownerToRemove",
          "type": "address"
        }
      ],
      "name": "removeOwner",
      "outputs": [],
      "stateMutability": "nonpayable",
      "type": "function"
    },
    {
      "inputs": [
        {
          "internalType": "address",
          "name": "_signerToRemove",
          "type": "address"
        }
      ],
      "name": "removeSigner",
      "outputs": [],
      "stateMutability": "nonpayable",
      "type": "function"
    },
    {
      "inputs": [],
      "name": "renounceOwnership",
      "outputs": [],
      "stateMutability": "nonpayable",
      "type": "function"
    },
    {
      "inputs": [],
      "name": "requireOpenPackSignerValidation",
      "outputs": [
        {
          "internalType": "bool",
          "name": "",
          "type": "bool"
        }
      ],
      "stateMutability": "view",
      "type": "function"
    },
    {
      "inputs": [
        {
          "internalType": "address",
          "name": "user",
          "type": "address"
        },
        {
          "internalType": "uint8",
          "name": "cardNumber",
          "type": "uint8"
        }
      ],
      "name": "restoreCardByOffer",
      "outputs": [],
      "stateMutability": "nonpayable",
      "type": "function"
    },
    {
      "inputs": [
        {
          "internalType": "address",
          "name": "from",
          "type": "address"
        },
        {
          "internalType": "address",
          "name": "to",
          "type": "address"
        },
        {
          "internalType": "uint256",
          "name": "tokenId",
          "type": "uint256"
        }
      ],
      "name": "safeTransferFrom",
      "outputs": [],
      "stateMutability": "nonpayable",
      "type": "function"
    },
    {
      "inputs": [
        {
          "internalType": "address",
          "name": "from",
          "type": "address"
        },
        {
          "internalType": "address",
          "name": "to",
          "type": "address"
        },
        {
          "internalType": "uint256",
          "name": "tokenId",
          "type": "uint256"
        },
        {
          "internalType": "bytes",
          "name": "data",
          "type": "bytes"
        }
      ],
      "name": "safeTransferFrom",
      "outputs": [],
      "stateMutability": "nonpayable",
      "type": "function"
    },
    {
      "inputs": [],
      "name": "secondaryAlbumPrize",
      "outputs": [
        {
          "internalType": "uint256",
          "name": "",
          "type": "uint256"
        }
      ],
      "stateMutability": "view",
      "type": "function"
    },
    {
      "inputs": [],
      "name": "secondaryUri",
      "outputs": [
        {
          "internalType": "string",
          "name": "",
          "type": "string"
        }
      ],
      "stateMutability": "view",
      "type": "function"
    },
    {
      "inputs": [
        {
          "internalType": "address",
          "name": "operator",
          "type": "address"
        },
        {
          "internalType": "bool",
          "name": "approved",
          "type": "bool"
        }
      ],
      "name": "setApprovalForAll",
      "outputs": [],
      "stateMutability": "nonpayable",
      "type": "function"
    },
    {
      "inputs": [
        {
          "internalType": "address",
          "name": "_gammaOffersContract",
          "type": "address"
        }
      ],
      "name": "setGammaOffersContract",
      "outputs": [],
      "stateMutability": "nonpayable",
      "type": "function"
    },
    {
      "inputs": [
        {
          "internalType": "string",
          "name": "newMainUri",
          "type": "string"
        },
        {
          "internalType": "string",
          "name": "newSecondaryUri",
          "type": "string"
        }
      ],
      "name": "setUris",
      "outputs": [],
      "stateMutability": "nonpayable",
      "type": "function"
    },
    {
      "inputs": [
        {
          "internalType": "address",
          "name": "",
          "type": "address"
        }
      ],
      "name": "signers",
      "outputs": [
        {
          "internalType": "bool",
          "name": "",
          "type": "bool"
        }
      ],
      "stateMutability": "view",
      "type": "function"
    },
    {
      "inputs": [
        {
          "internalType": "bytes4",
          "name": "interfaceId",
          "type": "bytes4"
        }
      ],
      "name": "supportsInterface",
      "outputs": [
        {
          "internalType": "bool",
          "name": "",
          "type": "bool"
        }
      ],
      "stateMutability": "view",
      "type": "function"
    },
    {
      "inputs": [],
      "name": "symbol",
      "outputs": [
        {
          "internalType": "string",
          "name": "",
          "type": "string"
        }
      ],
      "stateMutability": "view",
      "type": "function"
    },
    {
      "inputs": [],
      "name": "testAddCards",
      "outputs": [],
      "stateMutability": "nonpayable",
      "type": "function"
    },
    {
      "inputs": [
        {
          "internalType": "uint256",
          "name": "packNumber",
          "type": "uint256"
        },
        {
          "internalType": "uint8[]",
          "name": "packData",
          "type": "uint8[]"
        }
      ],
      "name": "testOpenPack",
      "outputs": [],
      "stateMutability": "nonpayable",
      "type": "function"
    },
    {
      "inputs": [
        {
          "internalType": "uint256",
          "name": "tokenId",
          "type": "uint256"
        }
      ],
      "name": "tokenURI",
      "outputs": [
        {
          "internalType": "string",
          "name": "",
          "type": "string"
        }
      ],
      "stateMutability": "view",
      "type": "function"
    },
    {
      "inputs": [
        {
          "internalType": "address",
          "name": "to",
          "type": "address"
        },
        {
          "internalType": "uint8",
          "name": "cardNumber",
          "type": "uint8"
        }
      ],
      "name": "transferCard",
      "outputs": [],
      "stateMutability": "nonpayable",
      "type": "function"
    },
    {
      "inputs": [
        {
          "internalType": "address",
          "name": "to",
          "type": "address"
        },
        {
          "internalType": "uint8[]",
          "name": "cardNumbers",
          "type": "uint8[]"
        }
      ],
      "name": "transferCards",
      "outputs": [],
      "stateMutability": "nonpayable",
      "type": "function"
    },
    {
      "inputs": [
        {
          "internalType": "address",
          "name": "from",
          "type": "address"
        },
        {
          "internalType": "address",
          "name": "to",
          "type": "address"
        },
        {
          "internalType": "uint256",
          "name": "tokenId",
          "type": "uint256"
        }
      ],
      "name": "transferFrom",
      "outputs": [],
      "stateMutability": "nonpayable",
      "type": "function"
    },
    {
      "inputs": [
        {
          "internalType": "address",
          "name": "newOwner",
          "type": "address"
        }
      ],
      "name": "transferOwnership",
      "outputs": [],
      "stateMutability": "nonpayable",
      "type": "function"
    },
    {
      "inputs": [
        {
          "internalType": "uint256",
          "name": "packNumber",
          "type": "uint256"
        },
        {
          "internalType": "uint8[]",
          "name": "packData",
          "type": "uint8[]"
        },
        {
          "internalType": "bytes",
          "name": "signature",
          "type": "bytes"
        }
      ],
      "name": "verifyPackSigner",
      "outputs": [
        {
          "internalType": "address",
          "name": "signer",
          "type": "address"
        }
      ],
      "stateMutability": "view",
      "type": "function"
    }
  ],
  "bytecode": "0x60806040526710a741a462780000600c5567d02ab486cedc0000600f55670de0b6b3a76400006010553480156200003557600080fd5b506040516200531938038062005319833981016040819052620000589162000348565b6040518060400160405280600a81526020016947616d6d61436172647360b01b815250604051806040016040528060068152602001654e4f465f474360d01b8152508160009081620000ab9190620004ca565b506001620000ba8282620004ca565b505050620000d7620000d16200029960201b60201c565b6200029d565b600880546001600160a01b038086166001600160a01b031992831617909255600b805492871692909116919091179055600e620001158382620004ca565b5060408051808201825260018152602f60f81b60208083019190915282518084018452600381526203132360ec1b8183015283518085018552600681526523173539b7b760d11b8184015293516200017494600e949390910162000596565b60405160208183030381529060405260119081620001939190620004ca565b5060408051808201825260018152602f60f81b60208083019190915282518084018452600381526231323160e81b8183015283518085018552600681526523173539b7b760d11b818401529351620001f294600e949390910162000596565b60405160208183030381529060405260129081620002119190620004ca565b506001600160a01b0381166000908152601560205260408120805460ff199081166001179091556013805490911690555b607a8110156200027357600081815260176020526040902060019055806200026a8162000653565b91505062000242565b5050336000908152601460205260409020805460ff19166001179055506200067b915050565b3390565b600780546001600160a01b038381166001600160a01b0319831681179093556040519116919082907f8be0079c531659141344cd1fd0a4f28419497f9722a3daafe3b4186f6b6457e090600090a35050565b80516001600160a01b03811681146200030757600080fd5b919050565b634e487b7160e01b600052604160045260246000fd5b60005b838110156200033f57818101518382015260200162000325565b50506000910152565b600080600080608085870312156200035f57600080fd5b6200036a85620002ef565b93506200037a60208601620002ef565b60408601519093506001600160401b03808211156200039857600080fd5b818701915087601f830112620003ad57600080fd5b815181811115620003c257620003c26200030c565b604051601f8201601f19908116603f01168101908382118183101715620003ed57620003ed6200030c565b816040528281528a60208487010111156200040757600080fd5b6200041a83602083016020880162000322565b80965050505050506200043060608601620002ef565b905092959194509250565b600181811c908216806200045057607f821691505b6020821081036200047157634e487b7160e01b600052602260045260246000fd5b50919050565b601f821115620004c557600081815260208120601f850160051c81016020861015620004a05750805b601f850160051c820191505b81811015620004c157828155600101620004ac565b5050505b505050565b81516001600160401b03811115620004e657620004e66200030c565b620004fe81620004f784546200043b565b8462000477565b602080601f8311600181146200053657600084156200051d5750858301515b600019600386901b1c1916600185901b178555620004c1565b600085815260208120601f198616915b82811015620005675788860151825594840194600190910190840162000546565b5085821015620005865787850151600019600388901b60f8161c191681555b5050505050600190811b01905550565b6000808654620005a6816200043b565b60018281168015620005c15760018114620005d75762000608565b60ff198416875282151583028701945062000608565b8a60005260208060002060005b85811015620005ff5781548a820152908401908201620005e4565b50505082870194505b5050505085516200061e818360208a0162000322565b85519101906200063381836020890162000322565b84519101906200064881836020880162000322565b019695505050505050565b6000600182016200067457634e487b7160e01b600052601160045260246000fd5b5060010190565b614c8e806200068b6000396000f3fe608060405234801561001057600080fd5b50600436106103995760003560e01c80637e50fa8f116101e9578063aaaeca171161010f578063dbfc05cf116100ad578063e606df871161007c578063e606df8714610869578063e985e9c51461087c578063eb12d61e146108b8578063f2fde38b146108cb57600080fd5b8063dbfc05cf14610832578063dec3f6d914610845578063e1883c6e1461084d578063e5db587a1461086057600080fd5b8063bf400a6a116100e9578063bf400a6a146107f1578063c3461c0714610804578063c87b56dd1461080c578063d322b5631461081f57600080fd5b8063aaaeca17146107c3578063ad1684fa146107cb578063b88d4fde146107de57600080fd5b806394e8f556116101875780639c7f707f116101565780639c7f707f146107815780639f4415d814610794578063a1af8ad41461079d578063a22cb465146107b057600080fd5b806394e8f5561461075157806395d89b4114610764578063968841351461076c5780639abc83201461077957600080fd5b80638bf670c8116101c35780638bf670c8146106b35780638da5cb5b146106c65780638dc10768146106d75780639038f4141461074957600080fd5b80637e50fa8f14610640578063809eb355146106605780638ba526fc146106a057600080fd5b80632ca699e7116102ce5780635312ea8e1161026c57806370a082311161023b57806370a08231146105ef578063715018a6146106025780637155a3ac1461060a578063736c0d5b1461061d57600080fd5b80635312ea8e146105965780635dde20d8146105a95780636352211e146105c95780637065cb48146105dc57600080fd5b806342842e0e116102a857806342842e0e1461053457806342966c6814610547578063483823e81461055a5780634e5ad3181461056357600080fd5b80632ca699e7146104f75780632f9e026a1461050a578063335c8b631461051d57600080fd5b8063128916dc1161033b578063173825d911610315578063173825d9146104ab57806320965a5f146104be57806323b872dd146104d1578063267b841d146104e457600080fd5b8063128916dc146104725780631306952c14610485578063155e2f921461049857600080fd5b806306fdde031161037757806306fdde031461040a578063081812fc1461041f578063095ea7b31461044a5780630e316ab71461045f57600080fd5b806301ffc9a71461039e578063022914a7146103c65780630435dcaf146103e9575b600080fd5b6103b16103ac366004613ea0565b6108de565b60405190151581526020015b60405180910390f35b6103b16103d4366004613ed2565b60146020526000908152604090205460ff1681565b6103fc6103f7366004613ed2565b610930565b6040516103bd929190613f2d565b610412610b9f565b6040516103bd9190613fab565b61043261042d366004613fbe565b610c31565b6040516001600160a01b0390911681526020016103bd565b61045d610458366004613fd7565b610c58565b005b61045d61046d366004613ed2565b610d72565b61045d610480366004613ed2565b610eb8565b6104326104933660046140e5565b610f62565b61045d6104a636600461417f565b611070565b61045d6104b9366004613ed2565b6110ec565b61045d6104cc3660046141f8565b611232565b61045d6104df366004614239565b611532565b61045d6104f23660046140e5565b611564565b61045d61050536600461417f565b611a19565b600854610432906001600160a01b031681565b610526600c5481565b6040519081526020016103bd565b61045d610542366004614239565b611b4e565b61045d610555366004613fbe565b611b69565b61052660105481565b6103b161057136600461427a565b33600090815260196020908152604080832060ff948516845290915290205416151590565b61045d6105a4366004613fbe565b611b9a565b6105266105b7366004613fbe565b60176020526000908152604090205481565b6104326105d7366004613fbe565b611ca1565b61045d6105ea366004613ed2565b611d01565b6105266105fd366004613ed2565b611de3565b61045d611e69565b61045d61061836600461417f565b611e7d565b6103b161062b366004613ed2565b60156020526000908152604090205460ff1681565b61052661064e366004613ed2565b60186020526000908152604090205481565b61068e61066e36600461417f565b601960209081526000928352604080842090915290825290205460ff1681565b60405160ff90911681526020016103bd565b61045d6106ae366004613fbe565b611edc565b6103b16106c136600461417f565b611f20565b6007546001600160a01b0316610432565b6107196106e5366004613fbe565b60166020526000908152604090208054600182015460028301546003909301549192909160ff808316926101009004169085565b6040805195865260208601949094529115159284019290925260ff9091166060830152608082015260a0016103bd565b61045d611f7e565b61045d61075f366004614295565b612279565b61041261250a565b6013546103b19060ff1681565b610412612519565b61045d61078f366004614352565b6125a7565b610526600f5481565b61045d6107ab3660046143ab565b612621565b61045d6107be36600461440d565b612844565b61045d61284f565b61045d6107d9366004614446565b6128e5565b61045d6107ec36600461449e565b612a9c565b61045d6107ff36600461427a565b612ace565b610412612bcb565b61041261081a366004613fbe565b612bd8565b600954610432906001600160a01b031681565b61045d61084036600461451d565b612be3565b610412612c25565b61045d61085b366004613fbe565b612c32565b610526600d5481565b600b54610432906001600160a01b031681565b6103b161088a36600461453a565b6001600160a01b03918216600090815260056020908152604080832093909416825291909152205460ff1690565b61045d6108c6366004613ed2565b612c61565b61045d6108d9366004613ed2565b612d43565b60006001600160e01b031982166380ac58cd60e01b148061090f57506001600160e01b03198216635b5e139f60e01b145b8061092a57506301ffc9a760e01b6001600160e01b03198316145b92915050565b604080516079808252610f408201909252606091829160009160208201610f20803683375050604080516079808252610f408201909252929350600092915060208201610f20803683370190505090506000805b60778160ff1611610a55576001600160a01b038716600090815260196020908152604080832060ff80861685529252909120541615610a435780848360ff16815181106109d3576109d3614568565b60ff9283166020918202929092018101919091526001600160a01b0389166000908152601982526040808220858516835290925220548451908216918591908516908110610a2357610a23614568565b60ff9092166020928302919091019091015281610a3f81614594565b9250505b80610a4d81614594565b915050610984565b5060008160ff166001600160401b03811115610a7357610a73614003565b604051908082528060200260200182016040528015610a9c578160200160208202803683370190505b50905060008260ff166001600160401b03811115610abc57610abc614003565b604051908082528060200260200182016040528015610ae5578160200160208202803683370190505b50905060005b8360ff168160ff161015610b9157858160ff1681518110610b0e57610b0e614568565b6020026020010151838260ff1681518110610b2b57610b2b614568565b60ff9283166020918202929092010152855186918316908110610b5057610b50614568565b6020026020010151828260ff1681518110610b6d57610b6d614568565b60ff9092166020928302919091019091015280610b8981614594565b915050610aeb565b509097909650945050505050565b606060008054610bae906145b3565b80601f0160208091040260200160405190810160405280929190818152602001828054610bda906145b3565b8015610c275780601f10610bfc57610100808354040283529160200191610c27565b820191906000526020600020905b815481529060010190602001808311610c0a57829003601f168201915b5050505050905090565b6000610c3c82612db9565b506000908152600460205260409020546001600160a01b031690565b6000610c6382611ca1565b9050806001600160a01b0316836001600160a01b031603610cd55760405162461bcd60e51b815260206004820152602160248201527f4552433732313a20617070726f76616c20746f2063757272656e74206f776e656044820152603960f91b60648201526084015b60405180910390fd5b336001600160a01b0382161480610cf15750610cf1813361088a565b610d635760405162461bcd60e51b815260206004820152603d60248201527f4552433732313a20617070726f76652063616c6c6572206973206e6f7420746f60448201527f6b656e206f776e6572206f7220617070726f76656420666f7220616c6c0000006064820152608401610ccc565b610d6d8383612e18565b505050565b3360009081526014602052604090205460ff16610da15760405162461bcd60e51b8152600401610ccc906145ed565b6001600160a01b038116610dc75760405162461bcd60e51b8152600401610ccc90614630565b336001600160a01b03821603610e2f5760405162461bcd60e51b815260206004820152602760248201527f596f752063616e6e6f742072656d6f766520796f757273656c6620617320612060448201526639b4b3b732b91760c91b6064820152608401610ccc565b6001600160a01b03811660009081526015602052604090205460ff16610e975760405162461bcd60e51b815260206004820152601960248201527f41646472657373206973206e6f7420616e207369676e65722e000000000000006044820152606401610ccc565b6001600160a01b03166000908152601560205260409020805460ff19169055565b3360009081526014602052604090205460ff16610ee75760405162461bcd60e51b8152600401610ccc906145ed565b6001600160a01b038116610f0d5760405162461bcd60e51b8152600401610ccc90614630565b600980546001600160a01b0319166001600160a01b0383169081179091556040519081527f538b3425a321783393ad250db10356b8b3523ef29a40de015c5218213de0ead0906020015b60405180910390a150565b600080610fdd338787604051602001610f7d9392919061465a565b60408051601f1981840301815282825280516020918201207f19457468657265756d205369676e6564204d6573736167653a0a33320000000084830152603c8085019190915282518085039091018152605c909301909152815191012090565b9050600061102385858080601f0160208091040260200160405190810160405280939291908181526020018383808284376000920191909152508693925050612e869050565b90506110646040518060400160405280601a81526020017f6f70656e207061636b207369676e6572207265636f766572656400000000000081525082612eaa565b9150505b949350505050565b6009546001600160a01b0316331461109a5760405162461bcd60e51b8152600401610ccc906146e8565b6001600160a01b038216600090815260196020908152604080832060ff8086168552925282208054909116916110cf83614594565b91906101000a81548160ff021916908360ff160217905550505050565b3360009081526014602052604090205460ff1661111b5760405162461bcd60e51b8152600401610ccc906145ed565b6001600160a01b0381166111415760405162461bcd60e51b8152600401610ccc90614630565b336001600160a01b038216036111a95760405162461bcd60e51b815260206004820152602760248201527f596f752063616e6e6f742072656d6f766520796f757273656c6620617320616e6044820152661037bbb732b91760c91b6064820152608401610ccc565b6001600160a01b03811660009081526014602052604090205460ff166112115760405162461bcd60e51b815260206004820152601860248201527f41646472657373206973206e6f7420616e206f776e65722e00000000000000006044820152606401610ccc565b6001600160a01b03166000908152601460205260409020805460ff19169055565b3360009081526019602090815260408083206079845290915290205460ff1661129d5760405162461bcd60e51b815260206004820152601860248201527f4e6f207469656e657320616c62756d206465207175656d6100000000000000006044820152606401610ccc565b336000908152601960209081526040808320607984529091528120805460ff16916112c78361473a565b825460ff9182166101009390930a9283029190920219909116179055503360009081526018602052604081208054839290611303908490614757565b90915550600090505b60ff81168211156113a45733600090815260196020526040812090848460ff851681811061133c5761133c614568565b9050602002016020810190611351919061427a565b60ff908116825260208201929092526040016000908120805490921691906113788361473a565b91906101000a81548160ff021916908360ff16021790555050808061139c90614594565b91505061130c565b50336000908152601860205260409020546113c190603c90614780565b60000361152e5761146033601280546113d9906145b3565b80601f0160208091040260200160405190810160405280929190818152602001828054611405906145b3565b80156114525780601f1061142757610100808354040283529160200191611452565b820191906000526020600020905b81548152906001019060200180831161143557829003601f168201915b505050505060796002612eef565b600f54600d60008282546114749190614794565b9091555050600b5460105460405163a9059cbb60e01b815233600482015260248101919091526001600160a01b039091169063a9059cbb906044016020604051808303816000875af11580156114ce573d6000803e3d6000fd5b505050506040513d601f19601f820116820180604052508101906114f291906147a7565b5060408051338152600260208201527f6d0344e2059f835240cb954cce07d4b26f0d0844eecc234f7ee0e292ba80a1aa91015b60405180910390a15b5050565b61153d335b82612f52565b6115595760405162461bcd60e51b8152600401610ccc906147c4565b610d6d838383612fd0565b60085460405163d3e6a7ad60e01b81526004810186905233916001600160a01b03169063d3e6a7ad90602401602060405180830381865afa1580156115ad573d6000803e3d6000fd5b505050506040513d601f19601f820116820180604052508101906115d19190614811565b6001600160a01b0316146116275760405162461bcd60e51b815260206004820152601760248201527f546869732063617264206973206e6f7420796f7572732e0000000000000000006044820152606401610ccc565b600f83511061166e5760405162461bcd60e51b815260206004820152601360248201527210d85c99081b1a5b5a5d08195e18d959591959606a1b6044820152606401610ccc565b60135460ff161561177a576000611693338686604051602001610f7d9392919061465a565b905060006116d984848080601f0160208091040260200160405190810160405280939291908181526020018383808284376000920191909152508693925050612e869050565b905061171a6040518060400160405280601a81526020017f6f70656e207061636b207369676e6572207265636f766572656400000000000081525082612eaa565b6001600160a01b03811660009081526015602052604090205460ff166117775760405162461bcd60e51b815260206004820152601260248201527124b73b30b634b21039b4b3b730ba3ab9329760711b6044820152606401610ccc565b50505b6008546040516380f2540b60e01b8152600481018690523360248201526001600160a01b03909116906380f2540b90604401600060405180830381600087803b1580156117c657600080fd5b505af11580156117da573d6000803e3d6000fd5b505050506006600c546117ed919061482e565b600c546117fa9190614794565b600d600082825461180b9190614757565b9091555050825160005b818160ff1610156119d657848160ff168151811061183557611835614568565b602002602001015160ff166078146118835761138960176000878460ff168151811061186357611863614568565b602002602001015160ff16815260200190815260200160002054106118b4565b607860005260176020527f1e0e657bdfc7d3d523657bb82aa6f2c628a4caf6e2f7839556e82479d4362f0654610bb9115b6119005760405162461bcd60e51b815260206004820152601e60248201527f696e76616c69642063617264496e76656e746f727920706f736974696f6e00006044820152606401610ccc565b60176000868360ff168151811061191957611919614568565b602002602001015160ff168152602001908152602001600020600081548092919061194390614842565b90915550503360009081526019602052604081208651909190879060ff851690811061197157611971614568565b602002602001015160ff1660ff168152602001908152602001600020600081819054906101000a900460ff16809291906119aa90614594565b91906101000a81548160ff021916908360ff1602179055505080806119ce90614594565b915050611815565b507fbabe8f5e83e93ab103ddf917b4292a19335a5128b3530bedd896a681cdd945e3338587604051611a0a9392919061485b565b60405180910390a15050505050565b33600090815260196020908152604080832060ff808616855292529091205416611a555760405162461bcd60e51b8152600401610ccc9061488f565b336001600160a01b03831603611aad5760405162461bcd60e51b815260206004820152601960248201527f4f776e207472616e73666572206e6f7420616c6c6f7765642e000000000000006044820152606401610ccc565b6001600160a01b038216611ad35760405162461bcd60e51b8152600401610ccc90614630565b33600090815260196020908152604080832060ff808616855292528220805490911691611aff8361473a565b82546101009290920a60ff8181021990931691831602179091556001600160a01b038416600090815260196020908152604080832086851684529091528120805490921692506110cf83614594565b610d6d83838360405180602001604052806000815250612a9c565b611b7233611537565b611b8e5760405162461bcd60e51b8152600401610ccc906147c4565b611b9781613141565b50565b3360009081526014602052604090205460ff16611bc95760405162461bcd60e51b8152600401610ccc906145ed565b80611bd330611de3565b1015611bde57600080fd5b80600d6000828254611bf09190614794565b9091555050600b5460405163a9059cbb60e01b8152336004820152602481018390526001600160a01b039091169063a9059cbb906044016020604051808303816000875af1158015611c46573d6000803e3d6000fd5b505050506040513d601f19601f82011682018060405250810190611c6a91906147a7565b5060408051338152602081018390527f23d6711a1d031134a36921253c75aa59e967d38e369ac625992824315e204f209101610f57565b6000818152600260205260408120546001600160a01b03168061092a5760405162461bcd60e51b8152602060048201526018602482015277115490cdcc8c4e881a5b9d985b1a59081d1bdad95b88125160421b6044820152606401610ccc565b3360009081526014602052604090205460ff16611d305760405162461bcd60e51b8152600401610ccc906145ed565b6001600160a01b038116611d565760405162461bcd60e51b8152600401610ccc90614630565b6001600160a01b03811660009081526014602052604090205460ff1615611dbf5760405162461bcd60e51b815260206004820152601c60248201527f4164647265737320697320616c726561647920616e206f776e65722e000000006044820152606401610ccc565b6001600160a01b03166000908152601460205260409020805460ff19166001179055565b60006001600160a01b038216611e4d5760405162461bcd60e51b815260206004820152602960248201527f4552433732313a2061646472657373207a65726f206973206e6f7420612076616044820152683634b21037bbb732b960b91b6064820152608401610ccc565b506001600160a01b031660009081526003602052604090205490565b611e7161314a565b611e7b60006131a4565b565b6009546001600160a01b03163314611ea75760405162461bcd60e51b8152600401610ccc906146e8565b6001600160a01b038216600090815260196020908152604080832060ff8086168552925282208054909116916110cf8361473a565b6008546001600160a01b03163314611f065760405162461bcd60e51b8152600401610ccc906148c6565b80600d6000828254611f189190614757565b909155505050565b6009546000906001600160a01b03163314611f4d5760405162461bcd60e51b8152600401610ccc906146e8565b506001600160a01b0391909116600090815260196020908152604080832060ff948516845290915290205416151590565b3360009081526019602090815260408083206078845290915290205460ff16611fe95760405162461bcd60e51b815260206004820152601c60248201527f596f7520646f6573206e6f74206861766520616e7920616c62756d2e000000006044820152606401610ccc565b600f54600d5410156120335760405162461bcd60e51b815260206004820152601360248201527224b739bab33334b1b4b2b73a10333ab732399760691b6044820152606401610ccc565b6000805b60798160ff1610156120c95733600090815260196020908152604080832060ff8086168552925282205416900361207157600191506120c9565b33600090815260196020908152604080832060ff80861685529252822080549091169161209d8361473a565b91906101000a81548160ff021916908360ff1602179055505080806120c190614594565b915050612037565b5080156121185760405162461bcd60e51b815260206004820152601860248201527f4d75737420636f6d706c6574652074686520616c62756d2e00000000000000006044820152606401610ccc565b6121b03360118054612129906145b3565b80601f0160208091040260200160405190810160405280929190818152602001828054612155906145b3565b80156121a25780601f10612177576101008083540402835291602001916121a2565b820191906000526020600020905b81548152906001019060200180831161218557829003601f168201915b505050505060786002612eef565b600f54600d60008282546121c49190614794565b9091555050600b54600f5460405163a9059cbb60e01b815233600482015260248101919091526001600160a01b039091169063a9059cbb906044016020604051808303816000875af115801561221e573d6000803e3d6000fd5b505050506040513d601f19601f8201168201806040525081019061224291906147a7565b5060408051338152600160208201527f6d0344e2059f835240cb954cce07d4b26f0d0844eecc234f7ee0e292ba80a1aa9101610f57565b3360009081526014602052604090205460ff166122a85760405162461bcd60e51b8152600401610ccc906145ed565b6008546040516380f2540b60e01b8152600481018490523360248201526001600160a01b03909116906380f2540b90604401600060405180830381600087803b1580156122f457600080fd5b505af1158015612308573d6000803e3d6000fd5b505050506006600c5461231b919061482e565b600c546123289190614794565b600d60008282546123399190614757565b9091555050805160005b818160ff16101561250457828160ff168151811061236357612363614568565b602002602001015160ff166078146123b15761138960176000858460ff168151811061239157612391614568565b602002602001015160ff16815260200190815260200160002054106123e2565b607860005260176020527f1e0e657bdfc7d3d523657bb82aa6f2c628a4caf6e2f7839556e82479d4362f0654610bb9115b61242e5760405162461bcd60e51b815260206004820152601e60248201527f696e76616c69642063617264496e76656e746f727920706f736974696f6e00006044820152606401610ccc565b60176000848360ff168151811061244757612447614568565b602002602001015160ff168152602001908152602001600020600081548092919061247190614842565b90915550503360009081526019602052604081208451909190859060ff851690811061249f5761249f614568565b602002602001015160ff1660ff168152602001908152602001600020600081819054906101000a900460ff16809291906124d890614594565b91906101000a81548160ff021916908360ff1602179055505080806124fc90614594565b915050612343565b50505050565b606060018054610bae906145b3565b600e8054612526906145b3565b80601f0160208091040260200160405190810160405280929190818152602001828054612552906145b3565b801561259f5780601f106125745761010080835404028352916020019161259f565b820191906000526020600020905b81548152906001019060200180831161258257829003601f168201915b505050505081565b3360009081526014602052604090205460ff166125d65760405162461bcd60e51b8152600401610ccc906145ed565b60116125e28382614965565b5060126125ef8282614965565b507fabfd337ac5625b7dc2ddd3d3bd465fb1dec15322eeeed81032268b337880bec68282604051611525929190614a24565b336001600160a01b038416036126845760405162461bcd60e51b815260206004820152602260248201527f596f752063616e6e6f742073656e6420636172647320746f20796f757273656c604482015261331760f11b6064820152608401610ccc565b6001600160a01b0383166126aa5760405162461bcd60e51b8152600401610ccc90614630565b60005b60ff81168211156125045733600090815260196020526040812081858560ff86168181106126dd576126dd614568565b90506020020160208101906126f2919061427a565b60ff908116825260208201929092526040016000205416116127265760405162461bcd60e51b8152600401610ccc9061488f565b33600090815260196020526040812090848460ff851681811061274b5761274b614568565b9050602002016020810190612760919061427a565b60ff908116825260208201929092526040016000908120805490921691906127878361473a565b91906101000a81548160ff021916908360ff1602179055505060196000856001600160a01b03166001600160a01b03168152602001908152602001600020600084848460ff168181106127dc576127dc614568565b90506020020160208101906127f1919061427a565b60ff9081168252602082019290925260400160009081208054909216919061281883614594565b91906101000a81548160ff021916908360ff16021790555050808061283c90614594565b9150506126ad565b61152e3383836131f6565b3360009081526014602052604090205460ff1661287e5760405162461bcd60e51b8152600401610ccc906145ed565b60005b60798160ff161015611b975733600090815260196020908152604080832060ff8086168552925282208054909116916128b983614594565b91906101000a81548160ff021916908360ff1602179055505080806128dd90614594565b915050612881565b6009546001600160a01b0316331461290f5760405162461bcd60e51b8152600401610ccc906146e8565b6001600160a01b0384166129355760405162461bcd60e51b8152600401610ccc90614630565b6001600160a01b03821661295b5760405162461bcd60e51b8152600401610ccc90614630565b6001600160a01b038416600090815260196020908152604080832060ff8088168552925282208054909116916129908361473a565b82546101009290920a60ff8181021990931691831602179091556001600160a01b038416600090815260196020908152604080832088851684529091528120805490921692506129df83614594565b82546101009290920a60ff8181021990931691831602179091556001600160a01b03841660009081526019602090815260408083208685168452909152812080549092169250612a2e8361473a565b82546101009290920a60ff8181021990931691831602179091556001600160a01b03861660009081526019602090815260408083208685168452909152812080549092169250612a7d83614594565b91906101000a81548160ff021916908360ff1602179055505050505050565b612aa63383612f52565b612ac25760405162461bcd60e51b8152600401610ccc906147c4565b612504848484846132c4565b33600090815260196020908152604080832060ff808616855292529091205416612b0a5760405162461bcd60e51b8152600401610ccc9061488f565b33600090815260196020908152604080832060ff808616855292528220805490911691612b368361473a565b91906101000a81548160ff021916908360ff160217905550506000600e604051806040016040528060018152602001602f60f81b815250612b798460ff166132f7565b60405180604001604052806005815260200164173539b7b760d91b815250604051602001612baa9493929190614a49565b604051602081830303815290604052905061152e33828460ff166001612eef565b60118054612526906145b3565b606061092a826133f7565b3360009081526014602052604090205460ff16612c125760405162461bcd60e51b8152600401610ccc906145ed565b6013805460ff1916911515919091179055565b60128054612526906145b3565b6008546001600160a01b03163314612c5c5760405162461bcd60e51b8152600401610ccc906148c6565b600c55565b3360009081526014602052604090205460ff16612c905760405162461bcd60e51b8152600401610ccc906145ed565b6001600160a01b038116612cb65760405162461bcd60e51b8152600401610ccc90614630565b6001600160a01b03811660009081526015602052604090205460ff1615612d1f5760405162461bcd60e51b815260206004820152601c60248201527f4164647265737320697320616c726561647920616e206f776e65722e000000006044820152606401610ccc565b6001600160a01b03166000908152601560205260409020805460ff19166001179055565b612d4b61314a565b6001600160a01b038116612db05760405162461bcd60e51b815260206004820152602660248201527f4f776e61626c653a206e6577206f776e657220697320746865207a65726f206160448201526564647265737360d01b6064820152608401610ccc565b611b97816131a4565b6000818152600260205260409020546001600160a01b0316611b975760405162461bcd60e51b8152602060048201526018602482015277115490cdcc8c4e881a5b9d985b1a59081d1bdad95b88125160421b6044820152606401610ccc565b600081815260046020526040902080546001600160a01b0319166001600160a01b0384169081179091558190612e4d82611ca1565b6001600160a01b03167f8c5be1e5ebec7d5bd14f71427d1e84f3dd0314c0f7b2291e5b200ac8c7c3b92560405160405180910390a45050565b6000806000612e9585856134ff565b91509150612ea281613544565b509392505050565b61152e8282604051602401612ec0929190614af8565b60408051601f198184030181529190526020810180516001600160e01b031663319af33360e01b17905261368e565b6000612efa600a5490565b9050612f0a600a80546001019055565b600081815260166020526040902081815560018101849055600201805461ff00191661010060ff851602179055612f418582613697565b612f4b81856136b1565b5050505050565b600080612f5e83611ca1565b9050806001600160a01b0316846001600160a01b03161480612fa557506001600160a01b0380821660009081526005602090815260408083209388168352929052205460ff165b806110685750836001600160a01b0316612fbe84610c31565b6001600160a01b031614949350505050565b826001600160a01b0316612fe382611ca1565b6001600160a01b0316146130095760405162461bcd60e51b8152600401610ccc90614b22565b6001600160a01b03821661306b5760405162461bcd60e51b8152602060048201526024808201527f4552433732313a207472616e7366657220746f20746865207a65726f206164646044820152637265737360e01b6064820152608401610ccc565b6130788383836001613744565b826001600160a01b031661308b82611ca1565b6001600160a01b0316146130b15760405162461bcd60e51b8152600401610ccc90614b22565b600081815260046020908152604080832080546001600160a01b03199081169091556001600160a01b0387811680865260038552838620805460001901905590871680865283862080546001019055868652600290945282852080549092168417909155905184937fddf252ad1be2c89b69c2b068fc378daa952ba7f163c4a11628f55a4df523b3ef91a4505050565b611b97816137cc565b6007546001600160a01b03163314611e7b5760405162461bcd60e51b815260206004820181905260248201527f4f776e61626c653a2063616c6c6572206973206e6f7420746865206f776e65726044820152606401610ccc565b600780546001600160a01b038381166001600160a01b0319831681179093556040519116919082907f8be0079c531659141344cd1fd0a4f28419497f9722a3daafe3b4186f6b6457e090600090a35050565b816001600160a01b0316836001600160a01b0316036132575760405162461bcd60e51b815260206004820152601960248201527f4552433732313a20617070726f766520746f2063616c6c6572000000000000006044820152606401610ccc565b6001600160a01b03838116600081815260056020908152604080832094871680845294825291829020805460ff191686151590811790915591519182527f17307eab39ab6107e8899845ad3d59bd9653f200f220920489ca2b5937696c31910160405180910390a3505050565b6132cf848484612fd0565b6132db8484848461380c565b6125045760405162461bcd60e51b8152600401610ccc90614b67565b60608160000361331e5750506040805180820190915260018152600360fc1b602082015290565b8160005b8115613348578061333281614842565b91506133419050600a8361482e565b9150613322565b6000816001600160401b0381111561336257613362614003565b6040519080825280601f01601f19166020018201604052801561338c576020820181803683370190505b5090505b8415611068576133a1600183614794565b91506133ae600a86614780565b6133b9906030614757565b60f81b8183815181106133ce576133ce614568565b60200101906001600160f81b031916908160001a9053506133f0600a8661482e565b9450613390565b606061340282612db9565b6000828152600660205260408120805461341b906145b3565b80601f0160208091040260200160405190810160405280929190818152602001828054613447906145b3565b80156134945780601f1061346957610100808354040283529160200191613494565b820191906000526020600020905b81548152906001019060200180831161347757829003601f168201915b5050505050905060006134b260408051602081019091526000815290565b905080516000036134c4575092915050565b8151156134f65780826040516020016134de929190614bb9565b60405160208183030381529060405292505050919050565b6110688461390a565b60008082516041036135355760208301516040840151606085015160001a6135298782858561397e565b9450945050505061353d565b506000905060025b9250929050565b600081600481111561355857613558614be8565b036135605750565b600181600481111561357457613574614be8565b036135c15760405162461bcd60e51b815260206004820152601860248201527f45434453413a20696e76616c6964207369676e617475726500000000000000006044820152606401610ccc565b60028160048111156135d5576135d5614be8565b036136225760405162461bcd60e51b815260206004820152601f60248201527f45434453413a20696e76616c6964207369676e6174757265206c656e677468006044820152606401610ccc565b600381600481111561363657613636614be8565b03611b975760405162461bcd60e51b815260206004820152602260248201527f45434453413a20696e76616c6964207369676e6174757265202773272076616c604482015261756560f01b6064820152608401610ccc565b611b9781613a42565b61152e828260405180602001604052806000815250613a63565b6000828152600260205260409020546001600160a01b031661372c5760405162461bcd60e51b815260206004820152602e60248201527f45524337323155524953746f726167653a2055524920736574206f66206e6f6e60448201526d32bc34b9ba32b73a103a37b5b2b760911b6064820152608401610ccc565b6000828152600660205260409020610d6d8282614965565b6001811115612504576001600160a01b0384161561378a576001600160a01b03841660009081526003602052604081208054839290613784908490614794565b90915550505b6001600160a01b03831615612504576001600160a01b038316600090815260036020526040812080548392906137c1908490614757565b909155505050505050565b6137d581613a96565b600081815260066020526040902080546137ee906145b3565b159050611b97576000818152600660205260408120611b9791613e3c565b60006001600160a01b0384163b1561390257604051630a85bd0160e11b81526001600160a01b0385169063150b7a0290613850903390899088908890600401614bfe565b6020604051808303816000875af192505050801561388b575060408051601f3d908101601f1916820190925261388891810190614c3b565b60015b6138e8573d8080156138b9576040519150601f19603f3d011682016040523d82523d6000602084013e6138be565b606091505b5080516000036138e05760405162461bcd60e51b8152600401610ccc90614b67565b805181602001fd5b6001600160e01b031916630a85bd0160e11b149050611068565b506001611068565b606061391582612db9565b600061392c60408051602081019091526000815290565b9050600081511161394c5760405180602001604052806000815250613977565b8061395684613b39565b604051602001613967929190614bb9565b6040516020818303038152906040525b9392505050565b6000807f7fffffffffffffffffffffffffffffff5d576e7357a4501ddfe92f46681b20a08311156139b55750600090506003613a39565b6040805160008082526020820180845289905260ff881692820192909252606081018690526080810185905260019060a0016020604051602081039080840390855afa158015613a09573d6000803e3d6000fd5b5050604051601f1901519150506001600160a01b038116613a3257600060019250925050613a39565b9150600090505b94509492505050565b60006a636f6e736f6c652e6c6f679050600080835160208501845afa505050565b613a6d8383613bcb565b613a7a600084848461380c565b610d6d5760405162461bcd60e51b8152600401610ccc90614b67565b6000613aa182611ca1565b9050613ab1816000846001613744565b613aba82611ca1565b600083815260046020908152604080832080546001600160a01b03199081169091556001600160a01b0385168085526003845282852080546000190190558785526002909352818420805490911690555192935084927fddf252ad1be2c89b69c2b068fc378daa952ba7f163c4a11628f55a4df523b3ef908390a45050565b60606000613b4683613d64565b60010190506000816001600160401b03811115613b6557613b65614003565b6040519080825280601f01601f191660200182016040528015613b8f576020820181803683370190505b5090508181016020015b600019016f181899199a1a9b1b9c1cb0b131b232b360811b600a86061a8153600a8504945084613b9957509392505050565b6001600160a01b038216613c215760405162461bcd60e51b815260206004820181905260248201527f4552433732313a206d696e7420746f20746865207a65726f20616464726573736044820152606401610ccc565b6000818152600260205260409020546001600160a01b031615613c865760405162461bcd60e51b815260206004820152601c60248201527f4552433732313a20746f6b656e20616c7265616479206d696e746564000000006044820152606401610ccc565b613c94600083836001613744565b6000818152600260205260409020546001600160a01b031615613cf95760405162461bcd60e51b815260206004820152601c60248201527f4552433732313a20746f6b656e20616c7265616479206d696e746564000000006044820152606401610ccc565b6001600160a01b038216600081815260036020908152604080832080546001019055848352600290915280822080546001600160a01b0319168417905551839291907fddf252ad1be2c89b69c2b068fc378daa952ba7f163c4a11628f55a4df523b3ef908290a45050565b60008072184f03e93ff9f4daa797ed6e38ed64bf6a1f0160401b8310613da35772184f03e93ff9f4daa797ed6e38ed64bf6a1f0160401b830492506040015b6d04ee2d6d415b85acef81000000008310613dcf576d04ee2d6d415b85acef8100000000830492506020015b662386f26fc100008310613ded57662386f26fc10000830492506010015b6305f5e1008310613e05576305f5e100830492506008015b6127108310613e1957612710830492506004015b60648310613e2b576064830492506002015b600a831061092a5760010192915050565b508054613e48906145b3565b6000825580601f10613e58575050565b601f016020900490600052602060002090810190611b9791905b80821115613e865760008155600101613e72565b5090565b6001600160e01b031981168114611b9757600080fd5b600060208284031215613eb257600080fd5b813561397781613e8a565b6001600160a01b0381168114611b9757600080fd5b600060208284031215613ee457600080fd5b813561397781613ebd565b600081518084526020808501945080840160005b83811015613f2257815160ff1687529582019590820190600101613f03565b509495945050505050565b604081526000613f406040830185613eef565b8281036020840152613f528185613eef565b95945050505050565b60005b83811015613f76578181015183820152602001613f5e565b50506000910152565b60008151808452613f97816020860160208601613f5b565b601f01601f19169290920160200192915050565b6020815260006139776020830184613f7f565b600060208284031215613fd057600080fd5b5035919050565b60008060408385031215613fea57600080fd5b8235613ff581613ebd565b946020939093013593505050565b634e487b7160e01b600052604160045260246000fd5b604051601f8201601f191681016001600160401b038111828210171561404157614041614003565b604052919050565b803560ff8116811461405a57600080fd5b919050565b600082601f83011261407057600080fd5b813560206001600160401b0382111561408b5761408b614003565b8160051b61409a828201614019565b92835284810182019282810190878511156140b457600080fd5b83870192505b848310156140da576140cb83614049565b825291830191908301906140ba565b979650505050505050565b600080600080606085870312156140fb57600080fd5b8435935060208501356001600160401b038082111561411957600080fd5b6141258883890161405f565b9450604087013591508082111561413b57600080fd5b818701915087601f83011261414f57600080fd5b81358181111561415e57600080fd5b88602082850101111561417057600080fd5b95989497505060200194505050565b6000806040838503121561419257600080fd5b823561419d81613ebd565b91506141ab60208401614049565b90509250929050565b60008083601f8401126141c657600080fd5b5081356001600160401b038111156141dd57600080fd5b6020830191508360208260051b850101111561353d57600080fd5b6000806020838503121561420b57600080fd5b82356001600160401b0381111561422157600080fd5b61422d858286016141b4565b90969095509350505050565b60008060006060848603121561424e57600080fd5b833561425981613ebd565b9250602084013561426981613ebd565b929592945050506040919091013590565b60006020828403121561428c57600080fd5b61397782614049565b600080604083850312156142a857600080fd5b8235915060208301356001600160401b038111156142c557600080fd5b6142d18582860161405f565b9150509250929050565b60006001600160401b038311156142f4576142f4614003565b614307601f8401601f1916602001614019565b905082815283838301111561431b57600080fd5b828260208301376000602084830101529392505050565b600082601f83011261434357600080fd5b613977838335602085016142db565b6000806040838503121561436557600080fd5b82356001600160401b038082111561437c57600080fd5b61438886838701614332565b9350602085013591508082111561439e57600080fd5b506142d185828601614332565b6000806000604084860312156143c057600080fd5b83356143cb81613ebd565b925060208401356001600160401b038111156143e657600080fd5b6143f2868287016141b4565b9497909650939450505050565b8015158114611b9757600080fd5b6000806040838503121561442057600080fd5b823561442b81613ebd565b9150602083013561443b816143ff565b809150509250929050565b6000806000806080858703121561445c57600080fd5b843561446781613ebd565b935061447560208601614049565b9250604085013561448581613ebd565b915061449360608601614049565b905092959194509250565b600080600080608085870312156144b457600080fd5b84356144bf81613ebd565b935060208501356144cf81613ebd565b92506040850135915060608501356001600160401b038111156144f157600080fd5b8501601f8101871361450257600080fd5b614511878235602084016142db565b91505092959194509250565b60006020828403121561452f57600080fd5b8135613977816143ff565b6000806040838503121561454d57600080fd5b823561455881613ebd565b9150602083013561443b81613ebd565b634e487b7160e01b600052603260045260246000fd5b634e487b7160e01b600052601160045260246000fd5b600060ff821660ff81036145aa576145aa61457e565b60010192915050565b600181811c908216806145c757607f821691505b6020821081036145e757634e487b7160e01b600052602260045260246000fd5b50919050565b60208082526023908201527f4f6e6c79206f776e6572732063616e2063616c6c20746869732066756e63746960408201526237b71760e91b606082015260800190565b60208082526010908201526f24b73b30b634b21030b2323932b9b99760811b604082015260600190565b6bffffffffffffffffffffffff198460601b1681528260148201526000603482018351602080860160005b838110156146a457815160ff1685529382019390820190600101614685565b50507f30786631644437313839356534396231353633363933393639646535303839388352693139376344463334383160b01b9083015250602a0195945050505050565b60208082526032908201527f4f6e6c792067616d6d61206f666665727320636f6e74726163742063616e206360408201527130b636103a3434b990333ab731ba34b7b71760711b606082015260800190565b600060ff82168061474d5761474d61457e565b6000190192915050565b8082018082111561092a5761092a61457e565b634e487b7160e01b600052601260045260246000fd5b60008261478f5761478f61476a565b500690565b8181038181111561092a5761092a61457e565b6000602082840312156147b957600080fd5b8151613977816143ff565b6020808252602d908201527f4552433732313a2063616c6c6572206973206e6f7420746f6b656e206f776e6560408201526c1c881bdc88185c1c1c9bdd9959609a1b606082015260800190565b60006020828403121561482357600080fd5b815161397781613ebd565b60008261483d5761483d61476a565b500490565b6000600182016148545761485461457e565b5060010190565b6001600160a01b038416815260606020820181905260009061487f90830185613eef565b9050826040830152949350505050565b6020808252601c908201527f596f7520646f6573206e6f742068617665207468697320636172642e00000000604082015260600190565b60208082526031908201527f4f6e6c792067616d6d61207061636b7320636f6e74726163742063616e2063616040820152703636103a3434b990333ab731ba34b7b71760791b606082015260800190565b601f821115610d6d57600081815260208120601f850160051c8101602086101561493e5750805b601f850160051c820191505b8181101561495d5782815560010161494a565b505050505050565b81516001600160401b0381111561497e5761497e614003565b6149928161498c84546145b3565b84614917565b602080601f8311600181146149c757600084156149af5750858301515b600019600386901b1c1916600185901b17855561495d565b600085815260208120601f198616915b828110156149f6578886015182559484019460019091019084016149d7565b5085821015614a145787850151600019600388901b60f8161c191681555b5050505050600190811b01905550565b604081526000614a376040830185613f7f565b8281036020840152613f528185613f7f565b6000808654614a57816145b3565b60018281168015614a6f5760018114614a8457614ab3565b60ff1984168752821515830287019450614ab3565b8a60005260208060002060005b85811015614aaa5781548a820152908401908201614a91565b50505082870194505b505050508551614ac7818360208a01613f5b565b8551910190614ada818360208901613f5b565b8451910190614aed818360208801613f5b565b019695505050505050565b604081526000614b0b6040830185613f7f565b905060018060a01b03831660208301529392505050565b60208082526025908201527f4552433732313a207472616e736665722066726f6d20696e636f72726563742060408201526437bbb732b960d91b606082015260800190565b60208082526032908201527f4552433732313a207472616e7366657220746f206e6f6e20455243373231526560408201527131b2b4bb32b91034b6b83632b6b2b73a32b960711b606082015260800190565b60008351614bcb818460208801613f5b565b835190830190614bdf818360208801613f5b565b01949350505050565b634e487b7160e01b600052602160045260246000fd5b6001600160a01b0385811682528416602082015260408101839052608060608201819052600090614c3190830184613f7f565b9695505050505050565b600060208284031215614c4d57600080fd5b815161397781613e8a56fea26469706673582212200b44e8d2eb37d16ea436d7e080a60a42fef725cf2dda300eb2ad0f83fdcd44c464736f6c63430008120033",
  "linkReferences": {},
  "deployedLinkReferences": {}
}