{
  "_format": "hh-sol-artifact-1",
  "contractName": "NofGammaCardsV3",
  "sourceName": "contracts/gamma/GammaCards.v3.sol",
  "abi": [
    {
      "inputs": [
        {
          "internalType": "address",
          "name": "_daiTokenAddress",
          "type": "address"
        },
        {
          "internalType": "address",
          "name": "_gammaPacksContract",
          "type": "address"
        },
        {
          "internalType": "string",
          "name": "_baseUri",
          "type": "string"
        },
        {
          "internalType": "address",
          "name": "_signer",
          "type": "address"
        }
      ],
      "stateMutability": "nonpayable",
      "type": "constructor"
    },
    {
      "anonymous": false,
      "inputs": [
        {
          "indexed": false,
          "internalType": "address",
          "name": "player",
          "type": "address"
        },
        {
          "indexed": false,
          "internalType": "uint8",
          "name": "albumClass",
          "type": "uint8"
        }
      ],
      "name": "AlbumCompleted",
      "type": "event"
    },
    {
      "anonymous": false,
      "inputs": [
        {
          "indexed": true,
          "internalType": "address",
          "name": "owner",
          "type": "address"
        },
        {
          "indexed": true,
          "internalType": "address",
          "name": "approved",
          "type": "address"
        },
        {
          "indexed": true,
          "internalType": "uint256",
          "name": "tokenId",
          "type": "uint256"
        }
      ],
      "name": "Approval",
      "type": "event"
    },
    {
      "anonymous": false,
      "inputs": [
        {
          "indexed": true,
          "internalType": "address",
          "name": "owner",
          "type": "address"
        },
        {
          "indexed": true,
          "internalType": "address",
          "name": "operator",
          "type": "address"
        },
        {
          "indexed": false,
          "internalType": "bool",
          "name": "approved",
          "type": "bool"
        }
      ],
      "name": "ApprovalForAll",
      "type": "event"
    },
    {
      "anonymous": false,
      "inputs": [
        {
          "indexed": false,
          "internalType": "address",
          "name": "player",
          "type": "address"
        },
        {
          "indexed": false,
          "internalType": "uint256",
          "name": "cardTokenId",
          "type": "uint256"
        },
        {
          "indexed": false,
          "internalType": "uint256",
          "name": "albumTokenId",
          "type": "uint256"
        }
      ],
      "name": "CardPasted",
      "type": "event"
    },
    {
      "anonymous": false,
      "inputs": [
        {
          "indexed": false,
          "internalType": "address",
          "name": "receiver",
          "type": "address"
        },
        {
          "indexed": false,
          "internalType": "uint256",
          "name": "amount",
          "type": "uint256"
        }
      ],
      "name": "EmergencyWithdrawal",
      "type": "event"
    },
    {
      "anonymous": false,
      "inputs": [
        {
          "indexed": false,
          "internalType": "address",
          "name": "newGammaOffersContract",
          "type": "address"
        }
      ],
      "name": "NewGammaOffersContract",
      "type": "event"
    },
    {
      "anonymous": false,
      "inputs": [
        {
          "indexed": false,
          "internalType": "address",
          "name": "newSigner",
          "type": "address"
        }
      ],
      "name": "NewSigner",
      "type": "event"
    },
    {
      "anonymous": false,
      "inputs": [
        {
          "indexed": false,
          "internalType": "string",
          "name": "newMainUri",
          "type": "string"
        },
        {
          "indexed": false,
          "internalType": "string",
          "name": "newSecondaryUri",
          "type": "string"
        }
      ],
      "name": "NewUris",
      "type": "event"
    },
    {
      "anonymous": false,
      "inputs": [
        {
          "indexed": true,
          "internalType": "address",
          "name": "previousOwner",
          "type": "address"
        },
        {
          "indexed": true,
          "internalType": "address",
          "name": "newOwner",
          "type": "address"
        }
      ],
      "name": "OwnershipTransferred",
      "type": "event"
    },
    {
      "anonymous": false,
      "inputs": [
        {
          "indexed": false,
          "internalType": "address",
          "name": "player",
          "type": "address"
        },
        {
          "indexed": false,
          "internalType": "uint8[]",
          "name": "packData",
          "type": "uint8[]"
        },
        {
          "indexed": false,
          "internalType": "uint256",
          "name": "packNumber",
          "type": "uint256"
        }
      ],
      "name": "PackOpened",
      "type": "event"
    },
    {
      "anonymous": false,
      "inputs": [
        {
          "indexed": true,
          "internalType": "address",
          "name": "from",
          "type": "address"
        },
        {
          "indexed": true,
          "internalType": "address",
          "name": "to",
          "type": "address"
        },
        {
          "indexed": true,
          "internalType": "uint256",
          "name": "tokenId",
          "type": "uint256"
        }
      ],
      "name": "Transfer",
      "type": "event"
    },
    {
      "inputs": [],
      "name": "DAI_TOKEN",
      "outputs": [
        {
          "internalType": "address",
          "name": "",
          "type": "address"
        }
      ],
      "stateMutability": "view",
      "type": "function"
    },
    {
      "inputs": [
        {
          "internalType": "address",
          "name": "_newOwner",
          "type": "address"
        }
      ],
      "name": "addOwner",
      "outputs": [],
      "stateMutability": "nonpayable",
      "type": "function"
    },
    {
      "inputs": [
        {
          "internalType": "address",
          "name": "_newSigner",
          "type": "address"
        }
      ],
      "name": "addSigner",
      "outputs": [],
      "stateMutability": "nonpayable",
      "type": "function"
    },
    {
      "inputs": [
        {
          "internalType": "address",
          "name": "to",
          "type": "address"
        },
        {
          "internalType": "uint256",
          "name": "tokenId",
          "type": "uint256"
        }
      ],
      "name": "approve",
      "outputs": [],
      "stateMutability": "nonpayable",
      "type": "function"
    },
    {
      "inputs": [
        {
          "internalType": "address",
          "name": "owner",
          "type": "address"
        }
      ],
      "name": "balanceOf",
      "outputs": [
        {
          "internalType": "uint256",
          "name": "",
          "type": "uint256"
        }
      ],
      "stateMutability": "view",
      "type": "function"
    },
    {
      "inputs": [],
      "name": "baseUri",
      "outputs": [
        {
          "internalType": "string",
          "name": "",
          "type": "string"
        }
      ],
      "stateMutability": "view",
      "type": "function"
    },
    {
      "inputs": [
        {
          "internalType": "uint256",
          "name": "tokenId",
          "type": "uint256"
        }
      ],
      "name": "burn",
      "outputs": [],
      "stateMutability": "nonpayable",
      "type": "function"
    },
    {
      "inputs": [
        {
          "internalType": "uint8[]",
          "name": "cardNumbers",
          "type": "uint8[]"
        }
      ],
      "name": "burnCards",
      "outputs": [],
      "stateMutability": "nonpayable",
      "type": "function"
    },
    {
      "inputs": [
        {
          "internalType": "address",
          "name": "user",
          "type": "address"
        }
      ],
      "name": "burnedCards",
      "outputs": [
        {
          "internalType": "uint256",
          "name": "amount",
          "type": "uint256"
        }
      ],
      "stateMutability": "view",
      "type": "function"
    },
    {
      "inputs": [
        {
          "internalType": "uint256",
          "name": "tokenId",
          "type": "uint256"
        }
      ],
      "name": "cards",
      "outputs": [
        {
          "internalType": "uint256",
          "name": "tokenId",
          "type": "uint256"
        },
        {
          "internalType": "uint256",
          "name": "number",
          "type": "uint256"
        },
        {
          "internalType": "bool",
          "name": "pasted",
          "type": "bool"
        },
        {
          "internalType": "uint8",
          "name": "class",
          "type": "uint8"
        },
        {
          "internalType": "uint256",
          "name": "completion",
          "type": "uint256"
        }
      ],
      "stateMutability": "view",
      "type": "function"
    },
    {
      "inputs": [
        {
          "internalType": "address",
          "name": "user",
          "type": "address"
        },
        {
          "internalType": "uint8",
          "name": "cardNumber",
          "type": "uint8"
        }
      ],
      "name": "cardsByUser",
      "outputs": [
        {
          "internalType": "uint8",
          "name": "amount",
          "type": "uint8"
        }
      ],
      "stateMutability": "view",
      "type": "function"
    },
    {
      "inputs": [
        {
          "internalType": "uint256",
          "name": "cardNumber",
          "type": "uint256"
        }
      ],
      "name": "cardsInventory",
      "outputs": [
        {
          "internalType": "uint256",
          "name": "amount",
          "type": "uint256"
        }
      ],
      "stateMutability": "view",
      "type": "function"
    },
    {
      "inputs": [
        {
          "internalType": "uint256",
          "name": "newPackPrice",
          "type": "uint256"
        }
      ],
      "name": "changePackPrice",
      "outputs": [],
      "stateMutability": "nonpayable",
      "type": "function"
    },
    {
      "inputs": [
        {
          "internalType": "bool",
          "name": "required",
          "type": "bool"
        }
      ],
      "name": "changeRequireOfferValidationInMint",
      "outputs": [],
      "stateMutability": "nonpayable",
      "type": "function"
    },
    {
      "inputs": [
        {
          "internalType": "bool",
          "name": "required",
          "type": "bool"
        }
      ],
      "name": "changeRequireOfferValidationInTransfer",
      "outputs": [],
      "stateMutability": "nonpayable",
      "type": "function"
    },
    {
      "inputs": [
        {
          "internalType": "bool",
          "name": "required",
          "type": "bool"
        }
      ],
      "name": "changeRequireOpenPackSignerValidation",
      "outputs": [],
      "stateMutability": "nonpayable",
      "type": "function"
    },
    {
      "inputs": [
        {
          "internalType": "uint256",
          "name": "amount",
          "type": "uint256"
        }
      ],
      "name": "emergencyWithdraw",
      "outputs": [],
      "stateMutability": "nonpayable",
      "type": "function"
    },
    {
      "inputs": [
        {
          "internalType": "address",
          "name": "from",
          "type": "address"
        },
        {
          "internalType": "uint8",
          "name": "cardNumberFrom",
          "type": "uint8"
        },
        {
          "internalType": "address",
          "name": "to",
          "type": "address"
        },
        {
          "internalType": "uint8",
          "name": "cardNumberTo",
          "type": "uint8"
        }
      ],
      "name": "exchangeCardsOffer",
      "outputs": [],
      "stateMutability": "nonpayable",
      "type": "function"
    },
    {
      "inputs": [],
      "name": "finishAlbum",
      "outputs": [],
      "stateMutability": "nonpayable",
      "type": "function"
    },
    {
      "inputs": [],
      "name": "gammaOffersContract",
      "outputs": [
        {
          "internalType": "contract IgammaOffersContract",
          "name": "",
          "type": "address"
        }
      ],
      "stateMutability": "view",
      "type": "function"
    },
    {
      "inputs": [],
      "name": "gammaPacksContract",
      "outputs": [
        {
          "internalType": "contract IgammaPacksContract",
          "name": "",
          "type": "address"
        }
      ],
      "stateMutability": "view",
      "type": "function"
    },
    {
      "inputs": [
        {
          "internalType": "uint256",
          "name": "tokenId",
          "type": "uint256"
        }
      ],
      "name": "getApproved",
      "outputs": [
        {
          "internalType": "address",
          "name": "",
          "type": "address"
        }
      ],
      "stateMutability": "view",
      "type": "function"
    },
    {
      "inputs": [
        {
          "internalType": "address",
          "name": "user",
          "type": "address"
        },
        {
          "internalType": "uint8",
          "name": "cardNum",
          "type": "uint8"
        }
      ],
      "name": "getCardQuantityByUser",
      "outputs": [
        {
          "internalType": "uint8",
          "name": "",
          "type": "uint8"
        }
      ],
      "stateMutability": "view",
      "type": "function"
    },
    {
      "inputs": [
        {
          "internalType": "address",
          "name": "user",
          "type": "address"
        }
      ],
      "name": "getCardsByUser",
      "outputs": [
        {
          "internalType": "uint8[]",
          "name": "",
          "type": "uint8[]"
        },
        {
          "internalType": "uint8[]",
          "name": "",
          "type": "uint8[]"
        },
        {
          "internalType": "bool[]",
          "name": "",
          "type": "bool[]"
        }
      ],
      "stateMutability": "view",
      "type": "function"
    },
    {
      "inputs": [
        {
          "internalType": "uint8",
          "name": "cardNum",
          "type": "uint8"
        }
      ],
      "name": "hasCard",
      "outputs": [
        {
          "internalType": "bool",
          "name": "has",
          "type": "bool"
        }
      ],
      "stateMutability": "view",
      "type": "function"
    },
    {
      "inputs": [
        {
          "internalType": "address",
          "name": "user",
          "type": "address"
        },
        {
          "internalType": "uint8",
          "name": "cardNumber",
          "type": "uint8"
        }
      ],
      "name": "hasCardByOffer",
      "outputs": [
        {
          "internalType": "bool",
          "name": "has",
          "type": "bool"
        }
      ],
      "stateMutability": "view",
      "type": "function"
    },
    {
      "inputs": [
        {
          "internalType": "address",
          "name": "owner",
          "type": "address"
        },
        {
          "internalType": "address",
          "name": "operator",
          "type": "address"
        }
      ],
      "name": "isApprovedForAll",
      "outputs": [
        {
          "internalType": "bool",
          "name": "",
          "type": "bool"
        }
      ],
      "stateMutability": "view",
      "type": "function"
    },
    {
      "inputs": [],
      "name": "mainAlbumPrize",
      "outputs": [
        {
          "internalType": "uint256",
          "name": "",
          "type": "uint256"
        }
      ],
      "stateMutability": "view",
      "type": "function"
    },
    {
      "inputs": [],
      "name": "mainUri",
      "outputs": [
        {
          "internalType": "string",
          "name": "",
          "type": "string"
        }
      ],
      "stateMutability": "view",
      "type": "function"
    },
    {
      "inputs": [
        {
          "internalType": "uint8",
          "name": "cardNum",
          "type": "uint8"
        }
      ],
      "name": "mintCard",
      "outputs": [],
      "stateMutability": "nonpayable",
      "type": "function"
    },
    {
      "inputs": [],
      "name": "name",
      "outputs": [
        {
          "internalType": "string",
          "name": "",
          "type": "string"
        }
      ],
      "stateMutability": "view",
      "type": "function"
    },
    {
      "inputs": [
        {
          "internalType": "uint256",
          "name": "packNumber",
          "type": "uint256"
        },
        {
          "internalType": "uint8[]",
          "name": "packData",
          "type": "uint8[]"
        },
        {
          "internalType": "bytes",
          "name": "signature",
          "type": "bytes"
        }
      ],
      "name": "openPack",
      "outputs": [],
      "stateMutability": "nonpayable",
      "type": "function"
    },
    {
      "inputs": [
        {
          "internalType": "address",
          "name": "user",
          "type": "address"
        },
        {
          "internalType": "uint256",
          "name": "packNumber",
          "type": "uint256"
        },
        {
          "internalType": "uint8[]",
          "name": "packData",
          "type": "uint8[]"
        },
        {
          "internalType": "bytes",
          "name": "signature",
          "type": "bytes"
        }
      ],
      "name": "openPackByUser",
      "outputs": [],
      "stateMutability": "nonpayable",
      "type": "function"
    },
    {
      "inputs": [],
      "name": "owner",
      "outputs": [
        {
          "internalType": "address",
          "name": "",
          "type": "address"
        }
      ],
      "stateMutability": "view",
      "type": "function"
    },
    {
      "inputs": [
        {
          "internalType": "uint256",
          "name": "tokenId",
          "type": "uint256"
        }
      ],
      "name": "ownerOf",
      "outputs": [
        {
          "internalType": "address",
          "name": "",
          "type": "address"
        }
      ],
      "stateMutability": "view",
      "type": "function"
    },
    {
      "inputs": [
        {
          "internalType": "address",
          "name": "",
          "type": "address"
        }
      ],
      "name": "owners",
      "outputs": [
        {
          "internalType": "bool",
          "name": "",
          "type": "bool"
        }
      ],
      "stateMutability": "view",
      "type": "function"
    },
    {
      "inputs": [],
      "name": "packPrice",
      "outputs": [
        {
          "internalType": "uint256",
          "name": "",
          "type": "uint256"
        }
      ],
      "stateMutability": "view",
      "type": "function"
    },
    {
      "inputs": [],
      "name": "prizesBalance",
      "outputs": [
        {
          "internalType": "uint256",
          "name": "",
          "type": "uint256"
        }
      ],
      "stateMutability": "view",
      "type": "function"
    },
    {
      "inputs": [
        {
          "internalType": "uint256",
          "name": "amount",
          "type": "uint256"
        }
      ],
      "name": "receivePrizesBalance",
      "outputs": [],
      "stateMutability": "nonpayable",
      "type": "function"
    },
    {
      "inputs": [
        {
          "internalType": "address",
          "name": "user",
          "type": "address"
        },
        {
          "internalType": "uint8",
          "name": "cardNumber",
          "type": "uint8"
        }
      ],
      "name": "removeCardByOffer",
      "outputs": [],
      "stateMutability": "nonpayable",
      "type": "function"
    },
    {
      "inputs": [
        {
          "internalType": "address",
          "name": "_ownerToRemove",
          "type": "address"
        }
      ],
      "name": "removeOwner",
      "outputs": [],
      "stateMutability": "nonpayable",
      "type": "function"
    },
    {
      "inputs": [
        {
          "internalType": "address",
          "name": "_signerToRemove",
          "type": "address"
        }
      ],
      "name": "removeSigner",
      "outputs": [],
      "stateMutability": "nonpayable",
      "type": "function"
    },
    {
      "inputs": [],
      "name": "renounceOwnership",
      "outputs": [],
      "stateMutability": "nonpayable",
      "type": "function"
    },
    {
      "inputs": [],
      "name": "requireOfferValidationInMint",
      "outputs": [
        {
          "internalType": "bool",
          "name": "",
          "type": "bool"
        }
      ],
      "stateMutability": "view",
      "type": "function"
    },
    {
      "inputs": [],
      "name": "requireOfferValidationInTransfer",
      "outputs": [
        {
          "internalType": "bool",
          "name": "",
          "type": "bool"
        }
      ],
      "stateMutability": "view",
      "type": "function"
    },
    {
      "inputs": [],
      "name": "requireOpenPackSignerValidation",
      "outputs": [
        {
          "internalType": "bool",
          "name": "",
          "type": "bool"
        }
      ],
      "stateMutability": "view",
      "type": "function"
    },
    {
      "inputs": [
        {
          "internalType": "address",
          "name": "user",
          "type": "address"
        },
        {
          "internalType": "uint8",
          "name": "cardNumber",
          "type": "uint8"
        }
      ],
      "name": "restoreCardByOffer",
      "outputs": [],
      "stateMutability": "nonpayable",
      "type": "function"
    },
    {
      "inputs": [
        {
          "internalType": "address",
          "name": "from",
          "type": "address"
        },
        {
          "internalType": "address",
          "name": "to",
          "type": "address"
        },
        {
          "internalType": "uint256",
          "name": "tokenId",
          "type": "uint256"
        }
      ],
      "name": "safeTransferFrom",
      "outputs": [],
      "stateMutability": "nonpayable",
      "type": "function"
    },
    {
      "inputs": [
        {
          "internalType": "address",
          "name": "from",
          "type": "address"
        },
        {
          "internalType": "address",
          "name": "to",
          "type": "address"
        },
        {
          "internalType": "uint256",
          "name": "tokenId",
          "type": "uint256"
        },
        {
          "internalType": "bytes",
          "name": "data",
          "type": "bytes"
        }
      ],
      "name": "safeTransferFrom",
      "outputs": [],
      "stateMutability": "nonpayable",
      "type": "function"
    },
    {
      "inputs": [],
      "name": "secondaryAlbumPrize",
      "outputs": [
        {
          "internalType": "uint256",
          "name": "",
          "type": "uint256"
        }
      ],
      "stateMutability": "view",
      "type": "function"
    },
    {
      "inputs": [],
      "name": "secondaryUri",
      "outputs": [
        {
          "internalType": "string",
          "name": "",
          "type": "string"
        }
      ],
      "stateMutability": "view",
      "type": "function"
    },
    {
      "inputs": [
        {
          "internalType": "address",
          "name": "operator",
          "type": "address"
        },
        {
          "internalType": "bool",
          "name": "approved",
          "type": "bool"
        }
      ],
      "name": "setApprovalForAll",
      "outputs": [],
      "stateMutability": "nonpayable",
      "type": "function"
    },
    {
      "inputs": [
        {
          "internalType": "address",
          "name": "_gammaOffersContract",
          "type": "address"
        }
      ],
      "name": "setGammaOffersContract",
      "outputs": [],
      "stateMutability": "nonpayable",
      "type": "function"
    },
    {
      "inputs": [
        {
          "internalType": "string",
          "name": "newMainUri",
          "type": "string"
        },
        {
          "internalType": "string",
          "name": "newSecondaryUri",
          "type": "string"
        }
      ],
      "name": "setUris",
      "outputs": [],
      "stateMutability": "nonpayable",
      "type": "function"
    },
    {
      "inputs": [
        {
          "internalType": "address",
          "name": "",
          "type": "address"
        }
      ],
      "name": "signers",
      "outputs": [
        {
          "internalType": "bool",
          "name": "",
          "type": "bool"
        }
      ],
      "stateMutability": "view",
      "type": "function"
    },
    {
      "inputs": [
        {
          "internalType": "bytes4",
          "name": "interfaceId",
          "type": "bytes4"
        }
      ],
      "name": "supportsInterface",
      "outputs": [
        {
          "internalType": "bool",
          "name": "",
          "type": "bool"
        }
      ],
      "stateMutability": "view",
      "type": "function"
    },
    {
      "inputs": [],
      "name": "symbol",
      "outputs": [
        {
          "internalType": "string",
          "name": "",
          "type": "string"
        }
      ],
      "stateMutability": "view",
      "type": "function"
    },
    {
      "inputs": [
        {
          "internalType": "address",
          "name": "user",
          "type": "address"
        }
      ],
      "name": "testAddCards",
      "outputs": [],
      "stateMutability": "nonpayable",
      "type": "function"
    },
    {
      "inputs": [
        {
          "internalType": "address",
          "name": "user",
          "type": "address"
        },
        {
          "internalType": "uint256",
          "name": "packNumber",
          "type": "uint256"
        },
        {
          "internalType": "uint8[]",
          "name": "packData",
          "type": "uint8[]"
        }
      ],
      "name": "testOpenPack",
      "outputs": [],
      "stateMutability": "nonpayable",
      "type": "function"
    },
    {
      "inputs": [
        {
          "internalType": "uint256",
          "name": "tokenId",
          "type": "uint256"
        }
      ],
      "name": "tokenURI",
      "outputs": [
        {
          "internalType": "string",
          "name": "",
          "type": "string"
        }
      ],
      "stateMutability": "view",
      "type": "function"
    },
    {
      "inputs": [
        {
          "internalType": "address",
          "name": "to",
          "type": "address"
        },
        {
          "internalType": "uint8",
          "name": "cardNumber",
          "type": "uint8"
        }
      ],
      "name": "transferCard",
      "outputs": [],
      "stateMutability": "nonpayable",
      "type": "function"
    },
    {
      "inputs": [
        {
          "internalType": "address",
          "name": "to",
          "type": "address"
        },
        {
          "internalType": "uint8[]",
          "name": "cardNumbers",
          "type": "uint8[]"
        }
      ],
      "name": "transferCards",
      "outputs": [],
      "stateMutability": "nonpayable",
      "type": "function"
    },
    {
      "inputs": [
        {
          "internalType": "address",
          "name": "from",
          "type": "address"
        },
        {
          "internalType": "address",
          "name": "to",
          "type": "address"
        },
        {
          "internalType": "uint256",
          "name": "tokenId",
          "type": "uint256"
        }
      ],
      "name": "transferFrom",
      "outputs": [],
      "stateMutability": "nonpayable",
      "type": "function"
    },
    {
      "inputs": [
        {
          "internalType": "address",
          "name": "newOwner",
          "type": "address"
        }
      ],
      "name": "transferOwnership",
      "outputs": [],
      "stateMutability": "nonpayable",
      "type": "function"
    },
    {
      "inputs": [
        {
          "internalType": "uint256",
          "name": "packNumber",
          "type": "uint256"
        },
        {
          "internalType": "uint8[]",
          "name": "packData",
          "type": "uint8[]"
        },
        {
          "internalType": "bytes",
          "name": "signature",
          "type": "bytes"
        }
      ],
      "name": "verifyPackSigner",
      "outputs": [
        {
          "internalType": "address",
          "name": "signer",
          "type": "address"
        }
      ],
      "stateMutability": "view",
      "type": "function"
    }
  ],
  "bytecode": "0x60806040526710a741a462780000600c5567d02ab486cedc0000600f55670de0b6b3a76400006010553480156200003557600080fd5b5060405162005bb338038062005bb383398101604081905262000058916200034f565b6040518060400160405280600a81526020016947616d6d61436172647360b01b815250604051806040016040528060068152602001654e4f465f474360d01b8152508160009081620000ab9190620004d1565b506001620000ba8282620004d1565b505050620000d7620000d1620002a060201b60201c565b620002a4565b600880546001600160a01b038086166001600160a01b031992831617909255600b805492871692909116919091179055600e620001158382620004d1565b5060408051808201825260018152602f60f81b60208083019190915282518084018452600381526203132360ec1b8183015283518085018552600681526523173539b7b760d11b8184015293516200017494600e94939091016200059d565b60405160208183030381529060405260119081620001939190620004d1565b5060408051808201825260018152602f60f81b60208083019190915282518084018452600381526231323160e81b8183015283518085018552600681526523173539b7b760d11b818401529351620001f294600e94939091016200059d565b60405160208183030381529060405260129081620002119190620004d1565b506001600160a01b0381166000908152601560205260408120805460ff19166001179055601380546201010062ffffff199091161790555b607a8110156200027a576000818152601760205260409020600190558062000271816200065a565b91505062000249565b5050336000908152601460205260409020805460ff191660011790555062000682915050565b3390565b600780546001600160a01b038381166001600160a01b0319831681179093556040519116919082907f8be0079c531659141344cd1fd0a4f28419497f9722a3daafe3b4186f6b6457e090600090a35050565b80516001600160a01b03811681146200030e57600080fd5b919050565b634e487b7160e01b600052604160045260246000fd5b60005b83811015620003465781810151838201526020016200032c565b50506000910152565b600080600080608085870312156200036657600080fd5b6200037185620002f6565b93506200038160208601620002f6565b60408601519093506001600160401b03808211156200039f57600080fd5b818701915087601f830112620003b457600080fd5b815181811115620003c957620003c962000313565b604051601f8201601f19908116603f01168101908382118183101715620003f457620003f462000313565b816040528281528a60208487010111156200040e57600080fd5b6200042183602083016020880162000329565b80965050505050506200043760608601620002f6565b905092959194509250565b600181811c908216806200045757607f821691505b6020821081036200047857634e487b7160e01b600052602260045260246000fd5b50919050565b601f821115620004cc57600081815260208120601f850160051c81016020861015620004a75750805b601f850160051c820191505b81811015620004c857828155600101620004b3565b5050505b505050565b81516001600160401b03811115620004ed57620004ed62000313565b6200050581620004fe845462000442565b846200047e565b602080601f8311600181146200053d5760008415620005245750858301515b600019600386901b1c1916600185901b178555620004c8565b600085815260208120601f198616915b828110156200056e578886015182559484019460019091019084016200054d565b50858210156200058d5787850151600019600388901b60f8161c191681555b5050505050600190811b01905550565b6000808654620005ad8162000442565b60018281168015620005c85760018114620005de576200060f565b60ff19841687528215158302870194506200060f565b8a60005260208060002060005b85811015620006065781548a820152908401908201620005eb565b50505082870194505b50505050855162000625818360208a0162000329565b85519101906200063a81836020890162000329565b84519101906200064f81836020880162000329565b019695505050505050565b6000600182016200067b57634e487b7160e01b600052601160045260246000fd5b5060010190565b61552180620006926000396000f3fe608060405234801561001057600080fd5b50600436106103db5760003560e01c8063736c0d5b1161020a578063a419811d11610125578063dec3f6d9116100b8578063e606df8711610087578063e606df871461093e578063e985e9c514610951578063eb12d61e1461098d578063f2fde38b146109a0578063f98fd283146109b357600080fd5b8063dec3f6d914610907578063e1883c6e1461090f578063e51aebb314610922578063e5db587a1461093557600080fd5b8063c3461c07116100f4578063c3461c07146108c6578063c87b56dd146108ce578063d322b563146108e1578063dbfc05cf146108f457600080fd5b8063a419811d1461087a578063ad1684fa1461088d578063b88d4fde146108a0578063bf400a6a146108b357600080fd5b8063915656641161019d5780639c7f707f1161016c5780639c7f707f146108385780639f4415d81461084b578063a1af8ad414610854578063a22cb4651461086757600080fd5b8063915656641461080957806395d89b411461081b57806396884135146108235780639abc83201461083057600080fd5b80638bf670c8116101d95780638bf670c81461076b5780638da5cb5b1461077e5780638dc107681461078f5780639038f4141461080157600080fd5b8063736c0d5b146106e75780637e50fa8f1461070a578063809eb3551461072a5780638ba526fc1461075857600080fd5b80632f9e026a116102fa5780635312ea8e1161028d5780637065cb481161025c5780637065cb48146106a657806370a08231146106b9578063715018a6146106cc5780637155a3ac146106d457600080fd5b80635312ea8e1461064d5780635dde20d8146106605780636352211e1461068057806368cc5bc11461069357600080fd5b806342966c68116102c957806342966c68146105eb578063483823e8146105fe5780634e5ad31814610607578063511b93071461063a57600080fd5b80632f9e026a1461059b57806330f5cc58146105ae578063335c8b63146105c157806342842e0e146105d857600080fd5b80631306952c1161037257806320965a5f1161034157806320965a5f1461054f57806323b872dd14610562578063267b841d146105755780632ca699e71461058857600080fd5b80631306952c146104c8578063155e2f92146104db5780631585cc4e146104ee578063173825d91461053c57600080fd5b8063081812fc116103ae578063081812fc14610462578063095ea7b31461048d5780630e316ab7146104a2578063128916dc146104b557600080fd5b806301ffc9a7146103e0578063022914a7146104085780630435dcaf1461042b57806306fdde031461044d575b600080fd5b6103f36103ee3660046145c9565b6109c6565b60405190151581526020015b60405180910390f35b6103f36104163660046145fb565b60146020526000908152604090205460ff1681565b61043e6104393660046145fb565b610a18565b6040516103ff93929190614656565b610455610dd5565b6040516103ff9190614711565b610475610470366004614724565b610e67565b6040516001600160a01b0390911681526020016103ff565b6104a061049b36600461473d565b610e8e565b005b6104a06104b03660046145fb565b610fa8565b6104a06104c33660046145fb565b6110ee565b6104756104d636600461488c565b611198565b6104a06104e93660046148fb565b6112a6565b61052a6104fc3660046148fb565b6001600160a01b0391909116600090815260196020908152604080832060ff94851684529091529020541690565b60405160ff90911681526020016103ff565b6104a061054a3660046145fb565b611322565b6104a061055d366004614974565b611468565b6104a06105703660046149b5565b611768565b6104a061058336600461488c565b61179a565b6104a06105963660046148fb565b6117ad565b600854610475906001600160a01b031681565b6104a06105bc3660046149f6565b6119b7565b6105ca600c5481565b6040519081526020016103ff565b6104a06105e63660046149b5565b611c54565b6104a06105f9366004614724565b611c6f565b6105ca60105481565b6103f3610615366004614a4e565b33600090815260196020908152604080832060ff948516845290915290205416151590565b6013546103f39062010000900460ff1681565b6104a061065b366004614724565b611ca0565b6105ca61066e366004614724565b60176020526000908152604090205481565b61047561068e366004614724565b611da7565b6104a06106a1366004614a77565b611e07565b6104a06106b43660046145fb565b611e52565b6105ca6106c73660046145fb565b611f34565b6104a0611fba565b6104a06106e23660046148fb565b611fce565b6103f36106f53660046145fb565b60156020526000908152604090205460ff1681565b6105ca6107183660046145fb565b60186020526000908152604090205481565b61052a6107383660046148fb565b601960209081526000928352604080842090915290825290205460ff1681565b6104a0610766366004614724565b61202d565b6103f36107793660046148fb565b612071565b6007546001600160a01b0316610475565b6107d161079d366004614724565b60166020526000908152604090208054600182015460028301546003909301549192909160ff808316926101009004169085565b6040805195865260208601949094529115159284019290925260ff9091166060830152608082015260a0016103ff565b6104a06120cf565b6013546103f390610100900460ff1681565b6104556123c6565b6013546103f39060ff1681565b6104556123d5565b6104a0610846366004614b0b565b612463565b6105ca600f5481565b6104a0610862366004614b6e565b6124dd565b6104a0610875366004614bc2565b612835565b6104a06108883660046145fb565b612840565b6104a061089b366004614bfb565b6128df565b6104a06108ae366004614c53565b612b9a565b6104a06108c1366004614a4e565b612bcc565b610455612de2565b6104556108dc366004614724565b612def565b600954610475906001600160a01b031681565b6104a0610902366004614a77565b612dfa565b610455612e3c565b6104a061091d366004614724565b612e49565b6104a0610930366004614cd2565b612e78565b6105ca600d5481565b600b54610475906001600160a01b031681565b6103f361095f366004614d58565b6001600160a01b03918216600090815260056020908152604080832093909416825291909152205460ff1690565b6104a061099b3660046145fb565b612e85565b6104a06109ae3660046145fb565b612f67565b6104a06109c1366004614a77565b612fdd565b60006001600160e01b031982166380ac58cd60e01b14806109f757506001600160e01b03198216635b5e139f60e01b145b80610a1257506301ffc9a760e01b6001600160e01b03198316145b92915050565b604080516079808252610f408201909252606091829182916000919060208201610f20803683375050604080516079808252610f408201909252929350600092915060208201610f20803683375050604080516079808252610f408201909252929350600092915060208201610f20803683370190505090506000805b60778160ff1611610bfe576001600160a01b038916600090815260196020908152604080832060ff80861685529252909120541615610bec5780858360ff1681518110610ae457610ae4614d86565b60ff9283166020918202929092018101919091526001600160a01b038b166000908152601982526040808220858516835290925220548551908216918691908516908110610b3457610b34614d86565b60ff90921660209283029190910190910152600954604051632edb5fcf60e01b81526001600160a01b0390911690632edb5fcf90610b78908c908590600401614d9c565b602060405180830381865afa158015610b95573d6000803e3d6000fd5b505050506040513d601f19601f82011682018060405250810190610bb99190614db8565b838360ff1681518110610bce57610bce614d86565b9115156020928302919091019091015281610be881614deb565b9250505b80610bf681614deb565b915050610a95565b5060008160ff166001600160401b03811115610c1c57610c1c614769565b604051908082528060200260200182016040528015610c45578160200160208202803683370190505b50905060008260ff166001600160401b03811115610c6557610c65614769565b604051908082528060200260200182016040528015610c8e578160200160208202803683370190505b50905060008360ff166001600160401b03811115610cae57610cae614769565b604051908082528060200260200182016040528015610cd7578160200160208202803683370190505b50905060005b8460ff168160ff161015610dc357878160ff1681518110610d0057610d00614d86565b6020026020010151848260ff1681518110610d1d57610d1d614d86565b60ff9283166020918202929092010152875188918316908110610d4257610d42614d86565b6020026020010151838260ff1681518110610d5f57610d5f614d86565b60ff9283166020918202929092010152865187918316908110610d8457610d84614d86565b6020026020010151828260ff1681518110610da157610da1614d86565b9115156020928302919091019091015280610dbb81614deb565b915050610cdd565b50919a90995090975095505050505050565b606060008054610de490614e0a565b80601f0160208091040260200160405190810160405280929190818152602001828054610e1090614e0a565b8015610e5d5780601f10610e3257610100808354040283529160200191610e5d565b820191906000526020600020905b815481529060010190602001808311610e4057829003601f168201915b5050505050905090565b6000610e7282613026565b506000908152600460205260409020546001600160a01b031690565b6000610e9982611da7565b9050806001600160a01b0316836001600160a01b031603610f0b5760405162461bcd60e51b815260206004820152602160248201527f4552433732313a20617070726f76616c20746f2063757272656e74206f776e656044820152603960f91b60648201526084015b60405180910390fd5b336001600160a01b0382161480610f275750610f27813361095f565b610f995760405162461bcd60e51b815260206004820152603d60248201527f4552433732313a20617070726f76652063616c6c6572206973206e6f7420746f60448201527f6b656e206f776e6572206f7220617070726f76656420666f7220616c6c0000006064820152608401610f02565b610fa38383613085565b505050565b3360009081526014602052604090205460ff16610fd75760405162461bcd60e51b8152600401610f0290614e44565b6001600160a01b038116610ffd5760405162461bcd60e51b8152600401610f0290614e87565b336001600160a01b038216036110655760405162461bcd60e51b815260206004820152602760248201527f596f752063616e6e6f742072656d6f766520796f757273656c6620617320612060448201526639b4b3b732b91760c91b6064820152608401610f02565b6001600160a01b03811660009081526015602052604090205460ff166110cd5760405162461bcd60e51b815260206004820152601960248201527f41646472657373206973206e6f7420616e207369676e65722e000000000000006044820152606401610f02565b6001600160a01b03166000908152601560205260409020805460ff19169055565b3360009081526014602052604090205460ff1661111d5760405162461bcd60e51b8152600401610f0290614e44565b6001600160a01b0381166111435760405162461bcd60e51b8152600401610f0290614e87565b600980546001600160a01b0319166001600160a01b0383169081179091556040519081527f538b3425a321783393ad250db10356b8b3523ef29a40de015c5218213de0ead0906020015b60405180910390a150565b6000806112133387876040516020016111b393929190614eb1565b60408051601f1981840301815282825280516020918201207f19457468657265756d205369676e6564204d6573736167653a0a33320000000084830152603c8085019190915282518085039091018152605c909301909152815191012090565b9050600061125985858080601f01602080910402602001604051908101604052809392919081815260200183838082843760009201919091525086939250506130f39050565b905061129a6040518060400160405280601a81526020017f6f70656e207061636b207369676e6572207265636f766572656400000000000081525082613117565b9150505b949350505050565b6009546001600160a01b031633146112d05760405162461bcd60e51b8152600401610f0290614f3f565b6001600160a01b038216600090815260196020908152604080832060ff80861685529252822080549091169161130583614deb565b91906101000a81548160ff021916908360ff160217905550505050565b3360009081526014602052604090205460ff166113515760405162461bcd60e51b8152600401610f0290614e44565b6001600160a01b0381166113775760405162461bcd60e51b8152600401610f0290614e87565b336001600160a01b038216036113df5760405162461bcd60e51b815260206004820152602760248201527f596f752063616e6e6f742072656d6f766520796f757273656c6620617320616e6044820152661037bbb732b91760c91b6064820152608401610f02565b6001600160a01b03811660009081526014602052604090205460ff166114475760405162461bcd60e51b815260206004820152601860248201527f41646472657373206973206e6f7420616e206f776e65722e00000000000000006044820152606401610f02565b6001600160a01b03166000908152601460205260409020805460ff19169055565b3360009081526019602090815260408083206079845290915290205460ff166114d35760405162461bcd60e51b815260206004820152601860248201527f4e6f207469656e657320616c62756d206465207175656d6100000000000000006044820152606401610f02565b336000908152601960209081526040808320607984529091528120805460ff16916114fd83614f91565b825460ff9182166101009390930a9283029190920219909116179055503360009081526018602052604081208054839290611539908490614fae565b90915550600090505b60ff81168211156115da5733600090815260196020526040812090848460ff851681811061157257611572614d86565b90506020020160208101906115879190614a4e565b60ff908116825260208201929092526040016000908120805490921691906115ae83614f91565b91906101000a81548160ff021916908360ff1602179055505080806115d290614deb565b915050611542565b50336000908152601860205260409020546115f790603c90614fd7565b60000361176457611696336012805461160f90614e0a565b80601f016020809104026020016040519081016040528092919081815260200182805461163b90614e0a565b80156116885780601f1061165d57610100808354040283529160200191611688565b820191906000526020600020905b81548152906001019060200180831161166b57829003601f168201915b50505050506079600261315c565b600f54600d60008282546116aa9190614feb565b9091555050600b5460105460405163a9059cbb60e01b815233600482015260248101919091526001600160a01b039091169063a9059cbb906044016020604051808303816000875af1158015611704573d6000803e3d6000fd5b505050506040513d601f19601f820116820180604052508101906117289190614db8565b507f6d0344e2059f835240cb954cce07d4b26f0d0844eecc234f7ee0e292ba80a1aa33600260405161175b929190614d9c565b60405180910390a15b5050565b611773335b826131b8565b61178f5760405162461bcd60e51b8152600401610f0290614ffe565b610fa3838383613236565b6117a733858585856133a7565b50505050565b33600090815260196020908152604080832060ff8086168552925290912054166117e95760405162461bcd60e51b8152600401610f029061504b565b336001600160a01b038316036118415760405162461bcd60e51b815260206004820152601960248201527f4f776e207472616e73666572206e6f7420616c6c6f7765642e000000000000006044820152606401610f02565b6001600160a01b0382166118675760405162461bcd60e51b8152600401610f0290614e87565b60135462010000900460ff161561193c57600954604051632edb5fcf60e01b81526000916001600160a01b031690632edb5fcf906118ab9033908690600401614d9c565b602060405180830381865afa1580156118c8573d6000803e3d6000fd5b505050506040513d601f19601f820116820180604052508101906118ec9190614db8565b33600090815260196020908152604080832060ff8088168552925290912054919250600191161181158061191d5750805b6119395760405162461bcd60e51b8152600401610f0290615082565b50505b33600090815260196020908152604080832060ff80861685529252822080549091169161196883614f91565b82546101009290920a60ff8181021990931691831602179091556001600160a01b0384166000908152601960209081526040808320868516845290915281208054909216925061130583614deb565b3360009081526014602052604090205460ff166119e65760405162461bcd60e51b8152600401610f0290614e44565b6008546040516380f2540b60e01b8152600481018490526001600160a01b038581166024830152909116906380f2540b90604401600060405180830381600087803b158015611a3457600080fd5b505af1158015611a48573d6000803e3d6000fd5b505050506006600c54611a5b91906150d2565b600c54611a689190614feb565b600d6000828254611a799190614fae565b9091555050805160005b818160ff161015611c4d57828160ff1681518110611aa357611aa3614d86565b602002602001015160ff16607814611af15761138960176000858460ff1681518110611ad157611ad1614d86565b602002602001015160ff1681526020019081526020016000205410611b22565b607860005260176020527f1e0e657bdfc7d3d523657bb82aa6f2c628a4caf6e2f7839556e82479d4362f0654610bb9115b611b6e5760405162461bcd60e51b815260206004820152601e60248201527f696e76616c69642063617264496e76656e746f727920706f736974696f6e00006044820152606401610f02565b60176000848360ff1681518110611b8757611b87614d86565b602002602001015160ff1681526020019081526020016000206000815480929190611bb1906150e6565b90915550506001600160a01b03851660009081526019602052604081208451909190859060ff8516908110611be857611be8614d86565b602002602001015160ff1660ff168152602001908152602001600020600081819054906101000a900460ff1680929190611c2190614deb565b91906101000a81548160ff021916908360ff160217905550508080611c4590614deb565b915050611a83565b5050505050565b610fa383838360405180602001604052806000815250612b9a565b611c783361176d565b611c945760405162461bcd60e51b8152600401610f0290614ffe565b611c9d8161386a565b50565b3360009081526014602052604090205460ff16611ccf5760405162461bcd60e51b8152600401610f0290614e44565b80611cd930611f34565b1015611ce457600080fd5b80600d6000828254611cf69190614feb565b9091555050600b5460405163a9059cbb60e01b8152336004820152602481018390526001600160a01b039091169063a9059cbb906044016020604051808303816000875af1158015611d4c573d6000803e3d6000fd5b505050506040513d601f19601f82011682018060405250810190611d709190614db8565b5060408051338152602081018390527f23d6711a1d031134a36921253c75aa59e967d38e369ac625992824315e204f20910161118d565b6000818152600260205260408120546001600160a01b031680610a125760405162461bcd60e51b8152602060048201526018602482015277115490cdcc8c4e881a5b9d985b1a59081d1bdad95b88125160421b6044820152606401610f02565b3360009081526014602052604090205460ff16611e365760405162461bcd60e51b8152600401610f0290614e44565b60138054911515620100000262ff000019909216919091179055565b3360009081526014602052604090205460ff16611e815760405162461bcd60e51b8152600401610f0290614e44565b6001600160a01b038116611ea75760405162461bcd60e51b8152600401610f0290614e87565b6001600160a01b03811660009081526014602052604090205460ff1615611f105760405162461bcd60e51b815260206004820152601c60248201527f4164647265737320697320616c726561647920616e206f776e65722e000000006044820152606401610f02565b6001600160a01b03166000908152601460205260409020805460ff19166001179055565b60006001600160a01b038216611f9e5760405162461bcd60e51b815260206004820152602960248201527f4552433732313a2061646472657373207a65726f206973206e6f7420612076616044820152683634b21037bbb732b960b91b6064820152608401610f02565b506001600160a01b031660009081526003602052604090205490565b611fc2613873565b611fcc60006138cd565b565b6009546001600160a01b03163314611ff85760405162461bcd60e51b8152600401610f0290614f3f565b6001600160a01b038216600090815260196020908152604080832060ff80861685529252822080549091169161130583614f91565b6008546001600160a01b031633146120575760405162461bcd60e51b8152600401610f02906150ff565b80600d60008282546120699190614fae565b909155505050565b6009546000906001600160a01b0316331461209e5760405162461bcd60e51b8152600401610f0290614f3f565b506001600160a01b0391909116600090815260196020908152604080832060ff948516845290915290205416151590565b3360009081526019602090815260408083206078845290915290205460ff1661213a5760405162461bcd60e51b815260206004820152601c60248201527f596f7520646f6573206e6f74206861766520616e7920616c62756d2e000000006044820152606401610f02565b600f54600d5410156121845760405162461bcd60e51b815260206004820152601360248201527224b739bab33334b1b4b2b73a10333ab732399760691b6044820152606401610f02565b6000805b60798160ff16101561221a5733600090815260196020908152604080832060ff808616855292528220541690036121c2576001915061221a565b33600090815260196020908152604080832060ff8086168552925282208054909116916121ee83614f91565b91906101000a81548160ff021916908360ff16021790555050808061221290614deb565b915050612188565b5080156122695760405162461bcd60e51b815260206004820152601860248201527f4d75737420636f6d706c6574652074686520616c62756d2e00000000000000006044820152606401610f02565b612301336011805461227a90614e0a565b80601f01602080910402602001604051908101604052809291908181526020018280546122a690614e0a565b80156122f35780601f106122c8576101008083540402835291602001916122f3565b820191906000526020600020905b8154815290600101906020018083116122d657829003601f168201915b50505050506078600261315c565b600f54600d60008282546123159190614feb565b9091555050600b54600f5460405163a9059cbb60e01b815233600482015260248101919091526001600160a01b039091169063a9059cbb906044016020604051808303816000875af115801561236f573d6000803e3d6000fd5b505050506040513d601f19601f820116820180604052508101906123939190614db8565b507f6d0344e2059f835240cb954cce07d4b26f0d0844eecc234f7ee0e292ba80a1aa33600160405161118d929190614d9c565b606060018054610de490614e0a565b600e80546123e290614e0a565b80601f016020809104026020016040519081016040528092919081815260200182805461240e90614e0a565b801561245b5780601f106124305761010080835404028352916020019161245b565b820191906000526020600020905b81548152906001019060200180831161243e57829003601f168201915b505050505081565b3360009081526014602052604090205460ff166124925760405162461bcd60e51b8152600401610f0290614e44565b601161249e838261519e565b5060126124ab828261519e565b507fabfd337ac5625b7dc2ddd3d3bd465fb1dec15322eeeed81032268b337880bec6828260405161175b92919061525d565b336001600160a01b038416036125405760405162461bcd60e51b815260206004820152602260248201527f596f752063616e6e6f742073656e6420636172647320746f20796f757273656c604482015261331760f11b6064820152608401610f02565b6001600160a01b0383166125665760405162461bcd60e51b8152600401610f0290614e87565b60005b60ff81168211156117a75733600090815260196020526040812081858560ff861681811061259957612599614d86565b90506020020160208101906125ae9190614a4e565b60ff908116825260208201929092526040016000205416116125e25760405162461bcd60e51b8152600401610f029061504b565b33600090815260196020526040812090848460ff851681811061260757612607614d86565b905060200201602081019061261c9190614a4e565b60ff9081168252602082019290925260400160009081208054909216919061264383614f91565b91906101000a81548160ff021916908360ff1602179055505060196000856001600160a01b03166001600160a01b03168152602001908152602001600020600084848460ff1681811061269857612698614d86565b90506020020160208101906126ad9190614a4e565b60ff908116825260208201929092526040016000908120805490921691906126d483614deb565b91906101000a81548160ff021916908360ff16021790555050601360029054906101000a900460ff1615612823576009546000906001600160a01b0316632edb5fcf33868660ff871681811061272c5761272c614d86565b90506020020160208101906127419190614a4e565b6040518363ffffffff1660e01b815260040161275e929190614d9c565b602060405180830381865afa15801561277b573d6000803e3d6000fd5b505050506040513d601f19601f8201168201806040525081019061279f9190614db8565b3360009081526019602052604081209192509060019082878760ff88168181106127cb576127cb614d86565b90506020020160208101906127e09190614a4e565b60ff9081168252602082019290925260400160002054161190508115806128045750805b6128205760405162461bcd60e51b8152600401610f0290615082565b50505b8061282d81614deb565b915050612569565b61176433838361391f565b3360009081526014602052604090205460ff1661286f5760405162461bcd60e51b8152600401610f0290614e44565b60005b60798160ff161015611764576001600160a01b038216600090815260196020908152604080832060ff8086168552925282208054909116916128b383614deb565b91906101000a81548160ff021916908360ff1602179055505080806128d790614deb565b915050612872565b6009546001600160a01b031633146129095760405162461bcd60e51b8152600401610f0290614f3f565b6001600160a01b03841661292f5760405162461bcd60e51b8152600401610f0290614e87565b6001600160a01b0382166129555760405162461bcd60e51b8152600401610f0290614e87565b6001600160a01b038416600090815260196020908152604080832060ff8088168552925290912054166129d95760405162461bcd60e51b815260206004820152602660248201527f55736572202866726f6d2920646f6573206e6f74206861766520636172642028604482015265333937b6949760d11b6064820152608401610f02565b6001600160a01b038216600090815260196020908152604080832060ff808616855292529091205416612a595760405162461bcd60e51b815260206004820152602260248201527f557365722028746f2920646f6573206e6f74206861766520636172642028746f604482015261149760f11b6064820152608401610f02565b6001600160a01b038416600090815260196020908152604080832060ff808816855292528220805490911691612a8e83614f91565b82546101009290920a60ff8181021990931691831602179091556001600160a01b03841660009081526019602090815260408083208885168452909152812080549092169250612add83614deb565b82546101009290920a60ff8181021990931691831602179091556001600160a01b03841660009081526019602090815260408083208685168452909152812080549092169250612b2c83614f91565b82546101009290920a60ff8181021990931691831602179091556001600160a01b03861660009081526019602090815260408083208685168452909152812080549092169250612b7b83614deb565b91906101000a81548160ff021916908360ff1602179055505050505050565b612ba433836131b8565b612bc05760405162461bcd60e51b8152600401610f0290614ffe565b6117a7848484846139ed565b33600090815260196020908152604080832060ff808616855292529091205416612c085760405162461bcd60e51b8152600401610f029061504b565b601354610100900460ff1615612d2157600954604051632edb5fcf60e01b81526000916001600160a01b031690632edb5fcf90612c4b9033908690600401614d9c565b602060405180830381865afa158015612c68573d6000803e3d6000fd5b505050506040513d601f19601f82011682018060405250810190612c8c9190614db8565b33600090815260196020908152604080832060ff80881685529252909120549192506001911611811580612cbd5750805b612d1e5760405162461bcd60e51b815260206004820152602c60248201527f5468697320636172642068617320616e206f666665722c2069742063616e6e6f60448201526b3a1031329036b4b73a32b21760a11b6064820152608401610f02565b50505b33600090815260196020908152604080832060ff808616855292528220805490911691612d4d83614f91565b91906101000a81548160ff021916908360ff160217905550506000600e604051806040016040528060018152602001602f60f81b815250612d908460ff16613a20565b60405180604001604052806005815260200164173539b7b760d91b815250604051602001612dc1949392919061528b565b604051602081830303815290604052905061176433828460ff16600161315c565b601180546123e290614e0a565b6060610a1282613b20565b3360009081526014602052604090205460ff16612e295760405162461bcd60e51b8152600401610f0290614e44565b6013805460ff1916911515919091179055565b601280546123e290614e0a565b6008546001600160a01b03163314612e735760405162461bcd60e51b8152600401610f02906150ff565b600c55565b611c4d85858585856133a7565b3360009081526014602052604090205460ff16612eb45760405162461bcd60e51b8152600401610f0290614e44565b6001600160a01b038116612eda5760405162461bcd60e51b8152600401610f0290614e87565b6001600160a01b03811660009081526015602052604090205460ff1615612f435760405162461bcd60e51b815260206004820152601c60248201527f4164647265737320697320616c726561647920616e206f776e65722e000000006044820152606401610f02565b6001600160a01b03166000908152601560205260409020805460ff19166001179055565b612f6f613873565b6001600160a01b038116612fd45760405162461bcd60e51b815260206004820152602660248201527f4f776e61626c653a206e6577206f776e657220697320746865207a65726f206160448201526564647265737360d01b6064820152608401610f02565b611c9d816138cd565b3360009081526014602052604090205460ff1661300c5760405162461bcd60e51b8152600401610f0290614e44565b601380549115156101000261ff0019909216919091179055565b6000818152600260205260409020546001600160a01b0316611c9d5760405162461bcd60e51b8152602060048201526018602482015277115490cdcc8c4e881a5b9d985b1a59081d1bdad95b88125160421b6044820152606401610f02565b600081815260046020526040902080546001600160a01b0319166001600160a01b03841690811790915581906130ba82611da7565b6001600160a01b03167f8c5be1e5ebec7d5bd14f71427d1e84f3dd0314c0f7b2291e5b200ac8c7c3b92560405160405180910390a45050565b60008060006131028585613c28565b9150915061310f81613c6d565b509392505050565b611764828260405160240161312d92919061533a565b60408051601f198184030181529190526020810180516001600160e01b031663319af33360e01b179052613db7565b6000613167600a5490565b9050613177600a80546001019055565b600081815260166020526040902081815560018101849055600201805461ff00191661010060ff8516021790556131ae8582613dc0565b611c4d8185613dda565b6000806131c483611da7565b9050806001600160a01b0316846001600160a01b0316148061320b57506001600160a01b0380821660009081526005602090815260408083209388168352929052205460ff165b8061129e5750836001600160a01b031661322484610e67565b6001600160a01b031614949350505050565b826001600160a01b031661324982611da7565b6001600160a01b03161461326f5760405162461bcd60e51b8152600401610f0290615364565b6001600160a01b0382166132d15760405162461bcd60e51b8152602060048201526024808201527f4552433732313a207472616e7366657220746f20746865207a65726f206164646044820152637265737360e01b6064820152608401610f02565b6132de8383836001613e6d565b826001600160a01b03166132f182611da7565b6001600160a01b0316146133175760405162461bcd60e51b8152600401610f0290615364565b600081815260046020908152604080832080546001600160a01b03199081169091556001600160a01b0387811680865260038552838620805460001901905590871680865283862080546001019055868652600290945282852080549092168417909155905184937fddf252ad1be2c89b69c2b068fc378daa952ba7f163c4a11628f55a4df523b3ef91a4505050565b60085460405163d3e6a7ad60e01b8152600481018690526001600160a01b0387811692169063d3e6a7ad90602401602060405180830381865afa1580156133f2573d6000803e3d6000fd5b505050506040513d601f19601f8201168201806040525081019061341691906153a9565b6001600160a01b03161461346c5760405162461bcd60e51b815260206004820152601760248201527f54686973207061636b206973206e6f7420796f7572732e0000000000000000006044820152606401610f02565b600f8351106134b35760405162461bcd60e51b815260206004820152601360248201527210d85c99081b1a5b5a5d08195e18d959591959606a1b6044820152606401610f02565b60135460ff16156135bf5760006134d88686866040516020016111b393929190614eb1565b9050600061351e84848080601f01602080910402602001604051908101604052809392919081815260200183838082843760009201919091525086939250506130f39050565b905061355f6040518060400160405280601a81526020017f6f70656e207061636b207369676e6572207265636f766572656400000000000081525082613117565b6001600160a01b03811660009081526015602052604090205460ff166135bc5760405162461bcd60e51b815260206004820152601260248201527124b73b30b634b21039b4b3b730ba3ab9329760711b6044820152606401610f02565b50505b6008546040516380f2540b60e01b8152600481018690526001600160a01b038781166024830152909116906380f2540b90604401600060405180830381600087803b15801561360d57600080fd5b505af1158015613621573d6000803e3d6000fd5b505050506006600c5461363491906150d2565b600c546136419190614feb565b600d60008282546136529190614fae565b9091555050825160005b818160ff16101561382657848160ff168151811061367c5761367c614d86565b602002602001015160ff166078146136ca5761138960176000878460ff16815181106136aa576136aa614d86565b602002602001015160ff16815260200190815260200160002054106136fb565b607860005260176020527f1e0e657bdfc7d3d523657bb82aa6f2c628a4caf6e2f7839556e82479d4362f0654610bb9115b6137475760405162461bcd60e51b815260206004820152601e60248201527f696e76616c69642063617264496e76656e746f727920706f736974696f6e00006044820152606401610f02565b60176000868360ff168151811061376057613760614d86565b602002602001015160ff168152602001908152602001600020600081548092919061378a906150e6565b90915550506001600160a01b03871660009081526019602052604081208651909190879060ff85169081106137c1576137c1614d86565b602002602001015160ff1660ff168152602001908152602001600020600081819054906101000a900460ff16809291906137fa90614deb565b91906101000a81548160ff021916908360ff16021790555050808061381e90614deb565b91505061365c565b507fbabe8f5e83e93ab103ddf917b4292a19335a5128b3530bedd896a681cdd945e386858760405161385a939291906153c6565b60405180910390a1505050505050565b611c9d81613ef5565b6007546001600160a01b03163314611fcc5760405162461bcd60e51b815260206004820181905260248201527f4f776e61626c653a2063616c6c6572206973206e6f7420746865206f776e65726044820152606401610f02565b600780546001600160a01b038381166001600160a01b0319831681179093556040519116919082907f8be0079c531659141344cd1fd0a4f28419497f9722a3daafe3b4186f6b6457e090600090a35050565b816001600160a01b0316836001600160a01b0316036139805760405162461bcd60e51b815260206004820152601960248201527f4552433732313a20617070726f766520746f2063616c6c6572000000000000006044820152606401610f02565b6001600160a01b03838116600081815260056020908152604080832094871680845294825291829020805460ff191686151590811790915591519182527f17307eab39ab6107e8899845ad3d59bd9653f200f220920489ca2b5937696c31910160405180910390a3505050565b6139f8848484613236565b613a0484848484613f35565b6117a75760405162461bcd60e51b8152600401610f02906153fa565b606081600003613a475750506040805180820190915260018152600360fc1b602082015290565b8160005b8115613a715780613a5b816150e6565b9150613a6a9050600a836150d2565b9150613a4b565b6000816001600160401b03811115613a8b57613a8b614769565b6040519080825280601f01601f191660200182016040528015613ab5576020820181803683370190505b5090505b841561129e57613aca600183614feb565b9150613ad7600a86614fd7565b613ae2906030614fae565b60f81b818381518110613af757613af7614d86565b60200101906001600160f81b031916908160001a905350613b19600a866150d2565b9450613ab9565b6060613b2b82613026565b60008281526006602052604081208054613b4490614e0a565b80601f0160208091040260200160405190810160405280929190818152602001828054613b7090614e0a565b8015613bbd5780601f10613b9257610100808354040283529160200191613bbd565b820191906000526020600020905b815481529060010190602001808311613ba057829003601f168201915b505050505090506000613bdb60408051602081019091526000815290565b90508051600003613bed575092915050565b815115613c1f578082604051602001613c0792919061544c565b60405160208183030381529060405292505050919050565b61129e84614033565b6000808251604103613c5e5760208301516040840151606085015160001a613c52878285856140a7565b94509450505050613c66565b506000905060025b9250929050565b6000816004811115613c8157613c8161547b565b03613c895750565b6001816004811115613c9d57613c9d61547b565b03613cea5760405162461bcd60e51b815260206004820152601860248201527f45434453413a20696e76616c6964207369676e617475726500000000000000006044820152606401610f02565b6002816004811115613cfe57613cfe61547b565b03613d4b5760405162461bcd60e51b815260206004820152601f60248201527f45434453413a20696e76616c6964207369676e6174757265206c656e677468006044820152606401610f02565b6003816004811115613d5f57613d5f61547b565b03611c9d5760405162461bcd60e51b815260206004820152602260248201527f45434453413a20696e76616c6964207369676e6174757265202773272076616c604482015261756560f01b6064820152608401610f02565b611c9d8161416b565b61176482826040518060200160405280600081525061418c565b6000828152600260205260409020546001600160a01b0316613e555760405162461bcd60e51b815260206004820152602e60248201527f45524337323155524953746f726167653a2055524920736574206f66206e6f6e60448201526d32bc34b9ba32b73a103a37b5b2b760911b6064820152608401610f02565b6000828152600660205260409020610fa3828261519e565b60018111156117a7576001600160a01b03841615613eb3576001600160a01b03841660009081526003602052604081208054839290613ead908490614feb565b90915550505b6001600160a01b038316156117a7576001600160a01b03831660009081526003602052604081208054839290613eea908490614fae565b909155505050505050565b613efe816141bf565b60008181526006602052604090208054613f1790614e0a565b159050611c9d576000818152600660205260408120611c9d91614565565b60006001600160a01b0384163b1561402b57604051630a85bd0160e11b81526001600160a01b0385169063150b7a0290613f79903390899088908890600401615491565b6020604051808303816000875af1925050508015613fb4575060408051601f3d908101601f19168201909252613fb1918101906154ce565b60015b614011573d808015613fe2576040519150601f19603f3d011682016040523d82523d6000602084013e613fe7565b606091505b5080516000036140095760405162461bcd60e51b8152600401610f02906153fa565b805181602001fd5b6001600160e01b031916630a85bd0160e11b14905061129e565b50600161129e565b606061403e82613026565b600061405560408051602081019091526000815290565b9050600081511161407557604051806020016040528060008152506140a0565b8061407f84614262565b60405160200161409092919061544c565b6040516020818303038152906040525b9392505050565b6000807f7fffffffffffffffffffffffffffffff5d576e7357a4501ddfe92f46681b20a08311156140de5750600090506003614162565b6040805160008082526020820180845289905260ff881692820192909252606081018690526080810185905260019060a0016020604051602081039080840390855afa158015614132573d6000803e3d6000fd5b5050604051601f1901519150506001600160a01b03811661415b57600060019250925050614162565b9150600090505b94509492505050565b60006a636f6e736f6c652e6c6f679050600080835160208501845afa505050565b61419683836142f4565b6141a36000848484613f35565b610fa35760405162461bcd60e51b8152600401610f02906153fa565b60006141ca82611da7565b90506141da816000846001613e6d565b6141e382611da7565b600083815260046020908152604080832080546001600160a01b03199081169091556001600160a01b0385168085526003845282852080546000190190558785526002909352818420805490911690555192935084927fddf252ad1be2c89b69c2b068fc378daa952ba7f163c4a11628f55a4df523b3ef908390a45050565b6060600061426f8361448d565b60010190506000816001600160401b0381111561428e5761428e614769565b6040519080825280601f01601f1916602001820160405280156142b8576020820181803683370190505b5090508181016020015b600019016f181899199a1a9b1b9c1cb0b131b232b360811b600a86061a8153600a85049450846142c257509392505050565b6001600160a01b03821661434a5760405162461bcd60e51b815260206004820181905260248201527f4552433732313a206d696e7420746f20746865207a65726f20616464726573736044820152606401610f02565b6000818152600260205260409020546001600160a01b0316156143af5760405162461bcd60e51b815260206004820152601c60248201527f4552433732313a20746f6b656e20616c7265616479206d696e746564000000006044820152606401610f02565b6143bd600083836001613e6d565b6000818152600260205260409020546001600160a01b0316156144225760405162461bcd60e51b815260206004820152601c60248201527f4552433732313a20746f6b656e20616c7265616479206d696e746564000000006044820152606401610f02565b6001600160a01b038216600081815260036020908152604080832080546001019055848352600290915280822080546001600160a01b0319168417905551839291907fddf252ad1be2c89b69c2b068fc378daa952ba7f163c4a11628f55a4df523b3ef908290a45050565b60008072184f03e93ff9f4daa797ed6e38ed64bf6a1f0160401b83106144cc5772184f03e93ff9f4daa797ed6e38ed64bf6a1f0160401b830492506040015b6d04ee2d6d415b85acef810000000083106144f8576d04ee2d6d415b85acef8100000000830492506020015b662386f26fc10000831061451657662386f26fc10000830492506010015b6305f5e100831061452e576305f5e100830492506008015b612710831061454257612710830492506004015b60648310614554576064830492506002015b600a8310610a125760010192915050565b50805461457190614e0a565b6000825580601f10614581575050565b601f016020900490600052602060002090810190611c9d91905b808211156145af576000815560010161459b565b5090565b6001600160e01b031981168114611c9d57600080fd5b6000602082840312156145db57600080fd5b81356140a0816145b3565b6001600160a01b0381168114611c9d57600080fd5b60006020828403121561460d57600080fd5b81356140a0816145e6565b600081518084526020808501945080840160005b8381101561464b57815160ff168752958201959082019060010161462c565b509495945050505050565b6060815260006146696060830186614618565b60208382038185015261467c8287614618565b8481036040860152855180825282870193509082019060005b818110156146b3578451151583529383019391830191600101614695565b509098975050505050505050565b60005b838110156146dc5781810151838201526020016146c4565b50506000910152565b600081518084526146fd8160208601602086016146c1565b601f01601f19169290920160200192915050565b6020815260006140a060208301846146e5565b60006020828403121561473657600080fd5b5035919050565b6000806040838503121561475057600080fd5b823561475b816145e6565b946020939093013593505050565b634e487b7160e01b600052604160045260246000fd5b604051601f8201601f191681016001600160401b03811182821017156147a7576147a7614769565b604052919050565b803560ff811681146147c057600080fd5b919050565b600082601f8301126147d657600080fd5b813560206001600160401b038211156147f1576147f1614769565b8160051b61480082820161477f565b928352848101820192828101908785111561481a57600080fd5b83870192505b8483101561484057614831836147af565b82529183019190830190614820565b979650505050505050565b60008083601f84011261485d57600080fd5b5081356001600160401b0381111561487457600080fd5b602083019150836020828501011115613c6657600080fd5b600080600080606085870312156148a257600080fd5b8435935060208501356001600160401b03808211156148c057600080fd5b6148cc888389016147c5565b945060408701359150808211156148e257600080fd5b506148ef8782880161484b565b95989497509550505050565b6000806040838503121561490e57600080fd5b8235614919816145e6565b9150614927602084016147af565b90509250929050565b60008083601f84011261494257600080fd5b5081356001600160401b0381111561495957600080fd5b6020830191508360208260051b8501011115613c6657600080fd5b6000806020838503121561498757600080fd5b82356001600160401b0381111561499d57600080fd5b6149a985828601614930565b90969095509350505050565b6000806000606084860312156149ca57600080fd5b83356149d5816145e6565b925060208401356149e5816145e6565b929592945050506040919091013590565b600080600060608486031215614a0b57600080fd5b8335614a16816145e6565b92506020840135915060408401356001600160401b03811115614a3857600080fd5b614a44868287016147c5565b9150509250925092565b600060208284031215614a6057600080fd5b6140a0826147af565b8015158114611c9d57600080fd5b600060208284031215614a8957600080fd5b81356140a081614a69565b60006001600160401b03831115614aad57614aad614769565b614ac0601f8401601f191660200161477f565b9050828152838383011115614ad457600080fd5b828260208301376000602084830101529392505050565b600082601f830112614afc57600080fd5b6140a083833560208501614a94565b60008060408385031215614b1e57600080fd5b82356001600160401b0380821115614b3557600080fd5b614b4186838701614aeb565b93506020850135915080821115614b5757600080fd5b50614b6485828601614aeb565b9150509250929050565b600080600060408486031215614b8357600080fd5b8335614b8e816145e6565b925060208401356001600160401b03811115614ba957600080fd5b614bb586828701614930565b9497909650939450505050565b60008060408385031215614bd557600080fd5b8235614be0816145e6565b91506020830135614bf081614a69565b809150509250929050565b60008060008060808587031215614c1157600080fd5b8435614c1c816145e6565b9350614c2a602086016147af565b92506040850135614c3a816145e6565b9150614c48606086016147af565b905092959194509250565b60008060008060808587031215614c6957600080fd5b8435614c74816145e6565b93506020850135614c84816145e6565b92506040850135915060608501356001600160401b03811115614ca657600080fd5b8501601f81018713614cb757600080fd5b614cc687823560208401614a94565b91505092959194509250565b600080600080600060808688031215614cea57600080fd5b8535614cf5816145e6565b94506020860135935060408601356001600160401b0380821115614d1857600080fd5b614d2489838a016147c5565b94506060880135915080821115614d3a57600080fd5b50614d478882890161484b565b969995985093965092949392505050565b60008060408385031215614d6b57600080fd5b8235614d76816145e6565b91506020830135614bf0816145e6565b634e487b7160e01b600052603260045260246000fd5b6001600160a01b0392909216825260ff16602082015260400190565b600060208284031215614dca57600080fd5b81516140a081614a69565b634e487b7160e01b600052601160045260246000fd5b600060ff821660ff8103614e0157614e01614dd5565b60010192915050565b600181811c90821680614e1e57607f821691505b602082108103614e3e57634e487b7160e01b600052602260045260246000fd5b50919050565b60208082526023908201527f4f6e6c79206f776e6572732063616e2063616c6c20746869732066756e63746960408201526237b71760e91b606082015260800190565b60208082526010908201526f24b73b30b634b21030b2323932b9b99760811b604082015260600190565b6bffffffffffffffffffffffff198460601b1681528260148201526000603482018351602080860160005b83811015614efb57815160ff1685529382019390820190600101614edc565b50507f30786631644437313839356534396231353633363933393639646535303839388352693139376344463334383160b01b9083015250602a0195945050505050565b60208082526032908201527f4f6e6c792067616d6d61206f666665727320636f6e74726163742063616e206360408201527130b636103a3434b990333ab731ba34b7b71760711b606082015260800190565b600060ff821680614fa457614fa4614dd5565b6000190192915050565b80820180821115610a1257610a12614dd5565b634e487b7160e01b600052601260045260246000fd5b600082614fe657614fe6614fc1565b500690565b81810381811115610a1257610a12614dd5565b6020808252602d908201527f4552433732313a2063616c6c6572206973206e6f7420746f6b656e206f776e6560408201526c1c881bdc88185c1c1c9bdd9959609a1b606082015260800190565b6020808252601c908201527f596f7520646f6573206e6f742068617665207468697320636172642e00000000604082015260600190565b60208082526030908201527f5468697320636172642068617320616e206f666665722c2069742063616e6e6f60408201526f3a103132903a3930b739b332b932b21760811b606082015260800190565b6000826150e1576150e1614fc1565b500490565b6000600182016150f8576150f8614dd5565b5060010190565b60208082526031908201527f4f6e6c792067616d6d61207061636b7320636f6e74726163742063616e2063616040820152703636103a3434b990333ab731ba34b7b71760791b606082015260800190565b601f821115610fa357600081815260208120601f850160051c810160208610156151775750805b601f850160051c820191505b8181101561519657828155600101615183565b505050505050565b81516001600160401b038111156151b7576151b7614769565b6151cb816151c58454614e0a565b84615150565b602080601f83116001811461520057600084156151e85750858301515b600019600386901b1c1916600185901b178555615196565b600085815260208120601f198616915b8281101561522f57888601518255948401946001909101908401615210565b508582101561524d5787850151600019600388901b60f8161c191681555b5050505050600190811b01905550565b60408152600061527060408301856146e5565b828103602084015261528281856146e5565b95945050505050565b600080865461529981614e0a565b600182811680156152b157600181146152c6576152f5565b60ff19841687528215158302870194506152f5565b8a60005260208060002060005b858110156152ec5781548a8201529084019082016152d3565b50505082870194505b505050508551615309818360208a016146c1565b855191019061531c8183602089016146c1565b845191019061532f8183602088016146c1565b019695505050505050565b60408152600061534d60408301856146e5565b905060018060a01b03831660208301529392505050565b60208082526025908201527f4552433732313a207472616e736665722066726f6d20696e636f72726563742060408201526437bbb732b960d91b606082015260800190565b6000602082840312156153bb57600080fd5b81516140a0816145e6565b6001600160a01b03841681526060602082018190526000906153ea90830185614618565b9050826040830152949350505050565b60208082526032908201527f4552433732313a207472616e7366657220746f206e6f6e20455243373231526560408201527131b2b4bb32b91034b6b83632b6b2b73a32b960711b606082015260800190565b6000835161545e8184602088016146c1565b8351908301906154728183602088016146c1565b01949350505050565b634e487b7160e01b600052602160045260246000fd5b6001600160a01b03858116825284166020820152604081018390526080606082018190526000906154c4908301846146e5565b9695505050505050565b6000602082840312156154e057600080fd5b81516140a0816145b356fea2646970667358221220280476ec0123c5ea37dc309dbfcf12c8c08748d3fbdc921b75357bb9634c092d64736f6c63430008120033",
  "linkReferences": {},
  "deployedLinkReferences": {}
}