{
  "_format": "hh-sol-artifact-1",
  "contractName": "NofGammaCardsV3",
  "sourceName": "contracts/gamma/GammaCards.v3.sol",
  "abi": [
    {
      "inputs": [
        {
          "internalType": "address",
          "name": "_daiTokenAddress",
          "type": "address"
        },
        {
          "internalType": "address",
          "name": "_gammaPacksContract",
          "type": "address"
        },
        {
          "internalType": "string",
          "name": "_baseUri",
          "type": "string"
        },
        {
          "internalType": "address",
          "name": "_signer",
          "type": "address"
        }
      ],
      "stateMutability": "nonpayable",
      "type": "constructor"
    },
    {
      "anonymous": false,
      "inputs": [
        {
          "indexed": false,
          "internalType": "address",
          "name": "player",
          "type": "address"
        },
        {
          "indexed": false,
          "internalType": "uint8",
          "name": "albumClass",
          "type": "uint8"
        }
      ],
      "name": "AlbumCompleted",
      "type": "event"
    },
    {
      "anonymous": false,
      "inputs": [
        {
          "indexed": true,
          "internalType": "address",
          "name": "owner",
          "type": "address"
        },
        {
          "indexed": true,
          "internalType": "address",
          "name": "approved",
          "type": "address"
        },
        {
          "indexed": true,
          "internalType": "uint256",
          "name": "tokenId",
          "type": "uint256"
        }
      ],
      "name": "Approval",
      "type": "event"
    },
    {
      "anonymous": false,
      "inputs": [
        {
          "indexed": true,
          "internalType": "address",
          "name": "owner",
          "type": "address"
        },
        {
          "indexed": true,
          "internalType": "address",
          "name": "operator",
          "type": "address"
        },
        {
          "indexed": false,
          "internalType": "bool",
          "name": "approved",
          "type": "bool"
        }
      ],
      "name": "ApprovalForAll",
      "type": "event"
    },
    {
      "anonymous": false,
      "inputs": [
        {
          "indexed": false,
          "internalType": "address",
          "name": "player",
          "type": "address"
        },
        {
          "indexed": false,
          "internalType": "uint256",
          "name": "cardTokenId",
          "type": "uint256"
        },
        {
          "indexed": false,
          "internalType": "uint256",
          "name": "albumTokenId",
          "type": "uint256"
        }
      ],
      "name": "CardPasted",
      "type": "event"
    },
    {
      "anonymous": false,
      "inputs": [
        {
          "indexed": false,
          "internalType": "address",
          "name": "receiver",
          "type": "address"
        },
        {
          "indexed": false,
          "internalType": "uint256",
          "name": "amount",
          "type": "uint256"
        }
      ],
      "name": "EmergencyWithdrawal",
      "type": "event"
    },
    {
      "anonymous": false,
      "inputs": [
        {
          "indexed": false,
          "internalType": "address",
          "name": "newGammaOffersContract",
          "type": "address"
        }
      ],
      "name": "NewGammaOffersContract",
      "type": "event"
    },
    {
      "anonymous": false,
      "inputs": [
        {
          "indexed": false,
          "internalType": "address",
          "name": "newSigner",
          "type": "address"
        }
      ],
      "name": "NewSigner",
      "type": "event"
    },
    {
      "anonymous": false,
      "inputs": [
        {
          "indexed": false,
          "internalType": "string",
          "name": "newMainUri",
          "type": "string"
        },
        {
          "indexed": false,
          "internalType": "string",
          "name": "newSecondaryUri",
          "type": "string"
        }
      ],
      "name": "NewUris",
      "type": "event"
    },
    {
      "anonymous": false,
      "inputs": [
        {
          "indexed": true,
          "internalType": "address",
          "name": "previousOwner",
          "type": "address"
        },
        {
          "indexed": true,
          "internalType": "address",
          "name": "newOwner",
          "type": "address"
        }
      ],
      "name": "OwnershipTransferred",
      "type": "event"
    },
    {
      "anonymous": false,
      "inputs": [
        {
          "indexed": false,
          "internalType": "address",
          "name": "player",
          "type": "address"
        },
        {
          "indexed": false,
          "internalType": "uint8[]",
          "name": "packData",
          "type": "uint8[]"
        },
        {
          "indexed": false,
          "internalType": "uint256",
          "name": "packNumber",
          "type": "uint256"
        }
      ],
      "name": "PackOpened",
      "type": "event"
    },
    {
      "anonymous": false,
      "inputs": [
        {
          "indexed": true,
          "internalType": "address",
          "name": "from",
          "type": "address"
        },
        {
          "indexed": true,
          "internalType": "address",
          "name": "to",
          "type": "address"
        },
        {
          "indexed": true,
          "internalType": "uint256",
          "name": "tokenId",
          "type": "uint256"
        }
      ],
      "name": "Transfer",
      "type": "event"
    },
    {
      "inputs": [],
      "name": "DAI_TOKEN",
      "outputs": [
        {
          "internalType": "address",
          "name": "",
          "type": "address"
        }
      ],
      "stateMutability": "view",
      "type": "function"
    },
    {
      "inputs": [
        {
          "internalType": "address",
          "name": "_newOwner",
          "type": "address"
        }
      ],
      "name": "addOwner",
      "outputs": [],
      "stateMutability": "nonpayable",
      "type": "function"
    },
    {
      "inputs": [
        {
          "internalType": "address",
          "name": "_newSigner",
          "type": "address"
        }
      ],
      "name": "addSigner",
      "outputs": [],
      "stateMutability": "nonpayable",
      "type": "function"
    },
    {
      "inputs": [
        {
          "internalType": "address",
          "name": "to",
          "type": "address"
        },
        {
          "internalType": "uint256",
          "name": "tokenId",
          "type": "uint256"
        }
      ],
      "name": "approve",
      "outputs": [],
      "stateMutability": "nonpayable",
      "type": "function"
    },
    {
      "inputs": [
        {
          "internalType": "address",
          "name": "owner",
          "type": "address"
        }
      ],
      "name": "balanceOf",
      "outputs": [
        {
          "internalType": "uint256",
          "name": "",
          "type": "uint256"
        }
      ],
      "stateMutability": "view",
      "type": "function"
    },
    {
      "inputs": [],
      "name": "baseUri",
      "outputs": [
        {
          "internalType": "string",
          "name": "",
          "type": "string"
        }
      ],
      "stateMutability": "view",
      "type": "function"
    },
    {
      "inputs": [
        {
          "internalType": "uint256",
          "name": "tokenId",
          "type": "uint256"
        }
      ],
      "name": "burn",
      "outputs": [],
      "stateMutability": "nonpayable",
      "type": "function"
    },
    {
      "inputs": [
        {
          "internalType": "uint8[]",
          "name": "cardNumbers",
          "type": "uint8[]"
        }
      ],
      "name": "burnCards",
      "outputs": [],
      "stateMutability": "nonpayable",
      "type": "function"
    },
    {
      "inputs": [
        {
          "internalType": "address",
          "name": "user",
          "type": "address"
        }
      ],
      "name": "burnedCards",
      "outputs": [
        {
          "internalType": "uint256",
          "name": "amount",
          "type": "uint256"
        }
      ],
      "stateMutability": "view",
      "type": "function"
    },
    {
      "inputs": [
        {
          "internalType": "uint256",
          "name": "tokenId",
          "type": "uint256"
        }
      ],
      "name": "cards",
      "outputs": [
        {
          "internalType": "uint256",
          "name": "tokenId",
          "type": "uint256"
        },
        {
          "internalType": "uint256",
          "name": "number",
          "type": "uint256"
        },
        {
          "internalType": "bool",
          "name": "pasted",
          "type": "bool"
        },
        {
          "internalType": "uint8",
          "name": "class",
          "type": "uint8"
        },
        {
          "internalType": "uint256",
          "name": "completion",
          "type": "uint256"
        }
      ],
      "stateMutability": "view",
      "type": "function"
    },
    {
      "inputs": [
        {
          "internalType": "address",
          "name": "user",
          "type": "address"
        },
        {
          "internalType": "uint8",
          "name": "cardNumber",
          "type": "uint8"
        }
      ],
      "name": "cardsByUser",
      "outputs": [
        {
          "internalType": "uint8",
          "name": "amount",
          "type": "uint8"
        }
      ],
      "stateMutability": "view",
      "type": "function"
    },
    {
      "inputs": [
        {
          "internalType": "uint256",
          "name": "cardNumber",
          "type": "uint256"
        }
      ],
      "name": "cardsInventory",
      "outputs": [
        {
          "internalType": "uint256",
          "name": "amount",
          "type": "uint256"
        }
      ],
      "stateMutability": "view",
      "type": "function"
    },
    {
      "inputs": [
        {
          "internalType": "uint256",
          "name": "newPackPrice",
          "type": "uint256"
        }
      ],
      "name": "changePackPrice",
      "outputs": [],
      "stateMutability": "nonpayable",
      "type": "function"
    },
    {
      "inputs": [
        {
          "internalType": "bool",
          "name": "required",
          "type": "bool"
        }
      ],
      "name": "changeRequireOfferValidationInMint",
      "outputs": [],
      "stateMutability": "nonpayable",
      "type": "function"
    },
    {
      "inputs": [
        {
          "internalType": "bool",
          "name": "required",
          "type": "bool"
        }
      ],
      "name": "changeRequireOfferValidationInTransfer",
      "outputs": [],
      "stateMutability": "nonpayable",
      "type": "function"
    },
    {
      "inputs": [
        {
          "internalType": "bool",
          "name": "required",
          "type": "bool"
        }
      ],
      "name": "changeRequireOpenPackSignerValidation",
      "outputs": [],
      "stateMutability": "nonpayable",
      "type": "function"
    },
    {
      "inputs": [
        {
          "internalType": "uint256",
          "name": "amount",
          "type": "uint256"
        }
      ],
      "name": "emergencyWithdraw",
      "outputs": [],
      "stateMutability": "nonpayable",
      "type": "function"
    },
    {
      "inputs": [
        {
          "internalType": "address",
          "name": "from",
          "type": "address"
        },
        {
          "internalType": "uint8",
          "name": "cardNumberFrom",
          "type": "uint8"
        },
        {
          "internalType": "address",
          "name": "to",
          "type": "address"
        },
        {
          "internalType": "uint8",
          "name": "cardNumberTo",
          "type": "uint8"
        }
      ],
      "name": "exchangeCardsOffer",
      "outputs": [],
      "stateMutability": "nonpayable",
      "type": "function"
    },
    {
      "inputs": [],
      "name": "finishAlbum",
      "outputs": [],
      "stateMutability": "nonpayable",
      "type": "function"
    },
    {
      "inputs": [],
      "name": "gammaOffersContract",
      "outputs": [
        {
          "internalType": "contract IgammaOffersContract",
          "name": "",
          "type": "address"
        }
      ],
      "stateMutability": "view",
      "type": "function"
    },
    {
      "inputs": [],
      "name": "gammaPacksContract",
      "outputs": [
        {
          "internalType": "contract IgammaPacksContract",
          "name": "",
          "type": "address"
        }
      ],
      "stateMutability": "view",
      "type": "function"
    },
    {
      "inputs": [
        {
          "internalType": "uint256",
          "name": "tokenId",
          "type": "uint256"
        }
      ],
      "name": "getApproved",
      "outputs": [
        {
          "internalType": "address",
          "name": "",
          "type": "address"
        }
      ],
      "stateMutability": "view",
      "type": "function"
    },
    {
      "inputs": [
        {
          "internalType": "address",
          "name": "user",
          "type": "address"
        },
        {
          "internalType": "uint8",
          "name": "cardNum",
          "type": "uint8"
        }
      ],
      "name": "getCardQuantityByUser",
      "outputs": [
        {
          "internalType": "uint8",
          "name": "",
          "type": "uint8"
        }
      ],
      "stateMutability": "view",
      "type": "function"
    },
    {
      "inputs": [
        {
          "internalType": "address",
          "name": "user",
          "type": "address"
        }
      ],
      "name": "getCardsByUser",
      "outputs": [
        {
          "internalType": "uint8[]",
          "name": "",
          "type": "uint8[]"
        },
        {
          "internalType": "uint8[]",
          "name": "",
          "type": "uint8[]"
        },
        {
          "internalType": "bool[]",
          "name": "",
          "type": "bool[]"
        }
      ],
      "stateMutability": "view",
      "type": "function"
    },
    {
      "inputs": [
        {
          "internalType": "uint8",
          "name": "cardNum",
          "type": "uint8"
        }
      ],
      "name": "hasCard",
      "outputs": [
        {
          "internalType": "bool",
          "name": "has",
          "type": "bool"
        }
      ],
      "stateMutability": "view",
      "type": "function"
    },
    {
      "inputs": [
        {
          "internalType": "address",
          "name": "user",
          "type": "address"
        },
        {
          "internalType": "uint8",
          "name": "cardNumber",
          "type": "uint8"
        }
      ],
      "name": "hasCardByOffer",
      "outputs": [
        {
          "internalType": "bool",
          "name": "has",
          "type": "bool"
        }
      ],
      "stateMutability": "view",
      "type": "function"
    },
    {
      "inputs": [
        {
          "internalType": "address",
          "name": "owner",
          "type": "address"
        },
        {
          "internalType": "address",
          "name": "operator",
          "type": "address"
        }
      ],
      "name": "isApprovedForAll",
      "outputs": [
        {
          "internalType": "bool",
          "name": "",
          "type": "bool"
        }
      ],
      "stateMutability": "view",
      "type": "function"
    },
    {
      "inputs": [],
      "name": "mainAlbumPrize",
      "outputs": [
        {
          "internalType": "uint256",
          "name": "",
          "type": "uint256"
        }
      ],
      "stateMutability": "view",
      "type": "function"
    },
    {
      "inputs": [],
      "name": "mainUri",
      "outputs": [
        {
          "internalType": "string",
          "name": "",
          "type": "string"
        }
      ],
      "stateMutability": "view",
      "type": "function"
    },
    {
      "inputs": [
        {
          "internalType": "uint8",
          "name": "cardNum",
          "type": "uint8"
        }
      ],
      "name": "mintCard",
      "outputs": [],
      "stateMutability": "nonpayable",
      "type": "function"
    },
    {
      "inputs": [],
      "name": "name",
      "outputs": [
        {
          "internalType": "string",
          "name": "",
          "type": "string"
        }
      ],
      "stateMutability": "view",
      "type": "function"
    },
    {
      "inputs": [
        {
          "internalType": "uint256",
          "name": "packNumber",
          "type": "uint256"
        },
        {
          "internalType": "uint8[]",
          "name": "packData",
          "type": "uint8[]"
        },
        {
          "internalType": "bytes",
          "name": "signature",
          "type": "bytes"
        }
      ],
      "name": "openPack",
      "outputs": [],
      "stateMutability": "nonpayable",
      "type": "function"
    },
    {
      "inputs": [],
      "name": "owner",
      "outputs": [
        {
          "internalType": "address",
          "name": "",
          "type": "address"
        }
      ],
      "stateMutability": "view",
      "type": "function"
    },
    {
      "inputs": [
        {
          "internalType": "uint256",
          "name": "tokenId",
          "type": "uint256"
        }
      ],
      "name": "ownerOf",
      "outputs": [
        {
          "internalType": "address",
          "name": "",
          "type": "address"
        }
      ],
      "stateMutability": "view",
      "type": "function"
    },
    {
      "inputs": [
        {
          "internalType": "address",
          "name": "",
          "type": "address"
        }
      ],
      "name": "owners",
      "outputs": [
        {
          "internalType": "bool",
          "name": "",
          "type": "bool"
        }
      ],
      "stateMutability": "view",
      "type": "function"
    },
    {
      "inputs": [],
      "name": "packPrice",
      "outputs": [
        {
          "internalType": "uint256",
          "name": "",
          "type": "uint256"
        }
      ],
      "stateMutability": "view",
      "type": "function"
    },
    {
      "inputs": [],
      "name": "prizesBalance",
      "outputs": [
        {
          "internalType": "uint256",
          "name": "",
          "type": "uint256"
        }
      ],
      "stateMutability": "view",
      "type": "function"
    },
    {
      "inputs": [
        {
          "internalType": "uint256",
          "name": "amount",
          "type": "uint256"
        }
      ],
      "name": "receivePrizesBalance",
      "outputs": [],
      "stateMutability": "nonpayable",
      "type": "function"
    },
    {
      "inputs": [
        {
          "internalType": "address",
          "name": "user",
          "type": "address"
        },
        {
          "internalType": "uint8",
          "name": "cardNumber",
          "type": "uint8"
        }
      ],
      "name": "removeCardByOffer",
      "outputs": [],
      "stateMutability": "nonpayable",
      "type": "function"
    },
    {
      "inputs": [
        {
          "internalType": "address",
          "name": "_ownerToRemove",
          "type": "address"
        }
      ],
      "name": "removeOwner",
      "outputs": [],
      "stateMutability": "nonpayable",
      "type": "function"
    },
    {
      "inputs": [
        {
          "internalType": "address",
          "name": "_signerToRemove",
          "type": "address"
        }
      ],
      "name": "removeSigner",
      "outputs": [],
      "stateMutability": "nonpayable",
      "type": "function"
    },
    {
      "inputs": [],
      "name": "renounceOwnership",
      "outputs": [],
      "stateMutability": "nonpayable",
      "type": "function"
    },
    {
      "inputs": [],
      "name": "requireOfferValidationInMint",
      "outputs": [
        {
          "internalType": "bool",
          "name": "",
          "type": "bool"
        }
      ],
      "stateMutability": "view",
      "type": "function"
    },
    {
      "inputs": [],
      "name": "requireOfferValidationInTransfer",
      "outputs": [
        {
          "internalType": "bool",
          "name": "",
          "type": "bool"
        }
      ],
      "stateMutability": "view",
      "type": "function"
    },
    {
      "inputs": [],
      "name": "requireOpenPackSignerValidation",
      "outputs": [
        {
          "internalType": "bool",
          "name": "",
          "type": "bool"
        }
      ],
      "stateMutability": "view",
      "type": "function"
    },
    {
      "inputs": [
        {
          "internalType": "address",
          "name": "user",
          "type": "address"
        },
        {
          "internalType": "uint8",
          "name": "cardNumber",
          "type": "uint8"
        }
      ],
      "name": "restoreCardByOffer",
      "outputs": [],
      "stateMutability": "nonpayable",
      "type": "function"
    },
    {
      "inputs": [
        {
          "internalType": "address",
          "name": "from",
          "type": "address"
        },
        {
          "internalType": "address",
          "name": "to",
          "type": "address"
        },
        {
          "internalType": "uint256",
          "name": "tokenId",
          "type": "uint256"
        }
      ],
      "name": "safeTransferFrom",
      "outputs": [],
      "stateMutability": "nonpayable",
      "type": "function"
    },
    {
      "inputs": [
        {
          "internalType": "address",
          "name": "from",
          "type": "address"
        },
        {
          "internalType": "address",
          "name": "to",
          "type": "address"
        },
        {
          "internalType": "uint256",
          "name": "tokenId",
          "type": "uint256"
        },
        {
          "internalType": "bytes",
          "name": "data",
          "type": "bytes"
        }
      ],
      "name": "safeTransferFrom",
      "outputs": [],
      "stateMutability": "nonpayable",
      "type": "function"
    },
    {
      "inputs": [],
      "name": "secondaryAlbumPrize",
      "outputs": [
        {
          "internalType": "uint256",
          "name": "",
          "type": "uint256"
        }
      ],
      "stateMutability": "view",
      "type": "function"
    },
    {
      "inputs": [],
      "name": "secondaryUri",
      "outputs": [
        {
          "internalType": "string",
          "name": "",
          "type": "string"
        }
      ],
      "stateMutability": "view",
      "type": "function"
    },
    {
      "inputs": [
        {
          "internalType": "address",
          "name": "operator",
          "type": "address"
        },
        {
          "internalType": "bool",
          "name": "approved",
          "type": "bool"
        }
      ],
      "name": "setApprovalForAll",
      "outputs": [],
      "stateMutability": "nonpayable",
      "type": "function"
    },
    {
      "inputs": [
        {
          "internalType": "address",
          "name": "_gammaOffersContract",
          "type": "address"
        }
      ],
      "name": "setGammaOffersContract",
      "outputs": [],
      "stateMutability": "nonpayable",
      "type": "function"
    },
    {
      "inputs": [
        {
          "internalType": "string",
          "name": "newMainUri",
          "type": "string"
        },
        {
          "internalType": "string",
          "name": "newSecondaryUri",
          "type": "string"
        }
      ],
      "name": "setUris",
      "outputs": [],
      "stateMutability": "nonpayable",
      "type": "function"
    },
    {
      "inputs": [
        {
          "internalType": "address",
          "name": "",
          "type": "address"
        }
      ],
      "name": "signers",
      "outputs": [
        {
          "internalType": "bool",
          "name": "",
          "type": "bool"
        }
      ],
      "stateMutability": "view",
      "type": "function"
    },
    {
      "inputs": [
        {
          "internalType": "bytes4",
          "name": "interfaceId",
          "type": "bytes4"
        }
      ],
      "name": "supportsInterface",
      "outputs": [
        {
          "internalType": "bool",
          "name": "",
          "type": "bool"
        }
      ],
      "stateMutability": "view",
      "type": "function"
    },
    {
      "inputs": [],
      "name": "symbol",
      "outputs": [
        {
          "internalType": "string",
          "name": "",
          "type": "string"
        }
      ],
      "stateMutability": "view",
      "type": "function"
    },
    {
      "inputs": [],
      "name": "testAddCards",
      "outputs": [],
      "stateMutability": "nonpayable",
      "type": "function"
    },
    {
      "inputs": [
        {
          "internalType": "uint256",
          "name": "packNumber",
          "type": "uint256"
        },
        {
          "internalType": "uint8[]",
          "name": "packData",
          "type": "uint8[]"
        }
      ],
      "name": "testOpenPack",
      "outputs": [],
      "stateMutability": "nonpayable",
      "type": "function"
    },
    {
      "inputs": [
        {
          "internalType": "uint256",
          "name": "tokenId",
          "type": "uint256"
        }
      ],
      "name": "tokenURI",
      "outputs": [
        {
          "internalType": "string",
          "name": "",
          "type": "string"
        }
      ],
      "stateMutability": "view",
      "type": "function"
    },
    {
      "inputs": [
        {
          "internalType": "address",
          "name": "to",
          "type": "address"
        },
        {
          "internalType": "uint8",
          "name": "cardNumber",
          "type": "uint8"
        }
      ],
      "name": "transferCard",
      "outputs": [],
      "stateMutability": "nonpayable",
      "type": "function"
    },
    {
      "inputs": [
        {
          "internalType": "address",
          "name": "to",
          "type": "address"
        },
        {
          "internalType": "uint8[]",
          "name": "cardNumbers",
          "type": "uint8[]"
        }
      ],
      "name": "transferCards",
      "outputs": [],
      "stateMutability": "nonpayable",
      "type": "function"
    },
    {
      "inputs": [
        {
          "internalType": "address",
          "name": "from",
          "type": "address"
        },
        {
          "internalType": "address",
          "name": "to",
          "type": "address"
        },
        {
          "internalType": "uint256",
          "name": "tokenId",
          "type": "uint256"
        }
      ],
      "name": "transferFrom",
      "outputs": [],
      "stateMutability": "nonpayable",
      "type": "function"
    },
    {
      "inputs": [
        {
          "internalType": "address",
          "name": "newOwner",
          "type": "address"
        }
      ],
      "name": "transferOwnership",
      "outputs": [],
      "stateMutability": "nonpayable",
      "type": "function"
    },
    {
      "inputs": [
        {
          "internalType": "uint256",
          "name": "packNumber",
          "type": "uint256"
        },
        {
          "internalType": "uint8[]",
          "name": "packData",
          "type": "uint8[]"
        },
        {
          "internalType": "bytes",
          "name": "signature",
          "type": "bytes"
        }
      ],
      "name": "verifyPackSigner",
      "outputs": [
        {
          "internalType": "address",
          "name": "signer",
          "type": "address"
        }
      ],
      "stateMutability": "view",
      "type": "function"
    }
  ],
  "bytecode": "0x60806040526710a741a462780000600c5567d02ab486cedc0000600f55670de0b6b3a76400006010553480156200003557600080fd5b50604051620059923803806200599283398101604081905262000058916200034f565b6040518060400160405280600a81526020016947616d6d61436172647360b01b815250604051806040016040528060068152602001654e4f465f474360d01b8152508160009081620000ab9190620004d1565b506001620000ba8282620004d1565b505050620000d7620000d1620002a060201b60201c565b620002a4565b600880546001600160a01b038086166001600160a01b031992831617909255600b805492871692909116919091179055600e620001158382620004d1565b5060408051808201825260018152602f60f81b60208083019190915282518084018452600381526203132360ec1b8183015283518085018552600681526523173539b7b760d11b8184015293516200017494600e94939091016200059d565b60405160208183030381529060405260119081620001939190620004d1565b5060408051808201825260018152602f60f81b60208083019190915282518084018452600381526231323160e81b8183015283518085018552600681526523173539b7b760d11b818401529351620001f294600e94939091016200059d565b60405160208183030381529060405260129081620002119190620004d1565b506001600160a01b0381166000908152601560205260408120805460ff19166001179055601380546201010062ffffff199091161790555b607a8110156200027a576000818152601760205260409020600190558062000271816200065a565b91505062000249565b5050336000908152601460205260409020805460ff191660011790555062000682915050565b3390565b600780546001600160a01b038381166001600160a01b0319831681179093556040519116919082907f8be0079c531659141344cd1fd0a4f28419497f9722a3daafe3b4186f6b6457e090600090a35050565b80516001600160a01b03811681146200030e57600080fd5b919050565b634e487b7160e01b600052604160045260246000fd5b60005b83811015620003465781810151838201526020016200032c565b50506000910152565b600080600080608085870312156200036657600080fd5b6200037185620002f6565b93506200038160208601620002f6565b60408601519093506001600160401b03808211156200039f57600080fd5b818701915087601f830112620003b457600080fd5b815181811115620003c957620003c962000313565b604051601f8201601f19908116603f01168101908382118183101715620003f457620003f462000313565b816040528281528a60208487010111156200040e57600080fd5b6200042183602083016020880162000329565b80965050505050506200043760608601620002f6565b905092959194509250565b600181811c908216806200045757607f821691505b6020821081036200047857634e487b7160e01b600052602260045260246000fd5b50919050565b601f821115620004cc57600081815260208120601f850160051c81016020861015620004a75750805b601f850160051c820191505b81811015620004c857828155600101620004b3565b5050505b505050565b81516001600160401b03811115620004ed57620004ed62000313565b6200050581620004fe845462000442565b846200047e565b602080601f8311600181146200053d5760008415620005245750858301515b600019600386901b1c1916600185901b178555620004c8565b600085815260208120601f198616915b828110156200056e578886015182559484019460019091019084016200054d565b50858210156200058d5787850151600019600388901b60f8161c191681555b5050505050600190811b01905550565b6000808654620005ad8162000442565b60018281168015620005c85760018114620005de576200060f565b60ff19841687528215158302870194506200060f565b8a60005260208060002060005b85811015620006065781548a820152908401908201620005eb565b50505082870194505b50505050855162000625818360208a0162000329565b85519101906200063a81836020890162000329565b84519101906200064f81836020880162000329565b019695505050505050565b6000600182016200067b57634e487b7160e01b600052601160045260246000fd5b5060010190565b61530080620006926000396000f3fe608060405234801561001057600080fd5b50600436106103d05760003560e01c80637e50fa8f116101ff578063aaaeca171161011a578063dec3f6d9116100ad578063e985e9c51161007c578063e985e9c514610928578063eb12d61e14610964578063f2fde38b14610977578063f98fd2831461098a57600080fd5b8063dec3f6d9146108f1578063e1883c6e146108f9578063e5db587a1461090c578063e606df871461091557600080fd5b8063c3461c07116100e9578063c3461c07146108b0578063c87b56dd146108b8578063d322b563146108cb578063dbfc05cf146108de57600080fd5b8063aaaeca171461086f578063ad1684fa14610877578063b88d4fde1461088a578063bf400a6a1461089d57600080fd5b806394e8f556116101925780639c7f707f116101615780639c7f707f1461082d5780639f4415d814610840578063a1af8ad414610849578063a22cb4651461085c57600080fd5b806394e8f556146107fd57806395d89b411461081057806396884135146108185780639abc83201461082557600080fd5b80638da5cb5b116101ce5780638da5cb5b146107605780638dc10768146107715780639038f414146107e357806391565664146107eb57600080fd5b80637e50fa8f146106ec578063809eb3551461070c5780638ba526fc1461073a5780638bf670c81461074d57600080fd5b80632f9e026a116102ef5780635dde20d81161028257806370a082311161025157806370a082311461069b578063715018a6146106ae5780637155a3ac146106b6578063736c0d5b146106c957600080fd5b80635dde20d8146106425780636352211e1461066257806368cc5bc1146106755780637065cb481461068857600080fd5b8063483823e8116102be578063483823e8146105e05780634e5ad318146105e9578063511b93071461061c5780635312ea8e1461062f57600080fd5b80632f9e026a14610590578063335c8b63146105a357806342842e0e146105ba57806342966c68146105cd57600080fd5b80631306952c1161036757806320965a5f1161033657806320965a5f1461054457806323b872dd14610557578063267b841d1461056a5780632ca699e71461057d57600080fd5b80631306952c146104bd578063155e2f92146104d05780631585cc4e146104e3578063173825d91461053157600080fd5b8063081812fc116103a3578063081812fc14610457578063095ea7b3146104825780630e316ab714610497578063128916dc146104aa57600080fd5b806301ffc9a7146103d5578063022914a7146103fd5780630435dcaf1461042057806306fdde0314610442575b600080fd5b6103e86103e3366004614460565b61099d565b60405190151581526020015b60405180910390f35b6103e861040b366004614492565b60146020526000908152604090205460ff1681565b61043361042e366004614492565b6109ef565b6040516103f4939291906144ed565b61044a610dac565b6040516103f491906145a8565b61046a6104653660046145bb565b610e3e565b6040516001600160a01b0390911681526020016103f4565b6104956104903660046145d4565b610e65565b005b6104956104a5366004614492565b610f7f565b6104956104b8366004614492565b6110c5565b61046a6104cb3660046146e2565b61116f565b6104956104de36600461477c565b61127d565b61051f6104f136600461477c565b6001600160a01b0391909116600090815260196020908152604080832060ff94851684529091529020541690565b60405160ff90911681526020016103f4565b61049561053f366004614492565b6112f9565b6104956105523660046147f5565b61143f565b610495610565366004614836565b61173f565b6104956105783660046146e2565b611771565b61049561058b36600461477c565b611c26565b60085461046a906001600160a01b031681565b6105ac600c5481565b6040519081526020016103f4565b6104956105c8366004614836565b611e30565b6104956105db3660046145bb565b611e4b565b6105ac60105481565b6103e86105f7366004614877565b33600090815260196020908152604080832060ff948516845290915290205416151590565b6013546103e89062010000900460ff1681565b61049561063d3660046145bb565b611e7c565b6105ac6106503660046145bb565b60176020526000908152604090205481565b61046a6106703660046145bb565b611f83565b6104956106833660046148a0565b611fe3565b610495610696366004614492565b61202e565b6105ac6106a9366004614492565b612110565b610495612196565b6104956106c436600461477c565b6121aa565b6103e86106d7366004614492565b60156020526000908152604090205460ff1681565b6105ac6106fa366004614492565b60186020526000908152604090205481565b61051f61071a36600461477c565b601960209081526000928352604080842090915290825290205460ff1681565b6104956107483660046145bb565b612209565b6103e861075b36600461477c565b61224d565b6007546001600160a01b031661046a565b6107b361077f3660046145bb565b60166020526000908152604090208054600182015460028301546003909301549192909160ff808316926101009004169085565b6040805195865260208601949094529115159284019290925260ff9091166060830152608082015260a0016103f4565b6104956122ab565b6013546103e890610100900460ff1681565b61049561080b3660046148bd565b6125a2565b61044a612833565b6013546103e89060ff1681565b61044a612842565b61049561083b36600461497a565b6128d0565b6105ac600f5481565b6104956108573660046149d3565b61294a565b61049561086a366004614a27565b612ca2565b610495612cad565b610495610885366004614a60565b612d43565b610495610898366004614ab8565b612efa565b6104956108ab366004614877565b612f2c565b61044a613142565b61044a6108c63660046145bb565b61314f565b60095461046a906001600160a01b031681565b6104956108ec3660046148a0565b61315a565b61044a61319c565b6104956109073660046145bb565b6131a9565b6105ac600d5481565b600b5461046a906001600160a01b031681565b6103e8610936366004614b37565b6001600160a01b03918216600090815260056020908152604080832093909416825291909152205460ff1690565b610495610972366004614492565b6131d8565b610495610985366004614492565b6132ba565b6104956109983660046148a0565b613330565b60006001600160e01b031982166380ac58cd60e01b14806109ce57506001600160e01b03198216635b5e139f60e01b145b806109e957506301ffc9a760e01b6001600160e01b03198316145b92915050565b604080516079808252610f408201909252606091829182916000919060208201610f20803683375050604080516079808252610f408201909252929350600092915060208201610f20803683375050604080516079808252610f408201909252929350600092915060208201610f20803683370190505090506000805b60778160ff1611610bd5576001600160a01b038916600090815260196020908152604080832060ff80861685529252909120541615610bc35780858360ff1681518110610abb57610abb614b65565b60ff9283166020918202929092018101919091526001600160a01b038b166000908152601982526040808220858516835290925220548551908216918691908516908110610b0b57610b0b614b65565b60ff90921660209283029190910190910152600954604051632edb5fcf60e01b81526001600160a01b0390911690632edb5fcf90610b4f908c908590600401614b7b565b602060405180830381865afa158015610b6c573d6000803e3d6000fd5b505050506040513d601f19601f82011682018060405250810190610b909190614b97565b838360ff1681518110610ba557610ba5614b65565b9115156020928302919091019091015281610bbf81614bca565b9250505b80610bcd81614bca565b915050610a6c565b5060008160ff166001600160401b03811115610bf357610bf3614600565b604051908082528060200260200182016040528015610c1c578160200160208202803683370190505b50905060008260ff166001600160401b03811115610c3c57610c3c614600565b604051908082528060200260200182016040528015610c65578160200160208202803683370190505b50905060008360ff166001600160401b03811115610c8557610c85614600565b604051908082528060200260200182016040528015610cae578160200160208202803683370190505b50905060005b8460ff168160ff161015610d9a57878160ff1681518110610cd757610cd7614b65565b6020026020010151848260ff1681518110610cf457610cf4614b65565b60ff9283166020918202929092010152875188918316908110610d1957610d19614b65565b6020026020010151838260ff1681518110610d3657610d36614b65565b60ff9283166020918202929092010152865187918316908110610d5b57610d5b614b65565b6020026020010151828260ff1681518110610d7857610d78614b65565b9115156020928302919091019091015280610d9281614bca565b915050610cb4565b50919a90995090975095505050505050565b606060008054610dbb90614be9565b80601f0160208091040260200160405190810160405280929190818152602001828054610de790614be9565b8015610e345780601f10610e0957610100808354040283529160200191610e34565b820191906000526020600020905b815481529060010190602001808311610e1757829003601f168201915b5050505050905090565b6000610e4982613379565b506000908152600460205260409020546001600160a01b031690565b6000610e7082611f83565b9050806001600160a01b0316836001600160a01b031603610ee25760405162461bcd60e51b815260206004820152602160248201527f4552433732313a20617070726f76616c20746f2063757272656e74206f776e656044820152603960f91b60648201526084015b60405180910390fd5b336001600160a01b0382161480610efe5750610efe8133610936565b610f705760405162461bcd60e51b815260206004820152603d60248201527f4552433732313a20617070726f76652063616c6c6572206973206e6f7420746f60448201527f6b656e206f776e6572206f7220617070726f76656420666f7220616c6c0000006064820152608401610ed9565b610f7a83836133d8565b505050565b3360009081526014602052604090205460ff16610fae5760405162461bcd60e51b8152600401610ed990614c23565b6001600160a01b038116610fd45760405162461bcd60e51b8152600401610ed990614c66565b336001600160a01b0382160361103c5760405162461bcd60e51b815260206004820152602760248201527f596f752063616e6e6f742072656d6f766520796f757273656c6620617320612060448201526639b4b3b732b91760c91b6064820152608401610ed9565b6001600160a01b03811660009081526015602052604090205460ff166110a45760405162461bcd60e51b815260206004820152601960248201527f41646472657373206973206e6f7420616e207369676e65722e000000000000006044820152606401610ed9565b6001600160a01b03166000908152601560205260409020805460ff19169055565b3360009081526014602052604090205460ff166110f45760405162461bcd60e51b8152600401610ed990614c23565b6001600160a01b03811661111a5760405162461bcd60e51b8152600401610ed990614c66565b600980546001600160a01b0319166001600160a01b0383169081179091556040519081527f538b3425a321783393ad250db10356b8b3523ef29a40de015c5218213de0ead0906020015b60405180910390a150565b6000806111ea33878760405160200161118a93929190614c90565b60408051601f1981840301815282825280516020918201207f19457468657265756d205369676e6564204d6573736167653a0a33320000000084830152603c8085019190915282518085039091018152605c909301909152815191012090565b9050600061123085858080601f01602080910402602001604051908101604052809392919081815260200183838082843760009201919091525086939250506134469050565b90506112716040518060400160405280601a81526020017f6f70656e207061636b207369676e6572207265636f76657265640000000000008152508261346a565b9150505b949350505050565b6009546001600160a01b031633146112a75760405162461bcd60e51b8152600401610ed990614d1e565b6001600160a01b038216600090815260196020908152604080832060ff8086168552925282208054909116916112dc83614bca565b91906101000a81548160ff021916908360ff160217905550505050565b3360009081526014602052604090205460ff166113285760405162461bcd60e51b8152600401610ed990614c23565b6001600160a01b03811661134e5760405162461bcd60e51b8152600401610ed990614c66565b336001600160a01b038216036113b65760405162461bcd60e51b815260206004820152602760248201527f596f752063616e6e6f742072656d6f766520796f757273656c6620617320616e6044820152661037bbb732b91760c91b6064820152608401610ed9565b6001600160a01b03811660009081526014602052604090205460ff1661141e5760405162461bcd60e51b815260206004820152601860248201527f41646472657373206973206e6f7420616e206f776e65722e00000000000000006044820152606401610ed9565b6001600160a01b03166000908152601460205260409020805460ff19169055565b3360009081526019602090815260408083206079845290915290205460ff166114aa5760405162461bcd60e51b815260206004820152601860248201527f4e6f207469656e657320616c62756d206465207175656d6100000000000000006044820152606401610ed9565b336000908152601960209081526040808320607984529091528120805460ff16916114d483614d70565b825460ff9182166101009390930a9283029190920219909116179055503360009081526018602052604081208054839290611510908490614d8d565b90915550600090505b60ff81168211156115b15733600090815260196020526040812090848460ff851681811061154957611549614b65565b905060200201602081019061155e9190614877565b60ff9081168252602082019290925260400160009081208054909216919061158583614d70565b91906101000a81548160ff021916908360ff1602179055505080806115a990614bca565b915050611519565b50336000908152601860205260409020546115ce90603c90614db6565b60000361173b5761166d33601280546115e690614be9565b80601f016020809104026020016040519081016040528092919081815260200182805461161290614be9565b801561165f5780601f106116345761010080835404028352916020019161165f565b820191906000526020600020905b81548152906001019060200180831161164257829003601f168201915b5050505050607960026134af565b600f54600d60008282546116819190614dca565b9091555050600b5460105460405163a9059cbb60e01b815233600482015260248101919091526001600160a01b039091169063a9059cbb906044016020604051808303816000875af11580156116db573d6000803e3d6000fd5b505050506040513d601f19601f820116820180604052508101906116ff9190614b97565b507f6d0344e2059f835240cb954cce07d4b26f0d0844eecc234f7ee0e292ba80a1aa336002604051611732929190614b7b565b60405180910390a15b5050565b61174a335b82613512565b6117665760405162461bcd60e51b8152600401610ed990614ddd565b610f7a838383613590565b60085460405163d3e6a7ad60e01b81526004810186905233916001600160a01b03169063d3e6a7ad90602401602060405180830381865afa1580156117ba573d6000803e3d6000fd5b505050506040513d601f19601f820116820180604052508101906117de9190614e2a565b6001600160a01b0316146118345760405162461bcd60e51b815260206004820152601760248201527f546869732063617264206973206e6f7420796f7572732e0000000000000000006044820152606401610ed9565b600f83511061187b5760405162461bcd60e51b815260206004820152601360248201527210d85c99081b1a5b5a5d08195e18d959591959606a1b6044820152606401610ed9565b60135460ff16156119875760006118a033868660405160200161118a93929190614c90565b905060006118e684848080601f01602080910402602001604051908101604052809392919081815260200183838082843760009201919091525086939250506134469050565b90506119276040518060400160405280601a81526020017f6f70656e207061636b207369676e6572207265636f76657265640000000000008152508261346a565b6001600160a01b03811660009081526015602052604090205460ff166119845760405162461bcd60e51b815260206004820152601260248201527124b73b30b634b21039b4b3b730ba3ab9329760711b6044820152606401610ed9565b50505b6008546040516380f2540b60e01b8152600481018690523360248201526001600160a01b03909116906380f2540b90604401600060405180830381600087803b1580156119d357600080fd5b505af11580156119e7573d6000803e3d6000fd5b505050506006600c546119fa9190614e47565b600c54611a079190614dca565b600d6000828254611a189190614d8d565b9091555050825160005b818160ff161015611be357848160ff1681518110611a4257611a42614b65565b602002602001015160ff16607814611a905761138960176000878460ff1681518110611a7057611a70614b65565b602002602001015160ff1681526020019081526020016000205410611ac1565b607860005260176020527f1e0e657bdfc7d3d523657bb82aa6f2c628a4caf6e2f7839556e82479d4362f0654610bb9115b611b0d5760405162461bcd60e51b815260206004820152601e60248201527f696e76616c69642063617264496e76656e746f727920706f736974696f6e00006044820152606401610ed9565b60176000868360ff1681518110611b2657611b26614b65565b602002602001015160ff1681526020019081526020016000206000815480929190611b5090614e5b565b90915550503360009081526019602052604081208651909190879060ff8516908110611b7e57611b7e614b65565b602002602001015160ff1660ff168152602001908152602001600020600081819054906101000a900460ff1680929190611bb790614bca565b91906101000a81548160ff021916908360ff160217905550508080611bdb90614bca565b915050611a22565b507fbabe8f5e83e93ab103ddf917b4292a19335a5128b3530bedd896a681cdd945e3338587604051611c1793929190614e74565b60405180910390a15050505050565b33600090815260196020908152604080832060ff808616855292529091205416611c625760405162461bcd60e51b8152600401610ed990614ea8565b336001600160a01b03831603611cba5760405162461bcd60e51b815260206004820152601960248201527f4f776e207472616e73666572206e6f7420616c6c6f7765642e000000000000006044820152606401610ed9565b6001600160a01b038216611ce05760405162461bcd60e51b8152600401610ed990614c66565b60135462010000900460ff1615611db557600954604051632edb5fcf60e01b81526000916001600160a01b031690632edb5fcf90611d249033908690600401614b7b565b602060405180830381865afa158015611d41573d6000803e3d6000fd5b505050506040513d601f19601f82011682018060405250810190611d659190614b97565b33600090815260196020908152604080832060ff80881685529252909120549192506001911611811580611d965750805b611db25760405162461bcd60e51b8152600401610ed990614edf565b50505b33600090815260196020908152604080832060ff808616855292528220805490911691611de183614d70565b82546101009290920a60ff8181021990931691831602179091556001600160a01b038416600090815260196020908152604080832086851684529091528120805490921692506112dc83614bca565b610f7a83838360405180602001604052806000815250612efa565b611e5433611744565b611e705760405162461bcd60e51b8152600401610ed990614ddd565b611e7981613701565b50565b3360009081526014602052604090205460ff16611eab5760405162461bcd60e51b8152600401610ed990614c23565b80611eb530612110565b1015611ec057600080fd5b80600d6000828254611ed29190614dca565b9091555050600b5460405163a9059cbb60e01b8152336004820152602481018390526001600160a01b039091169063a9059cbb906044016020604051808303816000875af1158015611f28573d6000803e3d6000fd5b505050506040513d601f19601f82011682018060405250810190611f4c9190614b97565b5060408051338152602081018390527f23d6711a1d031134a36921253c75aa59e967d38e369ac625992824315e204f209101611164565b6000818152600260205260408120546001600160a01b0316806109e95760405162461bcd60e51b8152602060048201526018602482015277115490cdcc8c4e881a5b9d985b1a59081d1bdad95b88125160421b6044820152606401610ed9565b3360009081526014602052604090205460ff166120125760405162461bcd60e51b8152600401610ed990614c23565b60138054911515620100000262ff000019909216919091179055565b3360009081526014602052604090205460ff1661205d5760405162461bcd60e51b8152600401610ed990614c23565b6001600160a01b0381166120835760405162461bcd60e51b8152600401610ed990614c66565b6001600160a01b03811660009081526014602052604090205460ff16156120ec5760405162461bcd60e51b815260206004820152601c60248201527f4164647265737320697320616c726561647920616e206f776e65722e000000006044820152606401610ed9565b6001600160a01b03166000908152601460205260409020805460ff19166001179055565b60006001600160a01b03821661217a5760405162461bcd60e51b815260206004820152602960248201527f4552433732313a2061646472657373207a65726f206973206e6f7420612076616044820152683634b21037bbb732b960b91b6064820152608401610ed9565b506001600160a01b031660009081526003602052604090205490565b61219e61370a565b6121a86000613764565b565b6009546001600160a01b031633146121d45760405162461bcd60e51b8152600401610ed990614d1e565b6001600160a01b038216600090815260196020908152604080832060ff8086168552925282208054909116916112dc83614d70565b6008546001600160a01b031633146122335760405162461bcd60e51b8152600401610ed990614f2f565b80600d60008282546122459190614d8d565b909155505050565b6009546000906001600160a01b0316331461227a5760405162461bcd60e51b8152600401610ed990614d1e565b506001600160a01b0391909116600090815260196020908152604080832060ff948516845290915290205416151590565b3360009081526019602090815260408083206078845290915290205460ff166123165760405162461bcd60e51b815260206004820152601c60248201527f596f7520646f6573206e6f74206861766520616e7920616c62756d2e000000006044820152606401610ed9565b600f54600d5410156123605760405162461bcd60e51b815260206004820152601360248201527224b739bab33334b1b4b2b73a10333ab732399760691b6044820152606401610ed9565b6000805b60798160ff1610156123f65733600090815260196020908152604080832060ff8086168552925282205416900361239e57600191506123f6565b33600090815260196020908152604080832060ff8086168552925282208054909116916123ca83614d70565b91906101000a81548160ff021916908360ff1602179055505080806123ee90614bca565b915050612364565b5080156124455760405162461bcd60e51b815260206004820152601860248201527f4d75737420636f6d706c6574652074686520616c62756d2e00000000000000006044820152606401610ed9565b6124dd336011805461245690614be9565b80601f016020809104026020016040519081016040528092919081815260200182805461248290614be9565b80156124cf5780601f106124a4576101008083540402835291602001916124cf565b820191906000526020600020905b8154815290600101906020018083116124b257829003601f168201915b5050505050607860026134af565b600f54600d60008282546124f19190614dca565b9091555050600b54600f5460405163a9059cbb60e01b815233600482015260248101919091526001600160a01b039091169063a9059cbb906044016020604051808303816000875af115801561254b573d6000803e3d6000fd5b505050506040513d601f19601f8201168201806040525081019061256f9190614b97565b507f6d0344e2059f835240cb954cce07d4b26f0d0844eecc234f7ee0e292ba80a1aa336001604051611164929190614b7b565b3360009081526014602052604090205460ff166125d15760405162461bcd60e51b8152600401610ed990614c23565b6008546040516380f2540b60e01b8152600481018490523360248201526001600160a01b03909116906380f2540b90604401600060405180830381600087803b15801561261d57600080fd5b505af1158015612631573d6000803e3d6000fd5b505050506006600c546126449190614e47565b600c546126519190614dca565b600d60008282546126629190614d8d565b9091555050805160005b818160ff16101561282d57828160ff168151811061268c5761268c614b65565b602002602001015160ff166078146126da5761138960176000858460ff16815181106126ba576126ba614b65565b602002602001015160ff168152602001908152602001600020541061270b565b607860005260176020527f1e0e657bdfc7d3d523657bb82aa6f2c628a4caf6e2f7839556e82479d4362f0654610bb9115b6127575760405162461bcd60e51b815260206004820152601e60248201527f696e76616c69642063617264496e76656e746f727920706f736974696f6e00006044820152606401610ed9565b60176000848360ff168151811061277057612770614b65565b602002602001015160ff168152602001908152602001600020600081548092919061279a90614e5b565b90915550503360009081526019602052604081208451909190859060ff85169081106127c8576127c8614b65565b602002602001015160ff1660ff168152602001908152602001600020600081819054906101000a900460ff168092919061280190614bca565b91906101000a81548160ff021916908360ff16021790555050808061282590614bca565b91505061266c565b50505050565b606060018054610dbb90614be9565b600e805461284f90614be9565b80601f016020809104026020016040519081016040528092919081815260200182805461287b90614be9565b80156128c85780601f1061289d576101008083540402835291602001916128c8565b820191906000526020600020905b8154815290600101906020018083116128ab57829003601f168201915b505050505081565b3360009081526014602052604090205460ff166128ff5760405162461bcd60e51b8152600401610ed990614c23565b601161290b8382614fce565b5060126129188282614fce565b507fabfd337ac5625b7dc2ddd3d3bd465fb1dec15322eeeed81032268b337880bec6828260405161173292919061508d565b336001600160a01b038416036129ad5760405162461bcd60e51b815260206004820152602260248201527f596f752063616e6e6f742073656e6420636172647320746f20796f757273656c604482015261331760f11b6064820152608401610ed9565b6001600160a01b0383166129d35760405162461bcd60e51b8152600401610ed990614c66565b60005b60ff811682111561282d5733600090815260196020526040812081858560ff8616818110612a0657612a06614b65565b9050602002016020810190612a1b9190614877565b60ff90811682526020820192909252604001600020541611612a4f5760405162461bcd60e51b8152600401610ed990614ea8565b33600090815260196020526040812090848460ff8516818110612a7457612a74614b65565b9050602002016020810190612a899190614877565b60ff90811682526020820192909252604001600090812080549092169190612ab083614d70565b91906101000a81548160ff021916908360ff1602179055505060196000856001600160a01b03166001600160a01b03168152602001908152602001600020600084848460ff16818110612b0557612b05614b65565b9050602002016020810190612b1a9190614877565b60ff90811682526020820192909252604001600090812080549092169190612b4183614bca565b91906101000a81548160ff021916908360ff16021790555050601360029054906101000a900460ff1615612c90576009546000906001600160a01b0316632edb5fcf33868660ff8716818110612b9957612b99614b65565b9050602002016020810190612bae9190614877565b6040518363ffffffff1660e01b8152600401612bcb929190614b7b565b602060405180830381865afa158015612be8573d6000803e3d6000fd5b505050506040513d601f19601f82011682018060405250810190612c0c9190614b97565b3360009081526019602052604081209192509060019082878760ff8816818110612c3857612c38614b65565b9050602002016020810190612c4d9190614877565b60ff908116825260208201929092526040016000205416119050811580612c715750805b612c8d5760405162461bcd60e51b8152600401610ed990614edf565b50505b80612c9a81614bca565b9150506129d6565b61173b3383836137b6565b3360009081526014602052604090205460ff16612cdc5760405162461bcd60e51b8152600401610ed990614c23565b60005b60798160ff161015611e795733600090815260196020908152604080832060ff808616855292528220805490911691612d1783614bca565b91906101000a81548160ff021916908360ff160217905550508080612d3b90614bca565b915050612cdf565b6009546001600160a01b03163314612d6d5760405162461bcd60e51b8152600401610ed990614d1e565b6001600160a01b038416612d935760405162461bcd60e51b8152600401610ed990614c66565b6001600160a01b038216612db95760405162461bcd60e51b8152600401610ed990614c66565b6001600160a01b038416600090815260196020908152604080832060ff808816855292528220805490911691612dee83614d70565b82546101009290920a60ff8181021990931691831602179091556001600160a01b03841660009081526019602090815260408083208885168452909152812080549092169250612e3d83614bca565b82546101009290920a60ff8181021990931691831602179091556001600160a01b03841660009081526019602090815260408083208685168452909152812080549092169250612e8c83614d70565b82546101009290920a60ff8181021990931691831602179091556001600160a01b03861660009081526019602090815260408083208685168452909152812080549092169250612edb83614bca565b91906101000a81548160ff021916908360ff1602179055505050505050565b612f043383613512565b612f205760405162461bcd60e51b8152600401610ed990614ddd565b61282d84848484613884565b33600090815260196020908152604080832060ff808616855292529091205416612f685760405162461bcd60e51b8152600401610ed990614ea8565b601354610100900460ff161561308157600954604051632edb5fcf60e01b81526000916001600160a01b031690632edb5fcf90612fab9033908690600401614b7b565b602060405180830381865afa158015612fc8573d6000803e3d6000fd5b505050506040513d601f19601f82011682018060405250810190612fec9190614b97565b33600090815260196020908152604080832060ff8088168552925290912054919250600191161181158061301d5750805b61307e5760405162461bcd60e51b815260206004820152602c60248201527f5468697320636172642068617320616e206f666665722c2069742063616e6e6f60448201526b3a1031329036b4b73a32b21760a11b6064820152608401610ed9565b50505b33600090815260196020908152604080832060ff8086168552925282208054909116916130ad83614d70565b91906101000a81548160ff021916908360ff160217905550506000600e604051806040016040528060018152602001602f60f81b8152506130f08460ff166138b7565b60405180604001604052806005815260200164173539b7b760d91b81525060405160200161312194939291906150bb565b604051602081830303815290604052905061173b33828460ff1660016134af565b6011805461284f90614be9565b60606109e9826139b7565b3360009081526014602052604090205460ff166131895760405162461bcd60e51b8152600401610ed990614c23565b6013805460ff1916911515919091179055565b6012805461284f90614be9565b6008546001600160a01b031633146131d35760405162461bcd60e51b8152600401610ed990614f2f565b600c55565b3360009081526014602052604090205460ff166132075760405162461bcd60e51b8152600401610ed990614c23565b6001600160a01b03811661322d5760405162461bcd60e51b8152600401610ed990614c66565b6001600160a01b03811660009081526015602052604090205460ff16156132965760405162461bcd60e51b815260206004820152601c60248201527f4164647265737320697320616c726561647920616e206f776e65722e000000006044820152606401610ed9565b6001600160a01b03166000908152601560205260409020805460ff19166001179055565b6132c261370a565b6001600160a01b0381166133275760405162461bcd60e51b815260206004820152602660248201527f4f776e61626c653a206e6577206f776e657220697320746865207a65726f206160448201526564647265737360d01b6064820152608401610ed9565b611e7981613764565b3360009081526014602052604090205460ff1661335f5760405162461bcd60e51b8152600401610ed990614c23565b601380549115156101000261ff0019909216919091179055565b6000818152600260205260409020546001600160a01b0316611e795760405162461bcd60e51b8152602060048201526018602482015277115490cdcc8c4e881a5b9d985b1a59081d1bdad95b88125160421b6044820152606401610ed9565b600081815260046020526040902080546001600160a01b0319166001600160a01b038416908117909155819061340d82611f83565b6001600160a01b03167f8c5be1e5ebec7d5bd14f71427d1e84f3dd0314c0f7b2291e5b200ac8c7c3b92560405160405180910390a45050565b60008060006134558585613abf565b9150915061346281613b04565b509392505050565b61173b828260405160240161348092919061516a565b60408051601f198184030181529190526020810180516001600160e01b031663319af33360e01b179052613c4e565b60006134ba600a5490565b90506134ca600a80546001019055565b600081815260166020526040902081815560018101849055600201805461ff00191661010060ff8516021790556135018582613c57565b61350b8185613c71565b5050505050565b60008061351e83611f83565b9050806001600160a01b0316846001600160a01b0316148061356557506001600160a01b0380821660009081526005602090815260408083209388168352929052205460ff165b806112755750836001600160a01b031661357e84610e3e565b6001600160a01b031614949350505050565b826001600160a01b03166135a382611f83565b6001600160a01b0316146135c95760405162461bcd60e51b8152600401610ed990615194565b6001600160a01b03821661362b5760405162461bcd60e51b8152602060048201526024808201527f4552433732313a207472616e7366657220746f20746865207a65726f206164646044820152637265737360e01b6064820152608401610ed9565b6136388383836001613d04565b826001600160a01b031661364b82611f83565b6001600160a01b0316146136715760405162461bcd60e51b8152600401610ed990615194565b600081815260046020908152604080832080546001600160a01b03199081169091556001600160a01b0387811680865260038552838620805460001901905590871680865283862080546001019055868652600290945282852080549092168417909155905184937fddf252ad1be2c89b69c2b068fc378daa952ba7f163c4a11628f55a4df523b3ef91a4505050565b611e7981613d8c565b6007546001600160a01b031633146121a85760405162461bcd60e51b815260206004820181905260248201527f4f776e61626c653a2063616c6c6572206973206e6f7420746865206f776e65726044820152606401610ed9565b600780546001600160a01b038381166001600160a01b0319831681179093556040519116919082907f8be0079c531659141344cd1fd0a4f28419497f9722a3daafe3b4186f6b6457e090600090a35050565b816001600160a01b0316836001600160a01b0316036138175760405162461bcd60e51b815260206004820152601960248201527f4552433732313a20617070726f766520746f2063616c6c6572000000000000006044820152606401610ed9565b6001600160a01b03838116600081815260056020908152604080832094871680845294825291829020805460ff191686151590811790915591519182527f17307eab39ab6107e8899845ad3d59bd9653f200f220920489ca2b5937696c31910160405180910390a3505050565b61388f848484613590565b61389b84848484613dcc565b61282d5760405162461bcd60e51b8152600401610ed9906151d9565b6060816000036138de5750506040805180820190915260018152600360fc1b602082015290565b8160005b811561390857806138f281614e5b565b91506139019050600a83614e47565b91506138e2565b6000816001600160401b0381111561392257613922614600565b6040519080825280601f01601f19166020018201604052801561394c576020820181803683370190505b5090505b841561127557613961600183614dca565b915061396e600a86614db6565b613979906030614d8d565b60f81b81838151811061398e5761398e614b65565b60200101906001600160f81b031916908160001a9053506139b0600a86614e47565b9450613950565b60606139c282613379565b600082815260066020526040812080546139db90614be9565b80601f0160208091040260200160405190810160405280929190818152602001828054613a0790614be9565b8015613a545780601f10613a2957610100808354040283529160200191613a54565b820191906000526020600020905b815481529060010190602001808311613a3757829003601f168201915b505050505090506000613a7260408051602081019091526000815290565b90508051600003613a84575092915050565b815115613ab6578082604051602001613a9e92919061522b565b60405160208183030381529060405292505050919050565b61127584613eca565b6000808251604103613af55760208301516040840151606085015160001a613ae987828585613f3e565b94509450505050613afd565b506000905060025b9250929050565b6000816004811115613b1857613b1861525a565b03613b205750565b6001816004811115613b3457613b3461525a565b03613b815760405162461bcd60e51b815260206004820152601860248201527f45434453413a20696e76616c6964207369676e617475726500000000000000006044820152606401610ed9565b6002816004811115613b9557613b9561525a565b03613be25760405162461bcd60e51b815260206004820152601f60248201527f45434453413a20696e76616c6964207369676e6174757265206c656e677468006044820152606401610ed9565b6003816004811115613bf657613bf661525a565b03611e795760405162461bcd60e51b815260206004820152602260248201527f45434453413a20696e76616c6964207369676e6174757265202773272076616c604482015261756560f01b6064820152608401610ed9565b611e7981614002565b61173b828260405180602001604052806000815250614023565b6000828152600260205260409020546001600160a01b0316613cec5760405162461bcd60e51b815260206004820152602e60248201527f45524337323155524953746f726167653a2055524920736574206f66206e6f6e60448201526d32bc34b9ba32b73a103a37b5b2b760911b6064820152608401610ed9565b6000828152600660205260409020610f7a8282614fce565b600181111561282d576001600160a01b03841615613d4a576001600160a01b03841660009081526003602052604081208054839290613d44908490614dca565b90915550505b6001600160a01b0383161561282d576001600160a01b03831660009081526003602052604081208054839290613d81908490614d8d565b909155505050505050565b613d9581614056565b60008181526006602052604090208054613dae90614be9565b159050611e79576000818152600660205260408120611e79916143fc565b60006001600160a01b0384163b15613ec257604051630a85bd0160e11b81526001600160a01b0385169063150b7a0290613e10903390899088908890600401615270565b6020604051808303816000875af1925050508015613e4b575060408051601f3d908101601f19168201909252613e48918101906152ad565b60015b613ea8573d808015613e79576040519150601f19603f3d011682016040523d82523d6000602084013e613e7e565b606091505b508051600003613ea05760405162461bcd60e51b8152600401610ed9906151d9565b805181602001fd5b6001600160e01b031916630a85bd0160e11b149050611275565b506001611275565b6060613ed582613379565b6000613eec60408051602081019091526000815290565b90506000815111613f0c5760405180602001604052806000815250613f37565b80613f16846140f9565b604051602001613f2792919061522b565b6040516020818303038152906040525b9392505050565b6000807f7fffffffffffffffffffffffffffffff5d576e7357a4501ddfe92f46681b20a0831115613f755750600090506003613ff9565b6040805160008082526020820180845289905260ff881692820192909252606081018690526080810185905260019060a0016020604051602081039080840390855afa158015613fc9573d6000803e3d6000fd5b5050604051601f1901519150506001600160a01b038116613ff257600060019250925050613ff9565b9150600090505b94509492505050565b60006a636f6e736f6c652e6c6f679050600080835160208501845afa505050565b61402d838361418b565b61403a6000848484613dcc565b610f7a5760405162461bcd60e51b8152600401610ed9906151d9565b600061406182611f83565b9050614071816000846001613d04565b61407a82611f83565b600083815260046020908152604080832080546001600160a01b03199081169091556001600160a01b0385168085526003845282852080546000190190558785526002909352818420805490911690555192935084927fddf252ad1be2c89b69c2b068fc378daa952ba7f163c4a11628f55a4df523b3ef908390a45050565b6060600061410683614324565b60010190506000816001600160401b0381111561412557614125614600565b6040519080825280601f01601f19166020018201604052801561414f576020820181803683370190505b5090508181016020015b600019016f181899199a1a9b1b9c1cb0b131b232b360811b600a86061a8153600a850494508461415957509392505050565b6001600160a01b0382166141e15760405162461bcd60e51b815260206004820181905260248201527f4552433732313a206d696e7420746f20746865207a65726f20616464726573736044820152606401610ed9565b6000818152600260205260409020546001600160a01b0316156142465760405162461bcd60e51b815260206004820152601c60248201527f4552433732313a20746f6b656e20616c7265616479206d696e746564000000006044820152606401610ed9565b614254600083836001613d04565b6000818152600260205260409020546001600160a01b0316156142b95760405162461bcd60e51b815260206004820152601c60248201527f4552433732313a20746f6b656e20616c7265616479206d696e746564000000006044820152606401610ed9565b6001600160a01b038216600081815260036020908152604080832080546001019055848352600290915280822080546001600160a01b0319168417905551839291907fddf252ad1be2c89b69c2b068fc378daa952ba7f163c4a11628f55a4df523b3ef908290a45050565b60008072184f03e93ff9f4daa797ed6e38ed64bf6a1f0160401b83106143635772184f03e93ff9f4daa797ed6e38ed64bf6a1f0160401b830492506040015b6d04ee2d6d415b85acef8100000000831061438f576d04ee2d6d415b85acef8100000000830492506020015b662386f26fc1000083106143ad57662386f26fc10000830492506010015b6305f5e10083106143c5576305f5e100830492506008015b61271083106143d957612710830492506004015b606483106143eb576064830492506002015b600a83106109e95760010192915050565b50805461440890614be9565b6000825580601f10614418575050565b601f016020900490600052602060002090810190611e7991905b808211156144465760008155600101614432565b5090565b6001600160e01b031981168114611e7957600080fd5b60006020828403121561447257600080fd5b8135613f378161444a565b6001600160a01b0381168114611e7957600080fd5b6000602082840312156144a457600080fd5b8135613f378161447d565b600081518084526020808501945080840160005b838110156144e257815160ff16875295820195908201906001016144c3565b509495945050505050565b60608152600061450060608301866144af565b60208382038185015261451382876144af565b8481036040860152855180825282870193509082019060005b8181101561454a57845115158352938301939183019160010161452c565b509098975050505050505050565b60005b8381101561457357818101518382015260200161455b565b50506000910152565b60008151808452614594816020860160208601614558565b601f01601f19169290920160200192915050565b602081526000613f37602083018461457c565b6000602082840312156145cd57600080fd5b5035919050565b600080604083850312156145e757600080fd5b82356145f28161447d565b946020939093013593505050565b634e487b7160e01b600052604160045260246000fd5b604051601f8201601f191681016001600160401b038111828210171561463e5761463e614600565b604052919050565b803560ff8116811461465757600080fd5b919050565b600082601f83011261466d57600080fd5b813560206001600160401b0382111561468857614688614600565b8160051b614697828201614616565b92835284810182019282810190878511156146b157600080fd5b83870192505b848310156146d7576146c883614646565b825291830191908301906146b7565b979650505050505050565b600080600080606085870312156146f857600080fd5b8435935060208501356001600160401b038082111561471657600080fd5b6147228883890161465c565b9450604087013591508082111561473857600080fd5b818701915087601f83011261474c57600080fd5b81358181111561475b57600080fd5b88602082850101111561476d57600080fd5b95989497505060200194505050565b6000806040838503121561478f57600080fd5b823561479a8161447d565b91506147a860208401614646565b90509250929050565b60008083601f8401126147c357600080fd5b5081356001600160401b038111156147da57600080fd5b6020830191508360208260051b8501011115613afd57600080fd5b6000806020838503121561480857600080fd5b82356001600160401b0381111561481e57600080fd5b61482a858286016147b1565b90969095509350505050565b60008060006060848603121561484b57600080fd5b83356148568161447d565b925060208401356148668161447d565b929592945050506040919091013590565b60006020828403121561488957600080fd5b613f3782614646565b8015158114611e7957600080fd5b6000602082840312156148b257600080fd5b8135613f3781614892565b600080604083850312156148d057600080fd5b8235915060208301356001600160401b038111156148ed57600080fd5b6148f98582860161465c565b9150509250929050565b60006001600160401b0383111561491c5761491c614600565b61492f601f8401601f1916602001614616565b905082815283838301111561494357600080fd5b828260208301376000602084830101529392505050565b600082601f83011261496b57600080fd5b613f3783833560208501614903565b6000806040838503121561498d57600080fd5b82356001600160401b03808211156149a457600080fd5b6149b08683870161495a565b935060208501359150808211156149c657600080fd5b506148f98582860161495a565b6000806000604084860312156149e857600080fd5b83356149f38161447d565b925060208401356001600160401b03811115614a0e57600080fd5b614a1a868287016147b1565b9497909650939450505050565b60008060408385031215614a3a57600080fd5b8235614a458161447d565b91506020830135614a5581614892565b809150509250929050565b60008060008060808587031215614a7657600080fd5b8435614a818161447d565b9350614a8f60208601614646565b92506040850135614a9f8161447d565b9150614aad60608601614646565b905092959194509250565b60008060008060808587031215614ace57600080fd5b8435614ad98161447d565b93506020850135614ae98161447d565b92506040850135915060608501356001600160401b03811115614b0b57600080fd5b8501601f81018713614b1c57600080fd5b614b2b87823560208401614903565b91505092959194509250565b60008060408385031215614b4a57600080fd5b8235614b558161447d565b91506020830135614a558161447d565b634e487b7160e01b600052603260045260246000fd5b6001600160a01b0392909216825260ff16602082015260400190565b600060208284031215614ba957600080fd5b8151613f3781614892565b634e487b7160e01b600052601160045260246000fd5b600060ff821660ff8103614be057614be0614bb4565b60010192915050565b600181811c90821680614bfd57607f821691505b602082108103614c1d57634e487b7160e01b600052602260045260246000fd5b50919050565b60208082526023908201527f4f6e6c79206f776e6572732063616e2063616c6c20746869732066756e63746960408201526237b71760e91b606082015260800190565b60208082526010908201526f24b73b30b634b21030b2323932b9b99760811b604082015260600190565b6bffffffffffffffffffffffff198460601b1681528260148201526000603482018351602080860160005b83811015614cda57815160ff1685529382019390820190600101614cbb565b50507f30786631644437313839356534396231353633363933393639646535303839388352693139376344463334383160b01b9083015250602a0195945050505050565b60208082526032908201527f4f6e6c792067616d6d61206f666665727320636f6e74726163742063616e206360408201527130b636103a3434b990333ab731ba34b7b71760711b606082015260800190565b600060ff821680614d8357614d83614bb4565b6000190192915050565b808201808211156109e9576109e9614bb4565b634e487b7160e01b600052601260045260246000fd5b600082614dc557614dc5614da0565b500690565b818103818111156109e9576109e9614bb4565b6020808252602d908201527f4552433732313a2063616c6c6572206973206e6f7420746f6b656e206f776e6560408201526c1c881bdc88185c1c1c9bdd9959609a1b606082015260800190565b600060208284031215614e3c57600080fd5b8151613f378161447d565b600082614e5657614e56614da0565b500490565b600060018201614e6d57614e6d614bb4565b5060010190565b6001600160a01b0384168152606060208201819052600090614e98908301856144af565b9050826040830152949350505050565b6020808252601c908201527f596f7520646f6573206e6f742068617665207468697320636172642e00000000604082015260600190565b60208082526030908201527f5468697320636172642068617320616e206f666665722c2069742063616e6e6f60408201526f3a103132903a3930b739b332b932b21760811b606082015260800190565b60208082526031908201527f4f6e6c792067616d6d61207061636b7320636f6e74726163742063616e2063616040820152703636103a3434b990333ab731ba34b7b71760791b606082015260800190565b601f821115610f7a57600081815260208120601f850160051c81016020861015614fa75750805b601f850160051c820191505b81811015614fc657828155600101614fb3565b505050505050565b81516001600160401b03811115614fe757614fe7614600565b614ffb81614ff58454614be9565b84614f80565b602080601f83116001811461503057600084156150185750858301515b600019600386901b1c1916600185901b178555614fc6565b600085815260208120601f198616915b8281101561505f57888601518255948401946001909101908401615040565b508582101561507d5787850151600019600388901b60f8161c191681555b5050505050600190811b01905550565b6040815260006150a0604083018561457c565b82810360208401526150b2818561457c565b95945050505050565b60008086546150c981614be9565b600182811680156150e157600181146150f657615125565b60ff1984168752821515830287019450615125565b8a60005260208060002060005b8581101561511c5781548a820152908401908201615103565b50505082870194505b505050508551615139818360208a01614558565b855191019061514c818360208901614558565b845191019061515f818360208801614558565b019695505050505050565b60408152600061517d604083018561457c565b905060018060a01b03831660208301529392505050565b60208082526025908201527f4552433732313a207472616e736665722066726f6d20696e636f72726563742060408201526437bbb732b960d91b606082015260800190565b60208082526032908201527f4552433732313a207472616e7366657220746f206e6f6e20455243373231526560408201527131b2b4bb32b91034b6b83632b6b2b73a32b960711b606082015260800190565b6000835161523d818460208801614558565b835190830190615251818360208801614558565b01949350505050565b634e487b7160e01b600052602160045260246000fd5b6001600160a01b03858116825284166020820152604081018390526080606082018190526000906152a39083018461457c565b9695505050505050565b6000602082840312156152bf57600080fd5b8151613f378161444a56fea264697066735822122027caee8e7081fdc8dc0c484fe03880e760f1bb898bba58e088e7d4c4d116059e64736f6c63430008120033",
  "linkReferences": {},
  "deployedLinkReferences": {}
}