{
  "_format": "hh-sol-artifact-1",
  "contractName": "NofGammaCardsV3",
  "sourceName": "contracts/gamma/GammaCards.v3.sol",
  "abi": [
    {
      "inputs": [
        {
          "internalType": "address",
          "name": "_daiTokenAddress",
          "type": "address"
        },
        {
          "internalType": "address",
          "name": "_gammaPacksContract",
          "type": "address"
        },
        {
          "internalType": "string",
          "name": "_baseUri",
          "type": "string"
        },
        {
          "internalType": "address",
          "name": "_signer",
          "type": "address"
        }
      ],
      "stateMutability": "nonpayable",
      "type": "constructor"
    },
    {
      "anonymous": false,
      "inputs": [
        {
          "indexed": false,
          "internalType": "address",
          "name": "player",
          "type": "address"
        },
        {
          "indexed": false,
          "internalType": "uint8",
          "name": "albumClass",
          "type": "uint8"
        }
      ],
      "name": "AlbumCompleted",
      "type": "event"
    },
    {
      "anonymous": false,
      "inputs": [
        {
          "indexed": true,
          "internalType": "address",
          "name": "owner",
          "type": "address"
        },
        {
          "indexed": true,
          "internalType": "address",
          "name": "approved",
          "type": "address"
        },
        {
          "indexed": true,
          "internalType": "uint256",
          "name": "tokenId",
          "type": "uint256"
        }
      ],
      "name": "Approval",
      "type": "event"
    },
    {
      "anonymous": false,
      "inputs": [
        {
          "indexed": true,
          "internalType": "address",
          "name": "owner",
          "type": "address"
        },
        {
          "indexed": true,
          "internalType": "address",
          "name": "operator",
          "type": "address"
        },
        {
          "indexed": false,
          "internalType": "bool",
          "name": "approved",
          "type": "bool"
        }
      ],
      "name": "ApprovalForAll",
      "type": "event"
    },
    {
      "anonymous": false,
      "inputs": [
        {
          "indexed": false,
          "internalType": "address",
          "name": "player",
          "type": "address"
        },
        {
          "indexed": false,
          "internalType": "uint256",
          "name": "cardTokenId",
          "type": "uint256"
        },
        {
          "indexed": false,
          "internalType": "uint256",
          "name": "albumTokenId",
          "type": "uint256"
        }
      ],
      "name": "CardPasted",
      "type": "event"
    },
    {
      "anonymous": false,
      "inputs": [
        {
          "indexed": false,
          "internalType": "address",
          "name": "receiver",
          "type": "address"
        },
        {
          "indexed": false,
          "internalType": "uint256",
          "name": "amount",
          "type": "uint256"
        }
      ],
      "name": "EmergencyWithdrawal",
      "type": "event"
    },
    {
      "anonymous": false,
      "inputs": [
        {
          "indexed": false,
          "internalType": "address",
          "name": "newGammaOffersContract",
          "type": "address"
        }
      ],
      "name": "NewGammaOffersContract",
      "type": "event"
    },
    {
      "anonymous": false,
      "inputs": [
        {
          "indexed": false,
          "internalType": "address",
          "name": "newSigner",
          "type": "address"
        }
      ],
      "name": "NewSigner",
      "type": "event"
    },
    {
      "anonymous": false,
      "inputs": [
        {
          "indexed": false,
          "internalType": "string",
          "name": "newMainUri",
          "type": "string"
        },
        {
          "indexed": false,
          "internalType": "string",
          "name": "newSecondaryUri",
          "type": "string"
        }
      ],
      "name": "NewUris",
      "type": "event"
    },
    {
      "anonymous": false,
      "inputs": [
        {
          "indexed": true,
          "internalType": "address",
          "name": "previousOwner",
          "type": "address"
        },
        {
          "indexed": true,
          "internalType": "address",
          "name": "newOwner",
          "type": "address"
        }
      ],
      "name": "OwnershipTransferred",
      "type": "event"
    },
    {
      "anonymous": false,
      "inputs": [
        {
          "indexed": false,
          "internalType": "address",
          "name": "player",
          "type": "address"
        },
        {
          "indexed": false,
          "internalType": "uint8[]",
          "name": "packData",
          "type": "uint8[]"
        },
        {
          "indexed": false,
          "internalType": "uint256",
          "name": "packNumber",
          "type": "uint256"
        }
      ],
      "name": "PackOpened",
      "type": "event"
    },
    {
      "anonymous": false,
      "inputs": [
        {
          "indexed": true,
          "internalType": "address",
          "name": "from",
          "type": "address"
        },
        {
          "indexed": true,
          "internalType": "address",
          "name": "to",
          "type": "address"
        },
        {
          "indexed": true,
          "internalType": "uint256",
          "name": "tokenId",
          "type": "uint256"
        }
      ],
      "name": "Transfer",
      "type": "event"
    },
    {
      "inputs": [],
      "name": "DAI_TOKEN",
      "outputs": [
        {
          "internalType": "address",
          "name": "",
          "type": "address"
        }
      ],
      "stateMutability": "view",
      "type": "function"
    },
    {
      "inputs": [
        {
          "internalType": "address",
          "name": "_newOwner",
          "type": "address"
        }
      ],
      "name": "addOwner",
      "outputs": [],
      "stateMutability": "nonpayable",
      "type": "function"
    },
    {
      "inputs": [
        {
          "internalType": "address",
          "name": "_newSigner",
          "type": "address"
        }
      ],
      "name": "addSigner",
      "outputs": [],
      "stateMutability": "nonpayable",
      "type": "function"
    },
    {
      "inputs": [
        {
          "internalType": "address",
          "name": "to",
          "type": "address"
        },
        {
          "internalType": "uint256",
          "name": "tokenId",
          "type": "uint256"
        }
      ],
      "name": "approve",
      "outputs": [],
      "stateMutability": "nonpayable",
      "type": "function"
    },
    {
      "inputs": [
        {
          "internalType": "address",
          "name": "owner",
          "type": "address"
        }
      ],
      "name": "balanceOf",
      "outputs": [
        {
          "internalType": "uint256",
          "name": "",
          "type": "uint256"
        }
      ],
      "stateMutability": "view",
      "type": "function"
    },
    {
      "inputs": [],
      "name": "baseUri",
      "outputs": [
        {
          "internalType": "string",
          "name": "",
          "type": "string"
        }
      ],
      "stateMutability": "view",
      "type": "function"
    },
    {
      "inputs": [
        {
          "internalType": "uint256",
          "name": "tokenId",
          "type": "uint256"
        }
      ],
      "name": "burn",
      "outputs": [],
      "stateMutability": "nonpayable",
      "type": "function"
    },
    {
      "inputs": [
        {
          "internalType": "uint8[]",
          "name": "cardNumbers",
          "type": "uint8[]"
        }
      ],
      "name": "burnCards",
      "outputs": [],
      "stateMutability": "nonpayable",
      "type": "function"
    },
    {
      "inputs": [
        {
          "internalType": "address",
          "name": "user",
          "type": "address"
        }
      ],
      "name": "burnedCards",
      "outputs": [
        {
          "internalType": "uint256",
          "name": "amount",
          "type": "uint256"
        }
      ],
      "stateMutability": "view",
      "type": "function"
    },
    {
      "inputs": [
        {
          "internalType": "uint256",
          "name": "tokenId",
          "type": "uint256"
        }
      ],
      "name": "cards",
      "outputs": [
        {
          "internalType": "uint256",
          "name": "tokenId",
          "type": "uint256"
        },
        {
          "internalType": "uint256",
          "name": "number",
          "type": "uint256"
        },
        {
          "internalType": "bool",
          "name": "pasted",
          "type": "bool"
        },
        {
          "internalType": "uint8",
          "name": "class",
          "type": "uint8"
        },
        {
          "internalType": "uint256",
          "name": "completion",
          "type": "uint256"
        }
      ],
      "stateMutability": "view",
      "type": "function"
    },
    {
      "inputs": [
        {
          "internalType": "address",
          "name": "user",
          "type": "address"
        },
        {
          "internalType": "uint8",
          "name": "cardNumber",
          "type": "uint8"
        }
      ],
      "name": "cardsByUser",
      "outputs": [
        {
          "internalType": "uint8",
          "name": "amount",
          "type": "uint8"
        }
      ],
      "stateMutability": "view",
      "type": "function"
    },
    {
      "inputs": [
        {
          "internalType": "uint256",
          "name": "cardNumber",
          "type": "uint256"
        }
      ],
      "name": "cardsInventory",
      "outputs": [
        {
          "internalType": "uint256",
          "name": "amount",
          "type": "uint256"
        }
      ],
      "stateMutability": "view",
      "type": "function"
    },
    {
      "inputs": [
        {
          "internalType": "uint256",
          "name": "newPackPrice",
          "type": "uint256"
        }
      ],
      "name": "changePackPrice",
      "outputs": [],
      "stateMutability": "nonpayable",
      "type": "function"
    },
    {
      "inputs": [
        {
          "internalType": "bool",
          "name": "required",
          "type": "bool"
        }
      ],
      "name": "changeRequireOfferValidationInMint",
      "outputs": [],
      "stateMutability": "nonpayable",
      "type": "function"
    },
    {
      "inputs": [
        {
          "internalType": "bool",
          "name": "required",
          "type": "bool"
        }
      ],
      "name": "changeRequireOfferValidationInTransfer",
      "outputs": [],
      "stateMutability": "nonpayable",
      "type": "function"
    },
    {
      "inputs": [
        {
          "internalType": "bool",
          "name": "required",
          "type": "bool"
        }
      ],
      "name": "changeRequireOpenPackSignerValidation",
      "outputs": [],
      "stateMutability": "nonpayable",
      "type": "function"
    },
    {
      "inputs": [
        {
          "internalType": "uint256",
          "name": "amount",
          "type": "uint256"
        }
      ],
      "name": "emergencyWithdraw",
      "outputs": [],
      "stateMutability": "nonpayable",
      "type": "function"
    },
    {
      "inputs": [
        {
          "internalType": "address",
          "name": "from",
          "type": "address"
        },
        {
          "internalType": "uint8",
          "name": "cardNumberFrom",
          "type": "uint8"
        },
        {
          "internalType": "address",
          "name": "to",
          "type": "address"
        },
        {
          "internalType": "uint8",
          "name": "cardNumberTo",
          "type": "uint8"
        }
      ],
      "name": "exchangeCardsOffer",
      "outputs": [],
      "stateMutability": "nonpayable",
      "type": "function"
    },
    {
      "inputs": [],
      "name": "finishAlbum",
      "outputs": [],
      "stateMutability": "nonpayable",
      "type": "function"
    },
    {
      "inputs": [],
      "name": "gammaOffersContract",
      "outputs": [
        {
          "internalType": "contract IgammaOffersContract",
          "name": "",
          "type": "address"
        }
      ],
      "stateMutability": "view",
      "type": "function"
    },
    {
      "inputs": [],
      "name": "gammaPacksContract",
      "outputs": [
        {
          "internalType": "contract IgammaPacksContract",
          "name": "",
          "type": "address"
        }
      ],
      "stateMutability": "view",
      "type": "function"
    },
    {
      "inputs": [
        {
          "internalType": "uint256",
          "name": "tokenId",
          "type": "uint256"
        }
      ],
      "name": "getApproved",
      "outputs": [
        {
          "internalType": "address",
          "name": "",
          "type": "address"
        }
      ],
      "stateMutability": "view",
      "type": "function"
    },
    {
      "inputs": [
        {
          "internalType": "address",
          "name": "user",
          "type": "address"
        }
      ],
      "name": "getCardsByUser",
      "outputs": [
        {
          "internalType": "uint8[]",
          "name": "",
          "type": "uint8[]"
        },
        {
          "internalType": "uint8[]",
          "name": "",
          "type": "uint8[]"
        },
        {
          "internalType": "bool[]",
          "name": "",
          "type": "bool[]"
        }
      ],
      "stateMutability": "view",
      "type": "function"
    },
    {
      "inputs": [
        {
          "internalType": "uint8",
          "name": "cardNum",
          "type": "uint8"
        }
      ],
      "name": "hasCard",
      "outputs": [
        {
          "internalType": "bool",
          "name": "has",
          "type": "bool"
        }
      ],
      "stateMutability": "view",
      "type": "function"
    },
    {
      "inputs": [
        {
          "internalType": "address",
          "name": "user",
          "type": "address"
        },
        {
          "internalType": "uint8",
          "name": "cardNumber",
          "type": "uint8"
        }
      ],
      "name": "hasCardByOffer",
      "outputs": [
        {
          "internalType": "bool",
          "name": "has",
          "type": "bool"
        }
      ],
      "stateMutability": "view",
      "type": "function"
    },
    {
      "inputs": [
        {
          "internalType": "address",
          "name": "owner",
          "type": "address"
        },
        {
          "internalType": "address",
          "name": "operator",
          "type": "address"
        }
      ],
      "name": "isApprovedForAll",
      "outputs": [
        {
          "internalType": "bool",
          "name": "",
          "type": "bool"
        }
      ],
      "stateMutability": "view",
      "type": "function"
    },
    {
      "inputs": [],
      "name": "mainAlbumPrize",
      "outputs": [
        {
          "internalType": "uint256",
          "name": "",
          "type": "uint256"
        }
      ],
      "stateMutability": "view",
      "type": "function"
    },
    {
      "inputs": [],
      "name": "mainUri",
      "outputs": [
        {
          "internalType": "string",
          "name": "",
          "type": "string"
        }
      ],
      "stateMutability": "view",
      "type": "function"
    },
    {
      "inputs": [
        {
          "internalType": "uint8",
          "name": "cardNum",
          "type": "uint8"
        }
      ],
      "name": "mintCard",
      "outputs": [],
      "stateMutability": "nonpayable",
      "type": "function"
    },
    {
      "inputs": [],
      "name": "name",
      "outputs": [
        {
          "internalType": "string",
          "name": "",
          "type": "string"
        }
      ],
      "stateMutability": "view",
      "type": "function"
    },
    {
      "inputs": [
        {
          "internalType": "uint256",
          "name": "packNumber",
          "type": "uint256"
        },
        {
          "internalType": "uint8[]",
          "name": "packData",
          "type": "uint8[]"
        },
        {
          "internalType": "bytes",
          "name": "signature",
          "type": "bytes"
        }
      ],
      "name": "openPack",
      "outputs": [],
      "stateMutability": "nonpayable",
      "type": "function"
    },
    {
      "inputs": [],
      "name": "owner",
      "outputs": [
        {
          "internalType": "address",
          "name": "",
          "type": "address"
        }
      ],
      "stateMutability": "view",
      "type": "function"
    },
    {
      "inputs": [
        {
          "internalType": "uint256",
          "name": "tokenId",
          "type": "uint256"
        }
      ],
      "name": "ownerOf",
      "outputs": [
        {
          "internalType": "address",
          "name": "",
          "type": "address"
        }
      ],
      "stateMutability": "view",
      "type": "function"
    },
    {
      "inputs": [
        {
          "internalType": "address",
          "name": "",
          "type": "address"
        }
      ],
      "name": "owners",
      "outputs": [
        {
          "internalType": "bool",
          "name": "",
          "type": "bool"
        }
      ],
      "stateMutability": "view",
      "type": "function"
    },
    {
      "inputs": [],
      "name": "packPrice",
      "outputs": [
        {
          "internalType": "uint256",
          "name": "",
          "type": "uint256"
        }
      ],
      "stateMutability": "view",
      "type": "function"
    },
    {
      "inputs": [],
      "name": "prizesBalance",
      "outputs": [
        {
          "internalType": "uint256",
          "name": "",
          "type": "uint256"
        }
      ],
      "stateMutability": "view",
      "type": "function"
    },
    {
      "inputs": [
        {
          "internalType": "uint256",
          "name": "amount",
          "type": "uint256"
        }
      ],
      "name": "receivePrizesBalance",
      "outputs": [],
      "stateMutability": "nonpayable",
      "type": "function"
    },
    {
      "inputs": [
        {
          "internalType": "address",
          "name": "user",
          "type": "address"
        },
        {
          "internalType": "uint8",
          "name": "cardNumber",
          "type": "uint8"
        }
      ],
      "name": "removeCardByOffer",
      "outputs": [],
      "stateMutability": "nonpayable",
      "type": "function"
    },
    {
      "inputs": [
        {
          "internalType": "address",
          "name": "_ownerToRemove",
          "type": "address"
        }
      ],
      "name": "removeOwner",
      "outputs": [],
      "stateMutability": "nonpayable",
      "type": "function"
    },
    {
      "inputs": [
        {
          "internalType": "address",
          "name": "_signerToRemove",
          "type": "address"
        }
      ],
      "name": "removeSigner",
      "outputs": [],
      "stateMutability": "nonpayable",
      "type": "function"
    },
    {
      "inputs": [],
      "name": "renounceOwnership",
      "outputs": [],
      "stateMutability": "nonpayable",
      "type": "function"
    },
    {
      "inputs": [],
      "name": "requireOfferValidationInMint",
      "outputs": [
        {
          "internalType": "bool",
          "name": "",
          "type": "bool"
        }
      ],
      "stateMutability": "view",
      "type": "function"
    },
    {
      "inputs": [],
      "name": "requireOfferValidationInTransfer",
      "outputs": [
        {
          "internalType": "bool",
          "name": "",
          "type": "bool"
        }
      ],
      "stateMutability": "view",
      "type": "function"
    },
    {
      "inputs": [],
      "name": "requireOpenPackSignerValidation",
      "outputs": [
        {
          "internalType": "bool",
          "name": "",
          "type": "bool"
        }
      ],
      "stateMutability": "view",
      "type": "function"
    },
    {
      "inputs": [
        {
          "internalType": "address",
          "name": "user",
          "type": "address"
        },
        {
          "internalType": "uint8",
          "name": "cardNumber",
          "type": "uint8"
        }
      ],
      "name": "restoreCardByOffer",
      "outputs": [],
      "stateMutability": "nonpayable",
      "type": "function"
    },
    {
      "inputs": [
        {
          "internalType": "address",
          "name": "from",
          "type": "address"
        },
        {
          "internalType": "address",
          "name": "to",
          "type": "address"
        },
        {
          "internalType": "uint256",
          "name": "tokenId",
          "type": "uint256"
        }
      ],
      "name": "safeTransferFrom",
      "outputs": [],
      "stateMutability": "nonpayable",
      "type": "function"
    },
    {
      "inputs": [
        {
          "internalType": "address",
          "name": "from",
          "type": "address"
        },
        {
          "internalType": "address",
          "name": "to",
          "type": "address"
        },
        {
          "internalType": "uint256",
          "name": "tokenId",
          "type": "uint256"
        },
        {
          "internalType": "bytes",
          "name": "data",
          "type": "bytes"
        }
      ],
      "name": "safeTransferFrom",
      "outputs": [],
      "stateMutability": "nonpayable",
      "type": "function"
    },
    {
      "inputs": [],
      "name": "secondaryAlbumPrize",
      "outputs": [
        {
          "internalType": "uint256",
          "name": "",
          "type": "uint256"
        }
      ],
      "stateMutability": "view",
      "type": "function"
    },
    {
      "inputs": [],
      "name": "secondaryUri",
      "outputs": [
        {
          "internalType": "string",
          "name": "",
          "type": "string"
        }
      ],
      "stateMutability": "view",
      "type": "function"
    },
    {
      "inputs": [
        {
          "internalType": "address",
          "name": "operator",
          "type": "address"
        },
        {
          "internalType": "bool",
          "name": "approved",
          "type": "bool"
        }
      ],
      "name": "setApprovalForAll",
      "outputs": [],
      "stateMutability": "nonpayable",
      "type": "function"
    },
    {
      "inputs": [
        {
          "internalType": "address",
          "name": "_gammaOffersContract",
          "type": "address"
        }
      ],
      "name": "setGammaOffersContract",
      "outputs": [],
      "stateMutability": "nonpayable",
      "type": "function"
    },
    {
      "inputs": [
        {
          "internalType": "string",
          "name": "newMainUri",
          "type": "string"
        },
        {
          "internalType": "string",
          "name": "newSecondaryUri",
          "type": "string"
        }
      ],
      "name": "setUris",
      "outputs": [],
      "stateMutability": "nonpayable",
      "type": "function"
    },
    {
      "inputs": [
        {
          "internalType": "address",
          "name": "",
          "type": "address"
        }
      ],
      "name": "signers",
      "outputs": [
        {
          "internalType": "bool",
          "name": "",
          "type": "bool"
        }
      ],
      "stateMutability": "view",
      "type": "function"
    },
    {
      "inputs": [
        {
          "internalType": "bytes4",
          "name": "interfaceId",
          "type": "bytes4"
        }
      ],
      "name": "supportsInterface",
      "outputs": [
        {
          "internalType": "bool",
          "name": "",
          "type": "bool"
        }
      ],
      "stateMutability": "view",
      "type": "function"
    },
    {
      "inputs": [],
      "name": "symbol",
      "outputs": [
        {
          "internalType": "string",
          "name": "",
          "type": "string"
        }
      ],
      "stateMutability": "view",
      "type": "function"
    },
    {
      "inputs": [],
      "name": "testAddCards",
      "outputs": [],
      "stateMutability": "nonpayable",
      "type": "function"
    },
    {
      "inputs": [
        {
          "internalType": "uint256",
          "name": "packNumber",
          "type": "uint256"
        },
        {
          "internalType": "uint8[]",
          "name": "packData",
          "type": "uint8[]"
        }
      ],
      "name": "testOpenPack",
      "outputs": [],
      "stateMutability": "nonpayable",
      "type": "function"
    },
    {
      "inputs": [
        {
          "internalType": "uint256",
          "name": "tokenId",
          "type": "uint256"
        }
      ],
      "name": "tokenURI",
      "outputs": [
        {
          "internalType": "string",
          "name": "",
          "type": "string"
        }
      ],
      "stateMutability": "view",
      "type": "function"
    },
    {
      "inputs": [
        {
          "internalType": "address",
          "name": "to",
          "type": "address"
        },
        {
          "internalType": "uint8",
          "name": "cardNumber",
          "type": "uint8"
        }
      ],
      "name": "transferCard",
      "outputs": [],
      "stateMutability": "nonpayable",
      "type": "function"
    },
    {
      "inputs": [
        {
          "internalType": "address",
          "name": "to",
          "type": "address"
        },
        {
          "internalType": "uint8[]",
          "name": "cardNumbers",
          "type": "uint8[]"
        }
      ],
      "name": "transferCards",
      "outputs": [],
      "stateMutability": "nonpayable",
      "type": "function"
    },
    {
      "inputs": [
        {
          "internalType": "address",
          "name": "from",
          "type": "address"
        },
        {
          "internalType": "address",
          "name": "to",
          "type": "address"
        },
        {
          "internalType": "uint256",
          "name": "tokenId",
          "type": "uint256"
        }
      ],
      "name": "transferFrom",
      "outputs": [],
      "stateMutability": "nonpayable",
      "type": "function"
    },
    {
      "inputs": [
        {
          "internalType": "address",
          "name": "newOwner",
          "type": "address"
        }
      ],
      "name": "transferOwnership",
      "outputs": [],
      "stateMutability": "nonpayable",
      "type": "function"
    },
    {
      "inputs": [
        {
          "internalType": "uint256",
          "name": "packNumber",
          "type": "uint256"
        },
        {
          "internalType": "uint8[]",
          "name": "packData",
          "type": "uint8[]"
        },
        {
          "internalType": "bytes",
          "name": "signature",
          "type": "bytes"
        }
      ],
      "name": "verifyPackSigner",
      "outputs": [
        {
          "internalType": "address",
          "name": "signer",
          "type": "address"
        }
      ],
      "stateMutability": "view",
      "type": "function"
    }
  ],
  "bytecode": "0x60806040526710a741a462780000600c5567d02ab486cedc0000600f55670de0b6b3a76400006010553480156200003557600080fd5b506040516200579f3803806200579f83398101604081905262000058916200034f565b6040518060400160405280600a81526020016947616d6d61436172647360b01b815250604051806040016040528060068152602001654e4f465f474360d01b8152508160009081620000ab9190620004d1565b506001620000ba8282620004d1565b505050620000d7620000d1620002a060201b60201c565b620002a4565b600880546001600160a01b038086166001600160a01b031992831617909255600b805492871692909116919091179055600e620001158382620004d1565b5060408051808201825260018152602f60f81b60208083019190915282518084018452600381526203132360ec1b8183015283518085018552600681526523173539b7b760d11b8184015293516200017494600e94939091016200059d565b60405160208183030381529060405260119081620001939190620004d1565b5060408051808201825260018152602f60f81b60208083019190915282518084018452600381526231323160e81b8183015283518085018552600681526523173539b7b760d11b818401529351620001f294600e94939091016200059d565b60405160208183030381529060405260129081620002119190620004d1565b506001600160a01b0381166000908152601560205260408120805460ff19166001179055601380546201010062ffffff199091161790555b607a8110156200027a576000818152601760205260409020600190558062000271816200065a565b91505062000249565b5050336000908152601460205260409020805460ff191660011790555062000682915050565b3390565b600780546001600160a01b038381166001600160a01b0319831681179093556040519116919082907f8be0079c531659141344cd1fd0a4f28419497f9722a3daafe3b4186f6b6457e090600090a35050565b80516001600160a01b03811681146200030e57600080fd5b919050565b634e487b7160e01b600052604160045260246000fd5b60005b83811015620003465781810151838201526020016200032c565b50506000910152565b600080600080608085870312156200036657600080fd5b6200037185620002f6565b93506200038160208601620002f6565b60408601519093506001600160401b03808211156200039f57600080fd5b818701915087601f830112620003b457600080fd5b815181811115620003c957620003c962000313565b604051601f8201601f19908116603f01168101908382118183101715620003f457620003f462000313565b816040528281528a60208487010111156200040e57600080fd5b6200042183602083016020880162000329565b80965050505050506200043760608601620002f6565b905092959194509250565b600181811c908216806200045757607f821691505b6020821081036200047857634e487b7160e01b600052602260045260246000fd5b50919050565b601f821115620004cc57600081815260208120601f850160051c81016020861015620004a75750805b601f850160051c820191505b81811015620004c857828155600101620004b3565b5050505b505050565b81516001600160401b03811115620004ed57620004ed62000313565b6200050581620004fe845462000442565b846200047e565b602080601f8311600181146200053d5760008415620005245750858301515b600019600386901b1c1916600185901b178555620004c8565b600085815260208120601f198616915b828110156200056e578886015182559484019460019091019084016200054d565b50858210156200058d5787850151600019600388901b60f8161c191681555b5050505050600190811b01905550565b6000808654620005ad8162000442565b60018281168015620005c85760018114620005de576200060f565b60ff19841687528215158302870194506200060f565b8a60005260208060002060005b85811015620006065781548a820152908401908201620005eb565b50505082870194505b50505050855162000625818360208a0162000329565b85519101906200063a81836020890162000329565b84519101906200064f81836020880162000329565b019695505050505050565b6000600182016200067b57634e487b7160e01b600052601160045260246000fd5b5060010190565b61510d80620006926000396000f3fe608060405234801561001057600080fd5b50600436106103c55760003560e01c80637e50fa8f116101ff578063aaaeca171161011a578063dec3f6d9116100ad578063e985e9c51161007c578063e985e9c5146108e1578063eb12d61e1461091d578063f2fde38b14610930578063f98fd2831461094357600080fd5b8063dec3f6d9146108aa578063e1883c6e146108b2578063e5db587a146108c5578063e606df87146108ce57600080fd5b8063c3461c07116100e9578063c3461c0714610869578063c87b56dd14610871578063d322b56314610884578063dbfc05cf1461089757600080fd5b8063aaaeca1714610828578063ad1684fa14610830578063b88d4fde14610843578063bf400a6a1461085657600080fd5b806394e8f556116101925780639c7f707f116101615780639c7f707f146107e65780639f4415d8146107f9578063a1af8ad414610802578063a22cb4651461081557600080fd5b806394e8f556146107b657806395d89b41146107c957806396884135146107d15780639abc8320146107de57600080fd5b80638da5cb5b116101ce5780638da5cb5b146107195780638dc107681461072a5780639038f4141461079c57806391565664146107a457600080fd5b80637e50fa8f14610693578063809eb355146106b35780638ba526fc146106f35780638bf670c81461070657600080fd5b80632f9e026a116102ef5780635dde20d81161028257806370a082311161025157806370a0823114610642578063715018a6146106555780637155a3ac1461065d578063736c0d5b1461067057600080fd5b80635dde20d8146105e95780636352211e1461060957806368cc5bc11461061c5780637065cb481461062f57600080fd5b8063483823e8116102be578063483823e8146105875780634e5ad31814610590578063511b9307146105c35780635312ea8e146105d657600080fd5b80632f9e026a14610537578063335c8b631461054a57806342842e0e1461056157806342966c681461057457600080fd5b8063128916dc1161036757806320965a5f1161033657806320965a5f146104eb57806323b872dd146104fe578063267b841d146105115780632ca699e71461052457600080fd5b8063128916dc1461049f5780631306952c146104b2578063155e2f92146104c5578063173825d9146104d857600080fd5b806306fdde03116103a357806306fdde0314610437578063081812fc1461044c578063095ea7b3146104775780630e316ab71461048c57600080fd5b806301ffc9a7146103ca578063022914a7146103f25780630435dcaf14610415575b600080fd5b6103dd6103d83660046142d9565b610956565b60405190151581526020015b60405180910390f35b6103dd61040036600461430b565b60146020526000908152604090205460ff1681565b61042861042336600461430b565b6109a8565b6040516103e993929190614366565b61043f610d65565b6040516103e99190614421565b61045f61045a366004614434565b610df7565b6040516001600160a01b0390911681526020016103e9565b61048a61048536600461444d565b610e1e565b005b61048a61049a36600461430b565b610f38565b61048a6104ad36600461430b565b61107e565b61045f6104c036600461455b565b611128565b61048a6104d33660046145f5565b611236565b61048a6104e636600461430b565b6112b2565b61048a6104f936600461466e565b6113f8565b61048a61050c3660046146af565b6116f8565b61048a61051f36600461455b565b61172a565b61048a6105323660046145f5565b611bdf565b60085461045f906001600160a01b031681565b610553600c5481565b6040519081526020016103e9565b61048a61056f3660046146af565b611e06565b61048a610582366004614434565b611e21565b61055360105481565b6103dd61059e3660046146f0565b33600090815260196020908152604080832060ff948516845290915290205416151590565b6013546103dd9062010000900460ff1681565b61048a6105e4366004614434565b611e52565b6105536105f7366004614434565b60176020526000908152604090205481565b61045f610617366004614434565b611f59565b61048a61062a366004614719565b611fb9565b61048a61063d36600461430b565b612004565b61055361065036600461430b565b6120e6565b61048a61216c565b61048a61066b3660046145f5565b612180565b6103dd61067e36600461430b565b60156020526000908152604090205460ff1681565b6105536106a136600461430b565b60186020526000908152604090205481565b6106e16106c13660046145f5565b601960209081526000928352604080842090915290825290205460ff1681565b60405160ff90911681526020016103e9565b61048a610701366004614434565b6121df565b6103dd6107143660046145f5565b612223565b6007546001600160a01b031661045f565b61076c610738366004614434565b60166020526000908152604090208054600182015460028301546003909301549192909160ff808316926101009004169085565b6040805195865260208601949094529115159284019290925260ff9091166060830152608082015260a0016103e9565b61048a612281565b6013546103dd90610100900460ff1681565b61048a6107c4366004614736565b61257c565b61043f61280d565b6013546103dd9060ff1681565b61043f61281c565b61048a6107f43660046147f3565b6128aa565b610553600f5481565b61048a61081036600461484c565b612924565b61048a6108233660046148a0565b612b47565b61048a612b52565b61048a61083e3660046148d9565b612be8565b61048a610851366004614931565b612d9f565b61048a6108643660046146f0565b612dd1565b61043f612fbb565b61043f61087f366004614434565b612fc8565b60095461045f906001600160a01b031681565b61048a6108a5366004614719565b612fd3565b61043f613015565b61048a6108c0366004614434565b613022565b610553600d5481565b600b5461045f906001600160a01b031681565b6103dd6108ef3660046149b0565b6001600160a01b03918216600090815260056020908152604080832093909416825291909152205460ff1690565b61048a61092b36600461430b565b613051565b61048a61093e36600461430b565b613133565b61048a610951366004614719565b6131a9565b60006001600160e01b031982166380ac58cd60e01b148061098757506001600160e01b03198216635b5e139f60e01b145b806109a257506301ffc9a760e01b6001600160e01b03198316145b92915050565b604080516079808252610f408201909252606091829182916000919060208201610f20803683375050604080516079808252610f408201909252929350600092915060208201610f20803683375050604080516079808252610f408201909252929350600092915060208201610f20803683370190505090506000805b60778160ff1611610b8e576001600160a01b038916600090815260196020908152604080832060ff80861685529252909120541615610b7c5780858360ff1681518110610a7457610a746149de565b60ff9283166020918202929092018101919091526001600160a01b038b166000908152601982526040808220858516835290925220548551908216918691908516908110610ac457610ac46149de565b60ff9283166020918202929092010152600954604051632edb5fcf60e01b81526001600160a01b038c811660048301529284166024820152911690632edb5fcf90604401602060405180830381865afa158015610b25573d6000803e3d6000fd5b505050506040513d601f19601f82011682018060405250810190610b4991906149f4565b838360ff1681518110610b5e57610b5e6149de565b9115156020928302919091019091015281610b7881614a27565b9250505b80610b8681614a27565b915050610a25565b5060008160ff166001600160401b03811115610bac57610bac614479565b604051908082528060200260200182016040528015610bd5578160200160208202803683370190505b50905060008260ff166001600160401b03811115610bf557610bf5614479565b604051908082528060200260200182016040528015610c1e578160200160208202803683370190505b50905060008360ff166001600160401b03811115610c3e57610c3e614479565b604051908082528060200260200182016040528015610c67578160200160208202803683370190505b50905060005b8460ff168160ff161015610d5357878160ff1681518110610c9057610c906149de565b6020026020010151848260ff1681518110610cad57610cad6149de565b60ff9283166020918202929092010152875188918316908110610cd257610cd26149de565b6020026020010151838260ff1681518110610cef57610cef6149de565b60ff9283166020918202929092010152865187918316908110610d1457610d146149de565b6020026020010151828260ff1681518110610d3157610d316149de565b9115156020928302919091019091015280610d4b81614a27565b915050610c6d565b50919a90995090975095505050505050565b606060008054610d7490614a46565b80601f0160208091040260200160405190810160405280929190818152602001828054610da090614a46565b8015610ded5780601f10610dc257610100808354040283529160200191610ded565b820191906000526020600020905b815481529060010190602001808311610dd057829003601f168201915b5050505050905090565b6000610e02826131f2565b506000908152600460205260409020546001600160a01b031690565b6000610e2982611f59565b9050806001600160a01b0316836001600160a01b031603610e9b5760405162461bcd60e51b815260206004820152602160248201527f4552433732313a20617070726f76616c20746f2063757272656e74206f776e656044820152603960f91b60648201526084015b60405180910390fd5b336001600160a01b0382161480610eb75750610eb781336108ef565b610f295760405162461bcd60e51b815260206004820152603d60248201527f4552433732313a20617070726f76652063616c6c6572206973206e6f7420746f60448201527f6b656e206f776e6572206f7220617070726f76656420666f7220616c6c0000006064820152608401610e92565b610f338383613251565b505050565b3360009081526014602052604090205460ff16610f675760405162461bcd60e51b8152600401610e9290614a80565b6001600160a01b038116610f8d5760405162461bcd60e51b8152600401610e9290614ac3565b336001600160a01b03821603610ff55760405162461bcd60e51b815260206004820152602760248201527f596f752063616e6e6f742072656d6f766520796f757273656c6620617320612060448201526639b4b3b732b91760c91b6064820152608401610e92565b6001600160a01b03811660009081526015602052604090205460ff1661105d5760405162461bcd60e51b815260206004820152601960248201527f41646472657373206973206e6f7420616e207369676e65722e000000000000006044820152606401610e92565b6001600160a01b03166000908152601560205260409020805460ff19169055565b3360009081526014602052604090205460ff166110ad5760405162461bcd60e51b8152600401610e9290614a80565b6001600160a01b0381166110d35760405162461bcd60e51b8152600401610e9290614ac3565b600980546001600160a01b0319166001600160a01b0383169081179091556040519081527f538b3425a321783393ad250db10356b8b3523ef29a40de015c5218213de0ead0906020015b60405180910390a150565b6000806111a333878760405160200161114393929190614aed565b60408051601f1981840301815282825280516020918201207f19457468657265756d205369676e6564204d6573736167653a0a33320000000084830152603c8085019190915282518085039091018152605c909301909152815191012090565b905060006111e985858080601f01602080910402602001604051908101604052809392919081815260200183838082843760009201919091525086939250506132bf9050565b905061122a6040518060400160405280601a81526020017f6f70656e207061636b207369676e6572207265636f7665726564000000000000815250826132e3565b9150505b949350505050565b6009546001600160a01b031633146112605760405162461bcd60e51b8152600401610e9290614b7b565b6001600160a01b038216600090815260196020908152604080832060ff80861685529252822080549091169161129583614a27565b91906101000a81548160ff021916908360ff160217905550505050565b3360009081526014602052604090205460ff166112e15760405162461bcd60e51b8152600401610e9290614a80565b6001600160a01b0381166113075760405162461bcd60e51b8152600401610e9290614ac3565b336001600160a01b0382160361136f5760405162461bcd60e51b815260206004820152602760248201527f596f752063616e6e6f742072656d6f766520796f757273656c6620617320616e6044820152661037bbb732b91760c91b6064820152608401610e92565b6001600160a01b03811660009081526014602052604090205460ff166113d75760405162461bcd60e51b815260206004820152601860248201527f41646472657373206973206e6f7420616e206f776e65722e00000000000000006044820152606401610e92565b6001600160a01b03166000908152601460205260409020805460ff19169055565b3360009081526019602090815260408083206079845290915290205460ff166114635760405162461bcd60e51b815260206004820152601860248201527f4e6f207469656e657320616c62756d206465207175656d6100000000000000006044820152606401610e92565b336000908152601960209081526040808320607984529091528120805460ff169161148d83614bcd565b825460ff9182166101009390930a92830291909202199091161790555033600090815260186020526040812080548392906114c9908490614bea565b90915550600090505b60ff811682111561156a5733600090815260196020526040812090848460ff8516818110611502576115026149de565b905060200201602081019061151791906146f0565b60ff9081168252602082019290925260400160009081208054909216919061153e83614bcd565b91906101000a81548160ff021916908360ff16021790555050808061156290614a27565b9150506114d2565b503360009081526018602052604090205461158790603c90614c13565b6000036116f457611626336012805461159f90614a46565b80601f01602080910402602001604051908101604052809291908181526020018280546115cb90614a46565b80156116185780601f106115ed57610100808354040283529160200191611618565b820191906000526020600020905b8154815290600101906020018083116115fb57829003601f168201915b505050505060796002613328565b600f54600d600082825461163a9190614c27565b9091555050600b5460105460405163a9059cbb60e01b815233600482015260248101919091526001600160a01b039091169063a9059cbb906044016020604051808303816000875af1158015611694573d6000803e3d6000fd5b505050506040513d601f19601f820116820180604052508101906116b891906149f4565b5060408051338152600260208201527f6d0344e2059f835240cb954cce07d4b26f0d0844eecc234f7ee0e292ba80a1aa91015b60405180910390a15b5050565b611703335b8261338b565b61171f5760405162461bcd60e51b8152600401610e9290614c3a565b610f33838383613409565b60085460405163d3e6a7ad60e01b81526004810186905233916001600160a01b03169063d3e6a7ad90602401602060405180830381865afa158015611773573d6000803e3d6000fd5b505050506040513d601f19601f820116820180604052508101906117979190614c87565b6001600160a01b0316146117ed5760405162461bcd60e51b815260206004820152601760248201527f546869732063617264206973206e6f7420796f7572732e0000000000000000006044820152606401610e92565b600f8351106118345760405162461bcd60e51b815260206004820152601360248201527210d85c99081b1a5b5a5d08195e18d959591959606a1b6044820152606401610e92565b60135460ff161561194057600061185933868660405160200161114393929190614aed565b9050600061189f84848080601f01602080910402602001604051908101604052809392919081815260200183838082843760009201919091525086939250506132bf9050565b90506118e06040518060400160405280601a81526020017f6f70656e207061636b207369676e6572207265636f7665726564000000000000815250826132e3565b6001600160a01b03811660009081526015602052604090205460ff1661193d5760405162461bcd60e51b815260206004820152601260248201527124b73b30b634b21039b4b3b730ba3ab9329760711b6044820152606401610e92565b50505b6008546040516380f2540b60e01b8152600481018690523360248201526001600160a01b03909116906380f2540b90604401600060405180830381600087803b15801561198c57600080fd5b505af11580156119a0573d6000803e3d6000fd5b505050506006600c546119b39190614ca4565b600c546119c09190614c27565b600d60008282546119d19190614bea565b9091555050825160005b818160ff161015611b9c57848160ff16815181106119fb576119fb6149de565b602002602001015160ff16607814611a495761138960176000878460ff1681518110611a2957611a296149de565b602002602001015160ff1681526020019081526020016000205410611a7a565b607860005260176020527f1e0e657bdfc7d3d523657bb82aa6f2c628a4caf6e2f7839556e82479d4362f0654610bb9115b611ac65760405162461bcd60e51b815260206004820152601e60248201527f696e76616c69642063617264496e76656e746f727920706f736974696f6e00006044820152606401610e92565b60176000868360ff1681518110611adf57611adf6149de565b602002602001015160ff1681526020019081526020016000206000815480929190611b0990614cb8565b90915550503360009081526019602052604081208651909190879060ff8516908110611b3757611b376149de565b602002602001015160ff1660ff168152602001908152602001600020600081819054906101000a900460ff1680929190611b7090614a27565b91906101000a81548160ff021916908360ff160217905550508080611b9490614a27565b9150506119db565b507fbabe8f5e83e93ab103ddf917b4292a19335a5128b3530bedd896a681cdd945e3338587604051611bd093929190614cd1565b60405180910390a15050505050565b33600090815260196020908152604080832060ff808616855292529091205416611c1b5760405162461bcd60e51b8152600401610e9290614d05565b336001600160a01b03831603611c735760405162461bcd60e51b815260206004820152601960248201527f4f776e207472616e73666572206e6f7420616c6c6f7765642e000000000000006044820152606401610e92565b6001600160a01b038216611c995760405162461bcd60e51b8152600401610e9290614ac3565b60135462010000900460ff1615611d8b57600954604051632edb5fcf60e01b815233600482015260ff831660248201526000916001600160a01b031690632edb5fcf90604401602060405180830381865afa158015611cfc573d6000803e3d6000fd5b505050506040513d601f19601f82011682018060405250810190611d2091906149f4565b90508015611d895760405162461bcd60e51b815260206004820152603060248201527f5468697320636172642068617320616e206f666665722c2069742063616e6e6f60448201526f3a103132903a3930b739b332b932b21760811b6064820152608401610e92565b505b33600090815260196020908152604080832060ff808616855292528220805490911691611db783614bcd565b82546101009290920a60ff8181021990931691831602179091556001600160a01b0384166000908152601960209081526040808320868516845290915281208054909216925061129583614a27565b610f3383838360405180602001604052806000815250612d9f565b611e2a336116fd565b611e465760405162461bcd60e51b8152600401610e9290614c3a565b611e4f8161357a565b50565b3360009081526014602052604090205460ff16611e815760405162461bcd60e51b8152600401610e9290614a80565b80611e8b306120e6565b1015611e9657600080fd5b80600d6000828254611ea89190614c27565b9091555050600b5460405163a9059cbb60e01b8152336004820152602481018390526001600160a01b039091169063a9059cbb906044016020604051808303816000875af1158015611efe573d6000803e3d6000fd5b505050506040513d601f19601f82011682018060405250810190611f2291906149f4565b5060408051338152602081018390527f23d6711a1d031134a36921253c75aa59e967d38e369ac625992824315e204f20910161111d565b6000818152600260205260408120546001600160a01b0316806109a25760405162461bcd60e51b8152602060048201526018602482015277115490cdcc8c4e881a5b9d985b1a59081d1bdad95b88125160421b6044820152606401610e92565b3360009081526014602052604090205460ff16611fe85760405162461bcd60e51b8152600401610e9290614a80565b60138054911515620100000262ff000019909216919091179055565b3360009081526014602052604090205460ff166120335760405162461bcd60e51b8152600401610e9290614a80565b6001600160a01b0381166120595760405162461bcd60e51b8152600401610e9290614ac3565b6001600160a01b03811660009081526014602052604090205460ff16156120c25760405162461bcd60e51b815260206004820152601c60248201527f4164647265737320697320616c726561647920616e206f776e65722e000000006044820152606401610e92565b6001600160a01b03166000908152601460205260409020805460ff19166001179055565b60006001600160a01b0382166121505760405162461bcd60e51b815260206004820152602960248201527f4552433732313a2061646472657373207a65726f206973206e6f7420612076616044820152683634b21037bbb732b960b91b6064820152608401610e92565b506001600160a01b031660009081526003602052604090205490565b612174613583565b61217e60006135dd565b565b6009546001600160a01b031633146121aa5760405162461bcd60e51b8152600401610e9290614b7b565b6001600160a01b038216600090815260196020908152604080832060ff80861685529252822080549091169161129583614bcd565b6008546001600160a01b031633146122095760405162461bcd60e51b8152600401610e9290614d3c565b80600d600082825461221b9190614bea565b909155505050565b6009546000906001600160a01b031633146122505760405162461bcd60e51b8152600401610e9290614b7b565b506001600160a01b0391909116600090815260196020908152604080832060ff948516845290915290205416151590565b3360009081526019602090815260408083206078845290915290205460ff166122ec5760405162461bcd60e51b815260206004820152601c60248201527f596f7520646f6573206e6f74206861766520616e7920616c62756d2e000000006044820152606401610e92565b600f54600d5410156123365760405162461bcd60e51b815260206004820152601360248201527224b739bab33334b1b4b2b73a10333ab732399760691b6044820152606401610e92565b6000805b60798160ff1610156123cc5733600090815260196020908152604080832060ff8086168552925282205416900361237457600191506123cc565b33600090815260196020908152604080832060ff8086168552925282208054909116916123a083614bcd565b91906101000a81548160ff021916908360ff1602179055505080806123c490614a27565b91505061233a565b50801561241b5760405162461bcd60e51b815260206004820152601860248201527f4d75737420636f6d706c6574652074686520616c62756d2e00000000000000006044820152606401610e92565b6124b3336011805461242c90614a46565b80601f016020809104026020016040519081016040528092919081815260200182805461245890614a46565b80156124a55780601f1061247a576101008083540402835291602001916124a5565b820191906000526020600020905b81548152906001019060200180831161248857829003601f168201915b505050505060786002613328565b600f54600d60008282546124c79190614c27565b9091555050600b54600f5460405163a9059cbb60e01b815233600482015260248101919091526001600160a01b039091169063a9059cbb906044016020604051808303816000875af1158015612521573d6000803e3d6000fd5b505050506040513d601f19601f8201168201806040525081019061254591906149f4565b5060408051338152600160208201527f6d0344e2059f835240cb954cce07d4b26f0d0844eecc234f7ee0e292ba80a1aa910161111d565b3360009081526014602052604090205460ff166125ab5760405162461bcd60e51b8152600401610e9290614a80565b6008546040516380f2540b60e01b8152600481018490523360248201526001600160a01b03909116906380f2540b90604401600060405180830381600087803b1580156125f757600080fd5b505af115801561260b573d6000803e3d6000fd5b505050506006600c5461261e9190614ca4565b600c5461262b9190614c27565b600d600082825461263c9190614bea565b9091555050805160005b818160ff16101561280757828160ff1681518110612666576126666149de565b602002602001015160ff166078146126b45761138960176000858460ff1681518110612694576126946149de565b602002602001015160ff16815260200190815260200160002054106126e5565b607860005260176020527f1e0e657bdfc7d3d523657bb82aa6f2c628a4caf6e2f7839556e82479d4362f0654610bb9115b6127315760405162461bcd60e51b815260206004820152601e60248201527f696e76616c69642063617264496e76656e746f727920706f736974696f6e00006044820152606401610e92565b60176000848360ff168151811061274a5761274a6149de565b602002602001015160ff168152602001908152602001600020600081548092919061277490614cb8565b90915550503360009081526019602052604081208451909190859060ff85169081106127a2576127a26149de565b602002602001015160ff1660ff168152602001908152602001600020600081819054906101000a900460ff16809291906127db90614a27565b91906101000a81548160ff021916908360ff1602179055505080806127ff90614a27565b915050612646565b50505050565b606060018054610d7490614a46565b600e805461282990614a46565b80601f016020809104026020016040519081016040528092919081815260200182805461285590614a46565b80156128a25780601f10612877576101008083540402835291602001916128a2565b820191906000526020600020905b81548152906001019060200180831161288557829003601f168201915b505050505081565b3360009081526014602052604090205460ff166128d95760405162461bcd60e51b8152600401610e9290614a80565b60116128e58382614ddb565b5060126128f28282614ddb565b507fabfd337ac5625b7dc2ddd3d3bd465fb1dec15322eeeed81032268b337880bec682826040516116eb929190614e9a565b336001600160a01b038416036129875760405162461bcd60e51b815260206004820152602260248201527f596f752063616e6e6f742073656e6420636172647320746f20796f757273656c604482015261331760f11b6064820152608401610e92565b6001600160a01b0383166129ad5760405162461bcd60e51b8152600401610e9290614ac3565b60005b60ff81168211156128075733600090815260196020526040812081858560ff86168181106129e0576129e06149de565b90506020020160208101906129f591906146f0565b60ff90811682526020820192909252604001600020541611612a295760405162461bcd60e51b8152600401610e9290614d05565b33600090815260196020526040812090848460ff8516818110612a4e57612a4e6149de565b9050602002016020810190612a6391906146f0565b60ff90811682526020820192909252604001600090812080549092169190612a8a83614bcd565b91906101000a81548160ff021916908360ff1602179055505060196000856001600160a01b03166001600160a01b03168152602001908152602001600020600084848460ff16818110612adf57612adf6149de565b9050602002016020810190612af491906146f0565b60ff90811682526020820192909252604001600090812080549092169190612b1b83614a27565b91906101000a81548160ff021916908360ff160217905550508080612b3f90614a27565b9150506129b0565b6116f433838361362f565b3360009081526014602052604090205460ff16612b815760405162461bcd60e51b8152600401610e9290614a80565b60005b60798160ff161015611e4f5733600090815260196020908152604080832060ff808616855292528220805490911691612bbc83614a27565b91906101000a81548160ff021916908360ff160217905550508080612be090614a27565b915050612b84565b6009546001600160a01b03163314612c125760405162461bcd60e51b8152600401610e9290614b7b565b6001600160a01b038416612c385760405162461bcd60e51b8152600401610e9290614ac3565b6001600160a01b038216612c5e5760405162461bcd60e51b8152600401610e9290614ac3565b6001600160a01b038416600090815260196020908152604080832060ff808816855292528220805490911691612c9383614bcd565b82546101009290920a60ff8181021990931691831602179091556001600160a01b03841660009081526019602090815260408083208885168452909152812080549092169250612ce283614a27565b82546101009290920a60ff8181021990931691831602179091556001600160a01b03841660009081526019602090815260408083208685168452909152812080549092169250612d3183614bcd565b82546101009290920a60ff8181021990931691831602179091556001600160a01b03861660009081526019602090815260408083208685168452909152812080549092169250612d8083614a27565b91906101000a81548160ff021916908360ff1602179055505050505050565b612da9338361338b565b612dc55760405162461bcd60e51b8152600401610e9290614c3a565b612807848484846136fd565b33600090815260196020908152604080832060ff808616855292529091205416612e0d5760405162461bcd60e51b8152600401610e9290614d05565b601354610100900460ff1615612efa57600954604051632edb5fcf60e01b815233600482015260ff831660248201526000916001600160a01b031690632edb5fcf90604401602060405180830381865afa158015612e6f573d6000803e3d6000fd5b505050506040513d601f19601f82011682018060405250810190612e9391906149f4565b90508015612ef85760405162461bcd60e51b815260206004820152602c60248201527f5468697320636172642068617320616e206f666665722c2069742063616e6e6f60448201526b3a1031329036b4b73a32b21760a11b6064820152608401610e92565b505b33600090815260196020908152604080832060ff808616855292528220805490911691612f2683614bcd565b91906101000a81548160ff021916908360ff160217905550506000600e604051806040016040528060018152602001602f60f81b815250612f698460ff16613730565b60405180604001604052806005815260200164173539b7b760d91b815250604051602001612f9a9493929190614ec8565b60405160208183030381529060405290506116f433828460ff166001613328565b6011805461282990614a46565b60606109a282613830565b3360009081526014602052604090205460ff166130025760405162461bcd60e51b8152600401610e9290614a80565b6013805460ff1916911515919091179055565b6012805461282990614a46565b6008546001600160a01b0316331461304c5760405162461bcd60e51b8152600401610e9290614d3c565b600c55565b3360009081526014602052604090205460ff166130805760405162461bcd60e51b8152600401610e9290614a80565b6001600160a01b0381166130a65760405162461bcd60e51b8152600401610e9290614ac3565b6001600160a01b03811660009081526015602052604090205460ff161561310f5760405162461bcd60e51b815260206004820152601c60248201527f4164647265737320697320616c726561647920616e206f776e65722e000000006044820152606401610e92565b6001600160a01b03166000908152601560205260409020805460ff19166001179055565b61313b613583565b6001600160a01b0381166131a05760405162461bcd60e51b815260206004820152602660248201527f4f776e61626c653a206e6577206f776e657220697320746865207a65726f206160448201526564647265737360d01b6064820152608401610e92565b611e4f816135dd565b3360009081526014602052604090205460ff166131d85760405162461bcd60e51b8152600401610e9290614a80565b601380549115156101000261ff0019909216919091179055565b6000818152600260205260409020546001600160a01b0316611e4f5760405162461bcd60e51b8152602060048201526018602482015277115490cdcc8c4e881a5b9d985b1a59081d1bdad95b88125160421b6044820152606401610e92565b600081815260046020526040902080546001600160a01b0319166001600160a01b038416908117909155819061328682611f59565b6001600160a01b03167f8c5be1e5ebec7d5bd14f71427d1e84f3dd0314c0f7b2291e5b200ac8c7c3b92560405160405180910390a45050565b60008060006132ce8585613938565b915091506132db8161397d565b509392505050565b6116f482826040516024016132f9929190614f77565b60408051601f198184030181529190526020810180516001600160e01b031663319af33360e01b179052613ac7565b6000613333600a5490565b9050613343600a80546001019055565b600081815260166020526040902081815560018101849055600201805461ff00191661010060ff85160217905561337a8582613ad0565b6133848185613aea565b5050505050565b60008061339783611f59565b9050806001600160a01b0316846001600160a01b031614806133de57506001600160a01b0380821660009081526005602090815260408083209388168352929052205460ff165b8061122e5750836001600160a01b03166133f784610df7565b6001600160a01b031614949350505050565b826001600160a01b031661341c82611f59565b6001600160a01b0316146134425760405162461bcd60e51b8152600401610e9290614fa1565b6001600160a01b0382166134a45760405162461bcd60e51b8152602060048201526024808201527f4552433732313a207472616e7366657220746f20746865207a65726f206164646044820152637265737360e01b6064820152608401610e92565b6134b18383836001613b7d565b826001600160a01b03166134c482611f59565b6001600160a01b0316146134ea5760405162461bcd60e51b8152600401610e9290614fa1565b600081815260046020908152604080832080546001600160a01b03199081169091556001600160a01b0387811680865260038552838620805460001901905590871680865283862080546001019055868652600290945282852080549092168417909155905184937fddf252ad1be2c89b69c2b068fc378daa952ba7f163c4a11628f55a4df523b3ef91a4505050565b611e4f81613c05565b6007546001600160a01b0316331461217e5760405162461bcd60e51b815260206004820181905260248201527f4f776e61626c653a2063616c6c6572206973206e6f7420746865206f776e65726044820152606401610e92565b600780546001600160a01b038381166001600160a01b0319831681179093556040519116919082907f8be0079c531659141344cd1fd0a4f28419497f9722a3daafe3b4186f6b6457e090600090a35050565b816001600160a01b0316836001600160a01b0316036136905760405162461bcd60e51b815260206004820152601960248201527f4552433732313a20617070726f766520746f2063616c6c6572000000000000006044820152606401610e92565b6001600160a01b03838116600081815260056020908152604080832094871680845294825291829020805460ff191686151590811790915591519182527f17307eab39ab6107e8899845ad3d59bd9653f200f220920489ca2b5937696c31910160405180910390a3505050565b613708848484613409565b61371484848484613c45565b6128075760405162461bcd60e51b8152600401610e9290614fe6565b6060816000036137575750506040805180820190915260018152600360fc1b602082015290565b8160005b8115613781578061376b81614cb8565b915061377a9050600a83614ca4565b915061375b565b6000816001600160401b0381111561379b5761379b614479565b6040519080825280601f01601f1916602001820160405280156137c5576020820181803683370190505b5090505b841561122e576137da600183614c27565b91506137e7600a86614c13565b6137f2906030614bea565b60f81b818381518110613807576138076149de565b60200101906001600160f81b031916908160001a905350613829600a86614ca4565b94506137c9565b606061383b826131f2565b6000828152600660205260408120805461385490614a46565b80601f016020809104026020016040519081016040528092919081815260200182805461388090614a46565b80156138cd5780601f106138a2576101008083540402835291602001916138cd565b820191906000526020600020905b8154815290600101906020018083116138b057829003601f168201915b5050505050905060006138eb60408051602081019091526000815290565b905080516000036138fd575092915050565b81511561392f578082604051602001613917929190615038565b60405160208183030381529060405292505050919050565b61122e84613d43565b600080825160410361396e5760208301516040840151606085015160001a61396287828585613db7565b94509450505050613976565b506000905060025b9250929050565b600081600481111561399157613991615067565b036139995750565b60018160048111156139ad576139ad615067565b036139fa5760405162461bcd60e51b815260206004820152601860248201527f45434453413a20696e76616c6964207369676e617475726500000000000000006044820152606401610e92565b6002816004811115613a0e57613a0e615067565b03613a5b5760405162461bcd60e51b815260206004820152601f60248201527f45434453413a20696e76616c6964207369676e6174757265206c656e677468006044820152606401610e92565b6003816004811115613a6f57613a6f615067565b03611e4f5760405162461bcd60e51b815260206004820152602260248201527f45434453413a20696e76616c6964207369676e6174757265202773272076616c604482015261756560f01b6064820152608401610e92565b611e4f81613e7b565b6116f4828260405180602001604052806000815250613e9c565b6000828152600260205260409020546001600160a01b0316613b655760405162461bcd60e51b815260206004820152602e60248201527f45524337323155524953746f726167653a2055524920736574206f66206e6f6e60448201526d32bc34b9ba32b73a103a37b5b2b760911b6064820152608401610e92565b6000828152600660205260409020610f338282614ddb565b6001811115612807576001600160a01b03841615613bc3576001600160a01b03841660009081526003602052604081208054839290613bbd908490614c27565b90915550505b6001600160a01b03831615612807576001600160a01b03831660009081526003602052604081208054839290613bfa908490614bea565b909155505050505050565b613c0e81613ecf565b60008181526006602052604090208054613c2790614a46565b159050611e4f576000818152600660205260408120611e4f91614275565b60006001600160a01b0384163b15613d3b57604051630a85bd0160e11b81526001600160a01b0385169063150b7a0290613c8990339089908890889060040161507d565b6020604051808303816000875af1925050508015613cc4575060408051601f3d908101601f19168201909252613cc1918101906150ba565b60015b613d21573d808015613cf2576040519150601f19603f3d011682016040523d82523d6000602084013e613cf7565b606091505b508051600003613d195760405162461bcd60e51b8152600401610e9290614fe6565b805181602001fd5b6001600160e01b031916630a85bd0160e11b14905061122e565b50600161122e565b6060613d4e826131f2565b6000613d6560408051602081019091526000815290565b90506000815111613d855760405180602001604052806000815250613db0565b80613d8f84613f72565b604051602001613da0929190615038565b6040516020818303038152906040525b9392505050565b6000807f7fffffffffffffffffffffffffffffff5d576e7357a4501ddfe92f46681b20a0831115613dee5750600090506003613e72565b6040805160008082526020820180845289905260ff881692820192909252606081018690526080810185905260019060a0016020604051602081039080840390855afa158015613e42573d6000803e3d6000fd5b5050604051601f1901519150506001600160a01b038116613e6b57600060019250925050613e72565b9150600090505b94509492505050565b60006a636f6e736f6c652e6c6f679050600080835160208501845afa505050565b613ea68383614004565b613eb36000848484613c45565b610f335760405162461bcd60e51b8152600401610e9290614fe6565b6000613eda82611f59565b9050613eea816000846001613b7d565b613ef382611f59565b600083815260046020908152604080832080546001600160a01b03199081169091556001600160a01b0385168085526003845282852080546000190190558785526002909352818420805490911690555192935084927fddf252ad1be2c89b69c2b068fc378daa952ba7f163c4a11628f55a4df523b3ef908390a45050565b60606000613f7f8361419d565b60010190506000816001600160401b03811115613f9e57613f9e614479565b6040519080825280601f01601f191660200182016040528015613fc8576020820181803683370190505b5090508181016020015b600019016f181899199a1a9b1b9c1cb0b131b232b360811b600a86061a8153600a8504945084613fd257509392505050565b6001600160a01b03821661405a5760405162461bcd60e51b815260206004820181905260248201527f4552433732313a206d696e7420746f20746865207a65726f20616464726573736044820152606401610e92565b6000818152600260205260409020546001600160a01b0316156140bf5760405162461bcd60e51b815260206004820152601c60248201527f4552433732313a20746f6b656e20616c7265616479206d696e746564000000006044820152606401610e92565b6140cd600083836001613b7d565b6000818152600260205260409020546001600160a01b0316156141325760405162461bcd60e51b815260206004820152601c60248201527f4552433732313a20746f6b656e20616c7265616479206d696e746564000000006044820152606401610e92565b6001600160a01b038216600081815260036020908152604080832080546001019055848352600290915280822080546001600160a01b0319168417905551839291907fddf252ad1be2c89b69c2b068fc378daa952ba7f163c4a11628f55a4df523b3ef908290a45050565b60008072184f03e93ff9f4daa797ed6e38ed64bf6a1f0160401b83106141dc5772184f03e93ff9f4daa797ed6e38ed64bf6a1f0160401b830492506040015b6d04ee2d6d415b85acef81000000008310614208576d04ee2d6d415b85acef8100000000830492506020015b662386f26fc10000831061422657662386f26fc10000830492506010015b6305f5e100831061423e576305f5e100830492506008015b612710831061425257612710830492506004015b60648310614264576064830492506002015b600a83106109a25760010192915050565b50805461428190614a46565b6000825580601f10614291575050565b601f016020900490600052602060002090810190611e4f91905b808211156142bf57600081556001016142ab565b5090565b6001600160e01b031981168114611e4f57600080fd5b6000602082840312156142eb57600080fd5b8135613db0816142c3565b6001600160a01b0381168114611e4f57600080fd5b60006020828403121561431d57600080fd5b8135613db0816142f6565b600081518084526020808501945080840160005b8381101561435b57815160ff168752958201959082019060010161433c565b509495945050505050565b6060815260006143796060830186614328565b60208382038185015261438c8287614328565b8481036040860152855180825282870193509082019060005b818110156143c35784511515835293830193918301916001016143a5565b509098975050505050505050565b60005b838110156143ec5781810151838201526020016143d4565b50506000910152565b6000815180845261440d8160208601602086016143d1565b601f01601f19169290920160200192915050565b602081526000613db060208301846143f5565b60006020828403121561444657600080fd5b5035919050565b6000806040838503121561446057600080fd5b823561446b816142f6565b946020939093013593505050565b634e487b7160e01b600052604160045260246000fd5b604051601f8201601f191681016001600160401b03811182821017156144b7576144b7614479565b604052919050565b803560ff811681146144d057600080fd5b919050565b600082601f8301126144e657600080fd5b813560206001600160401b0382111561450157614501614479565b8160051b61451082820161448f565b928352848101820192828101908785111561452a57600080fd5b83870192505b8483101561455057614541836144bf565b82529183019190830190614530565b979650505050505050565b6000806000806060858703121561457157600080fd5b8435935060208501356001600160401b038082111561458f57600080fd5b61459b888389016144d5565b945060408701359150808211156145b157600080fd5b818701915087601f8301126145c557600080fd5b8135818111156145d457600080fd5b8860208285010111156145e657600080fd5b95989497505060200194505050565b6000806040838503121561460857600080fd5b8235614613816142f6565b9150614621602084016144bf565b90509250929050565b60008083601f84011261463c57600080fd5b5081356001600160401b0381111561465357600080fd5b6020830191508360208260051b850101111561397657600080fd5b6000806020838503121561468157600080fd5b82356001600160401b0381111561469757600080fd5b6146a38582860161462a565b90969095509350505050565b6000806000606084860312156146c457600080fd5b83356146cf816142f6565b925060208401356146df816142f6565b929592945050506040919091013590565b60006020828403121561470257600080fd5b613db0826144bf565b8015158114611e4f57600080fd5b60006020828403121561472b57600080fd5b8135613db08161470b565b6000806040838503121561474957600080fd5b8235915060208301356001600160401b0381111561476657600080fd5b614772858286016144d5565b9150509250929050565b60006001600160401b0383111561479557614795614479565b6147a8601f8401601f191660200161448f565b90508281528383830111156147bc57600080fd5b828260208301376000602084830101529392505050565b600082601f8301126147e457600080fd5b613db08383356020850161477c565b6000806040838503121561480657600080fd5b82356001600160401b038082111561481d57600080fd5b614829868387016147d3565b9350602085013591508082111561483f57600080fd5b50614772858286016147d3565b60008060006040848603121561486157600080fd5b833561486c816142f6565b925060208401356001600160401b0381111561488757600080fd5b6148938682870161462a565b9497909650939450505050565b600080604083850312156148b357600080fd5b82356148be816142f6565b915060208301356148ce8161470b565b809150509250929050565b600080600080608085870312156148ef57600080fd5b84356148fa816142f6565b9350614908602086016144bf565b92506040850135614918816142f6565b9150614926606086016144bf565b905092959194509250565b6000806000806080858703121561494757600080fd5b8435614952816142f6565b93506020850135614962816142f6565b92506040850135915060608501356001600160401b0381111561498457600080fd5b8501601f8101871361499557600080fd5b6149a48782356020840161477c565b91505092959194509250565b600080604083850312156149c357600080fd5b82356149ce816142f6565b915060208301356148ce816142f6565b634e487b7160e01b600052603260045260246000fd5b600060208284031215614a0657600080fd5b8151613db08161470b565b634e487b7160e01b600052601160045260246000fd5b600060ff821660ff8103614a3d57614a3d614a11565b60010192915050565b600181811c90821680614a5a57607f821691505b602082108103614a7a57634e487b7160e01b600052602260045260246000fd5b50919050565b60208082526023908201527f4f6e6c79206f776e6572732063616e2063616c6c20746869732066756e63746960408201526237b71760e91b606082015260800190565b60208082526010908201526f24b73b30b634b21030b2323932b9b99760811b604082015260600190565b6bffffffffffffffffffffffff198460601b1681528260148201526000603482018351602080860160005b83811015614b3757815160ff1685529382019390820190600101614b18565b50507f30786631644437313839356534396231353633363933393639646535303839388352693139376344463334383160b01b9083015250602a0195945050505050565b60208082526032908201527f4f6e6c792067616d6d61206f666665727320636f6e74726163742063616e206360408201527130b636103a3434b990333ab731ba34b7b71760711b606082015260800190565b600060ff821680614be057614be0614a11565b6000190192915050565b808201808211156109a2576109a2614a11565b634e487b7160e01b600052601260045260246000fd5b600082614c2257614c22614bfd565b500690565b818103818111156109a2576109a2614a11565b6020808252602d908201527f4552433732313a2063616c6c6572206973206e6f7420746f6b656e206f776e6560408201526c1c881bdc88185c1c1c9bdd9959609a1b606082015260800190565b600060208284031215614c9957600080fd5b8151613db0816142f6565b600082614cb357614cb3614bfd565b500490565b600060018201614cca57614cca614a11565b5060010190565b6001600160a01b0384168152606060208201819052600090614cf590830185614328565b9050826040830152949350505050565b6020808252601c908201527f596f7520646f6573206e6f742068617665207468697320636172642e00000000604082015260600190565b60208082526031908201527f4f6e6c792067616d6d61207061636b7320636f6e74726163742063616e2063616040820152703636103a3434b990333ab731ba34b7b71760791b606082015260800190565b601f821115610f3357600081815260208120601f850160051c81016020861015614db45750805b601f850160051c820191505b81811015614dd357828155600101614dc0565b505050505050565b81516001600160401b03811115614df457614df4614479565b614e0881614e028454614a46565b84614d8d565b602080601f831160018114614e3d5760008415614e255750858301515b600019600386901b1c1916600185901b178555614dd3565b600085815260208120601f198616915b82811015614e6c57888601518255948401946001909101908401614e4d565b5085821015614e8a5787850151600019600388901b60f8161c191681555b5050505050600190811b01905550565b604081526000614ead60408301856143f5565b8281036020840152614ebf81856143f5565b95945050505050565b6000808654614ed681614a46565b60018281168015614eee5760018114614f0357614f32565b60ff1984168752821515830287019450614f32565b8a60005260208060002060005b85811015614f295781548a820152908401908201614f10565b50505082870194505b505050508551614f46818360208a016143d1565b8551910190614f598183602089016143d1565b8451910190614f6c8183602088016143d1565b019695505050505050565b604081526000614f8a60408301856143f5565b905060018060a01b03831660208301529392505050565b60208082526025908201527f4552433732313a207472616e736665722066726f6d20696e636f72726563742060408201526437bbb732b960d91b606082015260800190565b60208082526032908201527f4552433732313a207472616e7366657220746f206e6f6e20455243373231526560408201527131b2b4bb32b91034b6b83632b6b2b73a32b960711b606082015260800190565b6000835161504a8184602088016143d1565b83519083019061505e8183602088016143d1565b01949350505050565b634e487b7160e01b600052602160045260246000fd5b6001600160a01b03858116825284166020820152604081018390526080606082018190526000906150b0908301846143f5565b9695505050505050565b6000602082840312156150cc57600080fd5b8151613db0816142c356fea2646970667358221220ad6db95f1dca7c79660506e53e421ed18de6dc59984ec7e6c36323c0b59971b864736f6c63430008120033",
  "linkReferences": {},
  "deployedLinkReferences": {}
}