{
  "_format": "hh-sol-artifact-1",
  "contractName": "NofTestDAIV3",
  "sourceName": "contracts/testDai/TestDAI.v3.sol",
  "abi": [
    {
      "anonymous": false,
      "inputs": [
        {
          "indexed": true,
          "internalType": "address",
          "name": "owner",
          "type": "address"
        },
        {
          "indexed": true,
          "internalType": "address",
          "name": "spender",
          "type": "address"
        },
        {
          "indexed": false,
          "internalType": "uint256",
          "name": "value",
          "type": "uint256"
        }
      ],
      "name": "Approval",
      "type": "event"
    },
    {
      "anonymous": false,
      "inputs": [
        {
          "indexed": false,
          "internalType": "address",
          "name": "userAddress",
          "type": "address"
        },
        {
          "indexed": false,
          "internalType": "address payable",
          "name": "relayerAddress",
          "type": "address"
        },
        {
          "indexed": false,
          "internalType": "bytes",
          "name": "functionSignature",
          "type": "bytes"
        }
      ],
      "name": "MetaTransactionExecuted",
      "type": "event"
    },
    {
      "anonymous": false,
      "inputs": [
        {
          "indexed": true,
          "internalType": "bytes32",
          "name": "role",
          "type": "bytes32"
        },
        {
          "indexed": true,
          "internalType": "bytes32",
          "name": "previousAdminRole",
          "type": "bytes32"
        },
        {
          "indexed": true,
          "internalType": "bytes32",
          "name": "newAdminRole",
          "type": "bytes32"
        }
      ],
      "name": "RoleAdminChanged",
      "type": "event"
    },
    {
      "anonymous": false,
      "inputs": [
        {
          "indexed": true,
          "internalType": "bytes32",
          "name": "role",
          "type": "bytes32"
        },
        {
          "indexed": true,
          "internalType": "address",
          "name": "account",
          "type": "address"
        },
        {
          "indexed": true,
          "internalType": "address",
          "name": "sender",
          "type": "address"
        }
      ],
      "name": "RoleGranted",
      "type": "event"
    },
    {
      "anonymous": false,
      "inputs": [
        {
          "indexed": true,
          "internalType": "bytes32",
          "name": "role",
          "type": "bytes32"
        },
        {
          "indexed": true,
          "internalType": "address",
          "name": "account",
          "type": "address"
        },
        {
          "indexed": true,
          "internalType": "address",
          "name": "sender",
          "type": "address"
        }
      ],
      "name": "RoleRevoked",
      "type": "event"
    },
    {
      "anonymous": false,
      "inputs": [
        {
          "indexed": true,
          "internalType": "address",
          "name": "from",
          "type": "address"
        },
        {
          "indexed": true,
          "internalType": "address",
          "name": "to",
          "type": "address"
        },
        {
          "indexed": false,
          "internalType": "uint256",
          "name": "value",
          "type": "uint256"
        }
      ],
      "name": "Transfer",
      "type": "event"
    },
    {
      "inputs": [],
      "name": "CHILD_CHAIN_ID",
      "outputs": [
        {
          "internalType": "uint256",
          "name": "",
          "type": "uint256"
        }
      ],
      "stateMutability": "view",
      "type": "function"
    },
    {
      "inputs": [],
      "name": "CHILD_CHAIN_ID_BYTES",
      "outputs": [
        {
          "internalType": "bytes",
          "name": "",
          "type": "bytes"
        }
      ],
      "stateMutability": "view",
      "type": "function"
    },
    {
      "inputs": [],
      "name": "DEFAULT_ADMIN_ROLE",
      "outputs": [
        {
          "internalType": "bytes32",
          "name": "",
          "type": "bytes32"
        }
      ],
      "stateMutability": "view",
      "type": "function"
    },
    {
      "inputs": [],
      "name": "DEPOSITOR_ROLE",
      "outputs": [
        {
          "internalType": "bytes32",
          "name": "",
          "type": "bytes32"
        }
      ],
      "stateMutability": "view",
      "type": "function"
    },
    {
      "inputs": [],
      "name": "ERC712_VERSION",
      "outputs": [
        {
          "internalType": "string",
          "name": "",
          "type": "string"
        }
      ],
      "stateMutability": "view",
      "type": "function"
    },
    {
      "inputs": [],
      "name": "PERMIT_TYPEHASH",
      "outputs": [
        {
          "internalType": "bytes32",
          "name": "",
          "type": "bytes32"
        }
      ],
      "stateMutability": "view",
      "type": "function"
    },
    {
      "inputs": [],
      "name": "ROOT_CHAIN_ID",
      "outputs": [
        {
          "internalType": "uint256",
          "name": "",
          "type": "uint256"
        }
      ],
      "stateMutability": "view",
      "type": "function"
    },
    {
      "inputs": [],
      "name": "ROOT_CHAIN_ID_BYTES",
      "outputs": [
        {
          "internalType": "bytes",
          "name": "",
          "type": "bytes"
        }
      ],
      "stateMutability": "view",
      "type": "function"
    },
    {
      "inputs": [
        {
          "internalType": "address",
          "name": "account",
          "type": "address"
        },
        {
          "internalType": "uint256",
          "name": "amount",
          "type": "uint256"
        }
      ],
      "name": "_mint",
      "outputs": [],
      "stateMutability": "nonpayable",
      "type": "function"
    },
    {
      "inputs": [
        {
          "internalType": "address",
          "name": "owner",
          "type": "address"
        },
        {
          "internalType": "address",
          "name": "spender",
          "type": "address"
        }
      ],
      "name": "allowance",
      "outputs": [
        {
          "internalType": "uint256",
          "name": "",
          "type": "uint256"
        }
      ],
      "stateMutability": "view",
      "type": "function"
    },
    {
      "inputs": [
        {
          "internalType": "address",
          "name": "spender",
          "type": "address"
        },
        {
          "internalType": "uint256",
          "name": "amount",
          "type": "uint256"
        }
      ],
      "name": "approve",
      "outputs": [
        {
          "internalType": "bool",
          "name": "",
          "type": "bool"
        }
      ],
      "stateMutability": "nonpayable",
      "type": "function"
    },
    {
      "inputs": [
        {
          "internalType": "address",
          "name": "account",
          "type": "address"
        }
      ],
      "name": "balanceOf",
      "outputs": [
        {
          "internalType": "uint256",
          "name": "",
          "type": "uint256"
        }
      ],
      "stateMutability": "view",
      "type": "function"
    },
    {
      "inputs": [
        {
          "internalType": "string",
          "name": "name_",
          "type": "string"
        }
      ],
      "name": "changeName",
      "outputs": [],
      "stateMutability": "nonpayable",
      "type": "function"
    },
    {
      "inputs": [],
      "name": "decimals",
      "outputs": [
        {
          "internalType": "uint8",
          "name": "",
          "type": "uint8"
        }
      ],
      "stateMutability": "view",
      "type": "function"
    },
    {
      "inputs": [
        {
          "internalType": "address",
          "name": "spender",
          "type": "address"
        },
        {
          "internalType": "uint256",
          "name": "subtractedValue",
          "type": "uint256"
        }
      ],
      "name": "decreaseAllowance",
      "outputs": [
        {
          "internalType": "bool",
          "name": "",
          "type": "bool"
        }
      ],
      "stateMutability": "nonpayable",
      "type": "function"
    },
    {
      "inputs": [
        {
          "internalType": "address",
          "name": "user",
          "type": "address"
        },
        {
          "internalType": "bytes",
          "name": "depositData",
          "type": "bytes"
        }
      ],
      "name": "deposit",
      "outputs": [],
      "stateMutability": "nonpayable",
      "type": "function"
    },
    {
      "inputs": [
        {
          "internalType": "address",
          "name": "userAddress",
          "type": "address"
        },
        {
          "internalType": "bytes",
          "name": "functionSignature",
          "type": "bytes"
        },
        {
          "internalType": "bytes32",
          "name": "sigR",
          "type": "bytes32"
        },
        {
          "internalType": "bytes32",
          "name": "sigS",
          "type": "bytes32"
        },
        {
          "internalType": "uint8",
          "name": "sigV",
          "type": "uint8"
        }
      ],
      "name": "executeMetaTransaction",
      "outputs": [
        {
          "internalType": "bytes",
          "name": "",
          "type": "bytes"
        }
      ],
      "stateMutability": "payable",
      "type": "function"
    },
    {
      "inputs": [],
      "name": "getChainId",
      "outputs": [
        {
          "internalType": "uint256",
          "name": "",
          "type": "uint256"
        }
      ],
      "stateMutability": "pure",
      "type": "function"
    },
    {
      "inputs": [],
      "name": "getDomainSeperator",
      "outputs": [
        {
          "internalType": "bytes32",
          "name": "",
          "type": "bytes32"
        }
      ],
      "stateMutability": "view",
      "type": "function"
    },
    {
      "inputs": [
        {
          "internalType": "address",
          "name": "user",
          "type": "address"
        }
      ],
      "name": "getNonce",
      "outputs": [
        {
          "internalType": "uint256",
          "name": "nonce",
          "type": "uint256"
        }
      ],
      "stateMutability": "view",
      "type": "function"
    },
    {
      "inputs": [
        {
          "internalType": "bytes32",
          "name": "role",
          "type": "bytes32"
        }
      ],
      "name": "getRoleAdmin",
      "outputs": [
        {
          "internalType": "bytes32",
          "name": "",
          "type": "bytes32"
        }
      ],
      "stateMutability": "view",
      "type": "function"
    },
    {
      "inputs": [
        {
          "internalType": "bytes32",
          "name": "role",
          "type": "bytes32"
        },
        {
          "internalType": "uint256",
          "name": "index",
          "type": "uint256"
        }
      ],
      "name": "getRoleMember",
      "outputs": [
        {
          "internalType": "address",
          "name": "",
          "type": "address"
        }
      ],
      "stateMutability": "view",
      "type": "function"
    },
    {
      "inputs": [
        {
          "internalType": "bytes32",
          "name": "role",
          "type": "bytes32"
        }
      ],
      "name": "getRoleMemberCount",
      "outputs": [
        {
          "internalType": "uint256",
          "name": "",
          "type": "uint256"
        }
      ],
      "stateMutability": "view",
      "type": "function"
    },
    {
      "inputs": [
        {
          "internalType": "bytes32",
          "name": "role",
          "type": "bytes32"
        },
        {
          "internalType": "address",
          "name": "account",
          "type": "address"
        }
      ],
      "name": "grantRole",
      "outputs": [],
      "stateMutability": "nonpayable",
      "type": "function"
    },
    {
      "inputs": [
        {
          "internalType": "bytes32",
          "name": "role",
          "type": "bytes32"
        },
        {
          "internalType": "address",
          "name": "account",
          "type": "address"
        }
      ],
      "name": "hasRole",
      "outputs": [
        {
          "internalType": "bool",
          "name": "",
          "type": "bool"
        }
      ],
      "stateMutability": "view",
      "type": "function"
    },
    {
      "inputs": [
        {
          "internalType": "address",
          "name": "spender",
          "type": "address"
        },
        {
          "internalType": "uint256",
          "name": "addedValue",
          "type": "uint256"
        }
      ],
      "name": "increaseAllowance",
      "outputs": [
        {
          "internalType": "bool",
          "name": "",
          "type": "bool"
        }
      ],
      "stateMutability": "nonpayable",
      "type": "function"
    },
    {
      "inputs": [
        {
          "internalType": "string",
          "name": "name_",
          "type": "string"
        },
        {
          "internalType": "string",
          "name": "symbol_",
          "type": "string"
        },
        {
          "internalType": "uint8",
          "name": "decimals_",
          "type": "uint8"
        },
        {
          "internalType": "address",
          "name": "childChainManager",
          "type": "address"
        }
      ],
      "name": "initialize",
      "outputs": [],
      "stateMutability": "nonpayable",
      "type": "function"
    },
    {
      "inputs": [
        {
          "internalType": "address",
          "name": "src",
          "type": "address"
        },
        {
          "internalType": "address",
          "name": "dst",
          "type": "address"
        },
        {
          "internalType": "uint256",
          "name": "wad",
          "type": "uint256"
        }
      ],
      "name": "move",
      "outputs": [],
      "stateMutability": "nonpayable",
      "type": "function"
    },
    {
      "inputs": [],
      "name": "name",
      "outputs": [
        {
          "internalType": "string",
          "name": "",
          "type": "string"
        }
      ],
      "stateMutability": "view",
      "type": "function"
    },
    {
      "inputs": [
        {
          "internalType": "address",
          "name": "holder",
          "type": "address"
        },
        {
          "internalType": "address",
          "name": "spender",
          "type": "address"
        },
        {
          "internalType": "uint256",
          "name": "nonce",
          "type": "uint256"
        },
        {
          "internalType": "uint256",
          "name": "expiry",
          "type": "uint256"
        },
        {
          "internalType": "bool",
          "name": "allowed",
          "type": "bool"
        },
        {
          "internalType": "uint8",
          "name": "v",
          "type": "uint8"
        },
        {
          "internalType": "bytes32",
          "name": "r",
          "type": "bytes32"
        },
        {
          "internalType": "bytes32",
          "name": "s",
          "type": "bytes32"
        }
      ],
      "name": "permit",
      "outputs": [],
      "stateMutability": "nonpayable",
      "type": "function"
    },
    {
      "inputs": [
        {
          "internalType": "address",
          "name": "usr",
          "type": "address"
        },
        {
          "internalType": "uint256",
          "name": "wad",
          "type": "uint256"
        }
      ],
      "name": "pull",
      "outputs": [],
      "stateMutability": "nonpayable",
      "type": "function"
    },
    {
      "inputs": [
        {
          "internalType": "address",
          "name": "usr",
          "type": "address"
        },
        {
          "internalType": "uint256",
          "name": "wad",
          "type": "uint256"
        }
      ],
      "name": "push",
      "outputs": [],
      "stateMutability": "nonpayable",
      "type": "function"
    },
    {
      "inputs": [
        {
          "internalType": "bytes32",
          "name": "role",
          "type": "bytes32"
        },
        {
          "internalType": "address",
          "name": "account",
          "type": "address"
        }
      ],
      "name": "renounceRole",
      "outputs": [],
      "stateMutability": "nonpayable",
      "type": "function"
    },
    {
      "inputs": [
        {
          "internalType": "bytes32",
          "name": "role",
          "type": "bytes32"
        },
        {
          "internalType": "address",
          "name": "account",
          "type": "address"
        }
      ],
      "name": "revokeRole",
      "outputs": [],
      "stateMutability": "nonpayable",
      "type": "function"
    },
    {
      "inputs": [],
      "name": "symbol",
      "outputs": [
        {
          "internalType": "string",
          "name": "",
          "type": "string"
        }
      ],
      "stateMutability": "view",
      "type": "function"
    },
    {
      "inputs": [],
      "name": "totalSupply",
      "outputs": [
        {
          "internalType": "uint256",
          "name": "",
          "type": "uint256"
        }
      ],
      "stateMutability": "view",
      "type": "function"
    },
    {
      "inputs": [
        {
          "internalType": "address",
          "name": "recipient",
          "type": "address"
        },
        {
          "internalType": "uint256",
          "name": "amount",
          "type": "uint256"
        }
      ],
      "name": "transfer",
      "outputs": [
        {
          "internalType": "bool",
          "name": "",
          "type": "bool"
        }
      ],
      "stateMutability": "nonpayable",
      "type": "function"
    },
    {
      "inputs": [
        {
          "internalType": "address",
          "name": "sender",
          "type": "address"
        },
        {
          "internalType": "address",
          "name": "recipient",
          "type": "address"
        },
        {
          "internalType": "uint256",
          "name": "amount",
          "type": "uint256"
        }
      ],
      "name": "transferFrom",
      "outputs": [
        {
          "internalType": "bool",
          "name": "",
          "type": "bool"
        }
      ],
      "stateMutability": "nonpayable",
      "type": "function"
    },
    {
      "inputs": [
        {
          "internalType": "uint256",
          "name": "amount",
          "type": "uint256"
        }
      ],
      "name": "withdraw",
      "outputs": [],
      "stateMutability": "nonpayable",
      "type": "function"
    }
  ],
  "bytecode": "0x6008805460ff19169055600360808181526244414960e81b60a081815261010060405260c084815260e092909252919290916200003e9190816200006a565b508051620000549060049060208401906200006a565b50506005805460ff19166012179055506200010f565b828054600181600116156101000203166002900490600052602060002090601f016020900481019282601f10620000ad57805160ff1916838001178555620000dd565b82800160010185558215620000dd579182015b82811115620000dd578251825591602001919060010190620000c0565b50620000eb929150620000ef565b5090565b6200010c91905b80821115620000eb5760008155600101620000f6565b90565b612a35806200011f6000396000f3fe6080604052600436106102305760003560e01c80635353a2d81161012e578063a457c2d7116100ab578063cf2c52cb1161006f578063cf2c52cb14610969578063d547741f146109f4578063dd62ed3e14610a2d578063de7ea79d14610a68578063f2d5d56b14610b4557610230565b8063a457c2d714610851578063a9059cbb1461088a578063b753a98c146108c3578063bb35783b146108fc578063ca15c8731461093f57610230565b80639010d07c116100f25780639010d07c1461078d57806391d14854146107d957806395d89b4114610812578063a217fddf14610827578063a3b0b5a31461083c57610230565b80635353a2d81461064e578063626381a0146106c957806370a08231146106de5780638acfcaf7146107115780638fcbaf0c1461072657610230565b8063248a9ca3116101bc578063313ce56711610180578063313ce567146105635780633408e4701461058e57806336568abe146105a357806339509351146105dc5780634e6ec2471461061557610230565b8063248a9ca31461048c5780632d0335ab146104b65780632e1a7d4d146104e95780632f2ff15d1461051557806330adf81f1461054e57610230565b80630dd7531a116102035780630dd7531a146103e35780630f7e5970146103f857806318160ddd1461040d57806320379ee51461043457806323b872dd1461044957610230565b806306fdde0314610235578063095ea7b3146102bf5780630b54817c1461030c5780630c53c51c14610321575b600080fd5b34801561024157600080fd5b5061024a610b7e565b6040805160208082528351818301528351919283929083019185019080838360005b8381101561028457818101518382015260200161026c565b50505050905090810190601f1680156102b15780820380516001836020036101000a031916815260200191505b509250505060405180910390f35b3480156102cb57600080fd5b506102f8600480360360408110156102e257600080fd5b506001600160a01b038135169060200135610c15565b604080519115158252519081900360200190f35b34801561031857600080fd5b5061024a610c33565b61024a600480360360a081101561033757600080fd5b6001600160a01b038235169190810190604081016020820135600160201b81111561036157600080fd5b82018360208201111561037357600080fd5b803590602001918460018302840111600160201b8311171561039457600080fd5b91908080601f016020809104026020016040519081016040528093929190818152602001838380828437600092019190915250929550508235935050506020810135906040013560ff16610c50565b3480156103ef57600080fd5b5061024a610f53565b34801561040457600080fd5b5061024a610f70565b34801561041957600080fd5b50610422610f8d565b60408051918252519081900360200190f35b34801561044057600080fd5b50610422610f93565b34801561045557600080fd5b506102f86004803603606081101561046c57600080fd5b506001600160a01b03813581169160208101359091169060400135610f99565b34801561049857600080fd5b50610422600480360360208110156104af57600080fd5b5035611026565b3480156104c257600080fd5b50610422600480360360208110156104d957600080fd5b50356001600160a01b031661103b565b3480156104f557600080fd5b506105136004803603602081101561050c57600080fd5b5035611056565b005b34801561052157600080fd5b506105136004803603604081101561053857600080fd5b50803590602001356001600160a01b031661106a565b34801561055a57600080fd5b506104226110d6565b34801561056f57600080fd5b506105786110fa565b6040805160ff9092168252519081900360200190f35b34801561059a57600080fd5b50610422611103565b3480156105af57600080fd5b50610513600480360360408110156105c657600080fd5b50803590602001356001600160a01b0316611107565b3480156105e857600080fd5b506102f8600480360360408110156105ff57600080fd5b506001600160a01b038135169060200135611168565b34801561062157600080fd5b506105136004803603604081101561063857600080fd5b506001600160a01b0381351690602001356111bc565b34801561065a57600080fd5b506105136004803603602081101561067157600080fd5b810190602081018135600160201b81111561068b57600080fd5b82018360208201111561069d57600080fd5b803590602001918460018302840111600160201b831117156106be57600080fd5b5090925090506112b8565b3480156106d557600080fd5b50610422611403565b3480156106ea57600080fd5b506104226004803603602081101561070157600080fd5b50356001600160a01b0316611408565b34801561071d57600080fd5b50610422611423565b34801561073257600080fd5b50610513600480360361010081101561074a57600080fd5b506001600160a01b038135811691602081013590911690604081013590606081013590608081013515159060ff60a0820135169060c08101359060e00135611428565b34801561079957600080fd5b506107bd600480360360408110156107b057600080fd5b50803590602001356116a8565b604080516001600160a01b039092168252519081900360200190f35b3480156107e557600080fd5b506102f8600480360360408110156107fc57600080fd5b50803590602001356001600160a01b03166116cd565b34801561081e57600080fd5b5061024a6116eb565b34801561083357600080fd5b5061042261174c565b34801561084857600080fd5b50610422611751565b34801561085d57600080fd5b506102f86004803603604081101561087457600080fd5b506001600160a01b038135169060200135611777565b34801561089657600080fd5b506102f8600480360360408110156108ad57600080fd5b506001600160a01b0381351690602001356117e5565b3480156108cf57600080fd5b50610513600480360360408110156108e657600080fd5b506001600160a01b0381351690602001356117f9565b34801561090857600080fd5b506105136004803603606081101561091f57600080fd5b506001600160a01b03813581169160208101359091169060400135611804565b34801561094b57600080fd5b506104226004803603602081101561096257600080fd5b5035611815565b34801561097557600080fd5b506105136004803603604081101561098c57600080fd5b6001600160a01b038235169190810190604081016020820135600160201b8111156109b657600080fd5b8201836020820111156109c857600080fd5b803590602001918460018302840111600160201b831117156109e957600080fd5b50909250905061182c565b348015610a0057600080fd5b5061051360048036036040811015610a1757600080fd5b50803590602001356001600160a01b03166118e9565b348015610a3957600080fd5b5061042260048036036040811015610a5057600080fd5b506001600160a01b0381358116916020013516611942565b348015610a7457600080fd5b5061051360048036036080811015610a8b57600080fd5b810190602081018135600160201b811115610aa557600080fd5b820183602082011115610ab757600080fd5b803590602001918460018302840111600160201b83111715610ad857600080fd5b919390929091602081019035600160201b811115610af557600080fd5b820183602082011115610b0757600080fd5b803590602001918460018302840111600160201b83111715610b2857600080fd5b9193509150803560ff1690602001356001600160a01b031661196d565b348015610b5157600080fd5b5061051360048036036040811015610b6857600080fd5b506001600160a01b038135169060200135611b2a565b60038054604080516020601f6002600019610100600188161502019095169490940493840181900481028201810190925282815260609390929091830182828015610c0a5780601f10610bdf57610100808354040283529160200191610c0a565b820191906000526020600020905b815481529060010190602001808311610bed57829003601f168201915b505050505090505b90565b6000610c29610c22611b35565b8484611b44565b5060015b92915050565b604051806040016040528060018152602001608960f81b81525081565b6060610c5a612671565b50604080516060810182526001600160a01b0388166000818152600a602090815290849020548352820152908101869052610c988782878787611c30565b610cd35760405162461bcd60e51b81526004018080602001828103825260218152602001806129216021913960400191505060405180910390fd5b6001600160a01b0387166000908152600a6020526040902054610cfd90600163ffffffff611d0d16565b6001600160a01b0388166000818152600a602090815260408083209490945583519283523383820181905260609484018581528b51958501959095528a517f5845892132946850460bff5a0083f71031bc5bf9aadcd40f1de79423eac9b10b958d9592948d94919260808501928601918190849084905b83811015610d8c578181015183820152602001610d74565b50505050905090810190601f168015610db95780820380516001836020036101000a031916815260200191505b5094505050505060405180910390a160006060306001600160a01b0316888a6040516020018083805190602001908083835b60208310610e0a5780518252601f199092019160209182019101610deb565b6001836020036101000a038019825116818451168082178552505050505050905001826001600160a01b03166001600160a01b031660601b8152601401925050506040516020818303038152906040526040518082805190602001908083835b60208310610e895780518252601f199092019160209182019101610e6a565b6001836020036101000a0380198251168184511680821785525050505050509050019150506000604051808303816000865af19150503d8060008114610eeb576040519150601f19603f3d011682016040523d82523d6000602084013e610ef0565b606091505b509150915081610f47576040805162461bcd60e51b815260206004820152601c60248201527f46756e6374696f6e2063616c6c206e6f74207375636365737366756c00000000604482015290519081900360640190fd5b98975050505050505050565b604051806040016040528060018152602001600160f81b81525081565b604051806040016040528060018152602001603160f81b81525081565b60025490565b60095490565b6000610fa6848484611d67565b61101c84610fb2611b35565b611017856040518060600160405280602881526020016128f9602891396001600160a01b038a16600090815260016020526040812090610ff0611b35565b6001600160a01b03168152602081019190915260400160002054919063ffffffff611ece16565b611b44565b5060019392505050565b60009081526006602052604090206002015490565b6001600160a01b03166000908152600a602052604090205490565b611067611061611b35565b82611f65565b50565b60008281526006602052604090206002015461108d90611088611b35565b6116cd565b6110c85760405162461bcd60e51b815260040180806020018281038252602f815260200180612779602f913960400191505060405180910390fd5b6110d2828261206d565b5050565b7fea2aa0a1be11a07ed86d755c93467f4f82362b452371d1ba94d1715123511acb81565b60055460ff1690565b4690565b61110f611b35565b6001600160a01b0316816001600160a01b03161461115e5760405162461bcd60e51b815260040180806020018281038252602f8152602001806129d1602f913960400191505060405180910390fd5b6110d282826120dc565b6000610c29611175611b35565b846110178560016000611186611b35565b6001600160a01b03908116825260208083019390935260409182016000908120918c16815292529020549063ffffffff611d0d16565b6001600160a01b038216611217576040805162461bcd60e51b815260206004820152601f60248201527f45524332303a206d696e7420746f20746865207a65726f206164647265737300604482015290519081900360640190fd5b611223600083836113fe565b600254611236908263ffffffff611d0d16565b6002556001600160a01b038216600090815260208190526040902054611262908263ffffffff611d0d16565b6001600160a01b0383166000818152602081815260408083209490945583518581529351929391927fddf252ad1be2c89b69c2b068fc378daa952ba7f163c4a11628f55a4df523b3ef9281900390910190a35050565b60006112c681611088611b35565b6007906113665760405162461bcd60e51b81526020600482019081528254600260001961010060018416150201909116046024830181905290918291604490910190849080156113575780601f1061132c57610100808354040283529160200191611357565b820191906000526020600020905b81548152906001019060200180831161133a57829003601f168201915b50509250505060405180910390fd5b506113a683838080601f01602080910402602001604051908101604052809392919081815260200183838082843760009201919091525061214b92505050565b6113fe83838080601f016020809104026020016040519081016040528093929190818152602001838380828437600092019190915250506040805180820190915260018152603160f81b6020820152915061215e9050565b505050565b608981565b6001600160a01b031660009081526020819052604090205490565b600181565b6000611432610f93565b604080517fea2aa0a1be11a07ed86d755c93467f4f82362b452371d1ba94d1715123511acb6020808301919091526001600160a01b03808e16838501528c166060830152608082018b905260a082018a905288151560c0808401919091528351808403909101815260e08301845280519082012061190160f01b610100840152610102830194909452610122808301949094528251808303909401845261014282018084528451948201949094206000909452610162820180845284905260ff88166101828301526101a282018790526101c2820186905291519293506001926101e28083019392601f198301929081900390910190855afa15801561153c573d6000803e3d6000fd5b505050602060405103516001600160a01b0316896001600160a01b0316146115ab576040805162461bcd60e51b815260206004820152601960248201527f554368696c644441493a20494e56414c49442d5045524d495400000000000000604482015290519081900360640190fd5b8515806115b85750854211155b611609576040805162461bcd60e51b815260206004820152601960248201527f554368696c644441493a205045524d49542d4558504952454400000000000000604482015290519081900360640190fd5b6001600160a01b0389166000908152600a60205260409020805460018101909155871461167d576040805162461bcd60e51b815260206004820152601860248201527f554368696c644441493a20494e56414c49442d4e4f4e43450000000000000000604482015290519081900360640190fd5b60008561168b57600061168f565b6000195b905061169c8a8a83611b44565b50505050505050505050565b60008281526006602052604081206116c6908363ffffffff6121e916565b9392505050565b60008281526006602052604081206116c6908363ffffffff6121f516565b60048054604080516020601f6002600019610100600188161502019095169490940493840181900481028201810190925282815260609390929091830182828015610c0a5780601f10610bdf57610100808354040283529160200191610c0a565b600081565b604080516d4445504f5349544f525f524f4c4560901b8152905190819003600e01902081565b6000610c29611784611b35565b84611017856040518060600160405280602581526020016129ac60259139600160006117ae611b35565b6001600160a01b03908116825260208083019390935260409182016000908120918d1681529252902054919063ffffffff611ece16565b6000610c296117f2611b35565b8484611d67565b6113fe338383610f99565b61180f838383610f99565b50505050565b6000818152600660205260408120610c2d9061220a565b604080516d4445504f5349544f525f524f4c4560901b8152905190819003600e01902061185b81611088611b35565b6007906118c15760405162461bcd60e51b81526020600482019081528254600260001961010060018416150201909116046024830181905290918291604490910190849080156113575780601f1061132c57610100808354040283529160200191611357565b506000838360208110156118d457600080fd5b503590506118e285826111bc565b5050505050565b60008281526006602052604090206002015461190790611088611b35565b61115e5760405162461bcd60e51b81526004018080602001828103825260308152602001806128a46030913960400191505060405180910390fd5b6001600160a01b03918216600090815260016020908152604080832093909416825291909152205490565b60085460ff16156119b6576040805162461bcd60e51b815260206004820152600e60248201526d185b1c9958591e481a5b9a5d195960921b604482015290519081900360640190fd5b6119f586868080601f01602080910402602001604051908101604052809392919081815260200183838082843760009201919091525061214b92505050565b611a3484848080601f01602080910402602001604051908101604052809392919081815260200183838082843760009201919091525061221592505050565b611a3d82612228565b611a7e848460405160200180806410da1a5b1960da1b815250600501838380828437808301925050509250505060405160208183030381529060405261223e565b611a906000611a8b611b35565b6110c8565b604080516d4445504f5349544f525f524f4c4560901b8152905190819003600e019020611abd90826110c8565b611b1586868080601f016020809104026020016040519081016040528093929190818152602001838380828437600092019190915250506040805180820190915260018152603160f81b602082015291506122dc9050565b50506008805460ff1916600117905550505050565b6113fe823383610f99565b6000611b3f612340565b905090565b6001600160a01b038316611b895760405162461bcd60e51b81526004018080602001828103825260248152602001806129886024913960400191505060405180910390fd5b6001600160a01b038216611bce5760405162461bcd60e51b815260040180806020018281038252602281526020018061280d6022913960400191505060405180910390fd5b6001600160a01b03808416600081815260016020908152604080832094871680845294825291829020859055815185815291517f8c5be1e5ebec7d5bd14f71427d1e84f3dd0314c0f7b2291e5b200ac8c7c3b9259281900390910190a3505050565b60006001600160a01b038616611c775760405162461bcd60e51b81526004018080602001828103825260258152602001806128d46025913960400191505060405180910390fd5b6001611c8a611c858761239d565b612429565b83868660405160008152602001604052604051808581526020018460ff1660ff1681526020018381526020018281526020019450505050506020604051602081039080840390855afa158015611ce4573d6000803e3d6000fd5b505050602060405103516001600160a01b0316866001600160a01b031614905095945050505050565b6000828201838110156116c6576040805162461bcd60e51b815260206004820152601b60248201527f536166654d6174683a206164646974696f6e206f766572666c6f770000000000604482015290519081900360640190fd5b6001600160a01b038316611dac5760405162461bcd60e51b81526004018080602001828103825260258152602001806129636025913960400191505060405180910390fd5b6001600160a01b038216611df15760405162461bcd60e51b81526004018080602001828103825260238152602001806127566023913960400191505060405180910390fd5b611dfc8383836113fe565b611e3f8160405180606001604052806026815260200161287e602691396001600160a01b038616600090815260208190526040902054919063ffffffff611ece16565b6001600160a01b038085166000908152602081905260408082209390935590841681522054611e74908263ffffffff611d0d16565b6001600160a01b038084166000818152602081815260409182902094909455805185815290519193928716927fddf252ad1be2c89b69c2b068fc378daa952ba7f163c4a11628f55a4df523b3ef92918290030190a3505050565b60008184841115611f5d5760405162461bcd60e51b81526004018080602001828103825283818151815260200191508051906020019080838360005b83811015611f22578181015183820152602001611f0a565b50505050905090810190601f168015611f4f5780820380516001836020036101000a031916815260200191505b509250505060405180910390fd5b505050900390565b6001600160a01b038216611faa5760405162461bcd60e51b81526004018080602001828103825260218152602001806129426021913960400191505060405180910390fd5b611fb6826000836113fe565b611ff9816040518060600160405280602281526020016127a8602291396001600160a01b038516600090815260208190526040902054919063ffffffff611ece16565b6001600160a01b038316600090815260208190526040902055600254612025908263ffffffff61247516565b6002556040805182815290516000916001600160a01b038516917fddf252ad1be2c89b69c2b068fc378daa952ba7f163c4a11628f55a4df523b3ef9181900360200190a35050565b600082815260066020526040902061208b908263ffffffff6124b716565b156110d257612098611b35565b6001600160a01b0316816001600160a01b0316837f2f8788117e7eff1d82e926ec794901d17c78024a50270940304540a733656f0d60405160405180910390a45050565b60008281526006602052604090206120fa908263ffffffff6124cc16565b156110d257612107611b35565b6001600160a01b0316816001600160a01b0316837ff6391f5c32d9c69d2a47ea670b442974b53935d1edc7fd64eb21e047a839171b60405160405180910390a45050565b80516110d290600390602084019061269b565b6040518060800160405280604f815260200161282f604f9139805190602001208280519060200120828051906020012030612197611103565b604080516020808201979097528082019590955260608501939093526001600160a01b03909116608084015260a0808401919091528151808403909101815260c0909201905280519101206009555050565b60006116c683836124e1565b60006116c6836001600160a01b038416612545565b6000610c2d8261255d565b80516110d290600490602084019061269b565b6005805460ff191660ff92909216919091179055565b806040516020018082805190602001908083835b602083106122715780518252601f199092019160209182019101612252565b51815160209384036101000a60001901801990921691161790527f3a20494e53554646494349454e545f5045524d495353494f4e530000000000009190930190815260408051808303600519018152601a909201905280516110d2955060079450920191905061269b565b60085460ff1615612325576040805162461bcd60e51b815260206004820152600e60248201526d185b1c9958591e481a5b9a5d195960921b604482015290519081900360640190fd5b61232f828261215e565b50506008805460ff19166001179055565b6000333014156123985760606000368080601f0160208091040260200160405190810160405280939291908181526020018383808284376000920191909152505050503601516001600160a01b03169150610c129050565b503390565b60006040518060800160405280604381526020016127ca60439139805190602001208260000151836020015184604001518051906020012060405160200180858152602001848152602001836001600160a01b03166001600160a01b03168152602001828152602001945050505050604051602081830303815290604052805190602001209050919050565b6000612433610f93565b82604051602001808061190160f01b81525060020183815260200182815260200192505050604051602081830303815290604052805190602001209050919050565b60006116c683836040518060400160405280601e81526020017f536166654d6174683a207375627472616374696f6e206f766572666c6f770000815250611ece565b60006116c6836001600160a01b038416612561565b60006116c6836001600160a01b0384166125ab565b815460009082106125235760405162461bcd60e51b81526004018080602001828103825260228152602001806127346022913960400191505060405180910390fd5b82600001828154811061253257fe5b9060005260206000200154905092915050565b60009081526001919091016020526040902054151590565b5490565b600061256d8383612545565b6125a357508154600181810184556000848152602080822090930184905584548482528286019093526040902091909155610c2d565b506000610c2d565b6000818152600183016020526040812054801561266757835460001980830191908101906000908790839081106125de57fe5b90600052602060002001549050808760000184815481106125fb57fe5b60009182526020808320909101929092558281526001898101909252604090209084019055865487908061262b57fe5b60019003818190600052602060002001600090559055866001016000878152602001908152602001600020600090556001945050505050610c2d565b6000915050610c2d565b60405180606001604052806000815260200160006001600160a01b03168152602001606081525090565b828054600181600116156101000203166002900490600052602060002090601f016020900481019282601f106126dc57805160ff1916838001178555612709565b82800160010185558215612709579182015b828111156127095782518255916020019190600101906126ee565b50612715929150612719565b5090565b610c1291905b80821115612715576000815560010161271f56fe456e756d657261626c655365743a20696e646578206f7574206f6620626f756e647345524332303a207472616e7366657220746f20746865207a65726f2061646472657373416363657373436f6e74726f6c3a2073656e646572206d75737420626520616e2061646d696e20746f206772616e7445524332303a206275726e20616d6f756e7420657863656564732062616c616e63654d6574615472616e73616374696f6e2875696e74323536206e6f6e63652c616464726573732066726f6d2c62797465732066756e6374696f6e5369676e61747572652945524332303a20617070726f766520746f20746865207a65726f2061646472657373454950373132446f6d61696e28737472696e67206e616d652c737472696e672076657273696f6e2c6164647265737320766572696679696e67436f6e74726163742c627974657333322073616c742945524332303a207472616e7366657220616d6f756e7420657863656564732062616c616e6365416363657373436f6e74726f6c3a2073656e646572206d75737420626520616e2061646d696e20746f207265766f6b654e61746976654d6574615472616e73616374696f6e3a20494e56414c49445f5349474e455245524332303a207472616e7366657220616d6f756e74206578636565647320616c6c6f77616e63655369676e657220616e64207369676e617475726520646f206e6f74206d6174636845524332303a206275726e2066726f6d20746865207a65726f206164647265737345524332303a207472616e736665722066726f6d20746865207a65726f206164647265737345524332303a20617070726f76652066726f6d20746865207a65726f206164647265737345524332303a2064656372656173656420616c6c6f77616e63652062656c6f77207a65726f416363657373436f6e74726f6c3a2063616e206f6e6c792072656e6f756e636520726f6c657320666f722073656c66a2646970667358221220595e690aa9419a30433501b563b9a705a925839584ce17208aaebec2ade199ba64736f6c63430006060033",
  "linkReferences": {},
  "deployedLinkReferences": {}
}