{
  "_format": "hh-sol-artifact-1",
  "contractName": "UChildERC20",
  "sourceName": "contracts/testDai/TestDAI.v3.sol",
  "abi": [
    {
      "inputs": [],
      "stateMutability": "nonpayable",
      "type": "constructor"
    },
    {
      "anonymous": false,
      "inputs": [
        {
          "indexed": true,
          "internalType": "address",
          "name": "owner",
          "type": "address"
        },
        {
          "indexed": true,
          "internalType": "address",
          "name": "spender",
          "type": "address"
        },
        {
          "indexed": false,
          "internalType": "uint256",
          "name": "value",
          "type": "uint256"
        }
      ],
      "name": "Approval",
      "type": "event"
    },
    {
      "anonymous": false,
      "inputs": [
        {
          "indexed": false,
          "internalType": "address",
          "name": "userAddress",
          "type": "address"
        },
        {
          "indexed": false,
          "internalType": "address payable",
          "name": "relayerAddress",
          "type": "address"
        },
        {
          "indexed": false,
          "internalType": "bytes",
          "name": "functionSignature",
          "type": "bytes"
        }
      ],
      "name": "MetaTransactionExecuted",
      "type": "event"
    },
    {
      "anonymous": false,
      "inputs": [
        {
          "indexed": true,
          "internalType": "bytes32",
          "name": "role",
          "type": "bytes32"
        },
        {
          "indexed": true,
          "internalType": "bytes32",
          "name": "previousAdminRole",
          "type": "bytes32"
        },
        {
          "indexed": true,
          "internalType": "bytes32",
          "name": "newAdminRole",
          "type": "bytes32"
        }
      ],
      "name": "RoleAdminChanged",
      "type": "event"
    },
    {
      "anonymous": false,
      "inputs": [
        {
          "indexed": true,
          "internalType": "bytes32",
          "name": "role",
          "type": "bytes32"
        },
        {
          "indexed": true,
          "internalType": "address",
          "name": "account",
          "type": "address"
        },
        {
          "indexed": true,
          "internalType": "address",
          "name": "sender",
          "type": "address"
        }
      ],
      "name": "RoleGranted",
      "type": "event"
    },
    {
      "anonymous": false,
      "inputs": [
        {
          "indexed": true,
          "internalType": "bytes32",
          "name": "role",
          "type": "bytes32"
        },
        {
          "indexed": true,
          "internalType": "address",
          "name": "account",
          "type": "address"
        },
        {
          "indexed": true,
          "internalType": "address",
          "name": "sender",
          "type": "address"
        }
      ],
      "name": "RoleRevoked",
      "type": "event"
    },
    {
      "anonymous": false,
      "inputs": [
        {
          "indexed": true,
          "internalType": "address",
          "name": "from",
          "type": "address"
        },
        {
          "indexed": true,
          "internalType": "address",
          "name": "to",
          "type": "address"
        },
        {
          "indexed": false,
          "internalType": "uint256",
          "name": "value",
          "type": "uint256"
        }
      ],
      "name": "Transfer",
      "type": "event"
    },
    {
      "inputs": [],
      "name": "CHILD_CHAIN_ID",
      "outputs": [
        {
          "internalType": "uint256",
          "name": "",
          "type": "uint256"
        }
      ],
      "stateMutability": "view",
      "type": "function"
    },
    {
      "inputs": [],
      "name": "CHILD_CHAIN_ID_BYTES",
      "outputs": [
        {
          "internalType": "bytes",
          "name": "",
          "type": "bytes"
        }
      ],
      "stateMutability": "view",
      "type": "function"
    },
    {
      "inputs": [],
      "name": "DEFAULT_ADMIN_ROLE",
      "outputs": [
        {
          "internalType": "bytes32",
          "name": "",
          "type": "bytes32"
        }
      ],
      "stateMutability": "view",
      "type": "function"
    },
    {
      "inputs": [],
      "name": "DEPOSITOR_ROLE",
      "outputs": [
        {
          "internalType": "bytes32",
          "name": "",
          "type": "bytes32"
        }
      ],
      "stateMutability": "view",
      "type": "function"
    },
    {
      "inputs": [],
      "name": "ERC712_VERSION",
      "outputs": [
        {
          "internalType": "string",
          "name": "",
          "type": "string"
        }
      ],
      "stateMutability": "view",
      "type": "function"
    },
    {
      "inputs": [],
      "name": "ROOT_CHAIN_ID",
      "outputs": [
        {
          "internalType": "uint256",
          "name": "",
          "type": "uint256"
        }
      ],
      "stateMutability": "view",
      "type": "function"
    },
    {
      "inputs": [],
      "name": "ROOT_CHAIN_ID_BYTES",
      "outputs": [
        {
          "internalType": "bytes",
          "name": "",
          "type": "bytes"
        }
      ],
      "stateMutability": "view",
      "type": "function"
    },
    {
      "inputs": [
        {
          "internalType": "address",
          "name": "account",
          "type": "address"
        },
        {
          "internalType": "uint256",
          "name": "amount",
          "type": "uint256"
        }
      ],
      "name": "_mint",
      "outputs": [],
      "stateMutability": "nonpayable",
      "type": "function"
    },
    {
      "inputs": [
        {
          "internalType": "address",
          "name": "owner",
          "type": "address"
        },
        {
          "internalType": "address",
          "name": "spender",
          "type": "address"
        }
      ],
      "name": "allowance",
      "outputs": [
        {
          "internalType": "uint256",
          "name": "",
          "type": "uint256"
        }
      ],
      "stateMutability": "view",
      "type": "function"
    },
    {
      "inputs": [
        {
          "internalType": "address",
          "name": "spender",
          "type": "address"
        },
        {
          "internalType": "uint256",
          "name": "amount",
          "type": "uint256"
        }
      ],
      "name": "approve",
      "outputs": [
        {
          "internalType": "bool",
          "name": "",
          "type": "bool"
        }
      ],
      "stateMutability": "nonpayable",
      "type": "function"
    },
    {
      "inputs": [
        {
          "internalType": "address",
          "name": "account",
          "type": "address"
        }
      ],
      "name": "balanceOf",
      "outputs": [
        {
          "internalType": "uint256",
          "name": "",
          "type": "uint256"
        }
      ],
      "stateMutability": "view",
      "type": "function"
    },
    {
      "inputs": [
        {
          "internalType": "string",
          "name": "name_",
          "type": "string"
        }
      ],
      "name": "changeName",
      "outputs": [],
      "stateMutability": "nonpayable",
      "type": "function"
    },
    {
      "inputs": [],
      "name": "decimals",
      "outputs": [
        {
          "internalType": "uint8",
          "name": "",
          "type": "uint8"
        }
      ],
      "stateMutability": "view",
      "type": "function"
    },
    {
      "inputs": [
        {
          "internalType": "address",
          "name": "spender",
          "type": "address"
        },
        {
          "internalType": "uint256",
          "name": "subtractedValue",
          "type": "uint256"
        }
      ],
      "name": "decreaseAllowance",
      "outputs": [
        {
          "internalType": "bool",
          "name": "",
          "type": "bool"
        }
      ],
      "stateMutability": "nonpayable",
      "type": "function"
    },
    {
      "inputs": [
        {
          "internalType": "address",
          "name": "user",
          "type": "address"
        },
        {
          "internalType": "bytes",
          "name": "depositData",
          "type": "bytes"
        }
      ],
      "name": "deposit",
      "outputs": [],
      "stateMutability": "nonpayable",
      "type": "function"
    },
    {
      "inputs": [
        {
          "internalType": "address",
          "name": "userAddress",
          "type": "address"
        },
        {
          "internalType": "bytes",
          "name": "functionSignature",
          "type": "bytes"
        },
        {
          "internalType": "bytes32",
          "name": "sigR",
          "type": "bytes32"
        },
        {
          "internalType": "bytes32",
          "name": "sigS",
          "type": "bytes32"
        },
        {
          "internalType": "uint8",
          "name": "sigV",
          "type": "uint8"
        }
      ],
      "name": "executeMetaTransaction",
      "outputs": [
        {
          "internalType": "bytes",
          "name": "",
          "type": "bytes"
        }
      ],
      "stateMutability": "payable",
      "type": "function"
    },
    {
      "inputs": [],
      "name": "getChainId",
      "outputs": [
        {
          "internalType": "uint256",
          "name": "",
          "type": "uint256"
        }
      ],
      "stateMutability": "view",
      "type": "function"
    },
    {
      "inputs": [],
      "name": "getDomainSeperator",
      "outputs": [
        {
          "internalType": "bytes32",
          "name": "",
          "type": "bytes32"
        }
      ],
      "stateMutability": "view",
      "type": "function"
    },
    {
      "inputs": [
        {
          "internalType": "address",
          "name": "user",
          "type": "address"
        }
      ],
      "name": "getNonce",
      "outputs": [
        {
          "internalType": "uint256",
          "name": "nonce",
          "type": "uint256"
        }
      ],
      "stateMutability": "view",
      "type": "function"
    },
    {
      "inputs": [
        {
          "internalType": "bytes32",
          "name": "role",
          "type": "bytes32"
        }
      ],
      "name": "getRoleAdmin",
      "outputs": [
        {
          "internalType": "bytes32",
          "name": "",
          "type": "bytes32"
        }
      ],
      "stateMutability": "view",
      "type": "function"
    },
    {
      "inputs": [
        {
          "internalType": "bytes32",
          "name": "role",
          "type": "bytes32"
        },
        {
          "internalType": "uint256",
          "name": "index",
          "type": "uint256"
        }
      ],
      "name": "getRoleMember",
      "outputs": [
        {
          "internalType": "address",
          "name": "",
          "type": "address"
        }
      ],
      "stateMutability": "view",
      "type": "function"
    },
    {
      "inputs": [
        {
          "internalType": "bytes32",
          "name": "role",
          "type": "bytes32"
        }
      ],
      "name": "getRoleMemberCount",
      "outputs": [
        {
          "internalType": "uint256",
          "name": "",
          "type": "uint256"
        }
      ],
      "stateMutability": "view",
      "type": "function"
    },
    {
      "inputs": [
        {
          "internalType": "bytes32",
          "name": "role",
          "type": "bytes32"
        },
        {
          "internalType": "address",
          "name": "account",
          "type": "address"
        }
      ],
      "name": "grantRole",
      "outputs": [],
      "stateMutability": "nonpayable",
      "type": "function"
    },
    {
      "inputs": [
        {
          "internalType": "bytes32",
          "name": "role",
          "type": "bytes32"
        },
        {
          "internalType": "address",
          "name": "account",
          "type": "address"
        }
      ],
      "name": "hasRole",
      "outputs": [
        {
          "internalType": "bool",
          "name": "",
          "type": "bool"
        }
      ],
      "stateMutability": "view",
      "type": "function"
    },
    {
      "inputs": [
        {
          "internalType": "address",
          "name": "spender",
          "type": "address"
        },
        {
          "internalType": "uint256",
          "name": "addedValue",
          "type": "uint256"
        }
      ],
      "name": "increaseAllowance",
      "outputs": [
        {
          "internalType": "bool",
          "name": "",
          "type": "bool"
        }
      ],
      "stateMutability": "nonpayable",
      "type": "function"
    },
    {
      "inputs": [
        {
          "internalType": "string",
          "name": "name_",
          "type": "string"
        },
        {
          "internalType": "string",
          "name": "symbol_",
          "type": "string"
        },
        {
          "internalType": "uint8",
          "name": "decimals_",
          "type": "uint8"
        },
        {
          "internalType": "address",
          "name": "childChainManager",
          "type": "address"
        }
      ],
      "name": "initialize",
      "outputs": [],
      "stateMutability": "nonpayable",
      "type": "function"
    },
    {
      "inputs": [],
      "name": "name",
      "outputs": [
        {
          "internalType": "string",
          "name": "",
          "type": "string"
        }
      ],
      "stateMutability": "view",
      "type": "function"
    },
    {
      "inputs": [
        {
          "internalType": "bytes32",
          "name": "role",
          "type": "bytes32"
        },
        {
          "internalType": "address",
          "name": "account",
          "type": "address"
        }
      ],
      "name": "renounceRole",
      "outputs": [],
      "stateMutability": "nonpayable",
      "type": "function"
    },
    {
      "inputs": [
        {
          "internalType": "bytes32",
          "name": "role",
          "type": "bytes32"
        },
        {
          "internalType": "address",
          "name": "account",
          "type": "address"
        }
      ],
      "name": "revokeRole",
      "outputs": [],
      "stateMutability": "nonpayable",
      "type": "function"
    },
    {
      "inputs": [],
      "name": "symbol",
      "outputs": [
        {
          "internalType": "string",
          "name": "",
          "type": "string"
        }
      ],
      "stateMutability": "view",
      "type": "function"
    },
    {
      "inputs": [],
      "name": "totalSupply",
      "outputs": [
        {
          "internalType": "uint256",
          "name": "",
          "type": "uint256"
        }
      ],
      "stateMutability": "view",
      "type": "function"
    },
    {
      "inputs": [
        {
          "internalType": "address",
          "name": "recipient",
          "type": "address"
        },
        {
          "internalType": "uint256",
          "name": "amount",
          "type": "uint256"
        }
      ],
      "name": "transfer",
      "outputs": [
        {
          "internalType": "bool",
          "name": "",
          "type": "bool"
        }
      ],
      "stateMutability": "nonpayable",
      "type": "function"
    },
    {
      "inputs": [
        {
          "internalType": "address",
          "name": "sender",
          "type": "address"
        },
        {
          "internalType": "address",
          "name": "recipient",
          "type": "address"
        },
        {
          "internalType": "uint256",
          "name": "amount",
          "type": "uint256"
        }
      ],
      "name": "transferFrom",
      "outputs": [
        {
          "internalType": "bool",
          "name": "",
          "type": "bool"
        }
      ],
      "stateMutability": "nonpayable",
      "type": "function"
    },
    {
      "inputs": [
        {
          "internalType": "uint256",
          "name": "amount",
          "type": "uint256"
        }
      ],
      "name": "withdraw",
      "outputs": [],
      "stateMutability": "nonpayable",
      "type": "function"
    }
  ],
  "bytecode": "0x60806040526008805460ff191690553480156200001b57600080fd5b5060408051808201825260038082526244414960e81b6020808401829052845180860190955282855284015290919062000056838262000120565b50600462000065828262000120565b50506005805460ff1916601217905550620001ec565b634e487b7160e01b600052604160045260246000fd5b600181811c90821680620000a657607f821691505b602082108103620000c757634e487b7160e01b600052602260045260246000fd5b50919050565b601f8211156200011b57600081815260208120601f850160051c81016020861015620000f65750805b601f850160051c820191505b81811015620001175782815560010162000102565b5050505b505050565b81516001600160401b038111156200013c576200013c6200007b565b62000154816200014d845462000091565b84620000cd565b602080601f8311600181146200018c5760008415620001735750858301515b600019600386901b1c1916600185901b17855562000117565b600085815260208120601f198616915b82811015620001bd578886015182559484019460019091019084016200019c565b5085821015620001dc5787850151600019600388901b60f8161c191681555b5050505050600190811b01905550565b6123b780620001fc6000396000f3fe6080604052600436106101f95760003560e01c80634e6ec2471161010d578063a217fddf116100a0578063ca15c8731161006f578063ca15c873146105fa578063cf2c52cb1461061a578063d547741f1461063a578063dd62ed3e1461065a578063de7ea79d146106a057600080fd5b8063a217fddf14610571578063a3b0b5a314610586578063a457c2d7146105ba578063a9059cbb146105da57600080fd5b80638acfcaf7116100dc5780638acfcaf7146104ef5780639010d07c1461050457806391d148541461053c57806395d89b411461055c57600080fd5b80634e6ec247146104645780635353a2d814610484578063626381a0146104a457806370a08231146104b957600080fd5b806323b872dd116101905780632f2ff15d1161015f5780632f2ff15d146103cf578063313ce567146103ef5780633408e4701461041157806336568abe14610424578063395093511461044457600080fd5b806323b872dd14610327578063248a9ca3146103475780632d0335ab146103775780632e1a7d4d146103ad57600080fd5b80630dd7531a116101cc5780630dd7531a146102995780630f7e5970146102c657806318160ddd146102f357806320379ee51461031257600080fd5b806306fdde03146101fe578063095ea7b3146102295780630b54817c146102595780630c53c51c14610286575b600080fd5b34801561020a57600080fd5b506102136106c0565b6040516102209190611b82565b60405180910390f35b34801561023557600080fd5b50610249610244366004611bb1565b610752565b6040519015158152602001610220565b34801561026557600080fd5b50610213604051806040016040528060018152602001608960f81b81525081565b610213610294366004611c02565b610770565b3480156102a557600080fd5b50610213604051806040016040528060018152602001600160f81b81525081565b3480156102d257600080fd5b50610213604051806040016040528060018152602001603160f81b81525081565b3480156102ff57600080fd5b506002545b604051908152602001610220565b34801561031e57600080fd5b50600954610304565b34801561033357600080fd5b50610249610342366004611ce8565b61095f565b34801561035357600080fd5b50610304610362366004611d24565b60009081526006602052604090206002015490565b34801561038357600080fd5b50610304610392366004611d3d565b6001600160a01b03166000908152600a602052604090205490565b3480156103b957600080fd5b506103cd6103c8366004611d24565b6109e6565b005b3480156103db57600080fd5b506103cd6103ea366004611d58565b6109fa565b3480156103fb57600080fd5b5060055460405160ff9091168152602001610220565b34801561041d57600080fd5b5046610304565b34801561043057600080fd5b506103cd61043f366004611d58565b610a8a565b34801561045057600080fd5b5061024961045f366004611bb1565b610b14565b34801561047057600080fd5b506103cd61047f366004611bb1565b610b62565b34801561049057600080fd5b506103cd61049f366004611dcd565b610c41565b3480156104b057600080fd5b50610304608981565b3480156104c557600080fd5b506103046104d4366004611d3d565b6001600160a01b031660009081526020819052604090205490565b3480156104fb57600080fd5b50610304600181565b34801561051057600080fd5b5061052461051f366004611e0f565b610d0c565b6040516001600160a01b039091168152602001610220565b34801561054857600080fd5b50610249610557366004611d58565b610d2b565b34801561056857600080fd5b50610213610d43565b34801561057d57600080fd5b50610304600081565b34801561059257600080fd5b506103047f8f4f2da22e8ac8f11e15f9fc141cddbb5deea8800186560abb6e68c5496619a981565b3480156105c657600080fd5b506102496105d5366004611bb1565b610d52565b3480156105e657600080fd5b506102496105f5366004611bb1565b610dba565b34801561060657600080fd5b50610304610615366004611d24565b610dce565b34801561062657600080fd5b506103cd610635366004611e31565b610de5565b34801561064657600080fd5b506103cd610655366004611d58565b610e54565b34801561066657600080fd5b50610304610675366004611e84565b6001600160a01b03918216600090815260016020908152604080832093909416825291909152205490565b3480156106ac57600080fd5b506103cd6106bb366004611eae565b610ed7565b6060600380546106cf90611f3e565b80601f01602080910402602001604051908101604052809291908181526020018280546106fb90611f3e565b80156107485780601f1061071d57610100808354040283529160200191610748565b820191906000526020600020905b81548152906001019060200180831161072b57829003601f168201915b5050505050905090565b600061076661075f61107b565b848461108a565b5060015b92915050565b60408051606081810183526001600160a01b0388166000818152600a6020908152908590205484528301529181018690526107ae87828787876111af565b6108095760405162461bcd60e51b815260206004820152602160248201527f5369676e657220616e64207369676e617475726520646f206e6f74206d6174636044820152600d60fb1b60648201526084015b60405180910390fd5b6001600160a01b0387166000908152600a602052604090205461082d90600161129f565b6001600160a01b0388166000908152600a60205260409081902091909155517f5845892132946850460bff5a0083f71031bc5bf9aadcd40f1de79423eac9b10b9061087d90899033908a90611f78565b60405180910390a1600080306001600160a01b0316888a6040516020016108a5929190611fa4565b60408051601f19818403018152908290526108bf91611fdb565b6000604051808303816000865af19150503d80600081146108fc576040519150601f19603f3d011682016040523d82523d6000602084013e610901565b606091505b5091509150816109535760405162461bcd60e51b815260206004820152601c60248201527f46756e6374696f6e2063616c6c206e6f74207375636365737366756c000000006044820152606401610800565b98975050505050505050565b600061096c8484846112fe565b6109dc8461097861107b565b6109d785604051806060016040528060288152602001612335602891396001600160a01b038a166000908152600160205260408120906109b661107b565b6001600160a01b031681526020810191909152604001600020549190611481565b61108a565b5060019392505050565b6109f76109f161107b565b826114bb565b50565b600082815260066020526040902060020154610a189061055761107b565b610a7c5760405162461bcd60e51b815260206004820152602f60248201527f416363657373436f6e74726f6c3a2073656e646572206d75737420626520616e60448201526e0818591b5a5b881d1bc819dc985b9d608a1b6064820152608401610800565b610a8682826115bf565b5050565b610a9261107b565b6001600160a01b0316816001600160a01b031614610b0a5760405162461bcd60e51b815260206004820152602f60248201527f416363657373436f6e74726f6c3a2063616e206f6e6c792072656e6f756e636560448201526e103937b632b9903337b91039b2b63360891b6064820152608401610800565b610a868282611628565b6000610766610b2161107b565b846109d78560016000610b3261107b565b6001600160a01b03908116825260208083019390935260409182016000908120918c16815292529020549061129f565b6001600160a01b038216610bb85760405162461bcd60e51b815260206004820152601f60248201527f45524332303a206d696e7420746f20746865207a65726f2061646472657373006044820152606401610800565b600254610bc5908261129f565b6002556001600160a01b038216600090815260208190526040902054610beb908261129f565b6001600160a01b038316600081815260208181526040808320949094559251848152919290917fddf252ad1be2c89b69c2b068fc378daa952ba7f163c4a11628f55a4df523b3ef91015b60405180910390a35050565b6000610c4f8161055761107b565b600790610c6f5760405162461bcd60e51b81526004016108009190611ff7565b50610caf83838080601f01602080910402602001604051908101604052809392919081815260200183838082843760009201919091525061169192505050565b610d0783838080601f016020809104026020016040519081016040528093929190818152602001838380828437600092019190915250506040805180820190915260018152603160f81b6020820152915061169d9050565b505050565b6000828152600660205260408120610d249083611724565b9392505050565b6000828152600660205260408120610d249083611730565b6060600480546106cf90611f3e565b6000610766610d5f61107b565b846109d78560405180606001604052806025815260200161235d6025913960016000610d8961107b565b6001600160a01b03908116825260208083019390935260409182016000908120918d16815292529020549190611481565b6000610766610dc761107b565b84846112fe565b600081815260066020526040812061076a90611752565b7f8f4f2da22e8ac8f11e15f9fc141cddbb5deea8800186560abb6e68c5496619a9610e128161055761107b565b600790610e325760405162461bcd60e51b81526004016108009190611ff7565b506000610e4183850185611d24565b9050610e4d8582610b62565b5050505050565b600082815260066020526040902060020154610e729061055761107b565b610b0a5760405162461bcd60e51b815260206004820152603060248201527f416363657373436f6e74726f6c3a2073656e646572206d75737420626520616e60448201526f2061646d696e20746f207265766f6b6560801b6064820152608401610800565b60085460ff1615610f1b5760405162461bcd60e51b815260206004820152600e60248201526d185b1c9958591e481a5b9a5d195960921b6044820152606401610800565b610f5a86868080601f01602080910402602001604051908101604052809392919081815260200183838082843760009201919091525061169192505050565b610f9984848080601f01602080910402602001604051908101604052809392919081815260200183838082843760009201919091525061175c92505050565b6005805460ff191660ff8416179055610fd28484604051602001610fbe929190612082565b604051602081830303815290604052611768565b610fe46000610fdf61107b565b610a7c565b61100e7f8f4f2da22e8ac8f11e15f9fc141cddbb5deea8800186560abb6e68c5496619a982610a7c565b61106686868080601f016020809104026020016040519081016040528093929190818152602001838380828437600092019190915250506040805180820190915260018152603160f81b602082015291506117969050565b50506008805460ff1916600117905550505050565b60006110856117f5565b905090565b6001600160a01b0383166110ec5760405162461bcd60e51b8152602060048201526024808201527f45524332303a20617070726f76652066726f6d20746865207a65726f206164646044820152637265737360e01b6064820152608401610800565b6001600160a01b03821661114d5760405162461bcd60e51b815260206004820152602260248201527f45524332303a20617070726f766520746f20746865207a65726f206164647265604482015261737360f01b6064820152608401610800565b6001600160a01b0383811660008181526001602090815260408083209487168084529482529182902085905590518481527f8c5be1e5ebec7d5bd14f71427d1e84f3dd0314c0f7b2291e5b200ac8c7c3b92591015b60405180910390a3505050565b60006001600160a01b0386166112155760405162461bcd60e51b815260206004820152602560248201527f4e61746976654d6574615472616e73616374696f6e3a20494e56414c49445f5360448201526424a3a722a960d91b6064820152608401610800565b600161122861122387611851565b6118ce565b6040805160008152602081018083529290925260ff851690820152606081018690526080810185905260a0016020604051602081039080840390855afa158015611276573d6000803e3d6000fd5b505050602060405103516001600160a01b0316866001600160a01b031614905095945050505050565b6000806112ac83856120b9565b905083811015610d245760405162461bcd60e51b815260206004820152601b60248201527f536166654d6174683a206164646974696f6e206f766572666c6f7700000000006044820152606401610800565b6001600160a01b0383166113625760405162461bcd60e51b815260206004820152602560248201527f45524332303a207472616e736665722066726f6d20746865207a65726f206164604482015264647265737360d81b6064820152608401610800565b6001600160a01b0382166113c45760405162461bcd60e51b815260206004820152602360248201527f45524332303a207472616e7366657220746f20746865207a65726f206164647260448201526265737360e81b6064820152608401610800565b6114018160405180606001604052806026815260200161230f602691396001600160a01b0386166000908152602081905260409020549190611481565b6001600160a01b038085166000908152602081905260408082209390935590841681522054611430908261129f565b6001600160a01b038381166000818152602081815260409182902094909455518481529092918616917fddf252ad1be2c89b69c2b068fc378daa952ba7f163c4a11628f55a4df523b3ef91016111a2565b600081848411156114a55760405162461bcd60e51b81526004016108009190611b82565b5060006114b284866120cc565b95945050505050565b6001600160a01b03821661151b5760405162461bcd60e51b815260206004820152602160248201527f45524332303a206275726e2066726f6d20746865207a65726f206164647265736044820152607360f81b6064820152608401610800565b6115588160405180606001604052806022815260200161225b602291396001600160a01b0385166000908152602081905260409020549190611481565b6001600160a01b03831660009081526020819052604090205560025461157e90826118fe565b6002556040518181526000906001600160a01b038416907fddf252ad1be2c89b69c2b068fc378daa952ba7f163c4a11628f55a4df523b3ef90602001610c35565b60008281526006602052604090206115d79082611940565b15610a86576115e461107b565b6001600160a01b0316816001600160a01b0316837f2f8788117e7eff1d82e926ec794901d17c78024a50270940304540a733656f0d60405160405180910390a45050565b60008281526006602052604090206116409082611955565b15610a865761164d61107b565b6001600160a01b0316816001600160a01b0316837ff6391f5c32d9c69d2a47ea670b442974b53935d1edc7fd64eb21e047a839171b60405160405180910390a45050565b6003610a86828261212d565b6040518060800160405280604f81526020016122c0604f91398051906020012082805190602001208280519060200120306116d54690565b60408051602081019690965285019390935260608401919091526001600160a01b0316608083015260a082015260c00160408051601f1981840301815291905280516020909101206009555050565b6000610d24838361196a565b6001600160a01b03811660009081526001830160205260408120541515610d24565b600061076a825490565b6004610a86828261212d565b8060405160200161177991906121ed565b60405160208183030381529060405260079081610a86919061212d565b60085460ff16156117da5760405162461bcd60e51b815260206004820152600e60248201526d185b1c9958591e481a5b9a5d195960921b6044820152606401610800565b6117e4828261169d565b50506008805460ff19166001179055565b600030330361184b57600080368080601f0160208091040260200160405190810160405280939291908181526020018383808284376000920191909152505050503601516001600160a01b0316915061184e9050565b50335b90565b600060405180608001604052806043815260200161227d60439139805160209182012083518483015160408087015180519086012090516118b1950193845260208401929092526001600160a01b03166040830152606082015260800190565b604051602081830303815290604052805190602001209050919050565b60006118d960095490565b60405161190160f01b60208201526022810191909152604281018390526062016118b1565b6000610d2483836040518060400160405280601e81526020017f536166654d6174683a207375627472616374696f6e206f766572666c6f770000815250611481565b6000610d24836001600160a01b0384166119f0565b6000610d24836001600160a01b038416611a3f565b815460009082106119c85760405162461bcd60e51b815260206004820152602260248201527f456e756d657261626c655365743a20696e646578206f7574206f6620626f756e604482015261647360f01b6064820152608401610800565b8260000182815481106119dd576119dd61222e565b9060005260206000200154905092915050565b6000818152600183016020526040812054611a375750815460018181018455600084815260208082209093018490558454848252828601909352604090209190915561076a565b50600061076a565b60008181526001830160205260408120548015611b28576000611a636001836120cc565b8554909150600090611a77906001906120cc565b90506000866000018281548110611a9057611a9061222e565b9060005260206000200154905080876000018481548110611ab357611ab361222e565b600091825260209091200155611aca8360016120b9565b60008281526001890160205260409020558654879080611aec57611aec612244565b6001900381819060005260206000200160009055905586600101600087815260200190815260200160002060009055600194505050505061076a565b600091505061076a565b60005b83811015611b4d578181015183820152602001611b35565b50506000910152565b60008151808452611b6e816020860160208601611b32565b601f01601f19169290920160200192915050565b602081526000610d246020830184611b56565b80356001600160a01b0381168114611bac57600080fd5b919050565b60008060408385031215611bc457600080fd5b611bcd83611b95565b946020939093013593505050565b634e487b7160e01b600052604160045260246000fd5b803560ff81168114611bac57600080fd5b600080600080600060a08688031215611c1a57600080fd5b611c2386611b95565b9450602086013567ffffffffffffffff80821115611c4057600080fd5b818801915088601f830112611c5457600080fd5b813581811115611c6657611c66611bdb565b604051601f8201601f19908116603f01168101908382118183101715611c8e57611c8e611bdb565b816040528281528b6020848701011115611ca757600080fd5b8260208601602083013760006020848301015280985050505050506040860135925060608601359150611cdc60808701611bf1565b90509295509295909350565b600080600060608486031215611cfd57600080fd5b611d0684611b95565b9250611d1460208501611b95565b9150604084013590509250925092565b600060208284031215611d3657600080fd5b5035919050565b600060208284031215611d4f57600080fd5b610d2482611b95565b60008060408385031215611d6b57600080fd5b82359150611d7b60208401611b95565b90509250929050565b60008083601f840112611d9657600080fd5b50813567ffffffffffffffff811115611dae57600080fd5b602083019150836020828501011115611dc657600080fd5b9250929050565b60008060208385031215611de057600080fd5b823567ffffffffffffffff811115611df757600080fd5b611e0385828601611d84565b90969095509350505050565b60008060408385031215611e2257600080fd5b50508035926020909101359150565b600080600060408486031215611e4657600080fd5b611e4f84611b95565b9250602084013567ffffffffffffffff811115611e6b57600080fd5b611e7786828701611d84565b9497909650939450505050565b60008060408385031215611e9757600080fd5b611ea083611b95565b9150611d7b60208401611b95565b60008060008060008060808789031215611ec757600080fd5b863567ffffffffffffffff80821115611edf57600080fd5b611eeb8a838b01611d84565b90985096506020890135915080821115611f0457600080fd5b50611f1189828a01611d84565b9095509350611f24905060408801611bf1565b9150611f3260608801611b95565b90509295509295509295565b600181811c90821680611f5257607f821691505b602082108103611f7257634e487b7160e01b600052602260045260246000fd5b50919050565b6001600160a01b038481168252831660208201526060604082018190526000906114b290830184611b56565b60008351611fb6818460208801611b32565b60609390931b6bffffffffffffffffffffffff19169190920190815260140192915050565b60008251611fed818460208701611b32565b9190910192915050565b600060208083526000845461200b81611f3e565b8084870152604060018084166000811461202c576001811461204657612074565b60ff1985168984015283151560051b890183019550612074565b896000528660002060005b8581101561206c5781548b8201860152908301908801612051565b8a0184019650505b509398975050505050505050565b6410da1a5b1960da1b81528183600583013760009101600501908152919050565b634e487b7160e01b600052601160045260246000fd5b8082018082111561076a5761076a6120a3565b8181038181111561076a5761076a6120a3565b601f821115610d0757600081815260208120601f850160051c810160208610156121065750805b601f850160051c820191505b8181101561212557828155600101612112565b505050505050565b815167ffffffffffffffff81111561214757612147611bdb565b61215b816121558454611f3e565b846120df565b602080601f83116001811461219057600084156121785750858301515b600019600386901b1c1916600185901b178555612125565b600085815260208120601f198616915b828110156121bf578886015182559484019460019091019084016121a0565b50858210156121dd5787850151600019600388901b60f8161c191681555b5050505050600190811b01905550565b600082516121ff818460208701611b32565b7f3a20494e53554646494349454e545f5045524d495353494f4e53000000000000920191825250601a01919050565b634e487b7160e01b600052603260045260246000fd5b634e487b7160e01b600052603160045260246000fdfe45524332303a206275726e20616d6f756e7420657863656564732062616c616e63654d6574615472616e73616374696f6e2875696e74323536206e6f6e63652c616464726573732066726f6d2c62797465732066756e6374696f6e5369676e617475726529454950373132446f6d61696e28737472696e67206e616d652c737472696e672076657273696f6e2c6164647265737320766572696679696e67436f6e74726163742c627974657333322073616c742945524332303a207472616e7366657220616d6f756e7420657863656564732062616c616e636545524332303a207472616e7366657220616d6f756e74206578636565647320616c6c6f77616e636545524332303a2064656372656173656420616c6c6f77616e63652062656c6f77207a65726fa2646970667358221220d0e474e7c0e5222b46307228c2ac6d269f0bbebdf353fd3f0134020073f9577f64736f6c63430008140033",
  "linkReferences": {},
  "deployedLinkReferences": {}
}