{
  "_format": "hh-sol-artifact-1",
  "contractName": "NofGammaCardsNFTV1",
  "sourceName": "contracts/gamma/GammaCardsNFT.v1.sol",
  "abi": [
    {
      "inputs": [],
      "stateMutability": "nonpayable",
      "type": "constructor"
    },
    {
      "inputs": [
        {
          "internalType": "address",
          "name": "sender",
          "type": "address"
        },
        {
          "internalType": "uint256",
          "name": "tokenId",
          "type": "uint256"
        },
        {
          "internalType": "address",
          "name": "owner",
          "type": "address"
        }
      ],
      "name": "ERC721IncorrectOwner",
      "type": "error"
    },
    {
      "inputs": [
        {
          "internalType": "address",
          "name": "operator",
          "type": "address"
        },
        {
          "internalType": "uint256",
          "name": "tokenId",
          "type": "uint256"
        }
      ],
      "name": "ERC721InsufficientApproval",
      "type": "error"
    },
    {
      "inputs": [
        {
          "internalType": "address",
          "name": "approver",
          "type": "address"
        }
      ],
      "name": "ERC721InvalidApprover",
      "type": "error"
    },
    {
      "inputs": [
        {
          "internalType": "address",
          "name": "operator",
          "type": "address"
        }
      ],
      "name": "ERC721InvalidOperator",
      "type": "error"
    },
    {
      "inputs": [
        {
          "internalType": "address",
          "name": "owner",
          "type": "address"
        }
      ],
      "name": "ERC721InvalidOwner",
      "type": "error"
    },
    {
      "inputs": [
        {
          "internalType": "address",
          "name": "receiver",
          "type": "address"
        }
      ],
      "name": "ERC721InvalidReceiver",
      "type": "error"
    },
    {
      "inputs": [
        {
          "internalType": "address",
          "name": "sender",
          "type": "address"
        }
      ],
      "name": "ERC721InvalidSender",
      "type": "error"
    },
    {
      "inputs": [
        {
          "internalType": "uint256",
          "name": "tokenId",
          "type": "uint256"
        }
      ],
      "name": "ERC721NonexistentToken",
      "type": "error"
    },
    {
      "anonymous": false,
      "inputs": [
        {
          "indexed": true,
          "internalType": "address",
          "name": "owner",
          "type": "address"
        },
        {
          "indexed": true,
          "internalType": "address",
          "name": "approved",
          "type": "address"
        },
        {
          "indexed": true,
          "internalType": "uint256",
          "name": "tokenId",
          "type": "uint256"
        }
      ],
      "name": "Approval",
      "type": "event"
    },
    {
      "anonymous": false,
      "inputs": [
        {
          "indexed": true,
          "internalType": "address",
          "name": "owner",
          "type": "address"
        },
        {
          "indexed": true,
          "internalType": "address",
          "name": "operator",
          "type": "address"
        },
        {
          "indexed": false,
          "internalType": "bool",
          "name": "approved",
          "type": "bool"
        }
      ],
      "name": "ApprovalForAll",
      "type": "event"
    },
    {
      "anonymous": false,
      "inputs": [
        {
          "indexed": false,
          "internalType": "uint256",
          "name": "_fromTokenId",
          "type": "uint256"
        },
        {
          "indexed": false,
          "internalType": "uint256",
          "name": "_toTokenId",
          "type": "uint256"
        }
      ],
      "name": "BatchMetadataUpdate",
      "type": "event"
    },
    {
      "anonymous": false,
      "inputs": [
        {
          "indexed": false,
          "internalType": "uint256",
          "name": "_tokenId",
          "type": "uint256"
        }
      ],
      "name": "MetadataUpdate",
      "type": "event"
    },
    {
      "anonymous": false,
      "inputs": [
        {
          "indexed": true,
          "internalType": "address",
          "name": "from",
          "type": "address"
        },
        {
          "indexed": true,
          "internalType": "address",
          "name": "to",
          "type": "address"
        },
        {
          "indexed": true,
          "internalType": "uint256",
          "name": "tokenId",
          "type": "uint256"
        }
      ],
      "name": "Transfer",
      "type": "event"
    },
    {
      "inputs": [
        {
          "internalType": "address",
          "name": "to",
          "type": "address"
        },
        {
          "internalType": "uint256",
          "name": "tokenId",
          "type": "uint256"
        }
      ],
      "name": "approve",
      "outputs": [],
      "stateMutability": "nonpayable",
      "type": "function"
    },
    {
      "inputs": [
        {
          "internalType": "address",
          "name": "owner",
          "type": "address"
        }
      ],
      "name": "balanceOf",
      "outputs": [
        {
          "internalType": "uint256",
          "name": "",
          "type": "uint256"
        }
      ],
      "stateMutability": "view",
      "type": "function"
    },
    {
      "inputs": [
        {
          "internalType": "uint256",
          "name": "tokenId",
          "type": "uint256"
        }
      ],
      "name": "burn",
      "outputs": [],
      "stateMutability": "nonpayable",
      "type": "function"
    },
    {
      "inputs": [
        {
          "internalType": "uint256",
          "name": "tokenId",
          "type": "uint256"
        }
      ],
      "name": "getApproved",
      "outputs": [
        {
          "internalType": "address",
          "name": "",
          "type": "address"
        }
      ],
      "stateMutability": "view",
      "type": "function"
    },
    {
      "inputs": [
        {
          "internalType": "address",
          "name": "owner",
          "type": "address"
        },
        {
          "internalType": "address",
          "name": "operator",
          "type": "address"
        }
      ],
      "name": "isApprovedForAll",
      "outputs": [
        {
          "internalType": "bool",
          "name": "",
          "type": "bool"
        }
      ],
      "stateMutability": "view",
      "type": "function"
    },
    {
      "inputs": [],
      "name": "name",
      "outputs": [
        {
          "internalType": "string",
          "name": "",
          "type": "string"
        }
      ],
      "stateMutability": "view",
      "type": "function"
    },
    {
      "inputs": [
        {
          "internalType": "uint256",
          "name": "tokenId",
          "type": "uint256"
        }
      ],
      "name": "ownerOf",
      "outputs": [
        {
          "internalType": "address",
          "name": "",
          "type": "address"
        }
      ],
      "stateMutability": "view",
      "type": "function"
    },
    {
      "inputs": [
        {
          "internalType": "address",
          "name": "from",
          "type": "address"
        },
        {
          "internalType": "address",
          "name": "to",
          "type": "address"
        },
        {
          "internalType": "uint256",
          "name": "tokenId",
          "type": "uint256"
        }
      ],
      "name": "safeTransferFrom",
      "outputs": [],
      "stateMutability": "nonpayable",
      "type": "function"
    },
    {
      "inputs": [
        {
          "internalType": "address",
          "name": "from",
          "type": "address"
        },
        {
          "internalType": "address",
          "name": "to",
          "type": "address"
        },
        {
          "internalType": "uint256",
          "name": "tokenId",
          "type": "uint256"
        },
        {
          "internalType": "bytes",
          "name": "data",
          "type": "bytes"
        }
      ],
      "name": "safeTransferFrom",
      "outputs": [],
      "stateMutability": "nonpayable",
      "type": "function"
    },
    {
      "inputs": [
        {
          "internalType": "address",
          "name": "operator",
          "type": "address"
        },
        {
          "internalType": "bool",
          "name": "approved",
          "type": "bool"
        }
      ],
      "name": "setApprovalForAll",
      "outputs": [],
      "stateMutability": "nonpayable",
      "type": "function"
    },
    {
      "inputs": [
        {
          "internalType": "bytes4",
          "name": "interfaceId",
          "type": "bytes4"
        }
      ],
      "name": "supportsInterface",
      "outputs": [
        {
          "internalType": "bool",
          "name": "",
          "type": "bool"
        }
      ],
      "stateMutability": "view",
      "type": "function"
    },
    {
      "inputs": [],
      "name": "symbol",
      "outputs": [
        {
          "internalType": "string",
          "name": "",
          "type": "string"
        }
      ],
      "stateMutability": "view",
      "type": "function"
    },
    {
      "inputs": [
        {
          "internalType": "uint256",
          "name": "tokenId",
          "type": "uint256"
        }
      ],
      "name": "tokenURI",
      "outputs": [
        {
          "internalType": "string",
          "name": "",
          "type": "string"
        }
      ],
      "stateMutability": "view",
      "type": "function"
    },
    {
      "inputs": [
        {
          "internalType": "address",
          "name": "from",
          "type": "address"
        },
        {
          "internalType": "address",
          "name": "to",
          "type": "address"
        },
        {
          "internalType": "uint256",
          "name": "tokenId",
          "type": "uint256"
        }
      ],
      "name": "transferFrom",
      "outputs": [],
      "stateMutability": "nonpayable",
      "type": "function"
    }
  ],
  "bytecode": "0x60806040523480156200001157600080fd5b506040518060400160405280600a81526020016947616d6d61436172647360b01b815250604051806040016040528060068152602001654e4f465f474360d01b815250816000908162000065919062000122565b50600162000074828262000122565b505050620001ee565b634e487b7160e01b600052604160045260246000fd5b600181811c90821680620000a857607f821691505b602082108103620000c957634e487b7160e01b600052602260045260246000fd5b50919050565b601f8211156200011d57600081815260208120601f850160051c81016020861015620000f85750805b601f850160051c820191505b81811015620001195782815560010162000104565b5050505b505050565b81516001600160401b038111156200013e576200013e6200007d565b62000156816200014f845462000093565b84620000cf565b602080601f8311600181146200018e5760008415620001755750858301515b600019600386901b1c1916600185901b17855562000119565b600085815260208120601f198616915b82811015620001bf578886015182559484019460019091019084016200019e565b5085821015620001de5787850151600019600388901b60f8161c191681555b5050505050600190811b01905550565b61106480620001fe6000396000f3fe608060405234801561001057600080fd5b50600436106100ea5760003560e01c80636352211e1161008c578063a22cb46511610066578063a22cb465146101e1578063b88d4fde146101f4578063c87b56dd14610207578063e985e9c51461021a57600080fd5b80636352211e146101a557806370a08231146101b857806395d89b41146101d957600080fd5b8063095ea7b3116100c8578063095ea7b31461015757806323b872dd1461016c57806342842e0e1461017f57806342966c681461019257600080fd5b806301ffc9a7146100ef57806306fdde0314610117578063081812fc1461012c575b600080fd5b6101026100fd366004610cd4565b61022d565b60405190151581526020015b60405180910390f35b61011f61023e565b60405161010e9190610d41565b61013f61013a366004610d54565b6102d0565b6040516001600160a01b03909116815260200161010e565b61016a610165366004610d89565b6102f9565b005b61016a61017a366004610db3565b610308565b61016a61018d366004610db3565b610398565b61016a6101a0366004610d54565b6103b8565b61013f6101b3366004610d54565b6103c4565b6101cb6101c6366004610def565b6103cf565b60405190815260200161010e565b61011f610417565b61016a6101ef366004610e0a565b610426565b61016a610202366004610e5c565b610431565b61011f610215366004610d54565b610448565b610102610228366004610f38565b610453565b600061023882610481565b92915050565b60606000805461024d90610f6b565b80601f016020809104026020016040519081016040528092919081815260200182805461027990610f6b565b80156102c65780601f1061029b576101008083540402835291602001916102c6565b820191906000526020600020905b8154815290600101906020018083116102a957829003601f168201915b5050505050905090565b60006102db826104a6565b506000828152600460205260409020546001600160a01b0316610238565b6103048282336104df565b5050565b6001600160a01b03821661033757604051633250574960e11b8152600060048201526024015b60405180910390fd5b60006103448383336104ec565b9050836001600160a01b0316816001600160a01b031614610392576040516364283d7b60e01b81526001600160a01b038086166004830152602482018490528216604482015260640161032e565b50505050565b6103b383838360405180602001604052806000815250610431565b505050565b610304600082336104ec565b6000610238826104a6565b60006001600160a01b0382166103fb576040516322718ad960e21b81526000600482015260240161032e565b506001600160a01b031660009081526003602052604090205490565b60606001805461024d90610f6b565b6103043383836105e5565b61043c848484610308565b61039284848484610684565b6060610238826107ad565b6001600160a01b03918216600090815260056020908152604080832093909416825291909152205460ff1690565b60006001600160e01b03198216632483248360e11b14806102385750610238826108be565b6000818152600260205260408120546001600160a01b03168061023857604051637e27328960e01b81526004810184905260240161032e565b6103b3838383600161090e565b6000828152600260205260408120546001600160a01b039081169083161561051957610519818486610a14565b6001600160a01b038116156105575761053660008560008061090e565b6001600160a01b038116600090815260036020526040902080546000190190555b6001600160a01b03851615610586576001600160a01b0385166000908152600360205260409020805460010190555b60008481526002602052604080822080546001600160a01b0319166001600160a01b0389811691821790925591518793918516917fddf252ad1be2c89b69c2b068fc378daa952ba7f163c4a11628f55a4df523b3ef91a4949350505050565b6001600160a01b03821661061757604051630b61174360e31b81526001600160a01b038316600482015260240161032e565b6001600160a01b03838116600081815260056020908152604080832094871680845294825291829020805460ff191686151590811790915591519182527f17307eab39ab6107e8899845ad3d59bd9653f200f220920489ca2b5937696c31910160405180910390a3505050565b6001600160a01b0383163b1561039257604051630a85bd0160e11b81526001600160a01b0384169063150b7a02906106c6903390889087908790600401610fa5565b6020604051808303816000875af1925050508015610701575060408051601f3d908101601f191682019092526106fe91810190610fe2565b60015b61076a573d80801561072f576040519150601f19603f3d011682016040523d82523d6000602084013e610734565b606091505b50805160000361076257604051633250574960e11b81526001600160a01b038516600482015260240161032e565b805181602001fd5b6001600160e01b03198116630a85bd0160e11b146107a657604051633250574960e11b81526001600160a01b038516600482015260240161032e565b5050505050565b60606107b8826104a6565b50600082815260066020526040812080546107d290610f6b565b80601f01602080910402602001604051908101604052809291908181526020018280546107fe90610f6b565b801561084b5780601f106108205761010080835404028352916020019161084b565b820191906000526020600020905b81548152906001019060200180831161082e57829003601f168201915b50505050509050600061086960408051602081019091526000815290565b9050805160000361087b575092915050565b8151156108ad578082604051602001610895929190610fff565b60405160208183030381529060405292505050919050565b6108b684610a78565b949350505050565b60006001600160e01b031982166380ac58cd60e01b14806108ef57506001600160e01b03198216635b5e139f60e01b145b8061023857506301ffc9a760e01b6001600160e01b0319831614610238565b808061092257506001600160a01b03821615155b156109e4576000610932846104a6565b90506001600160a01b0383161580159061095e5750826001600160a01b0316816001600160a01b031614155b8015610971575061096f8184610453565b155b1561099a5760405163a9fbf51f60e01b81526001600160a01b038416600482015260240161032e565b81156109e25783856001600160a01b0316826001600160a01b03167f8c5be1e5ebec7d5bd14f71427d1e84f3dd0314c0f7b2291e5b200ac8c7c3b92560405160405180910390a45b505b5050600090815260046020526040902080546001600160a01b0319166001600160a01b0392909216919091179055565b610a1f838383610aed565b6103b3576001600160a01b038316610a4d57604051637e27328960e01b81526004810182905260240161032e565b60405163177e802f60e01b81526001600160a01b03831660048201526024810182905260440161032e565b6060610a83826104a6565b506000610a9b60408051602081019091526000815290565b90506000815111610abb5760405180602001604052806000815250610ae6565b80610ac584610b50565b604051602001610ad6929190610fff565b6040516020818303038152906040525b9392505050565b60006001600160a01b038316158015906108b65750826001600160a01b0316846001600160a01b03161480610b275750610b278484610453565b806108b65750506000908152600460205260409020546001600160a01b03908116911614919050565b60606000610b5d83610be3565b600101905060008167ffffffffffffffff811115610b7d57610b7d610e46565b6040519080825280601f01601f191660200182016040528015610ba7576020820181803683370190505b5090508181016020015b600019016f181899199a1a9b1b9c1cb0b131b232b360811b600a86061a8153600a8504945084610bb157509392505050565b60008072184f03e93ff9f4daa797ed6e38ed64bf6a1f0160401b8310610c225772184f03e93ff9f4daa797ed6e38ed64bf6a1f0160401b830492506040015b6d04ee2d6d415b85acef81000000008310610c4e576d04ee2d6d415b85acef8100000000830492506020015b662386f26fc100008310610c6c57662386f26fc10000830492506010015b6305f5e1008310610c84576305f5e100830492506008015b6127108310610c9857612710830492506004015b60648310610caa576064830492506002015b600a83106102385760010192915050565b6001600160e01b031981168114610cd157600080fd5b50565b600060208284031215610ce657600080fd5b8135610ae681610cbb565b60005b83811015610d0c578181015183820152602001610cf4565b50506000910152565b60008151808452610d2d816020860160208601610cf1565b601f01601f19169290920160200192915050565b602081526000610ae66020830184610d15565b600060208284031215610d6657600080fd5b5035919050565b80356001600160a01b0381168114610d8457600080fd5b919050565b60008060408385031215610d9c57600080fd5b610da583610d6d565b946020939093013593505050565b600080600060608486031215610dc857600080fd5b610dd184610d6d565b9250610ddf60208501610d6d565b9150604084013590509250925092565b600060208284031215610e0157600080fd5b610ae682610d6d565b60008060408385031215610e1d57600080fd5b610e2683610d6d565b915060208301358015158114610e3b57600080fd5b809150509250929050565b634e487b7160e01b600052604160045260246000fd5b60008060008060808587031215610e7257600080fd5b610e7b85610d6d565b9350610e8960208601610d6d565b925060408501359150606085013567ffffffffffffffff80821115610ead57600080fd5b818701915087601f830112610ec157600080fd5b813581811115610ed357610ed3610e46565b604051601f8201601f19908116603f01168101908382118183101715610efb57610efb610e46565b816040528281528a6020848701011115610f1457600080fd5b82602086016020830137600060208483010152809550505050505092959194509250565b60008060408385031215610f4b57600080fd5b610f5483610d6d565b9150610f6260208401610d6d565b90509250929050565b600181811c90821680610f7f57607f821691505b602082108103610f9f57634e487b7160e01b600052602260045260246000fd5b50919050565b6001600160a01b0385811682528416602082015260408101839052608060608201819052600090610fd890830184610d15565b9695505050505050565b600060208284031215610ff457600080fd5b8151610ae681610cbb565b60008351611011818460208801610cf1565b835190830190611025818360208801610cf1565b0194935050505056fea26469706673582212200da02dc7a1c602e1495611ea2061595e88b0d59cbd8ecb9d3818c746fec8b71564736f6c63430008140033",
  "linkReferences": {},
  "deployedLinkReferences": {}
}