{
  "_format": "hh-sol-artifact-1",
  "contractName": "NofGammaCardsV4",
  "sourceName": "contracts/gamma/GammaCards.v4.sol",
  "abi": [
    {
      "inputs": [
        {
          "internalType": "address",
          "name": "_daiTokenAddress",
          "type": "address"
        },
        {
          "internalType": "address",
          "name": "_gammaPacksContract",
          "type": "address"
        },
        {
          "internalType": "string",
          "name": "_baseUri",
          "type": "string"
        },
        {
          "internalType": "address",
          "name": "_signer",
          "type": "address"
        }
      ],
      "stateMutability": "nonpayable",
      "type": "constructor"
    },
    {
      "anonymous": false,
      "inputs": [
        {
          "indexed": false,
          "internalType": "address",
          "name": "player",
          "type": "address"
        },
        {
          "indexed": false,
          "internalType": "uint8",
          "name": "albumClass",
          "type": "uint8"
        }
      ],
      "name": "AlbumCompleted",
      "type": "event"
    },
    {
      "anonymous": false,
      "inputs": [
        {
          "indexed": true,
          "internalType": "address",
          "name": "owner",
          "type": "address"
        },
        {
          "indexed": true,
          "internalType": "address",
          "name": "approved",
          "type": "address"
        },
        {
          "indexed": true,
          "internalType": "uint256",
          "name": "tokenId",
          "type": "uint256"
        }
      ],
      "name": "Approval",
      "type": "event"
    },
    {
      "anonymous": false,
      "inputs": [
        {
          "indexed": true,
          "internalType": "address",
          "name": "owner",
          "type": "address"
        },
        {
          "indexed": true,
          "internalType": "address",
          "name": "operator",
          "type": "address"
        },
        {
          "indexed": false,
          "internalType": "bool",
          "name": "approved",
          "type": "bool"
        }
      ],
      "name": "ApprovalForAll",
      "type": "event"
    },
    {
      "anonymous": false,
      "inputs": [
        {
          "indexed": false,
          "internalType": "address",
          "name": "player",
          "type": "address"
        },
        {
          "indexed": false,
          "internalType": "uint256",
          "name": "cardTokenId",
          "type": "uint256"
        },
        {
          "indexed": false,
          "internalType": "uint256",
          "name": "albumTokenId",
          "type": "uint256"
        }
      ],
      "name": "CardPasted",
      "type": "event"
    },
    {
      "anonymous": false,
      "inputs": [
        {
          "indexed": false,
          "internalType": "address",
          "name": "receiver",
          "type": "address"
        },
        {
          "indexed": false,
          "internalType": "uint256",
          "name": "amount",
          "type": "uint256"
        }
      ],
      "name": "EmergencyWithdrawal",
      "type": "event"
    },
    {
      "anonymous": false,
      "inputs": [
        {
          "indexed": false,
          "internalType": "address",
          "name": "newGammaOffersContract",
          "type": "address"
        }
      ],
      "name": "NewGammaOffersContract",
      "type": "event"
    },
    {
      "anonymous": false,
      "inputs": [
        {
          "indexed": false,
          "internalType": "address",
          "name": "newSigner",
          "type": "address"
        }
      ],
      "name": "NewSigner",
      "type": "event"
    },
    {
      "anonymous": false,
      "inputs": [
        {
          "indexed": false,
          "internalType": "string",
          "name": "newMainUri",
          "type": "string"
        },
        {
          "indexed": false,
          "internalType": "string",
          "name": "newSecondaryUri",
          "type": "string"
        }
      ],
      "name": "NewUris",
      "type": "event"
    },
    {
      "anonymous": false,
      "inputs": [
        {
          "indexed": true,
          "internalType": "address",
          "name": "previousOwner",
          "type": "address"
        },
        {
          "indexed": true,
          "internalType": "address",
          "name": "newOwner",
          "type": "address"
        }
      ],
      "name": "OwnershipTransferred",
      "type": "event"
    },
    {
      "anonymous": false,
      "inputs": [
        {
          "indexed": false,
          "internalType": "address",
          "name": "player",
          "type": "address"
        },
        {
          "indexed": false,
          "internalType": "uint8[]",
          "name": "packData",
          "type": "uint8[]"
        },
        {
          "indexed": false,
          "internalType": "uint256",
          "name": "packNumber",
          "type": "uint256"
        }
      ],
      "name": "PackOpened",
      "type": "event"
    },
    {
      "anonymous": false,
      "inputs": [
        {
          "indexed": true,
          "internalType": "address",
          "name": "from",
          "type": "address"
        },
        {
          "indexed": true,
          "internalType": "address",
          "name": "to",
          "type": "address"
        },
        {
          "indexed": true,
          "internalType": "uint256",
          "name": "tokenId",
          "type": "uint256"
        }
      ],
      "name": "Transfer",
      "type": "event"
    },
    {
      "inputs": [],
      "name": "DAI_TOKEN",
      "outputs": [
        {
          "internalType": "address",
          "name": "",
          "type": "address"
        }
      ],
      "stateMutability": "view",
      "type": "function"
    },
    {
      "inputs": [
        {
          "internalType": "address",
          "name": "_newOwner",
          "type": "address"
        }
      ],
      "name": "addOwner",
      "outputs": [],
      "stateMutability": "nonpayable",
      "type": "function"
    },
    {
      "inputs": [
        {
          "internalType": "address",
          "name": "_newSigner",
          "type": "address"
        }
      ],
      "name": "addSigner",
      "outputs": [],
      "stateMutability": "nonpayable",
      "type": "function"
    },
    {
      "inputs": [
        {
          "internalType": "address",
          "name": "to",
          "type": "address"
        },
        {
          "internalType": "uint256",
          "name": "tokenId",
          "type": "uint256"
        }
      ],
      "name": "approve",
      "outputs": [],
      "stateMutability": "nonpayable",
      "type": "function"
    },
    {
      "inputs": [
        {
          "internalType": "address",
          "name": "owner",
          "type": "address"
        }
      ],
      "name": "balanceOf",
      "outputs": [
        {
          "internalType": "uint256",
          "name": "",
          "type": "uint256"
        }
      ],
      "stateMutability": "view",
      "type": "function"
    },
    {
      "inputs": [],
      "name": "baseUri",
      "outputs": [
        {
          "internalType": "string",
          "name": "",
          "type": "string"
        }
      ],
      "stateMutability": "view",
      "type": "function"
    },
    {
      "inputs": [
        {
          "internalType": "uint256",
          "name": "tokenId",
          "type": "uint256"
        }
      ],
      "name": "burn",
      "outputs": [],
      "stateMutability": "nonpayable",
      "type": "function"
    },
    {
      "inputs": [
        {
          "internalType": "uint8[]",
          "name": "cardNumbers",
          "type": "uint8[]"
        }
      ],
      "name": "burnCards",
      "outputs": [],
      "stateMutability": "nonpayable",
      "type": "function"
    },
    {
      "inputs": [
        {
          "internalType": "address",
          "name": "user",
          "type": "address"
        }
      ],
      "name": "burnedCards",
      "outputs": [
        {
          "internalType": "uint256",
          "name": "amount",
          "type": "uint256"
        }
      ],
      "stateMutability": "view",
      "type": "function"
    },
    {
      "inputs": [
        {
          "internalType": "uint256",
          "name": "tokenId",
          "type": "uint256"
        }
      ],
      "name": "cards",
      "outputs": [
        {
          "internalType": "uint256",
          "name": "tokenId",
          "type": "uint256"
        },
        {
          "internalType": "uint256",
          "name": "number",
          "type": "uint256"
        },
        {
          "internalType": "bool",
          "name": "pasted",
          "type": "bool"
        },
        {
          "internalType": "uint8",
          "name": "class",
          "type": "uint8"
        },
        {
          "internalType": "uint256",
          "name": "completion",
          "type": "uint256"
        }
      ],
      "stateMutability": "view",
      "type": "function"
    },
    {
      "inputs": [
        {
          "internalType": "address",
          "name": "user",
          "type": "address"
        },
        {
          "internalType": "uint8",
          "name": "cardNumber",
          "type": "uint8"
        }
      ],
      "name": "cardsByUser",
      "outputs": [
        {
          "internalType": "uint8",
          "name": "amount",
          "type": "uint8"
        }
      ],
      "stateMutability": "view",
      "type": "function"
    },
    {
      "inputs": [
        {
          "internalType": "uint256",
          "name": "cardNumber",
          "type": "uint256"
        }
      ],
      "name": "cardsInventory",
      "outputs": [
        {
          "internalType": "uint256",
          "name": "amount",
          "type": "uint256"
        }
      ],
      "stateMutability": "view",
      "type": "function"
    },
    {
      "inputs": [
        {
          "internalType": "uint256",
          "name": "newPackPrice",
          "type": "uint256"
        }
      ],
      "name": "changePackPrice",
      "outputs": [],
      "stateMutability": "nonpayable",
      "type": "function"
    },
    {
      "inputs": [
        {
          "internalType": "bool",
          "name": "required",
          "type": "bool"
        }
      ],
      "name": "changeRequireOfferValidationInMint",
      "outputs": [],
      "stateMutability": "nonpayable",
      "type": "function"
    },
    {
      "inputs": [
        {
          "internalType": "bool",
          "name": "required",
          "type": "bool"
        }
      ],
      "name": "changeRequireOfferValidationInTransfer",
      "outputs": [],
      "stateMutability": "nonpayable",
      "type": "function"
    },
    {
      "inputs": [
        {
          "internalType": "bool",
          "name": "required",
          "type": "bool"
        }
      ],
      "name": "changeRequireOpenPackSignerValidation",
      "outputs": [],
      "stateMutability": "nonpayable",
      "type": "function"
    },
    {
      "inputs": [
        {
          "internalType": "uint256",
          "name": "amount",
          "type": "uint256"
        }
      ],
      "name": "emergencyWithdraw",
      "outputs": [],
      "stateMutability": "nonpayable",
      "type": "function"
    },
    {
      "inputs": [
        {
          "internalType": "address",
          "name": "from",
          "type": "address"
        },
        {
          "internalType": "uint8",
          "name": "cardNumberFrom",
          "type": "uint8"
        },
        {
          "internalType": "address",
          "name": "to",
          "type": "address"
        },
        {
          "internalType": "uint8",
          "name": "cardNumberTo",
          "type": "uint8"
        }
      ],
      "name": "exchangeCardsOffer",
      "outputs": [],
      "stateMutability": "nonpayable",
      "type": "function"
    },
    {
      "inputs": [],
      "name": "finishAlbum",
      "outputs": [],
      "stateMutability": "nonpayable",
      "type": "function"
    },
    {
      "inputs": [],
      "name": "gammaOffersContract",
      "outputs": [
        {
          "internalType": "contract IgammaOffersContract",
          "name": "",
          "type": "address"
        }
      ],
      "stateMutability": "view",
      "type": "function"
    },
    {
      "inputs": [],
      "name": "gammaPacksContract",
      "outputs": [
        {
          "internalType": "contract IgammaPacksContract",
          "name": "",
          "type": "address"
        }
      ],
      "stateMutability": "view",
      "type": "function"
    },
    {
      "inputs": [
        {
          "internalType": "uint256",
          "name": "tokenId",
          "type": "uint256"
        }
      ],
      "name": "getApproved",
      "outputs": [
        {
          "internalType": "address",
          "name": "",
          "type": "address"
        }
      ],
      "stateMutability": "view",
      "type": "function"
    },
    {
      "inputs": [
        {
          "internalType": "address",
          "name": "user",
          "type": "address"
        },
        {
          "internalType": "uint8",
          "name": "cardNum",
          "type": "uint8"
        }
      ],
      "name": "getCardQuantityByUser",
      "outputs": [
        {
          "internalType": "uint8",
          "name": "",
          "type": "uint8"
        }
      ],
      "stateMutability": "view",
      "type": "function"
    },
    {
      "inputs": [
        {
          "internalType": "address",
          "name": "user",
          "type": "address"
        }
      ],
      "name": "getCardsByUser",
      "outputs": [
        {
          "internalType": "uint8[]",
          "name": "",
          "type": "uint8[]"
        },
        {
          "internalType": "uint8[]",
          "name": "",
          "type": "uint8[]"
        },
        {
          "internalType": "bool[]",
          "name": "",
          "type": "bool[]"
        }
      ],
      "stateMutability": "view",
      "type": "function"
    },
    {
      "inputs": [
        {
          "internalType": "address",
          "name": "user",
          "type": "address"
        },
        {
          "internalType": "uint8",
          "name": "cardNum",
          "type": "uint8"
        }
      ],
      "name": "hasCard",
      "outputs": [
        {
          "internalType": "bool",
          "name": "has",
          "type": "bool"
        }
      ],
      "stateMutability": "view",
      "type": "function"
    },
    {
      "inputs": [
        {
          "internalType": "address",
          "name": "user",
          "type": "address"
        },
        {
          "internalType": "uint8",
          "name": "cardNumber",
          "type": "uint8"
        }
      ],
      "name": "hasCardByOffer",
      "outputs": [
        {
          "internalType": "bool",
          "name": "has",
          "type": "bool"
        }
      ],
      "stateMutability": "view",
      "type": "function"
    },
    {
      "inputs": [
        {
          "internalType": "address",
          "name": "owner",
          "type": "address"
        },
        {
          "internalType": "address",
          "name": "operator",
          "type": "address"
        }
      ],
      "name": "isApprovedForAll",
      "outputs": [
        {
          "internalType": "bool",
          "name": "",
          "type": "bool"
        }
      ],
      "stateMutability": "view",
      "type": "function"
    },
    {
      "inputs": [],
      "name": "mainAlbumPrize",
      "outputs": [
        {
          "internalType": "uint256",
          "name": "",
          "type": "uint256"
        }
      ],
      "stateMutability": "view",
      "type": "function"
    },
    {
      "inputs": [],
      "name": "mainUri",
      "outputs": [
        {
          "internalType": "string",
          "name": "",
          "type": "string"
        }
      ],
      "stateMutability": "view",
      "type": "function"
    },
    {
      "inputs": [
        {
          "internalType": "uint8",
          "name": "cardNum",
          "type": "uint8"
        }
      ],
      "name": "mintCard",
      "outputs": [],
      "stateMutability": "nonpayable",
      "type": "function"
    },
    {
      "inputs": [],
      "name": "name",
      "outputs": [
        {
          "internalType": "string",
          "name": "",
          "type": "string"
        }
      ],
      "stateMutability": "view",
      "type": "function"
    },
    {
      "inputs": [
        {
          "internalType": "uint256",
          "name": "packNumber",
          "type": "uint256"
        },
        {
          "internalType": "uint8[]",
          "name": "packData",
          "type": "uint8[]"
        },
        {
          "internalType": "bytes",
          "name": "signature",
          "type": "bytes"
        }
      ],
      "name": "openPack",
      "outputs": [],
      "stateMutability": "nonpayable",
      "type": "function"
    },
    {
      "inputs": [
        {
          "internalType": "address",
          "name": "user",
          "type": "address"
        },
        {
          "internalType": "uint256",
          "name": "packNumber",
          "type": "uint256"
        },
        {
          "internalType": "uint8[]",
          "name": "packData",
          "type": "uint8[]"
        },
        {
          "internalType": "bytes",
          "name": "signature",
          "type": "bytes"
        }
      ],
      "name": "openPackByUser",
      "outputs": [],
      "stateMutability": "nonpayable",
      "type": "function"
    },
    {
      "inputs": [],
      "name": "owner",
      "outputs": [
        {
          "internalType": "address",
          "name": "",
          "type": "address"
        }
      ],
      "stateMutability": "view",
      "type": "function"
    },
    {
      "inputs": [
        {
          "internalType": "uint256",
          "name": "tokenId",
          "type": "uint256"
        }
      ],
      "name": "ownerOf",
      "outputs": [
        {
          "internalType": "address",
          "name": "",
          "type": "address"
        }
      ],
      "stateMutability": "view",
      "type": "function"
    },
    {
      "inputs": [
        {
          "internalType": "address",
          "name": "",
          "type": "address"
        }
      ],
      "name": "owners",
      "outputs": [
        {
          "internalType": "bool",
          "name": "",
          "type": "bool"
        }
      ],
      "stateMutability": "view",
      "type": "function"
    },
    {
      "inputs": [],
      "name": "packPrice",
      "outputs": [
        {
          "internalType": "uint256",
          "name": "",
          "type": "uint256"
        }
      ],
      "stateMutability": "view",
      "type": "function"
    },
    {
      "inputs": [],
      "name": "prizesBalance",
      "outputs": [
        {
          "internalType": "uint256",
          "name": "",
          "type": "uint256"
        }
      ],
      "stateMutability": "view",
      "type": "function"
    },
    {
      "inputs": [
        {
          "internalType": "uint256",
          "name": "amount",
          "type": "uint256"
        }
      ],
      "name": "receivePrizesBalance",
      "outputs": [],
      "stateMutability": "nonpayable",
      "type": "function"
    },
    {
      "inputs": [
        {
          "internalType": "address",
          "name": "user",
          "type": "address"
        },
        {
          "internalType": "uint8",
          "name": "cardNumber",
          "type": "uint8"
        }
      ],
      "name": "removeCardByOffer",
      "outputs": [],
      "stateMutability": "nonpayable",
      "type": "function"
    },
    {
      "inputs": [
        {
          "internalType": "address",
          "name": "_ownerToRemove",
          "type": "address"
        }
      ],
      "name": "removeOwner",
      "outputs": [],
      "stateMutability": "nonpayable",
      "type": "function"
    },
    {
      "inputs": [
        {
          "internalType": "address",
          "name": "_signerToRemove",
          "type": "address"
        }
      ],
      "name": "removeSigner",
      "outputs": [],
      "stateMutability": "nonpayable",
      "type": "function"
    },
    {
      "inputs": [],
      "name": "renounceOwnership",
      "outputs": [],
      "stateMutability": "nonpayable",
      "type": "function"
    },
    {
      "inputs": [],
      "name": "requireOfferValidationInMint",
      "outputs": [
        {
          "internalType": "bool",
          "name": "",
          "type": "bool"
        }
      ],
      "stateMutability": "view",
      "type": "function"
    },
    {
      "inputs": [],
      "name": "requireOfferValidationInTransfer",
      "outputs": [
        {
          "internalType": "bool",
          "name": "",
          "type": "bool"
        }
      ],
      "stateMutability": "view",
      "type": "function"
    },
    {
      "inputs": [],
      "name": "requireOpenPackSignerValidation",
      "outputs": [
        {
          "internalType": "bool",
          "name": "",
          "type": "bool"
        }
      ],
      "stateMutability": "view",
      "type": "function"
    },
    {
      "inputs": [
        {
          "internalType": "address",
          "name": "user",
          "type": "address"
        },
        {
          "internalType": "uint8",
          "name": "cardNumber",
          "type": "uint8"
        }
      ],
      "name": "restoreCardByOffer",
      "outputs": [],
      "stateMutability": "nonpayable",
      "type": "function"
    },
    {
      "inputs": [
        {
          "internalType": "address",
          "name": "from",
          "type": "address"
        },
        {
          "internalType": "address",
          "name": "to",
          "type": "address"
        },
        {
          "internalType": "uint256",
          "name": "tokenId",
          "type": "uint256"
        }
      ],
      "name": "safeTransferFrom",
      "outputs": [],
      "stateMutability": "nonpayable",
      "type": "function"
    },
    {
      "inputs": [
        {
          "internalType": "address",
          "name": "from",
          "type": "address"
        },
        {
          "internalType": "address",
          "name": "to",
          "type": "address"
        },
        {
          "internalType": "uint256",
          "name": "tokenId",
          "type": "uint256"
        },
        {
          "internalType": "bytes",
          "name": "data",
          "type": "bytes"
        }
      ],
      "name": "safeTransferFrom",
      "outputs": [],
      "stateMutability": "nonpayable",
      "type": "function"
    },
    {
      "inputs": [],
      "name": "secondaryAlbumPrize",
      "outputs": [
        {
          "internalType": "uint256",
          "name": "",
          "type": "uint256"
        }
      ],
      "stateMutability": "view",
      "type": "function"
    },
    {
      "inputs": [],
      "name": "secondaryUri",
      "outputs": [
        {
          "internalType": "string",
          "name": "",
          "type": "string"
        }
      ],
      "stateMutability": "view",
      "type": "function"
    },
    {
      "inputs": [
        {
          "internalType": "address",
          "name": "operator",
          "type": "address"
        },
        {
          "internalType": "bool",
          "name": "approved",
          "type": "bool"
        }
      ],
      "name": "setApprovalForAll",
      "outputs": [],
      "stateMutability": "nonpayable",
      "type": "function"
    },
    {
      "inputs": [
        {
          "internalType": "address",
          "name": "_gammaOffersContract",
          "type": "address"
        }
      ],
      "name": "setGammaOffersContract",
      "outputs": [],
      "stateMutability": "nonpayable",
      "type": "function"
    },
    {
      "inputs": [
        {
          "internalType": "string",
          "name": "newMainUri",
          "type": "string"
        },
        {
          "internalType": "string",
          "name": "newSecondaryUri",
          "type": "string"
        }
      ],
      "name": "setUris",
      "outputs": [],
      "stateMutability": "nonpayable",
      "type": "function"
    },
    {
      "inputs": [
        {
          "internalType": "address",
          "name": "",
          "type": "address"
        }
      ],
      "name": "signers",
      "outputs": [
        {
          "internalType": "bool",
          "name": "",
          "type": "bool"
        }
      ],
      "stateMutability": "view",
      "type": "function"
    },
    {
      "inputs": [
        {
          "internalType": "bytes4",
          "name": "interfaceId",
          "type": "bytes4"
        }
      ],
      "name": "supportsInterface",
      "outputs": [
        {
          "internalType": "bool",
          "name": "",
          "type": "bool"
        }
      ],
      "stateMutability": "view",
      "type": "function"
    },
    {
      "inputs": [],
      "name": "symbol",
      "outputs": [
        {
          "internalType": "string",
          "name": "",
          "type": "string"
        }
      ],
      "stateMutability": "view",
      "type": "function"
    },
    {
      "inputs": [
        {
          "internalType": "address",
          "name": "user",
          "type": "address"
        }
      ],
      "name": "testAddCards",
      "outputs": [],
      "stateMutability": "nonpayable",
      "type": "function"
    },
    {
      "inputs": [
        {
          "internalType": "address",
          "name": "user",
          "type": "address"
        },
        {
          "internalType": "uint256",
          "name": "packNumber",
          "type": "uint256"
        },
        {
          "internalType": "uint8[]",
          "name": "packData",
          "type": "uint8[]"
        }
      ],
      "name": "testOpenPack",
      "outputs": [],
      "stateMutability": "nonpayable",
      "type": "function"
    },
    {
      "inputs": [
        {
          "internalType": "uint256",
          "name": "tokenId",
          "type": "uint256"
        }
      ],
      "name": "tokenURI",
      "outputs": [
        {
          "internalType": "string",
          "name": "",
          "type": "string"
        }
      ],
      "stateMutability": "view",
      "type": "function"
    },
    {
      "inputs": [
        {
          "internalType": "address",
          "name": "to",
          "type": "address"
        },
        {
          "internalType": "uint8",
          "name": "cardNumber",
          "type": "uint8"
        }
      ],
      "name": "transferCard",
      "outputs": [],
      "stateMutability": "nonpayable",
      "type": "function"
    },
    {
      "inputs": [
        {
          "internalType": "address",
          "name": "to",
          "type": "address"
        },
        {
          "internalType": "uint8[]",
          "name": "cardNumbers",
          "type": "uint8[]"
        }
      ],
      "name": "transferCards",
      "outputs": [],
      "stateMutability": "nonpayable",
      "type": "function"
    },
    {
      "inputs": [
        {
          "internalType": "address",
          "name": "from",
          "type": "address"
        },
        {
          "internalType": "address",
          "name": "to",
          "type": "address"
        },
        {
          "internalType": "uint256",
          "name": "tokenId",
          "type": "uint256"
        }
      ],
      "name": "transferFrom",
      "outputs": [],
      "stateMutability": "nonpayable",
      "type": "function"
    },
    {
      "inputs": [
        {
          "internalType": "address",
          "name": "newOwner",
          "type": "address"
        }
      ],
      "name": "transferOwnership",
      "outputs": [],
      "stateMutability": "nonpayable",
      "type": "function"
    },
    {
      "inputs": [
        {
          "internalType": "uint256",
          "name": "packNumber",
          "type": "uint256"
        },
        {
          "internalType": "uint8[]",
          "name": "packData",
          "type": "uint8[]"
        },
        {
          "internalType": "bytes",
          "name": "signature",
          "type": "bytes"
        }
      ],
      "name": "verifyPackSigner",
      "outputs": [
        {
          "internalType": "address",
          "name": "signer",
          "type": "address"
        }
      ],
      "stateMutability": "view",
      "type": "function"
    }
  ],
  "bytecode": "0x60806040526710a741a462780000600c5567d02ab486cedc0000600f55670de0b6b3a76400006010553480156200003557600080fd5b5060405162005bbb38038062005bbb83398101604081905262000058916200034f565b6040518060400160405280600a81526020016947616d6d61436172647360b01b815250604051806040016040528060068152602001654e4f465f474360d01b8152508160009081620000ab9190620004d1565b506001620000ba8282620004d1565b505050620000d7620000d1620002a060201b60201c565b620002a4565b600880546001600160a01b038086166001600160a01b031992831617909255600b805492871692909116919091179055600e620001158382620004d1565b5060408051808201825260018152602f60f81b60208083019190915282518084018452600381526203132360ec1b8183015283518085018552600681526523173539b7b760d11b8184015293516200017494600e94939091016200059d565b60405160208183030381529060405260119081620001939190620004d1565b5060408051808201825260018152602f60f81b60208083019190915282518084018452600381526231323160e81b8183015283518085018552600681526523173539b7b760d11b818401529351620001f294600e94939091016200059d565b60405160208183030381529060405260129081620002119190620004d1565b506001600160a01b0381166000908152601560205260408120805460ff19166001179055601380546201010062ffffff199091161790555b607a8110156200027a576000818152601760205260409020600190558062000271816200065a565b91505062000249565b5050336000908152601460205260409020805460ff191660011790555062000682915050565b3390565b600780546001600160a01b038381166001600160a01b0319831681179093556040519116919082907f8be0079c531659141344cd1fd0a4f28419497f9722a3daafe3b4186f6b6457e090600090a35050565b80516001600160a01b03811681146200030e57600080fd5b919050565b634e487b7160e01b600052604160045260246000fd5b60005b83811015620003465781810151838201526020016200032c565b50506000910152565b600080600080608085870312156200036657600080fd5b6200037185620002f6565b93506200038160208601620002f6565b60408601519093506001600160401b03808211156200039f57600080fd5b818701915087601f830112620003b457600080fd5b815181811115620003c957620003c962000313565b604051601f8201601f19908116603f01168101908382118183101715620003f457620003f462000313565b816040528281528a60208487010111156200040e57600080fd5b6200042183602083016020880162000329565b80965050505050506200043760608601620002f6565b905092959194509250565b600181811c908216806200045757607f821691505b6020821081036200047857634e487b7160e01b600052602260045260246000fd5b50919050565b601f821115620004cc57600081815260208120601f850160051c81016020861015620004a75750805b601f850160051c820191505b81811015620004c857828155600101620004b3565b5050505b505050565b81516001600160401b03811115620004ed57620004ed62000313565b6200050581620004fe845462000442565b846200047e565b602080601f8311600181146200053d5760008415620005245750858301515b600019600386901b1c1916600185901b178555620004c8565b600085815260208120601f198616915b828110156200056e578886015182559484019460019091019084016200054d565b50858210156200058d5787850151600019600388901b60f8161c191681555b5050505050600190811b01905550565b6000808654620005ad8162000442565b60018281168015620005c85760018114620005de576200060f565b60ff19841687528215158302870194506200060f565b8a60005260208060002060005b85811015620006065781548a820152908401908201620005eb565b50505082870194505b50505050855162000625818360208a0162000329565b85519101906200063a81836020890162000329565b84519101906200064f81836020880162000329565b019695505050505050565b6000600182016200067b57634e487b7160e01b600052601160045260246000fd5b5060010190565b61552980620006926000396000f3fe608060405234801561001057600080fd5b50600436106103db5760003560e01c80637e50fa8f1161020a578063a419811d11610125578063dec3f6d9116100b8578063e606df8711610087578063e606df871461091e578063e985e9c514610931578063eb12d61e1461096d578063f2fde38b14610980578063f98fd2831461099357600080fd5b8063dec3f6d9146108e7578063e1883c6e146108ef578063e51aebb314610902578063e5db587a1461091557600080fd5b8063c3461c07116100f4578063c3461c07146108a6578063c87b56dd146108ae578063d322b563146108c1578063dbfc05cf146108d457600080fd5b8063a419811d1461085a578063ad1684fa1461086d578063b88d4fde14610880578063bf400a6a1461089357600080fd5b8063915656641161019d5780639c7f707f1161016c5780639c7f707f146108185780639f4415d81461082b578063a1af8ad414610834578063a22cb4651461084757600080fd5b806391565664146107e957806395d89b41146107fb57806396884135146108035780639abc83201461081057600080fd5b80638bf670c8116101d95780638bf670c81461074b5780638da5cb5b1461075e5780638dc107681461076f5780639038f414146107e157600080fd5b80637e50fa8f146106d7578063809eb355146106f7578063886eb60f146107255780638ba526fc1461073857600080fd5b80632f9e026a116102fa5780635dde20d81161028d57806370a082311161025c57806370a0823114610686578063715018a6146106995780637155a3ac146106a1578063736c0d5b146106b457600080fd5b80635dde20d81461062d5780636352211e1461064d57806368cc5bc1146106605780637065cb481461067357600080fd5b806342966c68116102c957806342966c68146105eb578063483823e8146105fe578063511b9307146106075780635312ea8e1461061a57600080fd5b80632f9e026a1461059b57806330f5cc58146105ae578063335c8b63146105c157806342842e0e146105d857600080fd5b80631306952c1161037257806320965a5f1161034157806320965a5f1461054f57806323b872dd14610562578063267b841d146105755780632ca699e71461058857600080fd5b80631306952c146104c8578063155e2f92146104db5780631585cc4e146104ee578063173825d91461053c57600080fd5b8063081812fc116103ae578063081812fc14610462578063095ea7b31461048d5780630e316ab7146104a2578063128916dc146104b557600080fd5b806301ffc9a7146103e0578063022914a7146104085780630435dcaf1461042b57806306fdde031461044d575b600080fd5b6103f36103ee3660046145d1565b6109a6565b60405190151581526020015b60405180910390f35b6103f3610416366004614603565b60146020526000908152604090205460ff1681565b61043e610439366004614603565b6109f8565b6040516103ff9392919061465e565b610455610db5565b6040516103ff9190614719565b61047561047036600461472c565b610e47565b6040516001600160a01b0390911681526020016103ff565b6104a061049b366004614745565b610e6e565b005b6104a06104b0366004614603565b610f88565b6104a06104c3366004614603565b6110ce565b6104756104d6366004614894565b611178565b6104a06104e9366004614903565b611286565b61052a6104fc366004614903565b6001600160a01b0391909116600090815260196020908152604080832060ff94851684529091529020541690565b60405160ff90911681526020016103ff565b6104a061054a366004614603565b611302565b6104a061055d36600461497c565b611448565b6104a06105703660046149bd565b611748565b6104a0610583366004614894565b61177a565b6104a0610596366004614903565b61178d565b600854610475906001600160a01b031681565b6104a06105bc3660046149fe565b611997565b6105ca600c5481565b6040519081526020016103ff565b6104a06105e63660046149bd565b611c34565b6104a06105f936600461472c565b611c4f565b6105ca60105481565b6013546103f39062010000900460ff1681565b6104a061062836600461472c565b611c80565b6105ca61063b36600461472c565b60176020526000908152604090205481565b61047561065b36600461472c565b611d87565b6104a061066e366004614a64565b611de7565b6104a0610681366004614603565b611e32565b6105ca610694366004614603565b611f14565b6104a0611f9a565b6104a06106af366004614903565b611fae565b6103f36106c2366004614603565b60156020526000908152604090205460ff1681565b6105ca6106e5366004614603565b60186020526000908152604090205481565b61052a610705366004614903565b601960209081526000928352604080842090915290825290205460ff1681565b6103f3610733366004614903565b61200d565b6104a061074636600461472c565b612066565b6103f3610759366004614903565b6120aa565b6007546001600160a01b0316610475565b6107b161077d36600461472c565b60166020526000908152604090208054600182015460028301546003909301549192909160ff808316926101009004169085565b6040805195865260208601949094529115159284019290925260ff9091166060830152608082015260a0016103ff565b6104a06120d7565b6013546103f390610100900460ff1681565b6104556123ce565b6013546103f39060ff1681565b6104556123dd565b6104a0610826366004614af8565b61246b565b6105ca600f5481565b6104a0610842366004614b5b565b6124e5565b6104a0610855366004614baf565b61283d565b6104a0610868366004614603565b612848565b6104a061087b366004614be8565b6128e7565b6104a061088e366004614c40565b612ba2565b6104a06108a1366004614cbf565b612bd4565b610455612dea565b6104556108bc36600461472c565b612df7565b600954610475906001600160a01b031681565b6104a06108e2366004614a64565b612e02565b610455612e44565b6104a06108fd36600461472c565b612e51565b6104a0610910366004614cda565b612e80565b6105ca600d5481565b600b54610475906001600160a01b031681565b6103f361093f366004614d60565b6001600160a01b03918216600090815260056020908152604080832093909416825291909152205460ff1690565b6104a061097b366004614603565b612e8d565b6104a061098e366004614603565b612f6f565b6104a06109a1366004614a64565b612fe5565b60006001600160e01b031982166380ac58cd60e01b14806109d757506001600160e01b03198216635b5e139f60e01b145b806109f257506301ffc9a760e01b6001600160e01b03198316145b92915050565b604080516079808252610f408201909252606091829182916000919060208201610f20803683375050604080516079808252610f408201909252929350600092915060208201610f20803683375050604080516079808252610f408201909252929350600092915060208201610f20803683370190505090506000805b60778160ff1611610bde576001600160a01b038916600090815260196020908152604080832060ff80861685529252909120541615610bcc5780858360ff1681518110610ac457610ac4614d8e565b60ff9283166020918202929092018101919091526001600160a01b038b166000908152601982526040808220858516835290925220548551908216918691908516908110610b1457610b14614d8e565b60ff90921660209283029190910190910152600954604051632edb5fcf60e01b81526001600160a01b0390911690632edb5fcf90610b58908c908590600401614da4565b602060405180830381865afa158015610b75573d6000803e3d6000fd5b505050506040513d601f19601f82011682018060405250810190610b999190614dc0565b838360ff1681518110610bae57610bae614d8e565b9115156020928302919091019091015281610bc881614df3565b9250505b80610bd681614df3565b915050610a75565b5060008160ff166001600160401b03811115610bfc57610bfc614771565b604051908082528060200260200182016040528015610c25578160200160208202803683370190505b50905060008260ff166001600160401b03811115610c4557610c45614771565b604051908082528060200260200182016040528015610c6e578160200160208202803683370190505b50905060008360ff166001600160401b03811115610c8e57610c8e614771565b604051908082528060200260200182016040528015610cb7578160200160208202803683370190505b50905060005b8460ff168160ff161015610da357878160ff1681518110610ce057610ce0614d8e565b6020026020010151848260ff1681518110610cfd57610cfd614d8e565b60ff9283166020918202929092010152875188918316908110610d2257610d22614d8e565b6020026020010151838260ff1681518110610d3f57610d3f614d8e565b60ff9283166020918202929092010152865187918316908110610d6457610d64614d8e565b6020026020010151828260ff1681518110610d8157610d81614d8e565b9115156020928302919091019091015280610d9b81614df3565b915050610cbd565b50919a90995090975095505050505050565b606060008054610dc490614e12565b80601f0160208091040260200160405190810160405280929190818152602001828054610df090614e12565b8015610e3d5780601f10610e1257610100808354040283529160200191610e3d565b820191906000526020600020905b815481529060010190602001808311610e2057829003601f168201915b5050505050905090565b6000610e528261302e565b506000908152600460205260409020546001600160a01b031690565b6000610e7982611d87565b9050806001600160a01b0316836001600160a01b031603610eeb5760405162461bcd60e51b815260206004820152602160248201527f4552433732313a20617070726f76616c20746f2063757272656e74206f776e656044820152603960f91b60648201526084015b60405180910390fd5b336001600160a01b0382161480610f075750610f07813361093f565b610f795760405162461bcd60e51b815260206004820152603d60248201527f4552433732313a20617070726f76652063616c6c6572206973206e6f7420746f60448201527f6b656e206f776e6572206f7220617070726f76656420666f7220616c6c0000006064820152608401610ee2565b610f83838361308d565b505050565b3360009081526014602052604090205460ff16610fb75760405162461bcd60e51b8152600401610ee290614e4c565b6001600160a01b038116610fdd5760405162461bcd60e51b8152600401610ee290614e8f565b336001600160a01b038216036110455760405162461bcd60e51b815260206004820152602760248201527f596f752063616e6e6f742072656d6f766520796f757273656c6620617320612060448201526639b4b3b732b91760c91b6064820152608401610ee2565b6001600160a01b03811660009081526015602052604090205460ff166110ad5760405162461bcd60e51b815260206004820152601960248201527f41646472657373206973206e6f7420616e207369676e65722e000000000000006044820152606401610ee2565b6001600160a01b03166000908152601560205260409020805460ff19169055565b3360009081526014602052604090205460ff166110fd5760405162461bcd60e51b8152600401610ee290614e4c565b6001600160a01b0381166111235760405162461bcd60e51b8152600401610ee290614e8f565b600980546001600160a01b0319166001600160a01b0383169081179091556040519081527f538b3425a321783393ad250db10356b8b3523ef29a40de015c5218213de0ead0906020015b60405180910390a150565b6000806111f333878760405160200161119393929190614eb9565b60408051601f1981840301815282825280516020918201207f19457468657265756d205369676e6564204d6573736167653a0a33320000000084830152603c8085019190915282518085039091018152605c909301909152815191012090565b9050600061123985858080601f01602080910402602001604051908101604052809392919081815260200183838082843760009201919091525086939250506130fb9050565b905061127a6040518060400160405280601a81526020017f6f70656e207061636b207369676e6572207265636f76657265640000000000008152508261311f565b9150505b949350505050565b6009546001600160a01b031633146112b05760405162461bcd60e51b8152600401610ee290614f47565b6001600160a01b038216600090815260196020908152604080832060ff8086168552925282208054909116916112e583614df3565b91906101000a81548160ff021916908360ff160217905550505050565b3360009081526014602052604090205460ff166113315760405162461bcd60e51b8152600401610ee290614e4c565b6001600160a01b0381166113575760405162461bcd60e51b8152600401610ee290614e8f565b336001600160a01b038216036113bf5760405162461bcd60e51b815260206004820152602760248201527f596f752063616e6e6f742072656d6f766520796f757273656c6620617320616e6044820152661037bbb732b91760c91b6064820152608401610ee2565b6001600160a01b03811660009081526014602052604090205460ff166114275760405162461bcd60e51b815260206004820152601860248201527f41646472657373206973206e6f7420616e206f776e65722e00000000000000006044820152606401610ee2565b6001600160a01b03166000908152601460205260409020805460ff19169055565b3360009081526019602090815260408083206079845290915290205460ff166114b35760405162461bcd60e51b815260206004820152601860248201527f4e6f207469656e657320616c62756d206465207175656d6100000000000000006044820152606401610ee2565b336000908152601960209081526040808320607984529091528120805460ff16916114dd83614f99565b825460ff9182166101009390930a9283029190920219909116179055503360009081526018602052604081208054839290611519908490614fb6565b90915550600090505b60ff81168211156115ba5733600090815260196020526040812090848460ff851681811061155257611552614d8e565b90506020020160208101906115679190614cbf565b60ff9081168252602082019290925260400160009081208054909216919061158e83614f99565b91906101000a81548160ff021916908360ff1602179055505080806115b290614df3565b915050611522565b50336000908152601860205260409020546115d790603c90614fdf565b6000036117445761167633601280546115ef90614e12565b80601f016020809104026020016040519081016040528092919081815260200182805461161b90614e12565b80156116685780601f1061163d57610100808354040283529160200191611668565b820191906000526020600020905b81548152906001019060200180831161164b57829003601f168201915b505050505060796002613164565b600f54600d600082825461168a9190614ff3565b9091555050600b5460105460405163a9059cbb60e01b815233600482015260248101919091526001600160a01b039091169063a9059cbb906044016020604051808303816000875af11580156116e4573d6000803e3d6000fd5b505050506040513d601f19601f820116820180604052508101906117089190614dc0565b507f6d0344e2059f835240cb954cce07d4b26f0d0844eecc234f7ee0e292ba80a1aa33600260405161173b929190614da4565b60405180910390a15b5050565b611753335b826131c0565b61176f5760405162461bcd60e51b8152600401610ee290615006565b610f8383838361323e565b61178733858585856133af565b50505050565b33600090815260196020908152604080832060ff8086168552925290912054166117c95760405162461bcd60e51b8152600401610ee290615053565b336001600160a01b038316036118215760405162461bcd60e51b815260206004820152601960248201527f4f776e207472616e73666572206e6f7420616c6c6f7765642e000000000000006044820152606401610ee2565b6001600160a01b0382166118475760405162461bcd60e51b8152600401610ee290614e8f565b60135462010000900460ff161561191c57600954604051632edb5fcf60e01b81526000916001600160a01b031690632edb5fcf9061188b9033908690600401614da4565b602060405180830381865afa1580156118a8573d6000803e3d6000fd5b505050506040513d601f19601f820116820180604052508101906118cc9190614dc0565b33600090815260196020908152604080832060ff808816855292529091205491925060019116118115806118fd5750805b6119195760405162461bcd60e51b8152600401610ee29061508a565b50505b33600090815260196020908152604080832060ff80861685529252822080549091169161194883614f99565b82546101009290920a60ff8181021990931691831602179091556001600160a01b038416600090815260196020908152604080832086851684529091528120805490921692506112e583614df3565b3360009081526014602052604090205460ff166119c65760405162461bcd60e51b8152600401610ee290614e4c565b6008546040516380f2540b60e01b8152600481018490526001600160a01b038581166024830152909116906380f2540b90604401600060405180830381600087803b158015611a1457600080fd5b505af1158015611a28573d6000803e3d6000fd5b505050506006600c54611a3b91906150da565b600c54611a489190614ff3565b600d6000828254611a599190614fb6565b9091555050805160005b818160ff161015611c2d57828160ff1681518110611a8357611a83614d8e565b602002602001015160ff16607814611ad15761138960176000858460ff1681518110611ab157611ab1614d8e565b602002602001015160ff1681526020019081526020016000205410611b02565b607860005260176020527f1e0e657bdfc7d3d523657bb82aa6f2c628a4caf6e2f7839556e82479d4362f0654610bb9115b611b4e5760405162461bcd60e51b815260206004820152601e60248201527f696e76616c69642063617264496e76656e746f727920706f736974696f6e00006044820152606401610ee2565b60176000848360ff1681518110611b6757611b67614d8e565b602002602001015160ff1681526020019081526020016000206000815480929190611b91906150ee565b90915550506001600160a01b03851660009081526019602052604081208451909190859060ff8516908110611bc857611bc8614d8e565b602002602001015160ff1660ff168152602001908152602001600020600081819054906101000a900460ff1680929190611c0190614df3565b91906101000a81548160ff021916908360ff160217905550508080611c2590614df3565b915050611a63565b5050505050565b610f8383838360405180602001604052806000815250612ba2565b611c583361174d565b611c745760405162461bcd60e51b8152600401610ee290615006565b611c7d81613872565b50565b3360009081526014602052604090205460ff16611caf5760405162461bcd60e51b8152600401610ee290614e4c565b80611cb930611f14565b1015611cc457600080fd5b80600d6000828254611cd69190614ff3565b9091555050600b5460405163a9059cbb60e01b8152336004820152602481018390526001600160a01b039091169063a9059cbb906044016020604051808303816000875af1158015611d2c573d6000803e3d6000fd5b505050506040513d601f19601f82011682018060405250810190611d509190614dc0565b5060408051338152602081018390527f23d6711a1d031134a36921253c75aa59e967d38e369ac625992824315e204f20910161116d565b6000818152600260205260408120546001600160a01b0316806109f25760405162461bcd60e51b8152602060048201526018602482015277115490cdcc8c4e881a5b9d985b1a59081d1bdad95b88125160421b6044820152606401610ee2565b3360009081526014602052604090205460ff16611e165760405162461bcd60e51b8152600401610ee290614e4c565b60138054911515620100000262ff000019909216919091179055565b3360009081526014602052604090205460ff16611e615760405162461bcd60e51b8152600401610ee290614e4c565b6001600160a01b038116611e875760405162461bcd60e51b8152600401610ee290614e8f565b6001600160a01b03811660009081526014602052604090205460ff1615611ef05760405162461bcd60e51b815260206004820152601c60248201527f4164647265737320697320616c726561647920616e206f776e65722e000000006044820152606401610ee2565b6001600160a01b03166000908152601460205260409020805460ff19166001179055565b60006001600160a01b038216611f7e5760405162461bcd60e51b815260206004820152602960248201527f4552433732313a2061646472657373207a65726f206973206e6f7420612076616044820152683634b21037bbb732b960b91b6064820152608401610ee2565b506001600160a01b031660009081526003602052604090205490565b611fa261387b565b611fac60006138d5565b565b6009546001600160a01b03163314611fd85760405162461bcd60e51b8152600401610ee290614f47565b6001600160a01b038216600090815260196020908152604080832060ff8086168552925282208054909116916112e583614f99565b60006001600160a01b0383166120355760405162461bcd60e51b8152600401610ee290614e8f565b506001600160a01b0391909116600090815260196020908152604080832060ff948516845290915290205416151590565b6008546001600160a01b031633146120905760405162461bcd60e51b8152600401610ee290615107565b80600d60008282546120a29190614fb6565b909155505050565b6009546000906001600160a01b031633146120355760405162461bcd60e51b8152600401610ee290614f47565b3360009081526019602090815260408083206078845290915290205460ff166121425760405162461bcd60e51b815260206004820152601c60248201527f596f7520646f6573206e6f74206861766520616e7920616c62756d2e000000006044820152606401610ee2565b600f54600d54101561218c5760405162461bcd60e51b815260206004820152601360248201527224b739bab33334b1b4b2b73a10333ab732399760691b6044820152606401610ee2565b6000805b60798160ff1610156122225733600090815260196020908152604080832060ff808616855292528220541690036121ca5760019150612222565b33600090815260196020908152604080832060ff8086168552925282208054909116916121f683614f99565b91906101000a81548160ff021916908360ff16021790555050808061221a90614df3565b915050612190565b5080156122715760405162461bcd60e51b815260206004820152601860248201527f4d75737420636f6d706c6574652074686520616c62756d2e00000000000000006044820152606401610ee2565b612309336011805461228290614e12565b80601f01602080910402602001604051908101604052809291908181526020018280546122ae90614e12565b80156122fb5780601f106122d0576101008083540402835291602001916122fb565b820191906000526020600020905b8154815290600101906020018083116122de57829003601f168201915b505050505060786002613164565b600f54600d600082825461231d9190614ff3565b9091555050600b54600f5460405163a9059cbb60e01b815233600482015260248101919091526001600160a01b039091169063a9059cbb906044016020604051808303816000875af1158015612377573d6000803e3d6000fd5b505050506040513d601f19601f8201168201806040525081019061239b9190614dc0565b507f6d0344e2059f835240cb954cce07d4b26f0d0844eecc234f7ee0e292ba80a1aa33600160405161116d929190614da4565b606060018054610dc490614e12565b600e80546123ea90614e12565b80601f016020809104026020016040519081016040528092919081815260200182805461241690614e12565b80156124635780601f1061243857610100808354040283529160200191612463565b820191906000526020600020905b81548152906001019060200180831161244657829003601f168201915b505050505081565b3360009081526014602052604090205460ff1661249a5760405162461bcd60e51b8152600401610ee290614e4c565b60116124a683826151a6565b5060126124b382826151a6565b507fabfd337ac5625b7dc2ddd3d3bd465fb1dec15322eeeed81032268b337880bec6828260405161173b929190615265565b336001600160a01b038416036125485760405162461bcd60e51b815260206004820152602260248201527f596f752063616e6e6f742073656e6420636172647320746f20796f757273656c604482015261331760f11b6064820152608401610ee2565b6001600160a01b03831661256e5760405162461bcd60e51b8152600401610ee290614e8f565b60005b60ff81168211156117875733600090815260196020526040812081858560ff86168181106125a1576125a1614d8e565b90506020020160208101906125b69190614cbf565b60ff908116825260208201929092526040016000205416116125ea5760405162461bcd60e51b8152600401610ee290615053565b33600090815260196020526040812090848460ff851681811061260f5761260f614d8e565b90506020020160208101906126249190614cbf565b60ff9081168252602082019290925260400160009081208054909216919061264b83614f99565b91906101000a81548160ff021916908360ff1602179055505060196000856001600160a01b03166001600160a01b03168152602001908152602001600020600084848460ff168181106126a0576126a0614d8e565b90506020020160208101906126b59190614cbf565b60ff908116825260208201929092526040016000908120805490921691906126dc83614df3565b91906101000a81548160ff021916908360ff16021790555050601360029054906101000a900460ff161561282b576009546000906001600160a01b0316632edb5fcf33868660ff871681811061273457612734614d8e565b90506020020160208101906127499190614cbf565b6040518363ffffffff1660e01b8152600401612766929190614da4565b602060405180830381865afa158015612783573d6000803e3d6000fd5b505050506040513d601f19601f820116820180604052508101906127a79190614dc0565b3360009081526019602052604081209192509060019082878760ff88168181106127d3576127d3614d8e565b90506020020160208101906127e89190614cbf565b60ff90811682526020820192909252604001600020541611905081158061280c5750805b6128285760405162461bcd60e51b8152600401610ee29061508a565b50505b8061283581614df3565b915050612571565b611744338383613927565b3360009081526014602052604090205460ff166128775760405162461bcd60e51b8152600401610ee290614e4c565b60005b60798160ff161015611744576001600160a01b038216600090815260196020908152604080832060ff8086168552925282208054909116916128bb83614df3565b91906101000a81548160ff021916908360ff1602179055505080806128df90614df3565b91505061287a565b6009546001600160a01b031633146129115760405162461bcd60e51b8152600401610ee290614f47565b6001600160a01b0384166129375760405162461bcd60e51b8152600401610ee290614e8f565b6001600160a01b03821661295d5760405162461bcd60e51b8152600401610ee290614e8f565b6001600160a01b038416600090815260196020908152604080832060ff8088168552925290912054166129e15760405162461bcd60e51b815260206004820152602660248201527f55736572202866726f6d2920646f6573206e6f74206861766520636172642028604482015265333937b6949760d11b6064820152608401610ee2565b6001600160a01b038216600090815260196020908152604080832060ff808616855292529091205416612a615760405162461bcd60e51b815260206004820152602260248201527f557365722028746f2920646f6573206e6f74206861766520636172642028746f604482015261149760f11b6064820152608401610ee2565b6001600160a01b038416600090815260196020908152604080832060ff808816855292528220805490911691612a9683614f99565b82546101009290920a60ff8181021990931691831602179091556001600160a01b03841660009081526019602090815260408083208885168452909152812080549092169250612ae583614df3565b82546101009290920a60ff8181021990931691831602179091556001600160a01b03841660009081526019602090815260408083208685168452909152812080549092169250612b3483614f99565b82546101009290920a60ff8181021990931691831602179091556001600160a01b03861660009081526019602090815260408083208685168452909152812080549092169250612b8383614df3565b91906101000a81548160ff021916908360ff1602179055505050505050565b612bac33836131c0565b612bc85760405162461bcd60e51b8152600401610ee290615006565b611787848484846139f5565b33600090815260196020908152604080832060ff808616855292529091205416612c105760405162461bcd60e51b8152600401610ee290615053565b601354610100900460ff1615612d2957600954604051632edb5fcf60e01b81526000916001600160a01b031690632edb5fcf90612c539033908690600401614da4565b602060405180830381865afa158015612c70573d6000803e3d6000fd5b505050506040513d601f19601f82011682018060405250810190612c949190614dc0565b33600090815260196020908152604080832060ff80881685529252909120549192506001911611811580612cc55750805b612d265760405162461bcd60e51b815260206004820152602c60248201527f5468697320636172642068617320616e206f666665722c2069742063616e6e6f60448201526b3a1031329036b4b73a32b21760a11b6064820152608401610ee2565b50505b33600090815260196020908152604080832060ff808616855292528220805490911691612d5583614f99565b91906101000a81548160ff021916908360ff160217905550506000600e604051806040016040528060018152602001602f60f81b815250612d988460ff16613a28565b60405180604001604052806005815260200164173539b7b760d91b815250604051602001612dc99493929190615293565b604051602081830303815290604052905061174433828460ff166001613164565b601180546123ea90614e12565b60606109f282613b28565b3360009081526014602052604090205460ff16612e315760405162461bcd60e51b8152600401610ee290614e4c565b6013805460ff1916911515919091179055565b601280546123ea90614e12565b6008546001600160a01b03163314612e7b5760405162461bcd60e51b8152600401610ee290615107565b600c55565b611c2d85858585856133af565b3360009081526014602052604090205460ff16612ebc5760405162461bcd60e51b8152600401610ee290614e4c565b6001600160a01b038116612ee25760405162461bcd60e51b8152600401610ee290614e8f565b6001600160a01b03811660009081526015602052604090205460ff1615612f4b5760405162461bcd60e51b815260206004820152601c60248201527f4164647265737320697320616c726561647920616e206f776e65722e000000006044820152606401610ee2565b6001600160a01b03166000908152601560205260409020805460ff19166001179055565b612f7761387b565b6001600160a01b038116612fdc5760405162461bcd60e51b815260206004820152602660248201527f4f776e61626c653a206e6577206f776e657220697320746865207a65726f206160448201526564647265737360d01b6064820152608401610ee2565b611c7d816138d5565b3360009081526014602052604090205460ff166130145760405162461bcd60e51b8152600401610ee290614e4c565b601380549115156101000261ff0019909216919091179055565b6000818152600260205260409020546001600160a01b0316611c7d5760405162461bcd60e51b8152602060048201526018602482015277115490cdcc8c4e881a5b9d985b1a59081d1bdad95b88125160421b6044820152606401610ee2565b600081815260046020526040902080546001600160a01b0319166001600160a01b03841690811790915581906130c282611d87565b6001600160a01b03167f8c5be1e5ebec7d5bd14f71427d1e84f3dd0314c0f7b2291e5b200ac8c7c3b92560405160405180910390a45050565b600080600061310a8585613c30565b9150915061311781613c75565b509392505050565b6117448282604051602401613135929190615342565b60408051601f198184030181529190526020810180516001600160e01b031663319af33360e01b179052613dbf565b600061316f600a5490565b905061317f600a80546001019055565b600081815260166020526040902081815560018101849055600201805461ff00191661010060ff8516021790556131b68582613dc8565b611c2d8185613de2565b6000806131cc83611d87565b9050806001600160a01b0316846001600160a01b0316148061321357506001600160a01b0380821660009081526005602090815260408083209388168352929052205460ff165b8061127e5750836001600160a01b031661322c84610e47565b6001600160a01b031614949350505050565b826001600160a01b031661325182611d87565b6001600160a01b0316146132775760405162461bcd60e51b8152600401610ee29061536c565b6001600160a01b0382166132d95760405162461bcd60e51b8152602060048201526024808201527f4552433732313a207472616e7366657220746f20746865207a65726f206164646044820152637265737360e01b6064820152608401610ee2565b6132e68383836001613e75565b826001600160a01b03166132f982611d87565b6001600160a01b03161461331f5760405162461bcd60e51b8152600401610ee29061536c565b600081815260046020908152604080832080546001600160a01b03199081169091556001600160a01b0387811680865260038552838620805460001901905590871680865283862080546001019055868652600290945282852080549092168417909155905184937fddf252ad1be2c89b69c2b068fc378daa952ba7f163c4a11628f55a4df523b3ef91a4505050565b60085460405163d3e6a7ad60e01b8152600481018690526001600160a01b0387811692169063d3e6a7ad90602401602060405180830381865afa1580156133fa573d6000803e3d6000fd5b505050506040513d601f19601f8201168201806040525081019061341e91906153b1565b6001600160a01b0316146134745760405162461bcd60e51b815260206004820152601760248201527f54686973207061636b206973206e6f7420796f7572732e0000000000000000006044820152606401610ee2565b600f8351106134bb5760405162461bcd60e51b815260206004820152601360248201527210d85c99081b1a5b5a5d08195e18d959591959606a1b6044820152606401610ee2565b60135460ff16156135c75760006134e086868660405160200161119393929190614eb9565b9050600061352684848080601f01602080910402602001604051908101604052809392919081815260200183838082843760009201919091525086939250506130fb9050565b90506135676040518060400160405280601a81526020017f6f70656e207061636b207369676e6572207265636f76657265640000000000008152508261311f565b6001600160a01b03811660009081526015602052604090205460ff166135c45760405162461bcd60e51b815260206004820152601260248201527124b73b30b634b21039b4b3b730ba3ab9329760711b6044820152606401610ee2565b50505b6008546040516380f2540b60e01b8152600481018690526001600160a01b038781166024830152909116906380f2540b90604401600060405180830381600087803b15801561361557600080fd5b505af1158015613629573d6000803e3d6000fd5b505050506006600c5461363c91906150da565b600c546136499190614ff3565b600d600082825461365a9190614fb6565b9091555050825160005b818160ff16101561382e57848160ff168151811061368457613684614d8e565b602002602001015160ff166078146136d25761138960176000878460ff16815181106136b2576136b2614d8e565b602002602001015160ff1681526020019081526020016000205410613703565b607860005260176020527f1e0e657bdfc7d3d523657bb82aa6f2c628a4caf6e2f7839556e82479d4362f0654610bb9115b61374f5760405162461bcd60e51b815260206004820152601e60248201527f696e76616c69642063617264496e76656e746f727920706f736974696f6e00006044820152606401610ee2565b60176000868360ff168151811061376857613768614d8e565b602002602001015160ff1681526020019081526020016000206000815480929190613792906150ee565b90915550506001600160a01b03871660009081526019602052604081208651909190879060ff85169081106137c9576137c9614d8e565b602002602001015160ff1660ff168152602001908152602001600020600081819054906101000a900460ff168092919061380290614df3565b91906101000a81548160ff021916908360ff16021790555050808061382690614df3565b915050613664565b507fbabe8f5e83e93ab103ddf917b4292a19335a5128b3530bedd896a681cdd945e3868587604051613862939291906153ce565b60405180910390a1505050505050565b611c7d81613efd565b6007546001600160a01b03163314611fac5760405162461bcd60e51b815260206004820181905260248201527f4f776e61626c653a2063616c6c6572206973206e6f7420746865206f776e65726044820152606401610ee2565b600780546001600160a01b038381166001600160a01b0319831681179093556040519116919082907f8be0079c531659141344cd1fd0a4f28419497f9722a3daafe3b4186f6b6457e090600090a35050565b816001600160a01b0316836001600160a01b0316036139885760405162461bcd60e51b815260206004820152601960248201527f4552433732313a20617070726f766520746f2063616c6c6572000000000000006044820152606401610ee2565b6001600160a01b03838116600081815260056020908152604080832094871680845294825291829020805460ff191686151590811790915591519182527f17307eab39ab6107e8899845ad3d59bd9653f200f220920489ca2b5937696c31910160405180910390a3505050565b613a0084848461323e565b613a0c84848484613f3d565b6117875760405162461bcd60e51b8152600401610ee290615402565b606081600003613a4f5750506040805180820190915260018152600360fc1b602082015290565b8160005b8115613a795780613a63816150ee565b9150613a729050600a836150da565b9150613a53565b6000816001600160401b03811115613a9357613a93614771565b6040519080825280601f01601f191660200182016040528015613abd576020820181803683370190505b5090505b841561127e57613ad2600183614ff3565b9150613adf600a86614fdf565b613aea906030614fb6565b60f81b818381518110613aff57613aff614d8e565b60200101906001600160f81b031916908160001a905350613b21600a866150da565b9450613ac1565b6060613b338261302e565b60008281526006602052604081208054613b4c90614e12565b80601f0160208091040260200160405190810160405280929190818152602001828054613b7890614e12565b8015613bc55780601f10613b9a57610100808354040283529160200191613bc5565b820191906000526020600020905b815481529060010190602001808311613ba857829003601f168201915b505050505090506000613be360408051602081019091526000815290565b90508051600003613bf5575092915050565b815115613c27578082604051602001613c0f929190615454565b60405160208183030381529060405292505050919050565b61127e8461403b565b6000808251604103613c665760208301516040840151606085015160001a613c5a878285856140af565b94509450505050613c6e565b506000905060025b9250929050565b6000816004811115613c8957613c89615483565b03613c915750565b6001816004811115613ca557613ca5615483565b03613cf25760405162461bcd60e51b815260206004820152601860248201527f45434453413a20696e76616c6964207369676e617475726500000000000000006044820152606401610ee2565b6002816004811115613d0657613d06615483565b03613d535760405162461bcd60e51b815260206004820152601f60248201527f45434453413a20696e76616c6964207369676e6174757265206c656e677468006044820152606401610ee2565b6003816004811115613d6757613d67615483565b03611c7d5760405162461bcd60e51b815260206004820152602260248201527f45434453413a20696e76616c6964207369676e6174757265202773272076616c604482015261756560f01b6064820152608401610ee2565b611c7d81614173565b611744828260405180602001604052806000815250614194565b6000828152600260205260409020546001600160a01b0316613e5d5760405162461bcd60e51b815260206004820152602e60248201527f45524337323155524953746f726167653a2055524920736574206f66206e6f6e60448201526d32bc34b9ba32b73a103a37b5b2b760911b6064820152608401610ee2565b6000828152600660205260409020610f8382826151a6565b6001811115611787576001600160a01b03841615613ebb576001600160a01b03841660009081526003602052604081208054839290613eb5908490614ff3565b90915550505b6001600160a01b03831615611787576001600160a01b03831660009081526003602052604081208054839290613ef2908490614fb6565b909155505050505050565b613f06816141c7565b60008181526006602052604090208054613f1f90614e12565b159050611c7d576000818152600660205260408120611c7d9161456d565b60006001600160a01b0384163b1561403357604051630a85bd0160e11b81526001600160a01b0385169063150b7a0290613f81903390899088908890600401615499565b6020604051808303816000875af1925050508015613fbc575060408051601f3d908101601f19168201909252613fb9918101906154d6565b60015b614019573d808015613fea576040519150601f19603f3d011682016040523d82523d6000602084013e613fef565b606091505b5080516000036140115760405162461bcd60e51b8152600401610ee290615402565b805181602001fd5b6001600160e01b031916630a85bd0160e11b14905061127e565b50600161127e565b60606140468261302e565b600061405d60408051602081019091526000815290565b9050600081511161407d57604051806020016040528060008152506140a8565b806140878461426a565b604051602001614098929190615454565b6040516020818303038152906040525b9392505050565b6000807f7fffffffffffffffffffffffffffffff5d576e7357a4501ddfe92f46681b20a08311156140e6575060009050600361416a565b6040805160008082526020820180845289905260ff881692820192909252606081018690526080810185905260019060a0016020604051602081039080840390855afa15801561413a573d6000803e3d6000fd5b5050604051601f1901519150506001600160a01b0381166141635760006001925092505061416a565b9150600090505b94509492505050565b60006a636f6e736f6c652e6c6f679050600080835160208501845afa505050565b61419e83836142fc565b6141ab6000848484613f3d565b610f835760405162461bcd60e51b8152600401610ee290615402565b60006141d282611d87565b90506141e2816000846001613e75565b6141eb82611d87565b600083815260046020908152604080832080546001600160a01b03199081169091556001600160a01b0385168085526003845282852080546000190190558785526002909352818420805490911690555192935084927fddf252ad1be2c89b69c2b068fc378daa952ba7f163c4a11628f55a4df523b3ef908390a45050565b6060600061427783614495565b60010190506000816001600160401b0381111561429657614296614771565b6040519080825280601f01601f1916602001820160405280156142c0576020820181803683370190505b5090508181016020015b600019016f181899199a1a9b1b9c1cb0b131b232b360811b600a86061a8153600a85049450846142ca57509392505050565b6001600160a01b0382166143525760405162461bcd60e51b815260206004820181905260248201527f4552433732313a206d696e7420746f20746865207a65726f20616464726573736044820152606401610ee2565b6000818152600260205260409020546001600160a01b0316156143b75760405162461bcd60e51b815260206004820152601c60248201527f4552433732313a20746f6b656e20616c7265616479206d696e746564000000006044820152606401610ee2565b6143c5600083836001613e75565b6000818152600260205260409020546001600160a01b03161561442a5760405162461bcd60e51b815260206004820152601c60248201527f4552433732313a20746f6b656e20616c7265616479206d696e746564000000006044820152606401610ee2565b6001600160a01b038216600081815260036020908152604080832080546001019055848352600290915280822080546001600160a01b0319168417905551839291907fddf252ad1be2c89b69c2b068fc378daa952ba7f163c4a11628f55a4df523b3ef908290a45050565b60008072184f03e93ff9f4daa797ed6e38ed64bf6a1f0160401b83106144d45772184f03e93ff9f4daa797ed6e38ed64bf6a1f0160401b830492506040015b6d04ee2d6d415b85acef81000000008310614500576d04ee2d6d415b85acef8100000000830492506020015b662386f26fc10000831061451e57662386f26fc10000830492506010015b6305f5e1008310614536576305f5e100830492506008015b612710831061454a57612710830492506004015b6064831061455c576064830492506002015b600a83106109f25760010192915050565b50805461457990614e12565b6000825580601f10614589575050565b601f016020900490600052602060002090810190611c7d91905b808211156145b757600081556001016145a3565b5090565b6001600160e01b031981168114611c7d57600080fd5b6000602082840312156145e357600080fd5b81356140a8816145bb565b6001600160a01b0381168114611c7d57600080fd5b60006020828403121561461557600080fd5b81356140a8816145ee565b600081518084526020808501945080840160005b8381101561465357815160ff1687529582019590820190600101614634565b509495945050505050565b6060815260006146716060830186614620565b6020838203818501526146848287614620565b8481036040860152855180825282870193509082019060005b818110156146bb57845115158352938301939183019160010161469d565b509098975050505050505050565b60005b838110156146e45781810151838201526020016146cc565b50506000910152565b600081518084526147058160208601602086016146c9565b601f01601f19169290920160200192915050565b6020815260006140a860208301846146ed565b60006020828403121561473e57600080fd5b5035919050565b6000806040838503121561475857600080fd5b8235614763816145ee565b946020939093013593505050565b634e487b7160e01b600052604160045260246000fd5b604051601f8201601f191681016001600160401b03811182821017156147af576147af614771565b604052919050565b803560ff811681146147c857600080fd5b919050565b600082601f8301126147de57600080fd5b813560206001600160401b038211156147f9576147f9614771565b8160051b614808828201614787565b928352848101820192828101908785111561482257600080fd5b83870192505b8483101561484857614839836147b7565b82529183019190830190614828565b979650505050505050565b60008083601f84011261486557600080fd5b5081356001600160401b0381111561487c57600080fd5b602083019150836020828501011115613c6e57600080fd5b600080600080606085870312156148aa57600080fd5b8435935060208501356001600160401b03808211156148c857600080fd5b6148d4888389016147cd565b945060408701359150808211156148ea57600080fd5b506148f787828801614853565b95989497509550505050565b6000806040838503121561491657600080fd5b8235614921816145ee565b915061492f602084016147b7565b90509250929050565b60008083601f84011261494a57600080fd5b5081356001600160401b0381111561496157600080fd5b6020830191508360208260051b8501011115613c6e57600080fd5b6000806020838503121561498f57600080fd5b82356001600160401b038111156149a557600080fd5b6149b185828601614938565b90969095509350505050565b6000806000606084860312156149d257600080fd5b83356149dd816145ee565b925060208401356149ed816145ee565b929592945050506040919091013590565b600080600060608486031215614a1357600080fd5b8335614a1e816145ee565b92506020840135915060408401356001600160401b03811115614a4057600080fd5b614a4c868287016147cd565b9150509250925092565b8015158114611c7d57600080fd5b600060208284031215614a7657600080fd5b81356140a881614a56565b60006001600160401b03831115614a9a57614a9a614771565b614aad601f8401601f1916602001614787565b9050828152838383011115614ac157600080fd5b828260208301376000602084830101529392505050565b600082601f830112614ae957600080fd5b6140a883833560208501614a81565b60008060408385031215614b0b57600080fd5b82356001600160401b0380821115614b2257600080fd5b614b2e86838701614ad8565b93506020850135915080821115614b4457600080fd5b50614b5185828601614ad8565b9150509250929050565b600080600060408486031215614b7057600080fd5b8335614b7b816145ee565b925060208401356001600160401b03811115614b9657600080fd5b614ba286828701614938565b9497909650939450505050565b60008060408385031215614bc257600080fd5b8235614bcd816145ee565b91506020830135614bdd81614a56565b809150509250929050565b60008060008060808587031215614bfe57600080fd5b8435614c09816145ee565b9350614c17602086016147b7565b92506040850135614c27816145ee565b9150614c35606086016147b7565b905092959194509250565b60008060008060808587031215614c5657600080fd5b8435614c61816145ee565b93506020850135614c71816145ee565b92506040850135915060608501356001600160401b03811115614c9357600080fd5b8501601f81018713614ca457600080fd5b614cb387823560208401614a81565b91505092959194509250565b600060208284031215614cd157600080fd5b6140a8826147b7565b600080600080600060808688031215614cf257600080fd5b8535614cfd816145ee565b94506020860135935060408601356001600160401b0380821115614d2057600080fd5b614d2c89838a016147cd565b94506060880135915080821115614d4257600080fd5b50614d4f88828901614853565b969995985093965092949392505050565b60008060408385031215614d7357600080fd5b8235614d7e816145ee565b91506020830135614bdd816145ee565b634e487b7160e01b600052603260045260246000fd5b6001600160a01b0392909216825260ff16602082015260400190565b600060208284031215614dd257600080fd5b81516140a881614a56565b634e487b7160e01b600052601160045260246000fd5b600060ff821660ff8103614e0957614e09614ddd565b60010192915050565b600181811c90821680614e2657607f821691505b602082108103614e4657634e487b7160e01b600052602260045260246000fd5b50919050565b60208082526023908201527f4f6e6c79206f776e6572732063616e2063616c6c20746869732066756e63746960408201526237b71760e91b606082015260800190565b60208082526010908201526f24b73b30b634b21030b2323932b9b99760811b604082015260600190565b6bffffffffffffffffffffffff198460601b1681528260148201526000603482018351602080860160005b83811015614f0357815160ff1685529382019390820190600101614ee4565b50507f30786631644437313839356534396231353633363933393639646535303839388352693139376344463334383160b01b9083015250602a0195945050505050565b60208082526032908201527f4f6e6c792067616d6d61206f666665727320636f6e74726163742063616e206360408201527130b636103a3434b990333ab731ba34b7b71760711b606082015260800190565b600060ff821680614fac57614fac614ddd565b6000190192915050565b808201808211156109f2576109f2614ddd565b634e487b7160e01b600052601260045260246000fd5b600082614fee57614fee614fc9565b500690565b818103818111156109f2576109f2614ddd565b6020808252602d908201527f4552433732313a2063616c6c6572206973206e6f7420746f6b656e206f776e6560408201526c1c881bdc88185c1c1c9bdd9959609a1b606082015260800190565b6020808252601c908201527f596f7520646f6573206e6f742068617665207468697320636172642e00000000604082015260600190565b60208082526030908201527f5468697320636172642068617320616e206f666665722c2069742063616e6e6f60408201526f3a103132903a3930b739b332b932b21760811b606082015260800190565b6000826150e9576150e9614fc9565b500490565b60006001820161510057615100614ddd565b5060010190565b60208082526031908201527f4f6e6c792067616d6d61207061636b7320636f6e74726163742063616e2063616040820152703636103a3434b990333ab731ba34b7b71760791b606082015260800190565b601f821115610f8357600081815260208120601f850160051c8101602086101561517f5750805b601f850160051c820191505b8181101561519e5782815560010161518b565b505050505050565b81516001600160401b038111156151bf576151bf614771565b6151d3816151cd8454614e12565b84615158565b602080601f83116001811461520857600084156151f05750858301515b600019600386901b1c1916600185901b17855561519e565b600085815260208120601f198616915b8281101561523757888601518255948401946001909101908401615218565b50858210156152555787850151600019600388901b60f8161c191681555b5050505050600190811b01905550565b60408152600061527860408301856146ed565b828103602084015261528a81856146ed565b95945050505050565b60008086546152a181614e12565b600182811680156152b957600181146152ce576152fd565b60ff19841687528215158302870194506152fd565b8a60005260208060002060005b858110156152f45781548a8201529084019082016152db565b50505082870194505b505050508551615311818360208a016146c9565b85519101906153248183602089016146c9565b84519101906153378183602088016146c9565b019695505050505050565b60408152600061535560408301856146ed565b905060018060a01b03831660208301529392505050565b60208082526025908201527f4552433732313a207472616e736665722066726f6d20696e636f72726563742060408201526437bbb732b960d91b606082015260800190565b6000602082840312156153c357600080fd5b81516140a8816145ee565b6001600160a01b03841681526060602082018190526000906153f290830185614620565b9050826040830152949350505050565b60208082526032908201527f4552433732313a207472616e7366657220746f206e6f6e20455243373231526560408201527131b2b4bb32b91034b6b83632b6b2b73a32b960711b606082015260800190565b600083516154668184602088016146c9565b83519083019061547a8183602088016146c9565b01949350505050565b634e487b7160e01b600052602160045260246000fd5b6001600160a01b03858116825284166020820152604081018390526080606082018190526000906154cc908301846146ed565b9695505050505050565b6000602082840312156154e857600080fd5b81516140a8816145bb56fea2646970667358221220715358f0eeb7447d20b0b6bda7e8c5b64d95e8c45e47810aa21e08977cdc4ac964736f6c63430008120033",
  "linkReferences": {},
  "deployedLinkReferences": {}
}