{
  "_format": "hh-sol-artifact-1",
  "contractName": "NofGammaCardsV4",
  "sourceName": "contracts/gamma/GammaCards.v4.sol",
  "abi": [
    {
      "inputs": [
        {
          "internalType": "address",
          "name": "_daiTokenAddress",
          "type": "address"
        },
        {
          "internalType": "address",
          "name": "_gammaPacksContract",
          "type": "address"
        },
        {
          "internalType": "string",
          "name": "_baseUri",
          "type": "string"
        },
        {
          "internalType": "address",
          "name": "_signer",
          "type": "address"
        }
      ],
      "stateMutability": "nonpayable",
      "type": "constructor"
    },
    {
      "anonymous": false,
      "inputs": [
        {
          "indexed": false,
          "internalType": "address",
          "name": "player",
          "type": "address"
        },
        {
          "indexed": false,
          "internalType": "uint8",
          "name": "albumClass",
          "type": "uint8"
        }
      ],
      "name": "AlbumCompleted",
      "type": "event"
    },
    {
      "anonymous": false,
      "inputs": [
        {
          "indexed": true,
          "internalType": "address",
          "name": "owner",
          "type": "address"
        },
        {
          "indexed": true,
          "internalType": "address",
          "name": "approved",
          "type": "address"
        },
        {
          "indexed": true,
          "internalType": "uint256",
          "name": "tokenId",
          "type": "uint256"
        }
      ],
      "name": "Approval",
      "type": "event"
    },
    {
      "anonymous": false,
      "inputs": [
        {
          "indexed": true,
          "internalType": "address",
          "name": "owner",
          "type": "address"
        },
        {
          "indexed": true,
          "internalType": "address",
          "name": "operator",
          "type": "address"
        },
        {
          "indexed": false,
          "internalType": "bool",
          "name": "approved",
          "type": "bool"
        }
      ],
      "name": "ApprovalForAll",
      "type": "event"
    },
    {
      "anonymous": false,
      "inputs": [
        {
          "indexed": false,
          "internalType": "address",
          "name": "player",
          "type": "address"
        },
        {
          "indexed": false,
          "internalType": "uint256",
          "name": "cardTokenId",
          "type": "uint256"
        },
        {
          "indexed": false,
          "internalType": "uint256",
          "name": "albumTokenId",
          "type": "uint256"
        }
      ],
      "name": "CardPasted",
      "type": "event"
    },
    {
      "anonymous": false,
      "inputs": [
        {
          "indexed": false,
          "internalType": "address",
          "name": "receiver",
          "type": "address"
        },
        {
          "indexed": false,
          "internalType": "uint256",
          "name": "amount",
          "type": "uint256"
        }
      ],
      "name": "EmergencyWithdrawal",
      "type": "event"
    },
    {
      "anonymous": false,
      "inputs": [
        {
          "indexed": false,
          "internalType": "address",
          "name": "newGammaOffersContract",
          "type": "address"
        }
      ],
      "name": "NewGammaOffersContract",
      "type": "event"
    },
    {
      "anonymous": false,
      "inputs": [
        {
          "indexed": false,
          "internalType": "address",
          "name": "newGammaPacksContract",
          "type": "address"
        }
      ],
      "name": "NewGammaPacksContract",
      "type": "event"
    },
    {
      "anonymous": false,
      "inputs": [
        {
          "indexed": false,
          "internalType": "address",
          "name": "newSigner",
          "type": "address"
        }
      ],
      "name": "NewSigner",
      "type": "event"
    },
    {
      "anonymous": false,
      "inputs": [
        {
          "indexed": false,
          "internalType": "string",
          "name": "newMainUri",
          "type": "string"
        },
        {
          "indexed": false,
          "internalType": "string",
          "name": "newSecondaryUri",
          "type": "string"
        }
      ],
      "name": "NewUris",
      "type": "event"
    },
    {
      "anonymous": false,
      "inputs": [
        {
          "indexed": true,
          "internalType": "address",
          "name": "previousOwner",
          "type": "address"
        },
        {
          "indexed": true,
          "internalType": "address",
          "name": "newOwner",
          "type": "address"
        }
      ],
      "name": "OwnershipTransferred",
      "type": "event"
    },
    {
      "anonymous": false,
      "inputs": [
        {
          "indexed": false,
          "internalType": "address",
          "name": "player",
          "type": "address"
        },
        {
          "indexed": false,
          "internalType": "uint8[]",
          "name": "packData",
          "type": "uint8[]"
        },
        {
          "indexed": false,
          "internalType": "uint256",
          "name": "packNumber",
          "type": "uint256"
        }
      ],
      "name": "PackOpened",
      "type": "event"
    },
    {
      "anonymous": false,
      "inputs": [
        {
          "indexed": true,
          "internalType": "address",
          "name": "from",
          "type": "address"
        },
        {
          "indexed": true,
          "internalType": "address",
          "name": "to",
          "type": "address"
        },
        {
          "indexed": true,
          "internalType": "uint256",
          "name": "tokenId",
          "type": "uint256"
        }
      ],
      "name": "Transfer",
      "type": "event"
    },
    {
      "inputs": [],
      "name": "DAI_TOKEN",
      "outputs": [
        {
          "internalType": "address",
          "name": "",
          "type": "address"
        }
      ],
      "stateMutability": "view",
      "type": "function"
    },
    {
      "inputs": [
        {
          "internalType": "address",
          "name": "_newOwner",
          "type": "address"
        }
      ],
      "name": "addOwner",
      "outputs": [],
      "stateMutability": "nonpayable",
      "type": "function"
    },
    {
      "inputs": [
        {
          "internalType": "address",
          "name": "_newSigner",
          "type": "address"
        }
      ],
      "name": "addSigner",
      "outputs": [],
      "stateMutability": "nonpayable",
      "type": "function"
    },
    {
      "inputs": [
        {
          "internalType": "address",
          "name": "to",
          "type": "address"
        },
        {
          "internalType": "uint256",
          "name": "tokenId",
          "type": "uint256"
        }
      ],
      "name": "approve",
      "outputs": [],
      "stateMutability": "nonpayable",
      "type": "function"
    },
    {
      "inputs": [
        {
          "internalType": "address",
          "name": "owner",
          "type": "address"
        }
      ],
      "name": "balanceOf",
      "outputs": [
        {
          "internalType": "uint256",
          "name": "",
          "type": "uint256"
        }
      ],
      "stateMutability": "view",
      "type": "function"
    },
    {
      "inputs": [],
      "name": "baseUri",
      "outputs": [
        {
          "internalType": "string",
          "name": "",
          "type": "string"
        }
      ],
      "stateMutability": "view",
      "type": "function"
    },
    {
      "inputs": [
        {
          "internalType": "uint256",
          "name": "tokenId",
          "type": "uint256"
        }
      ],
      "name": "burn",
      "outputs": [],
      "stateMutability": "nonpayable",
      "type": "function"
    },
    {
      "inputs": [
        {
          "internalType": "uint8[]",
          "name": "cardNumbers",
          "type": "uint8[]"
        }
      ],
      "name": "burnCards",
      "outputs": [],
      "stateMutability": "nonpayable",
      "type": "function"
    },
    {
      "inputs": [
        {
          "internalType": "address",
          "name": "user",
          "type": "address"
        }
      ],
      "name": "burnedCards",
      "outputs": [
        {
          "internalType": "uint256",
          "name": "amount",
          "type": "uint256"
        }
      ],
      "stateMutability": "view",
      "type": "function"
    },
    {
      "inputs": [
        {
          "internalType": "uint256",
          "name": "tokenId",
          "type": "uint256"
        }
      ],
      "name": "cards",
      "outputs": [
        {
          "internalType": "uint256",
          "name": "tokenId",
          "type": "uint256"
        },
        {
          "internalType": "uint256",
          "name": "number",
          "type": "uint256"
        },
        {
          "internalType": "bool",
          "name": "pasted",
          "type": "bool"
        },
        {
          "internalType": "uint8",
          "name": "class",
          "type": "uint8"
        },
        {
          "internalType": "uint256",
          "name": "completion",
          "type": "uint256"
        }
      ],
      "stateMutability": "view",
      "type": "function"
    },
    {
      "inputs": [
        {
          "internalType": "address",
          "name": "user",
          "type": "address"
        },
        {
          "internalType": "uint8",
          "name": "cardNumber",
          "type": "uint8"
        }
      ],
      "name": "cardsByUser",
      "outputs": [
        {
          "internalType": "uint8",
          "name": "amount",
          "type": "uint8"
        }
      ],
      "stateMutability": "view",
      "type": "function"
    },
    {
      "inputs": [
        {
          "internalType": "uint256",
          "name": "cardNumber",
          "type": "uint256"
        }
      ],
      "name": "cardsInventory",
      "outputs": [
        {
          "internalType": "uint256",
          "name": "amount",
          "type": "uint256"
        }
      ],
      "stateMutability": "view",
      "type": "function"
    },
    {
      "inputs": [
        {
          "internalType": "uint256",
          "name": "newPackPrice",
          "type": "uint256"
        }
      ],
      "name": "changePackPrice",
      "outputs": [],
      "stateMutability": "nonpayable",
      "type": "function"
    },
    {
      "inputs": [
        {
          "internalType": "bool",
          "name": "required",
          "type": "bool"
        }
      ],
      "name": "changeRequireOfferValidationInMint",
      "outputs": [],
      "stateMutability": "nonpayable",
      "type": "function"
    },
    {
      "inputs": [
        {
          "internalType": "bool",
          "name": "required",
          "type": "bool"
        }
      ],
      "name": "changeRequireOfferValidationInTransfer",
      "outputs": [],
      "stateMutability": "nonpayable",
      "type": "function"
    },
    {
      "inputs": [
        {
          "internalType": "bool",
          "name": "required",
          "type": "bool"
        }
      ],
      "name": "changeRequireOpenPackSignerValidation",
      "outputs": [],
      "stateMutability": "nonpayable",
      "type": "function"
    },
    {
      "inputs": [
        {
          "internalType": "uint256",
          "name": "amount",
          "type": "uint256"
        }
      ],
      "name": "emergencyWithdraw",
      "outputs": [],
      "stateMutability": "nonpayable",
      "type": "function"
    },
    {
      "inputs": [
        {
          "internalType": "address",
          "name": "from",
          "type": "address"
        },
        {
          "internalType": "uint8",
          "name": "cardNumberFrom",
          "type": "uint8"
        },
        {
          "internalType": "address",
          "name": "to",
          "type": "address"
        },
        {
          "internalType": "uint8",
          "name": "cardNumberTo",
          "type": "uint8"
        }
      ],
      "name": "exchangeCardsOffer",
      "outputs": [],
      "stateMutability": "nonpayable",
      "type": "function"
    },
    {
      "inputs": [],
      "name": "finishAlbum",
      "outputs": [],
      "stateMutability": "nonpayable",
      "type": "function"
    },
    {
      "inputs": [],
      "name": "gammaOffersContract",
      "outputs": [
        {
          "internalType": "contract IgammaOffersContract",
          "name": "",
          "type": "address"
        }
      ],
      "stateMutability": "view",
      "type": "function"
    },
    {
      "inputs": [],
      "name": "gammaPacksContract",
      "outputs": [
        {
          "internalType": "contract IgammaPacksContract",
          "name": "",
          "type": "address"
        }
      ],
      "stateMutability": "view",
      "type": "function"
    },
    {
      "inputs": [
        {
          "internalType": "uint256",
          "name": "tokenId",
          "type": "uint256"
        }
      ],
      "name": "getApproved",
      "outputs": [
        {
          "internalType": "address",
          "name": "",
          "type": "address"
        }
      ],
      "stateMutability": "view",
      "type": "function"
    },
    {
      "inputs": [
        {
          "internalType": "address",
          "name": "user",
          "type": "address"
        },
        {
          "internalType": "uint8",
          "name": "cardNum",
          "type": "uint8"
        }
      ],
      "name": "getCardQuantityByUser",
      "outputs": [
        {
          "internalType": "uint8",
          "name": "",
          "type": "uint8"
        }
      ],
      "stateMutability": "view",
      "type": "function"
    },
    {
      "inputs": [
        {
          "internalType": "address",
          "name": "user",
          "type": "address"
        }
      ],
      "name": "getCardsByUser",
      "outputs": [
        {
          "internalType": "uint8[]",
          "name": "",
          "type": "uint8[]"
        },
        {
          "internalType": "uint8[]",
          "name": "",
          "type": "uint8[]"
        },
        {
          "internalType": "bool[]",
          "name": "",
          "type": "bool[]"
        }
      ],
      "stateMutability": "view",
      "type": "function"
    },
    {
      "inputs": [
        {
          "internalType": "address",
          "name": "user",
          "type": "address"
        },
        {
          "internalType": "uint8",
          "name": "cardNum",
          "type": "uint8"
        }
      ],
      "name": "hasCard",
      "outputs": [
        {
          "internalType": "bool",
          "name": "has",
          "type": "bool"
        }
      ],
      "stateMutability": "view",
      "type": "function"
    },
    {
      "inputs": [
        {
          "internalType": "address",
          "name": "user",
          "type": "address"
        },
        {
          "internalType": "uint8",
          "name": "cardNumber",
          "type": "uint8"
        }
      ],
      "name": "hasCardByOffer",
      "outputs": [
        {
          "internalType": "bool",
          "name": "has",
          "type": "bool"
        }
      ],
      "stateMutability": "view",
      "type": "function"
    },
    {
      "inputs": [
        {
          "internalType": "address",
          "name": "owner",
          "type": "address"
        },
        {
          "internalType": "address",
          "name": "operator",
          "type": "address"
        }
      ],
      "name": "isApprovedForAll",
      "outputs": [
        {
          "internalType": "bool",
          "name": "",
          "type": "bool"
        }
      ],
      "stateMutability": "view",
      "type": "function"
    },
    {
      "inputs": [],
      "name": "mainAlbumPrize",
      "outputs": [
        {
          "internalType": "uint256",
          "name": "",
          "type": "uint256"
        }
      ],
      "stateMutability": "view",
      "type": "function"
    },
    {
      "inputs": [],
      "name": "mainUri",
      "outputs": [
        {
          "internalType": "string",
          "name": "",
          "type": "string"
        }
      ],
      "stateMutability": "view",
      "type": "function"
    },
    {
      "inputs": [
        {
          "internalType": "uint8",
          "name": "cardNum",
          "type": "uint8"
        }
      ],
      "name": "mintCard",
      "outputs": [],
      "stateMutability": "nonpayable",
      "type": "function"
    },
    {
      "inputs": [],
      "name": "name",
      "outputs": [
        {
          "internalType": "string",
          "name": "",
          "type": "string"
        }
      ],
      "stateMutability": "view",
      "type": "function"
    },
    {
      "inputs": [
        {
          "internalType": "uint256",
          "name": "packNumber",
          "type": "uint256"
        },
        {
          "internalType": "uint8[]",
          "name": "packData",
          "type": "uint8[]"
        },
        {
          "internalType": "bytes",
          "name": "signature",
          "type": "bytes"
        }
      ],
      "name": "openPack",
      "outputs": [],
      "stateMutability": "nonpayable",
      "type": "function"
    },
    {
      "inputs": [
        {
          "internalType": "address",
          "name": "user",
          "type": "address"
        },
        {
          "internalType": "uint256",
          "name": "packNumber",
          "type": "uint256"
        },
        {
          "internalType": "uint8[]",
          "name": "packData",
          "type": "uint8[]"
        },
        {
          "internalType": "bytes",
          "name": "signature",
          "type": "bytes"
        }
      ],
      "name": "openPackByUser",
      "outputs": [],
      "stateMutability": "nonpayable",
      "type": "function"
    },
    {
      "inputs": [],
      "name": "owner",
      "outputs": [
        {
          "internalType": "address",
          "name": "",
          "type": "address"
        }
      ],
      "stateMutability": "view",
      "type": "function"
    },
    {
      "inputs": [
        {
          "internalType": "uint256",
          "name": "tokenId",
          "type": "uint256"
        }
      ],
      "name": "ownerOf",
      "outputs": [
        {
          "internalType": "address",
          "name": "",
          "type": "address"
        }
      ],
      "stateMutability": "view",
      "type": "function"
    },
    {
      "inputs": [
        {
          "internalType": "address",
          "name": "",
          "type": "address"
        }
      ],
      "name": "owners",
      "outputs": [
        {
          "internalType": "bool",
          "name": "",
          "type": "bool"
        }
      ],
      "stateMutability": "view",
      "type": "function"
    },
    {
      "inputs": [],
      "name": "packPrice",
      "outputs": [
        {
          "internalType": "uint256",
          "name": "",
          "type": "uint256"
        }
      ],
      "stateMutability": "view",
      "type": "function"
    },
    {
      "inputs": [],
      "name": "prizesBalance",
      "outputs": [
        {
          "internalType": "uint256",
          "name": "",
          "type": "uint256"
        }
      ],
      "stateMutability": "view",
      "type": "function"
    },
    {
      "inputs": [
        {
          "internalType": "uint256",
          "name": "amount",
          "type": "uint256"
        }
      ],
      "name": "receivePrizesBalance",
      "outputs": [],
      "stateMutability": "nonpayable",
      "type": "function"
    },
    {
      "inputs": [
        {
          "internalType": "address",
          "name": "user",
          "type": "address"
        },
        {
          "internalType": "uint8",
          "name": "cardNumber",
          "type": "uint8"
        }
      ],
      "name": "removeCardByOffer",
      "outputs": [],
      "stateMutability": "nonpayable",
      "type": "function"
    },
    {
      "inputs": [
        {
          "internalType": "address",
          "name": "_ownerToRemove",
          "type": "address"
        }
      ],
      "name": "removeOwner",
      "outputs": [],
      "stateMutability": "nonpayable",
      "type": "function"
    },
    {
      "inputs": [
        {
          "internalType": "address",
          "name": "_signerToRemove",
          "type": "address"
        }
      ],
      "name": "removeSigner",
      "outputs": [],
      "stateMutability": "nonpayable",
      "type": "function"
    },
    {
      "inputs": [],
      "name": "renounceOwnership",
      "outputs": [],
      "stateMutability": "nonpayable",
      "type": "function"
    },
    {
      "inputs": [],
      "name": "requireOfferValidationInMint",
      "outputs": [
        {
          "internalType": "bool",
          "name": "",
          "type": "bool"
        }
      ],
      "stateMutability": "view",
      "type": "function"
    },
    {
      "inputs": [],
      "name": "requireOfferValidationInTransfer",
      "outputs": [
        {
          "internalType": "bool",
          "name": "",
          "type": "bool"
        }
      ],
      "stateMutability": "view",
      "type": "function"
    },
    {
      "inputs": [],
      "name": "requireOpenPackSignerValidation",
      "outputs": [
        {
          "internalType": "bool",
          "name": "",
          "type": "bool"
        }
      ],
      "stateMutability": "view",
      "type": "function"
    },
    {
      "inputs": [
        {
          "internalType": "address",
          "name": "user",
          "type": "address"
        },
        {
          "internalType": "uint8",
          "name": "cardNumber",
          "type": "uint8"
        }
      ],
      "name": "restoreCardByOffer",
      "outputs": [],
      "stateMutability": "nonpayable",
      "type": "function"
    },
    {
      "inputs": [
        {
          "internalType": "address",
          "name": "from",
          "type": "address"
        },
        {
          "internalType": "address",
          "name": "to",
          "type": "address"
        },
        {
          "internalType": "uint256",
          "name": "tokenId",
          "type": "uint256"
        }
      ],
      "name": "safeTransferFrom",
      "outputs": [],
      "stateMutability": "nonpayable",
      "type": "function"
    },
    {
      "inputs": [
        {
          "internalType": "address",
          "name": "from",
          "type": "address"
        },
        {
          "internalType": "address",
          "name": "to",
          "type": "address"
        },
        {
          "internalType": "uint256",
          "name": "tokenId",
          "type": "uint256"
        },
        {
          "internalType": "bytes",
          "name": "data",
          "type": "bytes"
        }
      ],
      "name": "safeTransferFrom",
      "outputs": [],
      "stateMutability": "nonpayable",
      "type": "function"
    },
    {
      "inputs": [],
      "name": "secondaryAlbumPrize",
      "outputs": [
        {
          "internalType": "uint256",
          "name": "",
          "type": "uint256"
        }
      ],
      "stateMutability": "view",
      "type": "function"
    },
    {
      "inputs": [],
      "name": "secondaryUri",
      "outputs": [
        {
          "internalType": "string",
          "name": "",
          "type": "string"
        }
      ],
      "stateMutability": "view",
      "type": "function"
    },
    {
      "inputs": [
        {
          "internalType": "address",
          "name": "operator",
          "type": "address"
        },
        {
          "internalType": "bool",
          "name": "approved",
          "type": "bool"
        }
      ],
      "name": "setApprovalForAll",
      "outputs": [],
      "stateMutability": "nonpayable",
      "type": "function"
    },
    {
      "inputs": [
        {
          "internalType": "address",
          "name": "_gammaOffersContract",
          "type": "address"
        }
      ],
      "name": "setGammaOffersContract",
      "outputs": [],
      "stateMutability": "nonpayable",
      "type": "function"
    },
    {
      "inputs": [
        {
          "internalType": "address",
          "name": "_gammaPacksContract",
          "type": "address"
        }
      ],
      "name": "setGammaPacksContract",
      "outputs": [],
      "stateMutability": "nonpayable",
      "type": "function"
    },
    {
      "inputs": [
        {
          "internalType": "string",
          "name": "newMainUri",
          "type": "string"
        },
        {
          "internalType": "string",
          "name": "newSecondaryUri",
          "type": "string"
        }
      ],
      "name": "setUris",
      "outputs": [],
      "stateMutability": "nonpayable",
      "type": "function"
    },
    {
      "inputs": [
        {
          "internalType": "address",
          "name": "",
          "type": "address"
        }
      ],
      "name": "signers",
      "outputs": [
        {
          "internalType": "bool",
          "name": "",
          "type": "bool"
        }
      ],
      "stateMutability": "view",
      "type": "function"
    },
    {
      "inputs": [
        {
          "internalType": "bytes4",
          "name": "interfaceId",
          "type": "bytes4"
        }
      ],
      "name": "supportsInterface",
      "outputs": [
        {
          "internalType": "bool",
          "name": "",
          "type": "bool"
        }
      ],
      "stateMutability": "view",
      "type": "function"
    },
    {
      "inputs": [],
      "name": "symbol",
      "outputs": [
        {
          "internalType": "string",
          "name": "",
          "type": "string"
        }
      ],
      "stateMutability": "view",
      "type": "function"
    },
    {
      "inputs": [
        {
          "internalType": "address",
          "name": "user",
          "type": "address"
        }
      ],
      "name": "testAddCards",
      "outputs": [],
      "stateMutability": "nonpayable",
      "type": "function"
    },
    {
      "inputs": [
        {
          "internalType": "address",
          "name": "user",
          "type": "address"
        },
        {
          "internalType": "uint256",
          "name": "packNumber",
          "type": "uint256"
        },
        {
          "internalType": "uint8[]",
          "name": "packData",
          "type": "uint8[]"
        }
      ],
      "name": "testOpenPack",
      "outputs": [],
      "stateMutability": "nonpayable",
      "type": "function"
    },
    {
      "inputs": [
        {
          "internalType": "uint256",
          "name": "tokenId",
          "type": "uint256"
        }
      ],
      "name": "tokenURI",
      "outputs": [
        {
          "internalType": "string",
          "name": "",
          "type": "string"
        }
      ],
      "stateMutability": "view",
      "type": "function"
    },
    {
      "inputs": [
        {
          "internalType": "address",
          "name": "to",
          "type": "address"
        },
        {
          "internalType": "uint8",
          "name": "cardNumber",
          "type": "uint8"
        }
      ],
      "name": "transferCard",
      "outputs": [],
      "stateMutability": "nonpayable",
      "type": "function"
    },
    {
      "inputs": [
        {
          "internalType": "address",
          "name": "to",
          "type": "address"
        },
        {
          "internalType": "uint8[]",
          "name": "cardNumbers",
          "type": "uint8[]"
        }
      ],
      "name": "transferCards",
      "outputs": [],
      "stateMutability": "nonpayable",
      "type": "function"
    },
    {
      "inputs": [
        {
          "internalType": "address",
          "name": "from",
          "type": "address"
        },
        {
          "internalType": "address",
          "name": "to",
          "type": "address"
        },
        {
          "internalType": "uint256",
          "name": "tokenId",
          "type": "uint256"
        }
      ],
      "name": "transferFrom",
      "outputs": [],
      "stateMutability": "nonpayable",
      "type": "function"
    },
    {
      "inputs": [
        {
          "internalType": "address",
          "name": "newOwner",
          "type": "address"
        }
      ],
      "name": "transferOwnership",
      "outputs": [],
      "stateMutability": "nonpayable",
      "type": "function"
    },
    {
      "inputs": [
        {
          "internalType": "uint256",
          "name": "packNumber",
          "type": "uint256"
        },
        {
          "internalType": "uint8[]",
          "name": "packData",
          "type": "uint8[]"
        },
        {
          "internalType": "bytes",
          "name": "signature",
          "type": "bytes"
        }
      ],
      "name": "verifyPackSigner",
      "outputs": [
        {
          "internalType": "address",
          "name": "signer",
          "type": "address"
        }
      ],
      "stateMutability": "view",
      "type": "function"
    }
  ],
  "bytecode": "0x60806040526710a741a462780000600c5567d02ab486cedc0000600f55670de0b6b3a76400006010553480156200003557600080fd5b5060405162005c7c38038062005c7c83398101604081905262000058916200034f565b6040518060400160405280600a81526020016947616d6d61436172647360b01b815250604051806040016040528060068152602001654e4f465f474360d01b8152508160009081620000ab9190620004d1565b506001620000ba8282620004d1565b505050620000d7620000d1620002a060201b60201c565b620002a4565b600880546001600160a01b038086166001600160a01b031992831617909255600b805492871692909116919091179055600e620001158382620004d1565b5060408051808201825260018152602f60f81b60208083019190915282518084018452600381526203132360ec1b8183015283518085018552600681526523173539b7b760d11b8184015293516200017494600e94939091016200059d565b60405160208183030381529060405260119081620001939190620004d1565b5060408051808201825260018152602f60f81b60208083019190915282518084018452600381526231323160e81b8183015283518085018552600681526523173539b7b760d11b818401529351620001f294600e94939091016200059d565b60405160208183030381529060405260129081620002119190620004d1565b506001600160a01b0381166000908152601560205260408120805460ff19166001179055601380546201010062ffffff199091161790555b607a8110156200027a576000818152601760205260409020600190558062000271816200065a565b91505062000249565b5050336000908152601460205260409020805460ff191660011790555062000682915050565b3390565b600780546001600160a01b038381166001600160a01b0319831681179093556040519116919082907f8be0079c531659141344cd1fd0a4f28419497f9722a3daafe3b4186f6b6457e090600090a35050565b80516001600160a01b03811681146200030e57600080fd5b919050565b634e487b7160e01b600052604160045260246000fd5b60005b83811015620003465781810151838201526020016200032c565b50506000910152565b600080600080608085870312156200036657600080fd5b6200037185620002f6565b93506200038160208601620002f6565b60408601519093506001600160401b03808211156200039f57600080fd5b818701915087601f830112620003b457600080fd5b815181811115620003c957620003c962000313565b604051601f8201601f19908116603f01168101908382118183101715620003f457620003f462000313565b816040528281528a60208487010111156200040e57600080fd5b6200042183602083016020880162000329565b80965050505050506200043760608601620002f6565b905092959194509250565b600181811c908216806200045757607f821691505b6020821081036200047857634e487b7160e01b600052602260045260246000fd5b50919050565b601f821115620004cc57600081815260208120601f850160051c81016020861015620004a75750805b601f850160051c820191505b81811015620004c857828155600101620004b3565b5050505b505050565b81516001600160401b03811115620004ed57620004ed62000313565b6200050581620004fe845462000442565b846200047e565b602080601f8311600181146200053d5760008415620005245750858301515b600019600386901b1c1916600185901b178555620004c8565b600085815260208120601f198616915b828110156200056e578886015182559484019460019091019084016200054d565b50858210156200058d5787850151600019600388901b60f8161c191681555b5050505050600190811b01905550565b6000808654620005ad8162000442565b60018281168015620005c85760018114620005de576200060f565b60ff19841687528215158302870194506200060f565b8a60005260208060002060005b85811015620006065781548a820152908401908201620005eb565b50505082870194505b50505050855162000625818360208a0162000329565b85519101906200063a81836020890162000329565b84519101906200064f81836020880162000329565b019695505050505050565b6000600182016200067b57634e487b7160e01b600052601160045260246000fd5b5060010190565b6155ea80620006926000396000f3fe608060405234801561001057600080fd5b50600436106103e65760003560e01c8063809eb3551161020a578063ad1684fa11610125578063dec3f6d9116100b8578063e606df8711610087578063e606df871461093c578063e985e9c51461094f578063eb12d61e1461098b578063f2fde38b1461099e578063f98fd283146109b157600080fd5b8063dec3f6d914610905578063e1883c6e1461090d578063e51aebb314610920578063e5db587a1461093357600080fd5b8063c87b56dd116100f4578063c87b56dd146108b9578063cafaa473146108cc578063d322b563146108df578063dbfc05cf146108f257600080fd5b8063ad1684fa14610878578063b88d4fde1461088b578063bf400a6a1461089e578063c3461c07146108b157600080fd5b806395d89b411161019d5780639f4415d81161016c5780639f4415d814610836578063a1af8ad41461083f578063a22cb46514610852578063a419811d1461086557600080fd5b806395d89b4114610806578063968841351461080e5780639abc83201461081b5780639c7f707f1461082357600080fd5b80638da5cb5b116101d95780638da5cb5b146107695780638dc107681461077a5780639038f414146107ec57806391565664146107f457600080fd5b8063809eb35514610702578063886eb60f146107305780638ba526fc146107435780638bf670c81461075657600080fd5b80632f9e026a116103055780635dde20d81161029857806370a082311161026757806370a0823114610691578063715018a6146106a45780637155a3ac146106ac578063736c0d5b146106bf5780637e50fa8f146106e257600080fd5b80635dde20d8146106385780636352211e1461065857806368cc5bc11461066b5780637065cb481461067e57600080fd5b806342966c68116102d457806342966c68146105f6578063483823e814610609578063511b9307146106125780635312ea8e1461062557600080fd5b80632f9e026a146105a657806330f5cc58146105b9578063335c8b63146105cc57806342842e0e146105e357600080fd5b80631306952c1161037d57806320965a5f1161034c57806320965a5f1461055a57806323b872dd1461056d578063267b841d146105805780632ca699e71461059357600080fd5b80631306952c146104d3578063155e2f92146104e65780631585cc4e146104f9578063173825d91461054757600080fd5b8063081812fc116103b9578063081812fc1461046d578063095ea7b3146104985780630e316ab7146104ad578063128916dc146104c057600080fd5b806301ffc9a7146103eb578063022914a7146104135780630435dcaf1461043657806306fdde0314610458575b600080fd5b6103fe6103f9366004614692565b6109c4565b60405190151581526020015b60405180910390f35b6103fe6104213660046146c4565b60146020526000908152604090205460ff1681565b6104496104443660046146c4565b610a16565b60405161040a9392919061471f565b610460610dd3565b60405161040a91906147da565b61048061047b3660046147ed565b610e65565b6040516001600160a01b03909116815260200161040a565b6104ab6104a6366004614806565b610e8c565b005b6104ab6104bb3660046146c4565b610fa6565b6104ab6104ce3660046146c4565b6110ec565b6104806104e1366004614955565b611196565b6104ab6104f43660046149c4565b6112a4565b6105356105073660046149c4565b6001600160a01b0391909116600090815260196020908152604080832060ff94851684529091529020541690565b60405160ff909116815260200161040a565b6104ab6105553660046146c4565b611320565b6104ab610568366004614a3d565b611466565b6104ab61057b366004614a7e565b611766565b6104ab61058e366004614955565b611798565b6104ab6105a13660046149c4565b6117ab565b600854610480906001600160a01b031681565b6104ab6105c7366004614abf565b6119b5565b6105d5600c5481565b60405190815260200161040a565b6104ab6105f1366004614a7e565b611c52565b6104ab6106043660046147ed565b611c6d565b6105d560105481565b6013546103fe9062010000900460ff1681565b6104ab6106333660046147ed565b611c9e565b6105d56106463660046147ed565b60176020526000908152604090205481565b6104806106663660046147ed565b611da5565b6104ab610679366004614b25565b611e05565b6104ab61068c3660046146c4565b611e50565b6105d561069f3660046146c4565b611f32565b6104ab611fb8565b6104ab6106ba3660046149c4565b611fcc565b6103fe6106cd3660046146c4565b60156020526000908152604090205460ff1681565b6105d56106f03660046146c4565b60186020526000908152604090205481565b6105356107103660046149c4565b601960209081526000928352604080842090915290825290205460ff1681565b6103fe61073e3660046149c4565b61202b565b6104ab6107513660046147ed565b612084565b6103fe6107643660046149c4565b6120c8565b6007546001600160a01b0316610480565b6107bc6107883660046147ed565b60166020526000908152604090208054600182015460028301546003909301549192909160ff808316926101009004169085565b6040805195865260208601949094529115159284019290925260ff9091166060830152608082015260a00161040a565b6104ab6120f5565b6013546103fe90610100900460ff1681565b6104606123ec565b6013546103fe9060ff1681565b6104606123fb565b6104ab610831366004614bb9565b612489565b6105d5600f5481565b6104ab61084d366004614c1c565b612503565b6104ab610860366004614c70565b61285b565b6104ab6108733660046146c4565b612866565b6104ab610886366004614ca9565b612905565b6104ab610899366004614d01565b612bc0565b6104ab6108ac366004614d80565b612bf2565b610460612e08565b6104606108c73660046147ed565b612e15565b6104ab6108da3660046146c4565b612e20565b600954610480906001600160a01b031681565b6104ab610900366004614b25565b612ec3565b610460612f05565b6104ab61091b3660046147ed565b612f12565b6104ab61092e366004614d9b565b612f41565b6105d5600d5481565b600b54610480906001600160a01b031681565b6103fe61095d366004614e21565b6001600160a01b03918216600090815260056020908152604080832093909416825291909152205460ff1690565b6104ab6109993660046146c4565b612f4e565b6104ab6109ac3660046146c4565b613030565b6104ab6109bf366004614b25565b6130a6565b60006001600160e01b031982166380ac58cd60e01b14806109f557506001600160e01b03198216635b5e139f60e01b145b80610a1057506301ffc9a760e01b6001600160e01b03198316145b92915050565b604080516079808252610f408201909252606091829182916000919060208201610f20803683375050604080516079808252610f408201909252929350600092915060208201610f20803683375050604080516079808252610f408201909252929350600092915060208201610f20803683370190505090506000805b60778160ff1611610bfc576001600160a01b038916600090815260196020908152604080832060ff80861685529252909120541615610bea5780858360ff1681518110610ae257610ae2614e4f565b60ff9283166020918202929092018101919091526001600160a01b038b166000908152601982526040808220858516835290925220548551908216918691908516908110610b3257610b32614e4f565b60ff90921660209283029190910190910152600954604051632edb5fcf60e01b81526001600160a01b0390911690632edb5fcf90610b76908c908590600401614e65565b602060405180830381865afa158015610b93573d6000803e3d6000fd5b505050506040513d601f19601f82011682018060405250810190610bb79190614e81565b838360ff1681518110610bcc57610bcc614e4f565b9115156020928302919091019091015281610be681614eb4565b9250505b80610bf481614eb4565b915050610a93565b5060008160ff166001600160401b03811115610c1a57610c1a614832565b604051908082528060200260200182016040528015610c43578160200160208202803683370190505b50905060008260ff166001600160401b03811115610c6357610c63614832565b604051908082528060200260200182016040528015610c8c578160200160208202803683370190505b50905060008360ff166001600160401b03811115610cac57610cac614832565b604051908082528060200260200182016040528015610cd5578160200160208202803683370190505b50905060005b8460ff168160ff161015610dc157878160ff1681518110610cfe57610cfe614e4f565b6020026020010151848260ff1681518110610d1b57610d1b614e4f565b60ff9283166020918202929092010152875188918316908110610d4057610d40614e4f565b6020026020010151838260ff1681518110610d5d57610d5d614e4f565b60ff9283166020918202929092010152865187918316908110610d8257610d82614e4f565b6020026020010151828260ff1681518110610d9f57610d9f614e4f565b9115156020928302919091019091015280610db981614eb4565b915050610cdb565b50919a90995090975095505050505050565b606060008054610de290614ed3565b80601f0160208091040260200160405190810160405280929190818152602001828054610e0e90614ed3565b8015610e5b5780601f10610e3057610100808354040283529160200191610e5b565b820191906000526020600020905b815481529060010190602001808311610e3e57829003601f168201915b5050505050905090565b6000610e70826130ef565b506000908152600460205260409020546001600160a01b031690565b6000610e9782611da5565b9050806001600160a01b0316836001600160a01b031603610f095760405162461bcd60e51b815260206004820152602160248201527f4552433732313a20617070726f76616c20746f2063757272656e74206f776e656044820152603960f91b60648201526084015b60405180910390fd5b336001600160a01b0382161480610f255750610f25813361095d565b610f975760405162461bcd60e51b815260206004820152603d60248201527f4552433732313a20617070726f76652063616c6c6572206973206e6f7420746f60448201527f6b656e206f776e6572206f7220617070726f76656420666f7220616c6c0000006064820152608401610f00565b610fa1838361314e565b505050565b3360009081526014602052604090205460ff16610fd55760405162461bcd60e51b8152600401610f0090614f0d565b6001600160a01b038116610ffb5760405162461bcd60e51b8152600401610f0090614f50565b336001600160a01b038216036110635760405162461bcd60e51b815260206004820152602760248201527f596f752063616e6e6f742072656d6f766520796f757273656c6620617320612060448201526639b4b3b732b91760c91b6064820152608401610f00565b6001600160a01b03811660009081526015602052604090205460ff166110cb5760405162461bcd60e51b815260206004820152601960248201527f41646472657373206973206e6f7420616e207369676e65722e000000000000006044820152606401610f00565b6001600160a01b03166000908152601560205260409020805460ff19169055565b3360009081526014602052604090205460ff1661111b5760405162461bcd60e51b8152600401610f0090614f0d565b6001600160a01b0381166111415760405162461bcd60e51b8152600401610f0090614f50565b600980546001600160a01b0319166001600160a01b0383169081179091556040519081527f538b3425a321783393ad250db10356b8b3523ef29a40de015c5218213de0ead0906020015b60405180910390a150565b6000806112113387876040516020016111b193929190614f7a565b60408051601f1981840301815282825280516020918201207f19457468657265756d205369676e6564204d6573736167653a0a33320000000084830152603c8085019190915282518085039091018152605c909301909152815191012090565b9050600061125785858080601f01602080910402602001604051908101604052809392919081815260200183838082843760009201919091525086939250506131bc9050565b90506112986040518060400160405280601a81526020017f6f70656e207061636b207369676e6572207265636f7665726564000000000000815250826131e0565b9150505b949350505050565b6009546001600160a01b031633146112ce5760405162461bcd60e51b8152600401610f0090615008565b6001600160a01b038216600090815260196020908152604080832060ff80861685529252822080549091169161130383614eb4565b91906101000a81548160ff021916908360ff160217905550505050565b3360009081526014602052604090205460ff1661134f5760405162461bcd60e51b8152600401610f0090614f0d565b6001600160a01b0381166113755760405162461bcd60e51b8152600401610f0090614f50565b336001600160a01b038216036113dd5760405162461bcd60e51b815260206004820152602760248201527f596f752063616e6e6f742072656d6f766520796f757273656c6620617320616e6044820152661037bbb732b91760c91b6064820152608401610f00565b6001600160a01b03811660009081526014602052604090205460ff166114455760405162461bcd60e51b815260206004820152601860248201527f41646472657373206973206e6f7420616e206f776e65722e00000000000000006044820152606401610f00565b6001600160a01b03166000908152601460205260409020805460ff19169055565b3360009081526019602090815260408083206079845290915290205460ff166114d15760405162461bcd60e51b815260206004820152601860248201527f4e6f207469656e657320616c62756d206465207175656d6100000000000000006044820152606401610f00565b336000908152601960209081526040808320607984529091528120805460ff16916114fb8361505a565b825460ff9182166101009390930a9283029190920219909116179055503360009081526018602052604081208054839290611537908490615077565b90915550600090505b60ff81168211156115d85733600090815260196020526040812090848460ff851681811061157057611570614e4f565b90506020020160208101906115859190614d80565b60ff908116825260208201929092526040016000908120805490921691906115ac8361505a565b91906101000a81548160ff021916908360ff1602179055505080806115d090614eb4565b915050611540565b50336000908152601860205260409020546115f590603c906150a0565b60000361176257611694336012805461160d90614ed3565b80601f016020809104026020016040519081016040528092919081815260200182805461163990614ed3565b80156116865780601f1061165b57610100808354040283529160200191611686565b820191906000526020600020905b81548152906001019060200180831161166957829003601f168201915b505050505060796002613225565b600f54600d60008282546116a891906150b4565b9091555050600b5460105460405163a9059cbb60e01b815233600482015260248101919091526001600160a01b039091169063a9059cbb906044016020604051808303816000875af1158015611702573d6000803e3d6000fd5b505050506040513d601f19601f820116820180604052508101906117269190614e81565b507f6d0344e2059f835240cb954cce07d4b26f0d0844eecc234f7ee0e292ba80a1aa336002604051611759929190614e65565b60405180910390a15b5050565b611771335b82613281565b61178d5760405162461bcd60e51b8152600401610f00906150c7565b610fa18383836132ff565b6117a53385858585613470565b50505050565b33600090815260196020908152604080832060ff8086168552925290912054166117e75760405162461bcd60e51b8152600401610f0090615114565b336001600160a01b0383160361183f5760405162461bcd60e51b815260206004820152601960248201527f4f776e207472616e73666572206e6f7420616c6c6f7765642e000000000000006044820152606401610f00565b6001600160a01b0382166118655760405162461bcd60e51b8152600401610f0090614f50565b60135462010000900460ff161561193a57600954604051632edb5fcf60e01b81526000916001600160a01b031690632edb5fcf906118a99033908690600401614e65565b602060405180830381865afa1580156118c6573d6000803e3d6000fd5b505050506040513d601f19601f820116820180604052508101906118ea9190614e81565b33600090815260196020908152604080832060ff8088168552925290912054919250600191161181158061191b5750805b6119375760405162461bcd60e51b8152600401610f009061514b565b50505b33600090815260196020908152604080832060ff8086168552925282208054909116916119668361505a565b82546101009290920a60ff8181021990931691831602179091556001600160a01b0384166000908152601960209081526040808320868516845290915281208054909216925061130383614eb4565b3360009081526014602052604090205460ff166119e45760405162461bcd60e51b8152600401610f0090614f0d565b6008546040516380f2540b60e01b8152600481018490526001600160a01b038581166024830152909116906380f2540b90604401600060405180830381600087803b158015611a3257600080fd5b505af1158015611a46573d6000803e3d6000fd5b505050506006600c54611a59919061519b565b600c54611a6691906150b4565b600d6000828254611a779190615077565b9091555050805160005b818160ff161015611c4b57828160ff1681518110611aa157611aa1614e4f565b602002602001015160ff16607814611aef5761138960176000858460ff1681518110611acf57611acf614e4f565b602002602001015160ff1681526020019081526020016000205410611b20565b607860005260176020527f1e0e657bdfc7d3d523657bb82aa6f2c628a4caf6e2f7839556e82479d4362f0654610bb9115b611b6c5760405162461bcd60e51b815260206004820152601e60248201527f696e76616c69642063617264496e76656e746f727920706f736974696f6e00006044820152606401610f00565b60176000848360ff1681518110611b8557611b85614e4f565b602002602001015160ff1681526020019081526020016000206000815480929190611baf906151af565b90915550506001600160a01b03851660009081526019602052604081208451909190859060ff8516908110611be657611be6614e4f565b602002602001015160ff1660ff168152602001908152602001600020600081819054906101000a900460ff1680929190611c1f90614eb4565b91906101000a81548160ff021916908360ff160217905550508080611c4390614eb4565b915050611a81565b5050505050565b610fa183838360405180602001604052806000815250612bc0565b611c763361176b565b611c925760405162461bcd60e51b8152600401610f00906150c7565b611c9b81613933565b50565b3360009081526014602052604090205460ff16611ccd5760405162461bcd60e51b8152600401610f0090614f0d565b80611cd730611f32565b1015611ce257600080fd5b80600d6000828254611cf491906150b4565b9091555050600b5460405163a9059cbb60e01b8152336004820152602481018390526001600160a01b039091169063a9059cbb906044016020604051808303816000875af1158015611d4a573d6000803e3d6000fd5b505050506040513d601f19601f82011682018060405250810190611d6e9190614e81565b5060408051338152602081018390527f23d6711a1d031134a36921253c75aa59e967d38e369ac625992824315e204f20910161118b565b6000818152600260205260408120546001600160a01b031680610a105760405162461bcd60e51b8152602060048201526018602482015277115490cdcc8c4e881a5b9d985b1a59081d1bdad95b88125160421b6044820152606401610f00565b3360009081526014602052604090205460ff16611e345760405162461bcd60e51b8152600401610f0090614f0d565b60138054911515620100000262ff000019909216919091179055565b3360009081526014602052604090205460ff16611e7f5760405162461bcd60e51b8152600401610f0090614f0d565b6001600160a01b038116611ea55760405162461bcd60e51b8152600401610f0090614f50565b6001600160a01b03811660009081526014602052604090205460ff1615611f0e5760405162461bcd60e51b815260206004820152601c60248201527f4164647265737320697320616c726561647920616e206f776e65722e000000006044820152606401610f00565b6001600160a01b03166000908152601460205260409020805460ff19166001179055565b60006001600160a01b038216611f9c5760405162461bcd60e51b815260206004820152602960248201527f4552433732313a2061646472657373207a65726f206973206e6f7420612076616044820152683634b21037bbb732b960b91b6064820152608401610f00565b506001600160a01b031660009081526003602052604090205490565b611fc061393c565b611fca6000613996565b565b6009546001600160a01b03163314611ff65760405162461bcd60e51b8152600401610f0090615008565b6001600160a01b038216600090815260196020908152604080832060ff8086168552925282208054909116916113038361505a565b60006001600160a01b0383166120535760405162461bcd60e51b8152600401610f0090614f50565b506001600160a01b0391909116600090815260196020908152604080832060ff948516845290915290205416151590565b6008546001600160a01b031633146120ae5760405162461bcd60e51b8152600401610f00906151c8565b80600d60008282546120c09190615077565b909155505050565b6009546000906001600160a01b031633146120535760405162461bcd60e51b8152600401610f0090615008565b3360009081526019602090815260408083206078845290915290205460ff166121605760405162461bcd60e51b815260206004820152601c60248201527f596f7520646f6573206e6f74206861766520616e7920616c62756d2e000000006044820152606401610f00565b600f54600d5410156121aa5760405162461bcd60e51b815260206004820152601360248201527224b739bab33334b1b4b2b73a10333ab732399760691b6044820152606401610f00565b6000805b60798160ff1610156122405733600090815260196020908152604080832060ff808616855292528220541690036121e85760019150612240565b33600090815260196020908152604080832060ff8086168552925282208054909116916122148361505a565b91906101000a81548160ff021916908360ff16021790555050808061223890614eb4565b9150506121ae565b50801561228f5760405162461bcd60e51b815260206004820152601860248201527f4d75737420636f6d706c6574652074686520616c62756d2e00000000000000006044820152606401610f00565b61232733601180546122a090614ed3565b80601f01602080910402602001604051908101604052809291908181526020018280546122cc90614ed3565b80156123195780601f106122ee57610100808354040283529160200191612319565b820191906000526020600020905b8154815290600101906020018083116122fc57829003601f168201915b505050505060786002613225565b600f54600d600082825461233b91906150b4565b9091555050600b54600f5460405163a9059cbb60e01b815233600482015260248101919091526001600160a01b039091169063a9059cbb906044016020604051808303816000875af1158015612395573d6000803e3d6000fd5b505050506040513d601f19601f820116820180604052508101906123b99190614e81565b507f6d0344e2059f835240cb954cce07d4b26f0d0844eecc234f7ee0e292ba80a1aa33600160405161118b929190614e65565b606060018054610de290614ed3565b600e805461240890614ed3565b80601f016020809104026020016040519081016040528092919081815260200182805461243490614ed3565b80156124815780601f1061245657610100808354040283529160200191612481565b820191906000526020600020905b81548152906001019060200180831161246457829003601f168201915b505050505081565b3360009081526014602052604090205460ff166124b85760405162461bcd60e51b8152600401610f0090614f0d565b60116124c48382615267565b5060126124d18282615267565b507fabfd337ac5625b7dc2ddd3d3bd465fb1dec15322eeeed81032268b337880bec68282604051611759929190615326565b336001600160a01b038416036125665760405162461bcd60e51b815260206004820152602260248201527f596f752063616e6e6f742073656e6420636172647320746f20796f757273656c604482015261331760f11b6064820152608401610f00565b6001600160a01b03831661258c5760405162461bcd60e51b8152600401610f0090614f50565b60005b60ff81168211156117a55733600090815260196020526040812081858560ff86168181106125bf576125bf614e4f565b90506020020160208101906125d49190614d80565b60ff908116825260208201929092526040016000205416116126085760405162461bcd60e51b8152600401610f0090615114565b33600090815260196020526040812090848460ff851681811061262d5761262d614e4f565b90506020020160208101906126429190614d80565b60ff908116825260208201929092526040016000908120805490921691906126698361505a565b91906101000a81548160ff021916908360ff1602179055505060196000856001600160a01b03166001600160a01b03168152602001908152602001600020600084848460ff168181106126be576126be614e4f565b90506020020160208101906126d39190614d80565b60ff908116825260208201929092526040016000908120805490921691906126fa83614eb4565b91906101000a81548160ff021916908360ff16021790555050601360029054906101000a900460ff1615612849576009546000906001600160a01b0316632edb5fcf33868660ff871681811061275257612752614e4f565b90506020020160208101906127679190614d80565b6040518363ffffffff1660e01b8152600401612784929190614e65565b602060405180830381865afa1580156127a1573d6000803e3d6000fd5b505050506040513d601f19601f820116820180604052508101906127c59190614e81565b3360009081526019602052604081209192509060019082878760ff88168181106127f1576127f1614e4f565b90506020020160208101906128069190614d80565b60ff90811682526020820192909252604001600020541611905081158061282a5750805b6128465760405162461bcd60e51b8152600401610f009061514b565b50505b8061285381614eb4565b91505061258f565b6117623383836139e8565b3360009081526014602052604090205460ff166128955760405162461bcd60e51b8152600401610f0090614f0d565b60005b60798160ff161015611762576001600160a01b038216600090815260196020908152604080832060ff8086168552925282208054909116916128d983614eb4565b91906101000a81548160ff021916908360ff1602179055505080806128fd90614eb4565b915050612898565b6009546001600160a01b0316331461292f5760405162461bcd60e51b8152600401610f0090615008565b6001600160a01b0384166129555760405162461bcd60e51b8152600401610f0090614f50565b6001600160a01b03821661297b5760405162461bcd60e51b8152600401610f0090614f50565b6001600160a01b038416600090815260196020908152604080832060ff8088168552925290912054166129ff5760405162461bcd60e51b815260206004820152602660248201527f55736572202866726f6d2920646f6573206e6f74206861766520636172642028604482015265333937b6949760d11b6064820152608401610f00565b6001600160a01b038216600090815260196020908152604080832060ff808616855292529091205416612a7f5760405162461bcd60e51b815260206004820152602260248201527f557365722028746f2920646f6573206e6f74206861766520636172642028746f604482015261149760f11b6064820152608401610f00565b6001600160a01b038416600090815260196020908152604080832060ff808816855292528220805490911691612ab48361505a565b82546101009290920a60ff8181021990931691831602179091556001600160a01b03841660009081526019602090815260408083208885168452909152812080549092169250612b0383614eb4565b82546101009290920a60ff8181021990931691831602179091556001600160a01b03841660009081526019602090815260408083208685168452909152812080549092169250612b528361505a565b82546101009290920a60ff8181021990931691831602179091556001600160a01b03861660009081526019602090815260408083208685168452909152812080549092169250612ba183614eb4565b91906101000a81548160ff021916908360ff1602179055505050505050565b612bca3383613281565b612be65760405162461bcd60e51b8152600401610f00906150c7565b6117a584848484613ab6565b33600090815260196020908152604080832060ff808616855292529091205416612c2e5760405162461bcd60e51b8152600401610f0090615114565b601354610100900460ff1615612d4757600954604051632edb5fcf60e01b81526000916001600160a01b031690632edb5fcf90612c719033908690600401614e65565b602060405180830381865afa158015612c8e573d6000803e3d6000fd5b505050506040513d601f19601f82011682018060405250810190612cb29190614e81565b33600090815260196020908152604080832060ff80881685529252909120549192506001911611811580612ce35750805b612d445760405162461bcd60e51b815260206004820152602c60248201527f5468697320636172642068617320616e206f666665722c2069742063616e6e6f60448201526b3a1031329036b4b73a32b21760a11b6064820152608401610f00565b50505b33600090815260196020908152604080832060ff808616855292528220805490911691612d738361505a565b91906101000a81548160ff021916908360ff160217905550506000600e604051806040016040528060018152602001602f60f81b815250612db68460ff16613ae9565b60405180604001604052806005815260200164173539b7b760d91b815250604051602001612de79493929190615354565b604051602081830303815290604052905061176233828460ff166001613225565b6011805461240890614ed3565b6060610a1082613be9565b3360009081526014602052604090205460ff16612e4f5760405162461bcd60e51b8152600401610f0090614f0d565b6001600160a01b038116612e755760405162461bcd60e51b8152600401610f0090614f50565b600880546001600160a01b0319166001600160a01b0383169081179091556040519081527f5a78287a942b8ea0da8734a4eb919df11e564cc48301ffcb582dc8612d98208f9060200161118b565b3360009081526014602052604090205460ff16612ef25760405162461bcd60e51b8152600401610f0090614f0d565b6013805460ff1916911515919091179055565b6012805461240890614ed3565b6008546001600160a01b03163314612f3c5760405162461bcd60e51b8152600401610f00906151c8565b600c55565b611c4b8585858585613470565b3360009081526014602052604090205460ff16612f7d5760405162461bcd60e51b8152600401610f0090614f0d565b6001600160a01b038116612fa35760405162461bcd60e51b8152600401610f0090614f50565b6001600160a01b03811660009081526015602052604090205460ff161561300c5760405162461bcd60e51b815260206004820152601c60248201527f4164647265737320697320616c726561647920616e206f776e65722e000000006044820152606401610f00565b6001600160a01b03166000908152601560205260409020805460ff19166001179055565b61303861393c565b6001600160a01b03811661309d5760405162461bcd60e51b815260206004820152602660248201527f4f776e61626c653a206e6577206f776e657220697320746865207a65726f206160448201526564647265737360d01b6064820152608401610f00565b611c9b81613996565b3360009081526014602052604090205460ff166130d55760405162461bcd60e51b8152600401610f0090614f0d565b601380549115156101000261ff0019909216919091179055565b6000818152600260205260409020546001600160a01b0316611c9b5760405162461bcd60e51b8152602060048201526018602482015277115490cdcc8c4e881a5b9d985b1a59081d1bdad95b88125160421b6044820152606401610f00565b600081815260046020526040902080546001600160a01b0319166001600160a01b038416908117909155819061318382611da5565b6001600160a01b03167f8c5be1e5ebec7d5bd14f71427d1e84f3dd0314c0f7b2291e5b200ac8c7c3b92560405160405180910390a45050565b60008060006131cb8585613cf1565b915091506131d881613d36565b509392505050565b61176282826040516024016131f6929190615403565b60408051601f198184030181529190526020810180516001600160e01b031663319af33360e01b179052613e80565b6000613230600a5490565b9050613240600a80546001019055565b600081815260166020526040902081815560018101849055600201805461ff00191661010060ff8516021790556132778582613e89565b611c4b8185613ea3565b60008061328d83611da5565b9050806001600160a01b0316846001600160a01b031614806132d457506001600160a01b0380821660009081526005602090815260408083209388168352929052205460ff165b8061129c5750836001600160a01b03166132ed84610e65565b6001600160a01b031614949350505050565b826001600160a01b031661331282611da5565b6001600160a01b0316146133385760405162461bcd60e51b8152600401610f009061542d565b6001600160a01b03821661339a5760405162461bcd60e51b8152602060048201526024808201527f4552433732313a207472616e7366657220746f20746865207a65726f206164646044820152637265737360e01b6064820152608401610f00565b6133a78383836001613f36565b826001600160a01b03166133ba82611da5565b6001600160a01b0316146133e05760405162461bcd60e51b8152600401610f009061542d565b600081815260046020908152604080832080546001600160a01b03199081169091556001600160a01b0387811680865260038552838620805460001901905590871680865283862080546001019055868652600290945282852080549092168417909155905184937fddf252ad1be2c89b69c2b068fc378daa952ba7f163c4a11628f55a4df523b3ef91a4505050565b60085460405163d3e6a7ad60e01b8152600481018690526001600160a01b0387811692169063d3e6a7ad90602401602060405180830381865afa1580156134bb573d6000803e3d6000fd5b505050506040513d601f19601f820116820180604052508101906134df9190615472565b6001600160a01b0316146135355760405162461bcd60e51b815260206004820152601760248201527f54686973207061636b206973206e6f7420796f7572732e0000000000000000006044820152606401610f00565b600f83511061357c5760405162461bcd60e51b815260206004820152601360248201527210d85c99081b1a5b5a5d08195e18d959591959606a1b6044820152606401610f00565b60135460ff16156136885760006135a18686866040516020016111b193929190614f7a565b905060006135e784848080601f01602080910402602001604051908101604052809392919081815260200183838082843760009201919091525086939250506131bc9050565b90506136286040518060400160405280601a81526020017f6f70656e207061636b207369676e6572207265636f7665726564000000000000815250826131e0565b6001600160a01b03811660009081526015602052604090205460ff166136855760405162461bcd60e51b815260206004820152601260248201527124b73b30b634b21039b4b3b730ba3ab9329760711b6044820152606401610f00565b50505b6008546040516380f2540b60e01b8152600481018690526001600160a01b038781166024830152909116906380f2540b90604401600060405180830381600087803b1580156136d657600080fd5b505af11580156136ea573d6000803e3d6000fd5b505050506006600c546136fd919061519b565b600c5461370a91906150b4565b600d600082825461371b9190615077565b9091555050825160005b818160ff1610156138ef57848160ff168151811061374557613745614e4f565b602002602001015160ff166078146137935761138960176000878460ff168151811061377357613773614e4f565b602002602001015160ff16815260200190815260200160002054106137c4565b607860005260176020527f1e0e657bdfc7d3d523657bb82aa6f2c628a4caf6e2f7839556e82479d4362f0654610bb9115b6138105760405162461bcd60e51b815260206004820152601e60248201527f696e76616c69642063617264496e76656e746f727920706f736974696f6e00006044820152606401610f00565b60176000868360ff168151811061382957613829614e4f565b602002602001015160ff1681526020019081526020016000206000815480929190613853906151af565b90915550506001600160a01b03871660009081526019602052604081208651909190879060ff851690811061388a5761388a614e4f565b602002602001015160ff1660ff168152602001908152602001600020600081819054906101000a900460ff16809291906138c390614eb4565b91906101000a81548160ff021916908360ff1602179055505080806138e790614eb4565b915050613725565b507fbabe8f5e83e93ab103ddf917b4292a19335a5128b3530bedd896a681cdd945e38685876040516139239392919061548f565b60405180910390a1505050505050565b611c9b81613fbe565b6007546001600160a01b03163314611fca5760405162461bcd60e51b815260206004820181905260248201527f4f776e61626c653a2063616c6c6572206973206e6f7420746865206f776e65726044820152606401610f00565b600780546001600160a01b038381166001600160a01b0319831681179093556040519116919082907f8be0079c531659141344cd1fd0a4f28419497f9722a3daafe3b4186f6b6457e090600090a35050565b816001600160a01b0316836001600160a01b031603613a495760405162461bcd60e51b815260206004820152601960248201527f4552433732313a20617070726f766520746f2063616c6c6572000000000000006044820152606401610f00565b6001600160a01b03838116600081815260056020908152604080832094871680845294825291829020805460ff191686151590811790915591519182527f17307eab39ab6107e8899845ad3d59bd9653f200f220920489ca2b5937696c31910160405180910390a3505050565b613ac18484846132ff565b613acd84848484613ffe565b6117a55760405162461bcd60e51b8152600401610f00906154c3565b606081600003613b105750506040805180820190915260018152600360fc1b602082015290565b8160005b8115613b3a5780613b24816151af565b9150613b339050600a8361519b565b9150613b14565b6000816001600160401b03811115613b5457613b54614832565b6040519080825280601f01601f191660200182016040528015613b7e576020820181803683370190505b5090505b841561129c57613b936001836150b4565b9150613ba0600a866150a0565b613bab906030615077565b60f81b818381518110613bc057613bc0614e4f565b60200101906001600160f81b031916908160001a905350613be2600a8661519b565b9450613b82565b6060613bf4826130ef565b60008281526006602052604081208054613c0d90614ed3565b80601f0160208091040260200160405190810160405280929190818152602001828054613c3990614ed3565b8015613c865780601f10613c5b57610100808354040283529160200191613c86565b820191906000526020600020905b815481529060010190602001808311613c6957829003601f168201915b505050505090506000613ca460408051602081019091526000815290565b90508051600003613cb6575092915050565b815115613ce8578082604051602001613cd0929190615515565b60405160208183030381529060405292505050919050565b61129c846140fc565b6000808251604103613d275760208301516040840151606085015160001a613d1b87828585614170565b94509450505050613d2f565b506000905060025b9250929050565b6000816004811115613d4a57613d4a615544565b03613d525750565b6001816004811115613d6657613d66615544565b03613db35760405162461bcd60e51b815260206004820152601860248201527f45434453413a20696e76616c6964207369676e617475726500000000000000006044820152606401610f00565b6002816004811115613dc757613dc7615544565b03613e145760405162461bcd60e51b815260206004820152601f60248201527f45434453413a20696e76616c6964207369676e6174757265206c656e677468006044820152606401610f00565b6003816004811115613e2857613e28615544565b03611c9b5760405162461bcd60e51b815260206004820152602260248201527f45434453413a20696e76616c6964207369676e6174757265202773272076616c604482015261756560f01b6064820152608401610f00565b611c9b81614234565b611762828260405180602001604052806000815250614255565b6000828152600260205260409020546001600160a01b0316613f1e5760405162461bcd60e51b815260206004820152602e60248201527f45524337323155524953746f726167653a2055524920736574206f66206e6f6e60448201526d32bc34b9ba32b73a103a37b5b2b760911b6064820152608401610f00565b6000828152600660205260409020610fa18282615267565b60018111156117a5576001600160a01b03841615613f7c576001600160a01b03841660009081526003602052604081208054839290613f769084906150b4565b90915550505b6001600160a01b038316156117a5576001600160a01b03831660009081526003602052604081208054839290613fb3908490615077565b909155505050505050565b613fc781614288565b60008181526006602052604090208054613fe090614ed3565b159050611c9b576000818152600660205260408120611c9b9161462e565b60006001600160a01b0384163b156140f457604051630a85bd0160e11b81526001600160a01b0385169063150b7a029061404290339089908890889060040161555a565b6020604051808303816000875af192505050801561407d575060408051601f3d908101601f1916820190925261407a91810190615597565b60015b6140da573d8080156140ab576040519150601f19603f3d011682016040523d82523d6000602084013e6140b0565b606091505b5080516000036140d25760405162461bcd60e51b8152600401610f00906154c3565b805181602001fd5b6001600160e01b031916630a85bd0160e11b14905061129c565b50600161129c565b6060614107826130ef565b600061411e60408051602081019091526000815290565b9050600081511161413e5760405180602001604052806000815250614169565b806141488461432b565b604051602001614159929190615515565b6040516020818303038152906040525b9392505050565b6000807f7fffffffffffffffffffffffffffffff5d576e7357a4501ddfe92f46681b20a08311156141a7575060009050600361422b565b6040805160008082526020820180845289905260ff881692820192909252606081018690526080810185905260019060a0016020604051602081039080840390855afa1580156141fb573d6000803e3d6000fd5b5050604051601f1901519150506001600160a01b0381166142245760006001925092505061422b565b9150600090505b94509492505050565b60006a636f6e736f6c652e6c6f679050600080835160208501845afa505050565b61425f83836143bd565b61426c6000848484613ffe565b610fa15760405162461bcd60e51b8152600401610f00906154c3565b600061429382611da5565b90506142a3816000846001613f36565b6142ac82611da5565b600083815260046020908152604080832080546001600160a01b03199081169091556001600160a01b0385168085526003845282852080546000190190558785526002909352818420805490911690555192935084927fddf252ad1be2c89b69c2b068fc378daa952ba7f163c4a11628f55a4df523b3ef908390a45050565b6060600061433883614556565b60010190506000816001600160401b0381111561435757614357614832565b6040519080825280601f01601f191660200182016040528015614381576020820181803683370190505b5090508181016020015b600019016f181899199a1a9b1b9c1cb0b131b232b360811b600a86061a8153600a850494508461438b57509392505050565b6001600160a01b0382166144135760405162461bcd60e51b815260206004820181905260248201527f4552433732313a206d696e7420746f20746865207a65726f20616464726573736044820152606401610f00565b6000818152600260205260409020546001600160a01b0316156144785760405162461bcd60e51b815260206004820152601c60248201527f4552433732313a20746f6b656e20616c7265616479206d696e746564000000006044820152606401610f00565b614486600083836001613f36565b6000818152600260205260409020546001600160a01b0316156144eb5760405162461bcd60e51b815260206004820152601c60248201527f4552433732313a20746f6b656e20616c7265616479206d696e746564000000006044820152606401610f00565b6001600160a01b038216600081815260036020908152604080832080546001019055848352600290915280822080546001600160a01b0319168417905551839291907fddf252ad1be2c89b69c2b068fc378daa952ba7f163c4a11628f55a4df523b3ef908290a45050565b60008072184f03e93ff9f4daa797ed6e38ed64bf6a1f0160401b83106145955772184f03e93ff9f4daa797ed6e38ed64bf6a1f0160401b830492506040015b6d04ee2d6d415b85acef810000000083106145c1576d04ee2d6d415b85acef8100000000830492506020015b662386f26fc1000083106145df57662386f26fc10000830492506010015b6305f5e10083106145f7576305f5e100830492506008015b612710831061460b57612710830492506004015b6064831061461d576064830492506002015b600a8310610a105760010192915050565b50805461463a90614ed3565b6000825580601f1061464a575050565b601f016020900490600052602060002090810190611c9b91905b808211156146785760008155600101614664565b5090565b6001600160e01b031981168114611c9b57600080fd5b6000602082840312156146a457600080fd5b81356141698161467c565b6001600160a01b0381168114611c9b57600080fd5b6000602082840312156146d657600080fd5b8135614169816146af565b600081518084526020808501945080840160005b8381101561471457815160ff16875295820195908201906001016146f5565b509495945050505050565b60608152600061473260608301866146e1565b60208382038185015261474582876146e1565b8481036040860152855180825282870193509082019060005b8181101561477c57845115158352938301939183019160010161475e565b509098975050505050505050565b60005b838110156147a557818101518382015260200161478d565b50506000910152565b600081518084526147c681602086016020860161478a565b601f01601f19169290920160200192915050565b60208152600061416960208301846147ae565b6000602082840312156147ff57600080fd5b5035919050565b6000806040838503121561481957600080fd5b8235614824816146af565b946020939093013593505050565b634e487b7160e01b600052604160045260246000fd5b604051601f8201601f191681016001600160401b038111828210171561487057614870614832565b604052919050565b803560ff8116811461488957600080fd5b919050565b600082601f83011261489f57600080fd5b813560206001600160401b038211156148ba576148ba614832565b8160051b6148c9828201614848565b92835284810182019282810190878511156148e357600080fd5b83870192505b84831015614909576148fa83614878565b825291830191908301906148e9565b979650505050505050565b60008083601f84011261492657600080fd5b5081356001600160401b0381111561493d57600080fd5b602083019150836020828501011115613d2f57600080fd5b6000806000806060858703121561496b57600080fd5b8435935060208501356001600160401b038082111561498957600080fd5b6149958883890161488e565b945060408701359150808211156149ab57600080fd5b506149b887828801614914565b95989497509550505050565b600080604083850312156149d757600080fd5b82356149e2816146af565b91506149f060208401614878565b90509250929050565b60008083601f840112614a0b57600080fd5b5081356001600160401b03811115614a2257600080fd5b6020830191508360208260051b8501011115613d2f57600080fd5b60008060208385031215614a5057600080fd5b82356001600160401b03811115614a6657600080fd5b614a72858286016149f9565b90969095509350505050565b600080600060608486031215614a9357600080fd5b8335614a9e816146af565b92506020840135614aae816146af565b929592945050506040919091013590565b600080600060608486031215614ad457600080fd5b8335614adf816146af565b92506020840135915060408401356001600160401b03811115614b0157600080fd5b614b0d8682870161488e565b9150509250925092565b8015158114611c9b57600080fd5b600060208284031215614b3757600080fd5b813561416981614b17565b60006001600160401b03831115614b5b57614b5b614832565b614b6e601f8401601f1916602001614848565b9050828152838383011115614b8257600080fd5b828260208301376000602084830101529392505050565b600082601f830112614baa57600080fd5b61416983833560208501614b42565b60008060408385031215614bcc57600080fd5b82356001600160401b0380821115614be357600080fd5b614bef86838701614b99565b93506020850135915080821115614c0557600080fd5b50614c1285828601614b99565b9150509250929050565b600080600060408486031215614c3157600080fd5b8335614c3c816146af565b925060208401356001600160401b03811115614c5757600080fd5b614c63868287016149f9565b9497909650939450505050565b60008060408385031215614c8357600080fd5b8235614c8e816146af565b91506020830135614c9e81614b17565b809150509250929050565b60008060008060808587031215614cbf57600080fd5b8435614cca816146af565b9350614cd860208601614878565b92506040850135614ce8816146af565b9150614cf660608601614878565b905092959194509250565b60008060008060808587031215614d1757600080fd5b8435614d22816146af565b93506020850135614d32816146af565b92506040850135915060608501356001600160401b03811115614d5457600080fd5b8501601f81018713614d6557600080fd5b614d7487823560208401614b42565b91505092959194509250565b600060208284031215614d9257600080fd5b61416982614878565b600080600080600060808688031215614db357600080fd5b8535614dbe816146af565b94506020860135935060408601356001600160401b0380821115614de157600080fd5b614ded89838a0161488e565b94506060880135915080821115614e0357600080fd5b50614e1088828901614914565b969995985093965092949392505050565b60008060408385031215614e3457600080fd5b8235614e3f816146af565b91506020830135614c9e816146af565b634e487b7160e01b600052603260045260246000fd5b6001600160a01b0392909216825260ff16602082015260400190565b600060208284031215614e9357600080fd5b815161416981614b17565b634e487b7160e01b600052601160045260246000fd5b600060ff821660ff8103614eca57614eca614e9e565b60010192915050565b600181811c90821680614ee757607f821691505b602082108103614f0757634e487b7160e01b600052602260045260246000fd5b50919050565b60208082526023908201527f4f6e6c79206f776e6572732063616e2063616c6c20746869732066756e63746960408201526237b71760e91b606082015260800190565b60208082526010908201526f24b73b30b634b21030b2323932b9b99760811b604082015260600190565b6bffffffffffffffffffffffff198460601b1681528260148201526000603482018351602080860160005b83811015614fc457815160ff1685529382019390820190600101614fa5565b50507f30786631644437313839356534396231353633363933393639646535303839388352693139376344463334383160b01b9083015250602a0195945050505050565b60208082526032908201527f4f6e6c792067616d6d61206f666665727320636f6e74726163742063616e206360408201527130b636103a3434b990333ab731ba34b7b71760711b606082015260800190565b600060ff82168061506d5761506d614e9e565b6000190192915050565b80820180821115610a1057610a10614e9e565b634e487b7160e01b600052601260045260246000fd5b6000826150af576150af61508a565b500690565b81810381811115610a1057610a10614e9e565b6020808252602d908201527f4552433732313a2063616c6c6572206973206e6f7420746f6b656e206f776e6560408201526c1c881bdc88185c1c1c9bdd9959609a1b606082015260800190565b6020808252601c908201527f596f7520646f6573206e6f742068617665207468697320636172642e00000000604082015260600190565b60208082526030908201527f5468697320636172642068617320616e206f666665722c2069742063616e6e6f60408201526f3a103132903a3930b739b332b932b21760811b606082015260800190565b6000826151aa576151aa61508a565b500490565b6000600182016151c1576151c1614e9e565b5060010190565b60208082526031908201527f4f6e6c792067616d6d61207061636b7320636f6e74726163742063616e2063616040820152703636103a3434b990333ab731ba34b7b71760791b606082015260800190565b601f821115610fa157600081815260208120601f850160051c810160208610156152405750805b601f850160051c820191505b8181101561525f5782815560010161524c565b505050505050565b81516001600160401b0381111561528057615280614832565b6152948161528e8454614ed3565b84615219565b602080601f8311600181146152c957600084156152b15750858301515b600019600386901b1c1916600185901b17855561525f565b600085815260208120601f198616915b828110156152f8578886015182559484019460019091019084016152d9565b50858210156153165787850151600019600388901b60f8161c191681555b5050505050600190811b01905550565b60408152600061533960408301856147ae565b828103602084015261534b81856147ae565b95945050505050565b600080865461536281614ed3565b6001828116801561537a576001811461538f576153be565b60ff19841687528215158302870194506153be565b8a60005260208060002060005b858110156153b55781548a82015290840190820161539c565b50505082870194505b5050505085516153d2818360208a0161478a565b85519101906153e581836020890161478a565b84519101906153f881836020880161478a565b019695505050505050565b60408152600061541660408301856147ae565b905060018060a01b03831660208301529392505050565b60208082526025908201527f4552433732313a207472616e736665722066726f6d20696e636f72726563742060408201526437bbb732b960d91b606082015260800190565b60006020828403121561548457600080fd5b8151614169816146af565b6001600160a01b03841681526060602082018190526000906154b3908301856146e1565b9050826040830152949350505050565b60208082526032908201527f4552433732313a207472616e7366657220746f206e6f6e20455243373231526560408201527131b2b4bb32b91034b6b83632b6b2b73a32b960711b606082015260800190565b6000835161552781846020880161478a565b83519083019061553b81836020880161478a565b01949350505050565b634e487b7160e01b600052602160045260246000fd5b6001600160a01b038581168252841660208201526040810183905260806060820181905260009061558d908301846147ae565b9695505050505050565b6000602082840312156155a957600080fd5b81516141698161467c56fea264697066735822122067e80ffd9ddb31fb3dcfece9e91d3957eaf36c67a934956fb854175b492de58864736f6c63430008120033",
  "linkReferences": {},
  "deployedLinkReferences": {}
}