{
  "_format": "hh-sol-artifact-1",
  "contractName": "NofGammaCardsV5",
  "sourceName": "contracts/gamma/GammaCards.v5.sol",
  "abi": [
    {
      "inputs": [],
      "name": "CannotRemoveUserOffers",
      "type": "error"
    },
    {
      "inputs": [],
      "name": "CardLimitExceeded",
      "type": "error"
    },
    {
      "inputs": [],
      "name": "IncorrectPrizeAmount",
      "type": "error"
    },
    {
      "inputs": [],
      "name": "InsufficientCards",
      "type": "error"
    },
    {
      "inputs": [],
      "name": "InsufficientFunds",
      "type": "error"
    },
    {
      "inputs": [],
      "name": "InvalidAddress",
      "type": "error"
    },
    {
      "inputs": [],
      "name": "InvalidCardNumber",
      "type": "error"
    },
    {
      "inputs": [],
      "name": "InvalidSignature",
      "type": "error"
    },
    {
      "inputs": [],
      "name": "InvalidTransfer",
      "type": "error"
    },
    {
      "inputs": [],
      "name": "MustCompleteAlbum",
      "type": "error"
    },
    {
      "inputs": [],
      "name": "NotYourPack",
      "type": "error"
    },
    {
      "inputs": [],
      "name": "OnlyGammaPacksContract",
      "type": "error"
    },
    {
      "inputs": [],
      "name": "OnlyOffersContract",
      "type": "error"
    },
    {
      "inputs": [],
      "name": "OnlyOwners",
      "type": "error"
    },
    {
      "inputs": [],
      "name": "UserDoesNotHaveCardOrAlbum",
      "type": "error"
    },
    {
      "inputs": [],
      "name": "WrongPacksQuantity",
      "type": "error"
    },
    {
      "anonymous": false,
      "inputs": [
        {
          "indexed": true,
          "internalType": "address",
          "name": "player",
          "type": "address"
        },
        {
          "indexed": true,
          "internalType": "uint8",
          "name": "albumClass",
          "type": "uint8"
        }
      ],
      "name": "AlbumCompleted",
      "type": "event"
    },
    {
      "anonymous": false,
      "inputs": [
        {
          "indexed": true,
          "internalType": "address",
          "name": "owner",
          "type": "address"
        },
        {
          "indexed": true,
          "internalType": "address",
          "name": "approved",
          "type": "address"
        },
        {
          "indexed": true,
          "internalType": "uint256",
          "name": "tokenId",
          "type": "uint256"
        }
      ],
      "name": "Approval",
      "type": "event"
    },
    {
      "anonymous": false,
      "inputs": [
        {
          "indexed": true,
          "internalType": "address",
          "name": "owner",
          "type": "address"
        },
        {
          "indexed": true,
          "internalType": "address",
          "name": "operator",
          "type": "address"
        },
        {
          "indexed": false,
          "internalType": "bool",
          "name": "approved",
          "type": "bool"
        }
      ],
      "name": "ApprovalForAll",
      "type": "event"
    },
    {
      "anonymous": false,
      "inputs": [
        {
          "indexed": false,
          "internalType": "uint256",
          "name": "_fromTokenId",
          "type": "uint256"
        },
        {
          "indexed": false,
          "internalType": "uint256",
          "name": "_toTokenId",
          "type": "uint256"
        }
      ],
      "name": "BatchMetadataUpdate",
      "type": "event"
    },
    {
      "anonymous": false,
      "inputs": [
        {
          "indexed": true,
          "internalType": "address",
          "name": "player",
          "type": "address"
        },
        {
          "indexed": true,
          "internalType": "uint256",
          "name": "cardTokenId",
          "type": "uint256"
        },
        {
          "indexed": true,
          "internalType": "uint256",
          "name": "albumTokenId",
          "type": "uint256"
        }
      ],
      "name": "CardPasted",
      "type": "event"
    },
    {
      "anonymous": false,
      "inputs": [
        {
          "indexed": true,
          "internalType": "address",
          "name": "from",
          "type": "address"
        },
        {
          "indexed": true,
          "internalType": "address",
          "name": "to",
          "type": "address"
        },
        {
          "indexed": false,
          "internalType": "uint8",
          "name": "cardNumber",
          "type": "uint8"
        }
      ],
      "name": "CardTransfered",
      "type": "event"
    },
    {
      "anonymous": false,
      "inputs": [
        {
          "indexed": true,
          "internalType": "address",
          "name": "user",
          "type": "address"
        },
        {
          "indexed": true,
          "internalType": "uint8[]",
          "name": "cardsNumber",
          "type": "uint8[]"
        }
      ],
      "name": "CardsBurned",
      "type": "event"
    },
    {
      "anonymous": false,
      "inputs": [
        {
          "indexed": true,
          "internalType": "address",
          "name": "from",
          "type": "address"
        },
        {
          "indexed": true,
          "internalType": "address",
          "name": "to",
          "type": "address"
        },
        {
          "indexed": true,
          "internalType": "uint8[]",
          "name": "cardNumber",
          "type": "uint8[]"
        }
      ],
      "name": "CardsTransfered",
      "type": "event"
    },
    {
      "anonymous": false,
      "inputs": [
        {
          "indexed": true,
          "internalType": "address",
          "name": "receiver",
          "type": "address"
        },
        {
          "indexed": true,
          "internalType": "uint256",
          "name": "amount",
          "type": "uint256"
        }
      ],
      "name": "EmergencyWithdrawal",
      "type": "event"
    },
    {
      "anonymous": false,
      "inputs": [
        {
          "indexed": false,
          "internalType": "uint256",
          "name": "_tokenId",
          "type": "uint256"
        }
      ],
      "name": "MetadataUpdate",
      "type": "event"
    },
    {
      "anonymous": false,
      "inputs": [
        {
          "indexed": true,
          "internalType": "address",
          "name": "newGammaOffersContract",
          "type": "address"
        }
      ],
      "name": "NewGammaOffersContract",
      "type": "event"
    },
    {
      "anonymous": false,
      "inputs": [
        {
          "indexed": true,
          "internalType": "address",
          "name": "newGammaPacksContract",
          "type": "address"
        }
      ],
      "name": "NewGammaPacksContract",
      "type": "event"
    },
    {
      "anonymous": false,
      "inputs": [
        {
          "indexed": true,
          "internalType": "address",
          "name": "newGammaTicketContract",
          "type": "address"
        }
      ],
      "name": "NewGammaTicketsContract",
      "type": "event"
    },
    {
      "anonymous": false,
      "inputs": [
        {
          "indexed": true,
          "internalType": "address",
          "name": "newSigner",
          "type": "address"
        }
      ],
      "name": "NewSigner",
      "type": "event"
    },
    {
      "anonymous": false,
      "inputs": [
        {
          "indexed": true,
          "internalType": "string",
          "name": "newMainUri",
          "type": "string"
        },
        {
          "indexed": true,
          "internalType": "string",
          "name": "newSecondaryUri",
          "type": "string"
        }
      ],
      "name": "NewUris",
      "type": "event"
    },
    {
      "anonymous": false,
      "inputs": [
        {
          "indexed": true,
          "internalType": "address",
          "name": "from",
          "type": "address"
        },
        {
          "indexed": true,
          "internalType": "address",
          "name": "to",
          "type": "address"
        },
        {
          "indexed": false,
          "internalType": "uint8",
          "name": "cardNumberFrom",
          "type": "uint8"
        },
        {
          "indexed": false,
          "internalType": "uint8",
          "name": "cardNumberTo",
          "type": "uint8"
        }
      ],
      "name": "OfferCardsExchanged",
      "type": "event"
    },
    {
      "anonymous": false,
      "inputs": [
        {
          "indexed": true,
          "internalType": "address",
          "name": "previousOwner",
          "type": "address"
        },
        {
          "indexed": true,
          "internalType": "address",
          "name": "newOwner",
          "type": "address"
        }
      ],
      "name": "OwnershipTransferred",
      "type": "event"
    },
    {
      "anonymous": false,
      "inputs": [
        {
          "indexed": true,
          "internalType": "address",
          "name": "player",
          "type": "address"
        },
        {
          "indexed": true,
          "internalType": "uint8[]",
          "name": "packData",
          "type": "uint8[]"
        },
        {
          "indexed": true,
          "internalType": "uint256",
          "name": "packNumber",
          "type": "uint256"
        }
      ],
      "name": "PackOpened",
      "type": "event"
    },
    {
      "anonymous": false,
      "inputs": [
        {
          "indexed": true,
          "internalType": "address",
          "name": "from",
          "type": "address"
        },
        {
          "indexed": true,
          "internalType": "address",
          "name": "to",
          "type": "address"
        },
        {
          "indexed": true,
          "internalType": "uint256",
          "name": "tokenId",
          "type": "uint256"
        }
      ],
      "name": "Transfer",
      "type": "event"
    },
    {
      "inputs": [],
      "name": "DAI_TOKEN",
      "outputs": [
        {
          "internalType": "address",
          "name": "",
          "type": "address"
        }
      ],
      "stateMutability": "view",
      "type": "function"
    },
    {
      "inputs": [
        {
          "internalType": "address",
          "name": "_newOwner",
          "type": "address"
        }
      ],
      "name": "addOwner",
      "outputs": [],
      "stateMutability": "nonpayable",
      "type": "function"
    },
    {
      "inputs": [
        {
          "internalType": "address",
          "name": "_newSigner",
          "type": "address"
        }
      ],
      "name": "addSigner",
      "outputs": [],
      "stateMutability": "nonpayable",
      "type": "function"
    },
    {
      "inputs": [
        {
          "internalType": "address",
          "name": "to",
          "type": "address"
        },
        {
          "internalType": "uint256",
          "name": "tokenId",
          "type": "uint256"
        }
      ],
      "name": "approve",
      "outputs": [],
      "stateMutability": "nonpayable",
      "type": "function"
    },
    {
      "inputs": [
        {
          "internalType": "address",
          "name": "owner",
          "type": "address"
        }
      ],
      "name": "balanceOf",
      "outputs": [
        {
          "internalType": "uint256",
          "name": "",
          "type": "uint256"
        }
      ],
      "stateMutability": "view",
      "type": "function"
    },
    {
      "inputs": [
        {
          "internalType": "uint256",
          "name": "tokenId",
          "type": "uint256"
        }
      ],
      "name": "burn",
      "outputs": [],
      "stateMutability": "nonpayable",
      "type": "function"
    },
    {
      "inputs": [
        {
          "internalType": "uint8[]",
          "name": "cardNumbers",
          "type": "uint8[]"
        }
      ],
      "name": "burnCards",
      "outputs": [],
      "stateMutability": "nonpayable",
      "type": "function"
    },
    {
      "inputs": [
        {
          "internalType": "uint8",
          "name": "_maxPacksToOpenAtOnce",
          "type": "uint8"
        }
      ],
      "name": "changeMaxPacksToOpenAtOnce",
      "outputs": [],
      "stateMutability": "nonpayable",
      "type": "function"
    },
    {
      "inputs": [
        {
          "internalType": "uint256",
          "name": "newPackPrice",
          "type": "uint256"
        }
      ],
      "name": "changePackPrice",
      "outputs": [],
      "stateMutability": "nonpayable",
      "type": "function"
    },
    {
      "inputs": [
        {
          "internalType": "bool",
          "name": "required",
          "type": "bool"
        }
      ],
      "name": "changeRequireOfferValidationInMint",
      "outputs": [],
      "stateMutability": "nonpayable",
      "type": "function"
    },
    {
      "inputs": [
        {
          "internalType": "bool",
          "name": "required",
          "type": "bool"
        }
      ],
      "name": "changeRequireOfferValidationInTransfer",
      "outputs": [],
      "stateMutability": "nonpayable",
      "type": "function"
    },
    {
      "inputs": [
        {
          "internalType": "bool",
          "name": "required",
          "type": "bool"
        }
      ],
      "name": "changeRequireOpenPackSignerValidation",
      "outputs": [],
      "stateMutability": "nonpayable",
      "type": "function"
    },
    {
      "inputs": [
        {
          "internalType": "uint256",
          "name": "amount",
          "type": "uint256"
        }
      ],
      "name": "emergencyWithdraw",
      "outputs": [],
      "stateMutability": "nonpayable",
      "type": "function"
    },
    {
      "inputs": [
        {
          "internalType": "address",
          "name": "from",
          "type": "address"
        },
        {
          "internalType": "uint8",
          "name": "cardNumberFrom",
          "type": "uint8"
        },
        {
          "internalType": "address",
          "name": "to",
          "type": "address"
        },
        {
          "internalType": "uint8",
          "name": "cardNumberTo",
          "type": "uint8"
        }
      ],
      "name": "exchangeCardsOffer",
      "outputs": [],
      "stateMutability": "nonpayable",
      "type": "function"
    },
    {
      "inputs": [],
      "name": "finishAlbum",
      "outputs": [
        {
          "internalType": "bool",
          "name": "",
          "type": "bool"
        }
      ],
      "stateMutability": "nonpayable",
      "type": "function"
    },
    {
      "inputs": [],
      "name": "gammaOffersContract",
      "outputs": [
        {
          "internalType": "contract IgammaOffersContract",
          "name": "",
          "type": "address"
        }
      ],
      "stateMutability": "view",
      "type": "function"
    },
    {
      "inputs": [],
      "name": "gammaPacksContract",
      "outputs": [
        {
          "internalType": "contract IgammaPacksContract",
          "name": "",
          "type": "address"
        }
      ],
      "stateMutability": "view",
      "type": "function"
    },
    {
      "inputs": [],
      "name": "gammaTicketsContract",
      "outputs": [
        {
          "internalType": "contract IgammaTicketsContract",
          "name": "",
          "type": "address"
        }
      ],
      "stateMutability": "view",
      "type": "function"
    },
    {
      "inputs": [
        {
          "internalType": "uint256",
          "name": "tokenId",
          "type": "uint256"
        }
      ],
      "name": "getApproved",
      "outputs": [
        {
          "internalType": "address",
          "name": "",
          "type": "address"
        }
      ],
      "stateMutability": "view",
      "type": "function"
    },
    {
      "inputs": [
        {
          "internalType": "address",
          "name": "user",
          "type": "address"
        }
      ],
      "name": "getBurnedCardQttyByUser",
      "outputs": [
        {
          "internalType": "uint256",
          "name": "",
          "type": "uint256"
        }
      ],
      "stateMutability": "view",
      "type": "function"
    },
    {
      "inputs": [
        {
          "internalType": "address",
          "name": "user",
          "type": "address"
        },
        {
          "internalType": "uint8",
          "name": "cardNum",
          "type": "uint8"
        }
      ],
      "name": "getCardQuantityByUser",
      "outputs": [
        {
          "internalType": "uint8",
          "name": "",
          "type": "uint8"
        }
      ],
      "stateMutability": "view",
      "type": "function"
    },
    {
      "inputs": [
        {
          "internalType": "address",
          "name": "user",
          "type": "address"
        }
      ],
      "name": "getCardsByUser",
      "outputs": [
        {
          "internalType": "uint8[]",
          "name": "",
          "type": "uint8[]"
        },
        {
          "internalType": "uint8[]",
          "name": "",
          "type": "uint8[]"
        },
        {
          "internalType": "bool[]",
          "name": "",
          "type": "bool[]"
        }
      ],
      "stateMutability": "view",
      "type": "function"
    },
    {
      "inputs": [],
      "name": "getLotteryPrize",
      "outputs": [
        {
          "internalType": "uint256",
          "name": "",
          "type": "uint256"
        }
      ],
      "stateMutability": "view",
      "type": "function"
    },
    {
      "inputs": [
        {
          "internalType": "address",
          "name": "user",
          "type": "address"
        },
        {
          "internalType": "uint8",
          "name": "cardNum",
          "type": "uint8"
        }
      ],
      "name": "hasCard",
      "outputs": [
        {
          "internalType": "bool",
          "name": "has",
          "type": "bool"
        }
      ],
      "stateMutability": "view",
      "type": "function"
    },
    {
      "inputs": [
        {
          "internalType": "address",
          "name": "user",
          "type": "address"
        },
        {
          "internalType": "uint8",
          "name": "cardNumber",
          "type": "uint8"
        }
      ],
      "name": "hasCardByOffer",
      "outputs": [
        {
          "internalType": "bool",
          "name": "has",
          "type": "bool"
        }
      ],
      "stateMutability": "view",
      "type": "function"
    },
    {
      "inputs": [
        {
          "internalType": "address",
          "name": "_daiTokenAddress",
          "type": "address"
        },
        {
          "internalType": "address",
          "name": "_gammaPacksContract",
          "type": "address"
        },
        {
          "internalType": "address",
          "name": "_gammaOffersContract",
          "type": "address"
        },
        {
          "internalType": "address",
          "name": "_gammaTicketsContract",
          "type": "address"
        },
        {
          "internalType": "string",
          "name": "_baseUri",
          "type": "string"
        },
        {
          "internalType": "address",
          "name": "_signer",
          "type": "address"
        }
      ],
      "name": "init",
      "outputs": [],
      "stateMutability": "nonpayable",
      "type": "function"
    },
    {
      "inputs": [
        {
          "internalType": "address",
          "name": "owner",
          "type": "address"
        },
        {
          "internalType": "address",
          "name": "operator",
          "type": "address"
        }
      ],
      "name": "isApprovedForAll",
      "outputs": [
        {
          "internalType": "bool",
          "name": "",
          "type": "bool"
        }
      ],
      "stateMutability": "view",
      "type": "function"
    },
    {
      "inputs": [
        {
          "internalType": "address",
          "name": "user",
          "type": "address"
        }
      ],
      "name": "isOwner",
      "outputs": [
        {
          "internalType": "bool",
          "name": "",
          "type": "bool"
        }
      ],
      "stateMutability": "view",
      "type": "function"
    },
    {
      "inputs": [
        {
          "internalType": "address",
          "name": "user",
          "type": "address"
        }
      ],
      "name": "isSigner",
      "outputs": [
        {
          "internalType": "bool",
          "name": "",
          "type": "bool"
        }
      ],
      "stateMutability": "view",
      "type": "function"
    },
    {
      "inputs": [
        {
          "internalType": "uint8",
          "name": "cardNum",
          "type": "uint8"
        }
      ],
      "name": "mintCard",
      "outputs": [],
      "stateMutability": "nonpayable",
      "type": "function"
    },
    {
      "inputs": [],
      "name": "name",
      "outputs": [
        {
          "internalType": "string",
          "name": "",
          "type": "string"
        }
      ],
      "stateMutability": "view",
      "type": "function"
    },
    {
      "inputs": [
        {
          "internalType": "uint256",
          "name": "packNumber",
          "type": "uint256"
        },
        {
          "internalType": "uint8[]",
          "name": "packData",
          "type": "uint8[]"
        },
        {
          "internalType": "bytes",
          "name": "signature",
          "type": "bytes"
        }
      ],
      "name": "openPack",
      "outputs": [],
      "stateMutability": "nonpayable",
      "type": "function"
    },
    {
      "inputs": [
        {
          "internalType": "uint8",
          "name": "packsQuantity",
          "type": "uint8"
        },
        {
          "internalType": "uint256[]",
          "name": "packsNumber",
          "type": "uint256[]"
        },
        {
          "internalType": "uint8[][]",
          "name": "packsData",
          "type": "uint8[][]"
        },
        {
          "internalType": "bytes[]",
          "name": "signatures",
          "type": "bytes[]"
        }
      ],
      "name": "openPacks",
      "outputs": [],
      "stateMutability": "nonpayable",
      "type": "function"
    },
    {
      "inputs": [],
      "name": "owner",
      "outputs": [
        {
          "internalType": "address",
          "name": "",
          "type": "address"
        }
      ],
      "stateMutability": "view",
      "type": "function"
    },
    {
      "inputs": [
        {
          "internalType": "uint256",
          "name": "tokenId",
          "type": "uint256"
        }
      ],
      "name": "ownerOf",
      "outputs": [
        {
          "internalType": "address",
          "name": "",
          "type": "address"
        }
      ],
      "stateMutability": "view",
      "type": "function"
    },
    {
      "inputs": [
        {
          "internalType": "address",
          "name": "user",
          "type": "address"
        },
        {
          "internalType": "uint8",
          "name": "cardNumber",
          "type": "uint8"
        }
      ],
      "name": "removeCardByOffer",
      "outputs": [],
      "stateMutability": "nonpayable",
      "type": "function"
    },
    {
      "inputs": [
        {
          "internalType": "address",
          "name": "_ownerToRemove",
          "type": "address"
        }
      ],
      "name": "removeOwner",
      "outputs": [],
      "stateMutability": "nonpayable",
      "type": "function"
    },
    {
      "inputs": [
        {
          "internalType": "address",
          "name": "_signerToRemove",
          "type": "address"
        }
      ],
      "name": "removeSigner",
      "outputs": [],
      "stateMutability": "nonpayable",
      "type": "function"
    },
    {
      "inputs": [],
      "name": "renounceOwnership",
      "outputs": [],
      "stateMutability": "nonpayable",
      "type": "function"
    },
    {
      "inputs": [
        {
          "internalType": "address",
          "name": "user",
          "type": "address"
        },
        {
          "internalType": "uint8",
          "name": "cardNumber",
          "type": "uint8"
        }
      ],
      "name": "restoreCardByOffer",
      "outputs": [],
      "stateMutability": "nonpayable",
      "type": "function"
    },
    {
      "inputs": [],
      "name": "s_baseUri",
      "outputs": [
        {
          "internalType": "string",
          "name": "",
          "type": "string"
        }
      ],
      "stateMutability": "view",
      "type": "function"
    },
    {
      "inputs": [
        {
          "internalType": "address",
          "name": "user",
          "type": "address"
        }
      ],
      "name": "s_burnedCards",
      "outputs": [
        {
          "internalType": "uint256",
          "name": "amount",
          "type": "uint256"
        }
      ],
      "stateMutability": "view",
      "type": "function"
    },
    {
      "inputs": [
        {
          "internalType": "uint256",
          "name": "tokenId",
          "type": "uint256"
        }
      ],
      "name": "s_cards",
      "outputs": [
        {
          "internalType": "uint256",
          "name": "tokenId",
          "type": "uint256"
        },
        {
          "internalType": "uint256",
          "name": "number",
          "type": "uint256"
        },
        {
          "internalType": "bool",
          "name": "pasted",
          "type": "bool"
        },
        {
          "internalType": "uint8",
          "name": "class",
          "type": "uint8"
        },
        {
          "internalType": "uint256",
          "name": "completion",
          "type": "uint256"
        }
      ],
      "stateMutability": "view",
      "type": "function"
    },
    {
      "inputs": [
        {
          "internalType": "address",
          "name": "user",
          "type": "address"
        },
        {
          "internalType": "uint8",
          "name": "cardNumber",
          "type": "uint8"
        }
      ],
      "name": "s_cardsByUser",
      "outputs": [
        {
          "internalType": "uint8",
          "name": "amount",
          "type": "uint8"
        }
      ],
      "stateMutability": "view",
      "type": "function"
    },
    {
      "inputs": [
        {
          "internalType": "uint256",
          "name": "cardNumber",
          "type": "uint256"
        }
      ],
      "name": "s_cardsInventory",
      "outputs": [
        {
          "internalType": "uint256",
          "name": "amount",
          "type": "uint256"
        }
      ],
      "stateMutability": "view",
      "type": "function"
    },
    {
      "inputs": [],
      "name": "s_lotteryPrizePercentage",
      "outputs": [
        {
          "internalType": "uint8",
          "name": "",
          "type": "uint8"
        }
      ],
      "stateMutability": "view",
      "type": "function"
    },
    {
      "inputs": [],
      "name": "s_mainAlbumPrize",
      "outputs": [
        {
          "internalType": "uint256",
          "name": "",
          "type": "uint256"
        }
      ],
      "stateMutability": "view",
      "type": "function"
    },
    {
      "inputs": [],
      "name": "s_mainUri",
      "outputs": [
        {
          "internalType": "string",
          "name": "",
          "type": "string"
        }
      ],
      "stateMutability": "view",
      "type": "function"
    },
    {
      "inputs": [],
      "name": "s_maxPacksToOpenAtOnce",
      "outputs": [
        {
          "internalType": "uint8",
          "name": "",
          "type": "uint8"
        }
      ],
      "stateMutability": "view",
      "type": "function"
    },
    {
      "inputs": [],
      "name": "s_packPrice",
      "outputs": [
        {
          "internalType": "uint256",
          "name": "",
          "type": "uint256"
        }
      ],
      "stateMutability": "view",
      "type": "function"
    },
    {
      "inputs": [],
      "name": "s_prizesBalance",
      "outputs": [
        {
          "internalType": "uint256",
          "name": "",
          "type": "uint256"
        }
      ],
      "stateMutability": "view",
      "type": "function"
    },
    {
      "inputs": [],
      "name": "s_requireOfferValidationInMint",
      "outputs": [
        {
          "internalType": "bool",
          "name": "",
          "type": "bool"
        }
      ],
      "stateMutability": "view",
      "type": "function"
    },
    {
      "inputs": [],
      "name": "s_requireOfferValidationInTransfer",
      "outputs": [
        {
          "internalType": "bool",
          "name": "",
          "type": "bool"
        }
      ],
      "stateMutability": "view",
      "type": "function"
    },
    {
      "inputs": [],
      "name": "s_requireOpenPackSignerValidation",
      "outputs": [
        {
          "internalType": "bool",
          "name": "",
          "type": "bool"
        }
      ],
      "stateMutability": "view",
      "type": "function"
    },
    {
      "inputs": [],
      "name": "s_secondaryAlbumPrize",
      "outputs": [
        {
          "internalType": "uint256",
          "name": "",
          "type": "uint256"
        }
      ],
      "stateMutability": "view",
      "type": "function"
    },
    {
      "inputs": [],
      "name": "s_secondaryUri",
      "outputs": [
        {
          "internalType": "string",
          "name": "",
          "type": "string"
        }
      ],
      "stateMutability": "view",
      "type": "function"
    },
    {
      "inputs": [],
      "name": "s_tokenIdCounter",
      "outputs": [
        {
          "internalType": "uint256",
          "name": "",
          "type": "uint256"
        }
      ],
      "stateMutability": "view",
      "type": "function"
    },
    {
      "inputs": [
        {
          "internalType": "address",
          "name": "from",
          "type": "address"
        },
        {
          "internalType": "address",
          "name": "to",
          "type": "address"
        },
        {
          "internalType": "uint256",
          "name": "tokenId",
          "type": "uint256"
        }
      ],
      "name": "safeTransferFrom",
      "outputs": [],
      "stateMutability": "nonpayable",
      "type": "function"
    },
    {
      "inputs": [
        {
          "internalType": "address",
          "name": "from",
          "type": "address"
        },
        {
          "internalType": "address",
          "name": "to",
          "type": "address"
        },
        {
          "internalType": "uint256",
          "name": "tokenId",
          "type": "uint256"
        },
        {
          "internalType": "bytes",
          "name": "data",
          "type": "bytes"
        }
      ],
      "name": "safeTransferFrom",
      "outputs": [],
      "stateMutability": "nonpayable",
      "type": "function"
    },
    {
      "inputs": [
        {
          "internalType": "address",
          "name": "operator",
          "type": "address"
        },
        {
          "internalType": "bool",
          "name": "approved",
          "type": "bool"
        }
      ],
      "name": "setApprovalForAll",
      "outputs": [],
      "stateMutability": "nonpayable",
      "type": "function"
    },
    {
      "inputs": [
        {
          "internalType": "address",
          "name": "_gammaOffersContract",
          "type": "address"
        }
      ],
      "name": "setGammaOffersContract",
      "outputs": [],
      "stateMutability": "nonpayable",
      "type": "function"
    },
    {
      "inputs": [
        {
          "internalType": "address",
          "name": "_gammaPacksContract",
          "type": "address"
        }
      ],
      "name": "setGammaPacksContract",
      "outputs": [],
      "stateMutability": "nonpayable",
      "type": "function"
    },
    {
      "inputs": [
        {
          "internalType": "address",
          "name": "_gammaTicketsContract",
          "type": "address"
        }
      ],
      "name": "setGammaTicketsContract",
      "outputs": [],
      "stateMutability": "nonpayable",
      "type": "function"
    },
    {
      "inputs": [
        {
          "internalType": "uint8",
          "name": "amount",
          "type": "uint8"
        }
      ],
      "name": "setLotteryPrizePercentage",
      "outputs": [],
      "stateMutability": "nonpayable",
      "type": "function"
    },
    {
      "inputs": [
        {
          "internalType": "uint256",
          "name": "amount",
          "type": "uint256"
        }
      ],
      "name": "setMainAlbumPrize",
      "outputs": [],
      "stateMutability": "nonpayable",
      "type": "function"
    },
    {
      "inputs": [
        {
          "internalType": "uint256",
          "name": "amount",
          "type": "uint256"
        }
      ],
      "name": "setPrizesBalance",
      "outputs": [],
      "stateMutability": "nonpayable",
      "type": "function"
    },
    {
      "inputs": [
        {
          "internalType": "uint256",
          "name": "amount",
          "type": "uint256"
        }
      ],
      "name": "setSecondaryAlbumPrize",
      "outputs": [],
      "stateMutability": "nonpayable",
      "type": "function"
    },
    {
      "inputs": [
        {
          "internalType": "string",
          "name": "newMainUri",
          "type": "string"
        },
        {
          "internalType": "string",
          "name": "newSecondaryUri",
          "type": "string"
        }
      ],
      "name": "setUris",
      "outputs": [],
      "stateMutability": "nonpayable",
      "type": "function"
    },
    {
      "inputs": [
        {
          "internalType": "bytes4",
          "name": "interfaceId",
          "type": "bytes4"
        }
      ],
      "name": "supportsInterface",
      "outputs": [
        {
          "internalType": "bool",
          "name": "",
          "type": "bool"
        }
      ],
      "stateMutability": "view",
      "type": "function"
    },
    {
      "inputs": [],
      "name": "symbol",
      "outputs": [
        {
          "internalType": "string",
          "name": "",
          "type": "string"
        }
      ],
      "stateMutability": "view",
      "type": "function"
    },
    {
      "inputs": [
        {
          "internalType": "address",
          "name": "user",
          "type": "address"
        }
      ],
      "name": "testAddCards",
      "outputs": [],
      "stateMutability": "nonpayable",
      "type": "function"
    },
    {
      "inputs": [
        {
          "internalType": "address",
          "name": "user",
          "type": "address"
        },
        {
          "internalType": "uint256",
          "name": "packNumber",
          "type": "uint256"
        },
        {
          "internalType": "uint8[]",
          "name": "packData",
          "type": "uint8[]"
        }
      ],
      "name": "testOpenPack",
      "outputs": [],
      "stateMutability": "nonpayable",
      "type": "function"
    },
    {
      "inputs": [
        {
          "internalType": "uint256",
          "name": "tokenId",
          "type": "uint256"
        }
      ],
      "name": "tokenURI",
      "outputs": [
        {
          "internalType": "string",
          "name": "",
          "type": "string"
        }
      ],
      "stateMutability": "view",
      "type": "function"
    },
    {
      "inputs": [
        {
          "internalType": "address",
          "name": "to",
          "type": "address"
        },
        {
          "internalType": "uint8",
          "name": "cardNumber",
          "type": "uint8"
        }
      ],
      "name": "transferCard",
      "outputs": [],
      "stateMutability": "nonpayable",
      "type": "function"
    },
    {
      "inputs": [
        {
          "internalType": "address",
          "name": "to",
          "type": "address"
        },
        {
          "internalType": "uint8[]",
          "name": "cardNumbers",
          "type": "uint8[]"
        }
      ],
      "name": "transferCards",
      "outputs": [],
      "stateMutability": "nonpayable",
      "type": "function"
    },
    {
      "inputs": [
        {
          "internalType": "address",
          "name": "from",
          "type": "address"
        },
        {
          "internalType": "address",
          "name": "to",
          "type": "address"
        },
        {
          "internalType": "uint256",
          "name": "tokenId",
          "type": "uint256"
        }
      ],
      "name": "transferFrom",
      "outputs": [],
      "stateMutability": "nonpayable",
      "type": "function"
    },
    {
      "inputs": [
        {
          "internalType": "address",
          "name": "newOwner",
          "type": "address"
        }
      ],
      "name": "transferOwnership",
      "outputs": [],
      "stateMutability": "nonpayable",
      "type": "function"
    },
    {
      "inputs": [
        {
          "internalType": "uint256",
          "name": "packNumber",
          "type": "uint256"
        },
        {
          "internalType": "uint8[]",
          "name": "packData",
          "type": "uint8[]"
        },
        {
          "internalType": "bytes",
          "name": "signature",
          "type": "bytes"
        }
      ],
      "name": "verifyPackSigner",
      "outputs": [
        {
          "internalType": "address",
          "name": "signer",
          "type": "address"
        }
      ],
      "stateMutability": "view",
      "type": "function"
    }
  ],
  "bytecode": "0x6080604052600f805461ffff191661320a1790556710a741a462780000601155600060125567d02ab486cedc0000601355670de0b6b3a76400006014556018805462ffff001916620101001790553480156200005a57600080fd5b506040518060400160405280600a81526020016947616d6d61436172647360b01b815250604051806040016040528060068152602001654e4f465f474360d01b8152508160009081620000ae9190620001db565b506001620000bd8282620001db565b505050620000da620000d4620000e060201b60201c565b620000e4565b620002a7565b3390565b600780546001600160a01b038381166001600160a01b0319831681179093556040519116919082907f8be0079c531659141344cd1fd0a4f28419497f9722a3daafe3b4186f6b6457e090600090a35050565b634e487b7160e01b600052604160045260246000fd5b600181811c908216806200016157607f821691505b6020821081036200018257634e487b7160e01b600052602260045260246000fd5b50919050565b601f821115620001d657600081815260208120601f850160051c81016020861015620001b15750805b601f850160051c820191505b81811015620001d257828155600101620001bd565b5050505b505050565b81516001600160401b03811115620001f757620001f762000136565b6200020f816200020884546200014c565b8462000188565b602080601f8311600181146200024757600084156200022e5750858301515b600019600386901b1c1916600185901b178555620001d2565b600085815260208120601f198616915b82811015620002785788860151825594840194600190910190840162000257565b5085821015620002975787850151600019600388901b60f8161c191681555b5050505050600190811b01905550565b615a3d80620002b76000396000f3fe608060405234801561001057600080fd5b506004361061046a5760003560e01c806379e8dadc1161024c578063ad1684fa11610146578063dbfc05cf116100c3578063e8a7e31d11610087578063e8a7e31d14610a82578063e985e9c514610a8a578063eb12d61e14610ac6578063f2fde38b14610ad9578063f98fd28314610aec57600080fd5b8063dbfc05cf14610a23578063ddb975e814610a36578063e1883c6e14610a49578063e4ae0b9b14610a5c578063e606df8714610a6957600080fd5b8063c87b56dd1161010a578063c87b56dd146109d9578063cafaa473146109ec578063d322b563146109ff578063d7093f4014610a12578063d780c47714610a1b57600080fd5b8063ad1684fa14610984578063b352618514610997578063b88d4fde146109a0578063ba6c0fbc146109b3578063bf400a6a146109c657600080fd5b80638da5cb5b116101d45780639ff26efd116101985780639ff26efd14610910578063a1af8ad41461093e578063a22cb46514610951578063a419811d14610964578063ab5351601461097757600080fd5b80638da5cb5b146108c95780639038f414146108da57806395d89b41146108e25780639a5613ad146108ea5780639c7f707f146108fd57600080fd5b80637df73e271161021b5780637df73e271461084e57806382d8a1181461087a578063886eb60f1461088357806388e0ef80146108965780638bf670c8146108b657600080fd5b806379e8dadc1461080d5780637ce65f7b146108155780637cf86b72146108285780637de99bd91461083b57600080fd5b8063267b841d116103685780635e31ce48116102e55780637065cb48116102a95780637065cb48146107b957806370a08231146107cc578063715018a6146107df5780637155a3ac146107e75780637232d7d4146107fa57600080fd5b80635e31ce48146107655780636352211e14610778578063656bd0ad1461078b57806368cc5bc1146107945780636d0af178146107a757600080fd5b80634039327e1161032c5780634039327e146106b257806342842e0e146106ba57806342966c68146106cd5780634c03cd0b146106e05780635312ea8e1461075257600080fd5b8063267b841d1461063a5780632ca699e71461064d5780632f54bf6e146106605780632f9e026a1461068c57806330f5cc581461069f57600080fd5b8063147baac7116103f6578063203335f6116103ba578063203335f6146105e557806320965a5f146105f857806321a7c6b01461060b57806323b872dd14610614578063241a08fe1461062757600080fd5b8063147baac71461057557806314cca36a14610587578063155e2f921461059a5780631585cc4e146105ad578063173825d9146105d257600080fd5b8063081812fc1161043d578063081812fc146104fc578063095ea7b3146105275780630e316ab71461053c578063128916dc1461054f5780631306952c1461056257600080fd5b806301ffc9a71461046f5780630435dcaf1461049757806306fdde03146104b957806307b2e246146104ce575b600080fd5b61048261047d366004614a27565b610aff565b60405190151581526020015b60405180910390f35b6104aa6104a5366004614a59565b610b10565b60405161048e93929190614ab4565b6104c1610ec0565b60405161048e9190614b6f565b6104ee6104dc366004614a59565b601b6020526000908152604090205481565b60405190815260200161048e565b61050f61050a366004614b82565b610f52565b6040516001600160a01b03909116815260200161048e565b61053a610535366004614b9b565b610f79565b005b61053a61054a366004614a59565b611093565b61053a61055d366004614a59565b611139565b61050f610570366004614cb8565b6111dc565b60185461048290610100900460ff1681565b600a5461050f906001600160a01b031681565b61053a6105a8366004614d52565b61126a565b6105c06105bb366004614d52565b6112e7565b60405160ff909116815260200161048e565b61053a6105e0366004614a59565b611341565b61053a6105f3366004614e51565b6113b8565b61053a610606366004614f47565b611477565b6104ee60135481565b61053a610622366004614f88565b611a93565b61053a610635366004614fc9565b611ac5565b61053a610648366004614cb8565b611b0b565b61053a61065b366004614d52565b611b1e565b61048261066e366004614a59565b6001600160a01b03166000908152600b602052604090205460ff1690565b60085461050f906001600160a01b031681565b61053a6106ad366004614fe4565b611d71565b6104c1611ff9565b61053a6106c8366004614f88565b612087565b61053a6106db366004614b82565b6120a2565b6107226106ee366004614b82565b60196020526000908152604090208054600182015460028301546003909301549192909160ff808316926101009004169085565b6040805195865260208601949094529115159284019290925260ff9091166060830152608082015260a00161048e565b61053a610760366004614b82565b6120d3565b61053a610773366004614b82565b6121ee565b61050f610786366004614b82565b612233565b6104ee60115481565b61053a6107a236600461504a565b612293565b600f546105c090610100900460ff1681565b61053a6107c7366004614a59565b6122df565b6104ee6107da366004614a59565b612356565b61053a6123dc565b61053a6107f5366004614d52565b6123f0565b61053a610808366004614b82565b612450565b6104c16124a6565b61053a610823366004614fc9565b6124b3565b6104ee610836366004614a59565b612524565b61053a6108493660046150e7565b612570565b61048261085c366004614a59565b6001600160a01b03166000908152600e602052604090205460ff1690565b6104ee60105481565b610482610891366004614d52565b61274b565b6104ee6108a4366004614b82565b601a6020526000908152604090205481565b6104826108c4366004614d52565b6127a7565b6007546001600160a01b031661050f565b610482612806565b6104c1612ba6565b6018546104829062010000900460ff1681565b61053a61090b366004615181565b612bb5565b6105c061091e366004614d52565b601c60209081526000928352604080842090915290825290205460ff1681565b61053a61094c3660046151e4565b612c57565b61053a61095f366004615238565b612fd1565b61053a610972366004614a59565b612fe0565b600f546105c09060ff1681565b61053a610992366004615271565b61307f565b6104ee60145481565b61053a6109ae3660046152c9565b613312565b61053a6109c1366004614b82565b613344565b61053a6109d4366004614fc9565b61339a565b6104c16109e7366004614b82565b6135e6565b61053a6109fa366004614a59565b6135f1565b60095461050f906001600160a01b031681565b6104ee60125481565b6104ee613694565b61053a610a3136600461504a565b6136c1565b61053a610a44366004614a59565b613704565b61053a610a57366004614b82565b6137a7565b6018546104829060ff1681565b600f5461050f906201000090046001600160a01b031681565b6104c16137d7565b610482610a98366004615348565b6001600160a01b03918216600090815260056020908152604080832093909416825291909152205460ff1690565b61053a610ad4366004614a59565b6137e4565b61053a610ae7366004614a59565b61385b565b61053a610afa36600461504a565b6138d1565b6000610b0a8261391b565b92915050565b60408051607a808252610f608201909252606091829182916000919060208201610f4080368337505060408051607a808252610f608201909252929350600092915060208201610f4080368337505060408051607a808252610f608201909252929350600092915060208201610f40803683370190505090506000805b60798160ff1611610cf6576001600160a01b0389166000908152601c6020908152604080832060ff80861685529252909120541615610ce45780858360ff1681518110610bdc57610bdc615376565b60ff9283166020918202929092018101919091526001600160a01b038b166000908152601c82526040808220858516835290925220548551908216918691908516908110610c2c57610c2c615376565b60ff9283166020918202929092010152600954604051632edb5fcf60e01b81526001600160a01b038c811660048301529284166024820152911690632edb5fcf90604401602060405180830381865afa158015610c8d573d6000803e3d6000fd5b505050506040513d601f19601f82011682018060405250810190610cb1919061538c565b838360ff1681518110610cc657610cc6615376565b9115156020928302919091019091015281610ce0816153bf565b9250505b80610cee816153bf565b915050610b8d565b5060008160ff166001600160401b03811115610d1457610d14614bc7565b604051908082528060200260200182016040528015610d3d578160200160208202803683370190505b50905060008260ff166001600160401b03811115610d5d57610d5d614bc7565b604051908082528060200260200182016040528015610d86578160200160208202803683370190505b50905060008360ff166001600160401b03811115610da657610da6614bc7565b604051908082528060200260200182016040528015610dcf578160200160208202803683370190505b50905060005b8460ff16811015610eae57878181518110610df257610df2615376565b6020026020010151848281518110610e0c57610e0c615376565b602002602001019060ff16908160ff1681525050868181518110610e3257610e32615376565b6020026020010151838281518110610e4c57610e4c615376565b602002602001019060ff16908160ff1681525050858181518110610e7257610e72615376565b6020026020010151828281518110610e8c57610e8c615376565b9115156020928302919091019091015280610ea6816153de565b915050610dd5565b50919a90995090975095505050505050565b606060008054610ecf906153f7565b80601f0160208091040260200160405190810160405280929190818152602001828054610efb906153f7565b8015610f485780601f10610f1d57610100808354040283529160200191610f48565b820191906000526020600020905b815481529060010190602001808311610f2b57829003601f168201915b5050505050905090565b6000610f5d82613940565b506000908152600460205260409020546001600160a01b031690565b6000610f8482612233565b9050806001600160a01b0316836001600160a01b031603610ff65760405162461bcd60e51b815260206004820152602160248201527f4552433732313a20617070726f76616c20746f2063757272656e74206f776e656044820152603960f91b60648201526084015b60405180910390fd5b336001600160a01b038216148061101257506110128133610a98565b6110845760405162461bcd60e51b815260206004820152603d60248201527f4552433732313a20617070726f76652063616c6c6572206973206e6f7420746f60448201527f6b656e206f776e6572206f7220617070726f76656420666f7220616c6c0000006064820152608401610fed565b61108e838361399f565b505050565b336000908152600b602052604090205460ff166110c357604051634289c49360e01b815260040160405180910390fd5b604051630982088f60e41b8152600d60048201526001600160a01b038216602482015273__$2004922c2908b386ae4415e9a8cdeda8c7$__9063982088f0906044015b60006040518083038186803b15801561111e57600080fd5b505af4158015611132573d6000803e3d6000fd5b5050505050565b336000908152600b602052604090205460ff1661116957604051634289c49360e01b815260040160405180910390fd5b806001600160a01b0381166111915760405163e6c4247b60e01b815260040160405180910390fd5b600980546001600160a01b0319166001600160a01b0384169081179091556040517f538b3425a321783393ad250db10356b8b3523ef29a40de015c5218213de0ead090600090a25050565b6040516338fb7d8b60e01b815260009073__$11abd53fa8ca7bb7b53675cf998674c516$__906338fb7d8b9061121e903390899089908990899060040161542b565b602060405180830381865af415801561123b573d6000803e3d6000fd5b505050506040513d601f19601f8201168201806040525081019061125f91906154b2565b90505b949350505050565b6009546001600160a01b0316331461129557604051638eea824160e01b815260040160405180910390fd5b6001600160a01b0382166000908152601c6020908152604080832060ff8086168552925282208054909116916112ca836153bf565b91906101000a81548160ff021916908360ff160217905550505050565b6000826001600160a01b0381166113115760405163e6c4247b60e01b815260040160405180910390fd5b50506001600160a01b03919091166000908152601c6020908152604080832060ff94851684529091529020541690565b336000908152600b602052604090205460ff1661137157604051634289c49360e01b815260040160405180910390fd5b604051632dd92c6960e21b8152600b60048201526001600160a01b038216602482015273__$2004922c2908b386ae4415e9a8cdeda8c7$__9063b764b1a490604401611106565b60ff851615806113d05750600f5460ff908116908616115b156113ee57604051630b154b3b60e41b815260040160405180910390fd5b60005b8560ff1681101561146f5761145d3386838151811061141257611412615376565b602002602001015186848151811061142c5761142c615376565b602002602001015186868681811061144657611446615376565b905060200281019061145891906154cf565b613a0d565b80611467816153de565b9150506113f1565b505050505050565b336000908152601c602090815260408083206079845290915281205460ff1690036114b55760405163210f01d160e21b815260040160405180910390fd5b336000908152601b60205260408120546114d0908390615515565b90506000603c821061158857600f546040516370a0823160e01b81523060048201526000916201000090046001600160a01b0316906370a0823190602401602060405180830381865afa15801561152b573d6000803e3d6000fd5b505050506040513d601f19601f8201168201806040525081019061154f9190615528565b90506014548110806115645750601454601254105b156115825760405163356680b760e01b815260040160405180910390fd5b60019150505b600954604051630cdb311760e01b815233600482015260009182916001600160a01b0390911690630cdb311790602401602060405180830381865afa1580156115d5573d6000803e3d6000fd5b505050506040513d601f19601f820116820180604052508101906115f99190615528565b1190508360005b8181101561182057336000908152601c602052604081209088888481811061162a5761162a615376565b905060200201602081019061163f9190614fc9565b60ff9081168252602082019290925260400160009081205490911690036116795760405163210f01d160e21b815260040160405180910390fd5b821561179c576009546001600160a01b0316632edb5fcf338989858181106116a3576116a3615376565b90506020020160208101906116b89190614fc9565b6040516001600160e01b031960e085901b1681526001600160a01b03909216600483015260ff166024820152604401602060405180830381865afa158015611704573d6000803e3d6000fd5b505050506040513d601f19601f82011682018060405250810190611728919061538c565b1561179c57336000908152601c6020526040812060029189898581811061175157611751615376565b90506020020160208101906117669190614fc9565b60ff908116825260208201929092526040016000205416101561179c5760405163483e9b8d60e11b815260040160405180910390fd5b336000908152601c60205260408120908888848181106117be576117be615376565b90506020020160208101906117d39190614fc9565b60ff908116825260208201929092526040016000908120805490921691906117fa83615541565b91906101000a81548160ff021916908360ff160217905550508080600101915050611600565b50336000908152601b602052604081208054839290611840908490615515565b9091555050604051611855908790879061555e565b6040519081900381209033907fdbcda3b6d52a6f69c85189ca3f35e5be8a2e3d052fea47f656ff00384b0c47b190600090a3821561146f57336000908152601c60209081526040808320607984529091528120805460ff16916118b783615541565b91906101000a81548160ff021916908360ff1602179055505061196833601680546118e1906153f7565b80601f016020809104026020016040519081016040528092919081815260200182805461190d906153f7565b801561195a5780601f1061192f5761010080835404028352916020019161195a565b820191906000526020600020905b81548152906001019060200180831161193d57829003601f168201915b505050505060796002613e24565b6014546012600082825461197c9190615598565b9091555050600f5460145460405163a9059cbb60e01b81523360048201526024810191909152620100009091046001600160a01b03169063a9059cbb906044016020604051808303816000875af11580156119db573d6000803e3d6000fd5b505050506040513d601f19601f820116820180604052508101906119ff919061538c565b50600a5460405163fa8213d360e01b81523360048201526001600160a01b039091169063fa8213d390602401600060405180830381600087803b158015611a4557600080fd5b505af1158015611a59573d6000803e3d6000fd5b5050604051600292503391507f6d0344e2059f835240cb954cce07d4b26f0d0844eecc234f7ee0e292ba80a1aa90600090a3505050505050565b611a9e335b82613e87565b611aba5760405162461bcd60e51b8152600401610fed906155ab565b61108e838383613f05565b336000908152600b602052604090205460ff16611af557604051634289c49360e01b815260040160405180910390fd5b600f805460ff191660ff92909216919091179055565b611b183385858585613a0d565b50505050565b816001600160a01b038116611b465760405163e6c4247b60e01b815260040160405180910390fd5b336000908152601c6020908152604080832060ff80871685529252822054169003611b845760405163210f01d160e21b815260040160405180910390fd5b336001600160a01b03841603611bad57604051632f35253160e01b815260040160405180910390fd5b60185462010000900460ff1615611c8457600954604051632edb5fcf60e01b815233600482015260ff841660248201526000916001600160a01b031690632edb5fcf90604401602060405180830381865afa158015611c10573d6000803e3d6000fd5b505050506040513d601f19601f82011682018060405250810190611c34919061538c565b336000908152601c6020908152604080832060ff80891685529252909120549192506001911611811580611c655750805b611c815760405162461bcd60e51b8152600401610fed906155f8565b50505b336000908152601c6020908152604080832060ff808716855292528220805490911691611cb083615541565b82546101009290920a60ff8181021990931691831602179091556001600160a01b0385166000908152601c602090815260408083208785168452909152812080549092169250611cff836153bf565b91906101000a81548160ff021916908360ff16021790555050826001600160a01b0316336001600160a01b03167f1b6e5f928a38f442936bbdf4696f128a543b8e43730594344a66c028d0b9c3da84604051611d64919060ff91909116815260200190565b60405180910390a3505050565b336000908152600b602052604090205460ff16611da157604051634289c49360e01b815260040160405180910390fd5b6008546040516380f2540b60e01b8152600481018490526001600160a01b038581166024830152909116906380f2540b90604401600060405180830381600087803b158015611def57600080fd5b505af1158015611e03573d6000803e3d6000fd5b505050506006601154611e16919061562f565b601154611e239190615598565b60126000828254611e349190615515565b90915550600090505b8151811015611b1857818181518110611e5857611e58615376565b602002602001015160ff16607814611ea357611389601a6000848481518110611e8357611e83615376565b602002602001015160ff1681526020019081526020016000205410611ed4565b6078600052601a6020527f0382f0ce335a2f6d9ff5c37189f20a85f5e9319580268a4587d7c49525cd970d54610bb9115b611f205760405162461bcd60e51b815260206004820152601e60248201527f696e76616c69642063617264496e76656e746f727920706f736974696f6e00006044820152606401610fed565b601a6000838381518110611f3657611f36615376565b602002602001015160ff1681526020019081526020016000206000815480929190611f60906153de565b90915550506001600160a01b0384166000908152601c602052604081208351909190849084908110611f9457611f94615376565b602002602001015160ff1660ff168152602001908152602001600020600081819054906101000a900460ff1680929190611fcd906153bf565b91906101000a81548160ff021916908360ff160217905550508080611ff1906153de565b915050611e3d565b60168054612006906153f7565b80601f0160208091040260200160405190810160405280929190818152602001828054612032906153f7565b801561207f5780601f106120545761010080835404028352916020019161207f565b820191906000526020600020905b81548152906001019060200180831161206257829003601f168201915b505050505081565b61108e83838360405180602001604052806000815250613312565b6120ab33611a98565b6120c75760405162461bcd60e51b8152600401610fed906155ab565b6120d081614069565b50565b336000908152600b602052604090205460ff1661210357604051634289c49360e01b815260040160405180910390fd5b8061210d30612356565b101561212c5760405163356680b760e01b815260040160405180910390fd5b806012600082825461213e9190615598565b9091555050600f5460405163a9059cbb60e01b815233600482015260248101839052620100009091046001600160a01b03169063a9059cbb906044016020604051808303816000875af1158015612199573d6000803e3d6000fd5b505050506040513d601f19601f820116820180604052508101906121bd919061538c565b50604051819033907f23d6711a1d031134a36921253c75aa59e967d38e369ac625992824315e204f2090600090a350565b6008546001600160a01b03163314612219576040516307473cc760e41b815260040160405180910390fd5b806012600082825461222b9190615515565b909155505050565b6000818152600260205260408120546001600160a01b031680610b0a5760405162461bcd60e51b8152602060048201526018602482015277115490cdcc8c4e881a5b9d985b1a59081d1bdad95b88125160421b6044820152606401610fed565b336000908152600b602052604090205460ff166122c357604051634289c49360e01b815260040160405180910390fd5b60188054911515620100000262ff000019909216919091179055565b336000908152600b602052604090205460ff1661230f57604051634289c49360e01b815260040160405180910390fd5b604051632d35e2b960e21b8152600b60048201526001600160a01b038216602482015273__$2004922c2908b386ae4415e9a8cdeda8c7$__9063b4d78ae490604401611106565b60006001600160a01b0382166123c05760405162461bcd60e51b815260206004820152602960248201527f4552433732313a2061646472657373207a65726f206973206e6f7420612076616044820152683634b21037bbb732b960b91b6064820152608401610fed565b506001600160a01b031660009081526003602052604090205490565b6123e4614072565b6123ee60006140cc565b565b6009546001600160a01b0316331461241b57604051638eea824160e01b815260040160405180910390fd5b6001600160a01b0382166000908152601c6020908152604080832060ff8086168552925282208054909116916112ca83615541565b336000908152600b602052604090205460ff1661248057604051634289c49360e01b815260040160405180910390fd5b806000036124a157604051634b1c6ca160e01b815260040160405180910390fd5b601355565b60158054612006906153f7565b336000908152600b602052604090205460ff166124e357604051634289c49360e01b815260040160405180910390fd5b60648160ff16111561250857604051634b1c6ca160e01b815260040160405180910390fd5b600f805460ff9092166101000261ff0019909216919091179055565b6000816001600160a01b03811661254e5760405163e6c4247b60e01b815260040160405180910390fd5b6001600160a01b0383166000908152601b602052604090205491505b50919050565b612578614072565b336000908152600b60205260409020805460ff19166001179055600f80546001600160a01b03888116620100000262010000600160b01b031990921691909117909155600880548783166001600160a01b031991821617909155600a8054868416908316179055600980549287169290911691909117905560176125fc8382615697565b5060408051808201825260018152602f60f81b60208083019190915282518084018452600381526203132360ec1b8183015283518085018552600681526523173539b7b760d11b8184015293516126599460179493909101615756565b604051602081830303815290604052601590816126769190615697565b5060408051808201825260018152602f60f81b60208083019190915282518084018452600381526231323160e81b8183015283518085018552600681526523173539b7b760d11b8184015293516126d39460179493909101615756565b604051602081830303815290604052601690816126f09190615697565b506001600160a01b0381166000908152600e60205260408120805460ff191660011790555b607a811015612742576000818152601a60205260409020600190558061273a816153de565b915050612715565b50505050505050565b6000826001600160a01b0381166127755760405163e6c4247b60e01b815260040160405180910390fd5b50506001600160a01b03919091166000908152601c6020908152604080832060ff948516845290915290205416151590565b6009546000906001600160a01b031633146127d557604051638eea824160e01b815260040160405180910390fd5b506001600160a01b03919091166000908152601c6020908152604080832060ff948516845290915290205416151590565b336000908152601c602090815260408083206078845290915281205460ff1681036128445760405163210f01d160e21b815260040160405180910390fd5b601354601254101561286957604051634b1c6ca160e01b815260040160405180910390fd5b600f546040516370a0823160e01b81523060048201526000916201000090046001600160a01b0316906370a0823190602401602060405180830381865afa1580156128b8573d6000803e3d6000fd5b505050506040513d601f19601f820116820180604052508101906128dc9190615528565b90506013548110156129015760405163356680b760e01b815260040160405180910390fd5b6000805b60788160ff161161299057336000908152601c6020908152604080832060ff8086168552925282205416900361293e5760019150612990565b336000908152601c6020908152604080832060ff80861685529252822080549091169161296a83615541565b91906101000a81548160ff021916908360ff160217905550508080600101915050612905565b5080156129af57604051623de82960e51b815260040160405180910390fd5b612a4733601580546129c0906153f7565b80601f01602080910402602001604051908101604052809291908181526020018280546129ec906153f7565b8015612a395780601f10612a0e57610100808354040283529160200191612a39565b820191906000526020600020905b815481529060010190602001808311612a1c57829003601f168201915b505050505060786002613e24565b600f5460135460405163a9059cbb60e01b81523360048201526024810191909152620100009091046001600160a01b03169063a9059cbb906044016020604051808303816000875af1158015612aa1573d6000803e3d6000fd5b505050506040513d601f19601f82011682018060405250810190612ac5919061538c565b5060135460126000828254612ada9190615598565b9091555050600954604051633f27a03f60e21b81523360048201526000916001600160a01b03169063fc9e80fc906024016020604051808303816000875af1158015612b2a573d6000803e3d6000fd5b505050506040513d601f19601f82011682018060405250810190612b4e919061538c565b905080612b6e5760405163e07c7c8d60e01b815260040160405180910390fd5b60405160019033907f6d0344e2059f835240cb954cce07d4b26f0d0844eecc234f7ee0e292ba80a1aa90600090a36001935050505090565b606060018054610ecf906153f7565b336000908152600b602052604090205460ff16612be557604051634289c49360e01b815260040160405180910390fd5b6015612bf18382615697565b506016612bfe8282615697565b5080604051612c0d9190615805565b604051809103902082604051612c239190615805565b604051908190038120907fabfd337ac5625b7dc2ddd3d3bd465fb1dec15322eeeed81032268b337880bec690600090a35050565b826001600160a01b038116612c7f5760405163e6c4247b60e01b815260040160405180910390fd5b336001600160a01b03851603612ca857604051632f35253160e01b815260040160405180910390fd5b60005b82811015612f7d57336000908152601c6020526040812090858584818110612cd557612cd5615376565b9050602002016020810190612cea9190614fc9565b60ff908116825260208201929092526040016000908120549091169003612d245760405163210f01d160e21b815260040160405180910390fd5b336000908152601c6020526040812090858584818110612d4657612d46615376565b9050602002016020810190612d5b9190614fc9565b60ff90811682526020820192909252604001600090812080549092169190612d8283615541565b91906101000a81548160ff021916908360ff16021790555050601c6000866001600160a01b03166001600160a01b031681526020019081526020016000206000858584818110612dd457612dd4615376565b9050602002016020810190612de99190614fc9565b60ff90811682526020820192909252604001600090812080549092169190612e10836153bf565b91906101000a81548160ff021916908360ff16021790555050601860029054906101000a900460ff1615612f6b576009546000906001600160a01b0316632edb5fcf33878786818110612e6557612e65615376565b9050602002016020810190612e7a9190614fc9565b6040516001600160e01b031960e085901b1681526001600160a01b03909216600483015260ff166024820152604401602060405180830381865afa158015612ec6573d6000803e3d6000fd5b505050506040513d601f19601f82011682018060405250810190612eea919061538c565b336000908152601c602052604081209192509060019082888887818110612f1357612f13615376565b9050602002016020810190612f289190614fc9565b60ff908116825260208201929092526040016000205416119050811580612f4c5750805b612f685760405162461bcd60e51b8152600401610fed906155f8565b50505b80612f75816153de565b915050612cab565b508282604051612f8e92919061555e565b604051908190038120906001600160a01b0386169033907f368eb521419fe880268b0d75c05eaa2da7ae9ccf468be86a848f7054366d2b9b90600090a450505050565b612fdc33838361411e565b5050565b336000908152600b602052604090205460ff1661301057604051634289c49360e01b815260040160405180910390fd5b60005b60798160ff1611612fdc576001600160a01b0382166000908152601c6020908152604080832060ff808616855292528220805490911691613053836153bf565b91906101000a81548160ff021916908360ff160217905550508080613077906153bf565b915050613013565b6009546001600160a01b031633146130aa57604051638eea824160e01b815260040160405180910390fd5b836001600160a01b0381166130d25760405163e6c4247b60e01b815260040160405180910390fd5b826001600160a01b0381166130fa5760405163e6c4247b60e01b815260040160405180910390fd5b6001600160a01b0386166000908152601c6020908152604080832060ff808a16855292529091205416158061315557506001600160a01b0384166000908152601c6020908152604080832060ff808816855292529091205416155b156131735760405163210f01d160e21b815260040160405180910390fd5b6001600160a01b0386166000908152601c6020908152604080832060ff808a168552925282208054909116916131a883615541565b82546101009290920a60ff8181021990931691831602179091556001600160a01b0386166000908152601c602090815260408083208a851684529091528120805490921692506131f7836153bf565b82546101009290920a60ff8181021990931691831602179091556001600160a01b0386166000908152601c60209081526040808320888516845290915281208054909216925061324683615541565b82546101009290920a60ff8181021990931691831602179091556001600160a01b0388166000908152601c602090815260408083208885168452909152812080549092169250613295836153bf565b91906101000a81548160ff021916908360ff16021790555050836001600160a01b0316866001600160a01b03167f52819375a02768cb5083d7b729260c6db2309fcb5c9161201ada89d30d00d524878660405161330292919060ff92831681529116602082015260400190565b60405180910390a3505050505050565b61331c3383613e87565b6133385760405162461bcd60e51b8152600401610fed906155ab565b611b18848484846141e4565b336000908152600b602052604090205460ff1661337457604051634289c49360e01b815260040160405180910390fd5b8060000361339557604051634b1c6ca160e01b815260040160405180910390fd5b601455565b336000908152601c6020908152604080832060ff808616855292528220541690036133d85760405163210f01d160e21b815260040160405180910390fd5b601854610100900460ff16156134ae57600954604051632edb5fcf60e01b815233600482015260ff831660248201526000916001600160a01b031690632edb5fcf90604401602060405180830381865afa15801561343a573d6000803e3d6000fd5b505050506040513d601f19601f8201168201806040525081019061345e919061538c565b336000908152601c6020908152604080832060ff8088168552925290912054919250600191161181158061348f5750805b6134ab5760405162461bcd60e51b8152600401610fed906155f8565b50505b336000908152601c6020908152604080832060ff8086168552925282208054909116916134da83615541565b91906101000a81548160ff021916908360ff1602179055505060006017604051806040016040528060018152602001602f60f81b8152508360ff1673__$7e24fea74dbc7efffb723a34f6ecd87681$__636900a3ae90916040518263ffffffff1660e01b815260040161354f91815260200190565b600060405180830381865af415801561356c573d6000803e3d6000fd5b505050506040513d6000823e601f3d908101601f191682016040526135949190810190615821565b60405180604001604052806005815260200164173539b7b760d91b8152506040516020016135c59493929190615756565b6040516020818303038152906040529050612fdc33828460ff166001613e24565b6060610b0a82614217565b336000908152600b602052604090205460ff1661362157604051634289c49360e01b815260040160405180910390fd5b806001600160a01b0381166136495760405163e6c4247b60e01b815260040160405180910390fd5b600880546001600160a01b0319166001600160a01b0384169081179091556040517f5a78287a942b8ea0da8734a4eb919df11e564cc48301ffcb582dc8612d98208f90600090a25050565b601254600f546000916064916136b29190610100900460ff16615897565b6136bc919061562f565b905090565b336000908152600b602052604090205460ff166136f157604051634289c49360e01b815260040160405180910390fd5b6018805460ff1916911515919091179055565b336000908152600b602052604090205460ff1661373457604051634289c49360e01b815260040160405180910390fd5b806001600160a01b03811661375c5760405163e6c4247b60e01b815260040160405180910390fd5b600a80546001600160a01b0319166001600160a01b0384169081179091556040517f563f24d71e856f79bec30e1aa96082a296cd13f0a71cec730a72b719fa0fa20290600090a25050565b6008546001600160a01b031633146137d2576040516307473cc760e41b815260040160405180910390fd5b601155565b60178054612006906153f7565b336000908152600b602052604090205460ff1661381457604051634289c49360e01b815260040160405180910390fd5b604051633b9db68960e11b8152600d60048201526001600160a01b038216602482015273__$2004922c2908b386ae4415e9a8cdeda8c7$__9063773b6d1290604401611106565b613863614072565b6001600160a01b0381166138c85760405162461bcd60e51b815260206004820152602660248201527f4f776e61626c653a206e6577206f776e657220697320746865207a65726f206160448201526564647265737360d01b6064820152608401610fed565b6120d0816140cc565b336000908152600b602052604090205460ff1661390157604051634289c49360e01b815260040160405180910390fd5b601880549115156101000261ff0019909216919091179055565b60006001600160e01b03198216632483248360e11b1480610b0a5750610b0a8261431f565b6000818152600260205260409020546001600160a01b03166120d05760405162461bcd60e51b8152602060048201526018602482015277115490cdcc8c4e881a5b9d985b1a59081d1bdad95b88125160421b6044820152606401610fed565b600081815260046020526040902080546001600160a01b0319166001600160a01b03841690811790915581906139d482612233565b6001600160a01b03167f8c5be1e5ebec7d5bd14f71427d1e84f3dd0314c0f7b2291e5b200ac8c7c3b92560405160405180910390a45050565b60085460405163d3e6a7ad60e01b8152600481018690526001600160a01b0387811692169063d3e6a7ad90602401602060405180830381865afa158015613a58573d6000803e3d6000fd5b505050506040513d601f19601f82011682018060405250810190613a7c91906154b2565b6001600160a01b031614613aa357604051637f6ecdf560e01b815260040160405180910390fd5b600f835110613ac557604051639dcca73360e01b815260040160405180910390fd5b60185460ff1615613b91576040516338fb7d8b60e01b815260009073__$11abd53fa8ca7bb7b53675cf998674c516$__906338fb7d8b90613b12903390899089908990899060040161542b565b602060405180830381865af4158015613b2f573d6000803e3d6000fd5b505050506040513d601f19601f82011682018060405250810190613b5391906154b2565b6001600160a01b0381166000908152600e602052604090205490915060ff16613b8f57604051638baa579f60e01b815260040160405180910390fd5b505b6008546040516380f2540b60e01b8152600481018690526001600160a01b038781166024830152909116906380f2540b90604401600060405180830381600087803b158015613bdf57600080fd5b505af1158015613bf3573d6000803e3d6000fd5b505050506006601154613c06919061562f565b601154613c139190615598565b60126000828254613c249190615515565b90915550600090505b8351811015613dd257838181518110613c4857613c48615376565b602002602001015160ff16607803613cad576078600052601a6020527f0382f0ce335a2f6d9ff5c37189f20a85f5e9319580268a4587d7c49525cd970d54610bb81015613ca857604051630d1ecf1760e11b815260040160405180910390fd5b613cff565b611388601a6000868481518110613cc657613cc6615376565b602002602001015160ff168152602001908152602001600020541115613cff57604051630d1ecf1760e11b815260040160405180910390fd5b601a6000858381518110613d1557613d15615376565b602002602001015160ff1681526020019081526020016000206000815480929190613d3f906153de565b90915550506001600160a01b0386166000908152601c602052604081208551909190869084908110613d7357613d73615376565b602002602001015160ff1660ff168152602001908152602001600020600081819054906101000a900460ff1680929190613dac906153bf565b91906101000a81548160ff021916908360ff160217905550508080600101915050613c2d565b508383604051613de291906158ae565b604051908190038120906001600160a01b038816907fbabe8f5e83e93ab103ddf917b4292a19335a5128b3530bedd896a681cdd945e390600090a45050505050565b601054600081815260196020526040902081815560018101849055600201805461ff00191661010060ff851602179055613e5e858261436f565b613e688185614389565b600160106000828254613e7b9190615515565b90915550505050505050565b600080613e9383612233565b9050806001600160a01b0316846001600160a01b03161480613eda57506001600160a01b0380821660009081526005602090815260408083209388168352929052205460ff165b806112625750836001600160a01b0316613ef384610f52565b6001600160a01b031614949350505050565b826001600160a01b0316613f1882612233565b6001600160a01b031614613f3e5760405162461bcd60e51b8152600401610fed906158e7565b6001600160a01b038216613fa05760405162461bcd60e51b8152602060048201526024808201527f4552433732313a207472616e7366657220746f20746865207a65726f206164646044820152637265737360e01b6064820152608401610fed565b826001600160a01b0316613fb382612233565b6001600160a01b031614613fd95760405162461bcd60e51b8152600401610fed906158e7565b600081815260046020908152604080832080546001600160a01b03199081169091556001600160a01b0387811680865260038552838620805460001901905590871680865283862080546001019055868652600290945282852080549092168417909155905184937fddf252ad1be2c89b69c2b068fc378daa952ba7f163c4a11628f55a4df523b3ef91a4505050565b6120d081614454565b6007546001600160a01b031633146123ee5760405162461bcd60e51b815260206004820181905260248201527f4f776e61626c653a2063616c6c6572206973206e6f7420746865206f776e65726044820152606401610fed565b600780546001600160a01b038381166001600160a01b0319831681179093556040519116919082907f8be0079c531659141344cd1fd0a4f28419497f9722a3daafe3b4186f6b6457e090600090a35050565b816001600160a01b0316836001600160a01b03160361417f5760405162461bcd60e51b815260206004820152601960248201527f4552433732313a20617070726f766520746f2063616c6c6572000000000000006044820152606401610fed565b6001600160a01b03838116600081815260056020908152604080832094871680845294825291829020805460ff191686151590811790915591519182527f17307eab39ab6107e8899845ad3d59bd9653f200f220920489ca2b5937696c319101611d64565b6141ef848484613f05565b6141fb84848484614494565b611b185760405162461bcd60e51b8152600401610fed9061592c565b606061422282613940565b6000828152600660205260408120805461423b906153f7565b80601f0160208091040260200160405190810160405280929190818152602001828054614267906153f7565b80156142b45780601f10614289576101008083540402835291602001916142b4565b820191906000526020600020905b81548152906001019060200180831161429757829003601f168201915b5050505050905060006142d260408051602081019091526000815290565b905080516000036142e4575092915050565b8151156143165780826040516020016142fe92919061597e565b60405160208183030381529060405292505050919050565b61126284614592565b60006001600160e01b031982166380ac58cd60e01b148061435057506001600160e01b03198216635b5e139f60e01b145b80610b0a57506301ffc9a760e01b6001600160e01b0319831614610b0a565b612fdc828260405180602001604052806000815250614606565b6000828152600260205260409020546001600160a01b03166144045760405162461bcd60e51b815260206004820152602e60248201527f45524337323155524953746f726167653a2055524920736574206f66206e6f6e60448201526d32bc34b9ba32b73a103a37b5b2b760911b6064820152608401610fed565b600082815260066020526040902061441c8282615697565b506040518281527ff8e1a15aba9398e019f0b49df1a4fde98ee17ae345cb5f6b5e2c27f5033e8ce79060200160405180910390a15050565b61445d81614639565b60008181526006602052604090208054614476906153f7565b1590506120d05760008181526006602052604081206120d0916149c3565b60006001600160a01b0384163b1561458a57604051630a85bd0160e11b81526001600160a01b0385169063150b7a02906144d89033908990889088906004016159ad565b6020604051808303816000875af1925050508015614513575060408051601f3d908101601f19168201909252614510918101906159ea565b60015b614570573d808015614541576040519150601f19603f3d011682016040523d82523d6000602084013e614546565b606091505b5080516000036145685760405162461bcd60e51b8152600401610fed9061592c565b805181602001fd5b6001600160e01b031916630a85bd0160e11b149050611262565b506001611262565b606061459d82613940565b60006145b460408051602081019091526000815290565b905060008151116145d457604051806020016040528060008152506145ff565b806145de846146ce565b6040516020016145ef92919061597e565b6040516020818303038152906040525b9392505050565b6146108383614760565b61461d6000848484614494565b61108e5760405162461bcd60e51b8152600401610fed9061592c565b600061464482612233565b905061464f82612233565b600083815260046020908152604080832080546001600160a01b03199081169091556001600160a01b0385168085526003845282852080546000190190558785526002909352818420805490911690555192935084927fddf252ad1be2c89b69c2b068fc378daa952ba7f163c4a11628f55a4df523b3ef908390a45050565b606060006146db836148eb565b60010190506000816001600160401b038111156146fa576146fa614bc7565b6040519080825280601f01601f191660200182016040528015614724576020820181803683370190505b5090508181016020015b600019016f181899199a1a9b1b9c1cb0b131b232b360811b600a86061a8153600a850494508461472e57509392505050565b6001600160a01b0382166147b65760405162461bcd60e51b815260206004820181905260248201527f4552433732313a206d696e7420746f20746865207a65726f20616464726573736044820152606401610fed565b6000818152600260205260409020546001600160a01b03161561481b5760405162461bcd60e51b815260206004820152601c60248201527f4552433732313a20746f6b656e20616c7265616479206d696e746564000000006044820152606401610fed565b6000818152600260205260409020546001600160a01b0316156148805760405162461bcd60e51b815260206004820152601c60248201527f4552433732313a20746f6b656e20616c7265616479206d696e746564000000006044820152606401610fed565b6001600160a01b038216600081815260036020908152604080832080546001019055848352600290915280822080546001600160a01b0319168417905551839291907fddf252ad1be2c89b69c2b068fc378daa952ba7f163c4a11628f55a4df523b3ef908290a45050565b60008072184f03e93ff9f4daa797ed6e38ed64bf6a1f0160401b831061492a5772184f03e93ff9f4daa797ed6e38ed64bf6a1f0160401b830492506040015b6d04ee2d6d415b85acef81000000008310614956576d04ee2d6d415b85acef8100000000830492506020015b662386f26fc10000831061497457662386f26fc10000830492506010015b6305f5e100831061498c576305f5e100830492506008015b61271083106149a057612710830492506004015b606483106149b2576064830492506002015b600a8310610b0a5760010192915050565b5080546149cf906153f7565b6000825580601f106149df575050565b601f0160209004906000526020600020908101906120d091905b80821115614a0d57600081556001016149f9565b5090565b6001600160e01b0319811681146120d057600080fd5b600060208284031215614a3957600080fd5b81356145ff81614a11565b6001600160a01b03811681146120d057600080fd5b600060208284031215614a6b57600080fd5b81356145ff81614a44565b600081518084526020808501945080840160005b83811015614aa957815160ff1687529582019590820190600101614a8a565b509495945050505050565b606081526000614ac76060830186614a76565b602083820381850152614ada8287614a76565b8481036040860152855180825282870193509082019060005b81811015614b11578451151583529383019391830191600101614af3565b509098975050505050505050565b60005b83811015614b3a578181015183820152602001614b22565b50506000910152565b60008151808452614b5b816020860160208601614b1f565b601f01601f19169290920160200192915050565b6020815260006145ff6020830184614b43565b600060208284031215614b9457600080fd5b5035919050565b60008060408385031215614bae57600080fd5b8235614bb981614a44565b946020939093013593505050565b634e487b7160e01b600052604160045260246000fd5b604051601f8201601f191681016001600160401b0381118282101715614c0557614c05614bc7565b604052919050565b60006001600160401b03821115614c2657614c26614bc7565b5060051b60200190565b803560ff81168114614c4157600080fd5b919050565b600082601f830112614c5757600080fd5b81356020614c6c614c6783614c0d565b614bdd565b82815260059290921b84018101918181019086841115614c8b57600080fd5b8286015b84811015614cad57614ca081614c30565b8352918301918301614c8f565b509695505050505050565b60008060008060608587031215614cce57600080fd5b8435935060208501356001600160401b0380821115614cec57600080fd5b614cf888838901614c46565b94506040870135915080821115614d0e57600080fd5b818701915087601f830112614d2257600080fd5b813581811115614d3157600080fd5b886020828501011115614d4357600080fd5b95989497505060200194505050565b60008060408385031215614d6557600080fd5b8235614d7081614a44565b9150614d7e60208401614c30565b90509250929050565b600082601f830112614d9857600080fd5b81356020614da8614c6783614c0d565b82815260059290921b84018101918181019086841115614dc757600080fd5b8286015b84811015614cad5780356001600160401b03811115614dea5760008081fd5b614df88986838b0101614c46565b845250918301918301614dcb565b60008083601f840112614e1857600080fd5b5081356001600160401b03811115614e2f57600080fd5b6020830191508360208260051b8501011115614e4a57600080fd5b9250929050565b600080600080600060808688031215614e6957600080fd5b614e7286614c30565b94506020808701356001600160401b0380821115614e8f57600080fd5b818901915089601f830112614ea357600080fd5b8135614eb1614c6782614c0d565b81815260059190911b8301840190848101908c831115614ed057600080fd5b938501935b82851015614eee57843582529385019390850190614ed5565b985050506040890135925080831115614f0657600080fd5b614f128a848b01614d87565b95506060890135925080831115614f2857600080fd5b5050614f3688828901614e06565b969995985093965092949392505050565b60008060208385031215614f5a57600080fd5b82356001600160401b03811115614f7057600080fd5b614f7c85828601614e06565b90969095509350505050565b600080600060608486031215614f9d57600080fd5b8335614fa881614a44565b92506020840135614fb881614a44565b929592945050506040919091013590565b600060208284031215614fdb57600080fd5b6145ff82614c30565b600080600060608486031215614ff957600080fd5b833561500481614a44565b92506020840135915060408401356001600160401b0381111561502657600080fd5b61503286828701614c46565b9150509250925092565b80151581146120d057600080fd5b60006020828403121561505c57600080fd5b81356145ff8161503c565b60006001600160401b0382111561508057615080614bc7565b50601f01601f191660200190565b600061509c614c6784615067565b90508281528383830111156150b057600080fd5b828260208301376000602084830101529392505050565b600082601f8301126150d857600080fd5b6145ff8383356020850161508e565b60008060008060008060c0878903121561510057600080fd5b863561510b81614a44565b9550602087013561511b81614a44565b9450604087013561512b81614a44565b9350606087013561513b81614a44565b925060808701356001600160401b0381111561515657600080fd5b61516289828a016150c7565b92505060a087013561517381614a44565b809150509295509295509295565b6000806040838503121561519457600080fd5b82356001600160401b03808211156151ab57600080fd5b6151b7868387016150c7565b935060208501359150808211156151cd57600080fd5b506151da858286016150c7565b9150509250929050565b6000806000604084860312156151f957600080fd5b833561520481614a44565b925060208401356001600160401b0381111561521f57600080fd5b61522b86828701614e06565b9497909650939450505050565b6000806040838503121561524b57600080fd5b823561525681614a44565b915060208301356152668161503c565b809150509250929050565b6000806000806080858703121561528757600080fd5b843561529281614a44565b93506152a060208601614c30565b925060408501356152b081614a44565b91506152be60608601614c30565b905092959194509250565b600080600080608085870312156152df57600080fd5b84356152ea81614a44565b935060208501356152fa81614a44565b92506040850135915060608501356001600160401b0381111561531c57600080fd5b8501601f8101871361532d57600080fd5b61533c8782356020840161508e565b91505092959194509250565b6000806040838503121561535b57600080fd5b823561536681614a44565b9150602083013561526681614a44565b634e487b7160e01b600052603260045260246000fd5b60006020828403121561539e57600080fd5b81516145ff8161503c565b634e487b7160e01b600052601160045260246000fd5b600060ff821660ff81036153d5576153d56153a9565b60010192915050565b6000600182016153f0576153f06153a9565b5060010190565b600181811c9082168061540b57607f821691505b60208210810361256a57634e487b7160e01b600052602260045260246000fd5b6001600160a01b0386168152602080820186905260806040830181905285519083018190526000918681019160a0850190845b8181101561547d57845160ff168352938301939183019160010161545e565b505084810360608601528581528587838301376000818701830152601f909501601f1916909401909301979650505050505050565b6000602082840312156154c457600080fd5b81516145ff81614a44565b6000808335601e198436030181126154e657600080fd5b8301803591506001600160401b0382111561550057600080fd5b602001915036819003821315614e4a57600080fd5b80820180821115610b0a57610b0a6153a9565b60006020828403121561553a57600080fd5b5051919050565b600060ff821680615554576155546153a9565b6000190192915050565b60008184825b8581101561558d5760ff61557783614c30565b1683526020928301929190910190600101615564565b509095945050505050565b81810381811115610b0a57610b0a6153a9565b6020808252602d908201527f4552433732313a2063616c6c6572206973206e6f7420746f6b656e206f776e6560408201526c1c881bdc88185c1c1c9bdd9959609a1b606082015260800190565b60208082526017908201527f5468697320636172642068617320616e206f666665722e000000000000000000604082015260600190565b60008261564c57634e487b7160e01b600052601260045260246000fd5b500490565b601f82111561108e57600081815260208120601f850160051c810160208610156156785750805b601f850160051c820191505b8181101561146f57828155600101615684565b81516001600160401b038111156156b0576156b0614bc7565b6156c4816156be84546153f7565b84615651565b602080601f8311600181146156f957600084156156e15750858301515b600019600386901b1c1916600185901b17855561146f565b600085815260208120601f198616915b8281101561572857888601518255948401946001909101908401615709565b50858210156157465787850151600019600388901b60f8161c191681555b5050505050600190811b01905550565b6000808654615764816153f7565b6001828116801561577c5760018114615791576157c0565b60ff19841687528215158302870194506157c0565b8a60005260208060002060005b858110156157b75781548a82015290840190820161579e565b50505082870194505b5050505085516157d4818360208a01614b1f565b85519101906157e7818360208901614b1f565b84519101906157fa818360208801614b1f565b019695505050505050565b60008251615817818460208701614b1f565b9190910192915050565b60006020828403121561583357600080fd5b81516001600160401b0381111561584957600080fd5b8201601f8101841361585a57600080fd5b8051615868614c6782615067565b81815285602083850101111561587d57600080fd5b61588e826020830160208601614b1f565b95945050505050565b8082028115828204841417610b0a57610b0a6153a9565b815160009082906020808601845b838110156158db57815160ff16855293820193908201906001016158bc565b50929695505050505050565b60208082526025908201527f4552433732313a207472616e736665722066726f6d20696e636f72726563742060408201526437bbb732b960d91b606082015260800190565b60208082526032908201527f4552433732313a207472616e7366657220746f206e6f6e20455243373231526560408201527131b2b4bb32b91034b6b83632b6b2b73a32b960711b606082015260800190565b60008351615990818460208801614b1f565b8351908301906159a4818360208801614b1f565b01949350505050565b6001600160a01b03858116825284166020820152604081018390526080606082018190526000906159e090830184614b43565b9695505050505050565b6000602082840312156159fc57600080fd5b81516145ff81614a1156fea264697066735822122037e4870fe1827025a5878dbedd00e617ea8ebf7de08517dc09f16363951ab41464736f6c63430008140033",
  "linkReferences": {
    "contracts/gamma/libs/LibControlMgmt.sol": {
      "LibControlMgmt": [
        {
          "length": 20,
          "start": 5023
        },
        {
          "length": 20,
          "start": 5709
        },
        {
          "length": 20,
          "start": 9707
        },
        {
          "length": 20,
          "start": 15088
        }
      ]
    },
    "contracts/gamma/libs/LibPackVerifier.sol": {
      "LibPackVerifier": [
        {
          "length": 20,
          "start": 5285
        },
        {
          "length": 20,
          "start": 15769
        }
      ]
    },
    "contracts/gamma/libs/LibStringUtils.sol": {
      "LibStringUtils": [
        {
          "length": 20,
          "start": 14286
        }
      ]
    }
  },
  "deployedLinkReferences": {
    "contracts/gamma/libs/LibControlMgmt.sol": {
      "LibControlMgmt": [
        {
          "length": 20,
          "start": 4328
        },
        {
          "length": 20,
          "start": 5014
        },
        {
          "length": 20,
          "start": 9012
        },
        {
          "length": 20,
          "start": 14393
        }
      ]
    },
    "contracts/gamma/libs/LibPackVerifier.sol": {
      "LibPackVerifier": [
        {
          "length": 20,
          "start": 4590
        },
        {
          "length": 20,
          "start": 15074
        }
      ]
    },
    "contracts/gamma/libs/LibStringUtils.sol": {
      "LibStringUtils": [
        {
          "length": 20,
          "start": 13591
        }
      ]
    }
  }
}