{
  "_format": "hh-sol-artifact-1",
  "contractName": "NOF_Alpha",
  "sourceName": "contracts/NOF-SC.sol",
  "abi": [
    {
      "inputs": [
        {
          "internalType": "string",
          "name": "__baseUri",
          "type": "string"
        },
        {
          "internalType": "address",
          "name": "_daiTokenAddress",
          "type": "address"
        },
        {
          "internalType": "address",
          "name": "_balanceReceiver",
          "type": "address"
        }
      ],
      "stateMutability": "nonpayable",
      "type": "constructor"
    },
    {
      "anonymous": false,
      "inputs": [
        {
          "indexed": true,
          "internalType": "address",
          "name": "owner",
          "type": "address"
        },
        {
          "indexed": true,
          "internalType": "address",
          "name": "approved",
          "type": "address"
        },
        {
          "indexed": true,
          "internalType": "uint256",
          "name": "tokenId",
          "type": "uint256"
        }
      ],
      "name": "Approval",
      "type": "event"
    },
    {
      "anonymous": false,
      "inputs": [
        {
          "indexed": true,
          "internalType": "address",
          "name": "owner",
          "type": "address"
        },
        {
          "indexed": true,
          "internalType": "address",
          "name": "operator",
          "type": "address"
        },
        {
          "indexed": false,
          "internalType": "bool",
          "name": "approved",
          "type": "bool"
        }
      ],
      "name": "ApprovalForAll",
      "type": "event"
    },
    {
      "anonymous": false,
      "inputs": [
        {
          "indexed": false,
          "internalType": "address",
          "name": "buyer",
          "type": "address"
        },
        {
          "indexed": false,
          "internalType": "string",
          "name": "seasonName",
          "type": "string"
        }
      ],
      "name": "BuyPack",
      "type": "event"
    },
    {
      "anonymous": false,
      "inputs": [
        {
          "indexed": true,
          "internalType": "address",
          "name": "previousOwner",
          "type": "address"
        },
        {
          "indexed": true,
          "internalType": "address",
          "name": "newOwner",
          "type": "address"
        }
      ],
      "name": "OwnershipTransferred",
      "type": "event"
    },
    {
      "anonymous": false,
      "inputs": [
        {
          "indexed": true,
          "internalType": "address",
          "name": "from",
          "type": "address"
        },
        {
          "indexed": true,
          "internalType": "address",
          "name": "to",
          "type": "address"
        },
        {
          "indexed": true,
          "internalType": "uint256",
          "name": "tokenId",
          "type": "uint256"
        }
      ],
      "name": "Transfer",
      "type": "event"
    },
    {
      "anonymous": false,
      "inputs": [
        {
          "indexed": false,
          "internalType": "address",
          "name": "winner",
          "type": "address"
        },
        {
          "indexed": false,
          "internalType": "string",
          "name": "season",
          "type": "string"
        },
        {
          "indexed": false,
          "internalType": "uint256",
          "name": "position",
          "type": "uint256"
        }
      ],
      "name": "Winner",
      "type": "event"
    },
    {
      "inputs": [],
      "name": "DAI_TOKEN",
      "outputs": [
        {
          "internalType": "address",
          "name": "",
          "type": "address"
        }
      ],
      "stateMutability": "view",
      "type": "function"
    },
    {
      "inputs": [
        {
          "internalType": "address",
          "name": "to",
          "type": "address"
        },
        {
          "internalType": "uint256",
          "name": "tokenId",
          "type": "uint256"
        }
      ],
      "name": "approve",
      "outputs": [],
      "stateMutability": "nonpayable",
      "type": "function"
    },
    {
      "inputs": [
        {
          "internalType": "address",
          "name": "owner",
          "type": "address"
        }
      ],
      "name": "balanceOf",
      "outputs": [
        {
          "internalType": "uint256",
          "name": "",
          "type": "uint256"
        }
      ],
      "stateMutability": "view",
      "type": "function"
    },
    {
      "inputs": [],
      "name": "balanceReceiver",
      "outputs": [
        {
          "internalType": "address",
          "name": "",
          "type": "address"
        }
      ],
      "stateMutability": "view",
      "type": "function"
    },
    {
      "inputs": [],
      "name": "baseUri",
      "outputs": [
        {
          "internalType": "string",
          "name": "",
          "type": "string"
        }
      ],
      "stateMutability": "view",
      "type": "function"
    },
    {
      "inputs": [
        {
          "internalType": "uint256",
          "name": "amount",
          "type": "uint256"
        },
        {
          "internalType": "string",
          "name": "name",
          "type": "string"
        }
      ],
      "name": "buyPack",
      "outputs": [],
      "stateMutability": "nonpayable",
      "type": "function"
    },
    {
      "inputs": [
        {
          "internalType": "uint256",
          "name": "",
          "type": "uint256"
        }
      ],
      "name": "cards",
      "outputs": [
        {
          "internalType": "uint256",
          "name": "tokenId",
          "type": "uint256"
        },
        {
          "internalType": "uint256",
          "name": "class",
          "type": "uint256"
        },
        {
          "internalType": "uint256",
          "name": "collection",
          "type": "uint256"
        },
        {
          "internalType": "string",
          "name": "season",
          "type": "string"
        },
        {
          "internalType": "uint256",
          "name": "completion",
          "type": "uint256"
        },
        {
          "internalType": "uint256",
          "name": "number",
          "type": "uint256"
        }
      ],
      "stateMutability": "view",
      "type": "function"
    },
    {
      "inputs": [
        {
          "internalType": "address",
          "name": "",
          "type": "address"
        },
        {
          "internalType": "string",
          "name": "",
          "type": "string"
        },
        {
          "internalType": "uint256",
          "name": "",
          "type": "uint256"
        }
      ],
      "name": "cardsByUserBySeason",
      "outputs": [
        {
          "internalType": "uint256",
          "name": "tokenId",
          "type": "uint256"
        },
        {
          "internalType": "uint256",
          "name": "class",
          "type": "uint256"
        },
        {
          "internalType": "uint256",
          "name": "collection",
          "type": "uint256"
        },
        {
          "internalType": "string",
          "name": "season",
          "type": "string"
        },
        {
          "internalType": "uint256",
          "name": "completion",
          "type": "uint256"
        },
        {
          "internalType": "uint256",
          "name": "number",
          "type": "uint256"
        }
      ],
      "stateMutability": "view",
      "type": "function"
    },
    {
      "inputs": [
        {
          "internalType": "uint256",
          "name": "tokenId",
          "type": "uint256"
        }
      ],
      "name": "getApproved",
      "outputs": [
        {
          "internalType": "address",
          "name": "",
          "type": "address"
        }
      ],
      "stateMutability": "view",
      "type": "function"
    },
    {
      "inputs": [
        {
          "internalType": "address",
          "name": "_user",
          "type": "address"
        },
        {
          "internalType": "string",
          "name": "_seasonName",
          "type": "string"
        }
      ],
      "name": "getCardsByUserBySeason",
      "outputs": [
        {
          "components": [
            {
              "internalType": "uint256",
              "name": "tokenId",
              "type": "uint256"
            },
            {
              "internalType": "uint256",
              "name": "class",
              "type": "uint256"
            },
            {
              "internalType": "uint256",
              "name": "collection",
              "type": "uint256"
            },
            {
              "internalType": "string",
              "name": "season",
              "type": "string"
            },
            {
              "internalType": "uint256",
              "name": "completion",
              "type": "uint256"
            },
            {
              "internalType": "uint256",
              "name": "number",
              "type": "uint256"
            }
          ],
          "internalType": "struct NOF_Alpha.Card[]",
          "name": "",
          "type": "tuple[]"
        }
      ],
      "stateMutability": "view",
      "type": "function"
    },
    {
      "inputs": [
        {
          "internalType": "string",
          "name": "name",
          "type": "string"
        }
      ],
      "name": "getSeasonAlbums",
      "outputs": [
        {
          "internalType": "uint256[]",
          "name": "",
          "type": "uint256[]"
        }
      ],
      "stateMutability": "view",
      "type": "function"
    },
    {
      "inputs": [
        {
          "internalType": "string",
          "name": "name",
          "type": "string"
        }
      ],
      "name": "getSeasonCards",
      "outputs": [
        {
          "internalType": "uint256[]",
          "name": "",
          "type": "uint256[]"
        }
      ],
      "stateMutability": "view",
      "type": "function"
    },
    {
      "inputs": [],
      "name": "getSeasonData",
      "outputs": [
        {
          "internalType": "string[]",
          "name": "",
          "type": "string[]"
        },
        {
          "internalType": "uint256[]",
          "name": "",
          "type": "uint256[]"
        }
      ],
      "stateMutability": "view",
      "type": "function"
    },
    {
      "inputs": [
        {
          "internalType": "string",
          "name": "_seasonName",
          "type": "string"
        }
      ],
      "name": "getWinners",
      "outputs": [
        {
          "internalType": "address[]",
          "name": "",
          "type": "address[]"
        }
      ],
      "stateMutability": "view",
      "type": "function"
    },
    {
      "inputs": [
        {
          "internalType": "address",
          "name": "_owner",
          "type": "address"
        },
        {
          "internalType": "address",
          "name": "_operator",
          "type": "address"
        }
      ],
      "name": "isApprovedForAll",
      "outputs": [
        {
          "internalType": "bool",
          "name": "isOperator",
          "type": "bool"
        }
      ],
      "stateMutability": "view",
      "type": "function"
    },
    {
      "inputs": [],
      "name": "name",
      "outputs": [
        {
          "internalType": "string",
          "name": "",
          "type": "string"
        }
      ],
      "stateMutability": "view",
      "type": "function"
    },
    {
      "inputs": [
        {
          "internalType": "string",
          "name": "name",
          "type": "string"
        },
        {
          "internalType": "uint256",
          "name": "price",
          "type": "uint256"
        },
        {
          "internalType": "uint256",
          "name": "amount",
          "type": "uint256"
        },
        {
          "internalType": "string",
          "name": "folder",
          "type": "string"
        }
      ],
      "name": "newSeason",
      "outputs": [],
      "stateMutability": "nonpayable",
      "type": "function"
    },
    {
      "inputs": [],
      "name": "owner",
      "outputs": [
        {
          "internalType": "address",
          "name": "",
          "type": "address"
        }
      ],
      "stateMutability": "view",
      "type": "function"
    },
    {
      "inputs": [
        {
          "internalType": "uint256",
          "name": "tokenId",
          "type": "uint256"
        }
      ],
      "name": "ownerOf",
      "outputs": [
        {
          "internalType": "address",
          "name": "",
          "type": "address"
        }
      ],
      "stateMutability": "view",
      "type": "function"
    },
    {
      "inputs": [
        {
          "internalType": "uint256",
          "name": "card",
          "type": "uint256"
        },
        {
          "internalType": "uint256",
          "name": "album",
          "type": "uint256"
        }
      ],
      "name": "pasteCards",
      "outputs": [],
      "stateMutability": "nonpayable",
      "type": "function"
    },
    {
      "inputs": [],
      "name": "prizesBalance",
      "outputs": [
        {
          "internalType": "uint256",
          "name": "",
          "type": "uint256"
        }
      ],
      "stateMutability": "view",
      "type": "function"
    },
    {
      "inputs": [],
      "name": "renounceOwnership",
      "outputs": [],
      "stateMutability": "nonpayable",
      "type": "function"
    },
    {
      "inputs": [
        {
          "internalType": "address",
          "name": "from",
          "type": "address"
        },
        {
          "internalType": "address",
          "name": "to",
          "type": "address"
        },
        {
          "internalType": "uint256",
          "name": "tokenId",
          "type": "uint256"
        }
      ],
      "name": "safeTransferFrom",
      "outputs": [],
      "stateMutability": "nonpayable",
      "type": "function"
    },
    {
      "inputs": [
        {
          "internalType": "address",
          "name": "from",
          "type": "address"
        },
        {
          "internalType": "address",
          "name": "to",
          "type": "address"
        },
        {
          "internalType": "uint256",
          "name": "tokenId",
          "type": "uint256"
        },
        {
          "internalType": "bytes",
          "name": "data",
          "type": "bytes"
        }
      ],
      "name": "safeTransferFrom",
      "outputs": [],
      "stateMutability": "nonpayable",
      "type": "function"
    },
    {
      "inputs": [
        {
          "internalType": "uint256",
          "name": "",
          "type": "uint256"
        }
      ],
      "name": "seasonNames",
      "outputs": [
        {
          "internalType": "string",
          "name": "",
          "type": "string"
        }
      ],
      "stateMutability": "view",
      "type": "function"
    },
    {
      "inputs": [
        {
          "internalType": "uint256",
          "name": "",
          "type": "uint256"
        }
      ],
      "name": "seasonPrices",
      "outputs": [
        {
          "internalType": "uint256",
          "name": "",
          "type": "uint256"
        }
      ],
      "stateMutability": "view",
      "type": "function"
    },
    {
      "inputs": [
        {
          "internalType": "string",
          "name": "",
          "type": "string"
        }
      ],
      "name": "seasons",
      "outputs": [
        {
          "internalType": "uint256",
          "name": "price",
          "type": "uint256"
        },
        {
          "internalType": "string",
          "name": "folder",
          "type": "string"
        }
      ],
      "stateMutability": "view",
      "type": "function"
    },
    {
      "inputs": [
        {
          "internalType": "address",
          "name": "operator",
          "type": "address"
        },
        {
          "internalType": "bool",
          "name": "approved",
          "type": "bool"
        }
      ],
      "name": "setApprovalForAll",
      "outputs": [],
      "stateMutability": "nonpayable",
      "type": "function"
    },
    {
      "inputs": [
        {
          "internalType": "address",
          "name": "_newBalanceReceiver",
          "type": "address"
        }
      ],
      "name": "setBalanceReceiver",
      "outputs": [],
      "stateMutability": "nonpayable",
      "type": "function"
    },
    {
      "inputs": [
        {
          "internalType": "string",
          "name": "__baseURI",
          "type": "string"
        }
      ],
      "name": "setBaseURI",
      "outputs": [],
      "stateMutability": "nonpayable",
      "type": "function"
    },
    {
      "inputs": [
        {
          "internalType": "bytes4",
          "name": "interfaceId",
          "type": "bytes4"
        }
      ],
      "name": "supportsInterface",
      "outputs": [
        {
          "internalType": "bool",
          "name": "",
          "type": "bool"
        }
      ],
      "stateMutability": "view",
      "type": "function"
    },
    {
      "inputs": [],
      "name": "symbol",
      "outputs": [
        {
          "internalType": "string",
          "name": "",
          "type": "string"
        }
      ],
      "stateMutability": "view",
      "type": "function"
    },
    {
      "inputs": [
        {
          "internalType": "uint256",
          "name": "tokenId",
          "type": "uint256"
        }
      ],
      "name": "tokenURI",
      "outputs": [
        {
          "internalType": "string",
          "name": "",
          "type": "string"
        }
      ],
      "stateMutability": "view",
      "type": "function"
    },
    {
      "inputs": [
        {
          "internalType": "address",
          "name": "from",
          "type": "address"
        },
        {
          "internalType": "address",
          "name": "to",
          "type": "address"
        },
        {
          "internalType": "uint256",
          "name": "tokenId",
          "type": "uint256"
        }
      ],
      "name": "transferFrom",
      "outputs": [],
      "stateMutability": "nonpayable",
      "type": "function"
    },
    {
      "inputs": [
        {
          "internalType": "address",
          "name": "newOwner",
          "type": "address"
        }
      ],
      "name": "transferOwnership",
      "outputs": [],
      "stateMutability": "nonpayable",
      "type": "function"
    }
  ],
  "bytecode": "0x60806040526040518060e00160405280601460ff168152602001600e60ff168152602001600c60ff168152602001600a60ff168152602001600860ff168152602001600660ff168152602001600560ff16815250600f906007620000659291906200037c565b503480156200007357600080fd5b5060405162007ced38038062007ced833981810160405281019062000099919062000634565b6040518060400160405280600981526020017f4e4f4620416c70686100000000000000000000000000000000000000000000008152506040518060400160405280600481526020017f4e4f4641000000000000000000000000000000000000000000000000000000008152508160009081620001169190620008fa565b508060019081620001289190620008fa565b5050506200014b6200013f620001e860201b60201c565b6200020460201b60201c565b82600990816200015c9190620008fa565b5081601360006101000a81548173ffffffffffffffffffffffffffffffffffffffff021916908373ffffffffffffffffffffffffffffffffffffffff16021790555080600a60006101000a81548173ffffffffffffffffffffffffffffffffffffffff021916908373ffffffffffffffffffffffffffffffffffffffff160217905550505050620009e1565b6000620001ff620002ca60201b62002cfb1760201c565b905090565b6000600760009054906101000a900473ffffffffffffffffffffffffffffffffffffffff16905081600760006101000a81548173ffffffffffffffffffffffffffffffffffffffff021916908373ffffffffffffffffffffffffffffffffffffffff1602179055508173ffffffffffffffffffffffffffffffffffffffff168173ffffffffffffffffffffffffffffffffffffffff167f8be0079c531659141344cd1fd0a4f28419497f9722a3daafe3b4186f6b6457e060405160405180910390a35050565b60003073ffffffffffffffffffffffffffffffffffffffff163373ffffffffffffffffffffffffffffffffffffffff16036200037557600080368080601f016020809104026020016040519081016040528093929190818152602001838380828437600081840152601f19601f820116905080830192505050505050509050600080369050905073ffffffffffffffffffffffffffffffffffffffff81830151169250505062000379565b3390505b90565b826007601f016020900481019282156200040a5791602002820160005b83821115620003d957835183826101000a81548160ff021916908360ff160217905550926020019260010160208160000104928301926001030262000399565b8015620004085782816101000a81549060ff0219169055600101602081600001049283019260010302620003d9565b505b5090506200041991906200041d565b5090565b5b80821115620004385760008160009055506001016200041e565b5090565b6000604051905090565b600080fd5b600080fd5b600080fd5b600080fd5b6000601f19601f8301169050919050565b7f4e487b7100000000000000000000000000000000000000000000000000000000600052604160045260246000fd5b620004a5826200045a565b810181811067ffffffffffffffff82111715620004c757620004c66200046b565b5b80604052505050565b6000620004dc6200043c565b9050620004ea82826200049a565b919050565b600067ffffffffffffffff8211156200050d576200050c6200046b565b5b62000518826200045a565b9050602081019050919050565b60005b838110156200054557808201518184015260208101905062000528565b60008484015250505050565b6000620005686200056284620004ef565b620004d0565b90508281526020810184848401111562000587576200058662000455565b5b6200059484828562000525565b509392505050565b600082601f830112620005b457620005b362000450565b5b8151620005c684826020860162000551565b91505092915050565b600073ffffffffffffffffffffffffffffffffffffffff82169050919050565b6000620005fc82620005cf565b9050919050565b6200060e81620005ef565b81146200061a57600080fd5b50565b6000815190506200062e8162000603565b92915050565b60008060006060848603121562000650576200064f62000446565b5b600084015167ffffffffffffffff8111156200067157620006706200044b565b5b6200067f868287016200059c565b935050602062000692868287016200061d565b9250506040620006a5868287016200061d565b9150509250925092565b600081519050919050565b7f4e487b7100000000000000000000000000000000000000000000000000000000600052602260045260246000fd5b600060028204905060018216806200070257607f821691505b602082108103620007185762000717620006ba565b5b50919050565b60008190508160005260206000209050919050565b60006020601f8301049050919050565b600082821b905092915050565b600060088302620007827fffffffffffffffffffffffffffffffffffffffffffffffffffffffffffffffff8262000743565b6200078e868362000743565b95508019841693508086168417925050509392505050565b6000819050919050565b6000819050919050565b6000620007db620007d5620007cf84620007a6565b620007b0565b620007a6565b9050919050565b6000819050919050565b620007f783620007ba565b6200080f6200080682620007e2565b84845462000750565b825550505050565b600090565b6200082662000817565b62000833818484620007ec565b505050565b5b818110156200085b576200084f6000826200081c565b60018101905062000839565b5050565b601f821115620008aa5762000874816200071e565b6200087f8462000733565b810160208510156200088f578190505b620008a76200089e8562000733565b83018262000838565b50505b505050565b600082821c905092915050565b6000620008cf60001984600802620008af565b1980831691505092915050565b6000620008ea8383620008bc565b9150826002028217905092915050565b6200090582620006af565b67ffffffffffffffff8111156200092157620009206200046b565b5b6200092d8254620006e9565b6200093a8282856200085f565b600060209050601f8311600181146200097257600084156200095d578287015190505b620009698582620008dc565b865550620009d9565b601f19841662000982866200071e565b60005b82811015620009ac5784890151825560018201915060208501945060208101905062000985565b86831015620009cc5784890151620009c8601f891682620008bc565b8355505b6001600288020188555050505b505050505050565b6172fc80620009f16000396000f3fe608060405234801561001057600080fd5b50600436106102115760003560e01c80638477919b11610125578063be20e5a9116100ad578063e5db587a1161007c578063e5db587a14610668578063e606df8714610686578063e985e9c5146106a4578063e9d43f7d146106d4578063f2fde38b1461070457610211565b8063be20e5a9146105bc578063c1f3a3bb146105ec578063c87b56dd14610608578063d1811d021461063857610211565b806395d89b41116100f457806395d89b41146105295780639abc832014610547578063a22cb46514610565578063b773d5c114610581578063b88d4fde146105a057610211565b80638477919b1461048a5780638da5cb5b146104a65780638dc10768146104c457806395a4c525146104f957610211565b806342842e0e116101a85780636352211e116101775780636352211e146103bf57806370a08231146103ef578063715018a61461041f578063787f0b051461042957806383c73d811461045a57610211565b806342842e0e1461033957806355f804b31461035557806361c66c1614610371578063627b253f146103a157610211565b8063095ea7b3116101e4578063095ea7b3146102b057806323b872dd146102cc578063308f5987146102e857806341c2c10f1461031d57610211565b8063015db3961461021657806301ffc9a71461023257806306fdde0314610262578063081812fc14610280575b600080fd5b610230600480360381019061022b9190614d8b565b610720565b005b61024c60048036038101906102479190614e3f565b610f8b565b6040516102599190614e87565b60405180910390f35b61026a610f9d565b6040516102779190614f21565b60405180910390f35b61029a60048036038101906102959190614f43565b61102f565b6040516102a79190614fb1565b60405180910390f35b6102ca60048036038101906102c59190614ff8565b611075565b005b6102e660048036038101906102e19190615038565b61118c565b005b61030260048036038101906102fd919061508b565b61119c565b60405161031496959493929190615109565b60405180910390f35b61033760048036038101906103329190615171565b6112a0565b005b610353600480360381019061034e9190615038565b611d61565b005b61036f600480360381019061036a91906151b1565b611d81565b005b61038b60048036038101906103869190614f43565b611d9c565b6040516103989190614f21565b60405180910390f35b6103a9611e48565b6040516103b69190614fb1565b60405180910390f35b6103d960048036038101906103d49190614f43565b611e6e565b6040516103e69190614fb1565b60405180910390f35b610409600480360381019061040491906151fa565b611ef4565b6040516104169190615227565b60405180910390f35b610427611fab565b005b610443600480360381019061043e91906151b1565b611fbf565b604051610451929190615242565b60405180910390f35b610474600480360381019061046f91906151b1565b612081565b6040516104819190615330565b60405180910390f35b6104a4600480360381019061049f9190615352565b6120fa565b005b6104ae61231f565b6040516104bb9190614fb1565b60405180910390f35b6104de60048036038101906104d99190614f43565b612349565b6040516104f096959493929190615109565b60405180910390f35b610513600480360381019061050e9190615451565b61240d565b604051610520919061555c565b60405180910390f35b6105316124bc565b60405161053e9190614f21565b60405180910390f35b61054f61254e565b60405161055c9190614f21565b60405180910390f35b61057f600480360381019061057a91906155aa565b6125dc565b005b6105896125f2565b6040516105979291906156f6565b60405180910390f35b6105ba60048036038101906105b591906157ce565b612726565b005b6105d660048036038101906105d191906151b1565b61296a565b6040516105e39190615330565b60405180910390f35b610606600480360381019061060191906151fa565b6129e3565b005b610622600480360381019061061d9190614f43565b612a2f565b60405161062f9190614f21565b60405180910390f35b610652600480360381019061064d9190614f43565b612a41565b60405161065f9190615227565b60405180910390f35b610670612a65565b60405161067d9190615227565b60405180910390f35b61068e612a6b565b60405161069b9190614fb1565b60405180910390f35b6106be60048036038101906106b99190615851565b612a91565b6040516106cb9190614e87565b60405180910390f35b6106ee60048036038101906106e99190615891565b612af6565b6040516106fb9190615a3c565b60405180910390f35b61071e600480360381019061071991906151fa565b612c78565b005b600b816040516107309190615a9a565b908152602001604051809103902060030160003373ffffffffffffffffffffffffffffffffffffffff1673ffffffffffffffffffffffffffffffffffffffff16815260200190815260200160002060009054906101000a900460ff16156107cc576040517f08c379a00000000000000000000000000000000000000000000000000000000081526004016107c390615afd565b60405180910390fd5b6001600b826040516107de9190615a9a565b908152602001604051809103902060030160003373ffffffffffffffffffffffffffffffffffffffff1673ffffffffffffffffffffffffffffffffffffffff16815260200190815260200160002060006101000a81548160ff02191690831515021790555081600b826040516108549190615a9a565b908152602001604051809103902060000154146108a6576040517f08c379a000000000000000000000000000000000000000000000000000000000815260040161089d90615b69565b60405180910390fd5b60006064604b846108b79190615bb8565b6108c19190615c29565b905080601260008282546108d59190615c5a565b92505081905550601360009054906101000a900473ffffffffffffffffffffffffffffffffffffffff1673ffffffffffffffffffffffffffffffffffffffff166323b872dd3330846040518463ffffffff1660e01b815260040161093b93929190615c8e565b6020604051808303816000875af115801561095a573d6000803e3d6000fd5b505050506040513d601f19601f8201168201806040525081019061097e9190615cda565b50601360009054906101000a900473ffffffffffffffffffffffffffffffffffffffff1673ffffffffffffffffffffffffffffffffffffffff166323b872dd33600a60009054906101000a900473ffffffffffffffffffffffffffffffffffffffff1684876109ed9190615d07565b6040518463ffffffff1660e01b8152600401610a0b93929190615c8e565b6020604051808303816000875af1158015610a2a573d6000803e3d6000fd5b505050506040513d601f19601f82011682018060405250810190610a4e9190615cda565b506000600b83604051610a619190615a9a565b90815260200160405180910390206002018054905042604051602001610a879190615d5c565b6040516020818303038152906040528051906020012060001c610aaa9190615d77565b90506000600b84604051610abe9190615a9a565b90815260200160405180910390206002018281548110610ae157610ae0615da8565b5b90600052602060002001549050600b84604051610afe9190615a9a565b90815260200160405180910390206002016001600b86604051610b219190615a9a565b908152602001604051809103902060020180549050610b409190615d07565b81548110610b5157610b50615da8565b5b9060005260206000200154600b85604051610b6c9190615a9a565b90815260200160405180910390206002018381548110610b8f57610b8e615da8565b5b9060005260206000200181905550600b84604051610bad9190615a9a565b9081526020016040518091039020600201805480610bce57610bcd615dd7565b5b60019003818190600052602060002001600090559055610cc233600b86604051610bf89190615a9a565b90815260200160405180910390206004016040518060400160405280600181526020017f2f00000000000000000000000000000000000000000000000000000000000000815250610c4885612dab565b6040518060400160405280600581526020017f2e6a736f6e000000000000000000000000000000000000000000000000000000815250604051602001610c919493929190615f45565b60405160208183030381529060405260006001600686610cb19190615c29565b610cbb9190615d07565b8886612f0b565b505060005b6005811015610f4c576000600b84604051610ce29190615a9a565b90815260200160405180910390206001018054905042604051602001610d089190615d5c565b6040516020818303038152906040528051906020012060001c610d2b9190615d77565b90506000600b85604051610d3f9190615a9a565b90815260200160405180910390206001018281548110610d6257610d61615da8565b5b90600052602060002001549050600b85604051610d7f9190615a9a565b90815260200160405180910390206001016001600b87604051610da29190615a9a565b908152602001604051809103902060010180549050610dc19190615d07565b81548110610dd257610dd1615da8565b5b9060005260206000200154600b86604051610ded9190615a9a565b90815260200160405180910390206001018381548110610e1057610e0f615da8565b5b9060005260206000200181905550600b85604051610e2e9190615a9a565b9081526020016040518091039020600101805480610e4f57610e4e615dd7565b5b60019003818190600052602060002001600090559055610f3733600b87604051610e799190615a9a565b90815260200160405180910390206004016040518060400160405280600181526020017f2f00000000000000000000000000000000000000000000000000000000000000815250610ec985612dab565b6040518060400160405280600581526020017f2e6a736f6e000000000000000000000000000000000000000000000000000000815250604051602001610f129493929190615f45565b6040516020818303038152906040526001600685610f309190615c29565b8986612f0b565b50508080610f4490615f83565b915050610cc7565b507f55d44f7f091f0389b4dcb1b6ae002ed20fe8229c546e6aaf1ccac2646cdf514c3383604051610f7e929190615fcb565b60405180910390a1505050565b6000610f96826130b0565b9050919050565b606060008054610fac90615e35565b80601f0160208091040260200160405190810160405280929190818152602001828054610fd890615e35565b80156110255780601f10610ffa57610100808354040283529160200191611025565b820191906000526020600020905b81548152906001019060200180831161100857829003601f168201915b5050505050905090565b600061103a82613192565b6004600083815260200190815260200160002060009054906101000a900473ffffffffffffffffffffffffffffffffffffffff169050919050565b600061108082611e6e565b90508073ffffffffffffffffffffffffffffffffffffffff168373ffffffffffffffffffffffffffffffffffffffff16036110f0576040517f08c379a00000000000000000000000000000000000000000000000000000000081526004016110e79061606d565b60405180910390fd5b8073ffffffffffffffffffffffffffffffffffffffff1661110f6131dd565b73ffffffffffffffffffffffffffffffffffffffff16148061113e575061113d816111386131dd565b612a91565b5b61117d576040517f08c379a0000000000000000000000000000000000000000000000000000000008152600401611174906160ff565b60405180910390fd5b61118783836131ec565b505050565b611197838383611d61565b505050565b600e6020528260005260406000208280516020810182018051848252602083016020850120818352809550505050505081815481106111da57600080fd5b9060005260206000209060060201600092509250505080600001549080600101549080600201549080600301805461121190615e35565b80601f016020809104026020016040519081016040528092919081815260200182805461123d90615e35565b801561128a5780601f1061125f5761010080835404028352916020019161128a565b820191906000526020600020905b81548152906001019060200180831161126d57829003601f168201915b5050505050908060040154908060050154905086565b3373ffffffffffffffffffffffffffffffffffffffff166112c083611e6e565b73ffffffffffffffffffffffffffffffffffffffff1614611316576040517f08c379a000000000000000000000000000000000000000000000000000000000815260040161130d9061616b565b60405180910390fd5b3373ffffffffffffffffffffffffffffffffffffffff1661133682611e6e565b73ffffffffffffffffffffffffffffffffffffffff161461138c576040517f08c379a0000000000000000000000000000000000000000000000000000000008152600401611383906161d7565b60405180910390fd5b6000600c600083815260200190815260200160002060010154146113e5576040517f08c379a00000000000000000000000000000000000000000000000000000000081526004016113dc90616243565b60405180910390fd5b600c600082815260200190815260200160002060020154600c60008481526020019081526020016000206002015414611453576040517f08c379a000000000000000000000000000000000000000000000000000000000815260040161144a906162d5565b60405180910390fd5b60005b600e60003373ffffffffffffffffffffffffffffffffffffffff1673ffffffffffffffffffffffffffffffffffffffff168152602001908152602001600020600c60008581526020019081526020016000206003016040516114b8919061638d565b9081526020016040518091039020805490508160ff16101561185857600c600084815260200190815260200160002060050154600e60003373ffffffffffffffffffffffffffffffffffffffff1673ffffffffffffffffffffffffffffffffffffffff168152602001908152602001600020600c600086815260200190815260200160002060030160405161154d919061638d565b90815260200160405180910390208260ff16815481106115705761156f615da8565b5b9060005260206000209060060201600501540361184557600e60003373ffffffffffffffffffffffffffffffffffffffff1673ffffffffffffffffffffffffffffffffffffffff168152602001908152602001600020600c60008581526020019081526020016000206003016040516115e9919061638d565b90815260200160405180910390206001600e60003373ffffffffffffffffffffffffffffffffffffffff1673ffffffffffffffffffffffffffffffffffffffff168152602001908152602001600020600c600087815260200190815260200160002060030160405161165b919061638d565b9081526020016040518091039020805490506116779190615d07565b8154811061168857611687615da8565b5b9060005260206000209060060201600e60003373ffffffffffffffffffffffffffffffffffffffff1673ffffffffffffffffffffffffffffffffffffffff168152602001908152602001600020600c60008681526020019081526020016000206003016040516116f8919061638d565b90815260200160405180910390208260ff168154811061171b5761171a615da8565b5b90600052602060002090600602016000820154816000015560018201548160010155600282015481600201556003820181600301908161175b9190616551565b506004820154816004015560058201548160050155905050600e60003373ffffffffffffffffffffffffffffffffffffffff1673ffffffffffffffffffffffffffffffffffffffff168152602001908152602001600020600c60008581526020019081526020016000206003016040516117d5919061638d565b90815260200160405180910390208054806117f3576117f2615dd7565b5b6001900381819060005260206000209060060201600080820160009055600182016000905560028201600090556003820160006118309190614b9e565b60048201600090556005820160009055505090555b808061185090616646565b915050611456565b50611862826132a5565b600c6000828152602001908152602001600020600401600081548092919061188990615f83565b9190505550600e60003373ffffffffffffffffffffffffffffffffffffffff1673ffffffffffffffffffffffffffffffffffffffff168152602001908152602001600020600c60008481526020019081526020016000206003016040516118f0919061638d565b908152602001604051809103902060008154811061191157611910615da8565b5b9060005260206000209060060201600401600081548092919061193390615f83565b91905055506005600c60008381526020019081526020016000206004015403611d5d576007600d600c600084815260200190815260200160002060030160405161197d919061638d565b9081526020016040518091039020805490501015611bea57600d600c60008381526020019081526020016000206003016040516119ba919061638d565b9081526020016040518091039020339080600181540180825580915050600190039060005260206000200160009091909190916101000a81548173ffffffffffffffffffffffffffffffffffffffff021916908373ffffffffffffffffffffffffffffffffffffffff1602179055506000600a600f6001600d600c6000878152602001908152602001600020600301604051611a56919061638d565b908152602001604051809103902080549050611a729190615d07565b60078110611a8357611a82615da8565b5b602091828204019190069054906101000a900460ff1660ff16600b600c6000868152602001908152602001600020600301604051611ac1919061638d565b908152602001604051809103902060000154611add9190615bb8565b611ae79190615c29565b9050601254811115611b2e576040517f08c379a0000000000000000000000000000000000000000000000000000000008152600401611b25906166e1565b60405180910390fd5b8060126000828254611b409190615d07565b92505081905550601360009054906101000a900473ffffffffffffffffffffffffffffffffffffffff1673ffffffffffffffffffffffffffffffffffffffff1663a9059cbb33836040518363ffffffff1660e01b8152600401611ba4929190616701565b6020604051808303816000875af1158015611bc3573d6000803e3d6000fd5b505050506040513d601f19601f82011682018060405250810190611be79190615cda565b50505b611cd681600b600c6000858152602001908152602001600020600301604051611c13919061638d565b90815260200160405180910390206004016040518060400160405280600181526020017f2f00000000000000000000000000000000000000000000000000000000000000815250611c79600c600087815260200190815260200160002060050154612dab565b6040518060400160405280600681526020017f462e6a736f6e0000000000000000000000000000000000000000000000000000815250604051602001611cc29493929190615f45565b6040516020818303038152906040526132b1565b7f953ec8b8176b9eb94e1561816a70bc231210aee5f1aaa59fdbad7915f9ad3c9633600c6000848152602001908152602001600020600301600d600c6000868152602001908152602001600020600301604051611d33919061638d565b908152602001604051809103902080549050604051611d54939291906167ae565b60405180910390a15b5050565b611d7c83838360405180602001604052806000815250612726565b505050565b611d8961331e565b8060099081611d9891906167ec565b5050565b60108181548110611dac57600080fd5b906000526020600020016000915090508054611dc790615e35565b80601f0160208091040260200160405190810160405280929190818152602001828054611df390615e35565b8015611e405780601f10611e1557610100808354040283529160200191611e40565b820191906000526020600020905b815481529060010190602001808311611e2357829003601f168201915b505050505081565b600a60009054906101000a900473ffffffffffffffffffffffffffffffffffffffff1681565b600080611e7a8361339c565b9050600073ffffffffffffffffffffffffffffffffffffffff168173ffffffffffffffffffffffffffffffffffffffff1603611eeb576040517f08c379a0000000000000000000000000000000000000000000000000000000008152600401611ee29061690a565b60405180910390fd5b80915050919050565b60008073ffffffffffffffffffffffffffffffffffffffff168273ffffffffffffffffffffffffffffffffffffffff1603611f64576040517f08c379a0000000000000000000000000000000000000000000000000000000008152600401611f5b9061699c565b60405180910390fd5b600360008373ffffffffffffffffffffffffffffffffffffffff1673ffffffffffffffffffffffffffffffffffffffff168152602001908152602001600020549050919050565b611fb361331e565b611fbd60006133d9565b565b600b81805160208101820180518482526020830160208501208183528095505050505050600091509050806000015490806004018054611ffe90615e35565b80601f016020809104026020016040519081016040528092919081815260200182805461202a90615e35565b80156120775780601f1061204c57610100808354040283529160200191612077565b820191906000526020600020905b81548152906001019060200180831161205a57829003601f168201915b5050505050905082565b6060600b826040516120939190615a9a565b90815260200160405180910390206001018054806020026020016040519081016040528092919081815260200182805480156120ee57602002820191906000526020600020905b8154815260200190600101908083116120da575b50505050509050919050565b61210261331e565b655af3107a400083101561214b576040517f08c379a000000000000000000000000000000000000000000000000000000000815260040161214290616a2e565b60405180910390fd5b600060068361215a9190615d77565b1461219a576040517f08c379a000000000000000000000000000000000000000000000000000000000815260040161219190616a9a565b60405180910390fd5b82600b856040516121ab9190615a9a565b90815260200160405180910390206000018190555080600b856040516121d19190615a9a565b908152602001604051809103902060040190816121ee91906167ec565b5060108490806001815401808255809150506001900390600052602060002001600090919091909150908161222391906167ec565b5060118390806001815401808255809150506001900390600052602060002001600090919091909150556000600190505b82811161231857600060068261226a9190615d77565b036122bc57600b8560405161227f9190615a9a565b9081526020016040518091039020600201819080600181540180825580915050600190039060005260206000200160009091909190915055612305565b600b856040516122cc9190615a9a565b90815260200160405180910390206001018190806001815401808255809150506001900390600052602060002001600090919091909150555b808061231090615f83565b915050612254565b5050505050565b6000600760009054906101000a900473ffffffffffffffffffffffffffffffffffffffff16905090565b600c60205280600052604060002060009150905080600001549080600101549080600201549080600301805461237e90615e35565b80601f01602080910402602001604051908101604052809291908181526020018280546123aa90615e35565b80156123f75780601f106123cc576101008083540402835291602001916123f7565b820191906000526020600020905b8154815290600101906020018083116123da57829003601f168201915b5050505050908060040154908060050154905086565b6060600d8383604051612421929190616adf565b90815260200160405180910390208054806020026020016040519081016040528092919081815260200182805480156124af57602002820191906000526020600020905b8160009054906101000a900473ffffffffffffffffffffffffffffffffffffffff1673ffffffffffffffffffffffffffffffffffffffff1681526020019060010190808311612465575b5050505050905092915050565b6060600180546124cb90615e35565b80601f01602080910402602001604051908101604052809291908181526020018280546124f790615e35565b80156125445780601f1061251957610100808354040283529160200191612544565b820191906000526020600020905b81548152906001019060200180831161252757829003601f168201915b5050505050905090565b6009805461255b90615e35565b80601f016020809104026020016040519081016040528092919081815260200182805461258790615e35565b80156125d45780601f106125a9576101008083540402835291602001916125d4565b820191906000526020600020905b8154815290600101906020018083116125b757829003601f168201915b505050505081565b6125ee6125e76131dd565b838361349f565b5050565b6060806010601181805480602002602001604051908101604052809291908181526020016000905b828210156126c657838290600052602060002001805461263990615e35565b80601f016020809104026020016040519081016040528092919081815260200182805461266590615e35565b80156126b25780601f10612687576101008083540402835291602001916126b2565b820191906000526020600020905b81548152906001019060200180831161269557829003601f168201915b50505050508152602001906001019061261a565b5050505091508080548060200260200160405190810160405280929190818152602001828054801561271757602002820191906000526020600020905b815481526020019060010190808311612703575b50505050509050915091509091565b60006127cf600c6000858152602001908152602001600020600301805461274c90615e35565b80601f016020809104026020016040519081016040528092919081815260200182805461277890615e35565b80156127c55780601f1061279a576101008083540402835291602001916127c5565b820191906000526020600020905b8154815290600101906020018083116127a857829003601f168201915b505050505061296a565b5114612810576040517f08c379a000000000000000000000000000000000000000000000000000000000815260040161280790616b6a565b60405180910390fd5b61281c8484848461360b565b6001600c600084815260200190815260200160002060010154036128ff57600b600c600084815260200190815260200160002060030160405161285f919061638d565b908152602001604051809103902060030160008473ffffffffffffffffffffffffffffffffffffffff1673ffffffffffffffffffffffffffffffffffffffff16815260200190815260200160002060009054906101000a900460ff166128fa576040517f08c379a00000000000000000000000000000000000000000000000000000000081526004016128f190616bfc565b60405180910390fd5b612959565b6005600c60008481526020019081526020016000206004015414612958576040517f08c379a000000000000000000000000000000000000000000000000000000000815260040161294f90616c8e565b60405180910390fd5b5b61296484848461366d565b50505050565b6060600b8260405161297c9190615a9a565b90815260200160405180910390206002018054806020026020016040519081016040528092919081815260200182805480156129d757602002820191906000526020600020905b8154815260200190600101908083116129c3575b50505050509050919050565b6129eb61331e565b80600a60006101000a81548173ffffffffffffffffffffffffffffffffffffffff021916908373ffffffffffffffffffffffffffffffffffffffff16021790555050565b6060612a3a82613b7e565b9050919050565b60118181548110612a5157600080fd5b906000526020600020016000915090505481565b60125481565b601360009054906101000a900473ffffffffffffffffffffffffffffffffffffffff1681565b60007358807bad0b376efc12f5ad86aac70e78ed67deae73ffffffffffffffffffffffffffffffffffffffff168273ffffffffffffffffffffffffffffffffffffffff1603612ae35760019050612af0565b612aed8383613c90565b90505b92915050565b6060600e60008573ffffffffffffffffffffffffffffffffffffffff1673ffffffffffffffffffffffffffffffffffffffff1681526020019081526020016000208383604051612b47929190616adf565b9081526020016040518091039020805480602002602001604051908101604052809291908181526020016000905b82821015612c6b57838290600052602060002090600602016040518060c0016040529081600082015481526020016001820154815260200160028201548152602001600382018054612bc690615e35565b80601f0160208091040260200160405190810160405280929190818152602001828054612bf290615e35565b8015612c3f5780601f10612c1457610100808354040283529160200191612c3f565b820191906000526020600020905b815481529060010190602001808311612c2257829003601f168201915b505050505081526020016004820154815260200160058201548152505081526020019060010190612b75565b5050505090509392505050565b612c8061331e565b600073ffffffffffffffffffffffffffffffffffffffff168173ffffffffffffffffffffffffffffffffffffffff1603612cef576040517f08c379a0000000000000000000000000000000000000000000000000000000008152600401612ce690616d20565b60405180910390fd5b612cf8816133d9565b50565b60003073ffffffffffffffffffffffffffffffffffffffff163373ffffffffffffffffffffffffffffffffffffffff1603612da457600080368080601f016020809104026020016040519081016040528093929190818152602001838380828437600081840152601f19601f820116905080830192505050505050509050600080369050905073ffffffffffffffffffffffffffffffffffffffff818301511692505050612da8565b3390505b90565b606060008203612df2576040518060400160405280600181526020017f30000000000000000000000000000000000000000000000000000000000000008152509050612f06565b600082905060005b60008214612e24578080612e0d90615f83565b915050600a82612e1d9190615c29565b9150612dfa565b60008167ffffffffffffffff811115612e4057612e3f614c60565b5b6040519080825280601f01601f191660200182016040528015612e725781602001600182028036833780820191505090505b5090505b60008514612eff57600182612e8b9190615d07565b9150600a85612e9a9190615d77565b6030612ea69190615c5a565b60f81b818381518110612ebc57612ebb615da8565b5b60200101907effffffffffffffffffffffffffffffffffffffffffffffffffffffffffffff1916908160001a905350600a85612ef89190615c29565b9450612e76565b8093505050505b919050565b6000612f176008613d24565b9050612f236008613d32565b80600c60008381526020019081526020016000206000018190555084600c60008381526020019081526020016000206001018190555083600c60008381526020019081526020016000206002018190555082600c60008381526020019081526020016000206003019081612f9791906167ec565b5081600c600083815260200190815260200160002060050181905550600e60008873ffffffffffffffffffffffffffffffffffffffff1673ffffffffffffffffffffffffffffffffffffffff168152602001908152602001600020836040516130009190615a9a565b9081526020016040518091039020600c600083815260200190815260200160002090806001815401808255809150506001900390600052602060002090600602016000909190919091506000820154816000015560018201548160010155600282015481600201556003820181600301908161307c9190616551565b506004820154816004015560058201548160050155505061309d8782613d48565b6130a781876132b1565b50505050505050565b60007f80ac58cd000000000000000000000000000000000000000000000000000000007bffffffffffffffffffffffffffffffffffffffffffffffffffffffff1916827bffffffffffffffffffffffffffffffffffffffffffffffffffffffff1916148061317b57507f5b5e139f000000000000000000000000000000000000000000000000000000007bffffffffffffffffffffffffffffffffffffffffffffffffffffffff1916827bffffffffffffffffffffffffffffffffffffffffffffffffffffffff1916145b8061318b575061318a82613f65565b5b9050919050565b61319b81613fcf565b6131da576040517f08c379a00000000000000000000000000000000000000000000000000000000081526004016131d19061690a565b60405180910390fd5b50565b60006131e7612cfb565b905090565b816004600083815260200190815260200160002060006101000a81548173ffffffffffffffffffffffffffffffffffffffff021916908373ffffffffffffffffffffffffffffffffffffffff160217905550808273ffffffffffffffffffffffffffffffffffffffff1661325f83611e6e565b73ffffffffffffffffffffffffffffffffffffffff167f8c5be1e5ebec7d5bd14f71427d1e84f3dd0314c0f7b2291e5b200ac8c7c3b92560405160405180910390a45050565b6132ae81614010565b50565b6132ba82613fcf565b6132f9576040517f08c379a00000000000000000000000000000000000000000000000000000000081526004016132f090616db2565b60405180910390fd5b8060066000848152602001908152602001600020908161331991906167ec565b505050565b6133266131dd565b73ffffffffffffffffffffffffffffffffffffffff1661334461231f565b73ffffffffffffffffffffffffffffffffffffffff161461339a576040517f08c379a000000000000000000000000000000000000000000000000000000000815260040161339190616e1e565b60405180910390fd5b565b60006002600083815260200190815260200160002060009054906101000a900473ffffffffffffffffffffffffffffffffffffffff169050919050565b6000600760009054906101000a900473ffffffffffffffffffffffffffffffffffffffff16905081600760006101000a81548173ffffffffffffffffffffffffffffffffffffffff021916908373ffffffffffffffffffffffffffffffffffffffff1602179055508173ffffffffffffffffffffffffffffffffffffffff168173ffffffffffffffffffffffffffffffffffffffff167f8be0079c531659141344cd1fd0a4f28419497f9722a3daafe3b4186f6b6457e060405160405180910390a35050565b8173ffffffffffffffffffffffffffffffffffffffff168373ffffffffffffffffffffffffffffffffffffffff160361350d576040517f08c379a000000000000000000000000000000000000000000000000000000000815260040161350490616e8a565b60405180910390fd5b80600560008573ffffffffffffffffffffffffffffffffffffffff1673ffffffffffffffffffffffffffffffffffffffff16815260200190815260200160002060008473ffffffffffffffffffffffffffffffffffffffff1673ffffffffffffffffffffffffffffffffffffffff16815260200190815260200160002060006101000a81548160ff0219169083151502179055508173ffffffffffffffffffffffffffffffffffffffff168373ffffffffffffffffffffffffffffffffffffffff167f17307eab39ab6107e8899845ad3d59bd9653f200f220920489ca2b5937696c31836040516135fe9190614e87565b60405180910390a3505050565b61361c6136166131dd565b83614063565b61365b576040517f08c379a000000000000000000000000000000000000000000000000000000000815260040161365290616f1c565b60405180910390fd5b613667848484846140f8565b50505050565b6000600c6000838152602001908152602001600020600301805461369090615e35565b80601f01602080910402602001604051908101604052809291908181526020018280546136bc90615e35565b80156137095780601f106136de57610100808354040283529160200191613709565b820191906000526020600020905b8154815290600101906020018083116136ec57829003601f168201915b5050505050905060005b600e60008673ffffffffffffffffffffffffffffffffffffffff1673ffffffffffffffffffffffffffffffffffffffff168152602001908152602001600020826040516137609190615a9a565b9081526020016040518091039020805490508160ff161015613a9757600c600084815260200190815260200160002060050154600e60008773ffffffffffffffffffffffffffffffffffffffff1673ffffffffffffffffffffffffffffffffffffffff168152602001908152602001600020836040516137e09190615a9a565b90815260200160405180910390208260ff168154811061380357613802615da8565b5b90600052602060002090600602016005015403613a8457600e60008673ffffffffffffffffffffffffffffffffffffffff1673ffffffffffffffffffffffffffffffffffffffff168152602001908152602001600020826040516138679190615a9a565b90815260200160405180910390206001600e60008873ffffffffffffffffffffffffffffffffffffffff1673ffffffffffffffffffffffffffffffffffffffff168152602001908152602001600020846040516138c49190615a9a565b9081526020016040518091039020805490506138e09190615d07565b815481106138f1576138f0615da8565b5b9060005260206000209060060201600e60008773ffffffffffffffffffffffffffffffffffffffff1673ffffffffffffffffffffffffffffffffffffffff1681526020019081526020016000208360405161394c9190615a9a565b90815260200160405180910390208260ff168154811061396f5761396e615da8565b5b9060005260206000209060060201600082015481600001556001820154816001015560028201548160020155600382018160030190816139af9190616551565b506004820154816004015560058201548160050155905050600e60008673ffffffffffffffffffffffffffffffffffffffff1673ffffffffffffffffffffffffffffffffffffffff16815260200190815260200160002082604051613a149190615a9a565b9081526020016040518091039020805480613a3257613a31615dd7565b5b600190038181906000526020600020906006020160008082016000905560018201600090556002820160009055600382016000613a6f9190614b9e565b60048201600090556005820160009055505090555b8080613a8f90616646565b915050613713565b50600e60008473ffffffffffffffffffffffffffffffffffffffff1673ffffffffffffffffffffffffffffffffffffffff16815260200190815260200160002081604051613ae59190615a9a565b9081526020016040518091039020600c6000848152602001908152602001600020908060018154018082558091505060019003906000526020600020906006020160009091909190915060008201548160000155600182015481600101556002820154816002015560038201816003019081613b619190616551565b506004820154816004015560058201548160050155505050505050565b6060613b8982613192565b6000600660008481526020019081526020016000208054613ba990615e35565b80601f0160208091040260200160405190810160405280929190818152602001828054613bd590615e35565b8015613c225780601f10613bf757610100808354040283529160200191613c22565b820191906000526020600020905b815481529060010190602001808311613c0557829003601f168201915b505050505090506000613c33614154565b90506000815103613c48578192505050613c8b565b600082511115613c7d578082604051602001613c65929190616f3c565b60405160208183030381529060405292505050613c8b565b613c86846141e6565b925050505b919050565b6000600560008473ffffffffffffffffffffffffffffffffffffffff1673ffffffffffffffffffffffffffffffffffffffff16815260200190815260200160002060008373ffffffffffffffffffffffffffffffffffffffff1673ffffffffffffffffffffffffffffffffffffffff16815260200190815260200160002060009054906101000a900460ff16905092915050565b600081600001549050919050565b6001816000016000828254019250508190555050565b600073ffffffffffffffffffffffffffffffffffffffff168273ffffffffffffffffffffffffffffffffffffffff1603613db7576040517f08c379a0000000000000000000000000000000000000000000000000000000008152600401613dae90616fac565b60405180910390fd5b613dc081613fcf565b15613e00576040517f08c379a0000000000000000000000000000000000000000000000000000000008152600401613df790617018565b60405180910390fd5b613e0e60008383600161424e565b613e1781613fcf565b15613e57576040517f08c379a0000000000000000000000000000000000000000000000000000000008152600401613e4e90617018565b60405180910390fd5b6001600360008473ffffffffffffffffffffffffffffffffffffffff1673ffffffffffffffffffffffffffffffffffffffff16815260200190815260200160002060008282540192505081905550816002600083815260200190815260200160002060006101000a81548173ffffffffffffffffffffffffffffffffffffffff021916908373ffffffffffffffffffffffffffffffffffffffff160217905550808273ffffffffffffffffffffffffffffffffffffffff16600073ffffffffffffffffffffffffffffffffffffffff167fddf252ad1be2c89b69c2b068fc378daa952ba7f163c4a11628f55a4df523b3ef60405160405180910390a4613f61600083836001614260565b5050565b60007f01ffc9a7000000000000000000000000000000000000000000000000000000007bffffffffffffffffffffffffffffffffffffffffffffffffffffffff1916827bffffffffffffffffffffffffffffffffffffffffffffffffffffffff1916149050919050565b60008073ffffffffffffffffffffffffffffffffffffffff16613ff18361339c565b73ffffffffffffffffffffffffffffffffffffffff1614159050919050565b61401981614266565b600060066000838152602001908152602001600020805461403990615e35565b9050146140605760066000828152602001908152602001600020600061405f9190614b9e565b5b50565b60008061406f83611e6e565b90508073ffffffffffffffffffffffffffffffffffffffff168473ffffffffffffffffffffffffffffffffffffffff1614806140b157506140b08185612a91565b5b806140ef57508373ffffffffffffffffffffffffffffffffffffffff166140d78461102f565b73ffffffffffffffffffffffffffffffffffffffff16145b91505092915050565b6141038484846143b4565b61410f848484846146ad565b61414e576040517f08c379a0000000000000000000000000000000000000000000000000000000008152600401614145906170aa565b60405180910390fd5b50505050565b60606009805461416390615e35565b80601f016020809104026020016040519081016040528092919081815260200182805461418f90615e35565b80156141dc5780601f106141b1576101008083540402835291602001916141dc565b820191906000526020600020905b8154815290600101906020018083116141bf57829003601f168201915b5050505050905090565b60606141f182613192565b60006141fb614154565b9050600081511161421b5760405180602001604052806000815250614246565b8061422584614834565b604051602001614236929190616f3c565b6040516020818303038152906040525b915050919050565b61425a84848484614902565b50505050565b50505050565b600061427182611e6e565b905061428181600084600161424e565b61428a82611e6e565b90506004600083815260200190815260200160002060006101000a81549073ffffffffffffffffffffffffffffffffffffffff02191690556001600360008373ffffffffffffffffffffffffffffffffffffffff1673ffffffffffffffffffffffffffffffffffffffff168152602001908152602001600020600082825403925050819055506002600083815260200190815260200160002060006101000a81549073ffffffffffffffffffffffffffffffffffffffff021916905581600073ffffffffffffffffffffffffffffffffffffffff168273ffffffffffffffffffffffffffffffffffffffff167fddf252ad1be2c89b69c2b068fc378daa952ba7f163c4a11628f55a4df523b3ef60405160405180910390a46143b0816000846001614260565b5050565b8273ffffffffffffffffffffffffffffffffffffffff166143d482611e6e565b73ffffffffffffffffffffffffffffffffffffffff161461442a576040517f08c379a00000000000000000000000000000000000000000000000000000000081526004016144219061713c565b60405180910390fd5b600073ffffffffffffffffffffffffffffffffffffffff168273ffffffffffffffffffffffffffffffffffffffff1603614499576040517f08c379a0000000000000000000000000000000000000000000000000000000008152600401614490906171ce565b60405180910390fd5b6144a6838383600161424e565b8273ffffffffffffffffffffffffffffffffffffffff166144c682611e6e565b73ffffffffffffffffffffffffffffffffffffffff161461451c576040517f08c379a00000000000000000000000000000000000000000000000000000000081526004016145139061713c565b60405180910390fd5b6004600082815260200190815260200160002060006101000a81549073ffffffffffffffffffffffffffffffffffffffff02191690556001600360008573ffffffffffffffffffffffffffffffffffffffff1673ffffffffffffffffffffffffffffffffffffffff168152602001908152602001600020600082825403925050819055506001600360008473ffffffffffffffffffffffffffffffffffffffff1673ffffffffffffffffffffffffffffffffffffffff16815260200190815260200160002060008282540192505081905550816002600083815260200190815260200160002060006101000a81548173ffffffffffffffffffffffffffffffffffffffff021916908373ffffffffffffffffffffffffffffffffffffffff160217905550808273ffffffffffffffffffffffffffffffffffffffff168473ffffffffffffffffffffffffffffffffffffffff167fddf252ad1be2c89b69c2b068fc378daa952ba7f163c4a11628f55a4df523b3ef60405160405180910390a46146a88383836001614260565b505050565b60006146ce8473ffffffffffffffffffffffffffffffffffffffff16614a28565b15614827578373ffffffffffffffffffffffffffffffffffffffff1663150b7a026146f76131dd565b8786866040518563ffffffff1660e01b81526004016147199493929190617238565b6020604051808303816000875af192505050801561475557506040513d601f19601f820116820180604052508101906147529190617299565b60015b6147d7573d8060008114614785576040519150601f19603f3d011682016040523d82523d6000602084013e61478a565b606091505b5060008151036147cf576040517f08c379a00000000000000000000000000000000000000000000000000000000081526004016147c6906170aa565b60405180910390fd5b805181602001fd5b63150b7a0260e01b7bffffffffffffffffffffffffffffffffffffffffffffffffffffffff1916817bffffffffffffffffffffffffffffffffffffffffffffffffffffffff19161491505061482c565b600190505b949350505050565b60606000600161484384614a4b565b01905060008167ffffffffffffffff81111561486257614861614c60565b5b6040519080825280601f01601f1916602001820160405280156148945781602001600182028036833780820191505090505b509050600082602001820190505b6001156148f7578080600190039150507f3031323334353637383961626364656600000000000000000000000000000000600a86061a8153600a85816148eb576148ea615bfa565b5b049450600085036148a2575b819350505050919050565b6001811115614a2257600073ffffffffffffffffffffffffffffffffffffffff168473ffffffffffffffffffffffffffffffffffffffff16146149965780600360008673ffffffffffffffffffffffffffffffffffffffff1673ffffffffffffffffffffffffffffffffffffffff168152602001908152602001600020600082825461498e9190615d07565b925050819055505b600073ffffffffffffffffffffffffffffffffffffffff168373ffffffffffffffffffffffffffffffffffffffff1614614a215780600360008573ffffffffffffffffffffffffffffffffffffffff1673ffffffffffffffffffffffffffffffffffffffff1681526020019081526020016000206000828254614a199190615c5a565b925050819055505b5b50505050565b6000808273ffffffffffffffffffffffffffffffffffffffff163b119050919050565b600080600090507a184f03e93ff9f4daa797ed6e38ed64bf6a1f0100000000000000008310614aa9577a184f03e93ff9f4daa797ed6e38ed64bf6a1f0100000000000000008381614a9f57614a9e615bfa565b5b0492506040810190505b6d04ee2d6d415b85acef81000000008310614ae6576d04ee2d6d415b85acef81000000008381614adc57614adb615bfa565b5b0492506020810190505b662386f26fc100008310614b1557662386f26fc100008381614b0b57614b0a615bfa565b5b0492506010810190505b6305f5e1008310614b3e576305f5e1008381614b3457614b33615bfa565b5b0492506008810190505b6127108310614b63576127108381614b5957614b58615bfa565b5b0492506004810190505b60648310614b865760648381614b7c57614b7b615bfa565b5b0492506002810190505b600a8310614b95576001810190505b80915050919050565b508054614baa90615e35565b6000825580601f10614bbc5750614bdb565b601f016020900490600052602060002090810190614bda9190614bde565b5b50565b5b80821115614bf7576000816000905550600101614bdf565b5090565b6000604051905090565b600080fd5b600080fd5b6000819050919050565b614c2281614c0f565b8114614c2d57600080fd5b50565b600081359050614c3f81614c19565b92915050565b600080fd5b600080fd5b6000601f19601f8301169050919050565b7f4e487b7100000000000000000000000000000000000000000000000000000000600052604160045260246000fd5b614c9882614c4f565b810181811067ffffffffffffffff82111715614cb757614cb6614c60565b5b80604052505050565b6000614cca614bfb565b9050614cd68282614c8f565b919050565b600067ffffffffffffffff821115614cf657614cf5614c60565b5b614cff82614c4f565b9050602081019050919050565b82818337600083830152505050565b6000614d2e614d2984614cdb565b614cc0565b905082815260208101848484011115614d4a57614d49614c4a565b5b614d55848285614d0c565b509392505050565b600082601f830112614d7257614d71614c45565b5b8135614d82848260208601614d1b565b91505092915050565b60008060408385031215614da257614da1614c05565b5b6000614db085828601614c30565b925050602083013567ffffffffffffffff811115614dd157614dd0614c0a565b5b614ddd85828601614d5d565b9150509250929050565b60007fffffffff0000000000000000000000000000000000000000000000000000000082169050919050565b614e1c81614de7565b8114614e2757600080fd5b50565b600081359050614e3981614e13565b92915050565b600060208284031215614e5557614e54614c05565b5b6000614e6384828501614e2a565b91505092915050565b60008115159050919050565b614e8181614e6c565b82525050565b6000602082019050614e9c6000830184614e78565b92915050565b600081519050919050565b600082825260208201905092915050565b60005b83811015614edc578082015181840152602081019050614ec1565b60008484015250505050565b6000614ef382614ea2565b614efd8185614ead565b9350614f0d818560208601614ebe565b614f1681614c4f565b840191505092915050565b60006020820190508181036000830152614f3b8184614ee8565b905092915050565b600060208284031215614f5957614f58614c05565b5b6000614f6784828501614c30565b91505092915050565b600073ffffffffffffffffffffffffffffffffffffffff82169050919050565b6000614f9b82614f70565b9050919050565b614fab81614f90565b82525050565b6000602082019050614fc66000830184614fa2565b92915050565b614fd581614f90565b8114614fe057600080fd5b50565b600081359050614ff281614fcc565b92915050565b6000806040838503121561500f5761500e614c05565b5b600061501d85828601614fe3565b925050602061502e85828601614c30565b9150509250929050565b60008060006060848603121561505157615050614c05565b5b600061505f86828701614fe3565b935050602061507086828701614fe3565b925050604061508186828701614c30565b9150509250925092565b6000806000606084860312156150a4576150a3614c05565b5b60006150b286828701614fe3565b935050602084013567ffffffffffffffff8111156150d3576150d2614c0a565b5b6150df86828701614d5d565b92505060406150f086828701614c30565b9150509250925092565b61510381614c0f565b82525050565b600060c08201905061511e60008301896150fa565b61512b60208301886150fa565b61513860408301876150fa565b818103606083015261514a8186614ee8565b905061515960808301856150fa565b61516660a08301846150fa565b979650505050505050565b6000806040838503121561518857615187614c05565b5b600061519685828601614c30565b92505060206151a785828601614c30565b9150509250929050565b6000602082840312156151c7576151c6614c05565b5b600082013567ffffffffffffffff8111156151e5576151e4614c0a565b5b6151f184828501614d5d565b91505092915050565b6000602082840312156152105761520f614c05565b5b600061521e84828501614fe3565b91505092915050565b600060208201905061523c60008301846150fa565b92915050565b600060408201905061525760008301856150fa565b81810360208301526152698184614ee8565b90509392505050565b600081519050919050565b600082825260208201905092915050565b6000819050602082019050919050565b6152a781614c0f565b82525050565b60006152b9838361529e565b60208301905092915050565b6000602082019050919050565b60006152dd82615272565b6152e7818561527d565b93506152f28361528e565b8060005b8381101561532357815161530a88826152ad565b9750615315836152c5565b9250506001810190506152f6565b5085935050505092915050565b6000602082019050818103600083015261534a81846152d2565b905092915050565b6000806000806080858703121561536c5761536b614c05565b5b600085013567ffffffffffffffff81111561538a57615389614c0a565b5b61539687828801614d5d565b94505060206153a787828801614c30565b93505060406153b887828801614c30565b925050606085013567ffffffffffffffff8111156153d9576153d8614c0a565b5b6153e587828801614d5d565b91505092959194509250565b600080fd5b600080fd5b60008083601f84011261541157615410614c45565b5b8235905067ffffffffffffffff81111561542e5761542d6153f1565b5b60208301915083600182028301111561544a576154496153f6565b5b9250929050565b6000806020838503121561546857615467614c05565b5b600083013567ffffffffffffffff81111561548657615485614c0a565b5b615492858286016153fb565b92509250509250929050565b600081519050919050565b600082825260208201905092915050565b6000819050602082019050919050565b6154d381614f90565b82525050565b60006154e583836154ca565b60208301905092915050565b6000602082019050919050565b60006155098261549e565b61551381856154a9565b935061551e836154ba565b8060005b8381101561554f57815161553688826154d9565b9750615541836154f1565b925050600181019050615522565b5085935050505092915050565b6000602082019050818103600083015261557681846154fe565b905092915050565b61558781614e6c565b811461559257600080fd5b50565b6000813590506155a48161557e565b92915050565b600080604083850312156155c1576155c0614c05565b5b60006155cf85828601614fe3565b92505060206155e085828601615595565b9150509250929050565b600081519050919050565b600082825260208201905092915050565b6000819050602082019050919050565b600082825260208201905092915050565b600061563282614ea2565b61563c8185615616565b935061564c818560208601614ebe565b61565581614c4f565b840191505092915050565b600061566c8383615627565b905092915050565b6000602082019050919050565b600061568c826155ea565b61569681856155f5565b9350836020820285016156a885615606565b8060005b858110156156e457848403895281516156c58582615660565b94506156d083615674565b925060208a019950506001810190506156ac565b50829750879550505050505092915050565b600060408201905081810360008301526157108185615681565b9050818103602083015261572481846152d2565b90509392505050565b600067ffffffffffffffff82111561574857615747614c60565b5b61575182614c4f565b9050602081019050919050565b600061577161576c8461572d565b614cc0565b90508281526020810184848401111561578d5761578c614c4a565b5b615798848285614d0c565b509392505050565b600082601f8301126157b5576157b4614c45565b5b81356157c584826020860161575e565b91505092915050565b600080600080608085870312156157e8576157e7614c05565b5b60006157f687828801614fe3565b945050602061580787828801614fe3565b935050604061581887828801614c30565b925050606085013567ffffffffffffffff81111561583957615838614c0a565b5b615845878288016157a0565b91505092959194509250565b6000806040838503121561586857615867614c05565b5b600061587685828601614fe3565b925050602061588785828601614fe3565b9150509250929050565b6000806000604084860312156158aa576158a9614c05565b5b60006158b886828701614fe3565b935050602084013567ffffffffffffffff8111156158d9576158d8614c0a565b5b6158e5868287016153fb565b92509250509250925092565b600081519050919050565b600082825260208201905092915050565b6000819050602082019050919050565b600060c083016000830151615935600086018261529e565b506020830151615948602086018261529e565b50604083015161595b604086018261529e565b50606083015184820360608601526159738282615627565b9150506080830151615988608086018261529e565b5060a083015161599b60a086018261529e565b508091505092915050565b60006159b2838361591d565b905092915050565b6000602082019050919050565b60006159d2826158f1565b6159dc81856158fc565b9350836020820285016159ee8561590d565b8060005b85811015615a2a5784840389528151615a0b85826159a6565b9450615a16836159ba565b925060208a019950506001810190506159f2565b50829750879550505050505092915050565b60006020820190508181036000830152615a5681846159c7565b905092915050565b600081905092915050565b6000615a7482614ea2565b615a7e8185615a5e565b9350615a8e818560208601614ebe565b80840191505092915050565b6000615aa68284615a69565b915081905092915050565b7f59612074656e657320756e207061636b2077616368696e000000000000000000600082015250565b6000615ae7601783614ead565b9150615af282615ab1565b602082019050919050565b60006020820190508181036000830152615b1681615ada565b9050919050565b7f53656e6420657861637420707269636520666f72205061636b00000000000000600082015250565b6000615b53601983614ead565b9150615b5e82615b1d565b602082019050919050565b60006020820190508181036000830152615b8281615b46565b9050919050565b7f4e487b7100000000000000000000000000000000000000000000000000000000600052601160045260246000fd5b6000615bc382614c0f565b9150615bce83614c0f565b9250828202615bdc81614c0f565b91508282048414831517615bf357615bf2615b89565b5b5092915050565b7f4e487b7100000000000000000000000000000000000000000000000000000000600052601260045260246000fd5b6000615c3482614c0f565b9150615c3f83614c0f565b925082615c4f57615c4e615bfa565b5b828204905092915050565b6000615c6582614c0f565b9150615c7083614c0f565b9250828201905080821115615c8857615c87615b89565b5b92915050565b6000606082019050615ca36000830186614fa2565b615cb06020830185614fa2565b615cbd60408301846150fa565b949350505050565b600081519050615cd48161557e565b92915050565b600060208284031215615cf057615cef614c05565b5b6000615cfe84828501615cc5565b91505092915050565b6000615d1282614c0f565b9150615d1d83614c0f565b9250828203905081811115615d3557615d34615b89565b5b92915050565b6000819050919050565b615d56615d5182614c0f565b615d3b565b82525050565b6000615d688284615d45565b60208201915081905092915050565b6000615d8282614c0f565b9150615d8d83614c0f565b925082615d9d57615d9c615bfa565b5b828206905092915050565b7f4e487b7100000000000000000000000000000000000000000000000000000000600052603260045260246000fd5b7f4e487b7100000000000000000000000000000000000000000000000000000000600052603160045260246000fd5b7f4e487b7100000000000000000000000000000000000000000000000000000000600052602260045260246000fd5b60006002820490506001821680615e4d57607f821691505b602082108103615e6057615e5f615e06565b5b50919050565b600081905092915050565b60008190508160005260206000209050919050565b60008154615e9381615e35565b615e9d8186615e66565b94506001821660008114615eb85760018114615ecd57615f00565b60ff1983168652811515820286019350615f00565b615ed685615e71565b60005b83811015615ef857815481890152600182019150602081019050615ed9565b838801955050505b50505092915050565b600081519050919050565b6000615f1f82615f09565b615f298185615e66565b9350615f39818560208601614ebe565b80840191505092915050565b6000615f518287615e86565b9150615f5d8286615f14565b9150615f698285615f14565b9150615f758284615f14565b915081905095945050505050565b6000615f8e82614c0f565b91507fffffffffffffffffffffffffffffffffffffffffffffffffffffffffffffffff8203615fc057615fbf615b89565b5b600182019050919050565b6000604082019050615fe06000830185614fa2565b8181036020830152615ff28184614ee8565b90509392505050565b7f4552433732313a20617070726f76616c20746f2063757272656e74206f776e6560008201527f7200000000000000000000000000000000000000000000000000000000000000602082015250565b6000616057602183614ead565b915061606282615ffb565b604082019050919050565b600060208201905081810360008301526160868161604a565b9050919050565b7f4552433732313a20617070726f76652063616c6c6572206973206e6f7420746f60008201527f6b656e206f776e6572206f7220617070726f76656420666f7220616c6c000000602082015250565b60006160e9603d83614ead565b91506160f48261608d565b604082019050919050565b60006020820190508181036000830152616118816160dc565b9050919050565b7f54686973206973206e6f7420796f757220636172640000000000000000000000600082015250565b6000616155601583614ead565b91506161608261611f565b602082019050919050565b6000602082019050818103600083015261618481616148565b9050919050565b7f54686973206973206e6f7420796f757220616c62756d00000000000000000000600082015250565b60006161c1601683614ead565b91506161cc8261618b565b602082019050919050565b600060208201905081810360008301526161f0816161b4565b9050919050565b7f63617264206973206e6f7420616e20616c62756d000000000000000000000000600082015250565b600061622d601483614ead565b9150616238826161f7565b602082019050919050565b6000602082019050818103600083015261625c81616220565b9050919050565b7f6361726473206973206e6f742066726f6d207468652073616d6520636f6c6c6560008201527f6374696f6e000000000000000000000000000000000000000000000000000000602082015250565b60006162bf602583614ead565b91506162ca82616263565b604082019050919050565b600060208201905081810360008301526162ee816162b2565b9050919050565b60008190508160005260206000209050919050565b6000815461631781615e35565b6163218186615a5e565b9450600182166000811461633c576001811461635157616384565b60ff1983168652811515820286019350616384565b61635a856162f5565b60005b8381101561637c5781548189015260018201915060208101905061635d565b838801955050505b50505092915050565b6000616399828461630a565b915081905092915050565b6000815490506163b381615e35565b9050919050565b60006020601f8301049050919050565b600082821b905092915050565b6000600883026164077fffffffffffffffffffffffffffffffffffffffffffffffffffffffffffffffff826163ca565b61641186836163ca565b95508019841693508086168417925050509392505050565b6000819050919050565b600061644e61644961644484614c0f565b616429565b614c0f565b9050919050565b6000819050919050565b61646883616433565b61647c61647482616455565b8484546163d7565b825550505050565b600090565b616491616484565b61649c81848461645f565b505050565b5b818110156164c0576164b5600082616489565b6001810190506164a2565b5050565b601f821115616505576164d6816162f5565b6164df846163ba565b810160208510156164ee578190505b6165026164fa856163ba565b8301826164a1565b50505b505050565b600082821c905092915050565b60006165286000198460080261650a565b1980831691505092915050565b60006165418383616517565b9150826002028217905092915050565b81810361655f575050616637565b616568826163a4565b67ffffffffffffffff81111561658157616580614c60565b5b61658b8254615e35565b6165968282856164c4565b6000601f8311600181146165c557600084156165b3578287015490505b6165bd8582616535565b865550616630565b601f1984166165d3876162f5565b96506165de866162f5565b60005b82811015616606578489015482556001820191506001850194506020810190506165e1565b86831015616623578489015461661f601f891682616517565b8355505b6001600288020188555050505b5050505050505b565b600060ff82169050919050565b600061665182616639565b915060ff820361666457616663615b89565b5b600182019050919050565b7f5072697a65206d757374206265206c6f776572206f7220657175616c2074686160008201527f6e207072697a65732062616c616e636500000000000000000000000000000000602082015250565b60006166cb603083614ead565b91506166d68261666f565b604082019050919050565b600060208201905081810360008301526166fa816166be565b9050919050565b60006040820190506167166000830185614fa2565b61672360208301846150fa565b9392505050565b6000815461673781615e35565b6167418186614ead565b9450600182166000811461675c5760018114616772576167a5565b60ff1983168652811515602002860193506167a5565b61677b856162f5565b60005b8381101561679d5781548189015260018201915060208101905061677e565b808801955050505b50505092915050565b60006060820190506167c36000830186614fa2565b81810360208301526167d5818561672a565b90506167e460408301846150fa565b949350505050565b6167f582614ea2565b67ffffffffffffffff81111561680e5761680d614c60565b5b6168188254615e35565b6168238282856164c4565b600060209050601f8311600181146168565760008415616844578287015190505b61684e8582616535565b8655506168b6565b601f198416616864866162f5565b60005b8281101561688c57848901518255600182019150602085019450602081019050616867565b868310156168a957848901516168a5601f891682616517565b8355505b6001600288020188555050505b505050505050565b7f4552433732313a20696e76616c696420746f6b656e2049440000000000000000600082015250565b60006168f4601883614ead565b91506168ff826168be565b602082019050919050565b60006020820190508181036000830152616923816168e7565b9050919050565b7f4552433732313a2061646472657373207a65726f206973206e6f74206120766160008201527f6c6964206f776e65720000000000000000000000000000000000000000000000602082015250565b6000616986602983614ead565b91506169918261692a565b604082019050919050565b600060208201905081810360008301526169b581616979565b9050919050565b7f7061636b2076616c7565206d757374206265206174206c6561737420302e303060008201527f3031204441490000000000000000000000000000000000000000000000000000602082015250565b6000616a18602683614ead565b9150616a23826169bc565b604082019050919050565b60006020820190508181036000830152616a4781616a0b565b9050919050565b7f416d6f756e74206d757374206265206d756c7469706c65206f66203600000000600082015250565b6000616a84601c83614ead565b9150616a8f82616a4e565b602082019050919050565b60006020820190508181036000830152616ab381616a77565b9050919050565b6000616ac68385615a5e565b9350616ad3838584614d0c565b82840190509392505050565b6000616aec828486616aba565b91508190509392505050565b7f54686572652061726520616c62756d7320617661696c61626c6520696e20746860008201527f697320736561736f6e0000000000000000000000000000000000000000000000602082015250565b6000616b54602983614ead565b9150616b5f82616af8565b604082019050919050565b60006020820190508181036000830152616b8381616b47565b9050919050565b7f5265636569766572206973206e6f7420706c6179696e6720746869732073656160008201527f736f6e0000000000000000000000000000000000000000000000000000000000602082015250565b6000616be6602383614ead565b9150616bf182616b8a565b604082019050919050565b60006020820190508181036000830152616c1581616bd9565b9050919050565b7f4f6e6c7920636f6d706c6574656420616c62756d732063616e2062652074726160008201527f6e73666572726564000000000000000000000000000000000000000000000000602082015250565b6000616c78602883614ead565b9150616c8382616c1c565b604082019050919050565b60006020820190508181036000830152616ca781616c6b565b9050919050565b7f4f776e61626c653a206e6577206f776e657220697320746865207a65726f206160008201527f6464726573730000000000000000000000000000000000000000000000000000602082015250565b6000616d0a602683614ead565b9150616d1582616cae565b604082019050919050565b60006020820190508181036000830152616d3981616cfd565b9050919050565b7f45524337323155524953746f726167653a2055524920736574206f66206e6f6e60008201527f6578697374656e7420746f6b656e000000000000000000000000000000000000602082015250565b6000616d9c602e83614ead565b9150616da782616d40565b604082019050919050565b60006020820190508181036000830152616dcb81616d8f565b9050919050565b7f4f776e61626c653a2063616c6c6572206973206e6f7420746865206f776e6572600082015250565b6000616e08602083614ead565b9150616e1382616dd2565b602082019050919050565b60006020820190508181036000830152616e3781616dfb565b9050919050565b7f4552433732313a20617070726f766520746f2063616c6c657200000000000000600082015250565b6000616e74601983614ead565b9150616e7f82616e3e565b602082019050919050565b60006020820190508181036000830152616ea381616e67565b9050919050565b7f4552433732313a2063616c6c6572206973206e6f7420746f6b656e206f776e6560008201527f72206f7220617070726f76656400000000000000000000000000000000000000602082015250565b6000616f06602d83614ead565b9150616f1182616eaa565b604082019050919050565b60006020820190508181036000830152616f3581616ef9565b9050919050565b6000616f488285615a69565b9150616f548284615a69565b91508190509392505050565b7f4552433732313a206d696e7420746f20746865207a65726f2061646472657373600082015250565b6000616f96602083614ead565b9150616fa182616f60565b602082019050919050565b60006020820190508181036000830152616fc581616f89565b9050919050565b7f4552433732313a20746f6b656e20616c7265616479206d696e74656400000000600082015250565b6000617002601c83614ead565b915061700d82616fcc565b602082019050919050565b6000602082019050818103600083015261703181616ff5565b9050919050565b7f4552433732313a207472616e7366657220746f206e6f6e20455243373231526560008201527f63656976657220696d706c656d656e7465720000000000000000000000000000602082015250565b6000617094603283614ead565b915061709f82617038565b604082019050919050565b600060208201905081810360008301526170c381617087565b9050919050565b7f4552433732313a207472616e736665722066726f6d20696e636f72726563742060008201527f6f776e6572000000000000000000000000000000000000000000000000000000602082015250565b6000617126602583614ead565b9150617131826170ca565b604082019050919050565b6000602082019050818103600083015261715581617119565b9050919050565b7f4552433732313a207472616e7366657220746f20746865207a65726f2061646460008201527f7265737300000000000000000000000000000000000000000000000000000000602082015250565b60006171b8602483614ead565b91506171c38261715c565b604082019050919050565b600060208201905081810360008301526171e7816171ab565b9050919050565b600082825260208201905092915050565b600061720a82615f09565b61721481856171ee565b9350617224818560208601614ebe565b61722d81614c4f565b840191505092915050565b600060808201905061724d6000830187614fa2565b61725a6020830186614fa2565b61726760408301856150fa565b818103606083015261727981846171ff565b905095945050505050565b60008151905061729381614e13565b92915050565b6000602082840312156172af576172ae614c05565b5b60006172bd84828501617284565b9150509291505056fea2646970667358221220ff2ee9d9b2e63163f1383c8f1e06ee000905cba9d0c032986b0bf97104e8fea564736f6c63430008110033",
  "linkReferences": {},
  "deployedLinkReferences": {}
}