{
  "_format": "hh-sol-artifact-1",
  "contractName": "NOF_Alpha",
  "sourceName": "contracts/NOF-SC.sol",
  "abi": [
    {
      "inputs": [
        {
          "internalType": "string",
          "name": "__baseUri",
          "type": "string"
        },
        {
          "internalType": "address",
          "name": "_daiTokenAddress",
          "type": "address"
        }
      ],
      "stateMutability": "nonpayable",
      "type": "constructor"
    },
    {
      "anonymous": false,
      "inputs": [
        {
          "indexed": true,
          "internalType": "address",
          "name": "owner",
          "type": "address"
        },
        {
          "indexed": true,
          "internalType": "address",
          "name": "approved",
          "type": "address"
        },
        {
          "indexed": true,
          "internalType": "uint256",
          "name": "tokenId",
          "type": "uint256"
        }
      ],
      "name": "Approval",
      "type": "event"
    },
    {
      "anonymous": false,
      "inputs": [
        {
          "indexed": true,
          "internalType": "address",
          "name": "owner",
          "type": "address"
        },
        {
          "indexed": true,
          "internalType": "address",
          "name": "operator",
          "type": "address"
        },
        {
          "indexed": false,
          "internalType": "bool",
          "name": "approved",
          "type": "bool"
        }
      ],
      "name": "ApprovalForAll",
      "type": "event"
    },
    {
      "anonymous": false,
      "inputs": [
        {
          "indexed": true,
          "internalType": "address",
          "name": "previousOwner",
          "type": "address"
        },
        {
          "indexed": true,
          "internalType": "address",
          "name": "newOwner",
          "type": "address"
        }
      ],
      "name": "OwnershipTransferred",
      "type": "event"
    },
    {
      "anonymous": false,
      "inputs": [
        {
          "indexed": true,
          "internalType": "address",
          "name": "from",
          "type": "address"
        },
        {
          "indexed": true,
          "internalType": "address",
          "name": "to",
          "type": "address"
        },
        {
          "indexed": true,
          "internalType": "uint256",
          "name": "tokenId",
          "type": "uint256"
        }
      ],
      "name": "Transfer",
      "type": "event"
    },
    {
      "anonymous": false,
      "inputs": [
        {
          "indexed": false,
          "internalType": "address",
          "name": "winner",
          "type": "address"
        },
        {
          "indexed": false,
          "internalType": "string",
          "name": "season",
          "type": "string"
        },
        {
          "indexed": false,
          "internalType": "uint256",
          "name": "position",
          "type": "uint256"
        }
      ],
      "name": "Winner",
      "type": "event"
    },
    {
      "inputs": [],
      "name": "DAI_TOKEN",
      "outputs": [
        {
          "internalType": "address",
          "name": "",
          "type": "address"
        }
      ],
      "stateMutability": "view",
      "type": "function"
    },
    {
      "inputs": [
        {
          "internalType": "address",
          "name": "to",
          "type": "address"
        },
        {
          "internalType": "uint256",
          "name": "tokenId",
          "type": "uint256"
        }
      ],
      "name": "approve",
      "outputs": [],
      "stateMutability": "nonpayable",
      "type": "function"
    },
    {
      "inputs": [
        {
          "internalType": "address",
          "name": "owner",
          "type": "address"
        }
      ],
      "name": "balanceOf",
      "outputs": [
        {
          "internalType": "uint256",
          "name": "",
          "type": "uint256"
        }
      ],
      "stateMutability": "view",
      "type": "function"
    },
    {
      "inputs": [],
      "name": "baseUri",
      "outputs": [
        {
          "internalType": "string",
          "name": "",
          "type": "string"
        }
      ],
      "stateMutability": "view",
      "type": "function"
    },
    {
      "inputs": [
        {
          "internalType": "uint256",
          "name": "amount",
          "type": "uint256"
        },
        {
          "internalType": "string",
          "name": "name",
          "type": "string"
        }
      ],
      "name": "buyPack",
      "outputs": [],
      "stateMutability": "nonpayable",
      "type": "function"
    },
    {
      "inputs": [
        {
          "internalType": "uint256",
          "name": "",
          "type": "uint256"
        }
      ],
      "name": "cards",
      "outputs": [
        {
          "internalType": "uint256",
          "name": "tokenId",
          "type": "uint256"
        },
        {
          "internalType": "uint256",
          "name": "class",
          "type": "uint256"
        },
        {
          "internalType": "uint256",
          "name": "collection",
          "type": "uint256"
        },
        {
          "internalType": "string",
          "name": "season",
          "type": "string"
        },
        {
          "internalType": "uint256",
          "name": "completion",
          "type": "uint256"
        },
        {
          "internalType": "uint256",
          "name": "number",
          "type": "uint256"
        }
      ],
      "stateMutability": "view",
      "type": "function"
    },
    {
      "inputs": [
        {
          "internalType": "address",
          "name": "",
          "type": "address"
        },
        {
          "internalType": "string",
          "name": "",
          "type": "string"
        },
        {
          "internalType": "uint256",
          "name": "",
          "type": "uint256"
        }
      ],
      "name": "cardsByUserBySeason",
      "outputs": [
        {
          "internalType": "uint256",
          "name": "tokenId",
          "type": "uint256"
        },
        {
          "internalType": "uint256",
          "name": "class",
          "type": "uint256"
        },
        {
          "internalType": "uint256",
          "name": "collection",
          "type": "uint256"
        },
        {
          "internalType": "string",
          "name": "season",
          "type": "string"
        },
        {
          "internalType": "uint256",
          "name": "completion",
          "type": "uint256"
        },
        {
          "internalType": "uint256",
          "name": "number",
          "type": "uint256"
        }
      ],
      "stateMutability": "view",
      "type": "function"
    },
    {
      "inputs": [
        {
          "internalType": "uint256",
          "name": "tokenId",
          "type": "uint256"
        }
      ],
      "name": "getApproved",
      "outputs": [
        {
          "internalType": "address",
          "name": "",
          "type": "address"
        }
      ],
      "stateMutability": "view",
      "type": "function"
    },
    {
      "inputs": [
        {
          "internalType": "address",
          "name": "_user",
          "type": "address"
        },
        {
          "internalType": "string",
          "name": "_seasonName",
          "type": "string"
        }
      ],
      "name": "getCardsByUserBySeason",
      "outputs": [
        {
          "components": [
            {
              "internalType": "uint256",
              "name": "tokenId",
              "type": "uint256"
            },
            {
              "internalType": "uint256",
              "name": "class",
              "type": "uint256"
            },
            {
              "internalType": "uint256",
              "name": "collection",
              "type": "uint256"
            },
            {
              "internalType": "string",
              "name": "season",
              "type": "string"
            },
            {
              "internalType": "uint256",
              "name": "completion",
              "type": "uint256"
            },
            {
              "internalType": "uint256",
              "name": "number",
              "type": "uint256"
            }
          ],
          "internalType": "struct NOF_Alpha.Card[]",
          "name": "",
          "type": "tuple[]"
        }
      ],
      "stateMutability": "view",
      "type": "function"
    },
    {
      "inputs": [
        {
          "internalType": "string",
          "name": "name",
          "type": "string"
        }
      ],
      "name": "getSeasonAlbums",
      "outputs": [
        {
          "internalType": "uint256[]",
          "name": "",
          "type": "uint256[]"
        }
      ],
      "stateMutability": "view",
      "type": "function"
    },
    {
      "inputs": [
        {
          "internalType": "string",
          "name": "name",
          "type": "string"
        }
      ],
      "name": "getSeasonCards",
      "outputs": [
        {
          "internalType": "uint256[]",
          "name": "",
          "type": "uint256[]"
        }
      ],
      "stateMutability": "view",
      "type": "function"
    },
    {
      "inputs": [],
      "name": "getSeasonData",
      "outputs": [
        {
          "internalType": "string[]",
          "name": "",
          "type": "string[]"
        },
        {
          "internalType": "uint256[]",
          "name": "",
          "type": "uint256[]"
        }
      ],
      "stateMutability": "view",
      "type": "function"
    },
    {
      "inputs": [
        {
          "internalType": "string",
          "name": "_seasonName",
          "type": "string"
        }
      ],
      "name": "getWinners",
      "outputs": [
        {
          "internalType": "address[]",
          "name": "",
          "type": "address[]"
        }
      ],
      "stateMutability": "view",
      "type": "function"
    },
    {
      "inputs": [
        {
          "internalType": "address",
          "name": "_owner",
          "type": "address"
        },
        {
          "internalType": "address",
          "name": "_operator",
          "type": "address"
        }
      ],
      "name": "isApprovedForAll",
      "outputs": [
        {
          "internalType": "bool",
          "name": "isOperator",
          "type": "bool"
        }
      ],
      "stateMutability": "view",
      "type": "function"
    },
    {
      "inputs": [],
      "name": "name",
      "outputs": [
        {
          "internalType": "string",
          "name": "",
          "type": "string"
        }
      ],
      "stateMutability": "view",
      "type": "function"
    },
    {
      "inputs": [
        {
          "internalType": "string",
          "name": "name",
          "type": "string"
        },
        {
          "internalType": "uint256",
          "name": "price",
          "type": "uint256"
        },
        {
          "internalType": "uint256",
          "name": "amount",
          "type": "uint256"
        },
        {
          "internalType": "string",
          "name": "folder",
          "type": "string"
        }
      ],
      "name": "newSeason",
      "outputs": [],
      "stateMutability": "nonpayable",
      "type": "function"
    },
    {
      "inputs": [],
      "name": "owner",
      "outputs": [
        {
          "internalType": "address",
          "name": "",
          "type": "address"
        }
      ],
      "stateMutability": "view",
      "type": "function"
    },
    {
      "inputs": [
        {
          "internalType": "uint256",
          "name": "tokenId",
          "type": "uint256"
        }
      ],
      "name": "ownerOf",
      "outputs": [
        {
          "internalType": "address",
          "name": "",
          "type": "address"
        }
      ],
      "stateMutability": "view",
      "type": "function"
    },
    {
      "inputs": [
        {
          "internalType": "uint256",
          "name": "card",
          "type": "uint256"
        },
        {
          "internalType": "uint256",
          "name": "album",
          "type": "uint256"
        }
      ],
      "name": "pasteCards",
      "outputs": [],
      "stateMutability": "nonpayable",
      "type": "function"
    },
    {
      "inputs": [],
      "name": "renounceOwnership",
      "outputs": [],
      "stateMutability": "nonpayable",
      "type": "function"
    },
    {
      "inputs": [
        {
          "internalType": "address",
          "name": "from",
          "type": "address"
        },
        {
          "internalType": "address",
          "name": "to",
          "type": "address"
        },
        {
          "internalType": "uint256",
          "name": "tokenId",
          "type": "uint256"
        }
      ],
      "name": "safeTransferFrom",
      "outputs": [],
      "stateMutability": "nonpayable",
      "type": "function"
    },
    {
      "inputs": [
        {
          "internalType": "address",
          "name": "from",
          "type": "address"
        },
        {
          "internalType": "address",
          "name": "to",
          "type": "address"
        },
        {
          "internalType": "uint256",
          "name": "tokenId",
          "type": "uint256"
        },
        {
          "internalType": "bytes",
          "name": "data",
          "type": "bytes"
        }
      ],
      "name": "safeTransferFrom",
      "outputs": [],
      "stateMutability": "nonpayable",
      "type": "function"
    },
    {
      "inputs": [
        {
          "internalType": "uint256",
          "name": "",
          "type": "uint256"
        }
      ],
      "name": "seasonNames",
      "outputs": [
        {
          "internalType": "string",
          "name": "",
          "type": "string"
        }
      ],
      "stateMutability": "view",
      "type": "function"
    },
    {
      "inputs": [
        {
          "internalType": "uint256",
          "name": "",
          "type": "uint256"
        }
      ],
      "name": "seasonPrices",
      "outputs": [
        {
          "internalType": "uint256",
          "name": "",
          "type": "uint256"
        }
      ],
      "stateMutability": "view",
      "type": "function"
    },
    {
      "inputs": [
        {
          "internalType": "string",
          "name": "",
          "type": "string"
        }
      ],
      "name": "seasons",
      "outputs": [
        {
          "internalType": "uint256",
          "name": "price",
          "type": "uint256"
        },
        {
          "internalType": "string",
          "name": "folder",
          "type": "string"
        }
      ],
      "stateMutability": "view",
      "type": "function"
    },
    {
      "inputs": [
        {
          "internalType": "address",
          "name": "operator",
          "type": "address"
        },
        {
          "internalType": "bool",
          "name": "approved",
          "type": "bool"
        }
      ],
      "name": "setApprovalForAll",
      "outputs": [],
      "stateMutability": "nonpayable",
      "type": "function"
    },
    {
      "inputs": [
        {
          "internalType": "string",
          "name": "__baseURI",
          "type": "string"
        }
      ],
      "name": "setBaseURI",
      "outputs": [],
      "stateMutability": "nonpayable",
      "type": "function"
    },
    {
      "inputs": [
        {
          "internalType": "bytes4",
          "name": "interfaceId",
          "type": "bytes4"
        }
      ],
      "name": "supportsInterface",
      "outputs": [
        {
          "internalType": "bool",
          "name": "",
          "type": "bool"
        }
      ],
      "stateMutability": "view",
      "type": "function"
    },
    {
      "inputs": [],
      "name": "symbol",
      "outputs": [
        {
          "internalType": "string",
          "name": "",
          "type": "string"
        }
      ],
      "stateMutability": "view",
      "type": "function"
    },
    {
      "inputs": [
        {
          "internalType": "uint256",
          "name": "tokenId",
          "type": "uint256"
        }
      ],
      "name": "tokenURI",
      "outputs": [
        {
          "internalType": "string",
          "name": "",
          "type": "string"
        }
      ],
      "stateMutability": "view",
      "type": "function"
    },
    {
      "inputs": [
        {
          "internalType": "address",
          "name": "from",
          "type": "address"
        },
        {
          "internalType": "address",
          "name": "to",
          "type": "address"
        },
        {
          "internalType": "uint256",
          "name": "tokenId",
          "type": "uint256"
        }
      ],
      "name": "transferFrom",
      "outputs": [],
      "stateMutability": "nonpayable",
      "type": "function"
    },
    {
      "inputs": [
        {
          "internalType": "address",
          "name": "newOwner",
          "type": "address"
        }
      ],
      "name": "transferOwnership",
      "outputs": [],
      "stateMutability": "nonpayable",
      "type": "function"
    },
    {
      "inputs": [
        {
          "internalType": "uint256",
          "name": "amount",
          "type": "uint256"
        }
      ],
      "name": "withdrawDAI",
      "outputs": [],
      "stateMutability": "nonpayable",
      "type": "function"
    }
  ],
  "bytecode": "0x60806040526040518060e00160405280601460ff168152602001600e60ff168152602001600c60ff168152602001600a60ff168152602001600860ff168152602001600660ff168152602001600560ff16815250600e9060076200006592919062000350565b503480156200007357600080fd5b50604051620076173803806200761783398181016040528101906200009991906200052a565b6040518060400160405280600c81526020017f4e4f4620416c70686120563200000000000000000000000000000000000000008152506040518060400160405280600481526020017f4e4f46410000000000000000000000000000000000000000000000000000000081525081600090805190602001906200011d929190620003f1565b50806001908051906020019062000136929190620003f1565b505050620001596200014d620001bb60201b60201c565b620001d760201b60201c565b816009908051906020019062000171929190620003f1565b5080601160006101000a81548173ffffffffffffffffffffffffffffffffffffffff021916908373ffffffffffffffffffffffffffffffffffffffff160217905550505062000742565b6000620001d26200029d60201b62002c221760201c565b905090565b6000600760009054906101000a900473ffffffffffffffffffffffffffffffffffffffff16905081600760006101000a81548173ffffffffffffffffffffffffffffffffffffffff021916908373ffffffffffffffffffffffffffffffffffffffff1602179055508173ffffffffffffffffffffffffffffffffffffffff168173ffffffffffffffffffffffffffffffffffffffff167f8be0079c531659141344cd1fd0a4f28419497f9722a3daafe3b4186f6b6457e060405160405180910390a35050565b60003073ffffffffffffffffffffffffffffffffffffffff163373ffffffffffffffffffffffffffffffffffffffff1614156200034957600080368080601f016020809104026020016040519081016040528093929190818152602001838380828437600081840152601f19601f820116905080830192505050505050509050600080369050905073ffffffffffffffffffffffffffffffffffffffff8183015116925050506200034d565b3390505b90565b826007601f01602090048101928215620003de5791602002820160005b83821115620003ad57835183826101000a81548160ff021916908360ff16021790555092602001926001016020816000010492830192600103026200036d565b8015620003dc5782816101000a81549060ff0219169055600101602081600001049283019260010302620003ad565b505b509050620003ed919062000482565b5090565b828054620003ff906200064d565b90600052602060002090601f0160209004810192826200042357600085556200046f565b82601f106200043e57805160ff19168380011785556200046f565b828001600101855582156200046f579182015b828111156200046e57825182559160200191906001019062000451565b5b5090506200047e919062000482565b5090565b5b808211156200049d57600081600090555060010162000483565b5090565b6000620004b8620004b284620005ad565b62000584565b905082815260208101848484011115620004d157600080fd5b620004de84828562000617565b509392505050565b600081519050620004f78162000728565b92915050565b600082601f8301126200050f57600080fd5b815162000521848260208601620004a1565b91505092915050565b600080604083850312156200053e57600080fd5b600083015167ffffffffffffffff8111156200055957600080fd5b6200056785828601620004fd565b92505060206200057a85828601620004e6565b9150509250929050565b600062000590620005a3565b90506200059e828262000683565b919050565b6000604051905090565b600067ffffffffffffffff821115620005cb57620005ca620006e8565b5b620005d68262000717565b9050602081019050919050565b6000620005f082620005f7565b9050919050565b600073ffffffffffffffffffffffffffffffffffffffff82169050919050565b60005b83811015620006375780820151818401526020810190506200061a565b8381111562000647576000848401525b50505050565b600060028204905060018216806200066657607f821691505b602082108114156200067d576200067c620006b9565b5b50919050565b6200068e8262000717565b810181811067ffffffffffffffff82111715620006b057620006af620006e8565b5b80604052505050565b7f4e487b7100000000000000000000000000000000000000000000000000000000600052602260045260246000fd5b7f4e487b7100000000000000000000000000000000000000000000000000000000600052604160045260246000fd5b6000601f19601f8301169050919050565b6200073381620005e3565b81146200073f57600080fd5b50565b616ec580620007526000396000f3fe608060405234801561001057600080fd5b50600436106101fb5760003560e01c80638477919b1161011a578063b773d5c1116100ad578063d1811d021161007c578063d1811d0214610604578063e606df8714610634578063e985e9c514610652578063e9d43f7d14610682578063f2fde38b146106b2576101fb565b8063b773d5c114610569578063b88d4fde14610588578063be20e5a9146105a4578063c87b56dd146105d4576101fb565b806395d89b41116100e957806395d89b41146104f55780639abc8320146105135780639add743814610531578063a22cb4651461054d576101fb565b80638477919b146104565780638da5cb5b146104725780638dc107681461049057806395a4c525146104c5576101fb565b806342842e0e1161019257806370a082311161016157806370a08231146103bb578063715018a6146103eb578063787f0b05146103f557806383c73d8114610426576101fb565b806342842e0e1461032357806355f804b31461033f57806361c66c161461035b5780636352211e1461038b576101fb565b8063095ea7b3116101ce578063095ea7b31461029a57806323b872dd146102b6578063308f5987146102d257806341c2c10f14610307576101fb565b8063015db3961461020057806301ffc9a71461021c57806306fdde031461024c578063081812fc1461026a575b600080fd5b61021a600480360381019061021591906153f2565b6106ce565b005b6102366004803603810190610231919061525e565b610eca565b6040516102439190615f8b565b60405180910390f35b610254610edc565b6040516102619190615fa6565b60405180910390f35b610284600480360381019061027f91906153c9565b610f6e565b6040516102919190615e12565b60405180910390f35b6102b460048036038101906102af91906151f9565b610fb4565b005b6102d060048036038101906102cb9190615034565b6110cc565b005b6102ec60048036038101906102e79190615192565b61112c565b6040516102fe969594939291906162d3565b60405180910390f35b610321600480360381019061031c9190615446565b611230565b005b61033d60048036038101906103389190615034565b611d8f565b005b610359600480360381019061035491906152f5565b611e7a565b005b610375600480360381019061037091906153c9565b611e9c565b6040516103829190615fa6565b60405180910390f35b6103a560048036038101906103a091906153c9565b611f48565b6040516103b29190615e12565b60405180910390f35b6103d560048036038101906103d09190614fcf565b611fcf565b6040516103e29190616288565b60405180910390f35b6103f3612087565b005b61040f600480360381019061040a91906152f5565b61209b565b60405161041d9291906162a3565b60405180910390f35b610440600480360381019061043b91906152f5565b61215d565b60405161044d9190615f69565b60405180910390f35b610470600480360381019061046b9190615336565b6121d6565b005b61047a6123bb565b6040516104879190615e12565b60405180910390f35b6104aa60048036038101906104a591906153c9565b6123e5565b6040516104bc969594939291906162d3565b60405180910390f35b6104df60048036038101906104da91906152b0565b6124a9565b6040516104ec9190615eee565b60405180910390f35b6104fd612558565b60405161050a9190615fa6565b60405180910390f35b61051b6125ea565b6040516105289190615fa6565b60405180910390f35b61054b600480360381019061054691906153c9565b612678565b005b610567600480360381019061056291906150fe565b612735565b005b61057161274b565b60405161057f929190615f10565b60405180910390f35b6105a2600480360381019061059d9190615083565b61287f565b005b6105be60048036038101906105b991906152f5565b6128e1565b6040516105cb9190615f69565b60405180910390f35b6105ee60048036038101906105e991906153c9565b61295a565b6040516105fb9190615fa6565b60405180910390f35b61061e600480360381019061061991906153c9565b61296c565b60405161062b9190616288565b60405180910390f35b61063c612990565b6040516106499190615e12565b60405180910390f35b61066c60048036038101906106679190614ff8565b6129b6565b6040516106799190615f8b565b60405180910390f35b61069c6004803603810190610697919061513a565b612a1c565b6040516106a99190615f47565b60405180910390f35b6106cc60048036038101906106c79190614fcf565b612b9e565b005b600a816040516106de9190615da5565b908152602001604051809103902060030160003373ffffffffffffffffffffffffffffffffffffffff1673ffffffffffffffffffffffffffffffffffffffff16815260200190815260200160002060009054906101000a900460ff161561077a576040517f08c379a000000000000000000000000000000000000000000000000000000000815260040161077190616108565b60405180910390fd5b6001600a8260405161078c9190615da5565b908152602001604051809103902060030160003373ffffffffffffffffffffffffffffffffffffffff1673ffffffffffffffffffffffffffffffffffffffff16815260200190815260200160002060006101000a81548160ff02191690831515021790555081600a826040516108029190615da5565b90815260200160405180910390206000015414610854576040517f08c379a000000000000000000000000000000000000000000000000000000000815260040161084b906160e8565b60405180910390fd5b601160009054906101000a900473ffffffffffffffffffffffffffffffffffffffff1673ffffffffffffffffffffffffffffffffffffffff166323b872dd3330856040518463ffffffff1660e01b81526004016108b393929190615e2d565b602060405180830381600087803b1580156108cd57600080fd5b505af11580156108e1573d6000803e3d6000fd5b505050506040513d601f19601f820116820180604052508101906109059190615235565b506000600a826040516109189190615da5565b9081526020016040518091039020600201805490504260405160200161093e9190615df7565b6040516020818303038152906040528051906020012060001c61096191906167e7565b90506000600a836040516109759190615da5565b908152602001604051809103902060020182815481106109be577f4e487b7100000000000000000000000000000000000000000000000000000000600052603260045260246000fd5b90600052602060002001549050600a836040516109db9190615da5565b90815260200160405180910390206002016001600a856040516109fe9190615da5565b908152602001604051809103902060020180549050610a1d9190616610565b81548110610a54577f4e487b7100000000000000000000000000000000000000000000000000000000600052603260045260246000fd5b9060005260206000200154600a84604051610a6f9190615da5565b90815260200160405180910390206002018381548110610ab8577f4e487b7100000000000000000000000000000000000000000000000000000000600052603260045260246000fd5b9060005260206000200181905550600a83604051610ad69190615da5565b9081526020016040518091039020600201805480610b1d577f4e487b7100000000000000000000000000000000000000000000000000000000600052603160045260246000fd5b60019003818190600052602060002001600090559055610bda33600a85604051610b479190615da5565b90815260200160405180910390206004016040518060400160405280600181526020017f2f00000000000000000000000000000000000000000000000000000000000000815250610b9785612cd3565b604051602001610ba993929190615d1d565b60405160208183030381529060405260006001600686610bc99190616585565b610bd39190616610565b8786612e80565b505060005b6005811015610ec5576000600a83604051610bfa9190615da5565b90815260200160405180910390206001018054905042604051602001610c209190615df7565b6040516020818303038152906040528051906020012060001c610c4391906167e7565b90506000600a84604051610c579190615da5565b90815260200160405180910390206001018281548110610ca0577f4e487b7100000000000000000000000000000000000000000000000000000000600052603260045260246000fd5b90600052602060002001549050600a84604051610cbd9190615da5565b90815260200160405180910390206001016001600a86604051610ce09190615da5565b908152602001604051809103902060010180549050610cff9190616610565b81548110610d36577f4e487b7100000000000000000000000000000000000000000000000000000000600052603260045260246000fd5b9060005260206000200154600a85604051610d519190615da5565b90815260200160405180910390206001018381548110610d9a577f4e487b7100000000000000000000000000000000000000000000000000000000600052603260045260246000fd5b9060005260206000200181905550600a84604051610db89190615da5565b9081526020016040518091039020600101805480610dff577f4e487b7100000000000000000000000000000000000000000000000000000000600052603160045260246000fd5b60019003818190600052602060002001600090559055610eb033600a86604051610e299190615da5565b90815260200160405180910390206004016040518060400160405280600181526020017f2f00000000000000000000000000000000000000000000000000000000000000815250610e7985612cd3565b604051602001610e8b93929190615d1d565b6040516020818303038152906040526001600685610ea99190616585565b8886612e80565b50508080610ebd9061676a565b915050610bdf565b505050565b6000610ed582613037565b9050919050565b606060008054610eeb90616707565b80601f0160208091040260200160405190810160405280929190818152602001828054610f1790616707565b8015610f645780601f10610f3957610100808354040283529160200191610f64565b820191906000526020600020905b815481529060010190602001808311610f4757829003601f168201915b5050505050905090565b6000610f7982613119565b6004600083815260200190815260200160002060009054906101000a900473ffffffffffffffffffffffffffffffffffffffff169050919050565b6000610fbf82611f48565b90508073ffffffffffffffffffffffffffffffffffffffff168373ffffffffffffffffffffffffffffffffffffffff161415611030576040517f08c379a000000000000000000000000000000000000000000000000000000000815260040161102790616228565b60405180910390fd5b8073ffffffffffffffffffffffffffffffffffffffff1661104f613164565b73ffffffffffffffffffffffffffffffffffffffff16148061107e575061107d81611078613164565b6129b6565b5b6110bd576040517f08c379a00000000000000000000000000000000000000000000000000000000081526004016110b490616268565b60405180910390fd5b6110c78383613173565b505050565b6110dd6110d7613164565b8261322c565b61111c576040517f08c379a000000000000000000000000000000000000000000000000000000000815260040161111390615fc8565b60405180910390fd5b6111278383836132c1565b505050565b600d60205282600052604060002082805160208101820180518482526020830160208501208183528095505050505050818154811061116a57600080fd5b906000526020600020906006020160009250925050508060000154908060010154908060020154908060030180546111a190616707565b80601f01602080910402602001604051908101604052809291908181526020018280546111cd90616707565b801561121a5780601f106111ef5761010080835404028352916020019161121a565b820191906000526020600020905b8154815290600101906020018083116111fd57829003601f168201915b5050505050908060040154908060050154905086565b3373ffffffffffffffffffffffffffffffffffffffff1661125083611f48565b73ffffffffffffffffffffffffffffffffffffffff16146112a6576040517f08c379a000000000000000000000000000000000000000000000000000000000815260040161129d90616248565b60405180910390fd5b3373ffffffffffffffffffffffffffffffffffffffff166112c682611f48565b73ffffffffffffffffffffffffffffffffffffffff161461131c576040517f08c379a000000000000000000000000000000000000000000000000000000000815260040161131390616128565b60405180910390fd5b6000600b60008381526020019081526020016000206001015414611375576040517f08c379a000000000000000000000000000000000000000000000000000000000815260040161136c90616008565b60405180910390fd5b600b600082815260200190815260200160002060020154600b600084815260200190815260200160002060020154146113e3576040517f08c379a00000000000000000000000000000000000000000000000000000000081526004016113da90616028565b60405180910390fd5b60005b600d60003373ffffffffffffffffffffffffffffffffffffffff1673ffffffffffffffffffffffffffffffffffffffff168152602001908152602001600020600b60008581526020019081526020016000206003016040516114489190615de0565b9081526020016040518091039020805490508160ff16101561188c57600b600084815260200190815260200160002060050154600d60003373ffffffffffffffffffffffffffffffffffffffff1673ffffffffffffffffffffffffffffffffffffffff168152602001908152602001600020600b60008681526020019081526020016000206003016040516114dd9190615de0565b90815260200160405180910390208260ff1681548110611526577f4e487b7100000000000000000000000000000000000000000000000000000000600052603260045260246000fd5b906000526020600020906006020160050154141561187957600d60003373ffffffffffffffffffffffffffffffffffffffff1673ffffffffffffffffffffffffffffffffffffffff168152602001908152602001600020600b60008581526020019081526020016000206003016040516115a09190615de0565b90815260200160405180910390206001600d60003373ffffffffffffffffffffffffffffffffffffffff1673ffffffffffffffffffffffffffffffffffffffff168152602001908152602001600020600b60008781526020019081526020016000206003016040516116129190615de0565b90815260200160405180910390208054905061162e9190616610565b81548110611665577f4e487b7100000000000000000000000000000000000000000000000000000000600052603260045260246000fd5b9060005260206000209060060201600d60003373ffffffffffffffffffffffffffffffffffffffff1673ffffffffffffffffffffffffffffffffffffffff168152602001908152602001600020600b60008681526020019081526020016000206003016040516116d59190615de0565b90815260200160405180910390208260ff168154811061171e577f4e487b7100000000000000000000000000000000000000000000000000000000600052603260045260246000fd5b9060005260206000209060060201600082015481600001556001820154816001015560028201548160020155600382018160030190805461175e90616707565b611769929190614cc7565b506004820154816004015560058201548160050155905050600d60003373ffffffffffffffffffffffffffffffffffffffff1673ffffffffffffffffffffffffffffffffffffffff168152602001908152602001600020600b60008581526020019081526020016000206003016040516117e39190615de0565b9081526020016040518091039020805480611827577f4e487b7100000000000000000000000000000000000000000000000000000000600052603160045260246000fd5b6001900381819060005260206000209060060201600080820160009055600182016000905560028201600090556003820160006118649190614d54565b60048201600090556005820160009055505090555b8080611884906167b3565b9150506113e6565b50611896826135bb565b600b600082815260200190815260200160002060040160008154809291906118bd9061676a565b9190505550600d60003373ffffffffffffffffffffffffffffffffffffffff1673ffffffffffffffffffffffffffffffffffffffff168152602001908152602001600020600b60008481526020019081526020016000206003016040516119249190615de0565b908152602001604051809103902060008154811061196b577f4e487b7100000000000000000000000000000000000000000000000000000000600052603260045260246000fd5b9060005260206000209060060201600401600081548092919061198d9061676a565b91905055506005600b6000838152602001908152602001600020600401541415611d8b576007600c600b60008481526020019081526020016000206003016040516119d89190615de0565b9081526020016040518091039020805490501015611c1857600c600b6000838152602001908152602001600020600301604051611a159190615de0565b9081526020016040518091039020339080600181540180825580915050600190039060005260206000200160009091909190916101000a81548173ffffffffffffffffffffffffffffffffffffffff021916908373ffffffffffffffffffffffffffffffffffffffff160217905550601160009054906101000a900473ffffffffffffffffffffffffffffffffffffffff1673ffffffffffffffffffffffffffffffffffffffff166323b872dd3033600a600e6001600c600b60008a8152602001908152602001600020600301604051611aef9190615de0565b908152602001604051809103902080549050611b0b9190616610565b60078110611b42577f4e487b7100000000000000000000000000000000000000000000000000000000600052603260045260246000fd5b602091828204019190069054906101000a900460ff1660ff16600a600b6000898152602001908152602001600020600301604051611b809190615de0565b908152602001604051809103902060000154611b9c91906165b6565b611ba69190616585565b6040518463ffffffff1660e01b8152600401611bc493929190615e2d565b602060405180830381600087803b158015611bde57600080fd5b505af1158015611bf2573d6000803e3d6000fd5b505050506040513d601f19601f82011682018060405250810190611c169190615235565b505b611d0481600a600b6000858152602001908152602001600020600301604051611c419190615de0565b90815260200160405180910390206004016040518060400160405280600181526020017f2f00000000000000000000000000000000000000000000000000000000000000815250611ca7600b600087815260200190815260200160002060050154612cd3565b6040518060400160405280600181526020017f4600000000000000000000000000000000000000000000000000000000000000815250604051602001611cf09493929190615d4e565b6040516020818303038152906040526135c7565b7f953ec8b8176b9eb94e1561816a70bc231210aee5f1aaa59fdbad7915f9ad3c9633600b6000848152602001908152602001600020600301600c600b6000868152602001908152602001600020600301604051611d619190615de0565b908152602001604051809103902080549050604051611d8293929190615eb0565b60405180910390a15b5050565b600a600b6000838152602001908152602001600020600301604051611db49190615de0565b908152602001604051809103902060030160008373ffffffffffffffffffffffffffffffffffffffff1673ffffffffffffffffffffffffffffffffffffffff16815260200190815260200160002060009054906101000a900460ff16611e4f576040517f08c379a0000000000000000000000000000000000000000000000000000000008152600401611e4690616168565b60405180910390fd5b611e5a83838361363b565b611e758383836040518060200160405280600081525061287f565b505050565b611e82613bfb565b8060099080519060200190611e98929190614d94565b5050565b600f8181548110611eac57600080fd5b906000526020600020016000915090508054611ec790616707565b80601f0160208091040260200160405190810160405280929190818152602001828054611ef390616707565b8015611f405780601f10611f1557610100808354040283529160200191611f40565b820191906000526020600020905b815481529060010190602001808311611f2357829003601f168201915b505050505081565b600080611f5483613c79565b9050600073ffffffffffffffffffffffffffffffffffffffff168173ffffffffffffffffffffffffffffffffffffffff161415611fc6576040517f08c379a0000000000000000000000000000000000000000000000000000000008152600401611fbd90616208565b60405180910390fd5b80915050919050565b60008073ffffffffffffffffffffffffffffffffffffffff168273ffffffffffffffffffffffffffffffffffffffff161415612040576040517f08c379a000000000000000000000000000000000000000000000000000000000815260040161203790616148565b60405180910390fd5b600360008373ffffffffffffffffffffffffffffffffffffffff1673ffffffffffffffffffffffffffffffffffffffff168152602001908152602001600020549050919050565b61208f613bfb565b6120996000613cb6565b565b600a818051602081018201805184825260208301602085012081835280955050505050506000915090508060000154908060040180546120da90616707565b80601f016020809104026020016040519081016040528092919081815260200182805461210690616707565b80156121535780601f1061212857610100808354040283529160200191612153565b820191906000526020600020905b81548152906001019060200180831161213657829003601f168201915b5050505050905082565b6060600a8260405161216f9190615da5565b90815260200160405180910390206001018054806020026020016040519081016040528092919081815260200182805480156121ca57602002820191906000526020600020905b8154815260200190600101908083116121b6575b50505050509050919050565b6121de613bfb565b655af3107a4000831015612227576040517f08c379a000000000000000000000000000000000000000000000000000000000815260040161221e906161e8565b60405180910390fd5b82600a856040516122389190615da5565b90815260200160405180910390206000018190555080600a8560405161225e9190615da5565b90815260200160405180910390206004019080519060200190612282929190614d94565b50600f849080600181540180825580915050600190039060005260206000200160009091909190915090805190602001906122be929190614d94565b5060108390806001815401808255809150506001900390600052602060002001600090919091909150556000600190505b8281116123b457600060068261230591906167e7565b141561235857600a8560405161231b9190615da5565b90815260200160405180910390206002018190806001815401808255809150506001900390600052602060002001600090919091909150556123a1565b600a856040516123689190615da5565b90815260200160405180910390206001018190806001815401808255809150506001900390600052602060002001600090919091909150555b80806123ac9061676a565b9150506122ef565b5050505050565b6000600760009054906101000a900473ffffffffffffffffffffffffffffffffffffffff16905090565b600b60205280600052604060002060009150905080600001549080600101549080600201549080600301805461241a90616707565b80601f016020809104026020016040519081016040528092919081815260200182805461244690616707565b80156124935780601f1061246857610100808354040283529160200191612493565b820191906000526020600020905b81548152906001019060200180831161247657829003601f168201915b5050505050908060040154908060050154905086565b6060600c83836040516124bd929190615d8c565b908152602001604051809103902080548060200260200160405190810160405280929190818152602001828054801561254b57602002820191906000526020600020905b8160009054906101000a900473ffffffffffffffffffffffffffffffffffffffff1673ffffffffffffffffffffffffffffffffffffffff1681526020019060010190808311612501575b5050505050905092915050565b60606001805461256790616707565b80601f016020809104026020016040519081016040528092919081815260200182805461259390616707565b80156125e05780601f106125b5576101008083540402835291602001916125e0565b820191906000526020600020905b8154815290600101906020018083116125c357829003601f168201915b5050505050905090565b600980546125f790616707565b80601f016020809104026020016040519081016040528092919081815260200182805461262390616707565b80156126705780601f1061264557610100808354040283529160200191612670565b820191906000526020600020905b81548152906001019060200180831161265357829003601f168201915b505050505081565b612680613bfb565b601160009054906101000a900473ffffffffffffffffffffffffffffffffffffffff1673ffffffffffffffffffffffffffffffffffffffff166323b872dd3033846040518463ffffffff1660e01b81526004016126df93929190615e2d565b602060405180830381600087803b1580156126f957600080fd5b505af115801561270d573d6000803e3d6000fd5b505050506040513d601f19601f820116820180604052508101906127319190615235565b5050565b612747612740613164565b8383613d7c565b5050565b606080600f601081805480602002602001604051908101604052809291908181526020016000905b8282101561281f57838290600052602060002001805461279290616707565b80601f01602080910402602001604051908101604052809291908181526020018280546127be90616707565b801561280b5780601f106127e05761010080835404028352916020019161280b565b820191906000526020600020905b8154815290600101906020018083116127ee57829003601f168201915b505050505081526020019060010190612773565b5050505091508080548060200260200160405190810160405280929190818152602001828054801561287057602002820191906000526020600020905b81548152602001906001019080831161285c575b50505050509050915091509091565b61289061288a613164565b8361322c565b6128cf576040517f08c379a00000000000000000000000000000000000000000000000000000000081526004016128c690615fc8565b60405180910390fd5b6128db84848484613ee9565b50505050565b6060600a826040516128f39190615da5565b908152602001604051809103902060020180548060200260200160405190810160405280929190818152602001828054801561294e57602002820191906000526020600020905b81548152602001906001019080831161293a575b50505050509050919050565b606061296582613f45565b9050919050565b6010818154811061297c57600080fd5b906000526020600020016000915090505481565b601160009054906101000a900473ffffffffffffffffffffffffffffffffffffffff1681565b60007358807bad0b376efc12f5ad86aac70e78ed67deae73ffffffffffffffffffffffffffffffffffffffff168273ffffffffffffffffffffffffffffffffffffffff161415612a095760019050612a16565b612a138383614058565b90505b92915050565b6060600d60008573ffffffffffffffffffffffffffffffffffffffff1673ffffffffffffffffffffffffffffffffffffffff1681526020019081526020016000208383604051612a6d929190615d8c565b9081526020016040518091039020805480602002602001604051908101604052809291908181526020016000905b82821015612b9157838290600052602060002090600602016040518060c0016040529081600082015481526020016001820154815260200160028201548152602001600382018054612aec90616707565b80601f0160208091040260200160405190810160405280929190818152602001828054612b1890616707565b8015612b655780601f10612b3a57610100808354040283529160200191612b65565b820191906000526020600020905b815481529060010190602001808311612b4857829003601f168201915b505050505081526020016004820154815260200160058201548152505081526020019060010190612a9b565b5050505090509392505050565b612ba6613bfb565b600073ffffffffffffffffffffffffffffffffffffffff168173ffffffffffffffffffffffffffffffffffffffff161415612c16576040517f08c379a0000000000000000000000000000000000000000000000000000000008152600401612c0d90616048565b60405180910390fd5b612c1f81613cb6565b50565b60003073ffffffffffffffffffffffffffffffffffffffff163373ffffffffffffffffffffffffffffffffffffffff161415612ccc57600080368080601f016020809104026020016040519081016040528093929190818152602001838380828437600081840152601f19601f820116905080830192505050505050509050600080369050905073ffffffffffffffffffffffffffffffffffffffff818301511692505050612cd0565b3390505b90565b60606000821415612d1b576040518060400160405280600181526020017f30000000000000000000000000000000000000000000000000000000000000008152509050612e7b565b600082905060005b60008214612d4d578080612d369061676a565b915050600a82612d469190616585565b9150612d23565b60008167ffffffffffffffff811115612d8f577f4e487b7100000000000000000000000000000000000000000000000000000000600052604160045260246000fd5b6040519080825280601f01601f191660200182016040528015612dc15781602001600182028036833780820191505090505b5090505b60008514612e7457600182612dda9190616610565b9150600a85612de991906167e7565b6030612df5919061652f565b60f81b818381518110612e31577f4e487b7100000000000000000000000000000000000000000000000000000000600052603260045260246000fd5b60200101907effffffffffffffffffffffffffffffffffffffffffffffffffffffffffffff1916908160001a905350600a85612e6d9190616585565b9450612dc5565b8093505050505b919050565b6000612e8c60086140ec565b9050612e9860086140fa565b80600b60008381526020019081526020016000206000018190555084600b60008381526020019081526020016000206001018190555083600b60008381526020019081526020016000206002018190555082600b60008381526020019081526020016000206003019080519060200190612f13929190614d94565b5081600b600083815260200190815260200160002060050181905550600d60008873ffffffffffffffffffffffffffffffffffffffff1673ffffffffffffffffffffffffffffffffffffffff16815260200190815260200160002083604051612f7c9190615da5565b9081526020016040518091039020600b600083815260200190815260200160002090806001815401808255809150506001900390600052602060002090600602016000909190919091506000820154816000015560018201548160010155600282015481600201556003820181600301908054612ff890616707565b613003929190614cc7565b50600482015481600401556005820154816005015550506130248782614110565b61302e81876135c7565b50505050505050565b60007f80ac58cd000000000000000000000000000000000000000000000000000000007bffffffffffffffffffffffffffffffffffffffffffffffffffffffff1916827bffffffffffffffffffffffffffffffffffffffffffffffffffffffff1916148061310257507f5b5e139f000000000000000000000000000000000000000000000000000000007bffffffffffffffffffffffffffffffffffffffffffffffffffffffff1916827bffffffffffffffffffffffffffffffffffffffffffffffffffffffff1916145b8061311257506131118261432e565b5b9050919050565b61312281614398565b613161576040517f08c379a000000000000000000000000000000000000000000000000000000000815260040161315890616208565b60405180910390fd5b50565b600061316e612c22565b905090565b816004600083815260200190815260200160002060006101000a81548173ffffffffffffffffffffffffffffffffffffffff021916908373ffffffffffffffffffffffffffffffffffffffff160217905550808273ffffffffffffffffffffffffffffffffffffffff166131e683611f48565b73ffffffffffffffffffffffffffffffffffffffff167f8c5be1e5ebec7d5bd14f71427d1e84f3dd0314c0f7b2291e5b200ac8c7c3b92560405160405180910390a45050565b60008061323883611f48565b90508073ffffffffffffffffffffffffffffffffffffffff168473ffffffffffffffffffffffffffffffffffffffff16148061327a575061327981856129b6565b5b806132b857508373ffffffffffffffffffffffffffffffffffffffff166132a084610f6e565b73ffffffffffffffffffffffffffffffffffffffff16145b91505092915050565b8273ffffffffffffffffffffffffffffffffffffffff166132e182611f48565b73ffffffffffffffffffffffffffffffffffffffff1614613337576040517f08c379a000000000000000000000000000000000000000000000000000000000815260040161332e90616068565b60405180910390fd5b600073ffffffffffffffffffffffffffffffffffffffff168273ffffffffffffffffffffffffffffffffffffffff1614156133a7576040517f08c379a000000000000000000000000000000000000000000000000000000000815260040161339e906160a8565b60405180910390fd5b6133b483838360016143d9565b8273ffffffffffffffffffffffffffffffffffffffff166133d482611f48565b73ffffffffffffffffffffffffffffffffffffffff161461342a576040517f08c379a000000000000000000000000000000000000000000000000000000000815260040161342190616068565b60405180910390fd5b6004600082815260200190815260200160002060006101000a81549073ffffffffffffffffffffffffffffffffffffffff02191690556001600360008573ffffffffffffffffffffffffffffffffffffffff1673ffffffffffffffffffffffffffffffffffffffff168152602001908152602001600020600082825403925050819055506001600360008473ffffffffffffffffffffffffffffffffffffffff1673ffffffffffffffffffffffffffffffffffffffff16815260200190815260200160002060008282540192505081905550816002600083815260200190815260200160002060006101000a81548173ffffffffffffffffffffffffffffffffffffffff021916908373ffffffffffffffffffffffffffffffffffffffff160217905550808273ffffffffffffffffffffffffffffffffffffffff168473ffffffffffffffffffffffffffffffffffffffff167fddf252ad1be2c89b69c2b068fc378daa952ba7f163c4a11628f55a4df523b3ef60405160405180910390a46135b683838360016143eb565b505050565b6135c4816143f1565b50565b6135d082614398565b61360f576040517f08c379a000000000000000000000000000000000000000000000000000000000815260040161360690616188565b60405180910390fd5b80600660008481526020019081526020016000209080519060200190613636929190614d94565b505050565b6000600b6000838152602001908152602001600020600301805461365e90616707565b80601f016020809104026020016040519081016040528092919081815260200182805461368a90616707565b80156136d75780601f106136ac576101008083540402835291602001916136d7565b820191906000526020600020905b8154815290600101906020018083116136ba57829003601f168201915b5050505050905060005b600d60008673ffffffffffffffffffffffffffffffffffffffff1673ffffffffffffffffffffffffffffffffffffffff1681526020019081526020016000208260405161372e9190615da5565b9081526020016040518091039020805490508160ff161015613b0957600b600084815260200190815260200160002060050154600d60008773ffffffffffffffffffffffffffffffffffffffff1673ffffffffffffffffffffffffffffffffffffffff168152602001908152602001600020836040516137ae9190615da5565b90815260200160405180910390208260ff16815481106137f7577f4e487b7100000000000000000000000000000000000000000000000000000000600052603260045260246000fd5b9060005260206000209060060201600501541415613af657600d60008673ffffffffffffffffffffffffffffffffffffffff1673ffffffffffffffffffffffffffffffffffffffff1681526020019081526020016000208260405161385c9190615da5565b90815260200160405180910390206001600d60008873ffffffffffffffffffffffffffffffffffffffff1673ffffffffffffffffffffffffffffffffffffffff168152602001908152602001600020846040516138b99190615da5565b9081526020016040518091039020805490506138d59190616610565b8154811061390c577f4e487b7100000000000000000000000000000000000000000000000000000000600052603260045260246000fd5b9060005260206000209060060201600d60008773ffffffffffffffffffffffffffffffffffffffff1673ffffffffffffffffffffffffffffffffffffffff168152602001908152602001600020836040516139679190615da5565b90815260200160405180910390208260ff16815481106139b0577f4e487b7100000000000000000000000000000000000000000000000000000000600052603260045260246000fd5b906000526020600020906006020160008201548160000155600182015481600101556002820154816002015560038201816003019080546139f090616707565b6139fb929190614cc7565b506004820154816004015560058201548160050155905050600d60008673ffffffffffffffffffffffffffffffffffffffff1673ffffffffffffffffffffffffffffffffffffffff16815260200190815260200160002082604051613a609190615da5565b9081526020016040518091039020805480613aa4577f4e487b7100000000000000000000000000000000000000000000000000000000600052603160045260246000fd5b600190038181906000526020600020906006020160008082016000905560018201600090556002820160009055600382016000613ae19190614d54565b60048201600090556005820160009055505090555b8080613b01906167b3565b9150506136e1565b50600d60008473ffffffffffffffffffffffffffffffffffffffff1673ffffffffffffffffffffffffffffffffffffffff16815260200190815260200160002081604051613b579190615da5565b9081526020016040518091039020600b600084815260200190815260200160002090806001815401808255809150506001900390600052602060002090600602016000909190919091506000820154816000015560018201548160010155600282015481600201556003820181600301908054613bd390616707565b613bde929190614cc7565b506004820154816004015560058201548160050155505050505050565b613c03613164565b73ffffffffffffffffffffffffffffffffffffffff16613c216123bb565b73ffffffffffffffffffffffffffffffffffffffff1614613c77576040517f08c379a0000000000000000000000000000000000000000000000000000000008152600401613c6e906161c8565b60405180910390fd5b565b60006002600083815260200190815260200160002060009054906101000a900473ffffffffffffffffffffffffffffffffffffffff169050919050565b6000600760009054906101000a900473ffffffffffffffffffffffffffffffffffffffff16905081600760006101000a81548173ffffffffffffffffffffffffffffffffffffffff021916908373ffffffffffffffffffffffffffffffffffffffff1602179055508173ffffffffffffffffffffffffffffffffffffffff168173ffffffffffffffffffffffffffffffffffffffff167f8be0079c531659141344cd1fd0a4f28419497f9722a3daafe3b4186f6b6457e060405160405180910390a35050565b8173ffffffffffffffffffffffffffffffffffffffff168373ffffffffffffffffffffffffffffffffffffffff161415613deb576040517f08c379a0000000000000000000000000000000000000000000000000000000008152600401613de2906160c8565b60405180910390fd5b80600560008573ffffffffffffffffffffffffffffffffffffffff1673ffffffffffffffffffffffffffffffffffffffff16815260200190815260200160002060008473ffffffffffffffffffffffffffffffffffffffff1673ffffffffffffffffffffffffffffffffffffffff16815260200190815260200160002060006101000a81548160ff0219169083151502179055508173ffffffffffffffffffffffffffffffffffffffff168373ffffffffffffffffffffffffffffffffffffffff167f17307eab39ab6107e8899845ad3d59bd9653f200f220920489ca2b5937696c3183604051613edc9190615f8b565b60405180910390a3505050565b613ef48484846132c1565b613f0084848484614444565b613f3f576040517f08c379a0000000000000000000000000000000000000000000000000000000008152600401613f3690615fe8565b60405180910390fd5b50505050565b6060613f5082613119565b6000600660008481526020019081526020016000208054613f7090616707565b80601f0160208091040260200160405190810160405280929190818152602001828054613f9c90616707565b8015613fe95780601f10613fbe57610100808354040283529160200191613fe9565b820191906000526020600020905b815481529060010190602001808311613fcc57829003601f168201915b505050505090506000613ffa6145db565b9050600081511415614010578192505050614053565b60008251111561404557808260405160200161402d929190615dbc565b60405160208183030381529060405292505050614053565b61404e8461466d565b925050505b919050565b6000600560008473ffffffffffffffffffffffffffffffffffffffff1673ffffffffffffffffffffffffffffffffffffffff16815260200190815260200160002060008373ffffffffffffffffffffffffffffffffffffffff1673ffffffffffffffffffffffffffffffffffffffff16815260200190815260200160002060009054906101000a900460ff16905092915050565b600081600001549050919050565b6001816000016000828254019250508190555050565b600073ffffffffffffffffffffffffffffffffffffffff168273ffffffffffffffffffffffffffffffffffffffff161415614180576040517f08c379a0000000000000000000000000000000000000000000000000000000008152600401614177906161a8565b60405180910390fd5b61418981614398565b156141c9576040517f08c379a00000000000000000000000000000000000000000000000000000000081526004016141c090616088565b60405180910390fd5b6141d76000838360016143d9565b6141e081614398565b15614220576040517f08c379a000000000000000000000000000000000000000000000000000000000815260040161421790616088565b60405180910390fd5b6001600360008473ffffffffffffffffffffffffffffffffffffffff1673ffffffffffffffffffffffffffffffffffffffff16815260200190815260200160002060008282540192505081905550816002600083815260200190815260200160002060006101000a81548173ffffffffffffffffffffffffffffffffffffffff021916908373ffffffffffffffffffffffffffffffffffffffff160217905550808273ffffffffffffffffffffffffffffffffffffffff16600073ffffffffffffffffffffffffffffffffffffffff167fddf252ad1be2c89b69c2b068fc378daa952ba7f163c4a11628f55a4df523b3ef60405160405180910390a461432a6000838360016143eb565b5050565b60007f01ffc9a7000000000000000000000000000000000000000000000000000000007bffffffffffffffffffffffffffffffffffffffffffffffffffffffff1916827bffffffffffffffffffffffffffffffffffffffffffffffffffffffff1916149050919050565b60008073ffffffffffffffffffffffffffffffffffffffff166143ba83613c79565b73ffffffffffffffffffffffffffffffffffffffff1614159050919050565b6143e5848484846146d5565b50505050565b50505050565b6143fa816147fb565b600060066000838152602001908152602001600020805461441a90616707565b905014614441576006600082815260200190815260200160002060006144409190614d54565b5b50565b60006144658473ffffffffffffffffffffffffffffffffffffffff16614949565b156145ce578373ffffffffffffffffffffffffffffffffffffffff1663150b7a0261448e613164565b8786866040518563ffffffff1660e01b81526004016144b09493929190615e64565b602060405180830381600087803b1580156144ca57600080fd5b505af19250505080156144fb57506040513d601f19601f820116820180604052508101906144f89190615287565b60015b61457e573d806000811461452b576040519150601f19603f3d011682016040523d82523d6000602084013e614530565b606091505b50600081511415614576576040517f08c379a000000000000000000000000000000000000000000000000000000000815260040161456d90615fe8565b60405180910390fd5b805181602001fd5b63150b7a0260e01b7bffffffffffffffffffffffffffffffffffffffffffffffffffffffff1916817bffffffffffffffffffffffffffffffffffffffffffffffffffffffff1916149150506145d3565b600190505b949350505050565b6060600980546145ea90616707565b80601f016020809104026020016040519081016040528092919081815260200182805461461690616707565b80156146635780601f1061463857610100808354040283529160200191614663565b820191906000526020600020905b81548152906001019060200180831161464657829003601f168201915b5050505050905090565b606061467882613119565b60006146826145db565b905060008151116146a257604051806020016040528060008152506146cd565b806146ac8461496c565b6040516020016146bd929190615dbc565b6040516020818303038152906040525b915050919050565b60018111156147f557600073ffffffffffffffffffffffffffffffffffffffff168473ffffffffffffffffffffffffffffffffffffffff16146147695780600360008673ffffffffffffffffffffffffffffffffffffffff1673ffffffffffffffffffffffffffffffffffffffff16815260200190815260200160002060008282546147619190616610565b925050819055505b600073ffffffffffffffffffffffffffffffffffffffff168373ffffffffffffffffffffffffffffffffffffffff16146147f45780600360008573ffffffffffffffffffffffffffffffffffffffff1673ffffffffffffffffffffffffffffffffffffffff16815260200190815260200160002060008282546147ec919061652f565b925050819055505b5b50505050565b600061480682611f48565b90506148168160008460016143d9565b61481f82611f48565b90506004600083815260200190815260200160002060006101000a81549073ffffffffffffffffffffffffffffffffffffffff02191690556001600360008373ffffffffffffffffffffffffffffffffffffffff1673ffffffffffffffffffffffffffffffffffffffff168152602001908152602001600020600082825403925050819055506002600083815260200190815260200160002060006101000a81549073ffffffffffffffffffffffffffffffffffffffff021916905581600073ffffffffffffffffffffffffffffffffffffffff168273ffffffffffffffffffffffffffffffffffffffff167fddf252ad1be2c89b69c2b068fc378daa952ba7f163c4a11628f55a4df523b3ef60405160405180910390a46149458160008460016143eb565b5050565b6000808273ffffffffffffffffffffffffffffffffffffffff163b119050919050565b60606000600161497b84614a90565b01905060008167ffffffffffffffff8111156149c0577f4e487b7100000000000000000000000000000000000000000000000000000000600052604160045260246000fd5b6040519080825280601f01601f1916602001820160405280156149f25781602001600182028036833780820191505090505b509050600082602001820190505b600115614a85578080600190039150507f3031323334353637383961626364656600000000000000000000000000000000600a86061a8153600a8581614a6f577f4e487b7100000000000000000000000000000000000000000000000000000000600052601260045260246000fd5b0494506000851415614a8057614a85565b614a00565b819350505050919050565b600080600090507a184f03e93ff9f4daa797ed6e38ed64bf6a1f0100000000000000008310614b14577a184f03e93ff9f4daa797ed6e38ed64bf6a1f0100000000000000008381614b0a577f4e487b7100000000000000000000000000000000000000000000000000000000600052601260045260246000fd5b0492506040810190505b6d04ee2d6d415b85acef81000000008310614b77576d04ee2d6d415b85acef81000000008381614b6d577f4e487b7100000000000000000000000000000000000000000000000000000000600052601260045260246000fd5b0492506020810190505b662386f26fc100008310614bcc57662386f26fc100008381614bc2577f4e487b7100000000000000000000000000000000000000000000000000000000600052601260045260246000fd5b0492506010810190505b6305f5e1008310614c1b576305f5e1008381614c11577f4e487b7100000000000000000000000000000000000000000000000000000000600052601260045260246000fd5b0492506008810190505b6127108310614c66576127108381614c5c577f4e487b7100000000000000000000000000000000000000000000000000000000600052601260045260246000fd5b0492506004810190505b60648310614caf5760648381614ca5577f4e487b7100000000000000000000000000000000000000000000000000000000600052601260045260246000fd5b0492506002810190505b600a8310614cbe576001810190505b80915050919050565b828054614cd390616707565b90600052602060002090601f016020900481019282614cf55760008555614d43565b82601f10614d065780548555614d43565b82800160010185558215614d4357600052602060002091601f016020900482015b82811115614d42578254825591600101919060010190614d27565b5b509050614d509190614e1a565b5090565b508054614d6090616707565b6000825580601f10614d725750614d91565b601f016020900490600052602060002090810190614d909190614e1a565b5b50565b828054614da090616707565b90600052602060002090601f016020900481019282614dc25760008555614e09565b82601f10614ddb57805160ff1916838001178555614e09565b82800160010185558215614e09579182015b82811115614e08578251825591602001919060010190614ded565b5b509050614e169190614e1a565b5090565b5b80821115614e33576000816000905550600101614e1b565b5090565b6000614e4a614e4584616360565b61633b565b905082815260208101848484011115614e6257600080fd5b614e6d8482856166c5565b509392505050565b6000614e88614e8384616391565b61633b565b905082815260208101848484011115614ea057600080fd5b614eab8482856166c5565b509392505050565b600081359050614ec281616e33565b92915050565b600081359050614ed781616e4a565b92915050565b600081519050614eec81616e4a565b92915050565b600081359050614f0181616e61565b92915050565b600081519050614f1681616e61565b92915050565b600082601f830112614f2d57600080fd5b8135614f3d848260208601614e37565b91505092915050565b60008083601f840112614f5857600080fd5b8235905067ffffffffffffffff811115614f7157600080fd5b602083019150836001820283011115614f8957600080fd5b9250929050565b600082601f830112614fa157600080fd5b8135614fb1848260208601614e75565b91505092915050565b600081359050614fc981616e78565b92915050565b600060208284031215614fe157600080fd5b6000614fef84828501614eb3565b91505092915050565b6000806040838503121561500b57600080fd5b600061501985828601614eb3565b925050602061502a85828601614eb3565b9150509250929050565b60008060006060848603121561504957600080fd5b600061505786828701614eb3565b935050602061506886828701614eb3565b925050604061507986828701614fba565b9150509250925092565b6000806000806080858703121561509957600080fd5b60006150a787828801614eb3565b94505060206150b887828801614eb3565b93505060406150c987828801614fba565b925050606085013567ffffffffffffffff8111156150e657600080fd5b6150f287828801614f1c565b91505092959194509250565b6000806040838503121561511157600080fd5b600061511f85828601614eb3565b925050602061513085828601614ec8565b9150509250929050565b60008060006040848603121561514f57600080fd5b600061515d86828701614eb3565b935050602084013567ffffffffffffffff81111561517a57600080fd5b61518686828701614f46565b92509250509250925092565b6000806000606084860312156151a757600080fd5b60006151b586828701614eb3565b935050602084013567ffffffffffffffff8111156151d257600080fd5b6151de86828701614f90565b92505060406151ef86828701614fba565b9150509250925092565b6000806040838503121561520c57600080fd5b600061521a85828601614eb3565b925050602061522b85828601614fba565b9150509250929050565b60006020828403121561524757600080fd5b600061525584828501614edd565b91505092915050565b60006020828403121561527057600080fd5b600061527e84828501614ef2565b91505092915050565b60006020828403121561529957600080fd5b60006152a784828501614f07565b91505092915050565b600080602083850312156152c357600080fd5b600083013567ffffffffffffffff8111156152dd57600080fd5b6152e985828601614f46565b92509250509250929050565b60006020828403121561530757600080fd5b600082013567ffffffffffffffff81111561532157600080fd5b61532d84828501614f90565b91505092915050565b6000806000806080858703121561534c57600080fd5b600085013567ffffffffffffffff81111561536657600080fd5b61537287828801614f90565b945050602061538387828801614fba565b935050604061539487828801614fba565b925050606085013567ffffffffffffffff8111156153b157600080fd5b6153bd87828801614f90565b91505092959194509250565b6000602082840312156153db57600080fd5b60006153e984828501614fba565b91505092915050565b6000806040838503121561540557600080fd5b600061541385828601614fba565b925050602083013567ffffffffffffffff81111561543057600080fd5b61543c85828601614f90565b9150509250929050565b6000806040838503121561545957600080fd5b600061546785828601614fba565b925050602061547885828601614fba565b9150509250929050565b600061548e83836154da565b60208301905092915050565b60006154a683836157bb565b905092915050565b60006154ba8383615c5f565b905092915050565b60006154ce8383615ce8565b60208301905092915050565b6154e381616644565b82525050565b6154f281616644565b82525050565b60006155038261642c565b61550d81856164a2565b9350615518836163c2565b8060005b838110156155495781516155308882615482565b975061553b8361646e565b92505060018101905061551c565b5085935050505092915050565b600061556182616437565b61556b81856164b3565b93508360208202850161557d856163d2565b8060005b858110156155b9578484038952815161559a858261549a565b94506155a58361647b565b925060208a01995050600181019050615581565b50829750879550505050505092915050565b60006155d682616442565b6155e081856164c4565b9350836020820285016155f2856163e2565b8060005b8581101561562e578484038952815161560f85826154ae565b945061561a83616488565b925060208a019950506001810190506155f6565b50829750879550505050505092915050565b600061564b8261644d565b61565581856164d5565b9350615660836163f2565b8060005b8381101561569157815161567888826154c2565b975061568383616495565b925050600181019050615664565b5085935050505092915050565b6156a781616656565b82525050565b60006156b882616458565b6156c281856164e6565b93506156d28185602086016166d4565b6156db816168d4565b840191505092915050565b60006156f182616458565b6156fb81856164f7565b935061570b8185602086016166d4565b80840191505092915050565b6000815461572481616707565b61572e81866164f7565b94506001821660008114615749576001811461575a5761578d565b60ff1983168652818601935061578d565b61576385616402565b60005b8381101561578557815481890152600182019150602081019050615766565b838801955050505b50505092915050565b60006157a28385616524565b93506157af8385846166c5565b82840190509392505050565b60006157c682616463565b6157d08185616502565b93506157e08185602086016166d4565b6157e9816168d4565b840191505092915050565b60006157ff82616463565b6158098185616513565b93506158198185602086016166d4565b615822816168d4565b840191505092915050565b600061583882616463565b6158428185616524565b93506158528185602086016166d4565b80840191505092915050565b6000815461586b81616707565b6158758186616513565b9450600182166000811461589057600181146158a2576158d5565b60ff19831686526020860193506158d5565b6158ab85616417565b60005b838110156158cd578154818901526001820191506020810190506158ae565b808801955050505b50505092915050565b600081546158eb81616707565b6158f58186616524565b94506001821660008114615910576001811461592157615954565b60ff19831686528186019350615954565b61592a85616417565b60005b8381101561594c5781548189015260018201915060208101905061592d565b838801955050505b50505092915050565b600061596a602d83616513565b9150615975826168e5565b604082019050919050565b600061598d603283616513565b915061599882616934565b604082019050919050565b60006159b0601483616513565b91506159bb82616983565b602082019050919050565b60006159d3602583616513565b91506159de826169ac565b604082019050919050565b60006159f6602683616513565b9150615a01826169fb565b604082019050919050565b6000615a19602583616513565b9150615a2482616a4a565b604082019050919050565b6000615a3c601c83616513565b9150615a4782616a99565b602082019050919050565b6000615a5f602483616513565b9150615a6a82616ac2565b604082019050919050565b6000615a82601983616513565b9150615a8d82616b11565b602082019050919050565b6000615aa5601983616513565b9150615ab082616b3a565b602082019050919050565b6000615ac8601783616513565b9150615ad382616b63565b602082019050919050565b6000615aeb601683616513565b9150615af682616b8c565b602082019050919050565b6000615b0e602983616513565b9150615b1982616bb5565b604082019050919050565b6000615b31602383616513565b9150615b3c82616c04565b604082019050919050565b6000615b54602e83616513565b9150615b5f82616c53565b604082019050919050565b6000615b77602083616513565b9150615b8282616ca2565b602082019050919050565b6000615b9a602083616513565b9150615ba582616ccb565b602082019050919050565b6000615bbd602683616513565b9150615bc882616cf4565b604082019050919050565b6000615be0601883616513565b9150615beb82616d43565b602082019050919050565b6000615c03602183616513565b9150615c0e82616d6c565b604082019050919050565b6000615c26601583616513565b9150615c3182616dbb565b602082019050919050565b6000615c49603d83616513565b9150615c5482616de4565b604082019050919050565b600060c083016000830151615c776000860182615ce8565b506020830151615c8a6020860182615ce8565b506040830151615c9d6040860182615ce8565b5060608301518482036060860152615cb582826157bb565b9150506080830151615cca6080860182615ce8565b5060a0830151615cdd60a0860182615ce8565b508091505092915050565b615cf1816166ae565b82525050565b615d00816166ae565b82525050565b615d17615d12826166ae565b6167dd565b82525050565b6000615d298286615717565b9150615d3582856156e6565b9150615d4182846156e6565b9150819050949350505050565b6000615d5a8287615717565b9150615d6682866156e6565b9150615d7282856156e6565b9150615d7e82846156e6565b915081905095945050505050565b6000615d99828486615796565b91508190509392505050565b6000615db1828461582d565b915081905092915050565b6000615dc8828561582d565b9150615dd4828461582d565b91508190509392505050565b6000615dec82846158de565b915081905092915050565b6000615e038284615d06565b60208201915081905092915050565b6000602082019050615e2760008301846154e9565b92915050565b6000606082019050615e4260008301866154e9565b615e4f60208301856154e9565b615e5c6040830184615cf7565b949350505050565b6000608082019050615e7960008301876154e9565b615e8660208301866154e9565b615e936040830185615cf7565b8181036060830152615ea581846156ad565b905095945050505050565b6000606082019050615ec560008301866154e9565b8181036020830152615ed7818561585e565b9050615ee66040830184615cf7565b949350505050565b60006020820190508181036000830152615f0881846154f8565b905092915050565b60006040820190508181036000830152615f2a8185615556565b90508181036020830152615f3e8184615640565b90509392505050565b60006020820190508181036000830152615f6181846155cb565b905092915050565b60006020820190508181036000830152615f838184615640565b905092915050565b6000602082019050615fa0600083018461569e565b92915050565b60006020820190508181036000830152615fc081846157f4565b905092915050565b60006020820190508181036000830152615fe18161595d565b9050919050565b6000602082019050818103600083015261600181615980565b9050919050565b60006020820190508181036000830152616021816159a3565b9050919050565b60006020820190508181036000830152616041816159c6565b9050919050565b60006020820190508181036000830152616061816159e9565b9050919050565b6000602082019050818103600083015261608181615a0c565b9050919050565b600060208201905081810360008301526160a181615a2f565b9050919050565b600060208201905081810360008301526160c181615a52565b9050919050565b600060208201905081810360008301526160e181615a75565b9050919050565b6000602082019050818103600083015261610181615a98565b9050919050565b6000602082019050818103600083015261612181615abb565b9050919050565b6000602082019050818103600083015261614181615ade565b9050919050565b6000602082019050818103600083015261616181615b01565b9050919050565b6000602082019050818103600083015261618181615b24565b9050919050565b600060208201905081810360008301526161a181615b47565b9050919050565b600060208201905081810360008301526161c181615b6a565b9050919050565b600060208201905081810360008301526161e181615b8d565b9050919050565b6000602082019050818103600083015261620181615bb0565b9050919050565b6000602082019050818103600083015261622181615bd3565b9050919050565b6000602082019050818103600083015261624181615bf6565b9050919050565b6000602082019050818103600083015261626181615c19565b9050919050565b6000602082019050818103600083015261628181615c3c565b9050919050565b600060208201905061629d6000830184615cf7565b92915050565b60006040820190506162b86000830185615cf7565b81810360208301526162ca81846157f4565b90509392505050565b600060c0820190506162e86000830189615cf7565b6162f56020830188615cf7565b6163026040830187615cf7565b818103606083015261631481866157f4565b90506163236080830185615cf7565b61633060a0830184615cf7565b979650505050505050565b6000616345616356565b90506163518282616739565b919050565b6000604051905090565b600067ffffffffffffffff82111561637b5761637a6168a5565b5b616384826168d4565b9050602081019050919050565b600067ffffffffffffffff8211156163ac576163ab6168a5565b5b6163b5826168d4565b9050602081019050919050565b6000819050602082019050919050565b6000819050602082019050919050565b6000819050602082019050919050565b6000819050602082019050919050565b60008190508160005260206000209050919050565b60008190508160005260206000209050919050565b600081519050919050565b600081519050919050565b600081519050919050565b600081519050919050565b600081519050919050565b600081519050919050565b6000602082019050919050565b6000602082019050919050565b6000602082019050919050565b6000602082019050919050565b600082825260208201905092915050565b600082825260208201905092915050565b600082825260208201905092915050565b600082825260208201905092915050565b600082825260208201905092915050565b600081905092915050565b600082825260208201905092915050565b600082825260208201905092915050565b600081905092915050565b600061653a826166ae565b9150616545836166ae565b9250827fffffffffffffffffffffffffffffffffffffffffffffffffffffffffffffffff0382111561657a57616579616818565b5b828201905092915050565b6000616590826166ae565b915061659b836166ae565b9250826165ab576165aa616847565b5b828204905092915050565b60006165c1826166ae565b91506165cc836166ae565b9250817fffffffffffffffffffffffffffffffffffffffffffffffffffffffffffffffff048311821515161561660557616604616818565b5b828202905092915050565b600061661b826166ae565b9150616626836166ae565b92508282101561663957616638616818565b5b828203905092915050565b600061664f8261668e565b9050919050565b60008115159050919050565b60007fffffffff0000000000000000000000000000000000000000000000000000000082169050919050565b600073ffffffffffffffffffffffffffffffffffffffff82169050919050565b6000819050919050565b600060ff82169050919050565b82818337600083830152505050565b60005b838110156166f25780820151818401526020810190506166d7565b83811115616701576000848401525b50505050565b6000600282049050600182168061671f57607f821691505b6020821081141561673357616732616876565b5b50919050565b616742826168d4565b810181811067ffffffffffffffff82111715616761576167606168a5565b5b80604052505050565b6000616775826166ae565b91507fffffffffffffffffffffffffffffffffffffffffffffffffffffffffffffffff8214156167a8576167a7616818565b5b600182019050919050565b60006167be826166b8565b915060ff8214156167d2576167d1616818565b5b600182019050919050565b6000819050919050565b60006167f2826166ae565b91506167fd836166ae565b92508261680d5761680c616847565b5b828206905092915050565b7f4e487b7100000000000000000000000000000000000000000000000000000000600052601160045260246000fd5b7f4e487b7100000000000000000000000000000000000000000000000000000000600052601260045260246000fd5b7f4e487b7100000000000000000000000000000000000000000000000000000000600052602260045260246000fd5b7f4e487b7100000000000000000000000000000000000000000000000000000000600052604160045260246000fd5b6000601f19601f8301169050919050565b7f4552433732313a2063616c6c6572206973206e6f7420746f6b656e206f776e6560008201527f72206f7220617070726f76656400000000000000000000000000000000000000602082015250565b7f4552433732313a207472616e7366657220746f206e6f6e20455243373231526560008201527f63656976657220696d706c656d656e7465720000000000000000000000000000602082015250565b7f63617264206973206e6f7420616e20616c62756d000000000000000000000000600082015250565b7f6361726473206973206e6f742066726f6d207468652073616d6520636f6c6c6560008201527f6374696f6e000000000000000000000000000000000000000000000000000000602082015250565b7f4f776e61626c653a206e6577206f776e657220697320746865207a65726f206160008201527f6464726573730000000000000000000000000000000000000000000000000000602082015250565b7f4552433732313a207472616e736665722066726f6d20696e636f72726563742060008201527f6f776e6572000000000000000000000000000000000000000000000000000000602082015250565b7f4552433732313a20746f6b656e20616c7265616479206d696e74656400000000600082015250565b7f4552433732313a207472616e7366657220746f20746865207a65726f2061646460008201527f7265737300000000000000000000000000000000000000000000000000000000602082015250565b7f4552433732313a20617070726f766520746f2063616c6c657200000000000000600082015250565b7f53656e6420657861637420707269636520666f72205061636b00000000000000600082015250565b7f59612074656e657320756e207061636b2077616368696e000000000000000000600082015250565b7f54686973206973206e6f7420796f757220616c62756d00000000000000000000600082015250565b7f4552433732313a2061646472657373207a65726f206973206e6f74206120766160008201527f6c6964206f776e65720000000000000000000000000000000000000000000000602082015250565b7f5265636569766572206973206e6f7420706c6179696e6720746869732073656160008201527f736f6e0000000000000000000000000000000000000000000000000000000000602082015250565b7f45524337323155524953746f726167653a2055524920736574206f66206e6f6e60008201527f6578697374656e7420746f6b656e000000000000000000000000000000000000602082015250565b7f4552433732313a206d696e7420746f20746865207a65726f2061646472657373600082015250565b7f4f776e61626c653a2063616c6c6572206973206e6f7420746865206f776e6572600082015250565b7f7061636b2076616c7565206d757374206265206174206c6561737420302e303060008201527f3031204441490000000000000000000000000000000000000000000000000000602082015250565b7f4552433732313a20696e76616c696420746f6b656e2049440000000000000000600082015250565b7f4552433732313a20617070726f76616c20746f2063757272656e74206f776e6560008201527f7200000000000000000000000000000000000000000000000000000000000000602082015250565b7f54686973206973206e6f7420796f757220636172640000000000000000000000600082015250565b7f4552433732313a20617070726f76652063616c6c6572206973206e6f7420746f60008201527f6b656e206f776e6572206f7220617070726f76656420666f7220616c6c000000602082015250565b616e3c81616644565b8114616e4757600080fd5b50565b616e5381616656565b8114616e5e57600080fd5b50565b616e6a81616662565b8114616e7557600080fd5b50565b616e81816166ae565b8114616e8c57600080fd5b5056fea2646970667358221220a3a512dbd42915298cbfab861396ed24cdd355baec0539fedc54cdcb27563f5364736f6c63430008040033",
  "linkReferences": {},
  "deployedLinkReferences": {}
}