{
  "_format": "hh-sol-artifact-1",
  "contractName": "NOF_Alpha",
  "sourceName": "contracts/NOF-SC.sol",
  "abi": [
    {
      "inputs": [
        {
          "internalType": "string",
          "name": "__baseUri",
          "type": "string"
        },
        {
          "internalType": "address",
          "name": "_daiTokenAddress",
          "type": "address"
        }
      ],
      "stateMutability": "nonpayable",
      "type": "constructor"
    },
    {
      "anonymous": false,
      "inputs": [
        {
          "indexed": true,
          "internalType": "address",
          "name": "owner",
          "type": "address"
        },
        {
          "indexed": true,
          "internalType": "address",
          "name": "approved",
          "type": "address"
        },
        {
          "indexed": true,
          "internalType": "uint256",
          "name": "tokenId",
          "type": "uint256"
        }
      ],
      "name": "Approval",
      "type": "event"
    },
    {
      "anonymous": false,
      "inputs": [
        {
          "indexed": true,
          "internalType": "address",
          "name": "owner",
          "type": "address"
        },
        {
          "indexed": true,
          "internalType": "address",
          "name": "operator",
          "type": "address"
        },
        {
          "indexed": false,
          "internalType": "bool",
          "name": "approved",
          "type": "bool"
        }
      ],
      "name": "ApprovalForAll",
      "type": "event"
    },
    {
      "anonymous": false,
      "inputs": [
        {
          "indexed": true,
          "internalType": "address",
          "name": "previousOwner",
          "type": "address"
        },
        {
          "indexed": true,
          "internalType": "address",
          "name": "newOwner",
          "type": "address"
        }
      ],
      "name": "OwnershipTransferred",
      "type": "event"
    },
    {
      "anonymous": false,
      "inputs": [
        {
          "indexed": true,
          "internalType": "address",
          "name": "from",
          "type": "address"
        },
        {
          "indexed": true,
          "internalType": "address",
          "name": "to",
          "type": "address"
        },
        {
          "indexed": true,
          "internalType": "uint256",
          "name": "tokenId",
          "type": "uint256"
        }
      ],
      "name": "Transfer",
      "type": "event"
    },
    {
      "anonymous": false,
      "inputs": [
        {
          "indexed": false,
          "internalType": "address",
          "name": "winner",
          "type": "address"
        },
        {
          "indexed": false,
          "internalType": "string",
          "name": "season",
          "type": "string"
        },
        {
          "indexed": false,
          "internalType": "uint256",
          "name": "position",
          "type": "uint256"
        }
      ],
      "name": "Winner",
      "type": "event"
    },
    {
      "inputs": [],
      "name": "DAI_TOKEN",
      "outputs": [
        {
          "internalType": "address",
          "name": "",
          "type": "address"
        }
      ],
      "stateMutability": "view",
      "type": "function"
    },
    {
      "inputs": [
        {
          "internalType": "address",
          "name": "to",
          "type": "address"
        },
        {
          "internalType": "uint256",
          "name": "tokenId",
          "type": "uint256"
        }
      ],
      "name": "approve",
      "outputs": [],
      "stateMutability": "nonpayable",
      "type": "function"
    },
    {
      "inputs": [
        {
          "internalType": "address",
          "name": "owner",
          "type": "address"
        }
      ],
      "name": "balanceOf",
      "outputs": [
        {
          "internalType": "uint256",
          "name": "",
          "type": "uint256"
        }
      ],
      "stateMutability": "view",
      "type": "function"
    },
    {
      "inputs": [],
      "name": "baseUri",
      "outputs": [
        {
          "internalType": "string",
          "name": "",
          "type": "string"
        }
      ],
      "stateMutability": "view",
      "type": "function"
    },
    {
      "inputs": [
        {
          "internalType": "uint256",
          "name": "amount",
          "type": "uint256"
        },
        {
          "internalType": "string",
          "name": "name",
          "type": "string"
        }
      ],
      "name": "buyPack",
      "outputs": [],
      "stateMutability": "nonpayable",
      "type": "function"
    },
    {
      "inputs": [
        {
          "internalType": "uint256",
          "name": "",
          "type": "uint256"
        }
      ],
      "name": "cards",
      "outputs": [
        {
          "internalType": "uint256",
          "name": "tokenId",
          "type": "uint256"
        },
        {
          "internalType": "uint256",
          "name": "class",
          "type": "uint256"
        },
        {
          "internalType": "uint256",
          "name": "collection",
          "type": "uint256"
        },
        {
          "internalType": "string",
          "name": "season",
          "type": "string"
        },
        {
          "internalType": "uint256",
          "name": "completion",
          "type": "uint256"
        },
        {
          "internalType": "uint256",
          "name": "number",
          "type": "uint256"
        }
      ],
      "stateMutability": "view",
      "type": "function"
    },
    {
      "inputs": [
        {
          "internalType": "address",
          "name": "",
          "type": "address"
        },
        {
          "internalType": "string",
          "name": "",
          "type": "string"
        },
        {
          "internalType": "uint256",
          "name": "",
          "type": "uint256"
        }
      ],
      "name": "cardsByUserBySeason",
      "outputs": [
        {
          "internalType": "uint256",
          "name": "tokenId",
          "type": "uint256"
        },
        {
          "internalType": "uint256",
          "name": "class",
          "type": "uint256"
        },
        {
          "internalType": "uint256",
          "name": "collection",
          "type": "uint256"
        },
        {
          "internalType": "string",
          "name": "season",
          "type": "string"
        },
        {
          "internalType": "uint256",
          "name": "completion",
          "type": "uint256"
        },
        {
          "internalType": "uint256",
          "name": "number",
          "type": "uint256"
        }
      ],
      "stateMutability": "view",
      "type": "function"
    },
    {
      "inputs": [
        {
          "internalType": "uint256",
          "name": "tokenId",
          "type": "uint256"
        }
      ],
      "name": "getApproved",
      "outputs": [
        {
          "internalType": "address",
          "name": "",
          "type": "address"
        }
      ],
      "stateMutability": "view",
      "type": "function"
    },
    {
      "inputs": [
        {
          "internalType": "address",
          "name": "_user",
          "type": "address"
        },
        {
          "internalType": "string",
          "name": "_seasonName",
          "type": "string"
        }
      ],
      "name": "getCardsByUserBySeason",
      "outputs": [
        {
          "components": [
            {
              "internalType": "uint256",
              "name": "tokenId",
              "type": "uint256"
            },
            {
              "internalType": "uint256",
              "name": "class",
              "type": "uint256"
            },
            {
              "internalType": "uint256",
              "name": "collection",
              "type": "uint256"
            },
            {
              "internalType": "string",
              "name": "season",
              "type": "string"
            },
            {
              "internalType": "uint256",
              "name": "completion",
              "type": "uint256"
            },
            {
              "internalType": "uint256",
              "name": "number",
              "type": "uint256"
            }
          ],
          "internalType": "struct NOF_Alpha.Card[]",
          "name": "",
          "type": "tuple[]"
        }
      ],
      "stateMutability": "view",
      "type": "function"
    },
    {
      "inputs": [
        {
          "internalType": "string",
          "name": "name",
          "type": "string"
        }
      ],
      "name": "getSeasonAlbums",
      "outputs": [
        {
          "internalType": "uint256[]",
          "name": "",
          "type": "uint256[]"
        }
      ],
      "stateMutability": "view",
      "type": "function"
    },
    {
      "inputs": [
        {
          "internalType": "string",
          "name": "name",
          "type": "string"
        }
      ],
      "name": "getSeasonCards",
      "outputs": [
        {
          "internalType": "uint256[]",
          "name": "",
          "type": "uint256[]"
        }
      ],
      "stateMutability": "view",
      "type": "function"
    },
    {
      "inputs": [
        {
          "internalType": "string",
          "name": "_seasonName",
          "type": "string"
        }
      ],
      "name": "getWinners",
      "outputs": [
        {
          "internalType": "address[]",
          "name": "",
          "type": "address[]"
        }
      ],
      "stateMutability": "view",
      "type": "function"
    },
    {
      "inputs": [
        {
          "internalType": "address",
          "name": "_owner",
          "type": "address"
        },
        {
          "internalType": "address",
          "name": "_operator",
          "type": "address"
        }
      ],
      "name": "isApprovedForAll",
      "outputs": [
        {
          "internalType": "bool",
          "name": "isOperator",
          "type": "bool"
        }
      ],
      "stateMutability": "view",
      "type": "function"
    },
    {
      "inputs": [],
      "name": "name",
      "outputs": [
        {
          "internalType": "string",
          "name": "",
          "type": "string"
        }
      ],
      "stateMutability": "view",
      "type": "function"
    },
    {
      "inputs": [
        {
          "internalType": "string",
          "name": "name",
          "type": "string"
        },
        {
          "internalType": "uint256",
          "name": "price",
          "type": "uint256"
        },
        {
          "internalType": "uint256",
          "name": "amount",
          "type": "uint256"
        },
        {
          "internalType": "string",
          "name": "folder",
          "type": "string"
        }
      ],
      "name": "newSeason",
      "outputs": [],
      "stateMutability": "nonpayable",
      "type": "function"
    },
    {
      "inputs": [],
      "name": "owner",
      "outputs": [
        {
          "internalType": "address",
          "name": "",
          "type": "address"
        }
      ],
      "stateMutability": "view",
      "type": "function"
    },
    {
      "inputs": [
        {
          "internalType": "uint256",
          "name": "tokenId",
          "type": "uint256"
        }
      ],
      "name": "ownerOf",
      "outputs": [
        {
          "internalType": "address",
          "name": "",
          "type": "address"
        }
      ],
      "stateMutability": "view",
      "type": "function"
    },
    {
      "inputs": [
        {
          "internalType": "uint256",
          "name": "card",
          "type": "uint256"
        },
        {
          "internalType": "uint256",
          "name": "album",
          "type": "uint256"
        }
      ],
      "name": "pasteCards",
      "outputs": [],
      "stateMutability": "nonpayable",
      "type": "function"
    },
    {
      "inputs": [],
      "name": "renounceOwnership",
      "outputs": [],
      "stateMutability": "nonpayable",
      "type": "function"
    },
    {
      "inputs": [
        {
          "internalType": "address",
          "name": "from",
          "type": "address"
        },
        {
          "internalType": "address",
          "name": "to",
          "type": "address"
        },
        {
          "internalType": "uint256",
          "name": "tokenId",
          "type": "uint256"
        }
      ],
      "name": "safeTransferFrom",
      "outputs": [],
      "stateMutability": "nonpayable",
      "type": "function"
    },
    {
      "inputs": [
        {
          "internalType": "address",
          "name": "from",
          "type": "address"
        },
        {
          "internalType": "address",
          "name": "to",
          "type": "address"
        },
        {
          "internalType": "uint256",
          "name": "tokenId",
          "type": "uint256"
        },
        {
          "internalType": "bytes",
          "name": "data",
          "type": "bytes"
        }
      ],
      "name": "safeTransferFrom",
      "outputs": [],
      "stateMutability": "nonpayable",
      "type": "function"
    },
    {
      "inputs": [
        {
          "internalType": "string",
          "name": "",
          "type": "string"
        }
      ],
      "name": "seasons",
      "outputs": [
        {
          "internalType": "uint256",
          "name": "price",
          "type": "uint256"
        },
        {
          "internalType": "string",
          "name": "folder",
          "type": "string"
        }
      ],
      "stateMutability": "view",
      "type": "function"
    },
    {
      "inputs": [
        {
          "internalType": "address",
          "name": "operator",
          "type": "address"
        },
        {
          "internalType": "bool",
          "name": "approved",
          "type": "bool"
        }
      ],
      "name": "setApprovalForAll",
      "outputs": [],
      "stateMutability": "nonpayable",
      "type": "function"
    },
    {
      "inputs": [
        {
          "internalType": "string",
          "name": "__baseURI",
          "type": "string"
        }
      ],
      "name": "setBaseURI",
      "outputs": [],
      "stateMutability": "nonpayable",
      "type": "function"
    },
    {
      "inputs": [
        {
          "internalType": "bytes4",
          "name": "interfaceId",
          "type": "bytes4"
        }
      ],
      "name": "supportsInterface",
      "outputs": [
        {
          "internalType": "bool",
          "name": "",
          "type": "bool"
        }
      ],
      "stateMutability": "view",
      "type": "function"
    },
    {
      "inputs": [],
      "name": "symbol",
      "outputs": [
        {
          "internalType": "string",
          "name": "",
          "type": "string"
        }
      ],
      "stateMutability": "view",
      "type": "function"
    },
    {
      "inputs": [
        {
          "internalType": "uint256",
          "name": "tokenId",
          "type": "uint256"
        }
      ],
      "name": "tokenURI",
      "outputs": [
        {
          "internalType": "string",
          "name": "",
          "type": "string"
        }
      ],
      "stateMutability": "view",
      "type": "function"
    },
    {
      "inputs": [
        {
          "internalType": "address",
          "name": "from",
          "type": "address"
        },
        {
          "internalType": "address",
          "name": "to",
          "type": "address"
        },
        {
          "internalType": "uint256",
          "name": "tokenId",
          "type": "uint256"
        }
      ],
      "name": "transferFrom",
      "outputs": [],
      "stateMutability": "nonpayable",
      "type": "function"
    },
    {
      "inputs": [
        {
          "internalType": "address",
          "name": "newOwner",
          "type": "address"
        }
      ],
      "name": "transferOwnership",
      "outputs": [],
      "stateMutability": "nonpayable",
      "type": "function"
    },
    {
      "inputs": [
        {
          "internalType": "uint256",
          "name": "amount",
          "type": "uint256"
        }
      ],
      "name": "withdrawDAI",
      "outputs": [],
      "stateMutability": "nonpayable",
      "type": "function"
    }
  ],
  "bytecode": "0x60806040526040518060e00160405280601460ff168152602001600e60ff168152602001600c60ff168152602001600a60ff168152602001600860ff168152602001600660ff168152602001600560ff16815250600e9060076200006592919062000350565b503480156200007357600080fd5b50604051620071453803806200714583398181016040528101906200009991906200052a565b6040518060400160405280600c81526020017f4e4f4620416c70686120563200000000000000000000000000000000000000008152506040518060400160405280600481526020017f4e4f46410000000000000000000000000000000000000000000000000000000081525081600090805190602001906200011d929190620003f1565b50806001908051906020019062000136929190620003f1565b505050620001596200014d620001bb60201b60201c565b620001d760201b60201c565b816009908051906020019062000171929190620003f1565b5080600f60006101000a81548173ffffffffffffffffffffffffffffffffffffffff021916908373ffffffffffffffffffffffffffffffffffffffff160217905550505062000742565b6000620001d26200029d60201b620028491760201c565b905090565b6000600760009054906101000a900473ffffffffffffffffffffffffffffffffffffffff16905081600760006101000a81548173ffffffffffffffffffffffffffffffffffffffff021916908373ffffffffffffffffffffffffffffffffffffffff1602179055508173ffffffffffffffffffffffffffffffffffffffff168173ffffffffffffffffffffffffffffffffffffffff167f8be0079c531659141344cd1fd0a4f28419497f9722a3daafe3b4186f6b6457e060405160405180910390a35050565b60003073ffffffffffffffffffffffffffffffffffffffff163373ffffffffffffffffffffffffffffffffffffffff1614156200034957600080368080601f016020809104026020016040519081016040528093929190818152602001838380828437600081840152601f19601f820116905080830192505050505050509050600080369050905073ffffffffffffffffffffffffffffffffffffffff8183015116925050506200034d565b3390505b90565b826007601f01602090048101928215620003de5791602002820160005b83821115620003ad57835183826101000a81548160ff021916908360ff16021790555092602001926001016020816000010492830192600103026200036d565b8015620003dc5782816101000a81549060ff0219169055600101602081600001049283019260010302620003ad565b505b509050620003ed919062000482565b5090565b828054620003ff906200064d565b90600052602060002090601f0160209004810192826200042357600085556200046f565b82601f106200043e57805160ff19168380011785556200046f565b828001600101855582156200046f579182015b828111156200046e57825182559160200191906001019062000451565b5b5090506200047e919062000482565b5090565b5b808211156200049d57600081600090555060010162000483565b5090565b6000620004b8620004b284620005ad565b62000584565b905082815260208101848484011115620004d157600080fd5b620004de84828562000617565b509392505050565b600081519050620004f78162000728565b92915050565b600082601f8301126200050f57600080fd5b815162000521848260208601620004a1565b91505092915050565b600080604083850312156200053e57600080fd5b600083015167ffffffffffffffff8111156200055957600080fd5b6200056785828601620004fd565b92505060206200057a85828601620004e6565b9150509250929050565b600062000590620005a3565b90506200059e828262000683565b919050565b6000604051905090565b600067ffffffffffffffff821115620005cb57620005ca620006e8565b5b620005d68262000717565b9050602081019050919050565b6000620005f082620005f7565b9050919050565b600073ffffffffffffffffffffffffffffffffffffffff82169050919050565b60005b83811015620006375780820151818401526020810190506200061a565b8381111562000647576000848401525b50505050565b600060028204905060018216806200066657607f821691505b602082108114156200067d576200067c620006b9565b5b50919050565b6200068e8262000717565b810181811067ffffffffffffffff82111715620006b057620006af620006e8565b5b80604052505050565b7f4e487b7100000000000000000000000000000000000000000000000000000000600052602260045260246000fd5b7f4e487b7100000000000000000000000000000000000000000000000000000000600052604160045260246000fd5b6000601f19601f8301169050919050565b6200073381620005e3565b81146200073f57600080fd5b50565b6169f380620007526000396000f3fe608060405234801561001057600080fd5b50600436106101da5760003560e01c80638477919b11610104578063a22cb465116100a2578063e606df8711610071578063e606df8714610594578063e985e9c5146105b2578063e9d43f7d146105e2578063f2fde38b14610612576101da565b8063a22cb465146104fc578063b88d4fde14610518578063be20e5a914610534578063c87b56dd14610564576101da565b806395a4c525116100de57806395a4c5251461047457806395d89b41146104a45780639abc8320146104c25780639add7438146104e0576101da565b80638477919b146104055780638da5cb5b146104215780638dc107681461043f576101da565b806341c2c10f1161017c57806370a082311161014b57806370a082311461036a578063715018a61461039a578063787f0b05146103a457806383c73d81146103d5576101da565b806341c2c10f146102e657806342842e0e1461030257806355f804b31461031e5780636352211e1461033a576101da565b8063081812fc116101b8578063081812fc14610249578063095ea7b31461027957806323b872dd14610295578063308f5987146102b1576101da565b8063015db396146101df57806301ffc9a7146101fb57806306fdde031461022b575b600080fd5b6101f960048036038101906101f49190615019565b61062e565b005b61021560048036038101906102109190614e85565b610e2a565b6040516102229190615af2565b60405180910390f35b610233610e3c565b6040516102409190615b0d565b60405180910390f35b610263600480360381019061025e9190614ff0565b610ece565b60405161027091906159b0565b60405180910390f35b610293600480360381019061028e9190614e20565b610f14565b005b6102af60048036038101906102aa9190614c5b565b61102c565b005b6102cb60048036038101906102c69190614db9565b61108c565b6040516102dd96959493929190615e3a565b60405180910390f35b61030060048036038101906102fb919061506d565b611190565b005b61031c60048036038101906103179190614c5b565b611c1f565b005b61033860048036038101906103339190614f1c565b611d0a565b005b610354600480360381019061034f9190614ff0565b611d2c565b60405161036191906159b0565b60405180910390f35b610384600480360381019061037f9190614bf6565b611db3565b6040516103919190615def565b60405180910390f35b6103a2611e6b565b005b6103be60048036038101906103b99190614f1c565b611e7f565b6040516103cc929190615e0a565b60405180910390f35b6103ef60048036038101906103ea9190614f1c565b611f41565b6040516103fc9190615ad0565b60405180910390f35b61041f600480360381019061041a9190614f5d565b611fba565b005b61042961213a565b60405161043691906159b0565b60405180910390f35b61045960048036038101906104549190614ff0565b612164565b60405161046b96959493929190615e3a565b60405180910390f35b61048e60048036038101906104899190614ed7565b612228565b60405161049b9190615a8c565b60405180910390f35b6104ac6122d7565b6040516104b99190615b0d565b60405180910390f35b6104ca612369565b6040516104d79190615b0d565b60405180910390f35b6104fa60048036038101906104f59190614ff0565b6123f7565b005b61051660048036038101906105119190614d25565b6124b4565b005b610532600480360381019061052d9190614caa565b6124ca565b005b61054e60048036038101906105499190614f1c565b61252c565b60405161055b9190615ad0565b60405180910390f35b61057e60048036038101906105799190614ff0565b6125a5565b60405161058b9190615b0d565b60405180910390f35b61059c6125b7565b6040516105a991906159b0565b60405180910390f35b6105cc60048036038101906105c79190614c1f565b6125dd565b6040516105d99190615af2565b60405180910390f35b6105fc60048036038101906105f79190614d61565b612643565b6040516106099190615aae565b60405180910390f35b61062c60048036038101906106279190614bf6565b6127c5565b005b600a8160405161063e9190615943565b908152602001604051809103902060030160003373ffffffffffffffffffffffffffffffffffffffff1673ffffffffffffffffffffffffffffffffffffffff16815260200190815260200160002060009054906101000a900460ff16156106da576040517f08c379a00000000000000000000000000000000000000000000000000000000081526004016106d190615c6f565b60405180910390fd5b6001600a826040516106ec9190615943565b908152602001604051809103902060030160003373ffffffffffffffffffffffffffffffffffffffff1673ffffffffffffffffffffffffffffffffffffffff16815260200190815260200160002060006101000a81548160ff02191690831515021790555081600a826040516107629190615943565b908152602001604051809103902060000154146107b4576040517f08c379a00000000000000000000000000000000000000000000000000000000081526004016107ab90615c4f565b60405180910390fd5b600f60009054906101000a900473ffffffffffffffffffffffffffffffffffffffff1673ffffffffffffffffffffffffffffffffffffffff166323b872dd3330856040518463ffffffff1660e01b8152600401610813939291906159cb565b602060405180830381600087803b15801561082d57600080fd5b505af1158015610841573d6000803e3d6000fd5b505050506040513d601f19601f820116820180604052508101906108659190614e5c565b506000600a826040516108789190615943565b9081526020016040518091039020600201805490504260405160200161089e9190615995565b6040516020818303038152906040528051906020012060001c6108c19190616315565b90506000600a836040516108d59190615943565b9081526020016040518091039020600201828154811061091e577f4e487b7100000000000000000000000000000000000000000000000000000000600052603260045260246000fd5b90600052602060002001549050600a8360405161093b9190615943565b90815260200160405180910390206002016001600a8560405161095e9190615943565b90815260200160405180910390206002018054905061097d919061613e565b815481106109b4577f4e487b7100000000000000000000000000000000000000000000000000000000600052603260045260246000fd5b9060005260206000200154600a846040516109cf9190615943565b90815260200160405180910390206002018381548110610a18577f4e487b7100000000000000000000000000000000000000000000000000000000600052603260045260246000fd5b9060005260206000200181905550600a83604051610a369190615943565b9081526020016040518091039020600201805480610a7d577f4e487b7100000000000000000000000000000000000000000000000000000000600052603160045260246000fd5b60019003818190600052602060002001600090559055610b3a33600a85604051610aa79190615943565b90815260200160405180910390206004016040518060400160405280600181526020017f2f00000000000000000000000000000000000000000000000000000000000000815250610af7856128fa565b604051602001610b09939291906158bb565b60405160208183030381529060405260006001600686610b2991906160b3565b610b33919061613e565b8786612aa7565b505060005b6005811015610e25576000600a83604051610b5a9190615943565b90815260200160405180910390206001018054905042604051602001610b809190615995565b6040516020818303038152906040528051906020012060001c610ba39190616315565b90506000600a84604051610bb79190615943565b90815260200160405180910390206001018281548110610c00577f4e487b7100000000000000000000000000000000000000000000000000000000600052603260045260246000fd5b90600052602060002001549050600a84604051610c1d9190615943565b90815260200160405180910390206001016001600a86604051610c409190615943565b908152602001604051809103902060010180549050610c5f919061613e565b81548110610c96577f4e487b7100000000000000000000000000000000000000000000000000000000600052603260045260246000fd5b9060005260206000200154600a85604051610cb19190615943565b90815260200160405180910390206001018381548110610cfa577f4e487b7100000000000000000000000000000000000000000000000000000000600052603260045260246000fd5b9060005260206000200181905550600a84604051610d189190615943565b9081526020016040518091039020600101805480610d5f577f4e487b7100000000000000000000000000000000000000000000000000000000600052603160045260246000fd5b60019003818190600052602060002001600090559055610e1033600a86604051610d899190615943565b90815260200160405180910390206004016040518060400160405280600181526020017f2f00000000000000000000000000000000000000000000000000000000000000815250610dd9856128fa565b604051602001610deb939291906158bb565b6040516020818303038152906040526001600685610e0991906160b3565b8886612aa7565b50508080610e1d90616298565b915050610b3f565b505050565b6000610e3582612c5e565b9050919050565b606060008054610e4b90616235565b80601f0160208091040260200160405190810160405280929190818152602001828054610e7790616235565b8015610ec45780601f10610e9957610100808354040283529160200191610ec4565b820191906000526020600020905b815481529060010190602001808311610ea757829003601f168201915b5050505050905090565b6000610ed982612d40565b6004600083815260200190815260200160002060009054906101000a900473ffffffffffffffffffffffffffffffffffffffff169050919050565b6000610f1f82611d2c565b90508073ffffffffffffffffffffffffffffffffffffffff168373ffffffffffffffffffffffffffffffffffffffff161415610f90576040517f08c379a0000000000000000000000000000000000000000000000000000000008152600401610f8790615d8f565b60405180910390fd5b8073ffffffffffffffffffffffffffffffffffffffff16610faf612d8b565b73ffffffffffffffffffffffffffffffffffffffff161480610fde5750610fdd81610fd8612d8b565b6125dd565b5b61101d576040517f08c379a000000000000000000000000000000000000000000000000000000000815260040161101490615dcf565b60405180910390fd5b6110278383612d9a565b505050565b61103d611037612d8b565b82612e53565b61107c576040517f08c379a000000000000000000000000000000000000000000000000000000000815260040161107390615b2f565b60405180910390fd5b611087838383612ee8565b505050565b600d6020528260005260406000208280516020810182018051848252602083016020850120818352809550505050505081815481106110ca57600080fd5b9060005260206000209060060201600092509250505080600001549080600101549080600201549080600301805461110190616235565b80601f016020809104026020016040519081016040528092919081815260200182805461112d90616235565b801561117a5780601f1061114f5761010080835404028352916020019161117a565b820191906000526020600020905b81548152906001019060200180831161115d57829003601f168201915b5050505050908060040154908060050154905086565b3373ffffffffffffffffffffffffffffffffffffffff166111b083611d2c565b73ffffffffffffffffffffffffffffffffffffffff1614611206576040517f08c379a00000000000000000000000000000000000000000000000000000000081526004016111fd90615daf565b60405180910390fd5b3373ffffffffffffffffffffffffffffffffffffffff1661122682611d2c565b73ffffffffffffffffffffffffffffffffffffffff161461127c576040517f08c379a000000000000000000000000000000000000000000000000000000000815260040161127390615c8f565b60405180910390fd5b6000600b600083815260200190815260200160002060010154146112d5576040517f08c379a00000000000000000000000000000000000000000000000000000000081526004016112cc90615b6f565b60405180910390fd5b600b600082815260200190815260200160002060020154600b60008481526020019081526020016000206002015414611343576040517f08c379a000000000000000000000000000000000000000000000000000000000815260040161133a90615b8f565b60405180910390fd5b60005b600d60003373ffffffffffffffffffffffffffffffffffffffff1673ffffffffffffffffffffffffffffffffffffffff168152602001908152602001600020600b60008581526020019081526020016000206003016040516113a8919061597e565b9081526020016040518091039020805490508160ff1610156117ec57600b600084815260200190815260200160002060050154600d60003373ffffffffffffffffffffffffffffffffffffffff1673ffffffffffffffffffffffffffffffffffffffff168152602001908152602001600020600b600086815260200190815260200160002060030160405161143d919061597e565b90815260200160405180910390208260ff1681548110611486577f4e487b7100000000000000000000000000000000000000000000000000000000600052603260045260246000fd5b90600052602060002090600602016005015414156117d957600d60003373ffffffffffffffffffffffffffffffffffffffff1673ffffffffffffffffffffffffffffffffffffffff168152602001908152602001600020600b6000858152602001908152602001600020600301604051611500919061597e565b90815260200160405180910390206001600d60003373ffffffffffffffffffffffffffffffffffffffff1673ffffffffffffffffffffffffffffffffffffffff168152602001908152602001600020600b6000878152602001908152602001600020600301604051611572919061597e565b90815260200160405180910390208054905061158e919061613e565b815481106115c5577f4e487b7100000000000000000000000000000000000000000000000000000000600052603260045260246000fd5b9060005260206000209060060201600d60003373ffffffffffffffffffffffffffffffffffffffff1673ffffffffffffffffffffffffffffffffffffffff168152602001908152602001600020600b6000868152602001908152602001600020600301604051611635919061597e565b90815260200160405180910390208260ff168154811061167e577f4e487b7100000000000000000000000000000000000000000000000000000000600052603260045260246000fd5b906000526020600020906006020160008201548160000155600182015481600101556002820154816002015560038201816003019080546116be90616235565b6116c99291906148ee565b506004820154816004015560058201548160050155905050600d60003373ffffffffffffffffffffffffffffffffffffffff1673ffffffffffffffffffffffffffffffffffffffff168152602001908152602001600020600b6000858152602001908152602001600020600301604051611743919061597e565b9081526020016040518091039020805480611787577f4e487b7100000000000000000000000000000000000000000000000000000000600052603160045260246000fd5b6001900381819060005260206000209060060201600080820160009055600182016000905560028201600090556003820160006117c4919061497b565b60048201600090556005820160009055505090555b80806117e4906162e1565b915050611346565b506117f6826131e2565b600b6000828152602001908152602001600020600401600081548092919061181d90616298565b91905055506005600b6000838152602001908152602001600020600401541415611c1b576007600c600b6000848152602001908152602001600020600301604051611868919061597e565b9081526020016040518091039020805490501015611aa857600c600b60008381526020019081526020016000206003016040516118a5919061597e565b9081526020016040518091039020339080600181540180825580915050600190039060005260206000200160009091909190916101000a81548173ffffffffffffffffffffffffffffffffffffffff021916908373ffffffffffffffffffffffffffffffffffffffff160217905550600f60009054906101000a900473ffffffffffffffffffffffffffffffffffffffff1673ffffffffffffffffffffffffffffffffffffffff166323b872dd3033600a600e6001600c600b60008a815260200190815260200160002060030160405161197f919061597e565b90815260200160405180910390208054905061199b919061613e565b600781106119d2577f4e487b7100000000000000000000000000000000000000000000000000000000600052603260045260246000fd5b602091828204019190069054906101000a900460ff1660ff16600a600b6000898152602001908152602001600020600301604051611a10919061597e565b908152602001604051809103902060000154611a2c91906160e4565b611a3691906160b3565b6040518463ffffffff1660e01b8152600401611a54939291906159cb565b602060405180830381600087803b158015611a6e57600080fd5b505af1158015611a82573d6000803e3d6000fd5b505050506040513d601f19601f82011682018060405250810190611aa69190614e5c565b505b611b9481600a600b6000858152602001908152602001600020600301604051611ad1919061597e565b90815260200160405180910390206004016040518060400160405280600181526020017f2f00000000000000000000000000000000000000000000000000000000000000815250611b37600b6000878152602001908152602001600020600501546128fa565b6040518060400160405280600181526020017f4600000000000000000000000000000000000000000000000000000000000000815250604051602001611b8094939291906158ec565b6040516020818303038152906040526131ee565b7f953ec8b8176b9eb94e1561816a70bc231210aee5f1aaa59fdbad7915f9ad3c9633600b6000848152602001908152602001600020600301600c600b6000868152602001908152602001600020600301604051611bf1919061597e565b908152602001604051809103902080549050604051611c1293929190615a4e565b60405180910390a15b5050565b600a600b6000838152602001908152602001600020600301604051611c44919061597e565b908152602001604051809103902060030160008373ffffffffffffffffffffffffffffffffffffffff1673ffffffffffffffffffffffffffffffffffffffff16815260200190815260200160002060009054906101000a900460ff16611cdf576040517f08c379a0000000000000000000000000000000000000000000000000000000008152600401611cd690615ccf565b60405180910390fd5b611cea838383613262565b611d05838383604051806020016040528060008152506124ca565b505050565b611d12613822565b8060099080519060200190611d289291906149bb565b5050565b600080611d38836138a0565b9050600073ffffffffffffffffffffffffffffffffffffffff168173ffffffffffffffffffffffffffffffffffffffff161415611daa576040517f08c379a0000000000000000000000000000000000000000000000000000000008152600401611da190615d6f565b60405180910390fd5b80915050919050565b60008073ffffffffffffffffffffffffffffffffffffffff168273ffffffffffffffffffffffffffffffffffffffff161415611e24576040517f08c379a0000000000000000000000000000000000000000000000000000000008152600401611e1b90615caf565b60405180910390fd5b600360008373ffffffffffffffffffffffffffffffffffffffff1673ffffffffffffffffffffffffffffffffffffffff168152602001908152602001600020549050919050565b611e73613822565b611e7d60006138dd565b565b600a81805160208101820180518482526020830160208501208183528095505050505050600091509050806000015490806004018054611ebe90616235565b80601f0160208091040260200160405190810160405280929190818152602001828054611eea90616235565b8015611f375780601f10611f0c57610100808354040283529160200191611f37565b820191906000526020600020905b815481529060010190602001808311611f1a57829003601f168201915b5050505050905082565b6060600a82604051611f539190615943565b9081526020016040518091039020600101805480602002602001604051908101604052809291908181526020018280548015611fae57602002820191906000526020600020905b815481526020019060010190808311611f9a575b50505050509050919050565b611fc2613822565b655af3107a400083101561200b576040517f08c379a000000000000000000000000000000000000000000000000000000000815260040161200290615d4f565b60405180910390fd5b82600a8560405161201c9190615943565b90815260200160405180910390206000018190555080600a856040516120429190615943565b908152602001604051809103902060040190805190602001906120669291906149bb565b506000600190505b8281116121335760006006826120849190616315565b14156120d757600a8560405161209a9190615943565b9081526020016040518091039020600201819080600181540180825580915050600190039060005260206000200160009091909190915055612120565b600a856040516120e79190615943565b90815260200160405180910390206001018190806001815401808255809150506001900390600052602060002001600090919091909150555b808061212b90616298565b91505061206e565b5050505050565b6000600760009054906101000a900473ffffffffffffffffffffffffffffffffffffffff16905090565b600b60205280600052604060002060009150905080600001549080600101549080600201549080600301805461219990616235565b80601f01602080910402602001604051908101604052809291908181526020018280546121c590616235565b80156122125780601f106121e757610100808354040283529160200191612212565b820191906000526020600020905b8154815290600101906020018083116121f557829003601f168201915b5050505050908060040154908060050154905086565b6060600c838360405161223c92919061592a565b90815260200160405180910390208054806020026020016040519081016040528092919081815260200182805480156122ca57602002820191906000526020600020905b8160009054906101000a900473ffffffffffffffffffffffffffffffffffffffff1673ffffffffffffffffffffffffffffffffffffffff1681526020019060010190808311612280575b5050505050905092915050565b6060600180546122e690616235565b80601f016020809104026020016040519081016040528092919081815260200182805461231290616235565b801561235f5780601f106123345761010080835404028352916020019161235f565b820191906000526020600020905b81548152906001019060200180831161234257829003601f168201915b5050505050905090565b6009805461237690616235565b80601f01602080910402602001604051908101604052809291908181526020018280546123a290616235565b80156123ef5780601f106123c4576101008083540402835291602001916123ef565b820191906000526020600020905b8154815290600101906020018083116123d257829003601f168201915b505050505081565b6123ff613822565b600f60009054906101000a900473ffffffffffffffffffffffffffffffffffffffff1673ffffffffffffffffffffffffffffffffffffffff166323b872dd3033846040518463ffffffff1660e01b815260040161245e939291906159cb565b602060405180830381600087803b15801561247857600080fd5b505af115801561248c573d6000803e3d6000fd5b505050506040513d601f19601f820116820180604052508101906124b09190614e5c565b5050565b6124c66124bf612d8b565b83836139a3565b5050565b6124db6124d5612d8b565b83612e53565b61251a576040517f08c379a000000000000000000000000000000000000000000000000000000000815260040161251190615b2f565b60405180910390fd5b61252684848484613b10565b50505050565b6060600a8260405161253e9190615943565b908152602001604051809103902060020180548060200260200160405190810160405280929190818152602001828054801561259957602002820191906000526020600020905b815481526020019060010190808311612585575b50505050509050919050565b60606125b082613b6c565b9050919050565b600f60009054906101000a900473ffffffffffffffffffffffffffffffffffffffff1681565b60007358807bad0b376efc12f5ad86aac70e78ed67deae73ffffffffffffffffffffffffffffffffffffffff168273ffffffffffffffffffffffffffffffffffffffff161415612630576001905061263d565b61263a8383613c7f565b90505b92915050565b6060600d60008573ffffffffffffffffffffffffffffffffffffffff1673ffffffffffffffffffffffffffffffffffffffff168152602001908152602001600020838360405161269492919061592a565b9081526020016040518091039020805480602002602001604051908101604052809291908181526020016000905b828210156127b857838290600052602060002090600602016040518060c001604052908160008201548152602001600182015481526020016002820154815260200160038201805461271390616235565b80601f016020809104026020016040519081016040528092919081815260200182805461273f90616235565b801561278c5780601f106127615761010080835404028352916020019161278c565b820191906000526020600020905b81548152906001019060200180831161276f57829003601f168201915b5050505050815260200160048201548152602001600582015481525050815260200190600101906126c2565b5050505090509392505050565b6127cd613822565b600073ffffffffffffffffffffffffffffffffffffffff168173ffffffffffffffffffffffffffffffffffffffff16141561283d576040517f08c379a000000000000000000000000000000000000000000000000000000000815260040161283490615baf565b60405180910390fd5b612846816138dd565b50565b60003073ffffffffffffffffffffffffffffffffffffffff163373ffffffffffffffffffffffffffffffffffffffff1614156128f357600080368080601f016020809104026020016040519081016040528093929190818152602001838380828437600081840152601f19601f820116905080830192505050505050509050600080369050905073ffffffffffffffffffffffffffffffffffffffff8183015116925050506128f7565b3390505b90565b60606000821415612942576040518060400160405280600181526020017f30000000000000000000000000000000000000000000000000000000000000008152509050612aa2565b600082905060005b6000821461297457808061295d90616298565b915050600a8261296d91906160b3565b915061294a565b60008167ffffffffffffffff8111156129b6577f4e487b7100000000000000000000000000000000000000000000000000000000600052604160045260246000fd5b6040519080825280601f01601f1916602001820160405280156129e85781602001600182028036833780820191505090505b5090505b60008514612a9b57600182612a01919061613e565b9150600a85612a109190616315565b6030612a1c919061605d565b60f81b818381518110612a58577f4e487b7100000000000000000000000000000000000000000000000000000000600052603260045260246000fd5b60200101907effffffffffffffffffffffffffffffffffffffffffffffffffffffffffffff1916908160001a905350600a85612a9491906160b3565b94506129ec565b8093505050505b919050565b6000612ab36008613d13565b9050612abf6008613d21565b80600b60008381526020019081526020016000206000018190555084600b60008381526020019081526020016000206001018190555083600b60008381526020019081526020016000206002018190555082600b60008381526020019081526020016000206003019080519060200190612b3a9291906149bb565b5081600b600083815260200190815260200160002060050181905550600d60008873ffffffffffffffffffffffffffffffffffffffff1673ffffffffffffffffffffffffffffffffffffffff16815260200190815260200160002083604051612ba39190615943565b9081526020016040518091039020600b600083815260200190815260200160002090806001815401808255809150506001900390600052602060002090600602016000909190919091506000820154816000015560018201548160010155600282015481600201556003820181600301908054612c1f90616235565b612c2a9291906148ee565b5060048201548160040155600582015481600501555050612c4b8782613d37565b612c5581876131ee565b50505050505050565b60007f80ac58cd000000000000000000000000000000000000000000000000000000007bffffffffffffffffffffffffffffffffffffffffffffffffffffffff1916827bffffffffffffffffffffffffffffffffffffffffffffffffffffffff19161480612d2957507f5b5e139f000000000000000000000000000000000000000000000000000000007bffffffffffffffffffffffffffffffffffffffffffffffffffffffff1916827bffffffffffffffffffffffffffffffffffffffffffffffffffffffff1916145b80612d395750612d3882613f55565b5b9050919050565b612d4981613fbf565b612d88576040517f08c379a0000000000000000000000000000000000000000000000000000000008152600401612d7f90615d6f565b60405180910390fd5b50565b6000612d95612849565b905090565b816004600083815260200190815260200160002060006101000a81548173ffffffffffffffffffffffffffffffffffffffff021916908373ffffffffffffffffffffffffffffffffffffffff160217905550808273ffffffffffffffffffffffffffffffffffffffff16612e0d83611d2c565b73ffffffffffffffffffffffffffffffffffffffff167f8c5be1e5ebec7d5bd14f71427d1e84f3dd0314c0f7b2291e5b200ac8c7c3b92560405160405180910390a45050565b600080612e5f83611d2c565b90508073ffffffffffffffffffffffffffffffffffffffff168473ffffffffffffffffffffffffffffffffffffffff161480612ea15750612ea081856125dd565b5b80612edf57508373ffffffffffffffffffffffffffffffffffffffff16612ec784610ece565b73ffffffffffffffffffffffffffffffffffffffff16145b91505092915050565b8273ffffffffffffffffffffffffffffffffffffffff16612f0882611d2c565b73ffffffffffffffffffffffffffffffffffffffff1614612f5e576040517f08c379a0000000000000000000000000000000000000000000000000000000008152600401612f5590615bcf565b60405180910390fd5b600073ffffffffffffffffffffffffffffffffffffffff168273ffffffffffffffffffffffffffffffffffffffff161415612fce576040517f08c379a0000000000000000000000000000000000000000000000000000000008152600401612fc590615c0f565b60405180910390fd5b612fdb8383836001614000565b8273ffffffffffffffffffffffffffffffffffffffff16612ffb82611d2c565b73ffffffffffffffffffffffffffffffffffffffff1614613051576040517f08c379a000000000000000000000000000000000000000000000000000000000815260040161304890615bcf565b60405180910390fd5b6004600082815260200190815260200160002060006101000a81549073ffffffffffffffffffffffffffffffffffffffff02191690556001600360008573ffffffffffffffffffffffffffffffffffffffff1673ffffffffffffffffffffffffffffffffffffffff168152602001908152602001600020600082825403925050819055506001600360008473ffffffffffffffffffffffffffffffffffffffff1673ffffffffffffffffffffffffffffffffffffffff16815260200190815260200160002060008282540192505081905550816002600083815260200190815260200160002060006101000a81548173ffffffffffffffffffffffffffffffffffffffff021916908373ffffffffffffffffffffffffffffffffffffffff160217905550808273ffffffffffffffffffffffffffffffffffffffff168473ffffffffffffffffffffffffffffffffffffffff167fddf252ad1be2c89b69c2b068fc378daa952ba7f163c4a11628f55a4df523b3ef60405160405180910390a46131dd8383836001614012565b505050565b6131eb81614018565b50565b6131f782613fbf565b613236576040517f08c379a000000000000000000000000000000000000000000000000000000000815260040161322d90615cef565b60405180910390fd5b8060066000848152602001908152602001600020908051906020019061325d9291906149bb565b505050565b6000600b6000838152602001908152602001600020600301805461328590616235565b80601f01602080910402602001604051908101604052809291908181526020018280546132b190616235565b80156132fe5780601f106132d3576101008083540402835291602001916132fe565b820191906000526020600020905b8154815290600101906020018083116132e157829003601f168201915b5050505050905060005b600d60008673ffffffffffffffffffffffffffffffffffffffff1673ffffffffffffffffffffffffffffffffffffffff168152602001908152602001600020826040516133559190615943565b9081526020016040518091039020805490508160ff16101561373057600b600084815260200190815260200160002060050154600d60008773ffffffffffffffffffffffffffffffffffffffff1673ffffffffffffffffffffffffffffffffffffffff168152602001908152602001600020836040516133d59190615943565b90815260200160405180910390208260ff168154811061341e577f4e487b7100000000000000000000000000000000000000000000000000000000600052603260045260246000fd5b906000526020600020906006020160050154141561371d57600d60008673ffffffffffffffffffffffffffffffffffffffff1673ffffffffffffffffffffffffffffffffffffffff168152602001908152602001600020826040516134839190615943565b90815260200160405180910390206001600d60008873ffffffffffffffffffffffffffffffffffffffff1673ffffffffffffffffffffffffffffffffffffffff168152602001908152602001600020846040516134e09190615943565b9081526020016040518091039020805490506134fc919061613e565b81548110613533577f4e487b7100000000000000000000000000000000000000000000000000000000600052603260045260246000fd5b9060005260206000209060060201600d60008773ffffffffffffffffffffffffffffffffffffffff1673ffffffffffffffffffffffffffffffffffffffff1681526020019081526020016000208360405161358e9190615943565b90815260200160405180910390208260ff16815481106135d7577f4e487b7100000000000000000000000000000000000000000000000000000000600052603260045260246000fd5b9060005260206000209060060201600082015481600001556001820154816001015560028201548160020155600382018160030190805461361790616235565b6136229291906148ee565b506004820154816004015560058201548160050155905050600d60008673ffffffffffffffffffffffffffffffffffffffff1673ffffffffffffffffffffffffffffffffffffffff168152602001908152602001600020826040516136879190615943565b90815260200160405180910390208054806136cb577f4e487b7100000000000000000000000000000000000000000000000000000000600052603160045260246000fd5b600190038181906000526020600020906006020160008082016000905560018201600090556002820160009055600382016000613708919061497b565b60048201600090556005820160009055505090555b8080613728906162e1565b915050613308565b50600d60008473ffffffffffffffffffffffffffffffffffffffff1673ffffffffffffffffffffffffffffffffffffffff1681526020019081526020016000208160405161377e9190615943565b9081526020016040518091039020600b6000848152602001908152602001600020908060018154018082558091505060019003906000526020600020906006020160009091909190915060008201548160000155600182015481600101556002820154816002015560038201816003019080546137fa90616235565b6138059291906148ee565b506004820154816004015560058201548160050155505050505050565b61382a612d8b565b73ffffffffffffffffffffffffffffffffffffffff1661384861213a565b73ffffffffffffffffffffffffffffffffffffffff161461389e576040517f08c379a000000000000000000000000000000000000000000000000000000000815260040161389590615d2f565b60405180910390fd5b565b60006002600083815260200190815260200160002060009054906101000a900473ffffffffffffffffffffffffffffffffffffffff169050919050565b6000600760009054906101000a900473ffffffffffffffffffffffffffffffffffffffff16905081600760006101000a81548173ffffffffffffffffffffffffffffffffffffffff021916908373ffffffffffffffffffffffffffffffffffffffff1602179055508173ffffffffffffffffffffffffffffffffffffffff168173ffffffffffffffffffffffffffffffffffffffff167f8be0079c531659141344cd1fd0a4f28419497f9722a3daafe3b4186f6b6457e060405160405180910390a35050565b8173ffffffffffffffffffffffffffffffffffffffff168373ffffffffffffffffffffffffffffffffffffffff161415613a12576040517f08c379a0000000000000000000000000000000000000000000000000000000008152600401613a0990615c2f565b60405180910390fd5b80600560008573ffffffffffffffffffffffffffffffffffffffff1673ffffffffffffffffffffffffffffffffffffffff16815260200190815260200160002060008473ffffffffffffffffffffffffffffffffffffffff1673ffffffffffffffffffffffffffffffffffffffff16815260200190815260200160002060006101000a81548160ff0219169083151502179055508173ffffffffffffffffffffffffffffffffffffffff168373ffffffffffffffffffffffffffffffffffffffff167f17307eab39ab6107e8899845ad3d59bd9653f200f220920489ca2b5937696c3183604051613b039190615af2565b60405180910390a3505050565b613b1b848484612ee8565b613b278484848461406b565b613b66576040517f08c379a0000000000000000000000000000000000000000000000000000000008152600401613b5d90615b4f565b60405180910390fd5b50505050565b6060613b7782612d40565b6000600660008481526020019081526020016000208054613b9790616235565b80601f0160208091040260200160405190810160405280929190818152602001828054613bc390616235565b8015613c105780601f10613be557610100808354040283529160200191613c10565b820191906000526020600020905b815481529060010190602001808311613bf357829003601f168201915b505050505090506000613c21614202565b9050600081511415613c37578192505050613c7a565b600082511115613c6c578082604051602001613c5492919061595a565b60405160208183030381529060405292505050613c7a565b613c7584614294565b925050505b919050565b6000600560008473ffffffffffffffffffffffffffffffffffffffff1673ffffffffffffffffffffffffffffffffffffffff16815260200190815260200160002060008373ffffffffffffffffffffffffffffffffffffffff1673ffffffffffffffffffffffffffffffffffffffff16815260200190815260200160002060009054906101000a900460ff16905092915050565b600081600001549050919050565b6001816000016000828254019250508190555050565b600073ffffffffffffffffffffffffffffffffffffffff168273ffffffffffffffffffffffffffffffffffffffff161415613da7576040517f08c379a0000000000000000000000000000000000000000000000000000000008152600401613d9e90615d0f565b60405180910390fd5b613db081613fbf565b15613df0576040517f08c379a0000000000000000000000000000000000000000000000000000000008152600401613de790615bef565b60405180910390fd5b613dfe600083836001614000565b613e0781613fbf565b15613e47576040517f08c379a0000000000000000000000000000000000000000000000000000000008152600401613e3e90615bef565b60405180910390fd5b6001600360008473ffffffffffffffffffffffffffffffffffffffff1673ffffffffffffffffffffffffffffffffffffffff16815260200190815260200160002060008282540192505081905550816002600083815260200190815260200160002060006101000a81548173ffffffffffffffffffffffffffffffffffffffff021916908373ffffffffffffffffffffffffffffffffffffffff160217905550808273ffffffffffffffffffffffffffffffffffffffff16600073ffffffffffffffffffffffffffffffffffffffff167fddf252ad1be2c89b69c2b068fc378daa952ba7f163c4a11628f55a4df523b3ef60405160405180910390a4613f51600083836001614012565b5050565b60007f01ffc9a7000000000000000000000000000000000000000000000000000000007bffffffffffffffffffffffffffffffffffffffffffffffffffffffff1916827bffffffffffffffffffffffffffffffffffffffffffffffffffffffff1916149050919050565b60008073ffffffffffffffffffffffffffffffffffffffff16613fe1836138a0565b73ffffffffffffffffffffffffffffffffffffffff1614159050919050565b61400c848484846142fc565b50505050565b50505050565b61402181614422565b600060066000838152602001908152602001600020805461404190616235565b90501461406857600660008281526020019081526020016000206000614067919061497b565b5b50565b600061408c8473ffffffffffffffffffffffffffffffffffffffff16614570565b156141f5578373ffffffffffffffffffffffffffffffffffffffff1663150b7a026140b5612d8b565b8786866040518563ffffffff1660e01b81526004016140d79493929190615a02565b602060405180830381600087803b1580156140f157600080fd5b505af192505050801561412257506040513d601f19601f8201168201806040525081019061411f9190614eae565b60015b6141a5573d8060008114614152576040519150601f19603f3d011682016040523d82523d6000602084013e614157565b606091505b5060008151141561419d576040517f08c379a000000000000000000000000000000000000000000000000000000000815260040161419490615b4f565b60405180910390fd5b805181602001fd5b63150b7a0260e01b7bffffffffffffffffffffffffffffffffffffffffffffffffffffffff1916817bffffffffffffffffffffffffffffffffffffffffffffffffffffffff1916149150506141fa565b600190505b949350505050565b60606009805461421190616235565b80601f016020809104026020016040519081016040528092919081815260200182805461423d90616235565b801561428a5780601f1061425f5761010080835404028352916020019161428a565b820191906000526020600020905b81548152906001019060200180831161426d57829003601f168201915b5050505050905090565b606061429f82612d40565b60006142a9614202565b905060008151116142c957604051806020016040528060008152506142f4565b806142d384614593565b6040516020016142e492919061595a565b6040516020818303038152906040525b915050919050565b600181111561441c57600073ffffffffffffffffffffffffffffffffffffffff168473ffffffffffffffffffffffffffffffffffffffff16146143905780600360008673ffffffffffffffffffffffffffffffffffffffff1673ffffffffffffffffffffffffffffffffffffffff1681526020019081526020016000206000828254614388919061613e565b925050819055505b600073ffffffffffffffffffffffffffffffffffffffff168373ffffffffffffffffffffffffffffffffffffffff161461441b5780600360008573ffffffffffffffffffffffffffffffffffffffff1673ffffffffffffffffffffffffffffffffffffffff1681526020019081526020016000206000828254614413919061605d565b925050819055505b5b50505050565b600061442d82611d2c565b905061443d816000846001614000565b61444682611d2c565b90506004600083815260200190815260200160002060006101000a81549073ffffffffffffffffffffffffffffffffffffffff02191690556001600360008373ffffffffffffffffffffffffffffffffffffffff1673ffffffffffffffffffffffffffffffffffffffff168152602001908152602001600020600082825403925050819055506002600083815260200190815260200160002060006101000a81549073ffffffffffffffffffffffffffffffffffffffff021916905581600073ffffffffffffffffffffffffffffffffffffffff168273ffffffffffffffffffffffffffffffffffffffff167fddf252ad1be2c89b69c2b068fc378daa952ba7f163c4a11628f55a4df523b3ef60405160405180910390a461456c816000846001614012565b5050565b6000808273ffffffffffffffffffffffffffffffffffffffff163b119050919050565b6060600060016145a2846146b7565b01905060008167ffffffffffffffff8111156145e7577f4e487b7100000000000000000000000000000000000000000000000000000000600052604160045260246000fd5b6040519080825280601f01601f1916602001820160405280156146195781602001600182028036833780820191505090505b509050600082602001820190505b6001156146ac578080600190039150507f3031323334353637383961626364656600000000000000000000000000000000600a86061a8153600a8581614696577f4e487b7100000000000000000000000000000000000000000000000000000000600052601260045260246000fd5b04945060008514156146a7576146ac565b614627565b819350505050919050565b600080600090507a184f03e93ff9f4daa797ed6e38ed64bf6a1f010000000000000000831061473b577a184f03e93ff9f4daa797ed6e38ed64bf6a1f0100000000000000008381614731577f4e487b7100000000000000000000000000000000000000000000000000000000600052601260045260246000fd5b0492506040810190505b6d04ee2d6d415b85acef8100000000831061479e576d04ee2d6d415b85acef81000000008381614794577f4e487b7100000000000000000000000000000000000000000000000000000000600052601260045260246000fd5b0492506020810190505b662386f26fc1000083106147f357662386f26fc1000083816147e9577f4e487b7100000000000000000000000000000000000000000000000000000000600052601260045260246000fd5b0492506010810190505b6305f5e1008310614842576305f5e1008381614838577f4e487b7100000000000000000000000000000000000000000000000000000000600052601260045260246000fd5b0492506008810190505b612710831061488d576127108381614883577f4e487b7100000000000000000000000000000000000000000000000000000000600052601260045260246000fd5b0492506004810190505b606483106148d657606483816148cc577f4e487b7100000000000000000000000000000000000000000000000000000000600052601260045260246000fd5b0492506002810190505b600a83106148e5576001810190505b80915050919050565b8280546148fa90616235565b90600052602060002090601f01602090048101928261491c576000855561496a565b82601f1061492d578054855561496a565b8280016001018555821561496a57600052602060002091601f016020900482015b8281111561496957825482559160010191906001019061494e565b5b5090506149779190614a41565b5090565b50805461498790616235565b6000825580601f1061499957506149b8565b601f0160209004906000526020600020908101906149b79190614a41565b5b50565b8280546149c790616235565b90600052602060002090601f0160209004810192826149e95760008555614a30565b82601f10614a0257805160ff1916838001178555614a30565b82800160010185558215614a30579182015b82811115614a2f578251825591602001919060010190614a14565b5b509050614a3d9190614a41565b5090565b5b80821115614a5a576000816000905550600101614a42565b5090565b6000614a71614a6c84615ec7565b615ea2565b905082815260208101848484011115614a8957600080fd5b614a948482856161f3565b509392505050565b6000614aaf614aaa84615ef8565b615ea2565b905082815260208101848484011115614ac757600080fd5b614ad28482856161f3565b509392505050565b600081359050614ae981616961565b92915050565b600081359050614afe81616978565b92915050565b600081519050614b1381616978565b92915050565b600081359050614b288161698f565b92915050565b600081519050614b3d8161698f565b92915050565b600082601f830112614b5457600080fd5b8135614b64848260208601614a5e565b91505092915050565b60008083601f840112614b7f57600080fd5b8235905067ffffffffffffffff811115614b9857600080fd5b602083019150836001820283011115614bb057600080fd5b9250929050565b600082601f830112614bc857600080fd5b8135614bd8848260208601614a9c565b91505092915050565b600081359050614bf0816169a6565b92915050565b600060208284031215614c0857600080fd5b6000614c1684828501614ada565b91505092915050565b60008060408385031215614c3257600080fd5b6000614c4085828601614ada565b9250506020614c5185828601614ada565b9150509250929050565b600080600060608486031215614c7057600080fd5b6000614c7e86828701614ada565b9350506020614c8f86828701614ada565b9250506040614ca086828701614be1565b9150509250925092565b60008060008060808587031215614cc057600080fd5b6000614cce87828801614ada565b9450506020614cdf87828801614ada565b9350506040614cf087828801614be1565b925050606085013567ffffffffffffffff811115614d0d57600080fd5b614d1987828801614b43565b91505092959194509250565b60008060408385031215614d3857600080fd5b6000614d4685828601614ada565b9250506020614d5785828601614aef565b9150509250929050565b600080600060408486031215614d7657600080fd5b6000614d8486828701614ada565b935050602084013567ffffffffffffffff811115614da157600080fd5b614dad86828701614b6d565b92509250509250925092565b600080600060608486031215614dce57600080fd5b6000614ddc86828701614ada565b935050602084013567ffffffffffffffff811115614df957600080fd5b614e0586828701614bb7565b9250506040614e1686828701614be1565b9150509250925092565b60008060408385031215614e3357600080fd5b6000614e4185828601614ada565b9250506020614e5285828601614be1565b9150509250929050565b600060208284031215614e6e57600080fd5b6000614e7c84828501614b04565b91505092915050565b600060208284031215614e9757600080fd5b6000614ea584828501614b19565b91505092915050565b600060208284031215614ec057600080fd5b6000614ece84828501614b2e565b91505092915050565b60008060208385031215614eea57600080fd5b600083013567ffffffffffffffff811115614f0457600080fd5b614f1085828601614b6d565b92509250509250929050565b600060208284031215614f2e57600080fd5b600082013567ffffffffffffffff811115614f4857600080fd5b614f5484828501614bb7565b91505092915050565b60008060008060808587031215614f7357600080fd5b600085013567ffffffffffffffff811115614f8d57600080fd5b614f9987828801614bb7565b9450506020614faa87828801614be1565b9350506040614fbb87828801614be1565b925050606085013567ffffffffffffffff811115614fd857600080fd5b614fe487828801614bb7565b91505092959194509250565b60006020828403121561500257600080fd5b600061501084828501614be1565b91505092915050565b6000806040838503121561502c57600080fd5b600061503a85828601614be1565b925050602083013567ffffffffffffffff81111561505757600080fd5b61506385828601614bb7565b9150509250929050565b6000806040838503121561508057600080fd5b600061508e85828601614be1565b925050602061509f85828601614be1565b9150509250929050565b60006150b583836150ed565b60208301905092915050565b60006150cd83836157fd565b905092915050565b60006150e18383615886565b60208301905092915050565b6150f681616172565b82525050565b61510581616172565b82525050565b600061511682615f83565b6151208185615fe1565b935061512b83615f29565b8060005b8381101561515c57815161514388826150a9565b975061514e83615fba565b92505060018101905061512f565b5085935050505092915050565b600061517482615f8e565b61517e8185615ff2565b93508360208202850161519085615f39565b8060005b858110156151cc57848403895281516151ad85826150c1565b94506151b883615fc7565b925060208a01995050600181019050615194565b50829750879550505050505092915050565b60006151e982615f99565b6151f38185616003565b93506151fe83615f49565b8060005b8381101561522f57815161521688826150d5565b975061522183615fd4565b925050600181019050615202565b5085935050505092915050565b61524581616184565b82525050565b600061525682615fa4565b6152608185616014565b9350615270818560208601616202565b61527981616402565b840191505092915050565b600061528f82615fa4565b6152998185616025565b93506152a9818560208601616202565b80840191505092915050565b600081546152c281616235565b6152cc8186616025565b945060018216600081146152e757600181146152f85761532b565b60ff1983168652818601935061532b565b61530185615f59565b60005b8381101561532357815481890152600182019150602081019050615304565b838801955050505b50505092915050565b60006153408385616052565b935061534d8385846161f3565b82840190509392505050565b600061536482615faf565b61536e8185616030565b935061537e818560208601616202565b61538781616402565b840191505092915050565b600061539d82615faf565b6153a78185616041565b93506153b7818560208601616202565b6153c081616402565b840191505092915050565b60006153d682615faf565b6153e08185616052565b93506153f0818560208601616202565b80840191505092915050565b6000815461540981616235565b6154138186616041565b9450600182166000811461542e576001811461544057615473565b60ff1983168652602086019350615473565b61544985615f6e565b60005b8381101561546b5781548189015260018201915060208101905061544c565b808801955050505b50505092915050565b6000815461548981616235565b6154938186616052565b945060018216600081146154ae57600181146154bf576154f2565b60ff198316865281860193506154f2565b6154c885615f6e565b60005b838110156154ea578154818901526001820191506020810190506154cb565b838801955050505b50505092915050565b6000615508602d83616041565b915061551382616413565b604082019050919050565b600061552b603283616041565b915061553682616462565b604082019050919050565b600061554e601483616041565b9150615559826164b1565b602082019050919050565b6000615571602583616041565b915061557c826164da565b604082019050919050565b6000615594602683616041565b915061559f82616529565b604082019050919050565b60006155b7602583616041565b91506155c282616578565b604082019050919050565b60006155da601c83616041565b91506155e5826165c7565b602082019050919050565b60006155fd602483616041565b9150615608826165f0565b604082019050919050565b6000615620601983616041565b915061562b8261663f565b602082019050919050565b6000615643601983616041565b915061564e82616668565b602082019050919050565b6000615666601783616041565b915061567182616691565b602082019050919050565b6000615689601683616041565b9150615694826166ba565b602082019050919050565b60006156ac602983616041565b91506156b7826166e3565b604082019050919050565b60006156cf602383616041565b91506156da82616732565b604082019050919050565b60006156f2602e83616041565b91506156fd82616781565b604082019050919050565b6000615715602083616041565b9150615720826167d0565b602082019050919050565b6000615738602083616041565b9150615743826167f9565b602082019050919050565b600061575b602683616041565b915061576682616822565b604082019050919050565b600061577e601883616041565b915061578982616871565b602082019050919050565b60006157a1602183616041565b91506157ac8261689a565b604082019050919050565b60006157c4601583616041565b91506157cf826168e9565b602082019050919050565b60006157e7603d83616041565b91506157f282616912565b604082019050919050565b600060c0830160008301516158156000860182615886565b5060208301516158286020860182615886565b50604083015161583b6040860182615886565b50606083015184820360608601526158538282615359565b91505060808301516158686080860182615886565b5060a083015161587b60a0860182615886565b508091505092915050565b61588f816161dc565b82525050565b61589e816161dc565b82525050565b6158b56158b0826161dc565b61630b565b82525050565b60006158c782866152b5565b91506158d38285615284565b91506158df8284615284565b9150819050949350505050565b60006158f882876152b5565b91506159048286615284565b91506159108285615284565b915061591c8284615284565b915081905095945050505050565b6000615937828486615334565b91508190509392505050565b600061594f82846153cb565b915081905092915050565b600061596682856153cb565b915061597282846153cb565b91508190509392505050565b600061598a828461547c565b915081905092915050565b60006159a182846158a4565b60208201915081905092915050565b60006020820190506159c560008301846150fc565b92915050565b60006060820190506159e060008301866150fc565b6159ed60208301856150fc565b6159fa6040830184615895565b949350505050565b6000608082019050615a1760008301876150fc565b615a2460208301866150fc565b615a316040830185615895565b8181036060830152615a43818461524b565b905095945050505050565b6000606082019050615a6360008301866150fc565b8181036020830152615a7581856153fc565b9050615a846040830184615895565b949350505050565b60006020820190508181036000830152615aa6818461510b565b905092915050565b60006020820190508181036000830152615ac88184615169565b905092915050565b60006020820190508181036000830152615aea81846151de565b905092915050565b6000602082019050615b07600083018461523c565b92915050565b60006020820190508181036000830152615b278184615392565b905092915050565b60006020820190508181036000830152615b48816154fb565b9050919050565b60006020820190508181036000830152615b688161551e565b9050919050565b60006020820190508181036000830152615b8881615541565b9050919050565b60006020820190508181036000830152615ba881615564565b9050919050565b60006020820190508181036000830152615bc881615587565b9050919050565b60006020820190508181036000830152615be8816155aa565b9050919050565b60006020820190508181036000830152615c08816155cd565b9050919050565b60006020820190508181036000830152615c28816155f0565b9050919050565b60006020820190508181036000830152615c4881615613565b9050919050565b60006020820190508181036000830152615c6881615636565b9050919050565b60006020820190508181036000830152615c8881615659565b9050919050565b60006020820190508181036000830152615ca88161567c565b9050919050565b60006020820190508181036000830152615cc88161569f565b9050919050565b60006020820190508181036000830152615ce8816156c2565b9050919050565b60006020820190508181036000830152615d08816156e5565b9050919050565b60006020820190508181036000830152615d2881615708565b9050919050565b60006020820190508181036000830152615d488161572b565b9050919050565b60006020820190508181036000830152615d688161574e565b9050919050565b60006020820190508181036000830152615d8881615771565b9050919050565b60006020820190508181036000830152615da881615794565b9050919050565b60006020820190508181036000830152615dc8816157b7565b9050919050565b60006020820190508181036000830152615de8816157da565b9050919050565b6000602082019050615e046000830184615895565b92915050565b6000604082019050615e1f6000830185615895565b8181036020830152615e318184615392565b90509392505050565b600060c082019050615e4f6000830189615895565b615e5c6020830188615895565b615e696040830187615895565b8181036060830152615e7b8186615392565b9050615e8a6080830185615895565b615e9760a0830184615895565b979650505050505050565b6000615eac615ebd565b9050615eb88282616267565b919050565b6000604051905090565b600067ffffffffffffffff821115615ee257615ee16163d3565b5b615eeb82616402565b9050602081019050919050565b600067ffffffffffffffff821115615f1357615f126163d3565b5b615f1c82616402565b9050602081019050919050565b6000819050602082019050919050565b6000819050602082019050919050565b6000819050602082019050919050565b60008190508160005260206000209050919050565b60008190508160005260206000209050919050565b600081519050919050565b600081519050919050565b600081519050919050565b600081519050919050565b600081519050919050565b6000602082019050919050565b6000602082019050919050565b6000602082019050919050565b600082825260208201905092915050565b600082825260208201905092915050565b600082825260208201905092915050565b600082825260208201905092915050565b600081905092915050565b600082825260208201905092915050565b600082825260208201905092915050565b600081905092915050565b6000616068826161dc565b9150616073836161dc565b9250827fffffffffffffffffffffffffffffffffffffffffffffffffffffffffffffffff038211156160a8576160a7616346565b5b828201905092915050565b60006160be826161dc565b91506160c9836161dc565b9250826160d9576160d8616375565b5b828204905092915050565b60006160ef826161dc565b91506160fa836161dc565b9250817fffffffffffffffffffffffffffffffffffffffffffffffffffffffffffffffff048311821515161561613357616132616346565b5b828202905092915050565b6000616149826161dc565b9150616154836161dc565b92508282101561616757616166616346565b5b828203905092915050565b600061617d826161bc565b9050919050565b60008115159050919050565b60007fffffffff0000000000000000000000000000000000000000000000000000000082169050919050565b600073ffffffffffffffffffffffffffffffffffffffff82169050919050565b6000819050919050565b600060ff82169050919050565b82818337600083830152505050565b60005b83811015616220578082015181840152602081019050616205565b8381111561622f576000848401525b50505050565b6000600282049050600182168061624d57607f821691505b60208210811415616261576162606163a4565b5b50919050565b61627082616402565b810181811067ffffffffffffffff8211171561628f5761628e6163d3565b5b80604052505050565b60006162a3826161dc565b91507fffffffffffffffffffffffffffffffffffffffffffffffffffffffffffffffff8214156162d6576162d5616346565b5b600182019050919050565b60006162ec826161e6565b915060ff821415616300576162ff616346565b5b600182019050919050565b6000819050919050565b6000616320826161dc565b915061632b836161dc565b92508261633b5761633a616375565b5b828206905092915050565b7f4e487b7100000000000000000000000000000000000000000000000000000000600052601160045260246000fd5b7f4e487b7100000000000000000000000000000000000000000000000000000000600052601260045260246000fd5b7f4e487b7100000000000000000000000000000000000000000000000000000000600052602260045260246000fd5b7f4e487b7100000000000000000000000000000000000000000000000000000000600052604160045260246000fd5b6000601f19601f8301169050919050565b7f4552433732313a2063616c6c6572206973206e6f7420746f6b656e206f776e6560008201527f72206f7220617070726f76656400000000000000000000000000000000000000602082015250565b7f4552433732313a207472616e7366657220746f206e6f6e20455243373231526560008201527f63656976657220696d706c656d656e7465720000000000000000000000000000602082015250565b7f63617264206973206e6f7420616e20616c62756d000000000000000000000000600082015250565b7f6361726473206973206e6f742066726f6d207468652073616d6520636f6c6c6560008201527f6374696f6e000000000000000000000000000000000000000000000000000000602082015250565b7f4f776e61626c653a206e6577206f776e657220697320746865207a65726f206160008201527f6464726573730000000000000000000000000000000000000000000000000000602082015250565b7f4552433732313a207472616e736665722066726f6d20696e636f72726563742060008201527f6f776e6572000000000000000000000000000000000000000000000000000000602082015250565b7f4552433732313a20746f6b656e20616c7265616479206d696e74656400000000600082015250565b7f4552433732313a207472616e7366657220746f20746865207a65726f2061646460008201527f7265737300000000000000000000000000000000000000000000000000000000602082015250565b7f4552433732313a20617070726f766520746f2063616c6c657200000000000000600082015250565b7f53656e6420657861637420707269636520666f72205061636b00000000000000600082015250565b7f59612074656e657320756e207061636b2077616368696e000000000000000000600082015250565b7f54686973206973206e6f7420796f757220616c62756d00000000000000000000600082015250565b7f4552433732313a2061646472657373207a65726f206973206e6f74206120766160008201527f6c6964206f776e65720000000000000000000000000000000000000000000000602082015250565b7f5265636569766572206973206e6f7420706c6179696e6720746869732073656160008201527f736f6e0000000000000000000000000000000000000000000000000000000000602082015250565b7f45524337323155524953746f726167653a2055524920736574206f66206e6f6e60008201527f6578697374656e7420746f6b656e000000000000000000000000000000000000602082015250565b7f4552433732313a206d696e7420746f20746865207a65726f2061646472657373600082015250565b7f4f776e61626c653a2063616c6c6572206973206e6f7420746865206f776e6572600082015250565b7f7061636b2076616c7565206d757374206265206174206c6561737420302e303060008201527f3031204441490000000000000000000000000000000000000000000000000000602082015250565b7f4552433732313a20696e76616c696420746f6b656e2049440000000000000000600082015250565b7f4552433732313a20617070726f76616c20746f2063757272656e74206f776e6560008201527f7200000000000000000000000000000000000000000000000000000000000000602082015250565b7f54686973206973206e6f7420796f757220636172640000000000000000000000600082015250565b7f4552433732313a20617070726f76652063616c6c6572206973206e6f7420746f60008201527f6b656e206f776e6572206f7220617070726f76656420666f7220616c6c000000602082015250565b61696a81616172565b811461697557600080fd5b50565b61698181616184565b811461698c57600080fd5b50565b61699881616190565b81146169a357600080fd5b50565b6169af816161dc565b81146169ba57600080fd5b5056fea2646970667358221220f52d2fa4f94458f0e67ed9a4e70b667b7aed51ff3326a7bfab13821a67bef23764736f6c63430008040033",
  "linkReferences": {},
  "deployedLinkReferences": {}
}