{
  "_format": "hh-sol-artifact-1",
  "contractName": "NOF_Alpha",
  "sourceName": "contracts/NOF-SC.sol",
  "abi": [
    {
      "inputs": [
        {
          "internalType": "string",
          "name": "__baseUri",
          "type": "string"
        },
        {
          "internalType": "address",
          "name": "_daiTokenAddress",
          "type": "address"
        },
        {
          "internalType": "address",
          "name": "_balanceReceiver",
          "type": "address"
        }
      ],
      "stateMutability": "nonpayable",
      "type": "constructor"
    },
    {
      "anonymous": false,
      "inputs": [
        {
          "indexed": true,
          "internalType": "address",
          "name": "owner",
          "type": "address"
        },
        {
          "indexed": true,
          "internalType": "address",
          "name": "approved",
          "type": "address"
        },
        {
          "indexed": true,
          "internalType": "uint256",
          "name": "tokenId",
          "type": "uint256"
        }
      ],
      "name": "Approval",
      "type": "event"
    },
    {
      "anonymous": false,
      "inputs": [
        {
          "indexed": true,
          "internalType": "address",
          "name": "owner",
          "type": "address"
        },
        {
          "indexed": true,
          "internalType": "address",
          "name": "operator",
          "type": "address"
        },
        {
          "indexed": false,
          "internalType": "bool",
          "name": "approved",
          "type": "bool"
        }
      ],
      "name": "ApprovalForAll",
      "type": "event"
    },
    {
      "anonymous": false,
      "inputs": [
        {
          "indexed": false,
          "internalType": "address",
          "name": "buyer",
          "type": "address"
        },
        {
          "indexed": false,
          "internalType": "string",
          "name": "seasonName",
          "type": "string"
        }
      ],
      "name": "BuyPack",
      "type": "event"
    },
    {
      "anonymous": false,
      "inputs": [
        {
          "indexed": true,
          "internalType": "address",
          "name": "previousOwner",
          "type": "address"
        },
        {
          "indexed": true,
          "internalType": "address",
          "name": "newOwner",
          "type": "address"
        }
      ],
      "name": "OwnershipTransferred",
      "type": "event"
    },
    {
      "anonymous": false,
      "inputs": [
        {
          "indexed": true,
          "internalType": "address",
          "name": "from",
          "type": "address"
        },
        {
          "indexed": true,
          "internalType": "address",
          "name": "to",
          "type": "address"
        },
        {
          "indexed": true,
          "internalType": "uint256",
          "name": "tokenId",
          "type": "uint256"
        }
      ],
      "name": "Transfer",
      "type": "event"
    },
    {
      "anonymous": false,
      "inputs": [
        {
          "indexed": false,
          "internalType": "address",
          "name": "winner",
          "type": "address"
        },
        {
          "indexed": false,
          "internalType": "string",
          "name": "season",
          "type": "string"
        },
        {
          "indexed": false,
          "internalType": "uint256",
          "name": "position",
          "type": "uint256"
        }
      ],
      "name": "Winner",
      "type": "event"
    },
    {
      "inputs": [],
      "name": "DAI_TOKEN",
      "outputs": [
        {
          "internalType": "address",
          "name": "",
          "type": "address"
        }
      ],
      "stateMutability": "view",
      "type": "function"
    },
    {
      "inputs": [
        {
          "internalType": "address",
          "name": "to",
          "type": "address"
        },
        {
          "internalType": "uint256",
          "name": "tokenId",
          "type": "uint256"
        }
      ],
      "name": "approve",
      "outputs": [],
      "stateMutability": "nonpayable",
      "type": "function"
    },
    {
      "inputs": [
        {
          "internalType": "address",
          "name": "owner",
          "type": "address"
        }
      ],
      "name": "balanceOf",
      "outputs": [
        {
          "internalType": "uint256",
          "name": "",
          "type": "uint256"
        }
      ],
      "stateMutability": "view",
      "type": "function"
    },
    {
      "inputs": [],
      "name": "balanceReceiver",
      "outputs": [
        {
          "internalType": "address",
          "name": "",
          "type": "address"
        }
      ],
      "stateMutability": "view",
      "type": "function"
    },
    {
      "inputs": [],
      "name": "baseUri",
      "outputs": [
        {
          "internalType": "string",
          "name": "",
          "type": "string"
        }
      ],
      "stateMutability": "view",
      "type": "function"
    },
    {
      "inputs": [
        {
          "internalType": "uint256",
          "name": "amount",
          "type": "uint256"
        },
        {
          "internalType": "string",
          "name": "name",
          "type": "string"
        }
      ],
      "name": "buyPack",
      "outputs": [],
      "stateMutability": "nonpayable",
      "type": "function"
    },
    {
      "inputs": [
        {
          "internalType": "uint256",
          "name": "",
          "type": "uint256"
        }
      ],
      "name": "cards",
      "outputs": [
        {
          "internalType": "uint256",
          "name": "tokenId",
          "type": "uint256"
        },
        {
          "internalType": "uint256",
          "name": "class",
          "type": "uint256"
        },
        {
          "internalType": "uint256",
          "name": "collection",
          "type": "uint256"
        },
        {
          "internalType": "string",
          "name": "season",
          "type": "string"
        },
        {
          "internalType": "uint256",
          "name": "completion",
          "type": "uint256"
        },
        {
          "internalType": "uint256",
          "name": "number",
          "type": "uint256"
        }
      ],
      "stateMutability": "view",
      "type": "function"
    },
    {
      "inputs": [
        {
          "internalType": "address",
          "name": "",
          "type": "address"
        },
        {
          "internalType": "string",
          "name": "",
          "type": "string"
        },
        {
          "internalType": "uint256",
          "name": "",
          "type": "uint256"
        }
      ],
      "name": "cardsByUserBySeason",
      "outputs": [
        {
          "internalType": "uint256",
          "name": "tokenId",
          "type": "uint256"
        },
        {
          "internalType": "uint256",
          "name": "class",
          "type": "uint256"
        },
        {
          "internalType": "uint256",
          "name": "collection",
          "type": "uint256"
        },
        {
          "internalType": "string",
          "name": "season",
          "type": "string"
        },
        {
          "internalType": "uint256",
          "name": "completion",
          "type": "uint256"
        },
        {
          "internalType": "uint256",
          "name": "number",
          "type": "uint256"
        }
      ],
      "stateMutability": "view",
      "type": "function"
    },
    {
      "inputs": [
        {
          "internalType": "uint256",
          "name": "tokenId",
          "type": "uint256"
        }
      ],
      "name": "getApproved",
      "outputs": [
        {
          "internalType": "address",
          "name": "",
          "type": "address"
        }
      ],
      "stateMutability": "view",
      "type": "function"
    },
    {
      "inputs": [
        {
          "internalType": "address",
          "name": "_user",
          "type": "address"
        },
        {
          "internalType": "string",
          "name": "_seasonName",
          "type": "string"
        }
      ],
      "name": "getCardsByUserBySeason",
      "outputs": [
        {
          "components": [
            {
              "internalType": "uint256",
              "name": "tokenId",
              "type": "uint256"
            },
            {
              "internalType": "uint256",
              "name": "class",
              "type": "uint256"
            },
            {
              "internalType": "uint256",
              "name": "collection",
              "type": "uint256"
            },
            {
              "internalType": "string",
              "name": "season",
              "type": "string"
            },
            {
              "internalType": "uint256",
              "name": "completion",
              "type": "uint256"
            },
            {
              "internalType": "uint256",
              "name": "number",
              "type": "uint256"
            }
          ],
          "internalType": "struct NOF_Alpha.Card[]",
          "name": "",
          "type": "tuple[]"
        }
      ],
      "stateMutability": "view",
      "type": "function"
    },
    {
      "inputs": [
        {
          "internalType": "string",
          "name": "name",
          "type": "string"
        }
      ],
      "name": "getSeasonAlbums",
      "outputs": [
        {
          "internalType": "uint256[]",
          "name": "",
          "type": "uint256[]"
        }
      ],
      "stateMutability": "view",
      "type": "function"
    },
    {
      "inputs": [
        {
          "internalType": "string",
          "name": "name",
          "type": "string"
        }
      ],
      "name": "getSeasonCards",
      "outputs": [
        {
          "internalType": "uint256[]",
          "name": "",
          "type": "uint256[]"
        }
      ],
      "stateMutability": "view",
      "type": "function"
    },
    {
      "inputs": [],
      "name": "getSeasonData",
      "outputs": [
        {
          "internalType": "string[]",
          "name": "",
          "type": "string[]"
        },
        {
          "internalType": "uint256[]",
          "name": "",
          "type": "uint256[]"
        }
      ],
      "stateMutability": "view",
      "type": "function"
    },
    {
      "inputs": [
        {
          "internalType": "string",
          "name": "_seasonName",
          "type": "string"
        }
      ],
      "name": "getWinners",
      "outputs": [
        {
          "internalType": "address[]",
          "name": "",
          "type": "address[]"
        }
      ],
      "stateMutability": "view",
      "type": "function"
    },
    {
      "inputs": [
        {
          "internalType": "address",
          "name": "_owner",
          "type": "address"
        },
        {
          "internalType": "address",
          "name": "_operator",
          "type": "address"
        }
      ],
      "name": "isApprovedForAll",
      "outputs": [
        {
          "internalType": "bool",
          "name": "isOperator",
          "type": "bool"
        }
      ],
      "stateMutability": "view",
      "type": "function"
    },
    {
      "inputs": [],
      "name": "name",
      "outputs": [
        {
          "internalType": "string",
          "name": "",
          "type": "string"
        }
      ],
      "stateMutability": "view",
      "type": "function"
    },
    {
      "inputs": [
        {
          "internalType": "string",
          "name": "name",
          "type": "string"
        },
        {
          "internalType": "uint256",
          "name": "price",
          "type": "uint256"
        },
        {
          "internalType": "uint256",
          "name": "amount",
          "type": "uint256"
        }
      ],
      "name": "newSeason",
      "outputs": [],
      "stateMutability": "nonpayable",
      "type": "function"
    },
    {
      "inputs": [],
      "name": "owner",
      "outputs": [
        {
          "internalType": "address",
          "name": "",
          "type": "address"
        }
      ],
      "stateMutability": "view",
      "type": "function"
    },
    {
      "inputs": [
        {
          "internalType": "uint256",
          "name": "tokenId",
          "type": "uint256"
        }
      ],
      "name": "ownerOf",
      "outputs": [
        {
          "internalType": "address",
          "name": "",
          "type": "address"
        }
      ],
      "stateMutability": "view",
      "type": "function"
    },
    {
      "inputs": [
        {
          "internalType": "uint256",
          "name": "card",
          "type": "uint256"
        },
        {
          "internalType": "uint256",
          "name": "album",
          "type": "uint256"
        }
      ],
      "name": "pasteCards",
      "outputs": [],
      "stateMutability": "nonpayable",
      "type": "function"
    },
    {
      "inputs": [],
      "name": "prizesBalance",
      "outputs": [
        {
          "internalType": "uint256",
          "name": "",
          "type": "uint256"
        }
      ],
      "stateMutability": "view",
      "type": "function"
    },
    {
      "inputs": [],
      "name": "renounceOwnership",
      "outputs": [],
      "stateMutability": "nonpayable",
      "type": "function"
    },
    {
      "inputs": [
        {
          "internalType": "address",
          "name": "from",
          "type": "address"
        },
        {
          "internalType": "address",
          "name": "to",
          "type": "address"
        },
        {
          "internalType": "uint256",
          "name": "tokenId",
          "type": "uint256"
        }
      ],
      "name": "safeTransferFrom",
      "outputs": [],
      "stateMutability": "nonpayable",
      "type": "function"
    },
    {
      "inputs": [
        {
          "internalType": "address",
          "name": "from",
          "type": "address"
        },
        {
          "internalType": "address",
          "name": "to",
          "type": "address"
        },
        {
          "internalType": "uint256",
          "name": "tokenId",
          "type": "uint256"
        },
        {
          "internalType": "bytes",
          "name": "data",
          "type": "bytes"
        }
      ],
      "name": "safeTransferFrom",
      "outputs": [],
      "stateMutability": "nonpayable",
      "type": "function"
    },
    {
      "inputs": [
        {
          "internalType": "uint256",
          "name": "",
          "type": "uint256"
        }
      ],
      "name": "seasonNames",
      "outputs": [
        {
          "internalType": "string",
          "name": "",
          "type": "string"
        }
      ],
      "stateMutability": "view",
      "type": "function"
    },
    {
      "inputs": [
        {
          "internalType": "uint256",
          "name": "",
          "type": "uint256"
        }
      ],
      "name": "seasonPrices",
      "outputs": [
        {
          "internalType": "uint256",
          "name": "",
          "type": "uint256"
        }
      ],
      "stateMutability": "view",
      "type": "function"
    },
    {
      "inputs": [
        {
          "internalType": "string",
          "name": "",
          "type": "string"
        }
      ],
      "name": "seasons",
      "outputs": [
        {
          "internalType": "uint256",
          "name": "price",
          "type": "uint256"
        }
      ],
      "stateMutability": "view",
      "type": "function"
    },
    {
      "inputs": [
        {
          "internalType": "address",
          "name": "operator",
          "type": "address"
        },
        {
          "internalType": "bool",
          "name": "approved",
          "type": "bool"
        }
      ],
      "name": "setApprovalForAll",
      "outputs": [],
      "stateMutability": "nonpayable",
      "type": "function"
    },
    {
      "inputs": [
        {
          "internalType": "address",
          "name": "_newBalanceReceiver",
          "type": "address"
        }
      ],
      "name": "setBalanceReceiver",
      "outputs": [],
      "stateMutability": "nonpayable",
      "type": "function"
    },
    {
      "inputs": [
        {
          "internalType": "string",
          "name": "__baseURI",
          "type": "string"
        }
      ],
      "name": "setBaseURI",
      "outputs": [],
      "stateMutability": "nonpayable",
      "type": "function"
    },
    {
      "inputs": [
        {
          "internalType": "bytes4",
          "name": "interfaceId",
          "type": "bytes4"
        }
      ],
      "name": "supportsInterface",
      "outputs": [
        {
          "internalType": "bool",
          "name": "",
          "type": "bool"
        }
      ],
      "stateMutability": "view",
      "type": "function"
    },
    {
      "inputs": [],
      "name": "symbol",
      "outputs": [
        {
          "internalType": "string",
          "name": "",
          "type": "string"
        }
      ],
      "stateMutability": "view",
      "type": "function"
    },
    {
      "inputs": [
        {
          "internalType": "uint256",
          "name": "tokenId",
          "type": "uint256"
        }
      ],
      "name": "tokenURI",
      "outputs": [
        {
          "internalType": "string",
          "name": "",
          "type": "string"
        }
      ],
      "stateMutability": "view",
      "type": "function"
    },
    {
      "inputs": [
        {
          "internalType": "address",
          "name": "from",
          "type": "address"
        },
        {
          "internalType": "address",
          "name": "to",
          "type": "address"
        },
        {
          "internalType": "uint256",
          "name": "tokenId",
          "type": "uint256"
        }
      ],
      "name": "transferFrom",
      "outputs": [],
      "stateMutability": "nonpayable",
      "type": "function"
    },
    {
      "inputs": [
        {
          "internalType": "address",
          "name": "newOwner",
          "type": "address"
        }
      ],
      "name": "transferOwnership",
      "outputs": [],
      "stateMutability": "nonpayable",
      "type": "function"
    }
  ],
  "bytecode": "0x60806040526040518060e00160405280601460ff168152602001600e60ff168152602001600c60ff168152602001600a60ff168152602001600860ff168152602001600660ff168152602001600560ff16815250600f906007620000659291906200037c565b503480156200007357600080fd5b50604051620079fc380380620079fc833981810160405281019062000099919062000634565b6040518060400160405280600c81526020017f4e4f4620416c70686120563200000000000000000000000000000000000000008152506040518060400160405280600481526020017f4e4f4641000000000000000000000000000000000000000000000000000000008152508160009081620001169190620008fa565b508060019081620001289190620008fa565b5050506200014b6200013f620001e860201b60201c565b6200020460201b60201c565b82600990816200015c9190620008fa565b5081601360006101000a81548173ffffffffffffffffffffffffffffffffffffffff021916908373ffffffffffffffffffffffffffffffffffffffff16021790555080600a60006101000a81548173ffffffffffffffffffffffffffffffffffffffff021916908373ffffffffffffffffffffffffffffffffffffffff160217905550505050620009e1565b6000620001ff620002ca60201b62002b1c1760201c565b905090565b6000600760009054906101000a900473ffffffffffffffffffffffffffffffffffffffff16905081600760006101000a81548173ffffffffffffffffffffffffffffffffffffffff021916908373ffffffffffffffffffffffffffffffffffffffff1602179055508173ffffffffffffffffffffffffffffffffffffffff168173ffffffffffffffffffffffffffffffffffffffff167f8be0079c531659141344cd1fd0a4f28419497f9722a3daafe3b4186f6b6457e060405160405180910390a35050565b60003073ffffffffffffffffffffffffffffffffffffffff163373ffffffffffffffffffffffffffffffffffffffff16036200037557600080368080601f016020809104026020016040519081016040528093929190818152602001838380828437600081840152601f19601f820116905080830192505050505050509050600080369050905073ffffffffffffffffffffffffffffffffffffffff81830151169250505062000379565b3390505b90565b826007601f016020900481019282156200040a5791602002820160005b83821115620003d957835183826101000a81548160ff021916908360ff160217905550926020019260010160208160000104928301926001030262000399565b8015620004085782816101000a81549060ff0219169055600101602081600001049283019260010302620003d9565b505b5090506200041991906200041d565b5090565b5b80821115620004385760008160009055506001016200041e565b5090565b6000604051905090565b600080fd5b600080fd5b600080fd5b600080fd5b6000601f19601f8301169050919050565b7f4e487b7100000000000000000000000000000000000000000000000000000000600052604160045260246000fd5b620004a5826200045a565b810181811067ffffffffffffffff82111715620004c757620004c66200046b565b5b80604052505050565b6000620004dc6200043c565b9050620004ea82826200049a565b919050565b600067ffffffffffffffff8211156200050d576200050c6200046b565b5b62000518826200045a565b9050602081019050919050565b60005b838110156200054557808201518184015260208101905062000528565b60008484015250505050565b6000620005686200056284620004ef565b620004d0565b90508281526020810184848401111562000587576200058662000455565b5b6200059484828562000525565b509392505050565b600082601f830112620005b457620005b362000450565b5b8151620005c684826020860162000551565b91505092915050565b600073ffffffffffffffffffffffffffffffffffffffff82169050919050565b6000620005fc82620005cf565b9050919050565b6200060e81620005ef565b81146200061a57600080fd5b50565b6000815190506200062e8162000603565b92915050565b60008060006060848603121562000650576200064f62000446565b5b600084015167ffffffffffffffff8111156200067157620006706200044b565b5b6200067f868287016200059c565b935050602062000692868287016200061d565b9250506040620006a5868287016200061d565b9150509250925092565b600081519050919050565b7f4e487b7100000000000000000000000000000000000000000000000000000000600052602260045260246000fd5b600060028204905060018216806200070257607f821691505b602082108103620007185762000717620006ba565b5b50919050565b60008190508160005260206000209050919050565b60006020601f8301049050919050565b600082821b905092915050565b600060088302620007827fffffffffffffffffffffffffffffffffffffffffffffffffffffffffffffffff8262000743565b6200078e868362000743565b95508019841693508086168417925050509392505050565b6000819050919050565b6000819050919050565b6000620007db620007d5620007cf84620007a6565b620007b0565b620007a6565b9050919050565b6000819050919050565b620007f783620007ba565b6200080f6200080682620007e2565b84845462000750565b825550505050565b600090565b6200082662000817565b62000833818484620007ec565b505050565b5b818110156200085b576200084f6000826200081c565b60018101905062000839565b5050565b601f821115620008aa5762000874816200071e565b6200087f8462000733565b810160208510156200088f578190505b620008a76200089e8562000733565b83018262000838565b50505b505050565b600082821c905092915050565b6000620008cf60001984600802620008af565b1980831691505092915050565b6000620008ea8383620008bc565b9150826002028217905092915050565b6200090582620006af565b67ffffffffffffffff8111156200092157620009206200046b565b5b6200092d8254620006e9565b6200093a8282856200085f565b600060209050601f8311600181146200097257600084156200095d578287015190505b620009698582620008dc565b865550620009d9565b601f19841662000982866200071e565b60005b82811015620009ac5784890151825560018201915060208501945060208101905062000985565b86831015620009cc5784890151620009c8601f891682620008bc565b8355505b6001600288020188555050505b505050505050565b61700b80620009f16000396000f3fe608060405234801561001057600080fd5b50600436106102115760003560e01c80638da5cb5b11610125578063c1f3a3bb116100ad578063e606df871161007c578063e606df8714610669578063e985e9c514610687578063e9d43f7d146106b7578063f2fde38b146106e7578063f36fdfbd1461070357610211565b8063c1f3a3bb146105cf578063c87b56dd146105eb578063d1811d021461061b578063e5db587a1461064b57610211565b80639abc8320116100f45780639abc83201461052a578063a22cb46514610548578063b773d5c114610564578063b88d4fde14610583578063be20e5a91461059f57610211565b80638da5cb5b146104895780638dc10768146104a757806395a4c525146104dc57806395d89b411461050c57610211565b806342842e0e116101a85780636352211e116101775780636352211e146103bf57806370a08231146103ef578063715018a61461041f578063787f0b051461042957806383c73d811461045957610211565b806342842e0e1461033957806355f804b31461035557806361c66c1614610371578063627b253f146103a157610211565b8063095ea7b3116101e4578063095ea7b3146102b057806323b872dd146102cc578063308f5987146102e857806341c2c10f1461031d57610211565b8063015db3961461021657806301ffc9a71461023257806306fdde0314610262578063081812fc14610280575b600080fd5b610230600480360381019061022b9190614bac565b61071f565b005b61024c60048036038101906102479190614c60565b610ed8565b6040516102599190614ca8565b60405180910390f35b61026a610eea565b6040516102779190614d42565b60405180910390f35b61029a60048036038101906102959190614d64565b610f7c565b6040516102a79190614dd2565b60405180910390f35b6102ca60048036038101906102c59190614e19565b610fc2565b005b6102e660048036038101906102e19190614e59565b6110d9565b005b61030260048036038101906102fd9190614eac565b6110e9565b60405161031496959493929190614f2a565b60405180910390f35b61033760048036038101906103329190614f92565b6111ed565b005b610353600480360381019061034e9190614e59565b611c40565b005b61036f600480360381019061036a9190614fd2565b611c60565b005b61038b60048036038101906103869190614d64565b611c7b565b6040516103989190614d42565b60405180910390f35b6103a9611d27565b6040516103b69190614dd2565b60405180910390f35b6103d960048036038101906103d49190614d64565b611d4d565b6040516103e69190614dd2565b60405180910390f35b6104096004803603810190610404919061501b565b611dd3565b6040516104169190615048565b60405180910390f35b610427611e8a565b005b610443600480360381019061043e9190614fd2565b611e9e565b6040516104509190615048565b60405180910390f35b610473600480360381019061046e9190614fd2565b611ed2565b6040516104809190615121565b60405180910390f35b610491611f4b565b60405161049e9190614dd2565b60405180910390f35b6104c160048036038101906104bc9190614d64565b611f75565b6040516104d396959493929190614f2a565b60405180910390f35b6104f660048036038101906104f191906151a3565b612039565b60405161050391906152ae565b60405180910390f35b6105146120e8565b6040516105219190614d42565b60405180910390f35b61053261217a565b60405161053f9190614d42565b60405180910390f35b610562600480360381019061055d91906152fc565b612208565b005b61056c61221e565b60405161057a929190615448565b60405180910390f35b61059d60048036038101906105989190615520565b612352565b005b6105b960048036038101906105b49190614fd2565b612596565b6040516105c69190615121565b60405180910390f35b6105e960048036038101906105e4919061501b565b61260f565b005b61060560048036038101906106009190614d64565b61265b565b6040516106129190614d42565b60405180910390f35b61063560048036038101906106309190614d64565b61266d565b6040516106429190615048565b60405180910390f35b610653612691565b6040516106609190615048565b60405180910390f35b610671612697565b60405161067e9190614dd2565b60405180910390f35b6106a1600480360381019061069c91906155a3565b6126bd565b6040516106ae9190614ca8565b60405180910390f35b6106d160048036038101906106cc91906155e3565b612722565b6040516106de919061578e565b60405180910390f35b61070160048036038101906106fc919061501b565b6128a4565b005b61071d600480360381019061071891906157b0565b612927565b005b600b8160405161072f919061585b565b908152602001604051809103902060030160003373ffffffffffffffffffffffffffffffffffffffff1673ffffffffffffffffffffffffffffffffffffffff16815260200190815260200160002060009054906101000a900460ff16156107cb576040517f08c379a00000000000000000000000000000000000000000000000000000000081526004016107c2906158be565b60405180910390fd5b6001600b826040516107dd919061585b565b908152602001604051809103902060030160003373ffffffffffffffffffffffffffffffffffffffff1673ffffffffffffffffffffffffffffffffffffffff16815260200190815260200160002060006101000a81548160ff02191690831515021790555081600b82604051610853919061585b565b908152602001604051809103902060000154146108a5576040517f08c379a000000000000000000000000000000000000000000000000000000000815260040161089c9061592a565b60405180910390fd5b60006064604b846108b69190615979565b6108c091906159ea565b905080601260008282546108d49190615a1b565b92505081905550601360009054906101000a900473ffffffffffffffffffffffffffffffffffffffff1673ffffffffffffffffffffffffffffffffffffffff166323b872dd3330846040518463ffffffff1660e01b815260040161093a93929190615a4f565b6020604051808303816000875af1158015610959573d6000803e3d6000fd5b505050506040513d601f19601f8201168201806040525081019061097d9190615a9b565b50601360009054906101000a900473ffffffffffffffffffffffffffffffffffffffff1673ffffffffffffffffffffffffffffffffffffffff166323b872dd33600a60009054906101000a900473ffffffffffffffffffffffffffffffffffffffff1684876109ec9190615ac8565b6040518463ffffffff1660e01b8152600401610a0a93929190615a4f565b6020604051808303816000875af1158015610a29573d6000803e3d6000fd5b505050506040513d601f19601f82011682018060405250810190610a4d9190615a9b565b506000600b83604051610a60919061585b565b90815260200160405180910390206002018054905042604051602001610a869190615b1d565b6040516020818303038152906040528051906020012060001c610aa99190615b38565b90506000600b84604051610abd919061585b565b90815260200160405180910390206002018281548110610ae057610adf615b69565b5b90600052602060002001549050600b84604051610afd919061585b565b90815260200160405180910390206002016001600b86604051610b20919061585b565b908152602001604051809103902060020180549050610b3f9190615ac8565b81548110610b5057610b4f615b69565b5b9060005260206000200154600b85604051610b6b919061585b565b90815260200160405180910390206002018381548110610b8e57610b8d615b69565b5b9060005260206000200181905550600b84604051610bac919061585b565b9081526020016040518091039020600201805480610bcd57610bcc615b98565b5b60019003818190600052602060002001600090559055610c6833610bf083612bcc565b6040518060400160405280600481526020017f2e706e6700000000000000000000000000000000000000000000000000000000815250604051602001610c37929190615c0e565b60405160208183030381529060405260006001600686610c5791906159ea565b610c619190615ac8565b8886612d2c565b505060005b6005811015610e99576000600b84604051610c88919061585b565b90815260200160405180910390206001018054905042604051602001610cae9190615b1d565b6040516020818303038152906040528051906020012060001c610cd19190615b38565b90506000600b85604051610ce5919061585b565b90815260200160405180910390206001018281548110610d0857610d07615b69565b5b90600052602060002001549050600b85604051610d25919061585b565b90815260200160405180910390206001016001600b87604051610d48919061585b565b908152602001604051809103902060010180549050610d679190615ac8565b81548110610d7857610d77615b69565b5b9060005260206000200154600b86604051610d93919061585b565b90815260200160405180910390206001018381548110610db657610db5615b69565b5b9060005260206000200181905550600b85604051610dd4919061585b565b9081526020016040518091039020600101805480610df557610df4615b98565b5b60019003818190600052602060002001600090559055610e8433610e1883612bcc565b6040518060400160405280600481526020017f2e706e6700000000000000000000000000000000000000000000000000000000815250604051602001610e5f929190615c0e565b6040516020818303038152906040526001600685610e7d91906159ea565b8986612d2c565b50508080610e9190615c32565b915050610c6d565b507f55d44f7f091f0389b4dcb1b6ae002ed20fe8229c546e6aaf1ccac2646cdf514c3383604051610ecb929190615c7a565b60405180910390a1505050565b6000610ee382612ed1565b9050919050565b606060008054610ef990615cd9565b80601f0160208091040260200160405190810160405280929190818152602001828054610f2590615cd9565b8015610f725780601f10610f4757610100808354040283529160200191610f72565b820191906000526020600020905b815481529060010190602001808311610f5557829003601f168201915b5050505050905090565b6000610f8782612fb3565b6004600083815260200190815260200160002060009054906101000a900473ffffffffffffffffffffffffffffffffffffffff169050919050565b6000610fcd82611d4d565b90508073ffffffffffffffffffffffffffffffffffffffff168373ffffffffffffffffffffffffffffffffffffffff160361103d576040517f08c379a000000000000000000000000000000000000000000000000000000000815260040161103490615d7c565b60405180910390fd5b8073ffffffffffffffffffffffffffffffffffffffff1661105c612ffe565b73ffffffffffffffffffffffffffffffffffffffff16148061108b575061108a81611085612ffe565b6126bd565b5b6110ca576040517f08c379a00000000000000000000000000000000000000000000000000000000081526004016110c190615e0e565b60405180910390fd5b6110d4838361300d565b505050565b6110e4838383611c40565b505050565b600e60205282600052604060002082805160208101820180518482526020830160208501208183528095505050505050818154811061112757600080fd5b9060005260206000209060060201600092509250505080600001549080600101549080600201549080600301805461115e90615cd9565b80601f016020809104026020016040519081016040528092919081815260200182805461118a90615cd9565b80156111d75780601f106111ac576101008083540402835291602001916111d7565b820191906000526020600020905b8154815290600101906020018083116111ba57829003601f168201915b5050505050908060040154908060050154905086565b3373ffffffffffffffffffffffffffffffffffffffff1661120d83611d4d565b73ffffffffffffffffffffffffffffffffffffffff1614611263576040517f08c379a000000000000000000000000000000000000000000000000000000000815260040161125a90615e7a565b60405180910390fd5b3373ffffffffffffffffffffffffffffffffffffffff1661128382611d4d565b73ffffffffffffffffffffffffffffffffffffffff16146112d9576040517f08c379a00000000000000000000000000000000000000000000000000000000081526004016112d090615ee6565b60405180910390fd5b6000600c60008381526020019081526020016000206001015414611332576040517f08c379a000000000000000000000000000000000000000000000000000000000815260040161132990615f52565b60405180910390fd5b600c600082815260200190815260200160002060020154600c600084815260200190815260200160002060020154146113a0576040517f08c379a000000000000000000000000000000000000000000000000000000000815260040161139790615fe4565b60405180910390fd5b60005b600e60003373ffffffffffffffffffffffffffffffffffffffff1673ffffffffffffffffffffffffffffffffffffffff168152602001908152602001600020600c6000858152602001908152602001600020600301604051611405919061609c565b9081526020016040518091039020805490508160ff1610156117a557600c600084815260200190815260200160002060050154600e60003373ffffffffffffffffffffffffffffffffffffffff1673ffffffffffffffffffffffffffffffffffffffff168152602001908152602001600020600c600086815260200190815260200160002060030160405161149a919061609c565b90815260200160405180910390208260ff16815481106114bd576114bc615b69565b5b9060005260206000209060060201600501540361179257600e60003373ffffffffffffffffffffffffffffffffffffffff1673ffffffffffffffffffffffffffffffffffffffff168152602001908152602001600020600c6000858152602001908152602001600020600301604051611536919061609c565b90815260200160405180910390206001600e60003373ffffffffffffffffffffffffffffffffffffffff1673ffffffffffffffffffffffffffffffffffffffff168152602001908152602001600020600c60008781526020019081526020016000206003016040516115a8919061609c565b9081526020016040518091039020805490506115c49190615ac8565b815481106115d5576115d4615b69565b5b9060005260206000209060060201600e60003373ffffffffffffffffffffffffffffffffffffffff1673ffffffffffffffffffffffffffffffffffffffff168152602001908152602001600020600c6000868152602001908152602001600020600301604051611645919061609c565b90815260200160405180910390208260ff168154811061166857611667615b69565b5b9060005260206000209060060201600082015481600001556001820154816001015560028201548160020155600382018160030190816116a89190616260565b506004820154816004015560058201548160050155905050600e60003373ffffffffffffffffffffffffffffffffffffffff1673ffffffffffffffffffffffffffffffffffffffff168152602001908152602001600020600c6000858152602001908152602001600020600301604051611722919061609c565b90815260200160405180910390208054806117405761173f615b98565b5b60019003818190600052602060002090600602016000808201600090556001820160009055600282016000905560038201600061177d91906149bf565b60048201600090556005820160009055505090555b808061179d90616355565b9150506113a3565b506117af826130c6565b600c600082815260200190815260200160002060040160008154809291906117d690615c32565b9190505550600e60003373ffffffffffffffffffffffffffffffffffffffff1673ffffffffffffffffffffffffffffffffffffffff168152602001908152602001600020600c600084815260200190815260200160002060030160405161183d919061609c565b908152602001604051809103902060008154811061185e5761185d615b69565b5b9060005260206000209060060201600401600081548092919061188090615c32565b91905055506005600c60008381526020019081526020016000206004015403611c3c576007600d600c60008481526020019081526020016000206003016040516118ca919061609c565b9081526020016040518091039020805490501015611b3757600d600c6000838152602001908152602001600020600301604051611907919061609c565b9081526020016040518091039020339080600181540180825580915050600190039060005260206000200160009091909190916101000a81548173ffffffffffffffffffffffffffffffffffffffff021916908373ffffffffffffffffffffffffffffffffffffffff1602179055506000600a600f6001600d600c60008781526020019081526020016000206003016040516119a3919061609c565b9081526020016040518091039020805490506119bf9190615ac8565b600781106119d0576119cf615b69565b5b602091828204019190069054906101000a900460ff1660ff16600b600c6000868152602001908152602001600020600301604051611a0e919061609c565b908152602001604051809103902060000154611a2a9190615979565b611a3491906159ea565b9050601254811115611a7b576040517f08c379a0000000000000000000000000000000000000000000000000000000008152600401611a72906163f0565b60405180910390fd5b8060126000828254611a8d9190615ac8565b92505081905550601360009054906101000a900473ffffffffffffffffffffffffffffffffffffffff1673ffffffffffffffffffffffffffffffffffffffff1663a9059cbb33836040518363ffffffff1660e01b8152600401611af1929190616410565b6020604051808303816000875af1158015611b10573d6000803e3d6000fd5b505050506040513d601f19601f82011682018060405250810190611b349190615a9b565b50505b611bb581611b5a600c600085815260200190815260200160002060050154612bcc565b6040518060400160405280600581526020017f462e706e67000000000000000000000000000000000000000000000000000000815250604051602001611ba1929190615c0e565b6040516020818303038152906040526130d2565b7f953ec8b8176b9eb94e1561816a70bc231210aee5f1aaa59fdbad7915f9ad3c9633600c6000848152602001908152602001600020600301600d600c6000868152602001908152602001600020600301604051611c12919061609c565b908152602001604051809103902080549050604051611c33939291906164bd565b60405180910390a15b5050565b611c5b83838360405180602001604052806000815250612352565b505050565b611c6861313f565b8060099081611c7791906164fb565b5050565b60108181548110611c8b57600080fd5b906000526020600020016000915090508054611ca690615cd9565b80601f0160208091040260200160405190810160405280929190818152602001828054611cd290615cd9565b8015611d1f5780601f10611cf457610100808354040283529160200191611d1f565b820191906000526020600020905b815481529060010190602001808311611d0257829003601f168201915b505050505081565b600a60009054906101000a900473ffffffffffffffffffffffffffffffffffffffff1681565b600080611d59836131bd565b9050600073ffffffffffffffffffffffffffffffffffffffff168173ffffffffffffffffffffffffffffffffffffffff1603611dca576040517f08c379a0000000000000000000000000000000000000000000000000000000008152600401611dc190616619565b60405180910390fd5b80915050919050565b60008073ffffffffffffffffffffffffffffffffffffffff168273ffffffffffffffffffffffffffffffffffffffff1603611e43576040517f08c379a0000000000000000000000000000000000000000000000000000000008152600401611e3a906166ab565b60405180910390fd5b600360008373ffffffffffffffffffffffffffffffffffffffff1673ffffffffffffffffffffffffffffffffffffffff168152602001908152602001600020549050919050565b611e9261313f565b611e9c60006131fa565b565b600b818051602081018201805184825260208301602085012081835280955050505050506000915090508060000154905081565b6060600b82604051611ee4919061585b565b9081526020016040518091039020600101805480602002602001604051908101604052809291908181526020018280548015611f3f57602002820191906000526020600020905b815481526020019060010190808311611f2b575b50505050509050919050565b6000600760009054906101000a900473ffffffffffffffffffffffffffffffffffffffff16905090565b600c602052806000526040600020600091509050806000015490806001015490806002015490806003018054611faa90615cd9565b80601f0160208091040260200160405190810160405280929190818152602001828054611fd690615cd9565b80156120235780601f10611ff857610100808354040283529160200191612023565b820191906000526020600020905b81548152906001019060200180831161200657829003601f168201915b5050505050908060040154908060050154905086565b6060600d838360405161204d9291906166f0565b90815260200160405180910390208054806020026020016040519081016040528092919081815260200182805480156120db57602002820191906000526020600020905b8160009054906101000a900473ffffffffffffffffffffffffffffffffffffffff1673ffffffffffffffffffffffffffffffffffffffff1681526020019060010190808311612091575b5050505050905092915050565b6060600180546120f790615cd9565b80601f016020809104026020016040519081016040528092919081815260200182805461212390615cd9565b80156121705780601f1061214557610100808354040283529160200191612170565b820191906000526020600020905b81548152906001019060200180831161215357829003601f168201915b5050505050905090565b6009805461218790615cd9565b80601f01602080910402602001604051908101604052809291908181526020018280546121b390615cd9565b80156122005780601f106121d557610100808354040283529160200191612200565b820191906000526020600020905b8154815290600101906020018083116121e357829003601f168201915b505050505081565b61221a612213612ffe565b83836132c0565b5050565b6060806010601181805480602002602001604051908101604052809291908181526020016000905b828210156122f257838290600052602060002001805461226590615cd9565b80601f016020809104026020016040519081016040528092919081815260200182805461229190615cd9565b80156122de5780601f106122b3576101008083540402835291602001916122de565b820191906000526020600020905b8154815290600101906020018083116122c157829003601f168201915b505050505081526020019060010190612246565b5050505091508080548060200260200160405190810160405280929190818152602001828054801561234357602002820191906000526020600020905b81548152602001906001019080831161232f575b50505050509050915091509091565b60006123fb600c6000858152602001908152602001600020600301805461237890615cd9565b80601f01602080910402602001604051908101604052809291908181526020018280546123a490615cd9565b80156123f15780601f106123c6576101008083540402835291602001916123f1565b820191906000526020600020905b8154815290600101906020018083116123d457829003601f168201915b5050505050612596565b511461243c576040517f08c379a00000000000000000000000000000000000000000000000000000000081526004016124339061677b565b60405180910390fd5b6124488484848461342c565b6001600c6000848152602001908152602001600020600101540361252b57600b600c600084815260200190815260200160002060030160405161248b919061609c565b908152602001604051809103902060030160008473ffffffffffffffffffffffffffffffffffffffff1673ffffffffffffffffffffffffffffffffffffffff16815260200190815260200160002060009054906101000a900460ff16612526576040517f08c379a000000000000000000000000000000000000000000000000000000000815260040161251d9061680d565b60405180910390fd5b612585565b6005600c60008481526020019081526020016000206004015414612584576040517f08c379a000000000000000000000000000000000000000000000000000000000815260040161257b9061689f565b60405180910390fd5b5b61259084848461348e565b50505050565b6060600b826040516125a8919061585b565b908152602001604051809103902060020180548060200260200160405190810160405280929190818152602001828054801561260357602002820191906000526020600020905b8154815260200190600101908083116125ef575b50505050509050919050565b61261761313f565b80600a60006101000a81548173ffffffffffffffffffffffffffffffffffffffff021916908373ffffffffffffffffffffffffffffffffffffffff16021790555050565b60606126668261399f565b9050919050565b6011818154811061267d57600080fd5b906000526020600020016000915090505481565b60125481565b601360009054906101000a900473ffffffffffffffffffffffffffffffffffffffff1681565b60007358807bad0b376efc12f5ad86aac70e78ed67deae73ffffffffffffffffffffffffffffffffffffffff168273ffffffffffffffffffffffffffffffffffffffff160361270f576001905061271c565b6127198383613ab1565b90505b92915050565b6060600e60008573ffffffffffffffffffffffffffffffffffffffff1673ffffffffffffffffffffffffffffffffffffffff16815260200190815260200160002083836040516127739291906166f0565b9081526020016040518091039020805480602002602001604051908101604052809291908181526020016000905b8282101561289757838290600052602060002090600602016040518060c00160405290816000820154815260200160018201548152602001600282015481526020016003820180546127f290615cd9565b80601f016020809104026020016040519081016040528092919081815260200182805461281e90615cd9565b801561286b5780601f106128405761010080835404028352916020019161286b565b820191906000526020600020905b81548152906001019060200180831161284e57829003601f168201915b5050505050815260200160048201548152602001600582015481525050815260200190600101906127a1565b5050505090509392505050565b6128ac61313f565b600073ffffffffffffffffffffffffffffffffffffffff168173ffffffffffffffffffffffffffffffffffffffff160361291b576040517f08c379a000000000000000000000000000000000000000000000000000000000815260040161291290616931565b60405180910390fd5b612924816131fa565b50565b61292f61313f565b655af3107a4000821015612978576040517f08c379a000000000000000000000000000000000000000000000000000000000815260040161296f906169c3565b60405180910390fd5b60006006826129879190615b38565b146129c7576040517f08c379a00000000000000000000000000000000000000000000000000000000081526004016129be90616a2f565b60405180910390fd5b81600b846040516129d8919061585b565b908152602001604051809103902060000181905550601083908060018154018082558091505060019003906000526020600020016000909190919091509081612a2191906164fb565b5060118290806001815401808255809150506001900390600052602060002001600090919091909150556000600190505b818111612b16576000600682612a689190615b38565b03612aba57600b84604051612a7d919061585b565b9081526020016040518091039020600201819080600181540180825580915050600190039060005260206000200160009091909190915055612b03565b600b84604051612aca919061585b565b90815260200160405180910390206001018190806001815401808255809150506001900390600052602060002001600090919091909150555b8080612b0e90615c32565b915050612a52565b50505050565b60003073ffffffffffffffffffffffffffffffffffffffff163373ffffffffffffffffffffffffffffffffffffffff1603612bc557600080368080601f016020809104026020016040519081016040528093929190818152602001838380828437600081840152601f19601f820116905080830192505050505050509050600080369050905073ffffffffffffffffffffffffffffffffffffffff818301511692505050612bc9565b3390505b90565b606060008203612c13576040518060400160405280600181526020017f30000000000000000000000000000000000000000000000000000000000000008152509050612d27565b600082905060005b60008214612c45578080612c2e90615c32565b915050600a82612c3e91906159ea565b9150612c1b565b60008167ffffffffffffffff811115612c6157612c60614a81565b5b6040519080825280601f01601f191660200182016040528015612c935781602001600182028036833780820191505090505b5090505b60008514612d2057600182612cac9190615ac8565b9150600a85612cbb9190615b38565b6030612cc79190615a1b565b60f81b818381518110612cdd57612cdc615b69565b5b60200101907effffffffffffffffffffffffffffffffffffffffffffffffffffffffffffff1916908160001a905350600a85612d1991906159ea565b9450612c97565b8093505050505b919050565b6000612d386008613b45565b9050612d446008613b53565b80600c60008381526020019081526020016000206000018190555084600c60008381526020019081526020016000206001018190555083600c60008381526020019081526020016000206002018190555082600c60008381526020019081526020016000206003019081612db891906164fb565b5081600c600083815260200190815260200160002060050181905550600e60008873ffffffffffffffffffffffffffffffffffffffff1673ffffffffffffffffffffffffffffffffffffffff16815260200190815260200160002083604051612e21919061585b565b9081526020016040518091039020600c6000838152602001908152602001600020908060018154018082558091505060019003906000526020600020906006020160009091909190915060008201548160000155600182015481600101556002820154816002015560038201816003019081612e9d9190616260565b5060048201548160040155600582015481600501555050612ebe8782613b69565b612ec881876130d2565b50505050505050565b60007f80ac58cd000000000000000000000000000000000000000000000000000000007bffffffffffffffffffffffffffffffffffffffffffffffffffffffff1916827bffffffffffffffffffffffffffffffffffffffffffffffffffffffff19161480612f9c57507f5b5e139f000000000000000000000000000000000000000000000000000000007bffffffffffffffffffffffffffffffffffffffffffffffffffffffff1916827bffffffffffffffffffffffffffffffffffffffffffffffffffffffff1916145b80612fac5750612fab82613d86565b5b9050919050565b612fbc81613df0565b612ffb576040517f08c379a0000000000000000000000000000000000000000000000000000000008152600401612ff290616619565b60405180910390fd5b50565b6000613008612b1c565b905090565b816004600083815260200190815260200160002060006101000a81548173ffffffffffffffffffffffffffffffffffffffff021916908373ffffffffffffffffffffffffffffffffffffffff160217905550808273ffffffffffffffffffffffffffffffffffffffff1661308083611d4d565b73ffffffffffffffffffffffffffffffffffffffff167f8c5be1e5ebec7d5bd14f71427d1e84f3dd0314c0f7b2291e5b200ac8c7c3b92560405160405180910390a45050565b6130cf81613e31565b50565b6130db82613df0565b61311a576040517f08c379a000000000000000000000000000000000000000000000000000000000815260040161311190616ac1565b60405180910390fd5b8060066000848152602001908152602001600020908161313a91906164fb565b505050565b613147612ffe565b73ffffffffffffffffffffffffffffffffffffffff16613165611f4b565b73ffffffffffffffffffffffffffffffffffffffff16146131bb576040517f08c379a00000000000000000000000000000000000000000000000000000000081526004016131b290616b2d565b60405180910390fd5b565b60006002600083815260200190815260200160002060009054906101000a900473ffffffffffffffffffffffffffffffffffffffff169050919050565b6000600760009054906101000a900473ffffffffffffffffffffffffffffffffffffffff16905081600760006101000a81548173ffffffffffffffffffffffffffffffffffffffff021916908373ffffffffffffffffffffffffffffffffffffffff1602179055508173ffffffffffffffffffffffffffffffffffffffff168173ffffffffffffffffffffffffffffffffffffffff167f8be0079c531659141344cd1fd0a4f28419497f9722a3daafe3b4186f6b6457e060405160405180910390a35050565b8173ffffffffffffffffffffffffffffffffffffffff168373ffffffffffffffffffffffffffffffffffffffff160361332e576040517f08c379a000000000000000000000000000000000000000000000000000000000815260040161332590616b99565b60405180910390fd5b80600560008573ffffffffffffffffffffffffffffffffffffffff1673ffffffffffffffffffffffffffffffffffffffff16815260200190815260200160002060008473ffffffffffffffffffffffffffffffffffffffff1673ffffffffffffffffffffffffffffffffffffffff16815260200190815260200160002060006101000a81548160ff0219169083151502179055508173ffffffffffffffffffffffffffffffffffffffff168373ffffffffffffffffffffffffffffffffffffffff167f17307eab39ab6107e8899845ad3d59bd9653f200f220920489ca2b5937696c318360405161341f9190614ca8565b60405180910390a3505050565b61343d613437612ffe565b83613e84565b61347c576040517f08c379a000000000000000000000000000000000000000000000000000000000815260040161347390616c2b565b60405180910390fd5b61348884848484613f19565b50505050565b6000600c600083815260200190815260200160002060030180546134b190615cd9565b80601f01602080910402602001604051908101604052809291908181526020018280546134dd90615cd9565b801561352a5780601f106134ff5761010080835404028352916020019161352a565b820191906000526020600020905b81548152906001019060200180831161350d57829003601f168201915b5050505050905060005b600e60008673ffffffffffffffffffffffffffffffffffffffff1673ffffffffffffffffffffffffffffffffffffffff16815260200190815260200160002082604051613581919061585b565b9081526020016040518091039020805490508160ff1610156138b857600c600084815260200190815260200160002060050154600e60008773ffffffffffffffffffffffffffffffffffffffff1673ffffffffffffffffffffffffffffffffffffffff16815260200190815260200160002083604051613601919061585b565b90815260200160405180910390208260ff168154811061362457613623615b69565b5b906000526020600020906006020160050154036138a557600e60008673ffffffffffffffffffffffffffffffffffffffff1673ffffffffffffffffffffffffffffffffffffffff16815260200190815260200160002082604051613688919061585b565b90815260200160405180910390206001600e60008873ffffffffffffffffffffffffffffffffffffffff1673ffffffffffffffffffffffffffffffffffffffff168152602001908152602001600020846040516136e5919061585b565b9081526020016040518091039020805490506137019190615ac8565b8154811061371257613711615b69565b5b9060005260206000209060060201600e60008773ffffffffffffffffffffffffffffffffffffffff1673ffffffffffffffffffffffffffffffffffffffff1681526020019081526020016000208360405161376d919061585b565b90815260200160405180910390208260ff16815481106137905761378f615b69565b5b9060005260206000209060060201600082015481600001556001820154816001015560028201548160020155600382018160030190816137d09190616260565b506004820154816004015560058201548160050155905050600e60008673ffffffffffffffffffffffffffffffffffffffff1673ffffffffffffffffffffffffffffffffffffffff16815260200190815260200160002082604051613835919061585b565b908152602001604051809103902080548061385357613852615b98565b5b60019003818190600052602060002090600602016000808201600090556001820160009055600282016000905560038201600061389091906149bf565b60048201600090556005820160009055505090555b80806138b090616355565b915050613534565b50600e60008473ffffffffffffffffffffffffffffffffffffffff1673ffffffffffffffffffffffffffffffffffffffff16815260200190815260200160002081604051613906919061585b565b9081526020016040518091039020600c60008481526020019081526020016000209080600181540180825580915050600190039060005260206000209060060201600090919091909150600082015481600001556001820154816001015560028201548160020155600382018160030190816139829190616260565b506004820154816004015560058201548160050155505050505050565b60606139aa82612fb3565b60006006600084815260200190815260200160002080546139ca90615cd9565b80601f01602080910402602001604051908101604052809291908181526020018280546139f690615cd9565b8015613a435780601f10613a1857610100808354040283529160200191613a43565b820191906000526020600020905b815481529060010190602001808311613a2657829003601f168201915b505050505090506000613a54613f75565b90506000815103613a69578192505050613aac565b600082511115613a9e578082604051602001613a86929190616c4b565b60405160208183030381529060405292505050613aac565b613aa784614007565b925050505b919050565b6000600560008473ffffffffffffffffffffffffffffffffffffffff1673ffffffffffffffffffffffffffffffffffffffff16815260200190815260200160002060008373ffffffffffffffffffffffffffffffffffffffff1673ffffffffffffffffffffffffffffffffffffffff16815260200190815260200160002060009054906101000a900460ff16905092915050565b600081600001549050919050565b6001816000016000828254019250508190555050565b600073ffffffffffffffffffffffffffffffffffffffff168273ffffffffffffffffffffffffffffffffffffffff1603613bd8576040517f08c379a0000000000000000000000000000000000000000000000000000000008152600401613bcf90616cbb565b60405180910390fd5b613be181613df0565b15613c21576040517f08c379a0000000000000000000000000000000000000000000000000000000008152600401613c1890616d27565b60405180910390fd5b613c2f60008383600161406f565b613c3881613df0565b15613c78576040517f08c379a0000000000000000000000000000000000000000000000000000000008152600401613c6f90616d27565b60405180910390fd5b6001600360008473ffffffffffffffffffffffffffffffffffffffff1673ffffffffffffffffffffffffffffffffffffffff16815260200190815260200160002060008282540192505081905550816002600083815260200190815260200160002060006101000a81548173ffffffffffffffffffffffffffffffffffffffff021916908373ffffffffffffffffffffffffffffffffffffffff160217905550808273ffffffffffffffffffffffffffffffffffffffff16600073ffffffffffffffffffffffffffffffffffffffff167fddf252ad1be2c89b69c2b068fc378daa952ba7f163c4a11628f55a4df523b3ef60405160405180910390a4613d82600083836001614081565b5050565b60007f01ffc9a7000000000000000000000000000000000000000000000000000000007bffffffffffffffffffffffffffffffffffffffffffffffffffffffff1916827bffffffffffffffffffffffffffffffffffffffffffffffffffffffff1916149050919050565b60008073ffffffffffffffffffffffffffffffffffffffff16613e12836131bd565b73ffffffffffffffffffffffffffffffffffffffff1614159050919050565b613e3a81614087565b6000600660008381526020019081526020016000208054613e5a90615cd9565b905014613e8157600660008281526020019081526020016000206000613e8091906149bf565b5b50565b600080613e9083611d4d565b90508073ffffffffffffffffffffffffffffffffffffffff168473ffffffffffffffffffffffffffffffffffffffff161480613ed25750613ed181856126bd565b5b80613f1057508373ffffffffffffffffffffffffffffffffffffffff16613ef884610f7c565b73ffffffffffffffffffffffffffffffffffffffff16145b91505092915050565b613f248484846141d5565b613f30848484846144ce565b613f6f576040517f08c379a0000000000000000000000000000000000000000000000000000000008152600401613f6690616db9565b60405180910390fd5b50505050565b606060098054613f8490615cd9565b80601f0160208091040260200160405190810160405280929190818152602001828054613fb090615cd9565b8015613ffd5780601f10613fd257610100808354040283529160200191613ffd565b820191906000526020600020905b815481529060010190602001808311613fe057829003601f168201915b5050505050905090565b606061401282612fb3565b600061401c613f75565b9050600081511161403c5760405180602001604052806000815250614067565b8061404684614655565b604051602001614057929190616c4b565b6040516020818303038152906040525b915050919050565b61407b84848484614723565b50505050565b50505050565b600061409282611d4d565b90506140a281600084600161406f565b6140ab82611d4d565b90506004600083815260200190815260200160002060006101000a81549073ffffffffffffffffffffffffffffffffffffffff02191690556001600360008373ffffffffffffffffffffffffffffffffffffffff1673ffffffffffffffffffffffffffffffffffffffff168152602001908152602001600020600082825403925050819055506002600083815260200190815260200160002060006101000a81549073ffffffffffffffffffffffffffffffffffffffff021916905581600073ffffffffffffffffffffffffffffffffffffffff168273ffffffffffffffffffffffffffffffffffffffff167fddf252ad1be2c89b69c2b068fc378daa952ba7f163c4a11628f55a4df523b3ef60405160405180910390a46141d1816000846001614081565b5050565b8273ffffffffffffffffffffffffffffffffffffffff166141f582611d4d565b73ffffffffffffffffffffffffffffffffffffffff161461424b576040517f08c379a000000000000000000000000000000000000000000000000000000000815260040161424290616e4b565b60405180910390fd5b600073ffffffffffffffffffffffffffffffffffffffff168273ffffffffffffffffffffffffffffffffffffffff16036142ba576040517f08c379a00000000000000000000000000000000000000000000000000000000081526004016142b190616edd565b60405180910390fd5b6142c7838383600161406f565b8273ffffffffffffffffffffffffffffffffffffffff166142e782611d4d565b73ffffffffffffffffffffffffffffffffffffffff161461433d576040517f08c379a000000000000000000000000000000000000000000000000000000000815260040161433490616e4b565b60405180910390fd5b6004600082815260200190815260200160002060006101000a81549073ffffffffffffffffffffffffffffffffffffffff02191690556001600360008573ffffffffffffffffffffffffffffffffffffffff1673ffffffffffffffffffffffffffffffffffffffff168152602001908152602001600020600082825403925050819055506001600360008473ffffffffffffffffffffffffffffffffffffffff1673ffffffffffffffffffffffffffffffffffffffff16815260200190815260200160002060008282540192505081905550816002600083815260200190815260200160002060006101000a81548173ffffffffffffffffffffffffffffffffffffffff021916908373ffffffffffffffffffffffffffffffffffffffff160217905550808273ffffffffffffffffffffffffffffffffffffffff168473ffffffffffffffffffffffffffffffffffffffff167fddf252ad1be2c89b69c2b068fc378daa952ba7f163c4a11628f55a4df523b3ef60405160405180910390a46144c98383836001614081565b505050565b60006144ef8473ffffffffffffffffffffffffffffffffffffffff16614849565b15614648578373ffffffffffffffffffffffffffffffffffffffff1663150b7a02614518612ffe565b8786866040518563ffffffff1660e01b815260040161453a9493929190616f47565b6020604051808303816000875af192505050801561457657506040513d601f19601f820116820180604052508101906145739190616fa8565b60015b6145f8573d80600081146145a6576040519150601f19603f3d011682016040523d82523d6000602084013e6145ab565b606091505b5060008151036145f0576040517f08c379a00000000000000000000000000000000000000000000000000000000081526004016145e790616db9565b60405180910390fd5b805181602001fd5b63150b7a0260e01b7bffffffffffffffffffffffffffffffffffffffffffffffffffffffff1916817bffffffffffffffffffffffffffffffffffffffffffffffffffffffff19161491505061464d565b600190505b949350505050565b6060600060016146648461486c565b01905060008167ffffffffffffffff81111561468357614682614a81565b5b6040519080825280601f01601f1916602001820160405280156146b55781602001600182028036833780820191505090505b509050600082602001820190505b600115614718578080600190039150507f3031323334353637383961626364656600000000000000000000000000000000600a86061a8153600a858161470c5761470b6159bb565b5b049450600085036146c3575b819350505050919050565b600181111561484357600073ffffffffffffffffffffffffffffffffffffffff168473ffffffffffffffffffffffffffffffffffffffff16146147b75780600360008673ffffffffffffffffffffffffffffffffffffffff1673ffffffffffffffffffffffffffffffffffffffff16815260200190815260200160002060008282546147af9190615ac8565b925050819055505b600073ffffffffffffffffffffffffffffffffffffffff168373ffffffffffffffffffffffffffffffffffffffff16146148425780600360008573ffffffffffffffffffffffffffffffffffffffff1673ffffffffffffffffffffffffffffffffffffffff168152602001908152602001600020600082825461483a9190615a1b565b925050819055505b5b50505050565b6000808273ffffffffffffffffffffffffffffffffffffffff163b119050919050565b600080600090507a184f03e93ff9f4daa797ed6e38ed64bf6a1f01000000000000000083106148ca577a184f03e93ff9f4daa797ed6e38ed64bf6a1f01000000000000000083816148c0576148bf6159bb565b5b0492506040810190505b6d04ee2d6d415b85acef81000000008310614907576d04ee2d6d415b85acef810000000083816148fd576148fc6159bb565b5b0492506020810190505b662386f26fc10000831061493657662386f26fc10000838161492c5761492b6159bb565b5b0492506010810190505b6305f5e100831061495f576305f5e1008381614955576149546159bb565b5b0492506008810190505b612710831061498457612710838161497a576149796159bb565b5b0492506004810190505b606483106149a7576064838161499d5761499c6159bb565b5b0492506002810190505b600a83106149b6576001810190505b80915050919050565b5080546149cb90615cd9565b6000825580601f106149dd57506149fc565b601f0160209004906000526020600020908101906149fb91906149ff565b5b50565b5b80821115614a18576000816000905550600101614a00565b5090565b6000604051905090565b600080fd5b600080fd5b6000819050919050565b614a4381614a30565b8114614a4e57600080fd5b50565b600081359050614a6081614a3a565b92915050565b600080fd5b600080fd5b6000601f19601f8301169050919050565b7f4e487b7100000000000000000000000000000000000000000000000000000000600052604160045260246000fd5b614ab982614a70565b810181811067ffffffffffffffff82111715614ad857614ad7614a81565b5b80604052505050565b6000614aeb614a1c565b9050614af78282614ab0565b919050565b600067ffffffffffffffff821115614b1757614b16614a81565b5b614b2082614a70565b9050602081019050919050565b82818337600083830152505050565b6000614b4f614b4a84614afc565b614ae1565b905082815260208101848484011115614b6b57614b6a614a6b565b5b614b76848285614b2d565b509392505050565b600082601f830112614b9357614b92614a66565b5b8135614ba3848260208601614b3c565b91505092915050565b60008060408385031215614bc357614bc2614a26565b5b6000614bd185828601614a51565b925050602083013567ffffffffffffffff811115614bf257614bf1614a2b565b5b614bfe85828601614b7e565b9150509250929050565b60007fffffffff0000000000000000000000000000000000000000000000000000000082169050919050565b614c3d81614c08565b8114614c4857600080fd5b50565b600081359050614c5a81614c34565b92915050565b600060208284031215614c7657614c75614a26565b5b6000614c8484828501614c4b565b91505092915050565b60008115159050919050565b614ca281614c8d565b82525050565b6000602082019050614cbd6000830184614c99565b92915050565b600081519050919050565b600082825260208201905092915050565b60005b83811015614cfd578082015181840152602081019050614ce2565b60008484015250505050565b6000614d1482614cc3565b614d1e8185614cce565b9350614d2e818560208601614cdf565b614d3781614a70565b840191505092915050565b60006020820190508181036000830152614d5c8184614d09565b905092915050565b600060208284031215614d7a57614d79614a26565b5b6000614d8884828501614a51565b91505092915050565b600073ffffffffffffffffffffffffffffffffffffffff82169050919050565b6000614dbc82614d91565b9050919050565b614dcc81614db1565b82525050565b6000602082019050614de76000830184614dc3565b92915050565b614df681614db1565b8114614e0157600080fd5b50565b600081359050614e1381614ded565b92915050565b60008060408385031215614e3057614e2f614a26565b5b6000614e3e85828601614e04565b9250506020614e4f85828601614a51565b9150509250929050565b600080600060608486031215614e7257614e71614a26565b5b6000614e8086828701614e04565b9350506020614e9186828701614e04565b9250506040614ea286828701614a51565b9150509250925092565b600080600060608486031215614ec557614ec4614a26565b5b6000614ed386828701614e04565b935050602084013567ffffffffffffffff811115614ef457614ef3614a2b565b5b614f0086828701614b7e565b9250506040614f1186828701614a51565b9150509250925092565b614f2481614a30565b82525050565b600060c082019050614f3f6000830189614f1b565b614f4c6020830188614f1b565b614f596040830187614f1b565b8181036060830152614f6b8186614d09565b9050614f7a6080830185614f1b565b614f8760a0830184614f1b565b979650505050505050565b60008060408385031215614fa957614fa8614a26565b5b6000614fb785828601614a51565b9250506020614fc885828601614a51565b9150509250929050565b600060208284031215614fe857614fe7614a26565b5b600082013567ffffffffffffffff81111561500657615005614a2b565b5b61501284828501614b7e565b91505092915050565b60006020828403121561503157615030614a26565b5b600061503f84828501614e04565b91505092915050565b600060208201905061505d6000830184614f1b565b92915050565b600081519050919050565b600082825260208201905092915050565b6000819050602082019050919050565b61509881614a30565b82525050565b60006150aa838361508f565b60208301905092915050565b6000602082019050919050565b60006150ce82615063565b6150d8818561506e565b93506150e38361507f565b8060005b838110156151145781516150fb888261509e565b9750615106836150b6565b9250506001810190506150e7565b5085935050505092915050565b6000602082019050818103600083015261513b81846150c3565b905092915050565b600080fd5b600080fd5b60008083601f84011261516357615162614a66565b5b8235905067ffffffffffffffff8111156151805761517f615143565b5b60208301915083600182028301111561519c5761519b615148565b5b9250929050565b600080602083850312156151ba576151b9614a26565b5b600083013567ffffffffffffffff8111156151d8576151d7614a2b565b5b6151e48582860161514d565b92509250509250929050565b600081519050919050565b600082825260208201905092915050565b6000819050602082019050919050565b61522581614db1565b82525050565b6000615237838361521c565b60208301905092915050565b6000602082019050919050565b600061525b826151f0565b61526581856151fb565b93506152708361520c565b8060005b838110156152a1578151615288888261522b565b975061529383615243565b925050600181019050615274565b5085935050505092915050565b600060208201905081810360008301526152c88184615250565b905092915050565b6152d981614c8d565b81146152e457600080fd5b50565b6000813590506152f6816152d0565b92915050565b6000806040838503121561531357615312614a26565b5b600061532185828601614e04565b9250506020615332858286016152e7565b9150509250929050565b600081519050919050565b600082825260208201905092915050565b6000819050602082019050919050565b600082825260208201905092915050565b600061538482614cc3565b61538e8185615368565b935061539e818560208601614cdf565b6153a781614a70565b840191505092915050565b60006153be8383615379565b905092915050565b6000602082019050919050565b60006153de8261533c565b6153e88185615347565b9350836020820285016153fa85615358565b8060005b85811015615436578484038952815161541785826153b2565b9450615422836153c6565b925060208a019950506001810190506153fe565b50829750879550505050505092915050565b6000604082019050818103600083015261546281856153d3565b9050818103602083015261547681846150c3565b90509392505050565b600067ffffffffffffffff82111561549a57615499614a81565b5b6154a382614a70565b9050602081019050919050565b60006154c36154be8461547f565b614ae1565b9050828152602081018484840111156154df576154de614a6b565b5b6154ea848285614b2d565b509392505050565b600082601f83011261550757615506614a66565b5b81356155178482602086016154b0565b91505092915050565b6000806000806080858703121561553a57615539614a26565b5b600061554887828801614e04565b945050602061555987828801614e04565b935050604061556a87828801614a51565b925050606085013567ffffffffffffffff81111561558b5761558a614a2b565b5b615597878288016154f2565b91505092959194509250565b600080604083850312156155ba576155b9614a26565b5b60006155c885828601614e04565b92505060206155d985828601614e04565b9150509250929050565b6000806000604084860312156155fc576155fb614a26565b5b600061560a86828701614e04565b935050602084013567ffffffffffffffff81111561562b5761562a614a2b565b5b6156378682870161514d565b92509250509250925092565b600081519050919050565b600082825260208201905092915050565b6000819050602082019050919050565b600060c083016000830151615687600086018261508f565b50602083015161569a602086018261508f565b5060408301516156ad604086018261508f565b50606083015184820360608601526156c58282615379565b91505060808301516156da608086018261508f565b5060a08301516156ed60a086018261508f565b508091505092915050565b6000615704838361566f565b905092915050565b6000602082019050919050565b600061572482615643565b61572e818561564e565b9350836020820285016157408561565f565b8060005b8581101561577c578484038952815161575d85826156f8565b94506157688361570c565b925060208a01995050600181019050615744565b50829750879550505050505092915050565b600060208201905081810360008301526157a88184615719565b905092915050565b6000806000606084860312156157c9576157c8614a26565b5b600084013567ffffffffffffffff8111156157e7576157e6614a2b565b5b6157f386828701614b7e565b935050602061580486828701614a51565b925050604061581586828701614a51565b9150509250925092565b600081905092915050565b600061583582614cc3565b61583f818561581f565b935061584f818560208601614cdf565b80840191505092915050565b6000615867828461582a565b915081905092915050565b7f59612074656e657320756e207061636b2077616368696e000000000000000000600082015250565b60006158a8601783614cce565b91506158b382615872565b602082019050919050565b600060208201905081810360008301526158d78161589b565b9050919050565b7f53656e6420657861637420707269636520666f72205061636b00000000000000600082015250565b6000615914601983614cce565b915061591f826158de565b602082019050919050565b6000602082019050818103600083015261594381615907565b9050919050565b7f4e487b7100000000000000000000000000000000000000000000000000000000600052601160045260246000fd5b600061598482614a30565b915061598f83614a30565b925082820261599d81614a30565b915082820484148315176159b4576159b361594a565b5b5092915050565b7f4e487b7100000000000000000000000000000000000000000000000000000000600052601260045260246000fd5b60006159f582614a30565b9150615a0083614a30565b925082615a1057615a0f6159bb565b5b828204905092915050565b6000615a2682614a30565b9150615a3183614a30565b9250828201905080821115615a4957615a4861594a565b5b92915050565b6000606082019050615a646000830186614dc3565b615a716020830185614dc3565b615a7e6040830184614f1b565b949350505050565b600081519050615a95816152d0565b92915050565b600060208284031215615ab157615ab0614a26565b5b6000615abf84828501615a86565b91505092915050565b6000615ad382614a30565b9150615ade83614a30565b9250828203905081811115615af657615af561594a565b5b92915050565b6000819050919050565b615b17615b1282614a30565b615afc565b82525050565b6000615b298284615b06565b60208201915081905092915050565b6000615b4382614a30565b9150615b4e83614a30565b925082615b5e57615b5d6159bb565b5b828206905092915050565b7f4e487b7100000000000000000000000000000000000000000000000000000000600052603260045260246000fd5b7f4e487b7100000000000000000000000000000000000000000000000000000000600052603160045260246000fd5b600081519050919050565b600081905092915050565b6000615be882615bc7565b615bf28185615bd2565b9350615c02818560208601614cdf565b80840191505092915050565b6000615c1a8285615bdd565b9150615c268284615bdd565b91508190509392505050565b6000615c3d82614a30565b91507fffffffffffffffffffffffffffffffffffffffffffffffffffffffffffffffff8203615c6f57615c6e61594a565b5b600182019050919050565b6000604082019050615c8f6000830185614dc3565b8181036020830152615ca18184614d09565b90509392505050565b7f4e487b7100000000000000000000000000000000000000000000000000000000600052602260045260246000fd5b60006002820490506001821680615cf157607f821691505b602082108103615d0457615d03615caa565b5b50919050565b7f4552433732313a20617070726f76616c20746f2063757272656e74206f776e6560008201527f7200000000000000000000000000000000000000000000000000000000000000602082015250565b6000615d66602183614cce565b9150615d7182615d0a565b604082019050919050565b60006020820190508181036000830152615d9581615d59565b9050919050565b7f4552433732313a20617070726f76652063616c6c6572206973206e6f7420746f60008201527f6b656e206f776e6572206f7220617070726f76656420666f7220616c6c000000602082015250565b6000615df8603d83614cce565b9150615e0382615d9c565b604082019050919050565b60006020820190508181036000830152615e2781615deb565b9050919050565b7f54686973206973206e6f7420796f757220636172640000000000000000000000600082015250565b6000615e64601583614cce565b9150615e6f82615e2e565b602082019050919050565b60006020820190508181036000830152615e9381615e57565b9050919050565b7f54686973206973206e6f7420796f757220616c62756d00000000000000000000600082015250565b6000615ed0601683614cce565b9150615edb82615e9a565b602082019050919050565b60006020820190508181036000830152615eff81615ec3565b9050919050565b7f63617264206973206e6f7420616e20616c62756d000000000000000000000000600082015250565b6000615f3c601483614cce565b9150615f4782615f06565b602082019050919050565b60006020820190508181036000830152615f6b81615f2f565b9050919050565b7f6361726473206973206e6f742066726f6d207468652073616d6520636f6c6c6560008201527f6374696f6e000000000000000000000000000000000000000000000000000000602082015250565b6000615fce602583614cce565b9150615fd982615f72565b604082019050919050565b60006020820190508181036000830152615ffd81615fc1565b9050919050565b60008190508160005260206000209050919050565b6000815461602681615cd9565b616030818661581f565b9450600182166000811461604b576001811461606057616093565b60ff1983168652811515820286019350616093565b61606985616004565b60005b8381101561608b5781548189015260018201915060208101905061606c565b838801955050505b50505092915050565b60006160a88284616019565b915081905092915050565b6000815490506160c281615cd9565b9050919050565b60006020601f8301049050919050565b600082821b905092915050565b6000600883026161167fffffffffffffffffffffffffffffffffffffffffffffffffffffffffffffffff826160d9565b61612086836160d9565b95508019841693508086168417925050509392505050565b6000819050919050565b600061615d61615861615384614a30565b616138565b614a30565b9050919050565b6000819050919050565b61617783616142565b61618b61618382616164565b8484546160e6565b825550505050565b600090565b6161a0616193565b6161ab81848461616e565b505050565b5b818110156161cf576161c4600082616198565b6001810190506161b1565b5050565b601f821115616214576161e581616004565b6161ee846160c9565b810160208510156161fd578190505b616211616209856160c9565b8301826161b0565b50505b505050565b600082821c905092915050565b600061623760001984600802616219565b1980831691505092915050565b60006162508383616226565b9150826002028217905092915050565b81810361626e575050616346565b616277826160b3565b67ffffffffffffffff8111156162905761628f614a81565b5b61629a8254615cd9565b6162a58282856161d3565b6000601f8311600181146162d457600084156162c2578287015490505b6162cc8582616244565b86555061633f565b601f1984166162e287616004565b96506162ed86616004565b60005b82811015616315578489015482556001820191506001850194506020810190506162f0565b86831015616332578489015461632e601f891682616226565b8355505b6001600288020188555050505b5050505050505b565b600060ff82169050919050565b600061636082616348565b915060ff82036163735761637261594a565b5b600182019050919050565b7f5072697a65206d757374206265206c6f776572206f7220657175616c2074686160008201527f6e207072697a65732062616c616e636500000000000000000000000000000000602082015250565b60006163da603083614cce565b91506163e58261637e565b604082019050919050565b60006020820190508181036000830152616409816163cd565b9050919050565b60006040820190506164256000830185614dc3565b6164326020830184614f1b565b9392505050565b6000815461644681615cd9565b6164508186614cce565b9450600182166000811461646b5760018114616481576164b4565b60ff1983168652811515602002860193506164b4565b61648a85616004565b60005b838110156164ac5781548189015260018201915060208101905061648d565b808801955050505b50505092915050565b60006060820190506164d26000830186614dc3565b81810360208301526164e48185616439565b90506164f36040830184614f1b565b949350505050565b61650482614cc3565b67ffffffffffffffff81111561651d5761651c614a81565b5b6165278254615cd9565b6165328282856161d3565b600060209050601f8311600181146165655760008415616553578287015190505b61655d8582616244565b8655506165c5565b601f19841661657386616004565b60005b8281101561659b57848901518255600182019150602085019450602081019050616576565b868310156165b857848901516165b4601f891682616226565b8355505b6001600288020188555050505b505050505050565b7f4552433732313a20696e76616c696420746f6b656e2049440000000000000000600082015250565b6000616603601883614cce565b915061660e826165cd565b602082019050919050565b60006020820190508181036000830152616632816165f6565b9050919050565b7f4552433732313a2061646472657373207a65726f206973206e6f74206120766160008201527f6c6964206f776e65720000000000000000000000000000000000000000000000602082015250565b6000616695602983614cce565b91506166a082616639565b604082019050919050565b600060208201905081810360008301526166c481616688565b9050919050565b60006166d7838561581f565b93506166e4838584614b2d565b82840190509392505050565b60006166fd8284866166cb565b91508190509392505050565b7f54686572652061726520616c62756d7320617661696c61626c6520696e20746860008201527f697320736561736f6e0000000000000000000000000000000000000000000000602082015250565b6000616765602983614cce565b915061677082616709565b604082019050919050565b6000602082019050818103600083015261679481616758565b9050919050565b7f5265636569766572206973206e6f7420706c6179696e6720746869732073656160008201527f736f6e0000000000000000000000000000000000000000000000000000000000602082015250565b60006167f7602383614cce565b91506168028261679b565b604082019050919050565b60006020820190508181036000830152616826816167ea565b9050919050565b7f4f6e6c7920636f6d706c6574656420616c62756d732063616e2062652074726160008201527f6e73666572726564000000000000000000000000000000000000000000000000602082015250565b6000616889602883614cce565b91506168948261682d565b604082019050919050565b600060208201905081810360008301526168b88161687c565b9050919050565b7f4f776e61626c653a206e6577206f776e657220697320746865207a65726f206160008201527f6464726573730000000000000000000000000000000000000000000000000000602082015250565b600061691b602683614cce565b9150616926826168bf565b604082019050919050565b6000602082019050818103600083015261694a8161690e565b9050919050565b7f7061636b2076616c7565206d757374206265206174206c6561737420302e303060008201527f3031204441490000000000000000000000000000000000000000000000000000602082015250565b60006169ad602683614cce565b91506169b882616951565b604082019050919050565b600060208201905081810360008301526169dc816169a0565b9050919050565b7f416d6f756e74206d757374206265206d756c7469706c65206f66203600000000600082015250565b6000616a19601c83614cce565b9150616a24826169e3565b602082019050919050565b60006020820190508181036000830152616a4881616a0c565b9050919050565b7f45524337323155524953746f726167653a2055524920736574206f66206e6f6e60008201527f6578697374656e7420746f6b656e000000000000000000000000000000000000602082015250565b6000616aab602e83614cce565b9150616ab682616a4f565b604082019050919050565b60006020820190508181036000830152616ada81616a9e565b9050919050565b7f4f776e61626c653a2063616c6c6572206973206e6f7420746865206f776e6572600082015250565b6000616b17602083614cce565b9150616b2282616ae1565b602082019050919050565b60006020820190508181036000830152616b4681616b0a565b9050919050565b7f4552433732313a20617070726f766520746f2063616c6c657200000000000000600082015250565b6000616b83601983614cce565b9150616b8e82616b4d565b602082019050919050565b60006020820190508181036000830152616bb281616b76565b9050919050565b7f4552433732313a2063616c6c6572206973206e6f7420746f6b656e206f776e6560008201527f72206f7220617070726f76656400000000000000000000000000000000000000602082015250565b6000616c15602d83614cce565b9150616c2082616bb9565b604082019050919050565b60006020820190508181036000830152616c4481616c08565b9050919050565b6000616c57828561582a565b9150616c63828461582a565b91508190509392505050565b7f4552433732313a206d696e7420746f20746865207a65726f2061646472657373600082015250565b6000616ca5602083614cce565b9150616cb082616c6f565b602082019050919050565b60006020820190508181036000830152616cd481616c98565b9050919050565b7f4552433732313a20746f6b656e20616c7265616479206d696e74656400000000600082015250565b6000616d11601c83614cce565b9150616d1c82616cdb565b602082019050919050565b60006020820190508181036000830152616d4081616d04565b9050919050565b7f4552433732313a207472616e7366657220746f206e6f6e20455243373231526560008201527f63656976657220696d706c656d656e7465720000000000000000000000000000602082015250565b6000616da3603283614cce565b9150616dae82616d47565b604082019050919050565b60006020820190508181036000830152616dd281616d96565b9050919050565b7f4552433732313a207472616e736665722066726f6d20696e636f72726563742060008201527f6f776e6572000000000000000000000000000000000000000000000000000000602082015250565b6000616e35602583614cce565b9150616e4082616dd9565b604082019050919050565b60006020820190508181036000830152616e6481616e28565b9050919050565b7f4552433732313a207472616e7366657220746f20746865207a65726f2061646460008201527f7265737300000000000000000000000000000000000000000000000000000000602082015250565b6000616ec7602483614cce565b9150616ed282616e6b565b604082019050919050565b60006020820190508181036000830152616ef681616eba565b9050919050565b600082825260208201905092915050565b6000616f1982615bc7565b616f238185616efd565b9350616f33818560208601614cdf565b616f3c81614a70565b840191505092915050565b6000608082019050616f5c6000830187614dc3565b616f696020830186614dc3565b616f766040830185614f1b565b8181036060830152616f888184616f0e565b905095945050505050565b600081519050616fa281614c34565b92915050565b600060208284031215616fbe57616fbd614a26565b5b6000616fcc84828501616f93565b9150509291505056fea26469706673582212206c2ec7457b5a044c2ce0233055de565b3b9a538f4d4047da2e9eda7c0b99303d64736f6c63430008110033",
  "linkReferences": {},
  "deployedLinkReferences": {}
}