{
  "_format": "hh-sol-artifact-1",
  "contractName": "NofGammaPacksV3",
  "sourceName": "contracts/gamma/GammaPacks.v3.sol",
  "abi": [
    {
      "inputs": [
        {
          "internalType": "address",
          "name": "_daiTokenAddress",
          "type": "address"
        },
        {
          "internalType": "address",
          "name": "_balanceReceiver",
          "type": "address"
        },
        {
          "internalType": "address",
          "name": "_gammaCardsContract",
          "type": "address"
        },
        {
          "internalType": "address",
          "name": "_gammaTicketsContract",
          "type": "address"
        }
      ],
      "stateMutability": "nonpayable",
      "type": "constructor"
    },
    {
      "inputs": [],
      "name": "InsufficientAllowance",
      "type": "error"
    },
    {
      "inputs": [],
      "name": "InsufficientBalance",
      "type": "error"
    },
    {
      "inputs": [],
      "name": "InsufficientPacksAvailable",
      "type": "error"
    },
    {
      "inputs": [],
      "name": "InvalidAddress",
      "type": "error"
    },
    {
      "inputs": [],
      "name": "InvalidNumberOfPacks",
      "type": "error"
    },
    {
      "inputs": [],
      "name": "NotGammaCardsContract",
      "type": "error"
    },
    {
      "inputs": [],
      "name": "NotYourPack",
      "type": "error"
    },
    {
      "inputs": [
        {
          "internalType": "address",
          "name": "owner",
          "type": "address"
        }
      ],
      "name": "OwnableInvalidOwner",
      "type": "error"
    },
    {
      "inputs": [
        {
          "internalType": "address",
          "name": "account",
          "type": "address"
        }
      ],
      "name": "OwnableUnauthorizedAccount",
      "type": "error"
    },
    {
      "inputs": [],
      "name": "OwnlyOwners",
      "type": "error"
    },
    {
      "inputs": [
        {
          "internalType": "address",
          "name": "_to",
          "type": "address"
        }
      ],
      "name": "TransferPrizeError",
      "type": "error"
    },
    {
      "anonymous": false,
      "inputs": [
        {
          "indexed": true,
          "internalType": "address",
          "name": "balanceReceiver",
          "type": "address"
        }
      ],
      "name": "NewBalanceReceiver",
      "type": "event"
    },
    {
      "anonymous": false,
      "inputs": [
        {
          "indexed": true,
          "internalType": "address",
          "name": "newCardsContract",
          "type": "address"
        }
      ],
      "name": "NewGammaCardsContract",
      "type": "event"
    },
    {
      "anonymous": false,
      "inputs": [
        {
          "indexed": true,
          "internalType": "address",
          "name": "newGammaTicketContract",
          "type": "address"
        }
      ],
      "name": "NewGammaTicketsContract",
      "type": "event"
    },
    {
      "anonymous": false,
      "inputs": [
        {
          "indexed": true,
          "internalType": "uint256",
          "name": "newPrice",
          "type": "uint256"
        }
      ],
      "name": "NewPrice",
      "type": "event"
    },
    {
      "anonymous": false,
      "inputs": [
        {
          "indexed": true,
          "internalType": "address",
          "name": "previousOwner",
          "type": "address"
        },
        {
          "indexed": true,
          "internalType": "address",
          "name": "newOwner",
          "type": "address"
        }
      ],
      "name": "OwnershipTransferred",
      "type": "event"
    },
    {
      "anonymous": false,
      "inputs": [
        {
          "indexed": true,
          "internalType": "address",
          "name": "user",
          "type": "address"
        },
        {
          "indexed": true,
          "internalType": "uint256",
          "name": "tokenId",
          "type": "uint256"
        }
      ],
      "name": "PackOpened",
      "type": "event"
    },
    {
      "anonymous": false,
      "inputs": [
        {
          "indexed": true,
          "internalType": "address",
          "name": "buyer",
          "type": "address"
        },
        {
          "indexed": true,
          "internalType": "uint256",
          "name": "tokenId",
          "type": "uint256"
        }
      ],
      "name": "PackPurchased",
      "type": "event"
    },
    {
      "anonymous": false,
      "inputs": [
        {
          "indexed": true,
          "internalType": "address",
          "name": "from",
          "type": "address"
        },
        {
          "indexed": true,
          "internalType": "address",
          "name": "to",
          "type": "address"
        },
        {
          "indexed": true,
          "internalType": "uint256",
          "name": "tokenId",
          "type": "uint256"
        }
      ],
      "name": "PackTransfered",
      "type": "event"
    },
    {
      "anonymous": false,
      "inputs": [
        {
          "indexed": true,
          "internalType": "address",
          "name": "buyer",
          "type": "address"
        },
        {
          "indexed": true,
          "internalType": "uint256[]",
          "name": "tokenIds",
          "type": "uint256[]"
        }
      ],
      "name": "PacksPurchased",
      "type": "event"
    },
    {
      "anonymous": false,
      "inputs": [
        {
          "indexed": true,
          "internalType": "address",
          "name": "from",
          "type": "address"
        },
        {
          "indexed": true,
          "internalType": "address",
          "name": "to",
          "type": "address"
        },
        {
          "indexed": true,
          "internalType": "uint256[]",
          "name": "tokenId",
          "type": "uint256[]"
        }
      ],
      "name": "PacksTransfered",
      "type": "event"
    },
    {
      "inputs": [],
      "name": "DAI_TOKEN",
      "outputs": [
        {
          "internalType": "address",
          "name": "",
          "type": "address"
        }
      ],
      "stateMutability": "view",
      "type": "function"
    },
    {
      "inputs": [],
      "name": "TOTALSUPPLY",
      "outputs": [
        {
          "internalType": "uint256",
          "name": "",
          "type": "uint256"
        }
      ],
      "stateMutability": "view",
      "type": "function"
    },
    {
      "inputs": [
        {
          "internalType": "address",
          "name": "_newOwner",
          "type": "address"
        }
      ],
      "name": "addOwner",
      "outputs": [],
      "stateMutability": "nonpayable",
      "type": "function"
    },
    {
      "inputs": [],
      "name": "buyPack",
      "outputs": [
        {
          "internalType": "uint256",
          "name": "",
          "type": "uint256"
        }
      ],
      "stateMutability": "nonpayable",
      "type": "function"
    },
    {
      "inputs": [
        {
          "internalType": "address",
          "name": "user",
          "type": "address"
        }
      ],
      "name": "buyPackByUser",
      "outputs": [
        {
          "internalType": "uint256",
          "name": "",
          "type": "uint256"
        }
      ],
      "stateMutability": "nonpayable",
      "type": "function"
    },
    {
      "inputs": [
        {
          "internalType": "uint256",
          "name": "numberOfPacks",
          "type": "uint256"
        }
      ],
      "name": "buyPacks",
      "outputs": [
        {
          "internalType": "uint256[]",
          "name": "",
          "type": "uint256[]"
        }
      ],
      "stateMutability": "nonpayable",
      "type": "function"
    },
    {
      "inputs": [
        {
          "internalType": "address",
          "name": "user",
          "type": "address"
        },
        {
          "internalType": "uint256",
          "name": "numberOfPacks",
          "type": "uint256"
        }
      ],
      "name": "buyPacksByUser",
      "outputs": [
        {
          "internalType": "uint256[]",
          "name": "",
          "type": "uint256[]"
        }
      ],
      "stateMutability": "nonpayable",
      "type": "function"
    },
    {
      "inputs": [
        {
          "internalType": "address",
          "name": "_newBalanceReceiver",
          "type": "address"
        }
      ],
      "name": "changeBalanceReceiver",
      "outputs": [],
      "stateMutability": "nonpayable",
      "type": "function"
    },
    {
      "inputs": [
        {
          "internalType": "uint256",
          "name": "_newPrice",
          "type": "uint256"
        }
      ],
      "name": "changePrice",
      "outputs": [],
      "stateMutability": "nonpayable",
      "type": "function"
    },
    {
      "inputs": [
        {
          "internalType": "bool",
          "name": "_transferDai",
          "type": "bool"
        }
      ],
      "name": "changeTransferDaiFlag",
      "outputs": [],
      "stateMutability": "nonpayable",
      "type": "function"
    },
    {
      "inputs": [],
      "name": "gammaCardsContract",
      "outputs": [
        {
          "internalType": "contract IGammaCardsContract",
          "name": "",
          "type": "address"
        }
      ],
      "stateMutability": "view",
      "type": "function"
    },
    {
      "inputs": [],
      "name": "gammaTicketsContract",
      "outputs": [
        {
          "internalType": "contract IgammaTicketsContract",
          "name": "",
          "type": "address"
        }
      ],
      "stateMutability": "view",
      "type": "function"
    },
    {
      "inputs": [
        {
          "internalType": "uint256",
          "name": "numberOfPacks",
          "type": "uint256"
        }
      ],
      "name": "getAmountRequiredToBuyPacks",
      "outputs": [
        {
          "internalType": "uint256",
          "name": "",
          "type": "uint256"
        }
      ],
      "stateMutability": "view",
      "type": "function"
    },
    {
      "inputs": [
        {
          "internalType": "uint256",
          "name": "tokenId",
          "type": "uint256"
        }
      ],
      "name": "getPackOwner",
      "outputs": [
        {
          "internalType": "address",
          "name": "",
          "type": "address"
        }
      ],
      "stateMutability": "view",
      "type": "function"
    },
    {
      "inputs": [
        {
          "internalType": "address",
          "name": "owner",
          "type": "address"
        }
      ],
      "name": "getPacksByUser",
      "outputs": [
        {
          "internalType": "uint256[]",
          "name": "",
          "type": "uint256[]"
        }
      ],
      "stateMutability": "view",
      "type": "function"
    },
    {
      "inputs": [
        {
          "internalType": "uint256",
          "name": "numberOfPacks",
          "type": "uint256"
        }
      ],
      "name": "getPrizeAmountToBuyPacks",
      "outputs": [
        {
          "internalType": "uint256",
          "name": "",
          "type": "uint256"
        }
      ],
      "stateMutability": "view",
      "type": "function"
    },
    {
      "inputs": [
        {
          "internalType": "uint256",
          "name": "numberOfPacks",
          "type": "uint256"
        }
      ],
      "name": "getPrizeNoFAccountAmountToBuyPacks",
      "outputs": [
        {
          "internalType": "uint256",
          "name": "",
          "type": "uint256"
        }
      ],
      "stateMutability": "view",
      "type": "function"
    },
    {
      "inputs": [
        {
          "internalType": "address",
          "name": "user",
          "type": "address"
        }
      ],
      "name": "isOwner",
      "outputs": [
        {
          "internalType": "bool",
          "name": "",
          "type": "bool"
        }
      ],
      "stateMutability": "view",
      "type": "function"
    },
    {
      "inputs": [
        {
          "internalType": "uint256",
          "name": "numberOfPacks",
          "type": "uint256"
        }
      ],
      "name": "meetQuantityConditionsToBuy",
      "outputs": [
        {
          "internalType": "bool",
          "name": "",
          "type": "bool"
        }
      ],
      "stateMutability": "view",
      "type": "function"
    },
    {
      "inputs": [
        {
          "internalType": "uint256",
          "name": "tokenId",
          "type": "uint256"
        },
        {
          "internalType": "address",
          "name": "owner",
          "type": "address"
        }
      ],
      "name": "openPack",
      "outputs": [],
      "stateMutability": "nonpayable",
      "type": "function"
    },
    {
      "inputs": [
        {
          "internalType": "uint256[]",
          "name": "tokenIds",
          "type": "uint256[]"
        },
        {
          "internalType": "address",
          "name": "owner",
          "type": "address"
        }
      ],
      "name": "openPacks",
      "outputs": [],
      "stateMutability": "nonpayable",
      "type": "function"
    },
    {
      "inputs": [],
      "name": "owner",
      "outputs": [
        {
          "internalType": "address",
          "name": "",
          "type": "address"
        }
      ],
      "stateMutability": "view",
      "type": "function"
    },
    {
      "inputs": [
        {
          "internalType": "address",
          "name": "_ownerToRemove",
          "type": "address"
        }
      ],
      "name": "removeOwner",
      "outputs": [],
      "stateMutability": "nonpayable",
      "type": "function"
    },
    {
      "inputs": [],
      "name": "renounceOwnership",
      "outputs": [],
      "stateMutability": "nonpayable",
      "type": "function"
    },
    {
      "inputs": [],
      "name": "s_balanceReceiver",
      "outputs": [
        {
          "internalType": "address",
          "name": "",
          "type": "address"
        }
      ],
      "stateMutability": "view",
      "type": "function"
    },
    {
      "inputs": [],
      "name": "s_packPrice",
      "outputs": [
        {
          "internalType": "uint256",
          "name": "",
          "type": "uint256"
        }
      ],
      "stateMutability": "view",
      "type": "function"
    },
    {
      "inputs": [
        {
          "internalType": "uint256",
          "name": "tokenId",
          "type": "uint256"
        }
      ],
      "name": "s_packs",
      "outputs": [
        {
          "internalType": "address",
          "name": "owner",
          "type": "address"
        }
      ],
      "stateMutability": "view",
      "type": "function"
    },
    {
      "inputs": [
        {
          "internalType": "address",
          "name": "owner",
          "type": "address"
        },
        {
          "internalType": "uint256",
          "name": "",
          "type": "uint256"
        }
      ],
      "name": "s_packsByUser",
      "outputs": [
        {
          "internalType": "uint256",
          "name": "tokenIds",
          "type": "uint256"
        }
      ],
      "stateMutability": "view",
      "type": "function"
    },
    {
      "inputs": [
        {
          "internalType": "address",
          "name": "_gammaCardsContract",
          "type": "address"
        }
      ],
      "name": "setGammaCardsContract",
      "outputs": [],
      "stateMutability": "nonpayable",
      "type": "function"
    },
    {
      "inputs": [
        {
          "internalType": "address",
          "name": "_gammaTicketsContract",
          "type": "address"
        }
      ],
      "name": "setGammaTicketsContract",
      "outputs": [],
      "stateMutability": "nonpayable",
      "type": "function"
    },
    {
      "inputs": [
        {
          "internalType": "uint256",
          "name": "tokenId",
          "type": "uint256"
        },
        {
          "internalType": "address",
          "name": "owner",
          "type": "address"
        }
      ],
      "name": "testOpenPack",
      "outputs": [],
      "stateMutability": "nonpayable",
      "type": "function"
    },
    {
      "inputs": [
        {
          "internalType": "uint256[]",
          "name": "tokenIds",
          "type": "uint256[]"
        },
        {
          "internalType": "address",
          "name": "owner",
          "type": "address"
        }
      ],
      "name": "testOpenPacks",
      "outputs": [],
      "stateMutability": "nonpayable",
      "type": "function"
    },
    {
      "inputs": [
        {
          "internalType": "address",
          "name": "newOwner",
          "type": "address"
        }
      ],
      "name": "transferOwnership",
      "outputs": [],
      "stateMutability": "nonpayable",
      "type": "function"
    },
    {
      "inputs": [
        {
          "internalType": "address",
          "name": "to",
          "type": "address"
        },
        {
          "internalType": "uint256",
          "name": "tokenId",
          "type": "uint256"
        }
      ],
      "name": "transferPack",
      "outputs": [],
      "stateMutability": "nonpayable",
      "type": "function"
    },
    {
      "inputs": [
        {
          "internalType": "address",
          "name": "to",
          "type": "address"
        },
        {
          "internalType": "uint256[]",
          "name": "tokenIds",
          "type": "uint256[]"
        }
      ],
      "name": "transferPacks",
      "outputs": [],
      "stateMutability": "nonpayable",
      "type": "function"
    }
  ],
  "bytecode": "0x60806040526710a741a46278000060075560006008556009805460ff191660011790553480156200002f57600080fd5b5060405162001c6238038062001c628339810160408190526200005291620001af565b33806200007957604051631e4fbdf760e01b81526000600482015260240160405180910390fd5b620000848162000142565b506001600160a01b0383161580620000a357506001600160a01b038216155b80620000b657506001600160a01b038116155b15620000d55760405163e6c4247b60e01b815260040160405180910390fd5b600580546001600160a01b03199081166001600160a01b039687161790915560068054821694861694909417909355600180548416928516929092178255600280549093169316929092179055336000908152600360205260409020805460ff191690911790556200020c565b600080546001600160a01b038381166001600160a01b0319831681178455604051919092169283917f8be0079c531659141344cd1fd0a4f28419497f9722a3daafe3b4186f6b6457e09190a35050565b80516001600160a01b0381168114620001aa57600080fd5b919050565b60008060008060808587031215620001c657600080fd5b620001d18562000192565b9350620001e16020860162000192565b9250620001f16040860162000192565b9150620002016060860162000192565b905092959194509250565b611a46806200021c6000396000f3fe608060405234801561001057600080fd5b50600436106102115760003560e01c806394a08c6911610125578063d250f03a116100ad578063d9e8221e1161007c578063d9e8221e146104b3578063ddb975e8146104c6578063e0f78307146104d9578063e606df87146104ec578063f2fde38b146104ff57600080fd5b8063d250f03a14610451578063d3e6a7ad14610464578063d611713e1461048d578063d6a4c3e4146104a057600080fd5b8063a2b40d19116100f4578063a2b40d19146103fd578063ab4bdbc814610410578063b48ce65314610423578063c34e8af414610436578063c37b9bcd1461044957600080fd5b806394a08c69146103bb578063967ed63d146103c457806397f8b3d3146103d757806399e5f896146103ea57600080fd5b80634c7a7ad3116101a85780637065cb48116101775780637065cb4814610369578063715018a61461037c57806380f2540b146103845780638da5cb5b146103975780638fd5baf7146103a857600080fd5b80634c7a7ad31461031a57806362e218781461032d578063656bd0ad1461034d5780636adbaf751461035657600080fd5b80632f54bf6e116101e45780632f54bf6e1461028f57806339e8d3ec146102cb5780633cd626fd146102de5780633f6ecd481461030757600080fd5b806301321c4d146102165780630c3e5c001461023c57806314cca36a14610251578063173825d91461027c575b600080fd5b610229610224366004611696565b610512565b6040519081526020015b60405180910390f35b61024f61024a366004611777565b610540565b005b600254610264906001600160a01b031681565b6040516001600160a01b039091168152602001610233565b61024f61028a3660046117c5565b6105bc565b6102bb61029d3660046117c5565b6001600160a01b031660009081526003602052604090205460ff1690565b6040519015158152602001610233565b61024f6102d93660046117e0565b610662565b6102646102ec366004611696565b600a602052600090815260409020546001600160a01b031681565b610229610315366004611696565b6106a0565b61024f6103283660046117c5565b6106cf565b61034061033b366004611803565b610770565b604051610233919061182d565b61022960075481565b610340610364366004611696565b6107ad565b61024f6103773660046117c5565b6107b9565b61024f610830565b61024f6103923660046117e0565b610844565b6000546001600160a01b0316610264565b6103406103b63660046117c5565b61086f565b61022961c35081565b6102296103d23660046117c5565b6108db565b61024f6103e5366004611777565b610919565b61024f6103f836600461187f565b61098b565b61024f61040b366004611696565b6109ce565b61024f61041e36600461189c565b610a8f565b610229610431366004611696565b610b26565b600654610264906001600160a01b031681565b610229610b53565b600154610264906001600160a01b031681565b610264610472366004611696565b6000908152600a60205260409020546001600160a01b031690565b61024f61049b366004611803565b610b63565b6102bb6104ae366004611696565b610b6d565b6102296104c1366004611803565b610ba8565b61024f6104d43660046117c5565b610bd9565b61024f6104e73660046117c5565b610c7a565b600554610264906001600160a01b031681565b61024f61050d3660046117c5565b610d1b565b60008061051e836106a0565b9050808360075461052f9190611900565b6105399190611917565b9392505050565b3360009081526003602052604090205460ff1661057057604051631833a1e960e31b815260040160405180910390fd5b60005b82518110156105b75760008382815181106105905761059061192a565b602002602001015190506105a48184610d5e565b50806105af81611940565b915050610573565b505050565b3360009081526003602052604090205460ff166105ec57604051631833a1e960e31b815260040160405180910390fd5b604051632dd92c6960e21b8152600360048201526001600160a01b038216602482015273__$2004922c2908b386ae4415e9a8cdeda8c7$__9063b764b1a4906044015b60006040518083038186803b15801561064757600080fd5b505af415801561065b573d6000803e3d6000fd5b5050505050565b3360009081526003602052604090205460ff1661069257604051631833a1e960e31b815260040160405180910390fd5b61069c8282610d5e565b5050565b60008160066007546106b29190611959565b6007546106bf9190611917565b6106c99190611900565b92915050565b3360009081526003602052604090205460ff166106ff57604051631833a1e960e31b815260040160405180910390fd5b6001600160a01b0381166107265760405163e6c4247b60e01b815260040160405180910390fd5b600180546001600160a01b0319166001600160a01b0383169081179091556040517f45c9eba39b5ae3e7a6650b0a57bcb8e5d135936d56d111983dbc5860ae6760fa90600090a250565b3360009081526003602052604090205460609060ff166107a357604051631833a1e960e31b815260040160405180910390fd5b6105398383610dbb565b60606106c93383610dbb565b3360009081526003602052604090205460ff166107e957604051631833a1e960e31b815260040160405180910390fd5b604051632d35e2b960e21b8152600360048201526001600160a01b038216602482015273__$2004922c2908b386ae4415e9a8cdeda8c7$__9063b4d78ae49060440161062f565b610838611021565b610842600061104e565b565b6001546001600160a01b0316331461069257604051630f8d39bd60e41b815260040160405180910390fd5b6001600160a01b0381166000908152600b60209081526040918290208054835181840281018401909452808452606093928301828280156108cf57602002820191906000526020600020905b8154815260200190600101908083116108bb575b50505050509050919050565b3360009081526003602052604081205460ff1661090b57604051631833a1e960e31b815260040160405180910390fd5b6106c98261109e565b919050565b6001546001600160a01b0316331461094457604051630f8d39bd60e41b815260040160405180910390fd5b60005b82518110156105b75760008382815181106109645761096461192a565b602002602001015190506109788184610d5e565b508061098381611940565b915050610947565b3360009081526003602052604090205460ff166109bb57604051631833a1e960e31b815260040160405180910390fd5b6009805460ff1916911515919091179055565b3360009081526003602052604090205460ff166109fe57604051631833a1e960e31b815260040160405180910390fd5b60078190556001546040516370c41e3760e11b8152600481018390526001600160a01b039091169063e1883c6e90602401600060405180830381600087803b158015610a4957600080fd5b505af1158015610a5d573d6000803e3d6000fd5b50506040518392507f270b316b51ab2cf3a3bb8ca4d22e76a327d05e762fcaa8bd6afaf8cfde9270b79150600090a250565b60005b8151811015610ad6576000828281518110610aaf57610aaf61192a565b60200260200101519050610ac384826110d1565b5080610ace81611940565b915050610a92565b5080604051610ae5919061197b565b604051908190038120906001600160a01b0384169033907f1affae2fd35738ec8f6a4212f337c673b41aa2231f1bd5cfeb94463a93ace1f190600090a45050565b600080610b32836106a0565b90506000610b3f84610512565b9050610b4b81836119b1565b949350505050565b6000610b5e3361109e565b905090565b61069c82826110d1565b600081600003610b9057604051632ec760a560e01b815260040160405180910390fd5b61c35082600854610ba191906119b1565b1092915050565b600b6020528160005260406000208181548110610bc457600080fd5b90600052602060002001600091509150505481565b3360009081526003602052604090205460ff16610c0957604051631833a1e960e31b815260040160405180910390fd5b6001600160a01b038116610c305760405163e6c4247b60e01b815260040160405180910390fd5b600280546001600160a01b0319166001600160a01b0383169081179091556040517f563f24d71e856f79bec30e1aa96082a296cd13f0a71cec730a72b719fa0fa20290600090a250565b3360009081526003602052604090205460ff16610caa57604051631833a1e960e31b815260040160405180910390fd5b6001600160a01b038116610cd15760405163e6c4247b60e01b815260040160405180910390fd5b600680546001600160a01b0319166001600160a01b0383169081179091556040517f7161c7a7090d78e8031fca87e845a86b39e0eb9c15436933d2d4ce7f4520c4a590600090a250565b610d23611021565b6001600160a01b038116610d5257604051631e4fbdf760e01b8152600060048201526024015b60405180910390fd5b610d5b8161104e565b50565b610d6882826111bd565b6000828152600a602052604080822080546001600160a01b03191690555183916001600160a01b038416917f459bdaa71b6c253b49d34a7622dc4c6c1c416c0567571c068b392ba7172ddd4c9190a35050565b60606001600160a01b038316610de45760405163e6c4247b60e01b815260040160405180910390fd5b811580610df15750606482115b15610e0f57604051632ec760a560e01b815260040160405180910390fd5b61c35082600854610e2091906119b1565b10610e3e57604051637c5a3c3960e01b815260040160405180910390fd5b60008267ffffffffffffffff811115610e5957610e596116af565b604051908082528060200260200182016040528015610e82578160200160208202803683370190505b5060085490915060005b84811015610f325761c3508210610eb657604051637c5a3c3960e01b815260040160405180910390fd5b6000828152600a6020908152604080832080546001600160a01b0319166001600160a01b038b169081179091558352600b82528220805460018101825590835291200182905582518290849083908110610f1257610f1261192a565b602090810291909101015281610f2781611940565b925050600101610e8c565b5060088190556000610f4486866112fc565b905080610f6f57604051630bd7e48f60e21b81526001600160a01b0387166004820152602401610d49565b84600103610fcd5782600081518110610f8a57610f8a61192a565b6020026020010151866001600160a01b03167fc79cad949a408373456da7a9e88e8114102aa00e03a69733c70e3a0d95944ca760405160405180910390a3611017565b82604051610fdb919061197b565b604051908190038120906001600160a01b038816907f8ae8b18ed6d499ec84f68235bf3512b3db155f7911789805d36093467e5971c990600090a35b5090949350505050565b6000546001600160a01b031633146108425760405163118cdaa760e01b8152336004820152602401610d49565b600080546001600160a01b038381166001600160a01b0319831681178455604051919092169283917f8be0079c531659141344cd1fd0a4f28419497f9722a3daafe3b4186f6b6457e09190a35050565b6000806110ac836001610dbb565b9050806000815181106110c1576110c161192a565b6020026020010151915050919050565b6001600160a01b0382166110f85760405163e6c4247b60e01b815260040160405180910390fd5b6000818152600a60205260409020546001600160a01b0316331461112f57604051637f6ecdf560e01b815260040160405180910390fd5b6000818152600a6020526040902080546001600160a01b0319166001600160a01b03841617905561116081336111bd565b6001600160a01b0382166000818152600b6020908152604080832080546001810182559084529183209091018490555183929133917f16e5698e3d85c69c8d8cdb9a21893b33518e24d8cb69d9944d4bfd233464c3a29190a45050565b6001600160a01b0381166000908152600b6020526040812054905b818110156112f6576001600160a01b0383166000908152600b6020526040902080548591908390811061120d5761120d61192a565b9060005260206000200154036112e4576001600160a01b0383166000908152600b60205260409020805461124390600190611917565b815481106112535761125361192a565b9060005260206000200154600b6000856001600160a01b03166001600160a01b0316815260200190815260200160002082815481106112945761129461192a565b60009182526020808320909101929092556001600160a01b0385168152600b909152604090208054806112c9576112c96119c4565b600190038181906000526020600020016000905590556112f6565b806112ee81611940565b9150506111d8565b50505050565b600080611308836106a0565b9050600061131584610512565b600154604051630bc639c960e31b8152600481018590529192506001600160a01b031690635e31ce4890602401600060405180830381600087803b15801561135c57600080fd5b505af1158015611370573d6000803e3d6000fd5b505060095460ff1615915061168b9050576005546001600160a01b031661139782846119b1565b604051636eb1769f60e11b81526001600160a01b03888116600483015230602483015283169063dd62ed3e90604401602060405180830381865afa1580156113e3573d6000803e3d6000fd5b505050506040513d601f19601f8201168201806040525081019061140791906119da565b1015611426576040516313be252b60e01b815260040160405180910390fd5b6040516370a0823160e01b81526001600160a01b0387811660048301528491908316906370a0823190602401602060405180830381865afa15801561146f573d6000803e3d6000fd5b505050506040513d601f19601f8201168201806040525081019061149391906119da565b108061150957506040516370a0823160e01b81526001600160a01b0387811660048301528391908316906370a0823190602401602060405180830381865afa1580156114e3573d6000803e3d6000fd5b505050506040513d601f19601f8201168201806040525081019061150791906119da565b105b1561152757604051631e9acf1760e31b815260040160405180910390fd5b6001546040516323b872dd60e01b81526001600160a01b0388811660048301529182166024820152604481018590526000918316906323b872dd906064016020604051808303816000875af1158015611584573d6000803e3d6000fd5b505050506040513d601f19601f820116820180604052508101906115a891906119f3565b9050806115d757600154604051630bd7e48f60e21b81526001600160a01b039091166004820152602401610d49565b6006546040516323b872dd60e01b81526001600160a01b0389811660048301529182166024820152604481018590526000918416906323b872dd906064016020604051808303816000875af1158015611634573d6000803e3d6000fd5b505050506040513d601f19601f8201168201806040525081019061165891906119f3565b90508061168757600654604051630bd7e48f60e21b81526001600160a01b039091166004820152602401610d49565b5050505b506001949350505050565b6000602082840312156116a857600080fd5b5035919050565b634e487b7160e01b600052604160045260246000fd5b600082601f8301126116d657600080fd5b8135602067ffffffffffffffff808311156116f3576116f36116af565b8260051b604051601f19603f83011681018181108482111715611718576117186116af565b60405293845285810183019383810192508785111561173657600080fd5b83870191505b848210156117555781358352918301919083019061173c565b979650505050505050565b80356001600160a01b038116811461091457600080fd5b6000806040838503121561178a57600080fd5b823567ffffffffffffffff8111156117a157600080fd5b6117ad858286016116c5565b9250506117bc60208401611760565b90509250929050565b6000602082840312156117d757600080fd5b61053982611760565b600080604083850312156117f357600080fd5b823591506117bc60208401611760565b6000806040838503121561181657600080fd5b61181f83611760565b946020939093013593505050565b6020808252825182820181905260009190848201906040850190845b8181101561186557835183529284019291840191600101611849565b50909695505050505050565b8015158114610d5b57600080fd5b60006020828403121561189157600080fd5b813561053981611871565b600080604083850312156118af57600080fd5b6118b883611760565b9150602083013567ffffffffffffffff8111156118d457600080fd5b6118e0858286016116c5565b9150509250929050565b634e487b7160e01b600052601160045260246000fd5b80820281158282048414176106c9576106c96118ea565b818103818111156106c9576106c96118ea565b634e487b7160e01b600052603260045260246000fd5b600060018201611952576119526118ea565b5060010190565b60008261197657634e487b7160e01b600052601260045260246000fd5b500490565b815160009082906020808601845b838110156119a557815185529382019390820190600101611989565b50929695505050505050565b808201808211156106c9576106c96118ea565b634e487b7160e01b600052603160045260246000fd5b6000602082840312156119ec57600080fd5b5051919050565b600060208284031215611a0557600080fd5b81516105398161187156fea26469706673582212206dd368da8617071ce17aa8ab9104ef58f04a5f8536ba22aaa0dee3e112cd04ef64736f6c63430008140033",
  "linkReferences": {
    "contracts/gamma/libs/LibControlMgmt.sol": {
      "LibControlMgmt": [
        {
          "length": 20,
          "start": 2093
        },
        {
          "length": 20,
          "start": 2602
        }
      ]
    }
  },
  "deployedLinkReferences": {
    "contracts/gamma/libs/LibControlMgmt.sol": {
      "LibControlMgmt": [
        {
          "length": 20,
          "start": 1553
        },
        {
          "length": 20,
          "start": 2062
        }
      ]
    }
  }
}