{
  "_format": "hh-sol-artifact-1",
  "contractName": "NofGammaCardsV5",
  "sourceName": "contracts/gamma/GammaCards.v5.sol",
  "abi": [
    {
      "inputs": [
        {
          "internalType": "address",
          "name": "_daiTokenAddress",
          "type": "address"
        },
        {
          "internalType": "address",
          "name": "_gammaPacksContract",
          "type": "address"
        },
        {
          "internalType": "address",
          "name": "_gammaOffersContract",
          "type": "address"
        },
        {
          "internalType": "address",
          "name": "_gammaTicketsContract",
          "type": "address"
        },
        {
          "internalType": "string",
          "name": "_baseUri",
          "type": "string"
        },
        {
          "internalType": "address",
          "name": "_signer",
          "type": "address"
        }
      ],
      "stateMutability": "nonpayable",
      "type": "constructor"
    },
    {
      "inputs": [],
      "name": "CannotRemoveUserOffers",
      "type": "error"
    },
    {
      "inputs": [],
      "name": "CardLimitExceeded",
      "type": "error"
    },
    {
      "inputs": [
        {
          "internalType": "address",
          "name": "sender",
          "type": "address"
        },
        {
          "internalType": "uint256",
          "name": "tokenId",
          "type": "uint256"
        },
        {
          "internalType": "address",
          "name": "owner",
          "type": "address"
        }
      ],
      "name": "ERC721IncorrectOwner",
      "type": "error"
    },
    {
      "inputs": [
        {
          "internalType": "address",
          "name": "operator",
          "type": "address"
        },
        {
          "internalType": "uint256",
          "name": "tokenId",
          "type": "uint256"
        }
      ],
      "name": "ERC721InsufficientApproval",
      "type": "error"
    },
    {
      "inputs": [
        {
          "internalType": "address",
          "name": "approver",
          "type": "address"
        }
      ],
      "name": "ERC721InvalidApprover",
      "type": "error"
    },
    {
      "inputs": [
        {
          "internalType": "address",
          "name": "operator",
          "type": "address"
        }
      ],
      "name": "ERC721InvalidOperator",
      "type": "error"
    },
    {
      "inputs": [
        {
          "internalType": "address",
          "name": "owner",
          "type": "address"
        }
      ],
      "name": "ERC721InvalidOwner",
      "type": "error"
    },
    {
      "inputs": [
        {
          "internalType": "address",
          "name": "receiver",
          "type": "address"
        }
      ],
      "name": "ERC721InvalidReceiver",
      "type": "error"
    },
    {
      "inputs": [
        {
          "internalType": "address",
          "name": "sender",
          "type": "address"
        }
      ],
      "name": "ERC721InvalidSender",
      "type": "error"
    },
    {
      "inputs": [
        {
          "internalType": "uint256",
          "name": "tokenId",
          "type": "uint256"
        }
      ],
      "name": "ERC721NonexistentToken",
      "type": "error"
    },
    {
      "inputs": [],
      "name": "IncorrectPrizeAmount",
      "type": "error"
    },
    {
      "inputs": [],
      "name": "InsufficientCards",
      "type": "error"
    },
    {
      "inputs": [],
      "name": "InsufficientFunds",
      "type": "error"
    },
    {
      "inputs": [],
      "name": "InvalidAddress",
      "type": "error"
    },
    {
      "inputs": [],
      "name": "InvalidCardNumber",
      "type": "error"
    },
    {
      "inputs": [],
      "name": "InvalidSignature",
      "type": "error"
    },
    {
      "inputs": [],
      "name": "InvalidTransfer",
      "type": "error"
    },
    {
      "inputs": [],
      "name": "MustCompleteAlbum",
      "type": "error"
    },
    {
      "inputs": [],
      "name": "NotYourPack",
      "type": "error"
    },
    {
      "inputs": [],
      "name": "OnlyGammaPacksContract",
      "type": "error"
    },
    {
      "inputs": [],
      "name": "OnlyOffersContract",
      "type": "error"
    },
    {
      "inputs": [],
      "name": "OnlyOwners",
      "type": "error"
    },
    {
      "inputs": [
        {
          "internalType": "address",
          "name": "owner",
          "type": "address"
        }
      ],
      "name": "OwnableInvalidOwner",
      "type": "error"
    },
    {
      "inputs": [
        {
          "internalType": "address",
          "name": "account",
          "type": "address"
        }
      ],
      "name": "OwnableUnauthorizedAccount",
      "type": "error"
    },
    {
      "inputs": [],
      "name": "UserDoesNotHaveCardOrAlbum",
      "type": "error"
    },
    {
      "inputs": [],
      "name": "WrongPacksQuantity",
      "type": "error"
    },
    {
      "anonymous": false,
      "inputs": [
        {
          "indexed": true,
          "internalType": "address",
          "name": "player",
          "type": "address"
        },
        {
          "indexed": true,
          "internalType": "uint8",
          "name": "albumClass",
          "type": "uint8"
        }
      ],
      "name": "AlbumCompleted",
      "type": "event"
    },
    {
      "anonymous": false,
      "inputs": [
        {
          "indexed": true,
          "internalType": "address",
          "name": "owner",
          "type": "address"
        },
        {
          "indexed": true,
          "internalType": "address",
          "name": "approved",
          "type": "address"
        },
        {
          "indexed": true,
          "internalType": "uint256",
          "name": "tokenId",
          "type": "uint256"
        }
      ],
      "name": "Approval",
      "type": "event"
    },
    {
      "anonymous": false,
      "inputs": [
        {
          "indexed": true,
          "internalType": "address",
          "name": "owner",
          "type": "address"
        },
        {
          "indexed": true,
          "internalType": "address",
          "name": "operator",
          "type": "address"
        },
        {
          "indexed": false,
          "internalType": "bool",
          "name": "approved",
          "type": "bool"
        }
      ],
      "name": "ApprovalForAll",
      "type": "event"
    },
    {
      "anonymous": false,
      "inputs": [
        {
          "indexed": false,
          "internalType": "uint256",
          "name": "_fromTokenId",
          "type": "uint256"
        },
        {
          "indexed": false,
          "internalType": "uint256",
          "name": "_toTokenId",
          "type": "uint256"
        }
      ],
      "name": "BatchMetadataUpdate",
      "type": "event"
    },
    {
      "anonymous": false,
      "inputs": [
        {
          "indexed": true,
          "internalType": "address",
          "name": "player",
          "type": "address"
        },
        {
          "indexed": true,
          "internalType": "uint256",
          "name": "cardTokenId",
          "type": "uint256"
        },
        {
          "indexed": true,
          "internalType": "uint256",
          "name": "albumTokenId",
          "type": "uint256"
        }
      ],
      "name": "CardPasted",
      "type": "event"
    },
    {
      "anonymous": false,
      "inputs": [
        {
          "indexed": true,
          "internalType": "address",
          "name": "from",
          "type": "address"
        },
        {
          "indexed": true,
          "internalType": "address",
          "name": "to",
          "type": "address"
        },
        {
          "indexed": false,
          "internalType": "uint8",
          "name": "cardNumber",
          "type": "uint8"
        }
      ],
      "name": "CardTransfered",
      "type": "event"
    },
    {
      "anonymous": false,
      "inputs": [
        {
          "indexed": true,
          "internalType": "address",
          "name": "user",
          "type": "address"
        },
        {
          "indexed": true,
          "internalType": "uint8[]",
          "name": "cardsNumber",
          "type": "uint8[]"
        }
      ],
      "name": "CardsBurned",
      "type": "event"
    },
    {
      "anonymous": false,
      "inputs": [
        {
          "indexed": true,
          "internalType": "address",
          "name": "from",
          "type": "address"
        },
        {
          "indexed": true,
          "internalType": "address",
          "name": "to",
          "type": "address"
        },
        {
          "indexed": true,
          "internalType": "uint8[]",
          "name": "cardNumber",
          "type": "uint8[]"
        }
      ],
      "name": "CardsTransfered",
      "type": "event"
    },
    {
      "anonymous": false,
      "inputs": [
        {
          "indexed": true,
          "internalType": "address",
          "name": "receiver",
          "type": "address"
        },
        {
          "indexed": true,
          "internalType": "uint256",
          "name": "amount",
          "type": "uint256"
        }
      ],
      "name": "EmergencyWithdrawal",
      "type": "event"
    },
    {
      "anonymous": false,
      "inputs": [
        {
          "indexed": false,
          "internalType": "uint256",
          "name": "_tokenId",
          "type": "uint256"
        }
      ],
      "name": "MetadataUpdate",
      "type": "event"
    },
    {
      "anonymous": false,
      "inputs": [
        {
          "indexed": true,
          "internalType": "address",
          "name": "newGammaOffersContract",
          "type": "address"
        }
      ],
      "name": "NewGammaOffersContract",
      "type": "event"
    },
    {
      "anonymous": false,
      "inputs": [
        {
          "indexed": true,
          "internalType": "address",
          "name": "newGammaPacksContract",
          "type": "address"
        }
      ],
      "name": "NewGammaPacksContract",
      "type": "event"
    },
    {
      "anonymous": false,
      "inputs": [
        {
          "indexed": true,
          "internalType": "address",
          "name": "newGammaTicketContract",
          "type": "address"
        }
      ],
      "name": "NewGammaTicketsContract",
      "type": "event"
    },
    {
      "anonymous": false,
      "inputs": [
        {
          "indexed": true,
          "internalType": "address",
          "name": "newSigner",
          "type": "address"
        }
      ],
      "name": "NewSigner",
      "type": "event"
    },
    {
      "anonymous": false,
      "inputs": [
        {
          "indexed": true,
          "internalType": "string",
          "name": "newMainUri",
          "type": "string"
        },
        {
          "indexed": true,
          "internalType": "string",
          "name": "newSecondaryUri",
          "type": "string"
        }
      ],
      "name": "NewUris",
      "type": "event"
    },
    {
      "anonymous": false,
      "inputs": [
        {
          "indexed": true,
          "internalType": "address",
          "name": "from",
          "type": "address"
        },
        {
          "indexed": true,
          "internalType": "address",
          "name": "to",
          "type": "address"
        },
        {
          "indexed": false,
          "internalType": "uint8",
          "name": "cardNumberFrom",
          "type": "uint8"
        },
        {
          "indexed": false,
          "internalType": "uint8",
          "name": "cardNumberTo",
          "type": "uint8"
        }
      ],
      "name": "OfferCardsExchanged",
      "type": "event"
    },
    {
      "anonymous": false,
      "inputs": [
        {
          "indexed": true,
          "internalType": "address",
          "name": "previousOwner",
          "type": "address"
        },
        {
          "indexed": true,
          "internalType": "address",
          "name": "newOwner",
          "type": "address"
        }
      ],
      "name": "OwnershipTransferred",
      "type": "event"
    },
    {
      "anonymous": false,
      "inputs": [
        {
          "indexed": true,
          "internalType": "address",
          "name": "player",
          "type": "address"
        },
        {
          "indexed": true,
          "internalType": "uint8[]",
          "name": "packData",
          "type": "uint8[]"
        },
        {
          "indexed": true,
          "internalType": "uint256",
          "name": "packNumber",
          "type": "uint256"
        }
      ],
      "name": "PackOpened",
      "type": "event"
    },
    {
      "anonymous": false,
      "inputs": [
        {
          "indexed": true,
          "internalType": "address",
          "name": "from",
          "type": "address"
        },
        {
          "indexed": true,
          "internalType": "address",
          "name": "to",
          "type": "address"
        },
        {
          "indexed": true,
          "internalType": "uint256",
          "name": "tokenId",
          "type": "uint256"
        }
      ],
      "name": "Transfer",
      "type": "event"
    },
    {
      "inputs": [],
      "name": "DAI_TOKEN",
      "outputs": [
        {
          "internalType": "address",
          "name": "",
          "type": "address"
        }
      ],
      "stateMutability": "view",
      "type": "function"
    },
    {
      "inputs": [
        {
          "internalType": "address",
          "name": "_newOwner",
          "type": "address"
        }
      ],
      "name": "addOwner",
      "outputs": [],
      "stateMutability": "nonpayable",
      "type": "function"
    },
    {
      "inputs": [
        {
          "internalType": "address",
          "name": "_newSigner",
          "type": "address"
        }
      ],
      "name": "addSigner",
      "outputs": [],
      "stateMutability": "nonpayable",
      "type": "function"
    },
    {
      "inputs": [
        {
          "internalType": "address",
          "name": "to",
          "type": "address"
        },
        {
          "internalType": "uint256",
          "name": "tokenId",
          "type": "uint256"
        }
      ],
      "name": "approve",
      "outputs": [],
      "stateMutability": "nonpayable",
      "type": "function"
    },
    {
      "inputs": [
        {
          "internalType": "address",
          "name": "owner",
          "type": "address"
        }
      ],
      "name": "balanceOf",
      "outputs": [
        {
          "internalType": "uint256",
          "name": "",
          "type": "uint256"
        }
      ],
      "stateMutability": "view",
      "type": "function"
    },
    {
      "inputs": [
        {
          "internalType": "uint256",
          "name": "tokenId",
          "type": "uint256"
        }
      ],
      "name": "burn",
      "outputs": [],
      "stateMutability": "nonpayable",
      "type": "function"
    },
    {
      "inputs": [
        {
          "internalType": "uint8[]",
          "name": "cardNumbers",
          "type": "uint8[]"
        }
      ],
      "name": "burnCards",
      "outputs": [],
      "stateMutability": "nonpayable",
      "type": "function"
    },
    {
      "inputs": [
        {
          "internalType": "uint8",
          "name": "_maxPacksToOpenAtOnce",
          "type": "uint8"
        }
      ],
      "name": "changeMaxPacksToOpenAtOnce",
      "outputs": [],
      "stateMutability": "nonpayable",
      "type": "function"
    },
    {
      "inputs": [
        {
          "internalType": "uint256",
          "name": "newPackPrice",
          "type": "uint256"
        }
      ],
      "name": "changePackPrice",
      "outputs": [],
      "stateMutability": "nonpayable",
      "type": "function"
    },
    {
      "inputs": [
        {
          "internalType": "bool",
          "name": "required",
          "type": "bool"
        }
      ],
      "name": "changeRequireOfferValidationInMint",
      "outputs": [],
      "stateMutability": "nonpayable",
      "type": "function"
    },
    {
      "inputs": [
        {
          "internalType": "bool",
          "name": "required",
          "type": "bool"
        }
      ],
      "name": "changeRequireOfferValidationInTransfer",
      "outputs": [],
      "stateMutability": "nonpayable",
      "type": "function"
    },
    {
      "inputs": [
        {
          "internalType": "bool",
          "name": "required",
          "type": "bool"
        }
      ],
      "name": "changeRequireOpenPackSignerValidation",
      "outputs": [],
      "stateMutability": "nonpayable",
      "type": "function"
    },
    {
      "inputs": [
        {
          "internalType": "uint256",
          "name": "amount",
          "type": "uint256"
        }
      ],
      "name": "emergencyWithdraw",
      "outputs": [],
      "stateMutability": "nonpayable",
      "type": "function"
    },
    {
      "inputs": [
        {
          "internalType": "address",
          "name": "from",
          "type": "address"
        },
        {
          "internalType": "uint8",
          "name": "cardNumberFrom",
          "type": "uint8"
        },
        {
          "internalType": "address",
          "name": "to",
          "type": "address"
        },
        {
          "internalType": "uint8",
          "name": "cardNumberTo",
          "type": "uint8"
        }
      ],
      "name": "exchangeCardsOffer",
      "outputs": [],
      "stateMutability": "nonpayable",
      "type": "function"
    },
    {
      "inputs": [],
      "name": "finishAlbum",
      "outputs": [
        {
          "internalType": "bool",
          "name": "",
          "type": "bool"
        }
      ],
      "stateMutability": "nonpayable",
      "type": "function"
    },
    {
      "inputs": [],
      "name": "gammaOffersContract",
      "outputs": [
        {
          "internalType": "contract IgammaOffersContract",
          "name": "",
          "type": "address"
        }
      ],
      "stateMutability": "view",
      "type": "function"
    },
    {
      "inputs": [],
      "name": "gammaPacksContract",
      "outputs": [
        {
          "internalType": "contract IgammaPacksContract",
          "name": "",
          "type": "address"
        }
      ],
      "stateMutability": "view",
      "type": "function"
    },
    {
      "inputs": [],
      "name": "gammaTicketsContract",
      "outputs": [
        {
          "internalType": "contract IgammaTicketsContract",
          "name": "",
          "type": "address"
        }
      ],
      "stateMutability": "view",
      "type": "function"
    },
    {
      "inputs": [
        {
          "internalType": "uint256",
          "name": "tokenId",
          "type": "uint256"
        }
      ],
      "name": "getApproved",
      "outputs": [
        {
          "internalType": "address",
          "name": "",
          "type": "address"
        }
      ],
      "stateMutability": "view",
      "type": "function"
    },
    {
      "inputs": [
        {
          "internalType": "address",
          "name": "user",
          "type": "address"
        }
      ],
      "name": "getBurnedCardQttyByUser",
      "outputs": [
        {
          "internalType": "uint256",
          "name": "",
          "type": "uint256"
        }
      ],
      "stateMutability": "view",
      "type": "function"
    },
    {
      "inputs": [
        {
          "internalType": "address",
          "name": "user",
          "type": "address"
        },
        {
          "internalType": "uint8",
          "name": "cardNum",
          "type": "uint8"
        }
      ],
      "name": "getCardQuantityByUser",
      "outputs": [
        {
          "internalType": "uint8",
          "name": "",
          "type": "uint8"
        }
      ],
      "stateMutability": "view",
      "type": "function"
    },
    {
      "inputs": [
        {
          "internalType": "address",
          "name": "user",
          "type": "address"
        }
      ],
      "name": "getCardsByUser",
      "outputs": [
        {
          "internalType": "uint8[]",
          "name": "",
          "type": "uint8[]"
        },
        {
          "internalType": "uint8[]",
          "name": "",
          "type": "uint8[]"
        },
        {
          "internalType": "bool[]",
          "name": "",
          "type": "bool[]"
        }
      ],
      "stateMutability": "view",
      "type": "function"
    },
    {
      "inputs": [],
      "name": "getLotteryPrize",
      "outputs": [
        {
          "internalType": "uint256",
          "name": "",
          "type": "uint256"
        }
      ],
      "stateMutability": "view",
      "type": "function"
    },
    {
      "inputs": [
        {
          "internalType": "address",
          "name": "user",
          "type": "address"
        },
        {
          "internalType": "uint8",
          "name": "cardNum",
          "type": "uint8"
        }
      ],
      "name": "hasCard",
      "outputs": [
        {
          "internalType": "bool",
          "name": "has",
          "type": "bool"
        }
      ],
      "stateMutability": "view",
      "type": "function"
    },
    {
      "inputs": [
        {
          "internalType": "address",
          "name": "user",
          "type": "address"
        },
        {
          "internalType": "uint8",
          "name": "cardNumber",
          "type": "uint8"
        }
      ],
      "name": "hasCardByOffer",
      "outputs": [
        {
          "internalType": "bool",
          "name": "has",
          "type": "bool"
        }
      ],
      "stateMutability": "view",
      "type": "function"
    },
    {
      "inputs": [
        {
          "internalType": "address",
          "name": "owner",
          "type": "address"
        },
        {
          "internalType": "address",
          "name": "operator",
          "type": "address"
        }
      ],
      "name": "isApprovedForAll",
      "outputs": [
        {
          "internalType": "bool",
          "name": "",
          "type": "bool"
        }
      ],
      "stateMutability": "view",
      "type": "function"
    },
    {
      "inputs": [
        {
          "internalType": "address",
          "name": "user",
          "type": "address"
        }
      ],
      "name": "isOwner",
      "outputs": [
        {
          "internalType": "bool",
          "name": "",
          "type": "bool"
        }
      ],
      "stateMutability": "view",
      "type": "function"
    },
    {
      "inputs": [
        {
          "internalType": "address",
          "name": "user",
          "type": "address"
        }
      ],
      "name": "isSigner",
      "outputs": [
        {
          "internalType": "bool",
          "name": "",
          "type": "bool"
        }
      ],
      "stateMutability": "view",
      "type": "function"
    },
    {
      "inputs": [
        {
          "internalType": "uint8",
          "name": "cardNum",
          "type": "uint8"
        }
      ],
      "name": "mintCard",
      "outputs": [],
      "stateMutability": "nonpayable",
      "type": "function"
    },
    {
      "inputs": [],
      "name": "name",
      "outputs": [
        {
          "internalType": "string",
          "name": "",
          "type": "string"
        }
      ],
      "stateMutability": "view",
      "type": "function"
    },
    {
      "inputs": [
        {
          "internalType": "uint256",
          "name": "packNumber",
          "type": "uint256"
        },
        {
          "internalType": "uint8[]",
          "name": "packData",
          "type": "uint8[]"
        },
        {
          "internalType": "bytes",
          "name": "signature",
          "type": "bytes"
        }
      ],
      "name": "openPack",
      "outputs": [],
      "stateMutability": "nonpayable",
      "type": "function"
    },
    {
      "inputs": [
        {
          "internalType": "uint8",
          "name": "packsQuantity",
          "type": "uint8"
        },
        {
          "internalType": "uint256[]",
          "name": "packsNumber",
          "type": "uint256[]"
        },
        {
          "internalType": "uint8[][]",
          "name": "packsData",
          "type": "uint8[][]"
        },
        {
          "internalType": "bytes[]",
          "name": "signatures",
          "type": "bytes[]"
        }
      ],
      "name": "openPacks",
      "outputs": [],
      "stateMutability": "nonpayable",
      "type": "function"
    },
    {
      "inputs": [],
      "name": "owner",
      "outputs": [
        {
          "internalType": "address",
          "name": "",
          "type": "address"
        }
      ],
      "stateMutability": "view",
      "type": "function"
    },
    {
      "inputs": [
        {
          "internalType": "uint256",
          "name": "tokenId",
          "type": "uint256"
        }
      ],
      "name": "ownerOf",
      "outputs": [
        {
          "internalType": "address",
          "name": "",
          "type": "address"
        }
      ],
      "stateMutability": "view",
      "type": "function"
    },
    {
      "inputs": [
        {
          "internalType": "address",
          "name": "user",
          "type": "address"
        },
        {
          "internalType": "uint8",
          "name": "cardNumber",
          "type": "uint8"
        }
      ],
      "name": "removeCardByOffer",
      "outputs": [],
      "stateMutability": "nonpayable",
      "type": "function"
    },
    {
      "inputs": [
        {
          "internalType": "address",
          "name": "_ownerToRemove",
          "type": "address"
        }
      ],
      "name": "removeOwner",
      "outputs": [],
      "stateMutability": "nonpayable",
      "type": "function"
    },
    {
      "inputs": [
        {
          "internalType": "address",
          "name": "_signerToRemove",
          "type": "address"
        }
      ],
      "name": "removeSigner",
      "outputs": [],
      "stateMutability": "nonpayable",
      "type": "function"
    },
    {
      "inputs": [],
      "name": "renounceOwnership",
      "outputs": [],
      "stateMutability": "nonpayable",
      "type": "function"
    },
    {
      "inputs": [
        {
          "internalType": "address",
          "name": "user",
          "type": "address"
        },
        {
          "internalType": "uint8",
          "name": "cardNumber",
          "type": "uint8"
        }
      ],
      "name": "restoreCardByOffer",
      "outputs": [],
      "stateMutability": "nonpayable",
      "type": "function"
    },
    {
      "inputs": [],
      "name": "s_baseUri",
      "outputs": [
        {
          "internalType": "string",
          "name": "",
          "type": "string"
        }
      ],
      "stateMutability": "view",
      "type": "function"
    },
    {
      "inputs": [
        {
          "internalType": "address",
          "name": "user",
          "type": "address"
        }
      ],
      "name": "s_burnedCards",
      "outputs": [
        {
          "internalType": "uint256",
          "name": "amount",
          "type": "uint256"
        }
      ],
      "stateMutability": "view",
      "type": "function"
    },
    {
      "inputs": [
        {
          "internalType": "uint256",
          "name": "tokenId",
          "type": "uint256"
        }
      ],
      "name": "s_cards",
      "outputs": [
        {
          "internalType": "uint256",
          "name": "tokenId",
          "type": "uint256"
        },
        {
          "internalType": "uint256",
          "name": "number",
          "type": "uint256"
        },
        {
          "internalType": "bool",
          "name": "pasted",
          "type": "bool"
        },
        {
          "internalType": "uint8",
          "name": "class",
          "type": "uint8"
        },
        {
          "internalType": "uint256",
          "name": "completion",
          "type": "uint256"
        }
      ],
      "stateMutability": "view",
      "type": "function"
    },
    {
      "inputs": [
        {
          "internalType": "address",
          "name": "user",
          "type": "address"
        },
        {
          "internalType": "uint8",
          "name": "cardNumber",
          "type": "uint8"
        }
      ],
      "name": "s_cardsByUser",
      "outputs": [
        {
          "internalType": "uint8",
          "name": "amount",
          "type": "uint8"
        }
      ],
      "stateMutability": "view",
      "type": "function"
    },
    {
      "inputs": [
        {
          "internalType": "uint256",
          "name": "cardNumber",
          "type": "uint256"
        }
      ],
      "name": "s_cardsInventory",
      "outputs": [
        {
          "internalType": "uint256",
          "name": "amount",
          "type": "uint256"
        }
      ],
      "stateMutability": "view",
      "type": "function"
    },
    {
      "inputs": [],
      "name": "s_lotteryPrizePercentage",
      "outputs": [
        {
          "internalType": "uint8",
          "name": "",
          "type": "uint8"
        }
      ],
      "stateMutability": "view",
      "type": "function"
    },
    {
      "inputs": [],
      "name": "s_mainAlbumPrize",
      "outputs": [
        {
          "internalType": "uint256",
          "name": "",
          "type": "uint256"
        }
      ],
      "stateMutability": "view",
      "type": "function"
    },
    {
      "inputs": [],
      "name": "s_mainUri",
      "outputs": [
        {
          "internalType": "string",
          "name": "",
          "type": "string"
        }
      ],
      "stateMutability": "view",
      "type": "function"
    },
    {
      "inputs": [],
      "name": "s_maxPacksToOpenAtOnce",
      "outputs": [
        {
          "internalType": "uint8",
          "name": "",
          "type": "uint8"
        }
      ],
      "stateMutability": "view",
      "type": "function"
    },
    {
      "inputs": [],
      "name": "s_packPrice",
      "outputs": [
        {
          "internalType": "uint256",
          "name": "",
          "type": "uint256"
        }
      ],
      "stateMutability": "view",
      "type": "function"
    },
    {
      "inputs": [],
      "name": "s_prizesBalance",
      "outputs": [
        {
          "internalType": "uint256",
          "name": "",
          "type": "uint256"
        }
      ],
      "stateMutability": "view",
      "type": "function"
    },
    {
      "inputs": [],
      "name": "s_requireOfferValidationInMint",
      "outputs": [
        {
          "internalType": "bool",
          "name": "",
          "type": "bool"
        }
      ],
      "stateMutability": "view",
      "type": "function"
    },
    {
      "inputs": [],
      "name": "s_requireOfferValidationInTransfer",
      "outputs": [
        {
          "internalType": "bool",
          "name": "",
          "type": "bool"
        }
      ],
      "stateMutability": "view",
      "type": "function"
    },
    {
      "inputs": [],
      "name": "s_requireOpenPackSignerValidation",
      "outputs": [
        {
          "internalType": "bool",
          "name": "",
          "type": "bool"
        }
      ],
      "stateMutability": "view",
      "type": "function"
    },
    {
      "inputs": [],
      "name": "s_secondaryAlbumPrize",
      "outputs": [
        {
          "internalType": "uint256",
          "name": "",
          "type": "uint256"
        }
      ],
      "stateMutability": "view",
      "type": "function"
    },
    {
      "inputs": [],
      "name": "s_secondaryUri",
      "outputs": [
        {
          "internalType": "string",
          "name": "",
          "type": "string"
        }
      ],
      "stateMutability": "view",
      "type": "function"
    },
    {
      "inputs": [],
      "name": "s_tokenIdCounter",
      "outputs": [
        {
          "internalType": "uint256",
          "name": "",
          "type": "uint256"
        }
      ],
      "stateMutability": "view",
      "type": "function"
    },
    {
      "inputs": [
        {
          "internalType": "address",
          "name": "from",
          "type": "address"
        },
        {
          "internalType": "address",
          "name": "to",
          "type": "address"
        },
        {
          "internalType": "uint256",
          "name": "tokenId",
          "type": "uint256"
        }
      ],
      "name": "safeTransferFrom",
      "outputs": [],
      "stateMutability": "nonpayable",
      "type": "function"
    },
    {
      "inputs": [
        {
          "internalType": "address",
          "name": "from",
          "type": "address"
        },
        {
          "internalType": "address",
          "name": "to",
          "type": "address"
        },
        {
          "internalType": "uint256",
          "name": "tokenId",
          "type": "uint256"
        },
        {
          "internalType": "bytes",
          "name": "data",
          "type": "bytes"
        }
      ],
      "name": "safeTransferFrom",
      "outputs": [],
      "stateMutability": "nonpayable",
      "type": "function"
    },
    {
      "inputs": [
        {
          "internalType": "address",
          "name": "operator",
          "type": "address"
        },
        {
          "internalType": "bool",
          "name": "approved",
          "type": "bool"
        }
      ],
      "name": "setApprovalForAll",
      "outputs": [],
      "stateMutability": "nonpayable",
      "type": "function"
    },
    {
      "inputs": [
        {
          "internalType": "address",
          "name": "_gammaOffersContract",
          "type": "address"
        }
      ],
      "name": "setGammaOffersContract",
      "outputs": [],
      "stateMutability": "nonpayable",
      "type": "function"
    },
    {
      "inputs": [
        {
          "internalType": "address",
          "name": "_gammaPacksContract",
          "type": "address"
        }
      ],
      "name": "setGammaPacksContract",
      "outputs": [],
      "stateMutability": "nonpayable",
      "type": "function"
    },
    {
      "inputs": [
        {
          "internalType": "address",
          "name": "_gammaTicketsContract",
          "type": "address"
        }
      ],
      "name": "setGammaTicketsContract",
      "outputs": [],
      "stateMutability": "nonpayable",
      "type": "function"
    },
    {
      "inputs": [
        {
          "internalType": "uint8",
          "name": "amount",
          "type": "uint8"
        }
      ],
      "name": "setLotteryPrizePercentage",
      "outputs": [],
      "stateMutability": "nonpayable",
      "type": "function"
    },
    {
      "inputs": [
        {
          "internalType": "uint256",
          "name": "amount",
          "type": "uint256"
        }
      ],
      "name": "setMainAlbumPrize",
      "outputs": [],
      "stateMutability": "nonpayable",
      "type": "function"
    },
    {
      "inputs": [
        {
          "internalType": "uint256",
          "name": "amount",
          "type": "uint256"
        }
      ],
      "name": "setPrizesBalance",
      "outputs": [],
      "stateMutability": "nonpayable",
      "type": "function"
    },
    {
      "inputs": [
        {
          "internalType": "uint256",
          "name": "amount",
          "type": "uint256"
        }
      ],
      "name": "setSecondaryAlbumPrize",
      "outputs": [],
      "stateMutability": "nonpayable",
      "type": "function"
    },
    {
      "inputs": [
        {
          "internalType": "string",
          "name": "newMainUri",
          "type": "string"
        },
        {
          "internalType": "string",
          "name": "newSecondaryUri",
          "type": "string"
        }
      ],
      "name": "setUris",
      "outputs": [],
      "stateMutability": "nonpayable",
      "type": "function"
    },
    {
      "inputs": [
        {
          "internalType": "bytes4",
          "name": "interfaceId",
          "type": "bytes4"
        }
      ],
      "name": "supportsInterface",
      "outputs": [
        {
          "internalType": "bool",
          "name": "",
          "type": "bool"
        }
      ],
      "stateMutability": "view",
      "type": "function"
    },
    {
      "inputs": [],
      "name": "symbol",
      "outputs": [
        {
          "internalType": "string",
          "name": "",
          "type": "string"
        }
      ],
      "stateMutability": "view",
      "type": "function"
    },
    {
      "inputs": [
        {
          "internalType": "address",
          "name": "user",
          "type": "address"
        }
      ],
      "name": "testAddCards",
      "outputs": [],
      "stateMutability": "nonpayable",
      "type": "function"
    },
    {
      "inputs": [
        {
          "internalType": "address",
          "name": "user",
          "type": "address"
        },
        {
          "internalType": "uint256",
          "name": "packNumber",
          "type": "uint256"
        },
        {
          "internalType": "uint8[]",
          "name": "packData",
          "type": "uint8[]"
        }
      ],
      "name": "testOpenPack",
      "outputs": [],
      "stateMutability": "nonpayable",
      "type": "function"
    },
    {
      "inputs": [
        {
          "internalType": "uint256",
          "name": "tokenId",
          "type": "uint256"
        }
      ],
      "name": "tokenURI",
      "outputs": [
        {
          "internalType": "string",
          "name": "",
          "type": "string"
        }
      ],
      "stateMutability": "view",
      "type": "function"
    },
    {
      "inputs": [
        {
          "internalType": "address",
          "name": "to",
          "type": "address"
        },
        {
          "internalType": "uint8",
          "name": "cardNumber",
          "type": "uint8"
        }
      ],
      "name": "transferCard",
      "outputs": [],
      "stateMutability": "nonpayable",
      "type": "function"
    },
    {
      "inputs": [
        {
          "internalType": "address",
          "name": "to",
          "type": "address"
        },
        {
          "internalType": "uint8[]",
          "name": "cardNumbers",
          "type": "uint8[]"
        }
      ],
      "name": "transferCards",
      "outputs": [],
      "stateMutability": "nonpayable",
      "type": "function"
    },
    {
      "inputs": [
        {
          "internalType": "address",
          "name": "from",
          "type": "address"
        },
        {
          "internalType": "address",
          "name": "to",
          "type": "address"
        },
        {
          "internalType": "uint256",
          "name": "tokenId",
          "type": "uint256"
        }
      ],
      "name": "transferFrom",
      "outputs": [],
      "stateMutability": "nonpayable",
      "type": "function"
    },
    {
      "inputs": [
        {
          "internalType": "address",
          "name": "newOwner",
          "type": "address"
        }
      ],
      "name": "transferOwnership",
      "outputs": [],
      "stateMutability": "nonpayable",
      "type": "function"
    },
    {
      "inputs": [
        {
          "internalType": "uint256",
          "name": "packNumber",
          "type": "uint256"
        },
        {
          "internalType": "uint8[]",
          "name": "packData",
          "type": "uint8[]"
        },
        {
          "internalType": "bytes",
          "name": "signature",
          "type": "bytes"
        }
      ],
      "name": "verifyPackSigner",
      "outputs": [
        {
          "internalType": "address",
          "name": "signer",
          "type": "address"
        }
      ],
      "stateMutability": "view",
      "type": "function"
    }
  ],
  "bytecode": "0x6080604052600f805461ffff191661320a1790556710a741a462780000601155600060125567d02ab486cedc0000601355670de0b6b3a76400006014556018805462ffff001916620101001790553480156200005a57600080fd5b506040516200592d3803806200592d8339810160408190526200007d91620003ae565b336040518060400160405280600a81526020016947616d6d61436172647360b01b815250604051806040016040528060068152602001654e4f465f474360d01b8152508160009081620000d1919062000554565b506001620000e0828262000554565b5050506001600160a01b0381166200011257604051631e4fbdf760e01b81526000600482015260240160405180910390fd5b6200011d8162000303565b50336000908152600b60205260409020805460ff19166001179055600f80546001600160a01b03888116620100000262010000600160b01b031990921691909117909155600880548783166001600160a01b031991821617909155600a805486841690831617905560098054928716929091169190911790556017620001a4838262000554565b5060408051808201825260018152602f60f81b60208083019190915282518084018452600381526203132360ec1b8183015283518085018552600681526523173539b7b760d11b81840152935162000203946017949390910162000620565b6040516020818303038152906040526015908162000222919062000554565b5060408051808201825260018152602f60f81b60208083019190915282518084018452600381526231323160e81b8183015283518085018552600681526523173539b7b760d11b81840152935162000281946017949390910162000620565b60405160208183030381529060405260169081620002a0919062000554565b506001600160a01b0381166000908152600e60205260408120805460ff191660011790555b607a811015620002f6576000818152601a602052604090206001905580620002ed81620006dd565b915050620002c5565b5050505050505062000705565b600780546001600160a01b038381166001600160a01b0319831681179093556040519116919082907f8be0079c531659141344cd1fd0a4f28419497f9722a3daafe3b4186f6b6457e090600090a35050565b80516001600160a01b03811681146200036d57600080fd5b919050565b634e487b7160e01b600052604160045260246000fd5b60005b83811015620003a55781810151838201526020016200038b565b50506000910152565b60008060008060008060c08789031215620003c857600080fd5b620003d38762000355565b9550620003e36020880162000355565b9450620003f36040880162000355565b9350620004036060880162000355565b60808801519093506001600160401b03808211156200042157600080fd5b818901915089601f8301126200043657600080fd5b8151818111156200044b576200044b62000372565b604051601f8201601f19908116603f0116810190838211818310171562000476576200047662000372565b816040528281528c60208487010111156200049057600080fd5b620004a383602083016020880162000388565b8096505050505050620004b960a0880162000355565b90509295509295509295565b600181811c90821680620004da57607f821691505b602082108103620004fb57634e487b7160e01b600052602260045260246000fd5b50919050565b601f8211156200054f57600081815260208120601f850160051c810160208610156200052a5750805b601f850160051c820191505b818110156200054b5782815560010162000536565b5050505b505050565b81516001600160401b0381111562000570576200057062000372565b6200058881620005818454620004c5565b8462000501565b602080601f831160018114620005c05760008415620005a75750858301515b600019600386901b1c1916600185901b1785556200054b565b600085815260208120601f198616915b82811015620005f157888601518255948401946001909101908401620005d0565b5085821015620006105787850151600019600388901b60f8161c191681555b5050505050600190811b01905550565b60008086546200063081620004c5565b600182811680156200064b5760018114620006615762000692565b60ff198416875282151583028701945062000692565b8a60005260208060002060005b85811015620006895781548a8201529084019082016200066e565b50505082870194505b505050508551620006a8818360208a0162000388565b8551910190620006bd81836020890162000388565b8451910190620006d281836020880162000388565b019695505050505050565b600060018201620006fe57634e487b7160e01b600052601160045260246000fd5b5060010190565b61521880620007156000396000f3fe608060405234801561001057600080fd5b506004361061045f5760003560e01c80637232d7d41161024c578063ad1684fa11610146578063dbfc05cf116100c3578063e8a7e31d11610087578063e8a7e31d14610a64578063e985e9c514610a6c578063eb12d61e14610a7f578063f2fde38b14610a92578063f98fd28314610aa557600080fd5b8063dbfc05cf14610a05578063ddb975e814610a18578063e1883c6e14610a2b578063e4ae0b9b14610a3e578063e606df8714610a4b57600080fd5b8063c87b56dd1161010a578063c87b56dd146109bb578063cafaa473146109ce578063d322b563146109e1578063d7093f40146109f4578063d780c477146109fd57600080fd5b8063ad1684fa14610966578063b352618514610979578063b88d4fde14610982578063ba6c0fbc14610995578063bf400a6a146109a857600080fd5b80638da5cb5b116101d45780639ff26efd116101985780639ff26efd146108f2578063a1af8ad414610920578063a22cb46514610933578063a419811d14610946578063ab5351601461095957600080fd5b80638da5cb5b146108ab5780639038f414146108bc57806395d89b41146108c45780639a5613ad146108cc5780639c7f707f146108df57600080fd5b80637df73e271161021b5780637df73e271461083057806382d8a1181461085c578063886eb60f1461086557806388e0ef80146108785780638bf670c81461089857600080fd5b80637232d7d4146107ef57806379e8dadc146108025780637ce65f7b1461080a5780637cf86b721461081d57600080fd5b8063267b841d1161035d5780635312ea8e116102e55780636d0af178116102a95780636d0af1781461079c5780637065cb48146107ae57806370a08231146107c1578063715018a6146107d45780637155a3ac146107dc57600080fd5b80635312ea8e146107475780635e31ce481461075a5780636352211e1461076d578063656bd0ad1461078057806368cc5bc11461078957600080fd5b806330f5cc581161032c57806330f5cc58146106945780634039327e146106a757806342842e0e146106af57806342966c68146106c25780634c03cd0b146106d557600080fd5b8063267b841d1461062f5780632ca699e7146106425780632f54bf6e146106555780632f9e026a1461068157600080fd5b8063147baac7116103eb578063203335f6116103af578063203335f6146105da57806320965a5f146105ed57806321a7c6b01461060057806323b872dd14610609578063241a08fe1461061c57600080fd5b8063147baac71461056a57806314cca36a1461057c578063155e2f921461058f5780631585cc4e146105a2578063173825d9146105c757600080fd5b8063081812fc11610432578063081812fc146104f1578063095ea7b31461051c5780630e316ab714610531578063128916dc146105445780631306952c1461055757600080fd5b806301ffc9a7146104645780630435dcaf1461048c57806306fdde03146104ae57806307b2e246146104c3575b600080fd5b610477610472366004614389565b610ab8565b60405190151581526020015b60405180910390f35b61049f61049a3660046143bb565b610ac9565b60405161048393929190614416565b6104b6610e79565b60405161048391906144d1565b6104e36104d13660046143bb565b601b6020526000908152604090205481565b604051908152602001610483565b6105046104ff3660046144e4565b610f0b565b6040516001600160a01b039091168152602001610483565b61052f61052a3660046144fd565b610f34565b005b61052f61053f3660046143bb565b610f43565b61052f6105523660046143bb565b610fe9565b61050461056536600461461a565b61108c565b60185461047790610100900460ff1681565b600a54610504906001600160a01b031681565b61052f61059d3660046146b4565b611118565b6105b56105b03660046146b4565b611195565b60405160ff9091168152602001610483565b61052f6105d53660046143bb565b6111ef565b61052f6105e83660046147b3565b611266565b61052f6105fb3660046148a9565b611325565b6104e360135481565b61052f6106173660046148ea565b611941565b61052f61062a36600461492b565b6119d1565b61052f61063d36600461461a565b611a17565b61052f6106503660046146b4565b611a24565b6104776106633660046143bb565b6001600160a01b03166000908152600b602052604090205460ff1690565b600854610504906001600160a01b031681565b61052f6106a2366004614946565b611c77565b6104b6611eff565b61052f6106bd3660046148ea565b611f8d565b61052f6106d03660046144e4565b611fad565b6107176106e33660046144e4565b60196020526000908152604090208054600182015460028301546003909301549192909160ff808316926101009004169085565b6040805195865260208601949094529115159284019290925260ff9091166060830152608082015260a001610483565b61052f6107553660046144e4565b611fb9565b61052f6107683660046144e4565b6120d4565b61050461077b3660046144e4565b612119565b6104e360115481565b61052f6107973660046149ac565b612124565b600f546105b590610100900460ff1681565b61052f6107bc3660046143bb565b612170565b6104e36107cf3660046143bb565b6121e7565b61052f61222f565b61052f6107ea3660046146b4565b612243565b61052f6107fd3660046144e4565b6122a3565b6104b66122f9565b61052f61081836600461492b565b612306565b6104e361082b3660046143bb565b612377565b61047761083e3660046143bb565b6001600160a01b03166000908152600e602052604090205460ff1690565b6104e360105481565b6104776108733660046146b4565b6123c3565b6104e36108863660046144e4565b601a6020526000908152604090205481565b6104776108a63660046146b4565b61241f565b6007546001600160a01b0316610504565b61047761247e565b6104b661281e565b6018546104779062010000900460ff1681565b61052f6108ed366004614a49565b61282d565b6105b56109003660046146b4565b601c60209081526000928352604080842090915290825290205460ff1681565b61052f61092e366004614aac565b6128cf565b61052f610941366004614b00565b612c49565b61052f6109543660046143bb565b612c54565b600f546105b59060ff1681565b61052f610974366004614b39565b612cf3565b6104e360145481565b61052f610990366004614b91565b612f86565b61052f6109a33660046144e4565b612f9d565b61052f6109b636600461492b565b612ff3565b6104b66109c93660046144e4565b61323f565b61052f6109dc3660046143bb565b61324a565b600954610504906001600160a01b031681565b6104e360125481565b6104e36132ed565b61052f610a133660046149ac565b61331a565b61052f610a263660046143bb565b61335d565b61052f610a393660046144e4565b613400565b6018546104779060ff1681565b600f54610504906201000090046001600160a01b031681565b6104b6613430565b610477610a7a366004614c10565b61343d565b61052f610a8d3660046143bb565b61346b565b61052f610aa03660046143bb565b6134e2565b61052f610ab33660046149ac565b613520565b6000610ac38261356a565b92915050565b60408051607a808252610f608201909252606091829182916000919060208201610f4080368337505060408051607a808252610f608201909252929350600092915060208201610f4080368337505060408051607a808252610f608201909252929350600092915060208201610f40803683370190505090506000805b60798160ff1611610caf576001600160a01b0389166000908152601c6020908152604080832060ff80861685529252909120541615610c9d5780858360ff1681518110610b9557610b95614c3e565b60ff9283166020918202929092018101919091526001600160a01b038b166000908152601c82526040808220858516835290925220548551908216918691908516908110610be557610be5614c3e565b60ff9283166020918202929092010152600954604051632edb5fcf60e01b81526001600160a01b038c811660048301529284166024820152911690632edb5fcf90604401602060405180830381865afa158015610c46573d6000803e3d6000fd5b505050506040513d601f19601f82011682018060405250810190610c6a9190614c54565b838360ff1681518110610c7f57610c7f614c3e565b9115156020928302919091019091015281610c9981614c87565b9250505b80610ca781614c87565b915050610b46565b5060008160ff166001600160401b03811115610ccd57610ccd614529565b604051908082528060200260200182016040528015610cf6578160200160208202803683370190505b50905060008260ff166001600160401b03811115610d1657610d16614529565b604051908082528060200260200182016040528015610d3f578160200160208202803683370190505b50905060008360ff166001600160401b03811115610d5f57610d5f614529565b604051908082528060200260200182016040528015610d88578160200160208202803683370190505b50905060005b8460ff16811015610e6757878181518110610dab57610dab614c3e565b6020026020010151848281518110610dc557610dc5614c3e565b602002602001019060ff16908160ff1681525050868181518110610deb57610deb614c3e565b6020026020010151838281518110610e0557610e05614c3e565b602002602001019060ff16908160ff1681525050858181518110610e2b57610e2b614c3e565b6020026020010151828281518110610e4557610e45614c3e565b9115156020928302919091019091015280610e5f81614ca6565b915050610d8e565b50919a90995090975095505050505050565b606060008054610e8890614cbf565b80601f0160208091040260200160405190810160405280929190818152602001828054610eb490614cbf565b8015610f015780601f10610ed657610100808354040283529160200191610f01565b820191906000526020600020905b815481529060010190602001808311610ee457829003601f168201915b5050505050905090565b6000610f168261358f565b506000828152600460205260409020546001600160a01b0316610ac3565b610f3f8282336135c8565b5050565b336000908152600b602052604090205460ff16610f7357604051634289c49360e01b815260040160405180910390fd5b604051630982088f60e41b8152600d60048201526001600160a01b038216602482015273__$2004922c2908b386ae4415e9a8cdeda8c7$__9063982088f0906044015b60006040518083038186803b158015610fce57600080fd5b505af4158015610fe2573d6000803e3d6000fd5b5050505050565b336000908152600b602052604090205460ff1661101957604051634289c49360e01b815260040160405180910390fd5b806001600160a01b0381166110415760405163e6c4247b60e01b815260040160405180910390fd5b600980546001600160a01b0319166001600160a01b0384169081179091556040517f538b3425a321783393ad250db10356b8b3523ef29a40de015c5218213de0ead090600090a25050565b6040516338fb7d8b60e01b815260009073__$11abd53fa8ca7bb7b53675cf998674c516$__906338fb7d8b906110ce9033908990899089908990600401614cf3565b602060405180830381865af41580156110eb573d6000803e3d6000fd5b505050506040513d601f19601f8201168201806040525081019061110f9190614d7a565b95945050505050565b6009546001600160a01b0316331461114357604051638eea824160e01b815260040160405180910390fd5b6001600160a01b0382166000908152601c6020908152604080832060ff80861685529252822080549091169161117883614c87565b91906101000a81548160ff021916908360ff160217905550505050565b6000826001600160a01b0381166111bf5760405163e6c4247b60e01b815260040160405180910390fd5b50506001600160a01b03919091166000908152601c6020908152604080832060ff94851684529091529020541690565b336000908152600b602052604090205460ff1661121f57604051634289c49360e01b815260040160405180910390fd5b604051632dd92c6960e21b8152600b60048201526001600160a01b038216602482015273__$2004922c2908b386ae4415e9a8cdeda8c7$__9063b764b1a490604401610fb6565b60ff8516158061127e5750600f5460ff908116908616115b1561129c57604051630b154b3b60e41b815260040160405180910390fd5b60005b8560ff1681101561131d5761130b338683815181106112c0576112c0614c3e565b60200260200101518684815181106112da576112da614c3e565b60200260200101518686868181106112f4576112f4614c3e565b90506020028101906113069190614d97565b6135d5565b8061131581614ca6565b91505061129f565b505050505050565b336000908152601c602090815260408083206079845290915281205460ff1690036113635760405163210f01d160e21b815260040160405180910390fd5b336000908152601b602052604081205461137e908390614ddd565b90506000603c821061143657600f546040516370a0823160e01b81523060048201526000916201000090046001600160a01b0316906370a0823190602401602060405180830381865afa1580156113d9573d6000803e3d6000fd5b505050506040513d601f19601f820116820180604052508101906113fd9190614df0565b90506014548110806114125750601454601254105b156114305760405163356680b760e01b815260040160405180910390fd5b60019150505b600954604051630cdb311760e01b815233600482015260009182916001600160a01b0390911690630cdb311790602401602060405180830381865afa158015611483573d6000803e3d6000fd5b505050506040513d601f19601f820116820180604052508101906114a79190614df0565b1190508360005b818110156116ce57336000908152601c60205260408120908888848181106114d8576114d8614c3e565b90506020020160208101906114ed919061492b565b60ff9081168252602082019290925260400160009081205490911690036115275760405163210f01d160e21b815260040160405180910390fd5b821561164a576009546001600160a01b0316632edb5fcf3389898581811061155157611551614c3e565b9050602002016020810190611566919061492b565b6040516001600160e01b031960e085901b1681526001600160a01b03909216600483015260ff166024820152604401602060405180830381865afa1580156115b2573d6000803e3d6000fd5b505050506040513d601f19601f820116820180604052508101906115d69190614c54565b1561164a57336000908152601c602052604081206002918989858181106115ff576115ff614c3e565b9050602002016020810190611614919061492b565b60ff908116825260208201929092526040016000205416101561164a5760405163483e9b8d60e11b815260040160405180910390fd5b336000908152601c602052604081209088888481811061166c5761166c614c3e565b9050602002016020810190611681919061492b565b60ff908116825260208201929092526040016000908120805490921691906116a883614e09565b91906101000a81548160ff021916908360ff1602179055505080806001019150506114ae565b50336000908152601b6020526040812080548392906116ee908490614ddd565b90915550506040516117039087908790614e26565b6040519081900381209033907fdbcda3b6d52a6f69c85189ca3f35e5be8a2e3d052fea47f656ff00384b0c47b190600090a3821561131d57336000908152601c60209081526040808320607984529091528120805460ff169161176583614e09565b91906101000a81548160ff021916908360ff16021790555050611816336016805461178f90614cbf565b80601f01602080910402602001604051908101604052809291908181526020018280546117bb90614cbf565b80156118085780601f106117dd57610100808354040283529160200191611808565b820191906000526020600020905b8154815290600101906020018083116117eb57829003601f168201915b5050505050607960026139ec565b6014546012600082825461182a9190614e60565b9091555050600f5460145460405163a9059cbb60e01b81523360048201526024810191909152620100009091046001600160a01b03169063a9059cbb906044016020604051808303816000875af1158015611889573d6000803e3d6000fd5b505050506040513d601f19601f820116820180604052508101906118ad9190614c54565b50600a5460405163fa8213d360e01b81523360048201526001600160a01b039091169063fa8213d390602401600060405180830381600087803b1580156118f357600080fd5b505af1158015611907573d6000803e3d6000fd5b5050604051600292503391507f6d0344e2059f835240cb954cce07d4b26f0d0844eecc234f7ee0e292ba80a1aa90600090a3505050505050565b6001600160a01b03821661197057604051633250574960e11b8152600060048201526024015b60405180910390fd5b600061197d838333613a4f565b9050836001600160a01b0316816001600160a01b0316146119cb576040516364283d7b60e01b81526001600160a01b0380861660048301526024820184905282166044820152606401611967565b50505050565b336000908152600b602052604090205460ff16611a0157604051634289c49360e01b815260040160405180910390fd5b600f805460ff191660ff92909216919091179055565b6119cb33858585856135d5565b816001600160a01b038116611a4c5760405163e6c4247b60e01b815260040160405180910390fd5b336000908152601c6020908152604080832060ff80871685529252822054169003611a8a5760405163210f01d160e21b815260040160405180910390fd5b336001600160a01b03841603611ab357604051632f35253160e01b815260040160405180910390fd5b60185462010000900460ff1615611b8a57600954604051632edb5fcf60e01b815233600482015260ff841660248201526000916001600160a01b031690632edb5fcf90604401602060405180830381865afa158015611b16573d6000803e3d6000fd5b505050506040513d601f19601f82011682018060405250810190611b3a9190614c54565b336000908152601c6020908152604080832060ff80891685529252909120549192506001911611811580611b6b5750805b611b875760405162461bcd60e51b815260040161196790614e73565b50505b336000908152601c6020908152604080832060ff808716855292528220805490911691611bb683614e09565b82546101009290920a60ff8181021990931691831602179091556001600160a01b0385166000908152601c602090815260408083208785168452909152812080549092169250611c0583614c87565b91906101000a81548160ff021916908360ff16021790555050826001600160a01b0316336001600160a01b03167f1b6e5f928a38f442936bbdf4696f128a543b8e43730594344a66c028d0b9c3da84604051611c6a919060ff91909116815260200190565b60405180910390a3505050565b336000908152600b602052604090205460ff16611ca757604051634289c49360e01b815260040160405180910390fd5b6008546040516380f2540b60e01b8152600481018490526001600160a01b038581166024830152909116906380f2540b90604401600060405180830381600087803b158015611cf557600080fd5b505af1158015611d09573d6000803e3d6000fd5b505050506006601154611d1c9190614eaa565b601154611d299190614e60565b60126000828254611d3a9190614ddd565b90915550600090505b81518110156119cb57818181518110611d5e57611d5e614c3e565b602002602001015160ff16607814611da957611389601a6000848481518110611d8957611d89614c3e565b602002602001015160ff1681526020019081526020016000205410611dda565b6078600052601a6020527f0382f0ce335a2f6d9ff5c37189f20a85f5e9319580268a4587d7c49525cd970d54610bb9115b611e265760405162461bcd60e51b815260206004820152601e60248201527f696e76616c69642063617264496e76656e746f727920706f736974696f6e00006044820152606401611967565b601a6000838381518110611e3c57611e3c614c3e565b602002602001015160ff1681526020019081526020016000206000815480929190611e6690614ca6565b90915550506001600160a01b0384166000908152601c602052604081208351909190849084908110611e9a57611e9a614c3e565b602002602001015160ff1660ff168152602001908152602001600020600081819054906101000a900460ff1680929190611ed390614c87565b91906101000a81548160ff021916908360ff160217905550508080611ef790614ca6565b915050611d43565b60168054611f0c90614cbf565b80601f0160208091040260200160405190810160405280929190818152602001828054611f3890614cbf565b8015611f855780601f10611f5a57610100808354040283529160200191611f85565b820191906000526020600020905b815481529060010190602001808311611f6857829003601f168201915b505050505081565b611fa883838360405180602001604052806000815250612f86565b505050565b610f3f60008233613a4f565b336000908152600b602052604090205460ff16611fe957604051634289c49360e01b815260040160405180910390fd5b80611ff3306121e7565b10156120125760405163356680b760e01b815260040160405180910390fd5b80601260008282546120249190614e60565b9091555050600f5460405163a9059cbb60e01b815233600482015260248101839052620100009091046001600160a01b03169063a9059cbb906044016020604051808303816000875af115801561207f573d6000803e3d6000fd5b505050506040513d601f19601f820116820180604052508101906120a39190614c54565b50604051819033907f23d6711a1d031134a36921253c75aa59e967d38e369ac625992824315e204f2090600090a350565b6008546001600160a01b031633146120ff576040516307473cc760e41b815260040160405180910390fd5b80601260008282546121119190614ddd565b909155505050565b6000610ac38261358f565b336000908152600b602052604090205460ff1661215457604051634289c49360e01b815260040160405180910390fd5b60188054911515620100000262ff000019909216919091179055565b336000908152600b602052604090205460ff166121a057604051634289c49360e01b815260040160405180910390fd5b604051632d35e2b960e21b8152600b60048201526001600160a01b038216602482015273__$2004922c2908b386ae4415e9a8cdeda8c7$__9063b4d78ae490604401610fb6565b60006001600160a01b038216612213576040516322718ad960e21b815260006004820152602401611967565b506001600160a01b031660009081526003602052604090205490565b612237613b48565b6122416000613b75565b565b6009546001600160a01b0316331461226e57604051638eea824160e01b815260040160405180910390fd5b6001600160a01b0382166000908152601c6020908152604080832060ff80861685529252822080549091169161117883614e09565b336000908152600b602052604090205460ff166122d357604051634289c49360e01b815260040160405180910390fd5b806000036122f457604051634b1c6ca160e01b815260040160405180910390fd5b601355565b60158054611f0c90614cbf565b336000908152600b602052604090205460ff1661233657604051634289c49360e01b815260040160405180910390fd5b60648160ff16111561235b57604051634b1c6ca160e01b815260040160405180910390fd5b600f805460ff9092166101000261ff0019909216919091179055565b6000816001600160a01b0381166123a15760405163e6c4247b60e01b815260040160405180910390fd5b6001600160a01b0383166000908152601b602052604090205491505b50919050565b6000826001600160a01b0381166123ed5760405163e6c4247b60e01b815260040160405180910390fd5b50506001600160a01b03919091166000908152601c6020908152604080832060ff948516845290915290205416151590565b6009546000906001600160a01b0316331461244d57604051638eea824160e01b815260040160405180910390fd5b506001600160a01b03919091166000908152601c6020908152604080832060ff948516845290915290205416151590565b336000908152601c602090815260408083206078845290915281205460ff1681036124bc5760405163210f01d160e21b815260040160405180910390fd5b60135460125410156124e157604051634b1c6ca160e01b815260040160405180910390fd5b600f546040516370a0823160e01b81523060048201526000916201000090046001600160a01b0316906370a0823190602401602060405180830381865afa158015612530573d6000803e3d6000fd5b505050506040513d601f19601f820116820180604052508101906125549190614df0565b90506013548110156125795760405163356680b760e01b815260040160405180910390fd5b6000805b60788160ff161161260857336000908152601c6020908152604080832060ff808616855292528220541690036125b65760019150612608565b336000908152601c6020908152604080832060ff8086168552925282208054909116916125e283614e09565b91906101000a81548160ff021916908360ff16021790555050808060010191505061257d565b50801561262757604051623de82960e51b815260040160405180910390fd5b6126bf336015805461263890614cbf565b80601f016020809104026020016040519081016040528092919081815260200182805461266490614cbf565b80156126b15780601f10612686576101008083540402835291602001916126b1565b820191906000526020600020905b81548152906001019060200180831161269457829003601f168201915b5050505050607860026139ec565b600f5460135460405163a9059cbb60e01b81523360048201526024810191909152620100009091046001600160a01b03169063a9059cbb906044016020604051808303816000875af1158015612719573d6000803e3d6000fd5b505050506040513d601f19601f8201168201806040525081019061273d9190614c54565b50601354601260008282546127529190614e60565b9091555050600954604051633f27a03f60e21b81523360048201526000916001600160a01b03169063fc9e80fc906024016020604051808303816000875af11580156127a2573d6000803e3d6000fd5b505050506040513d601f19601f820116820180604052508101906127c69190614c54565b9050806127e65760405163e07c7c8d60e01b815260040160405180910390fd5b60405160019033907f6d0344e2059f835240cb954cce07d4b26f0d0844eecc234f7ee0e292ba80a1aa90600090a36001935050505090565b606060018054610e8890614cbf565b336000908152600b602052604090205460ff1661285d57604051634289c49360e01b815260040160405180910390fd5b60156128698382614f12565b5060166128768282614f12565b50806040516128859190614fd1565b60405180910390208260405161289b9190614fd1565b604051908190038120907fabfd337ac5625b7dc2ddd3d3bd465fb1dec15322eeeed81032268b337880bec690600090a35050565b826001600160a01b0381166128f75760405163e6c4247b60e01b815260040160405180910390fd5b336001600160a01b0385160361292057604051632f35253160e01b815260040160405180910390fd5b60005b82811015612bf557336000908152601c602052604081209085858481811061294d5761294d614c3e565b9050602002016020810190612962919061492b565b60ff90811682526020820192909252604001600090812054909116900361299c5760405163210f01d160e21b815260040160405180910390fd5b336000908152601c60205260408120908585848181106129be576129be614c3e565b90506020020160208101906129d3919061492b565b60ff908116825260208201929092526040016000908120805490921691906129fa83614e09565b91906101000a81548160ff021916908360ff16021790555050601c6000866001600160a01b03166001600160a01b031681526020019081526020016000206000858584818110612a4c57612a4c614c3e565b9050602002016020810190612a61919061492b565b60ff90811682526020820192909252604001600090812080549092169190612a8883614c87565b91906101000a81548160ff021916908360ff16021790555050601860029054906101000a900460ff1615612be3576009546000906001600160a01b0316632edb5fcf33878786818110612add57612add614c3e565b9050602002016020810190612af2919061492b565b6040516001600160e01b031960e085901b1681526001600160a01b03909216600483015260ff166024820152604401602060405180830381865afa158015612b3e573d6000803e3d6000fd5b505050506040513d601f19601f82011682018060405250810190612b629190614c54565b336000908152601c602052604081209192509060019082888887818110612b8b57612b8b614c3e565b9050602002016020810190612ba0919061492b565b60ff908116825260208201929092526040016000205416119050811580612bc45750805b612be05760405162461bcd60e51b815260040161196790614e73565b50505b80612bed81614ca6565b915050612923565b508282604051612c06929190614e26565b604051908190038120906001600160a01b0386169033907f368eb521419fe880268b0d75c05eaa2da7ae9ccf468be86a848f7054366d2b9b90600090a450505050565b610f3f338383613bc7565b336000908152600b602052604090205460ff16612c8457604051634289c49360e01b815260040160405180910390fd5b60005b60798160ff1611610f3f576001600160a01b0382166000908152601c6020908152604080832060ff808616855292528220805490911691612cc783614c87565b91906101000a81548160ff021916908360ff160217905550508080612ceb90614c87565b915050612c87565b6009546001600160a01b03163314612d1e57604051638eea824160e01b815260040160405180910390fd5b836001600160a01b038116612d465760405163e6c4247b60e01b815260040160405180910390fd5b826001600160a01b038116612d6e5760405163e6c4247b60e01b815260040160405180910390fd5b6001600160a01b0386166000908152601c6020908152604080832060ff808a168552925290912054161580612dc957506001600160a01b0384166000908152601c6020908152604080832060ff808816855292529091205416155b15612de75760405163210f01d160e21b815260040160405180910390fd5b6001600160a01b0386166000908152601c6020908152604080832060ff808a16855292528220805490911691612e1c83614e09565b82546101009290920a60ff8181021990931691831602179091556001600160a01b0386166000908152601c602090815260408083208a85168452909152812080549092169250612e6b83614c87565b82546101009290920a60ff8181021990931691831602179091556001600160a01b0386166000908152601c602090815260408083208885168452909152812080549092169250612eba83614e09565b82546101009290920a60ff8181021990931691831602179091556001600160a01b0388166000908152601c602090815260408083208885168452909152812080549092169250612f0983614c87565b91906101000a81548160ff021916908360ff16021790555050836001600160a01b0316866001600160a01b03167f52819375a02768cb5083d7b729260c6db2309fcb5c9161201ada89d30d00d5248786604051612f7692919060ff92831681529116602082015260400190565b60405180910390a3505050505050565b612f91848484611941565b6119cb84848484613c5e565b336000908152600b602052604090205460ff16612fcd57604051634289c49360e01b815260040160405180910390fd5b80600003612fee57604051634b1c6ca160e01b815260040160405180910390fd5b601455565b336000908152601c6020908152604080832060ff808616855292528220541690036130315760405163210f01d160e21b815260040160405180910390fd5b601854610100900460ff161561310757600954604051632edb5fcf60e01b815233600482015260ff831660248201526000916001600160a01b031690632edb5fcf90604401602060405180830381865afa158015613093573d6000803e3d6000fd5b505050506040513d601f19601f820116820180604052508101906130b79190614c54565b336000908152601c6020908152604080832060ff808816855292529091205491925060019116118115806130e85750805b6131045760405162461bcd60e51b815260040161196790614e73565b50505b336000908152601c6020908152604080832060ff80861685529252822080549091169161313383614e09565b91906101000a81548160ff021916908360ff1602179055505060006017604051806040016040528060018152602001602f60f81b8152508360ff1673__$7e24fea74dbc7efffb723a34f6ecd87681$__636900a3ae90916040518263ffffffff1660e01b81526004016131a891815260200190565b600060405180830381865af41580156131c5573d6000803e3d6000fd5b505050506040513d6000823e601f3d908101601f191682016040526131ed9190810190614fed565b60405180604001604052806005815260200164173539b7b760d91b81525060405160200161321e949392919061505a565b6040516020818303038152906040529050610f3f33828460ff1660016139ec565b6060610ac382613d80565b336000908152600b602052604090205460ff1661327a57604051634289c49360e01b815260040160405180910390fd5b806001600160a01b0381166132a25760405163e6c4247b60e01b815260040160405180910390fd5b600880546001600160a01b0319166001600160a01b0384169081179091556040517f5a78287a942b8ea0da8734a4eb919df11e564cc48301ffcb582dc8612d98208f90600090a25050565b601254600f5460009160649161330b9190610100900460ff16615109565b6133159190614eaa565b905090565b336000908152600b602052604090205460ff1661334a57604051634289c49360e01b815260040160405180910390fd5b6018805460ff1916911515919091179055565b336000908152600b602052604090205460ff1661338d57604051634289c49360e01b815260040160405180910390fd5b806001600160a01b0381166133b55760405163e6c4247b60e01b815260040160405180910390fd5b600a80546001600160a01b0319166001600160a01b0384169081179091556040517f563f24d71e856f79bec30e1aa96082a296cd13f0a71cec730a72b719fa0fa20290600090a25050565b6008546001600160a01b0316331461342b576040516307473cc760e41b815260040160405180910390fd5b601155565b60178054611f0c90614cbf565b6001600160a01b03918216600090815260056020908152604080832093909416825291909152205460ff1690565b336000908152600b602052604090205460ff1661349b57604051634289c49360e01b815260040160405180910390fd5b604051633b9db68960e11b8152600d60048201526001600160a01b038216602482015273__$2004922c2908b386ae4415e9a8cdeda8c7$__9063773b6d1290604401610fb6565b6134ea613b48565b6001600160a01b03811661351457604051631e4fbdf760e01b815260006004820152602401611967565b61351d81613b75565b50565b336000908152600b602052604090205460ff1661355057604051634289c49360e01b815260040160405180910390fd5b601880549115156101000261ff0019909216919091179055565b60006001600160e01b03198216632483248360e11b1480610ac35750610ac382613e91565b6000818152600260205260408120546001600160a01b031680610ac357604051637e27328960e01b815260048101849052602401611967565b611fa88383836001613ee1565b60085460405163d3e6a7ad60e01b8152600481018690526001600160a01b0387811692169063d3e6a7ad90602401602060405180830381865afa158015613620573d6000803e3d6000fd5b505050506040513d601f19601f820116820180604052508101906136449190614d7a565b6001600160a01b03161461366b57604051637f6ecdf560e01b815260040160405180910390fd5b600f83511061368d57604051639dcca73360e01b815260040160405180910390fd5b60185460ff1615613759576040516338fb7d8b60e01b815260009073__$11abd53fa8ca7bb7b53675cf998674c516$__906338fb7d8b906136da9033908990899089908990600401614cf3565b602060405180830381865af41580156136f7573d6000803e3d6000fd5b505050506040513d601f19601f8201168201806040525081019061371b9190614d7a565b6001600160a01b0381166000908152600e602052604090205490915060ff1661375757604051638baa579f60e01b815260040160405180910390fd5b505b6008546040516380f2540b60e01b8152600481018690526001600160a01b038781166024830152909116906380f2540b90604401600060405180830381600087803b1580156137a757600080fd5b505af11580156137bb573d6000803e3d6000fd5b5050505060066011546137ce9190614eaa565b6011546137db9190614e60565b601260008282546137ec9190614ddd565b90915550600090505b835181101561399a5783818151811061381057613810614c3e565b602002602001015160ff16607803613875576078600052601a6020527f0382f0ce335a2f6d9ff5c37189f20a85f5e9319580268a4587d7c49525cd970d54610bb8101561387057604051630d1ecf1760e11b815260040160405180910390fd5b6138c7565b611388601a600086848151811061388e5761388e614c3e565b602002602001015160ff1681526020019081526020016000205411156138c757604051630d1ecf1760e11b815260040160405180910390fd5b601a60008583815181106138dd576138dd614c3e565b602002602001015160ff168152602001908152602001600020600081548092919061390790614ca6565b90915550506001600160a01b0386166000908152601c60205260408120855190919086908490811061393b5761393b614c3e565b602002602001015160ff1660ff168152602001908152602001600020600081819054906101000a900460ff168092919061397490614c87565b91906101000a81548160ff021916908360ff1602179055505080806001019150506137f5565b5083836040516139aa9190615120565b604051908190038120906001600160a01b038816907fbabe8f5e83e93ab103ddf917b4292a19335a5128b3530bedd896a681cdd945e390600090a45050505050565b601054600081815260196020526040902081815560018101849055600201805461ff00191661010060ff851602179055613a268582613fe7565b613a308185614001565b600160106000828254613a439190614ddd565b90915550505050505050565b6000828152600260205260408120546001600160a01b0390811690831615613a7c57613a7c818486614051565b6001600160a01b03811615613aba57613a99600085600080613ee1565b6001600160a01b038116600090815260036020526040902080546000190190555b6001600160a01b03851615613ae9576001600160a01b0385166000908152600360205260409020805460010190555b60008481526002602052604080822080546001600160a01b0319166001600160a01b0389811691821790925591518793918516917fddf252ad1be2c89b69c2b068fc378daa952ba7f163c4a11628f55a4df523b3ef91a4949350505050565b6007546001600160a01b031633146122415760405163118cdaa760e01b8152336004820152602401611967565b600780546001600160a01b038381166001600160a01b0319831681179093556040519116919082907f8be0079c531659141344cd1fd0a4f28419497f9722a3daafe3b4186f6b6457e090600090a35050565b6001600160a01b038216613bf957604051630b61174360e31b81526001600160a01b0383166004820152602401611967565b6001600160a01b03838116600081815260056020908152604080832094871680845294825291829020805460ff191686151590811790915591519182527f17307eab39ab6107e8899845ad3d59bd9653f200f220920489ca2b5937696c319101611c6a565b6001600160a01b0383163b156119cb57604051630a85bd0160e11b81526001600160a01b0384169063150b7a0290613ca0903390889087908790600401615159565b6020604051808303816000875af1925050508015613cdb575060408051601f3d908101601f19168201909252613cd891810190615196565b60015b613d44573d808015613d09576040519150601f19603f3d011682016040523d82523d6000602084013e613d0e565b606091505b508051600003613d3c57604051633250574960e11b81526001600160a01b0385166004820152602401611967565b805181602001fd5b6001600160e01b03198116630a85bd0160e11b14610fe257604051633250574960e11b81526001600160a01b0385166004820152602401611967565b6060613d8b8261358f565b5060008281526006602052604081208054613da590614cbf565b80601f0160208091040260200160405190810160405280929190818152602001828054613dd190614cbf565b8015613e1e5780601f10613df357610100808354040283529160200191613e1e565b820191906000526020600020905b815481529060010190602001808311613e0157829003601f168201915b505050505090506000613e3c60408051602081019091526000815290565b90508051600003613e4e575092915050565b815115613e80578082604051602001613e689291906151b3565b60405160208183030381529060405292505050919050565b613e89846140b5565b949350505050565b60006001600160e01b031982166380ac58cd60e01b1480613ec257506001600160e01b03198216635b5e139f60e01b145b80610ac357506301ffc9a760e01b6001600160e01b0319831614610ac3565b8080613ef557506001600160a01b03821615155b15613fb7576000613f058461358f565b90506001600160a01b03831615801590613f315750826001600160a01b0316816001600160a01b031614155b8015613f445750613f42818461343d565b155b15613f6d5760405163a9fbf51f60e01b81526001600160a01b0384166004820152602401611967565b8115613fb55783856001600160a01b0316826001600160a01b03167f8c5be1e5ebec7d5bd14f71427d1e84f3dd0314c0f7b2291e5b200ac8c7c3b92560405160405180910390a45b505b5050600090815260046020526040902080546001600160a01b0319166001600160a01b0392909216919091179055565b610f3f82826040518060200160405280600081525061412a565b60008281526006602052604090206140198282614f12565b506040518281527ff8e1a15aba9398e019f0b49df1a4fde98ee17ae345cb5f6b5e2c27f5033e8ce79060200160405180910390a15050565b61405c838383614141565b611fa8576001600160a01b03831661408a57604051637e27328960e01b815260048101829052602401611967565b60405163177e802f60e01b81526001600160a01b038316600482015260248101829052604401611967565b60606140c08261358f565b5060006140d860408051602081019091526000815290565b905060008151116140f85760405180602001604052806000815250614123565b80614102846141a4565b6040516020016141139291906151b3565b6040516020818303038152906040525b9392505050565b6141348383614236565b611fa86000848484613c5e565b60006001600160a01b03831615801590613e895750826001600160a01b0316846001600160a01b0316148061417b575061417b848461343d565b80613e895750506000908152600460205260409020546001600160a01b03908116911614919050565b606060006141b18361429b565b60010190506000816001600160401b038111156141d0576141d0614529565b6040519080825280601f01601f1916602001820160405280156141fa576020820181803683370190505b5090508181016020015b600019016f181899199a1a9b1b9c1cb0b131b232b360811b600a86061a8153600a850494508461420457509392505050565b6001600160a01b03821661426057604051633250574960e11b815260006004820152602401611967565b600061426e83836000613a4f565b90506001600160a01b03811615611fa8576040516339e3563760e11b815260006004820152602401611967565b60008072184f03e93ff9f4daa797ed6e38ed64bf6a1f0160401b83106142da5772184f03e93ff9f4daa797ed6e38ed64bf6a1f0160401b830492506040015b6d04ee2d6d415b85acef81000000008310614306576d04ee2d6d415b85acef8100000000830492506020015b662386f26fc10000831061432457662386f26fc10000830492506010015b6305f5e100831061433c576305f5e100830492506008015b612710831061435057612710830492506004015b60648310614362576064830492506002015b600a8310610ac35760010192915050565b6001600160e01b03198116811461351d57600080fd5b60006020828403121561439b57600080fd5b813561412381614373565b6001600160a01b038116811461351d57600080fd5b6000602082840312156143cd57600080fd5b8135614123816143a6565b600081518084526020808501945080840160005b8381101561440b57815160ff16875295820195908201906001016143ec565b509495945050505050565b60608152600061442960608301866143d8565b60208382038185015261443c82876143d8565b8481036040860152855180825282870193509082019060005b81811015614473578451151583529383019391830191600101614455565b509098975050505050505050565b60005b8381101561449c578181015183820152602001614484565b50506000910152565b600081518084526144bd816020860160208601614481565b601f01601f19169290920160200192915050565b60208152600061412360208301846144a5565b6000602082840312156144f657600080fd5b5035919050565b6000806040838503121561451057600080fd5b823561451b816143a6565b946020939093013593505050565b634e487b7160e01b600052604160045260246000fd5b604051601f8201601f191681016001600160401b038111828210171561456757614567614529565b604052919050565b60006001600160401b0382111561458857614588614529565b5060051b60200190565b803560ff811681146145a357600080fd5b919050565b600082601f8301126145b957600080fd5b813560206145ce6145c98361456f565b61453f565b82815260059290921b840181019181810190868411156145ed57600080fd5b8286015b8481101561460f5761460281614592565b83529183019183016145f1565b509695505050505050565b6000806000806060858703121561463057600080fd5b8435935060208501356001600160401b038082111561464e57600080fd5b61465a888389016145a8565b9450604087013591508082111561467057600080fd5b818701915087601f83011261468457600080fd5b81358181111561469357600080fd5b8860208285010111156146a557600080fd5b95989497505060200194505050565b600080604083850312156146c757600080fd5b82356146d2816143a6565b91506146e060208401614592565b90509250929050565b600082601f8301126146fa57600080fd5b8135602061470a6145c98361456f565b82815260059290921b8401810191818101908684111561472957600080fd5b8286015b8481101561460f5780356001600160401b0381111561474c5760008081fd5b61475a8986838b01016145a8565b84525091830191830161472d565b60008083601f84011261477a57600080fd5b5081356001600160401b0381111561479157600080fd5b6020830191508360208260051b85010111156147ac57600080fd5b9250929050565b6000806000806000608086880312156147cb57600080fd5b6147d486614592565b94506020808701356001600160401b03808211156147f157600080fd5b818901915089601f83011261480557600080fd5b81356148136145c98261456f565b81815260059190911b8301840190848101908c83111561483257600080fd5b938501935b8285101561485057843582529385019390850190614837565b98505050604089013592508083111561486857600080fd5b6148748a848b016146e9565b9550606089013592508083111561488a57600080fd5b505061489888828901614768565b969995985093965092949392505050565b600080602083850312156148bc57600080fd5b82356001600160401b038111156148d257600080fd5b6148de85828601614768565b90969095509350505050565b6000806000606084860312156148ff57600080fd5b833561490a816143a6565b9250602084013561491a816143a6565b929592945050506040919091013590565b60006020828403121561493d57600080fd5b61412382614592565b60008060006060848603121561495b57600080fd5b8335614966816143a6565b92506020840135915060408401356001600160401b0381111561498857600080fd5b614994868287016145a8565b9150509250925092565b801515811461351d57600080fd5b6000602082840312156149be57600080fd5b81356141238161499e565b60006001600160401b038211156149e2576149e2614529565b50601f01601f191660200190565b60006149fe6145c9846149c9565b9050828152838383011115614a1257600080fd5b828260208301376000602084830101529392505050565b600082601f830112614a3a57600080fd5b614123838335602085016149f0565b60008060408385031215614a5c57600080fd5b82356001600160401b0380821115614a7357600080fd5b614a7f86838701614a29565b93506020850135915080821115614a9557600080fd5b50614aa285828601614a29565b9150509250929050565b600080600060408486031215614ac157600080fd5b8335614acc816143a6565b925060208401356001600160401b03811115614ae757600080fd5b614af386828701614768565b9497909650939450505050565b60008060408385031215614b1357600080fd5b8235614b1e816143a6565b91506020830135614b2e8161499e565b809150509250929050565b60008060008060808587031215614b4f57600080fd5b8435614b5a816143a6565b9350614b6860208601614592565b92506040850135614b78816143a6565b9150614b8660608601614592565b905092959194509250565b60008060008060808587031215614ba757600080fd5b8435614bb2816143a6565b93506020850135614bc2816143a6565b92506040850135915060608501356001600160401b03811115614be457600080fd5b8501601f81018713614bf557600080fd5b614c04878235602084016149f0565b91505092959194509250565b60008060408385031215614c2357600080fd5b8235614c2e816143a6565b91506020830135614b2e816143a6565b634e487b7160e01b600052603260045260246000fd5b600060208284031215614c6657600080fd5b81516141238161499e565b634e487b7160e01b600052601160045260246000fd5b600060ff821660ff8103614c9d57614c9d614c71565b60010192915050565b600060018201614cb857614cb8614c71565b5060010190565b600181811c90821680614cd357607f821691505b6020821081036123bd57634e487b7160e01b600052602260045260246000fd5b6001600160a01b0386168152602080820186905260806040830181905285519083018190526000918681019160a0850190845b81811015614d4557845160ff1683529383019391830191600101614d26565b505084810360608601528581528587838301376000818701830152601f909501601f1916909401909301979650505050505050565b600060208284031215614d8c57600080fd5b8151614123816143a6565b6000808335601e19843603018112614dae57600080fd5b8301803591506001600160401b03821115614dc857600080fd5b6020019150368190038213156147ac57600080fd5b80820180821115610ac357610ac3614c71565b600060208284031215614e0257600080fd5b5051919050565b600060ff821680614e1c57614e1c614c71565b6000190192915050565b60008184825b85811015614e555760ff614e3f83614592565b1683526020928301929190910190600101614e2c565b509095945050505050565b81810381811115610ac357610ac3614c71565b60208082526017908201527f5468697320636172642068617320616e206f666665722e000000000000000000604082015260600190565b600082614ec757634e487b7160e01b600052601260045260246000fd5b500490565b601f821115611fa857600081815260208120601f850160051c81016020861015614ef35750805b601f850160051c820191505b8181101561131d57828155600101614eff565b81516001600160401b03811115614f2b57614f2b614529565b614f3f81614f398454614cbf565b84614ecc565b602080601f831160018114614f745760008415614f5c5750858301515b600019600386901b1c1916600185901b17855561131d565b600085815260208120601f198616915b82811015614fa357888601518255948401946001909101908401614f84565b5085821015614fc15787850151600019600388901b60f8161c191681555b5050505050600190811b01905550565b60008251614fe3818460208701614481565b9190910192915050565b600060208284031215614fff57600080fd5b81516001600160401b0381111561501557600080fd5b8201601f8101841361502657600080fd5b80516150346145c9826149c9565b81815285602083850101111561504957600080fd5b61110f826020830160208601614481565b600080865461506881614cbf565b600182811680156150805760018114615095576150c4565b60ff19841687528215158302870194506150c4565b8a60005260208060002060005b858110156150bb5781548a8201529084019082016150a2565b50505082870194505b5050505085516150d8818360208a01614481565b85519101906150eb818360208901614481565b84519101906150fe818360208801614481565b019695505050505050565b8082028115828204841417610ac357610ac3614c71565b815160009082906020808601845b8381101561514d57815160ff168552938201939082019060010161512e565b50929695505050505050565b6001600160a01b038581168252841660208201526040810183905260806060820181905260009061518c908301846144a5565b9695505050505050565b6000602082840312156151a857600080fd5b815161412381614373565b600083516151c5818460208801614481565b8351908301906151d9818360208801614481565b0194935050505056fea26469706673582212202ee01abf07366411de543430d2ce17bd9d85bb7c4732a9d9486b45e32b9c4a6764736f6c63430008140033",
  "linkReferences": {
    "contracts/gamma/libs/LibControlMgmt.sol": {
      "LibControlMgmt": [
        {
          "length": 20,
          "start": 5805
        },
        {
          "length": 20,
          "start": 6489
        },
        {
          "length": 20,
          "start": 10458
        },
        {
          "length": 20,
          "start": 15317
        }
      ]
    },
    "contracts/gamma/libs/LibPackVerifier.sol": {
      "LibPackVerifier": [
        {
          "length": 20,
          "start": 6067
        },
        {
          "length": 20,
          "start": 15807
        }
      ]
    },
    "contracts/gamma/libs/LibStringUtils.sol": {
      "LibStringUtils": [
        {
          "length": 20,
          "start": 14469
        }
      ]
    }
  },
  "deployedLinkReferences": {
    "contracts/gamma/libs/LibControlMgmt.sol": {
      "LibControlMgmt": [
        {
          "length": 20,
          "start": 3992
        },
        {
          "length": 20,
          "start": 4676
        },
        {
          "length": 20,
          "start": 8645
        },
        {
          "length": 20,
          "start": 13504
        }
      ]
    },
    "contracts/gamma/libs/LibPackVerifier.sol": {
      "LibPackVerifier": [
        {
          "length": 20,
          "start": 4254
        },
        {
          "length": 20,
          "start": 13994
        }
      ]
    },
    "contracts/gamma/libs/LibStringUtils.sol": {
      "LibStringUtils": [
        {
          "length": 20,
          "start": 12656
        }
      ]
    }
  }
}