{
  "_format": "hh-sol-artifact-1",
  "contractName": "NofGammaOffersV4",
  "sourceName": "contracts/gamma/GammaOffers.v4.sol",
  "abi": [
    {
      "inputs": [
        {
          "internalType": "address",
          "name": "_cardsContract",
          "type": "address"
        }
      ],
      "stateMutability": "nonpayable",
      "type": "constructor"
    },
    {
      "inputs": [],
      "name": "ExchangeError",
      "type": "error"
    },
    {
      "inputs": [],
      "name": "GammaCardsContractNotSet",
      "type": "error"
    },
    {
      "inputs": [],
      "name": "InvalidAddress",
      "type": "error"
    },
    {
      "inputs": [],
      "name": "InvalidCard",
      "type": "error"
    },
    {
      "inputs": [],
      "name": "InvalidCardNumber",
      "type": "error"
    },
    {
      "inputs": [],
      "name": "InvalidOfferId",
      "type": "error"
    },
    {
      "inputs": [],
      "name": "OfferAlreadyExists",
      "type": "error"
    },
    {
      "inputs": [],
      "name": "OfferDoesNotExists",
      "type": "error"
    },
    {
      "inputs": [],
      "name": "OfferNotDeleted",
      "type": "error"
    },
    {
      "inputs": [],
      "name": "OffersMaximumAllowed",
      "type": "error"
    },
    {
      "inputs": [],
      "name": "OnlyCardsContract",
      "type": "error"
    },
    {
      "inputs": [],
      "name": "OnlyOwners",
      "type": "error"
    },
    {
      "inputs": [
        {
          "internalType": "address",
          "name": "owner",
          "type": "address"
        }
      ],
      "name": "OwnableInvalidOwner",
      "type": "error"
    },
    {
      "inputs": [
        {
          "internalType": "address",
          "name": "account",
          "type": "address"
        }
      ],
      "name": "OwnableUnauthorizedAccount",
      "type": "error"
    },
    {
      "inputs": [],
      "name": "RemoveOfferFromCardNumberMapping_DoNotMatch",
      "type": "error"
    },
    {
      "inputs": [],
      "name": "RemoveOfferFromUserMapping_DoNotMatch",
      "type": "error"
    },
    {
      "inputs": [],
      "name": "UserAlreadyHasCard",
      "type": "error"
    },
    {
      "inputs": [],
      "name": "UserDoesNotHaveCard",
      "type": "error"
    },
    {
      "anonymous": false,
      "inputs": [],
      "name": "AllOffersRemoved",
      "type": "event"
    },
    {
      "anonymous": false,
      "inputs": [
        {
          "indexed": false,
          "internalType": "address",
          "name": "newGammaCardsContract",
          "type": "address"
        }
      ],
      "name": "NewGammaCardsContract",
      "type": "event"
    },
    {
      "anonymous": false,
      "inputs": [
        {
          "indexed": false,
          "internalType": "address",
          "name": "user",
          "type": "address"
        },
        {
          "indexed": false,
          "internalType": "uint8",
          "name": "cardNumber",
          "type": "uint8"
        },
        {
          "indexed": false,
          "internalType": "uint8[]",
          "name": "wantedCardNumbers",
          "type": "uint8[]"
        }
      ],
      "name": "OfferCreated",
      "type": "event"
    },
    {
      "anonymous": false,
      "inputs": [
        {
          "indexed": false,
          "internalType": "address",
          "name": "user",
          "type": "address"
        },
        {
          "indexed": false,
          "internalType": "uint8",
          "name": "cardNumber",
          "type": "uint8"
        }
      ],
      "name": "OfferRemoved",
      "type": "event"
    },
    {
      "anonymous": false,
      "inputs": [
        {
          "indexed": true,
          "internalType": "address",
          "name": "previousOwner",
          "type": "address"
        },
        {
          "indexed": true,
          "internalType": "address",
          "name": "newOwner",
          "type": "address"
        }
      ],
      "name": "OwnershipTransferred",
      "type": "event"
    },
    {
      "anonymous": false,
      "inputs": [
        {
          "indexed": false,
          "internalType": "address",
          "name": "user",
          "type": "address"
        }
      ],
      "name": "UserOffersRemoved",
      "type": "event"
    },
    {
      "inputs": [
        {
          "internalType": "address",
          "name": "_newOwner",
          "type": "address"
        }
      ],
      "name": "addOwner",
      "outputs": [],
      "stateMutability": "nonpayable",
      "type": "function"
    },
    {
      "inputs": [],
      "name": "canAnyUserPublishOffer",
      "outputs": [
        {
          "internalType": "bool",
          "name": "",
          "type": "bool"
        }
      ],
      "stateMutability": "view",
      "type": "function"
    },
    {
      "inputs": [
        {
          "internalType": "address",
          "name": "user",
          "type": "address"
        }
      ],
      "name": "canUserPublishOffer",
      "outputs": [
        {
          "internalType": "bool",
          "name": "",
          "type": "bool"
        }
      ],
      "stateMutability": "view",
      "type": "function"
    },
    {
      "inputs": [
        {
          "internalType": "bool",
          "name": "_value",
          "type": "bool"
        }
      ],
      "name": "changeRemoveCardinInventoryWhenOffer",
      "outputs": [],
      "stateMutability": "nonpayable",
      "type": "function"
    },
    {
      "inputs": [
        {
          "internalType": "address",
          "name": "from",
          "type": "address"
        },
        {
          "internalType": "uint8",
          "name": "cardNumberWanted",
          "type": "uint8"
        },
        {
          "internalType": "address",
          "name": "offerWallet",
          "type": "address"
        },
        {
          "internalType": "uint8",
          "name": "offerCardNumber",
          "type": "uint8"
        }
      ],
      "name": "confirmOfferExchange",
      "outputs": [],
      "stateMutability": "nonpayable",
      "type": "function"
    },
    {
      "inputs": [
        {
          "internalType": "string",
          "name": "offerId",
          "type": "string"
        },
        {
          "internalType": "uint8",
          "name": "cardNumber",
          "type": "uint8"
        },
        {
          "internalType": "uint8[]",
          "name": "wantedCardNumbers",
          "type": "uint8[]"
        }
      ],
      "name": "createOffer",
      "outputs": [],
      "stateMutability": "nonpayable",
      "type": "function"
    },
    {
      "inputs": [
        {
          "internalType": "string",
          "name": "offerId",
          "type": "string"
        },
        {
          "internalType": "address",
          "name": "user",
          "type": "address"
        },
        {
          "internalType": "uint8",
          "name": "cardNumber",
          "type": "uint8"
        },
        {
          "internalType": "uint8[]",
          "name": "wantedCardNumbers",
          "type": "uint8[]"
        }
      ],
      "name": "createOfferWithoUser",
      "outputs": [],
      "stateMutability": "nonpayable",
      "type": "function"
    },
    {
      "inputs": [],
      "name": "deleteAllOffers",
      "outputs": [],
      "stateMutability": "nonpayable",
      "type": "function"
    },
    {
      "inputs": [],
      "name": "gammaCardsContract",
      "outputs": [
        {
          "internalType": "contract IGammaCardsContract",
          "name": "",
          "type": "address"
        }
      ],
      "stateMutability": "view",
      "type": "function"
    },
    {
      "inputs": [],
      "name": "getMaxOffersAllowed",
      "outputs": [
        {
          "internalType": "uint256",
          "name": "",
          "type": "uint256"
        }
      ],
      "stateMutability": "view",
      "type": "function"
    },
    {
      "inputs": [],
      "name": "getMaxOffersByUserAllowed",
      "outputs": [
        {
          "internalType": "uint256",
          "name": "",
          "type": "uint256"
        }
      ],
      "stateMutability": "view",
      "type": "function"
    },
    {
      "inputs": [
        {
          "internalType": "uint256",
          "name": "index",
          "type": "uint256"
        }
      ],
      "name": "getOfferByIndex",
      "outputs": [
        {
          "components": [
            {
              "internalType": "string",
              "name": "offerId",
              "type": "string"
            },
            {
              "internalType": "uint8",
              "name": "cardNumber",
              "type": "uint8"
            },
            {
              "internalType": "uint8[]",
              "name": "wantedCardNumbers",
              "type": "uint8[]"
            },
            {
              "internalType": "address",
              "name": "owner",
              "type": "address"
            },
            {
              "internalType": "uint256",
              "name": "timestamp",
              "type": "uint256"
            }
          ],
          "internalType": "struct NofGammaOffersV4.Offer",
          "name": "",
          "type": "tuple"
        }
      ],
      "stateMutability": "view",
      "type": "function"
    },
    {
      "inputs": [
        {
          "internalType": "string",
          "name": "offerId",
          "type": "string"
        }
      ],
      "name": "getOfferByOfferId",
      "outputs": [
        {
          "components": [
            {
              "internalType": "string",
              "name": "offerId",
              "type": "string"
            },
            {
              "internalType": "uint8",
              "name": "cardNumber",
              "type": "uint8"
            },
            {
              "internalType": "uint8[]",
              "name": "wantedCardNumbers",
              "type": "uint8[]"
            },
            {
              "internalType": "address",
              "name": "owner",
              "type": "address"
            },
            {
              "internalType": "uint256",
              "name": "timestamp",
              "type": "uint256"
            }
          ],
          "internalType": "struct NofGammaOffersV4.Offer",
          "name": "",
          "type": "tuple"
        }
      ],
      "stateMutability": "view",
      "type": "function"
    },
    {
      "inputs": [
        {
          "internalType": "address",
          "name": "user",
          "type": "address"
        },
        {
          "internalType": "uint8",
          "name": "cardNumber",
          "type": "uint8"
        }
      ],
      "name": "getOfferByUserAndCardNumber",
      "outputs": [
        {
          "components": [
            {
              "internalType": "string",
              "name": "offerId",
              "type": "string"
            },
            {
              "internalType": "uint8",
              "name": "cardNumber",
              "type": "uint8"
            },
            {
              "internalType": "uint8[]",
              "name": "wantedCardNumbers",
              "type": "uint8[]"
            },
            {
              "internalType": "address",
              "name": "owner",
              "type": "address"
            },
            {
              "internalType": "uint256",
              "name": "timestamp",
              "type": "uint256"
            }
          ],
          "internalType": "struct NofGammaOffersV4.Offer",
          "name": "",
          "type": "tuple"
        }
      ],
      "stateMutability": "view",
      "type": "function"
    },
    {
      "inputs": [],
      "name": "getOffers",
      "outputs": [
        {
          "components": [
            {
              "internalType": "string",
              "name": "offerId",
              "type": "string"
            },
            {
              "internalType": "uint8",
              "name": "cardNumber",
              "type": "uint8"
            },
            {
              "internalType": "uint8[]",
              "name": "wantedCardNumbers",
              "type": "uint8[]"
            },
            {
              "internalType": "address",
              "name": "owner",
              "type": "address"
            },
            {
              "internalType": "uint256",
              "name": "timestamp",
              "type": "uint256"
            }
          ],
          "internalType": "struct NofGammaOffersV4.Offer[]",
          "name": "",
          "type": "tuple[]"
        }
      ],
      "stateMutability": "view",
      "type": "function"
    },
    {
      "inputs": [
        {
          "internalType": "uint8",
          "name": "cardNumber",
          "type": "uint8"
        }
      ],
      "name": "getOffersByCardNumber",
      "outputs": [
        {
          "components": [
            {
              "internalType": "string",
              "name": "offerId",
              "type": "string"
            },
            {
              "internalType": "uint8",
              "name": "cardNumber",
              "type": "uint8"
            },
            {
              "internalType": "uint8[]",
              "name": "wantedCardNumbers",
              "type": "uint8[]"
            },
            {
              "internalType": "address",
              "name": "owner",
              "type": "address"
            },
            {
              "internalType": "uint256",
              "name": "timestamp",
              "type": "uint256"
            }
          ],
          "internalType": "struct NofGammaOffersV4.Offer[]",
          "name": "",
          "type": "tuple[]"
        }
      ],
      "stateMutability": "view",
      "type": "function"
    },
    {
      "inputs": [
        {
          "internalType": "uint8",
          "name": "cardNumber",
          "type": "uint8"
        }
      ],
      "name": "getOffersByCardNumberCounter",
      "outputs": [
        {
          "internalType": "uint256",
          "name": "",
          "type": "uint256"
        }
      ],
      "stateMutability": "view",
      "type": "function"
    },
    {
      "inputs": [
        {
          "internalType": "address",
          "name": "user",
          "type": "address"
        }
      ],
      "name": "getOffersByUser",
      "outputs": [
        {
          "components": [
            {
              "internalType": "string",
              "name": "offerId",
              "type": "string"
            },
            {
              "internalType": "uint8",
              "name": "cardNumber",
              "type": "uint8"
            },
            {
              "internalType": "uint8[]",
              "name": "wantedCardNumbers",
              "type": "uint8[]"
            },
            {
              "internalType": "address",
              "name": "owner",
              "type": "address"
            },
            {
              "internalType": "uint256",
              "name": "timestamp",
              "type": "uint256"
            }
          ],
          "internalType": "struct NofGammaOffersV4.Offer[]",
          "name": "",
          "type": "tuple[]"
        }
      ],
      "stateMutability": "view",
      "type": "function"
    },
    {
      "inputs": [
        {
          "internalType": "address",
          "name": "user",
          "type": "address"
        }
      ],
      "name": "getOffersByUserCounter",
      "outputs": [
        {
          "internalType": "uint256",
          "name": "",
          "type": "uint256"
        }
      ],
      "stateMutability": "view",
      "type": "function"
    },
    {
      "inputs": [],
      "name": "getOffersCounter",
      "outputs": [
        {
          "internalType": "uint256",
          "name": "",
          "type": "uint256"
        }
      ],
      "stateMutability": "view",
      "type": "function"
    },
    {
      "inputs": [
        {
          "internalType": "address",
          "name": "user",
          "type": "address"
        },
        {
          "internalType": "uint8",
          "name": "cardNumber",
          "type": "uint8"
        }
      ],
      "name": "hasOffer",
      "outputs": [
        {
          "internalType": "bool",
          "name": "",
          "type": "bool"
        }
      ],
      "stateMutability": "view",
      "type": "function"
    },
    {
      "inputs": [
        {
          "internalType": "address",
          "name": "user",
          "type": "address"
        }
      ],
      "name": "isOwner",
      "outputs": [
        {
          "internalType": "bool",
          "name": "",
          "type": "bool"
        }
      ],
      "stateMutability": "view",
      "type": "function"
    },
    {
      "inputs": [
        {
          "internalType": "uint256",
          "name": "",
          "type": "uint256"
        }
      ],
      "name": "offers",
      "outputs": [
        {
          "internalType": "string",
          "name": "offerId",
          "type": "string"
        },
        {
          "internalType": "uint8",
          "name": "cardNumber",
          "type": "uint8"
        },
        {
          "internalType": "address",
          "name": "owner",
          "type": "address"
        },
        {
          "internalType": "uint256",
          "name": "timestamp",
          "type": "uint256"
        }
      ],
      "stateMutability": "view",
      "type": "function"
    },
    {
      "inputs": [
        {
          "internalType": "uint8",
          "name": "",
          "type": "uint8"
        }
      ],
      "name": "offersByCardNumberCounter",
      "outputs": [
        {
          "internalType": "uint256",
          "name": "",
          "type": "uint256"
        }
      ],
      "stateMutability": "view",
      "type": "function"
    },
    {
      "inputs": [
        {
          "internalType": "address",
          "name": "",
          "type": "address"
        }
      ],
      "name": "offersByUserCounter",
      "outputs": [
        {
          "internalType": "uint256",
          "name": "",
          "type": "uint256"
        }
      ],
      "stateMutability": "view",
      "type": "function"
    },
    {
      "inputs": [],
      "name": "offersTotalCounter",
      "outputs": [
        {
          "internalType": "uint256",
          "name": "",
          "type": "uint256"
        }
      ],
      "stateMutability": "view",
      "type": "function"
    },
    {
      "inputs": [],
      "name": "owner",
      "outputs": [
        {
          "internalType": "address",
          "name": "",
          "type": "address"
        }
      ],
      "stateMutability": "view",
      "type": "function"
    },
    {
      "inputs": [
        {
          "internalType": "uint8",
          "name": "cardNumber",
          "type": "uint8"
        }
      ],
      "name": "removeOfferByCardNumber",
      "outputs": [
        {
          "internalType": "bool",
          "name": "",
          "type": "bool"
        }
      ],
      "stateMutability": "nonpayable",
      "type": "function"
    },
    {
      "inputs": [
        {
          "internalType": "address",
          "name": "user",
          "type": "address"
        },
        {
          "internalType": "uint8",
          "name": "cardNumber",
          "type": "uint8"
        }
      ],
      "name": "removeOfferByUserAndCardNumber",
      "outputs": [
        {
          "internalType": "bool",
          "name": "",
          "type": "bool"
        }
      ],
      "stateMutability": "nonpayable",
      "type": "function"
    },
    {
      "inputs": [
        {
          "internalType": "address",
          "name": "user",
          "type": "address"
        }
      ],
      "name": "removeOffersByUser",
      "outputs": [
        {
          "internalType": "bool",
          "name": "",
          "type": "bool"
        }
      ],
      "stateMutability": "nonpayable",
      "type": "function"
    },
    {
      "inputs": [
        {
          "internalType": "address",
          "name": "_ownerToRemove",
          "type": "address"
        }
      ],
      "name": "removeOwner",
      "outputs": [],
      "stateMutability": "nonpayable",
      "type": "function"
    },
    {
      "inputs": [],
      "name": "renounceOwnership",
      "outputs": [],
      "stateMutability": "nonpayable",
      "type": "function"
    },
    {
      "inputs": [
        {
          "internalType": "address",
          "name": "_gammaCardsContract",
          "type": "address"
        }
      ],
      "name": "setGammaCardsContract",
      "outputs": [],
      "stateMutability": "nonpayable",
      "type": "function"
    },
    {
      "inputs": [
        {
          "internalType": "uint256",
          "name": "_maxCardNumbersAllowed",
          "type": "uint256"
        }
      ],
      "name": "setMaxCardNumbersAllowed",
      "outputs": [],
      "stateMutability": "nonpayable",
      "type": "function"
    },
    {
      "inputs": [
        {
          "internalType": "uint256",
          "name": "_maxOffersAllowed",
          "type": "uint256"
        }
      ],
      "name": "setMaxOffersAllowed",
      "outputs": [],
      "stateMutability": "nonpayable",
      "type": "function"
    },
    {
      "inputs": [
        {
          "internalType": "uint256",
          "name": "_maxOffersByUserAllowed",
          "type": "uint256"
        }
      ],
      "name": "setMaxOffersByUserAllowed",
      "outputs": [],
      "stateMutability": "nonpayable",
      "type": "function"
    },
    {
      "inputs": [
        {
          "internalType": "address",
          "name": "newOwner",
          "type": "address"
        }
      ],
      "name": "transferOwnership",
      "outputs": [],
      "stateMutability": "nonpayable",
      "type": "function"
    }
  ],
  "bytecode": "0x60806040526113886004556005805560786006556007805460ff191690553480156200002a57600080fd5b506040516200379b3803806200379b8339810160408190526200004d9162000138565b33806200007457604051631e4fbdf760e01b81526000600482015260240160405180910390fd5b6200007f81620000e8565b506001600160a01b038116620000a85760405163e6c4247b60e01b815260040160405180910390fd5b600180546001600160a01b0319166001600160a01b0392909216919091178155336000908152600260205260409020805460ff191690911790556200016a565b600080546001600160a01b038381166001600160a01b0319831681178455604051919092169283917f8be0079c531659141344cd1fd0a4f28419497f9722a3daafe3b4186f6b6457e09190a35050565b6000602082840312156200014b57600080fd5b81516001600160a01b03811681146200016357600080fd5b9392505050565b613621806200017a6000396000f3fe608060405234801561001057600080fd5b50600436106102275760003560e01c80637594a6ed11610130578063ce7483d5116100b8578063e2b365961161007c578063e2b36596146104f7578063e359a0a11461050a578063e5e5f7321461051d578063f2fde38b14610530578063fc9e80fc1461054357600080fd5b8063ce7483d514610486578063cf86f8e5146104a9578063d250f03a146104b1578063d827a8f4146104c4578063e02f9723146104e457600080fd5b806390222aa1116100ff57806390222aa1146104305780639618b333146104385780639f9150691461044b578063ba79b77b1461046b578063c08029e71461047357600080fd5b80637594a6ed146103b55780638400a189146103d55780638a72ea6a146103e85780638da5cb5b1461040b57600080fd5b80633e293e16116101b35780635a919aeb116101825780635a919aeb146103725780635bbfbfd61461037b578063619980dc1461038e5780637065cb481461039a578063715018a6146103ad57600080fd5b80633e293e16146103245780633ee992ee146103375780634c7a7ad31461034c57806358e57ebb1461035f57600080fd5b80632edb5fcf116101fa5780632edb5fcf146102b75780632f54bf6e146102ca578063322fba27146102f65780633808dfe7146102fe5780633a0270731461031157600080fd5b80630cdb31171461022c578063173825d91461025257806317a1fed91461026757806329d3f60b1461027a575b600080fd5b61023f61023a366004612d11565b610556565b6040519081526020015b60405180910390f35b610265610260366004612d11565b61059b565b005b610265610275366004612e82565b610641565b6102a7610288366004612d11565b6001600160a01b03166000908152600b60205260409020546005541190565b6040519015158152602001610249565b6102a76102c5366004612f07565b610683565b6102a76102d8366004612d11565b6001600160a01b031660009081526002602052604090205460ff1690565b610265610743565b61026561030c366004612f3a565b6108f2565b6102a761031f366004612f53565b610927565b610265610332366004612f6e565b61096f565b61033f610980565b60405161024991906130d4565b61026561035a366004612d11565b610b14565b61026561036d366004613144565b610bbf565b61023f600d5481565b6102a7610389366004612f07565b610c02565b600d54600454116102a7565b6102656103a8366004612d11565b610c83565b610265610cfa565b61023f6103c3366004612d11565b600b6020526000908152604090205481565b61033f6103e3366004612f53565b610d0e565b6103fb6103f6366004612f3a565b610eb2565b6040516102499493929190613161565b6000546001600160a01b03165b6040516001600160a01b039091168152602001610249565b60045461023f565b61033f610446366004612d11565b610f8a565b61045e610459366004612f07565b61114d565b604051610249919061319c565b60055461023f565b6102656104813660046131af565b61135d565b61023f610494366004612f53565b60ff166000908152600c602052604090205490565b600d5461023f565b600154610418906001600160a01b031681565b61023f6104d2366004612f53565b600c6020526000908152604090205481565b6102656104f2366004612f3a565b611681565b61045e610505366004613203565b6116b6565b61045e610518366004612f3a565b6118bf565b61026561052b366004612f3a565b611a4b565b61026561053e366004612d11565b611a80565b6102a7610551366004612d11565b611ac3565b60006001600160a01b03821661057f5760405163e6c4247b60e01b815260040160405180910390fd5b506001600160a01b03166000908152600b602052604090205490565b3360009081526002602052604090205460ff166105cb57604051634289c49360e01b815260040160405180910390fd5b604051632dd92c6960e21b8152600260048201526001600160a01b038216602482015273__$2004922c2908b386ae4415e9a8cdeda8c7$__9063b764b1a4906044015b60006040518083038186803b15801561062657600080fd5b505af415801561063a573d6000803e3d6000fd5b5050505050565b3360009081526002602052604090205460ff1661067157604051634289c49360e01b815260040160405180910390fd5b61067d84848484611d0e565b50505050565b60006001600160a01b0383166106ac5760405163e6c4247b60e01b815260040160405180910390fd5b60005b6001600160a01b0384166000908152600b6020526040902054811015610737576001600160a01b0384166000908152600960205260409020805460ff85169190839081106106ff576106ff613238565b600091825260209091206001600590920201015460ff160361072557600191505061073d565b8061072f81613264565b9150506106af565b50600090505b92915050565b3360009081526002602052604090205460ff1661077357604051634289c49360e01b815260040160405180910390fd5b60005b6008548110156108b357600960006008838154811061079757610797613238565b60009182526020808320600360059093020191909101546001600160a01b0316835282019290925260400181206107cd91612ae6565b6000600b6000600884815481106107e6576107e6613238565b60009182526020808320600360059093020191909101546001600160a01b0316835282019290925260400181209190915560088054600a9291908490811061083057610830613238565b600091825260208083206001600590930201919091015460ff168352820192909252604001812061086091612ae6565b6000600c60006008848154811061087957610879613238565b600091825260208083206001600590930201919091015460ff168352820192909252604001902055806108ab81613264565b915050610776565b506000600d8190556108c790600890612ae6565b6040517f47e81efc038e27bb296dec5d44262943d2c2bbec28f461787a9cc53885694cb090600090a1565b3360009081526002602052604090205460ff1661092257604051634289c49360e01b815260040160405180910390fd5b600555565b600080610934338461114d565b60608101519091506001600160a01b031633146109545750600092915050565b6000610967338584600001516000612241565b949350505050565b61097b83338484611d0e565b505050565b60606008805480602002602001604051908101604052809291908181526020016000905b82821015610b0b57838290600052602060002090600502016040518060a00160405290816000820180546109d79061327d565b80601f0160208091040260200160405190810160405280929190818152602001828054610a039061327d565b8015610a505780601f10610a2557610100808354040283529160200191610a50565b820191906000526020600020905b815481529060010190602001808311610a3357829003601f168201915b5050509183525050600182015460ff166020808301919091526002830180546040805182850281018501825282815294019392830182828015610ad057602002820191906000526020600020906000905b825461010083900a900460ff16815260206001928301818104948501949093039092029101808411610aa15790505b505050918352505060038201546001600160a01b031660208083019190915260049092015460409091015290825260019290920191016109a4565b50505050905090565b3360009081526002602052604090205460ff16610b4457604051634289c49360e01b815260040160405180910390fd5b6001600160a01b038116610b6b5760405163e6c4247b60e01b815260040160405180910390fd5b600180546001600160a01b0319166001600160a01b0383169081179091556040519081527f45c9eba39b5ae3e7a6650b0a57bcb8e5d135936d56d111983dbc5860ae6760fa9060200160405180910390a150565b3360009081526002602052604090205460ff16610bef57604051634289c49360e01b815260040160405180910390fd5b6007805460ff1916911515919091179055565b3360009081526002602052604081205460ff16610c3257604051634289c49360e01b815260040160405180910390fd5b6000610c3e848461114d565b9050836001600160a01b031681606001516001600160a01b031614610c6757600091505061073d565b6000610c7a858584600001516000612241565b95945050505050565b3360009081526002602052604090205460ff16610cb357604051634289c49360e01b815260040160405180910390fd5b604051632d35e2b960e21b8152600260048201526001600160a01b038216602482015273__$2004922c2908b386ae4415e9a8cdeda8c7$__9063b4d78ae49060440161060e565b610d026123b8565b610d0c60006123e5565b565b60ff81166000908152600a60209081526040808320805482518185028101850190935280835260609492939192909184015b82821015610ea757838290600052602060002090600502016040518060a0016040529081600082018054610d739061327d565b80601f0160208091040260200160405190810160405280929190818152602001828054610d9f9061327d565b8015610dec5780601f10610dc157610100808354040283529160200191610dec565b820191906000526020600020905b815481529060010190602001808311610dcf57829003601f168201915b5050509183525050600182015460ff166020808301919091526002830180546040805182850281018501825282815294019392830182828015610e6c57602002820191906000526020600020906000905b825461010083900a900460ff16815260206001928301818104948501949093039092029101808411610e3d5790505b505050918352505060038201546001600160a01b03166020808301919091526004909201546040909101529082526001929092019101610d40565b505050509050919050565b60088181548110610ec257600080fd5b9060005260206000209060050201600091509050806000018054610ee59061327d565b80601f0160208091040260200160405190810160405280929190818152602001828054610f119061327d565b8015610f5e5780601f10610f3357610100808354040283529160200191610f5e565b820191906000526020600020905b815481529060010190602001808311610f4157829003601f168201915b5050505060018301546003840154600490940154929360ff909116926001600160a01b03909116915084565b60606001600160a01b038216610fb35760405163e6c4247b60e01b815260040160405180910390fd5b6001600160a01b038216600090815260096020908152604080832080548251818502810185019093528083529193909284015b82821015610ea757838290600052602060002090600502016040518060a00160405290816000820180546110199061327d565b80601f01602080910402602001604051908101604052809291908181526020018280546110459061327d565b80156110925780601f1061106757610100808354040283529160200191611092565b820191906000526020600020905b81548152906001019060200180831161107557829003601f168201915b5050509183525050600182015460ff16602080830191909152600283018054604080518285028101850182528281529401939283018282801561111257602002820191906000526020600020906000905b825461010083900a900460ff168152602060019283018181049485019490930390920291018084116110e35790505b505050918352505060038201546001600160a01b03166020808301919091526004909201546040909101529082526001929092019101610fe6565b611155612b07565b6001600160a01b03831661117c5760405163e6c4247b60e01b815260040160405180910390fd5b6001600160a01b0383166000908152600960209081526040808320600b90925282205490915b81811015611354578460ff168382815481106111c0576111c0613238565b600091825260209091206001600590920201015460ff1603611342578281815481106111ee576111ee613238565b90600052602060002090600502016040518060a00160405290816000820180546112179061327d565b80601f01602080910402602001604051908101604052809291908181526020018280546112439061327d565b80156112905780601f1061126557610100808354040283529160200191611290565b820191906000526020600020905b81548152906001019060200180831161127357829003601f168201915b5050509183525050600182015460ff16602080830191909152600283018054604080518285028101850182528281529401939283018282801561131057602002820191906000526020600020906000905b825461010083900a900460ff168152602060019283018181049485019490930390920291018084116112e15790505b505050918352505060038201546001600160a01b03166020820152600490910154604090910152935061073d92505050565b8061134c81613264565b9150506111a2565b50610c7a612435565b6000611369838361114d565b9050826001600160a01b031681606001516001600160a01b0316146113a157604051631ded229360e11b815260040160405180910390fd5b604081015180516000036114475760015460405163117ece1960e31b81526001600160a01b0390911690638bf670c8906113e190879089906004016132b7565b6020604051808303816000875af1158015611400573d6000803e3d6000fd5b505050506040513d601f19601f8201168201806040525081019061142491906132d3565b1561144257604051631177b29560e11b815260040160405180910390fd5b6114bc565b6000805b82518160ff16101561149b578660ff16838260ff168151811061147057611470613238565b602002602001015160ff1603611489576001915061149b565b80611493816132f0565b91505061144b565b50806114ba57604051630eefa23760e11b815260040160405180910390fd5b505b60006114cf858585600001516001612241565b9050806114ef57604051631b44035160e01b815260040160405180910390fd5b60015460405163568b427d60e11b81526001600160a01b03898116600483015260ff808a1660248401528882166044840152871660648301529091169063ad1684fa90608401600060405180830381600087803b15801561154f57600080fd5b505af1158015611563573d6000803e3d6000fd5b505060015460405163117ece1960e31b81526001600160a01b039091169250638bf670c89150611599908a9088906004016132b7565b6020604051808303816000875af11580156115b8573d6000803e3d6000fd5b505050506040513d601f19601f820116820180604052508101906115dc91906132d3565b158061165a575060015460405163117ece1960e31b81526001600160a01b0390911690638bf670c8906116159088908a906004016132b7565b6020604051808303816000875af1158015611634573d6000803e3d6000fd5b505050506040513d601f19601f8201168201806040525081019061165891906132d3565b155b156116785760405163fc9716b960e01b815260040160405180910390fd5b50505050505050565b3360009081526002602052604090205460ff166116b157604051634289c49360e01b815260040160405180910390fd5b600655565b6116be612b07565b60005b6008548110156118b657826040516020016116dc919061330f565b604051602081830303815290604052805190602001206008828154811061170557611705613238565b9060005260206000209060050201600001604051602001611726919061332b565b60405160208183030381529060405280519060200120036118a4576008818154811061175457611754613238565b90600052602060002090600502016040518060a001604052908160008201805461177d9061327d565b80601f01602080910402602001604051908101604052809291908181526020018280546117a99061327d565b80156117f65780601f106117cb576101008083540402835291602001916117f6565b820191906000526020600020905b8154815290600101906020018083116117d957829003601f168201915b5050509183525050600182015460ff16602080830191909152600283018054604080518285028101850182528281529401939283018282801561187657602002820191906000526020600020906000905b825461010083900a900460ff168152602060019283018181049485019490930390920291018084116118475790505b505050918352505060038201546001600160a01b031660208201526004909101546040909101529392505050565b806118ae81613264565b9150506116c1565b5061073d612435565b6118c7612b07565b60085482106118e957604051635129cab160e11b815260040160405180910390fd5b600882815481106118fc576118fc613238565b90600052602060002090600502016040518060a00160405290816000820180546119259061327d565b80601f01602080910402602001604051908101604052809291908181526020018280546119519061327d565b801561199e5780601f106119735761010080835404028352916020019161199e565b820191906000526020600020905b81548152906001019060200180831161198157829003601f168201915b5050509183525050600182015460ff166020808301919091526002830180546040805182850281018501825282815294019392830182828015611a1e57602002820191906000526020600020906000905b825461010083900a900460ff168152602060019283018181049485019490930390920291018084116119ef5790505b505050918352505060038201546001600160a01b0316602082015260049091015460409091015292915050565b3360009081526002602052604090205460ff16611a7b57604051634289c49360e01b815260040160405180910390fd5b600455565b611a886123b8565b6001600160a01b038116611ab757604051631e4fbdf760e01b8152600060048201526024015b60405180910390fd5b611ac0816123e5565b50565b6001546000906001600160a01b03163314611af15760405163a71ed6c760e01b815260040160405180910390fd5b6001600160a01b038216611b185760405163e6c4247b60e01b815260040160405180910390fd5b6001600160a01b0382166000908152600960209081526040808320600b90925282205490915b81811015611c91576000838281548110611b5a57611b5a613238565b90600052602060002090600502016000018054611b769061327d565b80601f0160208091040260200160405190810160405280929190818152602001828054611ba29061327d565b8015611bef5780601f10611bc457610100808354040283529160200191611bef565b820191906000526020600020905b815481529060010190602001808311611bd257829003601f168201915b505050505090506000848381548110611c0a57611c0a613238565b600091825260209091206001600590920201015460ff169050611c2e87828461247e565b611c3782612732565b5060ff81166000908152600c60205260408120805460019290611c5b9084906133a1565b925050819055506001600d6000828254611c7591906133a1565b9250508190555050508080611c8990613264565b915050611b3e565b506001600160a01b0384166000908152600960205260408120611cb391612ae6565b6001600160a01b0384166000818152600b602090815260408083209290925590519182527f65419c67e554142d50c59abd004485123ca498611a223f842e75dd96225ba4c8910160405180910390a16001925050505b919050565b6001546001600160a01b0316611d375760405163cfdf350560e01b815260040160405180910390fd5b6005546001600160a01b0384166000908152600b602052604090205410611d715760405163182a7d7760e01b815260040160405180910390fd5b600454600d5410611d955760405163182a7d7760e01b815260040160405180910390fd5b60015460405163117ece1960e31b81526000916001600160a01b031690638bf670c890611dc890879087906004016132b7565b6020604051808303816000875af1158015611de7573d6000803e3d6000fd5b505050506040513d601f19601f82011682018060405250810190611e0b91906132d3565b905080611e2b5760405163142d47a160e11b815260040160405180910390fd5b60005b82518160ff161015611e8e578360ff16838260ff1681518110611e5357611e53613238565b602002602001015160ff1603611e7c57604051630d1ecf1760e11b815260040160405180910390fd5b80611e86816132f0565b915050611e2e565b506000611e9b858561114d565b60608101519091506001600160a01b031615611eca5760405163eeee5c8b60e01b815260040160405180910390fd5b6001600160a01b0385166000908152600b60205260408120805460019290611ef39084906133b4565b909155505060ff84166000908152600c60205260408120805460019290611f1b9084906133b4565b925050819055506001600d6000828254611f3591906133b4565b90915550506040805160a08101825287815260ff861660208201529081018490526001600160a01b038616606082015242608082015260088054600181018255600091909152815160059091027ff3f7a9fe364faab93b216da50a3214154f22a0a2b415b23a84c8169e8b636ee301908190611fb19082613415565b5060208281015160018301805460ff191660ff90921691909117905560408301518051611fe49260028501920190612b42565b5060608201516003820180546001600160a01b0319166001600160a01b039283161790556080909201516004909101558516600090815260096020526040902060088054612034906001906133a1565b8154811061204457612044613238565b600091825260208083208454600181018655948452922060059182029092019202018061207183826134d5565b50600182810154908201805460ff191660ff909216919091179055600280830180546120a09284019190612be8565b5060038281015490820180546001600160a01b0319166001600160a01b0390921691909117905560049182015491015560ff84166000908152600a60205260409020600880546120f2906001906133a1565b8154811061210257612102613238565b600091825260208083208454600181018655948452922060059182029092019202018061212f83826134d5565b50600182810154908201805460ff191660ff9092169190911790556002808301805461215e9284019190612be8565b5060038281015490820180546001600160a01b0319166001600160a01b0390921691909117905560049182015491015560075460ff16156121fe57600154604051631c5568eb60e21b81526001600160a01b0390911690637155a3ac906121cb90889088906004016132b7565b600060405180830381600087803b1580156121e557600080fd5b505af11580156121f9573d6000803e3d6000fd5b505050505b7fed750964f1f81f105e56dfd1121427e0898e7bc23d6c10e92d851a2d35e0cfc5858585604051612231939291906135a8565b60405180910390a1505050505050565b60006001600160a01b03851661226a5760405163e6c4247b60e01b815260040160405180910390fd5b6122758585856129af565b61228085858561247e565b61228983612732565b506001600160a01b0385166000908152600b602052604081208054600192906122b39084906133a1565b909155505060ff84166000908152600c602052604081208054600192906122db9084906133a1565b925050819055506001600d60008282546122f591906133a1565b909155505060075460ff16801561230a575081155b1561237457600154604051630aaf17c960e11b81526001600160a01b039091169063155e2f929061234190889088906004016132b7565b600060405180830381600087803b15801561235b57600080fd5b505af115801561236f573d6000803e3d6000fd5b505050505b7f7911e34642eae38762395a3dd0fa3308d0f8908b92fe36c41543d635ab7cb8f585856040516123a59291906132b7565b60405180910390a1506001949350505050565b6000546001600160a01b03163314610d0c5760405163118cdaa760e01b8152336004820152602401611aae565b600080546001600160a01b038381166001600160a01b0319831681178455604051919092169283917f8be0079c531659141344cd1fd0a4f28419497f9722a3daafe3b4186f6b6457e09190a35050565b61243d612b07565b506040805160c081018252600060a0820181815282526020808301829052835182815290810184529282019290925260608101829052608081019190915290565b60ff82166000908152600a60205260408120905b815481101561063a576125508282815481106124b0576124b0613238565b906000526020600020906005020160000180546124cc9061327d565b80601f01602080910402602001604051908101604052809291908181526020018280546124f89061327d565b80156125455780601f1061251a57610100808354040283529160200191612545565b820191906000526020600020905b81548152906001019060200180831161252857829003601f168201915b505050505084612a8d565b1561272057846001600160a01b031682828154811061257157612571613238565b60009182526020909120600360059092020101546001600160a01b03161415806125c657508360ff168282815481106125ac576125ac613238565b600091825260209091206001600590920201015460ff1614155b156125e4576040516357aeb86360e11b815260040160405180910390fd5b81546125f2906001906133a1565b8110156126b45781548290612609906001906133a1565b8154811061261957612619613238565b906000526020600020906005020182828154811061263957612639613238565b600091825260209091206005909102018061265483826134d5565b50600182810154908201805460ff191660ff909216919091179055600280830180546126839284019190612be8565b5060038281015490820180546001600160a01b0319166001600160a01b039092169190911790556004918201549101555b818054806126c4576126c46135d5565b600082815260208120600019909201916005830201906126e48282612c36565b60018201805460ff191690556126fe600283016000612c70565b506003810180546001600160a01b03191690556000600490910155905561063a565b8061272a81613264565b915050612492565b600080805b6008548110156129a8576008548110801561280357506128036008828154811061276357612763613238565b9060005260206000209060050201600001805461277f9061327d565b80601f01602080910402602001604051908101604052809291908181526020018280546127ab9061327d565b80156127f85780601f106127cd576101008083540402835291602001916127f8565b820191906000526020600020905b8154815290600101906020018083116127db57829003601f168201915b505050505085612a8d565b15612996576008818154811061281b5761281b613238565b600091825260208220600590910201906128358282612c36565b60018201805460ff1916905561284f600283016000612c70565b506003810180546001600160a01b031916905560006004909101556008805461287a906001906133a1565b8154811061288a5761288a613238565b9060005260206000209060050201600882815481106128ab576128ab613238565b60009182526020909120600590910201806128c683826134d5565b50600182810154908201805460ff191660ff909216919091179055600280830180546128f59284019190612be8565b5060038281015490820180546001600160a01b0319166001600160a01b039092169190911790556004918201549101556008805480612936576129366135d5565b600082815260208120600019909201916005830201906129568282612c36565b60018201805460ff19169055612970600283016000612c70565b506003810180546001600160a01b031916905560006004909101559055600191506129a8565b806129a081613264565b915050612737565b5092915050565b6001600160a01b0383166000908152600960205260408120905b815481101561063a576129e78282815481106124b0576124b0613238565b15612a7b57846001600160a01b0316828281548110612a0857612a08613238565b60009182526020909120600360059092020101546001600160a01b0316141580612a5d57508360ff16828281548110612a4357612a43613238565b600091825260209091206001600590920201015460ff1614155b156125e45760405163b7f2d83360e01b815260040160405180910390fd5b80612a8581613264565b9150506129c9565b600081604051602001612aa0919061330f565b6040516020818303038152906040528051906020012083604051602001612ac7919061330f565b6040516020818303038152906040528051906020012014905092915050565b5080546000825560050290600052602060002090810190611ac09190612c95565b6040518060a0016040528060608152602001600060ff1681526020016060815260200160006001600160a01b03168152602001600081525090565b82805482825590600052602060002090601f01602090048101928215612bd85791602002820160005b83821115612ba957835183826101000a81548160ff021916908360ff1602179055509260200192600101602081600001049283019260010302612b6b565b8015612bd65782816101000a81549060ff0219169055600101602081600001049283019260010302612ba9565b505b50612be4929150612ce5565b5090565b82805482825590600052602060002090601f01602090048101928215612bd857600052602060002091601f016020900482015b82811115612bd8578254825591600101919060010190612c1b565b508054612c429061327d565b6000825580601f10612c52575050565b601f016020900490600052602060002090810190611ac09190612ce5565b50805460008255601f016020900490600052602060002090810190611ac09190612ce5565b80821115612be4576000612ca98282612c36565b60018201805460ff19169055612cc3600283016000612c70565b506003810180546001600160a01b031916905560006004820155600501612c95565b5b80821115612be45760008155600101612ce6565b80356001600160a01b0381168114611d0957600080fd5b600060208284031215612d2357600080fd5b612d2c82612cfa565b9392505050565b634e487b7160e01b600052604160045260246000fd5b604051601f8201601f1916810167ffffffffffffffff81118282101715612d7257612d72612d33565b604052919050565b600082601f830112612d8b57600080fd5b813567ffffffffffffffff811115612da557612da5612d33565b612db8601f8201601f1916602001612d49565b818152846020838601011115612dcd57600080fd5b816020850160208301376000918101602001919091529392505050565b803560ff81168114611d0957600080fd5b600082601f830112612e0c57600080fd5b8135602067ffffffffffffffff821115612e2857612e28612d33565b8160051b612e37828201612d49565b9283528481018201928281019087851115612e5157600080fd5b83870192505b84831015612e7757612e6883612dea565b82529183019190830190612e57565b979650505050505050565b60008060008060808587031215612e9857600080fd5b843567ffffffffffffffff80821115612eb057600080fd5b612ebc88838901612d7a565b9550612eca60208801612cfa565b9450612ed860408801612dea565b93506060870135915080821115612eee57600080fd5b50612efb87828801612dfb565b91505092959194509250565b60008060408385031215612f1a57600080fd5b612f2383612cfa565b9150612f3160208401612dea565b90509250929050565b600060208284031215612f4c57600080fd5b5035919050565b600060208284031215612f6557600080fd5b612d2c82612dea565b600080600060608486031215612f8357600080fd5b833567ffffffffffffffff80821115612f9b57600080fd5b612fa787838801612d7a565b9450612fb560208701612dea565b93506040860135915080821115612fcb57600080fd5b50612fd886828701612dfb565b9150509250925092565b60005b83811015612ffd578181015183820152602001612fe5565b50506000910152565b6000815180845261301e816020860160208601612fe2565b601f01601f19169290920160200192915050565b600081518084526020808501945080840160005b8381101561306557815160ff1687529582019590820190600101613046565b509495945050505050565b6000815160a0845261308560a0850182613006565b905060ff6020840151166020850152604083015184820360408601526130ab8282613032565b6060858101516001600160a01b0316908701526080948501519490950193909352509192915050565b6000602080830181845280855180835260408601915060408160051b870101925083870160005b8281101561312957603f19888603018452613117858351613070565b945092850192908501906001016130fb565b5092979650505050505050565b8015158114611ac057600080fd5b60006020828403121561315657600080fd5b8135612d2c81613136565b6080815260006131746080830187613006565b60ff959095166020830152506001600160a01b03929092166040830152606090910152919050565b602081526000612d2c6020830184613070565b600080600080608085870312156131c557600080fd5b6131ce85612cfa565b93506131dc60208601612dea565b92506131ea60408601612cfa565b91506131f860608601612dea565b905092959194509250565b60006020828403121561321557600080fd5b813567ffffffffffffffff81111561322c57600080fd5b61096784828501612d7a565b634e487b7160e01b600052603260045260246000fd5b634e487b7160e01b600052601160045260246000fd5b6000600182016132765761327661324e565b5060010190565b600181811c9082168061329157607f821691505b6020821081036132b157634e487b7160e01b600052602260045260246000fd5b50919050565b6001600160a01b0392909216825260ff16602082015260400190565b6000602082840312156132e557600080fd5b8151612d2c81613136565b600060ff821660ff81036133065761330661324e565b60010192915050565b60008251613321818460208701612fe2565b9190910192915050565b60008083546133398161327d565b60018281168015613351576001811461336657613395565b60ff1984168752821515830287019450613395565b8760005260208060002060005b8581101561338c5781548a820152908401908201613373565b50505082870194505b50929695505050505050565b8181038181111561073d5761073d61324e565b8082018082111561073d5761073d61324e565b601f82111561097b57600081815260208120601f850160051c810160208610156133ee5750805b601f850160051c820191505b8181101561340d578281556001016133fa565b505050505050565b815167ffffffffffffffff81111561342f5761342f612d33565b6134438161343d845461327d565b846133c7565b602080601f83116001811461347857600084156134605750858301515b600019600386901b1c1916600185901b17855561340d565b600085815260208120601f198616915b828110156134a757888601518255948401946001909101908401613488565b50858210156134c55787850151600019600388901b60f8161c191681555b5050505050600190811b01905550565b8181036134e0575050565b6134ea825461327d565b67ffffffffffffffff81111561350257613502612d33565b6135108161343d845461327d565b6000601f821160018114613544576000831561352c5750848201545b600019600385901b1c1916600184901b17845561063a565b600085815260209020601f19841690600086815260209020845b8381101561357e578286015482556001958601959091019060200161355e565b50858310156134c55793015460001960f8600387901b161c19169092555050600190811b01905550565b6001600160a01b038416815260ff83166020820152606060408201819052600090610c7a90830184613032565b634e487b7160e01b600052603160045260246000fdfea26469706673582212206049a3600a2849a04d9bce9a19981d3f6780407816218c7190e503af5adcb5d764736f6c63430008140033",
  "linkReferences": {
    "contracts/gamma/libs/LibControlMgmt.sol": {
      "LibControlMgmt": [
        {
          "length": 20,
          "start": 1898
        },
        {
          "length": 20,
          "start": 3666
        }
      ]
    }
  },
  "deployedLinkReferences": {
    "contracts/gamma/libs/LibControlMgmt.sol": {
      "LibControlMgmt": [
        {
          "length": 20,
          "start": 1520
        },
        {
          "length": 20,
          "start": 3288
        }
      ]
    }
  }
}